{
  "contractName": "MockPriceOracle",
  "abi": [
    {
      "inputs": [
        {
          "internalType": "uint256",
          "name": "_initialPrice",
          "type": "uint256"
        }
      ],
      "stateMutability": "nonpayable",
      "type": "constructor"
    },
    {
      "anonymous": false,
      "inputs": [
        {
          "indexed": false,
          "internalType": "uint256",
          "name": "newAge",
          "type": "uint256"
        }
      ],
      "name": "MaxPriceAgeUpdated",
      "type": "event"
    },
    {
      "anonymous": false,
      "inputs": [
        {
          "indexed": false,
          "internalType": "bool",
          "name": "active",
          "type": "bool"
        }
      ],
      "name": "OracleStatusChanged",
      "type": "event"
    },
    {
      "anonymous": false,
      "inputs": [
        {
          "indexed": false,
          "internalType": "uint256",
          "name": "newPrice",
          "type": "uint256"
        },
        {
          "indexed": false,
          "internalType": "uint256",
          "name": "timestamp",
          "type": "uint256"
        }
      ],
      "name": "PriceUpdated",
      "type": "event"
    },
    {
      "inputs": [],
      "name": "active",
      "outputs": [
        {
          "internalType": "bool",
          "name": "",
          "type": "bool"
        }
      ],
      "stateMutability": "view",
      "type": "function"
    },
    {
      "inputs": [],
      "name": "maxPriceAge",
      "outputs": [
        {
          "internalType": "uint256",
          "name": "",
          "type": "uint256"
        }
      ],
      "stateMutability": "view",
      "type": "function"
    },
    {
      "inputs": [],
      "name": "owner",
      "outputs": [
        {
          "internalType": "address",
          "name": "",
          "type": "address"
        }
      ],
      "stateMutability": "view",
      "type": "function"
    },
    {
      "inputs": [],
      "name": "getPrice",
      "outputs": [
        {
          "internalType": "uint256",
          "name": "",
          "type": "uint256"
        }
      ],
      "stateMutability": "view",
      "type": "function"
    },
    {
      "inputs": [],
      "name": "getPriceWithTimestamp",
      "outputs": [
        {
          "internalType": "uint256",
          "name": "",
          "type": "uint256"
        },
        {
          "internalType": "uint256",
          "name": "",
          "type": "uint256"
        }
      ],
      "stateMutability": "view",
      "type": "function"
    },
    {
      "inputs": [],
      "name": "isActive",
      "outputs": [
        {
          "internalType": "bool",
          "name": "",
          "type": "bool"
        }
      ],
      "stateMutability": "view",
      "type": "function"
    },
    {
      "inputs": [],
      "name": "getMaxPriceAge",
      "outputs": [
        {
          "internalType": "uint256",
          "name": "",
          "type": "uint256"
        }
      ],
      "stateMutability": "view",
      "type": "function"
    },
    {
      "inputs": [
        {
          "internalType": "uint256",
          "name": "_newPrice",
          "type": "uint256"
        }
      ],
      "name": "updatePrice",
      "outputs": [],
      "stateMutability": "nonpayable",
      "type": "function"
    },
    {
      "inputs": [
        {
          "internalType": "bool",
          "name": "_active",
          "type": "bool"
        }
      ],
      "name": "setActive",
      "outputs": [],
      "stateMutability": "nonpayable",
      "type": "function"
    },
    {
      "inputs": [
        {
          "internalType": "uint256",
          "name": "_maxAge",
          "type": "uint256"
        }
      ],
      "name": "setMaxPriceAge",
      "outputs": [],
      "stateMutability": "nonpayable",
      "type": "function"
    },
    {
      "inputs": [
        {
          "internalType": "int256",
          "name": "changePercent",
          "type": "int256"
        }
      ],
      "name": "simulatePriceMovement",
      "outputs": [],
      "stateMutability": "nonpayable",
      "type": "function"
    },
    {
      "inputs": [
        {
          "internalType": "address",
          "name": "newOwner",
          "type": "address"
        }
      ],
      "name": "transferOwnership",
      "outputs": [],
      "stateMutability": "nonpayable",
      "type": "function"
    }
  ],
  "bytecode": "0x6080604052610e106003556004805460ff19166001179055348015610022575f80fd5b5060405161087e38038061087e8339810160408190526100419161005e565b5f80546001600160a01b0319163317905560015542600255610075565b5f6020828403121561006e575f80fd5b5051919050565b6107fc806100825f395ff3fe608060405234801561000f575f80fd5b50600436106100b1575f3560e01c806398d5fdca1161006e57806398d5fdca14610148578063a432cc8c14610150578063acec338a14610158578063e7dd43d21461016b578063f2fde38b14610188578063fca7303a1461019b575f80fd5b806302fb0c5e146100b55780631584410a146100d757806322f3e2d4146100ee57806356447ce8146100f65780638d6cc56d1461010b5780638da5cb5b1461011e575b5f80fd5b6004546100c29060ff1681565b60405190151581526020015b60405180910390f35b6100e060035481565b6040519081526020016100ce565b6100c26101ae565b61010961010436600461067d565b6101d6565b005b61010961011936600461067d565b610289565b5f54610130906001600160a01b031681565b6040516001600160a01b0390911681526020016100ce565b6100e061033b565b6003546100e0565b610109610166366004610694565b6103e0565b61017361044a565b604080519283526020830191909152016100ce565b6101096101963660046106ba565b61049f565b6101096101a936600461067d565b610537565b6004545f9060ff1680156101d157506003546002546101cd91906106f4565b4211155b905090565b5f546001600160a01b031633146102085760405162461bcd60e51b81526004016101ff9061070d565b60405180910390fd5b5f811161024d5760405162461bcd60e51b81526020600482015260136024820152724f7261636c653a20696e76616c69642061676560681b60448201526064016101ff565b60038190556040518181527fb1740bfafb685e9cda34b9238959b40d11f603ba6db685c0468d4804140547b4906020015b60405180910390a150565b5f546001600160a01b031633146102b25760405162461bcd60e51b81526004016101ff9061070d565b5f81116102f95760405162461bcd60e51b81526020600482015260156024820152744f7261636c653a20696e76616c696420707269636560581b60448201526064016101ff565b60018190554260028190556040805183815260208101929092527f945c1c4e99aa89f648fbfe3df471b916f719e16d960fcec0737d4d56bd696838910161027e565b6004545f9060ff166103825760405162461bcd60e51b815260206004820152601060248201526f4f7261636c653a20696e61637469766560801b60448201526064016101ff565b60035460025461039291906106f4565b4211156103d95760405162461bcd60e51b815260206004820152601560248201527413dc9858db194e881c1c9a58d9481d1bdbc81bdb19605a1b60448201526064016101ff565b5060015490565b5f546001600160a01b031633146104095760405162461bcd60e51b81526004016101ff9061070d565b6004805460ff19168215159081179091556040519081527f25de6ecc0a07bc4466fd80484cf3004b609d934030530ddde3ae04b8da1da2499060200161027e565b6004545f90819060ff166104935760405162461bcd60e51b815260206004820152601060248201526f4f7261636c653a20696e61637469766560801b60448201526064016101ff565b50506001546002549091565b5f546001600160a01b031633146104c85760405162461bcd60e51b81526004016101ff9061070d565b6001600160a01b0381166105165760405162461bcd60e51b815260206004820152601560248201527427b930b1b6329d1034b73b30b634b21037bbb732b960591b60448201526064016101ff565b5f80546001600160a01b0319166001600160a01b0392909216919091179055565b5f546001600160a01b031633146105605760405162461bcd60e51b81526004016101ff9061070d565b61138719811215801561057557506113888113155b6105c15760405162461bcd60e51b815260206004820152601860248201527f4f7261636c653a206368616e676520746f6f206c61726765000000000000000060448201526064016101ff565b5f612710826001546105d39190610738565b6105dd9190610767565b6001546105ea919061079f565b90505f81136106345760405162461bcd60e51b815260206004820152601660248201527513dc9858db194e881a5b9d985b1a59081c995cdd5b1d60521b60448201526064016101ff565b60018190554260028190556040805183815260208101929092527f945c1c4e99aa89f648fbfe3df471b916f719e16d960fcec0737d4d56bd696838910160405180910390a15050565b5f6020828403121561068d575f80fd5b5035919050565b5f602082840312156106a4575f80fd5b813580151581146106b3575f80fd5b9392505050565b5f602082840312156106ca575f80fd5b81356001600160a01b03811681146106b3575f80fd5b634e487b7160e01b5f52601160045260245ffd5b80820180821115610707576107076106e0565b92915050565b60208082526011908201527027b930b1b6329d103737ba1037bbb732b960791b604082015260600190565b8082025f8212600160ff1b84141615610753576107536106e0565b8181058314821517610707576107076106e0565b5f8261078157634e487b7160e01b5f52601260045260245ffd5b600160ff1b82145f198414161561079a5761079a6106e0565b500590565b8082018281125f8312801582168215821617156107be576107be6106e0565b50509291505056fea264697066735822122067d47bf6dc3890cfe06a4c14a9f02981710b67ff2c1db9da75aae5506e5385c764736f6c63430008140033",
  "immutableReferences": {},
  "source": "// SPDX-License-Identifier: MIT\npragma solidity ^0.8.20;\n\nimport \"./IPriceOracle.sol\";\n\n/**\n * @title MockPriceOracle\n * @dev Mock price oracle for testing and development\n */\ncontract MockPriceOracle is IPriceOracle {\n    address public owner;\n    uint256 private price;\n    uint256 private lastUpdateTime;\n    uint256 public maxPriceAge = 1 hours;\n    bool public active = true;\n    \n    event PriceUpdated(uint256 newPrice, uint256 timestamp);\n    event OracleStatusChanged(bool active);\n    event MaxPriceAgeUpdated(uint256 newAge);\n    \n    modifier onlyOwner() {\n        require(msg.sender == owner, \"Oracle: not owner\");\n        _;\n    }\n    \n    constructor(uint256 _initialPrice) {\n        owner = msg.sender;\n        price = _initialPrice;\n        lastUpdateTime = block.timestamp;\n    }\n    \n    /**\n     * @dev Returns the current price with 18 decimals\n     */\n    function getPrice() external view override returns (uint256) {\n        require(active, \"Oracle: inactive\");\n        require(block.timestamp <= lastUpdateTime + maxPriceAge, \"Oracle: price too old\");\n        return price;\n    }\n    \n    /**\n     * @dev Returns the current price with timestamp\n     */\n    function getPriceWithTimestamp() external view override returns (uint256, uint256) {\n        require(active, \"Oracle: inactive\");\n        return (price, lastUpdateTime);\n    }\n    \n    /**\n     * @dev Checks if the oracle is active and healthy\n     */\n    function isActive() external view override returns (bool) {\n        return active && (block.timestamp <= lastUpdateTime + maxPriceAge);\n    }\n    \n    /**\n     * @dev Returns the maximum acceptable price age in seconds\n     */\n    function getMaxPriceAge() external view override returns (uint256) {\n        return maxPriceAge;\n    }\n    \n    /**\n     * @dev Updates the price (admin only)\n     */\n    function updatePrice(uint256 _newPrice) external onlyOwner {\n        require(_newPrice > 0, \"Oracle: invalid price\");\n        price = _newPrice;\n        lastUpdateTime = block.timestamp;\n        emit PriceUpdated(_newPrice, block.timestamp);\n    }\n    \n    /**\n     * @dev Sets oracle active status\n     */\n    function setActive(bool _active) external onlyOwner {\n        active = _active;\n        emit OracleStatusChanged(_active);\n    }\n    \n    /**\n     * @dev Updates max price age\n     */\n    function setMaxPriceAge(uint256 _maxAge) external onlyOwner {\n        require(_maxAge > 0, \"Oracle: invalid age\");\n        maxPriceAge = _maxAge;\n        emit MaxPriceAgeUpdated(_maxAge);\n    }\n    \n    /**\n     * @dev Simulates price movement (for testing)\n     */\n     \n    function simulatePriceMovement(int256 changePercent) external onlyOwner {\n        require(changePercent >= -5000 && changePercent <= 5000, \"Oracle: change too large\"); // Max 50% change\n        \n        int256 newPrice = int256(price) + (int256(price) * changePercent) / 10000;\n        require(newPrice > 0, \"Oracle: invalid result\");\n        \n        price = uint256(newPrice);\n        lastUpdateTime = block.timestamp;\n        emit PriceUpdated(price, block.timestamp);\n    }\n    \n    /**\n     * @dev Transfers ownership\n     */\n    function transferOwnership(address newOwner) external onlyOwner {\n        require(newOwner != address(0), \"Oracle: invalid owner\");\n        owner = newOwner;\n    }\n} ",
  "sourcePath": "/Users/gplay_sayid/Desktop/CODE/dexextra/DexContracts/contracts/MockPriceOracle.sol",
  "compiler": {
    "name": "solc",
    "version": "0.8.20+commit.a1b79de6.Emscripten.clang"
  },
  "schemaVersion": "3.4.16",
  "updatedAt": "2025-07-10T16:59:14.174Z",
  "devdoc": {
    "details": "Mock price oracle for testing and development",
    "kind": "dev",
    "methods": {
      "getMaxPriceAge()": {
        "details": "Returns the maximum acceptable price age in seconds"
      },
      "getPrice()": {
        "details": "Returns the current price with 18 decimals"
      },
      "getPriceWithTimestamp()": {
        "details": "Returns the current price with timestamp"
      },
      "isActive()": {
        "details": "Checks if the oracle is active and healthy"
      },
      "setActive(bool)": {
        "details": "Sets oracle active status"
      },
      "setMaxPriceAge(uint256)": {
        "details": "Updates max price age"
      },
      "simulatePriceMovement(int256)": {
        "details": "Simulates price movement (for testing)"
      },
      "transferOwnership(address)": {
        "details": "Transfers ownership"
      },
      "updatePrice(uint256)": {
        "details": "Updates the price (admin only)"
      }
    },
    "title": "MockPriceOracle",
    "version": 1
  },
  "userdoc": {
    "kind": "user",
    "methods": {},
    "version": 1
  }
}