{
  "contractName": "MockUSDC",
  "abi": [
    {
      "inputs": [
        {
          "internalType": "uint256",
          "name": "_initialSupply",
          "type": "uint256"
        }
      ],
      "stateMutability": "nonpayable",
      "type": "constructor"
    },
    {
      "anonymous": false,
      "inputs": [
        {
          "indexed": true,
          "internalType": "address",
          "name": "owner",
          "type": "address"
        },
        {
          "indexed": true,
          "internalType": "address",
          "name": "spender",
          "type": "address"
        },
        {
          "indexed": false,
          "internalType": "uint256",
          "name": "value",
          "type": "uint256"
        }
      ],
      "name": "Approval",
      "type": "event"
    },
    {
      "anonymous": false,
      "inputs": [
        {
          "indexed": true,
          "internalType": "address",
          "name": "to",
          "type": "address"
        },
        {
          "indexed": false,
          "internalType": "uint256",
          "name": "value",
          "type": "uint256"
        }
      ],
      "name": "Mint",
      "type": "event"
    },
    {
      "anonymous": false,
      "inputs": [
        {
          "indexed": true,
          "internalType": "address",
          "name": "from",
          "type": "address"
        },
        {
          "indexed": true,
          "internalType": "address",
          "name": "to",
          "type": "address"
        },
        {
          "indexed": false,
          "internalType": "uint256",
          "name": "value",
          "type": "uint256"
        }
      ],
      "name": "Transfer",
      "type": "event"
    },
    {
      "inputs": [
        {
          "internalType": "address",
          "name": "",
          "type": "address"
        },
        {
          "internalType": "address",
          "name": "",
          "type": "address"
        }
      ],
      "name": "allowance",
      "outputs": [
        {
          "internalType": "uint256",
          "name": "",
          "type": "uint256"
        }
      ],
      "stateMutability": "view",
      "type": "function"
    },
    {
      "inputs": [
        {
          "internalType": "address",
          "name": "",
          "type": "address"
        }
      ],
      "name": "balanceOf",
      "outputs": [
        {
          "internalType": "uint256",
          "name": "",
          "type": "uint256"
        }
      ],
      "stateMutability": "view",
      "type": "function"
    },
    {
      "inputs": [],
      "name": "decimals",
      "outputs": [
        {
          "internalType": "uint8",
          "name": "",
          "type": "uint8"
        }
      ],
      "stateMutability": "view",
      "type": "function"
    },
    {
      "inputs": [],
      "name": "name",
      "outputs": [
        {
          "internalType": "string",
          "name": "",
          "type": "string"
        }
      ],
      "stateMutability": "view",
      "type": "function"
    },
    {
      "inputs": [],
      "name": "owner",
      "outputs": [
        {
          "internalType": "address",
          "name": "",
          "type": "address"
        }
      ],
      "stateMutability": "view",
      "type": "function"
    },
    {
      "inputs": [],
      "name": "symbol",
      "outputs": [
        {
          "internalType": "string",
          "name": "",
          "type": "string"
        }
      ],
      "stateMutability": "view",
      "type": "function"
    },
    {
      "inputs": [],
      "name": "totalSupply",
      "outputs": [
        {
          "internalType": "uint256",
          "name": "",
          "type": "uint256"
        }
      ],
      "stateMutability": "view",
      "type": "function"
    },
    {
      "inputs": [
        {
          "internalType": "address",
          "name": "to",
          "type": "address"
        },
        {
          "internalType": "uint256",
          "name": "value",
          "type": "uint256"
        }
      ],
      "name": "transfer",
      "outputs": [
        {
          "internalType": "bool",
          "name": "",
          "type": "bool"
        }
      ],
      "stateMutability": "nonpayable",
      "type": "function"
    },
    {
      "inputs": [
        {
          "internalType": "address",
          "name": "from",
          "type": "address"
        },
        {
          "internalType": "address",
          "name": "to",
          "type": "address"
        },
        {
          "internalType": "uint256",
          "name": "value",
          "type": "uint256"
        }
      ],
      "name": "transferFrom",
      "outputs": [
        {
          "internalType": "bool",
          "name": "",
          "type": "bool"
        }
      ],
      "stateMutability": "nonpayable",
      "type": "function"
    },
    {
      "inputs": [
        {
          "internalType": "address",
          "name": "spender",
          "type": "address"
        },
        {
          "internalType": "uint256",
          "name": "value",
          "type": "uint256"
        }
      ],
      "name": "approve",
      "outputs": [
        {
          "internalType": "bool",
          "name": "",
          "type": "bool"
        }
      ],
      "stateMutability": "nonpayable",
      "type": "function"
    },
    {
      "inputs": [
        {
          "internalType": "address",
          "name": "to",
          "type": "address"
        },
        {
          "internalType": "uint256",
          "name": "value",
          "type": "uint256"
        }
      ],
      "name": "mint",
      "outputs": [],
      "stateMutability": "nonpayable",
      "type": "function"
    },
    {
      "inputs": [
        {
          "internalType": "uint256",
          "name": "amount",
          "type": "uint256"
        }
      ],
      "name": "faucet",
      "outputs": [],
      "stateMutability": "nonpayable",
      "type": "function"
    },
    {
      "inputs": [
        {
          "internalType": "address",
          "name": "newOwner",
          "type": "address"
        }
      ],
      "name": "transferOwnership",
      "outputs": [],
      "stateMutability": "nonpayable",
      "type": "function"
    }
  ],
  "bytecode": "0x60c0604052600d60809081526c26b7b1b5902aa9a21021b7b4b760991b60a0525f906200002d9082620001b9565b506040805180820190915260048152635553444360e01b6020820152600190620000589082620001b9565b506002805460ff1916600617905534801562000072575f80fd5b5060405162000ffb38038062000ffb833981016040819052620000959162000281565b600680546001600160a01b03191633179055600254620000ba9060ff16600a620003a8565b620000c69082620003bf565b6003819055335f81815260046020908152604080832085905551938452919290917fddf252ad1be2c89b69c2b068fc378daa952ba7f163c4a11628f55a4df523b3ef910160405180910390a350620003d9565b634e487b7160e01b5f52604160045260245ffd5b600181811c908216806200014257607f821691505b6020821081036200016157634e487b7160e01b5f52602260045260245ffd5b50919050565b601f821115620001b4575f81815260208120601f850160051c810160208610156200018f5750805b601f850160051c820191505b81811015620001b0578281556001016200019b565b5050505b505050565b81516001600160401b03811115620001d557620001d562000119565b620001ed81620001e684546200012d565b8462000167565b602080601f83116001811462000223575f84156200020b5750858301515b5f19600386901b1c1916600185901b178555620001b0565b5f85815260208120601f198616915b82811015620002535788860151825594840194600190910190840162000232565b50858210156200027157878501515f19600388901b60f8161c191681555b5050505050600190811b01905550565b5f6020828403121562000292575f80fd5b5051919050565b634e487b7160e01b5f52601160045260245ffd5b600181815b80851115620002ed57815f1904821115620002d157620002d162000299565b80851615620002df57918102915b93841c9390800290620002b2565b509250929050565b5f826200030557506001620003a2565b816200031357505f620003a2565b81600181146200032c5760028114620003375762000357565b6001915050620003a2565b60ff8411156200034b576200034b62000299565b50506001821b620003a2565b5060208310610133831016604e8410600b84101617156200037c575081810a620003a2565b620003888383620002ad565b805f19048211156200039e576200039e62000299565b0290505b92915050565b5f620003b860ff841683620002f5565b9392505050565b8082028115828204841417620003a257620003a262000299565b610c1480620003e75f395ff3fe608060405234801561000f575f80fd5b50600436106100cb575f3560e01c8063579158971161008857806395d89b411161006357806395d89b41146101cb578063a9059cbb146101d3578063dd62ed3e146101e6578063f2fde38b14610210575f80fd5b8063579158971461016e57806370a08231146101815780638da5cb5b146101a0575f80fd5b806306fdde03146100cf578063095ea7b3146100ed57806318160ddd1461011057806323b872dd14610127578063313ce5671461013a57806340c10f1914610159575b5f80fd5b6100d7610223565b6040516100e491906108e1565b60405180910390f35b6101006100fb366004610947565b6102ae565b60405190151581526020016100e4565b61011960035481565b6040519081526020016100e4565b61010061013536600461096f565b61031a565b6002546101479060ff1681565b60405160ff90911681526020016100e4565b61016c610167366004610947565b6104f8565b005b61016c61017c3660046109a8565b61061b565b61011961018f3660046109bf565b60046020525f908152604090205481565b6006546101b3906001600160a01b031681565b6040516001600160a01b0390911681526020016100e4565b6100d761071c565b6101006101e1366004610947565b610729565b6101196101f43660046109df565b600560209081525f928352604080842090915290825290205481565b61016c61021e3660046109bf565b610827565b5f805461022f90610a10565b80601f016020809104026020016040519081016040528092919081815260200182805461025b90610a10565b80156102a65780601f1061027d576101008083540402835291602001916102a6565b820191905f5260205f20905b81548152906001019060200180831161028957829003601f168201915b505050505081565b335f8181526005602090815260408083206001600160a01b038716808552925280832085905551919290917f8c5be1e5ebec7d5bd14f71427d1e84f3dd0314c0f7b2291e5b200ac8c7c3b925906103089086815260200190565b60405180910390a35060015b92915050565b5f6001600160a01b03831661034a5760405162461bcd60e51b815260040161034190610a48565b60405180910390fd5b6001600160a01b0384165f908152600460205260409020548211156103b15760405162461bcd60e51b815260206004820152601a60248201527f555344433a20696e73756666696369656e742062616c616e63650000000000006044820152606401610341565b6001600160a01b0384165f9081526005602090815260408083203384529091529020548211156104235760405162461bcd60e51b815260206004820152601c60248201527f555344433a20696e73756666696369656e7420616c6c6f77616e6365000000006044820152606401610341565b6001600160a01b0384165f908152600460205260408120805484929061044a908490610a93565b90915550506001600160a01b0383165f9081526004602052604081208054849290610476908490610aa6565b90915550506001600160a01b0384165f908152600560209081526040808320338452909152812080548492906104ad908490610a93565b92505081905550826001600160a01b0316846001600160a01b03165f80516020610bbf833981519152846040516104e691815260200190565b60405180910390a35060019392505050565b6006546001600160a01b031633146105445760405162461bcd60e51b815260206004820152600f60248201526e2aa9a2219d103737ba1037bbb732b960891b6044820152606401610341565b6001600160a01b03821661056a5760405162461bcd60e51b815260040161034190610a48565b8060035f82825461057b9190610aa6565b90915550506001600160a01b0382165f90815260046020526040812080548392906105a7908490610aa6565b90915550506040518181526001600160a01b038316907f0f6798a560793a54c3bcfe86a93cde1e73087d944c0ea20544137d41213968859060200160405180910390a26040518181526001600160a01b038316905f905f80516020610bbf8339815191529060200160405180910390a35050565b60025461062c9060ff16600a610b99565b61063890612710610ba7565b8111156106875760405162461bcd60e51b815260206004820152601b60248201527f555344433a20666175636574206c696d697420657863656564656400000000006044820152606401610341565b8060035f8282546106989190610aa6565b9091555050335f90815260046020526040812080548392906106bb908490610aa6565b909155505060405181815233907f0f6798a560793a54c3bcfe86a93cde1e73087d944c0ea20544137d41213968859060200160405180910390a260405181815233905f905f80516020610bbf8339815191529060200160405180910390a350565b6001805461022f90610a10565b5f6001600160a01b0383166107505760405162461bcd60e51b815260040161034190610a48565b335f908152600460205260409020548211156107ae5760405162461bcd60e51b815260206004820152601a60248201527f555344433a20696e73756666696369656e742062616c616e63650000000000006044820152606401610341565b335f90815260046020526040812080548492906107cc908490610a93565b90915550506001600160a01b0383165f90815260046020526040812080548492906107f8908490610aa6565b90915550506040518281526001600160a01b0384169033905f80516020610bbf83398151915290602001610308565b6006546001600160a01b031633146108735760405162461bcd60e51b815260206004820152600f60248201526e2aa9a2219d103737ba1037bbb732b960891b6044820152606401610341565b6001600160a01b0381166108bf5760405162461bcd60e51b81526020600482015260136024820152722aa9a2219d1034b73b30b634b21037bbb732b960691b6044820152606401610341565b600680546001600160a01b0319166001600160a01b0392909216919091179055565b5f6020808352835180828501525f5b8181101561090c578581018301518582016040015282016108f0565b505f604082860101526040601f19601f8301168501019250505092915050565b80356001600160a01b0381168114610942575f80fd5b919050565b5f8060408385031215610958575f80fd5b6109618361092c565b946020939093013593505050565b5f805f60608486031215610981575f80fd5b61098a8461092c565b92506109986020850161092c565b9150604084013590509250925092565b5f602082840312156109b8575f80fd5b5035919050565b5f602082840312156109cf575f80fd5b6109d88261092c565b9392505050565b5f80604083850312156109f0575f80fd5b6109f98361092c565b9150610a076020840161092c565b90509250929050565b600181811c90821680610a2457607f821691505b602082108103610a4257634e487b7160e01b5f52602260045260245ffd5b50919050565b60208082526017908201527f555344433a20696e76616c696420726563697069656e74000000000000000000604082015260600190565b634e487b7160e01b5f52601160045260245ffd5b8181038181111561031457610314610a7f565b8082018082111561031457610314610a7f565b600181815b80851115610af357815f1904821115610ad957610ad9610a7f565b80851615610ae657918102915b93841c9390800290610abe565b509250929050565b5f82610b0957506001610314565b81610b1557505f610314565b8160018114610b2b5760028114610b3557610b51565b6001915050610314565b60ff841115610b4657610b46610a7f565b50506001821b610314565b5060208310610133831016604e8410600b8410161715610b74575081810a610314565b610b7e8383610ab9565b805f1904821115610b9157610b91610a7f565b029392505050565b5f6109d860ff841683610afb565b808202811582820484141761031457610314610a7f56feddf252ad1be2c89b69c2b068fc378daa952ba7f163c4a11628f55a4df523b3efa2646970667358221220379f0b3217c8880bf4867994a93fe0939419171b9b1e8a20953562f866651e1b64736f6c63430008140033",
  "immutableReferences": {},
  "source": "// SPDX-License-Identifier: MIT\npragma solidity ^0.8.20;\n\n/**\n * @title MockUSDC\n * @dev Mock USDC token for testing vAMM system\n */\ncontract MockUSDC {\n    string public name = \"Mock USD Coin\";\n    string public symbol = \"USDC\";\n    uint8 public decimals = 6; // USDC has 6 decimals\n    uint256 public totalSupply;\n    \n    mapping(address => uint256) public balanceOf;\n    mapping(address => mapping(address => uint256)) public allowance;\n    \n    address public owner;\n    \n    event Transfer(address indexed from, address indexed to, uint256 value);\n    event Approval(address indexed owner, address indexed spender, uint256 value);\n    event Mint(address indexed to, uint256 value);\n    \n    modifier onlyOwner() {\n        require(msg.sender == owner, \"USDC: not owner\");\n        _;\n    }\n    \n    constructor(uint256 _initialSupply) {\n        owner = msg.sender;\n        totalSupply = _initialSupply * 10**decimals;\n        balanceOf[msg.sender] = totalSupply;\n        emit Transfer(address(0), msg.sender, totalSupply);\n    }\n    \n    function transfer(address to, uint256 value) external returns (bool) {\n        require(to != address(0), \"USDC: invalid recipient\");\n        require(balanceOf[msg.sender] >= value, \"USDC: insufficient balance\");\n        \n        balanceOf[msg.sender] -= value;\n        balanceOf[to] += value;\n        emit Transfer(msg.sender, to, value);\n        return true;\n    }\n    \n    function transferFrom(address from, address to, uint256 value) external returns (bool) {\n        require(to != address(0), \"USDC: invalid recipient\");\n        require(balanceOf[from] >= value, \"USDC: insufficient balance\");\n        require(allowance[from][msg.sender] >= value, \"USDC: insufficient allowance\");\n        \n        balanceOf[from] -= value;\n        balanceOf[to] += value;\n        allowance[from][msg.sender] -= value;\n        \n        emit Transfer(from, to, value);\n        return true;\n    }\n    \n    function approve(address spender, uint256 value) external returns (bool) {\n        allowance[msg.sender][spender] = value;\n        emit Approval(msg.sender, spender, value);\n        return true;\n    }\n    \n    function mint(address to, uint256 value) external onlyOwner {\n        require(to != address(0), \"USDC: invalid recipient\");\n        \n        totalSupply += value;\n        balanceOf[to] += value;\n        emit Mint(to, value);\n        emit Transfer(address(0), to, value);\n    }\n    \n    function faucet(uint256 amount) external {\n        require(amount <= 10000 * 10**decimals, \"USDC: faucet limit exceeded\"); // Max 10,000 USDC\n        \n        totalSupply += amount;\n        balanceOf[msg.sender] += amount;\n        emit Mint(msg.sender, amount);\n        emit Transfer(address(0), msg.sender, amount);\n    }\n    \n    function transferOwnership(address newOwner) external onlyOwner {\n        require(newOwner != address(0), \"USDC: invalid owner\");\n        owner = newOwner;\n    }\n} ",
  "sourcePath": "/Users/gplay_sayid/Desktop/CODE/dexextra/DexContracts/contracts/MockUSDC.sol",
  "compiler": {
    "name": "solc",
    "version": "0.8.20+commit.a1b79de6.Emscripten.clang"
  },
  "schemaVersion": "3.4.16",
  "updatedAt": "2025-07-10T16:59:14.175Z",
  "devdoc": {
    "details": "Mock USDC token for testing vAMM system",
    "kind": "dev",
    "methods": {},
    "title": "MockUSDC",
    "version": 1
  },
  "userdoc": {
    "kind": "user",
    "methods": {},
    "version": 1
  }
}