{
  "contractName": "vAMMFactory",
  "abi": [
    {
      "inputs": [],
      "stateMutability": "nonpayable",
      "type": "constructor"
    },
    {
      "anonymous": false,
      "inputs": [
        {
          "indexed": false,
          "internalType": "uint256",
          "name": "newFee",
          "type": "uint256"
        }
      ],
      "name": "DeploymentFeeUpdated",
      "type": "event"
    },
    {
      "anonymous": false,
      "inputs": [
        {
          "indexed": true,
          "internalType": "bytes32",
          "name": "marketId",
          "type": "bytes32"
        },
        {
          "indexed": false,
          "internalType": "string",
          "name": "symbol",
          "type": "string"
        },
        {
          "indexed": true,
          "internalType": "address",
          "name": "vamm",
          "type": "address"
        },
        {
          "indexed": true,
          "internalType": "address",
          "name": "vault",
          "type": "address"
        },
        {
          "indexed": false,
          "internalType": "address",
          "name": "oracle",
          "type": "address"
        },
        {
          "indexed": false,
          "internalType": "address",
          "name": "collateralToken",
          "type": "address"
        }
      ],
      "name": "MarketCreated",
      "type": "event"
    },
    {
      "anonymous": false,
      "inputs": [
        {
          "indexed": true,
          "internalType": "bytes32",
          "name": "marketId",
          "type": "bytes32"
        },
        {
          "indexed": false,
          "internalType": "bool",
          "name": "isActive",
          "type": "bool"
        }
      ],
      "name": "MarketStatusChanged",
      "type": "event"
    },
    {
      "anonymous": false,
      "inputs": [
        {
          "indexed": true,
          "internalType": "address",
          "name": "previousOwner",
          "type": "address"
        },
        {
          "indexed": true,
          "internalType": "address",
          "name": "newOwner",
          "type": "address"
        }
      ],
      "name": "OwnershipTransferred",
      "type": "event"
    },
    {
      "inputs": [],
      "name": "deploymentFee",
      "outputs": [
        {
          "internalType": "uint256",
          "name": "",
          "type": "uint256"
        }
      ],
      "stateMutability": "view",
      "type": "function"
    },
    {
      "inputs": [
        {
          "internalType": "address",
          "name": "",
          "type": "address"
        }
      ],
      "name": "isValidMarket",
      "outputs": [
        {
          "internalType": "bool",
          "name": "",
          "type": "bool"
        }
      ],
      "stateMutability": "view",
      "type": "function"
    },
    {
      "inputs": [],
      "name": "marketCount",
      "outputs": [
        {
          "internalType": "uint256",
          "name": "",
          "type": "uint256"
        }
      ],
      "stateMutability": "view",
      "type": "function"
    },
    {
      "inputs": [
        {
          "internalType": "uint256",
          "name": "",
          "type": "uint256"
        }
      ],
      "name": "marketIds",
      "outputs": [
        {
          "internalType": "bytes32",
          "name": "",
          "type": "bytes32"
        }
      ],
      "stateMutability": "view",
      "type": "function"
    },
    {
      "inputs": [
        {
          "internalType": "bytes32",
          "name": "",
          "type": "bytes32"
        }
      ],
      "name": "markets",
      "outputs": [
        {
          "internalType": "address",
          "name": "vamm",
          "type": "address"
        },
        {
          "internalType": "address",
          "name": "vault",
          "type": "address"
        },
        {
          "internalType": "address",
          "name": "oracle",
          "type": "address"
        },
        {
          "internalType": "address",
          "name": "collateralToken",
          "type": "address"
        },
        {
          "internalType": "string",
          "name": "symbol",
          "type": "string"
        },
        {
          "internalType": "bool",
          "name": "isActive",
          "type": "bool"
        },
        {
          "internalType": "uint256",
          "name": "createdAt",
          "type": "uint256"
        }
      ],
      "stateMutability": "view",
      "type": "function"
    },
    {
      "inputs": [],
      "name": "owner",
      "outputs": [
        {
          "internalType": "address",
          "name": "",
          "type": "address"
        }
      ],
      "stateMutability": "view",
      "type": "function"
    },
    {
      "inputs": [
        {
          "internalType": "string",
          "name": "symbol",
          "type": "string"
        },
        {
          "internalType": "address",
          "name": "oracle",
          "type": "address"
        },
        {
          "internalType": "address",
          "name": "collateralToken",
          "type": "address"
        },
        {
          "internalType": "uint256",
          "name": "initialPrice",
          "type": "uint256"
        }
      ],
      "name": "createMarket",
      "outputs": [
        {
          "internalType": "bytes32",
          "name": "marketId",
          "type": "bytes32"
        },
        {
          "internalType": "address",
          "name": "vammAddress",
          "type": "address"
        },
        {
          "internalType": "address",
          "name": "vaultAddress",
          "type": "address"
        }
      ],
      "stateMutability": "payable",
      "type": "function"
    },
    {
      "inputs": [
        {
          "internalType": "bytes32",
          "name": "marketId",
          "type": "bytes32"
        },
        {
          "internalType": "bool",
          "name": "isActive",
          "type": "bool"
        }
      ],
      "name": "setMarketStatus",
      "outputs": [],
      "stateMutability": "nonpayable",
      "type": "function"
    },
    {
      "inputs": [
        {
          "internalType": "uint256",
          "name": "newFee",
          "type": "uint256"
        }
      ],
      "name": "setDeploymentFee",
      "outputs": [],
      "stateMutability": "nonpayable",
      "type": "function"
    },
    {
      "inputs": [
        {
          "internalType": "bytes32",
          "name": "marketId",
          "type": "bytes32"
        }
      ],
      "name": "getMarket",
      "outputs": [
        {
          "components": [
            {
              "internalType": "address",
              "name": "vamm",
              "type": "address"
            },
            {
              "internalType": "address",
              "name": "vault",
              "type": "address"
            },
            {
              "internalType": "address",
              "name": "oracle",
              "type": "address"
            },
            {
              "internalType": "address",
              "name": "collateralToken",
              "type": "address"
            },
            {
              "internalType": "string",
              "name": "symbol",
              "type": "string"
            },
            {
              "internalType": "bool",
              "name": "isActive",
              "type": "bool"
            },
            {
              "internalType": "uint256",
              "name": "createdAt",
              "type": "uint256"
            }
          ],
          "internalType": "struct vAMMFactory.MarketInfo",
          "name": "",
          "type": "tuple"
        }
      ],
      "stateMutability": "view",
      "type": "function"
    },
    {
      "inputs": [],
      "name": "getAllMarketIds",
      "outputs": [
        {
          "internalType": "bytes32[]",
          "name": "",
          "type": "bytes32[]"
        }
      ],
      "stateMutability": "view",
      "type": "function"
    },
    {
      "inputs": [],
      "name": "getActiveMarkets",
      "outputs": [
        {
          "internalType": "bytes32[]",
          "name": "activeMarkets",
          "type": "bytes32[]"
        }
      ],
      "stateMutability": "view",
      "type": "function"
    },
    {
      "inputs": [
        {
          "internalType": "address",
          "name": "newOwner",
          "type": "address"
        }
      ],
      "name": "transferOwnership",
      "outputs": [],
      "stateMutability": "nonpayable",
      "type": "function"
    },
    {
      "inputs": [],
      "name": "withdrawFees",
      "outputs": [],
      "stateMutability": "nonpayable",
      "type": "function"
    },
    {
      "inputs": [
        {
          "internalType": "address",
          "name": "token",
          "type": "address"
        },
        {
          "internalType": "uint256",
          "name": "amount",
          "type": "uint256"
        }
      ],
      "name": "recoverToken",
      "outputs": [],
      "stateMutability": "nonpayable",
      "type": "function"
    }
  ],
  "bytecode": "0x608060405267016345785d8a000060055534801561001b575f80fd5b505f80546001600160a01b03191633179055614daa8061003a5f395ff3fe608060405260043610620000f7575f3560e01c8063a5e973c31162000092578063d002462b116200005e578063d002462b14620002f5578063ec9790821462000319578063f2cff57f1462000330578063f2fde38b1462000347575f80fd5b8063a5e973c31462000261578063b29a81401462000287578063b85ed63614620002ab578063c3c95c7b14620002c2575f80fd5b806373d8c6bd11620000d257806373d8c6bd146200017f5780637564912b14620001bc578063779a968314620001f55780638da5cb5b1462000228575f80fd5b80632a51973314620000fb578063476343ee146200012157806358e6309f1462000138575b5f80fd5b34801562000107575f80fd5b506200011f6200011936600462001102565b6200036b565b005b3480156200012d575f80fd5b506200011f62000461565b34801562000144575f80fd5b506200016a6200015636600462001152565b60026020525f908152604090205460ff1681565b60405190151581526020015b60405180910390f35b620001966200019036600462001189565b62000585565b604080519384526001600160a01b03928316602085015291169082015260600162000176565b348015620001c8575f80fd5b50620001e0620001da3660046200126a565b62000b70565b604051620001769796959493929190620012d3565b34801562000201575f80fd5b5062000219620002133660046200126a565b62000c51565b60405190815260200162000176565b34801562000234575f80fd5b505f5462000248906001600160a01b031681565b6040516001600160a01b03909116815260200162000176565b3480156200026d575f80fd5b506200027862000c71565b60405162000176919062001326565b34801562000293575f80fd5b506200011f620002a53660046200136b565b62000de8565b348015620002b7575f80fd5b506200027862000e14565b348015620002ce575f80fd5b50620002e6620002e03660046200126a565b62000e6c565b60405162000176919062001396565b34801562000301575f80fd5b506200011f620003133660046200126a565b62000fb3565b34801562000325575f80fd5b506200021960045481565b3480156200033c575f80fd5b506200021960055481565b34801562000353575f80fd5b506200011f6200036536600462001152565b6200101a565b5f546001600160a01b03163314620003a05760405162461bcd60e51b815260040162000397906200140e565b60405180910390fd5b5f8281526001602052604090205482906001600160a01b0316620004075760405162461bcd60e51b815260206004820152601960248201527f466163746f72793a206d61726b6574206e6f7420666f756e6400000000000000604482015260640162000397565b5f83815260016020908152604091829020600501805460ff1916851515908117909155915191825284917ff74802a5f03ef3b60653fc5ef30996c42340c6f63ad2a625f0f7d4f996b28f35910160405180910390a2505050565b5f546001600160a01b031633146200048d5760405162461bcd60e51b815260040162000397906200140e565b4780620004dd5760405162461bcd60e51b815260206004820152601c60248201527f466163746f72793a206e6f206665657320746f20776974686472617700000000604482015260640162000397565b5f80546040516001600160a01b039091169083908381818185875af1925050503d805f811462000529576040519150601f19603f3d011682016040523d82523d5f602084013e6200052e565b606091505b5050905080620005815760405162461bcd60e51b815260206004820152601a60248201527f466163746f72793a207769746864726177616c206661696c6564000000000000604482015260640162000397565b5050565b5f805f600554341015620005dc5760405162461bcd60e51b815260206004820152601960248201527f466163746f72793a20696e73756666696369656e742066656500000000000000604482015260640162000397565b6001600160a01b038616620006345760405162461bcd60e51b815260206004820152601760248201527f466163746f72793a20696e76616c6964206f7261636c65000000000000000000604482015260640162000397565b6001600160a01b0385166200068c5760405162461bcd60e51b815260206004820152601b60248201527f466163746f72793a20696e76616c696420636f6c6c61746572616c0000000000604482015260640162000397565b5f875111620006de5760405162461bcd60e51b815260206004820152601760248201527f466163746f72793a20696e76616c69642073796d626f6c000000000000000000604482015260640162000397565b5f8411620007285760405162461bcd60e51b8152602060048201526016602482015275466163746f72793a20696e76616c696420707269636560501b604482015260640162000397565b86868642600454604051602001620007459594939291906200143a565b60408051601f1981840301815291815281516020928301205f81815260019093529120549093506001600160a01b031615620007bd5760405162461bcd60e51b8152602060048201526016602482015275466163746f72793a206d61726b65742065786973747360501b604482015260640162000397565b5f85604051620007cd90620010e6565b6001600160a01b039091168152602001604051809103905ff080158015620007f7573d5f803e3d5ffd5b5090508091505f8288876040516200080f90620010f4565b6001600160a01b0393841681529290911660208301526040820152606001604051809103905ff08015801562000847573d5f803e3d5ffd5b5060405163175dcc5d60e21b81526001600160a01b03808316600483015291955085925090831690635d773174906024015f604051808303815f87803b15801562000890575f80fd5b505af1158015620008a3573d5f803e3d5ffd5b505060405163f2fde38b60e01b81523360048201526001600160a01b038516925063f2fde38b91506024015f604051808303815f87803b158015620008e6575f80fd5b505af1158015620008f9573d5f803e3d5ffd5b505060405163f2fde38b60e01b81523360048201526001600160a01b038416925063f2fde38b91506024015f604051808303815f87803b1580156200093c575f80fd5b505af11580156200094f573d5f803e3d5ffd5b505050506040518060e00160405280856001600160a01b03168152602001846001600160a01b03168152602001896001600160a01b03168152602001886001600160a01b031681526020018a81526020016001151581526020014281525060015f8781526020019081526020015f205f820151815f015f6101000a8154816001600160a01b0302191690836001600160a01b031602179055506020820151816001015f6101000a8154816001600160a01b0302191690836001600160a01b031602179055506040820151816002015f6101000a8154816001600160a01b0302191690836001600160a01b031602179055506060820151816003015f6101000a8154816001600160a01b0302191690836001600160a01b03160217905550608082015181600401908162000a83919062001515565b5060a082015160058201805491151560ff1992831617905560c0909201516006909101556001600160a01b0385165f9081526002602052604081208054909216600190811790925560038054928301815581527fc2575a0e9e593c00f959f8c92f12db2869c3395a3b0502d05e2516446f71f85b909101869055600480549162000b0d83620015de565b9190505550826001600160a01b0316846001600160a01b0316867fc225f66bd854bba265bee08fc100e91c698aa86a9e70b0d9280d44f91066a93f8c8c8c60405162000b5c9392919062001603565b60405180910390a450509450945094915050565b600160208190525f9182526040909120805491810154600282015460038301546004840180546001600160a01b03968716969485169593851694909216929162000bba9062001489565b80601f016020809104026020016040519081016040528092919081815260200182805462000be89062001489565b801562000c375780601f1062000c0d5761010080835404028352916020019162000c37565b820191905f5260205f20905b81548152906001019060200180831162000c1957829003601f168201915b505050506005830154600690930154919260ff1691905087565b6003818154811062000c61575f80fd5b5f91825260209091200154905081565b60605f805b60035481101562000ce65760015f6003838154811062000c9a5762000c9a62001637565b5f918252602080832090910154835282019290925260400190206005015460ff161562000cd1578162000ccd81620015de565b9250505b8062000cdd81620015de565b91505062000c76565b508067ffffffffffffffff81111562000d035762000d0362001175565b60405190808252806020026020018201604052801562000d2d578160200160208202803683370190505b5091505f805b60035481101562000de25760015f6003838154811062000d575762000d5762001637565b5f918252602080832090910154835282019290925260400190206005015460ff161562000dcd576003818154811062000d945762000d9462001637565b905f5260205f20015484838151811062000db25762000db262001637565b60209081029190910101528162000dc981620015de565b9250505b8062000dd981620015de565b91505062000d33565b50505090565b5f546001600160a01b03163314620005815760405162461bcd60e51b815260040162000397906200140e565b6060600380548060200260200160405190810160405280929190818152602001828054801562000e6257602002820191905f5260205f20905b81548152602001906001019080831162000e4d575b5050505050905090565b6040805160e0810182525f808252602082018190529181018290526060808201839052608082015260a0810182905260c08101919091525f82815260016020818152604092839020835160e08101855281546001600160a01b0390811682529382015484169281019290925260028101548316938201939093526003830154909116606082015260048201805491929160808401919062000f0d9062001489565b80601f016020809104026020016040519081016040528092919081815260200182805462000f3b9062001489565b801562000f8a5780601f1062000f605761010080835404028352916020019162000f8a565b820191905f5260205f20905b81548152906001019060200180831162000f6c57829003601f168201915b5050509183525050600582015460ff161515602082015260069091015460409091015292915050565b5f546001600160a01b0316331462000fdf5760405162461bcd60e51b815260040162000397906200140e565b60058190556040518181527f40bd824d588484917db8fa4fc894c1e0feae5a75885290ba7b97521cebf82a809060200160405180910390a150565b5f546001600160a01b03163314620010465760405162461bcd60e51b815260040162000397906200140e565b6001600160a01b038116620010975760405162461bcd60e51b81526020600482015260166024820152752330b1ba37b93c9d1034b73b30b634b21037bbb732b960511b604482015260640162000397565b5f80546001600160a01b038381166001600160a01b0319831681178455604051919092169283917f8be0079c531659141344cd1fd0a4f28419497f9722a3daafe3b4186f6b6457e09190a35050565b6116a9806200164c83390190565b6120808062002cf583390190565b5f806040838503121562001114575f80fd5b82359150602083013580151581146200112b575f80fd5b809150509250929050565b80356001600160a01b03811681146200114d575f80fd5b919050565b5f6020828403121562001163575f80fd5b6200116e8262001136565b9392505050565b634e487b7160e01b5f52604160045260245ffd5b5f805f80608085870312156200119d575f80fd5b843567ffffffffffffffff80821115620011b5575f80fd5b818701915087601f830112620011c9575f80fd5b813581811115620011de57620011de62001175565b604051601f8201601f19908116603f0116810190838211818310171562001209576200120962001175565b816040528281528a602084870101111562001222575f80fd5b826020860160208301375f6020848301015280985050505050506200124a6020860162001136565b92506200125a6040860162001136565b9396929550929360600135925050565b5f602082840312156200127b575f80fd5b5035919050565b5f5b838110156200129e57818101518382015260200162001284565b50505f910152565b5f8151808452620012bf81602086016020860162001282565b601f01601f19169290920160200192915050565b6001600160a01b038881168252878116602083015286811660408301528516606082015260e0608082018190525f906200131090830186620012a6565b93151560a08301525060c0015295945050505050565b602080825282518282018190525f9190848201906040850190845b818110156200135f5783518352928401929184019160010162001341565b50909695505050505050565b5f80604083850312156200137d575f80fd5b620013888362001136565b946020939093013593505050565b602081525f60018060a01b0380845116602084015280602085015116604084015280604085015116606084015280606085015116608084015250608083015160e060a0840152620013ec610100840182620012a6565b905060a0840151151560c084015260c084015160e08401528091505092915050565b6020808252601290820152712330b1ba37b93c9d103737ba1037bbb732b960711b604082015260600190565b5f86516200144d818460208b0162001282565b6bffffffffffffffffffffffff19606097881b8116919093019081529490951b1660148401526028830191909152604882015260680192915050565b600181811c908216806200149e57607f821691505b602082108103620014bd57634e487b7160e01b5f52602260045260245ffd5b50919050565b601f82111562001510575f81815260208120601f850160051c81016020861015620014eb5750805b601f850160051c820191505b818110156200150c57828155600101620014f7565b5050505b505050565b815167ffffffffffffffff81111562001532576200153262001175565b6200154a8162001543845462001489565b84620014c3565b602080601f83116001811462001580575f8415620015685750858301515b5f19600386901b1c1916600185901b1785556200150c565b5f85815260208120601f198616915b82811015620015b0578886015182559484019460019091019084016200158f565b5085821015620015ce57878501515f19600388901b60f8161c191681555b5050505050600190811b01905550565b5f60018201620015fc57634e487b7160e01b5f52601160045260245ffd5b5060010190565b606081525f620016176060830186620012a6565b6001600160a01b0394851660208401529290931660409091015292915050565b634e487b7160e01b5f52603260045260245ffdfe60806040526005805460ff19169055348015610019575f80fd5b506040516116a93803806116a98339810160408190526100389161006a565b5f8054336001600160a01b031991821617909155600280549091166001600160a01b0392909216919091179055610097565b5f6020828403121561007a575f80fd5b81516001600160a01b0381168114610090575f80fd5b9392505050565b611605806100a45f395ff3fe608060405234801561000f575f80fd5b506004361061016c575f3560e01c806395ccea67116100d9578063c1c7c9dd11610093578063cf1c316a1161006e578063cf1c316a1461035b578063e098372c1461036e578063e1f1c4a714610381578063f2fde38b1461038a575f80fd5b8063c1c7c9dd14610322578063c90ba3a614610335578063cb62568014610348575f80fd5b806395ccea67146102a1578063a5d5db0c146102b4578063b2016bd4146102c7578063b39ff736146102da578063b9181611146102ed578063bcbaf4871461030f575f80fd5b80635d7731741161012a5780635d7731741461021f5780637569f4c8146102325780638456cb59146102455780638da5cb5b1461024d57806390a8ae9b146102775780639101e5b31461028e575f80fd5b80622bc16414610170578063350c35e9146101bf5780633f4ba83a146101d4578063485d7d94146101dc5780635969f96b146101ef5780635c975abb14610202575b5f80fd5b61018361017e3660046113a6565b61039d565b6040516101b691908151815260208083015190820152604080830151908201526060918201519181019190915260800190565b60405180910390f35b6101d26101cd3660046113bf565b61040e565b005b6101d26106a9565b6101d26101ea3660046113a6565b610706565b6101d26101fd3660046113e7565b610777565b60055461020f9060ff1681565b60405190151581526020016101b6565b6101d261022d3660046113a6565b610858565b6101d26102403660046113bf565b610961565b6101d2610ad1565b5f5461025f906001600160a01b031681565b6040516001600160a01b0390911681526020016101b6565b61028061138881565b6040519081526020016101b6565b6101d261029c3660046113bf565b610b31565b6101d26102af3660046113bf565b610cae565b6101d26102c23660046113bf565b610d95565b60025461025f906001600160a01b031681565b61020f6102e83660046113bf565b610f6e565b61020f6102fb3660046113a6565b60046020525f908152604090205460ff1681565b6101d261031d3660046113bf565b610fe3565b6102806103303660046113a6565b6110ce565b6102806103433660046113a6565b611130565b6101d26103563660046113bf565b61115f565b6101d26103693660046113a6565b611231565b60015461025f906001600160a01b031681565b61028061271081565b6101d26103983660046113a6565b6112f4565b6103c460405180608001604052805f81526020015f81526020015f81526020015f81525090565b506001600160a01b03165f90815260036020818152604092839020835160808101855281548152600182015492810192909252600281015493820193909352910154606082015290565b60055460ff161561043a5760405162461bcd60e51b815260040161043190611417565b60405180910390fd5b5f81116104595760405162461bcd60e51b81526004016104319061143e565b6001600160a01b03821661047f5760405162461bcd60e51b81526004016104319061146d565b336001600160a01b03831614806104a45750335f9081526004602052604090205460ff165b6104c05760405162461bcd60e51b81526004016104319061149a565b6001600160a01b0382165f90815260036020526040902080548211156105285760405162461bcd60e51b815260206004820152601e60248201527f5661756c743a20696e73756666696369656e7420636f6c6c61746572616c00006044820152606401610431565b5f610532846110ce565b9050828110156105905760405162461bcd60e51b8152602060048201526024808201527f5661756c743a20696e73756666696369656e7420617661696c61626c65206d616044820152633933b4b760e11b6064820152608401610431565b82825f015f8282546105a291906114dd565b909155505060025460405163a9059cbb60e01b81526001600160a01b038681166004830152602482018690529091169063a9059cbb906044016020604051808303815f875af11580156105f7573d5f803e3d5ffd5b505050506040513d601f19601f8201168201806040525081019061061b91906114f0565b6106605760405162461bcd60e51b815260206004820152601660248201527515985d5b1d0e881d1c985b9cd9995c8819985a5b195960521b6044820152606401610431565b836001600160a01b03167fc30fcfbcaac9e0deffa719714eaa82396ff506a0d0d0eebe170830177288715d8460405161069b91815260200190565b60405180910390a250505050565b5f546001600160a01b031633146106d25760405162461bcd60e51b81526004016104319061150f565b6005805460ff191690556040517fa45f47fdea8a1efdd9029a5691c7f759c32b7c698632b563573e155625d16933905f90a1565b5f546001600160a01b0316331461072f5760405162461bcd60e51b81526004016104319061150f565b6001600160a01b0381165f81815260046020526040808220805460ff19169055517f0fafd0343e6c6f6985727574866da48938c918559eb9521cf9cc0d317ea0f7b49190a250565b335f9081526004602052604090205460ff168061079d57505f546001600160a01b031633145b6107b95760405162461bcd60e51b81526004016104319061149a565b6001600160a01b0383166107df5760405162461bcd60e51b81526004016104319061146d565b6001600160a01b0383165f9081526003602052604081206002810180549192859261080b908490611539565b90915550506003810182905560408051848152602081018490526001600160a01b038616917f4519c0de74b8f9f16fda0005326875e3fd4dd0d38446a1135a1ffa1739e4591e910161069b565b5f546001600160a01b031633146108815760405162461bcd60e51b81526004016104319061150f565b6001600160a01b0381166108cd5760405162461bcd60e51b81526020600482015260136024820152725661756c743a20696e76616c69642076616d6d60681b6044820152606401610431565b600180546001600160a01b0319166001600160a01b03831690811782555f81815260046020526040808220805460ff1916909417909355915190917fb9b7e0cd0425b8d1399710185feab651b96089b6f0e01cb950ffb46b17227cbf91a26040516001600160a01b038216907fdd10d14f6ac19e913d4edbb11fd30661531e2ccd0d23f571e9b224f001f0dd06905f90a250565b335f9081526004602052604090205460ff168061098757505f546001600160a01b031633145b6109a35760405162461bcd60e51b81526004016104319061149a565b60055460ff16156109c65760405162461bcd60e51b815260040161043190611417565b5f81116109e55760405162461bcd60e51b81526004016104319061143e565b6001600160a01b038216610a0b5760405162461bcd60e51b81526004016104319061146d565b6001600160a01b0382165f90815260036020526040812090610a2c846110ce565b905082811015610a7e5760405162461bcd60e51b815260206004820152601a60248201527f5661756c743a20696e73756666696369656e74206d617267696e0000000000006044820152606401610431565b82826001015f828254610a919190611560565b90915550506040518381526001600160a01b038516907f7a9b1b90f35f094ffc6d04d86069c79e82c6a16eb600f79672428a409635deca9060200161069b565b5f546001600160a01b03163314610afa5760405162461bcd60e51b81526004016104319061150f565b6005805460ff191660011790556040517f9e87fac88ff661f02d44f95383c817fece4bce600a3dab7a54406878b965e752905f90a1565b335f9081526004602052604090205460ff1680610b5757505f546001600160a01b031633145b610b735760405162461bcd60e51b81526004016104319061149a565b60055460ff1615610b965760405162461bcd60e51b815260040161043190611417565b5f8111610bb55760405162461bcd60e51b81526004016104319061143e565b6001600160a01b038216610bdb5760405162461bcd60e51b81526004016104319061146d565b6001600160a01b0382165f9081526003602052604090206001810154821115610c525760405162461bcd60e51b815260206004820152602360248201527f5661756c743a20696e73756666696369656e74207265736572766564206d617260448201526233b4b760e91b6064820152608401610431565b81816001015f828254610c6591906114dd565b90915550506040518281526001600160a01b038416907f5e63d54af10545f0b2bd229512f244caefe863ad94dbbb7ad827432c84d762f5906020015b60405180910390a2505050565b5f546001600160a01b03163314610cd75760405162461bcd60e51b81526004016104319061150f565b60055460ff16610d1d5760405162461bcd60e51b815260206004820152601160248201527015985d5b1d0e881b9bdd081c185d5cd959607a1b6044820152606401610431565b5f5460405163a9059cbb60e01b81526001600160a01b039182166004820152602481018390529083169063a9059cbb906044016020604051808303815f875af1158015610d6c573d5f803e3d5ffd5b505050506040513d601f19601f82011682018060405250810190610d9091906114f0565b505050565b60055460ff1615610db85760405162461bcd60e51b815260040161043190611417565b5f8111610dd75760405162461bcd60e51b81526004016104319061143e565b6001600160a01b038216610dfd5760405162461bcd60e51b81526004016104319061146d565b6001600160a01b0382163303610ed1576002546040516323b872dd60e01b81526001600160a01b03848116600483015230602483015260448201849052909116906323b872dd906064016020604051808303815f875af1158015610e63573d5f803e3d5ffd5b505050506040513d601f19601f82011682018060405250810190610e8791906114f0565b610ecc5760405162461bcd60e51b815260206004820152601660248201527515985d5b1d0e881d1c985b9cd9995c8819985a5b195960521b6044820152606401610431565b610eff565b335f9081526004602052604090205460ff16610eff5760405162461bcd60e51b81526004016104319061149a565b6001600160a01b0382165f9081526003602052604081208054839290610f26908490611560565b90915550506040518181526001600160a01b038316907fd7243f6f8212d5188fd054141cf6ea89cfc0d91facb8c3afe2f88a1358480142906020015b60405180910390a25050565b6001600160a01b0382165f90815260036020526040812060018101548203610f99575f915050610fdd565b5f610fa385611130565b90505f8113610fb757600192505050610fdd565b5f612710858460010154610fcb9190611573565b610fd5919061158a565b909110925050505b92915050565b335f9081526004602052604090205460ff168061100957505f546001600160a01b031633145b6110255760405162461bcd60e51b81526004016104319061149a565b6001600160a01b03821661104b5760405162461bcd60e51b81526004016104319061146d565b6001600160a01b0382165f9081526003602052604090208115611086575f82905080826002015f82825461107f91906115a9565b9091555050505b5f6001820181905560028201556040518281526001600160a01b038416907fe538b9438650b40b382a773f4b71a35129a6b330599b42ed9b50492847972fa690602001610ca1565b6001600160a01b0381165f908152600360205260408120816110ef84611130565b90505f811361110157505f9392505050565b60018201548190811161111857505f949350505050565b600183015461112790826114dd565b95945050505050565b6001600160a01b0381165f908152600360205260408120600281015481546111589190611539565b9392505050565b335f9081526004602052604090205460ff168061118557505f546001600160a01b031633145b6111a15760405162461bcd60e51b81526004016104319061149a565b6001600160a01b0382166111c75760405162461bcd60e51b81526004016104319061146d565b6001600160a01b0382165f90815260036020526040812060020180548392906111f1908490611539565b90915550506040518181526001600160a01b038316907f22d38deb33ee15dd233167fc440609397a226eb4e1b61e1773bdd09ef99424aa90602001610f62565b5f546001600160a01b0316331461125a5760405162461bcd60e51b81526004016104319061150f565b6001600160a01b0381166112a95760405162461bcd60e51b81526020600482015260166024820152755661756c743a20696e76616c6964206164647265737360501b6044820152606401610431565b6001600160a01b0381165f81815260046020526040808220805460ff19166001179055517fdd10d14f6ac19e913d4edbb11fd30661531e2ccd0d23f571e9b224f001f0dd069190a250565b5f546001600160a01b0316331461131d5760405162461bcd60e51b81526004016104319061150f565b6001600160a01b03811661136a5760405162461bcd60e51b81526020600482015260146024820152732b30bab63a1d1034b73b30b634b21037bbb732b960611b6044820152606401610431565b5f80546001600160a01b0319166001600160a01b0392909216919091179055565b80356001600160a01b03811681146113a1575f80fd5b919050565b5f602082840312156113b6575f80fd5b6111588261138b565b5f80604083850312156113d0575f80fd5b6113d98361138b565b946020939093013593505050565b5f805f606084860312156113f9575f80fd5b6114028461138b565b95602085013595506040909401359392505050565b6020808252600d908201526c15985d5b1d0e881c185d5cd959609a1b604082015260600190565b60208082526015908201527415985d5b1d0e881a5b9d985b1a5908185b5bdd5b9d605a1b604082015260600190565b6020808252601390820152722b30bab63a1d1034b73b30b634b2103ab9b2b960691b604082015260600190565b60208082526015908201527415985d5b1d0e881b9bdd08185d5d1a1bdc9a5e9959605a1b604082015260600190565b634e487b7160e01b5f52601160045260245ffd5b81810381811115610fdd57610fdd6114c9565b5f60208284031215611500575f80fd5b81518015158114611158575f80fd5b60208082526010908201526f2b30bab63a1d103737ba1037bbb732b960811b604082015260600190565b8082018281125f831280158216821582161715611558576115586114c9565b505092915050565b80820180821115610fdd57610fdd6114c9565b8082028115828204841417610fdd57610fdd6114c9565b5f826115a457634e487b7160e01b5f52601260045260245ffd5b500490565b8181035f8312801583831316838312821617156115c8576115c86114c9565b509291505056fea2646970667358221220b23d467c0ca397da5650d47ecbf32f2c1b92d62457860399dfc3e2f60d51d54b64736f6c634300081400336080604052601e6003556101f460048190556005556103e860065562000031670de0b6b3a7640000620f4240620000fd565b6007556200004b670de0b6b3a7640000620f4240620000fd565b6008556012805460ff1916905534801562000064575f80fd5b506040516200208038038062002080833981016040819052620000879162000143565b5f8054336001600160a01b0319918216179091556001805482166001600160a01b038681169190911790915560028054909216908416179055600754670de0b6b3a764000090620000d99083620000fd565b620000e5919062000181565b600855505042600b55506305f5e100600a55620001a1565b80820281158282048414176200012157634e487b7160e01b5f52601160045260245ffd5b92915050565b80516001600160a01b03811681146200013e575f80fd5b919050565b5f805f6060848603121562000156575f80fd5b620001618462000127565b9250620001716020850162000127565b9150604084015190509250925092565b5f826200019c57634e487b7160e01b5f52601260045260245ffd5b500490565b611ed180620001af5f395ff3fe608060405234801561000f575f80fd5b506004361061024a575f3560e01c806395082d2511610140578063cf1c316a116100bf578063eaf1f1e611610084578063eaf1f1e6146104e0578063edf1a21f146104f3578063eeb07069146104fb578063f2fde38b1461050e578063f40f2a7914610521578063fbfa77cf1461052b575f80fd5b8063cf1c316a1461049f578063d2e7b978146104b2578063d97e25bc146104c5578063e01df1a8146104ce578063e1f1c4a7146104d7575f80fd5b8063ae43509a11610105578063ae43509a14610442578063b25cdccf1461044b578063b35648d714610461578063b918161114610474578063bf6268f214610496575f80fd5b806395082d251461040f57806395196f7e1461041e57806398f89b2f146104265780639b45ec9714610431578063a0640c8314610439575f80fd5b806355f57510116101cc578063604096321161019157806360409632146103b95780637dc0d1d0146103c157806383acb48a146103ec5780638456cb59146103f55780638da5cb5b146103fd575f80fd5b806355f57510146103235780635af5bfd6146103775780635bf804af1461038a5780635c975abb146103935780635fb3b1b5146103b0575f80fd5b8063485d7d9411610212578063485d7d94146102d857806349a65938146102eb57806353906a0f146102f4578063544305bf1461030757806355efb2871461031a575f80fd5b806316c197391461024e5780631ebf4eb51461029d5780632f865568146102a757806334c1557d146102ba5780633f4ba83a146102d0575b5f80fd5b61026161025c366004611bb0565b61053e565b60405161029491908151815260208083015190820152604080830151908201526060918201519181019190915260800190565b60405180910390f35b6102a56105b2565b005b6102a56102b5366004611bb0565b610721565b6102c2600181565b604051908152602001610294565b6102a5610a56565b6102a56102e6366004611bb0565b610ab3565b6102c260115481565b6102a5610302366004611bdd565b610b24565b6102c2610315366004611bb0565b610c0e565b6102c2610e1081565b610357610331366004611bb0565b600d6020525f908152604090208054600182015460028301546003909301549192909184565b604080519485526020850193909352918301526060820152608001610294565b6102a5610385366004611bdd565b610cb8565b6102c2600f5481565b6012546103a09060ff1681565b6040519015158152602001610294565b6102c260045481565b6102c2610d4c565b6002546103d4906001600160a01b031681565b6040516001600160a01b039091168152602001610294565b6102c260055481565b6102a5610d75565b5f546103d4906001600160a01b031681565b6102c2670de0b6b3a764000081565b6009546102c2565b6102c26305f5e10081565b6102c2606481565b6102c260085481565b6102c260075481565b600954600a54600b54600c546103579392919084565b6102c261046f366004611bf4565b610dd5565b6103a0610482366004611bb0565b600e6020525f908152604090205460ff1681565b6102c260105481565b6102a56104ad366004611bb0565b61126a565b6102c26104c0366004611c2d565b61132c565b6102c260065481565b6102c260035481565b6102c261271081565b6102c26104ee366004611c5b565b6113d9565b61026161189e565b6102a5610509366004611bdd565b6118f2565b6102a561051c366004611bb0565b6119bf565b6102c2620f424081565b6001546103d4906001600160a01b031681565b61056560405180608001604052805f81526020015f81526020015f81526020015f81525090565b506001600160a01b03165f908152600d6020908152604091829020825160808101845281548152600182015492810192909252600281015492820192909252600390910154606082015290565b600b546105c290610e1090611cb3565b4210156105cb57565b5f6105d4610d4c565b90505f60025f9054906101000a90046001600160a01b03166001600160a01b03166398d5fdca6040518163ffffffff1660e01b8152600401602060405180830381865afa158015610627573d5f803e3d5ffd5b505050506040513d601f19601f8201168201806040525081019061064b9190611cc6565b90505f6305f5e1008261065e8286611cdd565b6106689190611d08565b6106729190611d1b565b90505f610680601883611d41565b9050620f42408113156106975750620f42406106b9565b6106a3620f4240611d6d565b8112156106b9576106b6620f4240611d6d565b90505b6009819055600c82905542600b55600a546106d5908290611d87565b600a81905560408051838152602081019290925281018390527fd0794ac40e87e336e6e652e1eef2cdb3793d91f30dcc09a45d18db669a686b949060600160405180910390a150505050565b60125460ff161561074d5760405162461bcd60e51b815260040161074490611dae565b60405180910390fd5b806001600160a01b0381166107995760405162461bcd60e51b81526020600482015260126024820152713b20a6a69d1034b73b30b634b2103ab9b2b960711b6044820152606401610744565b6001546005546040516359cffb9b60e11b81526001600160a01b038581166004830152602482019290925291169063b39ff73690604401602060405180830381865afa1580156107eb573d5f803e3d5ffd5b505050506040513d601f19601f8201168201806040525081019061080f9190611dd4565b6108545760405162461bcd60e51b815260206004820152601660248201527576414d4d3a2063616e6e6f74206c697175696461746560501b6044820152606401610744565b6001600160a01b0382165f908152600d6020526040812080549091036108b05760405162461bcd60e51b81526020600482015260116024820152703b20a6a69d103737903837b9b4ba34b7b760791b6044820152606401610744565b80545f90811290816108cc5782546108c790611d6d565b6108cf565b82545b90506108d96105b2565b6108e285611a55565b5f612710600454836108f49190611cdd565b6108fe9190611d08565b9050821561093a578160085f8282546109179190611def565b9250508190555081600f5f82825461092f9190611d1b565b909155506109699050565b8160075f82825461094b9190611def565b925050819055508160105f8282546109639190611d1b565b90915550505b5f610972610d4c565b6001600160a01b038881165f818152600d60205260408082208281556001808201849055600282018490556003909101929092559054905163bcbaf48760e01b815260048101929092526024820186905292935091169063bcbaf487906044015f604051808303815f87803b1580156109e9575f80fd5b505af11580156109fb573d5f803e3d5ffd5b505060408051868152602081018590529081018590523392506001600160a01b038a1691507f3ecbb371880c45545c63ac02e2364778ac379d2c14519773964068ef51bb454a9060600160405180910390a350505050505050565b5f546001600160a01b03163314610a7f5760405162461bcd60e51b815260040161074490611e02565b6012805460ff191690556040517fa45f47fdea8a1efdd9029a5691c7f759c32b7c698632b563573e155625d16933905f90a1565b5f546001600160a01b03163314610adc5760405162461bcd60e51b815260040161074490611e02565b6001600160a01b0381165f818152600e6020526040808220805460ff19169055517f0fafd0343e6c6f6985727574866da48938c918559eb9521cf9cc0d317ea0f7b49190a250565b5f546001600160a01b03163314610b4d5760405162461bcd60e51b815260040161074490611e02565b60648110158015610b6057506107d08111155b610ba25760405162461bcd60e51b815260206004820152601360248201527276414d4d3a20696e76616c696420726174696f60681b6044820152606401610744565b600581905560408051818152601691810191909152756d61696e74656e616e63654d617267696e526174696f60501b6060820152602081018290527f952177133a28eea5034c93c6c70c1a8d223da94faaa45da8412c3c791111137f906080015b60405180910390a150565b6001600160a01b0381165f908152600d6020526040812080548203610c3557505f92915050565b5f610c3e610d4c565b82549091505f9081129081610c5d578354610c5890611d6d565b610c60565b83545b90508115610c9f57670de0b6b3a7640000846001015484610c819190611def565b610c8b9083611cdd565b610c959190611d08565b9695505050505050565b670de0b6b3a7640000838560010154610c819190611def565b5f546001600160a01b03163314610ce15760405162461bcd60e51b815260040161074490611e02565b601154811115610d335760405162461bcd60e51b815260206004820152601760248201527f76414d4d3a20696e73756666696369656e7420666565730000000000000000006044820152606401610744565b8060115f828254610d449190611def565b909155505050565b5f600754670de0b6b3a7640000600854610d669190611cdd565b610d709190611d08565b905090565b5f546001600160a01b03163314610d9e5760405162461bcd60e51b815260040161074490611e02565b6012805460ff191660011790556040517f9e87fac88ff661f02d44f95383c817fece4bce600a3dab7a54406878b965e752905f90a1565b6012545f9060ff1615610dfa5760405162461bcd60e51b815260040161074490611dae565b335f908152600d602052604081208054909103610e4d5760405162461bcd60e51b81526020600482015260116024820152703b20a6a69d103737903837b9b4ba34b7b760791b6044820152606401610744565b80545f9081129081610e69578254610e6490611d6d565b610e6c565b82545b905080871115610eb35760405162461bcd60e51b815260206004820152601260248201527176414d4d3a20696e76616c69642073697a6560701b6044820152606401610744565b610ebb6105b2565b610ec433611a55565b5f610ecd610d4c565b9050868110158015610edf5750858111155b610f225760405162461bcd60e51b815260206004820152601460248201527376414d4d3a20707269636520736c69707061676560601b6044820152606401610744565b8215610f5c57670de0b6b3a7640000846001015482610f419190611def565b610f4b908a611cdd565b610f559190611d08565b9450610f8c565b670de0b6b3a7640000818560010154610f759190611def565b610f7f908a611cdd565b610f899190611d08565b94505b5f6127106003548a610f9e9190611cdd565b610fa89190611d08565b90508315610fe4578860085f828254610fc19190611def565b9250508190555088600f5f828254610fd99190611d1b565b909155506110139050565b8860075f828254610ff59190611def565b925050819055508860105f82825461100d9190611d1b565b90915550505b82890361104257335f908152600d6020526040812081815560018101829055600281018290556003015561106f565b83611059578454611054908a90611d87565b611066565b8454611066908a90611d1b565b85554260038601555b6001546001600160a01b031663cb6256803361108b848a611d1b565b6040516001600160e01b031960e085901b1681526001600160a01b03909216600483015260248201526044015f604051808303815f87803b1580156110ce575f80fd5b505af11580156110e0573d5f803e3d5ffd5b5050600154604051620af05960e21b81523360048201525f93508692508c916001600160a01b031690622bc16490602401608060405180830381865afa15801561112c573d5f803e3d5ffd5b505050506040513d601f19601f820116820180604052508101906111509190611e2b565b6020015161115e9190611cdd565b6111689190611d08565b600154604051639101e5b360e01b8152336004820152602481018390529192506001600160a01b031690639101e5b3906044015f604051808303815f87803b1580156111b2575f80fd5b505af11580156111c4573d5f803e3d5ffd5b505050508160115f8282546111d99190611cb3565b9091555050604080518b8152602081018590529081018890526060810183905233907fda9c32aadba951abe6572af4fb5654a38201910647b4a3a0367a8e28945972f39060800160405180910390a260405182815233907f4b85f139405492fb78333512610ba07ed1e0c3fb2417f208a9aae27dc3843e6a9060200160405180910390a25050505050509392505050565b5f546001600160a01b031633146112935760405162461bcd60e51b815260040161074490611e02565b6001600160a01b0381166112e15760405162461bcd60e51b815260206004820152601560248201527476414d4d3a20696e76616c6964206164647265737360581b6044820152606401610744565b6001600160a01b0381165f818152600e6020526040808220805460ff19166001179055517fdd10d14f6ac19e913d4edbb11fd30661531e2ccd0d23f571e9b224f001f0dd069190a250565b5f80611336610d4c565b90505f8315611378575f8560085461134e9190611cb3565b600754909150611366670de0b6b3a764000083611cdd565b6113709190611d08565b9150506113ae565b5f856007546113879190611cb3565b905080670de0b6b3a76400006008546113a09190611cdd565b6113aa9190611d08565b9150505b8181116113c4576113bf8183611def565b6113ce565b6113ce8282611def565b925050505b92915050565b6012545f9060ff16156113fe5760405162461bcd60e51b815260040161074490611dae565b5f861161144d5760405162461bcd60e51b815260206004820152601860248201527f76414d4d3a20696e76616c696420636f6c6c61746572616c00000000000000006044820152606401610744565b6001841015801561145f575060648411155b6114a45760405162461bcd60e51b815260206004820152601660248201527576414d4d3a20696e76616c6964206c6576657261676560501b6044820152606401610744565b6114ac6105b2565b6114b68487611cdd565b90505f6114c1610d4c565b90508381101580156114d35750828111155b6115165760405162461bcd60e51b815260206004820152601460248201527376414d4d3a20707269636520736c69707061676560601b6044820152606401610744565b5f612710600354846115289190611cdd565b6115329190611d08565b90505f61153f828a611cb3565b600154604051630ead3e9960e31b8152336004820152602481018390529192506001600160a01b031690637569f4c8906044015f604051808303815f87803b158015611589575f80fd5b505af115801561159b573d5f803e3d5ffd5b5050335f908152600d6020526040902080549092501590506115c0576115c033611a55565b88156115fa578460085f8282546115d79190611cb3565b9250508190555084600f5f8282546115ef9190611d87565b909155506116299050565b8460075f82825461160b9190611cb3565b925050819055508460105f8282546116239190611d87565b90915550505b80545f0361165c57886116445761163f85611d6d565b611646565b845b815560018101849055600a5460028201556117ea565b80545f128915158103611751575f670de0b6b3a764000083600101548361168d57845461168890611d6d565b611690565b84545b61169a9190611cdd565b6116a49190611d08565b90505f670de0b6b3a76400006116ba888a611cdd565b6116c49190611d08565b90505f6116d18284611cb3565b9050836116f457845489906116e590611d6d565b6116ef9190611d87565b611701565b8454611701908a90611d87565b611713670de0b6b3a764000083611cdd565b61171d9190611d08565b600186015583611739578454611734908a90611d1b565b611746565b8454611746908a90611d87565b8555506117e8915050565b858161176757825461176290611d6d565b61176a565b82545b111561179b5780611787578154611782908790611d87565b611794565b8154611794908790611d1b565b82556117e8565b5f816117b15782546117ac90611d6d565b6117b4565b82545b6117be9088611def565b90508a6117d3576117ce81611d6d565b6117d5565b805b83555060018201859055600a5460028301555b505b4281600301819055508260115f8282546118049190611cb3565b9091555050604080518a1515815260208101879052908101859052606081018990526080810184905233907f0e8f4b81343afa64bc4ddcfbf2d80e883e0ddfc6663c400ca09da13d1d28d5889060a00160405180910390a260405183815233907f4b85f139405492fb78333512610ba07ed1e0c3fb2417f208a9aae27dc3843e6a9060200160405180910390a25050505095945050505050565b6118c560405180608001604052805f81526020015f81526020015f81526020015f81525090565b50604080516080810182526009548152600a546020820152600b5491810191909152600c54606082015290565b5f546001600160a01b0316331461191b5760405162461bcd60e51b815260040161074490611e02565b6103e88111156119625760405162461bcd60e51b81526020600482015260126024820152710ec829a9a7440cccaca40e8dede40d0d2ced60731b6044820152606401610744565b600381905560408051818152600e918101919091526d74726164696e674665655261746560901b6060820152602081018290527f952177133a28eea5034c93c6c70c1a8d223da94faaa45da8412c3c791111137f90608001610c03565b5f546001600160a01b031633146119e85760405162461bcd60e51b815260040161074490611e02565b6001600160a01b038116611a345760405162461bcd60e51b81526020600482015260136024820152723b20a6a69d1034b73b30b634b21037bbb732b960691b6044820152606401610744565b5f80546001600160a01b0319166001600160a01b0392909216919091179055565b6001600160a01b0381165f908152600d602052604081208054909103611a79575050565b6002810154600a545f91611a8c91611def565b9050805f03611a9a57505050565b81545f9081129081611ab6578354611ab190611d6d565b611ab9565b83545b90505f6305f5e100611acb8584611cdd565b611ad59190611d08565b90508215611ae957611ae681611d6d565b90505b600154600a54604051635969f96b60e01b81526001600160a01b038981166004830152602482018590526044820192909252911690635969f96b906064015f604051808303815f87803b158015611b3e575f80fd5b505af1158015611b50573d5f803e3d5ffd5b5050600a54600288018190556040516001600160a01b038a1693507f14b9e7b22b24fe3174a21280f7baf48fce7e6ae0b9a0a548e37bcc22ae1bdb489250611ba091858252602082015260400190565b60405180910390a2505050505050565b5f60208284031215611bc0575f80fd5b81356001600160a01b0381168114611bd6575f80fd5b9392505050565b5f60208284031215611bed575f80fd5b5035919050565b5f805f60608486031215611c06575f80fd5b505081359360208301359350604090920135919050565b8015158114611c2a575f80fd5b50565b5f8060408385031215611c3e575f80fd5b823591506020830135611c5081611c1d565b809150509250929050565b5f805f805f60a08688031215611c6f575f80fd5b853594506020860135611c8181611c1d565b94979496505050506040830135926060810135926080909101359150565b634e487b7160e01b5f52601160045260245ffd5b808201808211156113d3576113d3611c9f565b5f60208284031215611cd6575f80fd5b5051919050565b80820281158282048414176113d3576113d3611c9f565b634e487b7160e01b5f52601260045260245ffd5b5f82611d1657611d16611cf4565b500490565b8181035f831280158383131683831282161715611d3a57611d3a611c9f565b5092915050565b5f82611d4f57611d4f611cf4565b600160ff1b82145f1984141615611d6857611d68611c9f565b500590565b5f600160ff1b8201611d8157611d81611c9f565b505f0390565b8082018281125f831280158216821582161715611da657611da6611c9f565b505092915050565b6020808252600c908201526b1d9053534e881c185d5cd95960a21b604082015260600190565b5f60208284031215611de4575f80fd5b8151611bd681611c1d565b818103818111156113d3576113d3611c9f565b6020808252600f908201526e3b20a6a69d103737ba1037bbb732b960891b604082015260600190565b5f60808284031215611e3b575f80fd5b6040516080810181811067ffffffffffffffff82111715611e6a57634e487b7160e01b5f52604160045260245ffd5b806040525082518152602083015160208201526040830151604082015260608301516060820152809150509291505056fea2646970667358221220747c5a3483a71f869c5cc5e37e98617cda16b5c497e4dead9c736cf10474d5bf64736f6c63430008140033a26469706673582212208abd4da2ae49f54aec1a3e2c03ecd144031adbbd968208f23a79dbace74aa01a64736f6c63430008140033",
  "immutableReferences": {},
  "source": "// SPDX-License-Identifier: MIT\npragma solidity ^0.8.20;\n\nimport \"./vAMM.sol\";\nimport \"./Vault.sol\";\n\n/**\n * @title vAMMFactory\n * @dev Factory contract for deploying vAMM instances\n */\ncontract vAMMFactory {\n    address public owner;\n    \n    struct MarketInfo {\n        address vamm;\n        address vault;\n        address oracle;\n        address collateralToken;\n        string symbol;\n        bool isActive;\n        uint256 createdAt;\n    }\n    \n    mapping(bytes32 => MarketInfo) public markets;\n    mapping(address => bool) public isValidMarket;\n    bytes32[] public marketIds;\n    \n    uint256 public marketCount;\n    uint256 public deploymentFee = 0.1 ether;\n    \n    event MarketCreated(\n        bytes32 indexed marketId,\n        string symbol,\n        address indexed vamm,\n        address indexed vault,\n        address oracle,\n        address collateralToken\n    );\n    \n    event MarketStatusChanged(bytes32 indexed marketId, bool isActive);\n    event DeploymentFeeUpdated(uint256 newFee);\n    event OwnershipTransferred(address indexed previousOwner, address indexed newOwner);\n    \n    modifier onlyOwner() {\n        require(msg.sender == owner, \"Factory: not owner\");\n        _;\n    }\n    \n    modifier validMarketId(bytes32 marketId) {\n        require(markets[marketId].vamm != address(0), \"Factory: market not found\");\n        _;\n    }\n    \n    constructor() {\n        owner = msg.sender;\n    }\n    \n    /**\n     * @dev Creates a new vAMM market\n     */\n    function createMarket(\n        string memory symbol,\n        address oracle,\n        address collateralToken,\n        uint256 initialPrice\n    ) external payable returns (bytes32 marketId, address vammAddress, address vaultAddress) {\n        require(msg.value >= deploymentFee, \"Factory: insufficient fee\");\n        require(oracle != address(0), \"Factory: invalid oracle\");\n        require(collateralToken != address(0), \"Factory: invalid collateral\");\n        require(bytes(symbol).length > 0, \"Factory: invalid symbol\");\n        require(initialPrice > 0, \"Factory: invalid price\");\n        \n        // Generate unique market ID\n        marketId = keccak256(abi.encodePacked(symbol, oracle, collateralToken, block.timestamp, marketCount));\n        require(markets[marketId].vamm == address(0), \"Factory: market exists\");\n        \n        // Deploy vault first\n        Vault vault = new Vault(collateralToken);\n        vaultAddress = address(vault);\n        \n        // Deploy vAMM\n        vAMM vamm = new vAMM(vaultAddress, oracle, initialPrice);\n        vammAddress = address(vamm);\n        \n        // Set vAMM in vault\n        vault.setVamm(vammAddress);\n        \n        // Transfer ownership to deployer\n        vault.transferOwnership(msg.sender);\n        vamm.transferOwnership(msg.sender);\n        \n        // Store market info\n        markets[marketId] = MarketInfo({\n            vamm: vammAddress,\n            vault: vaultAddress,\n            oracle: oracle,\n            collateralToken: collateralToken,\n            symbol: symbol,\n            isActive: true,\n            createdAt: block.timestamp\n        });\n        \n        isValidMarket[vammAddress] = true;\n        marketIds.push(marketId);\n        marketCount++;\n        \n        emit MarketCreated(marketId, symbol, vammAddress, vaultAddress, oracle, collateralToken);\n        \n        return (marketId, vammAddress, vaultAddress);\n    }\n    \n    /**\n     * @dev Updates market status\n     */\n     \n    function setMarketStatus(bytes32 marketId, bool isActive) external onlyOwner validMarketId(marketId) {\n        markets[marketId].isActive = isActive;\n        emit MarketStatusChanged(marketId, isActive);\n    }\n    \n    /**\n     * @dev Updates deployment fee\n     */\n    function setDeploymentFee(uint256 newFee) external onlyOwner {\n        deploymentFee = newFee;\n        emit DeploymentFeeUpdated(newFee);\n    }\n    \n    /**\n     * @dev Gets market info by ID\n     */\n    function getMarket(bytes32 marketId) external view returns (MarketInfo memory) {\n        return markets[marketId];\n    }\n    \n    /**\n     * @dev Gets all market IDs\n     */\n    function getAllMarketIds() external view returns (bytes32[] memory) {\n        return marketIds;\n    }\n    \n    /**\n     * @dev Gets active markets\n     */\n    function getActiveMarkets() external view returns (bytes32[] memory activeMarkets) {\n        uint256 activeCount = 0;\n        \n        // Count active markets\n        for (uint256 i = 0; i < marketIds.length; i++) {\n            if (markets[marketIds[i]].isActive) {\n                activeCount++;\n            }\n        }\n        \n        // Create array of active market IDs\n        activeMarkets = new bytes32[](activeCount);\n        uint256 index = 0;\n        for (uint256 i = 0; i < marketIds.length; i++) {\n            if (markets[marketIds[i]].isActive) {\n                activeMarkets[index] = marketIds[i];\n                index++;\n            }\n        }\n        \n        return activeMarkets;\n    }\n    \n    /**\n     * @dev Transfers ownership\n     */\n    function transferOwnership(address newOwner) external onlyOwner {\n        require(newOwner != address(0), \"Factory: invalid owner\");\n        address previousOwner = owner;\n        owner = newOwner;\n        emit OwnershipTransferred(previousOwner, newOwner);\n    }\n    \n    /**\n     * @dev Withdraws deployment fees\n     */\n    function withdrawFees() external onlyOwner {\n        uint256 balance = address(this).balance;\n        require(balance > 0, \"Factory: no fees to withdraw\");\n        \n        (bool success, ) = payable(owner).call{value: balance}(\"\");\n        require(success, \"Factory: withdrawal failed\");\n    }\n    \n    /**\n     * @dev Emergency function to recover stuck tokens\n     */\n    function recoverToken(address token, uint256 amount) external onlyOwner {\n        // The IERC20 interface is already imported, so we can use it directly\n        // IERC20(token).transfer(owner, amount); // This line is removed as per the edit hint\n    }\n} ",
  "sourcePath": "/Users/gplay_sayid/Desktop/CODE/dexextra/DexContracts/contracts/vAMMFactory.sol",
  "compiler": {
    "name": "solc",
    "version": "0.8.20+commit.a1b79de6.Emscripten.clang"
  },
  "schemaVersion": "3.4.16",
  "updatedAt": "2025-07-10T16:59:14.183Z",
  "devdoc": {
    "details": "Factory contract for deploying vAMM instances",
    "kind": "dev",
    "methods": {
      "createMarket(string,address,address,uint256)": {
        "details": "Creates a new vAMM market"
      },
      "getActiveMarkets()": {
        "details": "Gets active markets"
      },
      "getAllMarketIds()": {
        "details": "Gets all market IDs"
      },
      "getMarket(bytes32)": {
        "details": "Gets market info by ID"
      },
      "recoverToken(address,uint256)": {
        "details": "Emergency function to recover stuck tokens"
      },
      "setDeploymentFee(uint256)": {
        "details": "Updates deployment fee"
      },
      "setMarketStatus(bytes32,bool)": {
        "details": "Updates market status"
      },
      "transferOwnership(address)": {
        "details": "Transfers ownership"
      },
      "withdrawFees()": {
        "details": "Withdraws deployment fees"
      }
    },
    "title": "vAMMFactory",
    "version": 1
  },
  "userdoc": {
    "kind": "user",
    "methods": {},
    "version": 1
  }
}