{
  "contractName": "vAMM",
  "abi": [
    {
      "inputs": [
        {
          "internalType": "address",
          "name": "_vault",
          "type": "address"
        },
        {
          "internalType": "address",
          "name": "_oracle",
          "type": "address"
        },
        {
          "internalType": "uint256",
          "name": "_initialPrice",
          "type": "uint256"
        }
      ],
      "stateMutability": "nonpayable",
      "type": "constructor"
    },
    {
      "anonymous": false,
      "inputs": [
        {
          "indexed": true,
          "internalType": "address",
          "name": "account",
          "type": "address"
        }
      ],
      "name": "AuthorizedAdded",
      "type": "event"
    },
    {
      "anonymous": false,
      "inputs": [
        {
          "indexed": true,
          "internalType": "address",
          "name": "account",
          "type": "address"
        }
      ],
      "name": "AuthorizedRemoved",
      "type": "event"
    },
    {
      "anonymous": false,
      "inputs": [
        {
          "indexed": true,
          "internalType": "address",
          "name": "user",
          "type": "address"
        },
        {
          "indexed": false,
          "internalType": "int256",
          "name": "amount",
          "type": "int256"
        },
        {
          "indexed": false,
          "internalType": "uint256",
          "name": "fundingIndex",
          "type": "uint256"
        }
      ],
      "name": "FundingPaid",
      "type": "event"
    },
    {
      "anonymous": false,
      "inputs": [
        {
          "indexed": false,
          "internalType": "int256",
          "name": "fundingRate",
          "type": "int256"
        },
        {
          "indexed": false,
          "internalType": "uint256",
          "name": "fundingIndex",
          "type": "uint256"
        },
        {
          "indexed": false,
          "internalType": "int256",
          "name": "premiumFraction",
          "type": "int256"
        }
      ],
      "name": "FundingUpdated",
      "type": "event"
    },
    {
      "anonymous": false,
      "inputs": [
        {
          "indexed": false,
          "internalType": "string",
          "name": "parameter",
          "type": "string"
        },
        {
          "indexed": false,
          "internalType": "uint256",
          "name": "newValue",
          "type": "uint256"
        }
      ],
      "name": "ParametersUpdated",
      "type": "event"
    },
    {
      "anonymous": false,
      "inputs": [],
      "name": "Paused",
      "type": "event"
    },
    {
      "anonymous": false,
      "inputs": [
        {
          "indexed": true,
          "internalType": "address",
          "name": "user",
          "type": "address"
        },
        {
          "indexed": false,
          "internalType": "uint256",
          "name": "size",
          "type": "uint256"
        },
        {
          "indexed": false,
          "internalType": "uint256",
          "name": "price",
          "type": "uint256"
        },
        {
          "indexed": false,
          "internalType": "int256",
          "name": "pnl",
          "type": "int256"
        },
        {
          "indexed": false,
          "internalType": "uint256",
          "name": "fee",
          "type": "uint256"
        }
      ],
      "name": "PositionClosed",
      "type": "event"
    },
    {
      "anonymous": false,
      "inputs": [
        {
          "indexed": true,
          "internalType": "address",
          "name": "user",
          "type": "address"
        },
        {
          "indexed": true,
          "internalType": "address",
          "name": "liquidator",
          "type": "address"
        },
        {
          "indexed": false,
          "internalType": "uint256",
          "name": "size",
          "type": "uint256"
        },
        {
          "indexed": false,
          "internalType": "uint256",
          "name": "price",
          "type": "uint256"
        },
        {
          "indexed": false,
          "internalType": "uint256",
          "name": "fee",
          "type": "uint256"
        }
      ],
      "name": "PositionLiquidated",
      "type": "event"
    },
    {
      "anonymous": false,
      "inputs": [
        {
          "indexed": true,
          "internalType": "address",
          "name": "user",
          "type": "address"
        },
        {
          "indexed": false,
          "internalType": "bool",
          "name": "isLong",
          "type": "bool"
        },
        {
          "indexed": false,
          "internalType": "uint256",
          "name": "size",
          "type": "uint256"
        },
        {
          "indexed": false,
          "internalType": "uint256",
          "name": "price",
          "type": "uint256"
        },
        {
          "indexed": false,
          "internalType": "uint256",
          "name": "leverage",
          "type": "uint256"
        },
        {
          "indexed": false,
          "internalType": "uint256",
          "name": "fee",
          "type": "uint256"
        }
      ],
      "name": "PositionOpened",
      "type": "event"
    },
    {
      "anonymous": false,
      "inputs": [
        {
          "indexed": true,
          "internalType": "address",
          "name": "user",
          "type": "address"
        },
        {
          "indexed": false,
          "internalType": "uint256",
          "name": "amount",
          "type": "uint256"
        }
      ],
      "name": "TradingFeeCollected",
      "type": "event"
    },
    {
      "anonymous": false,
      "inputs": [],
      "name": "Unpaused",
      "type": "event"
    },
    {
      "inputs": [],
      "name": "BASIS_POINTS",
      "outputs": [
        {
          "internalType": "uint256",
          "name": "",
          "type": "uint256"
        }
      ],
      "stateMutability": "view",
      "type": "function"
    },
    {
      "inputs": [],
      "name": "FUNDING_INTERVAL",
      "outputs": [
        {
          "internalType": "uint256",
          "name": "",
          "type": "uint256"
        }
      ],
      "stateMutability": "view",
      "type": "function"
    },
    {
      "inputs": [],
      "name": "FUNDING_PRECISION",
      "outputs": [
        {
          "internalType": "uint256",
          "name": "",
          "type": "uint256"
        }
      ],
      "stateMutability": "view",
      "type": "function"
    },
    {
      "inputs": [],
      "name": "MAX_FUNDING_RATE",
      "outputs": [
        {
          "internalType": "uint256",
          "name": "",
          "type": "uint256"
        }
      ],
      "stateMutability": "view",
      "type": "function"
    },
    {
      "inputs": [],
      "name": "MAX_LEVERAGE",
      "outputs": [
        {
          "internalType": "uint256",
          "name": "",
          "type": "uint256"
        }
      ],
      "stateMutability": "view",
      "type": "function"
    },
    {
      "inputs": [],
      "name": "MIN_LEVERAGE",
      "outputs": [
        {
          "internalType": "uint256",
          "name": "",
          "type": "uint256"
        }
      ],
      "stateMutability": "view",
      "type": "function"
    },
    {
      "inputs": [],
      "name": "PRICE_PRECISION",
      "outputs": [
        {
          "internalType": "uint256",
          "name": "",
          "type": "uint256"
        }
      ],
      "stateMutability": "view",
      "type": "function"
    },
    {
      "inputs": [
        {
          "internalType": "address",
          "name": "",
          "type": "address"
        }
      ],
      "name": "authorized",
      "outputs": [
        {
          "internalType": "bool",
          "name": "",
          "type": "bool"
        }
      ],
      "stateMutability": "view",
      "type": "function"
    },
    {
      "inputs": [],
      "name": "fundingState",
      "outputs": [
        {
          "internalType": "int256",
          "name": "fundingRate",
          "type": "int256"
        },
        {
          "internalType": "uint256",
          "name": "fundingIndex",
          "type": "uint256"
        },
        {
          "internalType": "uint256",
          "name": "lastFundingTime",
          "type": "uint256"
        },
        {
          "internalType": "int256",
          "name": "premiumFraction",
          "type": "int256"
        }
      ],
      "stateMutability": "view",
      "type": "function"
    },
    {
      "inputs": [],
      "name": "initialMarginRatio",
      "outputs": [
        {
          "internalType": "uint256",
          "name": "",
          "type": "uint256"
        }
      ],
      "stateMutability": "view",
      "type": "function"
    },
    {
      "inputs": [],
      "name": "liquidationFeeRate",
      "outputs": [
        {
          "internalType": "uint256",
          "name": "",
          "type": "uint256"
        }
      ],
      "stateMutability": "view",
      "type": "function"
    },
    {
      "inputs": [],
      "name": "maintenanceMarginRatio",
      "outputs": [
        {
          "internalType": "uint256",
          "name": "",
          "type": "uint256"
        }
      ],
      "stateMutability": "view",
      "type": "function"
    },
    {
      "inputs": [],
      "name": "oracle",
      "outputs": [
        {
          "internalType": "contract IPriceOracle",
          "name": "",
          "type": "address"
        }
      ],
      "stateMutability": "view",
      "type": "function"
    },
    {
      "inputs": [],
      "name": "owner",
      "outputs": [
        {
          "internalType": "address",
          "name": "",
          "type": "address"
        }
      ],
      "stateMutability": "view",
      "type": "function"
    },
    {
      "inputs": [],
      "name": "paused",
      "outputs": [
        {
          "internalType": "bool",
          "name": "",
          "type": "bool"
        }
      ],
      "stateMutability": "view",
      "type": "function"
    },
    {
      "inputs": [
        {
          "internalType": "address",
          "name": "",
          "type": "address"
        }
      ],
      "name": "positions",
      "outputs": [
        {
          "internalType": "int256",
          "name": "size",
          "type": "int256"
        },
        {
          "internalType": "uint256",
          "name": "entryPrice",
          "type": "uint256"
        },
        {
          "internalType": "uint256",
          "name": "entryFundingIndex",
          "type": "uint256"
        },
        {
          "internalType": "uint256",
          "name": "lastInteractionTime",
          "type": "uint256"
        }
      ],
      "stateMutability": "view",
      "type": "function"
    },
    {
      "inputs": [],
      "name": "totalLongSize",
      "outputs": [
        {
          "internalType": "int256",
          "name": "",
          "type": "int256"
        }
      ],
      "stateMutability": "view",
      "type": "function"
    },
    {
      "inputs": [],
      "name": "totalShortSize",
      "outputs": [
        {
          "internalType": "int256",
          "name": "",
          "type": "int256"
        }
      ],
      "stateMutability": "view",
      "type": "function"
    },
    {
      "inputs": [],
      "name": "totalTradingFees",
      "outputs": [
        {
          "internalType": "uint256",
          "name": "",
          "type": "uint256"
        }
      ],
      "stateMutability": "view",
      "type": "function"
    },
    {
      "inputs": [],
      "name": "tradingFeeRate",
      "outputs": [
        {
          "internalType": "uint256",
          "name": "",
          "type": "uint256"
        }
      ],
      "stateMutability": "view",
      "type": "function"
    },
    {
      "inputs": [],
      "name": "vault",
      "outputs": [
        {
          "internalType": "contract IVault",
          "name": "",
          "type": "address"
        }
      ],
      "stateMutability": "view",
      "type": "function"
    },
    {
      "inputs": [],
      "name": "virtualBaseReserves",
      "outputs": [
        {
          "internalType": "uint256",
          "name": "",
          "type": "uint256"
        }
      ],
      "stateMutability": "view",
      "type": "function"
    },
    {
      "inputs": [],
      "name": "virtualQuoteReserves",
      "outputs": [
        {
          "internalType": "uint256",
          "name": "",
          "type": "uint256"
        }
      ],
      "stateMutability": "view",
      "type": "function"
    },
    {
      "inputs": [
        {
          "internalType": "address",
          "name": "account",
          "type": "address"
        }
      ],
      "name": "addAuthorized",
      "outputs": [],
      "stateMutability": "nonpayable",
      "type": "function"
    },
    {
      "inputs": [
        {
          "internalType": "address",
          "name": "account",
          "type": "address"
        }
      ],
      "name": "removeAuthorized",
      "outputs": [],
      "stateMutability": "nonpayable",
      "type": "function"
    },
    {
      "inputs": [],
      "name": "pause",
      "outputs": [],
      "stateMutability": "nonpayable",
      "type": "function"
    },
    {
      "inputs": [],
      "name": "unpause",
      "outputs": [],
      "stateMutability": "nonpayable",
      "type": "function"
    },
    {
      "inputs": [
        {
          "internalType": "uint256",
          "name": "_feeRate",
          "type": "uint256"
        }
      ],
      "name": "updateTradingFeeRate",
      "outputs": [],
      "stateMutability": "nonpayable",
      "type": "function"
    },
    {
      "inputs": [
        {
          "internalType": "uint256",
          "name": "_ratio",
          "type": "uint256"
        }
      ],
      "name": "updateMaintenanceMarginRatio",
      "outputs": [],
      "stateMutability": "nonpayable",
      "type": "function"
    },
    {
      "inputs": [
        {
          "internalType": "uint256",
          "name": "collateralAmount",
          "type": "uint256"
        },
        {
          "internalType": "bool",
          "name": "isLong",
          "type": "bool"
        },
        {
          "internalType": "uint256",
          "name": "leverage",
          "type": "uint256"
        },
        {
          "internalType": "uint256",
          "name": "minPrice",
          "type": "uint256"
        },
        {
          "internalType": "uint256",
          "name": "maxPrice",
          "type": "uint256"
        }
      ],
      "name": "openPosition",
      "outputs": [
        {
          "internalType": "uint256",
          "name": "positionSize",
          "type": "uint256"
        }
      ],
      "stateMutability": "nonpayable",
      "type": "function"
    },
    {
      "inputs": [
        {
          "internalType": "uint256",
          "name": "sizeToClose",
          "type": "uint256"
        },
        {
          "internalType": "uint256",
          "name": "minPrice",
          "type": "uint256"
        },
        {
          "internalType": "uint256",
          "name": "maxPrice",
          "type": "uint256"
        }
      ],
      "name": "closePosition",
      "outputs": [
        {
          "internalType": "int256",
          "name": "pnl",
          "type": "int256"
        }
      ],
      "stateMutability": "nonpayable",
      "type": "function"
    },
    {
      "inputs": [
        {
          "internalType": "address",
          "name": "user",
          "type": "address"
        }
      ],
      "name": "liquidate",
      "outputs": [],
      "stateMutability": "nonpayable",
      "type": "function"
    },
    {
      "inputs": [],
      "name": "updateFunding",
      "outputs": [],
      "stateMutability": "nonpayable",
      "type": "function"
    },
    {
      "inputs": [],
      "name": "getMarkPrice",
      "outputs": [
        {
          "internalType": "uint256",
          "name": "",
          "type": "uint256"
        }
      ],
      "stateMutability": "view",
      "type": "function"
    },
    {
      "inputs": [],
      "name": "getFundingRate",
      "outputs": [
        {
          "internalType": "int256",
          "name": "",
          "type": "int256"
        }
      ],
      "stateMutability": "view",
      "type": "function"
    },
    {
      "inputs": [
        {
          "internalType": "address",
          "name": "user",
          "type": "address"
        }
      ],
      "name": "getPosition",
      "outputs": [
        {
          "components": [
            {
              "internalType": "int256",
              "name": "size",
              "type": "int256"
            },
            {
              "internalType": "uint256",
              "name": "entryPrice",
              "type": "uint256"
            },
            {
              "internalType": "uint256",
              "name": "entryFundingIndex",
              "type": "uint256"
            },
            {
              "internalType": "uint256",
              "name": "lastInteractionTime",
              "type": "uint256"
            }
          ],
          "internalType": "struct IvAMM.Position",
          "name": "",
          "type": "tuple"
        }
      ],
      "stateMutability": "view",
      "type": "function"
    },
    {
      "inputs": [],
      "name": "getFundingState",
      "outputs": [
        {
          "components": [
            {
              "internalType": "int256",
              "name": "fundingRate",
              "type": "int256"
            },
            {
              "internalType": "uint256",
              "name": "fundingIndex",
              "type": "uint256"
            },
            {
              "internalType": "uint256",
              "name": "lastFundingTime",
              "type": "uint256"
            },
            {
              "internalType": "int256",
              "name": "premiumFraction",
              "type": "int256"
            }
          ],
          "internalType": "struct IvAMM.FundingState",
          "name": "",
          "type": "tuple"
        }
      ],
      "stateMutability": "view",
      "type": "function"
    },
    {
      "inputs": [
        {
          "internalType": "address",
          "name": "user",
          "type": "address"
        }
      ],
      "name": "getUnrealizedPnL",
      "outputs": [
        {
          "internalType": "int256",
          "name": "",
          "type": "int256"
        }
      ],
      "stateMutability": "view",
      "type": "function"
    },
    {
      "inputs": [
        {
          "internalType": "uint256",
          "name": "size",
          "type": "uint256"
        },
        {
          "internalType": "bool",
          "name": "isLong",
          "type": "bool"
        }
      ],
      "name": "getPriceImpact",
      "outputs": [
        {
          "internalType": "uint256",
          "name": "",
          "type": "uint256"
        }
      ],
      "stateMutability": "view",
      "type": "function"
    },
    {
      "inputs": [
        {
          "internalType": "address",
          "name": "newOwner",
          "type": "address"
        }
      ],
      "name": "transferOwnership",
      "outputs": [],
      "stateMutability": "nonpayable",
      "type": "function"
    },
    {
      "inputs": [
        {
          "internalType": "uint256",
          "name": "amount",
          "type": "uint256"
        }
      ],
      "name": "withdrawTradingFees",
      "outputs": [],
      "stateMutability": "nonpayable",
      "type": "function"
    }
  ],
  "bytecode": "0x6080604052601e6003556101f460048190556005556103e860065562000031670de0b6b3a7640000620f4240620000fd565b6007556200004b670de0b6b3a7640000620f4240620000fd565b6008556012805460ff1916905534801562000064575f80fd5b506040516200208038038062002080833981016040819052620000879162000143565b5f8054336001600160a01b0319918216179091556001805482166001600160a01b038681169190911790915560028054909216908416179055600754670de0b6b3a764000090620000d99083620000fd565b620000e5919062000181565b600855505042600b55506305f5e100600a55620001a1565b80820281158282048414176200012157634e487b7160e01b5f52601160045260245ffd5b92915050565b80516001600160a01b03811681146200013e575f80fd5b919050565b5f805f6060848603121562000156575f80fd5b620001618462000127565b9250620001716020850162000127565b9150604084015190509250925092565b5f826200019c57634e487b7160e01b5f52601260045260245ffd5b500490565b611ed180620001af5f395ff3fe608060405234801561000f575f80fd5b506004361061024a575f3560e01c806395082d2511610140578063cf1c316a116100bf578063eaf1f1e611610084578063eaf1f1e6146104e0578063edf1a21f146104f3578063eeb07069146104fb578063f2fde38b1461050e578063f40f2a7914610521578063fbfa77cf1461052b575f80fd5b8063cf1c316a1461049f578063d2e7b978146104b2578063d97e25bc146104c5578063e01df1a8146104ce578063e1f1c4a7146104d7575f80fd5b8063ae43509a11610105578063ae43509a14610442578063b25cdccf1461044b578063b35648d714610461578063b918161114610474578063bf6268f214610496575f80fd5b806395082d251461040f57806395196f7e1461041e57806398f89b2f146104265780639b45ec9714610431578063a0640c8314610439575f80fd5b806355f57510116101cc578063604096321161019157806360409632146103b95780637dc0d1d0146103c157806383acb48a146103ec5780638456cb59146103f55780638da5cb5b146103fd575f80fd5b806355f57510146103235780635af5bfd6146103775780635bf804af1461038a5780635c975abb146103935780635fb3b1b5146103b0575f80fd5b8063485d7d9411610212578063485d7d94146102d857806349a65938146102eb57806353906a0f146102f4578063544305bf1461030757806355efb2871461031a575f80fd5b806316c197391461024e5780631ebf4eb51461029d5780632f865568146102a757806334c1557d146102ba5780633f4ba83a146102d0575b5f80fd5b61026161025c366004611bb0565b61053e565b60405161029491908151815260208083015190820152604080830151908201526060918201519181019190915260800190565b60405180910390f35b6102a56105b2565b005b6102a56102b5366004611bb0565b610721565b6102c2600181565b604051908152602001610294565b6102a5610a56565b6102a56102e6366004611bb0565b610ab3565b6102c260115481565b6102a5610302366004611bdd565b610b24565b6102c2610315366004611bb0565b610c0e565b6102c2610e1081565b610357610331366004611bb0565b600d6020525f908152604090208054600182015460028301546003909301549192909184565b604080519485526020850193909352918301526060820152608001610294565b6102a5610385366004611bdd565b610cb8565b6102c2600f5481565b6012546103a09060ff1681565b6040519015158152602001610294565b6102c260045481565b6102c2610d4c565b6002546103d4906001600160a01b031681565b6040516001600160a01b039091168152602001610294565b6102c260055481565b6102a5610d75565b5f546103d4906001600160a01b031681565b6102c2670de0b6b3a764000081565b6009546102c2565b6102c26305f5e10081565b6102c2606481565b6102c260085481565b6102c260075481565b600954600a54600b54600c546103579392919084565b6102c261046f366004611bf4565b610dd5565b6103a0610482366004611bb0565b600e6020525f908152604090205460ff1681565b6102c260105481565b6102a56104ad366004611bb0565b61126a565b6102c26104c0366004611c2d565b61132c565b6102c260065481565b6102c260035481565b6102c261271081565b6102c26104ee366004611c5b565b6113d9565b61026161189e565b6102a5610509366004611bdd565b6118f2565b6102a561051c366004611bb0565b6119bf565b6102c2620f424081565b6001546103d4906001600160a01b031681565b61056560405180608001604052805f81526020015f81526020015f81526020015f81525090565b506001600160a01b03165f908152600d6020908152604091829020825160808101845281548152600182015492810192909252600281015492820192909252600390910154606082015290565b600b546105c290610e1090611cb3565b4210156105cb57565b5f6105d4610d4c565b90505f60025f9054906101000a90046001600160a01b03166001600160a01b03166398d5fdca6040518163ffffffff1660e01b8152600401602060405180830381865afa158015610627573d5f803e3d5ffd5b505050506040513d601f19601f8201168201806040525081019061064b9190611cc6565b90505f6305f5e1008261065e8286611cdd565b6106689190611d08565b6106729190611d1b565b90505f610680601883611d41565b9050620f42408113156106975750620f42406106b9565b6106a3620f4240611d6d565b8112156106b9576106b6620f4240611d6d565b90505b6009819055600c82905542600b55600a546106d5908290611d87565b600a81905560408051838152602081019290925281018390527fd0794ac40e87e336e6e652e1eef2cdb3793d91f30dcc09a45d18db669a686b949060600160405180910390a150505050565b60125460ff161561074d5760405162461bcd60e51b815260040161074490611dae565b60405180910390fd5b806001600160a01b0381166107995760405162461bcd60e51b81526020600482015260126024820152713b20a6a69d1034b73b30b634b2103ab9b2b960711b6044820152606401610744565b6001546005546040516359cffb9b60e11b81526001600160a01b038581166004830152602482019290925291169063b39ff73690604401602060405180830381865afa1580156107eb573d5f803e3d5ffd5b505050506040513d601f19601f8201168201806040525081019061080f9190611dd4565b6108545760405162461bcd60e51b815260206004820152601660248201527576414d4d3a2063616e6e6f74206c697175696461746560501b6044820152606401610744565b6001600160a01b0382165f908152600d6020526040812080549091036108b05760405162461bcd60e51b81526020600482015260116024820152703b20a6a69d103737903837b9b4ba34b7b760791b6044820152606401610744565b80545f90811290816108cc5782546108c790611d6d565b6108cf565b82545b90506108d96105b2565b6108e285611a55565b5f612710600454836108f49190611cdd565b6108fe9190611d08565b9050821561093a578160085f8282546109179190611def565b9250508190555081600f5f82825461092f9190611d1b565b909155506109699050565b8160075f82825461094b9190611def565b925050819055508160105f8282546109639190611d1b565b90915550505b5f610972610d4c565b6001600160a01b038881165f818152600d60205260408082208281556001808201849055600282018490556003909101929092559054905163bcbaf48760e01b815260048101929092526024820186905292935091169063bcbaf487906044015f604051808303815f87803b1580156109e9575f80fd5b505af11580156109fb573d5f803e3d5ffd5b505060408051868152602081018590529081018590523392506001600160a01b038a1691507f3ecbb371880c45545c63ac02e2364778ac379d2c14519773964068ef51bb454a9060600160405180910390a350505050505050565b5f546001600160a01b03163314610a7f5760405162461bcd60e51b815260040161074490611e02565b6012805460ff191690556040517fa45f47fdea8a1efdd9029a5691c7f759c32b7c698632b563573e155625d16933905f90a1565b5f546001600160a01b03163314610adc5760405162461bcd60e51b815260040161074490611e02565b6001600160a01b0381165f818152600e6020526040808220805460ff19169055517f0fafd0343e6c6f6985727574866da48938c918559eb9521cf9cc0d317ea0f7b49190a250565b5f546001600160a01b03163314610b4d5760405162461bcd60e51b815260040161074490611e02565b60648110158015610b6057506107d08111155b610ba25760405162461bcd60e51b815260206004820152601360248201527276414d4d3a20696e76616c696420726174696f60681b6044820152606401610744565b600581905560408051818152601691810191909152756d61696e74656e616e63654d617267696e526174696f60501b6060820152602081018290527f952177133a28eea5034c93c6c70c1a8d223da94faaa45da8412c3c791111137f906080015b60405180910390a150565b6001600160a01b0381165f908152600d6020526040812080548203610c3557505f92915050565b5f610c3e610d4c565b82549091505f9081129081610c5d578354610c5890611d6d565b610c60565b83545b90508115610c9f57670de0b6b3a7640000846001015484610c819190611def565b610c8b9083611cdd565b610c959190611d08565b9695505050505050565b670de0b6b3a7640000838560010154610c819190611def565b5f546001600160a01b03163314610ce15760405162461bcd60e51b815260040161074490611e02565b601154811115610d335760405162461bcd60e51b815260206004820152601760248201527f76414d4d3a20696e73756666696369656e7420666565730000000000000000006044820152606401610744565b8060115f828254610d449190611def565b909155505050565b5f600754670de0b6b3a7640000600854610d669190611cdd565b610d709190611d08565b905090565b5f546001600160a01b03163314610d9e5760405162461bcd60e51b815260040161074490611e02565b6012805460ff191660011790556040517f9e87fac88ff661f02d44f95383c817fece4bce600a3dab7a54406878b965e752905f90a1565b6012545f9060ff1615610dfa5760405162461bcd60e51b815260040161074490611dae565b335f908152600d602052604081208054909103610e4d5760405162461bcd60e51b81526020600482015260116024820152703b20a6a69d103737903837b9b4ba34b7b760791b6044820152606401610744565b80545f9081129081610e69578254610e6490611d6d565b610e6c565b82545b905080871115610eb35760405162461bcd60e51b815260206004820152601260248201527176414d4d3a20696e76616c69642073697a6560701b6044820152606401610744565b610ebb6105b2565b610ec433611a55565b5f610ecd610d4c565b9050868110158015610edf5750858111155b610f225760405162461bcd60e51b815260206004820152601460248201527376414d4d3a20707269636520736c69707061676560601b6044820152606401610744565b8215610f5c57670de0b6b3a7640000846001015482610f419190611def565b610f4b908a611cdd565b610f559190611d08565b9450610f8c565b670de0b6b3a7640000818560010154610f759190611def565b610f7f908a611cdd565b610f899190611d08565b94505b5f6127106003548a610f9e9190611cdd565b610fa89190611d08565b90508315610fe4578860085f828254610fc19190611def565b9250508190555088600f5f828254610fd99190611d1b565b909155506110139050565b8860075f828254610ff59190611def565b925050819055508860105f82825461100d9190611d1b565b90915550505b82890361104257335f908152600d6020526040812081815560018101829055600281018290556003015561106f565b83611059578454611054908a90611d87565b611066565b8454611066908a90611d1b565b85554260038601555b6001546001600160a01b031663cb6256803361108b848a611d1b565b6040516001600160e01b031960e085901b1681526001600160a01b03909216600483015260248201526044015f604051808303815f87803b1580156110ce575f80fd5b505af11580156110e0573d5f803e3d5ffd5b5050600154604051620af05960e21b81523360048201525f93508692508c916001600160a01b031690622bc16490602401608060405180830381865afa15801561112c573d5f803e3d5ffd5b505050506040513d601f19601f820116820180604052508101906111509190611e2b565b6020015161115e9190611cdd565b6111689190611d08565b600154604051639101e5b360e01b8152336004820152602481018390529192506001600160a01b031690639101e5b3906044015f604051808303815f87803b1580156111b2575f80fd5b505af11580156111c4573d5f803e3d5ffd5b505050508160115f8282546111d99190611cb3565b9091555050604080518b8152602081018590529081018890526060810183905233907fda9c32aadba951abe6572af4fb5654a38201910647b4a3a0367a8e28945972f39060800160405180910390a260405182815233907f4b85f139405492fb78333512610ba07ed1e0c3fb2417f208a9aae27dc3843e6a9060200160405180910390a25050505050509392505050565b5f546001600160a01b031633146112935760405162461bcd60e51b815260040161074490611e02565b6001600160a01b0381166112e15760405162461bcd60e51b815260206004820152601560248201527476414d4d3a20696e76616c6964206164647265737360581b6044820152606401610744565b6001600160a01b0381165f818152600e6020526040808220805460ff19166001179055517fdd10d14f6ac19e913d4edbb11fd30661531e2ccd0d23f571e9b224f001f0dd069190a250565b5f80611336610d4c565b90505f8315611378575f8560085461134e9190611cb3565b600754909150611366670de0b6b3a764000083611cdd565b6113709190611d08565b9150506113ae565b5f856007546113879190611cb3565b905080670de0b6b3a76400006008546113a09190611cdd565b6113aa9190611d08565b9150505b8181116113c4576113bf8183611def565b6113ce565b6113ce8282611def565b925050505b92915050565b6012545f9060ff16156113fe5760405162461bcd60e51b815260040161074490611dae565b5f861161144d5760405162461bcd60e51b815260206004820152601860248201527f76414d4d3a20696e76616c696420636f6c6c61746572616c00000000000000006044820152606401610744565b6001841015801561145f575060648411155b6114a45760405162461bcd60e51b815260206004820152601660248201527576414d4d3a20696e76616c6964206c6576657261676560501b6044820152606401610744565b6114ac6105b2565b6114b68487611cdd565b90505f6114c1610d4c565b90508381101580156114d35750828111155b6115165760405162461bcd60e51b815260206004820152601460248201527376414d4d3a20707269636520736c69707061676560601b6044820152606401610744565b5f612710600354846115289190611cdd565b6115329190611d08565b90505f61153f828a611cb3565b600154604051630ead3e9960e31b8152336004820152602481018390529192506001600160a01b031690637569f4c8906044015f604051808303815f87803b158015611589575f80fd5b505af115801561159b573d5f803e3d5ffd5b5050335f908152600d6020526040902080549092501590506115c0576115c033611a55565b88156115fa578460085f8282546115d79190611cb3565b9250508190555084600f5f8282546115ef9190611d87565b909155506116299050565b8460075f82825461160b9190611cb3565b925050819055508460105f8282546116239190611d87565b90915550505b80545f0361165c57886116445761163f85611d6d565b611646565b845b815560018101849055600a5460028201556117ea565b80545f128915158103611751575f670de0b6b3a764000083600101548361168d57845461168890611d6d565b611690565b84545b61169a9190611cdd565b6116a49190611d08565b90505f670de0b6b3a76400006116ba888a611cdd565b6116c49190611d08565b90505f6116d18284611cb3565b9050836116f457845489906116e590611d6d565b6116ef9190611d87565b611701565b8454611701908a90611d87565b611713670de0b6b3a764000083611cdd565b61171d9190611d08565b600186015583611739578454611734908a90611d1b565b611746565b8454611746908a90611d87565b8555506117e8915050565b858161176757825461176290611d6d565b61176a565b82545b111561179b5780611787578154611782908790611d87565b611794565b8154611794908790611d1b565b82556117e8565b5f816117b15782546117ac90611d6d565b6117b4565b82545b6117be9088611def565b90508a6117d3576117ce81611d6d565b6117d5565b805b83555060018201859055600a5460028301555b505b4281600301819055508260115f8282546118049190611cb3565b9091555050604080518a1515815260208101879052908101859052606081018990526080810184905233907f0e8f4b81343afa64bc4ddcfbf2d80e883e0ddfc6663c400ca09da13d1d28d5889060a00160405180910390a260405183815233907f4b85f139405492fb78333512610ba07ed1e0c3fb2417f208a9aae27dc3843e6a9060200160405180910390a25050505095945050505050565b6118c560405180608001604052805f81526020015f81526020015f81526020015f81525090565b50604080516080810182526009548152600a546020820152600b5491810191909152600c54606082015290565b5f546001600160a01b0316331461191b5760405162461bcd60e51b815260040161074490611e02565b6103e88111156119625760405162461bcd60e51b81526020600482015260126024820152710ec829a9a7440cccaca40e8dede40d0d2ced60731b6044820152606401610744565b600381905560408051818152600e918101919091526d74726164696e674665655261746560901b6060820152602081018290527f952177133a28eea5034c93c6c70c1a8d223da94faaa45da8412c3c791111137f90608001610c03565b5f546001600160a01b031633146119e85760405162461bcd60e51b815260040161074490611e02565b6001600160a01b038116611a345760405162461bcd60e51b81526020600482015260136024820152723b20a6a69d1034b73b30b634b21037bbb732b960691b6044820152606401610744565b5f80546001600160a01b0319166001600160a01b0392909216919091179055565b6001600160a01b0381165f908152600d602052604081208054909103611a79575050565b6002810154600a545f91611a8c91611def565b9050805f03611a9a57505050565b81545f9081129081611ab6578354611ab190611d6d565b611ab9565b83545b90505f6305f5e100611acb8584611cdd565b611ad59190611d08565b90508215611ae957611ae681611d6d565b90505b600154600a54604051635969f96b60e01b81526001600160a01b038981166004830152602482018590526044820192909252911690635969f96b906064015f604051808303815f87803b158015611b3e575f80fd5b505af1158015611b50573d5f803e3d5ffd5b5050600a54600288018190556040516001600160a01b038a1693507f14b9e7b22b24fe3174a21280f7baf48fce7e6ae0b9a0a548e37bcc22ae1bdb489250611ba091858252602082015260400190565b60405180910390a2505050505050565b5f60208284031215611bc0575f80fd5b81356001600160a01b0381168114611bd6575f80fd5b9392505050565b5f60208284031215611bed575f80fd5b5035919050565b5f805f60608486031215611c06575f80fd5b505081359360208301359350604090920135919050565b8015158114611c2a575f80fd5b50565b5f8060408385031215611c3e575f80fd5b823591506020830135611c5081611c1d565b809150509250929050565b5f805f805f60a08688031215611c6f575f80fd5b853594506020860135611c8181611c1d565b94979496505050506040830135926060810135926080909101359150565b634e487b7160e01b5f52601160045260245ffd5b808201808211156113d3576113d3611c9f565b5f60208284031215611cd6575f80fd5b5051919050565b80820281158282048414176113d3576113d3611c9f565b634e487b7160e01b5f52601260045260245ffd5b5f82611d1657611d16611cf4565b500490565b8181035f831280158383131683831282161715611d3a57611d3a611c9f565b5092915050565b5f82611d4f57611d4f611cf4565b600160ff1b82145f1984141615611d6857611d68611c9f565b500590565b5f600160ff1b8201611d8157611d81611c9f565b505f0390565b8082018281125f831280158216821582161715611da657611da6611c9f565b505092915050565b6020808252600c908201526b1d9053534e881c185d5cd95960a21b604082015260600190565b5f60208284031215611de4575f80fd5b8151611bd681611c1d565b818103818111156113d3576113d3611c9f565b6020808252600f908201526e3b20a6a69d103737ba1037bbb732b960891b604082015260600190565b5f60808284031215611e3b575f80fd5b6040516080810181811067ffffffffffffffff82111715611e6a57634e487b7160e01b5f52604160045260245ffd5b806040525082518152602083015160208201526040830151604082015260608301516060820152809150509291505056fea2646970667358221220747c5a3483a71f869c5cc5e37e98617cda16b5c497e4dead9c736cf10474d5bf64736f6c63430008140033",
  "immutableReferences": {},
  "source": "// SPDX-License-Identifier: MIT\npragma solidity ^0.8.20;\n\nimport \"./IvAMM.sol\";\nimport \"./IVault.sol\";\nimport \"./IPriceOracle.sol\";\n\n/**\n * @title vAMM\n * @dev Production-ready virtual Automated Market Maker with funding rate mechanism\n */\ncontract vAMM is IvAMM {\n    address public owner;\n    IVault public vault;\n    IPriceOracle public oracle;\n    \n    // Trading parameters\n    uint256 public constant PRICE_PRECISION = 1e18;\n    uint256 public constant FUNDING_PRECISION = 1e8;\n    uint256 public constant BASIS_POINTS = 10000;\n    uint256 public constant MAX_LEVERAGE = 100;\n    uint256 public constant MIN_LEVERAGE = 1;\n    \n    // Fee structure\n    uint256 public tradingFeeRate = 30; // 0.3% in basis points\n    uint256 public liquidationFeeRate = 500; // 5% in basis points\n    uint256 public maintenanceMarginRatio = 500; // 5% in basis points\n    uint256 public initialMarginRatio = 1000; // 10% in basis points\n    \n    // Virtual pool for price discovery\n    uint256 public virtualBaseReserves = 1e6 * PRICE_PRECISION;\n    uint256 public virtualQuoteReserves = 1e6 * PRICE_PRECISION;\n    \n    // Funding mechanism\n    FundingState public fundingState;\n    uint256 public constant FUNDING_INTERVAL = 1 hours;\n    uint256 public constant MAX_FUNDING_RATE = 1e6; // 1% per hour in FUNDING_PRECISION\n    \n    // Position tracking\n    mapping(address => Position) public positions;\n    mapping(address => bool) public authorized;\n    \n    // Global state\n    int256 public totalLongSize;\n    int256 public totalShortSize;\n    uint256 public totalTradingFees;\n    bool public paused = false;\n    \n    // Events\n    event PositionOpened(\n        address indexed user,\n        bool isLong,\n        uint256 size,\n        uint256 price,\n        uint256 leverage,\n        uint256 fee\n    );\n    event PositionClosed(\n        address indexed user,\n        uint256 size,\n        uint256 price,\n        int256 pnl,\n        uint256 fee\n    );\n    event FundingUpdated(\n        int256 fundingRate,\n        uint256 fundingIndex,\n        int256 premiumFraction\n    );\n    event FundingPaid(\n        address indexed user,\n        int256 amount,\n        uint256 fundingIndex\n    );\n    event PositionLiquidated(\n        address indexed user,\n        address indexed liquidator,\n        uint256 size,\n        uint256 price,\n        uint256 fee\n    );\n    event TradingFeeCollected(address indexed user, uint256 amount);\n    event ParametersUpdated(string parameter, uint256 newValue);\n    event AuthorizedAdded(address indexed account);\n    event AuthorizedRemoved(address indexed account);\n    event Paused();\n    event Unpaused();\n    \n    modifier onlyOwner() {\n        require(msg.sender == owner, \"vAMM: not owner\");\n        _;\n    }\n    \n    modifier onlyAuthorized() {\n        require(authorized[msg.sender] || msg.sender == owner, \"vAMM: not authorized\");\n        _;\n    }\n    \n    modifier whenNotPaused() {\n        require(!paused, \"vAMM: paused\");\n        _;\n    }\n    \n    modifier validUser(address user) {\n        require(user != address(0), \"vAMM: invalid user\");\n        _;\n    }\n    \n    constructor(\n        address _vault,\n        address _oracle,\n        uint256 _initialPrice\n    ) {\n        owner = msg.sender;\n        vault = IVault(_vault);\n        oracle = IPriceOracle(_oracle);\n        \n        // Initialize virtual reserves based on initial price\n        virtualQuoteReserves = (_initialPrice * virtualBaseReserves) / PRICE_PRECISION;\n        \n        // Initialize funding state\n        fundingState.lastFundingTime = block.timestamp;\n        fundingState.fundingIndex = FUNDING_PRECISION;\n    }\n    \n    /**\n     * @dev Adds an authorized address\n     */\n    function addAuthorized(address account) external onlyOwner {\n        require(account != address(0), \"vAMM: invalid address\");\n        authorized[account] = true;\n        emit AuthorizedAdded(account);\n    }\n    \n    /**\n     * @dev Removes an authorized address\n     */\n    function removeAuthorized(address account) external onlyOwner {\n        authorized[account] = false;\n        emit AuthorizedRemoved(account);\n    }\n    \n    /**\n     * @dev Pauses trading\n     */\n    function pause() external override onlyOwner {\n        paused = true;\n        emit Paused();\n    }\n    \n    /**\n     * @dev Resumes trading\n     */\n    function unpause() external override onlyOwner {\n        paused = false;\n        emit Unpaused();\n    }\n    \n    /**\n     * @dev Updates trading parameters\n     */\n    function updateTradingFeeRate(uint256 _feeRate) external onlyOwner {\n        require(_feeRate <= 1000, \"vAMM: fee too high\"); // Max 10%\n        tradingFeeRate = _feeRate;\n        emit ParametersUpdated(\"tradingFeeRate\", _feeRate);\n    }\n    \n    function updateMaintenanceMarginRatio(uint256 _ratio) external onlyOwner {\n        require(_ratio >= 100 && _ratio <= 2000, \"vAMM: invalid ratio\"); // 1-20%\n        maintenanceMarginRatio = _ratio;\n        emit ParametersUpdated(\"maintenanceMarginRatio\", _ratio);\n    }\n    \n    /**\n     * @dev Opens or modifies a position\n     */\n    function openPosition(\n        uint256 collateralAmount,\n        bool isLong,\n        uint256 leverage,\n        uint256 minPrice,\n        uint256 maxPrice\n    ) external override whenNotPaused returns (uint256 positionSize) {\n        require(collateralAmount > 0, \"vAMM: invalid collateral\");\n        require(leverage >= MIN_LEVERAGE && leverage <= MAX_LEVERAGE, \"vAMM: invalid leverage\");\n        \n        // Update funding before position change\n        updateFunding();\n        \n        // Calculate position size\n        positionSize = collateralAmount * leverage;\n        \n        // Get current mark price\n        uint256 currentPrice = getMarkPrice();\n        require(currentPrice >= minPrice && currentPrice <= maxPrice, \"vAMM: price slippage\");\n        \n        // Calculate trading fee\n        uint256 tradingFee = (positionSize * tradingFeeRate) / BASIS_POINTS;\n        uint256 totalCost = collateralAmount + tradingFee;\n        \n        // Reserve margin in vault\n        vault.reserveMargin(msg.sender, totalCost);\n        \n        // Apply funding to existing position if any\n        Position storage pos = positions[msg.sender];\n        if (pos.size != 0) {\n            _applyFunding(msg.sender);\n        }\n        \n        // Update virtual reserves\n        if (isLong) {\n            virtualQuoteReserves += positionSize;\n            totalLongSize += int256(positionSize);\n        } else {\n            virtualBaseReserves += positionSize;\n            totalShortSize += int256(positionSize);\n        }\n        \n        // Update position\n        if (pos.size == 0) {\n            // New position\n            pos.size = isLong ? int256(positionSize) : -int256(positionSize);\n            pos.entryPrice = currentPrice;\n            pos.entryFundingIndex = fundingState.fundingIndex;\n        } else {\n            // Existing position - calculate weighted average entry price\n            bool existingIsLong = pos.size > 0;\n            if (existingIsLong == isLong) {\n                // Same direction - add to position\n                uint256 existingNotional = uint256(existingIsLong ? pos.size : -pos.size) * pos.entryPrice / PRICE_PRECISION;\n                uint256 newNotional = positionSize * currentPrice / PRICE_PRECISION;\n                uint256 totalNotional = existingNotional + newNotional;\n                \n                pos.entryPrice = (totalNotional * PRICE_PRECISION) / uint256(existingIsLong ? pos.size + int256(positionSize) : -pos.size + int256(positionSize));\n                pos.size = existingIsLong ? pos.size + int256(positionSize) : pos.size - int256(positionSize);\n            } else {\n                // Opposite direction - reduce or flip position\n                if (uint256(existingIsLong ? pos.size : -pos.size) > positionSize) {\n                    // Reduce position\n                    pos.size = existingIsLong ? pos.size - int256(positionSize) : pos.size + int256(positionSize);\n                } else {\n                    // Flip position\n                    uint256 remainingSize = positionSize - uint256(existingIsLong ? pos.size : -pos.size);\n                    pos.size = isLong ? int256(remainingSize) : -int256(remainingSize);\n                    pos.entryPrice = currentPrice;\n                    pos.entryFundingIndex = fundingState.fundingIndex;\n                }\n            }\n        }\n        \n        pos.lastInteractionTime = block.timestamp;\n        \n        // Collect trading fee\n        totalTradingFees += tradingFee;\n        \n        emit PositionOpened(msg.sender, isLong, positionSize, currentPrice, leverage, tradingFee);\n        emit TradingFeeCollected(msg.sender, tradingFee);\n        \n        return positionSize;\n    }\n    \n    /**\n     * @dev Closes a position partially or fully\n     */\n    function closePosition(\n        uint256 sizeToClose,\n        uint256 minPrice,\n        uint256 maxPrice\n    ) external override whenNotPaused returns (int256 pnl) {\n        Position storage pos = positions[msg.sender];\n        require(pos.size != 0, \"vAMM: no position\");\n        \n        bool isLong = pos.size > 0;\n        uint256 positionSize = uint256(isLong ? pos.size : -pos.size);\n        require(sizeToClose <= positionSize, \"vAMM: invalid size\");\n        \n        // Update funding before closing\n        updateFunding();\n        _applyFunding(msg.sender);\n        \n        // Get current mark price\n        uint256 currentPrice = getMarkPrice();\n        require(currentPrice >= minPrice && currentPrice <= maxPrice, \"vAMM: price slippage\");\n        \n        // Calculate PnL\n        if (isLong) {\n            pnl = int256(sizeToClose * (currentPrice - pos.entryPrice) / PRICE_PRECISION);\n        } else {\n            pnl = int256(sizeToClose * (pos.entryPrice - currentPrice) / PRICE_PRECISION);\n        }\n        \n        // Calculate trading fee\n        uint256 tradingFee = (sizeToClose * tradingFeeRate) / BASIS_POINTS;\n        \n        // Update virtual reserves\n        if (isLong) {\n            virtualQuoteReserves -= sizeToClose;\n            totalLongSize -= int256(sizeToClose);\n        } else {\n            virtualBaseReserves -= sizeToClose;\n            totalShortSize -= int256(sizeToClose);\n        }\n        \n        // Update position\n        if (sizeToClose == positionSize) {\n            // Full close\n            delete positions[msg.sender];\n        } else {\n            // Partial close\n            pos.size = isLong ? pos.size - int256(sizeToClose) : pos.size + int256(sizeToClose);\n            pos.lastInteractionTime = block.timestamp;\n        }\n        \n        // Update vault\n        vault.updatePnL(msg.sender, pnl - int256(tradingFee));\n        \n        // Release margin proportionally\n        uint256 marginToRelease = (vault.getMarginAccount(msg.sender).reservedMargin * sizeToClose) / positionSize;\n        vault.releaseMargin(msg.sender, marginToRelease);\n        \n        // Collect trading fee\n        totalTradingFees += tradingFee;\n        \n        emit PositionClosed(msg.sender, sizeToClose, currentPrice, pnl, tradingFee);\n        emit TradingFeeCollected(msg.sender, tradingFee);\n        \n        return pnl;\n    }\n    \n    /**\n     * @dev Liquidates an undercollateralized position\n     */\n    function liquidate(address user) external whenNotPaused validUser(user) {\n        require(vault.canLiquidate(user, maintenanceMarginRatio), \"vAMM: cannot liquidate\");\n        \n        Position storage pos = positions[user];\n        require(pos.size != 0, \"vAMM: no position\");\n        \n        bool isLong = pos.size > 0;\n        uint256 positionSize = uint256(isLong ? pos.size : -pos.size);\n        \n        // Update funding before liquidation\n        updateFunding();\n        _applyFunding(user);\n        \n        // Calculate liquidation fee\n        uint256 liquidationFee = (positionSize * liquidationFeeRate) / BASIS_POINTS;\n        \n        // Update virtual reserves\n        if (isLong) {\n            virtualQuoteReserves -= positionSize;\n            totalLongSize -= int256(positionSize);\n        } else {\n            virtualBaseReserves -= positionSize;\n            totalShortSize -= int256(positionSize);\n        }\n        \n        // Close position\n        uint256 currentPrice = getMarkPrice();\n        delete positions[user];\n        \n        // Liquidate in vault\n        vault.liquidate(user, liquidationFee);\n        \n        emit PositionLiquidated(user, msg.sender, positionSize, currentPrice, liquidationFee);\n    }\n    \n    /**\n     * @dev Updates funding rate and applies funding\n     */\n    function updateFunding() public override {\n        if (block.timestamp < fundingState.lastFundingTime + FUNDING_INTERVAL) {\n            return; // Not time for funding update yet\n        }\n        \n        uint256 markPrice = getMarkPrice();\n        uint256 indexPrice = oracle.getPrice();\n        \n        // Calculate premium fraction (mark price vs index price)\n        int256 premiumFraction = int256((markPrice * FUNDING_PRECISION) / indexPrice) - int256(FUNDING_PRECISION);\n        \n        // Calculate funding rate (simplified implementation)\n        // In production, this would use TWAP and more sophisticated calculation\n        int256 fundingRate = premiumFraction / 24; // Divide by 24 for hourly rate\n        \n        // Cap funding rate\n        if (fundingRate > int256(MAX_FUNDING_RATE)) {\n            fundingRate = int256(MAX_FUNDING_RATE);\n        } else if (fundingRate < -int256(MAX_FUNDING_RATE)) {\n            fundingRate = -int256(MAX_FUNDING_RATE);\n        }\n        \n        // Update funding state\n        fundingState.fundingRate = fundingRate;\n        fundingState.premiumFraction = premiumFraction;\n        fundingState.lastFundingTime = block.timestamp;\n        \n        // Update cumulative funding index\n        fundingState.fundingIndex = uint256(int256(fundingState.fundingIndex) + fundingRate);\n        \n        emit FundingUpdated(fundingRate, fundingState.fundingIndex, premiumFraction);\n    }\n    \n    /**\n     * @dev Applies funding to a user's position\n     */\n    function _applyFunding(address user) internal {\n        Position storage pos = positions[user];\n        if (pos.size == 0) return;\n        \n        uint256 fundingIndexDelta = fundingState.fundingIndex - pos.entryFundingIndex;\n        if (fundingIndexDelta == 0) return;\n        \n        // Calculate funding payment\n        // Longs pay when funding is positive, receive when negative\n        // Shorts receive when funding is positive, pay when negative\n        bool isLong = pos.size > 0;\n        uint256 positionSize = uint256(isLong ? pos.size : -pos.size);\n        \n        int256 fundingPayment = int256(positionSize * fundingIndexDelta / FUNDING_PRECISION);\n        if (isLong) {\n            fundingPayment = -fundingPayment; // Longs pay positive funding\n        }\n        \n        // Apply funding in vault\n        vault.applyFunding(user, fundingPayment, fundingState.fundingIndex);\n        \n        // Update position funding index\n        pos.entryFundingIndex = fundingState.fundingIndex;\n        \n        emit FundingPaid(user, fundingPayment, fundingState.fundingIndex);\n    }\n    \n    /**\n     * @dev Gets current mark price from virtual reserves\n     */\n    function getMarkPrice() public view override returns (uint256) {\n        return (virtualQuoteReserves * PRICE_PRECISION) / virtualBaseReserves;\n    }\n    \n    /**\n     * @dev Gets current funding rate\n     */\n    function getFundingRate() external view override returns (int256) {\n        return fundingState.fundingRate;\n    }\n    \n    /**\n     * @dev Gets position data for a user\n     */\n    function getPosition(address user) external view override returns (Position memory) {\n        return positions[user];\n    }\n    \n    /**\n     * @dev Gets funding state\n     */\n    function getFundingState() external view override returns (FundingState memory) {\n        return fundingState;\n    }\n    \n    /**\n     * @dev Calculates unrealized PnL for a position\n     */\n    function getUnrealizedPnL(address user) external view override returns (int256) {\n        Position storage pos = positions[user];\n        if (pos.size == 0) return 0;\n        \n        uint256 currentPrice = getMarkPrice();\n        bool isLong = pos.size > 0;\n        uint256 positionSize = uint256(isLong ? pos.size : -pos.size);\n        \n        if (isLong) {\n            return int256(positionSize * (currentPrice - pos.entryPrice) / PRICE_PRECISION);\n        } else {\n            return int256(positionSize * (pos.entryPrice - currentPrice) / PRICE_PRECISION);\n        }\n    }\n    \n    /**\n     * @dev Gets the price impact for a trade\n     */\n    function getPriceImpact(uint256 size, bool isLong) external view override returns (uint256) {\n        uint256 currentPrice = getMarkPrice();\n        uint256 newPrice;\n        \n        if (isLong) {\n            uint256 newQuoteReserves = virtualQuoteReserves + size;\n            newPrice = (newQuoteReserves * PRICE_PRECISION) / virtualBaseReserves;\n        } else {\n            uint256 newBaseReserves = virtualBaseReserves + size;\n            newPrice = (virtualQuoteReserves * PRICE_PRECISION) / newBaseReserves;\n        }\n        \n        return newPrice > currentPrice ? newPrice - currentPrice : currentPrice - newPrice;\n    }\n    \n    /**\n     * @dev Transfers ownership\n     */\n    function transferOwnership(address newOwner) external onlyOwner {\n        require(newOwner != address(0), \"vAMM: invalid owner\");\n        owner = newOwner;\n    }\n    \n    /**\n     * @dev Emergency withdrawal of trading fees\n     */\n    function withdrawTradingFees(uint256 amount) external onlyOwner {\n        require(amount <= totalTradingFees, \"vAMM: insufficient fees\");\n        totalTradingFees -= amount;\n        // Implementation would transfer fees to owner\n    }\n} ",
  "sourcePath": "/Users/gplay_sayid/Desktop/CODE/dexextra/DexContracts/contracts/vAMM.sol",
  "compiler": {
    "name": "solc",
    "version": "0.8.20+commit.a1b79de6.Emscripten.clang"
  },
  "schemaVersion": "3.4.16",
  "updatedAt": "2025-07-10T16:59:14.179Z",
  "devdoc": {
    "details": "Production-ready virtual Automated Market Maker with funding rate mechanism",
    "kind": "dev",
    "methods": {
      "addAuthorized(address)": {
        "details": "Adds an authorized address"
      },
      "closePosition(uint256,uint256,uint256)": {
        "details": "Closes a position partially or fully"
      },
      "getFundingRate()": {
        "details": "Gets current funding rate"
      },
      "getFundingState()": {
        "details": "Gets funding state"
      },
      "getMarkPrice()": {
        "details": "Gets current mark price from virtual reserves"
      },
      "getPosition(address)": {
        "details": "Gets position data for a user"
      },
      "getPriceImpact(uint256,bool)": {
        "details": "Gets the price impact for a trade"
      },
      "getUnrealizedPnL(address)": {
        "details": "Calculates unrealized PnL for a position"
      },
      "liquidate(address)": {
        "details": "Liquidates an undercollateralized position"
      },
      "openPosition(uint256,bool,uint256,uint256,uint256)": {
        "details": "Opens or modifies a position"
      },
      "pause()": {
        "details": "Pauses trading"
      },
      "removeAuthorized(address)": {
        "details": "Removes an authorized address"
      },
      "transferOwnership(address)": {
        "details": "Transfers ownership"
      },
      "unpause()": {
        "details": "Resumes trading"
      },
      "updateFunding()": {
        "details": "Updates funding rate and applies funding"
      },
      "updateTradingFeeRate(uint256)": {
        "details": "Updates trading parameters"
      },
      "withdrawTradingFees(uint256)": {
        "details": "Emergency withdrawal of trading fees"
      }
    },
    "title": "vAMM",
    "version": 1
  },
  "userdoc": {
    "kind": "user",
    "methods": {},
    "version": 1
  }
}