{
  "contractName": "Vault",
  "abi": [
    {
      "inputs": [
        {
          "internalType": "address",
          "name": "_collateralToken",
          "type": "address"
        }
      ],
      "stateMutability": "nonpayable",
      "type": "constructor"
    },
    {
      "anonymous": false,
      "inputs": [
        {
          "indexed": true,
          "internalType": "address",
          "name": "account",
          "type": "address"
        }
      ],
      "name": "AuthorizedAdded",
      "type": "event"
    },
    {
      "anonymous": false,
      "inputs": [
        {
          "indexed": true,
          "internalType": "address",
          "name": "account",
          "type": "address"
        }
      ],
      "name": "AuthorizedRemoved",
      "type": "event"
    },
    {
      "anonymous": false,
      "inputs": [
        {
          "indexed": true,
          "internalType": "address",
          "name": "user",
          "type": "address"
        },
        {
          "indexed": false,
          "internalType": "uint256",
          "name": "amount",
          "type": "uint256"
        }
      ],
      "name": "CollateralDeposited",
      "type": "event"
    },
    {
      "anonymous": false,
      "inputs": [
        {
          "indexed": true,
          "internalType": "address",
          "name": "user",
          "type": "address"
        },
        {
          "indexed": false,
          "internalType": "uint256",
          "name": "amount",
          "type": "uint256"
        }
      ],
      "name": "CollateralWithdrawn",
      "type": "event"
    },
    {
      "anonymous": false,
      "inputs": [
        {
          "indexed": true,
          "internalType": "address",
          "name": "user",
          "type": "address"
        },
        {
          "indexed": false,
          "internalType": "int256",
          "name": "fundingPayment",
          "type": "int256"
        },
        {
          "indexed": false,
          "internalType": "uint256",
          "name": "fundingIndex",
          "type": "uint256"
        }
      ],
      "name": "FundingApplied",
      "type": "event"
    },
    {
      "anonymous": false,
      "inputs": [
        {
          "indexed": true,
          "internalType": "address",
          "name": "user",
          "type": "address"
        },
        {
          "indexed": false,
          "internalType": "uint256",
          "name": "amount",
          "type": "uint256"
        }
      ],
      "name": "MarginReleased",
      "type": "event"
    },
    {
      "anonymous": false,
      "inputs": [
        {
          "indexed": true,
          "internalType": "address",
          "name": "user",
          "type": "address"
        },
        {
          "indexed": false,
          "internalType": "uint256",
          "name": "amount",
          "type": "uint256"
        }
      ],
      "name": "MarginReserved",
      "type": "event"
    },
    {
      "anonymous": false,
      "inputs": [],
      "name": "Paused",
      "type": "event"
    },
    {
      "anonymous": false,
      "inputs": [
        {
          "indexed": true,
          "internalType": "address",
          "name": "user",
          "type": "address"
        },
        {
          "indexed": false,
          "internalType": "int256",
          "name": "pnlDelta",
          "type": "int256"
        }
      ],
      "name": "PnLUpdated",
      "type": "event"
    },
    {
      "anonymous": false,
      "inputs": [],
      "name": "Unpaused",
      "type": "event"
    },
    {
      "anonymous": false,
      "inputs": [
        {
          "indexed": true,
          "internalType": "address",
          "name": "user",
          "type": "address"
        },
        {
          "indexed": false,
          "internalType": "uint256",
          "name": "penalty",
          "type": "uint256"
        }
      ],
      "name": "UserLiquidated",
      "type": "event"
    },
    {
      "anonymous": false,
      "inputs": [
        {
          "indexed": true,
          "internalType": "address",
          "name": "newVamm",
          "type": "address"
        }
      ],
      "name": "VammUpdated",
      "type": "event"
    },
    {
      "inputs": [],
      "name": "BASIS_POINTS",
      "outputs": [
        {
          "internalType": "uint256",
          "name": "",
          "type": "uint256"
        }
      ],
      "stateMutability": "view",
      "type": "function"
    },
    {
      "inputs": [],
      "name": "LIQUIDATION_THRESHOLD",
      "outputs": [
        {
          "internalType": "uint256",
          "name": "",
          "type": "uint256"
        }
      ],
      "stateMutability": "view",
      "type": "function"
    },
    {
      "inputs": [
        {
          "internalType": "address",
          "name": "",
          "type": "address"
        }
      ],
      "name": "authorized",
      "outputs": [
        {
          "internalType": "bool",
          "name": "",
          "type": "bool"
        }
      ],
      "stateMutability": "view",
      "type": "function"
    },
    {
      "inputs": [],
      "name": "collateralToken",
      "outputs": [
        {
          "internalType": "contract IERC20",
          "name": "",
          "type": "address"
        }
      ],
      "stateMutability": "view",
      "type": "function"
    },
    {
      "inputs": [],
      "name": "owner",
      "outputs": [
        {
          "internalType": "address",
          "name": "",
          "type": "address"
        }
      ],
      "stateMutability": "view",
      "type": "function"
    },
    {
      "inputs": [],
      "name": "paused",
      "outputs": [
        {
          "internalType": "bool",
          "name": "",
          "type": "bool"
        }
      ],
      "stateMutability": "view",
      "type": "function"
    },
    {
      "inputs": [],
      "name": "vamm",
      "outputs": [
        {
          "internalType": "address",
          "name": "",
          "type": "address"
        }
      ],
      "stateMutability": "view",
      "type": "function"
    },
    {
      "inputs": [
        {
          "internalType": "address",
          "name": "_vamm",
          "type": "address"
        }
      ],
      "name": "setVamm",
      "outputs": [],
      "stateMutability": "nonpayable",
      "type": "function"
    },
    {
      "inputs": [
        {
          "internalType": "address",
          "name": "account",
          "type": "address"
        }
      ],
      "name": "addAuthorized",
      "outputs": [],
      "stateMutability": "nonpayable",
      "type": "function"
    },
    {
      "inputs": [
        {
          "internalType": "address",
          "name": "account",
          "type": "address"
        }
      ],
      "name": "removeAuthorized",
      "outputs": [],
      "stateMutability": "nonpayable",
      "type": "function"
    },
    {
      "inputs": [],
      "name": "pause",
      "outputs": [],
      "stateMutability": "nonpayable",
      "type": "function"
    },
    {
      "inputs": [],
      "name": "unpause",
      "outputs": [],
      "stateMutability": "nonpayable",
      "type": "function"
    },
    {
      "inputs": [
        {
          "internalType": "address",
          "name": "user",
          "type": "address"
        },
        {
          "internalType": "uint256",
          "name": "amount",
          "type": "uint256"
        }
      ],
      "name": "depositCollateral",
      "outputs": [],
      "stateMutability": "nonpayable",
      "type": "function"
    },
    {
      "inputs": [
        {
          "internalType": "address",
          "name": "user",
          "type": "address"
        },
        {
          "internalType": "uint256",
          "name": "amount",
          "type": "uint256"
        }
      ],
      "name": "withdrawCollateral",
      "outputs": [],
      "stateMutability": "nonpayable",
      "type": "function"
    },
    {
      "inputs": [
        {
          "internalType": "address",
          "name": "user",
          "type": "address"
        },
        {
          "internalType": "uint256",
          "name": "amount",
          "type": "uint256"
        }
      ],
      "name": "reserveMargin",
      "outputs": [],
      "stateMutability": "nonpayable",
      "type": "function"
    },
    {
      "inputs": [
        {
          "internalType": "address",
          "name": "user",
          "type": "address"
        },
        {
          "internalType": "uint256",
          "name": "amount",
          "type": "uint256"
        }
      ],
      "name": "releaseMargin",
      "outputs": [],
      "stateMutability": "nonpayable",
      "type": "function"
    },
    {
      "inputs": [
        {
          "internalType": "address",
          "name": "user",
          "type": "address"
        },
        {
          "internalType": "int256",
          "name": "pnlDelta",
          "type": "int256"
        }
      ],
      "name": "updatePnL",
      "outputs": [],
      "stateMutability": "nonpayable",
      "type": "function"
    },
    {
      "inputs": [
        {
          "internalType": "address",
          "name": "user",
          "type": "address"
        },
        {
          "internalType": "int256",
          "name": "fundingPayment",
          "type": "int256"
        },
        {
          "internalType": "uint256",
          "name": "fundingIndex",
          "type": "uint256"
        }
      ],
      "name": "applyFunding",
      "outputs": [],
      "stateMutability": "nonpayable",
      "type": "function"
    },
    {
      "inputs": [
        {
          "internalType": "address",
          "name": "user",
          "type": "address"
        }
      ],
      "name": "getAvailableMargin",
      "outputs": [
        {
          "internalType": "uint256",
          "name": "",
          "type": "uint256"
        }
      ],
      "stateMutability": "view",
      "type": "function"
    },
    {
      "inputs": [
        {
          "internalType": "address",
          "name": "user",
          "type": "address"
        }
      ],
      "name": "getTotalMargin",
      "outputs": [
        {
          "internalType": "int256",
          "name": "",
          "type": "int256"
        }
      ],
      "stateMutability": "view",
      "type": "function"
    },
    {
      "inputs": [
        {
          "internalType": "address",
          "name": "user",
          "type": "address"
        },
        {
          "internalType": "uint256",
          "name": "maintenanceMarginRatio",
          "type": "uint256"
        }
      ],
      "name": "canLiquidate",
      "outputs": [
        {
          "internalType": "bool",
          "name": "",
          "type": "bool"
        }
      ],
      "stateMutability": "view",
      "type": "function"
    },
    {
      "inputs": [
        {
          "internalType": "address",
          "name": "user",
          "type": "address"
        },
        {
          "internalType": "uint256",
          "name": "liquidationPenalty",
          "type": "uint256"
        }
      ],
      "name": "liquidate",
      "outputs": [],
      "stateMutability": "nonpayable",
      "type": "function"
    },
    {
      "inputs": [
        {
          "internalType": "address",
          "name": "user",
          "type": "address"
        }
      ],
      "name": "getMarginAccount",
      "outputs": [
        {
          "components": [
            {
              "internalType": "uint256",
              "name": "collateral",
              "type": "uint256"
            },
            {
              "internalType": "uint256",
              "name": "reservedMargin",
              "type": "uint256"
            },
            {
              "internalType": "int256",
              "name": "unrealizedPnL",
              "type": "int256"
            },
            {
              "internalType": "uint256",
              "name": "lastFundingIndex",
              "type": "uint256"
            }
          ],
          "internalType": "struct IVault.MarginAccount",
          "name": "",
          "type": "tuple"
        }
      ],
      "stateMutability": "view",
      "type": "function"
    },
    {
      "inputs": [
        {
          "internalType": "address",
          "name": "newOwner",
          "type": "address"
        }
      ],
      "name": "transferOwnership",
      "outputs": [],
      "stateMutability": "nonpayable",
      "type": "function"
    },
    {
      "inputs": [
        {
          "internalType": "address",
          "name": "token",
          "type": "address"
        },
        {
          "internalType": "uint256",
          "name": "amount",
          "type": "uint256"
        }
      ],
      "name": "emergencyWithdraw",
      "outputs": [],
      "stateMutability": "nonpayable",
      "type": "function"
    }
  ],
  "bytecode": "0x60806040526005805460ff19169055348015610019575f80fd5b506040516116a93803806116a98339810160408190526100389161006a565b5f8054336001600160a01b031991821617909155600280549091166001600160a01b0392909216919091179055610097565b5f6020828403121561007a575f80fd5b81516001600160a01b0381168114610090575f80fd5b9392505050565b611605806100a45f395ff3fe608060405234801561000f575f80fd5b506004361061016c575f3560e01c806395ccea67116100d9578063c1c7c9dd11610093578063cf1c316a1161006e578063cf1c316a1461035b578063e098372c1461036e578063e1f1c4a714610381578063f2fde38b1461038a575f80fd5b8063c1c7c9dd14610322578063c90ba3a614610335578063cb62568014610348575f80fd5b806395ccea67146102a1578063a5d5db0c146102b4578063b2016bd4146102c7578063b39ff736146102da578063b9181611146102ed578063bcbaf4871461030f575f80fd5b80635d7731741161012a5780635d7731741461021f5780637569f4c8146102325780638456cb59146102455780638da5cb5b1461024d57806390a8ae9b146102775780639101e5b31461028e575f80fd5b80622bc16414610170578063350c35e9146101bf5780633f4ba83a146101d4578063485d7d94146101dc5780635969f96b146101ef5780635c975abb14610202575b5f80fd5b61018361017e3660046113a6565b61039d565b6040516101b691908151815260208083015190820152604080830151908201526060918201519181019190915260800190565b60405180910390f35b6101d26101cd3660046113bf565b61040e565b005b6101d26106a9565b6101d26101ea3660046113a6565b610706565b6101d26101fd3660046113e7565b610777565b60055461020f9060ff1681565b60405190151581526020016101b6565b6101d261022d3660046113a6565b610858565b6101d26102403660046113bf565b610961565b6101d2610ad1565b5f5461025f906001600160a01b031681565b6040516001600160a01b0390911681526020016101b6565b61028061138881565b6040519081526020016101b6565b6101d261029c3660046113bf565b610b31565b6101d26102af3660046113bf565b610cae565b6101d26102c23660046113bf565b610d95565b60025461025f906001600160a01b031681565b61020f6102e83660046113bf565b610f6e565b61020f6102fb3660046113a6565b60046020525f908152604090205460ff1681565b6101d261031d3660046113bf565b610fe3565b6102806103303660046113a6565b6110ce565b6102806103433660046113a6565b611130565b6101d26103563660046113bf565b61115f565b6101d26103693660046113a6565b611231565b60015461025f906001600160a01b031681565b61028061271081565b6101d26103983660046113a6565b6112f4565b6103c460405180608001604052805f81526020015f81526020015f81526020015f81525090565b506001600160a01b03165f90815260036020818152604092839020835160808101855281548152600182015492810192909252600281015493820193909352910154606082015290565b60055460ff161561043a5760405162461bcd60e51b815260040161043190611417565b60405180910390fd5b5f81116104595760405162461bcd60e51b81526004016104319061143e565b6001600160a01b03821661047f5760405162461bcd60e51b81526004016104319061146d565b336001600160a01b03831614806104a45750335f9081526004602052604090205460ff165b6104c05760405162461bcd60e51b81526004016104319061149a565b6001600160a01b0382165f90815260036020526040902080548211156105285760405162461bcd60e51b815260206004820152601e60248201527f5661756c743a20696e73756666696369656e7420636f6c6c61746572616c00006044820152606401610431565b5f610532846110ce565b9050828110156105905760405162461bcd60e51b8152602060048201526024808201527f5661756c743a20696e73756666696369656e7420617661696c61626c65206d616044820152633933b4b760e11b6064820152608401610431565b82825f015f8282546105a291906114dd565b909155505060025460405163a9059cbb60e01b81526001600160a01b038681166004830152602482018690529091169063a9059cbb906044016020604051808303815f875af11580156105f7573d5f803e3d5ffd5b505050506040513d601f19601f8201168201806040525081019061061b91906114f0565b6106605760405162461bcd60e51b815260206004820152601660248201527515985d5b1d0e881d1c985b9cd9995c8819985a5b195960521b6044820152606401610431565b836001600160a01b03167fc30fcfbcaac9e0deffa719714eaa82396ff506a0d0d0eebe170830177288715d8460405161069b91815260200190565b60405180910390a250505050565b5f546001600160a01b031633146106d25760405162461bcd60e51b81526004016104319061150f565b6005805460ff191690556040517fa45f47fdea8a1efdd9029a5691c7f759c32b7c698632b563573e155625d16933905f90a1565b5f546001600160a01b0316331461072f5760405162461bcd60e51b81526004016104319061150f565b6001600160a01b0381165f81815260046020526040808220805460ff19169055517f0fafd0343e6c6f6985727574866da48938c918559eb9521cf9cc0d317ea0f7b49190a250565b335f9081526004602052604090205460ff168061079d57505f546001600160a01b031633145b6107b95760405162461bcd60e51b81526004016104319061149a565b6001600160a01b0383166107df5760405162461bcd60e51b81526004016104319061146d565b6001600160a01b0383165f9081526003602052604081206002810180549192859261080b908490611539565b90915550506003810182905560408051848152602081018490526001600160a01b038616917f4519c0de74b8f9f16fda0005326875e3fd4dd0d38446a1135a1ffa1739e4591e910161069b565b5f546001600160a01b031633146108815760405162461bcd60e51b81526004016104319061150f565b6001600160a01b0381166108cd5760405162461bcd60e51b81526020600482015260136024820152725661756c743a20696e76616c69642076616d6d60681b6044820152606401610431565b600180546001600160a01b0319166001600160a01b03831690811782555f81815260046020526040808220805460ff1916909417909355915190917fb9b7e0cd0425b8d1399710185feab651b96089b6f0e01cb950ffb46b17227cbf91a26040516001600160a01b038216907fdd10d14f6ac19e913d4edbb11fd30661531e2ccd0d23f571e9b224f001f0dd06905f90a250565b335f9081526004602052604090205460ff168061098757505f546001600160a01b031633145b6109a35760405162461bcd60e51b81526004016104319061149a565b60055460ff16156109c65760405162461bcd60e51b815260040161043190611417565b5f81116109e55760405162461bcd60e51b81526004016104319061143e565b6001600160a01b038216610a0b5760405162461bcd60e51b81526004016104319061146d565b6001600160a01b0382165f90815260036020526040812090610a2c846110ce565b905082811015610a7e5760405162461bcd60e51b815260206004820152601a60248201527f5661756c743a20696e73756666696369656e74206d617267696e0000000000006044820152606401610431565b82826001015f828254610a919190611560565b90915550506040518381526001600160a01b038516907f7a9b1b90f35f094ffc6d04d86069c79e82c6a16eb600f79672428a409635deca9060200161069b565b5f546001600160a01b03163314610afa5760405162461bcd60e51b81526004016104319061150f565b6005805460ff191660011790556040517f9e87fac88ff661f02d44f95383c817fece4bce600a3dab7a54406878b965e752905f90a1565b335f9081526004602052604090205460ff1680610b5757505f546001600160a01b031633145b610b735760405162461bcd60e51b81526004016104319061149a565b60055460ff1615610b965760405162461bcd60e51b815260040161043190611417565b5f8111610bb55760405162461bcd60e51b81526004016104319061143e565b6001600160a01b038216610bdb5760405162461bcd60e51b81526004016104319061146d565b6001600160a01b0382165f9081526003602052604090206001810154821115610c525760405162461bcd60e51b815260206004820152602360248201527f5661756c743a20696e73756666696369656e74207265736572766564206d617260448201526233b4b760e91b6064820152608401610431565b81816001015f828254610c6591906114dd565b90915550506040518281526001600160a01b038416907f5e63d54af10545f0b2bd229512f244caefe863ad94dbbb7ad827432c84d762f5906020015b60405180910390a2505050565b5f546001600160a01b03163314610cd75760405162461bcd60e51b81526004016104319061150f565b60055460ff16610d1d5760405162461bcd60e51b815260206004820152601160248201527015985d5b1d0e881b9bdd081c185d5cd959607a1b6044820152606401610431565b5f5460405163a9059cbb60e01b81526001600160a01b039182166004820152602481018390529083169063a9059cbb906044016020604051808303815f875af1158015610d6c573d5f803e3d5ffd5b505050506040513d601f19601f82011682018060405250810190610d9091906114f0565b505050565b60055460ff1615610db85760405162461bcd60e51b815260040161043190611417565b5f8111610dd75760405162461bcd60e51b81526004016104319061143e565b6001600160a01b038216610dfd5760405162461bcd60e51b81526004016104319061146d565b6001600160a01b0382163303610ed1576002546040516323b872dd60e01b81526001600160a01b03848116600483015230602483015260448201849052909116906323b872dd906064016020604051808303815f875af1158015610e63573d5f803e3d5ffd5b505050506040513d601f19601f82011682018060405250810190610e8791906114f0565b610ecc5760405162461bcd60e51b815260206004820152601660248201527515985d5b1d0e881d1c985b9cd9995c8819985a5b195960521b6044820152606401610431565b610eff565b335f9081526004602052604090205460ff16610eff5760405162461bcd60e51b81526004016104319061149a565b6001600160a01b0382165f9081526003602052604081208054839290610f26908490611560565b90915550506040518181526001600160a01b038316907fd7243f6f8212d5188fd054141cf6ea89cfc0d91facb8c3afe2f88a1358480142906020015b60405180910390a25050565b6001600160a01b0382165f90815260036020526040812060018101548203610f99575f915050610fdd565b5f610fa385611130565b90505f8113610fb757600192505050610fdd565b5f612710858460010154610fcb9190611573565b610fd5919061158a565b909110925050505b92915050565b335f9081526004602052604090205460ff168061100957505f546001600160a01b031633145b6110255760405162461bcd60e51b81526004016104319061149a565b6001600160a01b03821661104b5760405162461bcd60e51b81526004016104319061146d565b6001600160a01b0382165f9081526003602052604090208115611086575f82905080826002015f82825461107f91906115a9565b9091555050505b5f6001820181905560028201556040518281526001600160a01b038416907fe538b9438650b40b382a773f4b71a35129a6b330599b42ed9b50492847972fa690602001610ca1565b6001600160a01b0381165f908152600360205260408120816110ef84611130565b90505f811361110157505f9392505050565b60018201548190811161111857505f949350505050565b600183015461112790826114dd565b95945050505050565b6001600160a01b0381165f908152600360205260408120600281015481546111589190611539565b9392505050565b335f9081526004602052604090205460ff168061118557505f546001600160a01b031633145b6111a15760405162461bcd60e51b81526004016104319061149a565b6001600160a01b0382166111c75760405162461bcd60e51b81526004016104319061146d565b6001600160a01b0382165f90815260036020526040812060020180548392906111f1908490611539565b90915550506040518181526001600160a01b038316907f22d38deb33ee15dd233167fc440609397a226eb4e1b61e1773bdd09ef99424aa90602001610f62565b5f546001600160a01b0316331461125a5760405162461bcd60e51b81526004016104319061150f565b6001600160a01b0381166112a95760405162461bcd60e51b81526020600482015260166024820152755661756c743a20696e76616c6964206164647265737360501b6044820152606401610431565b6001600160a01b0381165f81815260046020526040808220805460ff19166001179055517fdd10d14f6ac19e913d4edbb11fd30661531e2ccd0d23f571e9b224f001f0dd069190a250565b5f546001600160a01b0316331461131d5760405162461bcd60e51b81526004016104319061150f565b6001600160a01b03811661136a5760405162461bcd60e51b81526020600482015260146024820152732b30bab63a1d1034b73b30b634b21037bbb732b960611b6044820152606401610431565b5f80546001600160a01b0319166001600160a01b0392909216919091179055565b80356001600160a01b03811681146113a1575f80fd5b919050565b5f602082840312156113b6575f80fd5b6111588261138b565b5f80604083850312156113d0575f80fd5b6113d98361138b565b946020939093013593505050565b5f805f606084860312156113f9575f80fd5b6114028461138b565b95602085013595506040909401359392505050565b6020808252600d908201526c15985d5b1d0e881c185d5cd959609a1b604082015260600190565b60208082526015908201527415985d5b1d0e881a5b9d985b1a5908185b5bdd5b9d605a1b604082015260600190565b6020808252601390820152722b30bab63a1d1034b73b30b634b2103ab9b2b960691b604082015260600190565b60208082526015908201527415985d5b1d0e881b9bdd08185d5d1a1bdc9a5e9959605a1b604082015260600190565b634e487b7160e01b5f52601160045260245ffd5b81810381811115610fdd57610fdd6114c9565b5f60208284031215611500575f80fd5b81518015158114611158575f80fd5b60208082526010908201526f2b30bab63a1d103737ba1037bbb732b960811b604082015260600190565b8082018281125f831280158216821582161715611558576115586114c9565b505092915050565b80820180821115610fdd57610fdd6114c9565b8082028115828204841417610fdd57610fdd6114c9565b5f826115a457634e487b7160e01b5f52601260045260245ffd5b500490565b8181035f8312801583831316838312821617156115c8576115c86114c9565b509291505056fea2646970667358221220b23d467c0ca397da5650d47ecbf32f2c1b92d62457860399dfc3e2f60d51d54b64736f6c63430008140033",
  "immutableReferences": {},
  "source": "// SPDX-License-Identifier: MIT\npragma solidity ^0.8.20;\n\nimport \"./IVault.sol\";\n\ninterface IERC20 {\n    function transferFrom(address from, address to, uint256 amount) external returns (bool);\n    function transfer(address to, uint256 amount) external returns (bool);\n    function balanceOf(address account) external view returns (uint256);\n}\n\n/**\n * @title Vault\n * @dev Modular margin vault for the vAMM system\n */\ncontract Vault is IVault {\n    address public owner;\n    address public vamm;\n    IERC20 public collateralToken;\n    \n    mapping(address => MarginAccount) private accounts;\n    mapping(address => bool) public authorized;\n    \n    uint256 public constant LIQUIDATION_THRESHOLD = 5000; // 50% in basis points\n    uint256 public constant BASIS_POINTS = 10000;\n    \n    bool public paused = false;\n    \n    // Events\n    event CollateralDeposited(address indexed user, uint256 amount);\n    event CollateralWithdrawn(address indexed user, uint256 amount);\n    event MarginReserved(address indexed user, uint256 amount);\n    event MarginReleased(address indexed user, uint256 amount);\n    event PnLUpdated(address indexed user, int256 pnlDelta);\n    event FundingApplied(address indexed user, int256 fundingPayment, uint256 fundingIndex);\n    event UserLiquidated(address indexed user, uint256 penalty);\n    event AuthorizedAdded(address indexed account);\n    event AuthorizedRemoved(address indexed account);\n    event VammUpdated(address indexed newVamm);\n    event Paused();\n    event Unpaused();\n    \n    modifier onlyOwner() {\n        require(msg.sender == owner, \"Vault: not owner\");\n        _;\n    }\n    \n    modifier onlyAuthorized() {\n        require(authorized[msg.sender] || msg.sender == owner, \"Vault: not authorized\");\n        _;\n    }\n    \n    modifier whenNotPaused() {\n        require(!paused, \"Vault: paused\");\n        _;\n    }\n    \n    modifier onlyVamm() {\n        require(msg.sender == vamm, \"Vault: not vamm\");\n        _;\n    }\n    \n    constructor(address _collateralToken) {\n        owner = msg.sender;\n        collateralToken = IERC20(_collateralToken);\n    }\n    \n    /**\n     * @dev Sets the vAMM contract address\n     */\n    function setVamm(address _vamm) external onlyOwner {\n        require(_vamm != address(0), \"Vault: invalid vamm\");\n        vamm = _vamm;\n        authorized[_vamm] = true;\n        emit VammUpdated(_vamm);\n        emit AuthorizedAdded(_vamm);\n    }\n    \n    /**\n     * @dev Adds an authorized contract\n     */\n    function addAuthorized(address account) external onlyOwner {\n        require(account != address(0), \"Vault: invalid address\");\n        authorized[account] = true;\n        emit AuthorizedAdded(account);\n    }\n    \n    /**\n     * @dev Removes an authorized contract\n     */\n    function removeAuthorized(address account) external onlyOwner {\n        authorized[account] = false;\n        emit AuthorizedRemoved(account);\n    }\n    \n    /**\n     * @dev Pauses the vault\n     */\n    function pause() external onlyOwner {\n        paused = true;\n        emit Paused();\n    }\n    \n    /**\n     * @dev Unpauses the vault\n     */\n    function unpause() external onlyOwner {\n        paused = false;\n        emit Unpaused();\n    }\n    \n    /**\n     * @dev Deposits collateral for a user\n     */\n    function depositCollateral(address user, uint256 amount) external override whenNotPaused {\n        require(amount > 0, \"Vault: invalid amount\");\n        require(user != address(0), \"Vault: invalid user\");\n        \n        // If called by user directly, transfer from user\n        if (msg.sender == user) {\n            require(\n                collateralToken.transferFrom(user, address(this), amount),\n                \"Vault: transfer failed\"\n            );\n        } else {\n            // If called by authorized contract, assume tokens are already in vault\n            require(authorized[msg.sender], \"Vault: not authorized\");\n        }\n        \n        accounts[user].collateral += amount;\n        emit CollateralDeposited(user, amount);\n    }\n    \n    /**\n     * @dev Withdraws collateral for a user\n     */\n    function withdrawCollateral(address user, uint256 amount) external override whenNotPaused {\n        require(amount > 0, \"Vault: invalid amount\");\n        require(user != address(0), \"Vault: invalid user\");\n        \n        // Only user or authorized contracts can withdraw\n        require(msg.sender == user || authorized[msg.sender], \"Vault: not authorized\");\n        \n        MarginAccount storage account = accounts[user];\n        require(account.collateral >= amount, \"Vault: insufficient collateral\");\n        \n        // Check if withdrawal would leave sufficient margin\n        uint256 availableMargin = getAvailableMargin(user);\n        require(availableMargin >= amount, \"Vault: insufficient available margin\");\n        \n        account.collateral -= amount;\n        require(\n            collateralToken.transfer(user, amount),\n            \"Vault: transfer failed\"\n        );\n        \n        emit CollateralWithdrawn(user, amount);\n    }\n    \n    /**\n     * @dev Reserves margin for a position\n     */\n    function reserveMargin(address user, uint256 amount) external override onlyAuthorized whenNotPaused {\n        require(amount > 0, \"Vault: invalid amount\");\n        require(user != address(0), \"Vault: invalid user\");\n        \n        MarginAccount storage account = accounts[user];\n        uint256 availableMargin = getAvailableMargin(user);\n        require(availableMargin >= amount, \"Vault: insufficient margin\");\n        \n        account.reservedMargin += amount;\n        emit MarginReserved(user, amount);\n    }\n    \n    /**\n     * @dev Releases reserved margin\n     */\n    function releaseMargin(address user, uint256 amount) external override onlyAuthorized whenNotPaused {\n        require(amount > 0, \"Vault: invalid amount\");\n        require(user != address(0), \"Vault: invalid user\");\n        \n        MarginAccount storage account = accounts[user];\n        require(account.reservedMargin >= amount, \"Vault: insufficient reserved margin\");\n        \n        account.reservedMargin -= amount;\n        emit MarginReleased(user, amount);\n    }\n    \n    /**\n     * @dev Updates PnL for a user\n     */\n    function updatePnL(address user, int256 pnlDelta) external override onlyAuthorized {\n        require(user != address(0), \"Vault: invalid user\");\n        \n        accounts[user].unrealizedPnL += pnlDelta;\n        emit PnLUpdated(user, pnlDelta);\n    }\n    \n    /**\n     * @dev Applies funding payment\n     */\n    function applyFunding(address user, int256 fundingPayment, uint256 fundingIndex) external override onlyAuthorized {\n        require(user != address(0), \"Vault: invalid user\");\n        \n        MarginAccount storage account = accounts[user];\n        account.unrealizedPnL += fundingPayment;\n        account.lastFundingIndex = fundingIndex;\n        \n        emit FundingApplied(user, fundingPayment, fundingIndex);\n    }\n    \n    /**\n     * @dev Gets available margin for a user\n     */\n    function getAvailableMargin(address user) public view override returns (uint256) {\n        MarginAccount storage account = accounts[user];\n        int256 totalMargin = getTotalMargin(user);\n        \n        if (totalMargin <= 0) return 0;\n        \n        uint256 totalMarginUint = uint256(totalMargin);\n        if (totalMarginUint <= account.reservedMargin) return 0;\n        \n        return totalMarginUint - account.reservedMargin;\n    }\n    \n    /**\n     * @dev Gets total margin (collateral + unrealized PnL)\n     */\n    function getTotalMargin(address user) public view override returns (int256) {\n        MarginAccount storage account = accounts[user];\n        return int256(account.collateral) + account.unrealizedPnL;\n    }\n    \n    /**\n     * @dev Checks if user can be liquidated\n     */\n    function canLiquidate(address user, uint256 maintenanceMarginRatio) external view override returns (bool) {\n        MarginAccount storage account = accounts[user];\n        \n        if (account.reservedMargin == 0) return false; // No position\n        \n        int256 totalMargin = getTotalMargin(user);\n        if (totalMargin <= 0) return true;\n        \n        uint256 requiredMargin = (account.reservedMargin * maintenanceMarginRatio) / BASIS_POINTS;\n        return uint256(totalMargin) < requiredMargin;\n    }\n    \n    /**\n     * @dev Liquidates a user's position\n     */\n    function liquidate(address user, uint256 liquidationPenalty) external override onlyAuthorized {\n        require(user != address(0), \"Vault: invalid user\");\n        \n        MarginAccount storage account = accounts[user];\n        \n        // Apply liquidation penalty\n        if (liquidationPenalty > 0) {\n            int256 penalty = int256(liquidationPenalty);\n            account.unrealizedPnL -= penalty;\n        }\n        \n        // Reset position-related data\n        account.reservedMargin = 0;\n        account.unrealizedPnL = 0;\n        \n        emit UserLiquidated(user, liquidationPenalty);\n    }\n    \n    /**\n     * @dev Gets user's margin account\n     */\n    function getMarginAccount(address user) external view override returns (MarginAccount memory) {\n        return accounts[user];\n    }\n    \n    /**\n     * @dev Transfers ownership\n     */\n    function transferOwnership(address newOwner) external onlyOwner {\n        require(newOwner != address(0), \"Vault: invalid owner\");\n        owner = newOwner;\n    }\n    \n    /**\n     * @dev Emergency withdrawal by owner\n     */\n    function emergencyWithdraw(address token, uint256 amount) external onlyOwner {\n        require(paused, \"Vault: not paused\");\n        IERC20(token).transfer(owner, amount);\n    }\n} ",
  "sourcePath": "/Users/gplay_sayid/Desktop/CODE/dexextra/DexContracts/contracts/Vault.sol",
  "compiler": {
    "name": "solc",
    "version": "0.8.20+commit.a1b79de6.Emscripten.clang"
  },
  "schemaVersion": "3.4.16",
  "updatedAt": "2025-07-10T16:59:14.177Z",
  "devdoc": {
    "details": "Modular margin vault for the vAMM system",
    "kind": "dev",
    "methods": {
      "addAuthorized(address)": {
        "details": "Adds an authorized contract"
      },
      "applyFunding(address,int256,uint256)": {
        "details": "Applies funding payment"
      },
      "canLiquidate(address,uint256)": {
        "details": "Checks if user can be liquidated"
      },
      "depositCollateral(address,uint256)": {
        "details": "Deposits collateral for a user"
      },
      "emergencyWithdraw(address,uint256)": {
        "details": "Emergency withdrawal by owner"
      },
      "getAvailableMargin(address)": {
        "details": "Gets available margin for a user"
      },
      "getMarginAccount(address)": {
        "details": "Gets user's margin account"
      },
      "getTotalMargin(address)": {
        "details": "Gets total margin (collateral + unrealized PnL)"
      },
      "liquidate(address,uint256)": {
        "details": "Liquidates a user's position"
      },
      "pause()": {
        "details": "Pauses the vault"
      },
      "releaseMargin(address,uint256)": {
        "details": "Releases reserved margin"
      },
      "removeAuthorized(address)": {
        "details": "Removes an authorized contract"
      },
      "reserveMargin(address,uint256)": {
        "details": "Reserves margin for a position"
      },
      "setVamm(address)": {
        "details": "Sets the vAMM contract address"
      },
      "transferOwnership(address)": {
        "details": "Transfers ownership"
      },
      "unpause()": {
        "details": "Unpauses the vault"
      },
      "updatePnL(address,int256)": {
        "details": "Updates PnL for a user"
      },
      "withdrawCollateral(address,uint256)": {
        "details": "Withdraws collateral for a user"
      }
    },
    "title": "Vault",
    "version": 1
  },
  "userdoc": {
    "kind": "user",
    "methods": {},
    "version": 1
  }
}