{"abi":[{"type":"constructor","inputs":[{"name":"_secureVault","type":"address","internalType":"address"},{"name":"_admin","type":"address","internalType":"address"},{"name":"_guardian","type":"address","internalType":"address"}],"stateMutability":"nonpayable"},{"type":"function","name":"BRIDGE_ENDPOINT_ROLE","inputs":[],"outputs":[{"name":"","type":"bytes32","internalType":"bytes32"}],"stateMutability":"view"},{"type":"function","name":"DEFAULT_ADMIN_ROLE","inputs":[],"outputs":[{"name":"","type":"bytes32","internalType":"bytes32"}],"stateMutability":"view"},{"type":"function","name":"GUARDIAN_ROLE","inputs":[],"outputs":[{"name":"","type":"bytes32","internalType":"bytes32"}],"stateMutability":"view"},{"type":"function","name":"anomalyDetector","inputs":[],"outputs":[{"name":"","type":"address","internalType":"contract IAnomalyDetector"}],"stateMutability":"view"},{"type":"function","name":"autoPauseEnabled","inputs":[],"outputs":[{"name":"","type":"bool","internalType":"bool"}],"stateMutability":"view"},{"type":"function","name":"domainLocked","inputs":[{"name":"","type":"uint64","internalType":"uint64"}],"outputs":[{"name":"","type":"bool","internalType":"bool"}],"stateMutability":"view"},{"type":"function","name":"emergencyPause","inputs":[{"name":"","type":"string","internalType":"string"}],"outputs":[],"stateMutability":"nonpayable"},{"type":"function","name":"getRoleAdmin","inputs":[{"name":"role","type":"bytes32","internalType":"bytes32"}],"outputs":[{"name":"","type":"bytes32","internalType":"bytes32"}],"stateMutability":"view"},{"type":"function","name":"grantRole","inputs":[{"name":"role","type":"bytes32","internalType":"bytes32"},{"name":"account","type":"address","internalType":"address"}],"outputs":[],"stateMutability":"nonpayable"},{"type":"function","name":"hasRole","inputs":[{"name":"role","type":"bytes32","internalType":"bytes32"},{"name":"account","type":"address","internalType":"address"}],"outputs":[{"name":"","type":"bool","internalType":"bool"}],"stateMutability":"view"},{"type":"function","name":"isMessageProcessed","inputs":[{"name":"messageHash","type":"bytes32","internalType":"bytes32"}],"outputs":[{"name":"","type":"bool","internalType":"bool"}],"stateMutability":"view"},{"type":"function","name":"lockDomain","inputs":[{"name":"domain","type":"uint64","internalType":"uint64"}],"outputs":[],"stateMutability":"nonpayable"},{"type":"function","name":"paused","inputs":[],"outputs":[{"name":"","type":"bool","internalType":"bool"}],"stateMutability":"view"},{"type":"function","name":"processedMessages","inputs":[{"name":"","type":"bytes32","internalType":"bytes32"}],"outputs":[{"name":"","type":"bool","internalType":"bool"}],"stateMutability":"view"},{"type":"function","name":"receiveMessage","inputs":[{"name":"srcDomain","type":"uint64","internalType":"uint64"},{"name":"srcApp","type":"bytes32","internalType":"bytes32"},{"name":"payload","type":"bytes","internalType":"bytes"}],"outputs":[],"stateMutability":"nonpayable"},{"type":"function","name":"remoteAppByDomain","inputs":[{"name":"","type":"uint64","internalType":"uint64"}],"outputs":[{"name":"","type":"bytes32","internalType":"bytes32"}],"stateMutability":"view"},{"type":"function","name":"renounceRole","inputs":[{"name":"role","type":"bytes32","internalType":"bytes32"},{"name":"callerConfirmation","type":"address","internalType":"address"}],"outputs":[],"stateMutability":"nonpayable"},{"type":"function","name":"revokeRole","inputs":[{"name":"role","type":"bytes32","internalType":"bytes32"},{"name":"account","type":"address","internalType":"address"}],"outputs":[],"stateMutability":"nonpayable"},{"type":"function","name":"secureVault","inputs":[],"outputs":[{"name":"","type":"address","internalType":"contract ISecureSpokeVaultV3"}],"stateMutability":"view"},{"type":"function","name":"setAnomalyDetector","inputs":[{"name":"_detector","type":"address","internalType":"address"}],"outputs":[],"stateMutability":"nonpayable"},{"type":"function","name":"setAutoPause","inputs":[{"name":"enabled","type":"bool","internalType":"bool"}],"outputs":[],"stateMutability":"nonpayable"},{"type":"function","name":"setRemoteApp","inputs":[{"name":"domain","type":"uint64","internalType":"uint64"},{"name":"remoteApp","type":"bytes32","internalType":"bytes32"}],"outputs":[],"stateMutability":"nonpayable"},{"type":"function","name":"supportsInterface","inputs":[{"name":"interfaceId","type":"bytes4","internalType":"bytes4"}],"outputs":[{"name":"","type":"bool","internalType":"bool"}],"stateMutability":"view"},{"type":"function","name":"unpause","inputs":[],"outputs":[],"stateMutability":"nonpayable"},{"type":"event","name":"AnomalyDetectorUpdated","inputs":[{"name":"detector","type":"address","indexed":true,"internalType":"address"}],"anonymous":false},{"type":"event","name":"DomainLocked","inputs":[{"name":"domain","type":"uint64","indexed":true,"internalType":"uint64"}],"anonymous":false},{"type":"event","name":"Paused","inputs":[{"name":"account","type":"address","indexed":false,"internalType":"address"}],"anonymous":false},{"type":"event","name":"RemoteAppSet","inputs":[{"name":"domain","type":"uint64","indexed":true,"internalType":"uint64"},{"name":"remoteApp","type":"bytes32","indexed":true,"internalType":"bytes32"}],"anonymous":false},{"type":"event","name":"RoleAdminChanged","inputs":[{"name":"role","type":"bytes32","indexed":true,"internalType":"bytes32"},{"name":"previousAdminRole","type":"bytes32","indexed":true,"internalType":"bytes32"},{"name":"newAdminRole","type":"bytes32","indexed":true,"internalType":"bytes32"}],"anonymous":false},{"type":"event","name":"RoleGranted","inputs":[{"name":"role","type":"bytes32","indexed":true,"internalType":"bytes32"},{"name":"account","type":"address","indexed":true,"internalType":"address"},{"name":"sender","type":"address","indexed":true,"internalType":"address"}],"anonymous":false},{"type":"event","name":"RoleRevoked","inputs":[{"name":"role","type":"bytes32","indexed":true,"internalType":"bytes32"},{"name":"account","type":"address","indexed":true,"internalType":"address"},{"name":"sender","type":"address","indexed":true,"internalType":"address"}],"anonymous":false},{"type":"event","name":"SuspiciousActivityDetected","inputs":[{"name":"user","type":"address","indexed":true,"internalType":"address"},{"name":"amount","type":"uint256","indexed":false,"internalType":"uint256"}],"anonymous":false},{"type":"event","name":"Unpaused","inputs":[{"name":"account","type":"address","indexed":false,"internalType":"address"}],"anonymous":false},{"type":"event","name":"WithdrawDelivered","inputs":[{"name":"srcDomain","type":"uint64","indexed":true,"internalType":"uint64"},{"name":"user","type":"address","indexed":true,"internalType":"address"},{"name":"token","type":"address","indexed":false,"internalType":"address"},{"name":"amount","type":"uint256","indexed":false,"internalType":"uint256"},{"name":"withdrawId","type":"bytes32","indexed":false,"internalType":"bytes32"}],"anonymous":false},{"type":"error","name":"AccessControlBadConfirmation","inputs":[]},{"type":"error","name":"AccessControlUnauthorizedAccount","inputs":[{"name":"account","type":"address","internalType":"address"},{"name":"neededRole","type":"bytes32","internalType":"bytes32"}]},{"type":"error","name":"DomainAlreadyLocked","inputs":[]},{"type":"error","name":"EnforcedPause","inputs":[]},{"type":"error","name":"ExpectedPause","inputs":[]},{"type":"error","name":"InvalidMessageType","inputs":[]},{"type":"error","name":"InvalidRemoteApp","inputs":[]},{"type":"error","name":"MessageAlreadyProcessed","inputs":[]},{"type":"error","name":"ReentrancyGuardReentrantCall","inputs":[]},{"type":"error","name":"SuspiciousActivity","inputs":[]},{"type":"error","name":"ZeroAddress","inputs":[]}],"bytecode":{"object":"0x60a06040526005805460ff191660011790553480156200001d575f80fd5b50604051620014be380380620014be833981016040819052620000409162000207565b60017f9b779b17422d0df92223018b32b4d1fa46e071723d6817e2486d003becc55f00556001600160a01b0383166200008c5760405163d92e233d60e01b815260040160405180910390fd5b6001600160a01b038216620000b45760405163d92e233d60e01b815260040160405180910390fd5b6001600160a01b038316608052620000cd5f836200013f565b50620000e85f805160206200149e833981519152836200013f565b506001600160a01b03811615801590620001145750816001600160a01b0316816001600160a01b031614155b156200013657620001345f805160206200149e833981519152826200013f565b505b5050506200024e565b5f828152602081815260408083206001600160a01b038516845290915281205460ff16620001e2575f838152602081815260408083206001600160a01b03861684529091529020805460ff19166001179055620001993390565b6001600160a01b0316826001600160a01b0316847f2f8788117e7eff1d82e926ec794901d17c78024a50270940304540a733656f0d60405160405180910390a4506001620001e5565b505f5b92915050565b80516001600160a01b038116811462000202575f80fd5b919050565b5f805f606084860312156200021a575f80fd5b6200022584620001eb565b92506200023560208501620001eb565b91506200024560408501620001eb565b90509250925092565b6080516112306200026e5f395f81816103480152610a6001526112305ff3fe608060405234801561000f575f80fd5b5060043610610153575f3560e01c80633f4ba83a116100bf578063a78cd42911610079578063a78cd4291461031d578063cf5b4fd514610330578063d12d447814610343578063d547741f14610382578063ddd0eb3414610395578063edc78ebb146103ad575f80fd5b80633f4ba83a146102bb5780634de99158146102c35780635c975abb146102d657806388ba16ab146102e157806391d1485414610303578063a217fddf14610316575f80fd5b806324ea54f41161011057806324ea54f41461022757806325ffe9971461024e5780632f2ff15d1461026d578063337f65f31461028257806336568abe146102955780633e2a86f7146102a8575f80fd5b806301ffc9a714610157578063020714e11461017f57806304773213146101b457806304ee27ed146101d65780631bd31ef6146101e3578063248a9ca314610205575b5f80fd5b61016a610165366004610de6565b6103c0565b60405190151581526020015b60405180910390f35b6101a67f4949b9c9467508440e209cfd68594002afea2b68a8f3f182e713fcaa8a32810381565b604051908152602001610176565b61016a6101c2366004610e30565b60036020525f908152604090205460ff1681565b60055461016a9060ff1681565b61016a6101f1366004610e49565b5f9081526004602052604090205460ff1690565b6101a6610213366004610e49565b5f9081526020819052604090206001015490565b6101a67f55435dd261a4b9b3364963f7738a7a662ad9c84396d64be3365284bb7f0a504181565b6101a661025c366004610e30565b60026020525f908152604090205481565b61028061027b366004610e74565b6103f6565b005b610280610290366004610ea2565b610420565b6102806102a3366004610e74565b61047c565b6102806102b6366004610e30565b6104b4565b61028061056a565b6102806102d1366004610ebd565b61057f565b60015460ff1661016a565b61016a6102ef366004610e49565b60046020525f908152604090205460ff1681565b61016a610311366004610e74565b61060b565b6101a65f81565b61028061032b366004610ef2565b610633565b61028061033e366004610f52565b610651565b61036a7f000000000000000000000000000000000000000000000000000000000000000081565b6040516001600160a01b039091168152602001610176565b610280610390366004610e74565b610683565b60015461036a9061010090046001600160a01b031681565b6102806103bb366004610f91565b6106a7565b5f6001600160e01b03198216637965db0b60e01b14806103f057506301ffc9a760e01b6001600160e01b03198316145b92915050565b5f8281526020819052604090206001015461041081610b61565b61041a8383610b6b565b50505050565b5f61042a81610b61565b60018054610100600160a81b0319166101006001600160a01b038516908102919091179091556040517f8ae7bc76ae34e9d0e18499ad5afe84a3f453e723938a74d5f87ac00fac703a00905f90a25050565b6001600160a01b03811633146104a55760405163334bd91960e11b815260040160405180910390fd5b6104af8282610bfa565b505050565b5f6104be81610b61565b67ffffffffffffffff82165f9081526002602052604090205461051d5760405162461bcd60e51b81526020600482015260126024820152711c995b5bdd1948185c1c081b9bdd081cd95d60721b60448201526064015b60405180910390fd5b67ffffffffffffffff82165f81815260036020526040808220805460ff19166001179055517f3c522d6d0fecbe7c7b525264fd74418aee050a680d474e568b9e8db566907a109190a25050565b5f61057481610b61565b61057c610c63565b50565b5f61058981610b61565b67ffffffffffffffff83165f9081526003602052604090205460ff16156105c3576040516353d97f8360e01b815260040160405180910390fd5b67ffffffffffffffff83165f81815260026020526040808220859055518492917f9062483505a10d6a9f31a7c44d4cb0a917459f58a063048394fe28cf9a639edc91a3505050565b5f918252602082815260408084206001600160a01b0393909316845291905290205460ff1690565b5f61063d81610b61565b506005805460ff1916911515919091179055565b7f55435dd261a4b9b3364963f7738a7a662ad9c84396d64be3365284bb7f0a504161067b81610b61565b6104af610cb5565b5f8281526020819052604090206001015461069d81610b61565b61041a8383610bfa565b6106af610cf0565b6106b7610d1e565b7f4949b9c9467508440e209cfd68594002afea2b68a8f3f182e713fcaa8a3281036106e181610b61565b67ffffffffffffffff85165f908152600260205260409020548015806107075750848114155b1561072557604051630a648ab960e41b815260040160405180910390fd5b5f8686868660405160200161073d9493929190610fe7565b60408051601f1981840301815291815281516020928301205f818152600490935291205490915060ff161561078557604051637b04260960e01b815260040160405180910390fd5b5f80808080610796898b018b611017565b94509450945094509450600260ff168560ff16146107c757604051635b60892f60e01b815260040160405180910390fd5b60015461010090046001600160a01b031615610a255760055460ff16156108d0575f8060018054906101000a90046001600160a01b03166001600160a01b03166352172fdb6040518163ffffffff1660e01b81526004015f60405180830381865afa158015610838573d5f803e3d5ffd5b505050506040513d5f823e601f3d908101601f1916820160405261085f9190810190611087565b9150915081156108cd57610871610cb5565b856001600160a01b03167f92110b7744be9a0a0061538815f6ef4099bddca60439a8dc28ccc35fda7c47b9856040516108ac91815260200190565b60405180910390a26040516305ebdc6d60e41b815260040160405180910390fd5b50505b600154604051633fbf4d1160e21b81526001600160a01b038681166004830152602482018590526101009092049091169063fefd344490604401602060405180830381865afa158015610925573d5f803e3d5ffd5b505050506040513d601f19601f82011682018060405250810190610949919061115e565b156109bd57836001600160a01b03167f92110b7744be9a0a0061538815f6ef4099bddca60439a8dc28ccc35fda7c47b98360405161098991815260200190565b60405180910390a260055460ff16156109bd576109a4610cb5565b6040516305ebdc6d60e41b815260040160405180910390fd5b60015460405163fa17bb7560e01b81526001600160a01b038681166004830152602482018590526101009092049091169063fa17bb75906044015f604051808303815f87803b158015610a0e575f80fd5b505af1158015610a20573d5f803e3d5ffd5b505050505b5f868152600460209081526040808320805460ff19166001179055805192835290820190819052633d6c83c960e11b90526001600160a01b037f000000000000000000000000000000000000000000000000000000000000000016637ad90792610a96878787878760248101611179565b5f604051808303815f87803b158015610aad575f80fd5b505af1158015610abf573d5f803e3d5ffd5b50505050846001600160a01b03168d67ffffffffffffffff167f04f57e410e7323dedf7253f487cd3e133efcf6ddb058efa196f29e250b809ad5868686604051610b27939291906001600160a01b039390931683526020830191909152604082015260600190565b60405180910390a350505050505050505061041a60017f9b779b17422d0df92223018b32b4d1fa46e071723d6817e2486d003becc55f0055565b61057c8133610d44565b5f610b76838361060b565b610bf3575f838152602081815260408083206001600160a01b03861684529091529020805460ff19166001179055610bab3390565b6001600160a01b0316826001600160a01b0316847f2f8788117e7eff1d82e926ec794901d17c78024a50270940304540a733656f0d60405160405180910390a45060016103f0565b505f6103f0565b5f610c05838361060b565b15610bf3575f838152602081815260408083206001600160a01b0386168085529252808320805460ff1916905551339286917ff6391f5c32d9c69d2a47ea670b442974b53935d1edc7fd64eb21e047a839171b9190a45060016103f0565b610c6b610d81565b6001805460ff191690557f5db9ee0a495bf2e6ff9c91a7834c1ba4fdd244a5e8aa4e537bd38aeae4b073aa335b6040516001600160a01b03909116815260200160405180910390a1565b610cbd610d1e565b6001805460ff1916811790557f62e78cea01bee320cd4e420270b5ea74000d11b0c9f74754ebdbfc544b05a25833610c98565b610cf8610da4565b60027f9b779b17422d0df92223018b32b4d1fa46e071723d6817e2486d003becc55f0055565b60015460ff1615610d425760405163d93c066560e01b815260040160405180910390fd5b565b610d4e828261060b565b610d7d5760405163e2517d3f60e01b81526001600160a01b038216600482015260248101839052604401610514565b5050565b60015460ff16610d4257604051638dfc202b60e01b815260040160405180910390fd5b7f9b779b17422d0df92223018b32b4d1fa46e071723d6817e2486d003becc55f0054600203610d4257604051633ee5aeb560e01b815260040160405180910390fd5b5f60208284031215610df6575f80fd5b81356001600160e01b031981168114610e0d575f80fd5b9392505050565b803567ffffffffffffffff81168114610e2b575f80fd5b919050565b5f60208284031215610e40575f80fd5b610e0d82610e14565b5f60208284031215610e59575f80fd5b5035919050565b6001600160a01b038116811461057c575f80fd5b5f8060408385031215610e85575f80fd5b823591506020830135610e9781610e60565b809150509250929050565b5f60208284031215610eb2575f80fd5b8135610e0d81610e60565b5f8060408385031215610ece575f80fd5b610ed783610e14565b946020939093013593505050565b801515811461057c575f80fd5b5f60208284031215610f02575f80fd5b8135610e0d81610ee5565b5f8083601f840112610f1d575f80fd5b50813567ffffffffffffffff811115610f34575f80fd5b602083019150836020828501011115610f4b575f80fd5b9250929050565b5f8060208385031215610f63575f80fd5b823567ffffffffffffffff811115610f79575f80fd5b610f8585828601610f0d565b90969095509350505050565b5f805f8060608587031215610fa4575f80fd5b610fad85610e14565b935060208501359250604085013567ffffffffffffffff811115610fcf575f80fd5b610fdb87828801610f0d565b95989497509550505050565b67ffffffffffffffff60c01b8560c01b168152836008820152818360288301375f91016028019081529392505050565b5f805f805f60a0868803121561102b575f80fd5b853560ff8116811461103b575f80fd5b9450602086013561104b81610e60565b9350604086013561105b81610e60565b94979396509394606081013594506080013592915050565b634e487b7160e01b5f52604160045260245ffd5b5f8060408385031215611098575f80fd5b82516110a381610ee5565b8092505060208084015167ffffffffffffffff808211156110c2575f80fd5b818601915086601f8301126110d5575f80fd5b8151818111156110e7576110e7611073565b604051601f8201601f19908116603f0116810190838211818310171561110f5761110f611073565b816040528281528986848701011115611126575f80fd5b5f93505b82841015611147578484018601518185018701529285019261112a565b5f8684830101528096505050505050509250929050565b5f6020828403121561116e575f80fd5b8151610e0d81610ee5565b6001600160a01b0386811682528516602080830191909152604082018590526060820184905260c06080830181905283519083018190525f918481019160e085019190845b818110156111da578451845293820193928201926001016111be565b50505083810360a08501525f81526020810192505050969550505050505056fea26469706673582212208bb95bc7fd8993a8958fcd3a02893e2a3c8634f73f7c40ed51f6dbbe3286d90864736f6c6343000818003355435dd261a4b9b3364963f7738a7a662ad9c84396d64be3365284bb7f0a5041","linkReferences":{}},"methodIdentifiers":{"BRIDGE_ENDPOINT_ROLE()":"020714e1","DEFAULT_ADMIN_ROLE()":"a217fddf","GUARDIAN_ROLE()":"24ea54f4","anomalyDetector()":"ddd0eb34","autoPauseEnabled()":"04ee27ed","domainLocked(uint64)":"04773213","emergencyPause(string)":"cf5b4fd5","getRoleAdmin(bytes32)":"248a9ca3","grantRole(bytes32,address)":"2f2ff15d","hasRole(bytes32,address)":"91d14854","isMessageProcessed(bytes32)":"1bd31ef6","lockDomain(uint64)":"3e2a86f7","paused()":"5c975abb","processedMessages(bytes32)":"88ba16ab","receiveMessage(uint64,bytes32,bytes)":"edc78ebb","remoteAppByDomain(uint64)":"25ffe997","renounceRole(bytes32,address)":"36568abe","revokeRole(bytes32,address)":"d547741f","secureVault()":"d12d4478","setAnomalyDetector(address)":"337f65f3","setAutoPause(bool)":"a78cd429","setRemoteApp(uint64,bytes32)":"4de99158","supportsInterface(bytes4)":"01ffc9a7","unpause()":"3f4ba83a"},"id":35}