{"abi":[{"type":"constructor","inputs":[{"name":"_initialAllowedTokens","type":"address[]","internalType":"address[]"},{"name":"_admin","type":"address","internalType":"address"},{"name":"_guardian","type":"address","internalType":"address"},{"name":"_config","type":"tuple","internalType":"struct SecureSpokeVaultV3.SecurityConfig","components":[{"name":"instantWithdrawalThreshold","type":"uint256","internalType":"uint256"},{"name":"timelockDelay","type":"uint256","internalType":"uint256"},{"name":"dailyLimitPerToken","type":"uint256","internalType":"uint256"},{"name":"userRateLimitWindow","type":"uint256","internalType":"uint256"},{"name":"userMaxWithdrawalsPerWindow","type":"uint256","internalType":"uint256"},{"name":"globalHourlyLimit","type":"uint256","internalType":"uint256"},{"name":"hotWalletLimit","type":"uint256","internalType":"uint256"},{"name":"adminTimelockDelay","type":"uint256","internalType":"uint256"},{"name":"requireCoSignerForLarge","type":"bool","internalType":"bool"},{"name":"requireMerkleProof","type":"bool","internalType":"bool"},{"name":"requireDepositHistory","type":"bool","internalType":"bool"},{"name":"circuitBreakerEnabled","type":"bool","internalType":"bool"}]}],"stateMutability":"nonpayable"},{"type":"function","name":"BRIDGE_INBOX_ROLE","inputs":[],"outputs":[{"name":"","type":"bytes32","internalType":"bytes32"}],"stateMutability":"view"},{"type":"function","name":"CIRCUIT_BREAKER_COOLDOWN","inputs":[],"outputs":[{"name":"","type":"uint256","internalType":"uint256"}],"stateMutability":"view"},{"type":"function","name":"COLD_WITHDRAWER_ROLE","inputs":[],"outputs":[{"name":"","type":"bytes32","internalType":"bytes32"}],"stateMutability":"view"},{"type":"function","name":"CO_SIGNER_ROLE","inputs":[],"outputs":[{"name":"","type":"bytes32","internalType":"bytes32"}],"stateMutability":"view"},{"type":"function","name":"DEFAULT_ADMIN_ROLE","inputs":[],"outputs":[{"name":"","type":"bytes32","internalType":"bytes32"}],"stateMutability":"view"},{"type":"function","name":"GUARDIAN_ROLE","inputs":[],"outputs":[{"name":"","type":"bytes32","internalType":"bytes32"}],"stateMutability":"view"},{"type":"function","name":"MERKLE_UPDATER_ROLE","inputs":[],"outputs":[{"name":"","type":"bytes32","internalType":"bytes32"}],"stateMutability":"view"},{"type":"function","name":"VAULT_ADMIN_ROLE","inputs":[],"outputs":[{"name":"","type":"bytes32","internalType":"bytes32"}],"stateMutability":"view"},{"type":"function","name":"addAllowedToken","inputs":[{"name":"token","type":"address","internalType":"address"}],"outputs":[],"stateMutability":"nonpayable"},{"type":"function","name":"bridgeInbox","inputs":[],"outputs":[{"name":"","type":"address","internalType":"address"}],"stateMutability":"view"},{"type":"function","name":"bridgeInboxLocked","inputs":[],"outputs":[{"name":"","type":"bool","internalType":"bool"}],"stateMutability":"view"},{"type":"function","name":"cancelTimelockWithdrawal","inputs":[{"name":"withdrawId","type":"bytes32","internalType":"bytes32"}],"outputs":[],"stateMutability":"nonpayable"},{"type":"function","name":"circuitBreakerTriggeredAt","inputs":[],"outputs":[{"name":"","type":"uint256","internalType":"uint256"}],"stateMutability":"view"},{"type":"function","name":"coldWithdraw","inputs":[{"name":"token","type":"address","internalType":"address"},{"name":"amount","type":"uint256","internalType":"uint256"},{"name":"to","type":"address","internalType":"address"}],"outputs":[],"stateMutability":"nonpayable"},{"type":"function","name":"config","inputs":[],"outputs":[{"name":"instantWithdrawalThreshold","type":"uint256","internalType":"uint256"},{"name":"timelockDelay","type":"uint256","internalType":"uint256"},{"name":"dailyLimitPerToken","type":"uint256","internalType":"uint256"},{"name":"userRateLimitWindow","type":"uint256","internalType":"uint256"},{"name":"userMaxWithdrawalsPerWindow","type":"uint256","internalType":"uint256"},{"name":"globalHourlyLimit","type":"uint256","internalType":"uint256"},{"name":"hotWalletLimit","type":"uint256","internalType":"uint256"},{"name":"adminTimelockDelay","type":"uint256","internalType":"uint256"},{"name":"requireCoSignerForLarge","type":"bool","internalType":"bool"},{"name":"requireMerkleProof","type":"bool","internalType":"bool"},{"name":"requireDepositHistory","type":"bool","internalType":"bool"},{"name":"circuitBreakerEnabled","type":"bool","internalType":"bool"}],"stateMutability":"view"},{"type":"function","name":"dailyWithdrawals","inputs":[{"name":"","type":"address","internalType":"address"},{"name":"","type":"uint256","internalType":"uint256"}],"outputs":[{"name":"","type":"uint256","internalType":"uint256"}],"stateMutability":"view"},{"type":"function","name":"deposit","inputs":[{"name":"token","type":"address","internalType":"address"},{"name":"amount","type":"uint256","internalType":"uint256"}],"outputs":[],"stateMutability":"nonpayable"},{"type":"function","name":"depositFor","inputs":[{"name":"user","type":"address","internalType":"address"},{"name":"payer","type":"address","internalType":"address"},{"name":"token","type":"address","internalType":"address"},{"name":"amount","type":"uint256","internalType":"uint256"}],"outputs":[],"stateMutability":"nonpayable"},{"type":"function","name":"emergencyPause","inputs":[{"name":"reason","type":"string","internalType":"string"}],"outputs":[],"stateMutability":"nonpayable"},{"type":"function","name":"executeConfigUpdate","inputs":[{"name":"opHash","type":"bytes32","internalType":"bytes32"},{"name":"newConfig","type":"tuple","internalType":"struct SecureSpokeVaultV3.SecurityConfig","components":[{"name":"instantWithdrawalThreshold","type":"uint256","internalType":"uint256"},{"name":"timelockDelay","type":"uint256","internalType":"uint256"},{"name":"dailyLimitPerToken","type":"uint256","internalType":"uint256"},{"name":"userRateLimitWindow","type":"uint256","internalType":"uint256"},{"name":"userMaxWithdrawalsPerWindow","type":"uint256","internalType":"uint256"},{"name":"globalHourlyLimit","type":"uint256","internalType":"uint256"},{"name":"hotWalletLimit","type":"uint256","internalType":"uint256"},{"name":"adminTimelockDelay","type":"uint256","internalType":"uint256"},{"name":"requireCoSignerForLarge","type":"bool","internalType":"bool"},{"name":"requireMerkleProof","type":"bool","internalType":"bool"},{"name":"requireDepositHistory","type":"bool","internalType":"bool"},{"name":"circuitBreakerEnabled","type":"bool","internalType":"bool"}]}],"outputs":[],"stateMutability":"nonpayable"},{"type":"function","name":"executeTimelockWithdrawal","inputs":[{"name":"withdrawId","type":"bytes32","internalType":"bytes32"}],"outputs":[],"stateMutability":"nonpayable"},{"type":"function","name":"getDailyWithdrawn","inputs":[{"name":"token","type":"address","internalType":"address"}],"outputs":[{"name":"","type":"uint256","internalType":"uint256"}],"stateMutability":"view"},{"type":"function","name":"getRemainingDailyLimit","inputs":[{"name":"token","type":"address","internalType":"address"}],"outputs":[{"name":"","type":"uint256","internalType":"uint256"}],"stateMutability":"view"},{"type":"function","name":"getRemainingHotWalletLimit","inputs":[],"outputs":[{"name":"","type":"uint256","internalType":"uint256"}],"stateMutability":"view"},{"type":"function","name":"getRoleAdmin","inputs":[{"name":"role","type":"bytes32","internalType":"bytes32"}],"outputs":[{"name":"","type":"bytes32","internalType":"bytes32"}],"stateMutability":"view"},{"type":"function","name":"getUserStats","inputs":[{"name":"user","type":"address","internalType":"address"}],"outputs":[{"name":"deposited","type":"bool","internalType":"bool"},{"name":"totalIn","type":"uint256","internalType":"uint256"},{"name":"totalOut","type":"uint256","internalType":"uint256"},{"name":"withdrawalsThisWindow","type":"uint256","internalType":"uint256"}],"stateMutability":"view"},{"type":"function","name":"getVaultBalance","inputs":[{"name":"token","type":"address","internalType":"address"}],"outputs":[{"name":"","type":"uint256","internalType":"uint256"}],"stateMutability":"view"},{"type":"function","name":"globalHourlyWithdrawals","inputs":[{"name":"","type":"uint256","internalType":"uint256"}],"outputs":[{"name":"","type":"uint256","internalType":"uint256"}],"stateMutability":"view"},{"type":"function","name":"grantRole","inputs":[{"name":"role","type":"bytes32","internalType":"bytes32"},{"name":"account","type":"address","internalType":"address"}],"outputs":[],"stateMutability":"nonpayable"},{"type":"function","name":"hasDeposited","inputs":[{"name":"","type":"address","internalType":"address"}],"outputs":[{"name":"","type":"bool","internalType":"bool"}],"stateMutability":"view"},{"type":"function","name":"hasRole","inputs":[{"name":"role","type":"bytes32","internalType":"bytes32"},{"name":"account","type":"address","internalType":"address"}],"outputs":[{"name":"","type":"bool","internalType":"bool"}],"stateMutability":"view"},{"type":"function","name":"hotWalletDayStart","inputs":[],"outputs":[{"name":"","type":"uint256","internalType":"uint256"}],"stateMutability":"view"},{"type":"function","name":"hotWalletWithdrawnToday","inputs":[],"outputs":[{"name":"","type":"uint256","internalType":"uint256"}],"stateMutability":"view"},{"type":"function","name":"isAllowedToken","inputs":[{"name":"","type":"address","internalType":"address"}],"outputs":[{"name":"","type":"bool","internalType":"bool"}],"stateMutability":"view"},{"type":"function","name":"isCircuitBreakerActive","inputs":[],"outputs":[{"name":"","type":"bool","internalType":"bool"}],"stateMutability":"view"},{"type":"function","name":"lockBridgeInbox","inputs":[],"outputs":[],"stateMutability":"nonpayable"},{"type":"function","name":"merkleRootUpdatedAt","inputs":[],"outputs":[{"name":"","type":"uint256","internalType":"uint256"}],"stateMutability":"view"},{"type":"function","name":"paused","inputs":[],"outputs":[{"name":"","type":"bool","internalType":"bool"}],"stateMutability":"view"},{"type":"function","name":"pendingAdminOps","inputs":[{"name":"","type":"bytes32","internalType":"bytes32"}],"outputs":[{"name":"opHash","type":"bytes32","internalType":"bytes32"},{"name":"executeAfter","type":"uint256","internalType":"uint256"},{"name":"executed","type":"bool","internalType":"bool"}],"stateMutability":"view"},{"type":"function","name":"processedWithdrawIds","inputs":[{"name":"","type":"bytes32","internalType":"bytes32"}],"outputs":[{"name":"","type":"bool","internalType":"bool"}],"stateMutability":"view"},{"type":"function","name":"queueConfigUpdate","inputs":[{"name":"newConfig","type":"tuple","internalType":"struct SecureSpokeVaultV3.SecurityConfig","components":[{"name":"instantWithdrawalThreshold","type":"uint256","internalType":"uint256"},{"name":"timelockDelay","type":"uint256","internalType":"uint256"},{"name":"dailyLimitPerToken","type":"uint256","internalType":"uint256"},{"name":"userRateLimitWindow","type":"uint256","internalType":"uint256"},{"name":"userMaxWithdrawalsPerWindow","type":"uint256","internalType":"uint256"},{"name":"globalHourlyLimit","type":"uint256","internalType":"uint256"},{"name":"hotWalletLimit","type":"uint256","internalType":"uint256"},{"name":"adminTimelockDelay","type":"uint256","internalType":"uint256"},{"name":"requireCoSignerForLarge","type":"bool","internalType":"bool"},{"name":"requireMerkleProof","type":"bool","internalType":"bool"},{"name":"requireDepositHistory","type":"bool","internalType":"bool"},{"name":"circuitBreakerEnabled","type":"bool","internalType":"bool"}]}],"outputs":[{"name":"","type":"bytes32","internalType":"bytes32"}],"stateMutability":"nonpayable"},{"type":"function","name":"recordPassiveDeposit","inputs":[{"name":"user","type":"address","internalType":"address"},{"name":"amount","type":"uint256","internalType":"uint256"}],"outputs":[],"stateMutability":"nonpayable"},{"type":"function","name":"releaseToUser","inputs":[{"name":"user","type":"address","internalType":"address"},{"name":"token","type":"address","internalType":"address"},{"name":"amount","type":"uint256","internalType":"uint256"},{"name":"withdrawId","type":"bytes32","internalType":"bytes32"}],"outputs":[],"stateMutability":"nonpayable"},{"type":"function","name":"releaseToUser","inputs":[{"name":"user","type":"address","internalType":"address"},{"name":"token","type":"address","internalType":"address"},{"name":"amount","type":"uint256","internalType":"uint256"},{"name":"withdrawId","type":"bytes32","internalType":"bytes32"},{"name":"merkleProof","type":"bytes32[]","internalType":"bytes32[]"},{"name":"coSignerSig","type":"bytes","internalType":"bytes"}],"outputs":[],"stateMutability":"nonpayable"},{"type":"function","name":"removeAllowedToken","inputs":[{"name":"token","type":"address","internalType":"address"}],"outputs":[],"stateMutability":"nonpayable"},{"type":"function","name":"renounceRole","inputs":[{"name":"role","type":"bytes32","internalType":"bytes32"},{"name":"callerConfirmation","type":"address","internalType":"address"}],"outputs":[],"stateMutability":"nonpayable"},{"type":"function","name":"rescueTokens","inputs":[{"name":"token","type":"address","internalType":"address"},{"name":"amount","type":"uint256","internalType":"uint256"},{"name":"to","type":"address","internalType":"address"}],"outputs":[],"stateMutability":"nonpayable"},{"type":"function","name":"resetCircuitBreaker","inputs":[],"outputs":[],"stateMutability":"nonpayable"},{"type":"function","name":"revokeRole","inputs":[{"name":"role","type":"bytes32","internalType":"bytes32"},{"name":"account","type":"address","internalType":"address"}],"outputs":[],"stateMutability":"nonpayable"},{"type":"function","name":"setBridgeInbox","inputs":[{"name":"_inbox","type":"address","internalType":"address"}],"outputs":[],"stateMutability":"nonpayable"},{"type":"function","name":"supportsInterface","inputs":[{"name":"interfaceId","type":"bytes4","internalType":"bytes4"}],"outputs":[{"name":"","type":"bool","internalType":"bool"}],"stateMutability":"view"},{"type":"function","name":"timelockRequests","inputs":[{"name":"","type":"bytes32","internalType":"bytes32"}],"outputs":[{"name":"user","type":"address","internalType":"address"},{"name":"token","type":"address","internalType":"address"},{"name":"amount","type":"uint256","internalType":"uint256"},{"name":"executeAfter","type":"uint256","internalType":"uint256"},{"name":"executed","type":"bool","internalType":"bool"},{"name":"cancelled","type":"bool","internalType":"bool"},{"name":"merkleProof","type":"bytes32","internalType":"bytes32"}],"stateMutability":"view"},{"type":"function","name":"totalDeposited","inputs":[{"name":"","type":"address","internalType":"address"}],"outputs":[{"name":"","type":"uint256","internalType":"uint256"}],"stateMutability":"view"},{"type":"function","name":"totalWithdrawn","inputs":[{"name":"","type":"address","internalType":"address"}],"outputs":[{"name":"","type":"uint256","internalType":"uint256"}],"stateMutability":"view"},{"type":"function","name":"unpause","inputs":[],"outputs":[],"stateMutability":"nonpayable"},{"type":"function","name":"updateMerkleRoot","inputs":[{"name":"_newRoot","type":"bytes32","internalType":"bytes32"}],"outputs":[],"stateMutability":"nonpayable"},{"type":"function","name":"userWithdrawalCount","inputs":[{"name":"","type":"address","internalType":"address"},{"name":"","type":"uint256","internalType":"uint256"}],"outputs":[{"name":"","type":"uint256","internalType":"uint256"}],"stateMutability":"view"},{"type":"function","name":"withdrawalMerkleRoot","inputs":[],"outputs":[{"name":"","type":"bytes32","internalType":"bytes32"}],"stateMutability":"view"},{"type":"function","name":"withdrawalNonce","inputs":[],"outputs":[{"name":"","type":"uint256","internalType":"uint256"}],"stateMutability":"view"},{"type":"event","name":"AdminOpExecuted","inputs":[{"name":"opHash","type":"bytes32","indexed":true,"internalType":"bytes32"}],"anonymous":false},{"type":"event","name":"AdminOpQueued","inputs":[{"name":"opHash","type":"bytes32","indexed":true,"internalType":"bytes32"},{"name":"executeAfter","type":"uint256","indexed":false,"internalType":"uint256"}],"anonymous":false},{"type":"event","name":"AllowedTokenUpdated","inputs":[{"name":"token","type":"address","indexed":true,"internalType":"address"},{"name":"allowed","type":"bool","indexed":false,"internalType":"bool"}],"anonymous":false},{"type":"event","name":"BridgeInboxLocked","inputs":[{"name":"inbox","type":"address","indexed":true,"internalType":"address"}],"anonymous":false},{"type":"event","name":"BridgeInboxSet","inputs":[{"name":"inbox","type":"address","indexed":true,"internalType":"address"}],"anonymous":false},{"type":"event","name":"CircuitBreakerReset","inputs":[{"name":"admin","type":"address","indexed":true,"internalType":"address"}],"anonymous":false},{"type":"event","name":"CircuitBreakerTriggered","inputs":[{"name":"reason","type":"string","indexed":false,"internalType":"string"},{"name":"timestamp","type":"uint256","indexed":false,"internalType":"uint256"}],"anonymous":false},{"type":"event","name":"CoSignerApproval","inputs":[{"name":"withdrawId","type":"bytes32","indexed":true,"internalType":"bytes32"},{"name":"coSigner","type":"address","indexed":true,"internalType":"address"}],"anonymous":false},{"type":"event","name":"ColdWithdrawal","inputs":[{"name":"token","type":"address","indexed":true,"internalType":"address"},{"name":"amount","type":"uint256","indexed":false,"internalType":"uint256"},{"name":"to","type":"address","indexed":true,"internalType":"address"}],"anonymous":false},{"type":"event","name":"Deposited","inputs":[{"name":"payer","type":"address","indexed":true,"internalType":"address"},{"name":"token","type":"address","indexed":true,"internalType":"address"},{"name":"amount","type":"uint256","indexed":false,"internalType":"uint256"}],"anonymous":false},{"type":"event","name":"MerkleRootUpdated","inputs":[{"name":"newRoot","type":"bytes32","indexed":true,"internalType":"bytes32"},{"name":"timestamp","type":"uint256","indexed":false,"internalType":"uint256"}],"anonymous":false},{"type":"event","name":"Paused","inputs":[{"name":"account","type":"address","indexed":false,"internalType":"address"}],"anonymous":false},{"type":"event","name":"Released","inputs":[{"name":"user","type":"address","indexed":true,"internalType":"address"},{"name":"amount","type":"uint256","indexed":false,"internalType":"uint256"},{"name":"withdrawId","type":"bytes32","indexed":true,"internalType":"bytes32"}],"anonymous":false},{"type":"event","name":"RoleAdminChanged","inputs":[{"name":"role","type":"bytes32","indexed":true,"internalType":"bytes32"},{"name":"previousAdminRole","type":"bytes32","indexed":true,"internalType":"bytes32"},{"name":"newAdminRole","type":"bytes32","indexed":true,"internalType":"bytes32"}],"anonymous":false},{"type":"event","name":"RoleGranted","inputs":[{"name":"role","type":"bytes32","indexed":true,"internalType":"bytes32"},{"name":"account","type":"address","indexed":true,"internalType":"address"},{"name":"sender","type":"address","indexed":true,"internalType":"address"}],"anonymous":false},{"type":"event","name":"RoleRevoked","inputs":[{"name":"role","type":"bytes32","indexed":true,"internalType":"bytes32"},{"name":"account","type":"address","indexed":true,"internalType":"address"},{"name":"sender","type":"address","indexed":true,"internalType":"address"}],"anonymous":false},{"type":"event","name":"Unpaused","inputs":[{"name":"account","type":"address","indexed":false,"internalType":"address"}],"anonymous":false},{"type":"event","name":"WithdrawalCancelled","inputs":[{"name":"withdrawId","type":"bytes32","indexed":true,"internalType":"bytes32"},{"name":"cancelledBy","type":"address","indexed":true,"internalType":"address"}],"anonymous":false},{"type":"event","name":"WithdrawalExecuted","inputs":[{"name":"withdrawId","type":"bytes32","indexed":true,"internalType":"bytes32"},{"name":"user","type":"address","indexed":true,"internalType":"address"},{"name":"amount","type":"uint256","indexed":false,"internalType":"uint256"}],"anonymous":false},{"type":"event","name":"WithdrawalQueued","inputs":[{"name":"withdrawId","type":"bytes32","indexed":true,"internalType":"bytes32"},{"name":"user","type":"address","indexed":true,"internalType":"address"},{"name":"token","type":"address","indexed":false,"internalType":"address"},{"name":"amount","type":"uint256","indexed":false,"internalType":"uint256"},{"name":"executeAfter","type":"uint256","indexed":false,"internalType":"uint256"}],"anonymous":false},{"type":"error","name":"AccessControlBadConfirmation","inputs":[]},{"type":"error","name":"AccessControlUnauthorizedAccount","inputs":[{"name":"account","type":"address","internalType":"address"},{"name":"neededRole","type":"bytes32","internalType":"bytes32"}]},{"type":"error","name":"AdminOpNotFound","inputs":[]},{"type":"error","name":"AdminTimelockNotReady","inputs":[]},{"type":"error","name":"BridgeInboxAlreadyLocked","inputs":[]},{"type":"error","name":"BridgeInboxNotSet","inputs":[]},{"type":"error","name":"CircuitBreakerActive","inputs":[]},{"type":"error","name":"DailyLimitExceeded","inputs":[]},{"type":"error","name":"ECDSAInvalidSignature","inputs":[]},{"type":"error","name":"ECDSAInvalidSignatureLength","inputs":[{"name":"length","type":"uint256","internalType":"uint256"}]},{"type":"error","name":"ECDSAInvalidSignatureS","inputs":[{"name":"s","type":"bytes32","internalType":"bytes32"}]},{"type":"error","name":"EnforcedPause","inputs":[]},{"type":"error","name":"ExpectedPause","inputs":[]},{"type":"error","name":"GlobalHourlyLimitExceeded","inputs":[]},{"type":"error","name":"HotWalletLimitExceeded","inputs":[]},{"type":"error","name":"InsufficientBalance","inputs":[]},{"type":"error","name":"InvalidAmount","inputs":[]},{"type":"error","name":"InvalidCoSignerSignature","inputs":[]},{"type":"error","name":"InvalidMerkleProof","inputs":[]},{"type":"error","name":"NotWhitelisted","inputs":[]},{"type":"error","name":"ReentrancyGuardReentrantCall","inputs":[]},{"type":"error","name":"TimelockAlreadyExecuted","inputs":[]},{"type":"error","name":"TimelockCancelled","inputs":[]},{"type":"error","name":"TimelockDoesNotExist","inputs":[]},{"type":"error","name":"TimelockNotReady","inputs":[]},{"type":"error","name":"TokenNotAllowed","inputs":[]},{"type":"error","name":"UserRateLimitExceeded","inputs":[]},{"type":"error","name":"WithdrawAlreadyProcessed","inputs":[]},{"type":"error","name":"ZeroAddress","inputs":[]}],"bytecode":{"object":"0x608060405234801562000010575f80fd5b5060405162003927380380620039278339810160408190526200003391620004ba565b60017f9b779b17422d0df92223018b32b4d1fa46e071723d6817e2486d003becc55f00556001600160a01b0383166200007f5760405163d92e233d60e01b815260040160405180910390fd5b6001600160a01b038216620000a75760405163d92e233d60e01b815260040160405180910390fd5b8051600255602081015160035560408101516004556060810151600555608081015160065560a081015160075560c081015160085560e081015160095561010080820151600a8054610120850151610140860151610160870151151563010000000263ff0000001991151562010000029190911663ffff00001992151590960261ff00199515159590951661ffff19909316929092179390931792909216929092171790555f5b8451811015620001f6575f8582815181106200016e576200016e620005a8565b602002602001015190505f6001600160a01b0316816001600160a01b031614620001ec576001600160a01b0381165f818152600b6020908152604091829020805460ff1916600190811790915591519182527f3a7d4b919c66e25bb96b646b1fa5df47aca5411773bfe1829fc8e86ab7006e6a910160405180910390a25b506001016200014e565b50620002035f84620002b1565b50620002307f7edcee67725a77bfa311b39349d7e96df9b23fbdbdcb328dfc17d77926920c1384620002b1565b506200024b5f805160206200390783398151915283620002b1565b50620002665f805160206200390783398151915284620002b1565b50620002937f7028dfc3b970dfc781c636dcd8e777145c33c33403a0f40e1c527fd6947d72c484620002b1565b50620002a36201518042620005bc565b601b5550620005dc92505050565b5f828152602081815260408083206001600160a01b038516845290915281205460ff1662000354575f838152602081815260408083206001600160a01b03861684529091529020805460ff191660011790556200030b3390565b6001600160a01b0316826001600160a01b0316847f2f8788117e7eff1d82e926ec794901d17c78024a50270940304540a733656f0d60405160405180910390a450600162000357565b505f5b92915050565b634e487b7160e01b5f52604160045260245ffd5b60405161018081016001600160401b03811182821017156200039757620003976200035d565b60405290565b604051601f8201601f191681016001600160401b0381118282101715620003c857620003c86200035d565b604052919050565b80516001600160a01b0381168114620003e7575f80fd5b919050565b80518015158114620003e7575f80fd5b5f61018082840312156200040e575f80fd5b6200041862000371565b9050815181526020820151602082015260408201516040820152606082015160608201526080820151608082015260a082015160a082015260c082015160c082015260e082015160e082015261010062000474818401620003ec565b9082015261012062000488838201620003ec565b908201526101406200049c838201620003ec565b90820152610160620004b0838201620003ec565b9082015292915050565b5f805f806101e08587031215620004cf575f80fd5b84516001600160401b0380821115620004e6575f80fd5b818701915087601f830112620004fa575f80fd5b81516020828211156200051157620005116200035d565b8160051b9250620005248184016200039d565b828152928401810192818101908b8511156200053e575f80fd5b948201945b8486101562000567576200055786620003d0565b8252948201949082019062000543565b9850620005789050898201620003d0565b9650505050506200058c60408601620003d0565b91506200059d8660608701620003fc565b905092959194509250565b634e487b7160e01b5f52603260045260245ffd5b5f82620005d757634e487b7160e01b5f52601260045260245ffd5b500490565b61331d80620005ea5f395ff3fe608060405234801561000f575f80fd5b5060043610610388575f3560e01c806379502c55116101df578063bc0b0d7d11610109578063d70ed8e0116100a9578063e8e3de2111610079578063e8e3de21146109af578063ec37d259146109b7578063efbbadb8146109ca578063f2c16e6f146109ec575f80fd5b8063d70ed8e01461096e578063d8b4b90c14610981578063d8e6489214610994578063de5f8d93146109a7575f80fd5b8063cf5b4fd5116100e4578063cf5b4fd51461090b578063d0caf2011461091e578063d3d7c00214610948578063d547741f1461095b575f80fd5b8063bc0b0d7d146108cd578063cbe230c3146108d6578063cc364937146108f8575f80fd5b80639ca9a4841161017f578063a73836821161014f578063a738368214610874578063b191600714610893578063b37fd190146108a7578063b6722b75146108ba575f80fd5b80639ca9a484146108165780639e3411191461083d578063a217fddf14610864578063a33cd4181461086b575f80fd5b806390469a9d116101ba57806390469a9d146107ca57806391d14854146107dd57806397dfec4f146107f05780639b4ce6fc14610803575f80fd5b806379502c55146107045780637ad90792146107ae5780637b259db4146107c1575f80fd5b806336568abe116102c057806347e7ef24116102605780635c975abb116102305780635c975abb146105e457806365c28318146105ef5780636a38e0101461063d5780636bb12be8146106dd575f80fd5b806347e7ef24146105745780634e43603a146105875780634f84d91a146105bc57806353055481146105c5575f80fd5b80634178617f1161029b5780634178617f1461050f57806342c7b81a146105225780634634d701146105365780634783f0ef14610561575f80fd5b806336568abe146104eb5780633ec2c3f6146104fe5780633f4ba83a14610507575f80fd5b80632446ec681161032b578063269938611161030657806326993861146104935780632aa8eca1146104bd5780632f2ff15d146104d057806332941ecb146104e3575f80fd5b80632446ec6814610437578063248a9ca31461044a57806324ea54f41461046c575f80fd5b806315a93f651161036657806315a93f65146103f65780631cc1a74a146103fe5780631f059bb614610407578063240e38cc14610410575f80fd5b806301ffc9a71461038c5780630307e224146103b45780630a64143a146103c9575b5f80fd5b61039f61039a366004612b9e565b610a0e565b60405190151581526020015b60405180910390f35b6103c76103c2366004612be0565b610a44565b005b6103e86103d7366004612c1f565b60156020525f908152604090205481565b6040519081526020016103ab565b6103c7610b39565b6103e860185481565b6103e8601b5481565b6103e87f7028dfc3b970dfc781c636dcd8e777145c33c33403a0f40e1c527fd6947d72c481565b6103e8610445366004612c4f565b610be3565b6103e8610458366004612c6a565b5f9081526020819052604090206001015490565b6103e87f55435dd261a4b9b3364963f7738a7a662ad9c84396d64be3365284bb7f0a504181565b6103e86104a1366004612c81565b600e60209081525f928352604080842090915290825290205481565b6103c76104cb366004612ca9565b610cbe565b6103c76104de366004612cf1565b610d2f565b61039f610d53565b6103c76104f9366004612cf1565b610d8f565b6103e8610e1081565b6103c7610dc7565b6103c761051d366004612c1f565b610ddc565b60125461039f90600160a01b900460ff1681565b601254610549906001600160a01b031681565b6040516001600160a01b0390911681526020016103ab565b6103c761056f366004612c6a565b610e8b565b6103c7610582366004612c81565b610ef2565b61059a610595366004612c1f565b610f28565b60408051941515855260208501939093529183015260608201526080016103ab565b6103e860175481565b6103e86105d3366004612c1f565b60146020525f908152604090205481565b60015460ff1661039f565b6106206105fd366004612c6a565b60196020525f908152604090208054600182015460029092015490919060ff1683565b6040805193845260208401929092521515908201526060016103ab565b61069961064b366004612c6a565b60116020525f90815260409020805460018201546002830154600384015460048501546005909501546001600160a01b039485169593909416939192909160ff808316926101009004169087565b604080516001600160a01b03988916815297909616602088015294860193909352606085019190915215156080840152151560a083015260c082015260e0016103ab565b6103e87f499ef392a692a8fecb9258c0338d17f3760d3958cd1e8573548889ceba4b20eb81565b600254600354600454600554600654600754600854600954600a5461074d98979695949392919060ff80821691610100810482169162010000820481169163010000009004168c565b604080519c8d5260208d019b909b52998b019890985260608a0196909652608089019490945260a088019290925260c087015260e08601521515610100850152151561012084015215156101408301521515610160820152610180016103ab565b6103c76107bc366004612d60565b610f8f565b6103e860105481565b6103c76107d8366004612c1f565b61130a565b61039f6107eb366004612cf1565b611382565b6103c76107fe366004612c81565b6113aa565b6103c7610811366004612c1f565b6114bb565b6103e87fc5c52782746a634545a03b37bb54ea3cf9e063b39829cadf77fae5469585dc0b81565b6103e87f7edcee67725a77bfa311b39349d7e96df9b23fbdbdcb328dfc17d77926920c1381565b6103e85f81565b6103e8601a5481565b6103e8610882366004612c6a565b600f6020525f908152604090205481565b6103e85f805160206132a883398151915281565b6103c76108b5366004612e2b565b6115b8565b6103e86108c8366004612c1f565b6116a7565b6103e860165481565b61039f6108e4366004612c1f565b600b6020525f908152604090205460ff1681565b6103c7610906366004612e2b565b6116e1565b6103c7610919366004612e64565b61185d565b6103e861092c366004612c81565b600d60209081525f928352604080842090915290825290205481565b6103e8610956366004612c1f565b61188f565b6103c7610969366004612cf1565b6118f7565b6103c761097c366004612c6a565b61191b565b6103c761098f366004612ea3565b6119df565b6103c76109a2366004612c6a565b611b30565b6103c7611db9565b6103e8611df4565b6103e86109c5366004612c1f565b611e42565b61039f6109d8366004612c6a565b600c6020525f908152604090205460ff1681565b61039f6109fa366004612c1f565b60136020525f908152604090205460ff1681565b5f6001600160e01b03198216637965db0b60e01b1480610a3e57506301ffc9a760e01b6001600160e01b03198316145b92915050565b610a4c611ea1565b610a54611ebc565b600a546301000000900460ff168015610a6e57505f601854115b15610aa657610e10601854610a839190612eda565b421015610aa657604051600162fc891960e01b0319815260040160405180910390fd5b5f805160206132a8833981519152610abd81611ee2565b604080515f81526020810191829052633d6c83c960e11b90915230637ad90792610aee888888888760248101612eed565b5f604051808303815f87803b158015610b05575f80fd5b505af1158015610b17573d5f803e3d5ffd5b505050505050610b3360015f805160206132c883398151915255565b50505050565b5f610b4381611ee2565b6012546001600160a01b0316610b6c5760405163dfc6154960e01b815260040160405180910390fd5b601254600160a01b900460ff1615610b97576040516308edb71560e21b815260040160405180910390fd5b6012805460ff60a01b198116600160a01b179091556040516001600160a01b03909116907fced51ca7dbeb98259c530427774573c48f50421c2bab31b76b4bcde082748b65905f90a250565b5f80610bee81611ee2565b5f8342604051602001610c02929190612f86565b60408051601f19818403018152828252805160209182012060608401909252818352600954919350820190610c379042612eda565b81525f6020918201819052838152601982526040908190208351815591830151600183015591909101516002909101805460ff191691151591909117905560095481907f59e2f2c32dbbc422b4581ce50a7c2037b8d07d6613813ea9744d4ad6aa5d8fc290610ca69042612eda565b60405190815260200160405180910390a29392505050565b610cc6611ea1565b610cce611ebc565b5f805160206132a8833981519152610ce581611ee2565b6001600160a01b038516610d0c5760405163d92e233d60e01b815260040160405180910390fd5b610d1885858585611eec565b50610b3360015f805160206132c883398151915255565b5f82815260208190526040902060010154610d4981611ee2565b610b3383836120bf565b600a545f906301000000900460ff161580610d6e5750601854155b15610d7857505f90565b610e10601854610d889190612eda565b4210905090565b6001600160a01b0381163314610db85760405163334bd91960e11b815260040160405180910390fd5b610dc2828261214e565b505050565b5f610dd181611ee2565b610dd96121b7565b50565b7f7edcee67725a77bfa311b39349d7e96df9b23fbdbdcb328dfc17d77926920c13610e0681611ee2565b6001600160a01b038216610e2d5760405163d92e233d60e01b815260040160405180910390fd5b6001600160a01b0382165f818152600b6020908152604091829020805460ff1916600190811790915591519182527f3a7d4b919c66e25bb96b646b1fa5df47aca5411773bfe1829fc8e86ab7006e6a91015b60405180910390a25050565b7f7028dfc3b970dfc781c636dcd8e777145c33c33403a0f40e1c527fd6947d72c4610eb581611ee2565b601682905542601781905560405190815282907fecb6e184c8c1ff50ab199b30650a76b7eb56fe2f261becc6284e0a3a1707be4890602001610e7f565b610efa611ea1565b610f02611ebc565b610f0e33338484611eec565b610f2460015f805160206132c883398151915255565b5050565b5f805f805f60026003015442610f3e9190613086565b6001600160a01b03969096165f9081526013602090815260408083205460148352818420546015845282852054600e85528386209b86529a90935292205460ff909216989097965090945092505050565b610f97611ea1565b610f9f611ebc565b600a546301000000900460ff168015610fb957505f601854115b15610ff157610e10601854610fce9190612eda565b421015610ff157604051600162fc891960e01b0319815260040160405180910390fd5b5f805160206132a883398151915261100881611ee2565b6001600160a01b03891661102f5760405163d92e233d60e01b815260040160405180910390fd5b865f0361104f5760405163162908e360e11b815260040160405180910390fd5b6001600160a01b0388165f908152600b602052604090205460ff166110875760405163514e24c360e11b815260040160405180910390fd5b5f868152600c602052604090205460ff16156110b65760405163762f82e160e01b815260040160405180910390fd5b600a5462010000900460ff1680156110e657506001600160a01b0389165f9081526013602052604090205460ff16155b1561110457604051630b094f2760e31b815260040160405180910390fd5b600a54610100900460ff16801561111c575060165415155b156111d1576040516bffffffffffffffffffffffff1960608b811b821660208401528a901b16603482015260488101889052606881018790525f906088016040516020818303038152906040528051906020012090506111b28686808060200260200160405190810160405280939291908181526020018383602002808284375f92019190915250506016549150849050612209565b6111cf5760405163582f497d60e11b815260040160405180910390fd5b505b600a5460ff1680156111e557506002548710155b156111f8576111f889898989878761221e565b6040516370a0823160e01b81523060048201525f906001600160a01b038a16906370a0823190602401602060405180830381865afa15801561123c573d5f803e3d5ffd5b505050506040513d601f19601f8201168201806040525081019061126091906130a5565b90508781101561128357604051631e9acf1760e31b815260040160405180910390fd5b61128e8a8a8a612374565b61129788612558565b5f878152600c60205260408120805460ff1916600117905560108054916112bd836130bc565b909155505060025488106112dc576112d78a8a8a8a6125f6565b6112e8565b6112e88a8a8a8a612728565b505061130060015f805160206132c883398151915255565b5050505050505050565b7f7edcee67725a77bfa311b39349d7e96df9b23fbdbdcb328dfc17d77926920c1361133481611ee2565b6001600160a01b0382165f818152600b60209081526040808320805460ff19169055519182527f3a7d4b919c66e25bb96b646b1fa5df47aca5411773bfe1829fc8e86ab7006e6a9101610e7f565b5f918252602082815260408084206001600160a01b0393909316845291905290205460ff1690565b5f805160206132a88339815191526113c181611ee2565b6001600160a01b0383166113e85760405163d92e233d60e01b815260040160405180910390fd5b815f036114085760405163162908e360e11b815260040160405180910390fd5b6001600160a01b0383165f9081526013602052604090205460ff1661144a576001600160a01b0383165f908152601360205260409020805460ff191660011790555b6001600160a01b0383165f9081526014602052604081208054849290611471908490612eda565b90915550506040518281525f906001600160a01b038516907f8752a472e571a816aea92eec8dae9baf628e840f4929fbcc2d155e6233ff68a79060200160405180910390a3505050565b5f6114c581611ee2565b601254600160a01b900460ff16156114f0576040516308edb71560e21b815260040160405180910390fd5b6001600160a01b0382166115175760405163d92e233d60e01b815260040160405180910390fd5b6012546001600160a01b03161561154e5760125461154c905f805160206132a8833981519152906001600160a01b031661214e565b505b601280546001600160a01b0319166001600160a01b0384161790556115805f805160206132a8833981519152836120bf565b506040516001600160a01b038316907f4562b2a96ea9cc1f88cf1049c12a4b1cfba0a1f7cd918312be4f37ca5414f9aa905f90a25050565b5f6115c281611ee2565b6001600160a01b0384165f908152600b602052604090205460ff161561161b5760405162461bcd60e51b81526020600482015260096024820152681c1c9bdd1958dd195960ba1b60448201526064015b60405180910390fd5b60405163a9059cbb60e01b81526001600160a01b0383811660048301526024820185905285169063a9059cbb906044016020604051808303815f875af1158015611667573d5f803e3d5ffd5b505050506040513d601f19601f8201168201806040525081019061168b91906130d4565b610b335760405162461bcd60e51b8152600401611612906130ef565b6001600160a01b0381165f908152600d60205260408120816116cc6201518042613086565b81526020019081526020015f20549050919050565b7f499ef392a692a8fecb9258c0338d17f3760d3958cd1e8573548889ceba4b20eb61170b81611ee2565b611713611ea1565b6001600160a01b0384165f908152600b602052604090205460ff1661176e5760405162461bcd60e51b81526020600482015260116024820152701d1bdad95b881b9bdd08185b1b1bddd959607a1b6044820152606401611612565b60405163a9059cbb60e01b81526001600160a01b0383811660048301526024820185905285169063a9059cbb906044016020604051808303815f875af11580156117ba573d5f803e3d5ffd5b505050506040513d601f19601f820116820180604052508101906117de91906130d4565b6117fa5760405162461bcd60e51b8152600401611612906130ef565b816001600160a01b0316846001600160a01b03167f673c8267d5010a28d2efc9f4834171140ecd6b8c4de89c6a345393434134a2d28560405161183f91815260200190565b60405180910390a3610b3360015f805160206132c883398151915255565b7f55435dd261a4b9b3364963f7738a7a662ad9c84396d64be3365284bb7f0a504161188781611ee2565b610dc261281c565b6040516370a0823160e01b81523060048201525f906001600160a01b038316906370a0823190602401602060405180830381865afa1580156118d3573d5f803e3d5ffd5b505050506040513d601f19601f82011682018060405250810190610a3e91906130a5565b5f8281526020819052604090206001015461191181611ee2565b610b33838361214e565b7f55435dd261a4b9b3364963f7738a7a662ad9c84396d64be3365284bb7f0a504161194581611ee2565b5f828152601160205260408120600381015490910361197757604051634b9aaa0960e11b815260040160405180910390fd5b600481015460ff161561199d5760405163f6432eb160e01b815260040160405180910390fd5b60048101805461ff001916610100179055604051339084907f9563b147ba38a395a14cca326c938ad69838052379ade073982c21fcdff7b321905f90a3505050565b5f6119e981611ee2565b5f8381526019602052604090208054611a15576040516364fabaa360e11b815260040160405180910390fd5b600281015460ff1615611a3b5760405163f6432eb160e01b815260040160405180910390fd5b8060010154421015611a60576040516374f514c160e11b815260040160405180910390fd5b5f836002600701548360010154611a779190613118565b604051602001611a88929190612f86565b604051602081830303815290604052805190602001209050848114611ae15760405162461bcd60e51b815260206004820152600f60248201526e0c6dedcccd2ce40dad2e6dac2e8c6d608b1b6044820152606401611612565b6002808301805460ff191660011790558490611afd8282613137565b505060405185907f25c26834589ac207ad4aff5d65a0db5c206225119a5fad98238377828b25e138905f90a25050505050565b611b38611ea1565b611b40611ebc565b600a546301000000900460ff168015611b5a57505f601854115b15611b9257610e10601854611b6f9190612eda565b421015611b9257604051600162fc891960e01b0319815260040160405180910390fd5b5f8181526011602052604081206003810154909103611bc457604051634b9aaa0960e11b815260040160405180910390fd5b600481015460ff1615611bea5760405163f6432eb160e01b815260040160405180910390fd5b6004810154610100900460ff1615611c155760405163e073c8e560e01b815260040160405180910390fd5b8060030154421015611c3a57604051637378c19d60e01b815260040160405180910390fd5b60048101805460ff19166001179055600281015481546001600160a01b03165f9081526015602052604081208054909190611c76908490612eda565b909155505060018101548154600283015460405163a9059cbb60e01b81526001600160a01b039283166004820152602481019190915291169063a9059cbb906044016020604051808303815f875af1158015611cd4573d5f803e3d5ffd5b505050506040513d601f19601f82011682018060405250810190611cf891906130d4565b611d145760405162461bcd60e51b8152600401611612906130ef565b805460028201546040519081526001600160a01b039091169083907f9b500c765f0aa508908d3e165168183a5cef5acd68573acc126ce58c80ac6b3c9060200160405180910390a38054600282015460405190815283916001600160a01b0316907ffe4ecfae64ce6e6dce8107654eb7addc328974688a72c24516a7352c21040e4b9060200160405180910390a350610dd960015f805160206132c883398151915255565b5f611dc381611ee2565b5f601881905560405133917f07663ee3f7c1099057fc9fc555efb675b77fe234386ec977b12f15d5f24fd03091a250565b5f80611e036201518042613086565b90505f601b548211611e1757601a54611e19565b5f5b600854909150811015611e3957600854611e34908290613118565b611e3b565b5f5b9250505090565b6001600160a01b0381165f908152600d60205260408120819081611e696201518042613086565b81526020019081526020015f205490506002800154811015611e9857600454611e93908290613118565b611e9a565b5f5b9392505050565b611ea9612857565b60025f805160206132c883398151915255565b60015460ff1615611ee05760405163d93c066560e01b815260040160405180910390fd5b565b610dd98133612886565b6001600160a01b0382165f908152600b602052604090205460ff16611f245760405163514e24c360e11b815260040160405180910390fd5b805f03611f445760405163162908e360e11b815260040160405180910390fd5b6040516323b872dd60e01b81526001600160a01b038481166004830152306024830152604482018390528316906323b872dd906064016020604051808303815f875af1158015611f96573d5f803e3d5ffd5b505050506040513d601f19601f82011682018060405250810190611fba91906130d4565b611ffc5760405162461bcd60e51b81526020600482015260136024820152721d1c985b9cd9995c919c9bdb4819985a5b1959606a1b6044820152606401611612565b6001600160a01b0384165f9081526013602052604090205460ff1661203e576001600160a01b0384165f908152601360205260409020805460ff191660011790555b6001600160a01b0384165f9081526014602052604081208054839290612065908490612eda565b92505081905550816001600160a01b0316846001600160a01b03167f8752a472e571a816aea92eec8dae9baf628e840f4929fbcc2d155e6233ff68a7836040516120b191815260200190565b60405180910390a350505050565b5f6120ca8383611382565b612147575f838152602081815260408083206001600160a01b03861684529091529020805460ff191660011790556120ff3390565b6001600160a01b0316826001600160a01b0316847f2f8788117e7eff1d82e926ec794901d17c78024a50270940304540a733656f0d60405160405180910390a4506001610a3e565b505f610a3e565b5f6121598383611382565b15612147575f838152602081815260408083206001600160a01b0386168085529252808320805460ff1916905551339286917ff6391f5c32d9c69d2a47ea670b442974b53935d1edc7fd64eb21e047a839171b9190a4506001610a3e565b6121bf6128bf565b6001805460ff191690557f5db9ee0a495bf2e6ff9c91a7834c1ba4fdd244a5e8aa4e537bd38aeae4b073aa335b6040516001600160a01b03909116815260200160405180910390a1565b5f8261221585846128e2565b14949350505050565b5f81900361223f5760405163213600ff60e21b815260040160405180910390fd5b6040516bffffffffffffffffffffffff19606088811b8216602084015287811b82166034840152604883018790526068830186905246608884015230901b1660a88201525f9060bc0160408051601f198184030181529082905280516020918201207f19457468657265756d205369676e6564204d6573736167653a0a33320000000091830191909152603c820152605c016040516020818303038152906040528051906020012090505f61232b84848080601f0160208091040260200160405190810160405280939291908181526020018383808284375f9201919091525086939250506129249050565b90506123577fc5c52782746a634545a03b37bb54ea3cf9e063b39829cadf77fae5469585dc0b82611382565b6113005760405163213600ff60e21b815260040160405180910390fd5b5f6123826201518042613086565b90505f612391610e1042613086565b6005549091505f906123a39042613086565b6001600160a01b0386165f908152600d60209081526040808320878452909152812054919250906123d5908690612eda565b600454909150811115612430576124176040518060400160405280601481526020017311185a5b1e481b1a5b5a5d08195e18d95959195960621b81525061294c565b604051630652f4c560e21b815260040160405180910390fd5b6001600160a01b0387165f908152600e60209081526040808320858452909152902054600654811061247557604051635494859760e11b815260040160405180910390fd5b5f848152600f602052604081205461248e908890612eda565b6007549091508111156124f2576124d96040518060400160405280601c81526020017f476c6f62616c20686f75726c79206c696d69742065786365656465640000000081525061294c565b6040516304a16df760e01b815260040160405180910390fd5b6001600160a01b038089165f908152600d602090815260408083208a84528252808320879055928c168252600e81528282208783529052908120805491612538836130bc565b90915550505f948552600f60205260409094209390935550505050505050565b5f6125666201518042613086565b9050601b5481111561257c575f601a55601b8190555b5f82601a5461258b9190612eda565b6008549091508111156125ef576125d66040518060400160405280601981526020017f486f742077616c6c6574206c696d69742065786365656465640000000000000081525061294c565b60405163ad8813cb60e01b815260040160405180910390fd5b601a555050565b6003545f906126059042612eda565b6040805160e0810182526001600160a01b0380891680835288821660208085019182528486018a8152606086018881525f6080880181815260a0890182815260c08a018381528e84526011909652918a9020985189549089166001600160a01b0319918216178a55955160018a01805491909916961695909517909655905160028701555160038601559051600485018054945115156101000261ff00199215159290921661ffff199095169490941717909255905160059092019190915590519192509083907f8af957e6f2e70d85dd422d0099e9337d71fb1e41f1b2b14529032a4f25338a3d90612719908890889087906001600160a01b039390931683526020830191909152604082015260600190565b60405180910390a35050505050565b6001600160a01b0384165f908152601560205260408120805484929061274f908490612eda565b909155505060405163a9059cbb60e01b81526001600160a01b0385811660048301526024820184905284169063a9059cbb906044016020604051808303815f875af11580156127a0573d5f803e3d5ffd5b505050506040513d601f19601f820116820180604052508101906127c491906130d4565b6127e05760405162461bcd60e51b8152600401611612906130ef565b80846001600160a01b03167ffe4ecfae64ce6e6dce8107654eb7addc328974688a72c24516a7352c21040e4b846040516120b191815260200190565b612824611ebc565b6001805460ff1916811790557f62e78cea01bee320cd4e420270b5ea74000d11b0c9f74754ebdbfc544b05a258336121ec565b5f805160206132c883398151915254600203611ee057604051633ee5aeb560e01b815260040160405180910390fd5b6128908282611382565b610f245760405163e2517d3f60e01b81526001600160a01b038216600482015260248101839052604401611612565b60015460ff16611ee057604051638dfc202b60e01b815260040160405180910390fd5b5f81815b845181101561291c57612912828683815181106129055761290561322d565b60200260200101516129ac565b91506001016128e6565b509392505050565b5f805f8061293286866129d5565b9250925092506129428282612a1e565b5090949350505050565b600a546301000000900460ff1680156129655750601854155b15610dd9574260188190556040517f9a67283e259b60ad992613fe36fe808ce9a65fc69b7893a856fbe5f926f25184916129a191849190613241565b60405180910390a150565b5f8183106129c6575f828152602084905260409020611e9a565b505f9182526020526040902090565b5f805f8351604103612a0c576020840151604085015160608601515f1a6129fe88828585612ad6565b955095509550505050612a17565b505081515f91506002905b9250925092565b5f826003811115612a3157612a31613293565b03612a3a575050565b6001826003811115612a4e57612a4e613293565b03612a6c5760405163f645eedf60e01b815260040160405180910390fd5b6002826003811115612a8057612a80613293565b03612aa15760405163fce698f760e01b815260048101829052602401611612565b6003826003811115612ab557612ab5613293565b03610f24576040516335e2f38360e21b815260048101829052602401611612565b5f80807f7fffffffffffffffffffffffffffffff5d576e7357a4501ddfe92f46681b20a0841115612b0f57505f91506003905082612b94565b604080515f808252602082018084528a905260ff891692820192909252606081018790526080810186905260019060a0016020604051602081039080840390855afa158015612b60573d5f803e3d5ffd5b5050604051601f1901519150506001600160a01b038116612b8b57505f925060019150829050612b94565b92505f91508190505b9450945094915050565b5f60208284031215612bae575f80fd5b81356001600160e01b031981168114611e9a575f80fd5b80356001600160a01b0381168114612bdb575f80fd5b919050565b5f805f8060808587031215612bf3575f80fd5b612bfc85612bc5565b9350612c0a60208601612bc5565b93969395505050506040820135916060013590565b5f60208284031215612c2f575f80fd5b611e9a82612bc5565b5f6101808284031215612c49575f80fd5b50919050565b5f6101808284031215612c60575f80fd5b611e9a8383612c38565b5f60208284031215612c7a575f80fd5b5035919050565b5f8060408385031215612c92575f80fd5b612c9b83612bc5565b946020939093013593505050565b5f805f8060808587031215612cbc575f80fd5b612cc585612bc5565b9350612cd360208601612bc5565b9250612ce160408601612bc5565b9396929550929360600135925050565b5f8060408385031215612d02575f80fd5b82359150612d1260208401612bc5565b90509250929050565b5f8083601f840112612d2b575f80fd5b50813567ffffffffffffffff811115612d42575f80fd5b602083019150836020828501011115612d59575f80fd5b9250929050565b5f805f805f805f8060c0898b031215612d77575f80fd5b612d8089612bc5565b9750612d8e60208a01612bc5565b96506040890135955060608901359450608089013567ffffffffffffffff80821115612db8575f80fd5b818b0191508b601f830112612dcb575f80fd5b813581811115612dd9575f80fd5b8c60208260051b8501011115612ded575f80fd5b6020830196508095505060a08b0135915080821115612e0a575f80fd5b50612e178b828c01612d1b565b999c989b5096995094979396929594505050565b5f805f60608486031215612e3d575f80fd5b612e4684612bc5565b925060208401359150612e5b60408501612bc5565b90509250925092565b5f8060208385031215612e75575f80fd5b823567ffffffffffffffff811115612e8b575f80fd5b612e9785828601612d1b565b90969095509350505050565b5f806101a08385031215612eb5575f80fd5b82359150612d128460208501612c38565b634e487b7160e01b5f52601160045260245ffd5b80820180821115610a3e57610a3e612ec6565b6001600160a01b0386811682528516602080830191909152604082018590526060820184905260c06080830181905283519083018190525f918481019160e085019190845b81811015612f4e57845184529382019392820192600101612f32565b50505083810360a08501525f815260208101925050509695505050505050565b8015158114610dd9575f80fd5b8035612bdb81612f6e565b5f6101c0808352600d81840152506c434f4e4649475f55504441544560981b6101e08301526102008201905083356020830152602084013560408301526040840135606083015260608401356080830152608084013560a083015260a084013560c083015260c084013560e083015261010060e08501358184015261300c818601612f7b565b905061012061301e8185018315159052565b613029818701612f7b565b91505061014061303c8185018315159052565b613047818701612f7b565b91505061016061305a8185018315159052565b613065818701612f7b565b91505061307761018084018215159052565b50826101a08301529392505050565b5f826130a057634e487b7160e01b5f52601260045260245ffd5b500490565b5f602082840312156130b5575f80fd5b5051919050565b5f600182016130cd576130cd612ec6565b5060010190565b5f602082840312156130e4575f80fd5b8151611e9a81612f6e565b6020808252600f908201526e1d1c985b9cd9995c8819985a5b1959608a1b604082015260600190565b81810381811115610a3e57610a3e612ec6565b5f8135610a3e81612f6e565b813581556020820135600182015560408201356002820155606082013560038201556080820135600482015560a0820135600582015560c0820135600682015560e08201356007820155600881016131a9613195610100850161312b565b825490151560ff1660ff1991909116178255565b6131d36131b9610120850161312b565b82805461ff00191691151560081b61ff0016919091179055565b6131ff6131e3610140850161312b565b82805462ff0000191691151560101b62ff000016919091179055565b610dc261320f610160850161312b565b82805463ff000000191691151560181b63ff00000016919091179055565b634e487b7160e01b5f52603260045260245ffd5b604081525f83518060408401525f5b8181101561326d5760208187018101516060868401015201613250565b505f606082850101526060601f19601f8301168401019150508260208301529392505050565b634e487b7160e01b5f52602160045260245ffdfecbce86bbb203818de2e5914c95dd53684eb47d1541dc6b3c42283c3ed5cb49c49b779b17422d0df92223018b32b4d1fa46e071723d6817e2486d003becc55f00a264697066735822122063571af7aec9b91f76b7ffdfb531b3d5e3e143e1fb49b1a204c91779bcb2698664736f6c6343000818003355435dd261a4b9b3364963f7738a7a662ad9c84396d64be3365284bb7f0a5041","linkReferences":{}},"methodIdentifiers":{"BRIDGE_INBOX_ROLE()":"b1916007","CIRCUIT_BREAKER_COOLDOWN()":"3ec2c3f6","COLD_WITHDRAWER_ROLE()":"6bb12be8","CO_SIGNER_ROLE()":"9ca9a484","DEFAULT_ADMIN_ROLE()":"a217fddf","GUARDIAN_ROLE()":"24ea54f4","MERKLE_UPDATER_ROLE()":"240e38cc","VAULT_ADMIN_ROLE()":"9e341119","addAllowedToken(address)":"4178617f","bridgeInbox()":"4634d701","bridgeInboxLocked()":"42c7b81a","cancelTimelockWithdrawal(bytes32)":"d70ed8e0","circuitBreakerTriggeredAt()":"1cc1a74a","coldWithdraw(address,uint256,address)":"cc364937","config()":"79502c55","dailyWithdrawals(address,uint256)":"d0caf201","deposit(address,uint256)":"47e7ef24","depositFor(address,address,address,uint256)":"2aa8eca1","emergencyPause(string)":"cf5b4fd5","executeConfigUpdate(bytes32,(uint256,uint256,uint256,uint256,uint256,uint256,uint256,uint256,bool,bool,bool,bool))":"d8b4b90c","executeTimelockWithdrawal(bytes32)":"d8e64892","getDailyWithdrawn(address)":"b6722b75","getRemainingDailyLimit(address)":"ec37d259","getRemainingHotWalletLimit()":"e8e3de21","getRoleAdmin(bytes32)":"248a9ca3","getUserStats(address)":"4e43603a","getVaultBalance(address)":"d3d7c002","globalHourlyWithdrawals(uint256)":"a7383682","grantRole(bytes32,address)":"2f2ff15d","hasDeposited(address)":"f2c16e6f","hasRole(bytes32,address)":"91d14854","hotWalletDayStart()":"1f059bb6","hotWalletWithdrawnToday()":"a33cd418","isAllowedToken(address)":"cbe230c3","isCircuitBreakerActive()":"32941ecb","lockBridgeInbox()":"15a93f65","merkleRootUpdatedAt()":"4f84d91a","paused()":"5c975abb","pendingAdminOps(bytes32)":"65c28318","processedWithdrawIds(bytes32)":"efbbadb8","queueConfigUpdate((uint256,uint256,uint256,uint256,uint256,uint256,uint256,uint256,bool,bool,bool,bool))":"2446ec68","recordPassiveDeposit(address,uint256)":"97dfec4f","releaseToUser(address,address,uint256,bytes32)":"0307e224","releaseToUser(address,address,uint256,bytes32,bytes32[],bytes)":"7ad90792","removeAllowedToken(address)":"90469a9d","renounceRole(bytes32,address)":"36568abe","rescueTokens(address,uint256,address)":"b37fd190","resetCircuitBreaker()":"de5f8d93","revokeRole(bytes32,address)":"d547741f","setBridgeInbox(address)":"9b4ce6fc","supportsInterface(bytes4)":"01ffc9a7","timelockRequests(bytes32)":"6a38e010","totalDeposited(address)":"53055481","totalWithdrawn(address)":"0a64143a","unpause()":"3f4ba83a","updateMerkleRoot(bytes32)":"4783f0ef","userWithdrawalCount(address,uint256)":"26993861","withdrawalMerkleRoot()":"bc0b0d7d","withdrawalNonce()":"7b259db4"},"id":33}