{
  "_format": "hh-sol-artifact-1",
  "contractName": "MarketLifecycleFacet",
  "sourceName": "src/diamond/facets/MarketLifecycleFacet.sol",
  "abi": [
    {
      "inputs": [],
      "name": "NotContractOwner",
      "type": "error"
    },
    {
      "anonymous": false,
      "inputs": [
        {
          "indexed": true,
          "internalType": "address",
          "name": "market",
          "type": "address"
        },
        {
          "indexed": false,
          "internalType": "uint256",
          "name": "bondAmount",
          "type": "uint256"
        },
        {
          "indexed": false,
          "internalType": "address",
          "name": "slashRecipient",
          "type": "address"
        }
      ],
      "name": "ChallengeBondConfigured",
      "type": "event"
    },
    {
      "anonymous": false,
      "inputs": [
        {
          "indexed": true,
          "internalType": "address",
          "name": "market",
          "type": "address"
        },
        {
          "indexed": true,
          "internalType": "address",
          "name": "challenger",
          "type": "address"
        },
        {
          "indexed": false,
          "internalType": "bool",
          "name": "challengerWon",
          "type": "bool"
        },
        {
          "indexed": false,
          "internalType": "uint256",
          "name": "bondAmount",
          "type": "uint256"
        },
        {
          "indexed": false,
          "internalType": "address",
          "name": "recipient",
          "type": "address"
        }
      ],
      "name": "ChallengeResolved",
      "type": "event"
    },
    {
      "anonymous": false,
      "inputs": [
        {
          "indexed": true,
          "internalType": "address",
          "name": "market",
          "type": "address"
        },
        {
          "indexed": true,
          "internalType": "bytes32",
          "name": "evidenceHash",
          "type": "bytes32"
        },
        {
          "indexed": true,
          "internalType": "address",
          "name": "committer",
          "type": "address"
        },
        {
          "indexed": false,
          "internalType": "uint256",
          "name": "timestamp",
          "type": "uint256"
        }
      ],
      "name": "EvidenceCommitted",
      "type": "event"
    },
    {
      "anonymous": false,
      "inputs": [
        {
          "indexed": true,
          "internalType": "address",
          "name": "market",
          "type": "address"
        },
        {
          "indexed": false,
          "internalType": "uint256",
          "name": "settlementTimestamp",
          "type": "uint256"
        },
        {
          "indexed": true,
          "internalType": "address",
          "name": "parentMarket",
          "type": "address"
        },
        {
          "indexed": false,
          "internalType": "bool",
          "name": "devMode",
          "type": "bool"
        },
        {
          "indexed": false,
          "internalType": "uint256",
          "name": "lifecycleDurationSeconds",
          "type": "uint256"
        },
        {
          "indexed": false,
          "internalType": "uint256",
          "name": "rolloverWindowStart",
          "type": "uint256"
        },
        {
          "indexed": false,
          "internalType": "uint256",
          "name": "challengeWindowDuration",
          "type": "uint256"
        }
      ],
      "name": "LifecycleInitialized",
      "type": "event"
    },
    {
      "anonymous": false,
      "inputs": [
        {
          "indexed": true,
          "internalType": "address",
          "name": "market",
          "type": "address"
        },
        {
          "indexed": true,
          "internalType": "address",
          "name": "caller",
          "type": "address"
        },
        {
          "indexed": false,
          "internalType": "bool",
          "name": "settledOnChain",
          "type": "bool"
        },
        {
          "indexed": false,
          "internalType": "uint256",
          "name": "timestamp",
          "type": "uint256"
        },
        {
          "indexed": false,
          "internalType": "uint256",
          "name": "challengeWindowStart",
          "type": "uint256"
        },
        {
          "indexed": false,
          "internalType": "uint256",
          "name": "challengeWindowEnd",
          "type": "uint256"
        }
      ],
      "name": "LifecycleSettled",
      "type": "event"
    },
    {
      "anonymous": false,
      "inputs": [
        {
          "indexed": true,
          "internalType": "address",
          "name": "market",
          "type": "address"
        },
        {
          "indexed": false,
          "internalType": "uint8",
          "name": "oldState",
          "type": "uint8"
        },
        {
          "indexed": false,
          "internalType": "uint8",
          "name": "newState",
          "type": "uint8"
        },
        {
          "indexed": false,
          "internalType": "uint256",
          "name": "timestamp",
          "type": "uint256"
        },
        {
          "indexed": true,
          "internalType": "address",
          "name": "caller",
          "type": "address"
        }
      ],
      "name": "LifecycleStateChanged",
      "type": "event"
    },
    {
      "anonymous": false,
      "inputs": [
        {
          "indexed": true,
          "internalType": "address",
          "name": "market",
          "type": "address"
        },
        {
          "indexed": true,
          "internalType": "address",
          "name": "caller",
          "type": "address"
        },
        {
          "indexed": false,
          "internalType": "uint8",
          "name": "previousState",
          "type": "uint8"
        },
        {
          "indexed": false,
          "internalType": "uint8",
          "name": "newState",
          "type": "uint8"
        },
        {
          "indexed": false,
          "internalType": "bool",
          "name": "progressed",
          "type": "bool"
        },
        {
          "indexed": false,
          "internalType": "bool",
          "name": "devMode",
          "type": "bool"
        },
        {
          "indexed": false,
          "internalType": "bool",
          "name": "settledOnChain",
          "type": "bool"
        },
        {
          "indexed": false,
          "internalType": "uint256",
          "name": "rolloverWindowStart",
          "type": "uint256"
        },
        {
          "indexed": false,
          "internalType": "uint256",
          "name": "challengeWindowStart",
          "type": "uint256"
        },
        {
          "indexed": false,
          "internalType": "uint256",
          "name": "challengeWindowEnd",
          "type": "uint256"
        },
        {
          "indexed": false,
          "internalType": "uint256",
          "name": "timestamp",
          "type": "uint256"
        }
      ],
      "name": "LifecycleSync",
      "type": "event"
    },
    {
      "anonymous": false,
      "inputs": [
        {
          "indexed": true,
          "internalType": "address",
          "name": "parentMarket",
          "type": "address"
        },
        {
          "indexed": true,
          "internalType": "address",
          "name": "childMarket",
          "type": "address"
        },
        {
          "indexed": false,
          "internalType": "uint256",
          "name": "childSettlementTimestamp",
          "type": "uint256"
        }
      ],
      "name": "RolloverCreated",
      "type": "event"
    },
    {
      "anonymous": false,
      "inputs": [
        {
          "indexed": true,
          "internalType": "address",
          "name": "parentMarket",
          "type": "address"
        },
        {
          "indexed": true,
          "internalType": "address",
          "name": "childMarket",
          "type": "address"
        },
        {
          "indexed": true,
          "internalType": "address",
          "name": "caller",
          "type": "address"
        },
        {
          "indexed": false,
          "internalType": "uint256",
          "name": "parentSettlementTimestamp",
          "type": "uint256"
        },
        {
          "indexed": false,
          "internalType": "uint256",
          "name": "childSettlementTimestamp",
          "type": "uint256"
        }
      ],
      "name": "RolloverLineageLinked",
      "type": "event"
    },
    {
      "anonymous": false,
      "inputs": [
        {
          "indexed": true,
          "internalType": "address",
          "name": "market",
          "type": "address"
        },
        {
          "indexed": false,
          "internalType": "uint256",
          "name": "rolloverWindowStart",
          "type": "uint256"
        },
        {
          "indexed": false,
          "internalType": "uint256",
          "name": "rolloverWindowEnd",
          "type": "uint256"
        }
      ],
      "name": "RolloverWindowStarted",
      "type": "event"
    },
    {
      "anonymous": false,
      "inputs": [
        {
          "indexed": true,
          "internalType": "address",
          "name": "market",
          "type": "address"
        },
        {
          "indexed": false,
          "internalType": "uint256",
          "name": "challengeWindowStart",
          "type": "uint256"
        },
        {
          "indexed": false,
          "internalType": "uint256",
          "name": "challengeWindowEnd",
          "type": "uint256"
        }
      ],
      "name": "SettlementChallengeWindowStarted",
      "type": "event"
    },
    {
      "anonymous": false,
      "inputs": [
        {
          "indexed": true,
          "internalType": "address",
          "name": "market",
          "type": "address"
        },
        {
          "indexed": true,
          "internalType": "address",
          "name": "challenger",
          "type": "address"
        },
        {
          "indexed": false,
          "internalType": "uint256",
          "name": "alternativePrice",
          "type": "uint256"
        },
        {
          "indexed": false,
          "internalType": "uint256",
          "name": "bondAmount",
          "type": "uint256"
        }
      ],
      "name": "SettlementChallenged",
      "type": "event"
    },
    {
      "inputs": [
        {
          "internalType": "uint256",
          "name": "alternativePrice",
          "type": "uint256"
        }
      ],
      "name": "challengeSettlement",
      "outputs": [],
      "stateMutability": "nonpayable",
      "type": "function"
    },
    {
      "inputs": [
        {
          "internalType": "string",
          "name": "evidenceUrl",
          "type": "string"
        }
      ],
      "name": "commitEvidence",
      "outputs": [],
      "stateMutability": "nonpayable",
      "type": "function"
    },
    {
      "inputs": [
        {
          "internalType": "address",
          "name": "parentMarket",
          "type": "address"
        },
        {
          "internalType": "address",
          "name": "childMarket",
          "type": "address"
        },
        {
          "internalType": "uint256",
          "name": "childSettlementTimestamp",
          "type": "uint256"
        }
      ],
      "name": "debugEmitRolloverCreated",
      "outputs": [],
      "stateMutability": "nonpayable",
      "type": "function"
    },
    {
      "inputs": [
        {
          "internalType": "address",
          "name": "market",
          "type": "address"
        },
        {
          "internalType": "uint256",
          "name": "rolloverWindowStart",
          "type": "uint256"
        }
      ],
      "name": "debugEmitRolloverWindowStarted",
      "outputs": [],
      "stateMutability": "nonpayable",
      "type": "function"
    },
    {
      "inputs": [
        {
          "internalType": "address",
          "name": "market",
          "type": "address"
        },
        {
          "internalType": "uint256",
          "name": "challengeWindowStart",
          "type": "uint256"
        }
      ],
      "name": "debugEmitSettlementChallengeWindowStarted",
      "outputs": [],
      "stateMutability": "nonpayable",
      "type": "function"
    },
    {
      "inputs": [
        {
          "internalType": "bool",
          "name": "enabled",
          "type": "bool"
        }
      ],
      "name": "enableTestingMode",
      "outputs": [],
      "stateMutability": "nonpayable",
      "type": "function"
    },
    {
      "inputs": [],
      "name": "forceStartRolloverWindow",
      "outputs": [],
      "stateMutability": "nonpayable",
      "type": "function"
    },
    {
      "inputs": [],
      "name": "forceStartSettlementChallengeWindow",
      "outputs": [],
      "stateMutability": "nonpayable",
      "type": "function"
    },
    {
      "inputs": [],
      "name": "getActiveChallengeInfo",
      "outputs": [
        {
          "internalType": "bool",
          "name": "active",
          "type": "bool"
        },
        {
          "internalType": "address",
          "name": "challengerAddr",
          "type": "address"
        },
        {
          "internalType": "uint256",
          "name": "challengedPriceVal",
          "type": "uint256"
        },
        {
          "internalType": "uint256",
          "name": "bondEscrowed",
          "type": "uint256"
        },
        {
          "internalType": "bool",
          "name": "resolved",
          "type": "bool"
        },
        {
          "internalType": "bool",
          "name": "won",
          "type": "bool"
        }
      ],
      "stateMutability": "view",
      "type": "function"
    },
    {
      "inputs": [],
      "name": "getChallengeBondConfig",
      "outputs": [
        {
          "internalType": "uint256",
          "name": "bondAmount",
          "type": "uint256"
        },
        {
          "internalType": "address",
          "name": "slashRecipient",
          "type": "address"
        }
      ],
      "stateMutability": "view",
      "type": "function"
    },
    {
      "inputs": [],
      "name": "getChallengeWindowStart",
      "outputs": [
        {
          "internalType": "uint256",
          "name": "",
          "type": "uint256"
        }
      ],
      "stateMutability": "view",
      "type": "function"
    },
    {
      "inputs": [],
      "name": "getLifecycleState",
      "outputs": [
        {
          "internalType": "uint8",
          "name": "",
          "type": "uint8"
        }
      ],
      "stateMutability": "view",
      "type": "function"
    },
    {
      "inputs": [],
      "name": "getMarketLineage",
      "outputs": [
        {
          "internalType": "address",
          "name": "parent",
          "type": "address"
        },
        {
          "internalType": "address",
          "name": "child",
          "type": "address"
        }
      ],
      "stateMutability": "view",
      "type": "function"
    },
    {
      "inputs": [],
      "name": "getProposedEvidence",
      "outputs": [
        {
          "internalType": "bytes32",
          "name": "evidenceHash",
          "type": "bytes32"
        },
        {
          "internalType": "string",
          "name": "evidenceUrl",
          "type": "string"
        }
      ],
      "stateMutability": "view",
      "type": "function"
    },
    {
      "inputs": [],
      "name": "getRolloverWindowStart",
      "outputs": [
        {
          "internalType": "uint256",
          "name": "",
          "type": "uint256"
        }
      ],
      "stateMutability": "view",
      "type": "function"
    },
    {
      "inputs": [],
      "name": "getSettlementTimestamp",
      "outputs": [
        {
          "internalType": "uint256",
          "name": "",
          "type": "uint256"
        }
      ],
      "stateMutability": "view",
      "type": "function"
    },
    {
      "inputs": [
        {
          "internalType": "uint256",
          "name": "settlementTimestamp",
          "type": "uint256"
        },
        {
          "internalType": "address",
          "name": "parent",
          "type": "address"
        }
      ],
      "name": "initializeLifecycle",
      "outputs": [],
      "stateMutability": "nonpayable",
      "type": "function"
    },
    {
      "inputs": [
        {
          "internalType": "uint256",
          "name": "settlementTimestamp",
          "type": "uint256"
        },
        {
          "internalType": "address",
          "name": "parent",
          "type": "address"
        },
        {
          "internalType": "bool",
          "name": "devMode",
          "type": "bool"
        }
      ],
      "name": "initializeLifecycleWithMode",
      "outputs": [],
      "stateMutability": "nonpayable",
      "type": "function"
    },
    {
      "inputs": [],
      "name": "isInRolloverWindow",
      "outputs": [
        {
          "internalType": "bool",
          "name": "",
          "type": "bool"
        }
      ],
      "stateMutability": "view",
      "type": "function"
    },
    {
      "inputs": [],
      "name": "isInSettlementChallengeWindow",
      "outputs": [
        {
          "internalType": "bool",
          "name": "",
          "type": "bool"
        }
      ],
      "stateMutability": "view",
      "type": "function"
    },
    {
      "inputs": [],
      "name": "isLifecycleDevMode",
      "outputs": [
        {
          "internalType": "bool",
          "name": "",
          "type": "bool"
        }
      ],
      "stateMutability": "view",
      "type": "function"
    },
    {
      "inputs": [
        {
          "internalType": "address",
          "name": "childMarket",
          "type": "address"
        },
        {
          "internalType": "uint256",
          "name": "childSettlementTimestamp",
          "type": "uint256"
        }
      ],
      "name": "linkRolloverChild",
      "outputs": [],
      "stateMutability": "nonpayable",
      "type": "function"
    },
    {
      "inputs": [
        {
          "internalType": "address",
          "name": "childMarket",
          "type": "address"
        },
        {
          "internalType": "uint256",
          "name": "childSettlementTimestamp",
          "type": "uint256"
        }
      ],
      "name": "linkRolloverChildByAddress",
      "outputs": [
        {
          "internalType": "bool",
          "name": "",
          "type": "bool"
        }
      ],
      "stateMutability": "nonpayable",
      "type": "function"
    },
    {
      "inputs": [
        {
          "internalType": "address",
          "name": "parentMarket",
          "type": "address"
        }
      ],
      "name": "registerParentFromRollover",
      "outputs": [
        {
          "internalType": "bool",
          "name": "",
          "type": "bool"
        }
      ],
      "stateMutability": "nonpayable",
      "type": "function"
    },
    {
      "inputs": [
        {
          "internalType": "bool",
          "name": "challengerWins",
          "type": "bool"
        }
      ],
      "name": "resolveChallenge",
      "outputs": [],
      "stateMutability": "nonpayable",
      "type": "function"
    },
    {
      "inputs": [
        {
          "internalType": "uint256",
          "name": "bondAmount",
          "type": "uint256"
        },
        {
          "internalType": "address",
          "name": "slashRecipient",
          "type": "address"
        }
      ],
      "name": "setChallengeBondConfig",
      "outputs": [],
      "stateMutability": "nonpayable",
      "type": "function"
    },
    {
      "inputs": [
        {
          "internalType": "uint256",
          "name": "rolloverLeadSeconds",
          "type": "uint256"
        },
        {
          "internalType": "uint256",
          "name": "challengeLeadSeconds",
          "type": "uint256"
        }
      ],
      "name": "setLeadTimes",
      "outputs": [],
      "stateMutability": "nonpayable",
      "type": "function"
    },
    {
      "inputs": [
        {
          "internalType": "address",
          "name": "parentMarket",
          "type": "address"
        }
      ],
      "name": "setParent",
      "outputs": [],
      "stateMutability": "nonpayable",
      "type": "function"
    },
    {
      "inputs": [
        {
          "internalType": "uint256",
          "name": "newSettlementTimestamp",
          "type": "uint256"
        }
      ],
      "name": "setSettlementTimestamp",
      "outputs": [],
      "stateMutability": "nonpayable",
      "type": "function"
    },
    {
      "inputs": [],
      "name": "startRolloverWindow",
      "outputs": [],
      "stateMutability": "nonpayable",
      "type": "function"
    },
    {
      "inputs": [],
      "name": "startSettlementChallengeWindow",
      "outputs": [],
      "stateMutability": "nonpayable",
      "type": "function"
    },
    {
      "inputs": [],
      "name": "syncLifecycle",
      "outputs": [
        {
          "internalType": "uint8",
          "name": "previousState",
          "type": "uint8"
        },
        {
          "internalType": "uint8",
          "name": "newState",
          "type": "uint8"
        }
      ],
      "stateMutability": "nonpayable",
      "type": "function"
    }
  ],
  "bytecode": "0x6080806040523461001657612d94908161001c8239f35b600080fdfe6040608081526004908136101561001557600080fd5b600091823560e01c90816304654cb01461212f57816311aac69a1461204d57816312301b1914611fa75781631304302514611f8a5781631499c59214611f0557816325c708ef1461197b5781632e7fc5cd14611928578163348223331461178d578163389b11e3146117675781633bc894f6146116bd5781635479cf79146116795781635f8028b614611420578163650730ab1461104e578163767f582714610fa257816377276aca14610ed7578163790cbbdd14610e3357816383f01ba614610c74578163852a701514610c2457816392d2122d14610c075781639b90bb6a14610bdb5781639f00f34f146109b3578163a1cadd0a14610934578163b2fa81a3146108e5578163b7c89dce14610853578163bb42c5911461081f578163c585e84f14610544578163ca556e091461041b578163cf5380dd14610388578163e10f5a1b14610325578163e28b471014610201578163e7e6296d146101a9575063fa8c61ec1461018357600080fd5b346101a557816003193601126101a55760209061019e61275e565b9051908152f35b5080fd5b8390346101a55760203660031901126101a557356101c56129f9565b6101e360ff600080516020612d1f8339815191525460a01c166128ea565b6101ee428211612928565b600080516020612b9f8339815191525580f35b5050346101a557816003193601126101a557600080516020612d3f833981519152549181518181600080516020612a3f833981519152918254926102448461299c565b90818452600194858116908160001461030257506001146102c3575b50506102749250959395949294038461244a565b805193849283526020828185015284518093850152815b8381106102ac57505060608094508284010152601f80199101168101030190f35b80860182015187820160600152869450810161028b565b86526020808720949092508691905b8183106102ea57505061027493508201013880610260565b855487840185015294850194869450918301916102d2565b91505061027494506020925060ff191682840152151560051b8201013880610260565b91905034610384573660031901126101a55761033f6129f9565b61035d60ff600080516020612d1f8339815191525460a01c166128ea565b35600080516020612c3f83398151915255602435600080516020612b1f8339815191525580f35b8280fd5b5050346101a557806003193601126101a557600080516020612b7f8339815191526103b16121b7565b91602435926103be6129f9565b6103dc60ff600080516020612d1f8339815191525460a01c166128ea565b6001600160a01b0316926103f1841515612961565b6103fc811515612928565b61040d61040761228b565b82612351565b82519182526020820152a280f35b9050823461054157602036600319011261054157506104386121b7565b906001600160a01b0380831690811561050f578133036104d75761045e308314156126be565b600080516020612c9f8339815191525460081c168061048d5750505090610486602092612218565b5160018152f35b909192500361049f5750602090610486565b6020606492519162461bcd60e51b83528201526013602482015272098867440e0c2e4cadce840dad2e6dac2e8c6d606b1b6044820152fd5b845162461bcd60e51b815260208185015260126024820152711310ce8818d85b1b195c884f5c185c995b9d60721b6044820152606490fd5b845162461bcd60e51b8152602081850152600c60248201526b04c433a20706172656e743d360a41b6044820152606490fd5b80fd5b82843461054157816003193601126105415761055e6121b7565b6001600160a01b0381811691602480359290919061057d851515612656565b610589308614156126be565b600080516020612b9f833981519152938454916105a7831515612319565b600080516020612abf8339815191529283549060ff8260081c1615610782575b5060101c60ff1661075257600080516020612d1f833981519152548791168061070d57505061061a906105f984612690565b868951828152600080516020612aff83398151915260203092a35b836126f5565b815462ff00001990811662010000178355885163ca556e0960e01b60208201908152308783015286825292989194919290606081016001600160401b038111828210176106f9578493929184918d5251925af191610676612488565b508154169055156106bf575060209450549183519283528483015233917f6935f2cd701fb3f7f0958b085489f91df4c761b9fbfe3d660e559ee3899d3691843092a45160018152f35b856015606492602088519362461bcd60e51b8552840152820152741310ce8818da1a5b19081b1a5b9ac819985a5b1959605a1b6044820152fd5b8760418e634e487b7160e01b600052526000fd5b0361071b5761061a90610614565b875162461bcd60e51b81526020818b015260128186015271098867440c6d0d2d8c840dad2e6dac2e8c6d60731b6044820152606490fd5b885162461bcd60e51b81526020818c0152600b818701526a4c433a206c696e6b696e6760a81b6044820152606490fd5b61078a61224c565b8015159081610814575b50156107df574210156107a7578b6105c7565b895162461bcd60e51b81526020818d0152601381880152721310ce881c1bdcdd0b5cd95d1d1b195b595b9d606a1b6044820152606490fd5b8a5162461bcd60e51b81526020818e01526010818901526f26219d1038393296b937b63637bb32b960811b6044820152606490fd5b90504210158d610794565b5050346101a557816003193601126101a55760209060ff600080516020612abf8339815191525460081c1690519015158152f35b5050346101a557816003193601126101a55760c09060ff600080516020612b3f8339815191525460018060a01b03600080516020612a7f833981519152541692600080516020612c5f83398151915254600080516020612bdf83398151915254918051958585161515875260208701528501526060840152818160081c161515608084015260101c16151560a0820152f35b8334610541576020366003190112610541576108ff6121e6565b6109076129f9565b600080516020612d1f833981519152805460ff60a01b191691151560a01b60ff60a01b1691909117905580f35b5050346101a557806003193601126101a557600080516020612c1f83398151915261095d6121b7565b916024359261096a6129f9565b61098860ff600080516020612d1f8339815191525460a01c166128ea565b6001600160a01b03169261099d841515612961565b6109a8811515612928565b61040d610407612379565b91905034610384576020366003190112610384576109cf6121e6565b906109d86129f9565b600080516020612b3f833981519152805460ff811615610b9e5760ff8160081c16610b64578315610b185750600080516020612a7f833981519152546001600160a01b03165b60018060a01b03918683600080516020612a5f8339815191525416600080516020612bdf83398151915297885490823b15610b1457610a789284928388938b5196879586948593633eb29b8760e01b8552309085016129d6565b03925af18015610b0a57610af2575b505061010081549515159562ff00008760101b169062ffffff19161717905581600080516020612a7f833981519152541694548351948552602085015216908201527fd077aef515ec47206b46e52de60dd65efc5701d08d99c0a23e29b0dcbc4f374760603092a380f35b610afb90612406565b610b06578638610a87565b8680fd5b86513d84823e3d90fd5b8380fd5b60181c6001600160a01b031680610a1e57825162461bcd60e51b8152602081870152601560248201527404c433a20736c61736820726563697069656e743d3605c1b6044820152606490fd5b825162461bcd60e51b815260208187015260146024820152731310ce88185b1c9958591e481c995cdbdb1d995960621b6044820152606490fd5b825162461bcd60e51b815260208187015260176024820152764c433a206e6f20616374697665206368616c6c656e676560481b6044820152606490fd5b5050346101a557816003193601126101a557602090600080516020612b9f833981519152549051908152f35b5050346101a557816003193601126101a55760209061019e612796565b82843461054157806003193601126105415750600080516020612c9f83398151915254600080516020612d1f83398151915254825160089290921c6001600160a01b039081168352166020820152f35b90503461038457606036600319011261038457803591610c926121a1565b9160443593841515809503610e2e57610ca96129f9565b42811115610df257600080516020612b9f833981519152918254610dbc575080610cd691835542906121f5565b9161016d600080516020612cff8339815191529380855504603c8110600014610db3575060ff603c925b600080516020612a9f833981519152938455600080516020612abf833981519152805461ff00191660089890981b61ff00169790971787556001600160a01b0395808716610da4575b505494600080516020612c9f8339815191525460081c16955460081c16925490610d7161224c565b92549381519586521515602086015284015260608301526080820152600080516020612bff83398151915260a03092a380f35b610dad90612218565b38610d49565b60ff9092610d00565b606490602085519162461bcd60e51b8352820152601060248201526f1310ce88185b1c9958591e481a5b9a5d60821b6044820152fd5b506020606492519162461bcd60e51b835282015260166024820152751310ce881a5b9d985b1a59081cd95d1d1b195b595b9d60521b6044820152fd5b600080fd5b5050346101a557816003193601126101a557610e4d6129f9565b600080516020612b7f833981519152600080516020612b9f8339815191525491610e78831515612319565b600080516020612bbf83398151915292835493610e9860ff8616156125d8565b6001610ea261224c565b95610eaf8742101561261a565b86600080516020612c7f8339815191525560ff1916179055815193845260208401523092a280f35b90503461038457606036600319011261038457610ef26121b7565b610efa6121a1565b60443593610f066129f9565b610f2460ff600080516020612d1f8339815191525460a01c166128ea565b6001600160a01b039283169384151580610f97575b15610f68575091602091600080516020612aff83398151915293610f5e871515612928565b519586521693a380f35b6020606492519162461bcd60e51b8352820152600a60248201526904c433a20616464723d360b41b6044820152fd5b508383161515610f39565b5050346101a557816003193601126101a557610fbc6129f9565b610fda60ff600080516020612d1f8339815191525460a01c166128ea565b600080516020612b7f833981519152600080516020612b9f8339815191525491611005831515612319565b600080516020612bbf8339815191526001815461102560ff8216156125d8565b42600080516020612c7f8339815191525560ff191617905580519242845260208401523092a280f35b9050346103845760209081600319360112610b145780359182156113f05760ff600080516020612c9f8339815191525416156113b55760ff600080516020612abf833981519152541661137d576110bc600080516020612b5f833981519152546110b6612379565b90612351565b42101561134657600080516020612b3f8339815191529160ff83541661130e57600080516020612cdf8339815191529081549081156112d157600080516020612a5f833981519152546001600160a01b0316801561129a57875163bb69bc7160e01b815233838201528581602481855afa80156112905784918b9161125b575b501061121a57908189923b156103845761116e93838a51809681958294633eb29b8760e01b84523091339085016129d6565b03925af18015611210576111fd575b50600080516020612a7f8339815191523360018060a01b031982541617905583600080516020612c5f83398151915255549182600080516020612bdf83398151915255600161ffff1982541617905583519283528201527f5a2ee3a29d76bcd79f5c5c6d420011d9c98fadada8266113398e6a62d55295c233923092a380f35b61120990969196612406565b943861117d565b86513d89823e3d90fd5b875162461bcd60e51b8152808301869052601b60248201527a1310ce881a5b9cdd59999a58da595b9d0818dbdb1b185d195c985b602a1b6044820152606490fd5b809250878092503d8311611289575b611274818361244a565b81010312611285578390513861113c565b8980fd5b503d61126a565b89513d8c823e3d90fd5b875162461bcd60e51b815280830186905260116024820152701310ce881d985d5b1d081b9bdd081cd95d607a1b6044820152606490fd5b865162461bcd60e51b815290810184905260176024820152761310ce88189bdb99081b9bdd0818dbdb999a59dd5c9959604a1b6044820152606490fd5b60649185519162461bcd60e51b835282015260146024820152734c433a206368616c6c656e67652065786973747360601b6044820152fd5b835162461bcd60e51b81529182015260126024820152711310ce881dda5b991bddc8195e1c1a5c995960721b604482015260649150fd5b835162461bcd60e51b81529182015260136024820152721310ce88185b1c9958591e481cd95d1d1b1959606a1b604482015260649150fd5b835162461bcd60e51b81529182015260166024820152751310ce881dda5b991bddc81b9bdd081cdd185c9d195960521b604482015260649150fd5b835162461bcd60e51b815291820152600b60248201526a04c433a2070726963653d360ac1b604482015260649150fd5b839150346101a55760209081600319360112610384576001600160401b03938135858111611675573660238201121561167557808301359586116116755760249536878284010111611671576114746129f9565b801561163f57600080516020612d3f8339815191529384546115fd575061149a8161246d565b6114a68451918261244a565b8181528581019082898501833787878483010152519020809455600080516020612a3f833981519152916114da835461299c565b601f81116115ba575b508690601f8311600114611551579087989183949596979893611544575b5050508160011b916000199060031b1c19161790555b514281527f10470ee9deb58ac76f01f30c7eae5c1ee171e42d5f3c1f1ac73532e49836d24c33933092a480f35b0101359050878080611501565b601f1983169884895287892092895b8b81106115a15750846001969798999a9b10611585575b50505050811b019055611517565b60001960f88660031b161c199201013516905587808080611577565b9093896001819285888801013581550195019101611560565b838852868820601f840160051c8101918885106115f3575b601f0160051c01905b8181106115e857506114e3565b8881556001016115db565b90915081906115d2565b835162461bcd60e51b8152908101869052601e818901527f4c433a2065766964656e636520616c726561647920636f6d6d697474656400006044820152606490fd5b825162461bcd60e51b8152808501869052600d818901526c1310ce88195b5c1d1e481d5c9b609a1b6044820152606490fd5b8580fd5b8480fd5b90508234610541578060031936011261054157611694612526565b91808310156116aa5760208360ff865191168152f35b634e487b7160e01b825260219052602490fd5b919050346103845780600319360112610384576116d86121b7565b6116e06129f9565b6001600160a01b0381811693906116f8851515612656565b600080516020612d1f8339815191525416611734575061171790612690565b516024358152600080516020612aff83398151915260203092a380f35b606490602084519162461bcd60e51b8352820152600d60248201526c1310ce8818da1a5b19081cd95d609a1b6044820152fd5b5050346101a557816003193601126101a5576020906117846127c5565b90519015158152f35b9050346103845781600319360112610384578035906117aa6121a1565b916117b36129f9565b428111156118ec57600080516020612b9f8339815191529182546118b65750806117e091835542906121f5565b61016d600080516020612cff8339815191529180835504603c81106000146118b15750603c5b600080516020612a9f833981519152908155600080516020612abf833981519152805461ff00191681556001600160a01b03949093908086166118a2575b505494600080516020612c9f83398151915254935492549060ff61186661224c565b935494825198895260081c16151560208801528601526060850152608084015260081c1690600080516020612bff83398151915260a03092a380f35b6118ab90612218565b38611844565b611806565b606490602086519162461bcd60e51b8352820152601060248201526f1310ce88185b1c9958591e481a5b9a5d60821b6044820152fd5b835162461bcd60e51b815260208184015260166024820152751310ce881a5b9d985b1a59081cd95d1d1b195b595b9d60521b6044820152606490fd5b82843461054157806003193601126105415750600080516020612cdf83398151915254600080516020612b3f8339815191525491519182916119779160181c6001600160a01b031690836121cd565b0390f35b839150346101a557816003193601126101a557600080516020612b9f83398151915280546119aa811515612319565b600080516020612abf8339815191529182549460ff808760081c16928283956119d1612526565b99898b1015611ef2578615611cae5750508883169687611bd157505042600080516020612c7f83398151915255600080516020612bbf833981519152600160ff1982541617905554428111600014611bca575b8851904282526020820152600080516020612b7f833981519152893092a26001945b611a4e612526565b9087821015611bb75782821603611b8b575b505b611a6a612526565b9580871015611b7857508087169681871696888803611b4d575b5050600080516020612c9f833981519152541615611b475750611ab8600080516020612b5f833981519152546110b6612379565b915b600080516020612c7f8339815191525490600080516020612b5f8339815191525492885195888752876020880152151589870152151560608601521515608085015260a084015260c083015260e08201524261010082015233907fe0538e56cce130eca672deb696f20a72b90907e001246831436dc7cf71a2ca506101203092a382519182526020820152f35b91611aba565b600080516020612adf8339815191528a5180611b6e3395309542918461235e565b0390a38880611a84565b634e487b7160e01b835260219052602482fd5b885190600080516020612adf833981519152339280611bae8c309542918461235e565b0390a388611a60565b634e487b7160e01b845260218852602484fd5b5042611a24565b90915060018703611c4057505042600080516020612b5f83398151915255600080516020612c9f833981519152805460ff19166001179055611c1a611c14612379565b42612351565b8851904282526020820152600080516020612c1f833981519152893092a2600194611a46565b600287929714611c51575b50611a46565b909550600160ff19825416179055600194600080516020612b5f83398151915254611c7d610407612379565b8a51918583524260208401528b83015260608201523390600080516020612cbf83398151915260803092a389611c4b565b9650969150600080516020612bbf83398151915280549084821615611e85575b5050600080516020612c9f83398151915296875490848216159081611e7a575b50611e2e575b50611cfd6124b8565b958680611e24575b15611d76575050600160ff1982541617905560019481600080516020612b5f83398151915254915416600014611d7057611d40610407612379565b8951918783524260208401528a83015260608201523390600080516020612cbf83398151915260803092a3611a62565b82611d40565b9190968387159182611e19575b5050611d91575b5050611a62565b600080516020612b5f8339815191525490611db3611dad612379565b83612351565b928342101580611e0f575b611dca575b5050611d8a565b6001919293985060ff19161790556001958951918483524260208401528a83015260608201523390600080516020612cbf83398151915260803092a388808080611dc3565b5084811615611dbe565b54169050838c611d83565b5083811615611d05565b42600080516020612b5f8339815191525560ff1916600117875550611e54611c14612379565b8951904282526020820152600080516020612c1f8339815191528a3092a260018a611cf4565b90504210158c611cee565b611e8d61224c565b9182151580611ee8575b611ea2575b50611cce565b82600192939450600080516020612c7f8339815191525560ff19161790558951908152866020820152600080516020612b7f8339815191528a3092a260018a8080611e9c565b5082421015611e97565b634e487b7160e01b865260218a52602486fd5b90503461038457602036600319011261038457611f206121b7565b91611f296129f9565b600080516020612c9f8339815191525460081c6001600160a01b0316611f565783611f5384612218565b80f35b906020606492519162461bcd60e51b8352820152600e60248201526d1310ce881c185c995b9d081cd95d60921b6044820152fd5b5050346101a557816003193601126101a55760209061178461289a565b5050346101a557816003193601126101a557611fc16129f9565b600080516020612b9f83398151915254611fdc811515612319565b6001600080516020612c9f8339815191529161200983549161200160ff8416156125d8565b42101561261a565b42600080516020612b5f8339815191525560ff1916179055600080516020612c1f83398151915261203b611c14612379565b9180519242845260208401523092a280f35b90503461038457816003193601126103845780359161206a6121a1565b916120736129f9565b6001600160a01b038316156120ff5750600080516020612cdf833981519152839055600080516020612b3f83398151915280546301000000600160b81b031916601884901b6301000000600160b81b03161790555130927f7982cbdc622633c3e3d818dabb2a91c883897791bfcb2e3187a15e23ae598c4c9282916120f99190836121cd565b0390a280f35b6020606492519162461bcd60e51b8352820152600b60248201526a04c433a20736c6173683d360ac1b6044820152fd5b5050346101a557816003193601126101a5576121496129f9565b61216760ff600080516020612d1f8339815191525460a01c166128ea565b612181600080516020612b9f833981519152541515612319565b600080516020612c9f8339815191526001815461200960ff8216156125d8565b602435906001600160a01b0382168203610e2e57565b600435906001600160a01b0382168203610e2e57565b9081526001600160a01b03909116602082015260400190565b600435908115158203610e2e57565b9190820391821161220257565b634e487b7160e01b600052601160045260246000fd5b600080516020612c9f8339815191528054610100600160a81b03191660089290921b610100600160a81b0316919091179055565b600080516020612b9f8339815191525480156122855761226a61228b565b8181101561227e5761227b916121f5565b90565b5050600090565b50600090565b60ff600080516020612d1f8339815191525460a01c16806122e3575b6122d0576122b36122fb565b80156122c857600c90048061227b5750600190565b5062278d0090565b600080516020612c3f8339815191525490565b50600080516020612c3f8339815191525415156122a7565b600080516020612cff833981519152548061227b57506301e1338090565b1561232057565b60405162461bcd60e51b81526020600482015260096024820152681310ce881d5b9cd95d60ba1b6044820152606490fd5b9190820180921161220257565b60ff6040929594938160608401971683521660208201520152565b60ff600080516020612d1f8339815191525460a01c16806123ee575b6123db57600080516020612a9f833981519152548061227b57506123b76122fb565b80156123d35761016d9004603c81106123cd5790565b50603c90565b506201518090565b600080516020612b1f8339815191525490565b50600080516020612b1f833981519152541515612395565b6001600160401b03811161241957604052565b634e487b7160e01b600052604160045260246000fd5b604081019081106001600160401b0382111761241957604052565b601f909101601f19168101906001600160401b0382119082101761241957604052565b6001600160401b03811161241957601f01601f191660200190565b3d156124b3573d906124998261246d565b916124a7604051938461244a565b82523d6000602084013e565b606090565b604051633270bb5b60e01b6020820190815260048252906124d88161242f565b6000809281925190305afa6124eb612488565b9015801561251b575b612517576020818051810103126101a55760200151908115158203610541575090565b5090565b5060208151106124f4565b60ff600080516020612abf833981519152541680156125ca575b6125c55760ff600080516020612c9f833981519152541661259e5760ff600080516020612bbf833981519152541661258e5761257a61224c565b8015159081612593575b5061258e57600090565b600190565b905042101538612584565b6125b9600080516020612b5f833981519152546110b6612379565b4210156125c557600290565b600390565b506125d36124b8565b612540565b156125df57565b60405162461bcd60e51b81526020600482015260136024820152721310ce88185b1c9958591e481cdd185c9d1959606a1b6044820152606490fd5b1561262157565b60405162461bcd60e51b815260206004820152600d60248201526c4c433a20746f6f206561726c7960981b6044820152606490fd5b1561265d57565b60405162461bcd60e51b815260206004820152600b60248201526a04c433a206368696c643d360ac1b6044820152606490fd5b600080516020612d1f83398151915280546001600160a01b0319166001600160a01b03909216919091179055565b156126c557565b60405162461bcd60e51b815260206004820152600860248201526726219d1039b2b63360c11b6044820152606490fd5b600080916040516020810190634dc85db560e11b8252600481526127188161242f565b51915afa612724612488565b9080612752575b612733575090565b602081805181010312610e2e57602001518061274d575090565b905090565b5060208151101561272b565b600080516020612c7f833981519152548061227b5750600080516020612b9f83398151915254156127915761227b61224c565b600090565b600080516020612b5f833981519152548061227b5750600080516020612b9f8339815191525480156122855790565b600080516020612b9f833981519152548015612285576127e3612526565b60048110156128845760031461228557600080516020612c7f833981519152548015612876575b801561227e5760ff600080516020612abf8339815191525460081c168061285d575b61284457421015908161283d575090565b9050421090565b505060ff600080516020612c9f83398151915254161590565b5060ff600080516020612bbf833981519152541661282c565b5061287f61224c565b61280a565b634e487b7160e01b600052602160045260246000fd5b60ff600080516020612c9f833981519152541615612791576128ba612526565b600481101561288457600314612791576128e5600080516020612b5f833981519152546110b6612379565b421090565b156128f157565b60405162461bcd60e51b815260206004820152600f60248201526e26219d103a32b9ba34b7339037b33360891b6044820152606490fd5b1561292f57565b60405162461bcd60e51b815260206004820152600a6024820152694c433a2062616420747360b01b6044820152606490fd5b1561296857565b60405162461bcd60e51b815260206004820152600c60248201526b04c433a206d61726b65743d360a41b6044820152606490fd5b90600182811c921680156129cc575b60208310146129b657565b634e487b7160e01b600052602260045260246000fd5b91607f16916129ab565b6001600160a01b0391821681526020810192909252909116604082015260600190565b7fc8fcad8db84d3cc18b4c41d551ea0ee66dd599cde068d998e57d5e09332c131f546001600160a01b03163303612a2c57565b60405163bfcafd3760e01b8152600490fdfe5c61e260142bee4d65671f13f2ac85f21903b4f75523d848a9249a55ad927c3adb2199519cd329570c1873db66c1723211f1d2b07101caecdca9afade1b956d65c61e260142bee4d65671f13f2ac85f21903b4f75523d848a9249a55ad927c3c5c61e260142bee4d65671f13f2ac85f21903b4f75523d848a9249a55ad927c375c61e260142bee4d65671f13f2ac85f21903b4f75523d848a9249a55ad927c38a4cea5252922cf2313e583259b8a637c26e78e6ab2926a52a00d36171499a49f4c8762aa7339babfb06edb9fb27a99ca86d3b8c08a064655d3a42b52f435b09e5c61e260142bee4d65671f13f2ac85f21903b4f75523d848a9249a55ad927c355c61e260142bee4d65671f13f2ac85f21903b4f75523d848a9249a55ad927c3f5c61e260142bee4d65671f13f2ac85f21903b4f75523d848a9249a55ad927c3159e1cdaa5c8b9e3797e8cf7096e06c9773df172aec4b43555884136603ed59715c61e260142bee4d65671f13f2ac85f21903b4f75523d848a9249a55ad927c2e5c61e260142bee4d65671f13f2ac85f21903b4f75523d848a9249a55ad927c305c61e260142bee4d65671f13f2ac85f21903b4f75523d848a9249a55ad927c3e7c832797e405e1444676fad5d8a192081d1b387b605c09134420545b83bcbc106c6d96576d95b9f77bb5eba322c389d0fd2fbfaa80420cf9572c7522ab871df85c61e260142bee4d65671f13f2ac85f21903b4f75523d848a9249a55ad927c345c61e260142bee4d65671f13f2ac85f21903b4f75523d848a9249a55ad927c3d5c61e260142bee4d65671f13f2ac85f21903b4f75523d848a9249a55ad927c2f5c61e260142bee4d65671f13f2ac85f21903b4f75523d848a9249a55ad927c32b792c9db5f65a7e4c74a646ceb233ec41db2cf67edc3727b32a560d81617c5995c61e260142bee4d65671f13f2ac85f21903b4f75523d848a9249a55ad927c3b5c61e260142bee4d65671f13f2ac85f21903b4f75523d848a9249a55ad927c365c61e260142bee4d65671f13f2ac85f21903b4f75523d848a9249a55ad927c335c61e260142bee4d65671f13f2ac85f21903b4f75523d848a9249a55ad927c39a2646970667358221220530e006c83fadf19d54fc3f9c0e8aaa18cfc001fb02d5eba65499f92a69d607c64736f6c63430008140033",
  "linkReferences": {},
  "deployedLinkReferences": {}
}