{
  "_format": "hh-sol-artifact-1",
  "contractName": "MarketLifecycleFacet",
  "sourceName": "src/diamond/facets/MarketLifecycleFacet.sol",
  "abi": [
    {
      "inputs": [],
      "name": "NotContractOwner",
      "type": "error"
    },
    {
      "anonymous": false,
      "inputs": [
        {
          "indexed": true,
          "internalType": "address",
          "name": "market",
          "type": "address"
        },
        {
          "indexed": false,
          "internalType": "uint256",
          "name": "bondAmount",
          "type": "uint256"
        },
        {
          "indexed": false,
          "internalType": "address",
          "name": "slashRecipient",
          "type": "address"
        }
      ],
      "name": "ChallengeBondConfigured",
      "type": "event"
    },
    {
      "anonymous": false,
      "inputs": [
        {
          "indexed": true,
          "internalType": "address",
          "name": "market",
          "type": "address"
        },
        {
          "indexed": true,
          "internalType": "address",
          "name": "challenger",
          "type": "address"
        },
        {
          "indexed": false,
          "internalType": "bool",
          "name": "challengerWon",
          "type": "bool"
        },
        {
          "indexed": false,
          "internalType": "uint256",
          "name": "bondAmount",
          "type": "uint256"
        },
        {
          "indexed": false,
          "internalType": "address",
          "name": "recipient",
          "type": "address"
        }
      ],
      "name": "ChallengeResolved",
      "type": "event"
    },
    {
      "anonymous": false,
      "inputs": [
        {
          "indexed": true,
          "internalType": "address",
          "name": "market",
          "type": "address"
        },
        {
          "indexed": true,
          "internalType": "bytes32",
          "name": "evidenceHash",
          "type": "bytes32"
        },
        {
          "indexed": true,
          "internalType": "address",
          "name": "committer",
          "type": "address"
        },
        {
          "indexed": false,
          "internalType": "uint256",
          "name": "timestamp",
          "type": "uint256"
        }
      ],
      "name": "EvidenceCommitted",
      "type": "event"
    },
    {
      "anonymous": false,
      "inputs": [
        {
          "indexed": true,
          "internalType": "address",
          "name": "market",
          "type": "address"
        },
        {
          "indexed": false,
          "internalType": "uint256",
          "name": "settlementTimestamp",
          "type": "uint256"
        },
        {
          "indexed": true,
          "internalType": "address",
          "name": "parentMarket",
          "type": "address"
        },
        {
          "indexed": false,
          "internalType": "bool",
          "name": "devMode",
          "type": "bool"
        },
        {
          "indexed": false,
          "internalType": "uint256",
          "name": "lifecycleDurationSeconds",
          "type": "uint256"
        },
        {
          "indexed": false,
          "internalType": "uint256",
          "name": "rolloverWindowStart",
          "type": "uint256"
        },
        {
          "indexed": false,
          "internalType": "uint256",
          "name": "challengeWindowDuration",
          "type": "uint256"
        }
      ],
      "name": "LifecycleInitialized",
      "type": "event"
    },
    {
      "anonymous": false,
      "inputs": [
        {
          "indexed": true,
          "internalType": "address",
          "name": "operator",
          "type": "address"
        },
        {
          "indexed": false,
          "internalType": "bool",
          "name": "authorized",
          "type": "bool"
        }
      ],
      "name": "LifecycleOperatorUpdated",
      "type": "event"
    },
    {
      "anonymous": false,
      "inputs": [
        {
          "indexed": true,
          "internalType": "address",
          "name": "market",
          "type": "address"
        },
        {
          "indexed": true,
          "internalType": "address",
          "name": "caller",
          "type": "address"
        },
        {
          "indexed": false,
          "internalType": "bool",
          "name": "settledOnChain",
          "type": "bool"
        },
        {
          "indexed": false,
          "internalType": "uint256",
          "name": "timestamp",
          "type": "uint256"
        },
        {
          "indexed": false,
          "internalType": "uint256",
          "name": "challengeWindowStart",
          "type": "uint256"
        },
        {
          "indexed": false,
          "internalType": "uint256",
          "name": "challengeWindowEnd",
          "type": "uint256"
        }
      ],
      "name": "LifecycleSettled",
      "type": "event"
    },
    {
      "anonymous": false,
      "inputs": [
        {
          "indexed": true,
          "internalType": "address",
          "name": "market",
          "type": "address"
        },
        {
          "indexed": false,
          "internalType": "uint8",
          "name": "oldState",
          "type": "uint8"
        },
        {
          "indexed": false,
          "internalType": "uint8",
          "name": "newState",
          "type": "uint8"
        },
        {
          "indexed": false,
          "internalType": "uint256",
          "name": "timestamp",
          "type": "uint256"
        },
        {
          "indexed": true,
          "internalType": "address",
          "name": "caller",
          "type": "address"
        }
      ],
      "name": "LifecycleStateChanged",
      "type": "event"
    },
    {
      "anonymous": false,
      "inputs": [
        {
          "indexed": true,
          "internalType": "address",
          "name": "market",
          "type": "address"
        },
        {
          "indexed": true,
          "internalType": "address",
          "name": "caller",
          "type": "address"
        },
        {
          "indexed": false,
          "internalType": "uint8",
          "name": "previousState",
          "type": "uint8"
        },
        {
          "indexed": false,
          "internalType": "uint8",
          "name": "newState",
          "type": "uint8"
        },
        {
          "indexed": false,
          "internalType": "bool",
          "name": "progressed",
          "type": "bool"
        },
        {
          "indexed": false,
          "internalType": "bool",
          "name": "devMode",
          "type": "bool"
        },
        {
          "indexed": false,
          "internalType": "bool",
          "name": "settledOnChain",
          "type": "bool"
        },
        {
          "indexed": false,
          "internalType": "uint256",
          "name": "rolloverWindowStart",
          "type": "uint256"
        },
        {
          "indexed": false,
          "internalType": "uint256",
          "name": "challengeWindowStart",
          "type": "uint256"
        },
        {
          "indexed": false,
          "internalType": "uint256",
          "name": "challengeWindowEnd",
          "type": "uint256"
        },
        {
          "indexed": false,
          "internalType": "uint256",
          "name": "timestamp",
          "type": "uint256"
        }
      ],
      "name": "LifecycleSync",
      "type": "event"
    },
    {
      "anonymous": false,
      "inputs": [
        {
          "indexed": true,
          "internalType": "address",
          "name": "account",
          "type": "address"
        },
        {
          "indexed": false,
          "internalType": "bool",
          "name": "exempt",
          "type": "bool"
        }
      ],
      "name": "ProposalBondExemptUpdated",
      "type": "event"
    },
    {
      "anonymous": false,
      "inputs": [
        {
          "indexed": true,
          "internalType": "address",
          "name": "market",
          "type": "address"
        },
        {
          "indexed": true,
          "internalType": "address",
          "name": "proposer",
          "type": "address"
        },
        {
          "indexed": false,
          "internalType": "uint256",
          "name": "amount",
          "type": "uint256"
        }
      ],
      "name": "ProposalBondReturned",
      "type": "event"
    },
    {
      "anonymous": false,
      "inputs": [
        {
          "indexed": true,
          "internalType": "address",
          "name": "parentMarket",
          "type": "address"
        },
        {
          "indexed": true,
          "internalType": "address",
          "name": "childMarket",
          "type": "address"
        },
        {
          "indexed": false,
          "internalType": "uint256",
          "name": "childSettlementTimestamp",
          "type": "uint256"
        }
      ],
      "name": "RolloverCreated",
      "type": "event"
    },
    {
      "anonymous": false,
      "inputs": [
        {
          "indexed": true,
          "internalType": "address",
          "name": "parentMarket",
          "type": "address"
        },
        {
          "indexed": true,
          "internalType": "address",
          "name": "childMarket",
          "type": "address"
        },
        {
          "indexed": true,
          "internalType": "address",
          "name": "caller",
          "type": "address"
        },
        {
          "indexed": false,
          "internalType": "uint256",
          "name": "parentSettlementTimestamp",
          "type": "uint256"
        },
        {
          "indexed": false,
          "internalType": "uint256",
          "name": "childSettlementTimestamp",
          "type": "uint256"
        }
      ],
      "name": "RolloverLineageLinked",
      "type": "event"
    },
    {
      "anonymous": false,
      "inputs": [
        {
          "indexed": true,
          "internalType": "address",
          "name": "market",
          "type": "address"
        },
        {
          "indexed": false,
          "internalType": "uint256",
          "name": "rolloverWindowStart",
          "type": "uint256"
        },
        {
          "indexed": false,
          "internalType": "uint256",
          "name": "rolloverWindowEnd",
          "type": "uint256"
        }
      ],
      "name": "RolloverWindowStarted",
      "type": "event"
    },
    {
      "anonymous": false,
      "inputs": [
        {
          "indexed": true,
          "internalType": "address",
          "name": "market",
          "type": "address"
        },
        {
          "indexed": false,
          "internalType": "uint256",
          "name": "challengeWindowStart",
          "type": "uint256"
        },
        {
          "indexed": false,
          "internalType": "uint256",
          "name": "challengeWindowEnd",
          "type": "uint256"
        }
      ],
      "name": "SettlementChallengeWindowStarted",
      "type": "event"
    },
    {
      "anonymous": false,
      "inputs": [
        {
          "indexed": true,
          "internalType": "address",
          "name": "market",
          "type": "address"
        },
        {
          "indexed": true,
          "internalType": "address",
          "name": "challenger",
          "type": "address"
        },
        {
          "indexed": false,
          "internalType": "uint256",
          "name": "alternativePrice",
          "type": "uint256"
        },
        {
          "indexed": false,
          "internalType": "uint256",
          "name": "bondAmount",
          "type": "uint256"
        }
      ],
      "name": "SettlementChallenged",
      "type": "event"
    },
    {
      "anonymous": false,
      "inputs": [
        {
          "indexed": true,
          "internalType": "address",
          "name": "market",
          "type": "address"
        },
        {
          "indexed": true,
          "internalType": "address",
          "name": "proposer",
          "type": "address"
        },
        {
          "indexed": false,
          "internalType": "uint256",
          "name": "price",
          "type": "uint256"
        },
        {
          "indexed": false,
          "internalType": "uint256",
          "name": "timestamp",
          "type": "uint256"
        }
      ],
      "name": "SettlementPriceProposed",
      "type": "event"
    },
    {
      "inputs": [
        {
          "internalType": "uint256",
          "name": "alternativePrice",
          "type": "uint256"
        }
      ],
      "name": "challengeSettlement",
      "outputs": [],
      "stateMutability": "nonpayable",
      "type": "function"
    },
    {
      "inputs": [
        {
          "internalType": "address",
          "name": "challenger",
          "type": "address"
        },
        {
          "internalType": "uint256",
          "name": "alternativePrice",
          "type": "uint256"
        }
      ],
      "name": "challengeSettlementFor",
      "outputs": [],
      "stateMutability": "nonpayable",
      "type": "function"
    },
    {
      "inputs": [
        {
          "internalType": "string",
          "name": "evidenceUrl",
          "type": "string"
        }
      ],
      "name": "commitEvidence",
      "outputs": [],
      "stateMutability": "nonpayable",
      "type": "function"
    },
    {
      "inputs": [
        {
          "internalType": "address",
          "name": "parentMarket",
          "type": "address"
        },
        {
          "internalType": "address",
          "name": "childMarket",
          "type": "address"
        },
        {
          "internalType": "uint256",
          "name": "childSettlementTimestamp",
          "type": "uint256"
        }
      ],
      "name": "debugEmitRolloverCreated",
      "outputs": [],
      "stateMutability": "nonpayable",
      "type": "function"
    },
    {
      "inputs": [
        {
          "internalType": "address",
          "name": "market",
          "type": "address"
        },
        {
          "internalType": "uint256",
          "name": "rolloverWindowStart",
          "type": "uint256"
        }
      ],
      "name": "debugEmitRolloverWindowStarted",
      "outputs": [],
      "stateMutability": "nonpayable",
      "type": "function"
    },
    {
      "inputs": [
        {
          "internalType": "address",
          "name": "market",
          "type": "address"
        },
        {
          "internalType": "uint256",
          "name": "challengeWindowStart",
          "type": "uint256"
        }
      ],
      "name": "debugEmitSettlementChallengeWindowStarted",
      "outputs": [],
      "stateMutability": "nonpayable",
      "type": "function"
    },
    {
      "inputs": [
        {
          "internalType": "bool",
          "name": "enabled",
          "type": "bool"
        }
      ],
      "name": "enableTestingMode",
      "outputs": [],
      "stateMutability": "nonpayable",
      "type": "function"
    },
    {
      "inputs": [],
      "name": "forceStartRolloverWindow",
      "outputs": [],
      "stateMutability": "nonpayable",
      "type": "function"
    },
    {
      "inputs": [],
      "name": "forceStartSettlementChallengeWindow",
      "outputs": [],
      "stateMutability": "nonpayable",
      "type": "function"
    },
    {
      "inputs": [],
      "name": "getActiveChallengeInfo",
      "outputs": [
        {
          "internalType": "bool",
          "name": "active",
          "type": "bool"
        },
        {
          "internalType": "address",
          "name": "challengerAddr",
          "type": "address"
        },
        {
          "internalType": "uint256",
          "name": "challengedPriceVal",
          "type": "uint256"
        },
        {
          "internalType": "uint256",
          "name": "bondEscrowed",
          "type": "uint256"
        },
        {
          "internalType": "bool",
          "name": "resolved",
          "type": "bool"
        },
        {
          "internalType": "bool",
          "name": "won",
          "type": "bool"
        }
      ],
      "stateMutability": "view",
      "type": "function"
    },
    {
      "inputs": [],
      "name": "getChallengeBondConfig",
      "outputs": [
        {
          "internalType": "uint256",
          "name": "bondAmount",
          "type": "uint256"
        },
        {
          "internalType": "address",
          "name": "slashRecipient",
          "type": "address"
        }
      ],
      "stateMutability": "view",
      "type": "function"
    },
    {
      "inputs": [],
      "name": "getChallengeWindowDuration",
      "outputs": [
        {
          "internalType": "uint256",
          "name": "",
          "type": "uint256"
        }
      ],
      "stateMutability": "view",
      "type": "function"
    },
    {
      "inputs": [],
      "name": "getChallengeWindowEnd",
      "outputs": [
        {
          "internalType": "uint256",
          "name": "",
          "type": "uint256"
        }
      ],
      "stateMutability": "view",
      "type": "function"
    },
    {
      "inputs": [],
      "name": "getChallengeWindowStart",
      "outputs": [
        {
          "internalType": "uint256",
          "name": "",
          "type": "uint256"
        }
      ],
      "stateMutability": "view",
      "type": "function"
    },
    {
      "inputs": [],
      "name": "getLifecycleState",
      "outputs": [
        {
          "internalType": "uint8",
          "name": "",
          "type": "uint8"
        }
      ],
      "stateMutability": "view",
      "type": "function"
    },
    {
      "inputs": [],
      "name": "getMarketLineage",
      "outputs": [
        {
          "internalType": "address",
          "name": "parent",
          "type": "address"
        },
        {
          "internalType": "address",
          "name": "child",
          "type": "address"
        }
      ],
      "stateMutability": "view",
      "type": "function"
    },
    {
      "inputs": [],
      "name": "getProposedEvidence",
      "outputs": [
        {
          "internalType": "bytes32",
          "name": "evidenceHash",
          "type": "bytes32"
        },
        {
          "internalType": "string",
          "name": "evidenceUrl",
          "type": "string"
        }
      ],
      "stateMutability": "view",
      "type": "function"
    },
    {
      "inputs": [],
      "name": "getProposedSettlementPrice",
      "outputs": [
        {
          "internalType": "uint256",
          "name": "price",
          "type": "uint256"
        },
        {
          "internalType": "address",
          "name": "proposer",
          "type": "address"
        },
        {
          "internalType": "bool",
          "name": "proposed",
          "type": "bool"
        }
      ],
      "stateMutability": "view",
      "type": "function"
    },
    {
      "inputs": [],
      "name": "getRolloverLead",
      "outputs": [
        {
          "internalType": "uint256",
          "name": "",
          "type": "uint256"
        }
      ],
      "stateMutability": "view",
      "type": "function"
    },
    {
      "inputs": [],
      "name": "getRolloverWindowStart",
      "outputs": [
        {
          "internalType": "uint256",
          "name": "",
          "type": "uint256"
        }
      ],
      "stateMutability": "view",
      "type": "function"
    },
    {
      "inputs": [],
      "name": "getSettlementTimestamp",
      "outputs": [
        {
          "internalType": "uint256",
          "name": "",
          "type": "uint256"
        }
      ],
      "stateMutability": "view",
      "type": "function"
    },
    {
      "inputs": [
        {
          "internalType": "uint256",
          "name": "settlementTimestamp",
          "type": "uint256"
        },
        {
          "internalType": "address",
          "name": "parent",
          "type": "address"
        }
      ],
      "name": "initializeLifecycle",
      "outputs": [],
      "stateMutability": "nonpayable",
      "type": "function"
    },
    {
      "inputs": [
        {
          "internalType": "uint256",
          "name": "settlementTimestamp",
          "type": "uint256"
        },
        {
          "internalType": "address",
          "name": "parent",
          "type": "address"
        },
        {
          "internalType": "bool",
          "name": "devMode",
          "type": "bool"
        }
      ],
      "name": "initializeLifecycleWithMode",
      "outputs": [],
      "stateMutability": "nonpayable",
      "type": "function"
    },
    {
      "inputs": [
        {
          "internalType": "uint256",
          "name": "settlementTimestamp",
          "type": "uint256"
        },
        {
          "internalType": "address",
          "name": "parent",
          "type": "address"
        },
        {
          "internalType": "bool",
          "name": "devMode",
          "type": "bool"
        },
        {
          "internalType": "uint256",
          "name": "rolloverLeadSeconds",
          "type": "uint256"
        },
        {
          "internalType": "uint256",
          "name": "challengeWindowSeconds",
          "type": "uint256"
        }
      ],
      "name": "initializeLifecycleWithTiming",
      "outputs": [],
      "stateMutability": "nonpayable",
      "type": "function"
    },
    {
      "inputs": [],
      "name": "isInRolloverWindow",
      "outputs": [
        {
          "internalType": "bool",
          "name": "",
          "type": "bool"
        }
      ],
      "stateMutability": "view",
      "type": "function"
    },
    {
      "inputs": [],
      "name": "isInSettlementChallengeWindow",
      "outputs": [
        {
          "internalType": "bool",
          "name": "",
          "type": "bool"
        }
      ],
      "stateMutability": "view",
      "type": "function"
    },
    {
      "inputs": [],
      "name": "isLifecycleDevMode",
      "outputs": [
        {
          "internalType": "bool",
          "name": "",
          "type": "bool"
        }
      ],
      "stateMutability": "view",
      "type": "function"
    },
    {
      "inputs": [
        {
          "internalType": "address",
          "name": "account",
          "type": "address"
        }
      ],
      "name": "isLifecycleOperator",
      "outputs": [
        {
          "internalType": "bool",
          "name": "",
          "type": "bool"
        }
      ],
      "stateMutability": "view",
      "type": "function"
    },
    {
      "inputs": [
        {
          "internalType": "address",
          "name": "account",
          "type": "address"
        }
      ],
      "name": "isProposalBondExempt",
      "outputs": [
        {
          "internalType": "bool",
          "name": "",
          "type": "bool"
        }
      ],
      "stateMutability": "view",
      "type": "function"
    },
    {
      "inputs": [
        {
          "internalType": "address",
          "name": "childMarket",
          "type": "address"
        },
        {
          "internalType": "uint256",
          "name": "childSettlementTimestamp",
          "type": "uint256"
        }
      ],
      "name": "linkRolloverChild",
      "outputs": [],
      "stateMutability": "nonpayable",
      "type": "function"
    },
    {
      "inputs": [
        {
          "internalType": "address",
          "name": "childMarket",
          "type": "address"
        },
        {
          "internalType": "uint256",
          "name": "childSettlementTimestamp",
          "type": "uint256"
        }
      ],
      "name": "linkRolloverChildByAddress",
      "outputs": [
        {
          "internalType": "bool",
          "name": "",
          "type": "bool"
        }
      ],
      "stateMutability": "nonpayable",
      "type": "function"
    },
    {
      "inputs": [
        {
          "internalType": "uint256",
          "name": "price",
          "type": "uint256"
        }
      ],
      "name": "proposeSettlementPrice",
      "outputs": [],
      "stateMutability": "nonpayable",
      "type": "function"
    },
    {
      "inputs": [
        {
          "internalType": "address",
          "name": "parentMarket",
          "type": "address"
        }
      ],
      "name": "registerParentFromRollover",
      "outputs": [
        {
          "internalType": "bool",
          "name": "",
          "type": "bool"
        }
      ],
      "stateMutability": "nonpayable",
      "type": "function"
    },
    {
      "inputs": [
        {
          "internalType": "bool",
          "name": "challengerWins",
          "type": "bool"
        }
      ],
      "name": "resolveChallenge",
      "outputs": [],
      "stateMutability": "nonpayable",
      "type": "function"
    },
    {
      "inputs": [],
      "name": "returnProposalBond",
      "outputs": [],
      "stateMutability": "nonpayable",
      "type": "function"
    },
    {
      "inputs": [
        {
          "internalType": "uint256",
          "name": "bondAmount",
          "type": "uint256"
        },
        {
          "internalType": "address",
          "name": "slashRecipient",
          "type": "address"
        }
      ],
      "name": "setChallengeBondConfig",
      "outputs": [],
      "stateMutability": "nonpayable",
      "type": "function"
    },
    {
      "inputs": [
        {
          "internalType": "uint256",
          "name": "rolloverLeadSeconds",
          "type": "uint256"
        },
        {
          "internalType": "uint256",
          "name": "challengeLeadSeconds",
          "type": "uint256"
        }
      ],
      "name": "setLeadTimes",
      "outputs": [],
      "stateMutability": "nonpayable",
      "type": "function"
    },
    {
      "inputs": [
        {
          "internalType": "address",
          "name": "operator",
          "type": "address"
        },
        {
          "internalType": "bool",
          "name": "authorized",
          "type": "bool"
        }
      ],
      "name": "setLifecycleOperator",
      "outputs": [],
      "stateMutability": "nonpayable",
      "type": "function"
    },
    {
      "inputs": [
        {
          "internalType": "address[]",
          "name": "operators",
          "type": "address[]"
        },
        {
          "internalType": "bool",
          "name": "authorized",
          "type": "bool"
        }
      ],
      "name": "setLifecycleOperatorBatch",
      "outputs": [],
      "stateMutability": "nonpayable",
      "type": "function"
    },
    {
      "inputs": [
        {
          "internalType": "address",
          "name": "parentMarket",
          "type": "address"
        }
      ],
      "name": "setParent",
      "outputs": [],
      "stateMutability": "nonpayable",
      "type": "function"
    },
    {
      "inputs": [
        {
          "internalType": "address",
          "name": "account",
          "type": "address"
        },
        {
          "internalType": "bool",
          "name": "exempt",
          "type": "bool"
        }
      ],
      "name": "setProposalBondExempt",
      "outputs": [],
      "stateMutability": "nonpayable",
      "type": "function"
    },
    {
      "inputs": [
        {
          "internalType": "address[]",
          "name": "accounts",
          "type": "address[]"
        },
        {
          "internalType": "bool",
          "name": "exempt",
          "type": "bool"
        }
      ],
      "name": "setProposalBondExemptBatch",
      "outputs": [],
      "stateMutability": "nonpayable",
      "type": "function"
    },
    {
      "inputs": [
        {
          "internalType": "uint256",
          "name": "newSettlementTimestamp",
          "type": "uint256"
        }
      ],
      "name": "setSettlementTimestamp",
      "outputs": [],
      "stateMutability": "nonpayable",
      "type": "function"
    },
    {
      "inputs": [],
      "name": "startRolloverWindow",
      "outputs": [],
      "stateMutability": "nonpayable",
      "type": "function"
    },
    {
      "inputs": [],
      "name": "startSettlementChallengeWindow",
      "outputs": [],
      "stateMutability": "nonpayable",
      "type": "function"
    },
    {
      "inputs": [],
      "name": "syncLifecycle",
      "outputs": [
        {
          "internalType": "uint8",
          "name": "previousState",
          "type": "uint8"
        },
        {
          "internalType": "uint8",
          "name": "newState",
          "type": "uint8"
        }
      ],
      "stateMutability": "nonpayable",
      "type": "function"
    }
  ],
  "bytecode": "0x6080806040523461001657613ec8908161001c8239f35b600080fdfe6040608081526004908136101561001557600080fd5b600091823560e01c90816304654cb014612ae9578163050bedc614612acc5781630fbcf67714612aab57816311aac69a146129c957816312301b191461292357816313043025146129065781631499c5921461288157816325c708ef146122a15781632a74681314611fdb5781632e7fc5cd14611f885781633482233314611e25578163389b11e314611dff5781633bc894f614611d555781635132af5e14611d385781635479cf7914611cf45781635f8028b614611a9f578163650730ab146118885781636af0b62e146115b1578163767f58271461150557816377276aca1461143a578163790cbbdd146113965781637adf51031461137957816383f01ba6146111d1578163852a70151461118157816392d2122d1461116457816392fe287a1461110a57816397c56fc41461107a5781639b90bb6a1461104e5781639f00f34f14610e04578163a1cadd0a14610d85578163b2fa81a314610d36578163b63932aa14610cd9578163b7c89dce14610c47578163b951d9d014610a55578163bb42c59114610a21578163c585e84f14610746578163ca556e091461061d578163ce003c5c146105b6578163cf5380dd14610523578163cf781d6b1461047d578163e10f5a1b1461041a578163e28b4710146102f5578163e72c9b16146102cd578163e7e6296d1461027557508063e944cc1b146102435763fa8c61ec1461021d57600080fd5b3461023f578160031936011261023f576020906102386136f5565b9051908152f35b5080fd5b503461023f57602036600319011261023f5760209060ff61026a610265612b71565b6130bd565b541690519015158152f35b83903461023f57602036600319011261023f5735610291613728565b6102af60ff600080516020613e538339815191525460a01c16612c27565b6102ba428211613538565b600080516020613c738339815191525580f35b50503461023f57602036600319011261023f5760209060ff61026a6102f0612b71565b613084565b50503461023f578160031936011261023f57600080516020613e73833981519152549181518190600080516020613a738339815191529181835491610339836134fe565b92838352602095600191876001821691826000146103f85750506001146103bc575b505061036f92509694929593960385612d86565b81519485938452828185015284518093850152815b8381106103a557505060608094508284010152601f80199101168101030190f35b808601820151878201606001528694508101610384565b86925087528187209087915b8583106103e057505061036f9350820101388061035b565b805483880185015286945087939092019181016103c8565b925093505061036f94915060ff191682840152151560051b820101388061035b565b919050346104795736600319011261023f57610434613728565b61045260ff600080516020613e538339815191525460a01c16612c27565b35600080516020613d1383398151915255602435600080516020613b938339815191525580f35b8280fd5b50503461023f5761048d36612bcd565b909291610498613728565b845b8481106104a5578580f35b6001906001600160a01b036104cf816104c76104c2858b896135a0565b6135c6565b161515613652565b6104f5856104e46102656104c2868c8a6135a0565b9060ff801983541691151516179055565b6105036104c28389876135a0565b16600080516020613b33833981519152602087518715158152a20161049a565b50503461023f578060031936011261023f57600080516020613c5383398151915261054c612b71565b9160243592610559613728565b61057760ff600080516020613e538339815191525460a01c16612c27565b6001600160a01b03169261058c841515613617565b610597811515613538565b6105a86105a2613965565b82612cdf565b82519182526020820152a280f35b50503461023f578060031936011261023f57600080516020613d3383398151915260206105e1612b71565b926105ea612bbe565b906105f3613728565b6001600160a01b038516946106139083906104e4906102f08915156135da565b519015158152a280f35b90508234610743576020366003190112610743575061063a612b71565b906001600160a01b03808316908115610711578133036106d9576106603083141561368e565b600080516020613d938339815191525460081c168061068f5750505090610688602092613035565b5160018152f35b90919250036106a15750602090610688565b6020606492519162461bcd60e51b83528201526013602482015272098867440e0c2e4cadce840dad2e6dac2e8c6d606b1b6044820152fd5b845162461bcd60e51b815260208185015260126024820152711310ce8818d85b1b195c884f5c185c995b9d60721b6044820152606490fd5b845162461bcd60e51b8152602081850152600c60248201526b04c433a20706172656e743d360a41b6044820152606490fd5b80fd5b828434610743578160031936011261074357610760612b71565b6001600160a01b0381811691602480359290919061077f851515613462565b61078b3086141561368e565b600080516020613c73833981519152938454916107a9831515612c65565b600080516020613af38339815191529283549060ff8260081c1615610984575b5060101c60ff1661095457600080516020613e53833981519152548791168061090f57505061081c906107fb84613341565b868951828152600080516020613b7383398151915260203092a35b836139eb565b815462ff00001990811662010000178355885163ca556e0960e01b60208201908152308783015286825292989194919290606081016001600160401b038111828210176108fb578493929184918d5251925af1916108786136c5565b508154169055156108c1575060209450549183519283528483015233917f6935f2cd701fb3f7f0958b085489f91df4c761b9fbfe3d660e559ee3899d3691843092a45160018152f35b856015606492602088519362461bcd60e51b8552840152820152741310ce8818da1a5b19081b1a5b9ac819985a5b1959605a1b6044820152fd5b8760418e634e487b7160e01b600052526000fd5b0361091d5761081c90610816565b875162461bcd60e51b81526020818b015260128186015271098867440c6d0d2d8c840dad2e6dac2e8c6d60731b6044820152606490fd5b885162461bcd60e51b81526020818c0152600b818701526a4c433a206c696e6b696e6760a81b6044820152606490fd5b61098c6138c8565b8015159081610a16575b50156109e1574210156109a9578b6107c9565b895162461bcd60e51b81526020818d0152601381880152721310ce881c1bdcdd0b5cd95d1d1b195b595b9d606a1b6044820152606490fd5b8a5162461bcd60e51b81526020818e01526010818901526f26219d1038393296b937b63637bb32b960811b6044820152606490fd5b90504210158d610996565b50503461023f578160031936011261023f5760209060ff600080516020613af38339815191525460081c1690519015158152f35b9050346104795760a036600319011261047957803591610a73612b5b565b91610a7c612ba0565b60643560843595610a8b613728565b42811115610c0b57600080516020613c73833981519152938454610bd5575090610abd82610af59493865542906138bb565b600080516020613e1383398151915281815597908115610ba65750600080516020613ad3833981519152555b80610b90575b5061336f565b6001600160a01b0392808416610b81575b505492600080516020613d93833981519152549160ff600080516020613af38339815191525460081c169154610b3a6138c8565b91600080516020613ad383398151915254938151978852151560208801528601526060850152608084015260081c1690600080516020613cd383398151915260a03092a380f35b610b8a90613035565b38610b06565b600080516020613c338339815191525538610aef565b61016d915004603c8110600014610bd05750603c5b600080516020613ad383398151915255610ae9565b610bbb565b606490602087519162461bcd60e51b8352820152601060248201526f1310ce88185b1c9958591e481a5b9a5d60821b6044820152fd5b845162461bcd60e51b815260208186015260166024820152751310ce881a5b9d985b1a59081cd95d1d1b195b595b9d60521b6044820152606490fd5b50503461023f578160031936011261023f5760c09060ff600080516020613bd38339815191525460018060a01b03600080516020613ab3833981519152541692600080516020613d5383398151915254600080516020613cb383398151915254918051958585161515875260208701528501526060840152818160081c161515608084015260101c16151560a0820152f35b50503461023f578060031936011261023f57600080516020613b338339815191526020610d04612b71565b92610d0d612bbe565b90610d16613728565b6001600160a01b038516946106139083906104e490610265891515613652565b833461074357602036600319011261074357610d50612baf565b610d58613728565b600080516020613e53833981519152805460ff60a01b191691151560a01b60ff60a01b1691909117905580f35b50503461023f578060031936011261023f57600080516020613cf3833981519152610dae612b71565b9160243592610dbb613728565b610dd960ff600080516020613e538339815191525460a01c16612c27565b6001600160a01b031692610dee841515613617565b610df9811515613538565b6105a86105a261375b565b9190503461047957602036600319011261047957610e20612baf565b600080516020613e33833981519152549091906001600160a01b039081163303611034575b600080516020613bd3833981519152805460ff811615610ff75760ff8160081c16610fbd5782908515610f785750600080516020613ab38339815191525416905b8683600080516020613a938339815191525416600080516020613cb383398151915297885490823b15610f7457610ed89284928388938b5196879586948593633eb29b8760e01b855230908501612da9565b03925af18015610f6a57610f52575b505061010081549515159562ff00008760101b169062ffffff19161717905581600080516020613ab3833981519152541694548351948552602085015216908201527fd077aef515ec47206b46e52de60dd65efc5701d08d99c0a23e29b0dcbc4f374760603092a380f35b610f5b90612d42565b610f66578638610ee7565b8680fd5b86513d84823e3d90fd5b8380fd5b60181c169081610e8657835162461bcd60e51b8152602081880152601560248201527404c433a20736c61736820726563697069656e743d3605c1b6044820152606490fd5b835162461bcd60e51b815260208188015260146024820152731310ce88185b1c9958591e481c995cdbdb1d995960621b6044820152606490fd5b835162461bcd60e51b815260208188015260176024820152764c433a206e6f20616374697665206368616c6c656e676560481b6044820152606490fd5b61104960ff61104233613084565b54166130f6565b610e45565b50503461023f578160031936011261023f57602090600080516020613c73833981519152549051908152f35b50503461023f5761108a36612bcd565b909291611095613728565b845b8481106110a2578580f35b6001906001600160a01b036110c7816110bf6104c2858b896135a0565b1615156135da565b6110dc856104e46102f06104c2868c8a6135a0565b6110ea6104c28389876135a0565b16600080516020613d33833981519152602087518715158152a201611097565b50503461023f578160031936011261023f57600080516020613b1383398151915254600080516020613bb38339815191525482519182526001600160a01b038116602083015260a01c60ff16151591810191909152606090f35b50503461023f578160031936011261023f57602090610238613571565b82843461074357806003193601126107435750600080516020613d9383398151915254600080516020613e5383398151915254825160089290921c6001600160a01b039081168352166020820152f35b905034610479576060366003190112610479578035916111ef612b5b565b916111f8612ba0565b93611201613728565b4281111561133d57600080516020613c7383398151915291825461130757508061122e91835542906138bb565b9061016d600080516020613e138339815191529280845504603c81106000146112fd5750611270603c955b600080516020613ad383398151915296875561336f565b6001600160a01b03938085166112ee575b505493600080516020613d93833981519152549260ff600080516020613af38339815191525460081c169254906112b66138c8565b9254938151978852151560208801528601526060850152608084015260081c1690600080516020613cd383398151915260a03092a380f35b6112f790613035565b38611281565b6112709095611259565b606490602085519162461bcd60e51b8352820152601060248201526f1310ce88185b1c9958591e481a5b9a5d60821b6044820152fd5b506020606492519162461bcd60e51b835282015260166024820152751310ce881a5b9d985b1a59081cd95d1d1b195b595b9d60521b6044820152fd5b50503461023f578160031936011261023f57602090610238613965565b50503461023f578160031936011261023f576113b0613728565b600080516020613c53833981519152600080516020613c7383398151915254916113db831515612c65565b600080516020613c93833981519152928354936113fb60ff861615612c9d565b60016114056138c8565b9561141287421015612f7e565b86600080516020613d738339815191525560ff1916179055815193845260208401523092a280f35b90503461047957606036600319011261047957611455612b71565b61145d612b5b565b60443593611469613728565b61148760ff600080516020613e538339815191525460a01c16612c27565b6001600160a01b0392831693841515806114fa575b156114cb575091602091600080516020613b73833981519152936114c1871515613538565b519586521693a380f35b6020606492519162461bcd60e51b8352820152600a60248201526904c433a20616464723d360b41b6044820152fd5b50838316151561149c565b50503461023f578160031936011261023f5761151f613728565b61153d60ff600080516020613e538339815191525460a01c16612c27565b600080516020613c53833981519152600080516020613c738339815191525491611568831515612c65565b600080516020613c938339815191526001815461158860ff821615612c9d565b42600080516020613d738339815191525560ff191617905580519242845260208401523092a280f35b90503461047957602080600319360112610f74578135916115d383151561313e565b6115ee60ff600080516020613d938339815191525416613178565b61160a60ff600080516020613af38339815191525416156131bd565b61163561162e600080516020613bf38339815191525461162861375b565b90612cdf565b42106131ff565b600080516020613bb383398151915260ff815460a01c1661184f578591600080516020613dd38339815191529081548015158061183b575b6116e7575b50505083600080516020613b13833981519152558054600160a01b9060ff60a01b1933169060018060a81b03191617179055600080516020613c1383398151915255825191825242908201527fe8fafbed2cc77f6f1a497b472de44129ee472ae085e2b13e429e549d28f01fe433923092a380f35b600080516020613a938339815191525493945091926001600160a01b03169190611712831515612d02565b875163bb69bc7160e01b815233828201528681602481875afa80156118315783918b916117fb575b50106117ac5790829189933b15610f745761176f928492838b51809681958294633eb29b8760e01b8452309133908501612da9565b03925af180156117a25761178a575b50505490388080611672565b61179390612d42565b61179e57853861177e565b8580fd5b87513d84823e3d90fd5b875162461bcd60e51b81529081018690526024808201527f4c433a20696e73756666696369656e7420636f6c6c61746572616c20666f7220604482015263189bdb9960e21b6064820152608490fd5b809250888092503d831161182a575b6118148183612d86565b81010312611825578290513861173a565b600080fd5b503d61180a565b89513d8c823e3d90fd5b5060ff611847336130bd565b54161561166d565b5060649184519162461bcd60e51b835282015260146024820152731310ce88185b1c9958591e481c1c9bdc1bdcd95960621b6044820152fd5b9050346104795760209081600319360112610f74578035916118ab83151561313e565b6118c660ff600080516020613d938339815191525416613178565b6118e260ff600080516020613af38339815191525416156131bd565b61190061162e600080516020613bf38339815191525461162861375b565b600080516020613bd383398151915261191d60ff82541615613240565b600080516020613a93833981519152546001600160a01b031692611942841515612d02565b86809460ff611950336130bd565b5416156119b1575b50505061196433613313565b83600080516020613d538339815191525582600080516020613cb383398151915255600161ffff198254161790558351928352820152600080516020613df383398151915233923092a380f35b9091929450600080516020613dd3833981519152928354906119d4821515613283565b885163bb69bc7160e01b815233828201528681602481875afa908115611a95578591611a62575b5082611a089110156132c9565b823b15610f7457611a33928492838b51809681958294633eb29b8760e01b8452309133908501612da9565b03925af180156117a257611a4e575b50505491388681611958565b611a5790612d42565b61179e578538611a42565b809550878092503d8311611a8e575b611a7b8183612d86565b81010312611825579251899390826119fb565b503d611a71565b8a513d87823e3d90fd5b8391503461023f5760209081600319360112610479576001600160401b03938135858111611cf05736602382011215611cf05780830135958611611cf0576024953687828401011161179e57611af3613728565b8015611cbe57600080516020613e73833981519152938454611c7c5750611b19816134e3565b611b2584519182612d86565b8181528581019082898501833787878483010152519020809455600080516020613a7383398151915291611b5983546134fe565b601f8111611c39575b508690601f8311600114611bd0579087989183949596979893611bc3575b5050508160011b916000199060031b1c19161790555b514281527f10470ee9deb58ac76f01f30c7eae5c1ee171e42d5f3c1f1ac73532e49836d24c33933092a480f35b0101359050878080611b80565b601f1983169884895287892092895b8b8110611c205750846001969798999a9b10611c04575b50505050811b019055611b96565b60001960f88660031b161c199201013516905587808080611bf6565b9093896001819285888801013581550195019101611bdf565b838852868820601f840160051c810191888510611c72575b601f0160051c01905b818110611c675750611b62565b888155600101611c5a565b9091508190611c51565b835162461bcd60e51b8152908101869052601e818901527f4c433a2065766964656e636520616c726561647920636f6d6d697474656400006044820152606490fd5b825162461bcd60e51b8152808501869052600d818901526c1310ce88195b5c1d1e481d5c9b609a1b6044820152606490fd5b8480fd5b90508234610743578060031936011261074357611d0f613809565b9180831015611d255760208360ff865191168152f35b634e487b7160e01b825260219052602490fd5b50503461023f578160031936011261023f5760209061023861349c565b91905034610479578060031936011261047957611d70612b71565b611d78613728565b6001600160a01b038181169390611d90851515613462565b600080516020613e538339815191525416611dcc5750611daf90613341565b516024358152600080516020613b7383398151915260203092a380f35b606490602084519162461bcd60e51b8352820152600d60248201526c1310ce8818da1a5b19081cd95d609a1b6044820152fd5b50503461023f578160031936011261023f57602090611e1c613396565b90519015158152f35b905034610479578160031936011261047957803590611e42612b5b565b91611e4b613728565b42811115611f4c57600080516020613c73833981519152918254611f16575080611e7891835542906138bb565b61016d600080516020613e138339815191529180835504603c8110600014611f115750603c5b600080516020613ad3833981519152908155600080516020613af3833981519152805461ff00191681556001600160a01b0394909390808616611f02575b50549460ff600080516020613d9383398151915254945460081c169254906112b66138c8565b611f0b90613035565b38611edc565b611e9e565b606490602086519162461bcd60e51b8352820152601060248201526f1310ce88185b1c9958591e481a5b9a5d60821b6044820152fd5b835162461bcd60e51b815260208184015260166024820152751310ce881a5b9d985b1a59081cd95d1d1b195b595b9d60521b6044820152606490fd5b82843461074357806003193601126107435750600080516020613dd383398151915254600080516020613bd3833981519152549151918291611fd79160181c6001600160a01b03169083612b87565b0390f35b8391503461023f578260031936011261023f57611ff6612b71565b600080516020613e338339815191525490936001600160a01b0392602435928416330361228e575b8386169384156122585761203384151561313e565b61204e60ff600080516020613d938339815191525416613178565b61206a60ff600080516020613af38339815191525416156131bd565b61208861162e600080516020613bf38339815191525461162861375b565b600080516020613bd3833981519152906120a660ff83541615613240565b600080516020613a9383398151915254166120c2811515612d02565b869260ff6120cf8a6130bd565b541615612132575b50506120f4600080516020613df383398151915294959697613313565b84600080516020613d538339815191525581600080516020613cb383398151915255600161ffff19825416179055815193845260208401523092a380f35b90979250600080516020613dd3833981519152978854612153811515613283565b855163bb69bc7160e01b8152838101899052602081602481865afa801561224e5782908b90612214575b612189925010156132c9565b813b15612210579188916121b493838851809681958294633eb29b8760e01b84528b30928501612da9565b03925af18015612206576121df575b50955490956120f4600080516020613df38339815191526120d7565b600080516020613df38339815191529495966121fd6120f492612d42565b969594506121c3565b84513d89823e3d90fd5b8880fd5b50506020813d602011612246575b8161222f60209383612d86565b810103126122425781612189915161217d565b8980fd5b3d9150612222565b87513d8c823e3d90fd5b506020606492519162461bcd60e51b8352820152601060248201526f04c433a206368616c6c656e6765723d360841b6044820152fd5b61229c60ff61104233613084565b61201e565b8391503461023f578160031936011261023f57600080516020613c7383398151915280546122d0811515612c65565b600080516020613af38339815191529182549460ff808760081c16928283956122f7613809565b99898b101561286e57861561262457505088831696876124f757505042600080516020613d7383398151915255600080516020613c93833981519152600160ff19825416179055544281116000146124f0575b8851904282526020820152600080516020613c53833981519152893092a26001945b612374613809565b90878210156124dd57828216036124b1575b505b612390613809565b958087101561249e57508087169681871696888803612473575b5050600080516020613d9383398151915254161561246d57506123de600080516020613bf38339815191525461162861375b565b915b600080516020613d738339815191525490600080516020613bf38339815191525492885195888752876020880152151589870152151560608601521515608085015260a084015260c083015260e08201524261010082015233907fe0538e56cce130eca672deb696f20a72b90907e001246831436dc7cf71a2ca506101203092a382519182526020820152f35b916123e0565b600080516020613b538339815191528a518061249433953095429184613069565b0390a388806123aa565b634e487b7160e01b835260219052602482fd5b885190600080516020613b538339815191523392806124d48c3095429184613069565b0390a388612386565b634e487b7160e01b845260218852602484fd5b504261234a565b6001880361256c575050544281116125675750425b80600080516020613bf383398151915255600080516020613d93833981519152600160ff198254161790556125426105a261375b565b89519182526020820152600080516020613cf3833981519152893092a260019461236c565b61250c565b909691506002821461257f575b5061236c565b9550600080516020613bf38339815191525461259c6105a261375b565b968742106125e357600160ff198254161790556001968a51918583524260208401528b83015260608201523390600080516020613db383398151915260803092a389612579565b8a5162461bcd60e51b81526020818b0152601b60248201527a4c433a206368616c6c656e67652077696e646f772061637469766560281b6044820152606490fd5b9650969150600080516020613c9383398151915280549084821615612801575b5050600080516020613d93833981519152968754908482161590816127f6575b506127a4575b506126736138f7565b95868061279a575b156126ec575050600160ff1982541617905560019481600080516020613bf3833981519152549154166000146126e6576126b66105a261375b565b8951918783524260208401528a83015260608201523390600080516020613db383398151915260803092a3612388565b826126b6565b919096838715918261278f575b5050612707575b5050612388565b600080516020613bf3833981519152549061272961272361375b565b83612cdf565b928342101580612785575b612740575b5050612700565b6001919293985060ff19161790556001958951918483524260208401528a83015260608201523390600080516020613db383398151915260803092a388808080612739565b5084811615612734565b54169050838c6126f9565b508381161561267b565b42600080516020613bf38339815191525560ff19166001178755506127d06127ca61375b565b42612cdf565b8951904282526020820152600080516020613cf38339815191528a3092a260018a61266a565b90504210158c612664565b6128096138c8565b9182151580612864575b61281e575b50612644565b82600192939450600080516020613d738339815191525560ff19161790558951908152866020820152600080516020613c538339815191528a3092a260018a8080612818565b5082421015612813565b634e487b7160e01b865260218a52602486fd5b9050346104795760203660031901126104795761289c612b71565b916128a5613728565b600080516020613d938339815191525460081c6001600160a01b03166128d257836128cf84613035565b80f35b906020606492519162461bcd60e51b8352820152600e60248201526d1310ce881c185c995b9d081cd95d60921b6044820152fd5b50503461023f578160031936011261023f57602090611e1c612fba565b50503461023f578160031936011261023f5761293d613728565b600080516020613c7383398151915254612958811515612c65565b6001600080516020613d938339815191529161298583549161297d60ff841615612c9d565b421015612f7e565b42600080516020613bf38339815191525560ff1916179055600080516020613cf38339815191526129b76127ca61375b565b9180519242845260208401523092a280f35b9050346104795781600319360112610479578035916129e6612b5b565b916129ef613728565b6001600160a01b03831615612a7b5750600080516020613dd3833981519152839055600080516020613bd383398151915280546301000000600160b81b031916601884901b6301000000600160b81b03161790555130927f7982cbdc622633c3e3d818dabb2a91c883897791bfcb2e3187a15e23ae598c4c928291612a75919083612b87565b0390a280f35b6020606492519162461bcd60e51b8352820152600b60248201526a04c433a20736c6173683d360ac1b6044820152fd5b8334610743578060031936011261074357612ac4613728565b6128cf612dcc565b50503461023f578160031936011261023f5760209061023861375b565b50503461023f578160031936011261023f57612b03613728565b612b2160ff600080516020613e538339815191525460a01c16612c27565b612b3b600080516020613c73833981519152541515612c65565b600080516020613d938339815191526001815461298560ff821615612c9d565b602435906001600160a01b038216820361182557565b600435906001600160a01b038216820361182557565b9081526001600160a01b03909116602082015260400190565b60443590811515820361182557565b60043590811515820361182557565b60243590811515820361182557565b906040600319830112611825576001600160401b03916004359083821161182557806023830112156118255781600401359384116118255760248460051b8301011161182557602401919060243580151581036118255790565b15612c2e57565b60405162461bcd60e51b815260206004820152600f60248201526e26219d103a32b9ba34b7339037b33360891b6044820152606490fd5b15612c6c57565b60405162461bcd60e51b81526020600482015260096024820152681310ce881d5b9cd95d60ba1b6044820152606490fd5b15612ca457565b60405162461bcd60e51b81526020600482015260136024820152721310ce88185b1c9958591e481cdd185c9d1959606a1b6044820152606490fd5b91908201809211612cec57565b634e487b7160e01b600052601160045260246000fd5b15612d0957565b60405162461bcd60e51b81526020600482015260116024820152701310ce881d985d5b1d081b9bdd081cd95d607a1b6044820152606490fd5b6001600160401b038111612d5557604052565b634e487b7160e01b600052604160045260246000fd5b604081019081106001600160401b03821117612d5557604052565b601f909101601f19168101906001600160401b03821190821017612d5557604052565b6001600160a01b0391821681526020810192909252909116604082015260600190565b600080516020613bb38339815191525460ff8160a01c1615612f475760ff600080516020613bd38339815191525416612f0b57600080516020613c138339815191528054908115612f06576001600160a01b03928316928315612ecf576000809255600080516020613a93833981519152541690612e4b821515612d02565b813b1561074357806040518093633eb29b8760e01b8252818381612e748a8a3060048501612da9565b03925af1908115612ec35750612eb4575b506040519081527fc0e1c54e9c5af180602ba877eb8487c7748874f1591a7b9bb00adedb5e127e2f60203092a3565b612ebd90612d42565b38612e85565b604051903d90823e3d90fd5b60405162461bcd60e51b815260206004820152600f60248201526e26219d10373790383937b837b9b2b960891b6044820152606490fd5b505050565b60405162461bcd60e51b81526020600482015260146024820152734c433a20616374697665206368616c6c656e676560601b6044820152606490fd5b60405162461bcd60e51b815260206004820152600f60248201526e1310ce881b9bc81c1c9bdc1bdcd85b608a1b6044820152606490fd5b15612f8557565b60405162461bcd60e51b815260206004820152600d60248201526c4c433a20746f6f206561726c7960981b6044820152606490fd5b60ff600080516020613d9383398151915254161561301a57612fda613809565b600481101561301f5760031461301a57600080516020613bf383398151915254804210159081613008575090565b613015915061162861375b565b421090565b600090565b634e487b7160e01b600052602160045260246000fd5b600080516020613d938339815191528054610100600160a81b03191660089290921b610100600160a81b0316919091179055565b60ff6040929594938160608401971683521660208201520152565b6001600160a01b031660009081527f5c61e260142bee4d65671f13f2ac85f21903b4f75523d848a9249a55ad927c456020526040902090565b6001600160a01b031660009081527f5c61e260142bee4d65671f13f2ac85f21903b4f75523d848a9249a55ad927c436020526040902090565b156130fd57565b60405162461bcd60e51b815260206004820152601960248201527826219d103737ba1037bbb732b91037b91037b832b930ba37b960391b6044820152606490fd5b1561314557565b60405162461bcd60e51b815260206004820152600b60248201526a04c433a2070726963653d360ac1b6044820152606490fd5b1561317f57565b60405162461bcd60e51b81526020600482015260166024820152751310ce881dda5b991bddc81b9bdd081cdd185c9d195960521b6044820152606490fd5b156131c457565b60405162461bcd60e51b81526020600482015260136024820152721310ce88185b1c9958591e481cd95d1d1b1959606a1b6044820152606490fd5b1561320657565b60405162461bcd60e51b81526020600482015260126024820152711310ce881dda5b991bddc8195e1c1a5c995960721b6044820152606490fd5b1561324757565b60405162461bcd60e51b81526020600482015260146024820152734c433a206368616c6c656e67652065786973747360601b6044820152606490fd5b1561328a57565b60405162461bcd60e51b81526020600482015260176024820152761310ce88189bdb99081b9bdd0818dbdb999a59dd5c9959604a1b6044820152606490fd5b156132d057565b60405162461bcd60e51b815260206004820152601b60248201527a1310ce881a5b9cdd59999a58da595b9d0818dbdb1b185d195c985b602a1b6044820152606490fd5b600080516020613ab383398151915280546001600160a01b0319166001600160a01b03909216919091179055565b600080516020613e5383398151915280546001600160a01b0319166001600160a01b03909216919091179055565b600080516020613af38339815191529061ff00825491151560081b169061ff001916179055565b600080516020613c7383398151915254801561345c576133b4613809565b600481101561301f5760031461345c57600080516020613d7383398151915254801561344e575b80156134475760ff600080516020613af38339815191525460081c168061342e575b61341557421015908161340e575090565b9050421090565b505060ff600080516020613d9383398151915254161590565b5060ff600080516020613c9383398151915254166133fd565b5050600090565b506134576138c8565b6133db565b50600090565b1561346957565b60405162461bcd60e51b815260206004820152600b60248201526a04c433a206368696c643d360ac1b6044820152606490fd5b600080516020613bf383398151915254806134d75750600080516020613c7383398151915254801561345c576134d49061162861375b565b90565b6134d49061162861375b565b6001600160401b038111612d5557601f01601f191660200190565b90600182811c9216801561352e575b602083101461351857565b634e487b7160e01b600052602260045260246000fd5b91607f169161350d565b1561353f57565b60405162461bcd60e51b815260206004820152600a6024820152694c433a2062616420747360b01b6044820152606490fd5b600080516020613bf383398151915254806134d45750600080516020613c7383398151915254801561345c5790565b91908110156135b05760051b0190565b634e487b7160e01b600052603260045260246000fd5b356001600160a01b03811681036118255790565b156135e157565b60405162461bcd60e51b815260206004820152600e60248201526d04c433a206f70657261746f723d360941b6044820152606490fd5b1561361e57565b60405162461bcd60e51b815260206004820152600c60248201526b04c433a206d61726b65743d360a41b6044820152606490fd5b1561365957565b60405162461bcd60e51b815260206004820152600d60248201526c26219d103d32b9379030b2323960991b6044820152606490fd5b1561369557565b60405162461bcd60e51b815260206004820152600860248201526726219d1039b2b63360c11b6044820152606490fd5b3d156136f0573d906136d6826134e3565b916136e46040519384612d86565b82523d6000602084013e565b606090565b600080516020613d7383398151915254806134d45750600080516020613c73833981519152541561301a576134d46138c8565b600080516020613e33833981519152546001600160a01b0316330361374957565b60405163bfcafd3760e01b8152600490fd5b60ff600080516020613e538339815191525460a01c16806137f1575b6137de5760ff600080516020613af38339815191525460081c166137d757600080516020613ad383398151915254806134d457506137b3613a54565b80156137cf5761016d9004603c81106137c95790565b50603c90565b506201518090565b6201518090565b600080516020613b938339815191525490565b50600080516020613b93833981519152541515613777565b60ff600080516020613af3833981519152541680156138ad575b6138a85760ff600080516020613d9383398151915254166138815760ff600080516020613c9383398151915254166138715761385d6138c8565b8015159081613876575b5061387157600090565b600190565b905042101538613867565b61389c600080516020613bf38339815191525461162861375b565b4210156138a857600290565b600390565b506138b66138f7565b613823565b91908203918211612cec57565b600080516020613c7383398151915254801561345c576138e6613965565b81811015613447576134d4916138bb565b604051633270bb5b60e01b60208201908152600482529061391781612d6b565b6000809281925190305afa61392a6136c5565b9015801561395a575b6139565760208180518101031261023f5760200151908115158203610743575090565b5090565b506020815110613933565b60ff600080516020613e538339815191525460a01c16806139d3575b6139c057600080516020613c3383398151915254806134d457506139a3613a54565b80156139b857600c9004806134d45750600190565b5062278d0090565b600080516020613d138339815191525490565b50600080516020613d13833981519152541515613981565b600080916040516020810190634dc85db560e11b825260048152613a0e81612d6b565b51915afa613a1a6136c5565b9080613a48575b613a29575090565b602081805181010312611825576020015180613a43575090565b905090565b50602081511015613a21565b600080516020613e1383398151915254806134d457506301e133809056fe5c61e260142bee4d65671f13f2ac85f21903b4f75523d848a9249a55ad927c3adb2199519cd329570c1873db66c1723211f1d2b07101caecdca9afade1b956d65c61e260142bee4d65671f13f2ac85f21903b4f75523d848a9249a55ad927c3c5c61e260142bee4d65671f13f2ac85f21903b4f75523d848a9249a55ad927c375c61e260142bee4d65671f13f2ac85f21903b4f75523d848a9249a55ad927c385c61e260142bee4d65671f13f2ac85f21903b4f75523d848a9249a55ad927c40ce05d5c179e0dec4d547d51ed0221c01618a707725ffee5fdf4928e738a4841fa4cea5252922cf2313e583259b8a637c26e78e6ab2926a52a00d36171499a49f4c8762aa7339babfb06edb9fb27a99ca86d3b8c08a064655d3a42b52f435b09e5c61e260142bee4d65671f13f2ac85f21903b4f75523d848a9249a55ad927c355c61e260142bee4d65671f13f2ac85f21903b4f75523d848a9249a55ad927c415c61e260142bee4d65671f13f2ac85f21903b4f75523d848a9249a55ad927c3f5c61e260142bee4d65671f13f2ac85f21903b4f75523d848a9249a55ad927c315c61e260142bee4d65671f13f2ac85f21903b4f75523d848a9249a55ad927c445c61e260142bee4d65671f13f2ac85f21903b4f75523d848a9249a55ad927c4259e1cdaa5c8b9e3797e8cf7096e06c9773df172aec4b43555884136603ed59715c61e260142bee4d65671f13f2ac85f21903b4f75523d848a9249a55ad927c2e5c61e260142bee4d65671f13f2ac85f21903b4f75523d848a9249a55ad927c305c61e260142bee4d65671f13f2ac85f21903b4f75523d848a9249a55ad927c3e7c832797e405e1444676fad5d8a192081d1b387b605c09134420545b83bcbc106c6d96576d95b9f77bb5eba322c389d0fd2fbfaa80420cf9572c7522ab871df85c61e260142bee4d65671f13f2ac85f21903b4f75523d848a9249a55ad927c342b47f848ee185794ac96e6b7b3bad10758ba021389358e08bf9c09617c3f7aec5c61e260142bee4d65671f13f2ac85f21903b4f75523d848a9249a55ad927c3d5c61e260142bee4d65671f13f2ac85f21903b4f75523d848a9249a55ad927c2f5c61e260142bee4d65671f13f2ac85f21903b4f75523d848a9249a55ad927c32b792c9db5f65a7e4c74a646ceb233ec41db2cf67edc3727b32a560d81617c5995c61e260142bee4d65671f13f2ac85f21903b4f75523d848a9249a55ad927c3b5a2ee3a29d76bcd79f5c5c6d420011d9c98fadada8266113398e6a62d55295c25c61e260142bee4d65671f13f2ac85f21903b4f75523d848a9249a55ad927c36c8fcad8db84d3cc18b4c41d551ea0ee66dd599cde068d998e57d5e09332c131f5c61e260142bee4d65671f13f2ac85f21903b4f75523d848a9249a55ad927c335c61e260142bee4d65671f13f2ac85f21903b4f75523d848a9249a55ad927c39a2646970667358221220ef1bcd2d5e766a8252e13fc3be5ef91eda27acf21dc8216a423893dac5416cb664736f6c63430008160033",
  "linkReferences": {},
  "deployedLinkReferences": {}
}