{
  "_format": "hh-sol-artifact-1",
  "contractName": "OBLiquidationFacet",
  "sourceName": "src/diamond/facets/OBLiquidationFacet.sol",
  "abi": [
    {
      "inputs": [],
      "name": "NotContractOwner",
      "type": "error"
    },
    {
      "anonymous": false,
      "inputs": [
        {
          "indexed": true,
          "internalType": "address",
          "name": "user",
          "type": "address"
        },
        {
          "indexed": true,
          "internalType": "bytes32",
          "name": "marketId",
          "type": "bytes32"
        },
        {
          "indexed": false,
          "internalType": "int256",
          "name": "positionSize",
          "type": "int256"
        },
        {
          "indexed": false,
          "internalType": "uint256",
          "name": "markPrice",
          "type": "uint256"
        }
      ],
      "name": "AutoLiquidationTriggered",
      "type": "event"
    },
    {
      "anonymous": false,
      "inputs": [
        {
          "indexed": true,
          "internalType": "address",
          "name": "maker",
          "type": "address"
        },
        {
          "indexed": false,
          "internalType": "uint256",
          "name": "notionalScaled",
          "type": "uint256"
        },
        {
          "indexed": false,
          "internalType": "uint256",
          "name": "totalScaledAfter",
          "type": "uint256"
        }
      ],
      "name": "DebugMakerContributionAdded",
      "type": "event"
    },
    {
      "anonymous": false,
      "inputs": [
        {
          "indexed": true,
          "internalType": "address",
          "name": "liquidatedUser",
          "type": "address"
        },
        {
          "indexed": true,
          "internalType": "address",
          "name": "maker",
          "type": "address"
        },
        {
          "indexed": false,
          "internalType": "uint256",
          "name": "amount",
          "type": "uint256"
        },
        {
          "indexed": false,
          "internalType": "bool",
          "name": "success",
          "type": "bool"
        },
        {
          "indexed": false,
          "internalType": "bytes",
          "name": "errorData",
          "type": "bytes"
        }
      ],
      "name": "DebugMakerRewardPayOutcome",
      "type": "event"
    },
    {
      "anonymous": false,
      "inputs": [
        {
          "indexed": true,
          "internalType": "address",
          "name": "liquidatedUser",
          "type": "address"
        },
        {
          "indexed": false,
          "internalType": "uint256",
          "name": "expectedPenalty",
          "type": "uint256"
        },
        {
          "indexed": false,
          "internalType": "uint256",
          "name": "obBalance",
          "type": "uint256"
        },
        {
          "indexed": false,
          "internalType": "uint256",
          "name": "rewardPool",
          "type": "uint256"
        },
        {
          "indexed": false,
          "internalType": "uint256",
          "name": "makerCount",
          "type": "uint256"
        },
        {
          "indexed": false,
          "internalType": "uint256",
          "name": "totalScaled",
          "type": "uint256"
        }
      ],
      "name": "DebugRewardComputation",
      "type": "event"
    },
    {
      "anonymous": false,
      "inputs": [
        {
          "indexed": true,
          "internalType": "address",
          "name": "liquidatedUser",
          "type": "address"
        }
      ],
      "name": "DebugRewardDistributionEnd",
      "type": "event"
    },
    {
      "anonymous": false,
      "inputs": [
        {
          "indexed": true,
          "internalType": "address",
          "name": "liquidatedUser",
          "type": "address"
        },
        {
          "indexed": false,
          "internalType": "uint256",
          "name": "rewardAmount",
          "type": "uint256"
        }
      ],
      "name": "DebugRewardDistributionStart",
      "type": "event"
    },
    {
      "anonymous": false,
      "inputs": [
        {
          "indexed": false,
          "internalType": "uint256",
          "name": "tradersChecked",
          "type": "uint256"
        },
        {
          "indexed": false,
          "internalType": "uint256",
          "name": "liquidationsTriggered",
          "type": "uint256"
        },
        {
          "indexed": false,
          "internalType": "uint256",
          "name": "nextStartIndex",
          "type": "uint256"
        }
      ],
      "name": "LiquidationCheckFinished",
      "type": "event"
    },
    {
      "anonymous": false,
      "inputs": [
        {
          "indexed": false,
          "internalType": "uint256",
          "name": "markPrice",
          "type": "uint256"
        },
        {
          "indexed": false,
          "internalType": "uint256",
          "name": "tradersLength",
          "type": "uint256"
        },
        {
          "indexed": false,
          "internalType": "uint256",
          "name": "startIndex",
          "type": "uint256"
        },
        {
          "indexed": false,
          "internalType": "uint256",
          "name": "endIndex",
          "type": "uint256"
        }
      ],
      "name": "LiquidationCheckStarted",
      "type": "event"
    },
    {
      "anonymous": false,
      "inputs": [
        {
          "indexed": false,
          "internalType": "uint256",
          "name": "currentMark",
          "type": "uint256"
        },
        {
          "indexed": false,
          "internalType": "uint256",
          "name": "lastMarkPrice",
          "type": "uint256"
        }
      ],
      "name": "LiquidationCheckTriggered",
      "type": "event"
    },
    {
      "anonymous": false,
      "inputs": [
        {
          "indexed": true,
          "internalType": "address",
          "name": "trader",
          "type": "address"
        },
        {
          "indexed": false,
          "internalType": "uint256",
          "name": "liquidationsTriggered",
          "type": "uint256"
        },
        {
          "indexed": false,
          "internalType": "string",
          "name": "method",
          "type": "string"
        },
        {
          "indexed": false,
          "internalType": "int256",
          "name": "startSize",
          "type": "int256"
        },
        {
          "indexed": false,
          "internalType": "int256",
          "name": "remainingSize",
          "type": "int256"
        }
      ],
      "name": "LiquidationCompleted",
      "type": "event"
    },
    {
      "anonymous": false,
      "inputs": [
        {
          "indexed": false,
          "internalType": "bool",
          "name": "scanOnTrade",
          "type": "bool"
        },
        {
          "indexed": false,
          "internalType": "bool",
          "name": "debug",
          "type": "bool"
        }
      ],
      "name": "LiquidationConfigUpdated",
      "type": "event"
    },
    {
      "anonymous": false,
      "inputs": [
        {
          "indexed": false,
          "internalType": "uint256",
          "name": "oldIndex",
          "type": "uint256"
        },
        {
          "indexed": false,
          "internalType": "uint256",
          "name": "newIndex",
          "type": "uint256"
        },
        {
          "indexed": false,
          "internalType": "uint256",
          "name": "tradersLength",
          "type": "uint256"
        }
      ],
      "name": "LiquidationIndexUpdated",
      "type": "event"
    },
    {
      "anonymous": false,
      "inputs": [
        {
          "indexed": true,
          "internalType": "address",
          "name": "trader",
          "type": "address"
        },
        {
          "indexed": false,
          "internalType": "bool",
          "name": "isLiquidatable",
          "type": "bool"
        },
        {
          "indexed": false,
          "internalType": "uint256",
          "name": "markPrice",
          "type": "uint256"
        }
      ],
      "name": "LiquidationLiquidatableCheck",
      "type": "event"
    },
    {
      "anonymous": false,
      "inputs": [
        {
          "indexed": false,
          "internalType": "bool",
          "name": "isBuy",
          "type": "bool"
        },
        {
          "indexed": false,
          "internalType": "uint256",
          "name": "bestOppositePrice",
          "type": "uint256"
        },
        {
          "indexed": false,
          "internalType": "bool",
          "name": "hasLiquidity",
          "type": "bool"
        }
      ],
      "name": "LiquidationLiquidityCheck",
      "type": "event"
    },
    {
      "anonymous": false,
      "inputs": [
        {
          "indexed": true,
          "internalType": "address",
          "name": "trader",
          "type": "address"
        },
        {
          "indexed": false,
          "internalType": "uint256",
          "name": "marginAmount",
          "type": "uint256"
        },
        {
          "indexed": false,
          "internalType": "uint256",
          "name": "penalty",
          "type": "uint256"
        },
        {
          "indexed": true,
          "internalType": "address",
          "name": "liquidator",
          "type": "address"
        }
      ],
      "name": "LiquidationMarginConfiscated",
      "type": "event"
    },
    {
      "anonymous": false,
      "inputs": [
        {
          "indexed": true,
          "internalType": "address",
          "name": "trader",
          "type": "address"
        },
        {
          "indexed": false,
          "internalType": "uint256",
          "name": "liquidationPrice",
          "type": "uint256"
        },
        {
          "indexed": false,
          "internalType": "uint256",
          "name": "actualExecutionPrice",
          "type": "uint256"
        },
        {
          "indexed": false,
          "internalType": "int256",
          "name": "positionSize",
          "type": "int256"
        },
        {
          "indexed": false,
          "internalType": "uint256",
          "name": "gapLoss",
          "type": "uint256"
        }
      ],
      "name": "LiquidationMarketGapDetected",
      "type": "event"
    },
    {
      "anonymous": false,
      "inputs": [
        {
          "indexed": true,
          "internalType": "address",
          "name": "trader",
          "type": "address"
        },
        {
          "indexed": false,
          "internalType": "uint256",
          "name": "amount",
          "type": "uint256"
        },
        {
          "indexed": false,
          "internalType": "bool",
          "name": "isBuy",
          "type": "bool"
        },
        {
          "indexed": false,
          "internalType": "uint256",
          "name": "markPrice",
          "type": "uint256"
        }
      ],
      "name": "LiquidationMarketOrderAttempt",
      "type": "event"
    },
    {
      "anonymous": false,
      "inputs": [
        {
          "indexed": true,
          "internalType": "address",
          "name": "trader",
          "type": "address"
        },
        {
          "indexed": false,
          "internalType": "uint256",
          "name": "requestedAmount",
          "type": "uint256"
        },
        {
          "indexed": false,
          "internalType": "uint256",
          "name": "filledAmount",
          "type": "uint256"
        },
        {
          "indexed": false,
          "internalType": "uint256",
          "name": "remainingAmount",
          "type": "uint256"
        },
        {
          "indexed": false,
          "internalType": "uint256",
          "name": "averageExecutionPrice",
          "type": "uint256"
        },
        {
          "indexed": false,
          "internalType": "uint256",
          "name": "worstExecutionPrice",
          "type": "uint256"
        },
        {
          "indexed": false,
          "internalType": "uint256",
          "name": "totalExecutions",
          "type": "uint256"
        },
        {
          "indexed": false,
          "internalType": "bool",
          "name": "success",
          "type": "bool"
        }
      ],
      "name": "LiquidationMarketOrderDiagnostics",
      "type": "event"
    },
    {
      "anonymous": false,
      "inputs": [
        {
          "indexed": true,
          "internalType": "address",
          "name": "trader",
          "type": "address"
        },
        {
          "indexed": false,
          "internalType": "bool",
          "name": "success",
          "type": "bool"
        },
        {
          "indexed": false,
          "internalType": "string",
          "name": "reason",
          "type": "string"
        }
      ],
      "name": "LiquidationMarketOrderResult",
      "type": "event"
    },
    {
      "anonymous": false,
      "inputs": [
        {
          "indexed": true,
          "internalType": "address",
          "name": "trader",
          "type": "address"
        },
        {
          "indexed": false,
          "internalType": "int256",
          "name": "size",
          "type": "int256"
        },
        {
          "indexed": false,
          "internalType": "uint256",
          "name": "marginLocked",
          "type": "uint256"
        },
        {
          "indexed": false,
          "internalType": "int256",
          "name": "unrealizedPnL",
          "type": "int256"
        }
      ],
      "name": "LiquidationPositionRetrieved",
      "type": "event"
    },
    {
      "anonymous": false,
      "inputs": [
        {
          "indexed": false,
          "internalType": "uint256",
          "name": "maxPrice",
          "type": "uint256"
        },
        {
          "indexed": false,
          "internalType": "uint256",
          "name": "minPrice",
          "type": "uint256"
        }
      ],
      "name": "LiquidationPriceBounds",
      "type": "event"
    },
    {
      "anonymous": false,
      "inputs": [
        {
          "indexed": false,
          "internalType": "bool",
          "name": "inProgress",
          "type": "bool"
        }
      ],
      "name": "LiquidationRecursionGuardSet",
      "type": "event"
    },
    {
      "anonymous": false,
      "inputs": [
        {
          "indexed": false,
          "internalType": "uint256",
          "name": "bestBidPrice",
          "type": "uint256"
        },
        {
          "indexed": false,
          "internalType": "uint256",
          "name": "bestAskPrice",
          "type": "uint256"
        }
      ],
      "name": "LiquidationResync",
      "type": "event"
    },
    {
      "anonymous": false,
      "inputs": [
        {
          "indexed": false,
          "internalType": "uint256",
          "name": "maxChecksPerPoke",
          "type": "uint256"
        },
        {
          "indexed": false,
          "internalType": "uint256",
          "name": "maxLiquidationsPerPoke",
          "type": "uint256"
        }
      ],
      "name": "LiquidationScanParamsUpdated",
      "type": "event"
    },
    {
      "anonymous": false,
      "inputs": [
        {
          "indexed": true,
          "internalType": "address",
          "name": "trader",
          "type": "address"
        },
        {
          "indexed": false,
          "internalType": "bool",
          "name": "isLong",
          "type": "bool"
        },
        {
          "indexed": false,
          "internalType": "string",
          "name": "method",
          "type": "string"
        }
      ],
      "name": "LiquidationSocializedLossAttempt",
      "type": "event"
    },
    {
      "anonymous": false,
      "inputs": [
        {
          "indexed": true,
          "internalType": "address",
          "name": "trader",
          "type": "address"
        },
        {
          "indexed": false,
          "internalType": "bool",
          "name": "success",
          "type": "bool"
        },
        {
          "indexed": false,
          "internalType": "string",
          "name": "method",
          "type": "string"
        }
      ],
      "name": "LiquidationSocializedLossResult",
      "type": "event"
    },
    {
      "anonymous": false,
      "inputs": [
        {
          "indexed": true,
          "internalType": "address",
          "name": "trader",
          "type": "address"
        },
        {
          "indexed": false,
          "internalType": "uint256",
          "name": "index",
          "type": "uint256"
        },
        {
          "indexed": false,
          "internalType": "uint256",
          "name": "totalTraders",
          "type": "uint256"
        }
      ],
      "name": "LiquidationTraderBeingChecked",
      "type": "event"
    },
    {
      "inputs": [
        {
          "internalType": "address",
          "name": "trader",
          "type": "address"
        }
      ],
      "name": "liquidateDirect",
      "outputs": [],
      "stateMutability": "nonpayable",
      "type": "function"
    },
    {
      "inputs": [
        {
          "internalType": "uint256",
          "name": "newMarkPrice",
          "type": "uint256"
        }
      ],
      "name": "onMarkPriceUpdate",
      "outputs": [],
      "stateMutability": "nonpayable",
      "type": "function"
    },
    {
      "inputs": [],
      "name": "pokeLiquidations",
      "outputs": [],
      "stateMutability": "nonpayable",
      "type": "function"
    },
    {
      "inputs": [
        {
          "internalType": "uint256",
          "name": "rounds",
          "type": "uint256"
        }
      ],
      "name": "pokeLiquidationsMulti",
      "outputs": [],
      "stateMutability": "nonpayable",
      "type": "function"
    },
    {
      "inputs": [
        {
          "internalType": "bool",
          "name": "enable",
          "type": "bool"
        }
      ],
      "name": "setConfigLiquidationDebug",
      "outputs": [],
      "stateMutability": "nonpayable",
      "type": "function"
    },
    {
      "inputs": [
        {
          "internalType": "bool",
          "name": "enable",
          "type": "bool"
        }
      ],
      "name": "setConfigLiquidationScanOnTrade",
      "outputs": [],
      "stateMutability": "nonpayable",
      "type": "function"
    },
    {
      "inputs": [
        {
          "internalType": "uint256",
          "name": "checksPerPoke",
          "type": "uint256"
        },
        {
          "internalType": "uint256",
          "name": "maxLiquidationsPerPoke",
          "type": "uint256"
        }
      ],
      "name": "setLiquidationScanParams",
      "outputs": [],
      "stateMutability": "nonpayable",
      "type": "function"
    }
  ],
  "bytecode": "0x60808060405234610016576148f6908161001c8239f35b600080fdfe6080604052600436101561001257600080fd5b6000803560e01c9081631e7d2e9c1461008a57508063290dfbd914610085578063340148671461008057806360282a091461007b57806368ddc679146100765780636dfa2f31146100715763dd3a8f171461006c57600080fd5b6104aa565b610491565b610397565b610315565b610298565b610270565b3461024b57602036600319011261024b576004356100a78161025a565b6001600160a01b038116906100bd821515610542565b6100dd6100d96000805160206148a18339815191525460ff1690565b1590565b80610224575b6100ec9061057f565b6100f46105ba565b6100fc610b79565b90610106826105ef565b6101266101216000805160206144818339815191525461024e565b61024e565b906000805160206147a183398151915291858354823b15610220576101649286918360405180968195829463dee0f5e560e01b8452600484016106d1565b03925af193841561021b57856000805160206144618339815191526101a6836101ca966101bb966000805160206145018339815191529a610202575b50610c96565b97926101b69992999791976105d6565b6106ee565b549360405191829189836106d1565b0390a3156101f1576101eb6101dd610798565b915b604051938493846107ff565b0390a280f35b6101eb6101fc610776565b916101df565b8061020f6102159261065f565b80610486565b8c6101a0565b6106e2565b5080fd5b506100ec6102446100d96000805160206148818339815191525460ff1690565b90506100e3565b80fd5b6001600160a01b031690565b6001600160a01b0381160361026b57565b600080fd5b3461026b57602036600319011261026b5761028c60043561086c565b005b8015150361026b57565b3461026b57602036600319011261026b576000805160206144c183398151915260ff6004356102c68161028e565b6102ce611937565b6103106000805160206147c1833981519152918380198454169115151680911780935560405193849360101c1690839015158152901515602082015260400190565b0390a1005b3461026b57602036600319011261026b576000805160206144c183398151915260ff6004356103438161028e565b61034b611937565b6103106000805160206147c18339815191529162ff0000835491151560101b1662ff0000198216178093558360405194859460101c169116839015158152901515602082015260400190565b3461026b57604036600319011261026b576004356024356103b6611937565b8115158061047a575b1561043d577f8ca90e432fdc62f177805103972f1db4a3e3416485cebf28d699172a9f2616a19181151580610433575b6103f890610988565b61040e8160008051602061484183398151915255565b610424826000805160206147e183398151915255565b610310604051928392836106d1565b50808211156103ef565b60405162461bcd60e51b81526020600482015260156024820152744f423a2062616420636865636b73506572506f6b6560581b6044820152606490fd5b506103e88211156103bf565b600091031261026b57565b3461026b57600036600319011261026b5761028c6109ce565b3461026b57602036600319011261026b57600480359081151580610537575b6104d290610aee565b60005b8281106104de57005b303b1561026b57604051636dfa2f3160e01b8152600081848183305af1801561021b57610524575b50600080516020614801833981519152541561028c576001016104d5565b8061020f6105319261065f565b38610506565b5060148211156104c9565b1561054957565b60405162461bcd60e51b815260206004820152600e60248201526d27a11d103130b2103a3930b232b960911b6044820152606490fd5b1561058657565b60405162461bcd60e51b815260206004820152600c60248201526b4f423a206c6971206275737960a01b6044820152606490fd5b6000805160206148a1833981519152805460ff19166001179055565b6000805160206148a1833981519152805460ff19169055565b60008051602061472183398151915255565b60008051602061458183398151915255565b60008051602061468183398151915255565b6000805160206146e183398151915255565b60008051602061454183398151915255565b634e487b7160e01b600052604160045260246000fd5b6001600160401b03811161067257604052565b610649565b604081019081106001600160401b0382111761067257604052565b61012081019081106001600160401b0382111761067257604052565b601f909101601f19168101906001600160401b0382119082101761067257604052565b908152602081019190915260400190565b6040513d6000823e3d90fd5b156106f557565b60405162461bcd60e51b815260206004820152601660248201527513d08e881b1a5c5d5a59185d1a5bdb8819985a5b195960521b6044820152606490fd5b6040519061014082016001600160401b0381118382101761067257604052565b60405190602082016001600160401b038111838210176106725760405260008252565b6040519061078382610677565b6006825265111a5c9958dd60d21b6020830152565b604051906107a582610677565b600b82526a111a5c9958dd15985d5b1d60aa1b6020830152565b919082519283825260005b8481106107eb575050826000602080949584010152601f8019910116010190565b6020818301810151848301820152016107ca565b61081e60609295949395600183526080602084015260808301906107bf565b9460408201520152565b634e487b7160e01b600052601160045260246000fd5b90603c820180921161084c57565b610828565b906001820180921161084c57565b9190820180921161084c57565b6000805160206148a18339815191525460ff16801561096f575b61096c57801561096c5760007fdb2199519cd329570c1873db66c1723211f1d2b07101caecdca9afade1b9572c548015159081610961575b50610959575b801580610941575b80610928575b610920575b80156108f9575b6108e55750565b806108f26108f7926105ef565b611441565b565b6109116000805160206145c18339815191525461083e565b4211156108de575060016108de565b5060016108d7565b50600080516020614561833981519152548210156108d2565b506000805160206145618339815191525415156108cc565b5060016108c4565b9050821115386108be565b50565b506000805160206148818339815191525460ff16610886565b1561098f57565b60405162461bcd60e51b81526020600482015260176024820152764f423a20626164206d61784c69717569646174696f6e7360481b6044820152606490fd5b6000805160206148a18339815191525460ff16610aae576109ed610b79565b6109f6816105ef565b610a116101216000805160206144818339815191525461024e565b906000805160206147a18339815191525491803b1561026b5781600091610a4f948360405180978195829463dee0f5e560e01b8452600484016106d1565b03925af191821561021b576108f792610a9b575b50600080516020614601833981519152610a936000805160206147218339815191525460405191829185836106d1565b0390a1611441565b8061020f610aa89261065f565b38610a63565b6000805160206148a1833981519152805462ff0000191662010000179055604051600181526000805160206145a18339815191529080602081015b0390a1565b15610af557565b60405162461bcd60e51b815260206004820152600e60248201526d4f423a2062616420726f756e647360901b6044820152606490fd5b3d15610b65573d906001600160401b0382116106725760405191610b59601f8201601f1916602001846106ae565b82523d6000602084013e565b606090565b9081602091031261026b575190565b600080604051602081019063256da22360e21b825260048152610b9b81610677565b5190305afa610ba8610b2b565b9080610bd1575b610bbb5750620f424090565b80602080610bce93518301019101610b6a565b90565b50602081511015610baf565b9081602091031261026b5751610bce8161028e565b604091949392606082019560018060a01b0316825260208201520152565b9081606091031261026b578051916040602083015192015190565b6001600160a01b039091168152602081019190915260400190565b6001600160ff1b03811461084c5760010190565b600160ff1b811461084c5760000390565b6001600160a01b03918216815260208101929092529091166040820152606081019190915260800190565b9160008051602061448183398151915292610cb4610121855461024e565b906000805160206147a18339815191529485549460409182519763ab2fc5b760e01b895260209760208a80610cef876004958b878501610bf2565b03816000809b5af1998a1561021b57879a61126a575b5084518a15158152602081018590526001600160a01b0387169a908b907f0f76ac570aad8befd3f56e097f6fc429dab4a4006339bbecd7b598f146a2965090604090a21561125757610d5a610121845461024e565b82549486519a888c63e578253560e01b948582528180610d8060609c8d968b8401610c2b565b03915afa9b8c1561021b578a9c611236575b508b908c156112185788518d815260006020820181905260408201529c9d8e9d7feaee374e018ccbf7525e7827032756b5b315aa173ccea527b1e7778363de309090606090a28a5b600581128061120f575b156111fc57610df290610c46565b918b811280156111f557610e0582610c5a565b905b80806111de575b80156111be575b6111a857610e259186918e611b64565b80830151156111935790610e3c8b9286838f612215565b898c610e4b6101218c5461024e565b8989610e648d5497519788958694859485528401610c2b565b03915afa91821561021b578d92611172575b50811561115357808214610e8b575091610dda565b939495969798999a9b9c9d9e925050505b610ec488610ead6101218a5461024e565b8854908d8d518095819482938c84528d8401610c2b565b03915afa90811561021b578c91611134575b508d8103611115575050888a889284156110cd575b841561108e575b81811215610fee5750505050610f0b610121865461024e565b8454813b15610fea57918a918a83610f3e99989796958c519a8b95869485936376f5e97760e01b855230918c8601610c6b565b03925af193841561021b57610f64610121610f789289988c98610fd7575b505b5461024e565b935497519788958694859485528401610c2b565b03915afa93841561021b5793610fa0575b5050610f949061197c565b82811415929160019190565b610f949293509081610fc692903d10610fd0575b610fbe81836106ae565b810190610c10565b5050919038610f89565b503d610fb4565b8061020f610fe49261065f565b38610f5c565b8a80fd5b9792979695949391961361100d575b50610f64610121610f7892610f5e565b91929394509450611021610121865461024e565b8454813b15610fea57918a918a8361105499989796958c519a8b95869485936358bd498d60e11b855230918c8601610c6b565b03925af193841561021b57610f64610121610f789289988c9861107b575b50925050610ffd565b8061020f6110889261065f565b38611072565b9350505050888112156110b55785888a600080516020614821833981519152545b93610ef2565b85888a600080516020614621833981519152546110af565b6000805160206147218339815191525490945080156110ed575b93610eeb565b507fdb2199519cd329570c1873db66c1723211f1d2b07101caecdca9afade1b956ee546110e7565b9a9b9997509b5050505050505061112c915061197c565b600193929190565b61114b9150893d8b11610fd057610fbe81836106ae565b505038610ed6565b505050505050505050505061116a9192935061197c565b600192918190565b61118a9192508a3d8c11610fd057610fbe81836106ae565b50509038610e76565b5092939495969798999a9b9c9d915050610e9c565b505092939495969798999a9b9c9d915050610e9c565b5080158015610e1557506000805160206146218339815191525415610e15565b506000805160206148218339815191525415610e0e565b8190610e07565b5050909192939495969798999a9b610e9c565b50821515610de4565b50505050505050505090935061122f91925061197c565b8180918190565b61124e919c50873d8911610fd057610fbe81836106ae565b50509a38610d92565b505050505090935061122f91925061197c565b61128d919a5060203d602011611294575b61128581836106ae565b810190610bdd565b9838610d05565b503d61127b565b90602090818382031261026b5782516001600160401b039384821161026b570181601f8201121561026b578051938411610672578360051b90604051946112e4858401876106ae565b8552838086019282010192831161026b578301905b828210611307575050505090565b83809183516113158161025a565b8152019101906112f9565b604051907fdb2199519cd329570c1873db66c1723211f1d2b07101caecdca9afade1b956f78281549182825260209260208301916000526020600020936000905b828210611377575050506108f7925003836106ae565b85546001600160a01b031684526001958601958895509381019390910190611361565b906000604060608401938281528260208201520152565b9094939260609260808301968352602083015260408201520152565b600019811461084c5760010190565b634e487b7160e01b600052603260045260246000fd5b80518210156114065760209160051b010190565b6113dc565b8115611415570490565b634e487b7160e01b600052601260045260246000fd5b6040919493926060820195825260208201520152565b6040805182815260006020820181905281830181905260608201527f9255b2410f71b374b44189703a621d3c5079f44b657edbfd1d11d566a257b8e392908390608090a16000805160206148a1833981519152916114a0835460ff1690565b611913578051600081526000805160206145a183398151915290602090a16000906000805160206144818339815191526115146114e0610121835461024e565b93806000805160206147a1833981519152958654908651808096819463ea26209b60e01b8352600483019190602083019252565b03915afa909182826118ee575b50506118e85750611530611320565b925b83519586156118c5576115436105ba565b60008051602061480183398151915296875495600080516020614841833981519152548015156000146118bb5790975b61158c83611581848b61085f565b818082109118021890565b906000998a99809d8a51806115a487858b89856113b1565b0390a1935b838510611765575b50505050507fdcc913be9bfd3fcf58b918c599d9357eec8272e0da719d706a4a792926f60a509088996115ed61164895969798999a5491610851565b828110611750575061160c600060008051602061480183398151915255565b611622426000805160206145c183398151915255565b6116338b549289519384938461142b565b0390a161163e6105d6565b5460101c60ff1690565b61166f575b5050610ae9906000805160206146c1833981519152945490519384938461142b565b6000805160206148a1833981519152805462ff0000191690559091906116a0610121611699610b79565b945461024e565b905490803b1561026b57836000916116ce9383865180968195829463dee0f5e560e01b8452600484016106d1565b03925af1801561021b5761173d575b5060008051602061460183398151915261170c60008051602061472183398151915254835191829186836106d1565b0390a161171882611441565b6000805160206146c183398151915294611734610ae9936105ef565b9481925061164d565b8061020f61174a9261065f565b386116dd565b6000805160206148018339815191525561160c565b90919293999c506117768a9d6113cd565b9982518110156118ac57856117e58561179f61179285886113f2565b516001600160a01b031690565b8d516001600160a01b0382169485917f27f4ecf1269c4fdf14eedc6aa86be6355de14c5cd0cdff267b86320aec2906a09181906117dd908a836106d1565b0390a2610c96565b91939290506117fe575b505050600101939291906115a9565b90919d61180a906113cd565b9d8e8d848d5491518061181e8c87836106d1565b0360008051602061446183398151915291a38d51928392611874928460609194939294815260806020820152600c60808201526b26b0b935b2ba1027b93232b960a11b60a082015260c081019460408201520152565b0360008051602061450183398151915291a26000805160206147e18339815191525480156118b1575b8c10156118ac573880806117ef565b6115b1565b508160011c61189d565b5060329097611573565b505050925050506000805160206146c183398151915291505180610ae98161139a565b92611532565b61190b9293503d8091833e61190381836106ae565b81019061129b565b903880611521565b51600181526000805160206145a18339815191529350915081905060208101610ae9565b7fc8fcad8db84d3cc18b4c41d551ea0ee66dd599cde068d998e57d5e09332c131f546001600160a01b0316330361196a57565b60405163bfcafd3760e01b8152600490fd5b6001600160a01b039081169081156119f1576000805160206144818339815191525416906000805160206147a183398151915254823b1561026b576064600092836040519586948593630621233360e41b8552600485015260248401528160448401525af16119e85750565b6108f79061065f565b5050565b6040519060c082016001600160401b03811183821017610672576040528160a06000918281528260208201528260408201528260608201528260808201520152565b60001981019190821161084c57565b9190820391821161084c57565b9060328202918083046032149015171561084c57565b8181029291811591840414171561084c57565b919082549060031b91821b91600019901b1916179055565b818110611a9f575050565b60008155600101611a94565b60008051602061478183398151915280546000825580611ac9575050565b6108f791600052602060002090810190611a94565b60008051602061464183398151915280546000825580611ac9575050565b60405190611b0982610677565b600f82526e5041525449414c5f4f525f4e4f4e4560881b6020830152565b60405190611b3482610677565b600882526711561150d555115160c21b6020830152565b604090610bce93921515815281602082015201906107bf565b91611b6d6119f5565b938115801561220d575b6121ba5782806121a3575b612124578215808061210d575b6120a0576000805160206144e1833981519152937fba273a3efce0cd8229cc0cd57bac915e40d022eba5fdf91906da888b0f3a9f9f9593611dfd937f4f9ad104f5058e9ef6d82bcc2f71a4372a87940c1daf543891c2a644d520b9079360008460001461209b5750611c00826124db565b841561208c576000905b6040987f6450334c2cd305cdc99999ba998ef510d7b61e364f61ebca34d71cc1fbcebf658a5180611c3c8686836106d1565b0390a1861561206557600080516020614741833981519152611c88600080516020614821833981519152545b8c518a151581526020810182905290151560408201529081906060820190565b0390a1611ca2600060008051602061458183398151915255565b611cb9600060008051602061468183398151915255565b611cd0600060008051602061454183398151915255565b611ce760006000805160206146e183398151915255565b6000805160206148a1833981519152805461010062ff0100600160b81b0319909116601884901b6301000000600160b81b0316171760ff60b81b191688151560b81b60ff60b81b16179055600080516020614881833981519152805460ff19166001179055611d54611aab565b611d5c611ade565b611d7360006000805160206144a183398151915255565b861561205e5781945b611d84610733565b6000815230602082015295868c01526060860187905287151560808701524260a0870152600060c0870152600060e0870152611dc4610100870160019052565b60006101208701528a51878152881515602082015260408101919091526001600160a01b039091169b8c9987928b929181906060820190565b0390a2861561204b57611e119250846134ee565b935b838514611fd7575b50506000805160206148a1833981519152805462ff0100600160b81b031916905550600080516020614881833981519152805460ff1916905587850182815291611edd90611e699083611a46565b60208a019081526000805160206145818339815191525480611f6b575b5051925160608a015160808b015160a08c015191611ea48d51151590565b938a5197889788959260c09592989794919860e08801998852602088015260408701526060860152608085015260a08401521515910152565b0390a27f9a225bf8915658fd92c47af81b4169b9efefbce52094f9b5357c030cfa764d5f600080516020614621833981519152546000805160206148218339815191525490611f308451928392836106d1565b0390a1835115158015611f5a57611f54611f48611b27565b925b5192839283611b4b565b0390a290565b611f54611f65611afc565b92611f4a565b611f84906000805160206146818339815191525461140b565b60608b01526000805160206145418339815191525460808b01526000805160206146e18339815191525460a08b0152611fd18151611fcb611fc486611a53565b6064900490565b11158b52565b38611e86565b80612033575b15611ff8575091611fee9192613090565b905b388080611e1b565b8061201b575b612009575b50611ff0565b9161201491926127a1565b9038612003565b50600080516020614621833981519152541515611ffe565b50600080516020614821833981519152541515611fdd565b5050612058908484612c69565b93611e13565b8294611d7c565b600080516020614741833981519152611c8860008051602061462183398151915254611c68565b61209583612539565b90611c0a565b611c00565b50505050600080516020614741833981519152604051806120c08161139a565b0390a16000805160206144e18339815191526040519160018060a01b03169180611f5481608090600081526040602082015260076040820152664e4f5f4249445360c81b60608201520190565b506000805160206146218339815191525415611b8f565b505050600080516020614741833981519152604051806121568190600060406060840193600181528260208201520152565b0390a16000805160206144e18339815191526040519160018060a01b03169180611f5481608090600081526040602082015260076040820152664e4f5f41534b5360c81b60608201520190565b506000805160206148218339815191525415611b82565b5050506000805160206144e18339815191526040519160018060a01b03169180611f54816080906000815260406020820152600d60408201526c1253959053125117d253941555609a1b60608201520190565b508015611b77565b92909160008360808401918251848103612408575b5050505050612237610b79565b612240816105ef565b6000805160206144818339815191529261225d610121855461024e565b916000805160206147a18339815191525490833b1561026b5761229a936000928360405180978195829463dee0f5e560e01b8452600484016106d1565b03925af191821561021b576122dc9360606122d5936122d093610121966123f5575b5060008113156123e657915b0151906125d3565b612648565b925461024e565b60405163bb69bc7160e01b81523060048201529290602090849060249082905afa91821561021b576108f7936000936123b5575b50801561239f578281101561238a57600080516020614861833981519152815b80945b600080516020614781833981519152546000805160206144a18339815191525460408051968752602087019390935291850192909252606084019190915260808301526001600160a01b0383169160a090a2613a06565b60008051602061486183398151915283612330565b6000805160206148618339815191528380612333565b6123d891935060203d6020116123df575b6123d081836106ae565b810190610b6a565b9138612310565b503d6123c6565b6123ef90610c5a565b916122c8565b8061020f6124029261065f565b386122bc565b8490828413156124aa5750508251848110612479575b505b8061242c575b8061222a565b91516040516001600160a01b038816947f0c47129046c3e7ddfbddb2fc4b5d9b52e66635b1a94b9c1a89f1b9b3559c20c7949193849361246d9392856113b1565b0390a238808381612426565b61249691506124889085611a46565b6000831261249c57826125d3565b3861241e565b6124a583610c5a565b6125d3565b8181116124b9575b5050612420565b6124d492916124c791611a46565b90831261249c57826125d3565b83386124b2565b612cec818102906000198184099082808310920391808303921461252e576127109082821115612529576000805160206146a1833981519152940990828211900360fc1b910360041c170290565b613c22565b505061271091500490565b612134818102906000198184099082808310920391808303921461252e576127109082821115612529576000805160206146a1833981519152940990828211900360fc1b910360041c170290565b90808202906000198184099082808310920391808303921461252e576127109082821115612529576000805160206146a1833981519152940990828211900360fc1b910360041c170290565b90808202906000198184099082808310920391808303921461263757670de0b6b3a76400009082821115612529577faccb18165bd6fe31ae1cf318dc5b51eee0e1ba569b88cd74c1773b91fac10669940990828211900360ee1b910360121c170290565b5050670de0b6b3a764000091500490565b6103e8818102906000198184099082808310920391808303921461252e576127109082821115612529576000805160206146a1833981519152940990828211900360fc1b910360041c170290565b918183029160001981850993838086109503948086039514612719578483111561270c579082910981600003821680920460028082600302188083028203028083028203028083028203028083028203028083028203028092029003029360018380600003040190848311900302920304170290565b8215600302601118613c35565b505090610bce925061140b565b600052600080516020614761833981519152602052604060002090565b6000527fdb2199519cd329570c1873db66c1723211f1d2b07101caecdca9afade1b956e1602052604060002090565b6000527fdb2199519cd329570c1873db66c1723211f1d2b07101caecdca9afade1b956e3602052604060002090565b919060008051602061462183398151915254905b80151580612c60575b80612c58575b15612c53576127d282612726565b926127e46100d9600386015460ff1690565b612c415760018401545b82151580612c38575b15612bc55761280581612743565b90600682015491600381018054808710600014612bbe575085805b612862612830600186015461024e565b8c848c612840602084015161024e565b61285c61010061285460088d015460ff1690565b950151151590565b94613cf1565b612879828a612874600188015461024e565b613e5f565b612893826000805160206145818339815191525401610601565b6128b68964e8d4a510008404026000805160206146818339815191525401610613565b6128d160016000805160206146e18339815191525401610625565b600080516020614541833981519152548015908115612bb4575b50612ba6575b039580825411600014612b9d57612909818354611a46565b82555b600883015460ff166129b9575b808954116000146129af5761292f908954611a46565b88555b5415612940575b50506127ee565b8161296781612962600161296c9561295b8c6129a89961407c565b015461024e565b614271565b612743565b60096000918281558260018201558260028201558260038201558260048201558260058201558260068201558260078201558260088201550155565b3880612939565b5060008855612932565b815480612a9757506129ce600184015461024e565b6129d88582614022565b600080516020614481833981519152916129f5610121845461024e565b803b1561026b57604093600085518093818381612a2263759510a160e11b9a8b835260049a8b8401610c2b565b03925af190811561021b57612a409261012192610fd757505461024e565b612a4d600188015461024e565b91813b1561026b5760008094612a6f8b97519788968795869485528401610c2b565b03925af1801561021b57612a84575b50612919565b8061020f612a919261065f565b38612a7e565b612ab6600285015491600492612ab08488015460ff1690565b91613fcd565b90612ac4600186015461024e565b612ace8782614022565b91600080516020614481833981519152612aeb610121825461024e565b90813b1561026b57600086612b1a936040978389518097819582946315ce232d60e11b9c8d85528c8501610bf2565b03925af190811561021b57612b389261012192610fd757505461024e565b612b45600189015461024e565b91813b1561026b5760008094612b68888d98519889978896879586528501610bf2565b03925af1801561021b57612b8a575b506007612b8386612743565b0155612919565b8061020f612b979261065f565b38612b77565b6000825561290c565b612baf89610637565b6128f1565b90508910386128eb565b8096612820565b5091612bf5919350612be66100d96003612bde84612726565b015460ff1690565b80612c20575b612bfd57613c46565b905b916127b5565b612c1b612c0982613c46565b60008051602061462183398151915255565b613c46565b50600080516020614621833981519152548114612bec565b508015156127f7565b91612c4d919350613c46565b90612bf7565b925050565b5060016127c4565b508115156127be565b9192909260008051602061462183398151915254915b84151580613087575b8061307d575b1561307757612c9c83612726565b91612cae6100d9600385015460ff1690565b6130655760018301545b8615158061305c575b1561303b57612ccf81612743565b906006820154916003810154808a10600014613034575088805b612d1d612cf9600185015461024e565b8b848c612d09602084015161024e565b61285c61010061285460088c015460ff1690565b612d2f828a612874600187015461024e565b612d49826000805160206145818339815191525401610601565b612d6c8964e8d4a510008404026000805160206146818339815191525401610613565b612d8760016000805160206146e18339815191525401610625565b60008051602061454183398151915254801590811561302a575b5061301c575b03988060038301541160001461301057612dc5816003840154611a46565b60038301555b600882015460ff16612e2f575b80875411600014612e2557612dee908754611a46565b86555b600381015415612e03575b5050612cb8565b8161296781612962600161296c9561295b8d612e1e9961407c565b3880612dfc565b5060008655612df1565b600382015480612f105750612e47600183015461024e565b612e518482614022565b60008051602061448183398151915291612e6e610121845461024e565b803b1561026b57604093600085518093818381612e9b63759510a160e11b9a8b835260049a8b8401610c2b565b03925af190811561021b57612eb99261012192610fd757505461024e565b612ec6600187015461024e565b91813b1561026b5760008094612ee88a97519788968795869485528401610c2b565b03925af1801561021b57612efd575b50612dd8565b8061020f612f0a9261065f565b38612ef7565b612f29600284015491600492612ab08487015460ff1690565b90612f37600185015461024e565b612f418682614022565b91600080516020614481833981519152612f5e610121825461024e565b90813b1561026b57600086612f8d936040978389518097819582946315ce232d60e11b9c8d85528c8501610bf2565b03925af190811561021b57612fab9261012192610fd757505461024e565b612fb8600188015461024e565b91813b1561026b5760008094612fdb888c98519889978896879586528501610bf2565b03925af1801561021b57612ffd575b506007612ff685612743565b0155612dd8565b8061020f61300a9261065f565b38612fea565b60006003830155612dcb565b61302589610637565b612da7565b9050891038612da1565b8099612ce9565b5092613054919250612be66100d96003612bde84612726565b915b90612c7f565b50801515612cc1565b92613071919250613c46565b91613056565b92505050565b5081831015612c8e565b50821515612c88565b919060008051602061482183398151915254905b801515806134e5575b806134dd575b15612c53576130c182612772565b926130d36100d9600386015460ff1690565b6134cb5760018401545b821515806134c2575b15613457576130f481612743565b90600682015491600381018054808710600014613450575085805b61314c61311f60208d015161024e565b8c848c61313d61010061313560018c015461024e565b940151151590565b9261285c60088b015460ff1690565b61315e828a612874600188015461024e565b613178826000805160206145818339815191525401610601565b61319b8964e8d4a510008404026000805160206146818339815191525401610613565b6131b660016000805160206146e18339815191525401610625565b600080516020614541833981519152548015908115613446575b50613438575b03958082541160001461342f576131ee818354611a46565b82555b600883015460ff16613251575b8089541160001461324757613214908954611a46565b88555b5415613225575b50506130dd565b8161296781612962600161296c9561295b8c6132409961417e565b388061321e565b5060008855613217565b81548061332f5750613266600184015461024e565b6132708582614022565b6000805160206144818339815191529161328d610121845461024e565b803b1561026b576040936000855180938183816132ba63759510a160e11b9a8b835260049a8b8401610c2b565b03925af190811561021b576132d89261012192610fd757505461024e565b6132e5600188015461024e565b91813b1561026b57600080946133078b97519788968795869485528401610c2b565b03925af1801561021b5761331c575b506131fe565b8061020f6133299261065f565b38613316565b613348600285015491600492612ab08488015460ff1690565b90613356600186015461024e565b6133608782614022565b9160008051602061448183398151915261337d610121825461024e565b90813b1561026b576000866133ac936040978389518097819582946315ce232d60e11b9c8d85528c8501610bf2565b03925af190811561021b576133ca9261012192610fd757505461024e565b6133d7600189015461024e565b91813b1561026b57600080946133fa888d98519889978896879586528501610bf2565b03925af1801561021b5761341c575b50600761341586612743565b01556131fe565b8061020f6134299261065f565b38613409565b600082556131f1565b61344189610637565b6131d6565b90508911386131d0565b809661310f565b509161347f9193506134706100d96003612bde84612772565b806134aa575b61348757614323565b905b916130a4565b6134a561349382614323565b60008051602061482183398151915255565b614323565b50600080516020614821833981519152548114613476565b508015156130e6565b916134d7919350614323565b90613481565b5060016130b3565b508115156130ad565b9192909260008051602061482183398151915254915b84151580613907575b806138fd575b156130775761352183612772565b916135336100d9600385015460ff1690565b6138eb5760018301545b861515806138e2575b156138c15761355481612743565b906006820154916003810154808a106000146138ba575088805b6135a361357e60208c015161024e565b8b848c61359461010061313560018b015461024e565b9261285c60088a015460ff1690565b6135b5828a612874600187015461024e565b6135cf826000805160206145818339815191525401610601565b6135f28964e8d4a510008404026000805160206146818339815191525401610613565b61360d60016000805160206146e18339815191525401610625565b6000805160206145418339815191525480159081156138b0575b506138a2575b0398806003830154116000146138965761364b816003840154611a46565b60038301555b600882015460ff166136b5575b808754116000146136ab57613674908754611a46565b86555b600381015415613689575b505061353d565b8161296781612962600161296c9561295b8d6136a49961417e565b3880613682565b5060008655613677565b60038201548061379657506136cd600183015461024e565b6136d78482614022565b600080516020614481833981519152916136f4610121845461024e565b803b1561026b5760409360008551809381838161372163759510a160e11b9a8b835260049a8b8401610c2b565b03925af190811561021b5761373f9261012192610fd757505461024e565b61374c600187015461024e565b91813b1561026b576000809461376e8a97519788968795869485528401610c2b565b03925af1801561021b57613783575b5061365e565b8061020f6137909261065f565b3861377d565b6137af600284015491600492612ab08487015460ff1690565b906137bd600185015461024e565b6137c78682614022565b916000805160206144818339815191526137e4610121825461024e565b90813b1561026b57600086613813936040978389518097819582946315ce232d60e11b9c8d85528c8501610bf2565b03925af190811561021b576138319261012192610fd757505461024e565b61383e600188015461024e565b91813b1561026b5760008094613861888c98519889978896879586528501610bf2565b03925af1801561021b57613883575b50600761387c85612743565b015561365e565b8061020f6138909261065f565b38613870565b60006003830155613651565b6138ab89610637565b61362d565b9050891138613627565b809961356e565b50926138da9192506134706100d96003612bde84612772565b915b90613504565b50801515613546565b926138f7919250614323565b916138dc565b5081831115613513565b5082151561350d565b60008051602061478183398151915280548210156114065760005260206000200190600090565b60008051602061464183398151915280548210156114065760005260206000200190600090565b60008051602061478183398151915280541561140657600052602060002090600090565b60008051602061452183398151915280548210156114065760005260206000200190600090565b6000805160206145e183398151915280548210156114065760005260206000200190600090565b80548210156114065760005260206000200190600090565b610bce939260609282521515602082015281604082015201906107bf565b81156119f1576000805160206144a183398151915290815415613c1d5760008051602061478183398151915292835415613c1757604080518281526001600160a01b039380851692909183907f6170a395416f30b4d49d97d25a8bf23bcded479624841390484941bdd6a1b37090602090a2600095845b8854881015613b6d57613aa7613a9289613910565b905460039190911b1c6001600160a01b031690565b9087821680158015613b64575b613b5957613ada613ad1613ac78c613937565b90549060031b1c90565b8554908a612696565b928315613b4d57600080516020614701833981519152613afc858a938a6143d3565b8115613b475750613b0b610753565b905b613b1c895192839289846139e8565b0390a3818110613b3b57600191613b3291611a46565b975b0196613a7d565b50506001600097613b34565b90613b0d565b50509760019150613b34565b509760019150613b34565b50308114613ab4565b939750505091508492935080613ba9575b505050507febe59370d8394b51bd9adb24f32a2ec30f22bd40aa11fd3d3247aaa13cfe8978600080a2565b613bb4613a9261395e565b93841693308503613bc6575b50613b7e565b81613be091600080516020614701833981519152946143d3565b9091908215613c0e5750613c01613bf5610753565b604051938493846139e8565b0390a33881818080613bc0565b613c0190613bf5565b50505050565b505050565b634e487b7160005260116020526024601cfd5b634e487b716000526020526024601cfd5b60008051602061452183398151915254600091825b828110613c685750505090565b60ff613c7382613982565b9054600391821b1c600052600080516020614761833981519152602052604060002001541680613cdd575b80613cc9575b613cb1575b600101613c5b565b92506001613cc1613ac785613982565b939050613ca9565b5083613cd7613ac783613982565b11613ca4565b5081613ceb613ac783613982565b10613c9e565b9190929460009594869560018060a01b038095169360405195602087019763334f25bd60e21b895286602489015216604487015260648601526084850152151560a4840152151560c4830152301460e482015260e48152613d5181610692565b519082305af1613d5f610b2b565b9015613d685750565b805115613d7757602081519101fd5b60405162461bcd60e51b815260206004820152602d60248201527f4f72646572426f6f6b3a206c69717569646174696f6e2074726164652065786560448201526c18dd5d1a5bdb8819985a5b1959609a1b6064820152608490fd5b600080516020614781833981519152805490600160401b8210156106725760018201808255821015611406576000908152602090200180546001600160a01b0319166001600160a01b03909216919091179055565b600080516020614641833981519152805490600160401b82101561067257600182018082558210156114065760005260206000200155565b9190613e7d6100d96000805160206148818339815191525460ff1690565b613c1d576001600160a01b0383169182158015613fc4575b613c175764e8d4a510009004908115613c1757613eb191611a69565b60005b60008051602061478183398151915254811015613f685782613edb610121613a9284613910565b14613ee857600101613eb4565b600080516020614661833981519152929350613f06613f2391613937565b613f1d84613f188385549060031b1c90565b61085f565b91611a7c565b6000805160206144a1833981519152613f52613f4083835461085f565b6000805160206144a183398151915255565b5490613f63604051928392836106d1565b0390a2565b50600080516020614661833981519152919260406000805160206147818339815191525410600014613fa657613f9d90613dd2565b613f2381613e27565b506000805160206144a1833981519152613f52613f4083835461085f565b50308314613e95565b919091801561401a57610bce92613fe3916125d3565b9015614011577fdb2199519cd329570c1873db66c1723211f1d2b07101caecdca9afade1b956da5490612587565b613a9890612587565b505050600090565b6000805160206147a183398151915254604080516020810192835260609390931b6001600160601b03191690830152605480830193909352918152608081016001600160401b038111828210176106725760405251902090565b9061408690612726565b9061409081612743565b9082546003830190815410600014614174576140ae90548454611a46565b83555b6001906001840192835482811460001461410f575060060154835560028401805490925014614105575b505b8154156140e8575050565b816000600292614100600383960160ff198154169055565b550155565b60009055386140db565b92805b614145575b5060060154600661412784612743565b0155600284019081541461413d575b50506140dd565b553880614136565b92600690838261415483612743565b01541461416d5761416490612743565b01549280614112565b9350614117565b50600083556140b1565b9061418890612772565b9061419281612743565b9082546003830190815410600014614227576141b090548454611a46565b83555b600190600184019283548281146000146141e857506006015483556002840180549092501461410557508154156140e8575050565b92805b6141ff575060060154600661412784612743565b92600690838261420e83612743565b01541461416d5761421e90612743565b015492806141eb565b50600083556141b3565b805490811561425b576000199182019161424b83836139d0565b909182549160031b1b1916905555565b634e487b7160e01b600052603160045260246000fd5b6001600160a01b031660009081527fdb2199519cd329570c1873db66c1723211f1d2b07101caecdca9afade1b956e4602052604090208054156119f15760005b815480821015613c1757836142c9613ac784866139d0565b146142d757506001016142b1565b906108f793506142e682611a37565b81106142f4575b5050614231565b61431661430f613ac761430961431c95611a37565b866139d0565b91846139d0565b90611a7c565b38806142ed565b906000806000805160206145e183398151915254905b818110614347575090925050565b60ff85614353836139a9565b929061436760039485925490831b1c612772565b01541691826143ba575b5050614380575b600101614339565b821580156143a6575b15614378579150600161439e613ac7846139a9565b929050614378565b50826143b4613ac7836139a9565b10614389565b9091506143c6836139a9565b9054911b1c118538614371565b9060018060a01b0360008051602061448183398151915254166000805160206147a183398151915254813b1561026b576000809461442760405197889687958694633ad0711960e11b865260048601610c6b565b03925af19081614451575b506144445761443f610b2b565b600091565b61444c610753565b600191565b61445a9061065f565b3861443256fe2dda06f2b81b44772d692c4c911430b62fabd494367e12f1069579ff7ed68c33db2199519cd329570c1873db66c1723211f1d2b07101caecdca9afade1b956d6db2199519cd329570c1873db66c1723211f1d2b07101caecdca9afade1b956ff6e04f17b1175152761b2b9ca5248ca6b9974e9ceddbef65f52a0429f6a3251b77f617c65fef7d9b926787ebe63642aedc5f53d65a9eb05c556011bdbaee46148b74d2185c8e0ab07abdacc0eaefa758c61cb78955c2bbc9b70bd6bbd543d52cbdb2199519cd329570c1873db66c1723211f1d2b07101caecdca9afade1b956e8db2199519cd329570c1873db66c1723211f1d2b07101caecdca9afade1b95707db2199519cd329570c1873db66c1723211f1d2b07101caecdca9afade1b9572ddb2199519cd329570c1873db66c1723211f1d2b07101caecdca9afade1b95705c5ab8a4336ee2a6f7829b8eec9a74b4b6193499c6bf7cc26fb68e818f31af5bddb2199519cd329570c1873db66c1723211f1d2b07101caecdca9afade1b956fadb2199519cd329570c1873db66c1723211f1d2b07101caecdca9afade1b956e94105ba83ee43962eb09e0ed29646ae389cd4c651b552f52ce356deabb7c48d16db2199519cd329570c1873db66c1723211f1d2b07101caecdca9afade1b956e6db2199519cd329570c1873db66c1723211f1d2b07101caecdca9afade1b956fe227d6129368e10cab8200cc2befcf67634c02eaa5496a949ceed8551c569ab73db2199519cd329570c1873db66c1723211f1d2b07101caecdca9afade1b95706bc01a36e2eb1c432ca57a786c226809d495182a9930be0ded288ce703afb7e9120778ce4f7a43679457c7c0d9d03f1b4433ae9c5788077b6c2a9571289d44c78db2199519cd329570c1873db66c1723211f1d2b07101caecdca9afade1b957088c847c19a8d1bac2cf601cbcaea36135e87b49012c86510f5f5cda955b8a7242db2199519cd329570c1873db66c1723211f1d2b07101caecdca9afade1b956ef0da13ee9f0ba0e5e906cde439466ea638c46953997c1c8c3150859a80e912cd6db2199519cd329570c1873db66c1723211f1d2b07101caecdca9afade1b956e2db2199519cd329570c1873db66c1723211f1d2b07101caecdca9afade1b956fddb2199519cd329570c1873db66c1723211f1d2b07101caecdca9afade1b956d7db2199519cd329570c1873db66c1723211f1d2b07101caecdca9afade1b956f9db2199519cd329570c1873db66c1723211f1d2b07101caecdca9afade1b95720db2199519cd329570c1873db66c1723211f1d2b07101caecdca9afade1b956fbdb2199519cd329570c1873db66c1723211f1d2b07101caecdca9afade1b956e7db2199519cd329570c1873db66c1723211f1d2b07101caecdca9afade1b9571fe7192d7f0cc8902f733c84dd2e3cac67d15cfb9898560990f929b2c74f25ee19db2199519cd329570c1873db66c1723211f1d2b07101caecdca9afade1b95700db2199519cd329570c1873db66c1723211f1d2b07101caecdca9afade1b956fca264697066735822122019f404e9219619e8ed6446125434763d8d4bae0fa9d266c40b7318908f78032964736f6c63430008160033",
  "linkReferences": {},
  "deployedLinkReferences": {}
}