{
  "_format": "hh-sol-artifact-1",
  "contractName": "OBOrderPlacementFacet",
  "sourceName": "src/diamond/facets/OBOrderPlacementFacet.sol",
  "abi": [
    {
      "inputs": [],
      "name": "NotContractOwner",
      "type": "error"
    },
    {
      "anonymous": false,
      "inputs": [
        {
          "indexed": true,
          "internalType": "uint256",
          "name": "orderId",
          "type": "uint256"
        },
        {
          "indexed": true,
          "internalType": "address",
          "name": "trader",
          "type": "address"
        },
        {
          "indexed": false,
          "internalType": "uint256",
          "name": "price",
          "type": "uint256"
        },
        {
          "indexed": false,
          "internalType": "uint256",
          "name": "amount",
          "type": "uint256"
        },
        {
          "indexed": false,
          "internalType": "bool",
          "name": "isBuy",
          "type": "bool"
        }
      ],
      "name": "OrderCancelled",
      "type": "event"
    },
    {
      "anonymous": false,
      "inputs": [
        {
          "indexed": true,
          "internalType": "uint256",
          "name": "oldOrderId",
          "type": "uint256"
        },
        {
          "indexed": true,
          "internalType": "uint256",
          "name": "newOrderId",
          "type": "uint256"
        },
        {
          "indexed": true,
          "internalType": "address",
          "name": "trader",
          "type": "address"
        },
        {
          "indexed": false,
          "internalType": "uint256",
          "name": "newPrice",
          "type": "uint256"
        },
        {
          "indexed": false,
          "internalType": "uint256",
          "name": "newAmount",
          "type": "uint256"
        }
      ],
      "name": "OrderModified",
      "type": "event"
    },
    {
      "anonymous": false,
      "inputs": [
        {
          "indexed": true,
          "internalType": "uint256",
          "name": "orderId",
          "type": "uint256"
        },
        {
          "indexed": true,
          "internalType": "address",
          "name": "trader",
          "type": "address"
        },
        {
          "indexed": false,
          "internalType": "uint256",
          "name": "price",
          "type": "uint256"
        },
        {
          "indexed": false,
          "internalType": "uint256",
          "name": "amount",
          "type": "uint256"
        },
        {
          "indexed": false,
          "internalType": "bool",
          "name": "isBuy",
          "type": "bool"
        },
        {
          "indexed": false,
          "internalType": "bool",
          "name": "isMarginOrder",
          "type": "bool"
        }
      ],
      "name": "OrderPlaced",
      "type": "event"
    },
    {
      "anonymous": false,
      "inputs": [
        {
          "indexed": true,
          "internalType": "uint256",
          "name": "orderId",
          "type": "uint256"
        },
        {
          "indexed": true,
          "internalType": "address",
          "name": "trader",
          "type": "address"
        },
        {
          "indexed": false,
          "internalType": "uint256",
          "name": "price",
          "type": "uint256"
        },
        {
          "indexed": false,
          "internalType": "uint256",
          "name": "amount",
          "type": "uint256"
        },
        {
          "indexed": false,
          "internalType": "bool",
          "name": "isBuy",
          "type": "bool"
        },
        {
          "indexed": false,
          "internalType": "bool",
          "name": "isMarginOrder",
          "type": "bool"
        }
      ],
      "name": "OrderRested",
      "type": "event"
    },
    {
      "anonymous": false,
      "inputs": [
        {
          "indexed": false,
          "internalType": "uint256",
          "name": "price",
          "type": "uint256"
        },
        {
          "indexed": false,
          "internalType": "bool",
          "name": "isBuy",
          "type": "bool"
        }
      ],
      "name": "PriceLevelPruned",
      "type": "event"
    },
    {
      "inputs": [],
      "name": "adminCancelAllRestingOrders",
      "outputs": [],
      "stateMutability": "nonpayable",
      "type": "function"
    },
    {
      "inputs": [
        {
          "internalType": "uint256",
          "name": "orderId",
          "type": "uint256"
        }
      ],
      "name": "adminCancelOrder",
      "outputs": [],
      "stateMutability": "nonpayable",
      "type": "function"
    },
    {
      "inputs": [
        {
          "internalType": "uint256",
          "name": "orderId",
          "type": "uint256"
        }
      ],
      "name": "cancelOrder",
      "outputs": [],
      "stateMutability": "nonpayable",
      "type": "function"
    },
    {
      "inputs": [
        {
          "internalType": "address",
          "name": "trader",
          "type": "address"
        },
        {
          "internalType": "uint256",
          "name": "orderId",
          "type": "uint256"
        }
      ],
      "name": "cancelOrderBy",
      "outputs": [],
      "stateMutability": "nonpayable",
      "type": "function"
    },
    {
      "inputs": [
        {
          "internalType": "uint256",
          "name": "orderId",
          "type": "uint256"
        },
        {
          "internalType": "uint256",
          "name": "price",
          "type": "uint256"
        },
        {
          "internalType": "uint256",
          "name": "amount",
          "type": "uint256"
        }
      ],
      "name": "modifyOrder",
      "outputs": [
        {
          "internalType": "uint256",
          "name": "newOrderId",
          "type": "uint256"
        }
      ],
      "stateMutability": "nonpayable",
      "type": "function"
    },
    {
      "inputs": [
        {
          "internalType": "address",
          "name": "trader",
          "type": "address"
        },
        {
          "internalType": "uint256",
          "name": "orderId",
          "type": "uint256"
        },
        {
          "internalType": "uint256",
          "name": "price",
          "type": "uint256"
        },
        {
          "internalType": "uint256",
          "name": "amount",
          "type": "uint256"
        }
      ],
      "name": "modifyOrderBy",
      "outputs": [
        {
          "internalType": "uint256",
          "name": "newOrderId",
          "type": "uint256"
        }
      ],
      "stateMutability": "nonpayable",
      "type": "function"
    },
    {
      "inputs": [
        {
          "internalType": "uint256",
          "name": "price",
          "type": "uint256"
        },
        {
          "internalType": "uint256",
          "name": "amount",
          "type": "uint256"
        },
        {
          "internalType": "bool",
          "name": "isBuy",
          "type": "bool"
        }
      ],
      "name": "placeLimitOrder",
      "outputs": [
        {
          "internalType": "uint256",
          "name": "orderId",
          "type": "uint256"
        }
      ],
      "stateMutability": "nonpayable",
      "type": "function"
    },
    {
      "inputs": [
        {
          "internalType": "address",
          "name": "trader",
          "type": "address"
        },
        {
          "internalType": "uint256",
          "name": "price",
          "type": "uint256"
        },
        {
          "internalType": "uint256",
          "name": "amount",
          "type": "uint256"
        },
        {
          "internalType": "bool",
          "name": "isBuy",
          "type": "bool"
        }
      ],
      "name": "placeLimitOrderBy",
      "outputs": [
        {
          "internalType": "uint256",
          "name": "orderId",
          "type": "uint256"
        }
      ],
      "stateMutability": "nonpayable",
      "type": "function"
    },
    {
      "inputs": [
        {
          "internalType": "uint256",
          "name": "price",
          "type": "uint256"
        },
        {
          "internalType": "uint256",
          "name": "amount",
          "type": "uint256"
        },
        {
          "internalType": "bool",
          "name": "isBuy",
          "type": "bool"
        }
      ],
      "name": "placeMarginLimitOrder",
      "outputs": [
        {
          "internalType": "uint256",
          "name": "orderId",
          "type": "uint256"
        }
      ],
      "stateMutability": "nonpayable",
      "type": "function"
    },
    {
      "inputs": [
        {
          "internalType": "address",
          "name": "trader",
          "type": "address"
        },
        {
          "internalType": "uint256",
          "name": "price",
          "type": "uint256"
        },
        {
          "internalType": "uint256",
          "name": "amount",
          "type": "uint256"
        },
        {
          "internalType": "bool",
          "name": "isBuy",
          "type": "bool"
        }
      ],
      "name": "placeMarginLimitOrderBy",
      "outputs": [
        {
          "internalType": "uint256",
          "name": "orderId",
          "type": "uint256"
        }
      ],
      "stateMutability": "nonpayable",
      "type": "function"
    },
    {
      "inputs": [
        {
          "internalType": "uint256",
          "name": "amount",
          "type": "uint256"
        },
        {
          "internalType": "bool",
          "name": "isBuy",
          "type": "bool"
        }
      ],
      "name": "placeMarginMarketOrder",
      "outputs": [
        {
          "internalType": "uint256",
          "name": "filledAmount",
          "type": "uint256"
        }
      ],
      "stateMutability": "nonpayable",
      "type": "function"
    },
    {
      "inputs": [
        {
          "internalType": "address",
          "name": "trader",
          "type": "address"
        },
        {
          "internalType": "uint256",
          "name": "amount",
          "type": "uint256"
        },
        {
          "internalType": "bool",
          "name": "isBuy",
          "type": "bool"
        }
      ],
      "name": "placeMarginMarketOrderBy",
      "outputs": [
        {
          "internalType": "uint256",
          "name": "filledAmount",
          "type": "uint256"
        }
      ],
      "stateMutability": "nonpayable",
      "type": "function"
    },
    {
      "inputs": [
        {
          "internalType": "uint256",
          "name": "amount",
          "type": "uint256"
        },
        {
          "internalType": "bool",
          "name": "isBuy",
          "type": "bool"
        },
        {
          "internalType": "uint256",
          "name": "slippageBps",
          "type": "uint256"
        }
      ],
      "name": "placeMarginMarketOrderWithSlippage",
      "outputs": [
        {
          "internalType": "uint256",
          "name": "filledAmount",
          "type": "uint256"
        }
      ],
      "stateMutability": "nonpayable",
      "type": "function"
    },
    {
      "inputs": [
        {
          "internalType": "uint256",
          "name": "amount",
          "type": "uint256"
        },
        {
          "internalType": "bool",
          "name": "isBuy",
          "type": "bool"
        }
      ],
      "name": "placeMarketOrder",
      "outputs": [
        {
          "internalType": "uint256",
          "name": "filledAmount",
          "type": "uint256"
        }
      ],
      "stateMutability": "nonpayable",
      "type": "function"
    },
    {
      "inputs": [
        {
          "internalType": "address",
          "name": "trader",
          "type": "address"
        },
        {
          "internalType": "uint256",
          "name": "amount",
          "type": "uint256"
        },
        {
          "internalType": "bool",
          "name": "isBuy",
          "type": "bool"
        }
      ],
      "name": "placeMarketOrderBy",
      "outputs": [
        {
          "internalType": "uint256",
          "name": "filledAmount",
          "type": "uint256"
        }
      ],
      "stateMutability": "nonpayable",
      "type": "function"
    },
    {
      "inputs": [
        {
          "internalType": "uint256",
          "name": "amount",
          "type": "uint256"
        },
        {
          "internalType": "bool",
          "name": "isBuy",
          "type": "bool"
        },
        {
          "internalType": "uint256",
          "name": "slippageBps",
          "type": "uint256"
        }
      ],
      "name": "placeMarketOrderWithSlippage",
      "outputs": [
        {
          "internalType": "uint256",
          "name": "filledAmount",
          "type": "uint256"
        }
      ],
      "stateMutability": "nonpayable",
      "type": "function"
    }
  ],
  "bytecode": "0x60806040523461001b5760405161591762000021823961591790f35b600080fdfe6080604052600436101561001257600080fd5b60003560e01c80630419e423146101125780630cdd46111461010d5780631b295ea6146101085780631c1a2f7c146101035780632bf1f034146100fe578063434cae61146100f9578063514fcac7146100f45780638ee908e4146100ef5780638f68da58146100ea5780639ae10a1f146100e5578063b50d2373146100e0578063b997fc21146100db578063db977195146100d6578063e14090b9146100d1578063e59ac135146100cc5763f693baa50361011757610490565b610474565b610458565b61043c565b610424565b6103fd565b6103cc565b6103b0565b610375565b61035d565b61032d565b6102e8565b6102a1565b610269565b610221565b6101b2565b600080fd5b6001600160a01b031690565b90565b6101348161011c565b0361011757565b905035906101488261012b565b565b80610134565b905035906101488261014a565b801515610134565b905035906101488261015d565b60808183031261011757610186828261013b565b926101286101978460208501610150565b9360606101a78260408701610150565b9401610165565b9052565b34610117576101e16101d16101c8366004610172565b92919091610876565b6040519182918290815260200190565b0390f35b608081830312610117576101f9828261013b565b9261012861020a8460208501610150565b93606061021a8260408701610150565b9401610150565b34610117576101e16101d16102373660046101e5565b92919091610d7e565b9091606082840312610117576101286102598484610150565b9360406101a78260208701610150565b34610117576101e16101d161027f366004610240565b91610e9b565b91906040838203126101175761012890602061021a828661013b565b34610117576102ba6102b4366004610285565b90611198565b604051005b9091606082840312610117576101286102d88484610150565b93604061021a8260208701610165565b34610117576101e16101d16102fe3660046102bf565b916114b7565b90916060828403126101175761012861031d8484610150565b93604061021a8260208701610150565b34610117576101e16101d1610343366004610304565b91611772565b906020828203126101175761012891610150565b34610117576102ba610370366004610349565b61177f565b34610117576101e16101d161038b366004610172565b92919091611a20565b9190604083820312610117576101289060206101a78286610150565b34610117576101e16101d16103c6366004610394565b90611c0e565b34610117576102ba6103df366004610349565b611e19565b909160608284031261011757610128610259848461013b565b34610117576101e16101d16104133660046103e4565b91611fec565b600091031261011757565b3461011757610434366004610419565b6102ba6124ec565b34610117576101e16101d16104523660046103e4565b91612601565b34610117576101e16101d161046e366004610240565b91612682565b34610117576101e16101d161048a3660046102bf565b91612790565b34610117576101e16101d16104a6366004610394565b9061287e565b6101289061011c906001600160a01b031682565b610128906104ac565b610128906104c0565b0190565b156104dd57565b60405162461bcd60e51b8152602060048201526002602482015261736f60f01b6044820152606490fd5b906101289493929161053261052361051e306104c9565b61011c565b61052c3361011c565b146104d6565b6105a6565b6101286101286101289290565b1561054b57565b60405162461bcd60e51b8152602060048201526002602482015261070360f41b6044820152606490fd5b1561057c57565b60405162461bcd60e51b8152602060048201526002602482015261061360f41b6044820152606490fd5b90610128949392916105c36105bb6000610537565b845b11610544565b6105d86105d06000610537565b855b11610575565b6106ee565b6101289061011c565b61012890546105dd565b6101289081565b61012890546105f0565b634e487b7160e01b600052604160045260246000fd5b90601f01601f191681019081106001600160401b0382111761063857604052565b610601565b905051906101488261015d565b90602082820312610117576101289161063d565b6040513d6000823e3d90fd5b1561067157565b60405162461bcd60e51b815260206004820152600b60248201526a13d08e881cd95d1d1b195960aa1b6044820152606490fd5b156106ab57565b60405162461bcd60e51b815260206004820152601b60248201527a4f423a206368616c6c656e67652077696e646f772061637469766560281b6044820152606490fd5b9061074594939291602061070061288a565b61071d6001610716610711846105e6565b6104c9565b92016105f7565b9061072760405190565b9889928391829163d40afcb160e01b5b835260048301526024820190565b03915afa80156107b05761076661076b916101289860009161078757501590565b61066a565b61078261077d610779612914565b1590565b6106a4565b6107e6565b610779915060203d6020116107a9575b6107a18183610617565b81019061064a565b503d610797565b61065e565b156107bc57565b60405162461bcd60e51b8152602060048201526002602482015261363b60f11b6044820152606490fd5b5061012893909260019261083483826107fd61288a565b600681015460ff16801561084c575b610815906107b5565b859064e8d4a5100061082681610537565b885b1061083a575b50612999565b94612c34565b610845919250610537565b903861082e565b5061081561085c600483016105f7565b61086e61086a612710610537565b9190565b14905061080c565b610128939291906000610507565b906101289493929161089b61052361051e306104c9565b90610128949392916108b66108b06000610537565b856105bd565b6108c96108c36000610537565b866105d2565b906108db94939291602061070061288a565b03915afa80156107b0576107666108fc916101289860009161078757501590565b61090a61077d610779612914565b610ab6565b9061091990610537565b600052602052604060002090565b61011c6101286101289290565b61012890610927565b1561094457565b60405162461bcd60e51b81526020600482015260026024820152616e6f60f01b6044820152606490fd5b1561097557565b60405162461bcd60e51b81526020600482015260026024820152616e7760f01b6044820152606490fd5b6101ae9061011c565b9160206101489294936109c36040820196600083019061099f565b0152565b9160001960089290920291821b911b5b9181191691161790565b91906109f26101286109fa93610537565b9083546109c7565b9055565b610148916000916109e1565b6000600961014892610a1e838083016109fe565b826001820155610a3183600283016109fe565b610a3e83600383016109fe565b826004820155610a5183600583016109fe565b610a5e83600683016109fe565b610a6b83600783016109fe565b826008820155016109fe565b634e487b7160e01b600052600060045260246000fd5b90600003610a9e5761014890610a0a565b610a77565b9081526040810192916101489160200152565b50909392610ac261288a565b600b8101610ad3610128888361090f565b9060018201610b21610b0f610ae7836105e6565b92610b0a600094610b03610afd61051e88610934565b9161011c565b141561093d565b6105e6565b610b1b610afd8961011c565b1461096e565b8685610b31600486015460ff1690565b928b610b41600888015460ff1690565b95610b4e600789016105f7565b978615610d6357610b646002610b6b92016105f7565b838b613150565b86610b77838d8c6131f3565b610c1b575b95610bbe83610bb984610bb0859a999897610bab6000805160206158628339815191529f98610bcb9f9e61090f565b610a8d565b6017860161090f565b6109fe565b610c03575b509088612c34565b91610be8610be2610bdc8599610537565b94610537565b946104c9565b94610bfe610bf560405190565b92839283610aa3565b0390a4565b83955090610c12939291612999565b91878638610bc3565b9695949350610c2d91925089886132fb565b81870190610c3d610711836105e6565b9163eb2a214292803b1561011757610c779285918d83610c5c60405190565b809781958294610c6c8c60e01b90565b8452600484016109a8565b03925af19081156107b057610c959261071192610d47575b506105e6565b610c9e8d610537565b91813b15610117578391610c6c838d93610cc7610cba60405190565b9788968795869460e01b90565b03925af19687156107b05784610bbe848f808f97610bb0908f986000805160206158628339815191529f94610bcb9f610bab92610bb997610d1b575b50985050505050949b50509394959697985050610b7c565b610d3a90853d8711610d40575b610d328183610617565b810190610419565b38610d03565b503d610d28565b610d5d90863d8811610d4057610d328183610617565b38610c8f565b610d726002610d7992016105f7565b838b6130ed565b610b6b565b610128939291906000610884565b90610128939291610da6610da06000610537565b836105bd565b610db9610db36000610537565b846105d2565b90610df99392916020610dca61288a565b610ddb6001610716610711846105e6565b90610de560405190565b9788928391829163d40afcb160e01b610737565b03915afa80156107b057610766610e1a916101289760009161078757501590565b610e2861077d610779612914565b92600191926101289450610e6e8285610e3f61288a565b600681015460ff168015610e75575b610e57906107b5565b849064e8d4a51000610e6881610537565b87610828565b9333612c34565b50610e57610e85600483016105f7565b610e9361086a612710610537565b149050610e4e565b6101289291906000610d8c565b9061014891610ebc61052361051e306104c9565b610f18565b15610ec857565b60405162461bcd60e51b815260206004820152600260248201526127a160f11b6044820152606490fd5b908152606081019392610148929091604091610f10905b6020830152565b019015159052565b610f2061288a565b600b8101610f31610128858361090f565b6001810193610f3f856105e6565b94600095610f52610afd61051e89610934565b141580611177575b610f6390610ec1565b6004830190610f73825460ff1690565b1561115c57610f8e610f87600286016105f7565b8988613150565b600884015460ff1661102e575b5085610bab888096601796866000805160206158c283398151915261102097610fcc6110269f8e9b610bb99f6131f3565b610fef610fe76003610fe0600288016105f7565b96016105f7565b915460ff1690565b93611018611005610fff89610537565b956104c9565b9561100f60405190565b93849384610ef2565b0390a361090f565b0161090f565b6101486133ab565b9693949190611046856110408a6105e6565b856132fb565b878401611055610711826105e6565b63eb2a2142926110648c6105e6565b90823b156101175761108c928c928361107c60405190565b809681958294610c6c8c60e01b90565b03925af180156107b0576110b2926110ac926107119261114657506105e6565b996105e6565b6110bb87610537565b99803b1561011757610c6c8a80946110e26110d560405190565b9e8f968795869460e01b90565b03925af19081156107b05785610bb997601796611020956000805160206158c2833981519152610bab956110269e8e9861112a575b5097505096995096509650985050610f9b565b61114090893d8b11610d4057610d328183610617565b38611117565b610d5d908d803d10610d4057610d328183610617565b61117261116b600286016105f7565b89886130ed565b610f8e565b50610f63611184826105e6565b611190610afd8561011c565b149050610f5a565b9061014891610ea8565b906111b39392916020610dca61288a565b03915afa80156107b0576107666111d4916101289760009161078757501590565b6111e261077d610779612914565b6112e0565b156111ee57565b60405162461bcd60e51b81526020600482015260026024820152611cdb60f21b6044820152606490fd5b1561121f57565b60405162461bcd60e51b81526020600482015260026024820152611b9b60f21b6044820152606490fd5b634e487b7160e01b600052601160045260246000fd5b9190820180921161126c57565b611249565b905051906101488261014a565b906020828203126101175761012891611271565b602081019291610148919061099f565b156112a957565b60405162461bcd60e51b81526020600482015260026024820152616c6360f01b6044820152606490fd5b9190820391821161126c57565b5090916112fa6112f1611388610537565b825b11156111e7565b61130261288a565b600681015460ff168015611491575b61131a906107b5565b6000936113296105d086610537565b801561147f5761133b601183016105f7565b945b61135261134982610537565b875b1415611218565b8115611479576113806127106113796113738761136e84610537565b61125f565b91610537565b9088613629565b955b61139d61071183611396868b8b338b6137a1565b96016105e6565b9660206113a960405190565b98899063bb69bc7160e01b825281806113c53360048301611292565b03915afa9788156107b057610128986001966113ec928692611440575b50905b10156112a2565b831561143657945b831561140d57505061140590610537565b935b336138cb565b611430925061142a6113736127109261142584610537565b6112d3565b91613629565b93611407565b50600019946113f4565b6113e591925061146a61086a9160203d602011611472575b6114628183610617565b81019061127e565b9291506113e2565b503d611458565b85611382565b61148b601083016105f7565b9461133d565b5061131a6114a1600483016105f7565b6114af61086a612710610537565b149050611311565b61012892919060006111a2565b906101289392916114d86105bb6000610537565b6114e56105d06000610537565b906114f69392916020610dca61288a565b03915afa80156107b057610766611517916101289760009161078757501590565b61152561077d610779612914565b50929161153061288a565b600b810190611542610128878461090f565b90600182019061157961156d611557846105e6565b93610b0a600095610b03610afd61051e89610934565b610b1b610afd3361011c565b8585611589600486015460ff1690565b92611598600887015460ff1690565b946115a5600788016105f7565b968515611757576115bb60026115c292016105f7565b8d84613150565b8b866115cf8233866131f3565b61163f575b81610bb982610bb08a95610bab6115ee966115fb9f61090f565b611627575b509033612c34565b60008051602061586283398151915261161d6116178397610537565b92610537565b92610be8336104c9565b83955090611636939291612999565b918585386115f3565b90935061164f91925033836132fb565b9082810191611660610711846105e6565b9263eb2a214293803b156101175761169b869391849261167f60405190565b95868094819361168f8c60e01b90565b835233600484016109a8565b03925af19081156107b0576116b8926107119261174157506105e6565b916116c28c610537565b833b15610117576116e99361168f8680946116dc60405190565b9788958694859360e01b90565b03925af19687156107b0576115ee84610bb98e610bb08e98610bab8f996115fb9f9885918f9a611725575b509f505050505092505091506115d4565b61173b90853d8711610d4057610d328183610617565b38611714565b610d5d90873d8911610d4057610d328183610617565b611766600261176d92016105f7565b8d846130ed565b6115c2565b61012892919060006114c4565b61178761288a565b90600b82019061179a610128828461090f565b9260018401926117a9846105e6565b936117bf600095610b03610afd61051e89610934565b6117cb61156d826105e6565b60048601906117db825460ff1690565b15611978576117f66117ef600289016105f7565b8686613150565b600887015460ff1661186d575b509161102085610bab8660179581976110269b611824610bb99b338a6131f3565b6000805160206158c283398151915261185661184e6003611847600286016105f7565b94016105f7565b935460ff1690565b9261186086610537565b92611018611005336104c9565b959392906118848461187e896105e6565b846132fb565b868301611893610711826105e6565b63eb2a2142926118a28b6105e6565b90823b15610117576118ba928b928361107c60405190565b03925af180156107b0576118e0926118da926107119261196257506105e6565b986105e6565b6118e986610537565b98803b1561011757610c6c89809461191061190360405190565b9d8e968795869460e01b90565b03925af19485156107b057610bab85601795611020948a946110269c610bb99b611946575b509b50959750955096505050611803565b61195c90873d8911610d4057610d328183610617565b38611935565b610d5d908c8d3d10610d4057610d328183610617565b61198e611987600289016105f7565b86866130ed565b6117f6565b90610128949392916119aa61052361051e306104c9565b90610128949392916119bf6105bb6000610537565b6119cc6105d06000610537565b906119de94939291602061070061288a565b03915afa80156107b0576107666119ff916101289860009161078757501590565b611a0d61077d610779612914565b5061012893909260009261083484610537565b610128939291906000611993565b90611a6d92916020611a3e61288a565b611a4f6001610716610711846105e6565b90611a5960405190565b9687928391829163d40afcb160e01b610737565b03915afa80156107b057610766611a8e916101289660009161078757501590565b611a9c61077d610779612914565b50611aa561288a565b600681015460ff168015611be8575b611abd906107b5565b600092611acc610db385610537565b8015611bd657611ade601183016105f7565b905b611af2611aec86610537565b8361134b565b8015611bcf57611b20612710611b19611373611b10600888016105f7565b61136e84610537565b9084613629565b945b611b2f82878733886137a1565b92611b3e6107118387016105e6565b966020611b4a60405190565b98899063bb69bc7160e01b82528180611b663360048301611292565b03915afa9788156107b05761012898600196611b899286926114405750906113e5565b8315611bc557945b8315611ba257505061140590610537565b611430925061142a611373611bbc600861271094016105f7565b61142584610537565b5060001994611b91565b8194611b22565b611be2601083016105f7565b90611ae0565b50611abd611bf8600483016105f7565b611c0661086a612710610537565b149050611ab4565b61012891906000611a2e565b61014890611c26613a3d565b611c2e61288a565b600b810190611c40610128848461090f565b916001830192611c4f846105e6565b93611c65600095610b03610afd61051e89610934565b6004820190611c75825460ff1690565b15611dfe57611c90611c89600285016105f7565b8887613150565b600883015460ff16611cee575b85610bab888096601796610bb999966000805160206158c2833981519152611cd9886110269f610b0a90611cd36110209c6105e6565b8d6131f3565b91610fef610fe76003610fe0600288016105f7565b95929390611cff8461187e896105e6565b868301611d0e610711826105e6565b9063eb2a214292611d1e8b6105e6565b90833b1561011757611d36938b9283610c5c60405190565b03925af19081156107b057611d539261071192611de857506105e6565b90611d5d896105e6565b611d6687610537565b92803b1561011757610c6c8a8094611d80610cba60405190565b03925af180156107b05785610bb997601796611020956000805160206158c2833981519152611cd96110269e8e98610bab98611dcc575b50985050509699509650965098505050611c9d565b611de2908a3d8c11610d4057610d328183610617565b38611db7565b610d5d908b3d8d11610d4057610d328183610617565b611e14611e0d600285016105f7565b88876130ed565b611c90565b61014890611c1a565b90610128939291611e3861052361051e306104c9565b90611e499392916020610dca61288a565b03915afa80156107b057610766611e6a916101289760009161078757501590565b611e7861077d610779612914565b5090611e8261288a565b90611e91600683015460ff1690565b8015611fc6575b611ea1906107b5565b600093611eb6611eb086610537565b836105d2565b8015611fb457611ec8601184016105f7565b915b611edc611ed687610537565b8461134b565b8115611fad57611f01612710611efa611373611b10600889016105f7565b9085613629565b955b611f1083888489896137a1565b93611f1f6107118388016105e6565b976020611f2b60405190565b998a9063bb69bc7160e01b82528180611f478d60048301611292565b03915afa9889156107b05761012899600197611f6a9286926114405750906113e5565b8415611fa357955b8415611f89575050611f8390610537565b946138cb565b611f83925061142a611373611bbc600861271094016105f7565b5060001995611f72565b8295611f03565b611fc0601084016105f7565b91611eca565b50611ea1611fd6600484016105f7565b611fe461086a612710610537565b149050611e98565b6101289291906000611e22565b612001613a3d565b61014861205d565b634e487b7160e01b600052603260045260246000fd5b805482101561204257612039600191600052602060002090565b91020190600090565b612009565b610128916008021c81565b906101289154612047565b61206561288a565b90600061207181610537565b60128401612080610128825490565b8210156122d8576120948261209a9261201f565b90612052565b926120ab61012885600c880161090f565b6120bc610779600383015460ff1690565b6122cd5760016120cc91016105f7565b6120d584610537565b81146122cd57600b860190846120ee610128838561090f565b926120fb600685016105f7565b9360018101612109816105e6565b612118610afd61051e87610934565b03612128575b50505050506120cc565b6121338a868d613150565b8a612142600884015460ff1690565b6121b9575b610bab86610bb995819561217086610b0a6121af9c8c9861216a6121a69b6105e6565b906131f3565b6000805160206158c283398151915261218b600284016105f7565b92610fef600461219d600384016105f7565b92015460ff1690565b60178a0161090f565b388481808061211e565b509250926121d0816121ca856105e6565b8c6132fb565b93888b01946121e1610711876105e6565b9563eb2a2142966121f1876105e6565b813b15610117578c91610c6c838b61221861220b60405190565b9889968795869460e01b90565b03925af19081156107b057612235926107119261114657506105e6565b9461223f856105e6565b61224884610537565b96803b1561011757610c6c8c809461226f61226260405190565b9b8c968795869460e01b90565b03925af19384156107b057610bab83610bb9956121a6948f8e9995610b0a85612170936121af9e8e9a6122b1575b509850505096505095509550965050612147565b6122c7908b3d8d11610d4057610d328183610617565b3861229d565b509250600101612071565b50506122e381610537565b601384016122f2610128825490565b8210156124df57612094826123069261201f565b9261231761012885600d880161090f565b612328610779600383015460ff1690565b6124d457600161233891016105f7565b61234184610537565b81146124d457600b8601908461235a610128838561090f565b92612367600685016105f7565b9360018101612375816105e6565b612384610afd61051e87610934565b03612394575b5050505050612338565b61239f8a868d6130ed565b8a6123ae600884015460ff1690565b6123e0575b610bab86610bb995819561217086610b0a6123d69c8c9861216a6121a69b6105e6565b388481808061238a565b509250926123f1816121ca856105e6565b93888b0194612402610711876105e6565b9563eb2a214296612412876105e6565b813b15610117578c91610c6c838b61242c61220b60405190565b03925af19081156107b057612449926107119261114657506105e6565b94612453856105e6565b61245c84610537565b96803b1561011757610c6c8c809461247661226260405190565b03925af19384156107b057610bab83610bb9956121a6948f8e9995610b0a85612170936123d69e8e9a6124b8575b5098505050965050955095509650506123b3565b6124ce908b3d8d11610d4057610d328183610617565b386124a4565b5092506001016122e3565b50505090506101486133ab565b610148611ff9565b9061012893929161250a61052361051e306104c9565b9061251b9392916020610dca61288a565b03915afa80156107b05761076661253c916101289760009161078757501590565b61254a61077d610779612914565b5061012892909161255961288a565b9160009161256f61256984610537565b826105d2565b81156125ef57612581601185016105f7565b935b61259561258f85610537565b8661134b565b82156125e6576125ba6127106125b3611373611b10600886016105f7565b9087613629565b945b83156125cd575050611f8383610537565b611f839161142a611373611bbc600861271094016105f7565b600019946125bc565b6125fb601085016105f7565b93612583565b61012892919060006124f4565b90610128939291612622610da06000610537565b61262f610db36000610537565b906126409392916020610dca61288a565b03915afa80156107b057610766612661916101289760009161078757501590565b61266f61077d610779612914565b92600091926101289450610e6e83610537565b610128929190600061260e565b906126a09392916020610dca61288a565b03915afa80156107b0576107666126c1916101289760009161078757501590565b6126cf61077d610779612914565b506101289290916126ea6126e4611388610537565b836112f3565b6126f261288a565b906000916127026108c384610537565b811561277e57601161271491016105f7565b925b61272861272284610537565b8561134b565b81156127755761274b6127106127446113738461136e84610537565b9086613629565b935b821561275e57505061140582610537565b6114309161142a6113736127109261142584610537565b6000199361274d565b601061278a91016105f7565b92612716565b610128929190600061268f565b906127ad92916020611a3e61288a565b03915afa80156107b0576107666127ce916101289660009161078757501590565b6127dc61077d610779612914565b50610128916127e961288a565b906000906127f96105d083610537565b801561286c5761280b601184016105f7565b925b61281961272284610537565b811561286357612837612710612744611373611b10600886016105f7565b935b821561284a57505061140582610537565b6114309161142a611373611bbc600861271094016105f7565b60001993612839565b612878601084016105f7565b9261280d565b6101289190600061279d565b7fdb2199519cd329570c1873db66c1723211f1d2b07101caecdca9afade1b956d690565b906101486128bb60405190565b9283610617565b6001600160401b03811161063857602090601f01601f19160190565b906128f06128eb836128c2565b6128ae565b918252565b3d1561290f576129043d6128de565b903d6000602084013e565b606090565b600080612920306104c9565b604051631304302560e01b60208201526004815290612940602483610617565b602082519201905afa6129596129546128f5565b911590565b8015612983575b61297d57806020612972610128935190565b81830101910161064a565b50600090565b50805161299361086a6020610537565b10612960565b9092916129a66000610537565b84146129f357610128936129c59161142a670de0b6b3a7640000610537565b91156129e25760046129d791016105f7565b61142a612710610537565b506129ee613a98610537565b6129d7565b505050506101286000610537565b90600019906109d7565b90612a1b6101286109fa92610537565b8254612a01565b600019811461126c5760010190565b6109c361014894612a5a606094989795612a53608086019a600087019061099f565b6020850152565b6040830152565b6101286101406128ae565b906101ae9061011c565b6101ae90610537565b610f1061014894612aa8606094989795612a9e608086019a6000870152565b6020850190612a76565b15156040830152565b6040906109c36101489496959396610f096060840198600085019061099f565b610128905161011c565b906001600160a01b03906109d7565b90612afa6101286109fa926104c9565b8254612adb565b9060ff906109d7565b90612b1a6101286109fa92151590565b8254612b01565b6009612c0461012061014894612b41612b3b600083015190565b86612a0b565b612b59612b5060208301612ad1565b60018701612aea565b612b70612b67604083015190565b60028701612a0b565b612b87612b7e606083015190565b60038701612a0b565b612ba0612b976080830151151590565b60048701612b0a565b612bb7612bae60a083015190565b60058701612a0b565b612bce612bc560c083015190565b60068701612a0b565b612be5612bdc60e083015190565b60078701612a0b565b612bff612bf6610100830151151590565b60088701612b0a565b015190565b9101612a0b565b9061014891612b21565b610f1061014894612aa8606094989795612a53608086019a6000870152565b9293959490612c41600090565b5086612c4b61288a565b93600f850190612c5a826105f7565b600090612c6961086a83610537565b146130d5575b612c8b612c7b846105f7565b93612c8585612a22565b90612a0b565b829a61304b575b612c9a612a61565b91612ca58483850152565b612cb28960208501612a6c565b612cbd866040850152565b612cc8816060850152565b8915156080840152612cdb4260a0850152565b612cfa612ce783610537565b97612cf38960c0870152565b60e0850152565b841515610100840152612d0f87610120850152565b808a156130395750612d229083896142a1565b955b861115612f115783612d37876060850152565b612ddd575b50612d908287612d6e612d9694612d69612dcf9897600b6000805160206158a28339815191529d0161090f565b612c0b565b612d79828b83614936565b8787838d15612dd457612d8b93614b31565b610537565b966104c9565b968787600080516020615882833981519152612db160405190565b80612dbf87878c8c85612c15565b0390a36040515b94859485612c15565b0390a3565b612d8b936149d5565b909291612dec8986888a612999565b90612df88260e0870152565b612e03818a8a6132fb565b83890190612e13610711836105e6565b91632b9c465a92803b1561011757858791612e50948f8490612e3460405190565b97889586948593612e458d60e01b90565b855260048501612ab1565b03925af19081156107b057612e6d9261071192612efb57506105e6565b92612e7783610537565b93803b1561011757612e45868094612ea08f95612e9360405190565b998a978896879560e01b90565b03925af19788156107b057612d6e612dcf96612d9695612d90956000805160206158a28339815191529c612ede575b50509450509750929350612d3c565b81612ef492903d10610d4057610d328183610617565b3880612ecf565b610d5d90883d8a11610d4057610d328183610617565b945050909384612f4f575b5060008051602061588283398151915293612f3c612d90612dcf93610537565b96612f4660405190565b94859485612a7f565b9383612f5c8388886132fb565b950194612f6b610711876105e6565b9563eb2a214296803b1561011757888791610c6c838b612f8d61220b60405190565b03925af19081156107b057612faa9261071192612efb57506105e6565b94612fb483610537565b863b1561011757612fe796612fdb878094612fce60405190565b9a8b958694859360e01b90565b83528d600484016109a8565b03925af19485156107b057612d90612dcf93612f3c926000805160206158828339815191529861301d575b509350505093612f1c565b61303390883d8a11610d4057610d328183610617565b38613012565b61304591508389613c32565b95612d24565b6130568389896132fb565b613064610711838a016105e6565b9061307160018a016105f7565b823b156101175788928492838d6130a461308a60405190565b97889687958694630beb045360e21b865260048601612a31565b03925af180156107b0576130b9575b50612c92565b6130cf90823d8411610d4057610d328183610617565b386130b3565b6130e86130e26001610537565b84612a0b565b612c6f565b91906000826130fc9285614bed565b601182019061310d610128836105f7565b8114908161312b575b5061311f575050565b612c8561014892614c84565b61314a9150600361314261077992600d870161090f565b015460ff1690565b38613116565b919060018261315f9285614bed565b6010820190613170610128836105f7565b8114908161318e575b50613182575050565b612c8561014892614d99565b6131a59150600361314261077992600c870161090f565b38613179565b90610919906104c9565b634e487b7160e01b600052603160045260246000fd5b805480156131ee5760001901906131eb6131e5838361201f565b906109fe565b55565b6131b5565b91909160588101916132166132118261320c87876131ab565b61090f565b6105f7565b6132206000610537565b81146132d4578461328461320c92613294956132586101286101489a600e61325161324b6001610537565b876112d3565b94016131ab565b91613274613264845490565b61326e6001610537565b906112d3565b808303613299575b5050506131cb565b61328e6000610537565b946131ab565b612a0b565b6132bc6132c26132cc946132b3612094613294958961201f565b9283918861201f565b906109e1565b61320c878c6131ab565b38808061327c565b5050505050565b6132e76101ae9161011c565b60601b90565b0180926132db565b01918252565b9061331460016133499361330d600090565b50016105f7565b61333d61332060405190565b6020808201938452909586946104d2906014906132f585886132ed565b90810382520382610617565b61335b613354825190565b9160200190565b2090565b610128600a610537565b6101286032610537565b8181029291811591840414171561126c57565b634e487b7160e01b600052601260045260246000fd5b81156133a6570490565b613386565b6133b361288a565b602681015460ff168015613607575b6136045760638101906133e56133df6133da846105f7565b612a22565b83612a0b565b60009182916133f6601982016105f7565b92613400836105f7565b61340e61086a61012861335f565b10156135fc575b8015806135eb575b806135cc575b613546575b80158061351c575b613514575b806134fd575b806134ec575b61344c575b50505050565b6055839161346061347394612c8588610537565b61346d4360648301612a0b565b01612a0b565b613482610711610711306104c9565b803b15610117576134af839291839261349a60405190565b958693849283919063290dfbd960e01b610737565b03925af191826134cf575b50506134ca575b38808080613446565b6134c1565b816134e592903d10610d4057610d328183610617565b38806134ba565b506134f684610537565b8311613441565b505a61350e61086a620186a0610537565b1161343b565b506001613435565b5061353f61012861352f606485016105f7565b6135396005610537565b9061125f565b4311613430565b60558201613556610128826105f7565b8511156135b0576135a361086a61012861359261358461357e613578876105f7565b8b6112d3565b956105f7565b61358c613369565b90613373565b61359d612710610537565b9061339c565b1061342857506001613428565b6135a361086a61012861359261358461357e8a611425886105f7565b506135d9605583016105f7565b6135e561086a87610537565b11613423565b506135f585610537565b841161341d565b506001613415565b50565b50602a81015460ff166133c2565b6101286012610537565b6101286011610537565b6000919081810291600019818309838082109103039160009461364b86610537565b841461375157838711156137255785938761369b946136ae97946001946101289b9a50500990838211900392039561368a8161368687610537565b0390565b811680808093049804950304010290565b17916136ae6136b2826136ae6003610537565b0290565b61368661137361371f6137106137016136f26136e36002976136d389610537565b186136ae8b82026136868b610537565b6136ae8a82026136868a610537565b6136ae89820261368689610537565b6136ae88820261368688610537565b6136ae87820261368687610537565b80950290565b61374c8761373561086a89610537565b1461373e613615565b61374661361f565b91614e83565b614e9f565b5050505061012892915061339c565b9091606082840312610117576101286137798484611271565b9360406137898260208701611271565b9401611271565b600160ff1b811461126c5760000390565b60606137e9959493926137b2600090565b506137bf610711846105e6565b6137cb600185016105f7565b916137d560405190565b809981948293610c6c63e578253560e01b90565b03915afa9485156107b057600095613898575b5060009461380986610537565b811380613890575b8015613877575b61382757506101289450612999565b6138429061383787949394610537565b811261386e57610537565b948582111561385f575061012894613859916112d3565b90612999565b93505050506101289150610537565b612d8b90613790565b5061388186610537565b81128015613818575084613818565b508415613811565b6138bb91955060603d6060116138c4575b6138b38183610617565b810190613760565b509490946137fc565b503d6138a9565b929091936138d7600090565b506138e061288a565b600f8101916138ee836105f7565b976000986138fe61086a8b610537565b14613a25575b61391a613910856105f7565b94612c8586612a22565b8715613a1d5750925b61392b612a61565b93613936848a870152565b6139438760208701612a6c565b6040850152613953856060860152565b86151560808501526139664260a0860152565b61396f88610537565b61397a8160c0870152565b6139858160e0870152565b81151561010086015261399a81610120870152565b848680928a6000149b600080516020615882833981519152996139fc976139f29660409f96610bdc96612d9098613a0c57506139d5926142a1565b915b5081811115613a02576139ea92506112d3565b9a8b97015190565b96612dc660405190565b0390a390565b50509a8b97015190565b9150613a1792613c32565b916139d7565b905092613923565b613a38613a326001610537565b85612a0b565b613904565b613a6d61051e60037fc8fcad8db84d3cc18b4c41d551ea0ee66dd599cde068d998e57d5e09332c131c5b016105e6565b613a763361011c565b03613a7d57565b60405163bfcafd3760e01b8152600490fd5b6001600160401b0381116106385760208091020190565b906128f06128eb83613a8f565b61012860a06128ae565b613ac5613ab3565b906000825260208080808086016000815201600081520160008152016000905250565b610128613abd565b60005b828110613aff57505050565b602090613b0a613ae8565b8184015201613af3565b90610148613b2a613b2484613aa6565b93613a8f565b601f190160208401613af0565b90613b40825190565b811015612042576020809102010190565b9060808061014893613b6b6000820151600086019061099f565b613b7a60208201516020860152565b613b8960408201516040860152565b6060818101511515908501520151910152565b906104d28160a093613b51565b90613bc9613bc2613bb8845190565b8084529260200190565b9260200190565b9060005b818110613bda5750505090565b909192613bf4613bed6001928651613b9c565b9460200190565b929101613bcd565b9092613c2590612aa86101289694613c1c6080860197600087019061099f565b15156020850152565b6060818403910152613ba9565b6010810191613c40836105f7565b93613c49613369565b91613c5383613b14565b96600095613c6087610537565b915b613c6b88610537565b85118061428f575b80614278575b1561416b5789600c880191613c916101288c8561090f565b96613ca361077960038a015460ff1690565b61415357613cb3600189016105f7565b613cbc8c610537565b821180614141575b80614138575b156140d357908c8c8c8b94600b8201613ce6610128838361090f565b8d613cf3600683016105f7565b976003830190613d05610128836105f7565b8110156140c457805b6001850193613d2e610afd61051e6020613d27896105e6565b9401612ad1565b148914614043575b9088613d4482613da1940390565b9c613d4e856105f7565b83101561403257613d65612b3b84611425886105f7565b01613d6f816105f7565b8210156140205780612c8583611425613d87946105f7565b612c85613d978860168b0161090f565b9161136e836105f7565b600883015460ff16613dfe575b613db891506105f7565b613dc461086a87610537565b14613dd5575b505050505050613cb3565b82610bab9461216a613df39861320c94613a67600180938787614bed565b8c8c8c388080613dca565b613e07816105f7565b613e1361086a89610537565b03613ee057613e2b85613e25846105e6565b886132fb565b878701613e3a610711826105e6565b63eb2a214292613e49866105e6565b90823b1561011757613e61928c928361107c60405190565b03925af180156107b057613e8792613e81926107119261114657506105e6565b936105e6565b613e9087610537565b93803b1561011757610c6c8a8094613eaa61220b60405190565b03925af19182156107b057613db892613ec4575b50613dae565b613eda90883d8a11610d4057610d328183610617565b38613ebe565b613f07613eec826105f7565b613ef8600286016105f7565b600486015460ff169189612999565b613f1a86613f14856105e6565b896132fb565b888801613f29610711826105e6565b632b9c465a92613f38876105e6565b823b1561011757613f62928d92838893613f5160405190565b96879586948593612e458d60e01b90565b03925af19081156107b057613f8c928c61071192613f8694614003575b50506105e6565b946105e6565b613f9588610537565b94803b1561011757612e458b8094613fbd87613fb060405190565b9a8b978896879560e01b90565b03925af19081156107b057613db893613fe292613fe7575b50600761346d888861090f565b613dae565b613ffd908a3d8c11610d4057610d328183610617565b38613fd5565b8161401992903d10610d4057610d328183610617565b8c38613f7f565b61402d90612c858b610537565b613d87565b61403e612b3b83610537565b613d65565b9f88818f84938d614053896105e6565b9061406260088c015460ff1690565b9061406b613ab3565b9261407890888501612a6c565b6020830152614088876040840152565b1515606082015261409a8c6080830152565b6140a48284613b37565b526140ae91613b37565b506140b890612a22565b9950989150909f613d36565b6140cd826105f7565b90613d0e565b50949396509990506140f06107796003613142846141019661090f565b80614124575b61410c575b87614eb0565b975b93909193613c62565b61411f614119828a614eb0565b87612a0b565b6140fb565b50614131610128876105f7565b81146140f6565b50898710613cca565b5061414b8c610537565b811415613cc4565b94939650999050614165915087614eb0565b97614103565b9896939750509350915061417e81610537565b831161418c575b5050505090565b61419a839592949693613b14565b936141a482610537565b865b8110156141e2576141db816141be6141a6938b613b37565b516141c9828a613b37565b526141d48189613b37565b5060010190565b90506141a4565b50919450929194506141f9610711610711306104c9565b61421361010061420b60208501612ad1565b930151151590565b90803b15610117578480809461424561422b60405190565b97889687958694637f62fd3960e11b865260048601613bfc565b03925af180156107b05761425b575b8080614185565b8161427192903d10610d4057610d328183610617565b3880614254565b50614287610128604086015190565b891015613c79565b5061429988610537565b891415613c73565b90916142af601183016105f7565b92836142bb6000610537565b81149081156148f9575b506148f257936142d3613369565b906142dd82613b14565b906142e86000610537565b965b6142f46000610537565b8511806148df575b806148c8575b156147ed5761431761012888600d890161090f565b91614329610779600385015460ff1690565b6147da57614339600184016105f7565b6143436000610537565b8711806147c7575b806147be575b156147565761436661012882600b8b0161090f565b614372600682016105f7565b91614382610128600384016105f7565b89101561474457885b614397600184016105e6565b6143a9610afd61051e60208a01612ad1565b036146c4575b8b916144206143be8c8e940390565b9b6143cb600387016105f7565b8110156146b2576143ee6143e58261142560038a016105f7565b60038801612a0b565b896143f8816105f7565b82101561469f5780612c8583611425614410946105f7565b612c85613d97846016870161090f565b600884015460ff16614486575b614439600385016105f7565b61444661086a6000610537565b14614455575b50505050614339565b614474818361216a600161447d98613a676000809a87610bab9b614bed565b600b8c0161090f565b3889898261444c565b915050614495600383016105f7565b6144a261086a6000610537565b0361458f576144b7816121ca600185016105e6565b908a6144c5610711826105e6565b9063eb2a2142936144d8600187016105e6565b90833b156101175761450193600092836144f160405190565b809781958294610c6c8d60e01b90565b03925af19081156107b05761451e926107119261457f57506105e6565b9161452b600185016105e6565b61453483610537565b93803b1561011757610c6c6000809461454f61220b60405190565b03925af19081156107b0578c928c92614569575b5061442d565b614579906000610d328183610617565b38614563565b610d5d906000610d328183610617565b6145b961459e600384016105f7565b6145aa600285016105f7565b600485015460ff16918d612999565b906145d0816145ca600186016105e6565b8d6132fb565b8b91906145df610711846105e6565b92632b9c465a936145f2600188016105e6565b813b1561011757600091612e45838861460e8b612e9360405190565b03925af19081156107b05761462b926107119261457f57506105e6565b91614638600186016105e6565b61464183610537565b93803b1561011757612e456000809461465d89612e9360405190565b03925af180156107b0578d938d9361468492614689575b50600761346d84600b870161090f565b61442d565b614699906000610d328183610617565b38614674565b6146ad90612c856000610537565b614410565b6146bf6143e56000610537565b6143ee565b9b8b918a8c92600186016146d7906105e6565b600887015460ff166146e7613ab3565b916146f29083612a6c565b6146fd876020840152565b614708846040840152565b1515606082015261471a846080830152565b614724828d613b37565b5261472f818c613b37565b5061473990612a22565b9e92505091506143af565b614750600383016105f7565b9861438b565b5096614784919250614773610779600361314284600d8c0161090f565b806147a7575b61478c575b86614ffb565b955b906142ea565b6147a26147998289614ffb565b60118901612a0b565b61477e565b506147b7610128601189016105f7565b8114614779565b50858a10614351565b506147d26000610537565b81141561434b565b966147e791925086614ffb565b95614786565b92509592945092506147ff6000610537565b821161480c575b50505090565b9193909261481984613b14565b926148246000610537565b855b81101561485b576148548161483e614826938a613b37565b516148498289613b37565b526141d48188613b37565b9050614824565b509194509250614870610711610711306104c9565b61488261010061420b60208501612ad1565b90803b156101175760016000809461489c61422b60405190565b03925af180156107b0576148b2575b8080614806565b6148c2906000610d328183610617565b386148ab565b506148d7610128604083015190565b871115614302565b506148ea6000610537565b8714156142fc565b5091505090565b905061490c61086a610128604085015190565b11386142c5565b80549190600160401b83101561063857826132bc9160016101489501815561201f565b906101489261320c61329492605861496e61496a83600e89016149658861496061012885856131ab565b614913565b6131ab565b5490565b95016131ab565b61012860806128ae565b60036149c4606061014894614998612b3b600083015190565b6149af6149a6602083015190565b60018701612a0b565b6149bd612b67604083015190565b0151151590565b9101612b0a565b906101489161497f565b90918093601193600d8401906149f36107796003613142878661090f565b15614adc5792614a3291614a26614a3795614a14614a0f614975565b968752565b614a1f816020880152565b6040860152565b6001606085015261090f565b6149cb565b6015810183614a53610779614a4c838561090f565b5460ff1690565b614aae575b50505b0190614a66826105f7565b614a7361086a6000610537565b148015614a9a575b614a8a575b50506101486133ab565b614a9391612a0b565b3880614a80565b50614aa7610128836105f7565b8110614a7b565b614ac681614acb9361320c6001946149606013890190565b612b0a565b614ad58382615144565b3883614a58565b600090614b21614af5610128614b2c97612c859661090f565b916002830161329489600961346d85600b614b0f876105f7565b940161320c82600661346d888561090f565b019161136e836105f7565b614a5b565b90918093601093600c840190614b4f6107796003613142878661090f565b15614bcf5792614a3291614a26614b6b95614a14614a0f614975565b6014810183614b80610779614a4c838561090f565b614ba6575b50505b0190614b96610128836105f7565b8111614a8a5750506101486133ab565b614ac681614bbe9361320c6001946149606012890190565b614bc8838261527a565b3883614b85565b600090614b21614af5610128614be897612c859661090f565b614b88565b9291908282614bfc9286615359565b614c146000614c0e83600c870161090f565b016105f7565b614c2161086a6000610537565b1480614c7d575b614c6d575b614c3f6000614c0e83600d870161090f565b614c4c61086a6000610537565b1480614c65575b614c5c57505050565b6101489261557b565b508115614c53565b614c7882828561557b565b614c2d565b5081614c28565b614c90606282016105f7565b80600091614ca061086a84610537565b03614d485750614caf81610537565b90815b60138401614cc1610128825490565b821015614d4057614ce76003613142600d8801614ce1612094878761201f565b9061090f565b614cfa575b50600101614cb2565b614cb2565b614d0383610537565b84148015614d2b575b15614cec57819350612094614cf592614d249261201f565b9290614cec565b50614d39612094838361201f565b8411614d0c565b505050905090565b929091925b614d5683610537565b8114614d8d57614d6e600361314283600d880161090f565b614d8757613211614d8291605b860161090f565b614d4d565b92509050565b50915061012890610537565b614da5606182016105f7565b80600091614db561086a84610537565b03614e445750614dc490610537565b805b60128301614dd5610128825490565b821015614e3d57614df56003613142600c8701614ce1612094878761201f565b80614e28575b614e0e575b50600101614dc6565b614dc6565b819250612094614e0992614e219261201f565b9190614e00565b50614e36612094838361201f565b8310614dfb565b5050905090565b929091925b614e5283610537565b8114614d8d57614e6a600361314283600c880161090f565b614d8757613211614e7e916059860161090f565b614e49565b6136ae83614e9b93614e93600090565b501891151590565b1890565b634e487b716000526020526024601cfd5b9060598201614ec2613211838361090f565b9081600092614ed361086a85610537565b14158015614fdb575b614f87575050614eeb90610537565b805b60128401614efc610128825490565b821015614f7f57614f1c6003613142600c8801614ce1612094878761201f565b80614f6a575b80614f55575b614f3b575b50600101614eed565b614eed565b819250612094614f3692614f4e9261201f565b9190614f2d565b50614f63612094838361201f565b8310614f28565b50614f78612094838361201f565b8411614f22565b505091505090565b909492509290925b614f9884610537565b8114614fce57614fb0600361314283600c860161090f565b614fc657613211614fc1918661090f565b614f8f565b925050915090565b5050915061012890610537565b50614fe8606186016105f7565b614ff461086a85610537565b1415614edc565b90605b820161500d613211838361090f565b908160009261501e61086a85610537565b14158015615124575b6150e557505061503681610537565b91825b60138501615048610128825490565b8210156150dc576150686003613142600d8901614ce1612094878761201f565b806150c7575b615081575b50600101615039565b615039565b61508a84610537565b851480156150b2575b156150735781945061209461507c926150ab9261201f565b9390615073565b506150c0612094838361201f565b8511615093565b506150d5612094838361201f565b831061506e565b50505050905090565b909492509290925b6150f684610537565b8114614fce5761510e600361314283600d860161090f565b614fc65761321161511f918661090f565b6150ed565b50615131606286016105f7565b61513d61086a85610537565b1415615027565b90916062820192615154846105f7565b9360009461516561086a6000610537565b1461526c57615176610128826105f7565b821061523857615185906105f7565b605b8401615196613211838361090f565b6151a261086a88610537565b141580615223575b156151c1576151bc916132119161090f565b615185565b5090919350615201605c9361329484605b830161320c6151e4613211888461090f565b9889956151f5856132948b8761090f565b0196613294848961090f565b61520b6000610537565b830361521657505050565b610148926132949161090f565b50615231613211838361090f565b83116151aa565b9091935061329482613294605c61014896615262615255876105f7565b61329486605b850161090f565b01614ce1856105f7565b909193506101489250612a0b565b9091606182019261528a846105f7565b9360009461529b61086a6000610537565b1461526c576152ac610128826105f7565b821161532f576152bb906105f7565b605984016152cc613211838361090f565b6152d861086a88610537565b14158061531a575b156152f7576152f2916132119161090f565b6152bb565b5090919350615201605a93613294846059830161320c6151e4613211888461090f565b50615328613211838361090f565b83106152e0565b9091935061329482613294605a6101489661526261534c876105f7565b613294866059850161090f565b929091600b91156155505761012861537491600c860161090f565b925b0190615385610128828461090f565b9183615390816105f7565b9060038501916153a561086a610128856105f7565b111561553c57612c856153ba6153c3936105f7565b611425836105f7565b60098301916153d1836105f7565b936006859101926153e1846105f7565b926000966153f161086a89610537565b1480615527575b6154b8575b5091615459939186959361541361329498610537565b82146154a65761542983600661346d858561090f565b61543287610537565b83146154925761346d6154479360099261090f565b61545084610537565b94858093612a0b565b816154686101288386016105f7565b1461547257505050565b8261548560029260036101489601612b0a565b61346d8360018301612a0b565b506154a1915060028801612a0b565b615447565b6154b38360018b01612a0b565b615429565b97959391509593916154cc600186016105f7565b6154d585610537565b8114158061550f575b156154f7576006614c0e6154f2928a61090f565b6154cc565b613294969850615459949597919395965091936153fd565b5061551f6006614c0e838b61090f565b8914156154de565b50615534600189016105f7565b8114156153f8565b505061554b613a326000610537565b6153c3565b61012861556091600d860161090f565b92615376565b90815260408101929161014891602090610f10565b909115615674576014810190615597610779614a4c858561090f565b61566f576155ac6000614ac68560129561090f565b6155b683826157dc565b01906155c0825490565b916155cb6000610537565b83811015613446576155e0612094828461201f565b83146155ee576001016155cb565b919061562a61562f916000805160206158428339815191529560019561561f61012861561989610537565b846112d3565b811061564957505090565b6131cb565b61564461563b60405190565b92839283615566565b0390a1565b6132bc6156686120946156626101289561326e8c610537565b8661201f565b918461201f565b505050565b6015810190615689610779614a4c858561090f565b61566f576013906156a06000614ac686829661090f565b6156aa848261573f565b01916156b4835490565b926156bf6000610537565b848110156132d4576156d4612094828461201f565b83146156e2576001016156bf565b61562f916000805160206158428339815191529561562a9260019161571261012861570c85610537565b836112d3565b821061571e5750505090565b6156686120946156626132bc9361326e61573797610537565b388080614806565b90613294816101489361320c605c82016132946157af615762613211878561090f565b94605b810195615775613211898961090f565b906000928261578385610537565b83146157cb576157989150613294838b61090f565b6157a183610537565b82036157b7575b5050610537565b96879261090f565b6132946157c4928761090f565b38806157a8565b60626157d79201612a0b565b615798565b90613294816101489361320c605a82016132946157af6157ff613211878561090f565b946059810195615812613211898961090f565b906000928261582085610537565b8314615835576157989150613294838b61090f565b60616157d79201612a0b56fe47d6b784f4687328cb4bf99fe25fd83e28a2829121003693f378885af93968d776f9e2fbba9065929fabd0f2d295057081f4a6bc8330faedc899c66544db28077ea81c6c40d20e544a7f988afe2a3010265d0d7f04987b3acdfd61aba68323c684181bc7dd71479d726c8f6aa524a7bd28f39b4b76d1214d1193f5332b2aa32be2f79d8cf55407b6b042d56861cd4f3080af047b848dc8aa1572e11f46a83ea0a2646970667358221220c523b16b037fa76ee302c6f06692544b3d033bdbf721fe50d7a0fcfe5dddecdc64736f6c63430008160033",
  "linkReferences": {},
  "deployedLinkReferences": {}
}