{
  "_format": "hh-sol-artifact-1",
  "contractName": "OBTradeExecutionFacet",
  "sourceName": "src/diamond/facets/OBTradeExecutionFacet.sol",
  "abi": [
    {
      "anonymous": false,
      "inputs": [
        {
          "indexed": true,
          "internalType": "address",
          "name": "buyer",
          "type": "address"
        },
        {
          "indexed": false,
          "internalType": "uint256",
          "name": "buyerFee",
          "type": "uint256"
        },
        {
          "indexed": true,
          "internalType": "address",
          "name": "seller",
          "type": "address"
        },
        {
          "indexed": false,
          "internalType": "uint256",
          "name": "sellerFee",
          "type": "uint256"
        }
      ],
      "name": "FeesDeducted",
      "type": "event"
    },
    {
      "anonymous": false,
      "inputs": [
        {
          "indexed": false,
          "internalType": "bool",
          "name": "isLiquidationTrade",
          "type": "bool"
        },
        {
          "indexed": false,
          "internalType": "address",
          "name": "liquidationTarget",
          "type": "address"
        },
        {
          "indexed": false,
          "internalType": "bool",
          "name": "liquidationClosesShort",
          "type": "bool"
        }
      ],
      "name": "LiquidationTradeDetected",
      "type": "event"
    },
    {
      "anonymous": false,
      "inputs": [],
      "name": "MarginUpdatesCompleted",
      "type": "event"
    },
    {
      "anonymous": false,
      "inputs": [
        {
          "indexed": false,
          "internalType": "bool",
          "name": "isLiquidationTrade",
          "type": "bool"
        }
      ],
      "name": "MarginUpdatesStarted",
      "type": "event"
    },
    {
      "anonymous": false,
      "inputs": [
        {
          "indexed": false,
          "internalType": "uint256",
          "name": "lastTradePrice",
          "type": "uint256"
        },
        {
          "indexed": false,
          "internalType": "uint256",
          "name": "currentMarkPrice",
          "type": "uint256"
        }
      ],
      "name": "PriceUpdated",
      "type": "event"
    },
    {
      "anonymous": false,
      "inputs": [
        {
          "indexed": true,
          "internalType": "address",
          "name": "buyer",
          "type": "address"
        },
        {
          "indexed": true,
          "internalType": "address",
          "name": "seller",
          "type": "address"
        },
        {
          "indexed": false,
          "internalType": "uint256",
          "name": "price",
          "type": "uint256"
        },
        {
          "indexed": false,
          "internalType": "uint256",
          "name": "amount",
          "type": "uint256"
        }
      ],
      "name": "TradeExecutionCompleted",
      "type": "event"
    },
    {
      "anonymous": false,
      "inputs": [
        {
          "indexed": true,
          "internalType": "address",
          "name": "buyer",
          "type": "address"
        },
        {
          "indexed": true,
          "internalType": "address",
          "name": "seller",
          "type": "address"
        },
        {
          "indexed": false,
          "internalType": "uint256",
          "name": "price",
          "type": "uint256"
        },
        {
          "indexed": false,
          "internalType": "uint256",
          "name": "amount",
          "type": "uint256"
        },
        {
          "indexed": false,
          "internalType": "bool",
          "name": "buyerMargin",
          "type": "bool"
        },
        {
          "indexed": false,
          "internalType": "bool",
          "name": "sellerMargin",
          "type": "bool"
        }
      ],
      "name": "TradeExecutionStarted",
      "type": "event"
    },
    {
      "anonymous": false,
      "inputs": [
        {
          "indexed": true,
          "internalType": "bytes32",
          "name": "marketId",
          "type": "bytes32"
        },
        {
          "indexed": true,
          "internalType": "address",
          "name": "buyer",
          "type": "address"
        },
        {
          "indexed": true,
          "internalType": "address",
          "name": "seller",
          "type": "address"
        },
        {
          "indexed": false,
          "internalType": "uint256",
          "name": "price",
          "type": "uint256"
        },
        {
          "indexed": false,
          "internalType": "uint256",
          "name": "amount",
          "type": "uint256"
        },
        {
          "indexed": false,
          "internalType": "uint256",
          "name": "buyerFee",
          "type": "uint256"
        },
        {
          "indexed": false,
          "internalType": "uint256",
          "name": "sellerFee",
          "type": "uint256"
        },
        {
          "indexed": false,
          "internalType": "uint256",
          "name": "timestamp",
          "type": "uint256"
        },
        {
          "indexed": false,
          "internalType": "uint256",
          "name": "liquidationPrice",
          "type": "uint256"
        }
      ],
      "name": "TradeRecorded",
      "type": "event"
    },
    {
      "inputs": [
        {
          "internalType": "uint256",
          "name": "offset",
          "type": "uint256"
        },
        {
          "internalType": "uint256",
          "name": "limit",
          "type": "uint256"
        }
      ],
      "name": "getAllTrades",
      "outputs": [
        {
          "components": [
            {
              "internalType": "uint256",
              "name": "tradeId",
              "type": "uint256"
            },
            {
              "internalType": "address",
              "name": "buyer",
              "type": "address"
            },
            {
              "internalType": "address",
              "name": "seller",
              "type": "address"
            },
            {
              "internalType": "uint256",
              "name": "price",
              "type": "uint256"
            },
            {
              "internalType": "uint256",
              "name": "amount",
              "type": "uint256"
            },
            {
              "internalType": "uint256",
              "name": "timestamp",
              "type": "uint256"
            },
            {
              "internalType": "uint256",
              "name": "buyOrderId",
              "type": "uint256"
            },
            {
              "internalType": "uint256",
              "name": "sellOrderId",
              "type": "uint256"
            },
            {
              "internalType": "bool",
              "name": "buyerIsMargin",
              "type": "bool"
            },
            {
              "internalType": "bool",
              "name": "sellerIsMargin",
              "type": "bool"
            },
            {
              "internalType": "uint256",
              "name": "tradeValue",
              "type": "uint256"
            },
            {
              "internalType": "uint256",
              "name": "buyerFee",
              "type": "uint256"
            },
            {
              "internalType": "uint256",
              "name": "sellerFee",
              "type": "uint256"
            }
          ],
          "internalType": "struct OrderBookStorage.Trade[]",
          "name": "tradeData",
          "type": "tuple[]"
        },
        {
          "internalType": "bool",
          "name": "hasMore",
          "type": "bool"
        }
      ],
      "stateMutability": "view",
      "type": "function"
    },
    {
      "inputs": [],
      "name": "getLastTwentyTrades",
      "outputs": [
        {
          "components": [
            {
              "internalType": "uint256",
              "name": "tradeId",
              "type": "uint256"
            },
            {
              "internalType": "address",
              "name": "buyer",
              "type": "address"
            },
            {
              "internalType": "address",
              "name": "seller",
              "type": "address"
            },
            {
              "internalType": "uint256",
              "name": "price",
              "type": "uint256"
            },
            {
              "internalType": "uint256",
              "name": "amount",
              "type": "uint256"
            },
            {
              "internalType": "uint256",
              "name": "timestamp",
              "type": "uint256"
            },
            {
              "internalType": "uint256",
              "name": "buyOrderId",
              "type": "uint256"
            },
            {
              "internalType": "uint256",
              "name": "sellOrderId",
              "type": "uint256"
            },
            {
              "internalType": "bool",
              "name": "buyerIsMargin",
              "type": "bool"
            },
            {
              "internalType": "bool",
              "name": "sellerIsMargin",
              "type": "bool"
            },
            {
              "internalType": "uint256",
              "name": "tradeValue",
              "type": "uint256"
            },
            {
              "internalType": "uint256",
              "name": "buyerFee",
              "type": "uint256"
            },
            {
              "internalType": "uint256",
              "name": "sellerFee",
              "type": "uint256"
            }
          ],
          "internalType": "struct OrderBookStorage.Trade[]",
          "name": "tradeData",
          "type": "tuple[]"
        }
      ],
      "stateMutability": "view",
      "type": "function"
    },
    {
      "inputs": [
        {
          "internalType": "uint256",
          "name": "count",
          "type": "uint256"
        }
      ],
      "name": "getRecentTrades",
      "outputs": [
        {
          "components": [
            {
              "internalType": "uint256",
              "name": "tradeId",
              "type": "uint256"
            },
            {
              "internalType": "address",
              "name": "buyer",
              "type": "address"
            },
            {
              "internalType": "address",
              "name": "seller",
              "type": "address"
            },
            {
              "internalType": "uint256",
              "name": "price",
              "type": "uint256"
            },
            {
              "internalType": "uint256",
              "name": "amount",
              "type": "uint256"
            },
            {
              "internalType": "uint256",
              "name": "timestamp",
              "type": "uint256"
            },
            {
              "internalType": "uint256",
              "name": "buyOrderId",
              "type": "uint256"
            },
            {
              "internalType": "uint256",
              "name": "sellOrderId",
              "type": "uint256"
            },
            {
              "internalType": "bool",
              "name": "buyerIsMargin",
              "type": "bool"
            },
            {
              "internalType": "bool",
              "name": "sellerIsMargin",
              "type": "bool"
            },
            {
              "internalType": "uint256",
              "name": "tradeValue",
              "type": "uint256"
            },
            {
              "internalType": "uint256",
              "name": "buyerFee",
              "type": "uint256"
            },
            {
              "internalType": "uint256",
              "name": "sellerFee",
              "type": "uint256"
            }
          ],
          "internalType": "struct OrderBookStorage.Trade[]",
          "name": "tradeData",
          "type": "tuple[]"
        }
      ],
      "stateMutability": "view",
      "type": "function"
    },
    {
      "inputs": [
        {
          "internalType": "uint256",
          "name": "tradeId",
          "type": "uint256"
        }
      ],
      "name": "getTradeById",
      "outputs": [
        {
          "components": [
            {
              "internalType": "uint256",
              "name": "tradeId",
              "type": "uint256"
            },
            {
              "internalType": "address",
              "name": "buyer",
              "type": "address"
            },
            {
              "internalType": "address",
              "name": "seller",
              "type": "address"
            },
            {
              "internalType": "uint256",
              "name": "price",
              "type": "uint256"
            },
            {
              "internalType": "uint256",
              "name": "amount",
              "type": "uint256"
            },
            {
              "internalType": "uint256",
              "name": "timestamp",
              "type": "uint256"
            },
            {
              "internalType": "uint256",
              "name": "buyOrderId",
              "type": "uint256"
            },
            {
              "internalType": "uint256",
              "name": "sellOrderId",
              "type": "uint256"
            },
            {
              "internalType": "bool",
              "name": "buyerIsMargin",
              "type": "bool"
            },
            {
              "internalType": "bool",
              "name": "sellerIsMargin",
              "type": "bool"
            },
            {
              "internalType": "uint256",
              "name": "tradeValue",
              "type": "uint256"
            },
            {
              "internalType": "uint256",
              "name": "buyerFee",
              "type": "uint256"
            },
            {
              "internalType": "uint256",
              "name": "sellerFee",
              "type": "uint256"
            }
          ],
          "internalType": "struct OrderBookStorage.Trade",
          "name": "trade",
          "type": "tuple"
        }
      ],
      "stateMutability": "view",
      "type": "function"
    },
    {
      "inputs": [],
      "name": "getTradeStatistics",
      "outputs": [
        {
          "internalType": "uint256",
          "name": "totalTrades",
          "type": "uint256"
        },
        {
          "internalType": "uint256",
          "name": "totalVolume",
          "type": "uint256"
        },
        {
          "internalType": "uint256",
          "name": "totalFees",
          "type": "uint256"
        }
      ],
      "stateMutability": "view",
      "type": "function"
    },
    {
      "inputs": [
        {
          "internalType": "uint256",
          "name": "startTime",
          "type": "uint256"
        },
        {
          "internalType": "uint256",
          "name": "endTime",
          "type": "uint256"
        },
        {
          "internalType": "uint256",
          "name": "offset",
          "type": "uint256"
        },
        {
          "internalType": "uint256",
          "name": "limit",
          "type": "uint256"
        }
      ],
      "name": "getTradesByTimeRange",
      "outputs": [
        {
          "components": [
            {
              "internalType": "uint256",
              "name": "tradeId",
              "type": "uint256"
            },
            {
              "internalType": "address",
              "name": "buyer",
              "type": "address"
            },
            {
              "internalType": "address",
              "name": "seller",
              "type": "address"
            },
            {
              "internalType": "uint256",
              "name": "price",
              "type": "uint256"
            },
            {
              "internalType": "uint256",
              "name": "amount",
              "type": "uint256"
            },
            {
              "internalType": "uint256",
              "name": "timestamp",
              "type": "uint256"
            },
            {
              "internalType": "uint256",
              "name": "buyOrderId",
              "type": "uint256"
            },
            {
              "internalType": "uint256",
              "name": "sellOrderId",
              "type": "uint256"
            },
            {
              "internalType": "bool",
              "name": "buyerIsMargin",
              "type": "bool"
            },
            {
              "internalType": "bool",
              "name": "sellerIsMargin",
              "type": "bool"
            },
            {
              "internalType": "uint256",
              "name": "tradeValue",
              "type": "uint256"
            },
            {
              "internalType": "uint256",
              "name": "buyerFee",
              "type": "uint256"
            },
            {
              "internalType": "uint256",
              "name": "sellerFee",
              "type": "uint256"
            }
          ],
          "internalType": "struct OrderBookStorage.Trade[]",
          "name": "tradeData",
          "type": "tuple[]"
        },
        {
          "internalType": "bool",
          "name": "hasMore",
          "type": "bool"
        }
      ],
      "stateMutability": "view",
      "type": "function"
    },
    {
      "inputs": [
        {
          "internalType": "address",
          "name": "user",
          "type": "address"
        }
      ],
      "name": "getUserTradeCount",
      "outputs": [
        {
          "internalType": "uint256",
          "name": "",
          "type": "uint256"
        }
      ],
      "stateMutability": "view",
      "type": "function"
    },
    {
      "inputs": [
        {
          "internalType": "address",
          "name": "user",
          "type": "address"
        },
        {
          "internalType": "uint256",
          "name": "offset",
          "type": "uint256"
        },
        {
          "internalType": "uint256",
          "name": "limit",
          "type": "uint256"
        }
      ],
      "name": "getUserTrades",
      "outputs": [
        {
          "components": [
            {
              "internalType": "uint256",
              "name": "tradeId",
              "type": "uint256"
            },
            {
              "internalType": "address",
              "name": "buyer",
              "type": "address"
            },
            {
              "internalType": "address",
              "name": "seller",
              "type": "address"
            },
            {
              "internalType": "uint256",
              "name": "price",
              "type": "uint256"
            },
            {
              "internalType": "uint256",
              "name": "amount",
              "type": "uint256"
            },
            {
              "internalType": "uint256",
              "name": "timestamp",
              "type": "uint256"
            },
            {
              "internalType": "uint256",
              "name": "buyOrderId",
              "type": "uint256"
            },
            {
              "internalType": "uint256",
              "name": "sellOrderId",
              "type": "uint256"
            },
            {
              "internalType": "bool",
              "name": "buyerIsMargin",
              "type": "bool"
            },
            {
              "internalType": "bool",
              "name": "sellerIsMargin",
              "type": "bool"
            },
            {
              "internalType": "uint256",
              "name": "tradeValue",
              "type": "uint256"
            },
            {
              "internalType": "uint256",
              "name": "buyerFee",
              "type": "uint256"
            },
            {
              "internalType": "uint256",
              "name": "sellerFee",
              "type": "uint256"
            }
          ],
          "internalType": "struct OrderBookStorage.Trade[]",
          "name": "tradeData",
          "type": "tuple[]"
        },
        {
          "internalType": "bool",
          "name": "hasMore",
          "type": "bool"
        }
      ],
      "stateMutability": "view",
      "type": "function"
    },
    {
      "inputs": [
        {
          "internalType": "address",
          "name": "buyer",
          "type": "address"
        },
        {
          "internalType": "address",
          "name": "seller",
          "type": "address"
        },
        {
          "internalType": "uint256",
          "name": "price",
          "type": "uint256"
        },
        {
          "internalType": "uint256",
          "name": "amount",
          "type": "uint256"
        },
        {
          "internalType": "bool",
          "name": "buyerMargin",
          "type": "bool"
        },
        {
          "internalType": "bool",
          "name": "sellerMargin",
          "type": "bool"
        },
        {
          "internalType": "bool",
          "name": "buyerIsTaker",
          "type": "bool"
        }
      ],
      "name": "obExecuteTrade",
      "outputs": [],
      "stateMutability": "nonpayable",
      "type": "function"
    },
    {
      "inputs": [
        {
          "internalType": "address",
          "name": "taker",
          "type": "address"
        },
        {
          "internalType": "bool",
          "name": "takerIsBuy",
          "type": "bool"
        },
        {
          "internalType": "bool",
          "name": "takerIsMargin",
          "type": "bool"
        },
        {
          "components": [
            {
              "internalType": "address",
              "name": "counterparty",
              "type": "address"
            },
            {
              "internalType": "uint256",
              "name": "price",
              "type": "uint256"
            },
            {
              "internalType": "uint256",
              "name": "amount",
              "type": "uint256"
            },
            {
              "internalType": "bool",
              "name": "counterpartyIsMargin",
              "type": "bool"
            },
            {
              "internalType": "uint256",
              "name": "restingOrderId",
              "type": "uint256"
            }
          ],
          "internalType": "struct OrderBookStorage.PendingMatch[]",
          "name": "matches",
          "type": "tuple[]"
        }
      ],
      "name": "obExecuteTradeBatch",
      "outputs": [],
      "stateMutability": "nonpayable",
      "type": "function"
    }
  ],
  "bytecode": "0x60808060405234610016576138c4908161001c8239f35b600080fdfe610220604052600436101561001357600080fd5b6000803560e01c80635e7f18af146114b157806372666684146114615780638a7a9555146113c7578063a242068f146113ab578063b0157cfb1461137e578063bdae53d61461119a578063c63877eb14611166578063cd3c96f414610148578063dffd8a1f146101145763fec5fa721461008c57600080fd5b34610111576080366003190112610111576100a56114db565b602435801515810361010c5760443591821515830361010c57606435926001600160401b039283851161010857366023860112156101085784600401359384116101085736602460a0860287010111610108576024610105950192611ee8565b80f35b8580fd5b600080fd5b80fd5b503461011157604036600319011261011157610134602435600435611df9565b90610144604051928392836115c4565b0390f35b50346101115760e0366003190112610111576101626114db565b6024356001600160a01b0381169003610c5d57608435151560843503610c5d5760a435151560a43503610c5d5760c435151560c43503610c5d57600160008051602061374f833981519152546101bb60ff821615611c3f565b60ff19161760008051602061374f833981519152556040516001600160a01b036024358116919083169060008051602061356f833981519152908061020b60a43560843560643560443585611c78565b0390a36001600160a01b03811615158080611152575b1561111c5760a43515156084351515036110d457829081610246604435606435612d6f565b9260008051602061380f83398151915254158015906110bc575b15610f585750506102b060008051602061380f83398151915254926000805160206137ef8339815191525460c435600014610f4f576102a0855b83612df7565b9460c43515610f47575090612df7565b6000805160206136af8339815191525460008051602061370f8339815191525460008051602061368f83398151915254929392916001600160a01b03918216911685151580610f34575b610f22575b84151580610f0d575b610ef8575b5050505b8215801590610eef575b610eb8575b60843515610e4e5760008051602061384f8339815191525460ff8160081c16908115610e3b575b8115610e26575b60607f3b8f73c21e22fd0d9bb3399c2139bacd639abce435fe046074f371a6163122ea9160ff60405191851515835260018060a01b038160181c16602084015260b81c1615156040820152a115610c615760008051602061384f83398151915254859060181c6001600160a01b031680610b2b575b505060008051602061382f833981519152602060405160018152a16001600160a01b03841630148080610b17575b80610b02575b15610a1557508461043a61040c6024356130f7565b5061043461041e606494939435611cbc565b936104298582611ccd565b928560443592613376565b90613448565b60008051602061358f8339815191525460008051602061378f833981519152549291906001600160a01b0316803b15610a065761049893858094604051968795869485936312c3f55360e11b85526044359160243560048701611ce9565b03925af18015610a0a576109f2575b50505b6000805160206137cf8339815191528580a15b60008051602061362f83398151915254806109ed575060015b6104e4604435606435612d6f565b604051906104f1826116c6565b82825260018060a01b038716602083015260018060a01b03602435166040830152604435606083015260643560808301524260a08301528760c08301528760e083015260016101008301526001610120830152610140820152846101608201528361018082015281875260008051602061360f833981519152602052600b6101806040892092805184556001840160018060a01b036020830151169060018060a01b03199182825416179055600285019060018060a01b0360408401511690825416179055606081015160038501556080810151600485015560a0810151600585015560c0810151600685015560e08101516007850155600884016106096101008301511515829060ff801983541691151516179055565b610120820151815461ff00191690151560081b61ff00161790556101408101516009850155610160810151600a85015501519101556106508161064b8761162b565b611d15565b61065f8161064b60243561162b565b6000805160206135af833981519152805490600182018092116109d957556001810181116109c55780600160ff920160008051602061362f833981519152556106e8601483600160008051602061386f833981519152946106e083875416916106c783611a11565b90919082549060031b91821b91600019901b1916179055565b011606611d3a565b5460081c166014811061098e575b506044356000805160206135cf833981519152556107126134b4565b908160008051602061376f833981519152558560018060a01b0360008051602061358f833981519152541660008051602061378f83398151915254813b1561098a57829160448392604051948593849263dee0f5e560e01b845260048401528960248401525af1610976575b505060008051602061364f83398151915260406000805160206135cf833981519152548151908152846020820152a180610963575b8061094f575b61092d575b6024356001600160a01b0316151580610918575b80610902575b6108dc575b60ff60008051602061384f8339815191525460081c1680156108ca575b80156108b6575b156108af575b60008051602061378f833981519152546040516001600160a01b036024358116959087169492936000805160206136cf8339815191529383926108539291429160643560443587611dd1565b0390a460408051604435815260643560208201526001600160a01b03602435811693169160008051602061366f83398151915291a360ff1960008051602061374f833981519152541660008051602061374f8339815191525580f35b5083610807565b506024356001600160a01b03163014610801565b506001600160a01b03841630146107fa565b6108e7602435611664565b805460ff191660011790556108fd602435611d6a565b6107dd565b5060ff610910602435611664565b5416156107d8565b506024356001600160a01b03163014156107d2565b61093684611664565b805460ff1916600117905561094a84611d6a565b6107be565b5060ff61095b85611664565b5416156107b9565b506001600160a01b0384163014156107b3565b61097f9061169d565b61010857853861077e565b8280fd5b61099a6109bf91611d58565b60008051602061386f8339815191529061ff0082549160081b169061ff001916179055565b386106f6565b634e487b7160e01b86526011600452602486fd5b634e487b7160e01b88526011600452602488fd5b6104d6565b6109fb9061169d565b610a065784386104a7565b8480fd5b6040513d84823e3d90fd5b6024356001600160a01b031630149081610afa575b81610af1575b50156104aa5784610a63610434610a46876130f7565b509190610a5560643582611ccd565b926044359160643590613376565b60008051602061358f8339815191525460008051602061378f833981519152546001600160a01b0390911691823b15610aed57610ac3928492838a604051968795869485936312c3f55360e11b8552604435916064359160048701611ce9565b03925af18015610a0a57610ad9575b50506104aa565b610ae29061169d565b610a06578438610ad2565b8380fd5b90501538610a30565b829150610a2a565b506024356001600160a01b03163014156103f7565b506024356001600160a01b031615156103f1565b60008051602061358f8339815191525460008051602061378f83398151915254906001600160a01b0316803b15610aed5783809291606482936040519485938492630621233360e41b84528960048501526024840152600160448401525af1610c49575b505060008051602061384f8339815191525460b81c60ff1615610c3857606435905b60008051602061358f8339815191525460008051602061378f83398151915254906001600160a01b0316803b15610a065784928360a49260405196879586946306d1214b60e11b865260048601526024850152604484015260443560648401523060848401525af18015610a0a57156103c357610c2d9061169d565b610a065784386103c3565b610c43606435611cbc565b90610bb1565b610c529061169d565b610c5d578138610b8f565b5080fd5b84610c6b856130f7565b5090610c786024356130f7565b509091610c86606435611cbc565b93610c9860443560643583858e6131d1565b610ca96044358685876024356131d1565b60008051602061382f8339815191526020604051888152a1306001600160a01b038b1603610d94575b5050306024356001600160a01b031603610d01575b505050806000805160206137cf83398151915291a16104bd565b6104348261042985610d1295611ccd565b60008051602061358f8339815191525460008051602061378f833981519152549291906001600160a01b0316803b15610a0657610d7093858094604051968795869485936312c3f55360e11b85526044359160243560048701611ce9565b03925af1610d80575b8080610ce7565b610d899061169d565b610a06578438610d79565b610434610da792610a5560643582611ccd565b60018060a01b0360008051602061358f833981519152541660008051602061378f83398151915254813b15610e22578692610e05928492838e604051968795869485936312c3f55360e11b8552604435916064359160048701611ce9565b03925af115610cd257610e179061169d565b610aed578338610cd2565b8680fd5b6024356001600160a01b03163014915061034e565b6001600160a01b03861630149150610347565b60405162461bcd60e51b815260206004820152604860248201526000805160206137af83398151915260448201527f20666f722066757475726573206d61726b657473202d20757365206d617267696064820152676e206f726465727360c01b608482015260a490fd5b60408051848152602081018490526001600160a01b03602435811692908716916000805160206136ef8339815191529190a3610320565b5081151561031b565b610f059285602435612f1d565b38808061030d565b506024356001600160a01b0316301415610308565b610f2f828285898b612f1d565b6102ff565b506001600160a01b0387163014156102fa565b905090612df7565b6102a08161029a565b91909260008051602061372f8339815191525480610f78575b5050610311565b909350610f91919250610f8b8185612df7565b93612df7565b90306001600160a01b03851603611040575b306024356001600160a01b031603610fbd575b3880610f71565b60008051602061358f8339815191525460008051602061370f8339815191525486916001600160a01b039182169116803b1561098a57604051633eb29b8760e01b8152918391839182908490829061101c908b60243560048501611c99565b03925af161102c575b5050610fb6565b6110359061169d565b610a06578438611025565b60008051602061358f8339815191525460008051602061370f8339815191525486916001600160a01b039081169116813b1561098a57829161109a91604051948580948193633eb29b8760e01b83528b8d60048501611c99565b03925af16110a9575b50610fa3565b6110b59095919561169d565b93386110a3565b506000805160206137ef833981519152541515610260565b60405162461bcd60e51b815260206004820152602c60248201526000805160206135ef83398151915260448201526b2073706f742074726164657360a01b6064820152608490fd5b60405162461bcd60e51b815260206004820152600e60248201526d4f423a207a65726f20706172747960901b6044820152606490fd5b506024356001600160a01b03161515610221565b503461011157602036600319011261011157610144611186600435611b4c565b604051918291602083526020830190611582565b50346101115760803660031901126101115760043590602490606435823560443582151580611373575b6111cd906115e4565b81861161132e576111dd836117a0565b90849285976000805160206135af833981519152545b60018082101580611325575b156112bf5781895260008051602061360f8339815191526020526040892060058101549084821091868315918261131a575b50506112ce575b506112bf57811461126557801561125257600019016111f3565b634e487b7160e01b885260116004528888fd5b5050505091945092505b611278836117a0565b915b838110611295575050610144906040519384931490836115c4565b806112a260019284611841565b516112ad8286611841565b526112b88185611841565b500161127a565b5050505050919450925061126f565b909790868d1061130857906112e561130092611855565b6112ef828a611841565b526112fa8189611841565b50611a02565b965b38611238565b50969a61131490611a02565b9a611302565b111590508638611231565b508787106111ff565b60405162461bcd60e51b815260206004820152601d60248201527f4f72646572426f6f6b3a20696e76616c69642074696d652072616e67650000006044820152606490fd5b5060648311156111c4565b50346101115760203660031901126101115760206113a261139d6114db565b61162b565b54604051908152f35b5034610111578060031936011261011157610144611186611a42565b50346101115780600319360112610111576000805160206135af83398151915254818060015b8381111561140c57506060935060405192835260208301526040820152f35b9161145661145c9184875260008051602061360f83398151915260205261145061143f60408920956009870154906118fa565b94600b600a820154910154906118fa565b906118fa565b92611a02565b6113ed565b5034610111576020366003190112610111576114a260406101a09261148461171c565b50600435815260008051602061360f83398151915260205220611855565b6114af60405180926114f1565bf35b5034610111576060366003190112610111576101346114ce6114db565b6044359060243590611907565b600435906001600160a01b038216820361010c57565b80518252602081015160018060a01b0380911660208401526040820151166040830152606081015160608301526080810151608083015260a081015160a083015260c081015160c083015260e081015160e083015261010080820151151590830152610120808201511515908301526101408082015190830152610160808201519083015261018080910151910152565b90815180825260208080930193019160005b8281106115a2575050505090565b90919293826101a0826115b860019489516114f1565b01950193929101611594565b906115dc602091949394604084526040840190611582565b931515910152565b156115eb57565b60405162461bcd60e51b815260206004820152601860248201527713dc99195c909bdbdace881a5b9d985b1a59081b1a5b5a5d60421b6044820152606490fd5b6001600160a01b031660009081527fdb2199519cd329570c1873db66c1723211f1d2b07101caecdca9afade1b956f66020526040902090565b6001600160a01b031660009081527fdb2199519cd329570c1873db66c1723211f1d2b07101caecdca9afade1b956f86020526040902090565b6001600160401b0381116116b057604052565b634e487b7160e01b600052604160045260246000fd5b6101a081019081106001600160401b038211176116b057604052565b601f909101601f19168101906001600160401b038211908210176116b057604052565b6001600160401b0381116116b05760051b60200190565b60405190611729826116c6565b816101806000918281528260208201528260408201528260608201528260808201528260a08201528260c08201528260e0820152826101008201528261012082015282610140820152826101608201520152565b604051602081016001600160401b038111828210176116b0576040526000815290565b906117aa82611705565b6117b760405191826116e2565b82815280926117c8601f1991611705565b019060005b8281106117d957505050565b6020906117e461171c565b828285010152016117cd565b919082039182116117fd57565b634e487b7160e01b600052601160045260246000fd5b805482101561182b5760005260206000200190600090565b634e487b7160e01b600052603260045260246000fd5b805182101561182b5760209160051b010190565b90604051611862816116c6565b8254815260018301546001600160a01b03908116602083015260028401541660408201526003830154606082015260048301546080820152600583015460a0820152600683015460c0820152600783015460e082015260088084015460ff8082161515610100850152911c1615156101208201526009830154610140820152600a830154610160820152600b90920154610180830152565b919082018092116117fd57565b6119219093929193821515806119f7575b61139d906115e4565b92835491828210156119e45761193782846117f0565b90808210156119dc5750905b61194c826117a0565b946000198401848111919060005b85811061197357505050509061196f916118fa565b1090565b836117fd578061199761199160019361198c89876117f0565b6117f0565b85611813565b90549060031b1c60005260008051602061360f8339815191526020526119c06040600020611855565b6119ca828c611841565b526119d5818b611841565b500161195a565b905090611943565b50505090506119f161177d565b90600090565b506064831115611918565b60001981146117fd5760010190565b601481101561182b577fdb2199519cd329570c1873db66c1723211f1d2b07101caecdca9afade1b9570a0190600090565b60008051602061386f833981519152549060ff808360081c16611a64816117a0565b938115611b4757611a768293926117a0565b600019929091811660149081018216840182169160005b868110611ae857505050918301915082821160005b848110611ab0575050505050565b816117fd5780611acb611ac5600193876117f0565b85611841565b51611ad6828a611841565b52611ae18189611841565b5001611aa2565b80611aff8484806001959b9a9b1688031606611a11565b90549060031b1c60005260008051602061360f833981519152602052611b286040600020611855565b611b328288611841565b52611b3d8187611841565b5001959495611a8d565b505050565b9081151580611c34575b15611bf4576000805160206135af83398151915254918215611be65780831015611be15750815b611b86816117a0565b9260005b828110611b9657505050565b80611ba3600192846117f0565b60005260008051602061360f833981519152602052611bc56040600020611855565b611bcf8288611841565b52611bda8187611841565b5001611b8a565b611b7d565b509050611bf161177d565b90565b60405162461bcd60e51b815260206004820152601860248201527713dc99195c909bdbdace881a5b9d985b1a590818dbdd5b9d60421b6044820152606490fd5b506064821115611b56565b15611c4657565b60405162461bcd60e51b815260206004820152600a6024820152697265656e7472616e637960b01b6044820152606490fd5b90815260208101919091529015156040820152901515606082015260800190565b6001600160a01b0391821681526020810192909252909116604082015260600190565b600160ff1b81146117fd5760000390565b919091600083820193841291129080158216911516176117fd57565b9192608093969594919660a084019760018060a01b031684526020840152604083015260608201520152565b80549190600160401b8310156116b057826106c7916001611d3895018155611813565b565b60ff60008051602061386f833981519152911660ff19825416179055565b60ff60019116019060ff82116117fd57565b7fdb2199519cd329570c1873db66c1723211f1d2b07101caecdca9afade1b956f7805490600160401b8210156116b0576001820180825582101561182b576000908152602090200180546001600160a01b0319166001600160a01b03909216919091179055565b9260a094919796959260c0850198855260208501526040840152606083015260808201520152565b919080151580611ebc575b611e0d906115e4565b6000805160206135af833981519152549081841015611eb057611e3084836117f0565b9080821015611ea957505b611e44816117a0565b9360005b828110611e5a57509061196f916118fa565b80611e6b60019261198c85886117f0565b60005260008051602061360f833981519152602052611e8d6040600020611855565b611e978289611841565b52611ea28188611841565b5001611e48565b9050611e3b565b505090506119f161177d565b506064811115611e04565b356001600160a01b038116810361010c5790565b35801515810361010c5790565b92919260c052608052610100528115612d6b5760008051602061374f8339815191529160018354611f1c60ff821615611c3f565b60ff191617835560c0516001600160a01b03161560a0819052612d35578115612ce557600080928161020052819260008051602061380f833981519152548015801561014052612cca575b6000805160206137ef833981519152546000805160206136af833981519152546001600160a01b039081166101a05260008051602061370f83398151915254166101805260008051602061368f833981519152546101605284939291905b8285106122b6575050505050610200511515806122a1575b6121fa575b611fed60c0516130f7565b509190936080516000146121eb57815b80156121e25761200c91612e60565b915b61201d8383838860c0516131d1565b60c0516001600160a01b03163014159485612151575b505050506000805160206135cf8339815191529081556120516134b4565b908160008051602061376f8339815191525560018060a01b0360008051602061358f83398151915254169160008051602061378f8339815191525491833b1561010c5760008060008051602061364f8339815191529560446040968751948593849263dee0f5e560e01b845260048401528860248401525af1612142575b50549082519182526020820152a160a05115908161213a575b5080612124575b6120fe575b805460ff19169055565b61210960c051611664565b600160ff1982541617905561211f60c051611d6a565b6120f4565b5060ff61213260c051611664565b5416156120ef565b9050386120e8565b61214b9061169d565b386120cf565b6104348461216a93856121648186611ccd565b94613376565b9160018060a01b0360008051602061358f833981519152541660008051602061378f8339815191525492813b1561010c57600080946121c2604051978896879586946312c3f55360e11b865260c05160048701611ce9565b03925af16121d3575b808080612033565b6121dc9061169d565b386121cb565b5050829161200e565b6121f482611cbc565b91611ffd565b61014051156122235761221e610180516101a051610160516102005160c051612f1d565b611fe2565b60008051602061358f8339815191525460008051602061370f833981519152546001600160a01b039081169116803b1561010c57612283600092918392604051948580948193633eb29b8760e01b83526102005160c05160048501611c99565b03925af1612292575b50611fe2565b61229b9061169d565b3861228c565b5060c0516001600160a01b0316301415611fdd565b90919293955060018060a09896981b036122d760a088026101005101611ec7565b1615612c8d5760016122f3606060a08902610100510101611edb565b151503612c4c5760805115612c355760c051965b60006101e05260805115612c295761232660a088026101005101611ec7565b6101e0525b878760008051602061356f83398151915261238f612353606060a08502610100510101611edb565b6040519182918b60018060a01b036101e051169760018060a01b031696602060a060408184026101005101013592026101005101013585611c78565b0390a3610100516123ae9060a089020160208101359060400135612d6f565b6101c0526000610120526101405115612b2a576123eb6123d1846101c051612df7565b6123de846101c051612df7565b61012052610200516118fa565b6102005261012051151580612b04575b612ad6575b61012051612a28575b8661242361241e60a083026101005101611ec7565b6130f7565b509190608051600014612a1557612445604060a0840261010051010135611cbc565b925b612470602060a085026101005101013585838561246b60a089026101005101611ec7565b6131d1565b6101005130906001600160a01b039061248d9060a0870201611ec7565b1603612950575b50506124b2915091604060a06124bd940261010051010135906118fa565b956101c051906118fa565b96602060a088026101005101013596608051600014612946576000915b6000608051600014612940575061012051925b60008051602061362f833981519152548061293a57506001935b610100516125239060a086020160208101359060400135612d6f565b600b60405191612532836116c6565b87835260018060a01b038616602084015260018060a01b036101e051166040840152602060a08802610100510101356060840152604060a088026101005101013560808401524260a0840152600060c0840152600060e084015260016101008401526001610120840152610140830190815261016083018581526101808401918583528960005260008051602061360f833981519152602052604060002094805186556001860160018060a01b036020830151169060018060a01b03199182825416179055600287019060018060a01b0360408401511690825416179055606081015160038701556080810151600487015560a0810151600587015560c0810151600687015560e0810151600787015561012060088701916126676101008201511515849060ff801983541691151516179055565b0151815461ff00191690151560081b61ff001617905551600985015551600a8401555191015561269a8561064b8561162b565b6126aa8561064b6101e05161162b565b6000805160206135af833981519152546001810181116117fd576001016000805160206135af833981519152556001850185116117fd57600160ff868280980160008051602061362f8339815191525561272c60008051602061386f8339815191529161271e84845416916106c783611a11565b836014958692011606611d3a565b5460081c16908110612928575b50848060a01b038316151580612917575b80612903575b6128e2575b848060a01b036101e051161515806128ce575b806128b7575b612890575b60ff60008051602061384f8339815191525460081c168015612880575b801561286d575b60009015612868575060008051602061376f833981519152545b6000805160206136cf83398151915261281160008051602061378f83398151915254926040519182918a8060a01b036101e05116978b8060a01b038a169742918c602060a060408184026101005101013592026101005101013587611dd1565b0390a4604051602060a08402610100510101358152604060a0840261010051010135602082015260008051602061366f8339815191526040858060a01b036101e0511693868060a01b031692a30193929190611fc5565b6127b1565b5030858060a01b036101e0511614612797565b5030858060a01b03841614612790565b61289c6101e051611664565b8560ff198254161790556128b26101e051611d6a565b612773565b5060ff6128c66101e051611664565b54161561276e565b5030858060a01b036101e051161415612768565b6128eb83611664565b805460ff1916861790556128fe83611d6a565b612755565b5060ff61290f84611664565b541615612750565b5030858060a01b038416141561274a565b61099a61293491611d58565b38612739565b93612507565b926124ed565b61012051916124da565b816104349185602060a0612968836129779998611ccd565b96026101005101013592613376565b9160018060a01b0360008051602061358f8339815191525416926129a260a08b026101005101611ec7565b60008051602061378f8339815191525491853b1561010c576124bd9560a060008e6129f560209583976124b29b6040519a8b998a9889976312c3f55360e11b895202610100510101359260048701611ce9565b03925af1612a06575b899193612494565b612a0f9061169d565b386129fe565b604060a083026101005101013592612447565b60805115612ac05760c0515b60805115612ab75760005b60805115612a9e576000805160206136ef8339815191526040612a6960a08c026101005101611ec7565b6000608051600014612a995750610120515b825194855260208501526001600160a01b03908116941692a3612409565b612a7b565b6000805160206136ef833981519152604060c051612a69565b61012051612a3f565b612ad160a088026101005101611ec7565b612a34565b612aff610180516101a0516101605161012051612afa60a08d026101005101611ec7565b612f1d565b612400565b506101005130906001600160a01b0390612b229060a08b0201611ec7565b1614156123fb565b60008051602061372f8339815191525480612b46575b50612400565b612b53906101c051612df7565b60e052612b6560e051610200516118fa565b6102005260e051610120526101005130906001600160a01b0390612b8d9060a08b0201611ec7565b1603612b9a575b38612b40565b60018060a01b0360008051602061358f8339815191525416612bc360a089026101005101611ec7565b60008051602061370f833981519152546001600160a01b0316823b1561010c57612c0b9260009283604051809681958294633eb29b8760e01b845260e0519060048501611c99565b03925af1612c1a575b50612b94565b612c239061169d565b38612c14565b60c0516101e05261232b565b612c4660a087026101005101611ec7565b96612307565b60405162461bcd60e51b815260206004820152602560248201526000805160206135ef833981519152604482015264081cdc1bdd60da1b6064820152608490fd5b60405162461bcd60e51b81526020600482015260156024820152744f423a207a65726f20636f756e746572706172747960581b6044820152606490fd5b6000805160206137ef83398151915254151561014052611f67565b60405162461bcd60e51b815260206004820152603460248201526000805160206137af83398151915260448201527320666f722066757475726573206d61726b65747360601b6064820152608490fd5b60405162461bcd60e51b815260206004820152600e60248201526d27a11d103d32b937903a30b5b2b960911b6044820152606490fd5b5050565b908082029060001981840990828083109203918083039214612de657670de0b6b3a76400009082821115612dd3577faccb18165bd6fe31ae1cf318dc5b51eee0e1ba569b88cd74c1773b91fac10669940990828211900360ee1b910360121c170290565b634e487b7160005260116020526024601cfd5b5050670de0b6b3a764000091500490565b908082029060001981840990828083109203918083039214612e55576127109082821115612dd3577fbc01a36e2eb1c432ca57a786c226809d495182a9930be0ded288ce703afb7e91940990828211900360fc1b910360041c170290565b505061271091500490565b90670de0b6b3a7640000808302919060001981850993838086109503948086039514612ef95784831115612ee0579082910981600003821680920460028082600302188083028203028083028203028083028203028083028203028083028203028092029003029360018380600003040190848311900302920304170290565b82634e487b71600052156003026011186020526024601cfd5b505080925015612f07570490565b634e487b7160e01b600052601260045260246000fd5b6001600160a01b0380861615959194939092908385161580159190806130f0575b6130e657612f4d829184612df7565b97816130dd575b50156130445750858082111561303b57612f6d916117f0565b80612fde575b505083612f81575b50505050565b60008051602061358f8339815191525416803b1561010c57612fbe936000809460405196879586948593633eb29b8760e01b855260048501611c99565b03925af1612fcf575b808080612f7b565b612fd89061169d565b38612fc7565b8260008051602061358f833981519152541691823b1561010c5761301d9260009283604051809681958294633eb29b8760e01b84528c60048501611c99565b03925af161302c575b80612f73565b6130359061169d565b38613026565b50506000612f6d565b9095501561309e575060008051602061358f8339815191525416803b1561010c5761308a936000809460405196879586948593633eb29b8760e01b855260048501611c99565b03925af16130955750565b611d389061169d565b915060008051602061358f8339815191525416803b1561010c5761308a936000809460405196879586948593633eb29b8760e01b855260048501611c99565b90501538612f54565b5050505050505050565b5087612f3e565b6001600160a01b0390811690811580156131c8575b6131bb5760008051602061358f8339815191525460008051602061378f8339815191525460405163e578253560e01b81526004810194909452602484015260609183916044918391165afa60008181938293613179575b5061317657505050600090600090600090565b92565b935091506060833d6060116131b3575b81613196606093836116e2565b810103126101115750815160208301516040909301519138613163565b3d9150613189565b5050600090600090600090565b5030821461310c565b9092906001600160a01b0316801590811561336c575b50612f7b5780158015613364575b612f7b5760009283811391828061335b575b8015613348575b15613340578481131561333157905b821561332257905b8181111561331a5750905b81156132d1578394816000146132f5578381106132d8575b505b84156132d15761325f9350156132c357613448565b1061326657565b60405162461bcd60e51b815260206004820152602f60248201527f4f72646572426f6f6b3a20636c6f73696e67206c6f737320657863656564732060448201526e3837b9b4ba34b7b71036b0b933b4b760891b6064820152608490fd5b6132cc90611cbc565b613448565b5050505050565b6132ee9195506132e890846117f0565b82612d6f565b9338613248565b838111613303575b5061324a565b613313919550836132e8916117f0565b93386132fd565b905090613230565b61332b90611cbc565b90613225565b61333a90611cbc565b9061321d565b505050505050565b50848212801561320e575084811361320e565b50848112613207565b5082156131f5565b90503014386131e7565b9080158015613440575b61343a5760009182811392839283613430575b8415613416575b83613402575b83156133d6575b505050816133cd575b50806133c4575b6133bf575090565b905090565b508015156133b7565b905015386133b0565b81831293509091836133ee575b5050503880806133a7565b6133f9929350611ccd565b133880806133e3565b92508061340f8484611ccd565b12926133a0565b935080821280613427575b9361339a565b50808413613421565b8181129450613393565b50505090565b508115613380565b80156134ad57613468611bf1926000831215928360001461349f57612d6f565b9015613496577fdb2199519cd329570c1873db66c1723211f1d2b07101caecdca9afade1b956da5490612df7565b613a9890612df7565b6134a890611cbc565b612d6f565b5050600090565b6040805163256da22360e21b602080830191825260048352926001600160401b0392908101838111828210176116b0576040526000809281925190305afa3d15613565573d9283116135515760405192613517601f8201601f19168601856116e2565b83523d828585013e5b80613546575b61353457505050620f424090565b82828051810103126101115750015190565b508282511015613526565b634e487b7160e01b82526041600452602482fd5b6060925061352056fea7080e57afecb3f6dcf0fc619507723c0082857f09bfbe3c336b12ed13846deadb2199519cd329570c1873db66c1723211f1d2b07101caecdca9afade1b956d6db2199519cd329570c1873db66c1723211f1d2b07101caecdca9afade1b956f5db2199519cd329570c1873db66c1723211f1d2b07101caecdca9afade1b956ee4f72646572426f6f6b3a2063616e6e6f74206d6978206d617267696e20616e64db2199519cd329570c1873db66c1723211f1d2b07101caecdca9afade1b956f3db2199519cd329570c1873db66c1723211f1d2b07101caecdca9afade1b956f4945c1c4e99aa89f648fbfe3df471b916f719e16d960fcec0737d4d56bd696838b242177834d07ac02a9f62e34602e5da9d353cbe7df4378423ba8765a4793d80db2199519cd329570c1873db66c1723211f1d2b07101caecdca9afade1b95736db2199519cd329570c1873db66c1723211f1d2b07101caecdca9afade1b95735728bed593a905dc538dfce2542eb359251213509bd5f44012a2fc977c3e48facd3e700a187b599f66e694843f7911012f7409c34c4bf49a70a7b5ae2450ab9a6db2199519cd329570c1873db66c1723211f1d2b07101caecdca9afade1b956d8db2199519cd329570c1873db66c1723211f1d2b07101caecdca9afade1b956dbdb2199519cd329570c1873db66c1723211f1d2b07101caecdca9afade1b95709db2199519cd329570c1873db66c1723211f1d2b07101caecdca9afade1b956efdb2199519cd329570c1873db66c1723211f1d2b07101caecdca9afade1b956d74f72646572426f6f6b3a2073706f742074726164696e672064697361626c6564f02307326290cc223770ba19d1057cc62c43a644ef4255ec333cf5ec0f55ad13db2199519cd329570c1873db66c1723211f1d2b07101caecdca9afade1b95734db2199519cd329570c1873db66c1723211f1d2b07101caecdca9afade1b95733e2d218d59e429d3f18eebd9c5d80c7d85dab8222dab9f739fce327f5a1c10601db2199519cd329570c1873db66c1723211f1d2b07101caecdca9afade1b956fcdb2199519cd329570c1873db66c1723211f1d2b07101caecdca9afade1b9571ea2646970667358221220b82e9ce8e4682e43c7df96ba6283cabb99fb85c1e3af3613db59e40524b83a3d64736f6c63430008160033",
  "linkReferences": {},
  "deployedLinkReferences": {}
}