{
  "_format": "hh-sol-artifact-1",
  "contractName": "OBViewFacet",
  "sourceName": "src/diamond/facets/OBViewFacet.sol",
  "abi": [
    {
      "inputs": [],
      "name": "bestAsk",
      "outputs": [
        {
          "internalType": "uint256",
          "name": "",
          "type": "uint256"
        }
      ],
      "stateMutability": "view",
      "type": "function"
    },
    {
      "inputs": [],
      "name": "bestBid",
      "outputs": [
        {
          "internalType": "uint256",
          "name": "",
          "type": "uint256"
        }
      ],
      "stateMutability": "view",
      "type": "function"
    },
    {
      "inputs": [
        {
          "internalType": "uint256",
          "name": "price",
          "type": "uint256"
        }
      ],
      "name": "buyLevels",
      "outputs": [
        {
          "components": [
            {
              "internalType": "uint256",
              "name": "totalAmount",
              "type": "uint256"
            },
            {
              "internalType": "uint256",
              "name": "firstOrderId",
              "type": "uint256"
            },
            {
              "internalType": "uint256",
              "name": "lastOrderId",
              "type": "uint256"
            },
            {
              "internalType": "bool",
              "name": "exists",
              "type": "bool"
            }
          ],
          "internalType": "struct OrderBookStorage.PriceLevel",
          "name": "level",
          "type": "tuple"
        }
      ],
      "stateMutability": "view",
      "type": "function"
    },
    {
      "inputs": [],
      "name": "getActiveOrdersCount",
      "outputs": [
        {
          "internalType": "uint256",
          "name": "buyCount",
          "type": "uint256"
        },
        {
          "internalType": "uint256",
          "name": "sellCount",
          "type": "uint256"
        }
      ],
      "stateMutability": "view",
      "type": "function"
    },
    {
      "inputs": [],
      "name": "getFeeStructure",
      "outputs": [
        {
          "internalType": "uint256",
          "name": "takerFeeBps",
          "type": "uint256"
        },
        {
          "internalType": "uint256",
          "name": "makerFeeBps",
          "type": "uint256"
        },
        {
          "internalType": "address",
          "name": "protocolFeeRecipient",
          "type": "address"
        },
        {
          "internalType": "uint256",
          "name": "protocolFeeShareBps",
          "type": "uint256"
        },
        {
          "internalType": "uint256",
          "name": "legacyTradingFee",
          "type": "uint256"
        },
        {
          "internalType": "address",
          "name": "marketOwnerFeeRecipient",
          "type": "address"
        }
      ],
      "stateMutability": "view",
      "type": "function"
    },
    {
      "inputs": [
        {
          "internalType": "uint256",
          "name": "orderId",
          "type": "uint256"
        }
      ],
      "name": "getFilledAmount",
      "outputs": [
        {
          "internalType": "uint256",
          "name": "",
          "type": "uint256"
        }
      ],
      "stateMutability": "view",
      "type": "function"
    },
    {
      "inputs": [],
      "name": "getLeverageInfo",
      "outputs": [
        {
          "internalType": "bool",
          "name": "enabled",
          "type": "bool"
        },
        {
          "internalType": "uint256",
          "name": "maxLev",
          "type": "uint256"
        },
        {
          "internalType": "uint256",
          "name": "marginReq",
          "type": "uint256"
        },
        {
          "internalType": "address",
          "name": "controller",
          "type": "address"
        }
      ],
      "stateMutability": "view",
      "type": "function"
    },
    {
      "inputs": [],
      "name": "getMaxSlippageBps",
      "outputs": [
        {
          "internalType": "uint256",
          "name": "",
          "type": "uint256"
        }
      ],
      "stateMutability": "view",
      "type": "function"
    },
    {
      "inputs": [
        {
          "internalType": "uint256",
          "name": "orderId",
          "type": "uint256"
        }
      ],
      "name": "getOrder",
      "outputs": [
        {
          "components": [
            {
              "internalType": "uint256",
              "name": "orderId",
              "type": "uint256"
            },
            {
              "internalType": "address",
              "name": "trader",
              "type": "address"
            },
            {
              "internalType": "uint256",
              "name": "price",
              "type": "uint256"
            },
            {
              "internalType": "uint256",
              "name": "amount",
              "type": "uint256"
            },
            {
              "internalType": "bool",
              "name": "isBuy",
              "type": "bool"
            },
            {
              "internalType": "uint256",
              "name": "timestamp",
              "type": "uint256"
            },
            {
              "internalType": "uint256",
              "name": "nextOrderId",
              "type": "uint256"
            },
            {
              "internalType": "uint256",
              "name": "marginRequired",
              "type": "uint256"
            },
            {
              "internalType": "bool",
              "name": "isMarginOrder",
              "type": "bool"
            },
            {
              "internalType": "uint256",
              "name": "prevOrderId",
              "type": "uint256"
            }
          ],
          "internalType": "struct OrderBookStorage.Order",
          "name": "order",
          "type": "tuple"
        }
      ],
      "stateMutability": "view",
      "type": "function"
    },
    {
      "inputs": [],
      "name": "getTradingParameters",
      "outputs": [
        {
          "internalType": "uint256",
          "name": "marginRequirement",
          "type": "uint256"
        },
        {
          "internalType": "uint256",
          "name": "fee",
          "type": "uint256"
        },
        {
          "internalType": "address",
          "name": "recipient",
          "type": "address"
        }
      ],
      "stateMutability": "view",
      "type": "function"
    },
    {
      "inputs": [
        {
          "internalType": "address",
          "name": "user",
          "type": "address"
        }
      ],
      "name": "getUserOrders",
      "outputs": [
        {
          "internalType": "uint256[]",
          "name": "orderIds",
          "type": "uint256[]"
        }
      ],
      "stateMutability": "view",
      "type": "function"
    },
    {
      "inputs": [
        {
          "internalType": "address",
          "name": "user",
          "type": "address"
        }
      ],
      "name": "getUserPosition",
      "outputs": [
        {
          "internalType": "int256",
          "name": "",
          "type": "int256"
        }
      ],
      "stateMutability": "view",
      "type": "function"
    },
    {
      "inputs": [],
      "name": "lastTradePrice",
      "outputs": [
        {
          "internalType": "uint256",
          "name": "",
          "type": "uint256"
        }
      ],
      "stateMutability": "view",
      "type": "function"
    },
    {
      "inputs": [],
      "name": "marketStatic",
      "outputs": [
        {
          "internalType": "address",
          "name": "vault",
          "type": "address"
        },
        {
          "internalType": "bytes32",
          "name": "marketId",
          "type": "bytes32"
        },
        {
          "internalType": "bool",
          "name": "useVWAP",
          "type": "bool"
        },
        {
          "internalType": "uint256",
          "name": "vwapWindow",
          "type": "uint256"
        }
      ],
      "stateMutability": "view",
      "type": "function"
    },
    {
      "inputs": [],
      "name": "maxSlippageBps",
      "outputs": [
        {
          "internalType": "uint256",
          "name": "",
          "type": "uint256"
        }
      ],
      "stateMutability": "view",
      "type": "function"
    },
    {
      "inputs": [
        {
          "internalType": "uint256",
          "name": "price",
          "type": "uint256"
        }
      ],
      "name": "sellLevels",
      "outputs": [
        {
          "components": [
            {
              "internalType": "uint256",
              "name": "totalAmount",
              "type": "uint256"
            },
            {
              "internalType": "uint256",
              "name": "firstOrderId",
              "type": "uint256"
            },
            {
              "internalType": "uint256",
              "name": "lastOrderId",
              "type": "uint256"
            },
            {
              "internalType": "bool",
              "name": "exists",
              "type": "bool"
            }
          ],
          "internalType": "struct OrderBookStorage.PriceLevel",
          "name": "level",
          "type": "tuple"
        }
      ],
      "stateMutability": "view",
      "type": "function"
    },
    {
      "inputs": [],
      "name": "totalMarginLockedInMarket",
      "outputs": [
        {
          "internalType": "uint256",
          "name": "totalLocked6",
          "type": "uint256"
        }
      ],
      "stateMutability": "view",
      "type": "function"
    }
  ],
  "bytecode": "0x6080806040523461001657610c6a908161001c8239f35b600080fdfe608060408181526004908136101561001657600080fd5b600092833560e01c90816320c1614b14610a1d5750806341371294146109d45780635b7c2dad1461092b57806363c69f081461085c5780636d64bcc914610787578063851955d0146106e85780638e31e7e01461064a5780638f0fa0a5146105eb578063ab47f1bf146105a4578063c4aa739514610192578063cffb7d1514610566578063d09ef24114610406578063d9a319b01461031b578063dadcfd9a146101d9578063df449cb814610197578063ed6d60be146101925763fe1aab4e146100df57600080fd5b3461017c578260031936011261017c57600080516020610b5583398151915254600080516020610bf5833981519152548251634930164760e01b815293840152602090839060249082906001600160a01b03165afa91821561018857839261014c575b6020838351908152f35b9091506020813d602011610180575b8161016860209383610ae7565b8101031261017c5760209250519038610142565b8280fd5b3d915061015b565b81513d85823e3d90fd5b610a58565b8382346101d557816003193601126101d5576020907fdb2199519cd329570c1873db66c1723211f1d2b07101caecdca9afade1b956ee549051908152f35b5080fd5b50823461031857806003193601126103185780807fdb2199519cd329570c1873db66c1723211f1d2b07101caecdca9afade1b956e88054915b8281106102b95750505080807fdb2199519cd329570c1873db66c1723211f1d2b07101caecdca9afade1b956e98054925b83811061025a575050505082519182526020820152f35b818352600080516020610c15833981519152602082818620015485525286832060ff60038201541690816102ab575b50610297575b600101610243565b936102a3600191610b2f565b94905061028f565b600191500154151588610289565b818452600080516020610bd5833981519152602082818720015486525285842060ff600382015416908161030a575b506102f6575b600101610212565b93610302600191610b2f565b9490506102ee565b6001915001541515876102e8565b80fd5b8382346101d557816003193601126101d55760c0907fdb2199519cd329570c1873db66c1723211f1d2b07101caecdca9afade1b9573354907fdb2199519cd329570c1873db66c1723211f1d2b07101caecdca9afade1b95734549060018060a01b0390817fdb2199519cd329570c1873db66c1723211f1d2b07101caecdca9afade1b9573554167fdb2199519cd329570c1873db66c1723211f1d2b07101caecdca9afade1b957365491600080516020610bb58339815191525493600080516020610b95833981519152541694815196875260208701528501526060840152608083015260a0820152f35b50903461017c57602036600319011261017c57916101409282519161042a83610acb565b80835280602084015280848401528060608401528060808401528060a08401528060c08401528060e0840152836101009180838601528061012080960152833581527fdb2199519cd329570c1873db66c1723211f1d2b07101caecdca9afade1b956e1602052209184519283916104a083610acb565b81549687845260018060a01b039081600185015416926020860193845260028501549180870192835260ff60038701549260608901938452870154169260808801931515845260058701549460a0890195865260068801549660c08a019788528c600960078b01549a60e08d019b8c528d60ff6008830154169d019c15158d5201549c019b8c5283519d8e52511660208d015251908b01525160608a015251151560808901525160a08801525160c08701525160e0860152511515908401525190820152f35b8382346101d557816003193601126101d5576020907fdb2199519cd329570c1873db66c1723211f1d2b07101caecdca9afade1b956e7549051908152f35b50903461017c57602036600319011261017c5760209282913581527fdb2199519cd329570c1873db66c1723211f1d2b07101caecdca9afade1b956ec845220549051908152f35b8382346101d557816003193601126101d557606090600080516020610b758339815191525490600080516020610bb5833981519152549060018060a01b03600080516020610b9583398151915254169181519384526020840152820152f35b8382346101d557816003193601126101d55760809060018060a01b03600080516020610b55833981519152541690600080516020610bf5833981519152549060ff7fdb2199519cd329570c1873db66c1723211f1d2b07101caecdca9afade1b956f054167fdb2199519cd329570c1873db66c1723211f1d2b07101caecdca9afade1b956f15492825194855260208501521515908301526060820152f35b50903461017c57602036600319011261017c57610783928291610709610b0a565b50358152600080516020610c15833981519152602052209060ff600382519361073185610a9a565b8054855260018101546020860152600281015484860152015416151560608301525191829182919091606080608083019480518452602081015160208501526040810151604085015201511515910152565b0390f35b8382346101d557816003193601126101d5579060809160ff7fdb2199519cd329570c1873db66c1723211f1d2b07101caecdca9afade1b956dc5416918260001461085357507fdb2199519cd329570c1873db66c1723211f1d2b07101caecdca9afade1b956dd548061084e5750600a5b905b600080516020610b75833981519152547fdb2199519cd329570c1873db66c1723211f1d2b07101caecdca9afade1b956d954825194151585526020850193909352908301526001600160a01b03166060820152f35b6107f7565b506001906107f9565b50913461031857602091826003193601126101d557356001600160a01b038116908190036101d55781939293527fdb2199519cd329570c1873db66c1723211f1d2b07101caecdca9afade1b956e48352818120908251808584549182815201908194845286842090845b81811061091757505050816108dc910382610ae7565b83519485948186019282875251809352850193925b82811061090057505050500390f35b8351855286955093810193928101926001016108f1565b8254845292880192600192830192016108c6565b503461017c57602036600319011261017c576001600160a01b038235818116908190036109d0576044606092600080516020610b55833981519152541694600080516020610bf583398151915254958551968794859363e578253560e01b855284015260248301525afa9182156101885783926109ac576020838351908152f35b9091506060813d6060116109c8575b8161016860609383610ae7565b3d91506109bb565b8480fd5b50903461017c57602036600319011261017c576107839282916109f5610b0a565b50358152600080516020610bd5833981519152602052209060ff600382519361073185610a9a565b8490346101d557816003193601126101d5576020907fdb2199519cd329570c1873db66c1723211f1d2b07101caecdca9afade1b956e6548152f35b34610a95576000366003190112610a955760207fdb2199519cd329570c1873db66c1723211f1d2b07101caecdca9afade1b956de54604051908152f35b600080fd5b608081019081106001600160401b03821117610ab557604052565b634e487b7160e01b600052604160045260246000fd5b61014081019081106001600160401b03821117610ab557604052565b601f909101601f19168101906001600160401b03821190821017610ab557604052565b60405190610b1782610a9a565b60006060838281528260208201528260408201520152565b6000198114610b3e5760010190565b634e487b7160e01b600052601160045260246000fdfedb2199519cd329570c1873db66c1723211f1d2b07101caecdca9afade1b956d6db2199519cd329570c1873db66c1723211f1d2b07101caecdca9afade1b956dadb2199519cd329570c1873db66c1723211f1d2b07101caecdca9afade1b956d8db2199519cd329570c1873db66c1723211f1d2b07101caecdca9afade1b956dbdb2199519cd329570c1873db66c1723211f1d2b07101caecdca9afade1b956e2db2199519cd329570c1873db66c1723211f1d2b07101caecdca9afade1b956d7db2199519cd329570c1873db66c1723211f1d2b07101caecdca9afade1b956e3a2646970667358221220dac02232002818c8b3a33f57458be5e064663179417f1bed420933a76884ff3164736f6c63430008160033",
  "linkReferences": {},
  "deployedLinkReferences": {}
}