{
  "_format": "hh-sol-artifact-1",
  "contractName": "SimpleVAMM",
  "sourceName": "contracts/SimpleVAMM.sol",
  "abi": [
    {
      "inputs": [
        {
          "internalType": "address",
          "name": "_vault",
          "type": "address"
        },
        {
          "internalType": "address",
          "name": "_oracle",
          "type": "address"
        },
        {
          "internalType": "uint256",
          "name": "_initialPrice",
          "type": "uint256"
        }
      ],
      "stateMutability": "nonpayable",
      "type": "constructor"
    },
    {
      "anonymous": false,
      "inputs": [
        {
          "indexed": true,
          "internalType": "address",
          "name": "user",
          "type": "address"
        },
        {
          "indexed": true,
          "internalType": "uint256",
          "name": "positionId",
          "type": "uint256"
        },
        {
          "indexed": false,
          "internalType": "uint256",
          "name": "size",
          "type": "uint256"
        },
        {
          "indexed": false,
          "internalType": "uint256",
          "name": "price",
          "type": "uint256"
        },
        {
          "indexed": false,
          "internalType": "int256",
          "name": "pnl",
          "type": "int256"
        }
      ],
      "name": "PositionClosed",
      "type": "event"
    },
    {
      "anonymous": false,
      "inputs": [
        {
          "indexed": true,
          "internalType": "address",
          "name": "user",
          "type": "address"
        },
        {
          "indexed": true,
          "internalType": "uint256",
          "name": "positionId",
          "type": "uint256"
        },
        {
          "indexed": false,
          "internalType": "bool",
          "name": "isLong",
          "type": "bool"
        },
        {
          "indexed": false,
          "internalType": "uint256",
          "name": "size",
          "type": "uint256"
        },
        {
          "indexed": false,
          "internalType": "uint256",
          "name": "price",
          "type": "uint256"
        },
        {
          "indexed": false,
          "internalType": "uint256",
          "name": "leverage",
          "type": "uint256"
        }
      ],
      "name": "PositionOpened",
      "type": "event"
    },
    {
      "anonymous": false,
      "inputs": [
        {
          "indexed": false,
          "internalType": "uint256",
          "name": "newPrice",
          "type": "uint256"
        },
        {
          "indexed": false,
          "internalType": "int256",
          "name": "netPosition",
          "type": "int256"
        }
      ],
      "name": "PriceUpdated",
      "type": "event"
    },
    {
      "inputs": [],
      "name": "BASIS_POINTS",
      "outputs": [
        {
          "internalType": "uint256",
          "name": "",
          "type": "uint256"
        }
      ],
      "stateMutability": "view",
      "type": "function"
    },
    {
      "inputs": [],
      "name": "MAX_LEVERAGE",
      "outputs": [
        {
          "internalType": "uint256",
          "name": "",
          "type": "uint256"
        }
      ],
      "stateMutability": "view",
      "type": "function"
    },
    {
      "inputs": [],
      "name": "MIN_LEVERAGE",
      "outputs": [
        {
          "internalType": "uint256",
          "name": "",
          "type": "uint256"
        }
      ],
      "stateMutability": "view",
      "type": "function"
    },
    {
      "inputs": [],
      "name": "PRICE_PRECISION",
      "outputs": [
        {
          "internalType": "uint256",
          "name": "",
          "type": "uint256"
        }
      ],
      "stateMutability": "view",
      "type": "function"
    },
    {
      "inputs": [],
      "name": "baseVirtualBaseReserves",
      "outputs": [
        {
          "internalType": "uint256",
          "name": "",
          "type": "uint256"
        }
      ],
      "stateMutability": "view",
      "type": "function"
    },
    {
      "inputs": [],
      "name": "baseVirtualQuoteReserves",
      "outputs": [
        {
          "internalType": "uint256",
          "name": "",
          "type": "uint256"
        }
      ],
      "stateMutability": "view",
      "type": "function"
    },
    {
      "inputs": [
        {
          "internalType": "uint256",
          "name": "positionId",
          "type": "uint256"
        },
        {
          "internalType": "uint256",
          "name": "sizeToClose",
          "type": "uint256"
        },
        {
          "internalType": "uint256",
          "name": "minPrice",
          "type": "uint256"
        },
        {
          "internalType": "uint256",
          "name": "maxPrice",
          "type": "uint256"
        }
      ],
      "name": "closePosition",
      "outputs": [
        {
          "internalType": "int256",
          "name": "pnl",
          "type": "int256"
        }
      ],
      "stateMutability": "nonpayable",
      "type": "function"
    },
    {
      "inputs": [],
      "name": "getEffectiveReserves",
      "outputs": [
        {
          "internalType": "uint256",
          "name": "baseReserves",
          "type": "uint256"
        },
        {
          "internalType": "uint256",
          "name": "quoteReserves",
          "type": "uint256"
        }
      ],
      "stateMutability": "view",
      "type": "function"
    },
    {
      "inputs": [],
      "name": "getMarkPrice",
      "outputs": [
        {
          "internalType": "uint256",
          "name": "",
          "type": "uint256"
        }
      ],
      "stateMutability": "view",
      "type": "function"
    },
    {
      "inputs": [],
      "name": "getMarketSummary",
      "outputs": [
        {
          "internalType": "uint256",
          "name": "markPrice",
          "type": "uint256"
        },
        {
          "internalType": "int256",
          "name": "netPositionSize",
          "type": "int256"
        },
        {
          "internalType": "uint256",
          "name": "totalLongSizeUint",
          "type": "uint256"
        },
        {
          "internalType": "uint256",
          "name": "totalShortSizeUint",
          "type": "uint256"
        },
        {
          "internalType": "uint256",
          "name": "baseReserves",
          "type": "uint256"
        },
        {
          "internalType": "uint256",
          "name": "quoteReserves",
          "type": "uint256"
        }
      ],
      "stateMutability": "view",
      "type": "function"
    },
    {
      "inputs": [
        {
          "internalType": "uint256",
          "name": "positionId",
          "type": "uint256"
        }
      ],
      "name": "getPosition",
      "outputs": [
        {
          "components": [
            {
              "internalType": "uint256",
              "name": "positionId",
              "type": "uint256"
            },
            {
              "internalType": "int256",
              "name": "size",
              "type": "int256"
            },
            {
              "internalType": "bool",
              "name": "isLong",
              "type": "bool"
            },
            {
              "internalType": "uint256",
              "name": "entryPrice",
              "type": "uint256"
            },
            {
              "internalType": "uint256",
              "name": "entryFundingIndex",
              "type": "uint256"
            },
            {
              "internalType": "uint256",
              "name": "lastInteractionTime",
              "type": "uint256"
            },
            {
              "internalType": "bool",
              "name": "isActive",
              "type": "bool"
            }
          ],
          "internalType": "struct ISimpleVAMM.Position",
          "name": "",
          "type": "tuple"
        }
      ],
      "stateMutability": "view",
      "type": "function"
    },
    {
      "inputs": [
        {
          "internalType": "uint256",
          "name": "size",
          "type": "uint256"
        },
        {
          "internalType": "bool",
          "name": "isLong",
          "type": "bool"
        }
      ],
      "name": "getPriceImpact",
      "outputs": [
        {
          "internalType": "uint256",
          "name": "",
          "type": "uint256"
        }
      ],
      "stateMutability": "view",
      "type": "function"
    },
    {
      "inputs": [
        {
          "internalType": "uint256",
          "name": "positionId",
          "type": "uint256"
        }
      ],
      "name": "getUnrealizedPnL",
      "outputs": [
        {
          "internalType": "int256",
          "name": "",
          "type": "int256"
        }
      ],
      "stateMutability": "view",
      "type": "function"
    },
    {
      "inputs": [
        {
          "internalType": "address",
          "name": "user",
          "type": "address"
        }
      ],
      "name": "getUserPositions",
      "outputs": [
        {
          "components": [
            {
              "internalType": "uint256",
              "name": "positionId",
              "type": "uint256"
            },
            {
              "internalType": "int256",
              "name": "size",
              "type": "int256"
            },
            {
              "internalType": "bool",
              "name": "isLong",
              "type": "bool"
            },
            {
              "internalType": "uint256",
              "name": "entryPrice",
              "type": "uint256"
            },
            {
              "internalType": "uint256",
              "name": "entryFundingIndex",
              "type": "uint256"
            },
            {
              "internalType": "uint256",
              "name": "lastInteractionTime",
              "type": "uint256"
            },
            {
              "internalType": "bool",
              "name": "isActive",
              "type": "bool"
            }
          ],
          "internalType": "struct ISimpleVAMM.Position[]",
          "name": "",
          "type": "tuple[]"
        }
      ],
      "stateMutability": "view",
      "type": "function"
    },
    {
      "inputs": [],
      "name": "globalPositionId",
      "outputs": [
        {
          "internalType": "uint256",
          "name": "",
          "type": "uint256"
        }
      ],
      "stateMutability": "view",
      "type": "function"
    },
    {
      "inputs": [],
      "name": "maintenanceMarginRatio",
      "outputs": [
        {
          "internalType": "uint256",
          "name": "",
          "type": "uint256"
        }
      ],
      "stateMutability": "view",
      "type": "function"
    },
    {
      "inputs": [],
      "name": "maxReserveMultiplier",
      "outputs": [
        {
          "internalType": "uint256",
          "name": "",
          "type": "uint256"
        }
      ],
      "stateMutability": "view",
      "type": "function"
    },
    {
      "inputs": [],
      "name": "minReserveMultiplier",
      "outputs": [
        {
          "internalType": "uint256",
          "name": "",
          "type": "uint256"
        }
      ],
      "stateMutability": "view",
      "type": "function"
    },
    {
      "inputs": [],
      "name": "netPosition",
      "outputs": [
        {
          "internalType": "int256",
          "name": "",
          "type": "int256"
        }
      ],
      "stateMutability": "view",
      "type": "function"
    },
    {
      "inputs": [
        {
          "internalType": "uint256",
          "name": "collateralAmount",
          "type": "uint256"
        },
        {
          "internalType": "bool",
          "name": "isLong",
          "type": "bool"
        },
        {
          "internalType": "uint256",
          "name": "leverage",
          "type": "uint256"
        },
        {
          "internalType": "uint256",
          "name": "minPrice",
          "type": "uint256"
        },
        {
          "internalType": "uint256",
          "name": "maxPrice",
          "type": "uint256"
        }
      ],
      "name": "openPosition",
      "outputs": [
        {
          "internalType": "uint256",
          "name": "positionId",
          "type": "uint256"
        }
      ],
      "stateMutability": "nonpayable",
      "type": "function"
    },
    {
      "inputs": [],
      "name": "oracle",
      "outputs": [
        {
          "internalType": "contract ISimplePriceOracle",
          "name": "",
          "type": "address"
        }
      ],
      "stateMutability": "view",
      "type": "function"
    },
    {
      "inputs": [],
      "name": "owner",
      "outputs": [
        {
          "internalType": "address",
          "name": "",
          "type": "address"
        }
      ],
      "stateMutability": "view",
      "type": "function"
    },
    {
      "inputs": [
        {
          "internalType": "uint256",
          "name": "",
          "type": "uint256"
        }
      ],
      "name": "positionOwner",
      "outputs": [
        {
          "internalType": "address",
          "name": "",
          "type": "address"
        }
      ],
      "stateMutability": "view",
      "type": "function"
    },
    {
      "inputs": [
        {
          "internalType": "uint256",
          "name": "",
          "type": "uint256"
        }
      ],
      "name": "positions",
      "outputs": [
        {
          "internalType": "uint256",
          "name": "positionId",
          "type": "uint256"
        },
        {
          "internalType": "int256",
          "name": "size",
          "type": "int256"
        },
        {
          "internalType": "bool",
          "name": "isLong",
          "type": "bool"
        },
        {
          "internalType": "uint256",
          "name": "entryPrice",
          "type": "uint256"
        },
        {
          "internalType": "uint256",
          "name": "entryFundingIndex",
          "type": "uint256"
        },
        {
          "internalType": "uint256",
          "name": "lastInteractionTime",
          "type": "uint256"
        },
        {
          "internalType": "bool",
          "name": "isActive",
          "type": "bool"
        }
      ],
      "stateMutability": "view",
      "type": "function"
    },
    {
      "inputs": [],
      "name": "totalLongSize",
      "outputs": [
        {
          "internalType": "int256",
          "name": "",
          "type": "int256"
        }
      ],
      "stateMutability": "view",
      "type": "function"
    },
    {
      "inputs": [],
      "name": "totalShortSize",
      "outputs": [
        {
          "internalType": "int256",
          "name": "",
          "type": "int256"
        }
      ],
      "stateMutability": "view",
      "type": "function"
    },
    {
      "inputs": [],
      "name": "tradingFeeRate",
      "outputs": [
        {
          "internalType": "uint256",
          "name": "",
          "type": "uint256"
        }
      ],
      "stateMutability": "view",
      "type": "function"
    },
    {
      "inputs": [
        {
          "internalType": "address",
          "name": "newOwner",
          "type": "address"
        }
      ],
      "name": "transferOwnership",
      "outputs": [],
      "stateMutability": "nonpayable",
      "type": "function"
    },
    {
      "inputs": [
        {
          "internalType": "uint256",
          "name": "_volumeScaleFactor",
          "type": "uint256"
        }
      ],
      "name": "updateSensitivity",
      "outputs": [],
      "stateMutability": "nonpayable",
      "type": "function"
    },
    {
      "inputs": [
        {
          "internalType": "address",
          "name": "",
          "type": "address"
        },
        {
          "internalType": "uint256",
          "name": "",
          "type": "uint256"
        }
      ],
      "name": "userPositionIds",
      "outputs": [
        {
          "internalType": "uint256",
          "name": "",
          "type": "uint256"
        }
      ],
      "stateMutability": "view",
      "type": "function"
    },
    {
      "inputs": [],
      "name": "vault",
      "outputs": [
        {
          "internalType": "contract ISimpleVault",
          "name": "",
          "type": "address"
        }
      ],
      "stateMutability": "view",
      "type": "function"
    },
    {
      "inputs": [],
      "name": "volumeScaleFactor",
      "outputs": [
        {
          "internalType": "uint256",
          "name": "",
          "type": "uint256"
        }
      ],
      "stateMutability": "view",
      "type": "function"
    }
  ],
  "bytecode": "0x60803461010057601f6117df38819003918201601f19168301916001600160401b0383118484101761010557808492606094604052833981010312610100576100478161011b565b9060406100566020830161011b565b910151601e6003556101f460045568056bc75e2d6310000091826005556032600755670de0b6b3a76400009384600855678ac7230489e800006009556001600d5560018060a01b0319913383600054161760005560018060a01b03809216836001541617600155169060025416176002558181029181830414901517156100ea57046006556040516116af90816101308239f35b634e487b7160e01b600052601160045260246000fd5b600080fd5b634e487b7160e01b600052604160045260246000fd5b51906001600160a01b03821682036101005756fe608060408181526004918236101561001657600080fd5b60009260e08435811c928363022f84b714611217575082630f259013146111f65782632a6bc2dd14610fc657826334c1557d14610fa957826344f8809714610f895782635bf804af14610f695782636040963214610f4b5782636e33531b14610ac15782636e7f1e4614610a9a5782637b6eb9b614610a435782637da21dea14610a235782637dc0d1d0146109f9578263833b0acb146109d957826383acb48a146109ba5782638da5cb5b1461099157826395082d251461096d57826399fbab88146108fb5782639b45ec97146108de5782639fc15e781461085e578263add3fad11461083e578263b3060d361461080a578263b5e55377146107ea578263bf6268f2146107ca578263ca41488214610778578263d2e7b9781461067b578263e01df1a81461065b578263e1f1c4a71461063d578263eaf1f1e6146102e2578263eb02c3011461025757508163f257b32e14610238578163f2fde38b146101b2575063fbfa77cf1461018757600080fd5b346101ae57816003193601126101ae5760015490516001600160a01b039091168152602090f35b5080fd5b905034610234576020366003190112610234576101cd611233565b835491906001600160a01b03906101e73383861614611641565b169283156102015750506001600160a01b03191617815580f35b906020606492519162461bcd60e51b8352820152600d60248201526c24b73b30b634b21037bbb732b960991b6044820152fd5b8280fd5b5050346101ae57816003193601126101ae57602090600d549051908152f35b908385346102df5760203660031901126102df579060ff6006826102dd9461027d611594565b5086358152600a60205220835195610294876114bc565b815487526001820154602088015283600283015416151585880152600382015460608801528101546080870152600581015460a0870152015416151560c084015251809261124e565bf35b80fd5b508383346101ae5760a03660031901126101ae578235906103016112c1565b6044358315610605576001811015806105fa575b156105c45761032481856112d0565b9361035c610330611319565b91606435831015806105b8575b6103469061147f565b612710610355600354896112d0565b0490611359565b6001546001600160a01b0316803b156105b4578551630ead3e9960e31b815233818b019081526020810193909352918891839182908490829060400103925af180156105aa57908791610592575b5050600d54946103b986611524565b600d55831561057e576103ce81600e54611533565b600e555b600e54600f546103e19161154f565b6010558451966103f0886114bc565b8688526020978789808301858152898401981515988981526060850190888252608086019287845260a087019442865260c0880196600188528952600a90528c8820965187555160018701555115156002860190610459919060ff801983541691151516179055565b516003850155518c8401555160058301555115159060060190610487919060ff801983541691151516179055565b600c8852858120336bffffffffffffffffffffffff60a01b825416179055338152600b88528581208054916801000000000000000083101561056b5750876104dd836104f6936001849a99989796018155611293565b90919082549060031b91821b91600019901b1916179055565b8551938452878401528483015260608201527f5cf8fa4a8e333990018876ad3a82065e68b3859d46c3198b692b77fc3043808b60803392a37f31423be1df71d4ecba11d1051d8033416ed316d601c79812e7cd8103e35b88a081610558611319565b601054825191825286820152a151908152f35b634e487b7160e01b815260418b52602490fd5b61058a81600f54611533565b600f556103d2565b61059b906114ee565b6105a65785886103aa565b8580fd5b85513d89823e3d90fd5b8780fd5b5060843583111561033d565b825162461bcd60e51b8152602081880152601060248201526f496e76616c6964206c6576657261676560801b6044820152606490fd5b506032811115610315565b825162461bcd60e51b81526020818801526012602482015271125b9d985b1a590818dbdb1b185d195c985b60721b6044820152606490fd5b505050346101ae57816003193601126101ae57602090516127108152f35b505050346101ae57816003193601126101ae576020906003549051908152f35b508284346102df57816003193601126102df578235906106996112c1565b916106a2611319565b926106ab611373565b9290911561073b57600a900480821115610731576106c891611366565b905b670de0b6b3a76400009081810291818304149015171561071e5760209550906106f2916112f9565b905b508181111561070f579061070791611366565b905b51908152f35b61071891611366565b90610709565b634e487b7160e01b835260118652602483fd5b5060011c906106ca565b90600a610749920490611359565b90670de0b6b3a76400009081810291818304149015171561071e576020955090610772916112f9565b906106f4565b505050346101ae57816003193601126101ae5760c090610796611319565b90601054600e54600f54906107a9611373565b949093815196875260208701528501526060840152608083015260a0820152f35b505050346101ae57816003193601126101ae57602090600f549051908152f35b505050346101ae57816003193601126101ae576020906007549051908152f35b5090503461023457602036600319011261023457358252600c6020908152918190205490516001600160a01b039091168152f35b505050346101ae57816003193601126101ae576020906005549051908152f35b509050346102345760203660031901126102345780359161088960018060a01b038554163314611641565b821515806108d2575b1561089f57505060075580f35b906020606492519162461bcd60e51b8352820152600d60248201526c496e76616c6964207363616c6560981b6044820152fd5b506103e8831115610892565b505050346101ae57816003193601126101ae576020905160328152f35b838286346102df5760203660031901126102df57829082358152600a6020522080549260018201549260ff600284015416916003840154918401549260ff600660058701549601541695825197885260208801521515908601526060850152608084015260a0830152151560c0820152f35b505050346101ae57816003193601126101ae5760209051670de0b6b3a76400008152f35b505050346101ae57816003193601126101ae57905490516001600160a01b039091168152602090f35b5090503461023457826003193601126102345760209250549051908152f35b505050346101ae57816003193601126101ae576020906010549051908152f35b505050346101ae57816003193601126101ae5760025490516001600160a01b039091168152602090f35b505050346101ae57816003193601126101ae576020906009549051908152f35b505050346101ae57806003193601126101ae57610a5e611233565b6001600160a01b03168252600b602052808220805460243593908410156102df5750602092610a8c91611293565b91905490519160031b1c8152f35b8385346102df57806003193601126102df5750610ab5611373565b82519182526020820152f35b84828534610234576080366003190112610234578135906024918235818652602094600c865260018060a01b03968785822054163303610f1457838152600a875284812091600683019660ff88541615610edc576001978885019a8b5491828811610eab57670de0b6b3a76400009a9b9c610b3a611319565b9b8c986044358a101580610e9f575b610b529061147f565b600281015460ff169d8e15610e875750610b736003610b799201548b611366565b8b6112d0565b049b5b15610e7357610b8d89600e5461154f565b600e555b610ba0600e54600f549061154f565b601055888403610e535750805460ff19169055338552600b8c52888520858c5b610d84575b5050909192939495969798995b612710610be16003548a6112d0565b04610bf083835416918d61154f565b813b156105b4578791604483928e519485938492630196c4ad60e71b8452338d8501528b8401525af18015610d7a57610d67575b505416918a8951809263649c076360e01b8252338783015281865afa908115610d5d579087918691610d26575b50610c659291610c60916112d0565b6112f9565b91813b15610d22578751639101e5b360e01b81523391810191825260208201939093528391839182908490829060400103925af18015610d1857610d04575b505083519182528582015283838201527f398340331999d3ec20eba0ca6ed7fff4090f1906a8f6dfa8d96b3c470815500560603392a37f31423be1df71d4ecba11d1051d8033416ed316d601c79812e7cd8103e35b88a081610558611319565b610d0e82916114ee565b6102df5780610ca4565b86513d84823e3d90fd5b8380fd5b8092508c8092503d8311610d56575b610d3f8183611502565b81010312610d5257518690610c65610c51565b8480fd5b503d610d35565b89513d87823e3d90fd5b610d73909691966114ee565b948c610c24565b8b513d89823e3d90fd5b815480821015610e4d578a90610d9a8385611293565b929054600393841b1c14610dbc57505090610db58d92611524565b9091610bc0565b90929160009e9495969798999a9b9c9d9e1991828101908111610e3b57906104dd610dea610df79386611293565b905490871b1c9185611293565b81548015610e2957810192610e0c8484611293565b81939154921b1b1916905555999897969594939291908c80610bc5565b634e487b7160e01b8a5260318952878afd5b634e487b7160e01b8b5260118a52888bfd5b50610bc5565b9050610e6c88829d939495969798999a9b9c9d5461154f565b9055610bd2565b610e7f89600f5461154f565b600f55610b91565b610b73906003610e98930154611366565b049b610b7c565b506064358a1115610b49565b895162461bcd60e51b81528086018d9052600c818601526b496e76616c69642073697a6560a01b6044820152606490fd5b865162461bcd60e51b815291820189905260139082015272506f736974696f6e206e6f742061637469766560681b6044820152606490fd5b845162461bcd60e51b8152808301889052601281880152712737ba103837b9b4ba34b7b71037bbb732b960711b6044820152606490fd5b505050346101ae57816003193601126101ae57602090610707611319565b505050346101ae57816003193601126101ae57602090600e549051908152f35b505050346101ae57816003193601126101ae576020906008549051908152f35b505050346101ae57816003193601126101ae576020905160018152f35b91509134610d2257602080600319360112610d52576001600160a01b03610feb611233565b168552600b81528185208251808284829454938481520190895284892092895b868282106111e05750505061102292500382611502565b8593865b8251811015611072576110398184611568565b518852600a845260ff6006868a2001541661105d575b61105890611524565b611026565b9461106a61105891611524565b95905061104f565b5094908693946110818161157c565b9061108e87519283611502565b80825261109d601f199161157c565b0184865b8281106111ca575050508493855b835181101561117c576110c28185611568565b518752600a80835260ff60069181838c8c200154166110ed575b5050506110e890611524565b6110af565b91839891611173936111026110e8968a611568565b518c5286528b8b20918c5192611117846114bc565b805484526001810154888501526002810154831615158e850152600381015460608501528a8101546080850152600581015460a0850152015416151560c08201526111628287611568565b5261116d8186611568565b50611524565b95908a806110dc565b875182815283518184018190528190818b019086860190868c8f5b8382106111a45786860387f35b9184965082866111ba600194969884985161124e565b0196019201869594929391611197565b6111d2611594565b8282860101520185906110a1565b855484526001958601958795509301920161100b565b508284346102df5760203660031901126102df5750610707602092356115cc565b8590346101ae57816003193601126101ae576020906006548152f35b600435906001600160a01b038216820361124957565b600080fd5b60c080918051845260208101516020850152604081015115156040850152606081015160608501526080810151608085015260a081015160a085015201511515910152565b80548210156112ab5760005260206000200190600090565b634e487b7160e01b600052603260045260246000fd5b60243590811515820361124957565b818102929181159184041417156112e357565b634e487b7160e01b600052601160045260246000fd5b8115611303570490565b634e487b7160e01b600052601260045260246000fd5b611321611373565b90670de0b6b3a7640000918281029281840414901517156112e357611345916112f9565b90565b600160ff1b81146112e35760000390565b919082018092116112e357565b919082039182116112e357565b600e546113949060008112611471575b600f54600081126114625790611359565b6008549080158015611413575b5050670de0b6b3a76400006113c6816113bc846005546112d0565b04926006546112d0565b0490601054600081136000146113f557600a9004808211156113ee576113eb91611366565b91565b5060011c91565b600081949294126114035750565b92600a6103556113eb9395611348565b670de0b6b3a76400008083029283041417156112e357600754611435916112f9565b908082111561145b57505b6009548082101561145457505b38806113a1565b905061144d565b9050611440565b61146b90611348565b90611359565b61147a90611348565b611383565b1561148657565b60405162461bcd60e51b815260206004820152600e60248201526d507269636520736c69707061676560901b6044820152606490fd5b60e0810190811067ffffffffffffffff8211176114d857604052565b634e487b7160e01b600052604160045260246000fd5b67ffffffffffffffff81116114d857604052565b90601f8019910116810190811067ffffffffffffffff8211176114d857604052565b60001981146112e35760010190565b919091600083820193841291129080158216911516176112e357565b818103929160001380158285131691841216176112e357565b80518210156112ab5760209160051b010190565b67ffffffffffffffff81116114d85760051b60200190565b604051906115a1826114bc565b8160c06000918281528260208201528260408201528260608201528260808201528260a08201520152565b600052600a602052604060002060ff6006820154161561163b57670de0b6b3a7640000906115f8611319565b9060018101549060ff60028201541660001461162a5761162692600361162092015490611366565b906112d0565b0490565b611626926003611620920154611366565b50600090565b1561164857565b60405162461bcd60e51b81526020600482015260096024820152682737ba1037bbb732b960b91b6044820152606490fdfea26469706673582212204e411988eb1bb85c58852857941f3b76d1211ffe6f73e954b6d7390c8329d56364736f6c63430008140033",
  "linkReferences": {},
  "deployedLinkReferences": {}
}