{
  "_format": "hh-sol-artifact-1",
  "contractName": "OrderBookFactory",
  "sourceName": "contracts/OrderBookFactory.sol",
  "abi": [
    {
      "inputs": [
        {
          "internalType": "address",
          "name": "_vaultRouter",
          "type": "address"
        },
        {
          "internalType": "address",
          "name": "_admin",
          "type": "address"
        }
      ],
      "stateMutability": "nonpayable",
      "type": "constructor"
    },
    {
      "inputs": [],
      "name": "AccessControlBadConfirmation",
      "type": "error"
    },
    {
      "inputs": [
        {
          "internalType": "address",
          "name": "account",
          "type": "address"
        },
        {
          "internalType": "bytes32",
          "name": "neededRole",
          "type": "bytes32"
        }
      ],
      "name": "AccessControlUnauthorizedAccount",
      "type": "error"
    },
    {
      "inputs": [],
      "name": "ReentrancyGuardReentrantCall",
      "type": "error"
    },
    {
      "anonymous": false,
      "inputs": [
        {
          "indexed": false,
          "internalType": "bool",
          "name": "isPaused",
          "type": "bool"
        },
        {
          "indexed": false,
          "internalType": "uint256",
          "name": "timestamp",
          "type": "uint256"
        }
      ],
      "name": "ContractPauseStatusChanged",
      "type": "event"
    },
    {
      "anonymous": false,
      "inputs": [
        {
          "indexed": true,
          "internalType": "address",
          "name": "creator",
          "type": "address"
        },
        {
          "indexed": true,
          "internalType": "bytes32",
          "name": "marketId",
          "type": "bytes32"
        },
        {
          "indexed": false,
          "internalType": "uint256",
          "name": "amount",
          "type": "uint256"
        }
      ],
      "name": "CreatorFeeDistributed",
      "type": "event"
    },
    {
      "anonymous": false,
      "inputs": [
        {
          "indexed": true,
          "internalType": "bytes32",
          "name": "marketId",
          "type": "bytes32"
        },
        {
          "indexed": true,
          "internalType": "address",
          "name": "orderBook",
          "type": "address"
        },
        {
          "indexed": false,
          "internalType": "string",
          "name": "symbol",
          "type": "string"
        },
        {
          "indexed": false,
          "internalType": "string",
          "name": "metricId",
          "type": "string"
        },
        {
          "indexed": false,
          "internalType": "bool",
          "name": "isCustomMetric",
          "type": "bool"
        },
        {
          "indexed": true,
          "internalType": "address",
          "name": "creator",
          "type": "address"
        },
        {
          "indexed": false,
          "internalType": "uint256",
          "name": "timestamp",
          "type": "uint256"
        }
      ],
      "name": "MarketCreated",
      "type": "event"
    },
    {
      "anonymous": false,
      "inputs": [
        {
          "indexed": true,
          "internalType": "bytes32",
          "name": "marketId",
          "type": "bytes32"
        },
        {
          "indexed": false,
          "internalType": "bool",
          "name": "isActive",
          "type": "bool"
        },
        {
          "indexed": false,
          "internalType": "uint256",
          "name": "timestamp",
          "type": "uint256"
        }
      ],
      "name": "MarketStatusChanged",
      "type": "event"
    },
    {
      "anonymous": false,
      "inputs": [
        {
          "indexed": true,
          "internalType": "bytes32",
          "name": "marketId",
          "type": "bytes32"
        },
        {
          "indexed": false,
          "internalType": "uint256",
          "name": "volume24h",
          "type": "uint256"
        },
        {
          "indexed": false,
          "internalType": "uint256",
          "name": "timestamp",
          "type": "uint256"
        }
      ],
      "name": "MarketVolumeUpdated",
      "type": "event"
    },
    {
      "anonymous": false,
      "inputs": [
        {
          "indexed": true,
          "internalType": "bytes32",
          "name": "role",
          "type": "bytes32"
        },
        {
          "indexed": true,
          "internalType": "bytes32",
          "name": "previousAdminRole",
          "type": "bytes32"
        },
        {
          "indexed": true,
          "internalType": "bytes32",
          "name": "newAdminRole",
          "type": "bytes32"
        }
      ],
      "name": "RoleAdminChanged",
      "type": "event"
    },
    {
      "anonymous": false,
      "inputs": [
        {
          "indexed": true,
          "internalType": "bytes32",
          "name": "role",
          "type": "bytes32"
        },
        {
          "indexed": true,
          "internalType": "address",
          "name": "account",
          "type": "address"
        },
        {
          "indexed": true,
          "internalType": "address",
          "name": "sender",
          "type": "address"
        }
      ],
      "name": "RoleGranted",
      "type": "event"
    },
    {
      "anonymous": false,
      "inputs": [
        {
          "indexed": true,
          "internalType": "bytes32",
          "name": "role",
          "type": "bytes32"
        },
        {
          "indexed": true,
          "internalType": "address",
          "name": "account",
          "type": "address"
        },
        {
          "indexed": true,
          "internalType": "address",
          "name": "sender",
          "type": "address"
        }
      ],
      "name": "RoleRevoked",
      "type": "event"
    },
    {
      "anonymous": false,
      "inputs": [
        {
          "indexed": true,
          "internalType": "address",
          "name": "oldVaultRouter",
          "type": "address"
        },
        {
          "indexed": true,
          "internalType": "address",
          "name": "newVaultRouter",
          "type": "address"
        },
        {
          "indexed": false,
          "internalType": "uint256",
          "name": "timestamp",
          "type": "uint256"
        }
      ],
      "name": "VaultRouterUpdated",
      "type": "event"
    },
    {
      "inputs": [],
      "name": "DEFAULT_ADMIN_ROLE",
      "outputs": [
        {
          "internalType": "bytes32",
          "name": "",
          "type": "bytes32"
        }
      ],
      "stateMutability": "view",
      "type": "function"
    },
    {
      "inputs": [],
      "name": "MARKET_CREATOR_ROLE",
      "outputs": [
        {
          "internalType": "bytes32",
          "name": "",
          "type": "bytes32"
        }
      ],
      "stateMutability": "view",
      "type": "function"
    },
    {
      "inputs": [],
      "name": "ORACLE_ROLE",
      "outputs": [
        {
          "internalType": "bytes32",
          "name": "",
          "type": "bytes32"
        }
      ],
      "stateMutability": "view",
      "type": "function"
    },
    {
      "inputs": [
        {
          "internalType": "uint256",
          "name": "",
          "type": "uint256"
        }
      ],
      "name": "allMarketIds",
      "outputs": [
        {
          "internalType": "bytes32",
          "name": "",
          "type": "bytes32"
        }
      ],
      "stateMutability": "view",
      "type": "function"
    },
    {
      "inputs": [
        {
          "internalType": "string[]",
          "name": "symbols",
          "type": "string[]"
        }
      ],
      "name": "batchCreateTraditionalMarkets",
      "outputs": [
        {
          "internalType": "bytes32[]",
          "name": "marketIds",
          "type": "bytes32[]"
        },
        {
          "internalType": "address[]",
          "name": "orderBookAddresses",
          "type": "address[]"
        }
      ],
      "stateMutability": "payable",
      "type": "function"
    },
    {
      "inputs": [],
      "name": "claimCreatorFees",
      "outputs": [],
      "stateMutability": "nonpayable",
      "type": "function"
    },
    {
      "inputs": [
        {
          "internalType": "string",
          "name": "symbol",
          "type": "string"
        },
        {
          "internalType": "string",
          "name": "metricId",
          "type": "string"
        }
      ],
      "name": "createCustomMetricMarket",
      "outputs": [
        {
          "internalType": "bytes32",
          "name": "marketId",
          "type": "bytes32"
        },
        {
          "internalType": "address",
          "name": "orderBookAddress",
          "type": "address"
        }
      ],
      "stateMutability": "payable",
      "type": "function"
    },
    {
      "inputs": [
        {
          "internalType": "string",
          "name": "symbol",
          "type": "string"
        }
      ],
      "name": "createTraditionalMarket",
      "outputs": [
        {
          "internalType": "bytes32",
          "name": "marketId",
          "type": "bytes32"
        },
        {
          "internalType": "address",
          "name": "orderBookAddress",
          "type": "address"
        }
      ],
      "stateMutability": "payable",
      "type": "function"
    },
    {
      "inputs": [
        {
          "internalType": "address",
          "name": "",
          "type": "address"
        }
      ],
      "name": "creatorFeeEarned",
      "outputs": [
        {
          "internalType": "uint256",
          "name": "",
          "type": "uint256"
        }
      ],
      "stateMutability": "view",
      "type": "function"
    },
    {
      "inputs": [],
      "name": "creatorFeeRate",
      "outputs": [
        {
          "internalType": "uint256",
          "name": "",
          "type": "uint256"
        }
      ],
      "stateMutability": "view",
      "type": "function"
    },
    {
      "inputs": [
        {
          "internalType": "uint256",
          "name": "",
          "type": "uint256"
        }
      ],
      "name": "customMetricMarkets",
      "outputs": [
        {
          "internalType": "bytes32",
          "name": "",
          "type": "bytes32"
        }
      ],
      "stateMutability": "view",
      "type": "function"
    },
    {
      "inputs": [
        {
          "internalType": "bytes32",
          "name": "marketId",
          "type": "bytes32"
        },
        {
          "internalType": "uint256",
          "name": "totalFees",
          "type": "uint256"
        }
      ],
      "name": "distributeFees",
      "outputs": [],
      "stateMutability": "nonpayable",
      "type": "function"
    },
    {
      "inputs": [],
      "name": "getActiveMarkets",
      "outputs": [
        {
          "internalType": "bytes32[]",
          "name": "",
          "type": "bytes32[]"
        }
      ],
      "stateMutability": "view",
      "type": "function"
    },
    {
      "inputs": [],
      "name": "getAllMarkets",
      "outputs": [
        {
          "internalType": "bytes32[]",
          "name": "",
          "type": "bytes32[]"
        }
      ],
      "stateMutability": "view",
      "type": "function"
    },
    {
      "inputs": [],
      "name": "getCustomMetricMarkets",
      "outputs": [
        {
          "internalType": "bytes32[]",
          "name": "",
          "type": "bytes32[]"
        }
      ],
      "stateMutability": "view",
      "type": "function"
    },
    {
      "inputs": [
        {
          "internalType": "bytes32",
          "name": "marketId",
          "type": "bytes32"
        }
      ],
      "name": "getMarket",
      "outputs": [
        {
          "components": [
            {
              "internalType": "bytes32",
              "name": "marketId",
              "type": "bytes32"
            },
            {
              "internalType": "address",
              "name": "orderBookAddress",
              "type": "address"
            },
            {
              "internalType": "string",
              "name": "symbol",
              "type": "string"
            },
            {
              "internalType": "string",
              "name": "metricId",
              "type": "string"
            },
            {
              "internalType": "bool",
              "name": "isCustomMetric",
              "type": "bool"
            },
            {
              "internalType": "bool",
              "name": "isActive",
              "type": "bool"
            },
            {
              "internalType": "uint256",
              "name": "createdAt",
              "type": "uint256"
            },
            {
              "internalType": "address",
              "name": "creator",
              "type": "address"
            }
          ],
          "internalType": "struct OrderBookFactory.MarketInfo",
          "name": "",
          "type": "tuple"
        }
      ],
      "stateMutability": "view",
      "type": "function"
    },
    {
      "inputs": [
        {
          "internalType": "string",
          "name": "metricId",
          "type": "string"
        }
      ],
      "name": "getMarketByMetric",
      "outputs": [
        {
          "internalType": "bytes32",
          "name": "",
          "type": "bytes32"
        }
      ],
      "stateMutability": "view",
      "type": "function"
    },
    {
      "inputs": [
        {
          "internalType": "string",
          "name": "symbol",
          "type": "string"
        }
      ],
      "name": "getMarketBySymbol",
      "outputs": [
        {
          "internalType": "bytes32",
          "name": "",
          "type": "bytes32"
        }
      ],
      "stateMutability": "view",
      "type": "function"
    },
    {
      "inputs": [
        {
          "internalType": "address",
          "name": "creator",
          "type": "address"
        }
      ],
      "name": "getMarketsByCreator",
      "outputs": [
        {
          "internalType": "bytes32[]",
          "name": "",
          "type": "bytes32[]"
        }
      ],
      "stateMutability": "view",
      "type": "function"
    },
    {
      "inputs": [
        {
          "internalType": "uint256",
          "name": "offset",
          "type": "uint256"
        },
        {
          "internalType": "uint256",
          "name": "limit",
          "type": "uint256"
        }
      ],
      "name": "getMarketsPaginated",
      "outputs": [
        {
          "internalType": "bytes32[]",
          "name": "marketIds",
          "type": "bytes32[]"
        },
        {
          "components": [
            {
              "internalType": "bytes32",
              "name": "marketId",
              "type": "bytes32"
            },
            {
              "internalType": "address",
              "name": "orderBookAddress",
              "type": "address"
            },
            {
              "internalType": "string",
              "name": "symbol",
              "type": "string"
            },
            {
              "internalType": "string",
              "name": "metricId",
              "type": "string"
            },
            {
              "internalType": "bool",
              "name": "isCustomMetric",
              "type": "bool"
            },
            {
              "internalType": "bool",
              "name": "isActive",
              "type": "bool"
            },
            {
              "internalType": "uint256",
              "name": "createdAt",
              "type": "uint256"
            },
            {
              "internalType": "address",
              "name": "creator",
              "type": "address"
            }
          ],
          "internalType": "struct OrderBookFactory.MarketInfo[]",
          "name": "marketInfos",
          "type": "tuple[]"
        }
      ],
      "stateMutability": "view",
      "type": "function"
    },
    {
      "inputs": [
        {
          "internalType": "bytes32",
          "name": "role",
          "type": "bytes32"
        }
      ],
      "name": "getRoleAdmin",
      "outputs": [
        {
          "internalType": "bytes32",
          "name": "",
          "type": "bytes32"
        }
      ],
      "stateMutability": "view",
      "type": "function"
    },
    {
      "inputs": [],
      "name": "getTotalMarkets",
      "outputs": [
        {
          "internalType": "uint256",
          "name": "",
          "type": "uint256"
        }
      ],
      "stateMutability": "view",
      "type": "function"
    },
    {
      "inputs": [],
      "name": "getTraditionalMarkets",
      "outputs": [
        {
          "internalType": "bytes32[]",
          "name": "",
          "type": "bytes32[]"
        }
      ],
      "stateMutability": "view",
      "type": "function"
    },
    {
      "inputs": [
        {
          "internalType": "bytes32",
          "name": "role",
          "type": "bytes32"
        },
        {
          "internalType": "address",
          "name": "account",
          "type": "address"
        }
      ],
      "name": "grantRole",
      "outputs": [],
      "stateMutability": "nonpayable",
      "type": "function"
    },
    {
      "inputs": [
        {
          "internalType": "bytes32",
          "name": "role",
          "type": "bytes32"
        },
        {
          "internalType": "address",
          "name": "account",
          "type": "address"
        }
      ],
      "name": "hasRole",
      "outputs": [
        {
          "internalType": "bool",
          "name": "",
          "type": "bool"
        }
      ],
      "stateMutability": "view",
      "type": "function"
    },
    {
      "inputs": [],
      "name": "isPaused",
      "outputs": [
        {
          "internalType": "bool",
          "name": "",
          "type": "bool"
        }
      ],
      "stateMutability": "view",
      "type": "function"
    },
    {
      "inputs": [],
      "name": "marketCreationFee",
      "outputs": [
        {
          "internalType": "uint256",
          "name": "",
          "type": "uint256"
        }
      ],
      "stateMutability": "view",
      "type": "function"
    },
    {
      "inputs": [
        {
          "internalType": "bytes32",
          "name": "",
          "type": "bytes32"
        }
      ],
      "name": "marketOpenInterest",
      "outputs": [
        {
          "internalType": "uint256",
          "name": "",
          "type": "uint256"
        }
      ],
      "stateMutability": "view",
      "type": "function"
    },
    {
      "inputs": [
        {
          "internalType": "bytes32",
          "name": "",
          "type": "bytes32"
        }
      ],
      "name": "marketVolume24h",
      "outputs": [
        {
          "internalType": "uint256",
          "name": "",
          "type": "uint256"
        }
      ],
      "stateMutability": "view",
      "type": "function"
    },
    {
      "inputs": [
        {
          "internalType": "bytes32",
          "name": "",
          "type": "bytes32"
        }
      ],
      "name": "markets",
      "outputs": [
        {
          "internalType": "bytes32",
          "name": "marketId",
          "type": "bytes32"
        },
        {
          "internalType": "address",
          "name": "orderBookAddress",
          "type": "address"
        },
        {
          "internalType": "string",
          "name": "symbol",
          "type": "string"
        },
        {
          "internalType": "string",
          "name": "metricId",
          "type": "string"
        },
        {
          "internalType": "bool",
          "name": "isCustomMetric",
          "type": "bool"
        },
        {
          "internalType": "bool",
          "name": "isActive",
          "type": "bool"
        },
        {
          "internalType": "uint256",
          "name": "createdAt",
          "type": "uint256"
        },
        {
          "internalType": "address",
          "name": "creator",
          "type": "address"
        }
      ],
      "stateMutability": "view",
      "type": "function"
    },
    {
      "inputs": [
        {
          "internalType": "string",
          "name": "",
          "type": "string"
        }
      ],
      "name": "metricToMarketId",
      "outputs": [
        {
          "internalType": "bytes32",
          "name": "",
          "type": "bytes32"
        }
      ],
      "stateMutability": "view",
      "type": "function"
    },
    {
      "inputs": [
        {
          "internalType": "bytes32",
          "name": "role",
          "type": "bytes32"
        },
        {
          "internalType": "address",
          "name": "callerConfirmation",
          "type": "address"
        }
      ],
      "name": "renounceRole",
      "outputs": [],
      "stateMutability": "nonpayable",
      "type": "function"
    },
    {
      "inputs": [
        {
          "internalType": "bytes32",
          "name": "role",
          "type": "bytes32"
        },
        {
          "internalType": "address",
          "name": "account",
          "type": "address"
        }
      ],
      "name": "revokeRole",
      "outputs": [],
      "stateMutability": "nonpayable",
      "type": "function"
    },
    {
      "inputs": [
        {
          "internalType": "uint256",
          "name": "newFeeRate",
          "type": "uint256"
        }
      ],
      "name": "setCreatorFeeRate",
      "outputs": [],
      "stateMutability": "nonpayable",
      "type": "function"
    },
    {
      "inputs": [
        {
          "internalType": "bool",
          "name": "paused",
          "type": "bool"
        }
      ],
      "name": "setGlobalPause",
      "outputs": [],
      "stateMutability": "nonpayable",
      "type": "function"
    },
    {
      "inputs": [
        {
          "internalType": "uint256",
          "name": "newFee",
          "type": "uint256"
        }
      ],
      "name": "setMarketCreationFee",
      "outputs": [],
      "stateMutability": "nonpayable",
      "type": "function"
    },
    {
      "inputs": [
        {
          "internalType": "bytes32",
          "name": "marketId",
          "type": "bytes32"
        },
        {
          "internalType": "bool",
          "name": "isActive",
          "type": "bool"
        }
      ],
      "name": "setMarketStatus",
      "outputs": [],
      "stateMutability": "nonpayable",
      "type": "function"
    },
    {
      "inputs": [
        {
          "internalType": "bool",
          "name": "paused",
          "type": "bool"
        }
      ],
      "name": "setPaused",
      "outputs": [],
      "stateMutability": "nonpayable",
      "type": "function"
    },
    {
      "inputs": [
        {
          "internalType": "address",
          "name": "newVaultRouter",
          "type": "address"
        }
      ],
      "name": "setVaultRouter",
      "outputs": [],
      "stateMutability": "nonpayable",
      "type": "function"
    },
    {
      "inputs": [
        {
          "internalType": "bytes4",
          "name": "interfaceId",
          "type": "bytes4"
        }
      ],
      "name": "supportsInterface",
      "outputs": [
        {
          "internalType": "bool",
          "name": "",
          "type": "bool"
        }
      ],
      "stateMutability": "view",
      "type": "function"
    },
    {
      "inputs": [
        {
          "internalType": "string",
          "name": "",
          "type": "string"
        }
      ],
      "name": "symbolToMarketId",
      "outputs": [
        {
          "internalType": "bytes32",
          "name": "",
          "type": "bytes32"
        }
      ],
      "stateMutability": "view",
      "type": "function"
    },
    {
      "inputs": [
        {
          "internalType": "uint256",
          "name": "",
          "type": "uint256"
        }
      ],
      "name": "traditionalMarkets",
      "outputs": [
        {
          "internalType": "bytes32",
          "name": "",
          "type": "bytes32"
        }
      ],
      "stateMutability": "view",
      "type": "function"
    },
    {
      "inputs": [
        {
          "internalType": "bytes32[]",
          "name": "marketIds",
          "type": "bytes32[]"
        },
        {
          "internalType": "address",
          "name": "newVaultRouter",
          "type": "address"
        }
      ],
      "name": "updateMarketsVaultRouter",
      "outputs": [],
      "stateMutability": "nonpayable",
      "type": "function"
    },
    {
      "inputs": [],
      "name": "vaultRouter",
      "outputs": [
        {
          "internalType": "contract VaultRouter",
          "name": "",
          "type": "address"
        }
      ],
      "stateMutability": "view",
      "type": "function"
    },
    {
      "inputs": [],
      "name": "withdrawCreationFees",
      "outputs": [],
      "stateMutability": "nonpayable",
      "type": "function"
    }
  ],
  "bytecode": "0x608034620000c357601f62007e9e38819003918201601f19168301916001600160401b03831184841017620000c8578084926040948552833981010312620000c357806200005f602062000057620000b294620000de565b9201620000de565b6001805567016345785d8a0000600c556064600d55600280546001600160a01b0319166001600160a01b03909316929092179091556200009f81620000f3565b50620000ab8162000173565b5062000215565b50604051617bcb9081620002b38239f35b600080fd5b634e487b7160e01b600052604160045260246000fd5b51906001600160a01b0382168203620000c357565b6001600160a01b031660008181527fad3228b676f7d3cd4284a5443f17f1962b36e491b30a40b2405849e597ba5fb5602052604081205490919060ff166200016f57818052816020526040822081835260205260408220600160ff19825416179055339160008051602062007e7e8339815191528180a4600190565b5090565b6001600160a01b031660008181527f2412b2af58bf3b93d578a423d333d33fb94fb5093f9cda1aed2eaafb3215f92960205260408120549091907fd3065a24ad9e7725d223007135762d2902038999e3e5829146654498a58d97959060ff166200021057808352826020526040832082845260205260408320600160ff1982541617905560008051602062007e7e833981519152339380a4600190565b505090565b6001600160a01b031660008181527fa629f6981c2f6895a67dc766e8e03ff72d04a413d0d8773a3ca56e9e474032c160205260408120549091907f68e79a7bf1e0bc45d0a330c573bc367f9cf464fd326078812f301165fbda4ef19060ff166200021057808352826020526040832082845260205260408320600160ff1982541617905560008051602062007e7e833981519152339380a460019056fe60808060405260043610156200001457600080fd5b60003560e01c90816301ffc9a71462002c545750806307e2cea51462002c2857806316c38b3c1462002bb75780631e1d4e94146200063e578063231880241462002b7b578063248a9ca31462002b4a5780632809fdff14620023fc5780632a51973314620023065780632ef1bdfa14620022e65780632f2ff15d146200229f5780632f54f85214620015df578063307770611462002216578063351fee46146200215857806336568abe146200210a5780633cf2e05e14620020dc5780634fd369d7146200205c578063609ee5b5146200187357806369a6b3db14620017755780637564912b14620016b3578063780e72ff146200162e5780637c845b2d14620015df57806381ebf20914620015bf57806391d14854146200156e57806392d48b1114620013c6578063935493131462000d245780639570c3941462000ce65780639cdba18b1462000ca35780639edbfe991462000c605780639f37022a1462000c3b578063a217fddf1462000c1d578063a5e973c31462000b02578063ae42820c1462000ad6578063aec572f9146200084f578063b0772d0b14620007ee578063b187bd2614620007c9578063bb875a9e1462000768578063c3c95c7b14620006a1578063d08aef59146200063e578063d37c441c1462000613578063d547741f14620005ca578063df39429314620005aa578063e771387f146200041e578063e99c80bd14620002ea578063f6a7e10a14620002bc5763f8c0eb0d146200023c57600080fd5b34620002b7576000366003190112620002b757604051806007548082528260208093016007600052836000209260005b85828210620002a057505050620002869250038362002d09565b6200029c60405192828493845283019062002dbc565b0390f35b85548452600195860195889550930192016200026c565b600080fd5b34620002b7576020366003190112620002b75760043560005260096020526020604060002054604051908152f35b34620002b757602080600319360112620002b7576200030862002e09565b600680546001600160a01b03939290919084166000805b848110620003ca5750620003339062003434565b9460009260005b8581106200035757604051878152806200029c818a018b62002dbc565b620003628162002d88565b9054600391821b1c60005280885284848460406000200154161462000394575b506200038e906200346c565b6200033a565b8195620003c291620003aa6200038e9462002d88565b9054911b1c620003bb828c6200347c565b526200346c565b949062000382565b620003d58162002d88565b9054600391821b1c600052865282878560406000200154161462000405575b620003ff906200346c565b6200031f565b9062000415620003ff916200346c565b919050620003f4565b34620002b7576040366003190112620002b7573360009081527fa629f6981c2f6895a67dc766e8e03ff72d04a413d0d8773a3ca56e9e474032c16020908152604090912054600435919060008051602062007b568339815191529060ff16156200058c5750816000526003815260406000209060405190620004a08262002cbc565b825482526200052260018060a01b038460e0826006816001819a01541693878901948552620004d26002820162002e76565b60408a0152620004e56003820162002e76565b60608a015260ff6004820154818116151560808c015260081c16151560a08a0152600581015460c08a015201541695019485525116151562003491565b61271062000535600d5460243562003420565b0492836200053f57005b82817f67c9916cc5280213e59ebaae5542f1d3a7d66e11b5d0f9b4dc9aaec0e40431b9945116600052600b835260406000206200057e868254620034fc565b9055511692604051908152a3005b6044906040519063e2517d3f60e01b82523360048301526024820152fd5b34620002b7576000366003190112620002b7576020600d54604051908152f35b34620002b7576040366003190112620002b75762000611600435620005ee62002df2565b908060005260006020526200060b60016040600020015462003074565b6200312b565b005b34620002b7576000366003190112620002b7576002546040516001600160a01b039091168152602090f35b34620002b7576020366003190112620002b7576004356001600160401b038111620002b7576200068e60206200067a8193369060040162002d2d565b816040519382858094519384920162002f28565b8101600581520301902054604051908152f35b34620002b7576020366003190112620002b757620006be62003566565b5060043560005260036020526200029c604060002060405190620006e28262002cbc565b8054825260018101546001600160a01b039081166020840152906006906200070d6002820162002e76565b6040850152620007206003820162002e76565b606085015260ff60048201548181161515608087015260081c16151560a0850152600581015460c085015201541660e082015260405191829160208352602083019062002f74565b34620002b7576000366003190112620002b757604051806008548082528260208093016008600052836000209260005b85828210620007b257505050620002869250038362002d09565b855484526001958601958895509301920162000798565b34620002b7576000366003190112620002b757602060ff600e54166040519015158152f35b34620002b7576000366003190112620002b757604051806006548082528260208093016006600052836000209260005b858282106200083857505050620002869250038362002d09565b85548452600195860195889550930192016200081e565b34620002b7576040366003190112620002b75760043560068054908183101562000a82576200088160243584620034fc565b9180831162000a79575b5082820391821162000a6357620008a28262003434565b91620008ae8162002da4565b91620008be604051938462002d09565b818352601f199485620008d18462002da4565b0160005b81811062000a4957505060005b838110620009675750505050620009056040519260408452604084019062002dbc565b9260208385038185015282519081865280860181808460051b8901019501936000975b848910620009365787870388f35b909192939495848062000954838686600196030188528a5162002f74565b9801940198019791909493929462000928565b80620009826200097c62000a439385620034fc565b62002d88565b9054600391821b1c8062000997848b6200347c565b526000526020818152856040600020620009ef60405194620009b98662002cbc565b8254865260018301546001600160a01b0390811695870195909552620009e26002840162002e76565b6040870152820162002e76565b6060850152600481015460ff908181161515608087015260081c16151560a0850152600581015460c085015201541660e082015262000a2f82886200347c565b5262000a3c81876200347c565b506200346c565b620008e2565b60209062000a5662003566565b82828901015201620008d5565b634e487b7160e01b600052601160045260246000fd5b9150836200088b565b60405162461bcd60e51b815260206004820152602660248201527f4f72646572426f6f6b466163746f72793a206f6666736574206f7574206f6620604482015265626f756e647360d01b6064820152608490fd5b34620002b7576000366003190112620002b757602060405160008051602062007ad68339815191528152f35b34620002b7576000366003190112620002b7576006546000805b82811062000bc5575062000b309062003434565b906000805b82811062000b5557604051602080825281906200029c9082018762002dbc565b62000b608162002d88565b9054600391821b1c6000528060205260ff60046040600020015460081c1662000b96575b5062000b90906200346c565b62000b35565b819262000bbd9162000bac62000b909462002d88565b9054911b1c620003bb82886200347c565b919062000b84565b62000bd08162002d88565b9054600391821b1c60005260205260ff60046040600020015460081c1662000c04575b62000bfe906200346c565b62000b1c565b9062000c1462000bfe916200346c565b91905062000bf3565b34620002b7576000366003190112620002b757602060405160008152f35b34620002b7576020366003190112620002b75762000c5862002fed565b600435600c55005b34620002b7576020366003190112620002b757600435600854811015620002b757600860005260008051602062007b768339815191520154604051908152602090f35b34620002b7576020366003190112620002b757600435600754811015620002b757600760005260008051602062007b368339815191520154604051908152602090f35b34620002b7576020366003190112620002b7576001600160a01b0362000d0b62002e09565b16600052600b6020526020604060002054604051908152f35b6020366003190112620002b7576004356001600160401b038111620002b75762000d5390369060040162002d2d565b62000d5d62003028565b60ff600e5416620013755762000d78600c54341015620031a1565b62000d8681511515620031f9565b604051602081019062000daf8162000da042868662003246565b03601f19810183528262002d09565b5190209081600052600360205262000dd860018060a01b0360016040600020015416156200327d565b62000e05604051602081845162000df3818385890162002f28565b810160048152030190205415620032ca565b600254604051906001600160a01b03166001600160401b0361452e830190811190831117620012845762000e4c829161452e620035a884393390858761452e860162003317565b03906000f09081156200115c5760405162000e678162002cbc565b8381526001600160a01b03831660208201526040808201838152905162000e8e8162002ced565b60008152606083015260006080830152600160a08301524260c08301523360e0830152846000526003602052604060002090825182556001820160018060a01b0360208501511660018060a01b03198254161790555180519060018060401b0382116200128457819062000f06600285015462002e39565b601f81116200131d575b50602090601f8311600114620012a6576000926200129a575b50508160011b916000199060031b1c19161760028201555b60608201518051906001600160401b038211620012845762000f67600384015462002e39565b601f811162001238575b50602090601f8311600114620011c057600693929160009183620011b4575b50508160011b916000199060031b1c19161760038201555b62000fd06004820162000fc260808601511515826200309b565b60a085015115159062003362565b60c08301516005820155019060e060018060a01b039101511660018060a01b03198254161790558260405160208184516200100f818385890162002f28565b810160048152030190205562001025836200337a565b6200103083620033b4565b6002546001600160a01b0316803b15620002b75760008091604460405180948193635958833160e01b8352896004840152600160248401525af180156200115c57620011a2575b506002546040516369d6006160e11b8152906001600160a01b0316602082600481845afa9182156200115c5760009262001168575b50803b15620002b757604051632f2ff15d60e01b8152916000918391829084908290620010e8906001600160a01b038b16906004840162002e20565b03925af180156200115c576200114a575b50604051908360008051602062007b168339815191523393806200112960018060a01b03881695429083620033ed565b0390a46040519182916200029c916001600160a01b03909116908362002e20565b620011559062002cd9565b83620010f9565b6040513d6000823e3d90fd5b9091506020813d60201162001199575b81620011876020938362002d09565b81010312620002b757519085620010ac565b3d915062001178565b620011ad9062002cd9565b8362001077565b01519050888062000f90565b906003840160005260206000209160005b601f19851681106200121f575091839160019360069695601f1981161062001205575b505050811b01600382015562000fa8565b015160001960f88460031b161c19169055888080620011f4565b91926020600181928685015181550194019201620011d1565b600384016000526020600020601f840160051c8101602085106200127c575b601f830160051c820181106200126f57505062000f71565b6000815560010162001257565b508062001257565b634e487b7160e01b600052604160045260246000fd5b01519050878062000f29565b9250600284016000526020600020906000935b601f198416851062001301576001945083601f19811610620012e7575b505050811b01600282015562000f41565b015160001960f88460031b161c19169055878080620012d6565b81810151835560209485019460019093019290910190620012b9565b909150600284016000526020600020601f840160051c8101602085106200136d575b90849392915b601f830160051c820181106200135d57505062000f10565b6000815585945060010162001345565b50806200133f565b60405162461bcd60e51b8152602060048201526024808201527f4f72646572426f6f6b466163746f72793a20636f6e74726163742069732070616044820152631d5cd95960e21b6064820152608490fd5b34620002b7576040366003190112620002b7576004356001600160401b03808211620002b75736602383011215620002b7578160040135908111620002b7576024916005368484831b84010111620002b7576200142262002df2565b906200142d62002fed565b6001600160a01b03916200144590831615156200350a565b8315158062001562575b156200150f5760005b8481106200146257005b80866200150992841b860101356000526200150384600360209080825260e08360066040600020620014c8604051956200149c8762002cbc565b8254875284600184015416978701978852620014bb6002840162002e76565b6040880152820162002e76565b6060860152600481015460ff908181161515608088015260081c16151560a08601528a81015460c08601520154169101525116151562003491565b6200346c565b62001458565b60405162461bcd60e51b8152602060048201526026818701527f4f72646572426f6f6b466163746f72793a20696e76616c6964206d61726b65746044820152650818dbdd5b9d60d21b6064820152608490fd5b5060328411156200144f565b34620002b7576040366003190112620002b7576200158b62002df2565b600435600052600060205260406000209060018060a01b0316600052602052602060ff604060002054166040519015158152f35b34620002b7576000366003190112620002b7576020600654604051908152f35b34620002b7576020366003190112620002b7576004356001600160401b038111620002b7576200161b60206200067a8193369060040162002d2d565b8101600481520301902054604051908152f35b34620002b7576020366003190112620002b7576200164b62002e09565b6200165562002fed565b6001600160a01b03908116906200166e8215156200350a565b600280546001600160a01b0319811684179091556040514281529116907f0cfa1cc2dc116bd34dffc0ffbf6251fbca08c1c97f7db3916bbe46a25df96df890602090a3005b34620002b7576020366003190112620002b7576004356000908152600360205260409020805460018201546001600160a01b0390811692620016f86002820162002e76565b9060ff620017516200170d6003840162002e76565b62001742600485015496600660058701549601541695604051998a998a5260208a01526101008060408b015289019062002f4d565b90878203606089015262002f4d565b938181161515608087015260081c16151560a085015260c084015260e08301520390f35b34620002b757602080600319360112620002b7576200179362002cac565b906200179e62002fed565b60009115915b6006548110156200061157620017ba8162002d88565b919054600392831b1c91826000528352620017dd84600460406000200162003362565b6002546001600160a01b031691823b15620002b757604051635958833160e01b8152600481018290528515156024820152926000908490604490829084905af19283156200115c576200185b9362001861575b5060008051602062007af68339815191526040518062001852428983620034e9565b0390a26200346c565b620017a4565b6200186c9062002cd9565b8562001830565b6040366003190112620002b7576004356001600160401b038111620002b757620018a290369060040162002d2d565b6024356001600160401b038111620002b757620018c490369060040162002d2d565b620018ce62003028565b620018de600c54341015620031a1565b620018ec82511515620031f9565b8051156200201857604051602081019065637573746f6d60d01b825262001952604682865162001924816026840160208b0162002f28565b81018651906200193c826026830160208b0162002f28565b0142602682015203602681018452018262002d09565b519020918260005260036020526200197b60018060a01b0360016040600020015416156200327d565b62001996604051602081845162000df3818385890162002f28565b6040516020818451620019ad818385890162002f28565b810160058152030190205462001fc957600254604051906001600160a01b03166001600160401b0361452e8301908111908311176200128457819061452e620035a8833961452e820186815260c06020820181905262001a2b9162001a1491018662002f4d565b61452e84018103604061452e860101528662002f4d565b906001606061452e85010152608061452e840101523360a061452e8401015203906000f09182156200115c5760405162001a658162002cbc565b8481526001600160a01b03848116602080840191825260408085018781526060860187905260016080870181905260a087018190524260c08801523360e088015260008b815260039094529190922085518155925190830180546001600160a01b031916919094161790925590518051906001600160401b0382116200128457819062001af6600285015462002e39565b601f811162001f71575b50602090601f831160011462001efa5760009262001eee575b50508160011b916000199060031b1c19161760028201555b60608201518051906001600160401b038211620012845762001b57600384015462002e39565b601f811162001ea2575b50602090601f831160011462001e2a5760069392916000918362001e1e575b50508160011b916000199060031b1c19161760038201555b62001bb26004820162000fc260808601511515826200309b565b60c08301516005820155019060e060018060a01b039101511660018060a01b031982541617905583604051602081855162001bf18183858a0162002f28565b810160048152030190205583604051602081845162001c14818385890162002f28565b810160058152030190205562001c2a846200337a565b600854600160401b8110156200128457600181018060085581101562001e0857600860005260008051602062007b76833981519152018490556002546001600160a01b0316803b15620002b75760008091604460405180948193635958833160e01b83528a6004840152600160248401525af180156200115c5762001df6575b506002546040516369d6006160e11b815291906001600160a01b0316602083600481845afa9283156200115c5760009362001dbc575b50803b15620002b757604051632f2ff15d60e01b815292600091849182908490829062001d1c906001600160a01b038c16906004840162002e20565b03925af19182156200115c5762001d5a9262001daa575b5062001d4b6040519360808552608085019062002f4d565b90838203602085015262002f4d565b6001604083015242606083015233916001600160a01b03841691859160008051602062007b168339815191529181900390a46040519182916200029c916001600160a01b03909116908362002e20565b62001db59062002cd9565b8562001d33565b9092506020813d60201162001ded575b8162001ddb6020938362002d09565b81010312620002b75751918662001ce0565b3d915062001dcc565b62001e019062002cd9565b8462001caa565b634e487b7160e01b600052603260045260246000fd5b01519050898062001b80565b906003840160005260206000209160005b601f198516811062001e89575091839160019360069695601f1981161062001e6f575b505050811b01600382015562001b98565b015160001960f88460031b161c1916905589808062001e5e565b9192602060018192868501518155019401920162001e3b565b600384016000526020600020601f840160051c81016020851062001ee6575b601f830160051c8201811062001ed957505062001b61565b6000815560010162001ec1565b508062001ec1565b01519050888062001b19565b9250600284016000526020600020906000935b601f198416851062001f55576001945083601f1981161062001f3b575b505050811b01600282015562001b31565b015160001960f88460031b161c1916905588808062001f2a565b8181015183556020948501946001909301929091019062001f0d565b909150600284016000526020600020601f840160051c81016020851062001fc1575b90849392915b601f830160051c8201811062001fb157505062001b00565b6000815585945060010162001f99565b508062001f93565b60405162461bcd60e51b815260206004820152602160248201527f4f72646572426f6f6b466163746f72793a206d657472696349642065786973746044820152607360f81b6064820152608490fd5b606460405162461bcd60e51b815260206004820152602060248201527f4f72646572426f6f6b466163746f72793a20656d707479206d657472696349646044820152fd5b34620002b7576020366003190112620002b7576004356200207c62002fed565b6103e881116200208b57600d55005b60405162461bcd60e51b815260206004820152602360248201527f4f72646572426f6f6b466163746f72793a20666565207261746520746f6f20686044820152620d2ced60eb1b6064820152608490fd5b34620002b7576020366003190112620002b757600435600052600a6020526020604060002054604051908152f35b34620002b7576040366003190112620002b7576200212762002df2565b336001600160a01b03821603620021465762000611906004356200312b565b60405163334bd91960e11b8152600490fd5b34620002b7576000366003190112620002b7576002600154146200220457600260015533600052600b6020526040600020548015620021b457600080808093338252600b6020528160408120553382f1156200115c5760018055005b60405162461bcd60e51b815260206004820152602260248201527f4f72646572426f6f6b466163746f72793a206e6f206665657320746f20636c61604482015261696d60f01b6064820152608490fd5b604051633ee5aeb560e01b8152600490fd5b34620002b7576000366003190112620002b7576200223362002fed565b4780156200224c576000808080933382f1156200115c57005b60405162461bcd60e51b815260206004820152602560248201527f4f72646572426f6f6b466163746f72793a206e6f206665657320746f20776974604482015264686472617760d81b6064820152608490fd5b34620002b7576040366003190112620002b75762000611600435620022c362002df2565b90806000526000602052620022e060016040600020015462003074565b620030ac565b34620002b7576000366003190112620002b7576020600c54604051908152f35b34620002b7576040366003190112620002b7576004356024358015158103620002b7576200233362002fed565b6000828152600360205260409020600101546001600160a01b03906200235d908216151562003491565b8260005260036020526200237982600460406000200162003362565b6002541690813b15620002b757604051635958833160e01b8152600481018490528115156024820152916000908390604490829084905af19081156200115c5760008051602062007af683398151915292620023e592620023ea575b50604051918291429083620034e9565b0390a2005b620023f59062002cd9565b84620023d5565b6020366003190112620002b7576004356001600160401b038111620002b75736602382011215620002b7578060040135620024378162002da4565b9162002447604051938462002d09565b8183526024602084019260051b82010190368211620002b75760248101925b82841062002b1757846200247962003028565b620024966200248d600c5483519062003420565b341015620031a1565b620024a2815162003434565b90805191620024b18362002da4565b92620024c1604051948562002d09565b808452620024d2601f199162002da4565b0136602085013760005b825181101562002ab157620024f281846200347c565b51906200250282511515620031f9565b60405160208101906200251c8162000da042878662003246565b51902060008181526003602052604090206001015462002546906001600160a01b0316156200327d565b62002561604051602081865162000df38183858b0162002f28565b600254604051906001600160a01b03166001600160401b0361452e8301908111908311176200128457620025a8829161452e620035a884393390878661452e860162003317565b03906000f080156200115c57604051620025c28162002cbc565b8281526001600160a01b038216602082015260408082018681529051620025e98162002ced565b60008152606083015260006080830152600160a08301524260c08301523360e0830152836000526003602052604060002090825182556001820160018060a01b0360208501511660018060a01b03198254161790555180519060018060401b0382116200128457819062002661600285015462002e39565b601f811162002a59575b50602090601f8311600114620029e257600092620029d6575b50508160011b916000199060031b1c19161760028201555b60608201518051906001600160401b0382116200128457620026c2600384015462002e39565b601f81116200298a575b50602090601f8311600114620029125760069392916000918362002906575b50508160011b916000199060031b1c19161760038201555b6200271d6004820162000fc260808601511515826200309b565b60c08301516005820155019060e060018060a01b039101511660018060a01b03198254161790558160405160208187516200275c8183858c0162002f28565b810160048152030190205562002772826200337a565b6200277d82620033b4565b6002546001600160a01b0316803b15620002b75760008091604460405180948193635958833160e01b8352886004840152600160248401525af180156200115c57620028f4575b506002546040516369d6006160e11b815294906001600160a01b0316602086600481845afa9586156200115c57600096620028ba575b50803b15620002b757604051632f2ff15d60e01b815295600091879182908490829062002836906001600160a01b038a16906004840162002e20565b03925af19485156200115c57620028a295620028a8575b50604051908360008051602062007b168339815191523393806200287d60018060a01b03881695429083620033ed565b0390a46001600160a01b03166200289583886200347c565b52620003bb82856200347c565b620024dc565b620028b39062002cd9565b886200284d565b9095506020813d602011620028eb575b81620028d96020938362002d09565b81010312620002b757519489620027fa565b3d9150620028ca565b620028ff9062002cd9565b87620027c4565b015190508c80620026eb565b906003840160005260206000209160005b601f198516811062002971575091839160019360069695601f1981161062002957575b505050811b01600382015562002703565b015160001960f88460031b161c191690558c808062002946565b9192602060018192868501518155019401920162002923565b600384016000526020600020601f840160051c810160208510620029ce575b601f830160051c82018110620029c1575050620026cc565b60008155600101620029a9565b5080620029a9565b015190508b8062002684565b9250600284016000526020600020906000935b601f198416851062002a3d576001945083601f1981161062002a23575b505050811b0160028201556200269c565b015160001960f88460031b161c191690558b808062002a12565b81810151835560209485019460019093019290910190620029f5565b909150600284016000526020600020601f840160051c81016020851062002aa9575b90849392915b601f830160051c8201811062002a995750506200266b565b6000815585945060010162002a81565b508062002a7b565b5062002acd908360405192839260408452604084019062002dbc565b82810360208401526020808351928381520192019060005b81811062002af4575050500390f35b82516001600160a01b031684528594506020938401939092019160010162002ae5565b83356001600160401b038111620002b75760209162002b3e83926024369187010162002d2d565b81520193019262002466565b34620002b7576020366003190112620002b75760043560005260006020526020600160406000200154604051908152f35b34620002b7576020366003190112620002b757600435600654811015620002b75762002ba960209162002d88565b90546040519160031b1c8152f35b34620002b7576020366003190112620002b7577fb2eb730e1d552dcf5764626a50ed1650f11ce0bafb9caf2f9971e9c25bded9ba62002c2362002bf962002cac565b62002c0362002fed565b60ff19600e541660ff8215151617600e55604051918291429083620034e9565b0390a1005b34620002b7576000366003190112620002b757602060405160008051602062007b568339815191528152f35b34620002b7576020366003190112620002b7576004359063ffffffff60e01b8216809203620002b757602091637965db0b60e01b811490811562002c9a575b5015158152f35b6301ffc9a760e01b1490508362002c93565b600435908115158203620002b757565b61010081019081106001600160401b038211176200128457604052565b6001600160401b0381116200128457604052565b602081019081106001600160401b038211176200128457604052565b601f909101601f19168101906001600160401b038211908210176200128457604052565b81601f82011215620002b7578035906001600160401b03821162001284576040519262002d65601f8401601f19166020018562002d09565b82845260208383010111620002b757816000926020809301838601378301015290565b60065481101562001e0857600660005260206000200190600090565b6001600160401b038111620012845760051b60200190565b90815180825260208080930193019160005b82811062002ddd575050505090565b83518552938101939281019260010162002dce565b602435906001600160a01b0382168203620002b757565b600435906001600160a01b0382168203620002b757565b9081526001600160a01b03909116602082015260400190565b90600182811c9216801562002e6b575b602083101462002e5557565b634e487b7160e01b600052602260045260246000fd5b91607f169162002e49565b906040519182600082549262002e8c8462002e39565b90818452600194858116908160001462002f03575060011462002ebc575b505062002eba9250038362002d09565b565b9093915060005260209081600020936000915b81831062002eea57505062002eba9350820101388062002eaa565b8554888401850152948501948794509183019162002ecf565b91505062002eba94506020925060ff191682840152151560051b820101388062002eaa565b60005b83811062002f3c5750506000910152565b818101518382015260200162002f2b565b9060209162002f688151809281855285808601910162002f28565b601f01601f1916010190565b908151815260e060018060a01b038060208501511660208401528162002fc162002fae604087015161010080604089015287019062002f4d565b6060870151868203606088015262002f4d565b9460808101511515608086015260a0810151151560a086015260c081015160c086015201511691015290565b3360009081527fad3228b676f7d3cd4284a5443f17f1962b36e491b30a40b2405849e597ba5fb5602052604081205460ff16156200058c5750565b3360009081527f2412b2af58bf3b93d578a423d333d33fb94fb5093f9cda1aed2eaafb3215f929602052604090205460008051602062007ad68339815191529060ff16156200058c5750565b80600052600060205260406000203360005260205260ff60406000205416156200058c5750565b9060ff801983541691151516179055565b9060009180835282602052604083209160018060a01b03169182845260205260ff604084205416156000146200312657808352826020526040832082845260205260408320600160ff198254161790557f2f8788117e7eff1d82e926ec794901d17c78024a50270940304540a733656f0d339380a4600190565b505090565b9060009180835282602052604083209160018060a01b03169182845260205260ff604084205416600014620031265780835282602052604083208284526020526040832060ff1981541690557ff6391f5c32d9c69d2a47ea670b442974b53935d1edc7fd64eb21e047a839171b339380a4600190565b15620031a957565b60405162461bcd60e51b815260206004820152602260248201527f4f72646572426f6f6b466163746f72793a20696e73756666696369656e742066604482015261656560f01b6064820152608490fd5b156200320157565b60405162461bcd60e51b815260206004820152601e60248201527f4f72646572426f6f6b466163746f72793a20656d7074792073796d626f6c00006044820152606490fd5b90602b92916a1d1c98591a5d1a5bdb985b60aa1b815262003272825180936020600b8501910162002f28565b0190600b8201520190565b156200328557565b60405162461bcd60e51b815260206004820152601f60248201527f4f72646572426f6f6b466163746f72793a206d61726b657420657869737473006044820152606490fd5b15620032d257565b60405162461bcd60e51b815260206004820152601f60248201527f4f72646572426f6f6b466163746f72793a2073796d626f6c20657869737473006044820152606490fd5b92906200333960a093602092979697865260c08387015260c086019062002f4d565b848103604086015260008152019460006060850152600180841b03809216608085015216910152565b9061ff00825491151560081b169061ff001916179055565b600654600160401b81101562001284578060016200339c920160065562002d88565b819291549060031b91821b91600019901b1916179055565b600754600160401b8110156200128457600181018060075581101562001e0857600760005260008051602062007b368339815191520155565b92919060206200340860609260808752608087019062002f4d565b85810382870152600081520193600060408201520152565b8181029291811591840414171562000a6357565b90620034408262002da4565b6200344f604051918262002d09565b828152809262003462601f199162002da4565b0190602036910137565b600019811462000a635760010190565b805182101562001e085760209160051b010190565b156200349957565b60405162461bcd60e51b815260206004820152602260248201527f4f72646572426f6f6b466163746f72793a206d61726b6574206e6f7420666f756044820152611b9960f21b6064820152608490fd5b9015158152602081019190915260400190565b9190820180921162000a6357565b156200351257565b60405162461bcd60e51b815260206004820152602660248201527f4f72646572426f6f6b466163746f72793a20696e76616c6964207661756c74206044820152653937baba32b960d11b6064820152608490fd5b60405190620035758262002cbc565b8160e0600091828152826020820152606060408201526060808201528260808201528260a08201528260c0820152015256fe60406080815234620004a8576200452e90813803806200001f81620004ad565b93843982019160c081840312620004a857805160208201519091906001600160401b038111620004a8578462000057918301620004d3565b8184015190946001600160401b038211620004a85762000079918301620004d3565b93606082015192831515809403620004a857620000a760a06200009f6080860162000545565b940162000545565b6001805585519690949061016088016001600160401b038111898210176200037e578752828852836020890152868801526000606088015260006080880152600060a0880152600060c0880152600060e088015242610100880152600161012088015261014087015260035580519060018060401b0382116200037e5760045490600182811c921680156200049d575b60208310146200035d5781601f8493116200042b575b50602090601f8311600114620003a05760009262000394575b50508160011b916000199060031b1c1916176004555b83830151805194906001600160401b0386116200037e57600554600181811c9116801562000373575b60208210146200035d57601f811162000313575b50602090601f87116001146200029d5795809162000282969760009262000291575b50508160011b916000199060031b1c1916176005555b6060810151600655608081015160075560a081015160085560c081015160095560e0810151600a55610100810151600b5561012081015115159060ff61ff00610140600c54930151151560081b1692169061ffff19161717600c5560018060a01b031660018060a01b031960025416176002556200026f816200055a565b506200027b81620005da565b506200067c565b5051613df490816200071a8239f35b015190503880620001db565b90600560005260206000209160005b601f1989168110620002fa5750918791600193620002829899601f19811610620002e0575b505050811b01600555620001f1565b015160001960f88460031b161c19169055388080620002d1565b91926020600181928685015181550194019201620002ac565b60056000526020600020601f880160051c81016020891062000355575b601f830160051c8201811062000348575050620001b9565b6000815560010162000330565b508062000330565b634e487b7160e01b600052602260045260246000fd5b90607f1690620001a5565b634e487b7160e01b600052604160045260246000fd5b01519050388062000166565b600460009081527f8a35acfbc15ff81a39ae7d344fd709f28e8600b4aa8c65c6b64bfe7fe36bd19b9350601f198516905b818110620004125750908460019594939210620003f8575b505050811b016004556200017c565b015160001960f88460031b161c19169055388080620003e9565b92936020600181928786015181550195019301620003d1565b60046000529091507f8a35acfbc15ff81a39ae7d344fd709f28e8600b4aa8c65c6b64bfe7fe36bd19b601f840160051c81016020851062000495575b90849392915b601f830160051c82018110620004855750506200014d565b600081558594506001016200046d565b508062000467565b91607f169162000137565b600080fd5b6040519190601f01601f191682016001600160401b038111838210176200037e57604052565b919080601f84011215620004a85782516001600160401b0381116200037e5760209062000509601f8201601f19168301620004ad565b92818452828287010111620004a85760005b8181106200053157508260009394955001015290565b85810183015184820184015282016200051b565b51906001600160a01b0382168203620004a857565b6001600160a01b031660008181527fad3228b676f7d3cd4284a5443f17f1962b36e491b30a40b2405849e597ba5fb5602052604081205490919060ff16620005d657818052816020526040822081835260205260408220600160ff1982541617905533916000805160206200450e8339815191528180a4600190565b5090565b6001600160a01b031660008181527fa629f6981c2f6895a67dc766e8e03ff72d04a413d0d8773a3ca56e9e474032c160205260408120549091907f68e79a7bf1e0bc45d0a330c573bc367f9cf464fd326078812f301165fbda4ef19060ff166200067757808352826020526040832082845260205260408320600160ff198254161790556000805160206200450e833981519152339380a4600190565b505090565b6001600160a01b031660008181527f738678fe42df6a4211eb7628ac9b056229141839eb4f4ef4cc249f1d36e8c92160205260408120549091907f73e573f9566d61418a34d5de3ff49360f9c51fec37f7486551670290f6285dab9060ff166200067757808352826020526040832082845260205260408320600160ff198254161790556000805160206200450e833981519152339380a460019056fe608080604052600436101561001357600080fd5b600090813560e01c90816301ffc9a7146128cf5750806307e2cea5146128a6578063110e41751461275357806316c38b3c146126ee57806316fafe62146126d05780631bd4ffb21461269b5780631ec363091461263a57806320c1614b1461261c57806323341a05146124a4578063248a9ca3146124785780632f2ff15d1461243b57806336568abe146123f357806347e63380146123ca5780635494b7de146123a55780635778472a146121ca5780635c18f185146121ac5780635f5e3d2b1461218d57806361555e2e1461216d57806363c69f08146120bf5780636a6ae60614612086578063712a7dc514611e8b5780637489ec2314611cb2578063780e72ff14611bf35780637be82f3f14611bd75780637de9371c1461148a57806380f55605146113e05780638461eafc1461137f578063856652e9146113295780638d592ab81461130c57806391d14854146112c157806395082d25146112a3578063961d537f146111a35780639c3f1e90146110d4578063a217fddf146110b8578063a6769ef81461107f578063b187bd261461105c578063b26ff6ed1461101a578063cffb7d1514610ffc578063d1602f941461047d578063d37c441c14610454578063d547741f14610413578063db0b569e146103495763f6ec96e9146101fa57600080fd5b34610346576040366003190112610346576024356004358115158203610341576101209260409182519361022d85612a6f565b82855282602086015282848601528260608601528260808601528260a08601528260c08601528260e08601528261010080960152600014610333578152600f60205220905b6040519161027f83612a6f565b8054835260ff60018201541690602084019161029a81612933565b825260028101546040850190815260038201546060860190815260048301546080870190815260058401549160a0880192835260068501549360c08901948552600860078701549660e08b01978852015496888a0197885260405199518a525161030381612933565b60208a01525160408901525160608801525160808701525160a08601525160c08501525160e08401525190820152f35b815260106020522090610272565b600080fd5b80fd5b503461034657602036600319011261034657600435610366612caf565b600681905560025460035483916001600160a01b031690813b1561040f57829160448392604051948593849263dee0f5e560e01b845260048401528860248401525af18015610404576103ec575b50507fa3c7d8aaf2336e4edf38a77aee612e833e0bb392f08ef86f1324a58d2a4616306040600354928151908152426020820152a280f35b6103f590612a24565b6104005781386103b4565b5080fd5b6040513d84823e3d90fd5b8280fd5b5034610346576040366003190112610346576104506004356104336129c2565b908084528360205261044b6001604086200154612cf9565b612dda565b5080f35b50346103465780600319360112610346576002546040516001600160a01b039091168152602090f35b50346103465760603660031901126103465760026004351015610346576104a2612fa3565b6104b160ff6017541615612e4f565b6104bf60ff600c5416612e9b565b6104ca331515612ee6565b60243515610fb85764e8d4a5100060243511610f7757604435610f50575b5a60405160208101913360601b83524260348301526024356054830152604435607483015244609483015260b482015260b4815260e0810181811060018060401b03821117610f3a57604052519020610545604435602435613ab2565b9160018060a01b0360025416600354813b1561040f578461058192849283604051809681958294630beb045360e21b84528b3360048601612f32565b03925af1801561040457908291610f26575b5050604051926105a284612a53565b8284523360208501528160408501526105bc600435612933565b6004356060850152602435608085015260443560a08501528160c08501524260e0850152816101008501526101208401528061014084015280610160840152818152600d60205260408120835181556001810160018060a01b03602086015116815460408701519161062d83612933565b61063683612933565b606088015161064481612933565b61064d81612933565b6001600160b01b03199092161760a092831b60ff60a01b161760a89190911b60ff60a81b161790915560808501516002830155840151600382015560c084015160048083019190915560e0850151600583015561010085015190811015610f12576106bb9060068301612f56565b6101208401516007820155600961016061014086015195600896878501550151910155338152600e6020526106f38260408320612f6e565b818152600d6020526040812060ff600182015460a81c1661071381612933565b610d4b57600381015493848352600f6020526040832090815415600014610cc4578582558460066001840193600160ff1994858754168755848952600d602052600260408a200154600784015582015582600582015501556011548015600014610c1c575060019060039495966011558254161790555b01546013548111610c13575b505b818152600d602052604081205a9260ff600183015460a81c166107ba81612933565b610a575792829383915b600484015460028501541180610a4c575b80610a3c575b80610a32575b1561095e576014548086526010602052600560408720019081541561095157508054808752600d602052604087209060ff600683015416600481101561093d57806108359115908115610932575b5061309f565b6108c36108bd6108b160048501546108706002870154916108578382106130f7565b60028d015460048e015461086a9161307c565b9261307c565b8082101561092b57505b61088581151561314f565b6108948b8288601454926136fa565b6108a28160048d0154613198565b60048c01556004860154613198565b9a8b6004860155612fc6565b96612fc6565b98600283015414600014610917576006909101805460ff191660011790556014546108ed916133c5565b54156108fc575b9491946107c4565b610907601454613580565b61090f61346c565b6014556108f4565b50600601805460ff191660031790556108ed565b905061087a565b60039150143861082f565b634e487b7160e01b89526021600452602489fd5b6109079150969396613580565b926020959194506109969250600481015460028201548114600014610a135750600601805460ff191660011790555b915b5a9061307c565b90806109e8575b50506040516109ad600435612933565b600435815260243583820152604435604082015242606082015281600080516020613d7f83398151915260803393a360018055604051908152f35b600080516020613d1f83398151915291610a09604051928392429184613089565b0390a1388061099d565b610a1e575b5061098d565b600601805460ff1916600317905538610a18565b50600a83106107e1565b50601454600385015410156107db565b5060145415156107d5565b92829383915b600484015460028501541180610c08575b80610bf8575b80610bee575b15610b9a57601354808652600f6020526005604087200190815415610b8d57508054808752600d602052604087209060ff600683015416600481101561093d5780610ace9115908115610b82575b506131a5565b610b136108bd6108b16004850154610af06002870154916108578382106131fd565b80821015610b7b57505b610b0581151561314f565b610894601354828d896136fa565b98600283015414600014610b67576006909101805460ff19166001179055601354610b3d916132fa565b5415610b4c575b949194610a5d565b610b576013546134ca565b610b5f613439565b601355610b44565b50600601805460ff19166003179055610b3d565b9050610afa565b600391501438610ac8565b610b5791509693966134ca565b926020959194506109969250600481015460028201548114600014610bcf5750600601805460ff191660011790555b9161098f565b610bda575b50610bc9565b600601805460ff1916600317905538610bd4565b50600a8310610a7a565b5060135460038501541115610a74565b506013541515610a6e565b60135538610796565b915050600090805b610c865750600392939481610c3b575b505061078a565b81811115610c6f5781600052600f602052806004604060002001555b600052600f6020526002604060002001553880610c34565b81600052600f602052808460406000200155610c57565b90508080861115610cac57600052600f60205260046040600020015494855b9095610c24565b600052600f6020526003604060002001549485610ca5565b9050839460039394600052600d602052604060002090600052600f60205260026040600020918760058401805415600014610d2657558760068401555b0154610d1260078301918254613198565b905501610d1f8154612fc6565b905561078a565b50600684018054600052600d6020528186604060002001558054600984015555610d01565b90919260038201549081845260106020526040842090815415600014610e8f578282558560066001840193600160ff1994858754168755848a52600d602052600260408b20015460078401558201558260058201550155601254928315600014610df0576012558154166001179055505b6014548015908115610de2575b50610dd5575b50610798565b6003015460145538610dcf565b905060038201541038610dc9565b915050600091805b610e56575081610e0a575b5050610dbc565b81811015610e3e57816000526010602052806003604060002001555b60005260106020526002604060002001553880610e03565b81600052601060205280600460406000200155610e26565b91508180821015610e7857600052601060205260036040600020015480610df8565b600052601060205260046040600020015480610df8565b91905084600052600d602052604060002090600052601060205260026040600020918660058401805415600014610eed57558660068401555b0154610ed960078301918254613198565b905501610ee68154612fc6565b9055610dbc565b50600684018054600052600d6020528186604060002001558054600984015555610ec8565b634e487b7160e01b83526021600452602483fd5b610f2f90612a24565b610346578038610593565b634e487b7160e01b600052604160045260246000fd5b610f606127106044351015613c81565b610f72633b9aca006044351115613c39565b6104e8565b60405162461bcd60e51b81526020600482015260196024820152784f72646572426f6f6b3a2073697a6520746f6f206c6172676560381b6044820152606490fd5b606460405162461bcd60e51b815260206004820152602060248201527f4f72646572426f6f6b3a2073697a65206d75737420626520706f7369746976656044820152fd5b50346103465780600319360112610346576020601454604051908152f35b5034610346578060031936011261034657611033612caf565b617080611042600b544261307c565b101561104b5780f35b61271060065404600a5542600b5580f35b5034610346578060031936011261034657602060ff601754166040519015158152f35b5034610346576020366003190112610346576020906040906001600160a01b036110a76129d8565b168152601583522054604051908152f35b5034610346578060031936011261034657602090604051908152f35b5034610346576020366003190112610346576040610180916004358152600d6020522080549060018101549060ff8260a01c1661118f60ff8460a81c166002840154600385015460048601549060058701549260ff60068901541694600789015497600960088b01549a01549a6040519c8d5260018060a01b031660208d015261115d81612933565b60408c015261116b81612933565b60608b015260808a015260a089015260c088015260e08701526101008601906129ee565b610120840152610140830152610160820152f35b503461034657602036600319011261034657611206906112306004356112226111cb82613cdf565b936112146111d884613cdf565b6111e185613cdf565b926111eb86613cdf565b95611234575b50604051978897608089526080890190612c41565b908782036020890152612c41565b908582036040870152612c41565b908382036060850152612c41565b0390f35b601354806112418a613d11565b52601454908161125087613d11565b5280611284575b5080611264575b506111f1565b81526010602052604090206007015461127c86613d11565b52388061125e565b8252600f602052600760408320015461129c84613d11565b5238611257565b50346103465780600319360112610346576020604051620f42408152f35b50346103465760403660031901126103465760406112dd6129c2565b91600435815280602052209060018060a01b0316600052602052602060ff604060002054166040519015158152f35b503461034657806003193601126103465760206040516127108152f35b5034610346576040366003190112610346576113436129d8565b6001600160a01b03168152600e60205260408120805460243592908310156103465760206113718484612c13565b90546040519160031b1c8152f35b5034610346576020366003190112610346576040906004358152600f60205220805461123060ff60018401541692600281015490600381015460048201546005830154906006840154926008600786015495015495604051998a998a61293d565b50346103465780600319360112610346576003546113fc612aae565b90611405612b7c565b60ff60065491600754600854600954600a5491600b549361144f600c54966114416040519c8d9c8d5260208d61016091829101528d0190612982565b908b820360408d0152612982565b9760608a0152608089015260a088015260c087015260e0860152610100850152818116151561012085015260081c1615156101408301520390f35b50346103465760403660031901126103465760026004351015610346576114af612fa3565b6114be60ff6017541615612e4f565b6114cc60ff600c5416612e9b565b6114d7331515612ee6565b60243515610fb85764e8d4a5100060243511610f77575a60405160208101913360601b835242603483015260243560548301526513505492d15560d21b607483015244607a830152609a820152609a815260c0810181811060018060401b03821117610f3a576040525190209061154f600435612933565b6004351580611bcc575b15611b95576014545b8015611b45578061157c633b9aca00611592931115613c39565b61158a612710821015613c81565b602435613ab2565b60018060a01b0360025416600354813b15611b4157826115cd92859283604051809681958294630beb045360e21b84528c3360048601612f32565b03925af18015611b3657908391611b22575b5050604051906115ee82612a53565b83825233602083015260016040830152611609600435612933565b600435606083015260243560808301528260a08301528260c08301524260e0830152826101008301526101208201528161014082015281610160820152828252600d6020526040822090805182556001820160018060a01b03602083015116815460408401519161167983612933565b61168283612933565b606085015161169081612933565b61169981612933565b6001600160b01b03199092161760a092831b60ff60a01b161760a89190911b60ff60a81b161790915560808201516002840155810151600383015560c081015160048084019190915560e0820151600584015561010082015190811015611b0e5760099161170d6101609260068601612f56565b610120810151600785015561014081015160088501550151910155338152600e60205261173d8260408320612f6e565b818152600d6020526040812060ff600182015460a81c1661175d81612933565b6119bc57819282905b6004830154600284015411806119b1575b806119a7575b156118e757601454808552601060205260056040862001908154156118da57508054808652600d602052604086209060ff60068301541660048110156118c657806117d09115908115610932575061309f565b61185761185161184560048501546118056002870154916117f28382106130f7565b60028c015460048d015461086a9161307c565b808210156118bf57505b61181a81151561314f565b61182860145482888d6136fa565b6118368160048c0154613198565b60048b01556004860154613198565b998a6004860155612fc6565b95612fc6565b976002830154146000146118ab576006909101805460ff19166001179055601454611881916133c5565b5415611890575b939093611766565b61189b601454613580565b6118a361346c565b601455611888565b50600601805460ff19166003179055611881565b905061180f565b634e487b7160e01b88526021600452602488fd5b61189b9150959295613580565b92919050602093905b6004810154600282015481036119885750600601805460ff191660011790555b8061195e575b5060405190611926600435612933565b600435825260243584830152604082015242606082015281600080516020613d7f83398151915260803393a360018055604051908152f35b6060600080516020613d1f833981519152916040519081528386820152426040820152a138611916565b611993575b50611910565b600601805460ff191660031790553861198d565b50600a821061177d565b506014541515611777565b819282905b600483015460028401541180611b03575b80611af9575b15611aec57601354808552600f6020526005604086200190815415611adf57508054808652600d602052604086209060ff60068301541660048110156118c65780611a2b9115908115610b8257506131a5565b611a706118516118456004850154611a4d6002870154916117f28382106131fd565b80821015611ad857505b611a6281151561314f565b611828601354828c896136fa565b97600283015414600014611ac4576006909101805460ff19166001179055601354611a9a916132fa565b5415611aa9575b9390936119c1565b611ab46013546134ca565b611abc613439565b601355611aa1565b50600601805460ff19166003179055611a9a565b9050611a57565b611ab491509592956134ca565b92919050602093906118f0565b50600a82106119d8565b5060135415156119d2565b634e487b7160e01b84526021600452602484fd5b611b2b90612a24565b6104005781386115df565b6040513d85823e3d90fd5b8380fd5b60405162461bcd60e51b815260206004820152602260248201527f4f72646572426f6f6b3a20696e76616c696420657374696d6174656420707269604482015261636560f01b6064820152608490fd5b611ba0600435612933565b60016004351480611bc1575b15611bb957601354611562565b600654611562565b506013541515611bac565b506014541515611559565b50346103465780600319360112610346576020604051600a8152f35b503461034657602036600319011261034657611c0d6129d8565b611c15612c75565b6001600160a01b03908116908115611c6d57600280546001600160a01b0319811684179091556040514281529116907f0cfa1cc2dc116bd34dffc0ffbf6251fbca08c1c97f7db3916bbe46a25df96df890602090a380f35b60405162461bcd60e51b815260206004820152601f60248201527f4f72646572426f6f6b3a20696e76616c6964207661756c7420726f75746572006044820152606490fd5b50346103465760208060031936011261040057600435611cd0612fa3565b808352600d825260408320805415611e465760018101546001600160a01b03919082163303611e045760060160ff8154166004811015611df0578015908115611de5575b5015611da257908491611d2684612fd5565b600260ff1982541617905560025416803b156104005781604051809263759510a160e11b8252818381611d5d893360048401612d41565b03925af1801561040457611d8e575b5050600080516020613d9f833981519152604051924284523393a36001805580f35b611d9790612a24565b61040f578238611d6c565b6064846040519062461bcd60e51b825280600483015260248201527f4f72646572426f6f6b3a206f72646572206e6f742063616e63656c6c61626c656044820152fd5b600391501438611d14565b634e487b7160e01b86526021600452602486fd5b60405162461bcd60e51b815260048101859052601a60248201527927b93232b92137b7b59d103737ba1037b93232b91037bbb732b960311b6044820152606490fd5b60405162461bcd60e51b815260048101849052601f60248201527f4f72646572426f6f6b3a206f7264657220646f6573206e6f74206578697374006044820152606490fd5b503461034657602080600319360112610400576001600160401b0390600435828111611b415736602382011215611b41578060040135928311611b4157602490600590368386841b8301011161208257611ee3612fa3565b84151580612077575b1561203357855b858110611f0257866001805580f35b8381841b8301013590818852600d86528760408120805415158061201d575b80611fd8575b611f3d575b5050611f389150612fc6565b611ef3565b600690611f4985612fd5565b01805460ff19166002908117909155546001600160a01b0316803b156104005781604051809263759510a160e11b8252818381611f8a8a3360048401612d41565b03925af1801561040457611fc0575b5050611f389160405190428252600080516020613d9f833981519152883393a38738611f2c565b611fc990612a24565b611fd4578738611f99565b8780fd5b50905060ff600682015416600481101561200a5790818a9215908115611fff575b50611f27565b600391501438611ff9565b634e487b7160e01b8a526021600452868afd5b5060018101546001600160a01b03163314611f21565b60405162461bcd60e51b815260048101859052601d818501527f4f72646572426f6f6b3a20696e76616c69642062617463682073697a650000006044820152606490fd5b50600a851115611eec565b8580fd5b5034610346576020366003190112610346576020906040906001600160a01b036120ae6129d8565b168152601683522054604051908152f35b503461034657602080600319360112610400576001600160a01b036120e26129d8565b168252600e81526040822060405192838383549182815201908193835284832090835b818110612159575050508461211b910385612a8b565b60405193838594850191818652518092526040850193925b82811061214257505050500390f35b835185528695509381019392810192600101612133565b825484529286019260019283019201612105565b5034610346578060031936011261034657602060405164e8d4a510008152f35b50346103465780600319360112610346576020604051633b9aca008152f35b50346103465780600319360112610346576020601254604051908152f35b5034610346576020366003190112610346578060409161016083516121ee81612a53565b82815282602082015282858201528260608201528260808201528260a08201528260c08201528260e082015282610100820152826101208201528261014082015201526004358152600d6020522060405161224881612a53565b8154815260018201546001600160a01b038116602083015260ff9060a081901c821661227381612933565b604084015260a81c1661228581612933565b606082015260028201546080820152600382015460a0820152600482015460c0820152600582015460e082015260ff600683015416600481101561238f5761018092600991610100840152600781015461012084015260088101546101408401520154610160820152610160604051918051835260018060a01b036020820151166020840152604081015161231981612933565b6040840152606081015161232c81612933565b60608401526080810151608084015260a081015160a084015260c081015160c084015260e081015160e084015261236d6101008201516101008501906129ee565b6101208101516101208401526101408101516101408401520151610160820152f35b634e487b7160e01b600052602160045260246000fd5b5034610346578060031936011261034657604060135460145482519182526020820152f35b50346103465780600319360112610346576020604051600080516020613d3f8339815191528152f35b50346103465760403660031901126103465761240d6129c2565b336001600160a01b038216036124295761045090600435612dda565b60405163334bd91960e11b8152600490fd5b50346103465760403660031901126103465761045060043561245b6129c2565b90808452836020526124736001604086200154612cf9565b612d5c565b503461034657602036600319011261034657600160406020926004358152808452200154604051908152f35b50346103465780600319360112610346576101406040516124c481612a37565b82815260606020820152606060408201528260608201528260808201528260a08201528260c08201528260e08201528261010082015282610120820152015260405161250f81612a37565b600354815261251c612aae565b6020820152612529612b7c565b60408201526006546060820152600754608082015260085460a082015260095460c0820152600a5460e0820152600b5461010082015260ff600c54818116151561012084015260081c1615156101408201526040518091602082528051602083015260208101516101406125c46125ae61016093846040880152610180870190612982565b6040850151868203601f19016060880152612982565b9260608101516080860152608081015160a086015260a081015160c086015260c081015160e086015260e081015161010086015261010081015161012086015261012081015115158286015201511515908301520390f35b50346103465780600319360112610346576020601354604051908152f35b5034610346576020366003190112610346576040906004358152601060205220805461123060ff60018401541692600281015490600381015460048201546005830154906006840154926008600786015495015495604051998a998a61293d565b5034610346576020366003190112610346576126b5612924565b6126bd612c75565b60ff8019600c54169115151617600c5580f35b50346103465780600319360112610346576020601154604051908152f35b5034610346576020366003190112610346577fb2eb730e1d552dcf5764626a50ed1650f11ce0bafb9caf2f9971e9c25bded9ba604061272b612924565b612733612c75565b151560ff196017541660ff8216176017558151908152426020820152a180f35b50346103465760203660031901126103465760043590600080516020613d3f833981519152808252816020526040822033835260205260ff60408320541615612888575060ff600c5460081c1615612835578160065560018060a01b0360025416600354813b1561040f57829160448392604051948593849263dee0f5e560e01b845260048401528860248401525af1801561040457612826575b50907f71f32a55faca657f8f6b266ef85a0595b93565f9c1240545ab94fc4e75398b626040600354928151908152426020820152a280f35b61282f90612a24565b386127ee565b60405162461bcd60e51b815260206004820152602560248201527f4f72646572426f6f6b3a206e6f74206120637573746f6d206d6574726963206d604482015264185c9ad95d60da1b6064820152608490fd5b6044906040519063e2517d3f60e01b82523360048301526024820152fd5b50346103465780600319360112610346576020604051600080516020613d5f8339815191528152f35b9050346104005760203660031901126104005760043563ffffffff60e01b811680910361040f5760209250637965db0b60e01b8114908115612913575b5015158152f35b6301ffc9a760e01b1490503861290c565b60043590811515820361034157565b6002111561238f57565b95926101009794919a9998959261012088019b885261295b81612933565b602088015260408701526060860152608085015260a084015260c083015260e08201520152565b919082519283825260005b8481106129ae575050826000602080949584010152601f8019910116010190565b60208183018101518483018201520161298d565b602435906001600160a01b038216820361034157565b600435906001600160a01b038216820361034157565b90600482101561238f5752565b81810292918115918404141715612a0e57565b634e487b7160e01b600052601160045260246000fd5b6001600160401b038111610f3a57604052565b61016081019081106001600160401b03821117610f3a57604052565b61018081019081106001600160401b03821117610f3a57604052565b61012081019081106001600160401b03821117610f3a57604052565b601f909101601f19168101906001600160401b03821190821017610f3a57604052565b60405190600060045490600182811c90808416938415612b72575b6020948584108114612b5e5783885287949392918115612b3e5750600114612afc575b5050612afa92500383612a8b565b565b90939150600460005281600020936000915b818310612b26575050612afa93508201013880612aec565b85548884018501529485019487945091830191612b0e565b915050612afa94925060ff191682840152151560051b8201013880612aec565b634e487b7160e01b85526022600452602485fd5b91607f1691612ac9565b60405190600060055490600182811c90808416938415612c09575b6020948584108114612b5e5783885287949392918115612b3e5750600114612bc7575050612afa92500383612a8b565b90939150600560005281600020936000915b818310612bf1575050612afa93508201013880612aec565b85548884018501529485019487945091830191612bd9565b91607f1691612b97565b8054821015612c2b5760005260206000200190600090565b634e487b7160e01b600052603260045260246000fd5b90815180825260208080930193019160005b828110612c61575050505090565b835185529381019392810192600101612c53565b3360009081527fad3228b676f7d3cd4284a5443f17f1962b36e491b30a40b2405849e597ba5fb5602052604081205460ff16156128885750565b3360009081527fa629f6981c2f6895a67dc766e8e03ff72d04a413d0d8773a3ca56e9e474032c16020526040902054600080516020613d5f8339815191529060ff16156128885750565b80600052600060205260406000203360005260205260ff6040600020541615612d1f5750565b60405163e2517d3f60e01b8152908190612d3d903360048401612d41565b0390fd5b6001600160a01b039091168152602081019190915260400190565b9060009180835282602052604083209160018060a01b03169182845260205260ff60408420541615600014612dd557808352826020526040832082845260205260408320600160ff198254161790557f2f8788117e7eff1d82e926ec794901d17c78024a50270940304540a733656f0d339380a4600190565b505090565b9060009180835282602052604083209160018060a01b03169182845260205260ff604084205416600014612dd55780835282602052604083208284526020526040832060ff1981541690557ff6391f5c32d9c69d2a47ea670b442974b53935d1edc7fd64eb21e047a839171b339380a4600190565b15612e5657565b60405162461bcd60e51b815260206004820152601d60248201527f4f72646572426f6f6b3a20636f6e7472616374206973207061757365640000006044820152606490fd5b15612ea257565b60405162461bcd60e51b815260206004820152601c60248201527b4f72646572426f6f6b3a206d61726b6574206e6f742061637469766560201b6044820152606490fd5b15612eed57565b60405162461bcd60e51b815260206004820152601f60248201527f4f72646572426f6f6b3a20696e76616c696420757365722061646472657373006044820152606490fd5b90949392606092608083019660018060a01b03168352602083015260408201520152565b90600481101561238f5760ff80198354169116179055565b8054600160401b811015610f3a57612f8b91600182018155612c13565b819291549060031b91821b91600019901b1916179055565b600260015414612fb4576002600155565b604051633ee5aeb560e01b8152600490fd5b6000198114612a0e5760010190565b600860406000838152600d60205281812060ff600182015460a81c16612ffa81612933565b61304757600361300d91015480956132fa565b838152600f60205220015415613038575b505b613028613439565b60135561303361346c565b601455565b613041906134ca565b3861301e565b600361305691015480956133c5565b83815260106020522001541561306d575b50613020565b61307690613580565b38613067565b91908203918211612a0e57565b6040919493926060820195825260208201520152565b156130a657565b60405162461bcd60e51b8152602060048201526024808201527f4f72646572426f6f6b3a20696e76616c69642073656c6c206f726465722073746044820152636174757360e01b6064820152608490fd5b156130fe57565b60405162461bcd60e51b8152602060048201526024808201527f4f72646572426f6f6b3a2073656c6c206f7264657220616c72656164792066696044820152631b1b195960e21b6064820152608490fd5b1561315657565b60405162461bcd60e51b815260206004820152601a6024820152794f72646572426f6f6b3a207a65726f206d617463682073697a6560301b6044820152606490fd5b91908201809211612a0e57565b156131ac57565b60405162461bcd60e51b815260206004820152602360248201527f4f72646572426f6f6b3a20696e76616c696420627579206f726465722073746160448201526274757360e81b6064820152608490fd5b1561320457565b60405162461bcd60e51b815260206004820152602360248201527f4f72646572426f6f6b3a20627579206f7264657220616c72656164792066696c6044820152621b195960ea1b6064820152608490fd5b1561325c57565b60405162461bcd60e51b815260206004820152601d60248201527f4f72646572426f6f6b3a20696e76616c696420746f74616c2073697a650000006044820152606490fd5b156132a857565b60405162461bcd60e51b815260206004820152601e60248201527f4f72646572426f6f6b3a20696e76616c6964206f7264657220636f756e7400006044820152606490fd5b8015612a0e576000190190565b906000918252600d60205260408220908252600f60205281604081209160086009820193845415156000146133b7578183015485548552600d602052826040862001555b8282018054909361337291156133ab57865485548752600d60205260096040882001555b600460028201549101549061307c565b61338d6007830191825461338882821015613255565b61307c565b9055016133a581546133a08115156132a1565b6132ed565b90555555565b86546006840155613362565b81830154600582015561333e565b906000918252600d60205260408220908252601060205281604081209160086009820193845415156000146133b757828201805486548652600d602052604086208401819055909361337291156133ab57865485548752600d6020526009604088200155600460028201549101549061307c565b6011548015613466575b600460406000838152600f6020522001549081156134615750613443565b905090565b50600090565b6012548015613466575b60036040600083815260106020522001549081156134615750613476565b60086000918281558260018201558260028201558260038201558260048201558260058201558260068201558260078201550155565b6040612afa91600090808252600f602052828220600281015490600460038201549101549180613556575b50826011541461350f575b50508152600f60205220613494565b81156135315750806011558252600f60205281600284822001555b3880613500565b9050801561354c57806011558252816002848220015561352a565b508160115561352a565b8452838581206003810190858254146000146135755750555b386134f5565b60049150015561356f565b6040612afa916000908082526010602052828220600281015460046003830154920154908061360b575b5082601254146135c4575b50508152601060205220613494565b81156135e65750806012558252601060205281600284822001555b38806135b5565b905080156136015780601255825281600284822001556135df565b50816012556135df565b84528385812060038101908582541460001461362a5750555b386135aa565b600491500155613624565b1561363c57565b60405162461bcd60e51b815260206004820152601f60248201527f4f72646572426f6f6b3a207573657220766f6c756d65206f766572666c6f77006044820152606490fd5b1561368857565b60405162461bcd60e51b815260206004820152602660248201527f4f72646572426f6f6b3a207573657220747261646520636f756e746572206f766044820152656572666c6f7760d01b6064820152608490fd5b604091949392606082019560018060a01b0316825260208201520152565b9192906000938260075561370e83826129fb565b60095481198111613a70578161372391613198565b60095560011c92600185019560018060a01b03968791601683835416978883526020906015825260409961377b8b862054613762841980921115613635565b60018c019e8f54168752601585528c8720541115613635565b84526015825289842061378f828254613198565b9055858c54168452601582526137a98a8520918254613198565b90558a6137de8a8780885416938488528686526137cd60001980948a205410613681565b541686528484528b86205410613681565b83528181528883206137f08154612fc6565b9055848b54168352528681206138068154612fc6565b90556138128486613ab2565b61381c8587613ab2565b908460025416908585541691600354813b156120825791859161385793838e5180968195829463b25cdccf60e01b9a8b8552600485016136dc565b03925af18015613a6657613a53575b508460025416858c541660035492823b15612082579085809493926138988e51978896879586948552600485016136dc565b03925af180156139ff57908291613a3f575b505082600254168383541690600354813b15611b4157866138e792898680948e5196879586948593635463f81560e11b9b8c865260048601612f32565b03925af18015613a3557908391613a21575b5050836002541690848b54169160035491600160ff1b8914613a0d57813b15613a095790888580949361393d8b8f5198899788968795865286039160048601612f32565b03925af180156139ff576139eb575b505090806139e69261396086600854613198565b60085554169754169586887fcfaae44f59cdc0459335ad7fa6324241a4e86a442fc914e1aea4f2076aba7a5088518061399b42898b84613089565b0390a3549386888751967f043f1fb3781a272561a63f61d52b4dbd6524d6d0a8cd1e003888f2a341974e8f8881996139d5428a8c84613089565b0390a4549451928392429184613089565b0390a4565b6139f58291612a24565b610346578061394c565b88513d84823e3d90fd5b8480fd5b634e487b7160e01b85526011600452602485fd5b613a2a90612a24565b6104005781386138f9565b89513d85823e3d90fd5b613a4890612a24565b6103465780386138aa565b613a5f90939193612a24565b9138613866565b8a513d86823e3d90fd5b60405162461bcd60e51b815260206004820152601a6024820152794f72646572426f6f6b3a20766f6c756d65206f766572666c6f7760301b6044820152606490fd5b908015613bf4578115613baf5780600019048211613b6b57613ad3916129fb565b7f19999999999999999999999999999999999999999999999999999999999999998111613b1757600a810290808204600a1490151715612a0e576305f5e100900490565b60405162461bcd60e51b815260206004820152602660248201527f4f72646572426f6f6b3a206d617267696e2063616c63756c6174696f6e206f766044820152656572666c6f7760d01b6064820152608490fd5b606460405162461bcd60e51b815260206004820152602060248201527f4f72646572426f6f6b3a2073697a65202a207072696365206f766572666c6f776044820152fd5b60405162461bcd60e51b815260206004820152601e60248201527f4f72646572426f6f6b3a2073697a652063616e6e6f74206265207a65726f00006044820152606490fd5b60405162461bcd60e51b815260206004820152601f60248201527f4f72646572426f6f6b3a2070726963652063616e6e6f74206265207a65726f006044820152606490fd5b15613c4057565b60405162461bcd60e51b815260206004820152601960248201527809ee4c8cae484deded67440e0e4d2c6ca40e8dede40d0d2ced603b1b6044820152606490fd5b15613c8857565b60405162461bcd60e51b81526020600482015260186024820152774f72646572426f6f6b3a20707269636520746f6f206c6f7760401b6044820152606490fd5b6001600160401b038111610f3a5760051b60200190565b90613ce982613cc8565b613cf66040519182612a8b565b8281528092613d07601f1991613cc8565b0190602036910137565b805115612c2b576020019056fea2ee7b9f6b18d3372b1bb15bde43f572accc22f4869ee3c7a6911ec08969710873e573f9566d61418a34d5de3ff49360f9c51fec37f7486551670290f6285dab68e79a7bf1e0bc45d0a330c573bc367f9cf464fd326078812f301165fbda4ef1348379522536ddee6c265b4008f5063ca68d4ee1e27925ba2a01236bab3c59e6b2705df32ac67fc3101f496cd7036bf59074a603544d97d73650b6f09744986aa2646970667358221220e62eceadefe2efd23a4554de9f8e70c54b4ccb19d8cb77e3388b0cab208b84ef64736f6c634300081400332f8788117e7eff1d82e926ec794901d17c78024a50270940304540a733656f0dd3065a24ad9e7725d223007135762d2902038999e3e5829146654498a58d9795296122bdb87204bcfe29c5134e14b5cc015bb7569992168b78e0494f479362584514ccd12a7b29e81b1a9bb718dd40e66d13c3456c6f8ac2f0b7fbd4578c4a20a66cc928b5edb82af9bd49922954155ab7b0942694bea4ce44661d9a8736c68868e79a7bf1e0bc45d0a330c573bc367f9cf464fd326078812f301165fbda4ef1f3f7a9fe364faab93b216da50a3214154f22a0a2b415b23a84c8169e8b636ee3a26469706673582212207fe58bc1ccc47d3b29d799b645bcd9cf65d5f47cbbe6a8e8c8b0883acbe42f5264736f6c634300081400332f8788117e7eff1d82e926ec794901d17c78024a50270940304540a733656f0d",
  "linkReferences": {},
  "deployedLinkReferences": {}
}