{
  "_format": "hh-sol-artifact-1",
  "contractName": "MetricVAMMFactory",
  "sourceName": "contracts/core/MetricVAMMFactory.sol",
  "abi": [
    {
      "inputs": [
        {
          "internalType": "address",
          "name": "_centralVault",
          "type": "address"
        },
        {
          "internalType": "address",
          "name": "_metricRegistry",
          "type": "address"
        }
      ],
      "stateMutability": "nonpayable",
      "type": "constructor"
    },
    {
      "anonymous": false,
      "inputs": [
        {
          "indexed": true,
          "internalType": "string",
          "name": "category",
          "type": "string"
        },
        {
          "indexed": true,
          "internalType": "address",
          "name": "newVAMM",
          "type": "address"
        },
        {
          "indexed": true,
          "internalType": "address",
          "name": "oldVAMM",
          "type": "address"
        }
      ],
      "name": "CategoryUpdated",
      "type": "event"
    },
    {
      "anonymous": false,
      "inputs": [
        {
          "indexed": true,
          "internalType": "string",
          "name": "templateName",
          "type": "string"
        },
        {
          "indexed": false,
          "internalType": "uint256",
          "name": "maxLeverage",
          "type": "uint256"
        },
        {
          "indexed": false,
          "internalType": "uint256",
          "name": "tradingFeeRate",
          "type": "uint256"
        }
      ],
      "name": "TemplateCreated",
      "type": "event"
    },
    {
      "anonymous": false,
      "inputs": [
        {
          "indexed": true,
          "internalType": "string",
          "name": "templateName",
          "type": "string"
        },
        {
          "indexed": false,
          "internalType": "bool",
          "name": "isActive",
          "type": "bool"
        }
      ],
      "name": "TemplateUpdated",
      "type": "event"
    },
    {
      "anonymous": false,
      "inputs": [
        {
          "indexed": true,
          "internalType": "address",
          "name": "vammAddress",
          "type": "address"
        },
        {
          "indexed": false,
          "internalType": "string",
          "name": "reason",
          "type": "string"
        }
      ],
      "name": "VAMMDeactivated",
      "type": "event"
    },
    {
      "anonymous": false,
      "inputs": [
        {
          "indexed": true,
          "internalType": "address",
          "name": "vammAddress",
          "type": "address"
        },
        {
          "indexed": true,
          "internalType": "string",
          "name": "category",
          "type": "string"
        },
        {
          "indexed": true,
          "internalType": "address",
          "name": "creator",
          "type": "address"
        },
        {
          "indexed": false,
          "internalType": "string",
          "name": "templateUsed",
          "type": "string"
        },
        {
          "indexed": false,
          "internalType": "bytes32[]",
          "name": "allowedMetrics",
          "type": "bytes32[]"
        }
      ],
      "name": "VAMMDeployed",
      "type": "event"
    },
    {
      "inputs": [],
      "name": "acceptOwnership",
      "outputs": [],
      "stateMutability": "nonpayable",
      "type": "function"
    },
    {
      "inputs": [
        {
          "internalType": "uint256",
          "name": "",
          "type": "uint256"
        }
      ],
      "name": "allCategories",
      "outputs": [
        {
          "internalType": "string",
          "name": "",
          "type": "string"
        }
      ],
      "stateMutability": "view",
      "type": "function"
    },
    {
      "inputs": [
        {
          "internalType": "uint256",
          "name": "",
          "type": "uint256"
        }
      ],
      "name": "allTemplateNames",
      "outputs": [
        {
          "internalType": "string",
          "name": "",
          "type": "string"
        }
      ],
      "stateMutability": "view",
      "type": "function"
    },
    {
      "inputs": [
        {
          "internalType": "uint256",
          "name": "",
          "type": "uint256"
        }
      ],
      "name": "allVAMMs",
      "outputs": [
        {
          "internalType": "address",
          "name": "",
          "type": "address"
        }
      ],
      "stateMutability": "view",
      "type": "function"
    },
    {
      "inputs": [
        {
          "internalType": "address",
          "name": "",
          "type": "address"
        }
      ],
      "name": "authorizedDeployers",
      "outputs": [
        {
          "internalType": "bool",
          "name": "",
          "type": "bool"
        }
      ],
      "stateMutability": "view",
      "type": "function"
    },
    {
      "inputs": [],
      "name": "centralVault",
      "outputs": [
        {
          "internalType": "contract ICentralizedVault",
          "name": "",
          "type": "address"
        }
      ],
      "stateMutability": "view",
      "type": "function"
    },
    {
      "inputs": [
        {
          "internalType": "string",
          "name": "templateName",
          "type": "string"
        },
        {
          "internalType": "uint256",
          "name": "maxLeverage",
          "type": "uint256"
        },
        {
          "internalType": "uint256",
          "name": "tradingFeeRate",
          "type": "uint256"
        },
        {
          "internalType": "uint256",
          "name": "liquidationFeeRate",
          "type": "uint256"
        },
        {
          "internalType": "uint256",
          "name": "maintenanceMarginRatio",
          "type": "uint256"
        },
        {
          "internalType": "uint256",
          "name": "initialReserves",
          "type": "uint256"
        },
        {
          "internalType": "uint256",
          "name": "volumeScaleFactor",
          "type": "uint256"
        },
        {
          "internalType": "uint256",
          "name": "startPrice",
          "type": "uint256"
        },
        {
          "internalType": "string",
          "name": "description",
          "type": "string"
        }
      ],
      "name": "createTemplate",
      "outputs": [],
      "stateMutability": "nonpayable",
      "type": "function"
    },
    {
      "inputs": [],
      "name": "customTemplateFee",
      "outputs": [
        {
          "internalType": "uint256",
          "name": "",
          "type": "uint256"
        }
      ],
      "stateMutability": "view",
      "type": "function"
    },
    {
      "inputs": [
        {
          "internalType": "address",
          "name": "vammAddress",
          "type": "address"
        },
        {
          "internalType": "string",
          "name": "reason",
          "type": "string"
        }
      ],
      "name": "deactivateVAMM",
      "outputs": [],
      "stateMutability": "nonpayable",
      "type": "function"
    },
    {
      "inputs": [
        {
          "internalType": "string",
          "name": "category",
          "type": "string"
        },
        {
          "internalType": "bytes32[]",
          "name": "allowedMetrics",
          "type": "bytes32[]"
        },
        {
          "components": [
            {
              "internalType": "uint256",
              "name": "maxLeverage",
              "type": "uint256"
            },
            {
              "internalType": "uint256",
              "name": "tradingFeeRate",
              "type": "uint256"
            },
            {
              "internalType": "uint256",
              "name": "liquidationFeeRate",
              "type": "uint256"
            },
            {
              "internalType": "uint256",
              "name": "maintenanceMarginRatio",
              "type": "uint256"
            },
            {
              "internalType": "uint256",
              "name": "initialReserves",
              "type": "uint256"
            },
            {
              "internalType": "uint256",
              "name": "volumeScaleFactor",
              "type": "uint256"
            },
            {
              "internalType": "uint256",
              "name": "startPrice",
              "type": "uint256"
            },
            {
              "internalType": "bool",
              "name": "isActive",
              "type": "bool"
            },
            {
              "internalType": "string",
              "name": "description",
              "type": "string"
            }
          ],
          "internalType": "struct IMetricVAMMFactory.VAMMTemplate",
          "name": "customTemplate",
          "type": "tuple"
        }
      ],
      "name": "deployCustomVAMM",
      "outputs": [
        {
          "internalType": "address",
          "name": "vammAddress",
          "type": "address"
        }
      ],
      "stateMutability": "payable",
      "type": "function"
    },
    {
      "inputs": [
        {
          "internalType": "string",
          "name": "category",
          "type": "string"
        },
        {
          "internalType": "bytes32[]",
          "name": "allowedMetrics",
          "type": "bytes32[]"
        },
        {
          "internalType": "string",
          "name": "templateName",
          "type": "string"
        }
      ],
      "name": "deploySpecializedVAMM",
      "outputs": [
        {
          "internalType": "address",
          "name": "vammAddress",
          "type": "address"
        }
      ],
      "stateMutability": "payable",
      "type": "function"
    },
    {
      "inputs": [],
      "name": "deploymentFee",
      "outputs": [
        {
          "internalType": "uint256",
          "name": "",
          "type": "uint256"
        }
      ],
      "stateMutability": "view",
      "type": "function"
    },
    {
      "inputs": [],
      "name": "getActiveVAMMs",
      "outputs": [
        {
          "internalType": "address[]",
          "name": "",
          "type": "address[]"
        }
      ],
      "stateMutability": "view",
      "type": "function"
    },
    {
      "inputs": [],
      "name": "getAllCategories",
      "outputs": [
        {
          "internalType": "string[]",
          "name": "",
          "type": "string[]"
        }
      ],
      "stateMutability": "view",
      "type": "function"
    },
    {
      "inputs": [],
      "name": "getAllTemplates",
      "outputs": [
        {
          "internalType": "string[]",
          "name": "",
          "type": "string[]"
        }
      ],
      "stateMutability": "view",
      "type": "function"
    },
    {
      "inputs": [],
      "name": "getAllVAMMs",
      "outputs": [
        {
          "internalType": "address[]",
          "name": "",
          "type": "address[]"
        }
      ],
      "stateMutability": "view",
      "type": "function"
    },
    {
      "inputs": [],
      "name": "getCategoriesCount",
      "outputs": [
        {
          "internalType": "uint256",
          "name": "",
          "type": "uint256"
        }
      ],
      "stateMutability": "view",
      "type": "function"
    },
    {
      "inputs": [
        {
          "internalType": "string",
          "name": "templateName",
          "type": "string"
        }
      ],
      "name": "getTemplate",
      "outputs": [
        {
          "components": [
            {
              "internalType": "uint256",
              "name": "maxLeverage",
              "type": "uint256"
            },
            {
              "internalType": "uint256",
              "name": "tradingFeeRate",
              "type": "uint256"
            },
            {
              "internalType": "uint256",
              "name": "liquidationFeeRate",
              "type": "uint256"
            },
            {
              "internalType": "uint256",
              "name": "maintenanceMarginRatio",
              "type": "uint256"
            },
            {
              "internalType": "uint256",
              "name": "initialReserves",
              "type": "uint256"
            },
            {
              "internalType": "uint256",
              "name": "volumeScaleFactor",
              "type": "uint256"
            },
            {
              "internalType": "uint256",
              "name": "startPrice",
              "type": "uint256"
            },
            {
              "internalType": "bool",
              "name": "isActive",
              "type": "bool"
            },
            {
              "internalType": "string",
              "name": "description",
              "type": "string"
            }
          ],
          "internalType": "struct IMetricVAMMFactory.VAMMTemplate",
          "name": "",
          "type": "tuple"
        }
      ],
      "stateMutability": "view",
      "type": "function"
    },
    {
      "inputs": [],
      "name": "getTotalVAMMs",
      "outputs": [
        {
          "internalType": "uint256",
          "name": "",
          "type": "uint256"
        }
      ],
      "stateMutability": "view",
      "type": "function"
    },
    {
      "inputs": [
        {
          "internalType": "string",
          "name": "category",
          "type": "string"
        }
      ],
      "name": "getVAMMByCategory",
      "outputs": [
        {
          "internalType": "address",
          "name": "",
          "type": "address"
        }
      ],
      "stateMutability": "view",
      "type": "function"
    },
    {
      "inputs": [
        {
          "internalType": "bytes32",
          "name": "metricId",
          "type": "bytes32"
        }
      ],
      "name": "getVAMMByMetric",
      "outputs": [
        {
          "internalType": "address",
          "name": "",
          "type": "address"
        }
      ],
      "stateMutability": "view",
      "type": "function"
    },
    {
      "inputs": [
        {
          "internalType": "address",
          "name": "vammAddress",
          "type": "address"
        }
      ],
      "name": "getVAMMInfo",
      "outputs": [
        {
          "components": [
            {
              "internalType": "address",
              "name": "vammAddress",
              "type": "address"
            },
            {
              "internalType": "string",
              "name": "category",
              "type": "string"
            },
            {
              "internalType": "bytes32[]",
              "name": "allowedMetrics",
              "type": "bytes32[]"
            },
            {
              "internalType": "string",
              "name": "templateUsed",
              "type": "string"
            },
            {
              "internalType": "address",
              "name": "creator",
              "type": "address"
            },
            {
              "internalType": "uint256",
              "name": "deployedAt",
              "type": "uint256"
            },
            {
              "internalType": "bool",
              "name": "isActive",
              "type": "bool"
            }
          ],
          "internalType": "struct IMetricVAMMFactory.VAMMInfo",
          "name": "",
          "type": "tuple"
        }
      ],
      "stateMutability": "view",
      "type": "function"
    },
    {
      "inputs": [
        {
          "internalType": "address",
          "name": "creator",
          "type": "address"
        }
      ],
      "name": "getVAMMsByCreator",
      "outputs": [
        {
          "internalType": "address[]",
          "name": "",
          "type": "address[]"
        }
      ],
      "stateMutability": "view",
      "type": "function"
    },
    {
      "inputs": [
        {
          "internalType": "address",
          "name": "vammAddress",
          "type": "address"
        }
      ],
      "name": "isVAMMDeployed",
      "outputs": [
        {
          "internalType": "bool",
          "name": "",
          "type": "bool"
        }
      ],
      "stateMutability": "view",
      "type": "function"
    },
    {
      "inputs": [],
      "name": "metricRegistry",
      "outputs": [
        {
          "internalType": "contract IMetricRegistry",
          "name": "",
          "type": "address"
        }
      ],
      "stateMutability": "view",
      "type": "function"
    },
    {
      "inputs": [],
      "name": "owner",
      "outputs": [
        {
          "internalType": "address",
          "name": "",
          "type": "address"
        }
      ],
      "stateMutability": "view",
      "type": "function"
    },
    {
      "inputs": [],
      "name": "pause",
      "outputs": [],
      "stateMutability": "nonpayable",
      "type": "function"
    },
    {
      "inputs": [],
      "name": "paused",
      "outputs": [
        {
          "internalType": "bool",
          "name": "",
          "type": "bool"
        }
      ],
      "stateMutability": "view",
      "type": "function"
    },
    {
      "inputs": [],
      "name": "pendingOwner",
      "outputs": [
        {
          "internalType": "address",
          "name": "",
          "type": "address"
        }
      ],
      "stateMutability": "view",
      "type": "function"
    },
    {
      "inputs": [
        {
          "internalType": "address",
          "name": "newOwner",
          "type": "address"
        }
      ],
      "name": "proposeOwnership",
      "outputs": [],
      "stateMutability": "nonpayable",
      "type": "function"
    },
    {
      "inputs": [
        {
          "internalType": "address",
          "name": "deployer",
          "type": "address"
        },
        {
          "internalType": "bool",
          "name": "authorized",
          "type": "bool"
        }
      ],
      "name": "setAuthorizedDeployer",
      "outputs": [],
      "stateMutability": "nonpayable",
      "type": "function"
    },
    {
      "inputs": [
        {
          "internalType": "uint256",
          "name": "newFee",
          "type": "uint256"
        }
      ],
      "name": "setCustomTemplateFee",
      "outputs": [],
      "stateMutability": "nonpayable",
      "type": "function"
    },
    {
      "inputs": [
        {
          "internalType": "uint256",
          "name": "newFee",
          "type": "uint256"
        }
      ],
      "name": "setDeploymentFee",
      "outputs": [],
      "stateMutability": "nonpayable",
      "type": "function"
    },
    {
      "inputs": [
        {
          "internalType": "string",
          "name": "",
          "type": "string"
        }
      ],
      "name": "templates",
      "outputs": [
        {
          "internalType": "uint256",
          "name": "maxLeverage",
          "type": "uint256"
        },
        {
          "internalType": "uint256",
          "name": "tradingFeeRate",
          "type": "uint256"
        },
        {
          "internalType": "uint256",
          "name": "liquidationFeeRate",
          "type": "uint256"
        },
        {
          "internalType": "uint256",
          "name": "maintenanceMarginRatio",
          "type": "uint256"
        },
        {
          "internalType": "uint256",
          "name": "initialReserves",
          "type": "uint256"
        },
        {
          "internalType": "uint256",
          "name": "volumeScaleFactor",
          "type": "uint256"
        },
        {
          "internalType": "uint256",
          "name": "startPrice",
          "type": "uint256"
        },
        {
          "internalType": "bool",
          "name": "isActive",
          "type": "bool"
        },
        {
          "internalType": "string",
          "name": "description",
          "type": "string"
        }
      ],
      "stateMutability": "view",
      "type": "function"
    },
    {
      "inputs": [],
      "name": "unpause",
      "outputs": [],
      "stateMutability": "nonpayable",
      "type": "function"
    },
    {
      "inputs": [
        {
          "internalType": "string",
          "name": "templateName",
          "type": "string"
        },
        {
          "internalType": "bool",
          "name": "isActive",
          "type": "bool"
        }
      ],
      "name": "updateTemplate",
      "outputs": [],
      "stateMutability": "nonpayable",
      "type": "function"
    },
    {
      "inputs": [
        {
          "internalType": "string",
          "name": "category",
          "type": "string"
        },
        {
          "internalType": "address",
          "name": "newVAMM",
          "type": "address"
        }
      ],
      "name": "updateVAMMCategory",
      "outputs": [],
      "stateMutability": "nonpayable",
      "type": "function"
    },
    {
      "inputs": [
        {
          "internalType": "address",
          "name": "",
          "type": "address"
        }
      ],
      "name": "vammInfos",
      "outputs": [
        {
          "internalType": "address",
          "name": "vammAddress",
          "type": "address"
        },
        {
          "internalType": "string",
          "name": "category",
          "type": "string"
        },
        {
          "internalType": "string",
          "name": "templateUsed",
          "type": "string"
        },
        {
          "internalType": "address",
          "name": "creator",
          "type": "address"
        },
        {
          "internalType": "uint256",
          "name": "deployedAt",
          "type": "uint256"
        },
        {
          "internalType": "bool",
          "name": "isActive",
          "type": "bool"
        }
      ],
      "stateMutability": "view",
      "type": "function"
    },
    {
      "inputs": [
        {
          "internalType": "string",
          "name": "",
          "type": "string"
        }
      ],
      "name": "vammsByCategory",
      "outputs": [
        {
          "internalType": "address",
          "name": "",
          "type": "address"
        }
      ],
      "stateMutability": "view",
      "type": "function"
    },
    {
      "inputs": [
        {
          "internalType": "address",
          "name": "",
          "type": "address"
        },
        {
          "internalType": "uint256",
          "name": "",
          "type": "uint256"
        }
      ],
      "name": "vammsByCreator",
      "outputs": [
        {
          "internalType": "address",
          "name": "",
          "type": "address"
        }
      ],
      "stateMutability": "view",
      "type": "function"
    },
    {
      "inputs": [
        {
          "internalType": "bytes32",
          "name": "",
          "type": "bytes32"
        }
      ],
      "name": "vammsByMetric",
      "outputs": [
        {
          "internalType": "address",
          "name": "",
          "type": "address"
        }
      ],
      "stateMutability": "view",
      "type": "function"
    },
    {
      "inputs": [
        {
          "internalType": "address",
          "name": "recipient",
          "type": "address"
        }
      ],
      "name": "withdrawFees",
      "outputs": [],
      "stateMutability": "nonpayable",
      "type": "function"
    },
    {
      "stateMutability": "payable",
      "type": "receive"
    }
  ],
  "bytecode": "0x60c03462000c7a57601f62008d6338819003918201601f19168301916001600160401b03831184841017620008d457808492604094855283398101031262000c7a576200005a6020620000528362000ce0565b920162000ce0565b67016345785d8a0000600b5566b1a2bc2ec50000600c556001600160a01b039182169190821562000ba8571690811562000ae25760805260a052600080546001600160a01b03191633179055620000b062000c7f565b60148152603260208201526101f460408201526101f4606082015269021e19e0c9bab240000060808201526103e860a08201526802b5e3af16b188000060c0820152600160e08201526200010362000ca0565b604c81527f436f6e7365727661746976652074656d706c61746520666f7220737461626c6560208201527f206d6574726963732077697468206c6f776572206c6576657261676520616e6460408201526b20686967686572206665657360a01b6060820152610100820152610100602c6040516b636f6e73657276617469766560a01b81526002600c8201522091805183556020810151600184015560408101516002840155606081015160038401556080810151600484015560a0810151600584015560c081015160068401556007830160e0820151151560ff80198354169116179055015180519060018060401b038211620008d45762000219826200020f600886015462000cf5565b6008860162000d78565b602090601f831160011462000a6d57600892916000918362000a61575b50508160011b916000199060031b1c1916179101555b60075468010000000000000000811015620008d45780600162000273920160075562000dc2565b620008be576200028f62000288825462000cf5565b8262000d4b565b7f636f6e73657276617469766500000000000000000000000000000000000000189055620002bc62000c7f565b60328152601e60208201526101f460408201526101f4606082015269021e19e0c9bab240000060808201526103e860a08201526802b5e3af16b188000060c0820152600160e08201526200030f62000cc0565b603b81527f5374616e646172642074656d706c61746520666f72206d6f7374206d6574726960208201527f637320776974682062616c616e63656420706172616d65746572730000000000604082015261010082019081526028604051671cdd185b99185c9960c21b8152600260088201522091805183556020810151600184015560408101516002840155606081015160038401556080810151600484015560a0810151600584015560c0810151600684015560e060078401910151151560ff801983541691161790555180519060018060401b038211620008d45762000400826200020f600886015462000cf5565b602090601f8311600114620009ec576008929160009183620009e0575b50508160011b916000199060031b1c1916179101555b60075468010000000000000000811015620008d4578060016200045a920160075562000dc2565b620008be576200046f62000288825462000cf5565b7f7374616e6461726400000000000000000000000000000000000000000000001090556200049c62000c7f565b606481526020810160148152604082016101f4815260608301610320815260808401690a968163f0a57b400000815260a08501906101f4825260c08601926802b5e3af16b1880000845260e087019460018652620004f962000ca0565b96604a88527f416767726573736976652074656d706c61746520666f7220766f6c6174696c6560208901527f206d65747269637320776974682068696768206c6576657261676520616e64206040890152696c6f776572206665657360b01b60608901526101008901978852602a604051696167677265737369766560b01b81526002600a8201522098518955516001890155516002880155516003870155516004860155516005850155516006840155600783019051151560ff801983541691161790555180519060018060401b038211620008d457620005e4826200020f600886015462000cf5565b602090601f83116001146200096b5760089291600091836200095f575b50508160011b916000199060031b1c1916179101555b60075468010000000000000000811015620008d4578060016200063e920160075562000dc2565b620008be576200065362000288825462000cf5565b7f616767726573736976650000000000000000000000000000000000000000001490556200068062000c7f565b600a81526014602082015261012c806040830152606082015269043c33c193756480000060808201526107d060a08201526802b5e3af16b188000060c0820152600160e0820152620006d162000cc0565b603e81527f50726564696374696f6e2074656d706c61746520666f7220707265646963746960208201527f6f6e206d61726b6574732077697468206c6f776572206c65766572616765000060408201526101008201526101006008602a60405169383932b234b1ba34b7b760b11b81526002600a82015220835181556020840151600182015560408401516002820155606084015160038201556080840151600482015560a0840151600582015560c084015160068201556007810160e0850151151560ff801983541691161790550191015190815160018060401b038111620008d457620007cd81620007c6845462000cf5565b8462000d78565b602092601f8211600114620008f65792819293600092620008ea575b50508160011b916000199060031b1c19161790555b60075468010000000000000000811015620008d45780600162000825920160075562000dc2565b620008be576200083a62000288825462000cf5565b7f70726564696374696f6e000000000000000000000000000000000000000000149055604051617f6e908162000df582396080518181816107dc01528181610c59015281816110e101528181611296015281816112eb0152611b9c015260a0518181816105860152818161110c015281816113fc01528181611bc70152611d7a0152f35b634e487b7160e01b600052600060045260246000fd5b634e487b7160e01b600052604160045260246000fd5b015190503880620007e9565b601f198216938360005260206000209160005b8681106200094657508360019596106200092c575b505050811b019055620007fe565b015160001960f88460031b161c191690553880806200091e565b9192602060018192868501518155019401920162000909565b01519050388062000601565b906008840160005260206000209160005b601f1985168110620009c75750918391600193600895601f19811610620009ad575b505050811b0191015562000617565b015160001960f88460031b161c191690553880806200099e565b919260206001819286850151815501940192016200097c565b0151905038806200041d565b906008840160005260206000209160005b601f198516811062000a485750918391600193600895601f1981161062000a2e575b505050811b0191015562000433565b015160001960f88460031b161c1916905538808062000a1f565b91926020600181928685015181550194019201620009fd565b01519050388062000236565b906008840160005260206000209160005b601f198516811062000ac95750918391600193600895601f1981161062000aaf575b505050811b019101556200024c565b015160001960f88460031b161c1916905538808062000aa0565b9192602060018192868501518155019401920162000a7e565b60405162461bcd60e51b815260206004820152608660248201527f4d657472696356414d4d466163746f72793a204d65747269632072656769737460448201527f727920616464726573732063616e6e6f74206265207a65726f202d206d75737460648201527f2062652076616c6964204d6574726963526567697374727920636f6e7472616360848201527f7420666f72206d65747269632076616c69646174696f6e20616e6420636f6d7060a4820152656c69616e636560d01b60c482015260e490fd5b60405162461bcd60e51b815260206004820152609260248201527f4d657472696356414d4d466163746f72793a2043656e7472616c207661756c7460448201527f20616464726573732063616e6e6f74206265207a65726f202d206d757374206260648201527f652076616c69642043656e7472616c697a65645661756c7420636f6e7472616360848201527f7420666f722056414d4d20617574686f72697a6174696f6e20616e6420636f6c60a4820152711b185d195c985b081b585b9859d95b595b9d60721b60c482015260e490fd5b600080fd5b6040519061012082016001600160401b03811183821017620008d457604052565b60405190608082016001600160401b03811183821017620008d457604052565b60405190606082016001600160401b03811183821017620008d457604052565b51906001600160a01b038216820362000c7a57565b90600182811c9216801562000d27575b602083101462000d1157565b634e487b7160e01b600052602260045260246000fd5b91607f169162000d05565b81811062000d3e575050565b6000815560010162000d32565b90601f811162000d59575050565b62000d7691600052601f6020600020910160051c81019062000d32565b565b9190601f811162000d8857505050565b62000d76926000526020600020906020601f840160051c8301931062000db7575b601f0160051c019062000d32565b909150819062000da9565b60075481101562000dde57600760005260206000200190600090565b634e487b7160e01b600052603260045260246000fdfe608060405260043610156200001d575b36156200001b57600080fd5b005b6000803560e01c8063071cbbd31462003353578063079babf114620031cf57806309c43a581462003172578063138950fc1462003130578063157eb37f1462002f49578063164e68de1462002dc6578063195a44f61462002d645780631f43b6211462002d035780632d41ff4614620023075780633181a8d014620022cd57806333ae08a914620022ad5780633a776583146200222c5780633f4ba83a14620021f35780634b93d1f01462002160578063527ec0e114620021405780635c975abb1462002118578063641f85d214620019c0578063685496f01462001971578063694830691462000f5d578063710bf3221462000ec157806379ba50971462000e2c5780637d67cd6f1462000d135780638456cb591462000cd457806387eabd671462000c88578063880829611462000c415780638a575bf01462000c0e5780638da5cb5b1462000be55780638e46a3001462000b5f5780639217a68914620009ea57806395867f4f14620006e0578063b22beeda146200062b578063b5fba11d1462000464578063d002462b14620005f8578063d42ab69c14620005b5578063d5900ef9146200056e578063dadd0a5714620004e4578063e30c397814620004b9578063f2cff57f1462000499578063f51fdafa1462000464578063fbccef0614620003b1578063fbd5eb4814620002445763fc06ad39146200022257506200000f565b3462000241578060031936011262000241576020600854604051908152f35b80fd5b50346200024157604036600319011262000241576004356001600160401b038111620003ad576200027a903690600401620033e7565b906200028562003433565b916200029c60018060a01b038554163314620037e9565b801562000368576040518183823760208183810160028152030190209060048201541562000315577fa9691329eb59a3a6bc8cfcda4ff113b7ae4c4dd41beba91d4dd5062f67adb5d792620002f78560076020950162003836565b8160405192839283378101868152039020926040519015158152a280f35b60405162461bcd60e51b815260206004820152602560248201527f4d657472696356414d4d466163746f72793a2074656d706c617465206e6f7420604482015264199bdd5b9960da1b6064820152608490fd5b60405162461bcd60e51b815260206004820152601d60248201527f4d657472696356414d4d466163746f72793a20656d707479206e616d650000006044820152606490fd5b5080fd5b50346200024157602036600319011262000241576001600160a01b039060409082620003dc6200341c565b1681526005602052208181541690620003f86001820162003553565b92620004076003830162003553565b90600483015416916200044e60ff6006600584015493015416926200043f604051978897885260c0602089015260c088019062003468565b90868203604088015262003468565b9260608501526080840152151560a08301520390f35b5034620002415760203660031901126200024157602090600435815260048252604060018060a01b0391205416604051908152f35b503462000241578060031936011262000241576020600b54604051908152f35b503462000241578060031936011262000241576001546040516001600160a01b039091168152602090f35b50346200024157806003193601126200024157600954620005058162003a53565b906200051560405192836200352f565b8082526009835260008051602062007eb98339815191529260208084015b8383106200054f57604051806200054b878262003783565b0390f35b60018281926200055f8962003553565b81520196019201919462000533565b503462000241578060031936011262000241576040517f00000000000000000000000000000000000000000000000000000000000000006001600160a01b03168152602090f35b503462000241576020366003190112620002415760209060ff906040906001600160a01b03620005e46200341c565b168152600a84522054166040519015158152f35b50346200024157602036600319011262000241576200062260018060a01b038254163314620037e9565b600435600b5580f35b50346200024157620006576020620006433662003743565b816040519382858094519384920162003443565b8101600281520301902080546200054b600183015492600281015490600381015460048201546005830154906006840154926200069f600860ff600788015416960162003553565b95604051998a998a5260208a015260408901526060880152608087015260a086015260c0850152151560e08401526101208061010085015283019062003468565b5034620002415760403660031901126200024157620006fe6200341c565b906024356001600160401b038111620003ad5762000721903690600401620033e7565b82549193916001600160a01b03906200073e9082163314620037e9565b808316928385526020916005835260ff6006604088200154161562000938578486526005835260408620600681019060ff1991828154169055600180820192604051908a94805462000790816200348f565b9281861691821562000923575050600114620008eb575b50506003808552938190038701902080546001600160a01b0319908116909155909160020189835b620008a7575b50505050507f00000000000000000000000000000000000000000000000000000000000000001690813b15620008a357836200082d9288888094604051968795869485936313b7614360e11b85526004850162003a2f565b03925af1801562000898576200086e575b506200086860008051602062007df9833981519152939495604051938385948552840191620039e9565b0390a280f35b60008051602062007df983398151915293946200088f62000868926200351b565b9493506200083e565b6040513d87823e3d90fd5b8580fd5b8154811015620008e55780620008c2620008de9284620033ce565b905490871b1c8c526004895260408c2084815416905562003998565b83620007cf565b620007d5565b909194508a52868a2087838c925b8484106200091057505050508301923880620007a7565b80548489015201910190838991620008f9565b168452505080151502810193503880620007a7565b60e4836040519062461bcd60e51b825260048201526084602482015260008051602062007e5983398151915260448201527f7665202d2063616e6e6f742064656163746976617465206e6f6e2d657869737460648201527f656e74206f7220616c726561647920696e6163746976652056414d4d2028636860848201527f65636b2056414d4d206164647265737320616e642063757272656e742073746160a4820152637475732960e01b60c4820152fd5b503462000241578060031936011262000241578081600854905b81811062000b00575062000a188262003a53565b9162000a2860405193846200352f565b80835262000a39601f199162003a53565b019260209336858501378093815b83811062000a5f57604051806200054b878262003605565b62000a6a816200339c565b9054600391821b1c6001600160a01b0390811685526005808552604086206006015490929060ff1662000aac575b50505062000aa69062003998565b62000a47565b62000ab98499946200339c565b9054911b1c1690865183101562000aec579162000ae291848262000aa6951b8901015262003998565b9590388062000a98565b634e487b7160e01b85526032600452602485fd5b62000b0b816200339c565b905460039190911b1c6001600160a01b031684526005602052604084206006015460ff1662000b46575b62000b409062003998565b62000a04565b9162000b5662000b409162003998565b92905062000b35565b5034620002415780600319360112620002415760075462000b808162003a53565b9062000b9060405192836200352f565b8082526007835260008051602062007e398339815191529260208084015b83831062000bc657604051806200054b878262003783565b600182819262000bd68962003553565b81520196019201919462000bae565b50346200024157806003193601126200024157546040516001600160a01b039091168152602090f35b503462000241576020366003190112620002415762000c3860018060a01b038254163314620037e9565b600435600c5580f35b503462000241578060031936011262000241576040517f00000000000000000000000000000000000000000000000000000000000000006001600160a01b03168152602090f35b50346200024157602062000c9c3662003743565b8162000cb2604051928381519384920162003443565b600390820190815281900382019020546040516001600160a01b039091168152f35b5034620002415780600319360112620002415762000cfd60018060a01b038254163314620037e9565b6001805460ff60a01b1916600160a01b17905580f35b50346200024157602080600319360112620003ad576004356001600160401b03811162000e285762000d4b82913690600401620033e7565b91906040519462000d5c86620034fe565b80865280838701528060408701528060608701528060808701528060a08701528060c087015260e0860152606061010080960152826040519384928337810160028152030190209162000e0e60086040519462000db986620034fe565b80548652600181015485870152600281015460408701526003810154606087015260048101546080870152600581015460a0870152600681015460c087015260ff600782015416151560e08701520162003553565b908301526200054b6040519282849384528301906200367e565b8280fd5b503462000241578060031936011262000241576001546001600160a01b038116903382900362000e705782546001600160a01b031990811690921783551660015580f35b60405162461bcd60e51b8152602060048201526024808201527f4d657472696356414d4d466163746f72793a206e6f742070656e64696e67206f6044820152633bb732b960e11b6064820152608490fd5b503462000241576020366003190112620002415762000edf6200341c565b81546001600160a01b03919062000efa9083163314620037e9565b16801562000f1957600180546001600160a01b03191691909117905580f35b606460405162461bcd60e51b815260206004820152602060248201527f4d657472696356414d4d466163746f72793a20696e76616c6964206f776e65726044820152fd5b50600319606036820112620003ad576004356001600160401b03811162000e285762000f8e903690600401620033e7565b91906024356001600160401b0381116200196d5762000fb29036906004016200364b565b926001600160401b0360443511620008a35761012090604435360301126200196d5762000fe860ff60015460a01c1615620038a0565b84546001600160a01b03163314801562001956575b6200100890620038e9565b620010346040518584823760038187019081528190036020019020546001600160a01b03161562003940565b600b54600c5481018091116200194257341062001890578315620017f8578215620017695760e46044350135801590811503620008a35780620016c857600160443560040135101580620016b6575b1562001610576103e860246044350135116200156f576084604435013515620014d457855b848110620013d35750604051906001600160401b03613e03830190811190831117620013bf57613e0362003ff683396001600160a01b037f00000000000000000000000000000000000000000000000000000000000000008116613e0384019081527f0000000000000000000000000000000000000000000000000000000000000000909116602082015230604082015260e0606082018190526200116d916200115591018887620039e9565b613e03840181036080613e0386010152868562003a0a565b613e03830180820360a091820152600460448035918201358452602482013560208501528101356040840152606481013560608401526084810135608084015260a48101359183019190915260c481013560c0830152911560e0820152903681900360221901610104909101351215620013a35760443561010481013501600481013591906024016001600160401b038311620013bb578236038113620013bb5783926101208381610100620012279601520191620039e9565b60c4604435013560c0613e0384010152039086f080156200089857604080516001600160a01b03929092169591939084016001600160401b03811185821017620013a757604052600684526200129465637573746f6d60d01b948560208201523390878686868c62003a6b565b7f00000000000000000000000000000000000000000000000000000000000000006001600160a01b03163b15620013a35760405163ef9dc26f60e01b8152878180620012e686868c6004850162003a2f565b0381837f00000000000000000000000000000000000000000000000000000000000000006001600160a01b03165af1801562001398579160209860008051602062007f19833981519152949289969462001386575b508260405193849384378201908152039020936200137b6040519283926040845260066040850152606084015260808a8401523397608084019162003a0a565b0390a4604051908152f35b62001391906200351b565b386200133b565b6040513d8a823e3d90fd5b8680fd5b634e487b7160e01b88526041600452602488fd5b8880fd5b634e487b7160e01b87526041600452602487fd5b620013e0818685620039be565b6040516395f187bd60e01b8152903560048201526020816024817f00000000000000000000000000000000000000000000000000000000000000006001600160a01b03165afa908115620013985788916200149e575b50156200144e57620014489062003998565b620010a8565b60405162461bcd60e51b815260206004820152602260248201527f4d657472696356414d4d466163746f72793a20696e616374697665206d657472604482015261696360f01b6064820152608490fd5b620014c5915060203d602011620014cc575b620014bc81836200352f565b810190620039cf565b3862001436565b503d620014b0565b60405162461bcd60e51b8152602060048201526072602482015260008051602062007ed983398151915260448201527f746520726573657276657320696e76616c6964202d20414d4d2072657175697260648201527f657320706f73697469766520696e697469616c20726573657276657320666f7260848201527110383934b1b29031b0b631bab630ba34b7b760711b60a482015260c490fd5b60405162461bcd60e51b8152602060048201526078602482015260008051602062007ed983398151915260448201527f74652074726164696e672066656520746f6f2068696768202d206d6178696d7560648201527f6d203130303020626173697320706f696e7473202831302529206576656e20666084820152776f7220637573746f6d20636f6e66696775726174696f6e7360401b60a482015260c490fd5b60405162461bcd60e51b815260206004820152607d602482015260008051602062007ed983398151915260448201527f7465206c65766572616765206f7574206f6620626f756e6473202d206576656e60648201527f20637573746f6d20636f6e66696775726174696f6e73206d757374207374617960848201527f2077697468696e2031782d3130307820736166657479206c696d69747300000060a482015260c490fd5b50606460443560040135111562001083565b60405162461bcd60e51b8152602060048201526078602482015260008051602062007ed983398151915260448201527f746520697320696e616374697665202d2074656d706c617465206d757374206260648201527f65206d61726b65642061637469766520776974682076616c6964617465642070608482015277185c985b595d195c9cc8199bdc8819195c1b1bde5b595b9d60421b60a482015260c490fd5b60405162461bcd60e51b8152602060048201526066602482015260008051602062007e7983398151915260448201527f65636966696564202d206576656e20637573746f6d2056414d4d73206d75737460648201527f20737570706f7274206174206c65617374206f6e6520747261646561626c65206084820152656d657472696360d01b60a482015260c490fd5b60405162461bcd60e51b815260206004820152606f602482015260008051602062007ef983398151915260448201527f2063616e6e6f7420626520656d707479202d20637573746f6d2056414d4d732060648201527f7265717569726520636c6561722063617465676f72697a6174696f6e20666f7260848201526e207573657220646973636f7665727960881b60a482015260c490fd5b60405162461bcd60e51b8152602060048201526083602482015260008051602062007e9983398151915260448201527f7061796d656e74202d206d757374207061792062617365206465706c6f796d6560648201527f6e742066656520706c757320637573746f6d2074656d706c617465207072656d60848201527f69756d20666f72206e6f6e2d7374616e6461726420636f6e666967757261746960a4820152626f6e7360e81b60c482015260e490fd5b634e487b7160e01b86526011600452602486fd5b50338552600a602052604085205460ff1662000ffd565b8480fd5b5034620002415760203660031901126200024157600435600954811015620003ad57620019ab9060208360096200054b9552200162003553565b60405191829160208352602083019062003468565b50606036600319011262000241576004356001600160401b038111620003ad57620019f0903690600401620033e7565b6024356001600160401b038111620021145762001a129036906004016200364b565b90916044356001600160401b038111620008a35762001a36903690600401620033e7565b909162001a4c60ff60015460a01c1615620038a0565b86546001600160a01b031633148015620020fd575b62001a6c90620038e9565b60ff6007604051848682376002858201526020818681010301902001541615620020ac5762001abc6040518288823760038184019081528190036020019020546001600160a01b03161562003940565b600b5434106200200a57801562001f5457831562001eb957865b84811062001d515750604051828482376020818481016002815203019020956040519662001b0488620034fe565b8054885260018101546020890152600281015460408901526003810154606089015260048101546080890152600581015460a089015262001b63600860068301549260c08b0193845260ff600782015416151560e08c01520162003553565b61010089015251604051906001600160401b03613e0383019081119083111762001d3d578190613e0362003ff683396001600160a01b037f00000000000000000000000000000000000000000000000000000000000000008116613e0384018181527f0000000000000000000000000000000000000000000000000000000000000000909216602083015230604083015260e060608301819052909b62001c4892909162001c319162001c1991018989620039e9565b613e03860181036080613e03880101528b8d62003a0a565b90613e038501820360a0613e03870101526200367e565b9060c0613e0384010152039089f0801562001398576001600160a01b03169662001c853389888a878762001c7e368c8e62003707565b9462003a6b565b88813b1562000241578362001cb59284838c6040519687958694859363ef9dc26f60e01b85526004850162003a2f565b03925af1801562001d32579260008051602062007f19833981519152949260209a6200137b938b989662001d20575b5082604051938493843782019081520390209562001d10604051948594604086526040860191620039e9565b908382038b850152339862003a0a565b62001d2b906200351b565b3862001ce4565b6040513d8b823e3d90fd5b634e487b7160e01b8a52604160045260248afd5b62001d5e818688620039be565b6040516395f187bd60e01b8152903560048201526020816024817f00000000000000000000000000000000000000000000000000000000000000006001600160a01b03165afa90811562001d3257899162001e95575b501562001dcc5762001dc69062003998565b62001ad6565b60405162461bcd60e51b815260206004820152608960248201527f4d657472696356414d4d466163746f72793a20537065636966696564206d657460448201527f72696320697320696e616374697665206f72206e6f6e2d6578697374656e742060648201527f2d20616c6c206d657472696373206d757374206265207265676973746572656460848201527f20616e642061637469766520696e204d6574726963526567697374727920666f60a482015268722074726164696e6760b81b60c482015260e490fd5b62001eb2915060203d602011620014cc57620014bc81836200352f565b3862001db4565b60405162461bcd60e51b8152602060048201526072602482015260008051602062007e7983398151915260448201527f65636966696564202d2056414d4d206d75737420737570706f7274206174206c60648201527f65617374206f6e6520747261646561626c65206d657472696320746f2070726f608482015271766964652066756e6374696f6e616c69747960701b60a482015260c490fd5b60405162461bcd60e51b8152602060048201526087602482015260008051602062007ef983398151915260448201527f2063616e6e6f7420626520656d707479202d206d75737420737065636966792060648201527f6d65616e696e6766756c2063617465676f72792028652e672e2c20275765617460848201527f686572272c202745636f6e6f6d6963272920666f722056414d4d206f7267616e60a48201526634bd30ba34b7b760c91b60c482015260e490fd5b60405162461bcd60e51b8152602060048201526079602482015260008051602062007e9983398151915260448201527f6465706c6f796d656e7420666565202d206d75737420706179206d696e696d7560648201527f6d2066656520746f20636f7665722056414d4d206372656174696f6e20616e646084820152782073797374656d206d61696e74656e616e636520636f73747360381b60a482015260c490fd5b60405162461bcd60e51b815260206004820152602360248201527f4d657472696356414d4d466163746f72793a20696e76616c69642074656d706c60448201526261746560e81b6064820152608490fd5b50338752600a602052604087205460ff1662001a61565b8380fd5b50346200024157806003193601126200024157602060ff60015460a01c166040519015158152f35b503462000241578060031936011262000241576020600954604051908152f35b50346200024157806003193601126200024157604051600880548083529083526020808301937ff3f7a9fe364faab93b216da50a3214154f22a0a2b415b23a84c8169e8b636ee392915b828210620021d2576200054b85620021c5818903826200352f565b6040519182918262003605565b83546001600160a01b031686529485019460019384019390910190620021aa565b503462000241578060031936011262000241576200221c60018060a01b038254163314620037e9565b6001805460ff60a01b1916905580f35b50346200024157602080600319360112620003ad576001600160a01b039182620022556200341c565b168152600682526040812092604051908193808654938481520195845280842093915b83831062002293576200054b86620021c5818a03826200352f565b845481168752958101956001948501949092019162002278565b503462000241578060031936011262000241576020600c54604051908152f35b5034620002415760203660031901126200024157600435600754811015620003ad57620019ab9060208360076200054b9552200162003553565b5034620002415761012036600319011262000241576004356001600160401b038111620003ad576200233e903690600401620033e7565b610104356001600160401b038111620021145762002361903690600401620033e7565b92906200237960018060a01b038654163314620037e9565b821562002c545760ff600760405185858237602081878101600281520301902001541662002b8c57600160243510158062002b7e575b1562002ad6576044936103e885351162002a2c576064916107d083351162002977578260843510620028c55760a43515620028115760c435156200275c5760e43515620026f85762002451620024bc91604051946200240e86620034fe565b602435865288356020870152356040860152608435606086015260a435608086015260c43560a086015260e43560c086015260e085019360018552369162003707565b91610100840192835260c060405187878237602081898101600281520301902094805186556020810151600187015560408101516002870155606081015160038701556080810151600487015560a08101516005870155015160068501555115156007840162003836565b518051906001600160401b038211620013bf57620024ed82620024e360088601546200348f565b6008860162003847565b602090601f83116001146200268657600892918891836200267a575b50508160011b916000199060031b1c1916179101555b600754600160401b8110156200266657600181018060075581101562000aec576007855260008051602062007e39833981519152016001600160401b03831162002666576200257b836200257483546200348f565b8362003847565b84601f8411600114620025ea5791839160008051602062007e19833981519152946040948891620025de575b508360011b906000198560031b1c19161790555b81835192839283378101868152039020928151906024358252356020820152a280f35b905082013538620025a7565b8186526020862090601f198516875b8181106200264d57509185939160008051602062007e1983398151915296604096941062002632575b5050600183811b019055620025bb565b830135600019600386901b60f8161c19169055388062002622565b91926020600181928689013581550194019201620025f9565b634e487b7160e01b85526041600452602485fd5b01519050388062002509565b906008840188526020882091885b601f1985168110620026df5750918391600193600895601f19811610620026c5575b505050811b019101556200251f565b015160001960f88460031b161c19169055388080620026b6565b9192602060018192868501518155019401920162002694565b60405162461bcd60e51b815260206004820152603860248201527f4d657472696356414d4d466163746f72793a205374617274207072696365206d81880152777573742062652067726561746572207468616e207a65726f60401b81850152608490fd5b60405162461bcd60e51b815260206004820152607f60248201527f4d657472696356414d4d466163746f72793a20566f6c756d65207363616c6520818801527f666163746f72206d7573742062652067726561746572207468616e207a65726f818501527f202d20726571756972656420666f722064796e616d696320726573657276652060848201527f7363616c696e67206261736564206f6e2074726164696e6720766f6c756d650060a482015260c490fd5b60405162461bcd60e51b815260206004820152607c60248201527f4d657472696356414d4d466163746f72793a20496e697469616c207265736572818801527f766573206d7573742062652067726561746572207468616e207a65726f202d20818501527f726571756972656420666f7220414d4d2070726963652063616c63756c61746960848201527b6f6e20616e642074726164696e672066756e6374696f6e616c69747960201b60a482015260c490fd5b60405162461bcd60e51b815260206004820152607a60248201527f4d657472696356414d4d466163746f72793a204d61696e74656e616e6365206d818801527f617267696e20726174696f20746f6f206c6f77202d206d696e696d756d203130818501527f3020626173697320706f696e7473202831252920726571756972656420666f72608482015279103634b8bab4b230ba34b7b71039b0b332ba3c90313ab33332b960311b60a482015260c490fd5b60405162461bcd60e51b815260206004820152607d60248201527f4d657472696356414d4d466163746f72793a204c69717569646174696f6e2066818801527f6565207261746520746f6f2068696768202d206d6178696d756d203230303020818501527f626173697320706f696e747320283230252920746f2070726576656e7420657860848201527f63657373697665206c69717569646174696f6e2070656e616c7469657300000060a482015260c490fd5b60405162461bcd60e51b815260206004820152607160248201527f4d657472696356414d4d466163746f72793a2054726164696e67206665652072818701527f61746520746f6f2068696768202d206d6178696d756d2031303030206261736960648201527f7320706f696e747320283130252920746f20656e7375726520726561736f6e61608482015270626c652074726164696e6720636f73747360781b60a482015260c490fd5b60405162461bcd60e51b815260206004820152606e60248201527f4d657472696356414d4d466163746f72793a204d6178696d756d206c6576657260448201527f616765206f7574206f6620626f756e6473202d206d757374206265206265747760648201527f65656e20317820286d696e696d756d2920616e64203130307820286d6178696d60848201526d756d2073616665206c696d69742960901b60a482015260c490fd5b5060646024351115620023af565b60405162461bcd60e51b815260206004820152608860248201527f4d657472696356414d4d466163746f72793a2054656d706c61746520616c726560448201527f6164792065786973747320776974682074686973206e616d65202d2063616e6e60648201527f6f74206f7665727772697465206163746976652074656d706c6174652028646560848201527f6163746976617465206669727374206f722063686f6f7365206469666665726560a4820152676e74206e616d652960c01b60c482015260e490fd5b60405162461bcd60e51b815260206004820152607560248201527f4d657472696356414d4d466163746f72793a2054656d706c617465206e616d6560448201527f2063616e6e6f7420626520656d707479202d206d7573742070726f766964652060648201527f6964656e74696679696e67206e616d6520666f722074656d706c6174652072656084820152747472696576616c20616e64207265666572656e636560581b60a482015260c490fd5b5034620002415760203660031901126200024157600435906001600160401b0382116200024157602062002d3b3660048501620033e7565b80604051928337600390820190815281900382019020546040516001600160a01b039091168152f35b503462000241576040366003190112620002415762002d826200341c565b6001600160a01b0390811682526006602052604082208054602435939084101562000241575060209262002db691620033ce565b9190546040519260031b1c168152f35b503462000241576020366003190112620002415762002de46200341c565b81546001600160a01b039062002dfe9082163314620037e9565b81161562002ef8574790811562002ea4578280809381935af13d1562002e9e573d62002e2a81620036eb565b9062002e3a60405192836200352f565b81528260203d92013e5b1562002e4d5780f35b60405162461bcd60e51b8152602060048201526024808201527f4d657472696356414d4d466163746f72793a207769746864726177616c2066616044820152631a5b195960e21b6064820152608490fd5b62002e44565b60405162461bcd60e51b815260206004820152602660248201527f4d657472696356414d4d466163746f72793a206e6f206665657320746f20776960448201526574686472617760d01b6064820152608490fd5b60405162461bcd60e51b8152602060048201526024808201527f4d657472696356414d4d466163746f72793a20696e76616c69642072656369706044820152631a595b9d60e21b6064820152608490fd5b503462000241576020366003190112620002415762002f676200341c565b8160c060405162002f7881620034cc565b82815260606020820152606060408201526060808201528260808201528260a0820152015260018060a01b031681526005602052604081206040519062002fbf82620034cc565b80546001600160a01b0316825262002fda6001820162003553565b60208301526002810160405190816020825491828152019186526020862090865b818110620031195750505091816200301a60069360ff9503826200352f565b60408501526200302d6003820162003553565b606085015260018060a01b036004820154166080850152600581015460a0850152015416151560c0820152604051906020825260018060a01b0381511660208301526200308b602082015160e0604085015261010084019062003468565b604082015193601f199182858203016060860152602080875192838152019601915b8181106200310257505050620030d6839460c09260608501519086830301608087015262003468565b60808301516001600160a01b031660a08581019190915283015182850152910151151560e08301520390f35b8251875260209687019690920191600101620030ad565b825484526020909301926001928301920162002ffb565b50346200024157602036600319011262000241576020906005906040906001600160a01b036200315f6200341c565b1681528284522001541515604051908152f35b5034620002415760403660031901126200024157620031cc620031946200341c565b6200319e62003433565b835490916001600160a01b0391620031ba9083163314620037e9565b168352600a6020526040832062003836565b80f35b50346200024157604036600319011262000241576004356001600160401b038111620003ad5762003205903690600401620033e7565b6024356001600160a01b0381811692918390036200196d576200322d818654163314620037e9565b828552600560205260ff6006604087200154161562003314578115620032c557604051828582376020818481016003815203019020541692604051828282376003838201908152819003602001902080546001600160a01b031916841790556040519182918190833781018581520390207fa61b60f900b0098df18e81cb17cc4a9e7c397bb937bbe0abe5d6e7fd9483de948480a480f35b60405162461bcd60e51b815260206004820152602160248201527f4d657472696356414d4d466163746f72793a20656d7074792063617465676f726044820152607960f81b6064820152608490fd5b60405162461bcd60e51b8152602060048201526022602482015260008051602062007e59833981519152604482015261766560f01b6064820152608490fd5b5034620002415760203660031901126200024157600435906008548210156200024157602062003383836200339c565b905460405160039290921b1c6001600160a01b03168152f35b600854811015620033b857600860005260206000200190600090565b634e487b7160e01b600052603260045260246000fd5b8054821015620033b85760005260206000200190600090565b9181601f8401121562003417578235916001600160401b0383116200341757602083818601950101116200341757565b600080fd5b600435906001600160a01b03821682036200341757565b6024359081151582036200341757565b60005b838110620034575750506000910152565b818101518382015260200162003446565b90602091620034838151809281855285808601910162003443565b601f01601f1916010190565b90600182811c92168015620034c1575b6020831014620034ab57565b634e487b7160e01b600052602260045260246000fd5b91607f16916200349f565b60e081019081106001600160401b03821117620034e857604052565b634e487b7160e01b600052604160045260246000fd5b61012081019081106001600160401b03821117620034e857604052565b6001600160401b038111620034e857604052565b601f909101601f19168101906001600160401b03821190821017620034e857604052565b906040519182600082549262003569846200348f565b908184526001948581169081600014620035e0575060011462003599575b505062003597925003836200352f565b565b9093915060005260209081600020936000915b818310620035c7575050620035979350820101388062003587565b85548884018501529485019487945091830191620035ac565b9150506200359794506020925060ff191682840152151560051b820101388062003587565b6020908160408183019282815285518094520193019160005b8281106200362d575050505090565b83516001600160a01b0316855293810193928101926001016200361e565b9181601f8401121562003417578235916001600160401b03831162003417576020808501948460051b0101116200341757565b90620036e891805182526020810151602083015260408101516040830152606081015160608301526080810151608083015260a081015160a083015260c081015160c083015260e0810151151560e083015261010080910151916101208092820152019062003468565b90565b6001600160401b038111620034e857601f01601f191660200190565b9291926200371582620036eb565b916200372560405193846200352f565b82948184528183011162003417578281602093846000960137010152565b60206003198201126200341757600435906001600160401b0382116200341757806023830112156200341757816024620036e89360040135910162003707565b602080820190808352835180925260408301928160408460051b8301019501936000915b848310620037b85750505050505090565b9091929394958480620037d8600193603f198682030187528a5162003468565b9801930193019194939290620037a7565b15620037f157565b60405162461bcd60e51b815260206004820152601d60248201527f4d657472696356414d4d466163746f72793a206f6e6c79206f776e65720000006044820152606490fd5b9060ff801983541691151516179055565b90601f81116200385657505050565b600091825260208220906020601f850160051c8301941062003895575b601f0160051c01915b8281106200388957505050565b8181556001016200387c565b909250829062003873565b15620038a857565b60405162461bcd60e51b815260206004820152601960248201527813595d1c9a58d5905353519858dd1bdc9e4e881c185d5cd959603a1b6044820152606490fd5b15620038f157565b60405162461bcd60e51b815260206004820152602160248201527f4d657472696356414d4d466163746f72793a206e6f7420617574686f72697a656044820152601960fa1b6064820152608490fd5b156200394857565b60405162461bcd60e51b815260206004820152602260248201527f4d657472696356414d4d466163746f72793a2063617465676f72792065786973604482015261747360f01b6064820152608490fd5b6000198114620039a85760010190565b634e487b7160e01b600052601160045260246000fd5b9190811015620033b85760051b0190565b908160209103126200341757518015158103620034175790565b908060209392818452848401376000828201840152601f01601f1916010190565b81835290916001600160fb1b038311620034175760209260051b809284830137010190565b6001600160a01b039091168152604060208201819052620036e893910191620039e9565b6001600160401b038111620034e85760051b60200190565b94929196959390604051888282376003898201908152819003602001902080546001600160a01b0319166001600160a01b038816179055600854600160401b811015620034e8578662003ac982600162003ae894016008556200339c565b90919082549060031b9160018060a01b03809116831b921b1916179055565b600954600160401b811015620034e8576001810180600955811015620033b857600960005260008051602062007eb9833981519152016001600160401b038911620034e85762003b3e896200257483546200348f565b886000601f821160011462003f8b5760009162003f7f575b508960011b906000198b60031b1c19161790555b6001600160a01b03851660009081526006602052604090208054600160401b811015620034e85762003ac98162003ba89360018b94018155620033ce565b60005b82811062003f39575062003bdc906040519862003bc88a620034cc565b6001600160a01b0388168a52369162003707565b602088015262003bec8162003a53565b9162003bfc60405193846200352f565b8183526020830190368360051b820111620034175780915b8360051b8201831062003f28575050505060408681019190915260608601919091526001600160a01b0391821660808601524260a0860152600160c0860152918116600090815260056020908152929020845181546001600160a01b03191692169190911781559083015180519093906001600160401b038111620034e85762003cb18162003ca760018601546200348f565b6001860162003847565b6020601f821160011462003eb457819293949560009262003ea8575b50508160011b916000199060031b1c19161760018301555b604081015180519060028401906001600160401b038311620034e857600160401b8311620034e857815483835580841062003e7c575b5060200190600052602060002060005b83811062003e6757505050506060810151805160038401916001600160401b038211620034e85762003d6a8262003d6385546200348f565b8562003847565b602090601f831160011462003def57928260c0936200359797969360069660009262003de3575b50508160011b916000199060031b1c19161790555b60808101516004850180546001600160a01b0319166001600160a01b039290921691909117905560a0810151600585015501511515910162003836565b01519050388062003d91565b90601f198316918460005260206000209260005b81811062003e4e57509362003597979693600696936001938360c0981062003e34575b505050811b01905562003da6565b015160001960f88460031b161c1916905538808062003e26565b9293602060018192878601518155019501930162003e03565b60019060208451940193818401550162003d2b565b8260005283602060002091820191015b81811062003e9b575062003d1b565b6000815560010162003e8c565b01519050388062003ccd565b6001840160005260206000209060005b601f198416811062003f0f575060019394959683601f1981161062003ef5575b505050811b01600183015562003ce5565b015160001960f88460031b161c1916905538808062003ee4565b9091602060018192858b01518155019301910162003ec4565b823581526020928301920162003c14565b8062003f4b62003f79928587620039be565b35600090815260046020526040902080546001600160a01b0319166001600160a01b038a1617905562003998565b62003bab565b90508201353862003b56565b60008381526020812092505b601f198c16811062003fdc57508a601f1981161062003fc1575b5050600189811b01905562003b6a565b83013560001960038c901b60f8161c19169055388062003fb1565b9091602060018192858801358155019301910162003f9756fe6101e06040523462000a375762003e0380380390816200001f8162000a4d565b91823960e081838101031262000a37576200003a8162000a73565b91620000496020830162000a73565b620000576040840162000a73565b60608401519091906001600160401b03811162000a37576200007f9084860190860162000a88565b60808501519091906001600160401b03811162000a3757850192848601601f8501121562000a37578351956001600160401b038711620004c9578660051b946020620000cd81880162000a4d565b80998152016020819783010191888401831162000a3757602001905b82821062000a3c5750505060a0810151906001600160401b03821162000a3757610120828201888301031262000a37576040519661012088016001600160401b03811189821017620004c957604090815282840180518a52602080820151908b015280820151918a0191909152606080820151908a0152608080820151908a015260a080820151908a015260c080820151908a015260e00151801515810362000a375760e08901528183016101000151926001600160401b03841162000a375760c093620001bd9284019184010162000a88565b61010088015201516001600655966001600160a01b039081169283156200096d578116918215620008aa5716918215620007f3578351156200073c57865115620006935760e086015115620005eb5760805260a05260c0528051906001600160401b038211620004c95760005490600182811c92168015620005e0575b6020831014620005ca5781601f84931162000567575b50602090601f8311600114620004eb57600092620004df575b50508160011b916000199060031b1c1916176000555b8251906001600160401b038211620004c957680100000000000000008211620004c9576001548260015580831062000480575b506001600052602060002060005b8381106200046b575050505060005b8251811015620003245760208160051b8401015160005260026020526040600020600160ff1982541617905560001981146200030e57600101620002cf565b634e487b7160e01b600052601160045260246000fd5b5082815160e052602082015161010052604082015161012052606082015190610140928284528260011b92808404600214901517156200030e5761016092835260a06080820151916101a09283520151916101c0928352610180908152604051936132e8958662000afb87396080518681816105d101528181610b2a015281816118e90152818161192a0152818161197d015281816129010152612c67015260a05186818161096d0152611230015260c0518681816109da01528181610b6f01526116f4015260e0518681816107b601528181610a8c01526121190152610100518681816105a101528181610887015281816118940152818161289e0152612bec01526101205186610f7401525185610bc4015251846108c101525183818161041f0152612fa201525182818161231f0152612f6e015251818181610a2001526130f30152f35b600190602084519401938184015501620002c0565b60016000527fb10e2d527612073b26eecdfd717e6a320cf44b4afac2b0732d9fcbe2b7fa0cf69081019083015b818110620004bc5750620002b2565b60008155600101620004ad565b634e487b7160e01b600052604160045260246000fd5b01519050388062000269565b6000808052935060008051602062003de383398151915291905b601f19841685106200054b576001945083601f1981161062000531575b505050811b016000556200027f565b015160001960f88460031b161c1916905538808062000522565b8181015183556020948501946001909301929091019062000505565b6000805290915060008051602062003de3833981519152601f840160051c81019160208510620005bf575b90601f859493920160051c01905b818110620005af575062000250565b60008155849350600101620005a0565b909150819062000592565b634e487b7160e01b600052602260045260246000fd5b91607f16916200023a565b60405162461bcd60e51b815260206004820152606e60248201527f5370656369616c697a656456414d4d3a2054656d706c61746520697320696e6160448201527f6374697665202d2056414d4d207265717569726573206163746976652074656d60648201527f706c61746520776974682076616c69646174656420706172616d65746572732060848201526d199bdc8819195c1b1bde5b595b9d60921b60a482015260c490fd5b60405162461bcd60e51b815260206004820152606f60248201527f5370656369616c697a656456414d4d3a204e6f206d657472696373207370656360448201527f6966696564202d207370656369616c697a65642056414d4d206d75737420737560648201527f70706f7274206174206c65617374206f6e6520747261646561626c65206d657460848201526e72696320666f7220707572706f736560881b60a482015260c490fd5b60405162461bcd60e51b815260206004820152607860248201527f5370656369616c697a656456414d4d3a2043617465676f72792063616e6e6f7460448201527f20626520656d707479202d2056414d4d207265717569726573206d65616e696e60648201527f6766756c2063617465676f7279206e616d6520666f7220636c6173736966696360848201527f6174696f6e20616e64207573657220646973636f76657279000000000000000060a482015260c490fd5b60405162461bcd60e51b815260206004820152607a60248201527f5370656369616c697a656456414d4d3a20466163746f7279206164647265737360448201527f2063616e6e6f74206265207a65726f202d2056414d4d2072657175697265732060648201527f4d657472696356414d4d466163746f727920666f722073797374656d20696e7460848201527f6567726174696f6e20616e6420617574686f72697a6174696f6e00000000000060a482015260c490fd5b60e460405162461bcd60e51b815260206004820152608460248201527f5370656369616c697a656456414d4d3a204d657472696320726567697374727960448201527f20616464726573732063616e6e6f74206265207a65726f202d2056414d4d207260648201527f65717569726573204d6574726963526567697374727920666f72206d6574726960848201527f632076616c69646174696f6e20616e6420636f6d706c69616e6365206368656360a4820152636b696e6760e01b60c4820152fd5b60405162461bcd60e51b815260206004820152608a60248201527f5370656369616c697a656456414d4d3a2043656e7472616c207661756c74206160448201527f6464726573732063616e6e6f74206265207a65726f202d2056414d4d2072657160648201527f75697265732076616c69642043656e7472616c697a65645661756c7420666f7260848201527f206d617267696e206d616e6167656d656e7420616e6420636f6c6c617465726160a4820152696c2068616e646c696e6760b01b60c482015260e490fd5b600080fd5b8151815260209182019101620000e9565b6040519190601f01601f191682016001600160401b03811183821017620004c957604052565b51906001600160a01b038216820362000a3757565b919080601f8401121562000a375782516001600160401b038111620004c95760209062000abe601f8201601f1916830162000a4d565b9281845282828701011162000a375760005b81811062000ae657508260009394955001015290565b858101830151848201840152820162000ad056fe6080604052600436101561001257600080fd5b6000803560e01c9081630239760c14610c515781630d9e505b14612308578163109388b114612299578163109e909b146122385781631939edde1461220f5781632b7b8128146117e957816331da697c1461172f5781633f4ba83a146116de57816344f8809714610ad85781634692c7a2146111ca57816349a65938146111ad578163523f087714610fb95781635c975abb14610f975781635fb3b1b514610f5d578163619d5af814610ec25781636f83ac6f14610d735781636f86f87014610d40578163721f7efb14610d1257816376beb87314610c665781637b4d940514610c515781637b6eb9b614610c0a5781637da21dea14610be757816383acb48a14610bad5781638456cb5914610b595781638808296114610b155781638b23dda914610add57816395082d2514610ad85781639da9b46214610aaf578163ae3302c214610a75578163b3060d3614610a43578163b5e5537714610a09578163c45a0155146109c5578163d5649ded1461099c578163d5900ef914610958578163d8499cfd146108e4578163d97e25bc146108aa578163e01df1a814610870578163e1f1c4a714610854578163e2fe81471461082e578163e63d3cc9146104dc578163e99e9bbc14610442578163efd4a07114610224578163f1a9af8914610408578163f257b32e146103eb578163f59a0ba4146103c3578163f911d49814610229575063ff4107621461022457600080fd5b612570565b346103c05760203660031901126103c05760408161018092610160835161024f816123c3565b82815282602082015282858201528260608201528260808201528260a08201528260c08201528260e08201528261010082015282610120820152826101408201520152600435815260036020522061033360ff6009604051936102b1856123c3565b805485526001810154602086015260028101546040860152826003820154161515606086015260048101546080860152600581015460a0860152600681015460c0860152600781015460e0860152600881015461010086015201548181161515610120850152818160081c16151561014085015260101c1661016083016126d3565b6103be610160604051928051845260208101516020850152604081015160408501526060810151151560608501526080810151608085015260a081015160a085015260c081015160c085015260e081015160e0850152610100810151610100850152610120810151151561012085015261014081015115156101408501520151610160830190612342565bf35b80fd5b346103c05760203660031901126103c057600435815260086020526040812060024291015580f35b346103c057806003193601126103c0576020600654604051908152f35b346103c057806003193601126103c05760206040517f00000000000000000000000000000000000000000000000000000000000000008152f35b346103c057806003193601126103c05761045a61241e565b60015482835b8281106104945750610480936040519485946080865260808601906124e7565b926020850152604084015260608301520390f35b906104d16104d7916104a584612527565b90549060031b1c87526104cb602060098152600a60408a2054915260408920549061266b565b9061266b565b916126c4565b610460565b346103c05760a03660031901126103c05760043560243590604435918184526020926003845261051560ff6009604088200154166126df565b8285526005845260408520546001600160a01b0393906105389085163314612737565b61054760ff600b5416156125e4565b82156107dd576001821015806107b3575b1561076457855260038452610571604086209183612642565b60018201866105808254612f23565b9560643587101580610758575b6105969061278f565b6105ce6127106105c67f000000000000000000000000000000000000000000000000000000000000000087612642565b04809761266b565b907f000000000000000000000000000000000000000000000000000000000000000016803b1561075457604051630ead3e9960e31b8152918391839182908490829061061e9033600484016126a9565b03925af1801561074957610731575b5050600383015460ff161561071457548652600985526040862061065282825461266b565b90555b6002820193845490600484019061068e670de0b6b3a764000091826106878161067f875489612642565b049288612642565b049061266b565b818102918183041490151715610700576106b2906106ac858561266b565b90612689565b90558682820192831291129080158216911516176106ec57906106e092918455600842910155600c5461266b565b600c5554604051908152f35b634e487b7160e01b86526011600452602486fd5b634e487b7160e01b89526011600452602489fd5b548652600a85526040862061072a82825461266b565b9055610655565b61073a9061239a565b61074557868861062d565b8680fd5b6040513d84823e3d90fd5b8280fd5b5060843587111561058d565b60405162461bcd60e51b815260048101869052602160248201527f5370656369616c697a656456414d4d3a20696e76616c6964206c6576657261676044820152606560f81b6064820152608490fd5b507f0000000000000000000000000000000000000000000000000000000000000000821115610558565b60405162461bcd60e51b815260048101869052602360248201527f5370656369616c697a656456414d4d3a20696e76616c696420636f6c6c6174656044820152621c985b60ea1b6064820152608490fd5b346103c05760203660031901126103c057602061084c600435612f23565b604051908152f35b346103c057806003193601126103c05760206040516127108152f35b346103c057806003193601126103c05760206040517f00000000000000000000000000000000000000000000000000000000000000008152f35b346103c057806003193601126103c05760206040517f00000000000000000000000000000000000000000000000000000000000000008152f35b346103c05760803660031901126103c05761084c602091610938600435918281526003855261091c60ff6009604084200154166126df565b8281526005855260409020546001600160a01b03163314612737565b61094760ff600b5416156125e4565b606435906044359060243590612801565b346103c057806003193601126103c0576040517f00000000000000000000000000000000000000000000000000000000000000006001600160a01b03168152602090f35b346103c05760203660031901126103c05760406020916004358152600883522054604051908152f35b346103c057806003193601126103c0576040517f00000000000000000000000000000000000000000000000000000000000000006001600160a01b03168152602090f35b346103c057806003193601126103c05760206040517f00000000000000000000000000000000000000000000000000000000000000008152f35b346103c05760203660031901126103c057602090600435815260058252604060018060a01b0391205416604051908152f35b346103c057806003193601126103c05760206040517f00000000000000000000000000000000000000000000000000000000000000008152f35b346103c05760203660031901126103c05760406020916004358152600983522054604051908152f35b61234f565b346103c05760203660031901126103c057600435906001548210156103c0576020610b0783612527565b90546040519160031b1c8152f35b346103c057806003193601126103c0576040517f00000000000000000000000000000000000000000000000000000000000000006001600160a01b03168152602090f35b346103c057806003193601126103c057610b9d337f00000000000000000000000000000000000000000000000000000000000000006001600160a01b031614613266565b600160ff19600b541617600b5580f35b346103c057806003193601126103c05760206040517f00000000000000000000000000000000000000000000000000000000000000008152f35b346103c057806003193601126103c057602060405168056bc75e2d631000008152f35b346103c05760403660031901126103c057610c23612377565b6001600160a01b03168152600460205260408120805460243592908310156103c0576020610b078484612558565b346103c057602036600319011215612eca5780fd5b346103c057806003193601126103c057604051600180548083528184526020808401949093909185907fb10e2d527612073b26eecdfd717e6a320cf44b4afac2b0732d9fcbe2b7fa0cf690845b818110610cff5750505081610cc99103826123fb565b6040519380850191818652518092526040850195925b828110610cec5785870386f35b8351875295810195928101928401610cdf565b8254845292870192918601918601610cb3565b346103c05760203660031901126103c05760ff60406020926004358152600284522054166040519015158152f35b346103c057806003193601126103c057610d6f610d5b61241e565b6040519182916020835260208301906124e7565b0390f35b346103c05760203660031901126103c0576040805191610d92836123df565b80835280602084015280828401528060608401528060808401528060a08401528060c08401528060e0840152806101008094015260043581526007602052209060405190610ddf826123df565b825482526001830154602083019081526002840154906040840191825260ff6003860154169460608501951515865260048101546080860190815260058201549060a0870191825260ff6006840154169160c08801916005841015610eac5761012099600897610e9e95855260078701549660e08c0197885260018060a01b03998a91015416978a8c019889526040519b518c525160208c01525160408b015251151560608a01525160808901525160a08801525160c087019061238d565b5160e0850152511690820152f35b634e487b7160e01b600052602160045260246000fd5b346103c05760203660031901126103c0576040610120916004358152600760205220805490600181015490610f50600282015460ff600384015416600484015460058501549160ff60068701541693600787015496600860018060a01b039101541697604051998a5260208a0152604089015215156060880152608087015260a086015260c085019061238d565b60e0830152610100820152f35b346103c057806003193601126103c05760206040517f00000000000000000000000000000000000000000000000000000000000000008152f35b346103c057806003193601126103c057602060ff600b54166040519015158152f35b346103c05760403660031901126103c057610fd2612377565b6001600160a01b03168152600460209081526040808320905181548082529184528284206024359492829081860190855b878282106111975750505061101a925003826123fb565b81805b825181101561109457611030818461323b565b5182526003808652866001604085200154149081611072575b5061105d575b611058906126c4565b61101d565b9261106a611058916126c4565b93905061104f565b905061107e828561323b565b518352855260ff60096040842001541687611049565b50926110b86110a28461324f565b936110b060405195866123fb565b80855261324f565b8382019490601f19013686378095815b8451811015611155576110db818661323b565b5183526003808552826001604086200154149081611133575b50611108575b611103906126c4565b6110c8565b9661112b6111039161111a8a8861323b565b51611125828a61323b565b526126c4565b9790506110fa565b905061113f828761323b565b518452845260ff600960408520015416896110f4565b8584888560405193838594850191818652518092526040850193925b82811061118057505050500390f35b835185528695509381019392810192600101611171565b8554845260019586019587955093019201611003565b346103c057806003193601126103c0576020600c54604051908152f35b346103c05760403660031901126103c0576004356024803590828452602093600285526111fd60ff60408320541661258c565b61120c60ff600b5416156125e4565b6040516395f187bd60e01b8152600481018590526001600160a01b039390868185817f000000000000000000000000000000000000000000000000000000000000000089165afa9081156116d35783916116a6575b50156115dd576001811015806115d1575b1561150657848252600786526007604083200154611457576201518090818102918183041490151715611445576112aa82914261266b565b936040516112b7816123df565b86815286888083018881526040840186815261132160608601888152608087019289845260a08801948a8652600760c08a01978c895260e08b0199428b526101008c019d8e339052525260408c209851895551600189015551600288015551151560038701612678565b516004850155516005840155600683019051600581101561143257815460ff191660ff91909116179055516007820155915160089092018054919092166001600160a01b03199091161790556040519160c08301908382106001600160401b0383111761141e575090600591604052808352858301670de0b6b3a764000081526040840142815260608501908382526080860192848452604060a08801958087528a815260088c52209651875551600187015551600286015551600385015551600484015551910155604051908152817f17321e82a629e21965ab6105f8fcfa36d3d9af215e3ff757994a43a3b00f8fb0843393a3604051908152f35b634e487b7160e01b60009081526041600452fd5b634e487b7160e01b875260216004528787fd5b50634e487b7160e01b81526011600452fd5b60405162461bcd60e51b8152600481018790526076818501527f5370656369616c697a656456414d4d3a204d61726b657420616c72656164792060448201527f65786973747320666f722074686973206d6574726963202d2063616e6e6f742060648201527f637265617465206475706c6963617465206d61726b6574732028636c6f7365206084820152756578697374696e67206d61726b65742066697273742960501b60a482015260c490fd5b60405162461bcd60e51b815260048101879052608c818501527f5370656369616c697a656456414d4d3a20496e76616c696420736574746c656d60448201527f656e7420706572696f64202d206d757374206265206265747765656e2031206460648201527f617920286d696e696d756d20666f7220707269636520646973636f766572792960848201527f20616e6420333635206461797320286d6178696d756d20666f7220646174612060a48201526b72656c696162696c6974792960a01b60c482015260e490fd5b5061016d811115611272565b60405162461bcd60e51b815260048101879052608a818501527f5370656369616c697a656456414d4d3a204d6574726963206e6f74206163746960448201527f766520696e207265676973747279202d2063616e6e6f7420637265617465206d60648201527f61726b657420666f72206465616374697661746564206f72206e6f6e2d65786960848201527f7374656e74206d65747269632028636865636b204d657472696352656769737460a4820152697279207374617475732960b01b60c482015260e490fd5b6116c69150873d89116116cc575b6116be81836123fb565b81019061262a565b87611261565b503d6116b4565b6040513d85823e3d90fd5b346103c057806003193601126103c057611722337f00000000000000000000000000000000000000000000000000000000000000006001600160a01b031614613266565b60ff19600b5416600b5580f35b346103c05760203660031901126103c05760406101809160043581526003602052206103be815491600181015490600281015460ff600383015416600483015460058401549060068501549260078601549460096008880154970154976040519a8b5260208b015260408a015215156060890152608088015260a087015260c086015260e085015261010084015260ff8116151561012084015260ff8160081c16151561014084015260ff61016084019160101c16612342565b346103c0576101003660031901126103c0576044351515604435036103c057600360a43510156103c0576004358152600260205261182d60ff60408320541661258c565b61183c60ff600b5416156125e4565b60243515612142576001606435101580612116575b1561206557600160a43514611ebd575b61186f606435602435612642565b61187a600435612f23565b9060c43582101580611eb1575b15611dd8576127106118b97f000000000000000000000000000000000000000000000000000000000000000083612642565b046118c68160243561266b565b604051630550a49960e11b8152602081806118e58533600484016126a9565b03817f00000000000000000000000000000000000000000000000000000000000000006001600160a01b03165afa908115611dcd578691611dae575b5015611cd157847f00000000000000000000000000000000000000000000000000000000000000006001600160a01b03163b156103c057604051630ead3e9960e31b815291829081906119789033600484016126a9565b0381837f00000000000000000000000000000000000000000000000000000000000000006001600160a01b03165af18015611cc657611cb3575b50600654926119c0846126c4565b60065560443515611c935760043585526009602052604085206119e484825461266b565b90555b60a435600103611c8d576004358552600760205260016040862001545b6004358652600860205260016040872001549060405192611a24846123c3565b868452600435602085015285604085015260443515156060850152608084015260843560a084015260c083015260e0820152426101008201526001610120820152600160a43514610140820152611a8160a43561016083016126d3565b83855260036020526040852090805182556020810151600183015560408101516002830155611ab96060820151151560038401612678565b6080810151600483015560a0810151600583015560c0810151600683015560e081015160078301556101008101516008830155611b00610120820151151560098401612678565b61014081015115159061016060098401549101516003811015611c79579061ff0062ff00006009949360101b169260081b169062ffff00191617179101558284526005602052604084203360018060a01b0319825416179055338452600460205260408420805490600160401b821015611c655794611ba885611b8f846020996001611bbc9897018155612558565b90919082549060031b91821b91600019901b1916179055565b600160a43514611c18575b50600c5461266b565b600c556040519060443515158252838201526084356040820152611be56060820160a435612342565b81600435917f2f9244108fbdc399dc2ed91d7cfb453dac5150004fdd4bf0abbfbd80ae3ebac460803392a4604051908152f35b60443515611c4357604060049182358152600788522001611c3a84825461266b565b90555b85611bb3565b60406005916004358152600788522001611c5e84825461266b565b9055611c3d565b634e487b7160e01b86526041600452602486fd5b634e487b7160e01b88526021600452602488fd5b84611a04565b6004358552600a60205260408520611cac84825461266b565b90556119e7565b611cbf9094919461239a565b92846119b2565b6040513d87823e3d90fd5b60405162461bcd60e51b81526020600482015260a060248201527f5370656369616c697a656456414d4d3a20496e73756666696369656e74206d6160448201527f7267696e206361706163697479202d2075736572206c61636b7320617661696c60648201527f61626c6520636f6c6c61746572616c20666f7220706f736974696f6e2073697a60848201527f6520706c75732074726164696e6720666565732028636865636b207661756c7460a48201527f2062616c616e636520616e64206578697374696e6720706f736974696f6e732960c482015260e490fd5b611dc7915060203d6020116116cc576116be81836123fb565b86611921565b6040513d88823e3d90fd5b60405162461bcd60e51b815260206004820152609960248201527f5370656369616c697a656456414d4d3a20507269636520736c6970706167652060448201527f6578636565646564206c696d697473202d2063757272656e74206d61726b657460648201527f207072696365206f7574736964652061636365707461626c652072616e67652060848201527f2861646a75737420736c69707061676520746f6c6572616e6365206f7220776160a482015278697420666f72206661766f7261626c652070726963696e672960381b60c482015260e490fd5b5060e435821115611887565b60043581526007602052600760408220015415611fb8576004358152600760205260ff6006604083200154166005811015611fa457156118615760405162461bcd60e51b815260206004820152607360248201527f5370656369616c697a656456414d4d3a204d61726b6574206e6f74206163636560448201527f7074696e67206e657720706f736974696f6e73202d206d61726b65742073746160648201527f747573206d757374206265204143544956452028636865636b206d61726b657460848201527220736574746c656d656e74207374617475732960681b60a482015260c490fd5b634e487b7160e01b82526021600452602482fd5b60405162461bcd60e51b815260206004820152607360248201527f5370656369616c697a656456414d4d3a20536574746c656d656e7420706f736960448201527f74696f6e207265717569726573206578697374696e67206d61726b6574202d2060648201527f637265617465206d61726b6574206669727374206f722075736520434f4e54496084820152724e554f555320706f736974696f6e207479706560681b60a482015260c490fd5b60405162461bcd60e51b815260206004820152607760248201527f5370656369616c697a656456414d4d3a204c65766572616765206f7574206f6660448201527f20626f756e6473202d206d757374206265206265747765656e20317820286d6960648201527f6e696d756d2920616e64206d61784c65766572616765202856414d4d206d6178608482015276696d756d20666f7220746869732063617465676f72792960481b60a482015260c490fd5b507f00000000000000000000000000000000000000000000000000000000000000006064351115611851565b60405162461bcd60e51b815260206004820152608d60248201527f5370656369616c697a656456414d4d3a20436f6c6c61746572616c20616d6f7560448201527f6e74206d7573742062652067726561746572207468616e207a65726f202d207060648201527f6f736974696f6e73207265717569726520636f6c6c61746572616c206261636b60848201527f696e6720666f72206c6f737320636f76657261676520616e6420736574746c6560a48201526c6d656e7420736563757269747960981b60c482015260e490fd5b346103c05760203660031901126103c05760406020916004358152600a83522054604051908152f35b346103c05760203660031901126103c057604060c091600435815260086020522080549060018101549060028101546003820154906005600484015493015493604051958652602086015260408501526060840152608083015260a0820152f35b346103c05760203660031901126103c05760405162461bcd60e51b815260206004820152603060248201527f5370656369616c697a656456414d4d3a20554d4120696e746567726174696f6e60448201526f081b9bdd081a5b5c1b195b595b9d195960821b6064820152608490fd5b346103c057806003193601126103c05760206040517f00000000000000000000000000000000000000000000000000000000000000008152f35b906003821015610eac5752565b34612372576000366003190112612372576020604051670de0b6b3a76400008152f35b600080fd5b600435906001600160a01b038216820361237257565b906005821015610eac5752565b6001600160401b0381116123ad57604052565b634e487b7160e01b600052604160045260246000fd5b61018081019081106001600160401b038211176123ad57604052565b61012081019081106001600160401b038211176123ad57604052565b601f909101601f19168101906001600160401b038211908210176123ad57604052565b604051906000805490600182811c908084169384156124dd575b60209485841081146124c957838852879493929181156124a9575060011461246b575b5050612469925003836123fb565b565b600080805285812095935091905b8183106124915750506124699350820101388061245b565b85548884018501529485019487945091830191612479565b91505061246994925060ff191682840152151560051b820101388061245b565b634e487b7160e01b85526022600452602485fd5b91607f1691612438565b919082519283825260005b848110612513575050826000602080949584010152601f8019910116010190565b6020818301810151848301820152016124f2565b60015481101561254257600160005260206000200190600090565b634e487b7160e01b600052603260045260246000fd5b80548210156125425760005260206000200190600090565b3461237257602036600319011261237257602060405160008152f35b1561259357565b60405162461bcd60e51b815260206004820152602360248201527f5370656369616c697a656456414d4d3a206d6574726963206e6f7420616c6c6f6044820152621dd95960ea1b6064820152608490fd5b156125eb57565b60405162461bcd60e51b815260206004820152601760248201527614dc1958da585b1a5e9959159053534e881c185d5cd959604a1b6044820152606490fd5b90816020910312612372575180151581036123725790565b8181029291811591840414171561265557565b634e487b7160e01b600052601160045260246000fd5b9190820180921161265557565b9060ff801983541691151516179055565b8115612693570490565b634e487b7160e01b600052601260045260246000fd5b6001600160a01b039091168152602081019190915260400190565b60001981146126555760010190565b6003821015610eac5752565b156126e657565b60405162461bcd60e51b8152602060048201526024808201527f5370656369616c697a656456414d4d3a20706f736974696f6e206e6f742061636044820152637469766560e01b6064820152608490fd5b1561273e57565b60405162461bcd60e51b815260206004820152602360248201527f5370656369616c697a656456414d4d3a206e6f7420706f736974696f6e206f776044820152623732b960e91b6064820152608490fd5b1561279657565b60405162461bcd60e51b815260206004820152601f60248201527f5370656369616c697a656456414d4d3a20707269636520736c697070616765006044820152606490fd5b9190820391821161265557565b8181039291600013801582851316918412161761265557565b9092919260009382855260039460209486865260409182812060028101805491828811612e0257600981019160ff9586845460081c1680612de9575b612b4557600183019687549d6128528f612f23565b9a8b101580670de0b6b3a76400009461287092612b3a575b5061278f565b84015416988915612b225761288d612893916004860154906127db565b8b612642565b049b5b6127106128c37f00000000000000000000000000000000000000000000000000000000000000008c612642565b049815612b0757508554855260098b528685206128e18a82546127db565b90555b888403612aec575050805460ff191690556128ff8733613163565b7f00000000000000000000000000000000000000000000000000000000000000006001600160a01b031690612934868b6127e8565b823b15612ac3578361295a91875180938192630196c4ad60e71b835233600484016126a9565b038183875af18015612acf57612ad9575b508451637eee304360e11b8152336004820152306024820152608081604481865afa908115612acf57908892918591612a5b575b506129b3926129ae9151612642565b612689565b813b15610754576129dd839283928751948580948193639101e5b360e01b835233600484016126a9565b03925af18015612a51579089939291612a33575b5050612a207f1a0014e1b8f406f4e905b47e4c36397151fdc5a54e8bda8c1800080d6c0c259394600c5461266b565b600c55549582519485528401523392a490565b819294959350612a429061239a565b6103c0579182889294936129f1565b84513d84823e3d90fd5b9250506080823d8211612ac7575b81612a76608093836123fb565b81010312612ac35785519160808301906001600160401b038211848310176123ad57908752805183528a8101518b84015286810151878401526060908101519083015287916129b361299f565b8380fd5b3d9150612a69565b86513d86823e3d90fd5b612ae59093919361239a565b913861296b565b909150612afa8882546127e8565b90556008429101556128ff565b8552600a8b52868520612b1b8a82546127db565b90556128e4565b61288d612b339160048601546127db565b049b612896565b90508c11153861286a565b50505050508095949197929693505083855281835285852096600188015486526007845286862081848201541615612d99576002015490600989019381855460101c1681811015612d8557600203612d4257505060058801549080821115612d0757670de0b6b3a764000090818102918183041490151715612cf357670de0b6b3a7640000612be2612bdc600294612c1894612689565b85612642565b045b612710612c117f000000000000000000000000000000000000000000000000000000000000000086612642565b04906127e8565b9701908154808214600014612ce1575050815460ff1916909155508183526005815283832054612c529083906001600160a01b0316613163565b90825260059052818120546001600160a01b037f000000000000000000000000000000000000000000000000000000000000000081169116813b156107545791848192859483612cb69751809881958294630196c4ad60e71b8452600484016126a9565b03925af1918215612cd7575050612ccb575090565b612cd49061239a565b90565b51903d90823e3d90fd5b612cec9293506127e8565b9055612c52565b634e487b7160e01b87526011600452602487fd5b90670de0b6b3a764000090818102918183041490151715612cf357670de0b6b3a7640000612be2612d3d600294612c1894612689565b612bdc565b890154600292612c1892670de0b6b3a7640000921615612d7457612bdc612d6e9160048d0154906127db565b04612be4565b612bdc612d6e9160048d01546127db565b634e487b7160e01b89526021600452602489fd5b875162461bcd60e51b815260048101869052602360248201527f5370656369616c697a656456414d4d3a206d61726b6574206e6f7420736574746044820152621b195960ea1b6064820152608490fd5b506001830154865260078c52868d89882001541661283d565b855162461bcd60e51b8152600481018b9052608960248201527f5370656369616c697a656456414d4d3a20436c6f73652073697a65206578636560448201527f65647320706f736974696f6e202d2063616e6e6f7420636c6f7365206d6f726560648201527f207468616e2063757272656e7420706f736974696f6e2073697a65202863686560848201527f636b20706f736974696f6e2073697a6520616e642072656475636520636c6f7360a4820152686520616d6f756e742960b81b60c482015260e490fd5b60405162461bcd60e51b815260206004820152602b60248201527f5370656369616c697a656456414d4d3a20736574746c656d656e74206e6f742060448201526a1a5b5c1b195b595b9d195960aa1b6064820152608490fd5b60008181526009602052604081205490612f48600a928360205260408320549061266b565b670de0b6b3a764000090801580156130d1575b5050670de0b6b3a76400009150612f92907f0000000000000000000000000000000000000000000000000000000000000000612642565b0490670de0b6b3a7640000612fc77f000000000000000000000000000000000000000000000000000000000000000084612642565b04926000526009602052612fea60406000205482602052604060002054906127e8565b90600082131561306e57670de0b6b3a7640000820291808304670de0b6b3a764000014901517156126555782810290810483036126555761302a91612689565b808211156130655761303b916127db565b670de0b6b3a7640000820291808304670de0b6b3a7640000149015171561265557612cd491612689565b5060011c61303b565b919060008112613081575b50905061303b565b600160ff1b8114612655578060000390670de0b6b3a76400008202918204670de0b6b3a76400001490151715612655578183029283048203612655576130ca926104cb91612689565b8038613079565b8282029182048314171561314f5791612f9291613118670de0b6b3a7640000947f000000000000000000000000000000000000000000000000000000000000000090612689565b90808211156131475750905b5068056bc75e2d631000008082101561314057505b9038612f5b565b9050613139565b905090613124565b634e487b7160e01b83526011600452602483fd5b6001600160a01b031660009081526004602081905260408220909291805b8254808210156132335784906131978386612558565b929054600393841b1c146131b55750506131b0906126c4565b613181565b939450949190600019938481019081116132205790611b8f6131da6131e79388612558565b905490891b1c9187612558565b835491821561320d5750508101926131ff8484612558565b81939154921b1b1916905555565b634e487b7160e01b825260319052602490fd5b634e487b7160e01b835260118452602483fd5b505050505050565b80518210156125425760209160051b010190565b6001600160401b0381116123ad5760051b60200190565b1561326d57565b60405162461bcd60e51b815260206004820152601d60248201527f5370656369616c697a656456414d4d3a206f6e6c7920666163746f72790000006044820152606490fdfea2646970667358221220a8fb157b7b102577b1adac5f4c6744670357f7a7a51b415c32fafd515b529f2c64736f6c63430008140033290decd9548b62a8d60345a988386fc84ba6bc95484008f6362f93160ef3e5638a720b2c1f434262cd346003607f4e34cc9f2a2783b2e77bc55af969b018cc0e4b2275791e5d8120007d84e65849121449b7c39b07653978c3e001586facb4b5a66cc928b5edb82af9bd49922954155ab7b0942694bea4ce44661d9a8736c6884d657472696356414d4d466163746f72793a2056414d4d206e6f7420616374694d657472696356414d4d466163746f72793a204e6f206d6574726963732073704d657472696356414d4d466163746f72793a20496e73756666696369656e74206e1540171b6c0c960b71a7020d9f60077f6af931a8bbf590da0223dacf75c7af4d657472696356414d4d466163746f72793a20437573746f6d2074656d706c614d657472696356414d4d466163746f72793a2043617465676f7279206e616d653c4c1ea723c823642d35287547903c5e1e1c74b0c4915f34a5110fd4428bd0a9a26469706673582212203504b8d5a0a0189d12d011b6c45208b4e1e39a6e1be63df4c8be2ce3ebb81be564736f6c63430008140033",
  "linkReferences": {},
  "deployedLinkReferences": {}
}