{
  "_format": "hh-sol-artifact-1",
  "contractName": "Vault",
  "sourceName": "contracts/Vault.sol",
  "abi": [
    {
      "inputs": [
        {
          "internalType": "address",
          "name": "_collateralToken",
          "type": "address"
        }
      ],
      "stateMutability": "nonpayable",
      "type": "constructor"
    },
    {
      "anonymous": false,
      "inputs": [
        {
          "indexed": true,
          "internalType": "address",
          "name": "account",
          "type": "address"
        }
      ],
      "name": "AuthorizedAdded",
      "type": "event"
    },
    {
      "anonymous": false,
      "inputs": [
        {
          "indexed": true,
          "internalType": "address",
          "name": "account",
          "type": "address"
        }
      ],
      "name": "AuthorizedRemoved",
      "type": "event"
    },
    {
      "anonymous": false,
      "inputs": [
        {
          "indexed": true,
          "internalType": "address",
          "name": "user",
          "type": "address"
        },
        {
          "indexed": false,
          "internalType": "uint256",
          "name": "amount",
          "type": "uint256"
        }
      ],
      "name": "CollateralDeposited",
      "type": "event"
    },
    {
      "anonymous": false,
      "inputs": [
        {
          "indexed": true,
          "internalType": "address",
          "name": "user",
          "type": "address"
        },
        {
          "indexed": false,
          "internalType": "uint256",
          "name": "amount",
          "type": "uint256"
        }
      ],
      "name": "CollateralWithdrawn",
      "type": "event"
    },
    {
      "anonymous": false,
      "inputs": [
        {
          "indexed": true,
          "internalType": "address",
          "name": "user",
          "type": "address"
        },
        {
          "indexed": false,
          "internalType": "int256",
          "name": "fundingPayment",
          "type": "int256"
        },
        {
          "indexed": false,
          "internalType": "uint256",
          "name": "fundingIndex",
          "type": "uint256"
        }
      ],
      "name": "FundingApplied",
      "type": "event"
    },
    {
      "anonymous": false,
      "inputs": [
        {
          "indexed": true,
          "internalType": "address",
          "name": "user",
          "type": "address"
        },
        {
          "indexed": false,
          "internalType": "uint256",
          "name": "amount",
          "type": "uint256"
        }
      ],
      "name": "MarginReleased",
      "type": "event"
    },
    {
      "anonymous": false,
      "inputs": [
        {
          "indexed": true,
          "internalType": "address",
          "name": "user",
          "type": "address"
        },
        {
          "indexed": false,
          "internalType": "uint256",
          "name": "amount",
          "type": "uint256"
        }
      ],
      "name": "MarginReserved",
      "type": "event"
    },
    {
      "anonymous": false,
      "inputs": [],
      "name": "Paused",
      "type": "event"
    },
    {
      "anonymous": false,
      "inputs": [
        {
          "indexed": true,
          "internalType": "address",
          "name": "user",
          "type": "address"
        },
        {
          "indexed": false,
          "internalType": "int256",
          "name": "pnlDelta",
          "type": "int256"
        }
      ],
      "name": "PnLUpdated",
      "type": "event"
    },
    {
      "anonymous": false,
      "inputs": [],
      "name": "Unpaused",
      "type": "event"
    },
    {
      "anonymous": false,
      "inputs": [
        {
          "indexed": true,
          "internalType": "address",
          "name": "user",
          "type": "address"
        },
        {
          "indexed": false,
          "internalType": "uint256",
          "name": "penalty",
          "type": "uint256"
        }
      ],
      "name": "UserLiquidated",
      "type": "event"
    },
    {
      "anonymous": false,
      "inputs": [
        {
          "indexed": true,
          "internalType": "address",
          "name": "newVamm",
          "type": "address"
        }
      ],
      "name": "VammUpdated",
      "type": "event"
    },
    {
      "inputs": [],
      "name": "BASIS_POINTS",
      "outputs": [
        {
          "internalType": "uint256",
          "name": "",
          "type": "uint256"
        }
      ],
      "stateMutability": "view",
      "type": "function"
    },
    {
      "inputs": [],
      "name": "LIQUIDATION_THRESHOLD",
      "outputs": [
        {
          "internalType": "uint256",
          "name": "",
          "type": "uint256"
        }
      ],
      "stateMutability": "view",
      "type": "function"
    },
    {
      "inputs": [
        {
          "internalType": "address",
          "name": "account",
          "type": "address"
        }
      ],
      "name": "addAuthorized",
      "outputs": [],
      "stateMutability": "nonpayable",
      "type": "function"
    },
    {
      "inputs": [
        {
          "internalType": "address",
          "name": "user",
          "type": "address"
        },
        {
          "internalType": "int256",
          "name": "fundingPayment",
          "type": "int256"
        },
        {
          "internalType": "uint256",
          "name": "fundingIndex",
          "type": "uint256"
        }
      ],
      "name": "applyFunding",
      "outputs": [],
      "stateMutability": "nonpayable",
      "type": "function"
    },
    {
      "inputs": [
        {
          "internalType": "address",
          "name": "",
          "type": "address"
        }
      ],
      "name": "authorized",
      "outputs": [
        {
          "internalType": "bool",
          "name": "",
          "type": "bool"
        }
      ],
      "stateMutability": "view",
      "type": "function"
    },
    {
      "inputs": [
        {
          "internalType": "address",
          "name": "user",
          "type": "address"
        },
        {
          "internalType": "uint256",
          "name": "maintenanceMarginRatio",
          "type": "uint256"
        }
      ],
      "name": "canLiquidate",
      "outputs": [
        {
          "internalType": "bool",
          "name": "",
          "type": "bool"
        }
      ],
      "stateMutability": "view",
      "type": "function"
    },
    {
      "inputs": [],
      "name": "collateralToken",
      "outputs": [
        {
          "internalType": "contract IERC20",
          "name": "",
          "type": "address"
        }
      ],
      "stateMutability": "view",
      "type": "function"
    },
    {
      "inputs": [
        {
          "internalType": "address",
          "name": "user",
          "type": "address"
        },
        {
          "internalType": "uint256",
          "name": "amount",
          "type": "uint256"
        }
      ],
      "name": "depositCollateral",
      "outputs": [],
      "stateMutability": "nonpayable",
      "type": "function"
    },
    {
      "inputs": [
        {
          "internalType": "address",
          "name": "token",
          "type": "address"
        },
        {
          "internalType": "uint256",
          "name": "amount",
          "type": "uint256"
        }
      ],
      "name": "emergencyWithdraw",
      "outputs": [],
      "stateMutability": "nonpayable",
      "type": "function"
    },
    {
      "inputs": [
        {
          "internalType": "address",
          "name": "user",
          "type": "address"
        }
      ],
      "name": "getAvailableMargin",
      "outputs": [
        {
          "internalType": "uint256",
          "name": "",
          "type": "uint256"
        }
      ],
      "stateMutability": "view",
      "type": "function"
    },
    {
      "inputs": [
        {
          "internalType": "address",
          "name": "user",
          "type": "address"
        }
      ],
      "name": "getMarginAccount",
      "outputs": [
        {
          "components": [
            {
              "internalType": "uint256",
              "name": "collateral",
              "type": "uint256"
            },
            {
              "internalType": "uint256",
              "name": "reservedMargin",
              "type": "uint256"
            },
            {
              "internalType": "int256",
              "name": "unrealizedPnL",
              "type": "int256"
            },
            {
              "internalType": "uint256",
              "name": "lastFundingIndex",
              "type": "uint256"
            }
          ],
          "internalType": "struct IVault.MarginAccount",
          "name": "",
          "type": "tuple"
        }
      ],
      "stateMutability": "view",
      "type": "function"
    },
    {
      "inputs": [
        {
          "internalType": "address",
          "name": "user",
          "type": "address"
        }
      ],
      "name": "getTotalMargin",
      "outputs": [
        {
          "internalType": "int256",
          "name": "",
          "type": "int256"
        }
      ],
      "stateMutability": "view",
      "type": "function"
    },
    {
      "inputs": [
        {
          "internalType": "address",
          "name": "user",
          "type": "address"
        },
        {
          "internalType": "uint256",
          "name": "liquidationPenalty",
          "type": "uint256"
        }
      ],
      "name": "liquidate",
      "outputs": [],
      "stateMutability": "nonpayable",
      "type": "function"
    },
    {
      "inputs": [],
      "name": "owner",
      "outputs": [
        {
          "internalType": "address",
          "name": "",
          "type": "address"
        }
      ],
      "stateMutability": "view",
      "type": "function"
    },
    {
      "inputs": [],
      "name": "pause",
      "outputs": [],
      "stateMutability": "nonpayable",
      "type": "function"
    },
    {
      "inputs": [],
      "name": "paused",
      "outputs": [
        {
          "internalType": "bool",
          "name": "",
          "type": "bool"
        }
      ],
      "stateMutability": "view",
      "type": "function"
    },
    {
      "inputs": [
        {
          "internalType": "address",
          "name": "user",
          "type": "address"
        },
        {
          "internalType": "uint256",
          "name": "amount",
          "type": "uint256"
        }
      ],
      "name": "releaseMargin",
      "outputs": [],
      "stateMutability": "nonpayable",
      "type": "function"
    },
    {
      "inputs": [
        {
          "internalType": "address",
          "name": "account",
          "type": "address"
        }
      ],
      "name": "removeAuthorized",
      "outputs": [],
      "stateMutability": "nonpayable",
      "type": "function"
    },
    {
      "inputs": [
        {
          "internalType": "address",
          "name": "user",
          "type": "address"
        },
        {
          "internalType": "uint256",
          "name": "amount",
          "type": "uint256"
        }
      ],
      "name": "reserveMargin",
      "outputs": [],
      "stateMutability": "nonpayable",
      "type": "function"
    },
    {
      "inputs": [
        {
          "internalType": "address",
          "name": "_vamm",
          "type": "address"
        }
      ],
      "name": "setVamm",
      "outputs": [],
      "stateMutability": "nonpayable",
      "type": "function"
    },
    {
      "inputs": [
        {
          "internalType": "address",
          "name": "newOwner",
          "type": "address"
        }
      ],
      "name": "transferOwnership",
      "outputs": [],
      "stateMutability": "nonpayable",
      "type": "function"
    },
    {
      "inputs": [],
      "name": "unpause",
      "outputs": [],
      "stateMutability": "nonpayable",
      "type": "function"
    },
    {
      "inputs": [
        {
          "internalType": "address",
          "name": "user",
          "type": "address"
        },
        {
          "internalType": "int256",
          "name": "pnlDelta",
          "type": "int256"
        }
      ],
      "name": "updatePnL",
      "outputs": [],
      "stateMutability": "nonpayable",
      "type": "function"
    },
    {
      "inputs": [],
      "name": "vamm",
      "outputs": [
        {
          "internalType": "address",
          "name": "",
          "type": "address"
        }
      ],
      "stateMutability": "view",
      "type": "function"
    },
    {
      "inputs": [
        {
          "internalType": "address",
          "name": "user",
          "type": "address"
        },
        {
          "internalType": "uint256",
          "name": "amount",
          "type": "uint256"
        }
      ],
      "name": "withdrawCollateral",
      "outputs": [],
      "stateMutability": "nonpayable",
      "type": "function"
    }
  ],
  "bytecode": "0x60803461008457601f6112dd38819003918201601f19168301916001600160401b038311848410176100895780849260209460405283398101031261008457516001600160a01b038116908190036100845760ff196005541660055560018060a01b031933816000541617600055600254161760025560405161123d90816100a08239f35b600080fd5b634e487b7160e01b600052604160045260246000fdfe6080604081815260048036101561001557600080fd5b600092833560e01c9081622bc16414610e2d57508063350c35e914610c4b5780633f4ba83a14610bf5578063485d7d9414610b885780635969f96b14610acf5780635c975abb14610aab5780635d773174146109bf5780637569f4c8146108ad5780638456cb59146108515780638da5cb5b1461082957806390a8ae9b1461080c5780639101e5b3146106f457806395ccea671461060d578063a5d5db0c14610505578063b2016bd4146104dc578063b39ff736146104aa578063b91816111461046e578063bcbaf487146103b5578063c1c7c9dd1461038f578063c90ba3a614610362578063cb625680146102bb578063cf1c316a1461020a578063e098372c146101e1578063e1f1c4a7146101c05763f2fde38b1461013557600080fd5b346101bc5760203660031901126101bc5761014e610ec9565b835491906001600160a01b03906101683383861614610ee4565b169283156101825750506001600160a01b03191617815580f35b906020606492519162461bcd60e51b835282015260146024820152732b30bab63a1d1034b73b30b634b21037bbb732b960611b6044820152fd5b8280fd5b5050346101dd57816003193601126101dd57602090516127108152f35b5080fd5b5050346101dd57816003193601126101dd5760015490516001600160a01b039091168152602090f35b5090346101bc5760203660031901126101bc57610225610ec9565b83546001600160a01b03919061023e9083163314610ee4565b16918215610280578284526020528220805460ff191660011790557fdd10d14f6ac19e913d4edbb11fd30661531e2ccd0d23f571e9b224f001f0dd068280a280f35b6020606492519162461bcd60e51b835282015260166024820152755661756c743a20696e76616c6964206164647265737360501b6044820152fd5b50346101bc57816003193601126101bc5760207f22d38deb33ee15dd233167fc440609397a226eb4e1b61e1773bdd09ef99424aa916102f8610ec9565b60243591338752835260ff8587205416801561034f575b610318906110b9565b6001600160a01b03169361032d851515610fa3565b8486526003835260028187200161034583825461110a565b905551908152a280f35b5085546001600160a01b0316331461030f565b5050346101dd5760203660031901126101dd57602090610388610383610ec9565b611171565b9051908152f35b5050346101dd5760203660031901126101dd576020906103886103b0610ec9565b611126565b50346101bc57816003193601126101bc5760207fe538b9438650b40b382a773f4b71a35129a6b330599b42ed9b50492847972fa6916103f2610ec9565b60243591338752835260ff8587205416801561045b575b610412906110b9565b6001600160a01b031680865260038352848620805491959187916002918511610453576104408582546110fd565b81555b826001820155015551908152a280f35b828155610443565b5085546001600160a01b03163314610409565b50346101bc5760203660031901126101bc5760209260ff918391906001600160a01b03610499610ec9565b168252855220541690519015158152f35b5050346101dd57806003193601126101dd576020906104d36104ca610ec9565b60243590611199565b90519015158152f35b5050346101dd57816003193601126101dd5760025490516001600160a01b039091168152602090f35b50346101bc57816003193601126101bc5761051e610ec9565b918360206024359361053560ff6005541615610f23565b610540851515610f5f565b6001600160a01b039586169560649061055a881515610fa3565b6002541691855194859384926323b872dd60e01b845233908401523060248401528860448401525af190811561060357916105c17fd7243f6f8212d5188fd054141cf6ea89cfc0d91facb8c3afe2f88a1358480142949260209488916105d6575b50611051565b84865260038352808620610345838254611096565b6105f69150853d81116105fc575b6105ee8183611017565b810190611039565b386105bb565b503d6105e4565b82513d87823e3d90fd5b50346101bc57816003193601126101bc57610626610ec9565b83546001600160a01b039081169061063f338314610ee4565b60ff60055416156106bd57845163a9059cbb60e01b81526001600160a01b0392909216938201938452602435602080860191909152919493919285928390036040019183918891165af19081156106b45750610699575080f35b6106b09060203d81116105fc576105ee8183611017565b5080f35b513d84823e3d90fd5b845162461bcd60e51b8152602081860152601160248201527015985d5b1d0e881b9bdd081c185d5cd959607a1b6044820152606490fd5b5090346101bc57806003193601126101bc5761070e610ec9565b90602435913385528360205260ff828620541680156107f9575b610731906110b9565b61074060ff6005541615610f23565b61074b831515610f5f565b6001600160a01b031692610760841515610fa3565b8385526003602052600182862001908154908482106107aa57509183916103457f5e63d54af10545f0b2bd229512f244caefe863ad94dbbb7ad827432c84d762f5956020956110fd565b608490602085519162461bcd60e51b8352820152602360248201527f5661756c743a20696e73756666696369656e74207265736572766564206d617260448201526233b4b760e91b6064820152fd5b5084546001600160a01b03163314610728565b5050346101dd57816003193601126101dd57602090516113888152f35b5050346101dd57816003193601126101dd57905490516001600160a01b039091168152602090f35b83346108aa57806003193601126108aa5761087660018060a01b038254163314610ee4565b600160ff1960055416176005557f9e87fac88ff661f02d44f95383c817fece4bce600a3dab7a54406878b965e7528180a180f35b80fd5b5090346101bc57806003193601126101bc576108c7610ec9565b90602435913385528360205260ff828620541680156109ac575b6108ea906110b9565b6108f960ff6005541615610f23565b610904831515610f5f565b6001600160a01b0381169361091a851515610fa3565b84865260036020528361092f84882093611126565b1061096957509160209160017f7a9b1b90f35f094ffc6d04d86069c79e82c6a16eb600f79672428a409635deca9401610345838254611096565b606490602084519162461bcd60e51b8352820152601a60248201527f5661756c743a20696e73756666696369656e74206d617267696e0000000000006044820152fd5b5084546001600160a01b031633146108e1565b5090346101bc5760203660031901126101bc576109da610ec9565b83546001600160a01b0391906109f39083163314610ee4565b16918215610a7357826bffffffffffffffffffffffff60a01b60015416176001558284526020528220600160ff19825416179055807fb9b7e0cd0425b8d1399710185feab651b96089b6f0e01cb950ffb46b17227cbf8380a27fdd10d14f6ac19e913d4edbb11fd30661531e2ccd0d23f571e9b224f001f0dd068280a280f35b6020606492519162461bcd60e51b835282015260136024820152725661756c743a20696e76616c69642076616d6d60681b6044820152fd5b5050346101dd57816003193601126101dd5760209060ff6005541690519015158152f35b5090346101bc5760603660031901126101bc577f4519c0de74b8f9f16fda0005326875e3fd4dd0d38446a1135a1ffa1739e4591e90610b0c610ec9565b602435906044359433875260205260ff83872054168015610b75575b610b31906110b9565b6001600160a01b031693610b46851515610fa3565b848652600360205280600384882060028101610b6386825461110a565b9055015582519182526020820152a280f35b5085546001600160a01b03163314610b28565b5090346101bc5760203660031901126101bc57610ba3610ec9565b83546001600160a01b039190610bbc9083163314610ee4565b1691828452602052822060ff1981541690557f0fafd0343e6c6f6985727574866da48938c918559eb9521cf9cc0d317ea0f7b48280a280f35b83346108aa57806003193601126108aa57610c1a60018060a01b038254163314610ee4565b60ff19600554166005557fa45f47fdea8a1efdd9029a5691c7f759c32b7c698632b563573e155625d169338180a180f35b50346101bc57816003193601126101bc57610c64610ec9565b90602435610c7760ff6005541615610f23565b610c82811515610f5f565b6001600160a01b0383811693909290610c9c851515610fa3565b8433148015610e18575b610caf906110b9565b848752602093600385528688208054858110610dd55785610ccf85611126565b10610d865792898693610d1e9693610ce8868b986110fd565b905560025416928a519687958694859363a9059cbb60e01b8552840160209093929193604081019460018060a01b031681520152565b03925af1908115610d7c577fc30fcfbcaac9e0deffa719714eaa82396ff506a0d0d0eebe170830177288715d949591610d5d918891610d655750611051565b51908152a280f35b6105f69150853d87116105fc576105ee8183611017565b85513d88823e3d90fd5b885162461bcd60e51b81528086018890526024808201527f5661756c743a20696e73756666696369656e7420617661696c61626c65206d616044820152633933b4b760e11b6064820152608490fd5b885162461bcd60e51b8152808601889052601e60248201527f5661756c743a20696e73756666696369656e7420636f6c6c61746572616c00006044820152606490fd5b5033875260208290528587205460ff16610ca6565b915050346101bc5760203660031901126101bc578282916080946060610e51610ec9565b92610e5b81610fe5565b8281528260208201528286820152015260018060a01b0316815260036020522090805190610e8882610fe5565b825492838352600181015460208401908152606060036002840154938587019485520154940193845282519485525160208501525190830152516060820152f35b600435906001600160a01b0382168203610edf57565b600080fd5b15610eeb57565b60405162461bcd60e51b815260206004820152601060248201526f2b30bab63a1d103737ba1037bbb732b960811b6044820152606490fd5b15610f2a57565b60405162461bcd60e51b815260206004820152600d60248201526c15985d5b1d0e881c185d5cd959609a1b6044820152606490fd5b15610f6657565b60405162461bcd60e51b815260206004820152601560248201527415985d5b1d0e881a5b9d985b1a5908185b5bdd5b9d605a1b6044820152606490fd5b15610faa57565b60405162461bcd60e51b81526020600482015260136024820152722b30bab63a1d1034b73b30b634b2103ab9b2b960691b6044820152606490fd5b6080810190811067ffffffffffffffff82111761100157604052565b634e487b7160e01b600052604160045260246000fd5b90601f8019910116810190811067ffffffffffffffff82111761100157604052565b90816020910312610edf57518015158103610edf5790565b1561105857565b60405162461bcd60e51b815260206004820152601660248201527515985d5b1d0e881d1c985b9cd9995c8819985a5b195960521b6044820152606490fd5b919082018092116110a357565b634e487b7160e01b600052601160045260246000fd5b156110c057565b60405162461bcd60e51b815260206004820152601560248201527415985d5b1d0e881b9bdd08185d5d1a1bdc9a5e9959605a1b6044820152606490fd5b919082039182116110a357565b919091600083820193841291129080158216911516176110a357565b6001600160a01b03811660009081526003602052604090209061114890611171565b90600082131561116a57600101548082111561116a57611167916110fd565b90565b5050600090565b6001600160a01b0316600090815260036020526040902080546002909101546111679161110a565b6001600160a01b038116600090815260036020526040812060010154918215611200576111c590611171565b92818413156111f757808302928304036111e3575061271090041190565b634e487b7160e01b81526011600452602490fd5b50505050600190565b509150509056fea2646970667358221220250518e77c864c13c97be4c084e3bf3e6d1eb5e1875e8924e7513fa1addc672c64736f6c63430008140033",
  "linkReferences": {},
  "deployedLinkReferences": {}
}