{
  "_format": "hh-sol-artifact-1",
  "contractName": "VaultRouter",
  "sourceName": "contracts/VaultRouter.sol",
  "abi": [
    {
      "inputs": [
        {
          "internalType": "address",
          "name": "_collateralToken",
          "type": "address"
        },
        {
          "internalType": "address",
          "name": "_admin",
          "type": "address"
        }
      ],
      "stateMutability": "nonpayable",
      "type": "constructor"
    },
    {
      "inputs": [],
      "name": "AccessControlBadConfirmation",
      "type": "error"
    },
    {
      "inputs": [
        {
          "internalType": "address",
          "name": "account",
          "type": "address"
        },
        {
          "internalType": "bytes32",
          "name": "neededRole",
          "type": "bytes32"
        }
      ],
      "name": "AccessControlUnauthorizedAccount",
      "type": "error"
    },
    {
      "inputs": [],
      "name": "ReentrancyGuardReentrantCall",
      "type": "error"
    },
    {
      "inputs": [
        {
          "internalType": "address",
          "name": "token",
          "type": "address"
        }
      ],
      "name": "SafeERC20FailedOperation",
      "type": "error"
    },
    {
      "anonymous": false,
      "inputs": [
        {
          "indexed": true,
          "internalType": "address",
          "name": "user",
          "type": "address"
        },
        {
          "indexed": false,
          "internalType": "uint256",
          "name": "amount",
          "type": "uint256"
        },
        {
          "indexed": false,
          "internalType": "uint256",
          "name": "newBalance",
          "type": "uint256"
        }
      ],
      "name": "CollateralDeposited",
      "type": "event"
    },
    {
      "anonymous": false,
      "inputs": [
        {
          "indexed": true,
          "internalType": "address",
          "name": "user",
          "type": "address"
        },
        {
          "indexed": false,
          "internalType": "uint256",
          "name": "amount",
          "type": "uint256"
        },
        {
          "indexed": true,
          "internalType": "address",
          "name": "oldToken",
          "type": "address"
        },
        {
          "indexed": true,
          "internalType": "address",
          "name": "newToken",
          "type": "address"
        }
      ],
      "name": "CollateralMigrationRequired",
      "type": "event"
    },
    {
      "anonymous": false,
      "inputs": [
        {
          "indexed": true,
          "internalType": "address",
          "name": "oldToken",
          "type": "address"
        },
        {
          "indexed": true,
          "internalType": "address",
          "name": "newToken",
          "type": "address"
        },
        {
          "indexed": false,
          "internalType": "uint256",
          "name": "timestamp",
          "type": "uint256"
        }
      ],
      "name": "CollateralTokenUpdated",
      "type": "event"
    },
    {
      "anonymous": false,
      "inputs": [
        {
          "indexed": true,
          "internalType": "address",
          "name": "user",
          "type": "address"
        },
        {
          "indexed": false,
          "internalType": "uint256",
          "name": "amount",
          "type": "uint256"
        },
        {
          "indexed": false,
          "internalType": "uint256",
          "name": "newBalance",
          "type": "uint256"
        }
      ],
      "name": "CollateralWithdrawn",
      "type": "event"
    },
    {
      "anonymous": false,
      "inputs": [
        {
          "indexed": false,
          "internalType": "bool",
          "name": "isPaused",
          "type": "bool"
        },
        {
          "indexed": false,
          "internalType": "uint256",
          "name": "timestamp",
          "type": "uint256"
        }
      ],
      "name": "ContractPauseStatusChanged",
      "type": "event"
    },
    {
      "anonymous": false,
      "inputs": [
        {
          "indexed": true,
          "internalType": "address",
          "name": "user",
          "type": "address"
        },
        {
          "indexed": true,
          "internalType": "bytes32",
          "name": "marketId",
          "type": "bytes32"
        },
        {
          "indexed": false,
          "internalType": "uint256",
          "name": "amount",
          "type": "uint256"
        }
      ],
      "name": "MarginLocked",
      "type": "event"
    },
    {
      "anonymous": false,
      "inputs": [
        {
          "indexed": true,
          "internalType": "address",
          "name": "user",
          "type": "address"
        },
        {
          "indexed": true,
          "internalType": "bytes32",
          "name": "marketId",
          "type": "bytes32"
        },
        {
          "indexed": false,
          "internalType": "uint256",
          "name": "amount",
          "type": "uint256"
        }
      ],
      "name": "MarginReleased",
      "type": "event"
    },
    {
      "anonymous": false,
      "inputs": [
        {
          "indexed": true,
          "internalType": "address",
          "name": "user",
          "type": "address"
        },
        {
          "indexed": true,
          "internalType": "bytes32",
          "name": "orderId",
          "type": "bytes32"
        },
        {
          "indexed": false,
          "internalType": "uint256",
          "name": "amount",
          "type": "uint256"
        }
      ],
      "name": "MarginReserved",
      "type": "event"
    },
    {
      "anonymous": false,
      "inputs": [
        {
          "indexed": true,
          "internalType": "address",
          "name": "user",
          "type": "address"
        },
        {
          "indexed": true,
          "internalType": "bytes32",
          "name": "orderId",
          "type": "bytes32"
        },
        {
          "indexed": false,
          "internalType": "uint256",
          "name": "amount",
          "type": "uint256"
        }
      ],
      "name": "MarginUnreserved",
      "type": "event"
    },
    {
      "anonymous": false,
      "inputs": [
        {
          "indexed": true,
          "internalType": "bytes32",
          "name": "marketId",
          "type": "bytes32"
        },
        {
          "indexed": false,
          "internalType": "uint256",
          "name": "newPrice",
          "type": "uint256"
        },
        {
          "indexed": false,
          "internalType": "uint256",
          "name": "timestamp",
          "type": "uint256"
        }
      ],
      "name": "MarkPriceUpdated",
      "type": "event"
    },
    {
      "anonymous": false,
      "inputs": [
        {
          "indexed": true,
          "internalType": "address",
          "name": "user",
          "type": "address"
        },
        {
          "indexed": true,
          "internalType": "bytes32",
          "name": "marketId",
          "type": "bytes32"
        },
        {
          "indexed": false,
          "internalType": "int256",
          "name": "pnl",
          "type": "int256"
        }
      ],
      "name": "PnLRealized",
      "type": "event"
    },
    {
      "anonymous": false,
      "inputs": [
        {
          "indexed": true,
          "internalType": "address",
          "name": "user",
          "type": "address"
        },
        {
          "indexed": false,
          "internalType": "int256",
          "name": "portfolioValue",
          "type": "int256"
        },
        {
          "indexed": false,
          "internalType": "uint256",
          "name": "availableCollateral",
          "type": "uint256"
        },
        {
          "indexed": false,
          "internalType": "uint256",
          "name": "timestamp",
          "type": "uint256"
        }
      ],
      "name": "PortfolioUpdated",
      "type": "event"
    },
    {
      "anonymous": false,
      "inputs": [
        {
          "indexed": true,
          "internalType": "address",
          "name": "user",
          "type": "address"
        },
        {
          "indexed": true,
          "internalType": "bytes32",
          "name": "marketId",
          "type": "bytes32"
        },
        {
          "indexed": false,
          "internalType": "int256",
          "name": "size",
          "type": "int256"
        },
        {
          "indexed": false,
          "internalType": "uint256",
          "name": "entryPrice",
          "type": "uint256"
        }
      ],
      "name": "PositionUpdated",
      "type": "event"
    },
    {
      "anonymous": false,
      "inputs": [
        {
          "indexed": true,
          "internalType": "bytes32",
          "name": "role",
          "type": "bytes32"
        },
        {
          "indexed": true,
          "internalType": "bytes32",
          "name": "previousAdminRole",
          "type": "bytes32"
        },
        {
          "indexed": true,
          "internalType": "bytes32",
          "name": "newAdminRole",
          "type": "bytes32"
        }
      ],
      "name": "RoleAdminChanged",
      "type": "event"
    },
    {
      "anonymous": false,
      "inputs": [
        {
          "indexed": true,
          "internalType": "bytes32",
          "name": "role",
          "type": "bytes32"
        },
        {
          "indexed": true,
          "internalType": "address",
          "name": "account",
          "type": "address"
        },
        {
          "indexed": true,
          "internalType": "address",
          "name": "sender",
          "type": "address"
        }
      ],
      "name": "RoleGranted",
      "type": "event"
    },
    {
      "anonymous": false,
      "inputs": [
        {
          "indexed": true,
          "internalType": "bytes32",
          "name": "role",
          "type": "bytes32"
        },
        {
          "indexed": true,
          "internalType": "address",
          "name": "account",
          "type": "address"
        },
        {
          "indexed": true,
          "internalType": "address",
          "name": "sender",
          "type": "address"
        }
      ],
      "name": "RoleRevoked",
      "type": "event"
    },
    {
      "inputs": [],
      "name": "DEFAULT_ADMIN_ROLE",
      "outputs": [
        {
          "internalType": "bytes32",
          "name": "",
          "type": "bytes32"
        }
      ],
      "stateMutability": "view",
      "type": "function"
    },
    {
      "inputs": [],
      "name": "ORDERBOOK_ROLE",
      "outputs": [
        {
          "internalType": "bytes32",
          "name": "",
          "type": "bytes32"
        }
      ],
      "stateMutability": "view",
      "type": "function"
    },
    {
      "inputs": [],
      "name": "SETTLEMENT_ROLE",
      "outputs": [
        {
          "internalType": "bytes32",
          "name": "",
          "type": "bytes32"
        }
      ],
      "stateMutability": "view",
      "type": "function"
    },
    {
      "inputs": [
        {
          "internalType": "bytes32",
          "name": "",
          "type": "bytes32"
        }
      ],
      "name": "authorizedMarkets",
      "outputs": [
        {
          "internalType": "bool",
          "name": "",
          "type": "bool"
        }
      ],
      "stateMutability": "view",
      "type": "function"
    },
    {
      "inputs": [],
      "name": "collateralToken",
      "outputs": [
        {
          "internalType": "contract IERC20",
          "name": "",
          "type": "address"
        }
      ],
      "stateMutability": "view",
      "type": "function"
    },
    {
      "inputs": [
        {
          "internalType": "uint256",
          "name": "amount",
          "type": "uint256"
        }
      ],
      "name": "depositCollateral",
      "outputs": [],
      "stateMutability": "nonpayable",
      "type": "function"
    },
    {
      "inputs": [
        {
          "internalType": "address",
          "name": "user",
          "type": "address"
        }
      ],
      "name": "getAvailableCollateral",
      "outputs": [
        {
          "internalType": "uint256",
          "name": "",
          "type": "uint256"
        }
      ],
      "stateMutability": "view",
      "type": "function"
    },
    {
      "inputs": [
        {
          "internalType": "address",
          "name": "user",
          "type": "address"
        }
      ],
      "name": "getMarginSummary",
      "outputs": [
        {
          "components": [
            {
              "internalType": "uint256",
              "name": "totalCollateral",
              "type": "uint256"
            },
            {
              "internalType": "uint256",
              "name": "marginUsed",
              "type": "uint256"
            },
            {
              "internalType": "uint256",
              "name": "marginReserved",
              "type": "uint256"
            },
            {
              "internalType": "uint256",
              "name": "availableCollateral",
              "type": "uint256"
            },
            {
              "internalType": "int256",
              "name": "realizedPnL",
              "type": "int256"
            },
            {
              "internalType": "int256",
              "name": "unrealizedPnL",
              "type": "int256"
            },
            {
              "internalType": "int256",
              "name": "portfolioValue",
              "type": "int256"
            }
          ],
          "internalType": "struct VaultRouter.MarginSummary",
          "name": "",
          "type": "tuple"
        }
      ],
      "stateMutability": "view",
      "type": "function"
    },
    {
      "inputs": [
        {
          "internalType": "address",
          "name": "user",
          "type": "address"
        }
      ],
      "name": "getPortfolioValue",
      "outputs": [
        {
          "internalType": "int256",
          "name": "",
          "type": "int256"
        }
      ],
      "stateMutability": "view",
      "type": "function"
    },
    {
      "inputs": [
        {
          "internalType": "bytes32",
          "name": "role",
          "type": "bytes32"
        }
      ],
      "name": "getRoleAdmin",
      "outputs": [
        {
          "internalType": "bytes32",
          "name": "",
          "type": "bytes32"
        }
      ],
      "stateMutability": "view",
      "type": "function"
    },
    {
      "inputs": [
        {
          "internalType": "address",
          "name": "user",
          "type": "address"
        }
      ],
      "name": "getTotalMarginReserved",
      "outputs": [
        {
          "internalType": "uint256",
          "name": "",
          "type": "uint256"
        }
      ],
      "stateMutability": "view",
      "type": "function"
    },
    {
      "inputs": [
        {
          "internalType": "address",
          "name": "user",
          "type": "address"
        }
      ],
      "name": "getTotalMarginUsed",
      "outputs": [
        {
          "internalType": "uint256",
          "name": "",
          "type": "uint256"
        }
      ],
      "stateMutability": "view",
      "type": "function"
    },
    {
      "inputs": [
        {
          "internalType": "address",
          "name": "user",
          "type": "address"
        }
      ],
      "name": "getUnrealizedPnL",
      "outputs": [
        {
          "internalType": "int256",
          "name": "",
          "type": "int256"
        }
      ],
      "stateMutability": "view",
      "type": "function"
    },
    {
      "inputs": [
        {
          "internalType": "address",
          "name": "user",
          "type": "address"
        }
      ],
      "name": "getUserPendingOrders",
      "outputs": [
        {
          "components": [
            {
              "internalType": "bytes32",
              "name": "orderId",
              "type": "bytes32"
            },
            {
              "internalType": "bytes32",
              "name": "marketId",
              "type": "bytes32"
            },
            {
              "internalType": "uint256",
              "name": "marginReserved",
              "type": "uint256"
            },
            {
              "internalType": "uint256",
              "name": "timestamp",
              "type": "uint256"
            }
          ],
          "internalType": "struct VaultRouter.PendingOrder[]",
          "name": "",
          "type": "tuple[]"
        }
      ],
      "stateMutability": "view",
      "type": "function"
    },
    {
      "inputs": [
        {
          "internalType": "address",
          "name": "user",
          "type": "address"
        }
      ],
      "name": "getUserPositions",
      "outputs": [
        {
          "components": [
            {
              "internalType": "bytes32",
              "name": "marketId",
              "type": "bytes32"
            },
            {
              "internalType": "int256",
              "name": "size",
              "type": "int256"
            },
            {
              "internalType": "uint256",
              "name": "entryPrice",
              "type": "uint256"
            },
            {
              "internalType": "uint256",
              "name": "marginLocked",
              "type": "uint256"
            },
            {
              "internalType": "uint256",
              "name": "timestamp",
              "type": "uint256"
            }
          ],
          "internalType": "struct VaultRouter.Position[]",
          "name": "",
          "type": "tuple[]"
        }
      ],
      "stateMutability": "view",
      "type": "function"
    },
    {
      "inputs": [
        {
          "internalType": "bytes32",
          "name": "role",
          "type": "bytes32"
        },
        {
          "internalType": "address",
          "name": "account",
          "type": "address"
        }
      ],
      "name": "grantRole",
      "outputs": [],
      "stateMutability": "nonpayable",
      "type": "function"
    },
    {
      "inputs": [
        {
          "internalType": "bytes32",
          "name": "role",
          "type": "bytes32"
        },
        {
          "internalType": "address",
          "name": "account",
          "type": "address"
        }
      ],
      "name": "hasRole",
      "outputs": [
        {
          "internalType": "bool",
          "name": "",
          "type": "bool"
        }
      ],
      "stateMutability": "view",
      "type": "function"
    },
    {
      "inputs": [],
      "name": "isPaused",
      "outputs": [
        {
          "internalType": "bool",
          "name": "",
          "type": "bool"
        }
      ],
      "stateMutability": "view",
      "type": "function"
    },
    {
      "inputs": [
        {
          "internalType": "address",
          "name": "user",
          "type": "address"
        },
        {
          "internalType": "bytes32",
          "name": "marketId",
          "type": "bytes32"
        },
        {
          "internalType": "uint256",
          "name": "amount",
          "type": "uint256"
        }
      ],
      "name": "lockMargin",
      "outputs": [],
      "stateMutability": "nonpayable",
      "type": "function"
    },
    {
      "inputs": [
        {
          "internalType": "bytes32",
          "name": "",
          "type": "bytes32"
        }
      ],
      "name": "marketMarkPrices",
      "outputs": [
        {
          "internalType": "uint256",
          "name": "",
          "type": "uint256"
        }
      ],
      "stateMutability": "view",
      "type": "function"
    },
    {
      "inputs": [
        {
          "internalType": "address[]",
          "name": "users",
          "type": "address[]"
        },
        {
          "internalType": "address",
          "name": "newToken",
          "type": "address"
        }
      ],
      "name": "migrateCollateral",
      "outputs": [],
      "stateMutability": "nonpayable",
      "type": "function"
    },
    {
      "inputs": [
        {
          "internalType": "address",
          "name": "user",
          "type": "address"
        },
        {
          "internalType": "bytes32",
          "name": "marketId",
          "type": "bytes32"
        },
        {
          "internalType": "int256",
          "name": "pnl",
          "type": "int256"
        }
      ],
      "name": "realizePnL",
      "outputs": [],
      "stateMutability": "nonpayable",
      "type": "function"
    },
    {
      "inputs": [
        {
          "internalType": "address",
          "name": "user",
          "type": "address"
        },
        {
          "internalType": "bytes32",
          "name": "marketId",
          "type": "bytes32"
        },
        {
          "internalType": "uint256",
          "name": "amount",
          "type": "uint256"
        }
      ],
      "name": "releaseMargin",
      "outputs": [],
      "stateMutability": "nonpayable",
      "type": "function"
    },
    {
      "inputs": [
        {
          "internalType": "bytes32",
          "name": "role",
          "type": "bytes32"
        },
        {
          "internalType": "address",
          "name": "callerConfirmation",
          "type": "address"
        }
      ],
      "name": "renounceRole",
      "outputs": [],
      "stateMutability": "nonpayable",
      "type": "function"
    },
    {
      "inputs": [
        {
          "internalType": "address",
          "name": "user",
          "type": "address"
        },
        {
          "internalType": "bytes32",
          "name": "orderId",
          "type": "bytes32"
        },
        {
          "internalType": "bytes32",
          "name": "marketId",
          "type": "bytes32"
        },
        {
          "internalType": "uint256",
          "name": "amount",
          "type": "uint256"
        }
      ],
      "name": "reserveMargin",
      "outputs": [],
      "stateMutability": "nonpayable",
      "type": "function"
    },
    {
      "inputs": [
        {
          "internalType": "bytes32",
          "name": "role",
          "type": "bytes32"
        },
        {
          "internalType": "address",
          "name": "account",
          "type": "address"
        }
      ],
      "name": "revokeRole",
      "outputs": [],
      "stateMutability": "nonpayable",
      "type": "function"
    },
    {
      "inputs": [
        {
          "internalType": "address",
          "name": "newCollateralToken",
          "type": "address"
        }
      ],
      "name": "setCollateralToken",
      "outputs": [],
      "stateMutability": "nonpayable",
      "type": "function"
    },
    {
      "inputs": [
        {
          "internalType": "bytes32",
          "name": "marketId",
          "type": "bytes32"
        },
        {
          "internalType": "bool",
          "name": "authorized",
          "type": "bool"
        }
      ],
      "name": "setMarketAuthorization",
      "outputs": [],
      "stateMutability": "nonpayable",
      "type": "function"
    },
    {
      "inputs": [
        {
          "internalType": "bool",
          "name": "paused",
          "type": "bool"
        }
      ],
      "name": "setPaused",
      "outputs": [],
      "stateMutability": "nonpayable",
      "type": "function"
    },
    {
      "inputs": [
        {
          "internalType": "bytes4",
          "name": "interfaceId",
          "type": "bytes4"
        }
      ],
      "name": "supportsInterface",
      "outputs": [
        {
          "internalType": "bool",
          "name": "",
          "type": "bool"
        }
      ],
      "stateMutability": "view",
      "type": "function"
    },
    {
      "inputs": [
        {
          "internalType": "address",
          "name": "user",
          "type": "address"
        },
        {
          "internalType": "bytes32",
          "name": "orderId",
          "type": "bytes32"
        }
      ],
      "name": "unreserveMargin",
      "outputs": [],
      "stateMutability": "nonpayable",
      "type": "function"
    },
    {
      "inputs": [
        {
          "internalType": "bytes32",
          "name": "marketId",
          "type": "bytes32"
        },
        {
          "internalType": "uint256",
          "name": "markPrice",
          "type": "uint256"
        }
      ],
      "name": "updateMarkPrice",
      "outputs": [],
      "stateMutability": "nonpayable",
      "type": "function"
    },
    {
      "inputs": [
        {
          "internalType": "address",
          "name": "user",
          "type": "address"
        },
        {
          "internalType": "bytes32",
          "name": "marketId",
          "type": "bytes32"
        },
        {
          "internalType": "int256",
          "name": "sizeDelta",
          "type": "int256"
        },
        {
          "internalType": "uint256",
          "name": "entryPrice",
          "type": "uint256"
        }
      ],
      "name": "updatePosition",
      "outputs": [],
      "stateMutability": "nonpayable",
      "type": "function"
    },
    {
      "inputs": [
        {
          "internalType": "address",
          "name": "",
          "type": "address"
        }
      ],
      "name": "userCollateral",
      "outputs": [
        {
          "internalType": "uint256",
          "name": "",
          "type": "uint256"
        }
      ],
      "stateMutability": "view",
      "type": "function"
    },
    {
      "inputs": [
        {
          "internalType": "address",
          "name": "",
          "type": "address"
        },
        {
          "internalType": "bytes32",
          "name": "",
          "type": "bytes32"
        }
      ],
      "name": "userMarginByMarket",
      "outputs": [
        {
          "internalType": "uint256",
          "name": "",
          "type": "uint256"
        }
      ],
      "stateMutability": "view",
      "type": "function"
    },
    {
      "inputs": [
        {
          "internalType": "address",
          "name": "",
          "type": "address"
        },
        {
          "internalType": "uint256",
          "name": "",
          "type": "uint256"
        }
      ],
      "name": "userPendingOrders",
      "outputs": [
        {
          "internalType": "bytes32",
          "name": "orderId",
          "type": "bytes32"
        },
        {
          "internalType": "bytes32",
          "name": "marketId",
          "type": "bytes32"
        },
        {
          "internalType": "uint256",
          "name": "marginReserved",
          "type": "uint256"
        },
        {
          "internalType": "uint256",
          "name": "timestamp",
          "type": "uint256"
        }
      ],
      "stateMutability": "view",
      "type": "function"
    },
    {
      "inputs": [
        {
          "internalType": "address",
          "name": "",
          "type": "address"
        },
        {
          "internalType": "uint256",
          "name": "",
          "type": "uint256"
        }
      ],
      "name": "userPositions",
      "outputs": [
        {
          "internalType": "bytes32",
          "name": "marketId",
          "type": "bytes32"
        },
        {
          "internalType": "int256",
          "name": "size",
          "type": "int256"
        },
        {
          "internalType": "uint256",
          "name": "entryPrice",
          "type": "uint256"
        },
        {
          "internalType": "uint256",
          "name": "marginLocked",
          "type": "uint256"
        },
        {
          "internalType": "uint256",
          "name": "timestamp",
          "type": "uint256"
        }
      ],
      "stateMutability": "view",
      "type": "function"
    },
    {
      "inputs": [
        {
          "internalType": "address",
          "name": "",
          "type": "address"
        }
      ],
      "name": "userRealizedPnL",
      "outputs": [
        {
          "internalType": "int256",
          "name": "",
          "type": "int256"
        }
      ],
      "stateMutability": "view",
      "type": "function"
    },
    {
      "inputs": [
        {
          "internalType": "uint256",
          "name": "amount",
          "type": "uint256"
        }
      ],
      "name": "withdrawCollateral",
      "outputs": [],
      "stateMutability": "nonpayable",
      "type": "function"
    }
  ],
  "bytecode": "0x608034620000a657601f62002a4038819003918201601f19168301916001600160401b03831184841017620000ab578084926040948552833981010312620000a657806200005f6020620000576200009594620000c1565b9201620000c1565b60018055600280546001600160a01b0319166001600160a01b03909316929092179091556200008e81620000d6565b5062000156565b506040516128279081620001f98239f35b600080fd5b634e487b7160e01b600052604160045260246000fd5b51906001600160a01b0382168203620000a657565b6001600160a01b031660008181527fad3228b676f7d3cd4284a5443f17f1962b36e491b30a40b2405849e597ba5fb5602052604081205490919060ff166200015257818052816020526040822081835260205260408220600160ff19825416179055339160008051602062002a208339815191528180a4600190565b5090565b6001600160a01b031660008181527fdd53df7e4642f4e3d9dededdac02355f2e876e2a9b7ef4e260af8d6fd7b3325760205260408120549091907f300f9ae985dc711960f7a4d1dd013f9c19ecf40bff149522ab7523b2187a38469060ff16620001f357808352826020526040832082845260205260408320600160ff1982541617905560008051602062002a20833981519152339380a4600190565b50509056fe6080604081815260048036101561001557600080fd5b600092833560e01c90816301ffc9a7146115c55750806316c38b3c1461155f5780631bed0cbd14611533578063248a9ca31461150a5780632a6bc2dd146113f05780632f2ff15d146113c75780632fac114c1461110757806336568abe146110c05780633fd4d5f314611044578063544305bf1461101e5780635958833114610fdc5780635e1b4d9914610f625780636112fe2e14610d3e57806365c1dad814610d18578063666181a914610c5e578063691cc18714610b615780637a29076414610b205780637dc2fb6914610af95780638c81e4d114610ad35780639031d76a14610a6157806391d1485414610a1c5780639d322822146109e7578063a217fddf146109cc578063a8c7f02a14610996578063b187bd2614610972578063b2016bd414610949578063b25cdccf14610810578063b854290314610710578063ba9cf01d146106e7578063bad4a01f1461060b578063bb69bc71146105e5578063cab61c1c146105b8578063d3ac00c21461058f578063d547741f14610551578063dc36ab921461046a578063dee0f5e51461040e578063eb2a2142146103de578063f69f1e4a146103a25763f9a38e9c146101d057600080fd5b3461039e578160031936011261039e576001600160401b039181359083821161039a573660238301121561039a578183013593841161039a5760059160243686851b830182011161039657610223611634565b9161022c6116c2565b6001600160a01b03928316958615610357578715158061034c575b1561030a5750826002541694885b88811061028a5789888860008051602061279283398151915260208a8460018060a01b0319600254161760025551428152a380f35b8381831b8401013590858216918b83820361030757838b92826102c5968d94528b602091600383522054806102ca575b505050505050611d1c565b610255565b6102f6817f7c8ffe9cddb62d9f1264c3bd81b2ab7ed4f5461dec3965e67416a63b9f38c37e9487611b19565b8c51908152a48888388080806102ba565b80fd5b606490601f84602088519362461bcd60e51b85528401528201527f5661756c74526f757465723a20696e76616c6964207573657220636f756e74006044820152fd5b506064881115610247565b606490601a84602088519362461bcd60e51b8552840152820152792b30bab63a2937baba32b91d1034b73b30b634b2103a37b5b2b760311b6044820152fd5b8680fd5b8480fd5b8280fd5b5050346103da5760203660031901126103da5760209181906001600160a01b036103ca611619565b1681526003845220549051908152f35b5080fd5b5050346103da573660031901126103075761040b6103fa611619565b61040261171a565b60243590611d2b565b80f35b503461039e578160031936011261039e577f8341fe911821bad56b9d67dc0c32788cd9fde13628b58f174e4fdc4ce7334a7590359160243561044e611764565b838552600860205280828620558151908152426020820152a280f35b508290346103da5761047b36611698565b90919261048661171a565b60018060a01b038416918286526020916007835287872085885283528188882054106104fe5750907f12e0269a682e824e917e022b6903e3035a7db630695c8440f1e06d637643aca89186978461040b985260078352808920868a5283528089206104f2838254611b0c565b905551908152a36126fe565b875162461bcd60e51b8152908101839052602760248201527f5661756c74526f757465723a20696e73756666696369656e74206d617267696e604482015266081b1bd8dad95960ca1b6064820152608490fd5b50903461039e578060031936011261039e5761058b91356105866001610575611634565b9383875286602052862001546117ae565b611852565b5080f35b5050346103da57816003193601126103da57602090516000805160206127d28339815191528152f35b5050346103da5760203660031901126103da576020906105de6105d9611619565b612549565b9051908152f35b5050346103da5760203660031901126103da576020906105de610606611619565b61230c565b503461039e57602036600319011261039e577ff4d587c98d234ca4d147061e6b5167e7f41ee17f11562a9f0b49570abece859e903591610649611a80565b61065860ff600a5416156118c7565b610663831515611913565b60025481516323b872dd60e01b6020820152336024820152306044820152606480820186905281526106a6916001600160a01b03166106a18261198e565b611a18565b33845260036020528084206106bc84825461196b565b9055338452600360205280842054815193845260208401523392a26106e0336126fe565b6001805580f35b5050346103da57816003193601126103da57602090516000805160206127b28339815191528152f35b508290346103da576020908160031936011261039e5790916001600160a01b03610738611619565b1681526006835283812091825461074e81612357565b9161075b875193846119f5565b8183528583018095855286852085915b8483106107ca575050505050845193808501918186525180925285850193925b8281106107985785850386f35b83518051865280830151868401528781015188870152606090810151908601526080909401939281019260010161078b565b83896001928c9b98999b516107de816119bf565b8554815284860154838201528d600287015490820152600386015460608201528152019201920191909795949761076b565b5050346103da5761040b907f386af5fa03d9c66f34c1e72e2a8509c2cbc8a6b8e0bfe94b1880aa47446b0b6261084536611698565b61085394929493919361171a565b8387526020906009825261086c60ff858a205416611cd1565b6109226108788761230c565b8261088281611b6f565b9161091b606d61089183611b6f565b948a519586916000805160206127528339815191528b8401527f6572616c20666f72206d617267696e206c6f636b2e2052657175697265643a208d8401526108e2815180928d606087019101611aa3565b82016c0161020bb30b4b630b136329d1609d1b606082015261090c825180938d8785019101611aa3565b0103604d8101865201846119f5565b1015611ac6565b60018060a01b0386169384895260078352808920868a5283528089206104f283825461196b565b5050346103da57816003193601126103da5760025490516001600160a01b039091168152602090f35b5050346103da57816003193601126103da5760209060ff600a541690519015158152f35b83346103075760803660031901126103075761040b6109b3611619565b6109bb61171a565b606435906044359060243590611f27565b5050346103da57816003193601126103da5751908152602090f35b503461039e57602036600319011261039e5760209282916001600160a01b03610a0e611619565b168252845220549051908152f35b503461039e578160031936011261039e578160209360ff92610a3c611634565b903582528186528282206001600160a01b039091168252855220549151911615158152f35b5050346103da57806003193601126103da57610a7b611619565b6001600160a01b031682526006602052808220805460243593908410156103075750608092610aa99161167c565b50908154916001810154916003600283015492015492815194855260208501528301526060820152f35b5050346103da5760203660031901126103da576020906105de610af4611619565b6122cc565b503461039e57602036600319011261039e5760209282913581526008845220549051908152f35b5050346103da57806003193601126103da5760209181906001600160a01b03610b47611619565b168152600784528181206024358252845220549051908152f35b50913461030757602091826003193601126103da5760e093610b81611619565b908360c08451610b90816119da565b828152828882015282868201528260608201528260808201528260a08201520152610bba82612382565b9260018060a01b03831691828652600387528186205496610bff83610bde87612549565b98610be888612636565b94610bf28961230c565b97825284522054956122cc565b9660c08451610c0d816119da565b8a8152838101928352858101948552606081019687526080810197885260a08101988952019788528351988952519088015251908601525160608501525160808401525160a08301525160c0820152f35b50903461039e57602036600319011261039e57610c79611619565b610c816116c2565b6001600160a01b03908116928315610cc75750600280546001600160a01b031981168517909155915142815291169060008051602061279283398151915290602090a380f35b608490602084519162461bcd60e51b8352820152602560248201527f5661756c74526f757465723a20696e76616c696420636f6c6c61746572616c206044820152643a37b5b2b760d91b6064820152fd5b5050346103da5760203660031901126103da576020906105de610d39611619565b612636565b503461039e5760209182600319360112610f5e577fdaed309a628faec6cab72194019e2a1a34e890ca9bf9be99788992dd54692819913592610d7e611a80565b610d8d60ff600a5416156118c7565b610d98841515611913565b610f0e610da43361230c565b610dad86611b6f565b90610f0660a3610dbc83611b6f565b93338b5260038752610dd0888c2054611b6f565b610de1610ddc33612549565b611b6f565b610ded610ddc33612636565b918a519788946000805160206127528339815191528c8701527f6572616c20666f72207769746864726177616c2e205265717565737465643a208d870152610e3f8c825192839160608a019101611aa3565b85016c0161020bb30b4b630b136329d1609d1b6060820152610e6b8c8351938491606d85019101611aa3565b0173016102a37ba30b61021b7b63630ba32b930b61d160651b606d820152610e9c825180938d608185019101611aa3565b016e0161026b0b933b4b7102ab9b2b21d1608d1b6081820152610ec8825180938c609085019101611aa3565b01720161026b0b933b4b7102932b9b2b93b32b21d1606d1b6090820152610ef7825180938b8785019101611aa3565b010360838101855201836119f5565b861115611ac6565b33855260038152818520610f23858254611b0c565b9055600254610f3e90859033906001600160a01b0316611b19565b33855260038152818520549082519485528401523392a26106e0336126fe565b8380fd5b50903461039e578060031936011261039e57610f7c611619565b6001600160a01b03168352600560205280832080546024359490851015610307575060a093610faa9161164a565b508054926001820154926002830154916003840154930154938151958652602086015284015260608301526080820152f35b50903461039e578060031936011261039e5760243591821515809303610f5e576110046116c2565b358352600960205282209060ff8019835416911617905580f35b5050346103da5760203660031901126103da576020906105de61103f611619565b612382565b503461039e57606036600319011261039e5761040b91611062611619565b916044359161106f611764565b60018060a01b0384169182875260205280862061108d848254611ee7565b9055519182527fbb2844d39009b651bad362453de9f1f50acf0b1f6de23d7e7a94e59d063714ae602060243593a36126fe565b509190346103da57806003193601126103da576110db611634565b90336001600160a01b038316036110f8575061058b919235611852565b5163334bd91960e11b81528390fd5b509190346103da5760803660031901126103da57611123611619565b90602435906044359060643561113761171a565b828652602091600983528087205460ff1661115190611cd1565b61115a8661230c565b9361116483611b6f565b948361116f82611b6f565b6001600160a01b038a16808c5260038852858c205490989193919061119390611b6f565b61119c8c612549565b6111a590611b6f565b6111ae8d612636565b6111b790611b6f565b918a895197889582870160008051602061275283398151915290528b87017f6572616c20666f72206d617267696e207265736572766174696f6e2e205265719052606087016603ab4b932b21d160cd1b9052805190818460678a0192019161121e92611aa3565b860190606782016c0161020bb30b4b630b136329d1609d1b9052805180936074840192019161124c92611aa3565b016074810173016102a37ba30b61021b7b63630ba32b930b61d160651b9052815191828d6088840192019161128092611aa3565b01608881016e0161026b0b933b4b7102ab9b2b21d1608d1b9052815191828c609784019201916112af92611aa3565b0160978101720161026b0b933b4b7102932b9b2b93b32b21d1606d1b9052815191828b60aa84019201916112e292611aa3565b0103608a8101845260aa016112f790846119f5565b10159061130391611ac6565b84885260068452818820825191611319836119bf565b878352858301908152838301908582526060840192428452805490600160401b8210156113b357906113509160018201815561167c565b9490946113a157518455516001840155516002830155516003909101555190815294955061040b947fb59b0c610c747191c910e9f8a4a64fe77a3b8999eb72948296ab2314d2f3c9ca9190a36126fe565b634e487b7160e01b8c528b8d5260248cfd5b50634e487b7160e01b8c5260418d5260248cfd5b50903461039e578060031936011261039e5761058b91356113eb6001610575611634565b6117d4565b508290346103da576020908160031936011261039e5790916001600160a01b03611418611619565b1681526005918284528482209283549061143182612357565b9261143e885194856119f5565b82845286840190819686528786209086925b8584106114ba57505050505050845193808501918186525180925285850193925b82811061147e5785850386f35b83518051865280830151868401528781015188870152606080820151908701526080908101519086015260a09094019392810192600101611471565b848a6001928d809d9a9b9d51906114d08261198e565b8754825285880154848301526002880154908201526003870154606082015285870154608082015281520193019301929198969598611450565b503461039e57602036600319011261039e57816020936001923581528085522001549051908152f35b503461039e57602036600319011261039e578160209360ff923581526009855220541690519015158152f35b503461039e57602036600319011261039e57359081151580920361039e577fb2eb730e1d552dcf5764626a50ed1650f11ce0bafb9caf2f9971e9c25bded9ba916115a76116c2565b60ff19600a541660ff821617600a558151908152426020820152a180f35b9250503461039e57602036600319011261039e573563ffffffff60e01b811680910361039e5760209250637965db0b60e01b8114908115611608575b5015158152f35b6301ffc9a760e01b14905038611601565b600435906001600160a01b038216820361162f57565b600080fd5b602435906001600160a01b038216820361162f57565b8054821015611666576000526005602060002091020190600090565b634e487b7160e01b600052603260045260246000fd5b80548210156116665760005260206000209060021b0190600090565b606090600319011261162f576004356001600160a01b038116810361162f57906024359060443590565b3360009081527fad3228b676f7d3cd4284a5443f17f1962b36e491b30a40b2405849e597ba5fb5602052604081205460ff16156116fc5750565b6044906040519063e2517d3f60e01b82523360048301526024820152fd5b3360009081527ffbdd021ae76da1414bf5d2becc95e8ac5c6c5c95ff854c9ae8f929b04f09685a60205260409020546000805160206127d28339815191529060ff16156116fc5750565b3360009081527fdd53df7e4642f4e3d9dededdac02355f2e876e2a9b7ef4e260af8d6fd7b3325760205260409020546000805160206127b28339815191529060ff16156116fc5750565b80600052600060205260406000203360005260205260ff60406000205416156116fc5750565b9060009180835282602052604083209160018060a01b03169182845260205260ff6040842054161560001461184d57808352826020526040832082845260205260408320600160ff198254161790557f2f8788117e7eff1d82e926ec794901d17c78024a50270940304540a733656f0d339380a4600190565b505090565b9060009180835282602052604083209160018060a01b03169182845260205260ff60408420541660001461184d5780835282602052604083208284526020526040832060ff1981541690557ff6391f5c32d9c69d2a47ea670b442974b53935d1edc7fd64eb21e047a839171b339380a4600190565b156118ce57565b60405162461bcd60e51b815260206004820152601f60248201527f5661756c74526f757465723a20636f6e747261637420697320706175736564006044820152606490fd5b1561191a57565b60405162461bcd60e51b8152602060048201526024808201527f5661756c74526f757465723a20616d6f756e74206d75737420626520706f73696044820152637469766560e01b6064820152608490fd5b9190820180921161197857565b634e487b7160e01b600052601160045260246000fd5b60a081019081106001600160401b038211176119a957604052565b634e487b7160e01b600052604160045260246000fd5b608081019081106001600160401b038211176119a957604052565b60e081019081106001600160401b038211176119a957604052565b601f909101601f19168101906001600160401b038211908210176119a957604052565b906000602091828151910182855af115611a74576000513d611a6b57506001600160a01b0381163b155b611a495750565b604051635274afe760e01b81526001600160a01b039091166004820152602490fd5b60011415611a42565b6040513d6000823e3d90fd5b600260015414611a91576002600155565b604051633ee5aeb560e01b8152600490fd5b60005b838110611ab65750506000910152565b8181015183820152602001611aa6565b15611ace5750565b6044604051809262461bcd60e51b825260206004830152611afe8151809281602486015260208686019101611aa3565b601f01601f19168101030190fd5b9190820391821161197857565b60405163a9059cbb60e01b60208201526001600160a01b039092166024830152604480830193909352918152611b52916106a1826119bf565b565b6001600160401b0381116119a957601f01601f191660200190565b6000908072184f03e93ff9f4daa797ed6e38ed64bf6a1f0160401b80821015611cc3575b506904ee2d6d415b85acef8160201b80831015611cb4575b50662386f26fc1000080831015611ca5575b506305f5e10080831015611c96575b5061271080831015611c87575b506064821015611c77575b600a80921015611c6d575b60019081602181860195611c0287611b54565b96611c1060405198896119f5565b808852611c1f601f1991611b54565b01366020890137860101905b611c37575b5050505090565b600019019083906f181899199a1a9b1b9c1cb0b131b232b360811b8282061a835304918215611c6857919082611c2b565b611c30565b9160010191611bef565b9190606460029104910191611be4565b60049193920491019138611bd9565b60089193920491019138611bcc565b60109193920491019138611bbd565b60209193920491019138611bab565b604093508104915038611b93565b15611cd857565b606460405162461bcd60e51b815260206004820152602060248201527f5661756c74526f757465723a20756e617574686f72697a6564206d61726b65746044820152fd5b60001981146119785760010190565b6001600160a01b0381166000818152600660209081526040808320929692959294939190875b875480821015611ea45785611d66838b61167c565b505414611d7c5750611d7790611d1c565b611d51565b90929394959697611d8d848261167c565b50916002809301549460001991828101908111611e9057611db1611db9918561167c565b50918461167c565b919091611e7c57808203611e56575b505081548015611e42570191611dde838361167c565b919091611e2e579a60038282611b529d9e817f5ce7b5c8ba463b72bc9a00d5e4a102078c2fa35849a767c1604ca8f27291b4f69b9a999897965581600184015582015501555551908152a36126fe565b634e487b7160e01b8c5260048c905260248cfd5b634e487b7160e01b8c52603160045260248cfd5b805482556001808201549083015584810154858301556003809101549101553880611dc8565b634e487b7160e01b8d5260048d905260248dfd5b634e487b7160e01b8d52601160045260248dfd5b825162461bcd60e51b815260048101859052601c60248201527b15985d5b1d149bdd5d195c8e881bdc99195c881b9bdd08199bdd5b9960221b6044820152606490fd5b9190916000838201938412911290801582169115161761197857565b600160ff1b81146119785760000390565b8181029291811591840414171561197857565b90939193600093818552602060098152604090611f4960ff8389205416611cd1565b6001600160a01b0385168088526005825282882098909390885b8a548110156121e85786611f77828d61164a565b505414611f8c57611f8790611d1c565b611f63565b909192939495969798611f9f828c61164a565b50926001809401611fb1828254611ee7565b905581848d85846120d6575b919350611fca925061164a565b50015415612007575b5090611ff560008051602061277283398151915295949392611b529a9b61164a565b500154918351928352820152a36126fe565b99805460001990818101908111611e9057612022908361164a565b5061202d848461164a565b9190916120c257808203612092575b50508154801561207e5701612051818361164a565b611e7c578c81558481018d9055600281018d9055600381018d90556004019b909b55998a55611ff5611fd3565b634e487b7160e01b8d52603160045260248dfd5b8054825585810154868301556002808201549083015560038082015490830155600480910154910155388061203c565b634e487b7160e01b8e5260048e905260248efd5b6120df9161164a565b50015413156121c8578b6121248661211661210887896120ff828861164a565b5001549561164a565b509360028095015490611f14565b93858113156121ba57611f14565b918d86868682612134838661164a565b500154131561219f57612147919261164a565b500154905b8115938415612163575b5050505081848d85611fbd565b61216c9161196b565b9261218b5761217b858f61164a565b5092049101553880808080612156565b634e487b7160e01b84526012600452602484fd5b6121ac906121b49361164a565b500154611f03565b9061214c565b6121c390611f03565b611f14565b8b61212486612116612108876121e28a6121ac838961164a565b9561164a565b50939495969790929884612203575b50505050505050509050565b895161220e8161198e565b8781528381018681528b82019086825260608301928584526080810194428652805490600160401b8210156122b8579061224d9160018201815561164a565b9690966122a457505185555160018501555160028401555160038301555160049091015587519283528201529394612296946000805160206127728339815191529190a36126fe565b8038808080808080806121f7565b634e487b7160e01b81526004819052602490fd5b634e487b7160e01b88526041600452602488fd5b612309906122d981612382565b9060018060a01b03166000526003602052612304604060002054600460205260406000205490611ee7565b611ee7565b90565b6001600160a01b038116600090815260036020526040902054906123429061233c61233682612549565b91612636565b9061196b565b6000918181111561184d576123099250611b0c565b6001600160401b0381116119a95760051b60200190565b80518210156116665760209160051b010190565b6001600160a01b03166000908152600560208181526040808420805490959491936123ac82612357565b966123b9865198896119f5565b8288528352838320839085808a015b858410612500575050505050508094815b81518110156124f9576123ec818361236e565b51805184526008855285842054801515806124ed575b612417575b505061241290611d1c565b6123d9565b86829993990180519182810393878412828612811690838713901516176124d957880151600160ff1b94808202949190898112878314166124c557850514911417156124b1575191821561249d578114600019831416612489579161248191612412930590611ee7565b969038612407565b634e487b7160e01b85526011600452602485fd5b634e487b7160e01b86526012600452602486fd5b634e487b7160e01b86526011600452602486fd5b634e487b7160e01b8a52601160045260248afd5b634e487b7160e01b88526011600452602488fd5b50858201511515612402565b5050505050565b60019185918a516125108161198e565b85548152848601548382015260028601548c820152600386015460608201526004860154608082015281520192019201919086906123c8565b6001600160a01b0316600081815260056020818152604080842080549194939092919061257582612357565b93612582875195866119f5565b82855285528285208590848087015b8584106125ed57505050505050829483955b83518710156125e3576125d76125dd91838752600785528787206125c78a8861236e565b515188528552878720549061196b565b96611d1c565b956125a3565b9550505050505090565b60019185918b516125fd8161198e565b85548152848601548382015260028601548d82015260038601546060820152600486015460808201528152019201920191908590612591565b6001600160a01b0316600090815260066020908152604080832080549192919061265f82612357565b9261266c855194856119f5565b82845280840191865280862086925b8484106126c0575050505050825b81518410156126b9576126ad6126b391846126a4878661236e565b5101519061196b565b93611d1c565b92612689565b9250505090565b60048360019289516126d1816119bf565b85548152848601548382015260028601548b8201526003860154606082015281520192019301929061267b565b7f5cbcfdafabcd1a3c278aad22aa2ddff9cf00c74c34bccebe6f5c9d1f35702f02606061272a836122cc565b926127348161230c565b604051948552602085015242604085015260018060a01b031692a256fe5661756c74526f757465723a20696e73756666696369656e7420636f6c6c61746c61b7f3e9ba60a83aedd0ae1b8f7f0224b6f62d2bb21eb95c402dfd4b1b173fa38c116f3e3838f833fa974db9dc265c30d1d5305b9f5d1a47a62fc367796b4e300f9ae985dc711960f7a4d1dd013f9c19ecf40bff149522ab7523b2187a3846e7d7e4bf430fa940e5a18beda68ad1833bb0bb84161df1150cd5a705786bf6e7a264697066735822122096a4cfe72bc9a32240729c98a9484d13e2afec7cba9b94d3893ad6a183395fe364736f6c634300081400332f8788117e7eff1d82e926ec794901d17c78024a50270940304540a733656f0d",
  "linkReferences": {},
  "deployedLinkReferences": {}
}