{
  "_format": "hh-sol-artifact-1",
  "contractName": "TradingRouter",
  "sourceName": "contracts/TradingRouter.sol",
  "abi": [
    {
      "inputs": [
        {
          "internalType": "address",
          "name": "_vaultRouter",
          "type": "address"
        },
        {
          "internalType": "address",
          "name": "_factory",
          "type": "address"
        },
        {
          "internalType": "address",
          "name": "_admin",
          "type": "address"
        }
      ],
      "stateMutability": "nonpayable",
      "type": "constructor"
    },
    {
      "inputs": [],
      "name": "AccessControlBadConfirmation",
      "type": "error"
    },
    {
      "inputs": [
        {
          "internalType": "address",
          "name": "account",
          "type": "address"
        },
        {
          "internalType": "bytes32",
          "name": "neededRole",
          "type": "bytes32"
        }
      ],
      "name": "AccessControlUnauthorizedAccount",
      "type": "error"
    },
    {
      "inputs": [],
      "name": "ReentrancyGuardReentrantCall",
      "type": "error"
    },
    {
      "anonymous": false,
      "inputs": [
        {
          "indexed": false,
          "internalType": "bool",
          "name": "isPaused",
          "type": "bool"
        },
        {
          "indexed": false,
          "internalType": "uint256",
          "name": "timestamp",
          "type": "uint256"
        }
      ],
      "name": "ContractPauseStatusChanged",
      "type": "event"
    },
    {
      "anonymous": false,
      "inputs": [
        {
          "indexed": true,
          "internalType": "address",
          "name": "user",
          "type": "address"
        },
        {
          "indexed": false,
          "internalType": "uint256",
          "name": "positionCount",
          "type": "uint256"
        },
        {
          "indexed": false,
          "internalType": "uint256",
          "name": "timestamp",
          "type": "uint256"
        }
      ],
      "name": "EmergencyPositionsClosed",
      "type": "event"
    },
    {
      "anonymous": false,
      "inputs": [
        {
          "indexed": true,
          "internalType": "address",
          "name": "oldFactory",
          "type": "address"
        },
        {
          "indexed": true,
          "internalType": "address",
          "name": "newFactory",
          "type": "address"
        },
        {
          "indexed": false,
          "internalType": "uint256",
          "name": "timestamp",
          "type": "uint256"
        }
      ],
      "name": "FactoryUpdated",
      "type": "event"
    },
    {
      "anonymous": false,
      "inputs": [
        {
          "indexed": true,
          "internalType": "address",
          "name": "user",
          "type": "address"
        },
        {
          "indexed": false,
          "internalType": "uint256",
          "name": "orderCount",
          "type": "uint256"
        },
        {
          "indexed": false,
          "internalType": "uint256",
          "name": "timestamp",
          "type": "uint256"
        }
      ],
      "name": "MultiMarketOrderExecuted",
      "type": "event"
    },
    {
      "anonymous": false,
      "inputs": [
        {
          "indexed": true,
          "internalType": "address",
          "name": "user",
          "type": "address"
        },
        {
          "indexed": false,
          "internalType": "uint256",
          "name": "marketCount",
          "type": "uint256"
        },
        {
          "indexed": false,
          "internalType": "uint256",
          "name": "timestamp",
          "type": "uint256"
        }
      ],
      "name": "PortfolioRebalanced",
      "type": "event"
    },
    {
      "anonymous": false,
      "inputs": [
        {
          "indexed": true,
          "internalType": "bytes32",
          "name": "role",
          "type": "bytes32"
        },
        {
          "indexed": true,
          "internalType": "bytes32",
          "name": "previousAdminRole",
          "type": "bytes32"
        },
        {
          "indexed": true,
          "internalType": "bytes32",
          "name": "newAdminRole",
          "type": "bytes32"
        }
      ],
      "name": "RoleAdminChanged",
      "type": "event"
    },
    {
      "anonymous": false,
      "inputs": [
        {
          "indexed": true,
          "internalType": "bytes32",
          "name": "role",
          "type": "bytes32"
        },
        {
          "indexed": true,
          "internalType": "address",
          "name": "account",
          "type": "address"
        },
        {
          "indexed": true,
          "internalType": "address",
          "name": "sender",
          "type": "address"
        }
      ],
      "name": "RoleGranted",
      "type": "event"
    },
    {
      "anonymous": false,
      "inputs": [
        {
          "indexed": true,
          "internalType": "bytes32",
          "name": "role",
          "type": "bytes32"
        },
        {
          "indexed": true,
          "internalType": "address",
          "name": "account",
          "type": "address"
        },
        {
          "indexed": true,
          "internalType": "address",
          "name": "sender",
          "type": "address"
        }
      ],
      "name": "RoleRevoked",
      "type": "event"
    },
    {
      "anonymous": false,
      "inputs": [
        {
          "indexed": true,
          "internalType": "address",
          "name": "oldVaultRouter",
          "type": "address"
        },
        {
          "indexed": true,
          "internalType": "address",
          "name": "newVaultRouter",
          "type": "address"
        },
        {
          "indexed": false,
          "internalType": "uint256",
          "name": "timestamp",
          "type": "uint256"
        }
      ],
      "name": "VaultRouterUpdated",
      "type": "event"
    },
    {
      "inputs": [],
      "name": "DEFAULT_ADMIN_ROLE",
      "outputs": [
        {
          "internalType": "bytes32",
          "name": "",
          "type": "bytes32"
        }
      ],
      "stateMutability": "view",
      "type": "function"
    },
    {
      "inputs": [
        {
          "internalType": "address",
          "name": "user",
          "type": "address"
        },
        {
          "internalType": "bytes32",
          "name": "marketId",
          "type": "bytes32"
        },
        {
          "internalType": "uint256",
          "name": "size",
          "type": "uint256"
        },
        {
          "internalType": "uint256",
          "name": "price",
          "type": "uint256"
        }
      ],
      "name": "canPlaceOrder",
      "outputs": [
        {
          "internalType": "bool",
          "name": "",
          "type": "bool"
        }
      ],
      "stateMutability": "view",
      "type": "function"
    },
    {
      "inputs": [
        {
          "internalType": "bytes32",
          "name": "marketId",
          "type": "bytes32"
        },
        {
          "internalType": "bytes32",
          "name": "orderId",
          "type": "bytes32"
        }
      ],
      "name": "cancelOrder",
      "outputs": [],
      "stateMutability": "nonpayable",
      "type": "function"
    },
    {
      "inputs": [
        {
          "internalType": "bytes32",
          "name": "marketId",
          "type": "bytes32"
        },
        {
          "internalType": "uint256",
          "name": "size",
          "type": "uint256"
        }
      ],
      "name": "closePosition",
      "outputs": [],
      "stateMutability": "nonpayable",
      "type": "function"
    },
    {
      "inputs": [],
      "name": "emergencyCloseAllPositions",
      "outputs": [],
      "stateMutability": "nonpayable",
      "type": "function"
    },
    {
      "inputs": [],
      "name": "factory",
      "outputs": [
        {
          "internalType": "contract OrderBookFactoryMinimal",
          "name": "",
          "type": "address"
        }
      ],
      "stateMutability": "view",
      "type": "function"
    },
    {
      "inputs": [
        {
          "internalType": "bytes32[]",
          "name": "marketIds",
          "type": "bytes32[]"
        },
        {
          "internalType": "uint256",
          "name": "levels",
          "type": "uint256"
        }
      ],
      "name": "getMultiMarketDepth",
      "outputs": [
        {
          "internalType": "uint256[][]",
          "name": "bidPrices",
          "type": "uint256[][]"
        },
        {
          "internalType": "uint256[][]",
          "name": "bidSizes",
          "type": "uint256[][]"
        },
        {
          "internalType": "uint256[][]",
          "name": "askPrices",
          "type": "uint256[][]"
        },
        {
          "internalType": "uint256[][]",
          "name": "askSizes",
          "type": "uint256[][]"
        }
      ],
      "stateMutability": "view",
      "type": "function"
    },
    {
      "inputs": [
        {
          "internalType": "bytes32[]",
          "name": "marketIds",
          "type": "bytes32[]"
        }
      ],
      "name": "getMultiMarketPrices",
      "outputs": [
        {
          "internalType": "uint256[]",
          "name": "bestBids",
          "type": "uint256[]"
        },
        {
          "internalType": "uint256[]",
          "name": "bestAsks",
          "type": "uint256[]"
        }
      ],
      "stateMutability": "view",
      "type": "function"
    },
    {
      "inputs": [
        {
          "internalType": "bytes32",
          "name": "role",
          "type": "bytes32"
        }
      ],
      "name": "getRoleAdmin",
      "outputs": [
        {
          "internalType": "bytes32",
          "name": "",
          "type": "bytes32"
        }
      ],
      "stateMutability": "view",
      "type": "function"
    },
    {
      "inputs": [
        {
          "internalType": "address",
          "name": "user",
          "type": "address"
        }
      ],
      "name": "getUserOrderSummary",
      "outputs": [
        {
          "internalType": "uint256",
          "name": "totalOrders",
          "type": "uint256"
        },
        {
          "internalType": "uint256",
          "name": "totalReservedMargin",
          "type": "uint256"
        }
      ],
      "stateMutability": "view",
      "type": "function"
    },
    {
      "inputs": [
        {
          "internalType": "bytes32",
          "name": "role",
          "type": "bytes32"
        },
        {
          "internalType": "address",
          "name": "account",
          "type": "address"
        }
      ],
      "name": "grantRole",
      "outputs": [],
      "stateMutability": "nonpayable",
      "type": "function"
    },
    {
      "inputs": [
        {
          "internalType": "bytes32",
          "name": "role",
          "type": "bytes32"
        },
        {
          "internalType": "address",
          "name": "account",
          "type": "address"
        }
      ],
      "name": "hasRole",
      "outputs": [
        {
          "internalType": "bool",
          "name": "",
          "type": "bool"
        }
      ],
      "stateMutability": "view",
      "type": "function"
    },
    {
      "inputs": [],
      "name": "isPaused",
      "outputs": [
        {
          "internalType": "bool",
          "name": "",
          "type": "bool"
        }
      ],
      "stateMutability": "view",
      "type": "function"
    },
    {
      "inputs": [
        {
          "internalType": "bytes32",
          "name": "marketId",
          "type": "bytes32"
        },
        {
          "internalType": "uint8",
          "name": "side",
          "type": "uint8"
        },
        {
          "internalType": "uint256",
          "name": "size",
          "type": "uint256"
        },
        {
          "internalType": "uint256",
          "name": "price",
          "type": "uint256"
        }
      ],
      "name": "placeLimitOrder",
      "outputs": [
        {
          "internalType": "bytes32",
          "name": "orderId",
          "type": "bytes32"
        }
      ],
      "stateMutability": "nonpayable",
      "type": "function"
    },
    {
      "inputs": [
        {
          "internalType": "bytes32",
          "name": "marketId",
          "type": "bytes32"
        },
        {
          "internalType": "uint8",
          "name": "side",
          "type": "uint8"
        },
        {
          "internalType": "uint256",
          "name": "size",
          "type": "uint256"
        }
      ],
      "name": "placeMarketOrder",
      "outputs": [
        {
          "internalType": "bytes32",
          "name": "orderId",
          "type": "bytes32"
        }
      ],
      "stateMutability": "nonpayable",
      "type": "function"
    },
    {
      "inputs": [
        {
          "components": [
            {
              "internalType": "bytes32",
              "name": "marketId",
              "type": "bytes32"
            },
            {
              "internalType": "uint8",
              "name": "side",
              "type": "uint8"
            },
            {
              "internalType": "uint256",
              "name": "size",
              "type": "uint256"
            },
            {
              "internalType": "uint256",
              "name": "price",
              "type": "uint256"
            }
          ],
          "internalType": "struct TradingRouter.MultiMarketOrder[]",
          "name": "orders",
          "type": "tuple[]"
        }
      ],
      "name": "placeMultiMarketOrders",
      "outputs": [
        {
          "internalType": "bytes32[]",
          "name": "orderIds",
          "type": "bytes32[]"
        }
      ],
      "stateMutability": "nonpayable",
      "type": "function"
    },
    {
      "inputs": [
        {
          "components": [
            {
              "internalType": "bytes32",
              "name": "marketId",
              "type": "bytes32"
            },
            {
              "internalType": "int256",
              "name": "targetSize",
              "type": "int256"
            }
          ],
          "internalType": "struct TradingRouter.RebalanceParams[]",
          "name": "targets",
          "type": "tuple[]"
        }
      ],
      "name": "rebalancePortfolio",
      "outputs": [],
      "stateMutability": "nonpayable",
      "type": "function"
    },
    {
      "inputs": [
        {
          "internalType": "bytes32",
          "name": "role",
          "type": "bytes32"
        },
        {
          "internalType": "address",
          "name": "callerConfirmation",
          "type": "address"
        }
      ],
      "name": "renounceRole",
      "outputs": [],
      "stateMutability": "nonpayable",
      "type": "function"
    },
    {
      "inputs": [
        {
          "internalType": "bytes32",
          "name": "role",
          "type": "bytes32"
        },
        {
          "internalType": "address",
          "name": "account",
          "type": "address"
        }
      ],
      "name": "revokeRole",
      "outputs": [],
      "stateMutability": "nonpayable",
      "type": "function"
    },
    {
      "inputs": [
        {
          "internalType": "address",
          "name": "newFactory",
          "type": "address"
        }
      ],
      "name": "setFactory",
      "outputs": [],
      "stateMutability": "nonpayable",
      "type": "function"
    },
    {
      "inputs": [
        {
          "internalType": "bool",
          "name": "paused",
          "type": "bool"
        }
      ],
      "name": "setPaused",
      "outputs": [],
      "stateMutability": "nonpayable",
      "type": "function"
    },
    {
      "inputs": [
        {
          "internalType": "address",
          "name": "newVaultRouter",
          "type": "address"
        }
      ],
      "name": "setVaultRouter",
      "outputs": [],
      "stateMutability": "nonpayable",
      "type": "function"
    },
    {
      "inputs": [
        {
          "internalType": "bytes4",
          "name": "interfaceId",
          "type": "bytes4"
        }
      ],
      "name": "supportsInterface",
      "outputs": [
        {
          "internalType": "bool",
          "name": "",
          "type": "bool"
        }
      ],
      "stateMutability": "view",
      "type": "function"
    },
    {
      "inputs": [],
      "name": "vaultRouter",
      "outputs": [
        {
          "internalType": "contract VaultRouter",
          "name": "",
          "type": "address"
        }
      ],
      "stateMutability": "view",
      "type": "function"
    }
  ],
  "bytecode": "0x608034620000b057601f62001f7338819003918201601f19168301916001600160401b03831184841017620000b557808492606094604052833981010312620000b05780620000526200009f92620000cb565b6200006e60406200006660208501620000cb565b9301620000cb565b916001805560018060a01b03908160018060a01b0319931683600254161760025516906003541617600355620000e0565b50604051611e019081620001728239f35b600080fd5b634e487b7160e01b600052604160045260246000fd5b51906001600160a01b0382168203620000b057565b6001600160a01b031660008181527fad3228b676f7d3cd4284a5443f17f1962b36e491b30a40b2405849e597ba5fb5602052604081205490919060ff166200016d57818052816020526040822081835260205260408220600160ff1982541617905533917f2f8788117e7eff1d82e926ec794901d17c78024a50270940304540a733656f0d8180a4600190565b509056fe608080604052600436101561001357600080fd5b600090813560e01c90816301ffc9a7146115dc5750806316c38b3c146115695780631ab460c814611454578063248a9ca3146114285780632f2ff15d146113eb57806336568abe146113a35780633e49cddd146112c95780635bb478081461120a578063780e72ff1461113f57806382386b0e14610e1657806391d1485414610dce5780639ec9f1e814610c54578063a217fddf14610c38578063a47d9d3314610bbf578063b187bd2614610b99578063b444f5c414610865578063c091ac3b146107ce578063c45a0155146107a5578063d37c441c1461077c578063d547741f1461073b578063dc17dcd714610606578063dc1e37a3146103f6578063dfeba59e1461025e5763f46a98021461012957600080fd5b3461025b57608036600319011261025b576101426116c1565b61014a61195f565b60ff60035460a01c1661020c5781906020906101a29060ff6001600160a01b03610175600435611bd4565b16911661020557835b6040519586809481936334580be560e21b8352606435906044359060048501611942565b03925af19081156101f957906101c2575b60209060018055604051908152f35b506020813d82116101f1575b816101db602093836118fc565b810103126101ec57602090516101b3565b600080fd5b3d91506101ce565b604051903d90823e3d90fd5b600161017e565b60405162461bcd60e51b815260206004820152602160248201527f54726164696e67526f757465723a20636f6e74726163742069732070617573656044820152601960fa1b6064820152608490fd5b80fd5b503461025b57604036600319011261025b5760249081803560043561028161195f565b600254604051632a6bc2dd60e01b8152336004820152956001600160a01b039186918891829085165afa9586156103eb5785966103c7575b50845b86518110156103bb57826102d082896119be565b5151146102e5576102e090611999565b6102bc565b91856044926102f861034d95839a6119be565b5195806103b1575061031c6020870180518481136000146103a25750515b93611bd4565b1660209788809701511360001461039b576001925b604051631f7a4dc760e21b81529788968795600487019061191f565b8401525af1801561039057610367575b50505b6001805580f35b813d8311610389575b61037a81836118fc565b810103126101ec57388061035d565b503d610370565b6040513d85823e3d90fd5b8192610331565b6103ac9150611ac5565b610316565b61031c9093611bd4565b50505050509050610360565b6103e49196503d8087833e6103dc81836118fc565b8101906119e8565b94386102b9565b6040513d87823e3d90fd5b503461025b57604036600319011261025b576004356001600160401b03811161060257610427903690600401611631565b9061043182611ad6565b9161043b81611ad6565b9361044582611ad6565b9161044f81611ad6565b93825b8281106104ab5761047d876104a7886104998961048b8e6040519788976080895260808901906116d1565b9087820360208901526116d1565b9085820360408701526116d1565b9083820360608501526116d1565b0390f35b602490846001600160a01b036104cb6104c5848888611b20565b35611bd4565b166040519384809263961d537f60e01b8252823560048301525afa80156103eb578590869087908890610534575b61052f9550610508858c6119be565b52610513848a6119be565b5261051e838c6119be565b52610529828a6119be565b52611999565b610452565b50505050903d8086833e61054881836118fc565b60808282810103126105fe5781516001600160401b0381116105fa5761057390828401908401611b30565b60208301516001600160401b0381116105f65761059590838501908501611b30565b60408401519093906001600160401b0381116105f2576105ba90848301908301611b30565b606082015190936001600160401b0382116105ee57916105e59161052f979695949382019101611b30565b909291906104f9565b8980fd5b8880fd5b8780fd5b8680fd5b8580fd5b5080fd5b503461025b578060031936011261025b5761061f61195f565b600254604051632a6bc2dd60e01b81523360048201529060249083908390839082906001600160a01b03165afa91821561039057839261071f575b50829083805b84518110156106e45761067381866119be565b5151303b156106e05760405190636ff5d2cf60e11b82526004820152828482015282808260448183305af191826106cc575b50506106b9576106b490611999565b610660565b926106c66106b491611999565b93611999565b6106d5906118e9565b6106e05782386106a5565b8280fd5b50826040519081524260208201527f62daeb2caeb53cedcaf9ccba718edac4567ea732082bf66e675e8b4dc27eb11c60403392a26001805580f35b6107349192503d8085833e6103dc81836118fc565b903861065a565b503461025b57604036600319011261025b5761077860043561075b611695565b908084528360205261077360016040862001546117b5565b611859565b5080f35b503461025b578060031936011261025b576002546040516001600160a01b039091168152602090f35b503461025b578060031936011261025b576003546040516001600160a01b039091168152602090f35b503461025b57606036600319011261025b576107e86116c1565b906107f161195f565b60ff6001600160a01b03610806600435611bd4565b1692166108575760206108336044835b846040519687948593631f7a4dc760e21b8552600485019061191f565b833560248401525af19081156101f957906101c25760209060018055604051908152f35b602061083360446001610816565b503461025b57602036600319011261025b576001600160401b036004351161025b5736602360043501121561025b576001600160401b036004803501351161025b573660246004356004013560061b60043501011161025b576108c661195f565b60043560040135151580610b88575b15610b3757600254604051632a6bc2dd60e01b8152336004820152908290829060249082906001600160a01b03165afa908115610b2c578291610b12575b5081905b60043560040135821061096457826040516004356004013581524260208201527f42610ac5ba6be1e926a446141c2ee93051870f0b7a673f0d3866f933f61b348960403392a26001805580f35b90918260061b60043501906040602319833603011261025b576040805192908301906001600160401b03821184831017610afc5760449160405260248101358452013560208301528092815b8151811015610af2576109c381836119be565b51518451146109da576109d590611999565b6109b0565b8194506109ed90602092969493966119be565b510151905b6020810151918083039286821281851281169082861390151617610ade5703610a27575b5050610a2190611999565b90610917565b51602090610a79906044906001600160a01b0390610a4490611bd4565b1693878082139182600014610ad65781925b15610ac757955b604051631f7a4dc760e21b81529687958694600486019061191f565b60248401525af18015610abc57610a91575b80610a16565b602090813d8311610ab5575b610aa781836118fc565b810103126101ec5738610a8b565b503d610a9d565b6040513d86823e3d90fd5b610ad090611ac5565b95610a5d565b600192610a56565b634e487b7160e01b87526011600452602487fd5b50929093916109f2565b634e487b7160e01b600052604160045260246000fd5b610b2691503d8084833e6103dc81836118fc565b38610913565b6040513d84823e3d90fd5b60405162461bcd60e51b815260206004820152602360248201527f54726164696e67526f757465723a20696e76616c69642074617267657420636f6044820152621d5b9d60ea1b6064820152608490fd5b5060146004356004013511156108d5565b503461025b578060031936011261025b57602060ff60035460a01c166040519015158152f35b503461025b57604036600319011261025b57610bd961195f565b806001600160a01b03610bed600435611bd4565b16803b15610c35578190602460405180948193637489ec2360e01b8352833560048401525af18015610b2c57610c26575b506001805580f35b610c2f906118e9565b38610c1e565b50fd5b503461025b578060031936011261025b57602090604051908152f35b503461025b5760208060031936011261060257610c6f6116ab565b60025460405163b854290360e01b81526001600160a01b0392831660048201526024949283928391839188918391165afa908115610b2c578291610d07575b50805182935b8251851015610cf8576040610cc986856119be565b5101518101809111610ce557610cdf9094611999565b93610cb4565b634e487b7160e01b845260116004528684fd5b60409250858351928352820152f35b90503d8083833e610d1881836118fc565b81019084818303126106e0578051906001600160401b038211610dca570181601f820112156106e0578051610d4c81611982565b92610d5a60405194856118fc565b818452868085019260071b840101928184116105fe578701915b838310610d85575050505038610cae565b6080838303126105fe5787608091604051610d9f816118ce565b8551815282860151838201526040860151604082015260608087015190820152815201920191610d74565b8380fd5b503461025b57604036600319011261025b5760ff6040602092610def611695565b60043582528185528282206001600160a01b03909116825284522054604051911615158152f35b503461025b57602036600319011261025b576001600160401b0360043581106106025736602360043501121561060257600435600401351161025b573660246004356004013560071b60043501011161025b57610e7161195f565b6004356004013515158061112e575b156110de57610e9460043560040135611982565b90610ea260405192836118fc565b600480350135808352601f1990610eb890611982565b01366020840137805b600435600401358110610f4957506040516004356004013581524260208201527f7266ec14a3f2b479a8136066c0b0004731129ab2f0fbedc979eccd198ad318b460403392a2600180805560405191602083016020845284518091526020604085019501915b818110610f345784860385f35b82518652602095860195909201918301610f27565b60806023198260071b60043501360301126106025760405190610f6b826118ce565b600435600782901b016024810135835260449081013560ff81169003610dca57600435600783901b0180820135602085019081526064820135604086019081526084830135606090960195865291610fc69060240135611bd4565b9451806110745750916110049160ff60209451161560001461106b578680915b51966040519788958694631f7a4dc760e21b8652600486019061191f565b60248401526001600160a01b03165af18015610390578390611035575b611030925061052982866119be565b610ec1565b50906020813d602011611063575b81611050602093836118fc565b810103126106e057906110309151611021565b3d9150611043565b86600191610fe6565b916020935060ff6110ad96925116156000146110d5578680915b516040516334580be560e21b8152978895869485939060048501611942565b03926001600160a01b03165af1801561039057839061103557611030925061052982866119be565b8660019161108e565b60405162461bcd60e51b815260206004820152602260248201527f54726164696e67526f757465723a20696e76616c6964206f7264657220636f756044820152611b9d60f21b6064820152608490fd5b50600a600435600401351115610e80565b503461025b57602036600319011261025b576111596116ab565b61116161175d565b6001600160a01b039081169081156111b957600280546001600160a01b0319811684179091556040514281529116907f0cfa1cc2dc116bd34dffc0ffbf6251fbca08c1c97f7db3916bbe46a25df96df890602090a380f35b60405162461bcd60e51b815260206004820152602360248201527f54726164696e67526f757465723a20696e76616c6964207661756c7420726f756044820152623a32b960e91b6064820152608490fd5b503461025b57602036600319011261025b576112246116ab565b61122c61175d565b6001600160a01b0390811690811561128457600380546001600160a01b0319811684179091556040514281529116907f73fbb64ab9d6de2a86e527e076c710f78c9ea7a29d0bb4d04804c7cb75b297da90602090a380f35b60405162461bcd60e51b815260206004820152601e60248201527f54726164696e67526f757465723a20696e76616c696420666163746f727900006044820152606490fd5b503461025b57608036600319011261025b576112e36116ab565b6064356044358181029291811591840414171561138f57600a820291808304600a149015171561138f5760025460405163bb69bc7160e01b81526001600160a01b0392831660048201529160209183916024918391165afa90811561039057839161135a575b602083836064604051920411158152f35b90506020813d8211611387575b81611374602093836118fc565b810103126106e057602092505138611349565b3d9150611367565b634e487b7160e01b83526011600452602483fd5b503461025b57604036600319011261025b576113bd611695565b336001600160a01b038216036113d95761077890600435611859565b60405163334bd91960e11b8152600490fd5b503461025b57604036600319011261025b5761077860043561140b611695565b908084528360205261142360016040862001546117b5565b6117db565b503461025b57602036600319011261025b57600160406020926004358152808452200154604051908152f35b503461025b576020908160031936011261025b576004356001600160401b03811161060257611487903690600401611631565b61149381949294611b8e565b9261149d82611b8e565b94815b8381106114d1576114c4866104a7878a604051948594604086526040860190611661565b9184830390850152611661565b60049060406001600160a01b036114ec6104c5848988611b20565b16815193848092632a4a5bef60e11b82525afa8015610abc578490859061152d575b611528935061151d838b6119be565b5261052982896119be565b6114a0565b5050906040813d604011611561575b81611549604093836118fc565b81010312610dca57908186611528935191015161150e565b3d915061153c565b503461025b57602036600319011261025b576004358015158091036106025760407fb2eb730e1d552dcf5764626a50ed1650f11ce0bafb9caf2f9971e9c25bded9ba916115b461175d565b6003805460ff60a01b191660a083901b60ff60a01b161790558151908152426020820152a180f35b9050346106025760203660031901126106025760043563ffffffff60e01b81168091036106e05760209250637965db0b60e01b8114908115611620575b5015158152f35b6301ffc9a760e01b14905038611619565b9181601f840112156101ec578235916001600160401b0383116101ec576020808501948460051b0101116101ec57565b90815180825260208080930193019160005b828110611681575050505090565b835185529381019392810192600101611673565b602435906001600160a01b03821682036101ec57565b600435906001600160a01b03821682036101ec57565b6024359060ff821682036101ec57565b908082519081815260208091019281808460051b830101950193600080925b858410611701575050505050505090565b9091929380959697601f1983820301855288519082808351928381520192019085905b8082106117445750505090806001929901940194019295949391906116f0565b9193806001929486518152019401920188939291611724565b3360009081527fad3228b676f7d3cd4284a5443f17f1962b36e491b30a40b2405849e597ba5fb5602052604081205460ff16156117975750565b6044906040519063e2517d3f60e01b82523360048301526024820152fd5b80600052600060205260406000203360005260205260ff60406000205416156117975750565b9060009180835282602052604083209160018060a01b03169182845260205260ff6040842054161560001461185457808352826020526040832082845260205260408320600160ff198254161790557f2f8788117e7eff1d82e926ec794901d17c78024a50270940304540a733656f0d339380a4600190565b505090565b9060009180835282602052604083209160018060a01b03169182845260205260ff6040842054166000146118545780835282602052604083208284526020526040832060ff1981541690557ff6391f5c32d9c69d2a47ea670b442974b53935d1edc7fd64eb21e047a839171b339380a4600190565b608081019081106001600160401b03821117610afc57604052565b6001600160401b038111610afc57604052565b601f909101601f19168101906001600160401b03821190821017610afc57604052565b90600282101561192c5752565b634e487b7160e01b600052602160045260246000fd5b60409194939261195682606081019761191f565b60208201520152565b600260015414611970576002600155565b604051633ee5aeb560e01b8152600490fd5b6001600160401b038111610afc5760051b60200190565b60001981146119a85760010190565b634e487b7160e01b600052601160045260246000fd5b80518210156119d25760209160051b010190565b634e487b7160e01b600052603260045260246000fd5b90602080838303126101ec5782516001600160401b03938482116101ec57019082601f830112156101ec57815192611a1f84611982565b946040611a2e815197886118fc565b858752838701928460a0809802870101958187116101ec578501935b868510611a5c57505050505050505090565b87858303126101ec578251908882019082821086831117611ab05789928892865287518152828801518382015285880151868201526060808901519082015260808089015190820152815201940193611a4a565b60246000634e487b7160e01b81526041600452fd5b600160ff1b81146119a85760000390565b90611ae082611982565b611aed60405191826118fc565b8281528092611afe601f1991611982565b019060005b828110611b0f57505050565b806060602080938501015201611b03565b91908110156119d25760051b0190565b81601f820112156101ec57805191611b4783611982565b92611b5560405194856118fc565b808452602092838086019260051b8201019283116101ec578301905b828210611b7f575050505090565b81518152908301908301611b71565b90611b9882611982565b611ba560405191826118fc565b8281528092611bb6601f1991611982565b0190602036910137565b51906001600160a01b03821682036101ec57565b6003546040805163c3c95c7b60e01b815260048101939093526001600160a01b039260009283908290602490829088165afa928315611dc0578093611cb4575b50508282511615611c71578082015115611c2e5750511690565b5162461bcd60e51b815260206004820181905260248201527f54726164696e67526f757465723a206d61726b6574206e6f74206163746976656044820152606490fd5b5162461bcd60e51b815260206004820152601f60248201527f54726164696e67526f757465723a206d61726b6574206e6f7420666f756e64006044820152606490fd5b909192503d8082843e611cc781846118fc565b82019060209182848203126106025783516001600160401b0394858211610dca5701926080848303126106e057855194611d00866118ce565b611d0985611bc0565b865281850151818111611da857850183601f82011215611da8578051918211611dac57875193611d42601f8401601f19168501866118fc565b828552838383010111611da85784918391835b828110611d91575050840101528401528382015190811515820361025b575082840152611d8490606001611bc0565b6060820152903880611c14565b818101840151878201850152879450859301611d55565b8480fd5b634e487b7160e01b85526041600452602485fd5b8251903d90823e3d90fdfea26469706673582212204b882cb2bb7bf45603f4ad520bc3a06d0923758ca9e034abc54d998261378b9564736f6c63430008140033",
  "linkReferences": {},
  "deployedLinkReferences": {}
}