{"contracts/SimpleUSDC.sol":{"SimpleUSDC":{"abi":[{"inputs":[{"internalType":"uint256","name":"_initialSupply","type":"uint256"}],"stateMutability":"nonpayable","type":"constructor"},{"anonymous":false,"inputs":[{"indexed":true,"internalType":"address","name":"owner","type":"address"},{"indexed":true,"internalType":"address","name":"spender","type":"address"},{"indexed":false,"internalType":"uint256","name":"value","type":"uint256"}],"name":"Approval","type":"event"},{"anonymous":false,"inputs":[{"indexed":true,"internalType":"address","name":"to","type":"address"},{"indexed":false,"internalType":"uint256","name":"value","type":"uint256"}],"name":"Mint","type":"event"},{"anonymous":false,"inputs":[{"indexed":true,"internalType":"address","name":"from","type":"address"},{"indexed":true,"internalType":"address","name":"to","type":"address"},{"indexed":false,"internalType":"uint256","name":"value","type":"uint256"}],"name":"Transfer","type":"event"},{"inputs":[{"internalType":"address","name":"","type":"address"},{"internalType":"address","name":"","type":"address"}],"name":"allowance","outputs":[{"internalType":"uint256","name":"","type":"uint256"}],"stateMutability":"view","type":"function"},{"inputs":[{"internalType":"address","name":"spender","type":"address"},{"internalType":"uint256","name":"value","type":"uint256"}],"name":"approve","outputs":[{"internalType":"bool","name":"","type":"bool"}],"stateMutability":"nonpayable","type":"function"},{"inputs":[{"internalType":"address","name":"","type":"address"}],"name":"balanceOf","outputs":[{"internalType":"uint256","name":"","type":"uint256"}],"stateMutability":"view","type":"function"},{"inputs":[],"name":"decimals","outputs":[{"internalType":"uint8","name":"","type":"uint8"}],"stateMutability":"view","type":"function"},{"inputs":[{"internalType":"uint256","name":"amount","type":"uint256"}],"name":"faucet","outputs":[],"stateMutability":"nonpayable","type":"function"},{"inputs":[{"internalType":"address","name":"to","type":"address"},{"internalType":"uint256","name":"value","type":"uint256"}],"name":"mint","outputs":[],"stateMutability":"nonpayable","type":"function"},{"inputs":[],"name":"name","outputs":[{"internalType":"string","name":"","type":"string"}],"stateMutability":"view","type":"function"},{"inputs":[],"name":"symbol","outputs":[{"internalType":"string","name":"","type":"string"}],"stateMutability":"view","type":"function"},{"inputs":[],"name":"totalSupply","outputs":[{"internalType":"uint256","name":"","type":"uint256"}],"stateMutability":"view","type":"function"},{"inputs":[{"internalType":"address","name":"to","type":"address"},{"internalType":"uint256","name":"value","type":"uint256"}],"name":"transfer","outputs":[{"internalType":"bool","name":"","type":"bool"}],"stateMutability":"nonpayable","type":"function"},{"inputs":[{"internalType":"address","name":"from","type":"address"},{"internalType":"address","name":"to","type":"address"},{"internalType":"uint256","name":"value","type":"uint256"}],"name":"transferFrom","outputs":[{"internalType":"bool","name":"","type":"bool"}],"stateMutability":"nonpayable","type":"function"}],"evm":{"bytecode":{"linkReferences":{},"object":"60803461017657601f6109e738819003918201601f19168301916001600160401b0383118484101761017b578084926020946040528339810103126101765751600061004b8154610191565b601f811161014c575b507f53696d706c65205553444300000000000000000000000000000000000000001681556001805461008590610191565b601f8111610120575b506008635553444360e01b0190556002805460ff19166006179055620f4240828102928015908404909114171561010c578160035533815260046020528160408220556040519182527fddf252ad1be2c89b69c2b068fc378daa952ba7f163c4a11628f55a4df523b3ef60203393a360405161081b90816101cc8239f35b634e487b7160e01b81526011600452602490fd5b81835281601f60208520920160051c8201915b82811061014157505061008e565b848155018290610133565b818052601f60208320910160051c8101905b81811061016b5750610054565b82815560010161015e565b600080fd5b634e487b7160e01b600052604160045260246000fd5b90600182811c921680156101c1575b60208310146101ab57565b634e487b7160e01b600052602260045260246000fd5b91607f16916101a056fe608060408181526004918236101561001657600080fd5b600092833560e01c91826306fdde03146105c257508163095ea7b31461055157816318160ddd1461053257816323b872dd1461048f578163313ce5671461046d5783826340c10f19146103d15750816357915897146102da57816370a08231146102a457816395d89b4114610184578163a9059cbb146100eb575063dd62ed3e146100a057600080fd5b346100e757806003193601126100e757806020926100bc6106e1565b6100c46106fc565b6001600160a01b0391821683526005865283832091168252845220549051908152f35b5080fd5b905034610180578160031936011261018057602092826101096106e1565b6001600160a01b0316926024359290610123851515610712565b33825280875261013884848420541015610752565b33825280875282822061014c858254610795565b905584825286522061015f8282546107b8565b905582519081526000805160206107c6833981519152843392a35160018152f35b8280fd5b8383346100e757816003193601126100e75780519082600180549081811c9080831692831561029a575b60209384841081146102875783885290811561026b5750600114610216575b505050829003601f01601f191682019267ffffffffffffffff84118385101761020357508291826101ff925282610698565b0390f35b634e487b7160e01b815260418552602490fd5b8087529192508591837fb10e2d527612073b26eecdfd717e6a320cf44b4afac2b0732d9fcbe2b7fa0cf65b83851061025757505050508301018580806101cd565b805488860183015293019284908201610241565b60ff1916878501525050151560051b84010190508580806101cd565b634e487b7160e01b895260228a52602489fd5b91607f16916101ae565b9050346101805760203660031901126101805760209282916001600160a01b036102cc6106e1565b168252845220549051908152f35b919050346101805760203660031901126101805781359160ff60025416604d81116103be57600a0a620186a090808202918204036103be57831161038457610324836003546107b8565b60035533845260205280832061033b8382546107b8565b905580518281527f0f6798a560793a54c3bcfe86a93cde1e73087d944c0ea20544137d412139688560203392a251908152816000805160206107c683398151915260203393a380f35b6020606492519162461bcd60e51b8352820152601560248201527411985d58d95d081b1a5b5a5d08195e18d959591959605a1b6044820152fd5b634e487b7160e01b855260118252602485fd5b915091346100e757806003193601126100e75760206000805160206107c6833981519152916103fe6106e1565b6001600160a01b0316946024359190610418871515610712565b610424836003546107b8565b600355868652835280852061043a8382546107b8565b9055857f0f6798a560793a54c3bcfe86a93cde1e73087d944c0ea20544137d4121396885848351858152a251908152a380f35b5050346100e757816003193601126100e75760209060ff600254169051908152f35b90503461018057606036600319011261018057916020926000805160206107c6833981519152846104be6106e1565b93856104c86106fc565b6001600160a01b03908116966044359391906104e5891515610712565b16958682528085526104fc84848420541015610752565b868252808552828220610510858254610795565b90558782528452206105238282546107b8565b90558551908152a35160018152f35b5050346100e757816003193601126100e7576020906003549051908152f35b5050346100e757806003193601126100e7576020918161056f6106e1565b91602435918291338152600587528181209460018060a01b0316948582528752205582519081527f8c5be1e5ebec7d5bd14f71427d1e84f3dd0314c0f7b2291e5b200ac8c7c3b925843392a35160018152f35b84908434610180578260031936011261018057828354600181811c9080831692831561068e575b60209384841081146102875783885290811561026b575060011461063957505050829003601f01601f191682019267ffffffffffffffff84118385101761020357508291826101ff925282610698565b8680529192508591837f290decd9548b62a8d60345a988386fc84ba6bc95484008f6362f93160ef3e5635b83851061067a57505050508301018580806101cd565b805488860183015293019284908201610664565b91607f16916105e9565b6020808252825181830181905290939260005b8281106106cd57505060409293506000838284010152601f8019910116010190565b8181018601518482016040015285016106ab565b600435906001600160a01b03821682036106f757565b600080fd5b602435906001600160a01b03821682036106f757565b1561071957565b60405162461bcd60e51b8152602060048201526011602482015270125b9d985b1a59081c9958da5c1a595b9d607a1b6044820152606490fd5b1561075957565b60405162461bcd60e51b8152602060048201526014602482015273496e73756666696369656e742062616c616e636560601b6044820152606490fd5b919082039182116107a257565b634e487b7160e01b600052601160045260246000fd5b919082018092116107a25756feddf252ad1be2c89b69c2b068fc378daa952ba7f163c4a11628f55a4df523b3efa264697066735822122083f3ec525fea72354efde574e472a5fe132e5099d0df9abb34f6500e4660651d64736f6c63430008140033","opcodes":"PUSH1 0x80 CALLVALUE PUSH2 0x176 JUMPI PUSH1 0x1F PUSH2 0x9E7 CODESIZE DUP2 SWAP1 SUB SWAP2 DUP3 ADD PUSH1 0x1F NOT AND DUP4 ADD SWAP2 PUSH1 0x1 PUSH1 0x1 PUSH1 0x40 SHL SUB DUP4 GT DUP5 DUP5 LT OR PUSH2 0x17B JUMPI DUP1 DUP5 SWAP3 PUSH1 0x20 SWAP5 PUSH1 0x40 MSTORE DUP4 CODECOPY DUP2 ADD SUB SLT PUSH2 0x176 JUMPI MLOAD PUSH1 0x0 PUSH2 0x4B DUP2 SLOAD PUSH2 0x191 JUMP JUMPDEST PUSH1 0x1F DUP2 GT PUSH2 0x14C JUMPI JUMPDEST POP PUSH32 0x53696D706C652055534443000000000000000000000000000000000000000016 DUP2 SSTORE PUSH1 0x1 DUP1 SLOAD PUSH2 0x85 SWAP1 PUSH2 0x191 JUMP JUMPDEST PUSH1 0x1F DUP2 GT PUSH2 0x120 JUMPI JUMPDEST POP PUSH1 0x8 PUSH4 0x55534443 PUSH1 0xE0 SHL ADD SWAP1 SSTORE PUSH1 0x2 DUP1 SLOAD PUSH1 0xFF NOT AND PUSH1 0x6 OR SWAP1 SSTORE PUSH3 0xF4240 DUP3 DUP2 MUL SWAP3 DUP1 ISZERO SWAP1 DUP5 DIV SWAP1 SWAP2 EQ OR ISZERO PUSH2 0x10C JUMPI DUP2 PUSH1 0x3 SSTORE CALLER DUP2 MSTORE PUSH1 0x4 PUSH1 0x20 MSTORE DUP2 PUSH1 0x40 DUP3 KECCAK256 SSTORE PUSH1 0x40 MLOAD SWAP2 DUP3 MSTORE PUSH32 0xDDF252AD1BE2C89B69C2B068FC378DAA952BA7F163C4A11628F55A4DF523B3EF PUSH1 0x20 CALLER SWAP4 LOG3 PUSH1 0x40 MLOAD PUSH2 0x81B SWAP1 DUP2 PUSH2 0x1CC DUP3 CODECOPY RETURN JUMPDEST PUSH4 0x4E487B71 PUSH1 0xE0 SHL DUP2 MSTORE PUSH1 0x11 PUSH1 0x4 MSTORE PUSH1 0x24 SWAP1 REVERT JUMPDEST DUP2 DUP4 MSTORE DUP2 PUSH1 0x1F PUSH1 0x20 DUP6 KECCAK256 SWAP3 ADD PUSH1 0x5 SHR DUP3 ADD SWAP2 JUMPDEST DUP3 DUP2 LT PUSH2 0x141 JUMPI POP POP PUSH2 0x8E JUMP JUMPDEST DUP5 DUP2 SSTORE ADD DUP3 SWAP1 PUSH2 0x133 JUMP JUMPDEST DUP2 DUP1 MSTORE PUSH1 0x1F PUSH1 0x20 DUP4 KECCAK256 SWAP2 ADD PUSH1 0x5 SHR DUP2 ADD SWAP1 JUMPDEST DUP2 DUP2 LT PUSH2 0x16B JUMPI POP PUSH2 0x54 JUMP JUMPDEST DUP3 DUP2 SSTORE PUSH1 0x1 ADD PUSH2 0x15E JUMP JUMPDEST PUSH1 0x0 DUP1 REVERT JUMPDEST PUSH4 0x4E487B71 PUSH1 0xE0 SHL PUSH1 0x0 MSTORE PUSH1 0x41 PUSH1 0x4 MSTORE PUSH1 0x24 PUSH1 0x0 REVERT JUMPDEST SWAP1 PUSH1 0x1 DUP3 DUP2 SHR SWAP3 AND DUP1 ISZERO PUSH2 0x1C1 JUMPI JUMPDEST PUSH1 0x20 DUP4 LT EQ PUSH2 0x1AB JUMPI JUMP JUMPDEST PUSH4 0x4E487B71 PUSH1 0xE0 SHL PUSH1 0x0 MSTORE PUSH1 0x22 PUSH1 0x4 MSTORE PUSH1 0x24 PUSH1 0x0 REVERT JUMPDEST SWAP2 PUSH1 0x7F AND SWAP2 PUSH2 0x1A0 JUMP INVALID PUSH1 0x80 PUSH1 0x40 DUP2 DUP2 MSTORE PUSH1 0x4 SWAP2 DUP3 CALLDATASIZE LT ISZERO PUSH2 0x16 JUMPI PUSH1 0x0 DUP1 REVERT JUMPDEST PUSH1 0x0 SWAP3 DUP4 CALLDATALOAD PUSH1 0xE0 SHR SWAP2 DUP3 PUSH4 0x6FDDE03 EQ PUSH2 0x5C2 JUMPI POP DUP2 PUSH4 0x95EA7B3 EQ PUSH2 0x551 JUMPI DUP2 PUSH4 0x18160DDD EQ PUSH2 0x532 JUMPI DUP2 PUSH4 0x23B872DD EQ PUSH2 0x48F JUMPI DUP2 PUSH4 0x313CE567 EQ PUSH2 0x46D JUMPI DUP4 DUP3 PUSH4 0x40C10F19 EQ PUSH2 0x3D1 JUMPI POP DUP2 PUSH4 0x57915897 EQ PUSH2 0x2DA JUMPI DUP2 PUSH4 0x70A08231 EQ PUSH2 0x2A4 JUMPI DUP2 PUSH4 0x95D89B41 EQ PUSH2 0x184 JUMPI DUP2 PUSH4 0xA9059CBB EQ PUSH2 0xEB JUMPI POP PUSH4 0xDD62ED3E EQ PUSH2 0xA0 JUMPI PUSH1 0x0 DUP1 REVERT JUMPDEST CALLVALUE PUSH2 0xE7 JUMPI DUP1 PUSH1 0x3 NOT CALLDATASIZE ADD SLT PUSH2 0xE7 JUMPI DUP1 PUSH1 0x20 SWAP3 PUSH2 0xBC PUSH2 0x6E1 JUMP JUMPDEST PUSH2 0xC4 PUSH2 0x6FC JUMP JUMPDEST PUSH1 0x1 PUSH1 0x1 PUSH1 0xA0 SHL SUB SWAP2 DUP3 AND DUP4 MSTORE PUSH1 0x5 DUP7 MSTORE DUP4 DUP4 KECCAK256 SWAP2 AND DUP3 MSTORE DUP5 MSTORE KECCAK256 SLOAD SWAP1 MLOAD SWAP1 DUP2 MSTORE RETURN JUMPDEST POP DUP1 REVERT JUMPDEST SWAP1 POP CALLVALUE PUSH2 0x180 JUMPI DUP2 PUSH1 0x3 NOT CALLDATASIZE ADD SLT PUSH2 0x180 JUMPI PUSH1 0x20 SWAP3 DUP3 PUSH2 0x109 PUSH2 0x6E1 JUMP JUMPDEST PUSH1 0x1 PUSH1 0x1 PUSH1 0xA0 SHL SUB AND SWAP3 PUSH1 0x24 CALLDATALOAD SWAP3 SWAP1 PUSH2 0x123 DUP6 ISZERO ISZERO PUSH2 0x712 JUMP JUMPDEST CALLER DUP3 MSTORE DUP1 DUP8 MSTORE PUSH2 0x138 DUP5 DUP5 DUP5 KECCAK256 SLOAD LT ISZERO PUSH2 0x752 JUMP JUMPDEST CALLER DUP3 MSTORE DUP1 DUP8 MSTORE DUP3 DUP3 KECCAK256 PUSH2 0x14C DUP6 DUP3 SLOAD PUSH2 0x795 JUMP JUMPDEST SWAP1 SSTORE DUP5 DUP3 MSTORE DUP7 MSTORE KECCAK256 PUSH2 0x15F DUP3 DUP3 SLOAD PUSH2 0x7B8 JUMP JUMPDEST SWAP1 SSTORE DUP3 MLOAD SWAP1 DUP2 MSTORE PUSH1 0x0 DUP1 MLOAD PUSH1 0x20 PUSH2 0x7C6 DUP4 CODECOPY DUP2 MLOAD SWAP2 MSTORE DUP5 CALLER SWAP3 LOG3 MLOAD PUSH1 0x1 DUP2 MSTORE RETURN JUMPDEST DUP3 DUP1 REVERT JUMPDEST DUP4 DUP4 CALLVALUE PUSH2 0xE7 JUMPI DUP2 PUSH1 0x3 NOT CALLDATASIZE ADD SLT PUSH2 0xE7 JUMPI DUP1 MLOAD SWAP1 DUP3 PUSH1 0x1 DUP1 SLOAD SWAP1 DUP2 DUP2 SHR SWAP1 DUP1 DUP4 AND SWAP3 DUP4 ISZERO PUSH2 0x29A JUMPI JUMPDEST PUSH1 0x20 SWAP4 DUP5 DUP5 LT DUP2 EQ PUSH2 0x287 JUMPI DUP4 DUP9 MSTORE SWAP1 DUP2 ISZERO PUSH2 0x26B JUMPI POP PUSH1 0x1 EQ PUSH2 0x216 JUMPI JUMPDEST POP POP POP DUP3 SWAP1 SUB PUSH1 0x1F ADD PUSH1 0x1F NOT AND DUP3 ADD SWAP3 PUSH8 0xFFFFFFFFFFFFFFFF DUP5 GT DUP4 DUP6 LT OR PUSH2 0x203 JUMPI POP DUP3 SWAP2 DUP3 PUSH2 0x1FF SWAP3 MSTORE DUP3 PUSH2 0x698 JUMP JUMPDEST SUB SWAP1 RETURN JUMPDEST PUSH4 0x4E487B71 PUSH1 0xE0 SHL DUP2 MSTORE PUSH1 0x41 DUP6 MSTORE PUSH1 0x24 SWAP1 REVERT JUMPDEST DUP1 DUP8 MSTORE SWAP2 SWAP3 POP DUP6 SWAP2 DUP4 PUSH32 0xB10E2D527612073B26EECDFD717E6A320CF44B4AFAC2B0732D9FCBE2B7FA0CF6 JUMPDEST DUP4 DUP6 LT PUSH2 0x257 JUMPI POP POP POP POP DUP4 ADD ADD DUP6 DUP1 DUP1 PUSH2 0x1CD JUMP JUMPDEST DUP1 SLOAD DUP9 DUP7 ADD DUP4 ADD MSTORE SWAP4 ADD SWAP3 DUP5 SWAP1 DUP3 ADD PUSH2 0x241 JUMP JUMPDEST PUSH1 0xFF NOT AND DUP8 DUP6 ADD MSTORE POP POP ISZERO ISZERO PUSH1 0x5 SHL DUP5 ADD ADD SWAP1 POP DUP6 DUP1 DUP1 PUSH2 0x1CD JUMP JUMPDEST PUSH4 0x4E487B71 PUSH1 0xE0 SHL DUP10 MSTORE PUSH1 0x22 DUP11 MSTORE PUSH1 0x24 DUP10 REVERT JUMPDEST SWAP2 PUSH1 0x7F AND SWAP2 PUSH2 0x1AE JUMP JUMPDEST SWAP1 POP CALLVALUE PUSH2 0x180 JUMPI PUSH1 0x20 CALLDATASIZE PUSH1 0x3 NOT ADD SLT PUSH2 0x180 JUMPI PUSH1 0x20 SWAP3 DUP3 SWAP2 PUSH1 0x1 PUSH1 0x1 PUSH1 0xA0 SHL SUB PUSH2 0x2CC PUSH2 0x6E1 JUMP JUMPDEST AND DUP3 MSTORE DUP5 MSTORE KECCAK256 SLOAD SWAP1 MLOAD SWAP1 DUP2 MSTORE RETURN JUMPDEST SWAP2 SWAP1 POP CALLVALUE PUSH2 0x180 JUMPI PUSH1 0x20 CALLDATASIZE PUSH1 0x3 NOT ADD SLT PUSH2 0x180 JUMPI DUP2 CALLDATALOAD SWAP2 PUSH1 0xFF PUSH1 0x2 SLOAD AND PUSH1 0x4D DUP2 GT PUSH2 0x3BE JUMPI PUSH1 0xA EXP PUSH3 0x186A0 SWAP1 DUP1 DUP3 MUL SWAP2 DUP3 DIV SUB PUSH2 0x3BE JUMPI DUP4 GT PUSH2 0x384 JUMPI PUSH2 0x324 DUP4 PUSH1 0x3 SLOAD PUSH2 0x7B8 JUMP JUMPDEST PUSH1 0x3 SSTORE CALLER DUP5 MSTORE PUSH1 0x20 MSTORE DUP1 DUP4 KECCAK256 PUSH2 0x33B DUP4 DUP3 SLOAD PUSH2 0x7B8 JUMP JUMPDEST SWAP1 SSTORE DUP1 MLOAD DUP3 DUP2 MSTORE PUSH32 0xF6798A560793A54C3BCFE86A93CDE1E73087D944C0EA20544137D4121396885 PUSH1 0x20 CALLER SWAP3 LOG2 MLOAD SWAP1 DUP2 MSTORE DUP2 PUSH1 0x0 DUP1 MLOAD PUSH1 0x20 PUSH2 0x7C6 DUP4 CODECOPY DUP2 MLOAD SWAP2 MSTORE PUSH1 0x20 CALLER SWAP4 LOG3 DUP1 RETURN JUMPDEST PUSH1 0x20 PUSH1 0x64 SWAP3 MLOAD SWAP2 PUSH3 0x461BCD PUSH1 0xE5 SHL DUP4 MSTORE DUP3 ADD MSTORE PUSH1 0x15 PUSH1 0x24 DUP3 ADD MSTORE PUSH21 0x11985D58D95D081B1A5B5A5D08195E18D959591959 PUSH1 0x5A SHL PUSH1 0x44 DUP3 ADD MSTORE REVERT JUMPDEST PUSH4 0x4E487B71 PUSH1 0xE0 SHL DUP6 MSTORE PUSH1 0x11 DUP3 MSTORE PUSH1 0x24 DUP6 REVERT JUMPDEST SWAP2 POP SWAP2 CALLVALUE PUSH2 0xE7 JUMPI DUP1 PUSH1 0x3 NOT CALLDATASIZE ADD SLT PUSH2 0xE7 JUMPI PUSH1 0x20 PUSH1 0x0 DUP1 MLOAD PUSH1 0x20 PUSH2 0x7C6 DUP4 CODECOPY DUP2 MLOAD SWAP2 MSTORE SWAP2 PUSH2 0x3FE PUSH2 0x6E1 JUMP JUMPDEST PUSH1 0x1 PUSH1 0x1 PUSH1 0xA0 SHL SUB AND SWAP5 PUSH1 0x24 CALLDATALOAD SWAP2 SWAP1 PUSH2 0x418 DUP8 ISZERO ISZERO PUSH2 0x712 JUMP JUMPDEST PUSH2 0x424 DUP4 PUSH1 0x3 SLOAD PUSH2 0x7B8 JUMP JUMPDEST PUSH1 0x3 SSTORE DUP7 DUP7 MSTORE DUP4 MSTORE DUP1 DUP6 KECCAK256 PUSH2 0x43A DUP4 DUP3 SLOAD PUSH2 0x7B8 JUMP JUMPDEST SWAP1 SSTORE DUP6 PUSH32 0xF6798A560793A54C3BCFE86A93CDE1E73087D944C0EA20544137D4121396885 DUP5 DUP4 MLOAD DUP6 DUP2 MSTORE LOG2 MLOAD SWAP1 DUP2 MSTORE LOG3 DUP1 RETURN JUMPDEST POP POP CALLVALUE PUSH2 0xE7 JUMPI DUP2 PUSH1 0x3 NOT CALLDATASIZE ADD SLT PUSH2 0xE7 JUMPI PUSH1 0x20 SWAP1 PUSH1 0xFF PUSH1 0x2 SLOAD AND SWAP1 MLOAD SWAP1 DUP2 MSTORE RETURN JUMPDEST SWAP1 POP CALLVALUE PUSH2 0x180 JUMPI PUSH1 0x60 CALLDATASIZE PUSH1 0x3 NOT ADD SLT PUSH2 0x180 JUMPI SWAP2 PUSH1 0x20 SWAP3 PUSH1 0x0 DUP1 MLOAD PUSH1 0x20 PUSH2 0x7C6 DUP4 CODECOPY DUP2 MLOAD SWAP2 MSTORE DUP5 PUSH2 0x4BE PUSH2 0x6E1 JUMP JUMPDEST SWAP4 DUP6 PUSH2 0x4C8 PUSH2 0x6FC JUMP JUMPDEST PUSH1 0x1 PUSH1 0x1 PUSH1 0xA0 SHL SUB SWAP1 DUP2 AND SWAP7 PUSH1 0x44 CALLDATALOAD SWAP4 SWAP2 SWAP1 PUSH2 0x4E5 DUP10 ISZERO ISZERO PUSH2 0x712 JUMP JUMPDEST AND SWAP6 DUP7 DUP3 MSTORE DUP1 DUP6 MSTORE PUSH2 0x4FC DUP5 DUP5 DUP5 KECCAK256 SLOAD LT ISZERO PUSH2 0x752 JUMP JUMPDEST DUP7 DUP3 MSTORE DUP1 DUP6 MSTORE DUP3 DUP3 KECCAK256 PUSH2 0x510 DUP6 DUP3 SLOAD PUSH2 0x795 JUMP JUMPDEST SWAP1 SSTORE DUP8 DUP3 MSTORE DUP5 MSTORE KECCAK256 PUSH2 0x523 DUP3 DUP3 SLOAD PUSH2 0x7B8 JUMP JUMPDEST SWAP1 SSTORE DUP6 MLOAD SWAP1 DUP2 MSTORE LOG3 MLOAD PUSH1 0x1 DUP2 MSTORE RETURN JUMPDEST POP POP CALLVALUE PUSH2 0xE7 JUMPI DUP2 PUSH1 0x3 NOT CALLDATASIZE ADD SLT PUSH2 0xE7 JUMPI PUSH1 0x20 SWAP1 PUSH1 0x3 SLOAD SWAP1 MLOAD SWAP1 DUP2 MSTORE RETURN JUMPDEST POP POP CALLVALUE PUSH2 0xE7 JUMPI DUP1 PUSH1 0x3 NOT CALLDATASIZE ADD SLT PUSH2 0xE7 JUMPI PUSH1 0x20 SWAP2 DUP2 PUSH2 0x56F PUSH2 0x6E1 JUMP JUMPDEST SWAP2 PUSH1 0x24 CALLDATALOAD SWAP2 DUP3 SWAP2 CALLER DUP2 MSTORE PUSH1 0x5 DUP8 MSTORE DUP2 DUP2 KECCAK256 SWAP5 PUSH1 0x1 DUP1 PUSH1 0xA0 SHL SUB AND SWAP5 DUP6 DUP3 MSTORE DUP8 MSTORE KECCAK256 SSTORE DUP3 MLOAD SWAP1 DUP2 MSTORE PUSH32 0x8C5BE1E5EBEC7D5BD14F71427D1E84F3DD0314C0F7B2291E5B200AC8C7C3B925 DUP5 CALLER SWAP3 LOG3 MLOAD PUSH1 0x1 DUP2 MSTORE RETURN JUMPDEST DUP5 SWAP1 DUP5 CALLVALUE PUSH2 0x180 JUMPI DUP3 PUSH1 0x3 NOT CALLDATASIZE ADD SLT PUSH2 0x180 JUMPI DUP3 DUP4 SLOAD PUSH1 0x1 DUP2 DUP2 SHR SWAP1 DUP1 DUP4 AND SWAP3 DUP4 ISZERO PUSH2 0x68E JUMPI JUMPDEST PUSH1 0x20 SWAP4 DUP5 DUP5 LT DUP2 EQ PUSH2 0x287 JUMPI DUP4 DUP9 MSTORE SWAP1 DUP2 ISZERO PUSH2 0x26B JUMPI POP PUSH1 0x1 EQ PUSH2 0x639 JUMPI POP POP POP DUP3 SWAP1 SUB PUSH1 0x1F ADD PUSH1 0x1F NOT AND DUP3 ADD SWAP3 PUSH8 0xFFFFFFFFFFFFFFFF DUP5 GT DUP4 DUP6 LT OR PUSH2 0x203 JUMPI POP DUP3 SWAP2 DUP3 PUSH2 0x1FF SWAP3 MSTORE DUP3 PUSH2 0x698 JUMP JUMPDEST DUP7 DUP1 MSTORE SWAP2 SWAP3 POP DUP6 SWAP2 DUP4 PUSH32 0x290DECD9548B62A8D60345A988386FC84BA6BC95484008F6362F93160EF3E563 JUMPDEST DUP4 DUP6 LT PUSH2 0x67A JUMPI POP POP POP POP DUP4 ADD ADD DUP6 DUP1 DUP1 PUSH2 0x1CD JUMP JUMPDEST DUP1 SLOAD DUP9 DUP7 ADD DUP4 ADD MSTORE SWAP4 ADD SWAP3 DUP5 SWAP1 DUP3 ADD PUSH2 0x664 JUMP JUMPDEST SWAP2 PUSH1 0x7F AND SWAP2 PUSH2 0x5E9 JUMP JUMPDEST PUSH1 0x20 DUP1 DUP3 MSTORE DUP3 MLOAD DUP2 DUP4 ADD DUP2 SWAP1 MSTORE SWAP1 SWAP4 SWAP3 PUSH1 0x0 JUMPDEST DUP3 DUP2 LT PUSH2 0x6CD JUMPI POP POP PUSH1 0x40 SWAP3 SWAP4 POP PUSH1 0x0 DUP4 DUP3 DUP5 ADD ADD MSTORE PUSH1 0x1F DUP1 NOT SWAP2 ADD AND ADD ADD SWAP1 JUMP JUMPDEST DUP2 DUP2 ADD DUP7 ADD MLOAD DUP5 DUP3 ADD PUSH1 0x40 ADD MSTORE DUP6 ADD PUSH2 0x6AB JUMP JUMPDEST PUSH1 0x4 CALLDATALOAD SWAP1 PUSH1 0x1 PUSH1 0x1 PUSH1 0xA0 SHL SUB DUP3 AND DUP3 SUB PUSH2 0x6F7 JUMPI JUMP JUMPDEST PUSH1 0x0 DUP1 REVERT JUMPDEST PUSH1 0x24 CALLDATALOAD SWAP1 PUSH1 0x1 PUSH1 0x1 PUSH1 0xA0 SHL SUB DUP3 AND DUP3 SUB PUSH2 0x6F7 JUMPI JUMP JUMPDEST ISZERO PUSH2 0x719 JUMPI JUMP JUMPDEST PUSH1 0x40 MLOAD PUSH3 0x461BCD PUSH1 0xE5 SHL DUP2 MSTORE PUSH1 0x20 PUSH1 0x4 DUP3 ADD MSTORE PUSH1 0x11 PUSH1 0x24 DUP3 ADD MSTORE PUSH17 0x125B9D985B1A59081C9958DA5C1A595B9D PUSH1 0x7A SHL PUSH1 0x44 DUP3 ADD MSTORE PUSH1 0x64 SWAP1 REVERT JUMPDEST ISZERO PUSH2 0x759 JUMPI JUMP JUMPDEST PUSH1 0x40 MLOAD PUSH3 0x461BCD PUSH1 0xE5 SHL DUP2 MSTORE PUSH1 0x20 PUSH1 0x4 DUP3 ADD MSTORE PUSH1 0x14 PUSH1 0x24 DUP3 ADD MSTORE PUSH20 0x496E73756666696369656E742062616C616E6365 PUSH1 0x60 SHL PUSH1 0x44 DUP3 ADD MSTORE PUSH1 0x64 SWAP1 REVERT JUMPDEST SWAP2 SWAP1 DUP3 SUB SWAP2 DUP3 GT PUSH2 0x7A2 JUMPI JUMP JUMPDEST PUSH4 0x4E487B71 PUSH1 0xE0 SHL PUSH1 0x0 MSTORE PUSH1 0x11 PUSH1 0x4 MSTORE PUSH1 0x24 PUSH1 0x0 REVERT JUMPDEST SWAP2 SWAP1 DUP3 ADD DUP1 SWAP3 GT PUSH2 0x7A2 JUMPI JUMP INVALID 0xDD CALLCODE MSTORE 0xAD SHL 0xE2 0xC8 SWAP12 PUSH10 0xC2B068FC378DAA952BA7 CALL PUSH4 0xC4A11628 CREATE2 GAS 0x4D CREATE2 0x23 0xB3 0xEF LOG2 PUSH5 0x6970667358 0x22 SLT KECCAK256 DUP4 RETURN 0xEC MSTORE PUSH0 0xEA PUSH19 0x354EFDE574E472A5FE132E5099D0DF9ABB34F6 POP 0xE CHAINID PUSH1 0x65 SAR PUSH5 0x736F6C6343 STOP ADDMOD EQ STOP CALLER "},"methodIdentifiers":{"allowance(address,address)":"dd62ed3e","approve(address,uint256)":"095ea7b3","balanceOf(address)":"70a08231","decimals()":"313ce567","faucet(uint256)":"57915897","mint(address,uint256)":"40c10f19","name()":"06fdde03","symbol()":"95d89b41","totalSupply()":"18160ddd","transfer(address,uint256)":"a9059cbb","transferFrom(address,address,uint256)":"23b872dd"}}}}}