{"contracts/SimpleVault.sol":{"SimpleVault":{"abi":[{"inputs":[{"internalType":"address","name":"_collateralToken","type":"address"}],"stateMutability":"nonpayable","type":"constructor"},{"anonymous":false,"inputs":[{"indexed":true,"internalType":"address","name":"user","type":"address"},{"indexed":false,"internalType":"uint256","name":"amount","type":"uint256"}],"name":"CollateralDeposited","type":"event"},{"anonymous":false,"inputs":[{"indexed":true,"internalType":"address","name":"user","type":"address"},{"indexed":false,"internalType":"uint256","name":"amount","type":"uint256"}],"name":"CollateralWithdrawn","type":"event"},{"anonymous":false,"inputs":[{"indexed":true,"internalType":"address","name":"user","type":"address"},{"indexed":false,"internalType":"uint256","name":"amount","type":"uint256"}],"name":"MarginReleased","type":"event"},{"anonymous":false,"inputs":[{"indexed":true,"internalType":"address","name":"user","type":"address"},{"indexed":false,"internalType":"uint256","name":"amount","type":"uint256"}],"name":"MarginReserved","type":"event"},{"anonymous":false,"inputs":[{"indexed":true,"internalType":"address","name":"user","type":"address"},{"indexed":false,"internalType":"int256","name":"pnlDelta","type":"int256"}],"name":"PnLUpdated","type":"event"},{"inputs":[],"name":"collateralToken","outputs":[{"internalType":"contract IERC20","name":"","type":"address"}],"stateMutability":"view","type":"function"},{"inputs":[{"internalType":"address","name":"user","type":"address"},{"internalType":"uint256","name":"amount","type":"uint256"}],"name":"depositCollateral","outputs":[],"stateMutability":"nonpayable","type":"function"},{"inputs":[{"internalType":"address","name":"user","type":"address"}],"name":"getAvailableMargin","outputs":[{"internalType":"uint256","name":"","type":"uint256"}],"stateMutability":"view","type":"function"},{"inputs":[{"internalType":"address","name":"user","type":"address"}],"name":"getCollateralBalance","outputs":[{"internalType":"uint256","name":"","type":"uint256"}],"stateMutability":"view","type":"function"},{"inputs":[{"internalType":"address","name":"user","type":"address"}],"name":"getMarginAccount","outputs":[{"components":[{"internalType":"uint256","name":"collateral","type":"uint256"},{"internalType":"uint256","name":"reservedMargin","type":"uint256"},{"internalType":"int256","name":"unrealizedPnL","type":"int256"}],"internalType":"struct SimpleVault.MarginAccount","name":"","type":"tuple"}],"stateMutability":"view","type":"function"},{"inputs":[{"internalType":"address","name":"user","type":"address"}],"name":"getReservedMargin","outputs":[{"internalType":"uint256","name":"","type":"uint256"}],"stateMutability":"view","type":"function"},{"inputs":[{"internalType":"address","name":"user","type":"address"}],"name":"getTotalMargin","outputs":[{"internalType":"int256","name":"","type":"int256"}],"stateMutability":"view","type":"function"},{"inputs":[],"name":"owner","outputs":[{"internalType":"address","name":"","type":"address"}],"stateMutability":"view","type":"function"},{"inputs":[{"internalType":"address","name":"user","type":"address"},{"internalType":"uint256","name":"amount","type":"uint256"}],"name":"releaseMargin","outputs":[],"stateMutability":"nonpayable","type":"function"},{"inputs":[{"internalType":"address","name":"user","type":"address"},{"internalType":"uint256","name":"amount","type":"uint256"}],"name":"reserveMargin","outputs":[],"stateMutability":"nonpayable","type":"function"},{"inputs":[{"internalType":"address","name":"_vamm","type":"address"}],"name":"setVamm","outputs":[],"stateMutability":"nonpayable","type":"function"},{"inputs":[{"internalType":"address","name":"newOwner","type":"address"}],"name":"transferOwnership","outputs":[],"stateMutability":"nonpayable","type":"function"},{"inputs":[{"internalType":"address","name":"user","type":"address"},{"internalType":"int256","name":"pnlDelta","type":"int256"}],"name":"updatePnL","outputs":[],"stateMutability":"nonpayable","type":"function"},{"inputs":[],"name":"vamm","outputs":[{"internalType":"address","name":"","type":"address"}],"stateMutability":"view","type":"function"},{"inputs":[{"internalType":"address","name":"user","type":"address"},{"internalType":"uint256","name":"amount","type":"uint256"}],"name":"withdrawCollateral","outputs":[],"stateMutability":"nonpayable","type":"function"}],"evm":{"bytecode":{"linkReferences":{},"object":"60803461007a57601f610b8938819003918201601f19168301916001600160401b0383118484101761007f5780849260209460405283398101031261007a57516001600160a01b0381169081900361007a5760018060a01b0319338160005416176000556002541617600255604051610af390816100968239f35b600080fd5b634e487b7160e01b600052604160045260246000fdfe6080604081815260048036101561001557600080fd5b600092833560e01c9081622bc164146107f2575080632703ee85146107ba578063350c35e9146106305780635d773174146105a6578063649c07631461056a5780637569f4c81461049e5780638da5cb5b146104765780639101e5b314610391578063a5d5db0c14610298578063b2016bd41461026f578063c1c7c9dd14610249578063c90ba3a614610201578063cb62568014610178578063e098372c1461014b5763f2fde38b146100c757600080fd5b34610147576020366003190112610147576100e0610875565b835491906001600160a01b03906100fa3383861614610890565b169283156101145750506001600160a01b03191617815580f35b906020606492519162461bcd60e51b8352820152600d60248201526c24b73b30b634b21037bbb732b960991b6044820152fd5b8280fd5b50503461017457816003193601126101745760015490516001600160a01b039091168152602090f35b5080fd5b5050346101745780600319360112610174577f22d38deb33ee15dd233167fc440609397a226eb4e1b61e1773bdd09ef99424aa60206101b5610875565b600154602435916001600160a01b03916101d29083163314610a86565b16936101df851515610994565b848652600383526002818720016101f78382546108c8565b905551908152a280f35b505034610174576020366003190112610174576020916102429082906001600160a01b0361022d610875565b168152600385522060028154910154906108c8565b9051908152f35b5050346101745760203660031901126101745760209061024261026a610875565b610907565b50503461017457816003193601126101745760025490516001600160a01b039091168152602090f35b50346101475781600319360112610147576102b1610875565b91836020602435936102c4851515610957565b6001600160a01b03958616956064906102de881515610994565b6002541691855194859384926323b872dd60e01b845233908401523060248401528860448401525af190811561038757916103457fd7243f6f8212d5188fd054141cf6ea89cfc0d91facb8c3afe2f88a13584801429492602094889161035a575b50610a3b565b848652600383528086206101f7838254610a79565b61037a9150853d8111610380575b6103728183610a01565b810190610a23565b3861033f565b503d610368565b82513d87823e3d90fd5b5090346101475780600319360112610147576103ab610875565b60015460243592916001600160a01b03916103c99083163314610a86565b6103d4841515610957565b16926103e1841515610994565b838552600360205282600183872001541061043457507f5e63d54af10545f0b2bd229512f244caefe863ad94dbbb7ad827432c84d762f591602091848652600383526001818720016101f78382546108fa565b6020606492519162461bcd60e51b8352820152601c60248201527f496e73756666696369656e74207265736572766564206d617267696e000000006044820152fd5b505034610174578160031936011261017457905490516001600160a01b039091168152602090f35b50346101475781600319360112610147576104b7610875565b9160243591826104ef60018060a01b036104d681600154163314610a86565b6104e1831515610957565b86169561026a871515610994565b1061053257507f7a9b1b90f35f094ffc6d04d86069c79e82c6a16eb600f79672428a409635deca91602091848652600383526001818720016101f7838254610a79565b6020606492519162461bcd60e51b8352820152601360248201527224b739bab33334b1b4b2b73a1036b0b933b4b760691b6044820152fd5b5050346101745760203660031901126101745760209160019082906001600160a01b03610595610875565b168152600385522001549051908152f35b5034610147576020366003190112610147576105c0610875565b83546001600160a01b0391906105d99083163314610890565b169182156105fe5750506bffffffffffffffffffffffff60a01b600154161760015580f35b906020606492519162461bcd60e51b8352820152600c60248201526b496e76616c69642076616d6d60a01b6044820152fd5b5034610147578160031936011261014757610649610875565b602435610657811515610957565b6001600160a01b03828116939061066f851515610994565b848752602093600385528387892054106107775761068d8491610907565b10610734578460448592828a5260038452888a206106ac8782546108fa565b90556002541693898951958694859363a9059cbb60e01b85528401528760248401525af190811561072a577fc30fcfbcaac9e0deffa719714eaa82396ff506a0d0d0eebe170830177288715d94959161070b9188916107135750610a3b565b51908152a280f35b61037a9150853d8711610380576103728183610a01565b85513d88823e3d90fd5b855162461bcd60e51b8152808301859052601d60248201527f496e73756666696369656e7420617661696c61626c65206d617267696e0000006044820152606490fd5b865162461bcd60e51b8152808401869052601760248201527f496e73756666696369656e7420636f6c6c61746572616c0000000000000000006044820152606490fd5b5050346101745760203660031901126101745760209181906001600160a01b036107e2610875565b1681526003845220549051908152f35b915050346101475760203660031901126101475782829160609483610815610875565b9261081f816109cf565b828152826020820152015260018060a01b03168152600360205220908051610846816109cf565b825492838252826002600183015492602085019384520154920191825282519384525160208401525190820152f35b600435906001600160a01b038216820361088b57565b600080fd5b1561089757565b60405162461bcd60e51b81526020600482015260096024820152682737ba1037bbb732b960b91b6044820152606490fd5b919091600083820193841291129080158216911516176108e457565b634e487b7160e01b600052601160045260246000fd5b919082039182116108e457565b6001600160a01b031660009081526003602052604090208054600282015461092e916108c8565b9060008213156109505760010154808211156109505761094d916108fa565b90565b5050600090565b1561095e57565b60405162461bcd60e51b815260206004820152600e60248201526d125b9d985b1a5908185b5bdd5b9d60921b6044820152606490fd5b1561099b57565b60405162461bcd60e51b815260206004820152600c60248201526b24b73b30b634b2103ab9b2b960a11b6044820152606490fd5b6060810190811067ffffffffffffffff8211176109eb57604052565b634e487b7160e01b600052604160045260246000fd5b90601f8019910116810190811067ffffffffffffffff8211176109eb57604052565b9081602091031261088b5751801515810361088b5790565b15610a4257565b60405162461bcd60e51b815260206004820152600f60248201526e151c985b9cd9995c8819985a5b1959608a1b6044820152606490fd5b919082018092116108e457565b15610a8d57565b60405162461bcd60e51b81526020600482015260086024820152674e6f742076616d6d60c01b6044820152606490fdfea2646970667358221220435438dcd71615985e6ac6ccfc7853363f3cbf3e8fb2d6862bccae91eab63ff864736f6c63430008140033","opcodes":"PUSH1 0x80 CALLVALUE PUSH2 0x7A JUMPI PUSH1 0x1F PUSH2 0xB89 CODESIZE DUP2 SWAP1 SUB SWAP2 DUP3 ADD PUSH1 0x1F NOT AND DUP4 ADD SWAP2 PUSH1 0x1 PUSH1 0x1 PUSH1 0x40 SHL SUB DUP4 GT DUP5 DUP5 LT OR PUSH2 0x7F JUMPI DUP1 DUP5 SWAP3 PUSH1 0x20 SWAP5 PUSH1 0x40 MSTORE DUP4 CODECOPY DUP2 ADD SUB SLT PUSH2 0x7A JUMPI MLOAD PUSH1 0x1 PUSH1 0x1 PUSH1 0xA0 SHL SUB DUP2 AND SWAP1 DUP2 SWAP1 SUB PUSH2 0x7A JUMPI PUSH1 0x1 DUP1 PUSH1 0xA0 SHL SUB NOT CALLER DUP2 PUSH1 0x0 SLOAD AND OR PUSH1 0x0 SSTORE PUSH1 0x2 SLOAD AND OR PUSH1 0x2 SSTORE PUSH1 0x40 MLOAD PUSH2 0xAF3 SWAP1 DUP2 PUSH2 0x96 DUP3 CODECOPY RETURN JUMPDEST PUSH1 0x0 DUP1 REVERT JUMPDEST PUSH4 0x4E487B71 PUSH1 0xE0 SHL PUSH1 0x0 MSTORE PUSH1 0x41 PUSH1 0x4 MSTORE PUSH1 0x24 PUSH1 0x0 REVERT INVALID PUSH1 0x80 PUSH1 0x40 DUP2 DUP2 MSTORE PUSH1 0x4 DUP1 CALLDATASIZE LT ISZERO PUSH2 0x15 JUMPI PUSH1 0x0 DUP1 REVERT JUMPDEST PUSH1 0x0 SWAP3 DUP4 CALLDATALOAD PUSH1 0xE0 SHR SWAP1 DUP2 PUSH3 0x2BC164 EQ PUSH2 0x7F2 JUMPI POP DUP1 PUSH4 0x2703EE85 EQ PUSH2 0x7BA JUMPI DUP1 PUSH4 0x350C35E9 EQ PUSH2 0x630 JUMPI DUP1 PUSH4 0x5D773174 EQ PUSH2 0x5A6 JUMPI DUP1 PUSH4 0x649C0763 EQ PUSH2 0x56A JUMPI DUP1 PUSH4 0x7569F4C8 EQ PUSH2 0x49E JUMPI DUP1 PUSH4 0x8DA5CB5B EQ PUSH2 0x476 JUMPI DUP1 PUSH4 0x9101E5B3 EQ PUSH2 0x391 JUMPI DUP1 PUSH4 0xA5D5DB0C EQ PUSH2 0x298 JUMPI DUP1 PUSH4 0xB2016BD4 EQ PUSH2 0x26F JUMPI DUP1 PUSH4 0xC1C7C9DD EQ PUSH2 0x249 JUMPI DUP1 PUSH4 0xC90BA3A6 EQ PUSH2 0x201 JUMPI DUP1 PUSH4 0xCB625680 EQ PUSH2 0x178 JUMPI DUP1 PUSH4 0xE098372C EQ PUSH2 0x14B JUMPI PUSH4 0xF2FDE38B EQ PUSH2 0xC7 JUMPI PUSH1 0x0 DUP1 REVERT JUMPDEST CALLVALUE PUSH2 0x147 JUMPI PUSH1 0x20 CALLDATASIZE PUSH1 0x3 NOT ADD SLT PUSH2 0x147 JUMPI PUSH2 0xE0 PUSH2 0x875 JUMP JUMPDEST DUP4 SLOAD SWAP2 SWAP1 PUSH1 0x1 PUSH1 0x1 PUSH1 0xA0 SHL SUB SWAP1 PUSH2 0xFA CALLER DUP4 DUP7 AND EQ PUSH2 0x890 JUMP JUMPDEST AND SWAP3 DUP4 ISZERO PUSH2 0x114 JUMPI POP POP PUSH1 0x1 PUSH1 0x1 PUSH1 0xA0 SHL SUB NOT AND OR DUP2 SSTORE DUP1 RETURN JUMPDEST SWAP1 PUSH1 0x20 PUSH1 0x64 SWAP3 MLOAD SWAP2 PUSH3 0x461BCD PUSH1 0xE5 SHL DUP4 MSTORE DUP3 ADD MSTORE PUSH1 0xD PUSH1 0x24 DUP3 ADD MSTORE PUSH13 0x24B73B30B634B21037BBB732B9 PUSH1 0x99 SHL PUSH1 0x44 DUP3 ADD MSTORE REVERT JUMPDEST DUP3 DUP1 REVERT JUMPDEST POP POP CALLVALUE PUSH2 0x174 JUMPI DUP2 PUSH1 0x3 NOT CALLDATASIZE ADD SLT PUSH2 0x174 JUMPI PUSH1 0x1 SLOAD SWAP1 MLOAD PUSH1 0x1 PUSH1 0x1 PUSH1 0xA0 SHL SUB SWAP1 SWAP2 AND DUP2 MSTORE PUSH1 0x20 SWAP1 RETURN JUMPDEST POP DUP1 REVERT JUMPDEST POP POP CALLVALUE PUSH2 0x174 JUMPI DUP1 PUSH1 0x3 NOT CALLDATASIZE ADD SLT PUSH2 0x174 JUMPI PUSH32 0x22D38DEB33EE15DD233167FC440609397A226EB4E1B61E1773BDD09EF99424AA PUSH1 0x20 PUSH2 0x1B5 PUSH2 0x875 JUMP JUMPDEST PUSH1 0x1 SLOAD PUSH1 0x24 CALLDATALOAD SWAP2 PUSH1 0x1 PUSH1 0x1 PUSH1 0xA0 SHL SUB SWAP2 PUSH2 0x1D2 SWAP1 DUP4 AND CALLER EQ PUSH2 0xA86 JUMP JUMPDEST AND SWAP4 PUSH2 0x1DF DUP6 ISZERO ISZERO PUSH2 0x994 JUMP JUMPDEST DUP5 DUP7 MSTORE PUSH1 0x3 DUP4 MSTORE PUSH1 0x2 DUP2 DUP8 KECCAK256 ADD PUSH2 0x1F7 DUP4 DUP3 SLOAD PUSH2 0x8C8 JUMP JUMPDEST SWAP1 SSTORE MLOAD SWAP1 DUP2 MSTORE LOG2 DUP1 RETURN JUMPDEST POP POP CALLVALUE PUSH2 0x174 JUMPI PUSH1 0x20 CALLDATASIZE PUSH1 0x3 NOT ADD SLT PUSH2 0x174 JUMPI PUSH1 0x20 SWAP2 PUSH2 0x242 SWAP1 DUP3 SWAP1 PUSH1 0x1 PUSH1 0x1 PUSH1 0xA0 SHL SUB PUSH2 0x22D PUSH2 0x875 JUMP JUMPDEST AND DUP2 MSTORE PUSH1 0x3 DUP6 MSTORE KECCAK256 PUSH1 0x2 DUP2 SLOAD SWAP2 ADD SLOAD SWAP1 PUSH2 0x8C8 JUMP JUMPDEST SWAP1 MLOAD SWAP1 DUP2 MSTORE RETURN JUMPDEST POP POP CALLVALUE PUSH2 0x174 JUMPI PUSH1 0x20 CALLDATASIZE PUSH1 0x3 NOT ADD SLT PUSH2 0x174 JUMPI PUSH1 0x20 SWAP1 PUSH2 0x242 PUSH2 0x26A PUSH2 0x875 JUMP JUMPDEST PUSH2 0x907 JUMP JUMPDEST POP POP CALLVALUE PUSH2 0x174 JUMPI DUP2 PUSH1 0x3 NOT CALLDATASIZE ADD SLT PUSH2 0x174 JUMPI PUSH1 0x2 SLOAD SWAP1 MLOAD PUSH1 0x1 PUSH1 0x1 PUSH1 0xA0 SHL SUB SWAP1 SWAP2 AND DUP2 MSTORE PUSH1 0x20 SWAP1 RETURN JUMPDEST POP CALLVALUE PUSH2 0x147 JUMPI DUP2 PUSH1 0x3 NOT CALLDATASIZE ADD SLT PUSH2 0x147 JUMPI PUSH2 0x2B1 PUSH2 0x875 JUMP JUMPDEST SWAP2 DUP4 PUSH1 0x20 PUSH1 0x24 CALLDATALOAD SWAP4 PUSH2 0x2C4 DUP6 ISZERO ISZERO PUSH2 0x957 JUMP JUMPDEST PUSH1 0x1 PUSH1 0x1 PUSH1 0xA0 SHL SUB SWAP6 DUP7 AND SWAP6 PUSH1 0x64 SWAP1 PUSH2 0x2DE DUP9 ISZERO ISZERO PUSH2 0x994 JUMP JUMPDEST PUSH1 0x2 SLOAD AND SWAP2 DUP6 MLOAD SWAP5 DUP6 SWAP4 DUP5 SWAP3 PUSH4 0x23B872DD PUSH1 0xE0 SHL DUP5 MSTORE CALLER SWAP1 DUP5 ADD MSTORE ADDRESS PUSH1 0x24 DUP5 ADD MSTORE DUP9 PUSH1 0x44 DUP5 ADD MSTORE GAS CALL SWAP1 DUP2 ISZERO PUSH2 0x387 JUMPI SWAP2 PUSH2 0x345 PUSH32 0xD7243F6F8212D5188FD054141CF6EA89CFC0D91FACB8C3AFE2F88A1358480142 SWAP5 SWAP3 PUSH1 0x20 SWAP5 DUP9 SWAP2 PUSH2 0x35A JUMPI JUMPDEST POP PUSH2 0xA3B JUMP JUMPDEST DUP5 DUP7 MSTORE PUSH1 0x3 DUP4 MSTORE DUP1 DUP7 KECCAK256 PUSH2 0x1F7 DUP4 DUP3 SLOAD PUSH2 0xA79 JUMP JUMPDEST PUSH2 0x37A SWAP2 POP DUP6 RETURNDATASIZE DUP2 GT PUSH2 0x380 JUMPI JUMPDEST PUSH2 0x372 DUP2 DUP4 PUSH2 0xA01 JUMP JUMPDEST DUP2 ADD SWAP1 PUSH2 0xA23 JUMP JUMPDEST CODESIZE PUSH2 0x33F JUMP JUMPDEST POP RETURNDATASIZE PUSH2 0x368 JUMP JUMPDEST DUP3 MLOAD RETURNDATASIZE DUP8 DUP3 RETURNDATACOPY RETURNDATASIZE SWAP1 REVERT JUMPDEST POP SWAP1 CALLVALUE PUSH2 0x147 JUMPI DUP1 PUSH1 0x3 NOT CALLDATASIZE ADD SLT PUSH2 0x147 JUMPI PUSH2 0x3AB PUSH2 0x875 JUMP JUMPDEST PUSH1 0x1 SLOAD PUSH1 0x24 CALLDATALOAD SWAP3 SWAP2 PUSH1 0x1 PUSH1 0x1 PUSH1 0xA0 SHL SUB SWAP2 PUSH2 0x3C9 SWAP1 DUP4 AND CALLER EQ PUSH2 0xA86 JUMP JUMPDEST PUSH2 0x3D4 DUP5 ISZERO ISZERO PUSH2 0x957 JUMP JUMPDEST AND SWAP3 PUSH2 0x3E1 DUP5 ISZERO ISZERO PUSH2 0x994 JUMP JUMPDEST DUP4 DUP6 MSTORE PUSH1 0x3 PUSH1 0x20 MSTORE DUP3 PUSH1 0x1 DUP4 DUP8 KECCAK256 ADD SLOAD LT PUSH2 0x434 JUMPI POP PUSH32 0x5E63D54AF10545F0B2BD229512F244CAEFE863AD94DBBB7AD827432C84D762F5 SWAP2 PUSH1 0x20 SWAP2 DUP5 DUP7 MSTORE PUSH1 0x3 DUP4 MSTORE PUSH1 0x1 DUP2 DUP8 KECCAK256 ADD PUSH2 0x1F7 DUP4 DUP3 SLOAD PUSH2 0x8FA JUMP JUMPDEST PUSH1 0x20 PUSH1 0x64 SWAP3 MLOAD SWAP2 PUSH3 0x461BCD PUSH1 0xE5 SHL DUP4 MSTORE DUP3 ADD MSTORE PUSH1 0x1C PUSH1 0x24 DUP3 ADD MSTORE PUSH32 0x496E73756666696369656E74207265736572766564206D617267696E00000000 PUSH1 0x44 DUP3 ADD MSTORE REVERT JUMPDEST POP POP CALLVALUE PUSH2 0x174 JUMPI DUP2 PUSH1 0x3 NOT CALLDATASIZE ADD SLT PUSH2 0x174 JUMPI SWAP1 SLOAD SWAP1 MLOAD PUSH1 0x1 PUSH1 0x1 PUSH1 0xA0 SHL SUB SWAP1 SWAP2 AND DUP2 MSTORE PUSH1 0x20 SWAP1 RETURN JUMPDEST POP CALLVALUE PUSH2 0x147 JUMPI DUP2 PUSH1 0x3 NOT CALLDATASIZE ADD SLT PUSH2 0x147 JUMPI PUSH2 0x4B7 PUSH2 0x875 JUMP JUMPDEST SWAP2 PUSH1 0x24 CALLDATALOAD SWAP2 DUP3 PUSH2 0x4EF PUSH1 0x1 DUP1 PUSH1 0xA0 SHL SUB PUSH2 0x4D6 DUP2 PUSH1 0x1 SLOAD AND CALLER EQ PUSH2 0xA86 JUMP JUMPDEST PUSH2 0x4E1 DUP4 ISZERO ISZERO PUSH2 0x957 JUMP JUMPDEST DUP7 AND SWAP6 PUSH2 0x26A DUP8 ISZERO ISZERO PUSH2 0x994 JUMP JUMPDEST LT PUSH2 0x532 JUMPI POP PUSH32 0x7A9B1B90F35F094FFC6D04D86069C79E82C6A16EB600F79672428A409635DECA SWAP2 PUSH1 0x20 SWAP2 DUP5 DUP7 MSTORE PUSH1 0x3 DUP4 MSTORE PUSH1 0x1 DUP2 DUP8 KECCAK256 ADD PUSH2 0x1F7 DUP4 DUP3 SLOAD PUSH2 0xA79 JUMP JUMPDEST PUSH1 0x20 PUSH1 0x64 SWAP3 MLOAD SWAP2 PUSH3 0x461BCD PUSH1 0xE5 SHL DUP4 MSTORE DUP3 ADD MSTORE PUSH1 0x13 PUSH1 0x24 DUP3 ADD MSTORE PUSH19 0x24B739BAB33334B1B4B2B73A1036B0B933B4B7 PUSH1 0x69 SHL PUSH1 0x44 DUP3 ADD MSTORE REVERT JUMPDEST POP POP CALLVALUE PUSH2 0x174 JUMPI PUSH1 0x20 CALLDATASIZE PUSH1 0x3 NOT ADD SLT PUSH2 0x174 JUMPI PUSH1 0x20 SWAP2 PUSH1 0x1 SWAP1 DUP3 SWAP1 PUSH1 0x1 PUSH1 0x1 PUSH1 0xA0 SHL SUB PUSH2 0x595 PUSH2 0x875 JUMP JUMPDEST AND DUP2 MSTORE PUSH1 0x3 DUP6 MSTORE KECCAK256 ADD SLOAD SWAP1 MLOAD SWAP1 DUP2 MSTORE RETURN JUMPDEST POP CALLVALUE PUSH2 0x147 JUMPI PUSH1 0x20 CALLDATASIZE PUSH1 0x3 NOT ADD SLT PUSH2 0x147 JUMPI PUSH2 0x5C0 PUSH2 0x875 JUMP JUMPDEST DUP4 SLOAD PUSH1 0x1 PUSH1 0x1 PUSH1 0xA0 SHL SUB SWAP2 SWAP1 PUSH2 0x5D9 SWAP1 DUP4 AND CALLER EQ PUSH2 0x890 JUMP JUMPDEST AND SWAP2 DUP3 ISZERO PUSH2 0x5FE JUMPI POP POP PUSH12 0xFFFFFFFFFFFFFFFFFFFFFFFF PUSH1 0xA0 SHL PUSH1 0x1 SLOAD AND OR PUSH1 0x1 SSTORE DUP1 RETURN JUMPDEST SWAP1 PUSH1 0x20 PUSH1 0x64 SWAP3 MLOAD SWAP2 PUSH3 0x461BCD PUSH1 0xE5 SHL DUP4 MSTORE DUP3 ADD MSTORE PUSH1 0xC PUSH1 0x24 DUP3 ADD MSTORE PUSH12 0x496E76616C69642076616D6D PUSH1 0xA0 SHL PUSH1 0x44 DUP3 ADD MSTORE REVERT JUMPDEST POP CALLVALUE PUSH2 0x147 JUMPI DUP2 PUSH1 0x3 NOT CALLDATASIZE ADD SLT PUSH2 0x147 JUMPI PUSH2 0x649 PUSH2 0x875 JUMP JUMPDEST PUSH1 0x24 CALLDATALOAD PUSH2 0x657 DUP2 ISZERO ISZERO PUSH2 0x957 JUMP JUMPDEST PUSH1 0x1 PUSH1 0x1 PUSH1 0xA0 SHL SUB DUP3 DUP2 AND SWAP4 SWAP1 PUSH2 0x66F DUP6 ISZERO ISZERO PUSH2 0x994 JUMP JUMPDEST DUP5 DUP8 MSTORE PUSH1 0x20 SWAP4 PUSH1 0x3 DUP6 MSTORE DUP4 DUP8 DUP10 KECCAK256 SLOAD LT PUSH2 0x777 JUMPI PUSH2 0x68D DUP5 SWAP2 PUSH2 0x907 JUMP JUMPDEST LT PUSH2 0x734 JUMPI DUP5 PUSH1 0x44 DUP6 SWAP3 DUP3 DUP11 MSTORE PUSH1 0x3 DUP5 MSTORE DUP9 DUP11 KECCAK256 PUSH2 0x6AC DUP8 DUP3 SLOAD PUSH2 0x8FA JUMP JUMPDEST SWAP1 SSTORE PUSH1 0x2 SLOAD AND SWAP4 DUP10 DUP10 MLOAD SWAP6 DUP7 SWAP5 DUP6 SWAP4 PUSH4 0xA9059CBB PUSH1 0xE0 SHL DUP6 MSTORE DUP5 ADD MSTORE DUP8 PUSH1 0x24 DUP5 ADD MSTORE GAS CALL SWAP1 DUP2 ISZERO PUSH2 0x72A JUMPI PUSH32 0xC30FCFBCAAC9E0DEFFA719714EAA82396FF506A0D0D0EEBE170830177288715D SWAP5 SWAP6 SWAP2 PUSH2 0x70B SWAP2 DUP9 SWAP2 PUSH2 0x713 JUMPI POP PUSH2 0xA3B JUMP JUMPDEST MLOAD SWAP1 DUP2 MSTORE LOG2 DUP1 RETURN JUMPDEST PUSH2 0x37A SWAP2 POP DUP6 RETURNDATASIZE DUP8 GT PUSH2 0x380 JUMPI PUSH2 0x372 DUP2 DUP4 PUSH2 0xA01 JUMP JUMPDEST DUP6 MLOAD RETURNDATASIZE DUP9 DUP3 RETURNDATACOPY RETURNDATASIZE SWAP1 REVERT JUMPDEST DUP6 MLOAD PUSH3 0x461BCD PUSH1 0xE5 SHL DUP2 MSTORE DUP1 DUP4 ADD DUP6 SWAP1 MSTORE PUSH1 0x1D PUSH1 0x24 DUP3 ADD MSTORE PUSH32 0x496E73756666696369656E7420617661696C61626C65206D617267696E000000 PUSH1 0x44 DUP3 ADD MSTORE PUSH1 0x64 SWAP1 REVERT JUMPDEST DUP7 MLOAD PUSH3 0x461BCD PUSH1 0xE5 SHL DUP2 MSTORE DUP1 DUP5 ADD DUP7 SWAP1 MSTORE PUSH1 0x17 PUSH1 0x24 DUP3 ADD MSTORE PUSH32 0x496E73756666696369656E7420636F6C6C61746572616C000000000000000000 PUSH1 0x44 DUP3 ADD MSTORE PUSH1 0x64 SWAP1 REVERT JUMPDEST POP POP CALLVALUE PUSH2 0x174 JUMPI PUSH1 0x20 CALLDATASIZE PUSH1 0x3 NOT ADD SLT PUSH2 0x174 JUMPI PUSH1 0x20 SWAP2 DUP2 SWAP1 PUSH1 0x1 PUSH1 0x1 PUSH1 0xA0 SHL SUB PUSH2 0x7E2 PUSH2 0x875 JUMP JUMPDEST AND DUP2 MSTORE PUSH1 0x3 DUP5 MSTORE KECCAK256 SLOAD SWAP1 MLOAD SWAP1 DUP2 MSTORE RETURN JUMPDEST SWAP2 POP POP CALLVALUE PUSH2 0x147 JUMPI PUSH1 0x20 CALLDATASIZE PUSH1 0x3 NOT ADD SLT PUSH2 0x147 JUMPI DUP3 DUP3 SWAP2 PUSH1 0x60 SWAP5 DUP4 PUSH2 0x815 PUSH2 0x875 JUMP JUMPDEST SWAP3 PUSH2 0x81F DUP2 PUSH2 0x9CF JUMP JUMPDEST DUP3 DUP2 MSTORE DUP3 PUSH1 0x20 DUP3 ADD MSTORE ADD MSTORE PUSH1 0x1 DUP1 PUSH1 0xA0 SHL SUB AND DUP2 MSTORE PUSH1 0x3 PUSH1 0x20 MSTORE KECCAK256 SWAP1 DUP1 MLOAD PUSH2 0x846 DUP2 PUSH2 0x9CF JUMP JUMPDEST DUP3 SLOAD SWAP3 DUP4 DUP3 MSTORE DUP3 PUSH1 0x2 PUSH1 0x1 DUP4 ADD SLOAD SWAP3 PUSH1 0x20 DUP6 ADD SWAP4 DUP5 MSTORE ADD SLOAD SWAP3 ADD SWAP2 DUP3 MSTORE DUP3 MLOAD SWAP4 DUP5 MSTORE MLOAD PUSH1 0x20 DUP5 ADD MSTORE MLOAD SWAP1 DUP3 ADD MSTORE RETURN JUMPDEST PUSH1 0x4 CALLDATALOAD SWAP1 PUSH1 0x1 PUSH1 0x1 PUSH1 0xA0 SHL SUB DUP3 AND DUP3 SUB PUSH2 0x88B JUMPI JUMP JUMPDEST PUSH1 0x0 DUP1 REVERT JUMPDEST ISZERO PUSH2 0x897 JUMPI JUMP JUMPDEST PUSH1 0x40 MLOAD PUSH3 0x461BCD PUSH1 0xE5 SHL DUP2 MSTORE PUSH1 0x20 PUSH1 0x4 DUP3 ADD MSTORE PUSH1 0x9 PUSH1 0x24 DUP3 ADD MSTORE PUSH9 0x2737BA1037BBB732B9 PUSH1 0xB9 SHL PUSH1 0x44 DUP3 ADD MSTORE PUSH1 0x64 SWAP1 REVERT JUMPDEST SWAP2 SWAP1 SWAP2 PUSH1 0x0 DUP4 DUP3 ADD SWAP4 DUP5 SLT SWAP2 SLT SWAP1 DUP1 ISZERO DUP3 AND SWAP2 ISZERO AND OR PUSH2 0x8E4 JUMPI JUMP JUMPDEST PUSH4 0x4E487B71 PUSH1 0xE0 SHL PUSH1 0x0 MSTORE PUSH1 0x11 PUSH1 0x4 MSTORE PUSH1 0x24 PUSH1 0x0 REVERT JUMPDEST SWAP2 SWAP1 DUP3 SUB SWAP2 DUP3 GT PUSH2 0x8E4 JUMPI JUMP JUMPDEST PUSH1 0x1 PUSH1 0x1 PUSH1 0xA0 SHL SUB AND PUSH1 0x0 SWAP1 DUP2 MSTORE PUSH1 0x3 PUSH1 0x20 MSTORE PUSH1 0x40 SWAP1 KECCAK256 DUP1 SLOAD PUSH1 0x2 DUP3 ADD SLOAD PUSH2 0x92E SWAP2 PUSH2 0x8C8 JUMP JUMPDEST SWAP1 PUSH1 0x0 DUP3 SGT ISZERO PUSH2 0x950 JUMPI PUSH1 0x1 ADD SLOAD DUP1 DUP3 GT ISZERO PUSH2 0x950 JUMPI PUSH2 0x94D SWAP2 PUSH2 0x8FA JUMP JUMPDEST SWAP1 JUMP JUMPDEST POP POP PUSH1 0x0 SWAP1 JUMP JUMPDEST ISZERO PUSH2 0x95E JUMPI JUMP JUMPDEST PUSH1 0x40 MLOAD PUSH3 0x461BCD PUSH1 0xE5 SHL DUP2 MSTORE PUSH1 0x20 PUSH1 0x4 DUP3 ADD MSTORE PUSH1 0xE PUSH1 0x24 DUP3 ADD MSTORE PUSH14 0x125B9D985B1A5908185B5BDD5B9D PUSH1 0x92 SHL PUSH1 0x44 DUP3 ADD MSTORE PUSH1 0x64 SWAP1 REVERT JUMPDEST ISZERO PUSH2 0x99B JUMPI JUMP JUMPDEST PUSH1 0x40 MLOAD PUSH3 0x461BCD PUSH1 0xE5 SHL DUP2 MSTORE PUSH1 0x20 PUSH1 0x4 DUP3 ADD MSTORE PUSH1 0xC PUSH1 0x24 DUP3 ADD MSTORE PUSH12 0x24B73B30B634B2103AB9B2B9 PUSH1 0xA1 SHL PUSH1 0x44 DUP3 ADD MSTORE PUSH1 0x64 SWAP1 REVERT JUMPDEST PUSH1 0x60 DUP2 ADD SWAP1 DUP2 LT PUSH8 0xFFFFFFFFFFFFFFFF DUP3 GT OR PUSH2 0x9EB JUMPI PUSH1 0x40 MSTORE JUMP JUMPDEST PUSH4 0x4E487B71 PUSH1 0xE0 SHL PUSH1 0x0 MSTORE PUSH1 0x41 PUSH1 0x4 MSTORE PUSH1 0x24 PUSH1 0x0 REVERT JUMPDEST SWAP1 PUSH1 0x1F DUP1 NOT SWAP2 ADD AND DUP2 ADD SWAP1 DUP2 LT PUSH8 0xFFFFFFFFFFFFFFFF DUP3 GT OR PUSH2 0x9EB JUMPI PUSH1 0x40 MSTORE JUMP JUMPDEST SWAP1 DUP2 PUSH1 0x20 SWAP2 SUB SLT PUSH2 0x88B JUMPI MLOAD DUP1 ISZERO ISZERO DUP2 SUB PUSH2 0x88B JUMPI SWAP1 JUMP JUMPDEST ISZERO PUSH2 0xA42 JUMPI JUMP JUMPDEST PUSH1 0x40 MLOAD PUSH3 0x461BCD PUSH1 0xE5 SHL DUP2 MSTORE PUSH1 0x20 PUSH1 0x4 DUP3 ADD MSTORE PUSH1 0xF PUSH1 0x24 DUP3 ADD MSTORE PUSH15 0x151C985B9CD9995C8819985A5B1959 PUSH1 0x8A SHL PUSH1 0x44 DUP3 ADD MSTORE PUSH1 0x64 SWAP1 REVERT JUMPDEST SWAP2 SWAP1 DUP3 ADD DUP1 SWAP3 GT PUSH2 0x8E4 JUMPI JUMP JUMPDEST ISZERO PUSH2 0xA8D JUMPI JUMP JUMPDEST PUSH1 0x40 MLOAD PUSH3 0x461BCD PUSH1 0xE5 SHL DUP2 MSTORE PUSH1 0x20 PUSH1 0x4 DUP3 ADD MSTORE PUSH1 0x8 PUSH1 0x24 DUP3 ADD MSTORE PUSH8 0x4E6F742076616D6D PUSH1 0xC0 SHL PUSH1 0x44 DUP3 ADD MSTORE PUSH1 0x64 SWAP1 REVERT INVALID LOG2 PUSH5 0x6970667358 0x22 SLT KECCAK256 NUMBER SLOAD CODESIZE 0xDC 0xD7 AND ISZERO SWAP9 0x5E PUSH11 0xC6CCFC7853363F3CBF3E8F 0xB2 0xD6 DUP7 0x2B 0xCC 0xAE SWAP2 0xEA 0xB6 EXTCODEHASH 0xF8 PUSH5 0x736F6C6343 STOP ADDMOD EQ STOP CALLER "},"methodIdentifiers":{"collateralToken()":"b2016bd4","depositCollateral(address,uint256)":"a5d5db0c","getAvailableMargin(address)":"c1c7c9dd","getCollateralBalance(address)":"2703ee85","getMarginAccount(address)":"002bc164","getReservedMargin(address)":"649c0763","getTotalMargin(address)":"c90ba3a6","owner()":"8da5cb5b","releaseMargin(address,uint256)":"9101e5b3","reserveMargin(address,uint256)":"7569f4c8","setVamm(address)":"5d773174","transferOwnership(address)":"f2fde38b","updatePnL(address,int256)":"cb625680","vamm()":"e098372c","withdrawCollateral(address,uint256)":"350c35e9"}}}}}