{"contracts/SimpleVAMM.sol":{"SimpleVAMM":{"abi":[{"inputs":[{"internalType":"address","name":"_vault","type":"address"},{"internalType":"address","name":"_oracle","type":"address"},{"internalType":"uint256","name":"_initialPrice","type":"uint256"}],"stateMutability":"nonpayable","type":"constructor"},{"anonymous":false,"inputs":[{"indexed":true,"internalType":"address","name":"account","type":"address"}],"name":"AuthorizedAdded","type":"event"},{"anonymous":false,"inputs":[{"indexed":true,"internalType":"address","name":"account","type":"address"}],"name":"AuthorizedRemoved","type":"event"},{"anonymous":false,"inputs":[{"indexed":true,"internalType":"address","name":"user","type":"address"},{"indexed":true,"internalType":"uint256","name":"positionId","type":"uint256"},{"indexed":false,"internalType":"uint256","name":"size","type":"uint256"},{"indexed":false,"internalType":"uint256","name":"price","type":"uint256"},{"indexed":false,"internalType":"int256","name":"pnl","type":"int256"}],"name":"PositionClosed","type":"event"},{"anonymous":false,"inputs":[{"indexed":true,"internalType":"address","name":"user","type":"address"},{"indexed":true,"internalType":"uint256","name":"positionId","type":"uint256"},{"indexed":false,"internalType":"bool","name":"isLong","type":"bool"},{"indexed":false,"internalType":"uint256","name":"size","type":"uint256"},{"indexed":false,"internalType":"uint256","name":"price","type":"uint256"},{"indexed":false,"internalType":"uint256","name":"leverage","type":"uint256"}],"name":"PositionOpened","type":"event"},{"anonymous":false,"inputs":[{"indexed":false,"internalType":"uint256","name":"newPrice","type":"uint256"},{"indexed":false,"internalType":"int256","name":"netPosition","type":"int256"}],"name":"PriceUpdated","type":"event"},{"inputs":[],"name":"BASIS_POINTS","outputs":[{"internalType":"uint256","name":"","type":"uint256"}],"stateMutability":"view","type":"function"},{"inputs":[],"name":"MAX_LEVERAGE","outputs":[{"internalType":"uint256","name":"","type":"uint256"}],"stateMutability":"view","type":"function"},{"inputs":[],"name":"MIN_LEVERAGE","outputs":[{"internalType":"uint256","name":"","type":"uint256"}],"stateMutability":"view","type":"function"},{"inputs":[],"name":"PRICE_PRECISION","outputs":[{"internalType":"uint256","name":"","type":"uint256"}],"stateMutability":"view","type":"function"},{"inputs":[{"internalType":"address","name":"account","type":"address"}],"name":"addAuthorized","outputs":[],"stateMutability":"nonpayable","type":"function"},{"inputs":[{"internalType":"address","name":"","type":"address"}],"name":"authorized","outputs":[{"internalType":"bool","name":"","type":"bool"}],"stateMutability":"view","type":"function"},{"inputs":[],"name":"baseVirtualBaseReserves","outputs":[{"internalType":"uint256","name":"","type":"uint256"}],"stateMutability":"view","type":"function"},{"inputs":[],"name":"baseVirtualQuoteReserves","outputs":[{"internalType":"uint256","name":"","type":"uint256"}],"stateMutability":"view","type":"function"},{"inputs":[{"internalType":"uint256","name":"positionId","type":"uint256"},{"internalType":"uint256","name":"sizeToClose","type":"uint256"},{"internalType":"uint256","name":"minPrice","type":"uint256"},{"internalType":"uint256","name":"maxPrice","type":"uint256"}],"name":"closePosition","outputs":[{"internalType":"int256","name":"pnl","type":"int256"}],"stateMutability":"nonpayable","type":"function"},{"inputs":[{"internalType":"address","name":"user","type":"address"},{"internalType":"uint256","name":"positionId","type":"uint256"},{"internalType":"bool","name":"isOpenEvent","type":"bool"},{"internalType":"bool","name":"isLong","type":"bool"},{"internalType":"uint256","name":"size","type":"uint256"},{"internalType":"uint256","name":"price","type":"uint256"},{"internalType":"uint256","name":"leverageOrPnL","type":"uint256"}],"name":"emitPositionEvent","outputs":[],"stateMutability":"nonpayable","type":"function"},{"inputs":[],"name":"emitTestPositionEvents","outputs":[],"stateMutability":"nonpayable","type":"function"},{"inputs":[],"name":"getEffectiveReserves","outputs":[{"internalType":"uint256","name":"baseReserves","type":"uint256"},{"internalType":"uint256","name":"quoteReserves","type":"uint256"}],"stateMutability":"view","type":"function"},{"inputs":[],"name":"getMarkPrice","outputs":[{"internalType":"uint256","name":"","type":"uint256"}],"stateMutability":"view","type":"function"},{"inputs":[],"name":"getMarketSummary","outputs":[{"internalType":"uint256","name":"markPrice","type":"uint256"},{"internalType":"int256","name":"netPositionSize","type":"int256"},{"internalType":"uint256","name":"totalLongSizeUint","type":"uint256"},{"internalType":"uint256","name":"totalShortSizeUint","type":"uint256"},{"internalType":"uint256","name":"baseReserves","type":"uint256"},{"internalType":"uint256","name":"quoteReserves","type":"uint256"}],"stateMutability":"view","type":"function"},{"inputs":[{"internalType":"uint256","name":"positionId","type":"uint256"}],"name":"getPosition","outputs":[{"components":[{"internalType":"uint256","name":"positionId","type":"uint256"},{"internalType":"int256","name":"size","type":"int256"},{"internalType":"bool","name":"isLong","type":"bool"},{"internalType":"uint256","name":"entryPrice","type":"uint256"},{"internalType":"uint256","name":"entryFundingIndex","type":"uint256"},{"internalType":"uint256","name":"lastInteractionTime","type":"uint256"},{"internalType":"bool","name":"isActive","type":"bool"}],"internalType":"struct ISimpleVAMM.Position","name":"","type":"tuple"}],"stateMutability":"view","type":"function"},{"inputs":[{"internalType":"uint256","name":"size","type":"uint256"},{"internalType":"bool","name":"isLong","type":"bool"}],"name":"getPriceImpact","outputs":[{"internalType":"uint256","name":"","type":"uint256"}],"stateMutability":"view","type":"function"},{"inputs":[{"internalType":"uint256","name":"positionId","type":"uint256"}],"name":"getUnrealizedPnL","outputs":[{"internalType":"int256","name":"","type":"int256"}],"stateMutability":"view","type":"function"},{"inputs":[{"internalType":"address","name":"user","type":"address"}],"name":"getUserPositions","outputs":[{"components":[{"internalType":"uint256","name":"positionId","type":"uint256"},{"internalType":"int256","name":"size","type":"int256"},{"internalType":"bool","name":"isLong","type":"bool"},{"internalType":"uint256","name":"entryPrice","type":"uint256"},{"internalType":"uint256","name":"entryFundingIndex","type":"uint256"},{"internalType":"uint256","name":"lastInteractionTime","type":"uint256"},{"internalType":"bool","name":"isActive","type":"bool"}],"internalType":"struct ISimpleVAMM.Position[]","name":"","type":"tuple[]"}],"stateMutability":"view","type":"function"},{"inputs":[],"name":"globalPositionId","outputs":[{"internalType":"uint256","name":"","type":"uint256"}],"stateMutability":"view","type":"function"},{"inputs":[],"name":"maintenanceMarginRatio","outputs":[{"internalType":"uint256","name":"","type":"uint256"}],"stateMutability":"view","type":"function"},{"inputs":[],"name":"maxReserveMultiplier","outputs":[{"internalType":"uint256","name":"","type":"uint256"}],"stateMutability":"view","type":"function"},{"inputs":[],"name":"minReserveMultiplier","outputs":[{"internalType":"uint256","name":"","type":"uint256"}],"stateMutability":"view","type":"function"},{"inputs":[],"name":"netPosition","outputs":[{"internalType":"int256","name":"","type":"int256"}],"stateMutability":"view","type":"function"},{"inputs":[{"internalType":"uint256","name":"collateralAmount","type":"uint256"},{"internalType":"bool","name":"isLong","type":"bool"},{"internalType":"uint256","name":"leverage","type":"uint256"},{"internalType":"uint256","name":"minPrice","type":"uint256"},{"internalType":"uint256","name":"maxPrice","type":"uint256"}],"name":"openPosition","outputs":[{"internalType":"uint256","name":"positionId","type":"uint256"}],"stateMutability":"nonpayable","type":"function"},{"inputs":[],"name":"oracle","outputs":[{"internalType":"contract ISimplePriceOracle","name":"","type":"address"}],"stateMutability":"view","type":"function"},{"inputs":[],"name":"owner","outputs":[{"internalType":"address","name":"","type":"address"}],"stateMutability":"view","type":"function"},{"inputs":[{"internalType":"uint256","name":"","type":"uint256"}],"name":"positionOwner","outputs":[{"internalType":"address","name":"","type":"address"}],"stateMutability":"view","type":"function"},{"inputs":[{"internalType":"uint256","name":"","type":"uint256"}],"name":"positions","outputs":[{"internalType":"uint256","name":"positionId","type":"uint256"},{"internalType":"int256","name":"size","type":"int256"},{"internalType":"bool","name":"isLong","type":"bool"},{"internalType":"uint256","name":"entryPrice","type":"uint256"},{"internalType":"uint256","name":"entryFundingIndex","type":"uint256"},{"internalType":"uint256","name":"lastInteractionTime","type":"uint256"},{"internalType":"bool","name":"isActive","type":"bool"}],"stateMutability":"view","type":"function"},{"inputs":[{"internalType":"address","name":"account","type":"address"}],"name":"removeAuthorized","outputs":[],"stateMutability":"nonpayable","type":"function"},{"inputs":[],"name":"totalLongSize","outputs":[{"internalType":"int256","name":"","type":"int256"}],"stateMutability":"view","type":"function"},{"inputs":[],"name":"totalShortSize","outputs":[{"internalType":"int256","name":"","type":"int256"}],"stateMutability":"view","type":"function"},{"inputs":[],"name":"tradingFeeRate","outputs":[{"internalType":"uint256","name":"","type":"uint256"}],"stateMutability":"view","type":"function"},{"inputs":[{"internalType":"address","name":"newOwner","type":"address"}],"name":"transferOwnership","outputs":[],"stateMutability":"nonpayable","type":"function"},{"inputs":[{"internalType":"uint256","name":"_volumeScaleFactor","type":"uint256"}],"name":"updateSensitivity","outputs":[],"stateMutability":"nonpayable","type":"function"},{"inputs":[{"internalType":"address","name":"","type":"address"},{"internalType":"uint256","name":"","type":"uint256"}],"name":"userPositionIds","outputs":[{"internalType":"uint256","name":"","type":"uint256"}],"stateMutability":"view","type":"function"},{"inputs":[],"name":"vault","outputs":[{"internalType":"contract ISimpleVault","name":"","type":"address"}],"stateMutability":"view","type":"function"},{"inputs":[],"name":"volumeScaleFactor","outputs":[{"internalType":"uint256","name":"","type":"uint256"}],"stateMutability":"view","type":"function"}],"evm":{"bytecode":{"linkReferences":{},"object":"6080346200010157601f62001c8338819003918201601f19168301916001600160401b03831184841017620001065780849260609460405283398101031262000101576200004d816200011c565b9060406200005e602083016200011c565b91015190601e6003556101f4600455670de0b6b3a76400009283600555603260075583600855678ac7230489e800006009556001600d5560018060a01b0319913383600054161760005560018060a01b038092168360015416176001551690600254161760025581810290808204831490151715620000eb5704600655604051611b519081620001328239f35b634e487b7160e01b600052601160045260246000fd5b600080fd5b634e487b7160e01b600052604160045260246000fd5b51906001600160a01b0382168203620001015756fe60806040818152600436101561001457600080fd5b60009160e08335811c918263022f84b7146116a8575081630965c48f1461154c5781630f2590131461152b5781632a6bc2dd146112f357816334c1557d146112d757816344f88097146112b8578163485d7d94146112495781635bf804af1461122a578163604096321461120d578163612766c7146110955781636e33531b14610c265781636e7f1e4614610bff5781637b6eb9b614610ba95781637da21dea14610b8a5781637dc0d1d014610b61578163833b0acb14610b4257816383acb48a14610b235781638da5cb5b14610afb57816395082d2514610ad857816399fbab8814610a635781639b45ec9714610a475781639fc15e78146109c8578163add3fad1146109a9578163b3060d3614610974578163b5e5537714610955578163b918161114610917578163bf6268f2146108f8578163ca414882146108a7578163cf1c316a146107ec578163d2e7b978146106b6578163e01df1a814610697578163e1f1c4a71461067a578163eaf1f1e614610310578163eb02c3011461028357508063f257b32e14610265578063f2fde38b146101e65763fbfa77cf146101bb57600080fd5b346101e257816003193601126101e25760015490516001600160a01b039091168152602090f35b5080fd5b50346101e25760203660031901126101e2576102006116c4565b8254906001600160a01b03906102193383851614611a53565b1691821561023257506001600160a01b03191617815580f35b5162461bcd60e51b815260206004820152600d60248201526c24b73b30b634b21037bbb732b960991b6044820152606490fd5b50346101e257816003193601126101e257602090600d549051908152f35b82843461030d57602036600319011261030d578161030b916102a36119a6565b506004358152600a602052209160ff60068251946102c0866118ce565b8054865260018101546020870152826002820154161515848701526003810154606087015260048101546080870152600581015460a0870152015416151560c08401525180926116ee565bf35b80fd5b82843461030d5760a036600319011261030d576004359161032f6116df565b8315610641576001604435101580610634575b156105fd5761035360443585611761565b9361038b61035f6117aa565b91606435831015806105f1575b61037590611891565b61271061038460035489611761565b04906117d9565b6001546001600160a01b031690813b156105ed578451630ead3e9960e31b815233600482015260248101919091529085908290604490829084905af180156105e3579085916105cb575b5050600d54936103e485611936565b600d5582156105b7576103f986600e54611945565b600e555b61040c600e54600f5490611961565b6010556104a9845161041d816118ce565b868152600687602083018a8152888401881515815260608501888152610481608087019289845260a088019442865260c0890196600188528b52600a6020528d8b2098518955516001890155511515600288019060ff801983541691151516179055565b51600386015551600485015551600584015551151591019060ff801983541691151516179055565b600c602052838120336bffffffffffffffffffffffff60a01b825416179055338152600b602052838120805491680100000000000000008310156105a35750926020969261053c8761052385829860017f5cf8fa4a8e333990018876ad3a82065e68b3859d46c3198b692b77fc3043808b98018155611733565b90919082549060031b91821b91600019901b1916179055565b85519115158252602082019390935260408101929092526044356060830152339180608081015b0390a37f31423be1df71d4ecba11d1051d8033416ed316d601c79812e7cd8103e35b88a0816105906117aa565b601054825191825286820152a151908152f35b634e487b7160e01b81526041600452602490fd5b6105c386600f54611945565b600f556103fd565b6105d490611900565b6105df5783866103d5565b8380fd5b84513d87823e3d90fd5b8580fd5b5060843583111561036c565b815162461bcd60e51b815260206004820152601060248201526f496e76616c6964206c6576657261676560801b6044820152606490fd5b5060326044351115610342565b815162461bcd60e51b8152602060048201526012602482015271125b9d985b1a590818dbdb1b185d195c985b60721b6044820152606490fd5b5050346101e257816003193601126101e257602090516127108152f35b5050346101e257816003193601126101e2576020906003549051908152f35b5050346101e257806003193601126101e2576004356106d36116df565b906106dc6117aa565b916106e56117f3565b9290911561079c5764e8d4a5100090818102918183041490151715610788578082111561077e57610715916117e6565b905b670de0b6b3a76400009081810291818304149015171561076a576020949161073e9161178a565b905b508181111561075b5790610753916117e6565b905b51908152f35b610764916117e6565b90610755565b634e487b7160e01b85526011600452602485fd5b5060011c90610717565b634e487b7160e01b86526011600452602486fd5b9064e8d4a510009182810292818404149015171561078857906107be916117d9565b90670de0b6b3a76400009081810291818304149015171561076a57602094916107e69161178a565b90610740565b5050346101e25760203660031901126101e2576108076116c4565b82546001600160a01b0391906108209083163314611ad7565b169081156108645781835260116020528220805460ff191660011790557fdd10d14f6ac19e913d4edbb11fd30661531e2ccd0d23f571e9b224f001f0dd068280a280f35b5162461bcd60e51b815260206004820152601b60248201527f53696d706c6556414d4d3a20696e76616c6964206164647265737300000000006044820152606490fd5b5050346101e257816003193601126101e25760c0906108c46117aa565b90601054600e54600f54906108d76117f3565b949093815196875260208701528501526060840152608083015260a0820152f35b5050346101e257816003193601126101e257602090600f549051908152f35b5050346101e25760203660031901126101e25760209160ff9082906001600160a01b036109426116c4565b1681526011855220541690519015158152f35b5050346101e257816003193601126101e2576020906007549051908152f35b5050346101e25760203660031901126101e2576004358252600c6020908152918190205490516001600160a01b039091168152f35b5050346101e257816003193601126101e2576020906005549051908152f35b5050346101e25760203660031901126101e257600435906109f360018060a01b038454163314611a53565b81151580610a3b575b15610a08575060075580f35b5162461bcd60e51b815260206004820152600d60248201526c496e76616c6964207363616c6560981b6044820152606490fd5b506103e88211156109fc565b5050346101e257816003193601126101e2576020905160328152f35b82843461030d57602036600319011261030d5781906004358152600a602052209081549160018101549160ff6002830154169060038301549060048401549260ff600660058701549601541695825197885260208801521515908601526060850152608084015260a0830152151560c0820152f35b5050346101e257816003193601126101e25760209051670de0b6b3a76400008152f35b5050346101e257816003193601126101e257905490516001600160a01b039091168152602090f35b5050346101e257816003193601126101e2576020906004549051908152f35b5050346101e257816003193601126101e2576020906010549051908152f35b5050346101e257816003193601126101e25760025490516001600160a01b039091168152602090f35b5050346101e257816003193601126101e2576020906009549051908152f35b5050346101e257806003193601126101e257610bc36116c4565b6001600160a01b03168252600b6020528082208054602435939084101561030d5750602092610bf191611733565b91905490519160031b1c8152f35b82843461030d578060031936011261030d5750610c1a6117f3565b82519182526020820152f35b5050346101e25760803660031901126101e25760043591602491823593808352602094600c865260018060a01b03808486205416330361105d57828552600a875283852094600686019660ff885416156110255760019788880193845491828711610ff357610c936117aa565b9560443587101580610fe7575b610ca990611891565b670de0b6b3a764000060ff60028d0154169b888d600014610fcf5750610cd66003610cdc9201548a6117e6565b8a611761565b049a5b15610fbb57610cf088600e54611961565b600e555b610d03600e54600f5490611961565b601055878403610f9c5750805460ff19169055338452600b8b52878420848b5b610ecd575b50509091929394959697985b612710610d4360035489611761565b04610d5283835416918c611961565b813b15610ec9578691604483928d519485938492630196c4ad60e71b84523360048501528b8401525af18015610ebf57610eac575b50541691898851809263649c076360e01b825233600483015281865afa908115610ea2579086918591610e6f575b50610dc99291610dc491611761565b61178a565b813b15610e6b578651639101e5b360e01b815233600482015260248101919091529082908290604490829084905af18015610e615790879291610e49575b505084519283526020830191909152604082015233907f398340331999d3ec20eba0ca6ed7fff4090f1906a8f6dfa8d96b3c4708155005908060608101610563565b819250610e5590611900565b61030d57808691610e07565b86513d84823e3d90fd5b8280fd5b8092508b8092503d8311610e9b575b610e888183611914565b810103126105df57518590610dc9610db5565b503d610e7e565b88513d86823e3d90fd5b610eb890959195611900565b9338610d87565b8a513d88823e3d90fd5b8680fd5b815480821015610f96578990610ee38385611733565b929054600393841b1c14610f0557505090610efe8c92611936565b9091610d23565b90929160009d9495969798999a9b9c9d1991828101908111610f835790610523610f32610f3f9386611733565b905490871b1c9185611733565b81548015610f7057810192610f548484611733565b81939154921b1b19169055559897969594939291903880610d28565b634e487b7160e01b895260316004528789fd5b634e487b7160e01b8a526011600452888afd5b50610d28565b9050610fb487829c939495969798999a9b9c54611961565b9055610d34565b610fc788600f54611961565b600f55610cf4565b610cd6906003610fe09301546117e6565b049a610cdf565b50606435871115610ca0565b885162461bcd60e51b8152600481018d9052600c818601526b496e76616c69642073697a6560a01b6044820152606490fd5b88601360649288519262461bcd60e51b8452600484015282015272506f736974696f6e206e6f742061637469766560681b6044820152fd5b835162461bcd60e51b815260048101889052601281880152712737ba103837b9b4ba34b7b71037bbb732b960711b6044820152606490fd5b5050346101e257816003193601126101e2577f31423be1df71d4ecba11d1051d8033416ed316d601c79812e7cd8103e35b88a09033835260206011815260ff828520541680156111fa575b6110e990611a8b565b81516001815269021e19e0c9bab2400000808383015268056bc75e2d63100000908185840152600a6060840152620f3e59807f5cf8fa4a8e333990018876ad3a82065e68b3859d46c3198b692b77fc3043808b948560803392a385519388855269032d26d12e980b6000009384878701528786015260056060860152620f3e5a94859160803392a3855191825268068155a43676e0000085830152686c6b935b8bbd400000868301527f398340331999d3ec20eba0ca6ed7fff4090f1906a8f6dfa8d96b3c4708155005918260603392a384519182526804e1003b28d928000084830152685150ae84a8cdefffff198583015260603392a36111e96117aa565b90601054908351928352820152a180f35b5083546001600160a01b031633146110e0565b5050346101e257816003193601126101e2576020906107536117aa565b5050346101e257816003193601126101e257602090600e549051908152f35b5050346101e25760203660031901126101e2576112646116c4565b82546001600160a01b03919061127d9083163314611ad7565b168083526011602052908220805460ff191690557f0fafd0343e6c6f6985727574866da48938c918559eb9521cf9cc0d317ea0f7b48280a280f35b5050346101e257816003193601126101e2576020906008549051908152f35b5050346101e257816003193601126101e2576020905160018152f35b91905034610e6b57602090816003193601126105df576001600160a01b036113196116c4565b168452600b8252808420918151808483829654938481520190885283882092885b858282106115155750505061135192500384611914565b8492855b81518110156113a157611368818361197a565b518752600a835260ff600685892001541661138c575b61138790611936565b611355565b9361139961138791611936565b94905061137e565b5083859387926113b08361198e565b926113bd83519485611914565b8084526113cc601f199161198e565b0185855b8281106114ff575050508392845b82518110156114ac576113f1818461197a565b518652600a80885260ff6006918183888b2001541661141c575b50505061141790611936565b6113de565b918397916114a393611431611417968961197a565b518b528b52878a2091885192611446846118ce565b8054845260018101548d8501528260028201541615158a8501526003810154606085015260048101546080850152600581015460a0850152015416151560c0820152611492828661197a565b5261149d818561197a565b50611936565b9490898061140b565b508251868152815181880181905290978897948801969285019550909392505b8382106114d95786860387f35b9184965082866114ef60019496988498516116ee565b01960192018695949293916114cc565b6115076119a6565b8282880101520186906113d0565b855484526001958601958995509301920161133a565b5050346101e25760203660031901126101e2576020906107536004356119de565b905034610e6b573660031901126101e2576115656116c4565b602435916044359182151583036116a45760643580151581036105ed576084359160a43560c43591338952601160205260ff868a2054168015611691575b6115ac90611a8b565b6001600160a01b031695861561164d571561160b57935191151582526020820192909252604081019290925260608201527f5cf8fa4a8e333990018876ad3a82065e68b3859d46c3198b692b77fc3043808b9080608081015b0390a380f35b935192835260208301939093525060408101919091527f398340331999d3ec20eba0ca6ed7fff4090f1906a8f6dfa8d96b3c4708155005908060608101611605565b855162461bcd60e51b815260206004820152601860248201527f53696d706c6556414d4d3a20696e76616c6964207573657200000000000000006044820152606490fd5b5088546001600160a01b031633146115a3565b8480fd5b8490346101e257816003193601126101e2576020906006548152f35b600435906001600160a01b03821682036116da57565b600080fd5b6024359081151582036116da57565b60c080918051845260208101516020850152604081015115156040850152606081015160608501526080810151608085015260a081015160a085015201511515910152565b805482101561174b5760005260206000200190600090565b634e487b7160e01b600052603260045260246000fd5b8181029291811591840414171561177457565b634e487b7160e01b600052601160045260246000fd5b8115611794570490565b634e487b7160e01b600052601260045260246000fd5b6117b26117f3565b90670de0b6b3a764000091828102928184041490151715611774576117d69161178a565b90565b9190820180921161177457565b9190820391821161177457565b6005546006549060105460008082136000146118505764e8d4a510009182810292818404149015171561183c57508082111561183557611832916117e6565b91565b5060011c91565b634e487b7160e01b81526011600452602490fd5b80829593951261185e575050565b91939091600160ff1b831461183c578281039264e8d4a51000808502948504149015171561183c575090611832916117d9565b1561189857565b60405162461bcd60e51b815260206004820152600e60248201526d507269636520736c69707061676560901b6044820152606490fd5b60e0810190811067ffffffffffffffff8211176118ea57604052565b634e487b7160e01b600052604160045260246000fd5b67ffffffffffffffff81116118ea57604052565b90601f8019910116810190811067ffffffffffffffff8211176118ea57604052565b60001981146117745760010190565b9190916000838201938412911290801582169115161761177457565b8181039291600013801582851316918412161761177457565b805182101561174b5760209160051b010190565b67ffffffffffffffff81116118ea5760051b60200190565b604051906119b3826118ce565b8160c06000918281528260208201528260408201528260608201528260808201528260a08201520152565b600052600a602052604060002060ff60068201541615611a4d57670de0b6b3a764000090611a0a6117aa565b9060018101549060ff600282015416600014611a3c57611a38926003611a32920154906117e6565b90611761565b0490565b611a38926003611a329201546117e6565b50600090565b15611a5a57565b60405162461bcd60e51b81526020600482015260096024820152682737ba1037bbb732b960b91b6044820152606490fd5b15611a9257565b60405162461bcd60e51b815260206004820152601a60248201527f53696d706c6556414d4d3a206e6f7420617574686f72697a65640000000000006044820152606490fd5b15611ade57565b60405162461bcd60e51b815260206004820152601560248201527429b4b6b83632ab20a6a69d103737ba1037bbb732b960591b6044820152606490fdfea26469706673582212207dc4493b18b9cbec71ad4f8e220aadab21018c531647a525acac79dd7bbc535164736f6c63430008140033","opcodes":"PUSH1 0x80 CALLVALUE PUSH3 0x101 JUMPI PUSH1 0x1F PUSH3 0x1C83 CODESIZE DUP2 SWAP1 SUB SWAP2 DUP3 ADD PUSH1 0x1F NOT AND DUP4 ADD SWAP2 PUSH1 0x1 PUSH1 0x1 PUSH1 0x40 SHL SUB DUP4 GT DUP5 DUP5 LT OR PUSH3 0x106 JUMPI DUP1 DUP5 SWAP3 PUSH1 0x60 SWAP5 PUSH1 0x40 MSTORE DUP4 CODECOPY DUP2 ADD SUB SLT PUSH3 0x101 JUMPI PUSH3 0x4D DUP2 PUSH3 0x11C JUMP JUMPDEST SWAP1 PUSH1 0x40 PUSH3 0x5E PUSH1 0x20 DUP4 ADD PUSH3 0x11C JUMP JUMPDEST SWAP2 ADD MLOAD SWAP1 PUSH1 0x1E PUSH1 0x3 SSTORE PUSH2 0x1F4 PUSH1 0x4 SSTORE PUSH8 0xDE0B6B3A7640000 SWAP3 DUP4 PUSH1 0x5 SSTORE PUSH1 0x32 PUSH1 0x7 SSTORE DUP4 PUSH1 0x8 SSTORE PUSH8 0x8AC7230489E80000 PUSH1 0x9 SSTORE PUSH1 0x1 PUSH1 0xD SSTORE PUSH1 0x1 DUP1 PUSH1 0xA0 SHL SUB NOT SWAP2 CALLER DUP4 PUSH1 0x0 SLOAD AND OR PUSH1 0x0 SSTORE PUSH1 0x1 DUP1 PUSH1 0xA0 SHL SUB DUP1 SWAP3 AND DUP4 PUSH1 0x1 SLOAD AND OR PUSH1 0x1 SSTORE AND SWAP1 PUSH1 0x2 SLOAD AND OR PUSH1 0x2 SSTORE DUP2 DUP2 MUL SWAP1 DUP1 DUP3 DIV DUP4 EQ SWAP1 ISZERO OR ISZERO PUSH3 0xEB JUMPI DIV PUSH1 0x6 SSTORE PUSH1 0x40 MLOAD PUSH2 0x1B51 SWAP1 DUP2 PUSH3 0x132 DUP3 CODECOPY RETURN JUMPDEST PUSH4 0x4E487B71 PUSH1 0xE0 SHL PUSH1 0x0 MSTORE PUSH1 0x11 PUSH1 0x4 MSTORE PUSH1 0x24 PUSH1 0x0 REVERT JUMPDEST PUSH1 0x0 DUP1 REVERT JUMPDEST PUSH4 0x4E487B71 PUSH1 0xE0 SHL PUSH1 0x0 MSTORE PUSH1 0x41 PUSH1 0x4 MSTORE PUSH1 0x24 PUSH1 0x0 REVERT JUMPDEST MLOAD SWAP1 PUSH1 0x1 PUSH1 0x1 PUSH1 0xA0 SHL SUB DUP3 AND DUP3 SUB PUSH3 0x101 JUMPI JUMP INVALID PUSH1 0x80 PUSH1 0x40 DUP2 DUP2 MSTORE PUSH1 0x4 CALLDATASIZE LT ISZERO PUSH2 0x14 JUMPI PUSH1 0x0 DUP1 REVERT JUMPDEST PUSH1 0x0 SWAP2 PUSH1 0xE0 DUP4 CALLDATALOAD DUP2 SHR SWAP2 DUP3 PUSH4 0x22F84B7 EQ PUSH2 0x16A8 JUMPI POP DUP2 PUSH4 0x965C48F EQ PUSH2 0x154C JUMPI DUP2 PUSH4 0xF259013 EQ PUSH2 0x152B JUMPI DUP2 PUSH4 0x2A6BC2DD EQ PUSH2 0x12F3 JUMPI DUP2 PUSH4 0x34C1557D EQ PUSH2 0x12D7 JUMPI DUP2 PUSH4 0x44F88097 EQ PUSH2 0x12B8 JUMPI DUP2 PUSH4 0x485D7D94 EQ PUSH2 0x1249 JUMPI DUP2 PUSH4 0x5BF804AF EQ PUSH2 0x122A JUMPI DUP2 PUSH4 0x60409632 EQ PUSH2 0x120D JUMPI DUP2 PUSH4 0x612766C7 EQ PUSH2 0x1095 JUMPI DUP2 PUSH4 0x6E33531B EQ PUSH2 0xC26 JUMPI DUP2 PUSH4 0x6E7F1E46 EQ PUSH2 0xBFF JUMPI DUP2 PUSH4 0x7B6EB9B6 EQ PUSH2 0xBA9 JUMPI DUP2 PUSH4 0x7DA21DEA EQ PUSH2 0xB8A JUMPI DUP2 PUSH4 0x7DC0D1D0 EQ PUSH2 0xB61 JUMPI DUP2 PUSH4 0x833B0ACB EQ PUSH2 0xB42 JUMPI DUP2 PUSH4 0x83ACB48A EQ PUSH2 0xB23 JUMPI DUP2 PUSH4 0x8DA5CB5B EQ PUSH2 0xAFB JUMPI DUP2 PUSH4 0x95082D25 EQ PUSH2 0xAD8 JUMPI DUP2 PUSH4 0x99FBAB88 EQ PUSH2 0xA63 JUMPI DUP2 PUSH4 0x9B45EC97 EQ PUSH2 0xA47 JUMPI DUP2 PUSH4 0x9FC15E78 EQ PUSH2 0x9C8 JUMPI DUP2 PUSH4 0xADD3FAD1 EQ PUSH2 0x9A9 JUMPI DUP2 PUSH4 0xB3060D36 EQ PUSH2 0x974 JUMPI DUP2 PUSH4 0xB5E55377 EQ PUSH2 0x955 JUMPI DUP2 PUSH4 0xB9181611 EQ PUSH2 0x917 JUMPI DUP2 PUSH4 0xBF6268F2 EQ PUSH2 0x8F8 JUMPI DUP2 PUSH4 0xCA414882 EQ PUSH2 0x8A7 JUMPI DUP2 PUSH4 0xCF1C316A EQ PUSH2 0x7EC JUMPI DUP2 PUSH4 0xD2E7B978 EQ PUSH2 0x6B6 JUMPI DUP2 PUSH4 0xE01DF1A8 EQ PUSH2 0x697 JUMPI DUP2 PUSH4 0xE1F1C4A7 EQ PUSH2 0x67A JUMPI DUP2 PUSH4 0xEAF1F1E6 EQ PUSH2 0x310 JUMPI DUP2 PUSH4 0xEB02C301 EQ PUSH2 0x283 JUMPI POP DUP1 PUSH4 0xF257B32E EQ PUSH2 0x265 JUMPI DUP1 PUSH4 0xF2FDE38B EQ PUSH2 0x1E6 JUMPI PUSH4 0xFBFA77CF EQ PUSH2 0x1BB JUMPI PUSH1 0x0 DUP1 REVERT JUMPDEST CALLVALUE PUSH2 0x1E2 JUMPI DUP2 PUSH1 0x3 NOT CALLDATASIZE ADD SLT PUSH2 0x1E2 JUMPI PUSH1 0x1 SLOAD SWAP1 MLOAD PUSH1 0x1 PUSH1 0x1 PUSH1 0xA0 SHL SUB SWAP1 SWAP2 AND DUP2 MSTORE PUSH1 0x20 SWAP1 RETURN JUMPDEST POP DUP1 REVERT JUMPDEST POP CALLVALUE PUSH2 0x1E2 JUMPI PUSH1 0x20 CALLDATASIZE PUSH1 0x3 NOT ADD SLT PUSH2 0x1E2 JUMPI PUSH2 0x200 PUSH2 0x16C4 JUMP JUMPDEST DUP3 SLOAD SWAP1 PUSH1 0x1 PUSH1 0x1 PUSH1 0xA0 SHL SUB SWAP1 PUSH2 0x219 CALLER DUP4 DUP6 AND EQ PUSH2 0x1A53 JUMP JUMPDEST AND SWAP2 DUP3 ISZERO PUSH2 0x232 JUMPI POP PUSH1 0x1 PUSH1 0x1 PUSH1 0xA0 SHL SUB NOT AND OR DUP2 SSTORE DUP1 RETURN JUMPDEST MLOAD PUSH3 0x461BCD PUSH1 0xE5 SHL DUP2 MSTORE PUSH1 0x20 PUSH1 0x4 DUP3 ADD MSTORE PUSH1 0xD PUSH1 0x24 DUP3 ADD MSTORE PUSH13 0x24B73B30B634B21037BBB732B9 PUSH1 0x99 SHL PUSH1 0x44 DUP3 ADD MSTORE PUSH1 0x64 SWAP1 REVERT JUMPDEST POP CALLVALUE PUSH2 0x1E2 JUMPI DUP2 PUSH1 0x3 NOT CALLDATASIZE ADD SLT PUSH2 0x1E2 JUMPI PUSH1 0x20 SWAP1 PUSH1 0xD SLOAD SWAP1 MLOAD SWAP1 DUP2 MSTORE RETURN JUMPDEST DUP3 DUP5 CALLVALUE PUSH2 0x30D JUMPI PUSH1 0x20 CALLDATASIZE PUSH1 0x3 NOT ADD SLT PUSH2 0x30D JUMPI DUP2 PUSH2 0x30B SWAP2 PUSH2 0x2A3 PUSH2 0x19A6 JUMP JUMPDEST POP PUSH1 0x4 CALLDATALOAD DUP2 MSTORE PUSH1 0xA PUSH1 0x20 MSTORE KECCAK256 SWAP2 PUSH1 0xFF PUSH1 0x6 DUP3 MLOAD SWAP5 PUSH2 0x2C0 DUP7 PUSH2 0x18CE JUMP JUMPDEST DUP1 SLOAD DUP7 MSTORE PUSH1 0x1 DUP2 ADD SLOAD PUSH1 0x20 DUP8 ADD MSTORE DUP3 PUSH1 0x2 DUP3 ADD SLOAD AND ISZERO ISZERO DUP5 DUP8 ADD MSTORE PUSH1 0x3 DUP2 ADD SLOAD PUSH1 0x60 DUP8 ADD MSTORE PUSH1 0x4 DUP2 ADD SLOAD PUSH1 0x80 DUP8 ADD MSTORE PUSH1 0x5 DUP2 ADD SLOAD PUSH1 0xA0 DUP8 ADD MSTORE ADD SLOAD AND ISZERO ISZERO PUSH1 0xC0 DUP5 ADD MSTORE MLOAD DUP1 SWAP3 PUSH2 0x16EE JUMP JUMPDEST RETURN JUMPDEST DUP1 REVERT JUMPDEST DUP3 DUP5 CALLVALUE PUSH2 0x30D JUMPI PUSH1 0xA0 CALLDATASIZE PUSH1 0x3 NOT ADD SLT PUSH2 0x30D JUMPI PUSH1 0x4 CALLDATALOAD SWAP2 PUSH2 0x32F PUSH2 0x16DF JUMP JUMPDEST DUP4 ISZERO PUSH2 0x641 JUMPI PUSH1 0x1 PUSH1 0x44 CALLDATALOAD LT ISZERO DUP1 PUSH2 0x634 JUMPI JUMPDEST ISZERO PUSH2 0x5FD JUMPI PUSH2 0x353 PUSH1 0x44 CALLDATALOAD DUP6 PUSH2 0x1761 JUMP JUMPDEST SWAP4 PUSH2 0x38B PUSH2 0x35F PUSH2 0x17AA JUMP JUMPDEST SWAP2 PUSH1 0x64 CALLDATALOAD DUP4 LT ISZERO DUP1 PUSH2 0x5F1 JUMPI JUMPDEST PUSH2 0x375 SWAP1 PUSH2 0x1891 JUMP JUMPDEST PUSH2 0x2710 PUSH2 0x384 PUSH1 0x3 SLOAD DUP10 PUSH2 0x1761 JUMP JUMPDEST DIV SWAP1 PUSH2 0x17D9 JUMP JUMPDEST PUSH1 0x1 SLOAD PUSH1 0x1 PUSH1 0x1 PUSH1 0xA0 SHL SUB AND SWAP1 DUP2 EXTCODESIZE ISZERO PUSH2 0x5ED JUMPI DUP5 MLOAD PUSH4 0xEAD3E99 PUSH1 0xE3 SHL DUP2 MSTORE CALLER PUSH1 0x4 DUP3 ADD MSTORE PUSH1 0x24 DUP2 ADD SWAP2 SWAP1 SWAP2 MSTORE SWAP1 DUP6 SWAP1 DUP3 SWAP1 PUSH1 0x44 SWAP1 DUP3 SWAP1 DUP5 SWAP1 GAS CALL DUP1 ISZERO PUSH2 0x5E3 JUMPI SWAP1 DUP6 SWAP2 PUSH2 0x5CB JUMPI JUMPDEST POP POP PUSH1 0xD SLOAD SWAP4 PUSH2 0x3E4 DUP6 PUSH2 0x1936 JUMP JUMPDEST PUSH1 0xD SSTORE DUP3 ISZERO PUSH2 0x5B7 JUMPI PUSH2 0x3F9 DUP7 PUSH1 0xE SLOAD PUSH2 0x1945 JUMP JUMPDEST PUSH1 0xE SSTORE JUMPDEST PUSH2 0x40C PUSH1 0xE SLOAD PUSH1 0xF SLOAD SWAP1 PUSH2 0x1961 JUMP JUMPDEST PUSH1 0x10 SSTORE PUSH2 0x4A9 DUP5 MLOAD PUSH2 0x41D DUP2 PUSH2 0x18CE JUMP JUMPDEST DUP7 DUP2 MSTORE PUSH1 0x6 DUP8 PUSH1 0x20 DUP4 ADD DUP11 DUP2 MSTORE DUP9 DUP5 ADD DUP9 ISZERO ISZERO DUP2 MSTORE PUSH1 0x60 DUP6 ADD DUP9 DUP2 MSTORE PUSH2 0x481 PUSH1 0x80 DUP8 ADD SWAP3 DUP10 DUP5 MSTORE PUSH1 0xA0 DUP9 ADD SWAP5 TIMESTAMP DUP7 MSTORE PUSH1 0xC0 DUP10 ADD SWAP7 PUSH1 0x1 DUP9 MSTORE DUP12 MSTORE PUSH1 0xA PUSH1 0x20 MSTORE DUP14 DUP12 KECCAK256 SWAP9 MLOAD DUP10 SSTORE MLOAD PUSH1 0x1 DUP10 ADD SSTORE MLOAD ISZERO ISZERO PUSH1 0x2 DUP9 ADD SWAP1 PUSH1 0xFF DUP1 NOT DUP4 SLOAD AND SWAP2 ISZERO ISZERO AND OR SWAP1 SSTORE JUMP JUMPDEST MLOAD PUSH1 0x3 DUP7 ADD SSTORE MLOAD PUSH1 0x4 DUP6 ADD SSTORE MLOAD PUSH1 0x5 DUP5 ADD SSTORE MLOAD ISZERO ISZERO SWAP2 ADD SWAP1 PUSH1 0xFF DUP1 NOT DUP4 SLOAD AND SWAP2 ISZERO ISZERO AND OR SWAP1 SSTORE JUMP JUMPDEST PUSH1 0xC PUSH1 0x20 MSTORE DUP4 DUP2 KECCAK256 CALLER PUSH12 0xFFFFFFFFFFFFFFFFFFFFFFFF PUSH1 0xA0 SHL DUP3 SLOAD AND OR SWAP1 SSTORE CALLER DUP2 MSTORE PUSH1 0xB PUSH1 0x20 MSTORE DUP4 DUP2 KECCAK256 DUP1 SLOAD SWAP2 PUSH9 0x10000000000000000 DUP4 LT ISZERO PUSH2 0x5A3 JUMPI POP SWAP3 PUSH1 0x20 SWAP7 SWAP3 PUSH2 0x53C DUP8 PUSH2 0x523 DUP6 DUP3 SWAP9 PUSH1 0x1 PUSH32 0x5CF8FA4A8E333990018876AD3A82065E68B3859D46C3198B692B77FC3043808B SWAP9 ADD DUP2 SSTORE PUSH2 0x1733 JUMP JUMPDEST SWAP1 SWAP2 SWAP1 DUP3 SLOAD SWAP1 PUSH1 0x3 SHL SWAP2 DUP3 SHL SWAP2 PUSH1 0x0 NOT SWAP1 SHL NOT AND OR SWAP1 SSTORE JUMP JUMPDEST DUP6 MLOAD SWAP2 ISZERO ISZERO DUP3 MSTORE PUSH1 0x20 DUP3 ADD SWAP4 SWAP1 SWAP4 MSTORE PUSH1 0x40 DUP2 ADD SWAP3 SWAP1 SWAP3 MSTORE PUSH1 0x44 CALLDATALOAD PUSH1 0x60 DUP4 ADD MSTORE CALLER SWAP2 DUP1 PUSH1 0x80 DUP2 ADD JUMPDEST SUB SWAP1 LOG3 PUSH32 0x31423BE1DF71D4ECBA11D1051D8033416ED316D601C79812E7CD8103E35B88A0 DUP2 PUSH2 0x590 PUSH2 0x17AA JUMP JUMPDEST PUSH1 0x10 SLOAD DUP3 MLOAD SWAP2 DUP3 MSTORE DUP7 DUP3 ADD MSTORE LOG1 MLOAD SWAP1 DUP2 MSTORE RETURN JUMPDEST PUSH4 0x4E487B71 PUSH1 0xE0 SHL DUP2 MSTORE PUSH1 0x41 PUSH1 0x4 MSTORE PUSH1 0x24 SWAP1 REVERT JUMPDEST PUSH2 0x5C3 DUP7 PUSH1 0xF SLOAD PUSH2 0x1945 JUMP JUMPDEST PUSH1 0xF SSTORE PUSH2 0x3FD JUMP JUMPDEST PUSH2 0x5D4 SWAP1 PUSH2 0x1900 JUMP JUMPDEST PUSH2 0x5DF JUMPI DUP4 DUP7 PUSH2 0x3D5 JUMP JUMPDEST DUP4 DUP1 REVERT JUMPDEST DUP5 MLOAD RETURNDATASIZE DUP8 DUP3 RETURNDATACOPY RETURNDATASIZE SWAP1 REVERT JUMPDEST DUP6 DUP1 REVERT JUMPDEST POP PUSH1 0x84 CALLDATALOAD DUP4 GT ISZERO PUSH2 0x36C JUMP JUMPDEST DUP2 MLOAD PUSH3 0x461BCD PUSH1 0xE5 SHL DUP2 MSTORE PUSH1 0x20 PUSH1 0x4 DUP3 ADD MSTORE PUSH1 0x10 PUSH1 0x24 DUP3 ADD MSTORE PUSH16 0x496E76616C6964206C65766572616765 PUSH1 0x80 SHL PUSH1 0x44 DUP3 ADD MSTORE PUSH1 0x64 SWAP1 REVERT JUMPDEST POP PUSH1 0x32 PUSH1 0x44 CALLDATALOAD GT ISZERO PUSH2 0x342 JUMP JUMPDEST DUP2 MLOAD PUSH3 0x461BCD PUSH1 0xE5 SHL DUP2 MSTORE PUSH1 0x20 PUSH1 0x4 DUP3 ADD MSTORE PUSH1 0x12 PUSH1 0x24 DUP3 ADD MSTORE PUSH18 0x125B9D985B1A590818DBDB1B185D195C985B PUSH1 0x72 SHL PUSH1 0x44 DUP3 ADD MSTORE PUSH1 0x64 SWAP1 REVERT JUMPDEST POP POP CALLVALUE PUSH2 0x1E2 JUMPI DUP2 PUSH1 0x3 NOT CALLDATASIZE ADD SLT PUSH2 0x1E2 JUMPI PUSH1 0x20 SWAP1 MLOAD PUSH2 0x2710 DUP2 MSTORE RETURN JUMPDEST POP POP CALLVALUE PUSH2 0x1E2 JUMPI DUP2 PUSH1 0x3 NOT CALLDATASIZE ADD SLT PUSH2 0x1E2 JUMPI PUSH1 0x20 SWAP1 PUSH1 0x3 SLOAD SWAP1 MLOAD SWAP1 DUP2 MSTORE RETURN JUMPDEST POP POP CALLVALUE PUSH2 0x1E2 JUMPI DUP1 PUSH1 0x3 NOT CALLDATASIZE ADD SLT PUSH2 0x1E2 JUMPI PUSH1 0x4 CALLDATALOAD PUSH2 0x6D3 PUSH2 0x16DF JUMP JUMPDEST SWAP1 PUSH2 0x6DC PUSH2 0x17AA JUMP JUMPDEST SWAP2 PUSH2 0x6E5 PUSH2 0x17F3 JUMP JUMPDEST SWAP3 SWAP1 SWAP2 ISZERO PUSH2 0x79C JUMPI PUSH5 0xE8D4A51000 SWAP1 DUP2 DUP2 MUL SWAP2 DUP2 DUP4 DIV EQ SWAP1 ISZERO OR ISZERO PUSH2 0x788 JUMPI DUP1 DUP3 GT ISZERO PUSH2 0x77E JUMPI PUSH2 0x715 SWAP2 PUSH2 0x17E6 JUMP JUMPDEST SWAP1 JUMPDEST PUSH8 0xDE0B6B3A7640000 SWAP1 DUP2 DUP2 MUL SWAP2 DUP2 DUP4 DIV EQ SWAP1 ISZERO OR ISZERO PUSH2 0x76A JUMPI PUSH1 0x20 SWAP5 SWAP2 PUSH2 0x73E SWAP2 PUSH2 0x178A JUMP JUMPDEST SWAP1 JUMPDEST POP DUP2 DUP2 GT ISZERO PUSH2 0x75B JUMPI SWAP1 PUSH2 0x753 SWAP2 PUSH2 0x17E6 JUMP JUMPDEST SWAP1 JUMPDEST MLOAD SWAP1 DUP2 MSTORE RETURN JUMPDEST PUSH2 0x764 SWAP2 PUSH2 0x17E6 JUMP JUMPDEST SWAP1 PUSH2 0x755 JUMP JUMPDEST PUSH4 0x4E487B71 PUSH1 0xE0 SHL DUP6 MSTORE PUSH1 0x11 PUSH1 0x4 MSTORE PUSH1 0x24 DUP6 REVERT JUMPDEST POP PUSH1 0x1 SHR SWAP1 PUSH2 0x717 JUMP JUMPDEST PUSH4 0x4E487B71 PUSH1 0xE0 SHL DUP7 MSTORE PUSH1 0x11 PUSH1 0x4 MSTORE PUSH1 0x24 DUP7 REVERT JUMPDEST SWAP1 PUSH5 0xE8D4A51000 SWAP2 DUP3 DUP2 MUL SWAP3 DUP2 DUP5 DIV EQ SWAP1 ISZERO OR ISZERO PUSH2 0x788 JUMPI SWAP1 PUSH2 0x7BE SWAP2 PUSH2 0x17D9 JUMP JUMPDEST SWAP1 PUSH8 0xDE0B6B3A7640000 SWAP1 DUP2 DUP2 MUL SWAP2 DUP2 DUP4 DIV EQ SWAP1 ISZERO OR ISZERO PUSH2 0x76A JUMPI PUSH1 0x20 SWAP5 SWAP2 PUSH2 0x7E6 SWAP2 PUSH2 0x178A JUMP JUMPDEST SWAP1 PUSH2 0x740 JUMP JUMPDEST POP POP CALLVALUE PUSH2 0x1E2 JUMPI PUSH1 0x20 CALLDATASIZE PUSH1 0x3 NOT ADD SLT PUSH2 0x1E2 JUMPI PUSH2 0x807 PUSH2 0x16C4 JUMP JUMPDEST DUP3 SLOAD PUSH1 0x1 PUSH1 0x1 PUSH1 0xA0 SHL SUB SWAP2 SWAP1 PUSH2 0x820 SWAP1 DUP4 AND CALLER EQ PUSH2 0x1AD7 JUMP JUMPDEST AND SWAP1 DUP2 ISZERO PUSH2 0x864 JUMPI DUP2 DUP4 MSTORE PUSH1 0x11 PUSH1 0x20 MSTORE DUP3 KECCAK256 DUP1 SLOAD PUSH1 0xFF NOT AND PUSH1 0x1 OR SWAP1 SSTORE PUSH32 0xDD10D14F6AC19E913D4EDBB11FD30661531E2CCD0D23F571E9B224F001F0DD06 DUP3 DUP1 LOG2 DUP1 RETURN JUMPDEST MLOAD PUSH3 0x461BCD PUSH1 0xE5 SHL DUP2 MSTORE PUSH1 0x20 PUSH1 0x4 DUP3 ADD MSTORE PUSH1 0x1B PUSH1 0x24 DUP3 ADD MSTORE PUSH32 0x53696D706C6556414D4D3A20696E76616C696420616464726573730000000000 PUSH1 0x44 DUP3 ADD MSTORE PUSH1 0x64 SWAP1 REVERT JUMPDEST POP POP CALLVALUE PUSH2 0x1E2 JUMPI DUP2 PUSH1 0x3 NOT CALLDATASIZE ADD SLT PUSH2 0x1E2 JUMPI PUSH1 0xC0 SWAP1 PUSH2 0x8C4 PUSH2 0x17AA JUMP JUMPDEST SWAP1 PUSH1 0x10 SLOAD PUSH1 0xE SLOAD PUSH1 0xF SLOAD SWAP1 PUSH2 0x8D7 PUSH2 0x17F3 JUMP JUMPDEST SWAP5 SWAP1 SWAP4 DUP2 MLOAD SWAP7 DUP8 MSTORE PUSH1 0x20 DUP8 ADD MSTORE DUP6 ADD MSTORE PUSH1 0x60 DUP5 ADD MSTORE PUSH1 0x80 DUP4 ADD MSTORE PUSH1 0xA0 DUP3 ADD MSTORE RETURN JUMPDEST POP POP CALLVALUE PUSH2 0x1E2 JUMPI DUP2 PUSH1 0x3 NOT CALLDATASIZE ADD SLT PUSH2 0x1E2 JUMPI PUSH1 0x20 SWAP1 PUSH1 0xF SLOAD SWAP1 MLOAD SWAP1 DUP2 MSTORE RETURN JUMPDEST POP POP CALLVALUE PUSH2 0x1E2 JUMPI PUSH1 0x20 CALLDATASIZE PUSH1 0x3 NOT ADD SLT PUSH2 0x1E2 JUMPI PUSH1 0x20 SWAP2 PUSH1 0xFF SWAP1 DUP3 SWAP1 PUSH1 0x1 PUSH1 0x1 PUSH1 0xA0 SHL SUB PUSH2 0x942 PUSH2 0x16C4 JUMP JUMPDEST AND DUP2 MSTORE PUSH1 0x11 DUP6 MSTORE KECCAK256 SLOAD AND SWAP1 MLOAD SWAP1 ISZERO ISZERO DUP2 MSTORE RETURN JUMPDEST POP POP CALLVALUE PUSH2 0x1E2 JUMPI DUP2 PUSH1 0x3 NOT CALLDATASIZE ADD SLT PUSH2 0x1E2 JUMPI PUSH1 0x20 SWAP1 PUSH1 0x7 SLOAD SWAP1 MLOAD SWAP1 DUP2 MSTORE RETURN JUMPDEST POP POP CALLVALUE PUSH2 0x1E2 JUMPI PUSH1 0x20 CALLDATASIZE PUSH1 0x3 NOT ADD SLT PUSH2 0x1E2 JUMPI PUSH1 0x4 CALLDATALOAD DUP3 MSTORE PUSH1 0xC PUSH1 0x20 SWAP1 DUP2 MSTORE SWAP2 DUP2 SWAP1 KECCAK256 SLOAD SWAP1 MLOAD PUSH1 0x1 PUSH1 0x1 PUSH1 0xA0 SHL SUB SWAP1 SWAP2 AND DUP2 MSTORE RETURN JUMPDEST POP POP CALLVALUE PUSH2 0x1E2 JUMPI DUP2 PUSH1 0x3 NOT CALLDATASIZE ADD SLT PUSH2 0x1E2 JUMPI PUSH1 0x20 SWAP1 PUSH1 0x5 SLOAD SWAP1 MLOAD SWAP1 DUP2 MSTORE RETURN JUMPDEST POP POP CALLVALUE PUSH2 0x1E2 JUMPI PUSH1 0x20 CALLDATASIZE PUSH1 0x3 NOT ADD SLT PUSH2 0x1E2 JUMPI PUSH1 0x4 CALLDATALOAD SWAP1 PUSH2 0x9F3 PUSH1 0x1 DUP1 PUSH1 0xA0 SHL SUB DUP5 SLOAD AND CALLER EQ PUSH2 0x1A53 JUMP JUMPDEST DUP2 ISZERO ISZERO DUP1 PUSH2 0xA3B JUMPI JUMPDEST ISZERO PUSH2 0xA08 JUMPI POP PUSH1 0x7 SSTORE DUP1 RETURN JUMPDEST MLOAD PUSH3 0x461BCD PUSH1 0xE5 SHL DUP2 MSTORE PUSH1 0x20 PUSH1 0x4 DUP3 ADD MSTORE PUSH1 0xD PUSH1 0x24 DUP3 ADD MSTORE PUSH13 0x496E76616C6964207363616C65 PUSH1 0x98 SHL PUSH1 0x44 DUP3 ADD MSTORE PUSH1 0x64 SWAP1 REVERT JUMPDEST POP PUSH2 0x3E8 DUP3 GT ISZERO PUSH2 0x9FC JUMP JUMPDEST POP POP CALLVALUE PUSH2 0x1E2 JUMPI DUP2 PUSH1 0x3 NOT CALLDATASIZE ADD SLT PUSH2 0x1E2 JUMPI PUSH1 0x20 SWAP1 MLOAD PUSH1 0x32 DUP2 MSTORE RETURN JUMPDEST DUP3 DUP5 CALLVALUE PUSH2 0x30D JUMPI PUSH1 0x20 CALLDATASIZE PUSH1 0x3 NOT ADD SLT PUSH2 0x30D JUMPI DUP2 SWAP1 PUSH1 0x4 CALLDATALOAD DUP2 MSTORE PUSH1 0xA PUSH1 0x20 MSTORE KECCAK256 SWAP1 DUP2 SLOAD SWAP2 PUSH1 0x1 DUP2 ADD SLOAD SWAP2 PUSH1 0xFF PUSH1 0x2 DUP4 ADD SLOAD AND SWAP1 PUSH1 0x3 DUP4 ADD SLOAD SWAP1 PUSH1 0x4 DUP5 ADD SLOAD SWAP3 PUSH1 0xFF PUSH1 0x6 PUSH1 0x5 DUP8 ADD SLOAD SWAP7 ADD SLOAD AND SWAP6 DUP3 MLOAD SWAP8 DUP9 MSTORE PUSH1 0x20 DUP9 ADD MSTORE ISZERO ISZERO SWAP1 DUP7 ADD MSTORE PUSH1 0x60 DUP6 ADD MSTORE PUSH1 0x80 DUP5 ADD MSTORE PUSH1 0xA0 DUP4 ADD MSTORE ISZERO ISZERO PUSH1 0xC0 DUP3 ADD MSTORE RETURN JUMPDEST POP POP CALLVALUE PUSH2 0x1E2 JUMPI DUP2 PUSH1 0x3 NOT CALLDATASIZE ADD SLT PUSH2 0x1E2 JUMPI PUSH1 0x20 SWAP1 MLOAD PUSH8 0xDE0B6B3A7640000 DUP2 MSTORE RETURN JUMPDEST POP POP CALLVALUE PUSH2 0x1E2 JUMPI DUP2 PUSH1 0x3 NOT CALLDATASIZE ADD SLT PUSH2 0x1E2 JUMPI SWAP1 SLOAD SWAP1 MLOAD PUSH1 0x1 PUSH1 0x1 PUSH1 0xA0 SHL SUB SWAP1 SWAP2 AND DUP2 MSTORE PUSH1 0x20 SWAP1 RETURN JUMPDEST POP POP CALLVALUE PUSH2 0x1E2 JUMPI DUP2 PUSH1 0x3 NOT CALLDATASIZE ADD SLT PUSH2 0x1E2 JUMPI PUSH1 0x20 SWAP1 PUSH1 0x4 SLOAD SWAP1 MLOAD SWAP1 DUP2 MSTORE RETURN JUMPDEST POP POP CALLVALUE PUSH2 0x1E2 JUMPI DUP2 PUSH1 0x3 NOT CALLDATASIZE ADD SLT PUSH2 0x1E2 JUMPI PUSH1 0x20 SWAP1 PUSH1 0x10 SLOAD SWAP1 MLOAD SWAP1 DUP2 MSTORE RETURN JUMPDEST POP POP CALLVALUE PUSH2 0x1E2 JUMPI DUP2 PUSH1 0x3 NOT CALLDATASIZE ADD SLT PUSH2 0x1E2 JUMPI PUSH1 0x2 SLOAD SWAP1 MLOAD PUSH1 0x1 PUSH1 0x1 PUSH1 0xA0 SHL SUB SWAP1 SWAP2 AND DUP2 MSTORE PUSH1 0x20 SWAP1 RETURN JUMPDEST POP POP CALLVALUE PUSH2 0x1E2 JUMPI DUP2 PUSH1 0x3 NOT CALLDATASIZE ADD SLT PUSH2 0x1E2 JUMPI PUSH1 0x20 SWAP1 PUSH1 0x9 SLOAD SWAP1 MLOAD SWAP1 DUP2 MSTORE RETURN JUMPDEST POP POP CALLVALUE PUSH2 0x1E2 JUMPI DUP1 PUSH1 0x3 NOT CALLDATASIZE ADD SLT PUSH2 0x1E2 JUMPI PUSH2 0xBC3 PUSH2 0x16C4 JUMP JUMPDEST PUSH1 0x1 PUSH1 0x1 PUSH1 0xA0 SHL SUB AND DUP3 MSTORE PUSH1 0xB PUSH1 0x20 MSTORE DUP1 DUP3 KECCAK256 DUP1 SLOAD PUSH1 0x24 CALLDATALOAD SWAP4 SWAP1 DUP5 LT ISZERO PUSH2 0x30D JUMPI POP PUSH1 0x20 SWAP3 PUSH2 0xBF1 SWAP2 PUSH2 0x1733 JUMP JUMPDEST SWAP2 SWAP1 SLOAD SWAP1 MLOAD SWAP2 PUSH1 0x3 SHL SHR DUP2 MSTORE RETURN JUMPDEST DUP3 DUP5 CALLVALUE PUSH2 0x30D JUMPI DUP1 PUSH1 0x3 NOT CALLDATASIZE ADD SLT PUSH2 0x30D JUMPI POP PUSH2 0xC1A PUSH2 0x17F3 JUMP JUMPDEST DUP3 MLOAD SWAP2 DUP3 MSTORE PUSH1 0x20 DUP3 ADD MSTORE RETURN JUMPDEST POP POP CALLVALUE PUSH2 0x1E2 JUMPI PUSH1 0x80 CALLDATASIZE PUSH1 0x3 NOT ADD SLT PUSH2 0x1E2 JUMPI PUSH1 0x4 CALLDATALOAD SWAP2 PUSH1 0x24 SWAP2 DUP3 CALLDATALOAD SWAP4 DUP1 DUP4 MSTORE PUSH1 0x20 SWAP5 PUSH1 0xC DUP7 MSTORE PUSH1 0x1 DUP1 PUSH1 0xA0 SHL SUB DUP1 DUP5 DUP7 KECCAK256 SLOAD AND CALLER SUB PUSH2 0x105D JUMPI DUP3 DUP6 MSTORE PUSH1 0xA DUP8 MSTORE DUP4 DUP6 KECCAK256 SWAP5 PUSH1 0x6 DUP7 ADD SWAP7 PUSH1 0xFF DUP9 SLOAD AND ISZERO PUSH2 0x1025 JUMPI PUSH1 0x1 SWAP8 DUP9 DUP9 ADD SWAP4 DUP5 SLOAD SWAP2 DUP3 DUP8 GT PUSH2 0xFF3 JUMPI PUSH2 0xC93 PUSH2 0x17AA JUMP JUMPDEST SWAP6 PUSH1 0x44 CALLDATALOAD DUP8 LT ISZERO DUP1 PUSH2 0xFE7 JUMPI JUMPDEST PUSH2 0xCA9 SWAP1 PUSH2 0x1891 JUMP JUMPDEST PUSH8 0xDE0B6B3A7640000 PUSH1 0xFF PUSH1 0x2 DUP14 ADD SLOAD AND SWAP12 DUP9 DUP14 PUSH1 0x0 EQ PUSH2 0xFCF JUMPI POP PUSH2 0xCD6 PUSH1 0x3 PUSH2 0xCDC SWAP3 ADD SLOAD DUP11 PUSH2 0x17E6 JUMP JUMPDEST DUP11 PUSH2 0x1761 JUMP JUMPDEST DIV SWAP11 JUMPDEST ISZERO PUSH2 0xFBB JUMPI PUSH2 0xCF0 DUP9 PUSH1 0xE SLOAD PUSH2 0x1961 JUMP JUMPDEST PUSH1 0xE SSTORE JUMPDEST PUSH2 0xD03 PUSH1 0xE SLOAD PUSH1 0xF SLOAD SWAP1 PUSH2 0x1961 JUMP JUMPDEST PUSH1 0x10 SSTORE DUP8 DUP5 SUB PUSH2 0xF9C JUMPI POP DUP1 SLOAD PUSH1 0xFF NOT AND SWAP1 SSTORE CALLER DUP5 MSTORE PUSH1 0xB DUP12 MSTORE DUP8 DUP5 KECCAK256 DUP5 DUP12 JUMPDEST PUSH2 0xECD JUMPI JUMPDEST POP POP SWAP1 SWAP2 SWAP3 SWAP4 SWAP5 SWAP6 SWAP7 SWAP8 SWAP9 JUMPDEST PUSH2 0x2710 PUSH2 0xD43 PUSH1 0x3 SLOAD DUP10 PUSH2 0x1761 JUMP JUMPDEST DIV PUSH2 0xD52 DUP4 DUP4 SLOAD AND SWAP2 DUP13 PUSH2 0x1961 JUMP JUMPDEST DUP2 EXTCODESIZE ISZERO PUSH2 0xEC9 JUMPI DUP7 SWAP2 PUSH1 0x44 DUP4 SWAP3 DUP14 MLOAD SWAP5 DUP6 SWAP4 DUP5 SWAP3 PUSH4 0x196C4AD PUSH1 0xE7 SHL DUP5 MSTORE CALLER PUSH1 0x4 DUP6 ADD MSTORE DUP12 DUP5 ADD MSTORE GAS CALL DUP1 ISZERO PUSH2 0xEBF JUMPI PUSH2 0xEAC JUMPI JUMPDEST POP SLOAD AND SWAP2 DUP10 DUP9 MLOAD DUP1 SWAP3 PUSH4 0x649C0763 PUSH1 0xE0 SHL DUP3 MSTORE CALLER PUSH1 0x4 DUP4 ADD MSTORE DUP2 DUP7 GAS STATICCALL SWAP1 DUP2 ISZERO PUSH2 0xEA2 JUMPI SWAP1 DUP7 SWAP2 DUP6 SWAP2 PUSH2 0xE6F JUMPI JUMPDEST POP PUSH2 0xDC9 SWAP3 SWAP2 PUSH2 0xDC4 SWAP2 PUSH2 0x1761 JUMP JUMPDEST PUSH2 0x178A JUMP JUMPDEST DUP2 EXTCODESIZE ISZERO PUSH2 0xE6B JUMPI DUP7 MLOAD PUSH4 0x9101E5B3 PUSH1 0xE0 SHL DUP2 MSTORE CALLER PUSH1 0x4 DUP3 ADD MSTORE PUSH1 0x24 DUP2 ADD SWAP2 SWAP1 SWAP2 MSTORE SWAP1 DUP3 SWAP1 DUP3 SWAP1 PUSH1 0x44 SWAP1 DUP3 SWAP1 DUP5 SWAP1 GAS CALL DUP1 ISZERO PUSH2 0xE61 JUMPI SWAP1 DUP8 SWAP3 SWAP2 PUSH2 0xE49 JUMPI JUMPDEST POP POP DUP5 MLOAD SWAP3 DUP4 MSTORE PUSH1 0x20 DUP4 ADD SWAP2 SWAP1 SWAP2 MSTORE PUSH1 0x40 DUP3 ADD MSTORE CALLER SWAP1 PUSH32 0x398340331999D3EC20EBA0CA6ED7FFF4090F1906A8F6DFA8D96B3C4708155005 SWAP1 DUP1 PUSH1 0x60 DUP2 ADD PUSH2 0x563 JUMP JUMPDEST DUP2 SWAP3 POP PUSH2 0xE55 SWAP1 PUSH2 0x1900 JUMP JUMPDEST PUSH2 0x30D JUMPI DUP1 DUP7 SWAP2 PUSH2 0xE07 JUMP JUMPDEST DUP7 MLOAD RETURNDATASIZE DUP5 DUP3 RETURNDATACOPY RETURNDATASIZE SWAP1 REVERT JUMPDEST DUP3 DUP1 REVERT JUMPDEST DUP1 SWAP3 POP DUP12 DUP1 SWAP3 POP RETURNDATASIZE DUP4 GT PUSH2 0xE9B JUMPI JUMPDEST PUSH2 0xE88 DUP2 DUP4 PUSH2 0x1914 JUMP JUMPDEST DUP2 ADD SUB SLT PUSH2 0x5DF JUMPI MLOAD DUP6 SWAP1 PUSH2 0xDC9 PUSH2 0xDB5 JUMP JUMPDEST POP RETURNDATASIZE PUSH2 0xE7E JUMP JUMPDEST DUP9 MLOAD RETURNDATASIZE DUP7 DUP3 RETURNDATACOPY RETURNDATASIZE SWAP1 REVERT JUMPDEST PUSH2 0xEB8 SWAP1 SWAP6 SWAP2 SWAP6 PUSH2 0x1900 JUMP JUMPDEST SWAP4 CODESIZE PUSH2 0xD87 JUMP JUMPDEST DUP11 MLOAD RETURNDATASIZE DUP9 DUP3 RETURNDATACOPY RETURNDATASIZE SWAP1 REVERT JUMPDEST DUP7 DUP1 REVERT JUMPDEST DUP2 SLOAD DUP1 DUP3 LT ISZERO PUSH2 0xF96 JUMPI DUP10 SWAP1 PUSH2 0xEE3 DUP4 DUP6 PUSH2 0x1733 JUMP JUMPDEST SWAP3 SWAP1 SLOAD PUSH1 0x3 SWAP4 DUP5 SHL SHR EQ PUSH2 0xF05 JUMPI POP POP SWAP1 PUSH2 0xEFE DUP13 SWAP3 PUSH2 0x1936 JUMP JUMPDEST SWAP1 SWAP2 PUSH2 0xD23 JUMP JUMPDEST SWAP1 SWAP3 SWAP2 PUSH1 0x0 SWAP14 SWAP5 SWAP6 SWAP7 SWAP8 SWAP9 SWAP10 SWAP11 SWAP12 SWAP13 SWAP14 NOT SWAP2 DUP3 DUP2 ADD SWAP1 DUP2 GT PUSH2 0xF83 JUMPI SWAP1 PUSH2 0x523 PUSH2 0xF32 PUSH2 0xF3F SWAP4 DUP7 PUSH2 0x1733 JUMP JUMPDEST SWAP1 SLOAD SWAP1 DUP8 SHL SHR SWAP2 DUP6 PUSH2 0x1733 JUMP JUMPDEST DUP2 SLOAD DUP1 ISZERO PUSH2 0xF70 JUMPI DUP2 ADD SWAP3 PUSH2 0xF54 DUP5 DUP5 PUSH2 0x1733 JUMP JUMPDEST DUP2 SWAP4 SWAP2 SLOAD SWAP3 SHL SHL NOT AND SWAP1 SSTORE SSTORE SWAP9 SWAP8 SWAP7 SWAP6 SWAP5 SWAP4 SWAP3 SWAP2 SWAP1 CODESIZE DUP1 PUSH2 0xD28 JUMP JUMPDEST PUSH4 0x4E487B71 PUSH1 0xE0 SHL DUP10 MSTORE PUSH1 0x31 PUSH1 0x4 MSTORE DUP8 DUP10 REVERT JUMPDEST PUSH4 0x4E487B71 PUSH1 0xE0 SHL DUP11 MSTORE PUSH1 0x11 PUSH1 0x4 MSTORE DUP9 DUP11 REVERT JUMPDEST POP PUSH2 0xD28 JUMP JUMPDEST SWAP1 POP PUSH2 0xFB4 DUP8 DUP3 SWAP13 SWAP4 SWAP5 SWAP6 SWAP7 SWAP8 SWAP9 SWAP10 SWAP11 SWAP12 SWAP13 SLOAD PUSH2 0x1961 JUMP JUMPDEST SWAP1 SSTORE PUSH2 0xD34 JUMP JUMPDEST PUSH2 0xFC7 DUP9 PUSH1 0xF SLOAD PUSH2 0x1961 JUMP JUMPDEST PUSH1 0xF SSTORE PUSH2 0xCF4 JUMP JUMPDEST PUSH2 0xCD6 SWAP1 PUSH1 0x3 PUSH2 0xFE0 SWAP4 ADD SLOAD PUSH2 0x17E6 JUMP JUMPDEST DIV SWAP11 PUSH2 0xCDF JUMP JUMPDEST POP PUSH1 0x64 CALLDATALOAD DUP8 GT ISZERO PUSH2 0xCA0 JUMP JUMPDEST DUP9 MLOAD PUSH3 0x461BCD PUSH1 0xE5 SHL DUP2 MSTORE PUSH1 0x4 DUP2 ADD DUP14 SWAP1 MSTORE PUSH1 0xC DUP2 DUP7 ADD MSTORE PUSH12 0x496E76616C69642073697A65 PUSH1 0xA0 SHL PUSH1 0x44 DUP3 ADD MSTORE PUSH1 0x64 SWAP1 REVERT JUMPDEST DUP9 PUSH1 0x13 PUSH1 0x64 SWAP3 DUP9 MLOAD SWAP3 PUSH3 0x461BCD PUSH1 0xE5 SHL DUP5 MSTORE PUSH1 0x4 DUP5 ADD MSTORE DUP3 ADD MSTORE PUSH19 0x506F736974696F6E206E6F7420616374697665 PUSH1 0x68 SHL PUSH1 0x44 DUP3 ADD MSTORE REVERT JUMPDEST DUP4 MLOAD PUSH3 0x461BCD PUSH1 0xE5 SHL DUP2 MSTORE PUSH1 0x4 DUP2 ADD DUP9 SWAP1 MSTORE PUSH1 0x12 DUP2 DUP9 ADD MSTORE PUSH18 0x2737BA103837B9B4BA34B7B71037BBB732B9 PUSH1 0x71 SHL PUSH1 0x44 DUP3 ADD MSTORE PUSH1 0x64 SWAP1 REVERT JUMPDEST POP POP CALLVALUE PUSH2 0x1E2 JUMPI DUP2 PUSH1 0x3 NOT CALLDATASIZE ADD SLT PUSH2 0x1E2 JUMPI PUSH32 0x31423BE1DF71D4ECBA11D1051D8033416ED316D601C79812E7CD8103E35B88A0 SWAP1 CALLER DUP4 MSTORE PUSH1 0x20 PUSH1 0x11 DUP2 MSTORE PUSH1 0xFF DUP3 DUP6 KECCAK256 SLOAD AND DUP1 ISZERO PUSH2 0x11FA JUMPI JUMPDEST PUSH2 0x10E9 SWAP1 PUSH2 0x1A8B JUMP JUMPDEST DUP2 MLOAD PUSH1 0x1 DUP2 MSTORE PUSH10 0x21E19E0C9BAB2400000 DUP1 DUP4 DUP4 ADD MSTORE PUSH9 0x56BC75E2D63100000 SWAP1 DUP2 DUP6 DUP5 ADD MSTORE PUSH1 0xA PUSH1 0x60 DUP5 ADD MSTORE PUSH3 0xF3E59 DUP1 PUSH32 0x5CF8FA4A8E333990018876AD3A82065E68B3859D46C3198B692B77FC3043808B SWAP5 DUP6 PUSH1 0x80 CALLER SWAP3 LOG3 DUP6 MLOAD SWAP4 DUP9 DUP6 MSTORE PUSH10 0x32D26D12E980B600000 SWAP4 DUP5 DUP8 DUP8 ADD MSTORE DUP8 DUP7 ADD MSTORE PUSH1 0x5 PUSH1 0x60 DUP7 ADD MSTORE PUSH3 0xF3E5A SWAP5 DUP6 SWAP2 PUSH1 0x80 CALLER SWAP3 LOG3 DUP6 MLOAD SWAP2 DUP3 MSTORE PUSH9 0x68155A43676E00000 DUP6 DUP4 ADD MSTORE PUSH9 0x6C6B935B8BBD400000 DUP7 DUP4 ADD MSTORE PUSH32 0x398340331999D3EC20EBA0CA6ED7FFF4090F1906A8F6DFA8D96B3C4708155005 SWAP2 DUP3 PUSH1 0x60 CALLER SWAP3 LOG3 DUP5 MLOAD SWAP2 DUP3 MSTORE PUSH9 0x4E1003B28D9280000 DUP5 DUP4 ADD MSTORE PUSH9 0x5150AE84A8CDEFFFFF NOT DUP6 DUP4 ADD MSTORE PUSH1 0x60 CALLER SWAP3 LOG3 PUSH2 0x11E9 PUSH2 0x17AA JUMP JUMPDEST SWAP1 PUSH1 0x10 SLOAD SWAP1 DUP4 MLOAD SWAP3 DUP4 MSTORE DUP3 ADD MSTORE LOG1 DUP1 RETURN JUMPDEST POP DUP4 SLOAD PUSH1 0x1 PUSH1 0x1 PUSH1 0xA0 SHL SUB AND CALLER EQ PUSH2 0x10E0 JUMP JUMPDEST POP POP CALLVALUE PUSH2 0x1E2 JUMPI DUP2 PUSH1 0x3 NOT CALLDATASIZE ADD SLT PUSH2 0x1E2 JUMPI PUSH1 0x20 SWAP1 PUSH2 0x753 PUSH2 0x17AA JUMP JUMPDEST POP POP CALLVALUE PUSH2 0x1E2 JUMPI DUP2 PUSH1 0x3 NOT CALLDATASIZE ADD SLT PUSH2 0x1E2 JUMPI PUSH1 0x20 SWAP1 PUSH1 0xE SLOAD SWAP1 MLOAD SWAP1 DUP2 MSTORE RETURN JUMPDEST POP POP CALLVALUE PUSH2 0x1E2 JUMPI PUSH1 0x20 CALLDATASIZE PUSH1 0x3 NOT ADD SLT PUSH2 0x1E2 JUMPI PUSH2 0x1264 PUSH2 0x16C4 JUMP JUMPDEST DUP3 SLOAD PUSH1 0x1 PUSH1 0x1 PUSH1 0xA0 SHL SUB SWAP2 SWAP1 PUSH2 0x127D SWAP1 DUP4 AND CALLER EQ PUSH2 0x1AD7 JUMP JUMPDEST AND DUP1 DUP4 MSTORE PUSH1 0x11 PUSH1 0x20 MSTORE SWAP1 DUP3 KECCAK256 DUP1 SLOAD PUSH1 0xFF NOT AND SWAP1 SSTORE PUSH32 0xFAFD0343E6C6F6985727574866DA48938C918559EB9521CF9CC0D317EA0F7B4 DUP3 DUP1 LOG2 DUP1 RETURN JUMPDEST POP POP CALLVALUE PUSH2 0x1E2 JUMPI DUP2 PUSH1 0x3 NOT CALLDATASIZE ADD SLT PUSH2 0x1E2 JUMPI PUSH1 0x20 SWAP1 PUSH1 0x8 SLOAD SWAP1 MLOAD SWAP1 DUP2 MSTORE RETURN JUMPDEST POP POP CALLVALUE PUSH2 0x1E2 JUMPI DUP2 PUSH1 0x3 NOT CALLDATASIZE ADD SLT PUSH2 0x1E2 JUMPI PUSH1 0x20 SWAP1 MLOAD PUSH1 0x1 DUP2 MSTORE RETURN JUMPDEST SWAP2 SWAP1 POP CALLVALUE PUSH2 0xE6B JUMPI PUSH1 0x20 SWAP1 DUP2 PUSH1 0x3 NOT CALLDATASIZE ADD SLT PUSH2 0x5DF JUMPI PUSH1 0x1 PUSH1 0x1 PUSH1 0xA0 SHL SUB PUSH2 0x1319 PUSH2 0x16C4 JUMP JUMPDEST AND DUP5 MSTORE PUSH1 0xB DUP3 MSTORE DUP1 DUP5 KECCAK256 SWAP2 DUP2 MLOAD DUP1 DUP5 DUP4 DUP3 SWAP7 SLOAD SWAP4 DUP5 DUP2 MSTORE ADD SWAP1 DUP9 MSTORE DUP4 DUP9 KECCAK256 SWAP3 DUP9 JUMPDEST DUP6 DUP3 DUP3 LT PUSH2 0x1515 JUMPI POP POP POP PUSH2 0x1351 SWAP3 POP SUB DUP5 PUSH2 0x1914 JUMP JUMPDEST DUP5 SWAP3 DUP6 JUMPDEST DUP2 MLOAD DUP2 LT ISZERO PUSH2 0x13A1 JUMPI PUSH2 0x1368 DUP2 DUP4 PUSH2 0x197A JUMP JUMPDEST MLOAD DUP8 MSTORE PUSH1 0xA DUP4 MSTORE PUSH1 0xFF PUSH1 0x6 DUP6 DUP10 KECCAK256 ADD SLOAD AND PUSH2 0x138C JUMPI JUMPDEST PUSH2 0x1387 SWAP1 PUSH2 0x1936 JUMP JUMPDEST PUSH2 0x1355 JUMP JUMPDEST SWAP4 PUSH2 0x1399 PUSH2 0x1387 SWAP2 PUSH2 0x1936 JUMP JUMPDEST SWAP5 SWAP1 POP PUSH2 0x137E JUMP JUMPDEST POP DUP4 DUP6 SWAP4 DUP8 SWAP3 PUSH2 0x13B0 DUP4 PUSH2 0x198E JUMP JUMPDEST SWAP3 PUSH2 0x13BD DUP4 MLOAD SWAP5 DUP6 PUSH2 0x1914 JUMP JUMPDEST DUP1 DUP5 MSTORE PUSH2 0x13CC PUSH1 0x1F NOT SWAP2 PUSH2 0x198E JUMP JUMPDEST ADD DUP6 DUP6 JUMPDEST DUP3 DUP2 LT PUSH2 0x14FF JUMPI POP POP POP DUP4 SWAP3 DUP5 JUMPDEST DUP3 MLOAD DUP2 LT ISZERO PUSH2 0x14AC JUMPI PUSH2 0x13F1 DUP2 DUP5 PUSH2 0x197A JUMP JUMPDEST MLOAD DUP7 MSTORE PUSH1 0xA DUP1 DUP9 MSTORE PUSH1 0xFF PUSH1 0x6 SWAP2 DUP2 DUP4 DUP9 DUP12 KECCAK256 ADD SLOAD AND PUSH2 0x141C JUMPI JUMPDEST POP POP POP PUSH2 0x1417 SWAP1 PUSH2 0x1936 JUMP JUMPDEST PUSH2 0x13DE JUMP JUMPDEST SWAP2 DUP4 SWAP8 SWAP2 PUSH2 0x14A3 SWAP4 PUSH2 0x1431 PUSH2 0x1417 SWAP7 DUP10 PUSH2 0x197A JUMP JUMPDEST MLOAD DUP12 MSTORE DUP12 MSTORE DUP8 DUP11 KECCAK256 SWAP2 DUP9 MLOAD SWAP3 PUSH2 0x1446 DUP5 PUSH2 0x18CE JUMP JUMPDEST DUP1 SLOAD DUP5 MSTORE PUSH1 0x1 DUP2 ADD SLOAD DUP14 DUP6 ADD MSTORE DUP3 PUSH1 0x2 DUP3 ADD SLOAD AND ISZERO ISZERO DUP11 DUP6 ADD MSTORE PUSH1 0x3 DUP2 ADD SLOAD PUSH1 0x60 DUP6 ADD MSTORE PUSH1 0x4 DUP2 ADD SLOAD PUSH1 0x80 DUP6 ADD MSTORE PUSH1 0x5 DUP2 ADD SLOAD PUSH1 0xA0 DUP6 ADD MSTORE ADD SLOAD AND ISZERO ISZERO PUSH1 0xC0 DUP3 ADD MSTORE PUSH2 0x1492 DUP3 DUP7 PUSH2 0x197A JUMP JUMPDEST MSTORE PUSH2 0x149D DUP2 DUP6 PUSH2 0x197A JUMP JUMPDEST POP PUSH2 0x1936 JUMP JUMPDEST SWAP5 SWAP1 DUP10 DUP1 PUSH2 0x140B JUMP JUMPDEST POP DUP3 MLOAD DUP7 DUP2 MSTORE DUP2 MLOAD DUP2 DUP9 ADD DUP2 SWAP1 MSTORE SWAP1 SWAP8 DUP9 SWAP8 SWAP5 DUP9 ADD SWAP7 SWAP3 DUP6 ADD SWAP6 POP SWAP1 SWAP4 SWAP3 POP JUMPDEST DUP4 DUP3 LT PUSH2 0x14D9 JUMPI DUP7 DUP7 SUB DUP8 RETURN JUMPDEST SWAP2 DUP5 SWAP7 POP DUP3 DUP7 PUSH2 0x14EF PUSH1 0x1 SWAP5 SWAP7 SWAP9 DUP5 SWAP9 MLOAD PUSH2 0x16EE JUMP JUMPDEST ADD SWAP7 ADD SWAP3 ADD DUP7 SWAP6 SWAP5 SWAP3 SWAP4 SWAP2 PUSH2 0x14CC JUMP JUMPDEST PUSH2 0x1507 PUSH2 0x19A6 JUMP JUMPDEST DUP3 DUP3 DUP9 ADD ADD MSTORE ADD DUP7 SWAP1 PUSH2 0x13D0 JUMP JUMPDEST DUP6 SLOAD DUP5 MSTORE PUSH1 0x1 SWAP6 DUP7 ADD SWAP6 DUP10 SWAP6 POP SWAP4 ADD SWAP3 ADD PUSH2 0x133A JUMP JUMPDEST POP POP CALLVALUE PUSH2 0x1E2 JUMPI PUSH1 0x20 CALLDATASIZE PUSH1 0x3 NOT ADD SLT PUSH2 0x1E2 JUMPI PUSH1 0x20 SWAP1 PUSH2 0x753 PUSH1 0x4 CALLDATALOAD PUSH2 0x19DE JUMP JUMPDEST SWAP1 POP CALLVALUE PUSH2 0xE6B JUMPI CALLDATASIZE PUSH1 0x3 NOT ADD SLT PUSH2 0x1E2 JUMPI PUSH2 0x1565 PUSH2 0x16C4 JUMP JUMPDEST PUSH1 0x24 CALLDATALOAD SWAP2 PUSH1 0x44 CALLDATALOAD SWAP2 DUP3 ISZERO ISZERO DUP4 SUB PUSH2 0x16A4 JUMPI PUSH1 0x64 CALLDATALOAD DUP1 ISZERO ISZERO DUP2 SUB PUSH2 0x5ED JUMPI PUSH1 0x84 CALLDATALOAD SWAP2 PUSH1 0xA4 CALLDATALOAD PUSH1 0xC4 CALLDATALOAD SWAP2 CALLER DUP10 MSTORE PUSH1 0x11 PUSH1 0x20 MSTORE PUSH1 0xFF DUP7 DUP11 KECCAK256 SLOAD AND DUP1 ISZERO PUSH2 0x1691 JUMPI JUMPDEST PUSH2 0x15AC SWAP1 PUSH2 0x1A8B JUMP JUMPDEST PUSH1 0x1 PUSH1 0x1 PUSH1 0xA0 SHL SUB AND SWAP6 DUP7 ISZERO PUSH2 0x164D JUMPI ISZERO PUSH2 0x160B JUMPI SWAP4 MLOAD SWAP2 ISZERO ISZERO DUP3 MSTORE PUSH1 0x20 DUP3 ADD SWAP3 SWAP1 SWAP3 MSTORE PUSH1 0x40 DUP2 ADD SWAP3 SWAP1 SWAP3 MSTORE PUSH1 0x60 DUP3 ADD MSTORE PUSH32 0x5CF8FA4A8E333990018876AD3A82065E68B3859D46C3198B692B77FC3043808B SWAP1 DUP1 PUSH1 0x80 DUP2 ADD JUMPDEST SUB SWAP1 LOG3 DUP1 RETURN JUMPDEST SWAP4 MLOAD SWAP3 DUP4 MSTORE PUSH1 0x20 DUP4 ADD SWAP4 SWAP1 SWAP4 MSTORE POP PUSH1 0x40 DUP2 ADD SWAP2 SWAP1 SWAP2 MSTORE PUSH32 0x398340331999D3EC20EBA0CA6ED7FFF4090F1906A8F6DFA8D96B3C4708155005 SWAP1 DUP1 PUSH1 0x60 DUP2 ADD PUSH2 0x1605 JUMP JUMPDEST DUP6 MLOAD PUSH3 0x461BCD PUSH1 0xE5 SHL DUP2 MSTORE PUSH1 0x20 PUSH1 0x4 DUP3 ADD MSTORE PUSH1 0x18 PUSH1 0x24 DUP3 ADD MSTORE PUSH32 0x53696D706C6556414D4D3A20696E76616C696420757365720000000000000000 PUSH1 0x44 DUP3 ADD MSTORE PUSH1 0x64 SWAP1 REVERT JUMPDEST POP DUP9 SLOAD PUSH1 0x1 PUSH1 0x1 PUSH1 0xA0 SHL SUB AND CALLER EQ PUSH2 0x15A3 JUMP JUMPDEST DUP5 DUP1 REVERT JUMPDEST DUP5 SWAP1 CALLVALUE PUSH2 0x1E2 JUMPI DUP2 PUSH1 0x3 NOT CALLDATASIZE ADD SLT PUSH2 0x1E2 JUMPI PUSH1 0x20 SWAP1 PUSH1 0x6 SLOAD DUP2 MSTORE RETURN JUMPDEST PUSH1 0x4 CALLDATALOAD SWAP1 PUSH1 0x1 PUSH1 0x1 PUSH1 0xA0 SHL SUB DUP3 AND DUP3 SUB PUSH2 0x16DA JUMPI JUMP JUMPDEST PUSH1 0x0 DUP1 REVERT JUMPDEST PUSH1 0x24 CALLDATALOAD SWAP1 DUP2 ISZERO ISZERO DUP3 SUB PUSH2 0x16DA JUMPI JUMP JUMPDEST PUSH1 0xC0 DUP1 SWAP2 DUP1 MLOAD DUP5 MSTORE PUSH1 0x20 DUP2 ADD MLOAD PUSH1 0x20 DUP6 ADD MSTORE PUSH1 0x40 DUP2 ADD MLOAD ISZERO ISZERO PUSH1 0x40 DUP6 ADD MSTORE PUSH1 0x60 DUP2 ADD MLOAD PUSH1 0x60 DUP6 ADD MSTORE PUSH1 0x80 DUP2 ADD MLOAD PUSH1 0x80 DUP6 ADD MSTORE PUSH1 0xA0 DUP2 ADD MLOAD PUSH1 0xA0 DUP6 ADD MSTORE ADD MLOAD ISZERO ISZERO SWAP2 ADD MSTORE JUMP JUMPDEST DUP1 SLOAD DUP3 LT ISZERO PUSH2 0x174B JUMPI PUSH1 0x0 MSTORE PUSH1 0x20 PUSH1 0x0 KECCAK256 ADD SWAP1 PUSH1 0x0 SWAP1 JUMP JUMPDEST PUSH4 0x4E487B71 PUSH1 0xE0 SHL PUSH1 0x0 MSTORE PUSH1 0x32 PUSH1 0x4 MSTORE PUSH1 0x24 PUSH1 0x0 REVERT JUMPDEST DUP2 DUP2 MUL SWAP3 SWAP2 DUP2 ISZERO SWAP2 DUP5 DIV EQ OR ISZERO PUSH2 0x1774 JUMPI JUMP JUMPDEST PUSH4 0x4E487B71 PUSH1 0xE0 SHL PUSH1 0x0 MSTORE PUSH1 0x11 PUSH1 0x4 MSTORE PUSH1 0x24 PUSH1 0x0 REVERT JUMPDEST DUP2 ISZERO PUSH2 0x1794 JUMPI DIV SWAP1 JUMP JUMPDEST PUSH4 0x4E487B71 PUSH1 0xE0 SHL PUSH1 0x0 MSTORE PUSH1 0x12 PUSH1 0x4 MSTORE PUSH1 0x24 PUSH1 0x0 REVERT JUMPDEST PUSH2 0x17B2 PUSH2 0x17F3 JUMP JUMPDEST SWAP1 PUSH8 0xDE0B6B3A7640000 SWAP2 DUP3 DUP2 MUL SWAP3 DUP2 DUP5 DIV EQ SWAP1 ISZERO OR ISZERO PUSH2 0x1774 JUMPI PUSH2 0x17D6 SWAP2 PUSH2 0x178A JUMP JUMPDEST SWAP1 JUMP JUMPDEST SWAP2 SWAP1 DUP3 ADD DUP1 SWAP3 GT PUSH2 0x1774 JUMPI JUMP JUMPDEST SWAP2 SWAP1 DUP3 SUB SWAP2 DUP3 GT PUSH2 0x1774 JUMPI JUMP JUMPDEST PUSH1 0x5 SLOAD PUSH1 0x6 SLOAD SWAP1 PUSH1 0x10 SLOAD PUSH1 0x0 DUP1 DUP3 SGT PUSH1 0x0 EQ PUSH2 0x1850 JUMPI PUSH5 0xE8D4A51000 SWAP2 DUP3 DUP2 MUL SWAP3 DUP2 DUP5 DIV EQ SWAP1 ISZERO OR ISZERO PUSH2 0x183C JUMPI POP DUP1 DUP3 GT ISZERO PUSH2 0x1835 JUMPI PUSH2 0x1832 SWAP2 PUSH2 0x17E6 JUMP JUMPDEST SWAP2 JUMP JUMPDEST POP PUSH1 0x1 SHR SWAP2 JUMP JUMPDEST PUSH4 0x4E487B71 PUSH1 0xE0 SHL DUP2 MSTORE PUSH1 0x11 PUSH1 0x4 MSTORE PUSH1 0x24 SWAP1 REVERT JUMPDEST DUP1 DUP3 SWAP6 SWAP4 SWAP6 SLT PUSH2 0x185E JUMPI POP POP JUMP JUMPDEST SWAP2 SWAP4 SWAP1 SWAP2 PUSH1 0x1 PUSH1 0xFF SHL DUP4 EQ PUSH2 0x183C JUMPI DUP3 DUP2 SUB SWAP3 PUSH5 0xE8D4A51000 DUP1 DUP6 MUL SWAP5 DUP6 DIV EQ SWAP1 ISZERO OR ISZERO PUSH2 0x183C JUMPI POP SWAP1 PUSH2 0x1832 SWAP2 PUSH2 0x17D9 JUMP JUMPDEST ISZERO PUSH2 0x1898 JUMPI JUMP JUMPDEST PUSH1 0x40 MLOAD PUSH3 0x461BCD PUSH1 0xE5 SHL DUP2 MSTORE PUSH1 0x20 PUSH1 0x4 DUP3 ADD MSTORE PUSH1 0xE PUSH1 0x24 DUP3 ADD MSTORE PUSH14 0x507269636520736C697070616765 PUSH1 0x90 SHL PUSH1 0x44 DUP3 ADD MSTORE PUSH1 0x64 SWAP1 REVERT JUMPDEST PUSH1 0xE0 DUP2 ADD SWAP1 DUP2 LT PUSH8 0xFFFFFFFFFFFFFFFF DUP3 GT OR PUSH2 0x18EA JUMPI PUSH1 0x40 MSTORE JUMP JUMPDEST PUSH4 0x4E487B71 PUSH1 0xE0 SHL PUSH1 0x0 MSTORE PUSH1 0x41 PUSH1 0x4 MSTORE PUSH1 0x24 PUSH1 0x0 REVERT JUMPDEST PUSH8 0xFFFFFFFFFFFFFFFF DUP2 GT PUSH2 0x18EA JUMPI PUSH1 0x40 MSTORE JUMP JUMPDEST SWAP1 PUSH1 0x1F DUP1 NOT SWAP2 ADD AND DUP2 ADD SWAP1 DUP2 LT PUSH8 0xFFFFFFFFFFFFFFFF DUP3 GT OR PUSH2 0x18EA JUMPI PUSH1 0x40 MSTORE JUMP JUMPDEST PUSH1 0x0 NOT DUP2 EQ PUSH2 0x1774 JUMPI PUSH1 0x1 ADD SWAP1 JUMP JUMPDEST SWAP2 SWAP1 SWAP2 PUSH1 0x0 DUP4 DUP3 ADD SWAP4 DUP5 SLT SWAP2 SLT SWAP1 DUP1 ISZERO DUP3 AND SWAP2 ISZERO AND OR PUSH2 0x1774 JUMPI JUMP JUMPDEST DUP2 DUP2 SUB SWAP3 SWAP2 PUSH1 0x0 SGT DUP1 ISZERO DUP3 DUP6 SGT AND SWAP2 DUP5 SLT AND OR PUSH2 0x1774 JUMPI JUMP JUMPDEST DUP1 MLOAD DUP3 LT ISZERO PUSH2 0x174B JUMPI PUSH1 0x20 SWAP2 PUSH1 0x5 SHL ADD ADD SWAP1 JUMP JUMPDEST PUSH8 0xFFFFFFFFFFFFFFFF DUP2 GT PUSH2 0x18EA JUMPI PUSH1 0x5 SHL PUSH1 0x20 ADD SWAP1 JUMP JUMPDEST PUSH1 0x40 MLOAD SWAP1 PUSH2 0x19B3 DUP3 PUSH2 0x18CE JUMP JUMPDEST DUP2 PUSH1 0xC0 PUSH1 0x0 SWAP2 DUP3 DUP2 MSTORE DUP3 PUSH1 0x20 DUP3 ADD MSTORE DUP3 PUSH1 0x40 DUP3 ADD MSTORE DUP3 PUSH1 0x60 DUP3 ADD MSTORE DUP3 PUSH1 0x80 DUP3 ADD MSTORE DUP3 PUSH1 0xA0 DUP3 ADD MSTORE ADD MSTORE JUMP JUMPDEST PUSH1 0x0 MSTORE PUSH1 0xA PUSH1 0x20 MSTORE PUSH1 0x40 PUSH1 0x0 KECCAK256 PUSH1 0xFF PUSH1 0x6 DUP3 ADD SLOAD AND ISZERO PUSH2 0x1A4D JUMPI PUSH8 0xDE0B6B3A7640000 SWAP1 PUSH2 0x1A0A PUSH2 0x17AA JUMP JUMPDEST SWAP1 PUSH1 0x1 DUP2 ADD SLOAD SWAP1 PUSH1 0xFF PUSH1 0x2 DUP3 ADD SLOAD AND PUSH1 0x0 EQ PUSH2 0x1A3C JUMPI PUSH2 0x1A38 SWAP3 PUSH1 0x3 PUSH2 0x1A32 SWAP3 ADD SLOAD SWAP1 PUSH2 0x17E6 JUMP JUMPDEST SWAP1 PUSH2 0x1761 JUMP JUMPDEST DIV SWAP1 JUMP JUMPDEST PUSH2 0x1A38 SWAP3 PUSH1 0x3 PUSH2 0x1A32 SWAP3 ADD SLOAD PUSH2 0x17E6 JUMP JUMPDEST POP PUSH1 0x0 SWAP1 JUMP JUMPDEST ISZERO PUSH2 0x1A5A JUMPI JUMP JUMPDEST PUSH1 0x40 MLOAD PUSH3 0x461BCD PUSH1 0xE5 SHL DUP2 MSTORE PUSH1 0x20 PUSH1 0x4 DUP3 ADD MSTORE PUSH1 0x9 PUSH1 0x24 DUP3 ADD MSTORE PUSH9 0x2737BA1037BBB732B9 PUSH1 0xB9 SHL PUSH1 0x44 DUP3 ADD MSTORE PUSH1 0x64 SWAP1 REVERT JUMPDEST ISZERO PUSH2 0x1A92 JUMPI JUMP JUMPDEST PUSH1 0x40 MLOAD PUSH3 0x461BCD PUSH1 0xE5 SHL DUP2 MSTORE PUSH1 0x20 PUSH1 0x4 DUP3 ADD MSTORE PUSH1 0x1A PUSH1 0x24 DUP3 ADD MSTORE PUSH32 0x53696D706C6556414D4D3A206E6F7420617574686F72697A6564000000000000 PUSH1 0x44 DUP3 ADD MSTORE PUSH1 0x64 SWAP1 REVERT JUMPDEST ISZERO PUSH2 0x1ADE JUMPI JUMP JUMPDEST PUSH1 0x40 MLOAD PUSH3 0x461BCD PUSH1 0xE5 SHL DUP2 MSTORE PUSH1 0x20 PUSH1 0x4 DUP3 ADD MSTORE PUSH1 0x15 PUSH1 0x24 DUP3 ADD MSTORE PUSH21 0x29B4B6B83632AB20A6A69D103737BA1037BBB732B9 PUSH1 0x59 SHL PUSH1 0x44 DUP3 ADD MSTORE PUSH1 0x64 SWAP1 REVERT INVALID LOG2 PUSH5 0x6970667358 0x22 SLT KECCAK256 PUSH30 0xC4493B18B9CBEC71AD4F8E220AADAB21018C531647A525ACAC79DD7BBC53 MLOAD PUSH5 0x736F6C6343 STOP ADDMOD EQ STOP CALLER "},"methodIdentifiers":{"BASIS_POINTS()":"e1f1c4a7","MAX_LEVERAGE()":"9b45ec97","MIN_LEVERAGE()":"34c1557d","PRICE_PRECISION()":"95082d25","addAuthorized(address)":"cf1c316a","authorized(address)":"b9181611","baseVirtualBaseReserves()":"add3fad1","baseVirtualQuoteReserves()":"022f84b7","closePosition(uint256,uint256,uint256,uint256)":"6e33531b","emitPositionEvent(address,uint256,bool,bool,uint256,uint256,uint256)":"0965c48f","emitTestPositionEvents()":"612766c7","getEffectiveReserves()":"6e7f1e46","getMarkPrice()":"60409632","getMarketSummary()":"ca414882","getPosition(uint256)":"eb02c301","getPriceImpact(uint256,bool)":"d2e7b978","getUnrealizedPnL(uint256)":"0f259013","getUserPositions(address)":"2a6bc2dd","globalPositionId()":"f257b32e","maintenanceMarginRatio()":"83acb48a","maxReserveMultiplier()":"7da21dea","minReserveMultiplier()":"44f88097","netPosition()":"833b0acb","openPosition(uint256,bool,uint256,uint256,uint256)":"eaf1f1e6","oracle()":"7dc0d1d0","owner()":"8da5cb5b","positionOwner(uint256)":"b3060d36","positions(uint256)":"99fbab88","removeAuthorized(address)":"485d7d94","totalLongSize()":"5bf804af","totalShortSize()":"bf6268f2","tradingFeeRate()":"e01df1a8","transferOwnership(address)":"f2fde38b","updateSensitivity(uint256)":"9fc15e78","userPositionIds(address,uint256)":"7b6eb9b6","vault()":"fbfa77cf","volumeScaleFactor()":"b5e55377"}}}}}