{"contracts/SimpleVAMM.sol":{"SimpleVAMM":{"abi":[{"inputs":[{"internalType":"address","name":"_vault","type":"address"},{"internalType":"address","name":"_oracle","type":"address"},{"internalType":"uint256","name":"_initialPrice","type":"uint256"}],"stateMutability":"nonpayable","type":"constructor"},{"anonymous":false,"inputs":[{"indexed":true,"internalType":"address","name":"user","type":"address"},{"indexed":true,"internalType":"uint256","name":"positionId","type":"uint256"},{"indexed":false,"internalType":"uint256","name":"size","type":"uint256"},{"indexed":false,"internalType":"uint256","name":"price","type":"uint256"},{"indexed":false,"internalType":"int256","name":"pnl","type":"int256"}],"name":"PositionClosed","type":"event"},{"anonymous":false,"inputs":[{"indexed":true,"internalType":"address","name":"user","type":"address"},{"indexed":true,"internalType":"uint256","name":"positionId","type":"uint256"},{"indexed":false,"internalType":"bool","name":"isLong","type":"bool"},{"indexed":false,"internalType":"uint256","name":"size","type":"uint256"},{"indexed":false,"internalType":"uint256","name":"price","type":"uint256"},{"indexed":false,"internalType":"uint256","name":"leverage","type":"uint256"}],"name":"PositionOpened","type":"event"},{"anonymous":false,"inputs":[{"indexed":false,"internalType":"uint256","name":"newPrice","type":"uint256"},{"indexed":false,"internalType":"int256","name":"netPosition","type":"int256"}],"name":"PriceUpdated","type":"event"},{"inputs":[],"name":"BASIS_POINTS","outputs":[{"internalType":"uint256","name":"","type":"uint256"}],"stateMutability":"view","type":"function"},{"inputs":[],"name":"MAX_LEVERAGE","outputs":[{"internalType":"uint256","name":"","type":"uint256"}],"stateMutability":"view","type":"function"},{"inputs":[],"name":"MIN_LEVERAGE","outputs":[{"internalType":"uint256","name":"","type":"uint256"}],"stateMutability":"view","type":"function"},{"inputs":[],"name":"PRICE_PRECISION","outputs":[{"internalType":"uint256","name":"","type":"uint256"}],"stateMutability":"view","type":"function"},{"inputs":[],"name":"baseVirtualBaseReserves","outputs":[{"internalType":"uint256","name":"","type":"uint256"}],"stateMutability":"view","type":"function"},{"inputs":[],"name":"baseVirtualQuoteReserves","outputs":[{"internalType":"uint256","name":"","type":"uint256"}],"stateMutability":"view","type":"function"},{"inputs":[{"internalType":"uint256","name":"positionId","type":"uint256"},{"internalType":"uint256","name":"sizeToClose","type":"uint256"},{"internalType":"uint256","name":"minPrice","type":"uint256"},{"internalType":"uint256","name":"maxPrice","type":"uint256"}],"name":"closePosition","outputs":[{"internalType":"int256","name":"pnl","type":"int256"}],"stateMutability":"nonpayable","type":"function"},{"inputs":[],"name":"getEffectiveReserves","outputs":[{"internalType":"uint256","name":"baseReserves","type":"uint256"},{"internalType":"uint256","name":"quoteReserves","type":"uint256"}],"stateMutability":"view","type":"function"},{"inputs":[],"name":"getMarkPrice","outputs":[{"internalType":"uint256","name":"","type":"uint256"}],"stateMutability":"view","type":"function"},{"inputs":[],"name":"getMarketSummary","outputs":[{"internalType":"uint256","name":"markPrice","type":"uint256"},{"internalType":"int256","name":"netPositionSize","type":"int256"},{"internalType":"uint256","name":"totalLongSizeUint","type":"uint256"},{"internalType":"uint256","name":"totalShortSizeUint","type":"uint256"},{"internalType":"uint256","name":"baseReserves","type":"uint256"},{"internalType":"uint256","name":"quoteReserves","type":"uint256"}],"stateMutability":"view","type":"function"},{"inputs":[{"internalType":"uint256","name":"positionId","type":"uint256"}],"name":"getPosition","outputs":[{"components":[{"internalType":"uint256","name":"positionId","type":"uint256"},{"internalType":"int256","name":"size","type":"int256"},{"internalType":"bool","name":"isLong","type":"bool"},{"internalType":"uint256","name":"entryPrice","type":"uint256"},{"internalType":"uint256","name":"entryFundingIndex","type":"uint256"},{"internalType":"uint256","name":"lastInteractionTime","type":"uint256"},{"internalType":"bool","name":"isActive","type":"bool"}],"internalType":"struct ISimpleVAMM.Position","name":"","type":"tuple"}],"stateMutability":"view","type":"function"},{"inputs":[{"internalType":"uint256","name":"size","type":"uint256"},{"internalType":"bool","name":"isLong","type":"bool"}],"name":"getPriceImpact","outputs":[{"internalType":"uint256","name":"","type":"uint256"}],"stateMutability":"view","type":"function"},{"inputs":[{"internalType":"uint256","name":"positionId","type":"uint256"}],"name":"getUnrealizedPnL","outputs":[{"internalType":"int256","name":"","type":"int256"}],"stateMutability":"view","type":"function"},{"inputs":[{"internalType":"address","name":"user","type":"address"}],"name":"getUserPositions","outputs":[{"components":[{"internalType":"uint256","name":"positionId","type":"uint256"},{"internalType":"int256","name":"size","type":"int256"},{"internalType":"bool","name":"isLong","type":"bool"},{"internalType":"uint256","name":"entryPrice","type":"uint256"},{"internalType":"uint256","name":"entryFundingIndex","type":"uint256"},{"internalType":"uint256","name":"lastInteractionTime","type":"uint256"},{"internalType":"bool","name":"isActive","type":"bool"}],"internalType":"struct ISimpleVAMM.Position[]","name":"","type":"tuple[]"}],"stateMutability":"view","type":"function"},{"inputs":[],"name":"globalPositionId","outputs":[{"internalType":"uint256","name":"","type":"uint256"}],"stateMutability":"view","type":"function"},{"inputs":[],"name":"maintenanceMarginRatio","outputs":[{"internalType":"uint256","name":"","type":"uint256"}],"stateMutability":"view","type":"function"},{"inputs":[],"name":"maxReserveMultiplier","outputs":[{"internalType":"uint256","name":"","type":"uint256"}],"stateMutability":"view","type":"function"},{"inputs":[],"name":"minReserveMultiplier","outputs":[{"internalType":"uint256","name":"","type":"uint256"}],"stateMutability":"view","type":"function"},{"inputs":[],"name":"netPosition","outputs":[{"internalType":"int256","name":"","type":"int256"}],"stateMutability":"view","type":"function"},{"inputs":[{"internalType":"uint256","name":"collateralAmount","type":"uint256"},{"internalType":"bool","name":"isLong","type":"bool"},{"internalType":"uint256","name":"leverage","type":"uint256"},{"internalType":"uint256","name":"minPrice","type":"uint256"},{"internalType":"uint256","name":"maxPrice","type":"uint256"}],"name":"openPosition","outputs":[{"internalType":"uint256","name":"positionId","type":"uint256"}],"stateMutability":"nonpayable","type":"function"},{"inputs":[],"name":"oracle","outputs":[{"internalType":"contract ISimplePriceOracle","name":"","type":"address"}],"stateMutability":"view","type":"function"},{"inputs":[],"name":"owner","outputs":[{"internalType":"address","name":"","type":"address"}],"stateMutability":"view","type":"function"},{"inputs":[{"internalType":"uint256","name":"","type":"uint256"}],"name":"positionOwner","outputs":[{"internalType":"address","name":"","type":"address"}],"stateMutability":"view","type":"function"},{"inputs":[{"internalType":"uint256","name":"","type":"uint256"}],"name":"positions","outputs":[{"internalType":"uint256","name":"positionId","type":"uint256"},{"internalType":"int256","name":"size","type":"int256"},{"internalType":"bool","name":"isLong","type":"bool"},{"internalType":"uint256","name":"entryPrice","type":"uint256"},{"internalType":"uint256","name":"entryFundingIndex","type":"uint256"},{"internalType":"uint256","name":"lastInteractionTime","type":"uint256"},{"internalType":"bool","name":"isActive","type":"bool"}],"stateMutability":"view","type":"function"},{"inputs":[],"name":"totalLongSize","outputs":[{"internalType":"int256","name":"","type":"int256"}],"stateMutability":"view","type":"function"},{"inputs":[],"name":"totalShortSize","outputs":[{"internalType":"int256","name":"","type":"int256"}],"stateMutability":"view","type":"function"},{"inputs":[],"name":"tradingFeeRate","outputs":[{"internalType":"uint256","name":"","type":"uint256"}],"stateMutability":"view","type":"function"},{"inputs":[{"internalType":"address","name":"newOwner","type":"address"}],"name":"transferOwnership","outputs":[],"stateMutability":"nonpayable","type":"function"},{"inputs":[{"internalType":"uint256","name":"_volumeScaleFactor","type":"uint256"}],"name":"updateSensitivity","outputs":[],"stateMutability":"nonpayable","type":"function"},{"inputs":[{"internalType":"address","name":"","type":"address"},{"internalType":"uint256","name":"","type":"uint256"}],"name":"userPositionIds","outputs":[{"internalType":"uint256","name":"","type":"uint256"}],"stateMutability":"view","type":"function"},{"inputs":[],"name":"vault","outputs":[{"internalType":"contract ISimpleVault","name":"","type":"address"}],"stateMutability":"view","type":"function"},{"inputs":[],"name":"volumeScaleFactor","outputs":[{"internalType":"uint256","name":"","type":"uint256"}],"stateMutability":"view","type":"function"}],"evm":{"bytecode":{"linkReferences":{},"object":"6080346100f757601f61179138819003918201601f19168301916001600160401b038311848410176100fc578084926060946040528339810103126100f75761004781610112565b90604061005660208301610112565b91015190601e6003556101f4600455670de0b6b3a76400009283600555603260075583600855678ac7230489e800006009556001600d5560018060a01b0319913383600054161760005560018060a01b0380921683600154161760015516906002541617600255818102908082048314901517156100e1570460065560405161166a90816101278239f35b634e487b7160e01b600052601160045260246000fd5b600080fd5b634e487b7160e01b600052604160045260246000fd5b51906001600160a01b03821682036100f75756fe608060408181526004918236101561001657600080fd5b60009260e08435811c928363022f84b714611251575082630f259013146112305782632a6bc2dd1461100057826334c1557d14610fe357826344f8809714610fc35782635bf804af14610fa35782636040963214610f855782636e33531b14610afb5782636e7f1e4614610ad45782637b6eb9b614610a7d5782637da21dea14610a5d5782637dc0d1d014610a33578263833b0acb14610a1357826383acb48a146109f45782638da5cb5b146109cb57826395082d25146109a757826399fbab88146109355782639b45ec97146109185782639fc15e7814610898578263add3fad114610878578263b3060d3614610844578263b5e5537714610824578263bf6268f214610804578263ca414882146107b2578263d2e7b9781461067b578263e01df1a81461065b578263e1f1c4a71461063d578263eaf1f1e6146102e2578263eb02c3011461025757508163f257b32e14610238578163f2fde38b146101b2575063fbfa77cf1461018757600080fd5b346101ae57816003193601126101ae5760015490516001600160a01b039091168152602090f35b5080fd5b905034610234576020366003190112610234576101cd61126d565b835491906001600160a01b03906101e733838616146115fc565b169283156102015750506001600160a01b03191617815580f35b906020606492519162461bcd60e51b8352820152600d60248201526c24b73b30b634b21037bbb732b960991b6044820152fd5b8280fd5b5050346101ae57816003193601126101ae57602090600d549051908152f35b908385346102df5760203660031901126102df579060ff6006826102dd9461027d61154f565b5086358152600a6020522083519561029487611477565b815487526001820154602088015283600283015416151585880152600382015460608801528101546080870152600581015460a0870152015416151560c0840152518092611288565bf35b80fd5b508383346101ae5760a03660031901126101ae578235906103016112fb565b6044358315610605576001811015806105fa575b156105c457610324818561130a565b9361035c610330611353565b91606435831015806105b8575b6103469061143a565b6127106103556003548961130a565b0490611382565b6001546001600160a01b0316803b156105b4578551630ead3e9960e31b815233818b019081526020810193909352918891839182908490829060400103925af180156105aa57908791610592575b5050600d54946103b9866114df565b600d55831561057e576103ce81600e546114ee565b600e555b600e54600f546103e19161150a565b6010558451966103f088611477565b8688526020978789808301858152898401981515988981526060850190888252608086019287845260a087019442865260c0880196600188528952600a90528c8820965187555160018701555115156002860190610459919060ff801983541691151516179055565b516003850155518c8401555160058301555115159060060190610487919060ff801983541691151516179055565b600c8852858120336bffffffffffffffffffffffff60a01b825416179055338152600b88528581208054916801000000000000000083101561056b5750876104dd836104f6936001849a999897960181556112cd565b90919082549060031b91821b91600019901b1916179055565b8551938452878401528483015260608201527f5cf8fa4a8e333990018876ad3a82065e68b3859d46c3198b692b77fc3043808b60803392a37f31423be1df71d4ecba11d1051d8033416ed316d601c79812e7cd8103e35b88a081610558611353565b601054825191825286820152a151908152f35b634e487b7160e01b815260418b52602490fd5b61058a81600f546114ee565b600f556103d2565b61059b906114a9565b6105a65785886103aa565b8580fd5b85513d89823e3d90fd5b8780fd5b5060843583111561033d565b825162461bcd60e51b8152602081880152601060248201526f496e76616c6964206c6576657261676560801b6044820152606490fd5b506032811115610315565b825162461bcd60e51b81526020818801526012602482015271125b9d985b1a590818dbdb1b185d195c985b60721b6044820152606490fd5b505050346101ae57816003193601126101ae57602090516127108152f35b505050346101ae57816003193601126101ae576020906003549051908152f35b508284346102df57816003193601126102df578235906106996112fb565b916106a2611353565b926106ab61139c565b929091156107615764e8d4a510009081810291818304149015171561074e5780821115610744576106db9161138f565b905b670de0b6b3a76400009081810291818304149015171561073157602095509061070591611333565b905b5081811115610722579061071a9161138f565b905b51908152f35b61072b9161138f565b9061071c565b634e487b7160e01b835260118652602483fd5b5060011c906106dd565b634e487b7160e01b845260118752602484fd5b9064e8d4a510009182810292818404149015171561074e579061078391611382565b90670de0b6b3a7640000908181029181830414901517156107315760209550906107ac91611333565b90610707565b505050346101ae57816003193601126101ae5760c0906107d0611353565b90601054600e54600f54906107e361139c565b949093815196875260208701528501526060840152608083015260a0820152f35b505050346101ae57816003193601126101ae57602090600f549051908152f35b505050346101ae57816003193601126101ae576020906007549051908152f35b5090503461023457602036600319011261023457358252600c6020908152918190205490516001600160a01b039091168152f35b505050346101ae57816003193601126101ae576020906005549051908152f35b50905034610234576020366003190112610234578035916108c360018060a01b0385541633146115fc565b8215158061090c575b156108d957505060075580f35b906020606492519162461bcd60e51b8352820152600d60248201526c496e76616c6964207363616c6560981b6044820152fd5b506103e88311156108cc565b505050346101ae57816003193601126101ae576020905160328152f35b838286346102df5760203660031901126102df57829082358152600a6020522080549260018201549260ff600284015416916003840154918401549260ff600660058701549601541695825197885260208801521515908601526060850152608084015260a0830152151560c0820152f35b505050346101ae57816003193601126101ae5760209051670de0b6b3a76400008152f35b505050346101ae57816003193601126101ae57905490516001600160a01b039091168152602090f35b5090503461023457826003193601126102345760209250549051908152f35b505050346101ae57816003193601126101ae576020906010549051908152f35b505050346101ae57816003193601126101ae5760025490516001600160a01b039091168152602090f35b505050346101ae57816003193601126101ae576020906009549051908152f35b505050346101ae57806003193601126101ae57610a9861126d565b6001600160a01b03168252600b602052808220805460243593908410156102df5750602092610ac6916112cd565b91905490519160031b1c8152f35b8385346102df57806003193601126102df5750610aef61139c565b82519182526020820152f35b84828534610234576080366003190112610234578135906024918235818652602094600c865260018060a01b03968785822054163303610f4e57838152600a875284812091600683019660ff88541615610f16576001978885019a8b5491828811610ee557670de0b6b3a76400009a9b9c610b74611353565b9b8c986044358a101580610ed9575b610b8c9061143a565b600281015460ff169d8e15610ec15750610bad6003610bb39201548b61138f565b8b61130a565b049b5b15610ead57610bc789600e5461150a565b600e555b610bda600e54600f549061150a565b601055888403610e8d5750805460ff19169055338552600b8c52888520858c5b610dbe575b5050909192939495969798995b612710610c1b6003548a61130a565b04610c2a83835416918d61150a565b813b156105b4578791604483928e519485938492630196c4ad60e71b8452338d8501528b8401525af18015610db457610da1575b505416918a8951809263649c076360e01b8252338783015281865afa908115610d97579087918691610d60575b50610c9f9291610c9a9161130a565b611333565b91813b15610d5c578751639101e5b360e01b81523391810191825260208201939093528391839182908490829060400103925af18015610d5257610d3e575b505083519182528582015283838201527f398340331999d3ec20eba0ca6ed7fff4090f1906a8f6dfa8d96b3c470815500560603392a37f31423be1df71d4ecba11d1051d8033416ed316d601c79812e7cd8103e35b88a081610558611353565b610d4882916114a9565b6102df5780610cde565b86513d84823e3d90fd5b8380fd5b8092508c8092503d8311610d90575b610d7981836114bd565b81010312610d8c57518690610c9f610c8b565b8480fd5b503d610d6f565b89513d87823e3d90fd5b610dad909691966114a9565b948c610c5e565b8b513d89823e3d90fd5b815480821015610e87578a90610dd483856112cd565b929054600393841b1c14610df657505090610def8d926114df565b9091610bfa565b90929160009e9495969798999a9b9c9d9e1991828101908111610e7557906104dd610e24610e3193866112cd565b905490871b1c91856112cd565b81548015610e6357810192610e4684846112cd565b81939154921b1b1916905555999897969594939291908c80610bff565b634e487b7160e01b8a5260318952878afd5b634e487b7160e01b8b5260118a52888bfd5b50610bff565b9050610ea688829d939495969798999a9b9c9d5461150a565b9055610c0c565b610eb989600f5461150a565b600f55610bcb565b610bad906003610ed293015461138f565b049b610bb6565b506064358a1115610b83565b895162461bcd60e51b81528086018d9052600c818601526b496e76616c69642073697a6560a01b6044820152606490fd5b865162461bcd60e51b815291820189905260139082015272506f736974696f6e206e6f742061637469766560681b6044820152606490fd5b845162461bcd60e51b8152808301889052601281880152712737ba103837b9b4ba34b7b71037bbb732b960711b6044820152606490fd5b505050346101ae57816003193601126101ae5760209061071a611353565b505050346101ae57816003193601126101ae57602090600e549051908152f35b505050346101ae57816003193601126101ae576020906008549051908152f35b505050346101ae57816003193601126101ae576020905160018152f35b91509134610d5c57602080600319360112610d8c576001600160a01b0361102561126d565b168552600b81528185208251808284829454938481520190895284892092895b8682821061121a5750505061105c925003826114bd565b8593865b82518110156110ac576110738184611523565b518852600a845260ff6006868a20015416611097575b611092906114df565b611060565b946110a4611092916114df565b959050611089565b5094908693946110bb81611537565b906110c8875192836114bd565b8082526110d7601f1991611537565b0184865b828110611204575050508493855b83518110156111b6576110fc8185611523565b518752600a80835260ff60069181838c8c20015416611127575b505050611122906114df565b6110e9565b918398916111ad9361113c611122968a611523565b518c5286528b8b20918c519261115184611477565b805484526001810154888501526002810154831615158e850152600381015460608501528a8101546080850152600581015460a0850152015416151560c082015261119c8287611523565b526111a78186611523565b506114df565b95908a80611116565b875182815283518184018190528190818b019086860190868c8f5b8382106111de5786860387f35b9184965082866111f46001949698849851611288565b01960192018695949293916111d1565b61120c61154f565b8282860101520185906110db565b8554845260019586019587955093019201611045565b508284346102df5760203660031901126102df575061071a60209235611587565b8590346101ae57816003193601126101ae576020906006548152f35b600435906001600160a01b038216820361128357565b600080fd5b60c080918051845260208101516020850152604081015115156040850152606081015160608501526080810151608085015260a081015160a085015201511515910152565b80548210156112e55760005260206000200190600090565b634e487b7160e01b600052603260045260246000fd5b60243590811515820361128357565b8181029291811591840414171561131d57565b634e487b7160e01b600052601160045260246000fd5b811561133d570490565b634e487b7160e01b600052601260045260246000fd5b61135b61139c565b90670de0b6b3a76400009182810292818404149015171561131d5761137f91611333565b90565b9190820180921161131d57565b9190820391821161131d57565b6005546006549060105460008082136000146113f95764e8d4a51000918281029281840414901517156113e55750808211156113de576113db9161138f565b91565b5060011c91565b634e487b7160e01b81526011600452602490fd5b808295939512611407575050565b91939091600160ff1b83146113e5578281039264e8d4a5100080850294850414901517156113e55750906113db91611382565b1561144157565b60405162461bcd60e51b815260206004820152600e60248201526d507269636520736c69707061676560901b6044820152606490fd5b60e0810190811067ffffffffffffffff82111761149357604052565b634e487b7160e01b600052604160045260246000fd5b67ffffffffffffffff811161149357604052565b90601f8019910116810190811067ffffffffffffffff82111761149357604052565b600019811461131d5760010190565b9190916000838201938412911290801582169115161761131d57565b8181039291600013801582851316918412161761131d57565b80518210156112e55760209160051b010190565b67ffffffffffffffff81116114935760051b60200190565b6040519061155c82611477565b8160c06000918281528260208201528260408201528260608201528260808201528260a08201520152565b600052600a602052604060002060ff600682015416156115f657670de0b6b3a7640000906115b3611353565b9060018101549060ff6002820154166000146115e5576115e19260036115db9201549061138f565b9061130a565b0490565b6115e19260036115db92015461138f565b50600090565b1561160357565b60405162461bcd60e51b81526020600482015260096024820152682737ba1037bbb732b960b91b6044820152606490fdfea26469706673582212208757d8ff51acf6efec7c217fb2a7f230570c25aa030342bee5691d3e30c2c96f64736f6c63430008140033","opcodes":"PUSH1 0x80 CALLVALUE PUSH2 0xF7 JUMPI PUSH1 0x1F PUSH2 0x1791 CODESIZE DUP2 SWAP1 SUB SWAP2 DUP3 ADD PUSH1 0x1F NOT AND DUP4 ADD SWAP2 PUSH1 0x1 PUSH1 0x1 PUSH1 0x40 SHL SUB DUP4 GT DUP5 DUP5 LT OR PUSH2 0xFC JUMPI DUP1 DUP5 SWAP3 PUSH1 0x60 SWAP5 PUSH1 0x40 MSTORE DUP4 CODECOPY DUP2 ADD SUB SLT PUSH2 0xF7 JUMPI PUSH2 0x47 DUP2 PUSH2 0x112 JUMP JUMPDEST SWAP1 PUSH1 0x40 PUSH2 0x56 PUSH1 0x20 DUP4 ADD PUSH2 0x112 JUMP JUMPDEST SWAP2 ADD MLOAD SWAP1 PUSH1 0x1E PUSH1 0x3 SSTORE PUSH2 0x1F4 PUSH1 0x4 SSTORE PUSH8 0xDE0B6B3A7640000 SWAP3 DUP4 PUSH1 0x5 SSTORE PUSH1 0x32 PUSH1 0x7 SSTORE DUP4 PUSH1 0x8 SSTORE PUSH8 0x8AC7230489E80000 PUSH1 0x9 SSTORE PUSH1 0x1 PUSH1 0xD SSTORE PUSH1 0x1 DUP1 PUSH1 0xA0 SHL SUB NOT SWAP2 CALLER DUP4 PUSH1 0x0 SLOAD AND OR PUSH1 0x0 SSTORE PUSH1 0x1 DUP1 PUSH1 0xA0 SHL SUB DUP1 SWAP3 AND DUP4 PUSH1 0x1 SLOAD AND OR PUSH1 0x1 SSTORE AND SWAP1 PUSH1 0x2 SLOAD AND OR PUSH1 0x2 SSTORE DUP2 DUP2 MUL SWAP1 DUP1 DUP3 DIV DUP4 EQ SWAP1 ISZERO OR ISZERO PUSH2 0xE1 JUMPI DIV PUSH1 0x6 SSTORE PUSH1 0x40 MLOAD PUSH2 0x166A SWAP1 DUP2 PUSH2 0x127 DUP3 CODECOPY RETURN JUMPDEST PUSH4 0x4E487B71 PUSH1 0xE0 SHL PUSH1 0x0 MSTORE PUSH1 0x11 PUSH1 0x4 MSTORE PUSH1 0x24 PUSH1 0x0 REVERT JUMPDEST PUSH1 0x0 DUP1 REVERT JUMPDEST PUSH4 0x4E487B71 PUSH1 0xE0 SHL PUSH1 0x0 MSTORE PUSH1 0x41 PUSH1 0x4 MSTORE PUSH1 0x24 PUSH1 0x0 REVERT JUMPDEST MLOAD SWAP1 PUSH1 0x1 PUSH1 0x1 PUSH1 0xA0 SHL SUB DUP3 AND DUP3 SUB PUSH2 0xF7 JUMPI JUMP INVALID PUSH1 0x80 PUSH1 0x40 DUP2 DUP2 MSTORE PUSH1 0x4 SWAP2 DUP3 CALLDATASIZE LT ISZERO PUSH2 0x16 JUMPI PUSH1 0x0 DUP1 REVERT JUMPDEST PUSH1 0x0 SWAP3 PUSH1 0xE0 DUP5 CALLDATALOAD DUP2 SHR SWAP3 DUP4 PUSH4 0x22F84B7 EQ PUSH2 0x1251 JUMPI POP DUP3 PUSH4 0xF259013 EQ PUSH2 0x1230 JUMPI DUP3 PUSH4 0x2A6BC2DD EQ PUSH2 0x1000 JUMPI DUP3 PUSH4 0x34C1557D EQ PUSH2 0xFE3 JUMPI DUP3 PUSH4 0x44F88097 EQ PUSH2 0xFC3 JUMPI DUP3 PUSH4 0x5BF804AF EQ PUSH2 0xFA3 JUMPI DUP3 PUSH4 0x60409632 EQ PUSH2 0xF85 JUMPI DUP3 PUSH4 0x6E33531B EQ PUSH2 0xAFB JUMPI DUP3 PUSH4 0x6E7F1E46 EQ PUSH2 0xAD4 JUMPI DUP3 PUSH4 0x7B6EB9B6 EQ PUSH2 0xA7D JUMPI DUP3 PUSH4 0x7DA21DEA EQ PUSH2 0xA5D JUMPI DUP3 PUSH4 0x7DC0D1D0 EQ PUSH2 0xA33 JUMPI DUP3 PUSH4 0x833B0ACB EQ PUSH2 0xA13 JUMPI DUP3 PUSH4 0x83ACB48A EQ PUSH2 0x9F4 JUMPI DUP3 PUSH4 0x8DA5CB5B EQ PUSH2 0x9CB JUMPI DUP3 PUSH4 0x95082D25 EQ PUSH2 0x9A7 JUMPI DUP3 PUSH4 0x99FBAB88 EQ PUSH2 0x935 JUMPI DUP3 PUSH4 0x9B45EC97 EQ PUSH2 0x918 JUMPI DUP3 PUSH4 0x9FC15E78 EQ PUSH2 0x898 JUMPI DUP3 PUSH4 0xADD3FAD1 EQ PUSH2 0x878 JUMPI DUP3 PUSH4 0xB3060D36 EQ PUSH2 0x844 JUMPI DUP3 PUSH4 0xB5E55377 EQ PUSH2 0x824 JUMPI DUP3 PUSH4 0xBF6268F2 EQ PUSH2 0x804 JUMPI DUP3 PUSH4 0xCA414882 EQ PUSH2 0x7B2 JUMPI DUP3 PUSH4 0xD2E7B978 EQ PUSH2 0x67B JUMPI DUP3 PUSH4 0xE01DF1A8 EQ PUSH2 0x65B JUMPI DUP3 PUSH4 0xE1F1C4A7 EQ PUSH2 0x63D JUMPI DUP3 PUSH4 0xEAF1F1E6 EQ PUSH2 0x2E2 JUMPI DUP3 PUSH4 0xEB02C301 EQ PUSH2 0x257 JUMPI POP DUP2 PUSH4 0xF257B32E EQ PUSH2 0x238 JUMPI DUP2 PUSH4 0xF2FDE38B EQ PUSH2 0x1B2 JUMPI POP PUSH4 0xFBFA77CF EQ PUSH2 0x187 JUMPI PUSH1 0x0 DUP1 REVERT JUMPDEST CALLVALUE PUSH2 0x1AE JUMPI DUP2 PUSH1 0x3 NOT CALLDATASIZE ADD SLT PUSH2 0x1AE JUMPI PUSH1 0x1 SLOAD SWAP1 MLOAD PUSH1 0x1 PUSH1 0x1 PUSH1 0xA0 SHL SUB SWAP1 SWAP2 AND DUP2 MSTORE PUSH1 0x20 SWAP1 RETURN JUMPDEST POP DUP1 REVERT JUMPDEST SWAP1 POP CALLVALUE PUSH2 0x234 JUMPI PUSH1 0x20 CALLDATASIZE PUSH1 0x3 NOT ADD SLT PUSH2 0x234 JUMPI PUSH2 0x1CD PUSH2 0x126D JUMP JUMPDEST DUP4 SLOAD SWAP2 SWAP1 PUSH1 0x1 PUSH1 0x1 PUSH1 0xA0 SHL SUB SWAP1 PUSH2 0x1E7 CALLER DUP4 DUP7 AND EQ PUSH2 0x15FC JUMP JUMPDEST AND SWAP3 DUP4 ISZERO PUSH2 0x201 JUMPI POP POP PUSH1 0x1 PUSH1 0x1 PUSH1 0xA0 SHL SUB NOT AND OR DUP2 SSTORE DUP1 RETURN JUMPDEST SWAP1 PUSH1 0x20 PUSH1 0x64 SWAP3 MLOAD SWAP2 PUSH3 0x461BCD PUSH1 0xE5 SHL DUP4 MSTORE DUP3 ADD MSTORE PUSH1 0xD PUSH1 0x24 DUP3 ADD MSTORE PUSH13 0x24B73B30B634B21037BBB732B9 PUSH1 0x99 SHL PUSH1 0x44 DUP3 ADD MSTORE REVERT JUMPDEST DUP3 DUP1 REVERT JUMPDEST POP POP CALLVALUE PUSH2 0x1AE JUMPI DUP2 PUSH1 0x3 NOT CALLDATASIZE ADD SLT PUSH2 0x1AE JUMPI PUSH1 0x20 SWAP1 PUSH1 0xD SLOAD SWAP1 MLOAD SWAP1 DUP2 MSTORE RETURN JUMPDEST SWAP1 DUP4 DUP6 CALLVALUE PUSH2 0x2DF JUMPI PUSH1 0x20 CALLDATASIZE PUSH1 0x3 NOT ADD SLT PUSH2 0x2DF JUMPI SWAP1 PUSH1 0xFF PUSH1 0x6 DUP3 PUSH2 0x2DD SWAP5 PUSH2 0x27D PUSH2 0x154F JUMP JUMPDEST POP DUP7 CALLDATALOAD DUP2 MSTORE PUSH1 0xA PUSH1 0x20 MSTORE KECCAK256 DUP4 MLOAD SWAP6 PUSH2 0x294 DUP8 PUSH2 0x1477 JUMP JUMPDEST DUP2 SLOAD DUP8 MSTORE PUSH1 0x1 DUP3 ADD SLOAD PUSH1 0x20 DUP9 ADD MSTORE DUP4 PUSH1 0x2 DUP4 ADD SLOAD AND ISZERO ISZERO DUP6 DUP9 ADD MSTORE PUSH1 0x3 DUP3 ADD SLOAD PUSH1 0x60 DUP9 ADD MSTORE DUP2 ADD SLOAD PUSH1 0x80 DUP8 ADD MSTORE PUSH1 0x5 DUP2 ADD SLOAD PUSH1 0xA0 DUP8 ADD MSTORE ADD SLOAD AND ISZERO ISZERO PUSH1 0xC0 DUP5 ADD MSTORE MLOAD DUP1 SWAP3 PUSH2 0x1288 JUMP JUMPDEST RETURN JUMPDEST DUP1 REVERT JUMPDEST POP DUP4 DUP4 CALLVALUE PUSH2 0x1AE JUMPI PUSH1 0xA0 CALLDATASIZE PUSH1 0x3 NOT ADD SLT PUSH2 0x1AE JUMPI DUP3 CALLDATALOAD SWAP1 PUSH2 0x301 PUSH2 0x12FB JUMP JUMPDEST PUSH1 0x44 CALLDATALOAD DUP4 ISZERO PUSH2 0x605 JUMPI PUSH1 0x1 DUP2 LT ISZERO DUP1 PUSH2 0x5FA JUMPI JUMPDEST ISZERO PUSH2 0x5C4 JUMPI PUSH2 0x324 DUP2 DUP6 PUSH2 0x130A JUMP JUMPDEST SWAP4 PUSH2 0x35C PUSH2 0x330 PUSH2 0x1353 JUMP JUMPDEST SWAP2 PUSH1 0x64 CALLDATALOAD DUP4 LT ISZERO DUP1 PUSH2 0x5B8 JUMPI JUMPDEST PUSH2 0x346 SWAP1 PUSH2 0x143A JUMP JUMPDEST PUSH2 0x2710 PUSH2 0x355 PUSH1 0x3 SLOAD DUP10 PUSH2 0x130A JUMP JUMPDEST DIV SWAP1 PUSH2 0x1382 JUMP JUMPDEST PUSH1 0x1 SLOAD PUSH1 0x1 PUSH1 0x1 PUSH1 0xA0 SHL SUB AND DUP1 EXTCODESIZE ISZERO PUSH2 0x5B4 JUMPI DUP6 MLOAD PUSH4 0xEAD3E99 PUSH1 0xE3 SHL DUP2 MSTORE CALLER DUP2 DUP12 ADD SWAP1 DUP2 MSTORE PUSH1 0x20 DUP2 ADD SWAP4 SWAP1 SWAP4 MSTORE SWAP2 DUP9 SWAP2 DUP4 SWAP2 DUP3 SWAP1 DUP5 SWAP1 DUP3 SWAP1 PUSH1 0x40 ADD SUB SWAP3 GAS CALL DUP1 ISZERO PUSH2 0x5AA JUMPI SWAP1 DUP8 SWAP2 PUSH2 0x592 JUMPI JUMPDEST POP POP PUSH1 0xD SLOAD SWAP5 PUSH2 0x3B9 DUP7 PUSH2 0x14DF JUMP JUMPDEST PUSH1 0xD SSTORE DUP4 ISZERO PUSH2 0x57E JUMPI PUSH2 0x3CE DUP2 PUSH1 0xE SLOAD PUSH2 0x14EE JUMP JUMPDEST PUSH1 0xE SSTORE JUMPDEST PUSH1 0xE SLOAD PUSH1 0xF SLOAD PUSH2 0x3E1 SWAP2 PUSH2 0x150A JUMP JUMPDEST PUSH1 0x10 SSTORE DUP5 MLOAD SWAP7 PUSH2 0x3F0 DUP9 PUSH2 0x1477 JUMP JUMPDEST DUP7 DUP9 MSTORE PUSH1 0x20 SWAP8 DUP8 DUP10 DUP1 DUP4 ADD DUP6 DUP2 MSTORE DUP10 DUP5 ADD SWAP9 ISZERO ISZERO SWAP9 DUP10 DUP2 MSTORE PUSH1 0x60 DUP6 ADD SWAP1 DUP9 DUP3 MSTORE PUSH1 0x80 DUP7 ADD SWAP3 DUP8 DUP5 MSTORE PUSH1 0xA0 DUP8 ADD SWAP5 TIMESTAMP DUP7 MSTORE PUSH1 0xC0 DUP9 ADD SWAP7 PUSH1 0x1 DUP9 MSTORE DUP10 MSTORE PUSH1 0xA SWAP1 MSTORE DUP13 DUP9 KECCAK256 SWAP7 MLOAD DUP8 SSTORE MLOAD PUSH1 0x1 DUP8 ADD SSTORE MLOAD ISZERO ISZERO PUSH1 0x2 DUP7 ADD SWAP1 PUSH2 0x459 SWAP2 SWAP1 PUSH1 0xFF DUP1 NOT DUP4 SLOAD AND SWAP2 ISZERO ISZERO AND OR SWAP1 SSTORE JUMP JUMPDEST MLOAD PUSH1 0x3 DUP6 ADD SSTORE MLOAD DUP13 DUP5 ADD SSTORE MLOAD PUSH1 0x5 DUP4 ADD SSTORE MLOAD ISZERO ISZERO SWAP1 PUSH1 0x6 ADD SWAP1 PUSH2 0x487 SWAP2 SWAP1 PUSH1 0xFF DUP1 NOT DUP4 SLOAD AND SWAP2 ISZERO ISZERO AND OR SWAP1 SSTORE JUMP JUMPDEST PUSH1 0xC DUP9 MSTORE DUP6 DUP2 KECCAK256 CALLER PUSH12 0xFFFFFFFFFFFFFFFFFFFFFFFF PUSH1 0xA0 SHL DUP3 SLOAD AND OR SWAP1 SSTORE CALLER DUP2 MSTORE PUSH1 0xB DUP9 MSTORE DUP6 DUP2 KECCAK256 DUP1 SLOAD SWAP2 PUSH9 0x10000000000000000 DUP4 LT ISZERO PUSH2 0x56B JUMPI POP DUP8 PUSH2 0x4DD DUP4 PUSH2 0x4F6 SWAP4 PUSH1 0x1 DUP5 SWAP11 SWAP10 SWAP9 SWAP8 SWAP7 ADD DUP2 SSTORE PUSH2 0x12CD JUMP JUMPDEST SWAP1 SWAP2 SWAP1 DUP3 SLOAD SWAP1 PUSH1 0x3 SHL SWAP2 DUP3 SHL SWAP2 PUSH1 0x0 NOT SWAP1 SHL NOT AND OR SWAP1 SSTORE JUMP JUMPDEST DUP6 MLOAD SWAP4 DUP5 MSTORE DUP8 DUP5 ADD MSTORE DUP5 DUP4 ADD MSTORE PUSH1 0x60 DUP3 ADD MSTORE PUSH32 0x5CF8FA4A8E333990018876AD3A82065E68B3859D46C3198B692B77FC3043808B PUSH1 0x80 CALLER SWAP3 LOG3 PUSH32 0x31423BE1DF71D4ECBA11D1051D8033416ED316D601C79812E7CD8103E35B88A0 DUP2 PUSH2 0x558 PUSH2 0x1353 JUMP JUMPDEST PUSH1 0x10 SLOAD DUP3 MLOAD SWAP2 DUP3 MSTORE DUP7 DUP3 ADD MSTORE LOG1 MLOAD SWAP1 DUP2 MSTORE RETURN JUMPDEST PUSH4 0x4E487B71 PUSH1 0xE0 SHL DUP2 MSTORE PUSH1 0x41 DUP12 MSTORE PUSH1 0x24 SWAP1 REVERT JUMPDEST PUSH2 0x58A DUP2 PUSH1 0xF SLOAD PUSH2 0x14EE JUMP JUMPDEST PUSH1 0xF SSTORE PUSH2 0x3D2 JUMP JUMPDEST PUSH2 0x59B SWAP1 PUSH2 0x14A9 JUMP JUMPDEST PUSH2 0x5A6 JUMPI DUP6 DUP9 PUSH2 0x3AA JUMP JUMPDEST DUP6 DUP1 REVERT JUMPDEST DUP6 MLOAD RETURNDATASIZE DUP10 DUP3 RETURNDATACOPY RETURNDATASIZE SWAP1 REVERT JUMPDEST DUP8 DUP1 REVERT JUMPDEST POP PUSH1 0x84 CALLDATALOAD DUP4 GT ISZERO PUSH2 0x33D JUMP JUMPDEST DUP3 MLOAD PUSH3 0x461BCD PUSH1 0xE5 SHL DUP2 MSTORE PUSH1 0x20 DUP2 DUP9 ADD MSTORE PUSH1 0x10 PUSH1 0x24 DUP3 ADD MSTORE PUSH16 0x496E76616C6964206C65766572616765 PUSH1 0x80 SHL PUSH1 0x44 DUP3 ADD MSTORE PUSH1 0x64 SWAP1 REVERT JUMPDEST POP PUSH1 0x32 DUP2 GT ISZERO PUSH2 0x315 JUMP JUMPDEST DUP3 MLOAD PUSH3 0x461BCD PUSH1 0xE5 SHL DUP2 MSTORE PUSH1 0x20 DUP2 DUP9 ADD MSTORE PUSH1 0x12 PUSH1 0x24 DUP3 ADD MSTORE PUSH18 0x125B9D985B1A590818DBDB1B185D195C985B PUSH1 0x72 SHL PUSH1 0x44 DUP3 ADD MSTORE PUSH1 0x64 SWAP1 REVERT JUMPDEST POP POP POP CALLVALUE PUSH2 0x1AE JUMPI DUP2 PUSH1 0x3 NOT CALLDATASIZE ADD SLT PUSH2 0x1AE JUMPI PUSH1 0x20 SWAP1 MLOAD PUSH2 0x2710 DUP2 MSTORE RETURN JUMPDEST POP POP POP CALLVALUE PUSH2 0x1AE JUMPI DUP2 PUSH1 0x3 NOT CALLDATASIZE ADD SLT PUSH2 0x1AE JUMPI PUSH1 0x20 SWAP1 PUSH1 0x3 SLOAD SWAP1 MLOAD SWAP1 DUP2 MSTORE RETURN JUMPDEST POP DUP3 DUP5 CALLVALUE PUSH2 0x2DF JUMPI DUP2 PUSH1 0x3 NOT CALLDATASIZE ADD SLT PUSH2 0x2DF JUMPI DUP3 CALLDATALOAD SWAP1 PUSH2 0x699 PUSH2 0x12FB JUMP JUMPDEST SWAP2 PUSH2 0x6A2 PUSH2 0x1353 JUMP JUMPDEST SWAP3 PUSH2 0x6AB PUSH2 0x139C JUMP JUMPDEST SWAP3 SWAP1 SWAP2 ISZERO PUSH2 0x761 JUMPI PUSH5 0xE8D4A51000 SWAP1 DUP2 DUP2 MUL SWAP2 DUP2 DUP4 DIV EQ SWAP1 ISZERO OR ISZERO PUSH2 0x74E JUMPI DUP1 DUP3 GT ISZERO PUSH2 0x744 JUMPI PUSH2 0x6DB SWAP2 PUSH2 0x138F JUMP JUMPDEST SWAP1 JUMPDEST PUSH8 0xDE0B6B3A7640000 SWAP1 DUP2 DUP2 MUL SWAP2 DUP2 DUP4 DIV EQ SWAP1 ISZERO OR ISZERO PUSH2 0x731 JUMPI PUSH1 0x20 SWAP6 POP SWAP1 PUSH2 0x705 SWAP2 PUSH2 0x1333 JUMP JUMPDEST SWAP1 JUMPDEST POP DUP2 DUP2 GT ISZERO PUSH2 0x722 JUMPI SWAP1 PUSH2 0x71A SWAP2 PUSH2 0x138F JUMP JUMPDEST SWAP1 JUMPDEST MLOAD SWAP1 DUP2 MSTORE RETURN JUMPDEST PUSH2 0x72B SWAP2 PUSH2 0x138F JUMP JUMPDEST SWAP1 PUSH2 0x71C JUMP JUMPDEST PUSH4 0x4E487B71 PUSH1 0xE0 SHL DUP4 MSTORE PUSH1 0x11 DUP7 MSTORE PUSH1 0x24 DUP4 REVERT JUMPDEST POP PUSH1 0x1 SHR SWAP1 PUSH2 0x6DD JUMP JUMPDEST PUSH4 0x4E487B71 PUSH1 0xE0 SHL DUP5 MSTORE PUSH1 0x11 DUP8 MSTORE PUSH1 0x24 DUP5 REVERT JUMPDEST SWAP1 PUSH5 0xE8D4A51000 SWAP2 DUP3 DUP2 MUL SWAP3 DUP2 DUP5 DIV EQ SWAP1 ISZERO OR ISZERO PUSH2 0x74E JUMPI SWAP1 PUSH2 0x783 SWAP2 PUSH2 0x1382 JUMP JUMPDEST SWAP1 PUSH8 0xDE0B6B3A7640000 SWAP1 DUP2 DUP2 MUL SWAP2 DUP2 DUP4 DIV EQ SWAP1 ISZERO OR ISZERO PUSH2 0x731 JUMPI PUSH1 0x20 SWAP6 POP SWAP1 PUSH2 0x7AC SWAP2 PUSH2 0x1333 JUMP JUMPDEST SWAP1 PUSH2 0x707 JUMP JUMPDEST POP POP POP CALLVALUE PUSH2 0x1AE JUMPI DUP2 PUSH1 0x3 NOT CALLDATASIZE ADD SLT PUSH2 0x1AE JUMPI PUSH1 0xC0 SWAP1 PUSH2 0x7D0 PUSH2 0x1353 JUMP JUMPDEST SWAP1 PUSH1 0x10 SLOAD PUSH1 0xE SLOAD PUSH1 0xF SLOAD SWAP1 PUSH2 0x7E3 PUSH2 0x139C JUMP JUMPDEST SWAP5 SWAP1 SWAP4 DUP2 MLOAD SWAP7 DUP8 MSTORE PUSH1 0x20 DUP8 ADD MSTORE DUP6 ADD MSTORE PUSH1 0x60 DUP5 ADD MSTORE PUSH1 0x80 DUP4 ADD MSTORE PUSH1 0xA0 DUP3 ADD MSTORE RETURN JUMPDEST POP POP POP CALLVALUE PUSH2 0x1AE JUMPI DUP2 PUSH1 0x3 NOT CALLDATASIZE ADD SLT PUSH2 0x1AE JUMPI PUSH1 0x20 SWAP1 PUSH1 0xF SLOAD SWAP1 MLOAD SWAP1 DUP2 MSTORE RETURN JUMPDEST POP POP POP CALLVALUE PUSH2 0x1AE JUMPI DUP2 PUSH1 0x3 NOT CALLDATASIZE ADD SLT PUSH2 0x1AE JUMPI PUSH1 0x20 SWAP1 PUSH1 0x7 SLOAD SWAP1 MLOAD SWAP1 DUP2 MSTORE RETURN JUMPDEST POP SWAP1 POP CALLVALUE PUSH2 0x234 JUMPI PUSH1 0x20 CALLDATASIZE PUSH1 0x3 NOT ADD SLT PUSH2 0x234 JUMPI CALLDATALOAD DUP3 MSTORE PUSH1 0xC PUSH1 0x20 SWAP1 DUP2 MSTORE SWAP2 DUP2 SWAP1 KECCAK256 SLOAD SWAP1 MLOAD PUSH1 0x1 PUSH1 0x1 PUSH1 0xA0 SHL SUB SWAP1 SWAP2 AND DUP2 MSTORE RETURN JUMPDEST POP POP POP CALLVALUE PUSH2 0x1AE JUMPI DUP2 PUSH1 0x3 NOT CALLDATASIZE ADD SLT PUSH2 0x1AE JUMPI PUSH1 0x20 SWAP1 PUSH1 0x5 SLOAD SWAP1 MLOAD SWAP1 DUP2 MSTORE RETURN JUMPDEST POP SWAP1 POP CALLVALUE PUSH2 0x234 JUMPI PUSH1 0x20 CALLDATASIZE PUSH1 0x3 NOT ADD SLT PUSH2 0x234 JUMPI DUP1 CALLDATALOAD SWAP2 PUSH2 0x8C3 PUSH1 0x1 DUP1 PUSH1 0xA0 SHL SUB DUP6 SLOAD AND CALLER EQ PUSH2 0x15FC JUMP JUMPDEST DUP3 ISZERO ISZERO DUP1 PUSH2 0x90C JUMPI JUMPDEST ISZERO PUSH2 0x8D9 JUMPI POP POP PUSH1 0x7 SSTORE DUP1 RETURN JUMPDEST SWAP1 PUSH1 0x20 PUSH1 0x64 SWAP3 MLOAD SWAP2 PUSH3 0x461BCD PUSH1 0xE5 SHL DUP4 MSTORE DUP3 ADD MSTORE PUSH1 0xD PUSH1 0x24 DUP3 ADD MSTORE PUSH13 0x496E76616C6964207363616C65 PUSH1 0x98 SHL PUSH1 0x44 DUP3 ADD MSTORE REVERT JUMPDEST POP PUSH2 0x3E8 DUP4 GT ISZERO PUSH2 0x8CC JUMP JUMPDEST POP POP POP CALLVALUE PUSH2 0x1AE JUMPI DUP2 PUSH1 0x3 NOT CALLDATASIZE ADD SLT PUSH2 0x1AE JUMPI PUSH1 0x20 SWAP1 MLOAD PUSH1 0x32 DUP2 MSTORE RETURN JUMPDEST DUP4 DUP3 DUP7 CALLVALUE PUSH2 0x2DF JUMPI PUSH1 0x20 CALLDATASIZE PUSH1 0x3 NOT ADD SLT PUSH2 0x2DF JUMPI DUP3 SWAP1 DUP3 CALLDATALOAD DUP2 MSTORE PUSH1 0xA PUSH1 0x20 MSTORE KECCAK256 DUP1 SLOAD SWAP3 PUSH1 0x1 DUP3 ADD SLOAD SWAP3 PUSH1 0xFF PUSH1 0x2 DUP5 ADD SLOAD AND SWAP2 PUSH1 0x3 DUP5 ADD SLOAD SWAP2 DUP5 ADD SLOAD SWAP3 PUSH1 0xFF PUSH1 0x6 PUSH1 0x5 DUP8 ADD SLOAD SWAP7 ADD SLOAD AND SWAP6 DUP3 MLOAD SWAP8 DUP9 MSTORE PUSH1 0x20 DUP9 ADD MSTORE ISZERO ISZERO SWAP1 DUP7 ADD MSTORE PUSH1 0x60 DUP6 ADD MSTORE PUSH1 0x80 DUP5 ADD MSTORE PUSH1 0xA0 DUP4 ADD MSTORE ISZERO ISZERO PUSH1 0xC0 DUP3 ADD MSTORE RETURN JUMPDEST POP POP POP CALLVALUE PUSH2 0x1AE JUMPI DUP2 PUSH1 0x3 NOT CALLDATASIZE ADD SLT PUSH2 0x1AE JUMPI PUSH1 0x20 SWAP1 MLOAD PUSH8 0xDE0B6B3A7640000 DUP2 MSTORE RETURN JUMPDEST POP POP POP CALLVALUE PUSH2 0x1AE JUMPI DUP2 PUSH1 0x3 NOT CALLDATASIZE ADD SLT PUSH2 0x1AE JUMPI SWAP1 SLOAD SWAP1 MLOAD PUSH1 0x1 PUSH1 0x1 PUSH1 0xA0 SHL SUB SWAP1 SWAP2 AND DUP2 MSTORE PUSH1 0x20 SWAP1 RETURN JUMPDEST POP SWAP1 POP CALLVALUE PUSH2 0x234 JUMPI DUP3 PUSH1 0x3 NOT CALLDATASIZE ADD SLT PUSH2 0x234 JUMPI PUSH1 0x20 SWAP3 POP SLOAD SWAP1 MLOAD SWAP1 DUP2 MSTORE RETURN JUMPDEST POP POP POP CALLVALUE PUSH2 0x1AE JUMPI DUP2 PUSH1 0x3 NOT CALLDATASIZE ADD SLT PUSH2 0x1AE JUMPI PUSH1 0x20 SWAP1 PUSH1 0x10 SLOAD SWAP1 MLOAD SWAP1 DUP2 MSTORE RETURN JUMPDEST POP POP POP CALLVALUE PUSH2 0x1AE JUMPI DUP2 PUSH1 0x3 NOT CALLDATASIZE ADD SLT PUSH2 0x1AE JUMPI PUSH1 0x2 SLOAD SWAP1 MLOAD PUSH1 0x1 PUSH1 0x1 PUSH1 0xA0 SHL SUB SWAP1 SWAP2 AND DUP2 MSTORE PUSH1 0x20 SWAP1 RETURN JUMPDEST POP POP POP CALLVALUE PUSH2 0x1AE JUMPI DUP2 PUSH1 0x3 NOT CALLDATASIZE ADD SLT PUSH2 0x1AE JUMPI PUSH1 0x20 SWAP1 PUSH1 0x9 SLOAD SWAP1 MLOAD SWAP1 DUP2 MSTORE RETURN JUMPDEST POP POP POP CALLVALUE PUSH2 0x1AE JUMPI DUP1 PUSH1 0x3 NOT CALLDATASIZE ADD SLT PUSH2 0x1AE JUMPI PUSH2 0xA98 PUSH2 0x126D JUMP JUMPDEST PUSH1 0x1 PUSH1 0x1 PUSH1 0xA0 SHL SUB AND DUP3 MSTORE PUSH1 0xB PUSH1 0x20 MSTORE DUP1 DUP3 KECCAK256 DUP1 SLOAD PUSH1 0x24 CALLDATALOAD SWAP4 SWAP1 DUP5 LT ISZERO PUSH2 0x2DF JUMPI POP PUSH1 0x20 SWAP3 PUSH2 0xAC6 SWAP2 PUSH2 0x12CD JUMP JUMPDEST SWAP2 SWAP1 SLOAD SWAP1 MLOAD SWAP2 PUSH1 0x3 SHL SHR DUP2 MSTORE RETURN JUMPDEST DUP4 DUP6 CALLVALUE PUSH2 0x2DF JUMPI DUP1 PUSH1 0x3 NOT CALLDATASIZE ADD SLT PUSH2 0x2DF JUMPI POP PUSH2 0xAEF PUSH2 0x139C JUMP JUMPDEST DUP3 MLOAD SWAP2 DUP3 MSTORE PUSH1 0x20 DUP3 ADD MSTORE RETURN JUMPDEST DUP5 DUP3 DUP6 CALLVALUE PUSH2 0x234 JUMPI PUSH1 0x80 CALLDATASIZE PUSH1 0x3 NOT ADD SLT PUSH2 0x234 JUMPI DUP2 CALLDATALOAD SWAP1 PUSH1 0x24 SWAP2 DUP3 CALLDATALOAD DUP2 DUP7 MSTORE PUSH1 0x20 SWAP5 PUSH1 0xC DUP7 MSTORE PUSH1 0x1 DUP1 PUSH1 0xA0 SHL SUB SWAP7 DUP8 DUP6 DUP3 KECCAK256 SLOAD AND CALLER SUB PUSH2 0xF4E JUMPI DUP4 DUP2 MSTORE PUSH1 0xA DUP8 MSTORE DUP5 DUP2 KECCAK256 SWAP2 PUSH1 0x6 DUP4 ADD SWAP7 PUSH1 0xFF DUP9 SLOAD AND ISZERO PUSH2 0xF16 JUMPI PUSH1 0x1 SWAP8 DUP9 DUP6 ADD SWAP11 DUP12 SLOAD SWAP2 DUP3 DUP9 GT PUSH2 0xEE5 JUMPI PUSH8 0xDE0B6B3A7640000 SWAP11 SWAP12 SWAP13 PUSH2 0xB74 PUSH2 0x1353 JUMP JUMPDEST SWAP12 DUP13 SWAP9 PUSH1 0x44 CALLDATALOAD DUP11 LT ISZERO DUP1 PUSH2 0xED9 JUMPI JUMPDEST PUSH2 0xB8C SWAP1 PUSH2 0x143A JUMP JUMPDEST PUSH1 0x2 DUP2 ADD SLOAD PUSH1 0xFF AND SWAP14 DUP15 ISZERO PUSH2 0xEC1 JUMPI POP PUSH2 0xBAD PUSH1 0x3 PUSH2 0xBB3 SWAP3 ADD SLOAD DUP12 PUSH2 0x138F JUMP JUMPDEST DUP12 PUSH2 0x130A JUMP JUMPDEST DIV SWAP12 JUMPDEST ISZERO PUSH2 0xEAD JUMPI PUSH2 0xBC7 DUP10 PUSH1 0xE SLOAD PUSH2 0x150A JUMP JUMPDEST PUSH1 0xE SSTORE JUMPDEST PUSH2 0xBDA PUSH1 0xE SLOAD PUSH1 0xF SLOAD SWAP1 PUSH2 0x150A JUMP JUMPDEST PUSH1 0x10 SSTORE DUP9 DUP5 SUB PUSH2 0xE8D JUMPI POP DUP1 SLOAD PUSH1 0xFF NOT AND SWAP1 SSTORE CALLER DUP6 MSTORE PUSH1 0xB DUP13 MSTORE DUP9 DUP6 KECCAK256 DUP6 DUP13 JUMPDEST PUSH2 0xDBE JUMPI JUMPDEST POP POP SWAP1 SWAP2 SWAP3 SWAP4 SWAP5 SWAP6 SWAP7 SWAP8 SWAP9 SWAP10 JUMPDEST PUSH2 0x2710 PUSH2 0xC1B PUSH1 0x3 SLOAD DUP11 PUSH2 0x130A JUMP JUMPDEST DIV PUSH2 0xC2A DUP4 DUP4 SLOAD AND SWAP2 DUP14 PUSH2 0x150A JUMP JUMPDEST DUP2 EXTCODESIZE ISZERO PUSH2 0x5B4 JUMPI DUP8 SWAP2 PUSH1 0x44 DUP4 SWAP3 DUP15 MLOAD SWAP5 DUP6 SWAP4 DUP5 SWAP3 PUSH4 0x196C4AD PUSH1 0xE7 SHL DUP5 MSTORE CALLER DUP14 DUP6 ADD MSTORE DUP12 DUP5 ADD MSTORE GAS CALL DUP1 ISZERO PUSH2 0xDB4 JUMPI PUSH2 0xDA1 JUMPI JUMPDEST POP SLOAD AND SWAP2 DUP11 DUP10 MLOAD DUP1 SWAP3 PUSH4 0x649C0763 PUSH1 0xE0 SHL DUP3 MSTORE CALLER DUP8 DUP4 ADD MSTORE DUP2 DUP7 GAS STATICCALL SWAP1 DUP2 ISZERO PUSH2 0xD97 JUMPI SWAP1 DUP8 SWAP2 DUP7 SWAP2 PUSH2 0xD60 JUMPI JUMPDEST POP PUSH2 0xC9F SWAP3 SWAP2 PUSH2 0xC9A SWAP2 PUSH2 0x130A JUMP JUMPDEST PUSH2 0x1333 JUMP JUMPDEST SWAP2 DUP2 EXTCODESIZE ISZERO PUSH2 0xD5C JUMPI DUP8 MLOAD PUSH4 0x9101E5B3 PUSH1 0xE0 SHL DUP2 MSTORE CALLER SWAP2 DUP2 ADD SWAP2 DUP3 MSTORE PUSH1 0x20 DUP3 ADD SWAP4 SWAP1 SWAP4 MSTORE DUP4 SWAP2 DUP4 SWAP2 DUP3 SWAP1 DUP5 SWAP1 DUP3 SWAP1 PUSH1 0x40 ADD SUB SWAP3 GAS CALL DUP1 ISZERO PUSH2 0xD52 JUMPI PUSH2 0xD3E JUMPI JUMPDEST POP POP DUP4 MLOAD SWAP2 DUP3 MSTORE DUP6 DUP3 ADD MSTORE DUP4 DUP4 DUP3 ADD MSTORE PUSH32 0x398340331999D3EC20EBA0CA6ED7FFF4090F1906A8F6DFA8D96B3C4708155005 PUSH1 0x60 CALLER SWAP3 LOG3 PUSH32 0x31423BE1DF71D4ECBA11D1051D8033416ED316D601C79812E7CD8103E35B88A0 DUP2 PUSH2 0x558 PUSH2 0x1353 JUMP JUMPDEST PUSH2 0xD48 DUP3 SWAP2 PUSH2 0x14A9 JUMP JUMPDEST PUSH2 0x2DF JUMPI DUP1 PUSH2 0xCDE JUMP JUMPDEST DUP7 MLOAD RETURNDATASIZE DUP5 DUP3 RETURNDATACOPY RETURNDATASIZE SWAP1 REVERT JUMPDEST DUP4 DUP1 REVERT JUMPDEST DUP1 SWAP3 POP DUP13 DUP1 SWAP3 POP RETURNDATASIZE DUP4 GT PUSH2 0xD90 JUMPI JUMPDEST PUSH2 0xD79 DUP2 DUP4 PUSH2 0x14BD JUMP JUMPDEST DUP2 ADD SUB SLT PUSH2 0xD8C JUMPI MLOAD DUP7 SWAP1 PUSH2 0xC9F PUSH2 0xC8B JUMP JUMPDEST DUP5 DUP1 REVERT JUMPDEST POP RETURNDATASIZE PUSH2 0xD6F JUMP JUMPDEST DUP10 MLOAD RETURNDATASIZE DUP8 DUP3 RETURNDATACOPY RETURNDATASIZE SWAP1 REVERT JUMPDEST PUSH2 0xDAD SWAP1 SWAP7 SWAP2 SWAP7 PUSH2 0x14A9 JUMP JUMPDEST SWAP5 DUP13 PUSH2 0xC5E JUMP JUMPDEST DUP12 MLOAD RETURNDATASIZE DUP10 DUP3 RETURNDATACOPY RETURNDATASIZE SWAP1 REVERT JUMPDEST DUP2 SLOAD DUP1 DUP3 LT ISZERO PUSH2 0xE87 JUMPI DUP11 SWAP1 PUSH2 0xDD4 DUP4 DUP6 PUSH2 0x12CD JUMP JUMPDEST SWAP3 SWAP1 SLOAD PUSH1 0x3 SWAP4 DUP5 SHL SHR EQ PUSH2 0xDF6 JUMPI POP POP SWAP1 PUSH2 0xDEF DUP14 SWAP3 PUSH2 0x14DF JUMP JUMPDEST SWAP1 SWAP2 PUSH2 0xBFA JUMP JUMPDEST SWAP1 SWAP3 SWAP2 PUSH1 0x0 SWAP15 SWAP5 SWAP6 SWAP7 SWAP8 SWAP9 SWAP10 SWAP11 SWAP12 SWAP13 SWAP14 SWAP15 NOT SWAP2 DUP3 DUP2 ADD SWAP1 DUP2 GT PUSH2 0xE75 JUMPI SWAP1 PUSH2 0x4DD PUSH2 0xE24 PUSH2 0xE31 SWAP4 DUP7 PUSH2 0x12CD JUMP JUMPDEST SWAP1 SLOAD SWAP1 DUP8 SHL SHR SWAP2 DUP6 PUSH2 0x12CD JUMP JUMPDEST DUP2 SLOAD DUP1 ISZERO PUSH2 0xE63 JUMPI DUP2 ADD SWAP3 PUSH2 0xE46 DUP5 DUP5 PUSH2 0x12CD JUMP JUMPDEST DUP2 SWAP4 SWAP2 SLOAD SWAP3 SHL SHL NOT AND SWAP1 SSTORE SSTORE SWAP10 SWAP9 SWAP8 SWAP7 SWAP6 SWAP5 SWAP4 SWAP3 SWAP2 SWAP1 DUP13 DUP1 PUSH2 0xBFF JUMP JUMPDEST PUSH4 0x4E487B71 PUSH1 0xE0 SHL DUP11 MSTORE PUSH1 0x31 DUP10 MSTORE DUP8 DUP11 REVERT JUMPDEST PUSH4 0x4E487B71 PUSH1 0xE0 SHL DUP12 MSTORE PUSH1 0x11 DUP11 MSTORE DUP9 DUP12 REVERT JUMPDEST POP PUSH2 0xBFF JUMP JUMPDEST SWAP1 POP PUSH2 0xEA6 DUP9 DUP3 SWAP14 SWAP4 SWAP5 SWAP6 SWAP7 SWAP8 SWAP9 SWAP10 SWAP11 SWAP12 SWAP13 SWAP14 SLOAD PUSH2 0x150A JUMP JUMPDEST SWAP1 SSTORE PUSH2 0xC0C JUMP JUMPDEST PUSH2 0xEB9 DUP10 PUSH1 0xF SLOAD PUSH2 0x150A JUMP JUMPDEST PUSH1 0xF SSTORE PUSH2 0xBCB JUMP JUMPDEST PUSH2 0xBAD SWAP1 PUSH1 0x3 PUSH2 0xED2 SWAP4 ADD SLOAD PUSH2 0x138F JUMP JUMPDEST DIV SWAP12 PUSH2 0xBB6 JUMP JUMPDEST POP PUSH1 0x64 CALLDATALOAD DUP11 GT ISZERO PUSH2 0xB83 JUMP JUMPDEST DUP10 MLOAD PUSH3 0x461BCD PUSH1 0xE5 SHL DUP2 MSTORE DUP1 DUP7 ADD DUP14 SWAP1 MSTORE PUSH1 0xC DUP2 DUP7 ADD MSTORE PUSH12 0x496E76616C69642073697A65 PUSH1 0xA0 SHL PUSH1 0x44 DUP3 ADD MSTORE PUSH1 0x64 SWAP1 REVERT JUMPDEST DUP7 MLOAD PUSH3 0x461BCD PUSH1 0xE5 SHL DUP2 MSTORE SWAP2 DUP3 ADD DUP10 SWAP1 MSTORE PUSH1 0x13 SWAP1 DUP3 ADD MSTORE PUSH19 0x506F736974696F6E206E6F7420616374697665 PUSH1 0x68 SHL PUSH1 0x44 DUP3 ADD MSTORE PUSH1 0x64 SWAP1 REVERT JUMPDEST DUP5 MLOAD PUSH3 0x461BCD PUSH1 0xE5 SHL DUP2 MSTORE DUP1 DUP4 ADD DUP9 SWAP1 MSTORE PUSH1 0x12 DUP2 DUP9 ADD MSTORE PUSH18 0x2737BA103837B9B4BA34B7B71037BBB732B9 PUSH1 0x71 SHL PUSH1 0x44 DUP3 ADD MSTORE PUSH1 0x64 SWAP1 REVERT JUMPDEST POP POP POP CALLVALUE PUSH2 0x1AE JUMPI DUP2 PUSH1 0x3 NOT CALLDATASIZE ADD SLT PUSH2 0x1AE JUMPI PUSH1 0x20 SWAP1 PUSH2 0x71A PUSH2 0x1353 JUMP JUMPDEST POP POP POP CALLVALUE PUSH2 0x1AE JUMPI DUP2 PUSH1 0x3 NOT CALLDATASIZE ADD SLT PUSH2 0x1AE JUMPI PUSH1 0x20 SWAP1 PUSH1 0xE SLOAD SWAP1 MLOAD SWAP1 DUP2 MSTORE RETURN JUMPDEST POP POP POP CALLVALUE PUSH2 0x1AE JUMPI DUP2 PUSH1 0x3 NOT CALLDATASIZE ADD SLT PUSH2 0x1AE JUMPI PUSH1 0x20 SWAP1 PUSH1 0x8 SLOAD SWAP1 MLOAD SWAP1 DUP2 MSTORE RETURN JUMPDEST POP POP POP CALLVALUE PUSH2 0x1AE JUMPI DUP2 PUSH1 0x3 NOT CALLDATASIZE ADD SLT PUSH2 0x1AE JUMPI PUSH1 0x20 SWAP1 MLOAD PUSH1 0x1 DUP2 MSTORE RETURN JUMPDEST SWAP2 POP SWAP2 CALLVALUE PUSH2 0xD5C JUMPI PUSH1 0x20 DUP1 PUSH1 0x3 NOT CALLDATASIZE ADD SLT PUSH2 0xD8C JUMPI PUSH1 0x1 PUSH1 0x1 PUSH1 0xA0 SHL SUB PUSH2 0x1025 PUSH2 0x126D JUMP JUMPDEST AND DUP6 MSTORE PUSH1 0xB DUP2 MSTORE DUP2 DUP6 KECCAK256 DUP3 MLOAD DUP1 DUP3 DUP5 DUP3 SWAP5 SLOAD SWAP4 DUP5 DUP2 MSTORE ADD SWAP1 DUP10 MSTORE DUP5 DUP10 KECCAK256 SWAP3 DUP10 JUMPDEST DUP7 DUP3 DUP3 LT PUSH2 0x121A JUMPI POP POP POP PUSH2 0x105C SWAP3 POP SUB DUP3 PUSH2 0x14BD JUMP JUMPDEST DUP6 SWAP4 DUP7 JUMPDEST DUP3 MLOAD DUP2 LT ISZERO PUSH2 0x10AC JUMPI PUSH2 0x1073 DUP2 DUP5 PUSH2 0x1523 JUMP JUMPDEST MLOAD DUP9 MSTORE PUSH1 0xA DUP5 MSTORE PUSH1 0xFF PUSH1 0x6 DUP7 DUP11 KECCAK256 ADD SLOAD AND PUSH2 0x1097 JUMPI JUMPDEST PUSH2 0x1092 SWAP1 PUSH2 0x14DF JUMP JUMPDEST PUSH2 0x1060 JUMP JUMPDEST SWAP5 PUSH2 0x10A4 PUSH2 0x1092 SWAP2 PUSH2 0x14DF JUMP JUMPDEST SWAP6 SWAP1 POP PUSH2 0x1089 JUMP JUMPDEST POP SWAP5 SWAP1 DUP7 SWAP4 SWAP5 PUSH2 0x10BB DUP2 PUSH2 0x1537 JUMP JUMPDEST SWAP1 PUSH2 0x10C8 DUP8 MLOAD SWAP3 DUP4 PUSH2 0x14BD JUMP JUMPDEST DUP1 DUP3 MSTORE PUSH2 0x10D7 PUSH1 0x1F NOT SWAP2 PUSH2 0x1537 JUMP JUMPDEST ADD DUP5 DUP7 JUMPDEST DUP3 DUP2 LT PUSH2 0x1204 JUMPI POP POP POP DUP5 SWAP4 DUP6 JUMPDEST DUP4 MLOAD DUP2 LT ISZERO PUSH2 0x11B6 JUMPI PUSH2 0x10FC DUP2 DUP6 PUSH2 0x1523 JUMP JUMPDEST MLOAD DUP8 MSTORE PUSH1 0xA DUP1 DUP4 MSTORE PUSH1 0xFF PUSH1 0x6 SWAP2 DUP2 DUP4 DUP13 DUP13 KECCAK256 ADD SLOAD AND PUSH2 0x1127 JUMPI JUMPDEST POP POP POP PUSH2 0x1122 SWAP1 PUSH2 0x14DF JUMP JUMPDEST PUSH2 0x10E9 JUMP JUMPDEST SWAP2 DUP4 SWAP9 SWAP2 PUSH2 0x11AD SWAP4 PUSH2 0x113C PUSH2 0x1122 SWAP7 DUP11 PUSH2 0x1523 JUMP JUMPDEST MLOAD DUP13 MSTORE DUP7 MSTORE DUP12 DUP12 KECCAK256 SWAP2 DUP13 MLOAD SWAP3 PUSH2 0x1151 DUP5 PUSH2 0x1477 JUMP JUMPDEST DUP1 SLOAD DUP5 MSTORE PUSH1 0x1 DUP2 ADD SLOAD DUP9 DUP6 ADD MSTORE PUSH1 0x2 DUP2 ADD SLOAD DUP4 AND ISZERO ISZERO DUP15 DUP6 ADD MSTORE PUSH1 0x3 DUP2 ADD SLOAD PUSH1 0x60 DUP6 ADD MSTORE DUP11 DUP2 ADD SLOAD PUSH1 0x80 DUP6 ADD MSTORE PUSH1 0x5 DUP2 ADD SLOAD PUSH1 0xA0 DUP6 ADD MSTORE ADD SLOAD AND ISZERO ISZERO PUSH1 0xC0 DUP3 ADD MSTORE PUSH2 0x119C DUP3 DUP8 PUSH2 0x1523 JUMP JUMPDEST MSTORE PUSH2 0x11A7 DUP2 DUP7 PUSH2 0x1523 JUMP JUMPDEST POP PUSH2 0x14DF JUMP JUMPDEST SWAP6 SWAP1 DUP11 DUP1 PUSH2 0x1116 JUMP JUMPDEST DUP8 MLOAD DUP3 DUP2 MSTORE DUP4 MLOAD DUP2 DUP5 ADD DUP2 SWAP1 MSTORE DUP2 SWAP1 DUP2 DUP12 ADD SWAP1 DUP7 DUP7 ADD SWAP1 DUP7 DUP13 DUP16 JUMPDEST DUP4 DUP3 LT PUSH2 0x11DE JUMPI DUP7 DUP7 SUB DUP8 RETURN JUMPDEST SWAP2 DUP5 SWAP7 POP DUP3 DUP7 PUSH2 0x11F4 PUSH1 0x1 SWAP5 SWAP7 SWAP9 DUP5 SWAP9 MLOAD PUSH2 0x1288 JUMP JUMPDEST ADD SWAP7 ADD SWAP3 ADD DUP7 SWAP6 SWAP5 SWAP3 SWAP4 SWAP2 PUSH2 0x11D1 JUMP JUMPDEST PUSH2 0x120C PUSH2 0x154F JUMP JUMPDEST DUP3 DUP3 DUP7 ADD ADD MSTORE ADD DUP6 SWAP1 PUSH2 0x10DB JUMP JUMPDEST DUP6 SLOAD DUP5 MSTORE PUSH1 0x1 SWAP6 DUP7 ADD SWAP6 DUP8 SWAP6 POP SWAP4 ADD SWAP3 ADD PUSH2 0x1045 JUMP JUMPDEST POP DUP3 DUP5 CALLVALUE PUSH2 0x2DF JUMPI PUSH1 0x20 CALLDATASIZE PUSH1 0x3 NOT ADD SLT PUSH2 0x2DF JUMPI POP PUSH2 0x71A PUSH1 0x20 SWAP3 CALLDATALOAD PUSH2 0x1587 JUMP JUMPDEST DUP6 SWAP1 CALLVALUE PUSH2 0x1AE JUMPI DUP2 PUSH1 0x3 NOT CALLDATASIZE ADD SLT PUSH2 0x1AE JUMPI PUSH1 0x20 SWAP1 PUSH1 0x6 SLOAD DUP2 MSTORE RETURN JUMPDEST PUSH1 0x4 CALLDATALOAD SWAP1 PUSH1 0x1 PUSH1 0x1 PUSH1 0xA0 SHL SUB DUP3 AND DUP3 SUB PUSH2 0x1283 JUMPI JUMP JUMPDEST PUSH1 0x0 DUP1 REVERT JUMPDEST PUSH1 0xC0 DUP1 SWAP2 DUP1 MLOAD DUP5 MSTORE PUSH1 0x20 DUP2 ADD MLOAD PUSH1 0x20 DUP6 ADD MSTORE PUSH1 0x40 DUP2 ADD MLOAD ISZERO ISZERO PUSH1 0x40 DUP6 ADD MSTORE PUSH1 0x60 DUP2 ADD MLOAD PUSH1 0x60 DUP6 ADD MSTORE PUSH1 0x80 DUP2 ADD MLOAD PUSH1 0x80 DUP6 ADD MSTORE PUSH1 0xA0 DUP2 ADD MLOAD PUSH1 0xA0 DUP6 ADD MSTORE ADD MLOAD ISZERO ISZERO SWAP2 ADD MSTORE JUMP JUMPDEST DUP1 SLOAD DUP3 LT ISZERO PUSH2 0x12E5 JUMPI PUSH1 0x0 MSTORE PUSH1 0x20 PUSH1 0x0 KECCAK256 ADD SWAP1 PUSH1 0x0 SWAP1 JUMP JUMPDEST PUSH4 0x4E487B71 PUSH1 0xE0 SHL PUSH1 0x0 MSTORE PUSH1 0x32 PUSH1 0x4 MSTORE PUSH1 0x24 PUSH1 0x0 REVERT JUMPDEST PUSH1 0x24 CALLDATALOAD SWAP1 DUP2 ISZERO ISZERO DUP3 SUB PUSH2 0x1283 JUMPI JUMP JUMPDEST DUP2 DUP2 MUL SWAP3 SWAP2 DUP2 ISZERO SWAP2 DUP5 DIV EQ OR ISZERO PUSH2 0x131D JUMPI JUMP JUMPDEST PUSH4 0x4E487B71 PUSH1 0xE0 SHL PUSH1 0x0 MSTORE PUSH1 0x11 PUSH1 0x4 MSTORE PUSH1 0x24 PUSH1 0x0 REVERT JUMPDEST DUP2 ISZERO PUSH2 0x133D JUMPI DIV SWAP1 JUMP JUMPDEST PUSH4 0x4E487B71 PUSH1 0xE0 SHL PUSH1 0x0 MSTORE PUSH1 0x12 PUSH1 0x4 MSTORE PUSH1 0x24 PUSH1 0x0 REVERT JUMPDEST PUSH2 0x135B PUSH2 0x139C JUMP JUMPDEST SWAP1 PUSH8 0xDE0B6B3A7640000 SWAP2 DUP3 DUP2 MUL SWAP3 DUP2 DUP5 DIV EQ SWAP1 ISZERO OR ISZERO PUSH2 0x131D JUMPI PUSH2 0x137F SWAP2 PUSH2 0x1333 JUMP JUMPDEST SWAP1 JUMP JUMPDEST SWAP2 SWAP1 DUP3 ADD DUP1 SWAP3 GT PUSH2 0x131D JUMPI JUMP JUMPDEST SWAP2 SWAP1 DUP3 SUB SWAP2 DUP3 GT PUSH2 0x131D JUMPI JUMP JUMPDEST PUSH1 0x5 SLOAD PUSH1 0x6 SLOAD SWAP1 PUSH1 0x10 SLOAD PUSH1 0x0 DUP1 DUP3 SGT PUSH1 0x0 EQ PUSH2 0x13F9 JUMPI PUSH5 0xE8D4A51000 SWAP2 DUP3 DUP2 MUL SWAP3 DUP2 DUP5 DIV EQ SWAP1 ISZERO OR ISZERO PUSH2 0x13E5 JUMPI POP DUP1 DUP3 GT ISZERO PUSH2 0x13DE JUMPI PUSH2 0x13DB SWAP2 PUSH2 0x138F JUMP JUMPDEST SWAP2 JUMP JUMPDEST POP PUSH1 0x1 SHR SWAP2 JUMP JUMPDEST PUSH4 0x4E487B71 PUSH1 0xE0 SHL DUP2 MSTORE PUSH1 0x11 PUSH1 0x4 MSTORE PUSH1 0x24 SWAP1 REVERT JUMPDEST DUP1 DUP3 SWAP6 SWAP4 SWAP6 SLT PUSH2 0x1407 JUMPI POP POP JUMP JUMPDEST SWAP2 SWAP4 SWAP1 SWAP2 PUSH1 0x1 PUSH1 0xFF SHL DUP4 EQ PUSH2 0x13E5 JUMPI DUP3 DUP2 SUB SWAP3 PUSH5 0xE8D4A51000 DUP1 DUP6 MUL SWAP5 DUP6 DIV EQ SWAP1 ISZERO OR ISZERO PUSH2 0x13E5 JUMPI POP SWAP1 PUSH2 0x13DB SWAP2 PUSH2 0x1382 JUMP JUMPDEST ISZERO PUSH2 0x1441 JUMPI JUMP JUMPDEST PUSH1 0x40 MLOAD PUSH3 0x461BCD PUSH1 0xE5 SHL DUP2 MSTORE PUSH1 0x20 PUSH1 0x4 DUP3 ADD MSTORE PUSH1 0xE PUSH1 0x24 DUP3 ADD MSTORE PUSH14 0x507269636520736C697070616765 PUSH1 0x90 SHL PUSH1 0x44 DUP3 ADD MSTORE PUSH1 0x64 SWAP1 REVERT JUMPDEST PUSH1 0xE0 DUP2 ADD SWAP1 DUP2 LT PUSH8 0xFFFFFFFFFFFFFFFF DUP3 GT OR PUSH2 0x1493 JUMPI PUSH1 0x40 MSTORE JUMP JUMPDEST PUSH4 0x4E487B71 PUSH1 0xE0 SHL PUSH1 0x0 MSTORE PUSH1 0x41 PUSH1 0x4 MSTORE PUSH1 0x24 PUSH1 0x0 REVERT JUMPDEST PUSH8 0xFFFFFFFFFFFFFFFF DUP2 GT PUSH2 0x1493 JUMPI PUSH1 0x40 MSTORE JUMP JUMPDEST SWAP1 PUSH1 0x1F DUP1 NOT SWAP2 ADD AND DUP2 ADD SWAP1 DUP2 LT PUSH8 0xFFFFFFFFFFFFFFFF DUP3 GT OR PUSH2 0x1493 JUMPI PUSH1 0x40 MSTORE JUMP JUMPDEST PUSH1 0x0 NOT DUP2 EQ PUSH2 0x131D JUMPI PUSH1 0x1 ADD SWAP1 JUMP JUMPDEST SWAP2 SWAP1 SWAP2 PUSH1 0x0 DUP4 DUP3 ADD SWAP4 DUP5 SLT SWAP2 SLT SWAP1 DUP1 ISZERO DUP3 AND SWAP2 ISZERO AND OR PUSH2 0x131D JUMPI JUMP JUMPDEST DUP2 DUP2 SUB SWAP3 SWAP2 PUSH1 0x0 SGT DUP1 ISZERO DUP3 DUP6 SGT AND SWAP2 DUP5 SLT AND OR PUSH2 0x131D JUMPI JUMP JUMPDEST DUP1 MLOAD DUP3 LT ISZERO PUSH2 0x12E5 JUMPI PUSH1 0x20 SWAP2 PUSH1 0x5 SHL ADD ADD SWAP1 JUMP JUMPDEST PUSH8 0xFFFFFFFFFFFFFFFF DUP2 GT PUSH2 0x1493 JUMPI PUSH1 0x5 SHL PUSH1 0x20 ADD SWAP1 JUMP JUMPDEST PUSH1 0x40 MLOAD SWAP1 PUSH2 0x155C DUP3 PUSH2 0x1477 JUMP JUMPDEST DUP2 PUSH1 0xC0 PUSH1 0x0 SWAP2 DUP3 DUP2 MSTORE DUP3 PUSH1 0x20 DUP3 ADD MSTORE DUP3 PUSH1 0x40 DUP3 ADD MSTORE DUP3 PUSH1 0x60 DUP3 ADD MSTORE DUP3 PUSH1 0x80 DUP3 ADD MSTORE DUP3 PUSH1 0xA0 DUP3 ADD MSTORE ADD MSTORE JUMP JUMPDEST PUSH1 0x0 MSTORE PUSH1 0xA PUSH1 0x20 MSTORE PUSH1 0x40 PUSH1 0x0 KECCAK256 PUSH1 0xFF PUSH1 0x6 DUP3 ADD SLOAD AND ISZERO PUSH2 0x15F6 JUMPI PUSH8 0xDE0B6B3A7640000 SWAP1 PUSH2 0x15B3 PUSH2 0x1353 JUMP JUMPDEST SWAP1 PUSH1 0x1 DUP2 ADD SLOAD SWAP1 PUSH1 0xFF PUSH1 0x2 DUP3 ADD SLOAD AND PUSH1 0x0 EQ PUSH2 0x15E5 JUMPI PUSH2 0x15E1 SWAP3 PUSH1 0x3 PUSH2 0x15DB SWAP3 ADD SLOAD SWAP1 PUSH2 0x138F JUMP JUMPDEST SWAP1 PUSH2 0x130A JUMP JUMPDEST DIV SWAP1 JUMP JUMPDEST PUSH2 0x15E1 SWAP3 PUSH1 0x3 PUSH2 0x15DB SWAP3 ADD SLOAD PUSH2 0x138F JUMP JUMPDEST POP PUSH1 0x0 SWAP1 JUMP JUMPDEST ISZERO PUSH2 0x1603 JUMPI JUMP JUMPDEST PUSH1 0x40 MLOAD PUSH3 0x461BCD PUSH1 0xE5 SHL DUP2 MSTORE PUSH1 0x20 PUSH1 0x4 DUP3 ADD MSTORE PUSH1 0x9 PUSH1 0x24 DUP3 ADD MSTORE PUSH9 0x2737BA1037BBB732B9 PUSH1 0xB9 SHL PUSH1 0x44 DUP3 ADD MSTORE PUSH1 0x64 SWAP1 REVERT INVALID LOG2 PUSH5 0x6970667358 0x22 SLT KECCAK256 DUP8 JUMPI 0xD8 SELFDESTRUCT MLOAD 0xAC 0xF6 0xEF 0xEC PUSH29 0x217FB2A7F230570C25AA030342BEE5691D3E30C2C96F64736F6C634300 ADDMOD EQ STOP CALLER "},"methodIdentifiers":{"BASIS_POINTS()":"e1f1c4a7","MAX_LEVERAGE()":"9b45ec97","MIN_LEVERAGE()":"34c1557d","PRICE_PRECISION()":"95082d25","baseVirtualBaseReserves()":"add3fad1","baseVirtualQuoteReserves()":"022f84b7","closePosition(uint256,uint256,uint256,uint256)":"6e33531b","getEffectiveReserves()":"6e7f1e46","getMarkPrice()":"60409632","getMarketSummary()":"ca414882","getPosition(uint256)":"eb02c301","getPriceImpact(uint256,bool)":"d2e7b978","getUnrealizedPnL(uint256)":"0f259013","getUserPositions(address)":"2a6bc2dd","globalPositionId()":"f257b32e","maintenanceMarginRatio()":"83acb48a","maxReserveMultiplier()":"7da21dea","minReserveMultiplier()":"44f88097","netPosition()":"833b0acb","openPosition(uint256,bool,uint256,uint256,uint256)":"eaf1f1e6","oracle()":"7dc0d1d0","owner()":"8da5cb5b","positionOwner(uint256)":"b3060d36","positions(uint256)":"99fbab88","totalLongSize()":"5bf804af","totalShortSize()":"bf6268f2","tradingFeeRate()":"e01df1a8","transferOwnership(address)":"f2fde38b","updateSensitivity(uint256)":"9fc15e78","userPositionIds(address,uint256)":"7b6eb9b6","vault()":"fbfa77cf","volumeScaleFactor()":"b5e55377"}}}}}