{
  "_format": "hh-sol-artifact-1",
  "contractName": "MetricRegistry",
  "sourceName": "contracts/metrics/MetricRegistry.sol",
  "abi": [
    {
      "inputs": [],
      "stateMutability": "nonpayable",
      "type": "constructor"
    },
    {
      "anonymous": false,
      "inputs": [
        {
          "indexed": true,
          "internalType": "bytes32",
          "name": "metricId",
          "type": "bytes32"
        },
        {
          "indexed": false,
          "internalType": "string",
          "name": "reason",
          "type": "string"
        }
      ],
      "name": "MetricDeactivated",
      "type": "event"
    },
    {
      "anonymous": false,
      "inputs": [
        {
          "indexed": true,
          "internalType": "bytes32",
          "name": "metricId",
          "type": "bytes32"
        },
        {
          "indexed": false,
          "internalType": "string",
          "name": "name",
          "type": "string"
        },
        {
          "indexed": true,
          "internalType": "address",
          "name": "creator",
          "type": "address"
        },
        {
          "indexed": false,
          "internalType": "uint256",
          "name": "minimumStake",
          "type": "uint256"
        }
      ],
      "name": "MetricRegistered",
      "type": "event"
    },
    {
      "anonymous": false,
      "inputs": [
        {
          "indexed": true,
          "internalType": "bytes32",
          "name": "metricId",
          "type": "bytes32"
        },
        {
          "indexed": false,
          "internalType": "uint256",
          "name": "value",
          "type": "uint256"
        },
        {
          "indexed": true,
          "internalType": "address",
          "name": "submitter",
          "type": "address"
        },
        {
          "indexed": false,
          "internalType": "bytes32",
          "name": "ipfsProofHash",
          "type": "bytes32"
        }
      ],
      "name": "MetricSubmitted",
      "type": "event"
    },
    {
      "inputs": [
        {
          "internalType": "uint256",
          "name": "",
          "type": "uint256"
        }
      ],
      "name": "activeMetrics",
      "outputs": [
        {
          "internalType": "bytes32",
          "name": "",
          "type": "bytes32"
        }
      ],
      "stateMutability": "view",
      "type": "function"
    },
    {
      "inputs": [
        {
          "internalType": "bytes32",
          "name": "metricId",
          "type": "bytes32"
        },
        {
          "internalType": "string",
          "name": "reason",
          "type": "string"
        }
      ],
      "name": "deactivateMetric",
      "outputs": [],
      "stateMutability": "nonpayable",
      "type": "function"
    },
    {
      "inputs": [],
      "name": "getActiveMetrics",
      "outputs": [
        {
          "internalType": "bytes32[]",
          "name": "",
          "type": "bytes32[]"
        }
      ],
      "stateMutability": "view",
      "type": "function"
    },
    {
      "inputs": [
        {
          "internalType": "bytes32",
          "name": "metricId",
          "type": "bytes32"
        }
      ],
      "name": "getMetric",
      "outputs": [
        {
          "components": [
            {
              "internalType": "bytes32",
              "name": "metricId",
              "type": "bytes32"
            },
            {
              "internalType": "string",
              "name": "name",
              "type": "string"
            },
            {
              "internalType": "string",
              "name": "description",
              "type": "string"
            },
            {
              "internalType": "string",
              "name": "dataSource",
              "type": "string"
            },
            {
              "internalType": "string",
              "name": "calculationMethod",
              "type": "string"
            },
            {
              "internalType": "address",
              "name": "creator",
              "type": "address"
            },
            {
              "internalType": "uint256",
              "name": "createdAt",
              "type": "uint256"
            },
            {
              "internalType": "uint256",
              "name": "settlementPeriodDays",
              "type": "uint256"
            },
            {
              "internalType": "uint256",
              "name": "minimumStake",
              "type": "uint256"
            },
            {
              "internalType": "bool",
              "name": "isActive",
              "type": "bool"
            },
            {
              "internalType": "bytes32",
              "name": "umaIdentifier",
              "type": "bytes32"
            }
          ],
          "internalType": "struct IMetricRegistry.MetricDefinition",
          "name": "",
          "type": "tuple"
        }
      ],
      "stateMutability": "view",
      "type": "function"
    },
    {
      "inputs": [
        {
          "internalType": "string",
          "name": "name",
          "type": "string"
        }
      ],
      "name": "getMetricByName",
      "outputs": [
        {
          "components": [
            {
              "internalType": "bytes32",
              "name": "metricId",
              "type": "bytes32"
            },
            {
              "internalType": "string",
              "name": "name",
              "type": "string"
            },
            {
              "internalType": "string",
              "name": "description",
              "type": "string"
            },
            {
              "internalType": "string",
              "name": "dataSource",
              "type": "string"
            },
            {
              "internalType": "string",
              "name": "calculationMethod",
              "type": "string"
            },
            {
              "internalType": "address",
              "name": "creator",
              "type": "address"
            },
            {
              "internalType": "uint256",
              "name": "createdAt",
              "type": "uint256"
            },
            {
              "internalType": "uint256",
              "name": "settlementPeriodDays",
              "type": "uint256"
            },
            {
              "internalType": "uint256",
              "name": "minimumStake",
              "type": "uint256"
            },
            {
              "internalType": "bool",
              "name": "isActive",
              "type": "bool"
            },
            {
              "internalType": "bytes32",
              "name": "umaIdentifier",
              "type": "bytes32"
            }
          ],
          "internalType": "struct IMetricRegistry.MetricDefinition",
          "name": "",
          "type": "tuple"
        }
      ],
      "stateMutability": "view",
      "type": "function"
    },
    {
      "inputs": [
        {
          "internalType": "bytes32",
          "name": "metricId",
          "type": "bytes32"
        }
      ],
      "name": "getMetricStakeRequirement",
      "outputs": [
        {
          "internalType": "uint256",
          "name": "",
          "type": "uint256"
        }
      ],
      "stateMutability": "view",
      "type": "function"
    },
    {
      "inputs": [
        {
          "internalType": "address",
          "name": "creator",
          "type": "address"
        }
      ],
      "name": "getMetricsByCreator",
      "outputs": [
        {
          "internalType": "bytes32[]",
          "name": "",
          "type": "bytes32[]"
        }
      ],
      "stateMutability": "view",
      "type": "function"
    },
    {
      "inputs": [
        {
          "internalType": "bytes32",
          "name": "metricId",
          "type": "bytes32"
        }
      ],
      "name": "isMetricActive",
      "outputs": [
        {
          "internalType": "bool",
          "name": "",
          "type": "bool"
        }
      ],
      "stateMutability": "view",
      "type": "function"
    },
    {
      "inputs": [
        {
          "internalType": "bytes32",
          "name": "",
          "type": "bytes32"
        }
      ],
      "name": "metricExists",
      "outputs": [
        {
          "internalType": "bool",
          "name": "",
          "type": "bool"
        }
      ],
      "stateMutability": "view",
      "type": "function"
    },
    {
      "inputs": [
        {
          "internalType": "bytes32",
          "name": "",
          "type": "bytes32"
        },
        {
          "internalType": "uint256",
          "name": "",
          "type": "uint256"
        }
      ],
      "name": "metricSubmissions",
      "outputs": [
        {
          "internalType": "bytes32",
          "name": "metricId",
          "type": "bytes32"
        },
        {
          "internalType": "uint256",
          "name": "value",
          "type": "uint256"
        },
        {
          "internalType": "uint256",
          "name": "timestamp",
          "type": "uint256"
        },
        {
          "internalType": "string",
          "name": "sourceUrl",
          "type": "string"
        },
        {
          "internalType": "bytes32",
          "name": "dataHash",
          "type": "bytes32"
        },
        {
          "internalType": "bytes32",
          "name": "ipfsProofHash",
          "type": "bytes32"
        },
        {
          "internalType": "address",
          "name": "submitter",
          "type": "address"
        },
        {
          "internalType": "bool",
          "name": "isDisputed",
          "type": "bool"
        },
        {
          "internalType": "bool",
          "name": "isSettled",
          "type": "bool"
        }
      ],
      "stateMutability": "view",
      "type": "function"
    },
    {
      "inputs": [
        {
          "internalType": "bytes32",
          "name": "",
          "type": "bytes32"
        }
      ],
      "name": "metrics",
      "outputs": [
        {
          "internalType": "bytes32",
          "name": "metricId",
          "type": "bytes32"
        },
        {
          "internalType": "string",
          "name": "name",
          "type": "string"
        },
        {
          "internalType": "string",
          "name": "description",
          "type": "string"
        },
        {
          "internalType": "string",
          "name": "dataSource",
          "type": "string"
        },
        {
          "internalType": "string",
          "name": "calculationMethod",
          "type": "string"
        },
        {
          "internalType": "address",
          "name": "creator",
          "type": "address"
        },
        {
          "internalType": "uint256",
          "name": "createdAt",
          "type": "uint256"
        },
        {
          "internalType": "uint256",
          "name": "settlementPeriodDays",
          "type": "uint256"
        },
        {
          "internalType": "uint256",
          "name": "minimumStake",
          "type": "uint256"
        },
        {
          "internalType": "bool",
          "name": "isActive",
          "type": "bool"
        },
        {
          "internalType": "bytes32",
          "name": "umaIdentifier",
          "type": "bytes32"
        }
      ],
      "stateMutability": "view",
      "type": "function"
    },
    {
      "inputs": [
        {
          "internalType": "address",
          "name": "",
          "type": "address"
        },
        {
          "internalType": "uint256",
          "name": "",
          "type": "uint256"
        }
      ],
      "name": "metricsByCreator",
      "outputs": [
        {
          "internalType": "bytes32",
          "name": "",
          "type": "bytes32"
        }
      ],
      "stateMutability": "view",
      "type": "function"
    },
    {
      "inputs": [
        {
          "internalType": "string",
          "name": "",
          "type": "string"
        }
      ],
      "name": "metricsByName",
      "outputs": [
        {
          "internalType": "bytes32",
          "name": "",
          "type": "bytes32"
        }
      ],
      "stateMutability": "view",
      "type": "function"
    },
    {
      "inputs": [],
      "name": "minimumStakeMultiplier",
      "outputs": [
        {
          "internalType": "uint256",
          "name": "",
          "type": "uint256"
        }
      ],
      "stateMutability": "view",
      "type": "function"
    },
    {
      "inputs": [],
      "name": "owner",
      "outputs": [
        {
          "internalType": "address",
          "name": "",
          "type": "address"
        }
      ],
      "stateMutability": "view",
      "type": "function"
    },
    {
      "inputs": [
        {
          "internalType": "string",
          "name": "name",
          "type": "string"
        },
        {
          "internalType": "string",
          "name": "description",
          "type": "string"
        },
        {
          "internalType": "string",
          "name": "dataSource",
          "type": "string"
        },
        {
          "internalType": "string",
          "name": "calculationMethod",
          "type": "string"
        },
        {
          "internalType": "uint256",
          "name": "settlementPeriodDays",
          "type": "uint256"
        },
        {
          "internalType": "uint256",
          "name": "minimumStake",
          "type": "uint256"
        }
      ],
      "name": "registerMetric",
      "outputs": [
        {
          "internalType": "bytes32",
          "name": "metricId",
          "type": "bytes32"
        }
      ],
      "stateMutability": "payable",
      "type": "function"
    },
    {
      "inputs": [],
      "name": "registrationFee",
      "outputs": [
        {
          "internalType": "uint256",
          "name": "",
          "type": "uint256"
        }
      ],
      "stateMutability": "view",
      "type": "function"
    },
    {
      "inputs": [
        {
          "internalType": "bytes32",
          "name": "metricId",
          "type": "bytes32"
        },
        {
          "internalType": "uint256",
          "name": "value",
          "type": "uint256"
        },
        {
          "internalType": "string",
          "name": "sourceUrl",
          "type": "string"
        },
        {
          "internalType": "bytes32",
          "name": "dataHash",
          "type": "bytes32"
        },
        {
          "internalType": "bytes32",
          "name": "ipfsProofHash",
          "type": "bytes32"
        }
      ],
      "name": "submitMetricData",
      "outputs": [],
      "stateMutability": "nonpayable",
      "type": "function"
    },
    {
      "inputs": [
        {
          "internalType": "uint256",
          "name": "newMultiplier",
          "type": "uint256"
        }
      ],
      "name": "updateMinimumStakeMultiplier",
      "outputs": [],
      "stateMutability": "nonpayable",
      "type": "function"
    },
    {
      "inputs": [
        {
          "internalType": "uint256",
          "name": "newFee",
          "type": "uint256"
        }
      ],
      "name": "updateRegistrationFee",
      "outputs": [],
      "stateMutability": "nonpayable",
      "type": "function"
    },
    {
      "inputs": [
        {
          "internalType": "bytes32",
          "name": "metricId",
          "type": "bytes32"
        },
        {
          "internalType": "uint256",
          "name": "value",
          "type": "uint256"
        },
        {
          "internalType": "bytes",
          "name": "proof",
          "type": "bytes"
        }
      ],
      "name": "validateMetricData",
      "outputs": [
        {
          "internalType": "bool",
          "name": "isValid",
          "type": "bool"
        },
        {
          "internalType": "string",
          "name": "reason",
          "type": "string"
        }
      ],
      "stateMutability": "view",
      "type": "function"
    },
    {
      "inputs": [],
      "name": "withdrawFees",
      "outputs": [],
      "stateMutability": "nonpayable",
      "type": "function"
    }
  ],
  "bytecode": "0x608080604052346100395767016345785d8a0000600155600a600255600080546001600160a01b0319163317905561220e908161003f8239f35b600080fdfe6080604052600436101561001257600080fd5b60003560e01c806311891004146119af57806314c44e091461199157806318155977146119605780632ddfb2cf146118e557806334b005c6146118c7578063476343ee146117b5578063624d0ae71461173d578063678e12e9146116d0578063726ddbff1461168757806375b87f7f146115c65780638da5cb5b1461159d5780638dc6e7ea146115185780638ebac304146114ce5780638fc3a29d146111a857806395f187bd14611159578063992c816814610fee578063a8f3646e14610f68578063af582c6b14610f3a578063b020a57a14610f03578063b8eaa7a814610451578063dcaa79af146103555763dfbd92a11461010e57600080fd5b3461035057604036600319011261035057600435602480356001600160401b03811161035057610142903690600401611b0b565b8360009492945260206008815261016060ff60406000205416611d9b565b6000838152600380835260409091206005810154336001600160a01b0391821614908115610342575b50156102fe57600901805460ff8116156102bc5760ff1916905560005b600680548083101561029b57866101bc84611d47565b905490861b1c146101d75750506101d290611df5565b6101a6565b916000979193949596971992838101908111610286576102086101fc61021f92611d47565b905490881b1c92611d47565b819391549060031b91821b91600019901b19161790565b905582549081156102725750918161026d94926000805160206121b9833981519152989994019261024f84611d47565b81939154921b1b19169055555b604051938385948552840191611d7a565b0390a2005b634e487b7160e01b60009081526031600452fd5b82634e487b7160e01b60005260116004526000fd5b505050509091936000805160206121b9833981519152935061026d9061025c565b606487856040519162461bcd60e51b83528160048401528201527f4d657472696352656769737472793a20416c726561647920696e6163746976656044820152fd5b60405162461bcd60e51b815260048101849052601e818801527f4d657472696352656769737472793a204e6f7420617574686f72697a656400006044820152606490fd5b905060005416331438610189565b600080fd5b346103505760203660031901126103505760043560005260036020526040600020805461038460018301611ca1565b9161039160028201611ca1565b61039d60038301611ca1565b916103aa60048201611ca1565b9260018060a01b0360058301541693600683015461042960078501549261041b60088701549561040d600a60ff60098b015416990154996103ff6040519e8f9e8f908152610160908160208201520190611a28565b8d810360408f015290611a28565b908b820360608d0152611a28565b9089820360808b0152611a28565b9560a088015260c087015260e086015261010085015215156101208401526101408301520390f35b60c0366003190112610350576004356001600160401b0381116103505761047c903690600401611b0b565b906024356001600160401b0381116103505761049c903690600401611b0b565b9290916044356001600160401b038111610350576104be903690600401611b0b565b93906064356001600160401b038111610350576104df903690600401611b0b565b9091600154803410610ea8578615610e66578715610e17576001608435101580610e09575b15610db257600254908082810204821481151715610d9c570260a43510610d5757604051868682376004878201526020818881010301902054610d06576040516020810190878783376105736054828a81013360601b6020820152426034820152036034810184520182611bc0565b5190209687600052600860205260ff60406000205416610cc25761059983858385611fc9565b15610c71576040516020810190664d45545249435f60c81b825288886027830137808981016027810160009052036007810182526027016105da9082611bc0565b51902094604051996105eb8b611b89565b898b526105f9368a8a611bfe565b60208c0152369061060992611bfe565b60408a0152369061061992611bfe565b6060880152369061062992611bfe565b60808601523360a08601524260c086015260843560e086015260a4356101008601526001610120860152610140850152600083815260036020908152604090912085518155908501518051906001600160401b03821161091b5781906106926001850154611c67565b601f8111610c1e575b50602090601f8311600114610bac57600092610ba1575b50508160011b916000199060031b1c19161760018201555b60408501518051906001600160401b03821161091b5781906106ef6002850154611c67565b601f8111610b4e575b50602090601f8311600114610adc57600092610ad1575b50508160011b916000199060031b1c19161760028201555b60608501518051906001600160401b03821161091b57819061074c6003850154611c67565b601f8111610a7e575b50602090601f8311600114610a0c57600092610a01575b50508160011b916000199060031b1c19161760038201555b60808501518051906001600160401b03821161091b5781906107a96004850154611c67565b601f81116109ae575b50602090601f831160011461093c57600092610931575b50508160011b916000199060031b1c19161760048201555b6005810160018060a01b0360a08701511660018060a01b031982541617905560c0850151600682015560e085015160078201556101008501516008820155600a610140600983019661012081015115159760ff199860ff8a835416911617905501519101558260405183838237602081858101600481520301902055336000526005602052604060002093845494600160401b958681101561091b57610208818793600161089194018155611d62565b90556006549485101561091b5761090584927f505579c8e60c125ef8700d09442f84f82c4414c32ad303de547820a6b5907bfd92846108db6102088a600160209c01600655611d47565b90558460005260088852600160406000209182541617905560405194604086526040860191611d7a565b9260a435868201528033940390a3604051908152f35b634e487b7160e01b600052604160045260246000fd5b0151905087806107c9565b9250600484016000526020600020906000935b601f1984168510610993576001945083601f1981161061097a575b505050811b0160048201556107e1565b015160001960f88460031b161c1916905587808061096a565b8181015183556020948501946001909301929091019061094f565b909150600484016000526020600020601f840160051c8101602085106109fa575b90849392915b601f830160051c820181106109eb5750506107b2565b600081558594506001016109d5565b50806109cf565b01519050878061076c565b9250600384016000526020600020906000935b601f1984168510610a63576001945083601f19811610610a4a575b505050811b016003820155610784565b015160001960f88460031b161c19169055878080610a3a565b81810151835560209485019460019093019290910190610a1f565b909150600384016000526020600020601f840160051c810160208510610aca575b90849392915b601f830160051c82018110610abb575050610755565b60008155859450600101610aa5565b5080610a9f565b01519050878061070f565b9250600284016000526020600020906000935b601f1984168510610b33576001945083601f19811610610b1a575b505050811b016002820155610727565b015160001960f88460031b161c19169055878080610b0a565b81810151835560209485019460019093019290910190610aef565b909150600284016000526020600020601f840160051c810160208510610b9a575b90849392915b601f830160051c82018110610b8b5750506106f8565b60008155859450600101610b75565b5080610b6f565b0151905087806106b2565b9250600184016000526020600020906000935b601f1984168510610c03576001945083601f19811610610bea575b505050811b0160018201556106ca565b015160001960f88460031b161c19169055878080610bda565b81810151835560209485019460019093019290910190610bbf565b909150600184016000526020600020601f840160051c810160208510610c6a575b90849392915b601f830160051c82018110610c5b57505061069b565b60008155859450600101610c45565b5080610c3f565b60405162461bcd60e51b8152602060048201526024808201527f4d657472696352656769737472793a20436f6d706c69616e63652076696f6c616044820152633a34b7b760e11b6064820152608490fd5b60405162461bcd60e51b815260206004820152601c60248201527b26b2ba3934b1a932b3b4b9ba393c9d1024a21031b7b63634b9b4b7b760211b6044820152606490fd5b60405162461bcd60e51b815260206004820152602360248201527f4d657472696352656769737472793a204e616d6520616c72656164792065786960448201526273747360e81b6064820152608490fd5b60405162461bcd60e51b815260206004820152601d60248201527f4d657472696352656769737472793a205374616b6520746f6f206c6f770000006044820152606490fd5b634e487b7160e01b600052601160045260246000fd5b60405162461bcd60e51b815260206004820152602960248201527f4d657472696352656769737472793a20496e76616c696420736574746c656d656044820152681b9d081c195c9a5bd960ba1b6064820152608490fd5b5061016d6084351115610504565b60405162461bcd60e51b815260206004820152602160248201527f4d657472696352656769737472793a20456d707479206461746120736f7572636044820152606560f81b6064820152608490fd5b60405162461bcd60e51b815260206004820152601a6024820152794d657472696352656769737472793a20456d707479206e616d6560301b6044820152606490fd5b60405162461bcd60e51b815260206004820152602d60248201527f4d657472696352656769737472793a20496e73756666696369656e742072656760448201526c697374726174696f6e2066656560981b6064820152608490fd5b346103505760203660031901126103505760043560065481101561035057610f2c602091611d47565b90546040519160031b1c8152f35b3461035057602036600319011261035057610f6060018060a01b03600054163314612170565b600435600155005b3461035057602036600319011261035057600435610f9160018060a01b03600054163314612170565b60018110610f9e57600255005b60405162461bcd60e51b815260206004820152602260248201527f4d657472696352656769737472793a20496e76616c6964206d756c7469706c6960448201526132b960f11b6064820152608490fd5b34610350576020366003190112610350576004356001600160401b038111610350576110206020913690600401611b0b565b919061102a611e04565b50826040519384928337810160048152030190205480156111065760005260036020526111026040600020600a6040519161106483611b89565b8054835261107460018201611ca1565b602084015261108560028201611ca1565b604084015261109660038201611ca1565b60608401526110a760048201611ca1565b608084015260058101546001600160a01b031660a0840152600681015460c0840152600781015460e08401526008810154610100840152600981015460ff161515610120840152015461014082015260405191829182611a4d565b0390f35b60405162461bcd60e51b815260206004820152602560248201527f4d657472696352656769737472793a204d6574726963206e616d65206e6f7420604482015264199bdd5b9960da1b6064820152608490fd5b3461035057602036600319011261035057600435600052600860205260ff6040600020541680611191575b6020906040519015158152f35b50600360205260406000206009015460ff16611184565b346103505760a0366003190112610350576001600160401b03604435818111610350576111d9903690600401611b0b565b9160043560005260086020526111f660ff60406000205416611d9b565b600435600052600360205260ff600960406000200154161561147f576040519261012084018481108382111761091b57604052600435845261124a6020850193602435855260408601924284523691611bfe565b9060608501918252606435608086015260843560a08601523360c0860152600060e08601526000610100860152600435600052600760205260406000208054600160401b81101561091b576112a491600182018155611c35565b949094611469578551855551600185015551600284015551805191821161091b576112d26003840154611c67565b601f8111611422575b50602090601f83116001146113af576006939291600091836113a4575b50508160011b916000199060031b1c19161760038201555b6080830151600482015560a08301516005820155019060018060a01b0360c0820151169082549160ff60a01b60e0830151151560a01b169161010060ff60a81b910151151560a81b169260018060b01b03191617171790556040516024358152608435602082015233907fd12d17bda292a99be17fa0c01456d21ef168e34c4911761b9a9fef646f8ef284604060043592a3005b0151905085806112f8565b906003840160005260206000209160005b601f198516811061140a575091839160019360069695601f198116106113f1575b505050811b016003820155611310565b015160001960f88460031b161c191690558580806113e1565b919260206001819286850151815501940192016113c0565b600384016000526020600020601f840160051c810160208510611462575b601f830160051c820181106114565750506112db565b60008155600101611440565b5080611440565b634e487b7160e01b600052600060045260246000fd5b60405162461bcd60e51b815260206004820152602160248201527f4d657472696352656769737472793a204d6574726963206e6f742061637469766044820152606560f81b6064820152608490fd5b34610350576040366003190112610350576114e7611b38565b6001600160a01b031660009081526005602052604090208054602435919082101561035057602091610f2c91611d62565b3461035057600036600319011261035057604051600680548083526000918252602080840193927ff652222313e28459528d920b65115c16c04f3efc82aaedc97be59f3f377c0d3f92915b828210611586576111028561157a81890382611bc0565b60405191829182611b4e565b835486529485019460019384019390910190611563565b34610350576000366003190112610350576000546040516001600160a01b039091168152602090f35b346103505760403660031901126103505760243560043560005260076020526040600020908154811015610350576115fd91611c35565b50805460018201549160ff600282015461161960038401611ca1565b926116516004820154946006600584015493015493604051988998895260208901526040880152610120806060890152870190611a28565b93608086015260a085015260018060a01b03811660c0850152818160a01c16151560e085015260a81c1615156101008301520390f35b34610350576020366003190112610350576004358060005260086020526116b560ff60406000205416611d9b565b60005260036020526020600860406000200154604051908152f35b34610350576020366003190112610350576004356001600160401b03811161035057366023820112156103505761172a602061171781933690602481600401359101611bfe565b8160405193828580945193849201611a05565b8101600481520301902054604051908152f35b3461035057602080600319360112610350576001600160a01b0361175f611b38565b1660005260058152604060002090604051908181845491828152019360005281600020916000905b82821061179e576111028561157a81890382611bc0565b835486529485019460019384019390910190611787565b34610350576000366003190112610350576000546001600160a01b03166117dd338214612170565b4790811561187657600080809381935af13d15611871573d6117fe81611be3565b9061180c6040519283611bc0565b8152600060203d92013e5b1561181e57005b60405162461bcd60e51b815260206004820152602560248201527f4d657472696352656769737472793a20466565207769746864726177616c2066604482015264185a5b195960da1b6064820152608490fd5b611817565b60405162461bcd60e51b815260206004820152602360248201527f4d657472696352656769737472793a204e6f206665657320746f20776974686460448201526272617760e81b6064820152608490fd5b34610350576000366003190112610350576020600254604051908152f35b34610350576060366003190112610350576044356004356001600160401b0382116103505761191b611941923690600401611b0b565b91809150600052600860205261193860ff60406000205416611d9b565b60243590611e5a565b9061110260405192839215158352604060208401526040830190611a28565b34610350576020366003190112610350576004356000526008602052602060ff604060002054166040519015158152f35b34610350576000366003190112610350576020600154604051908152f35b34610350576020366003190112610350576004356119cb611e04565b508060005260086020526119e660ff60406000205416611d9b565b60005260036020526111026040600020600a6040519161106483611b89565b60005b838110611a185750506000910152565b8181015183820152602001611a08565b90602091611a4181518092818552858086019101611a05565b601f01601f1916010190565b60208152815160208201526020820151611ac0611a7861016092836040860152610180850190611a28565b611aab611a97604087015192601f199384888303016060890152611a28565b606087015183878303016080880152611a28565b906080860151908583030160a0860152611a28565b9260018060a01b0360a08201511660c084015260c081015160e084015260e0810151610100908185015281015161012090818501528101511515906101409182850152015191015290565b9181601f84011215610350578235916001600160401b038311610350576020838186019501011161035057565b600435906001600160a01b038216820361035057565b6020908160408183019282815285518094520193019160005b828110611b75575050505090565b835185529381019392810192600101611b67565b61016081019081106001600160401b0382111761091b57604052565b604081019081106001600160401b0382111761091b57604052565b601f909101601f19168101906001600160401b0382119082101761091b57604052565b6001600160401b03811161091b57601f01601f191660200190565b929192611c0a82611be3565b91611c186040519384611bc0565b829481845281830111610350578281602093846000960137010152565b8054821015611c51576000526007602060002091020190600090565b634e487b7160e01b600052603260045260246000fd5b90600182811c92168015611c97575b6020831014611c8157565b634e487b7160e01b600052602260045260246000fd5b91607f1691611c76565b9060405191826000825492611cb584611c67565b908184526001948581169081600014611d245750600114611ce1575b5050611cdf92500383611bc0565b565b9093915060005260209081600020936000915b818310611d0c575050611cdf93508201013880611cd1565b85548884018501529485019487945091830191611cf4565b915050611cdf94506020925060ff191682840152151560051b8201013880611cd1565b600654811015611c5157600660005260206000200190600090565b8054821015611c515760005260206000200190600090565b908060209392818452848401376000828201840152601f01601f1916010190565b15611da257565b60405162461bcd60e51b815260206004820152602560248201527f4d657472696352656769737472793a204d657472696320646f6573206e6f7420604482015264195e1a5cdd60da1b6064820152608490fd5b6000198114610d9c5760010190565b60405190611e1182611b89565b816101406000918281526060602082015260606040820152606080820152606060808201528260a08201528260c08201528260e082015282610100820152826101208201520152565b9291909260005260209060038252604093846000208551611e7a81611b89565b81548152611e8a60018301611ca1565b85820152611e9a60028301611ca1565b87820152611eaa60038301611ca1565b6060820152611ebb60048301611ca1565b608082015260058201546001600160a01b031660a0820152600682015460c0820152600782015460e08201526008820154610100820152600982015460ff16158015610120830152600a9092015461014090910152611fa15715611f705715611f3f576415985b1a5960da1b6001935191611f3583611ba5565b6005835282015290565b7450726f6f662063616e6e6f7420626520656d70747960581b6000935191611f6683611ba5565b6015835282015290565b507356616c75652063616e6e6f74206265207a65726f60601b6000935191611f9783611ba5565b6014835282015290565b5050734d6574726963206973206e6f742061637469766560601b6000935191611f9783611ba5565b91611fe6600a91949294611fde368787611bfe565b933691611bfe565b9151109081156120ad575b506120a657612001913691611bfe565b61202660405161201081611ba5565b600381526261706960e81b6020820152826120ca565b908115612078575b8115612044575b5061203f57600090565b600190565b61207291506040519061205682611ba5565b600a825269313637b1b5b1b430b4b760b11b60208301526120ca565b38612035565b90506120a060405161208981611ba5565b60048152630687474760e41b6020820152826120ca565b9061202e565b5050600090565b600a9150511038611ff1565b908151811015611c51570160200190565b9080518251106120a6576000905b825181518103908111610d9c5782116121685760019260005b825181101561215e57808401808511610d9c576001600160f81b031990819061211a90856120b9565b51169061212783866120b9565b51160361213c5761213790611df5565b6120f1565b5092509060005b6121565761215090611df5565b906120d8565b505050600190565b5092919091612143565b505050600090565b1561217757565b60405162461bcd60e51b815260206004820152601960248201527826b2ba3934b1a932b3b4b9ba393c9d102737ba1037bbb732b960391b6044820152606490fdfe8de93686d85695c891ad7e7c021810da0e4c4f4cf1587b79fd9bed4e0b7dbc2fa2646970667358221220bc3b2747cad9a64800d64cb8ae78160009db919a13e132774d8d9a65d7209bc964736f6c63430008140033",
  "linkReferences": {},
  "deployedLinkReferences": {}
}