{"contracts/vAMMFactory.sol":{"vAMMFactory":{"abi":[{"inputs":[],"stateMutability":"nonpayable","type":"constructor"},{"anonymous":false,"inputs":[{"indexed":true,"internalType":"bytes32","name":"marketId","type":"bytes32"},{"indexed":false,"internalType":"string","name":"symbol","type":"string"},{"indexed":false,"internalType":"uint256","name":"startingPrice","type":"uint256"},{"indexed":false,"internalType":"enum vAMMFactory.MarketType","name":"marketType","type":"uint8"},{"indexed":false,"internalType":"string","name":"description","type":"string"}],"name":"BondingCurveMarketCreated","type":"event"},{"anonymous":false,"inputs":[{"indexed":true,"internalType":"bytes32","name":"marketId","type":"bytes32"},{"indexed":true,"internalType":"address","name":"contractAddress","type":"address"},{"indexed":false,"internalType":"string","name":"contractType","type":"string"},{"indexed":false,"internalType":"bytes","name":"constructorArgs","type":"bytes"}],"name":"ContractDeployed","type":"event"},{"anonymous":false,"inputs":[{"indexed":false,"internalType":"uint256","name":"newFee","type":"uint256"}],"name":"DeploymentFeeUpdated","type":"event"},{"anonymous":false,"inputs":[{"indexed":true,"internalType":"bytes32","name":"marketId","type":"bytes32"},{"indexed":false,"internalType":"string","name":"symbol","type":"string"},{"indexed":true,"internalType":"address","name":"vamm","type":"address"},{"indexed":true,"internalType":"address","name":"vault","type":"address"},{"indexed":false,"internalType":"address","name":"oracle","type":"address"},{"indexed":false,"internalType":"address","name":"collateralToken","type":"address"},{"indexed":false,"internalType":"uint256","name":"startingPrice","type":"uint256"},{"indexed":false,"internalType":"enum vAMMFactory.MarketType","name":"marketType","type":"uint8"}],"name":"MarketCreated","type":"event"},{"anonymous":false,"inputs":[{"indexed":true,"internalType":"bytes32","name":"marketId","type":"bytes32"},{"indexed":false,"internalType":"bool","name":"isActive","type":"bool"}],"name":"MarketStatusChanged","type":"event"},{"anonymous":false,"inputs":[{"indexed":true,"internalType":"address","name":"previousOwner","type":"address"},{"indexed":true,"internalType":"address","name":"newOwner","type":"address"}],"name":"OwnershipTransferred","type":"event"},{"inputs":[{"internalType":"string","name":"symbol","type":"string"},{"internalType":"address","name":"oracle","type":"address"},{"internalType":"address","name":"collateralToken","type":"address"},{"internalType":"uint256","name":"startingPrice","type":"uint256"}],"name":"createMarket","outputs":[{"internalType":"bytes32","name":"marketId","type":"bytes32"},{"internalType":"address","name":"vammAddress","type":"address"},{"internalType":"address","name":"vaultAddress","type":"address"}],"stateMutability":"payable","type":"function"},{"inputs":[{"internalType":"enum vAMMFactory.MarketType","name":"","type":"uint8"}],"name":"defaultStartingPrices","outputs":[{"internalType":"uint256","name":"","type":"uint256"}],"stateMutability":"view","type":"function"},{"inputs":[],"name":"deploymentFee","outputs":[{"internalType":"uint256","name":"","type":"uint256"}],"stateMutability":"view","type":"function"},{"inputs":[{"internalType":"bytes32","name":"marketId","type":"bytes32"}],"name":"getMarket","outputs":[{"components":[{"internalType":"address","name":"vamm","type":"address"},{"internalType":"address","name":"vault","type":"address"},{"internalType":"address","name":"oracle","type":"address"},{"internalType":"address","name":"collateralToken","type":"address"},{"internalType":"string","name":"symbol","type":"string"},{"internalType":"bool","name":"isActive","type":"bool"},{"internalType":"uint256","name":"createdAt","type":"uint256"},{"internalType":"uint256","name":"startingPrice","type":"uint256"},{"internalType":"enum vAMMFactory.MarketType","name":"marketType","type":"uint8"}],"internalType":"struct vAMMFactory.MarketInfo","name":"","type":"tuple"}],"stateMutability":"view","type":"function"},{"inputs":[{"internalType":"address","name":"","type":"address"}],"name":"isValidMarket","outputs":[{"internalType":"bool","name":"","type":"bool"}],"stateMutability":"view","type":"function"},{"inputs":[],"name":"marketCount","outputs":[{"internalType":"uint256","name":"","type":"uint256"}],"stateMutability":"view","type":"function"},{"inputs":[{"internalType":"uint256","name":"","type":"uint256"}],"name":"marketIds","outputs":[{"internalType":"bytes32","name":"","type":"bytes32"}],"stateMutability":"view","type":"function"},{"inputs":[{"internalType":"bytes32","name":"","type":"bytes32"}],"name":"markets","outputs":[{"internalType":"address","name":"vamm","type":"address"},{"internalType":"address","name":"vault","type":"address"},{"internalType":"address","name":"oracle","type":"address"},{"internalType":"address","name":"collateralToken","type":"address"},{"internalType":"string","name":"symbol","type":"string"},{"internalType":"bool","name":"isActive","type":"bool"},{"internalType":"uint256","name":"createdAt","type":"uint256"},{"internalType":"uint256","name":"startingPrice","type":"uint256"},{"internalType":"enum vAMMFactory.MarketType","name":"marketType","type":"uint8"}],"stateMutability":"view","type":"function"},{"inputs":[],"name":"owner","outputs":[{"internalType":"address","name":"","type":"address"}],"stateMutability":"view","type":"function"},{"inputs":[{"internalType":"uint256","name":"newFee","type":"uint256"}],"name":"setDeploymentFee","outputs":[],"stateMutability":"nonpayable","type":"function"},{"inputs":[{"internalType":"bytes32","name":"marketId","type":"bytes32"},{"internalType":"bool","name":"isActive","type":"bool"}],"name":"setMarketStatus","outputs":[],"stateMutability":"nonpayable","type":"function"},{"inputs":[{"internalType":"address","name":"newOwner","type":"address"}],"name":"transferOwnership","outputs":[],"stateMutability":"nonpayable","type":"function"},{"inputs":[],"name":"withdrawFees","outputs":[],"stateMutability":"nonpayable","type":"function"}],"evm":{"bytecode":{"linkReferences":{},"object":"608080604052346100be5767016345785d8a0000600555600080546001600160a01b03191633178155600660205266038d7ea4c680007f54cdd369e4e8a8515e52ca72ec816c2101831ad1f18bf44102ed171459c9b4f855670de0b6b3a76400007f3e5fec24aa4dc4e5aee2e025e51e1392c72a2500577559fae9665c6d52bd6a31556002905268056bc75e2d631000007f8819ef417987f8ae7a81f42cdfb18815282fe989326fbff903d13cf0e03ace295561656c90816100c48239f35b600080fdfe608060405260043610156200001357600080fd5b6000803560e01c80632a5197331462000f10578063476343ee1462000e3757806358e6309f1462000df457806373d8c6bd14620004ce5780637564912b146200040d578063779a968314620003ce5780638da5cb5b14620003a5578063c3c95c7b1462000213578063d002462b14620001b5578063ec9790821462000195578063f0a9d4c4146200015a578063f2cff57f146200013a5763f2fde38b14620000ba57600080fd5b34620001375760203660031901126200013757620000d762000fe8565b8154906001600160a01b0380831691620000f33384146200133e565b168092620001038215156200133e565b6001600160a01b0319161783557f8be0079c531659141344cd1fd0a4f28419497f9722a3daafe3b4186f6b6457e08380a380f35b80fd5b503462000137578060031936011262000137576020600554604051908152f35b5034620001375760203660031901126200013757600435600381101562000191578160409160209352600683522054604051908152f35b5080fd5b503462000137578060031936011262000137576020600454604051908152f35b50346200013757602036600319011262000137577f40bd824d588484917db8fa4fc894c1e0feae5a75885290ba7b97521cebf82a8060206004356200020560018060a01b0385541633146200133e565b80600555604051908152a180f35b50346200013757602036600319011262000137578060409161010083516200023b8162001019565b8281528260208201528285820152826060820152606060808201528260a08201528260c08201528260e0820152015260043581526001602052206200030160ff6008604051936200028c8562001019565b80546001600160a01b0390811686526001820154811660208701526002820154811660408701526003820154166060860152620002cc60048201620010b4565b608086015282600582015416151560a0860152600681015460c0860152600781015460e0860152015416610100830162001303565b60405180916020825260018060a01b03815116602083015260018060a01b03602082015116604083015260018060a01b03604082015116606083015260018060a01b036060820151166080830152620003a1608082015161010062000375610120928360a08801526101408701906200118b565b9360a0810151151560c087015260c081015160e087015260e081015182870152015190840190620011b2565b0390f35b50346200013757806003193601126200013757546040516001600160a01b039091168152602090f35b50346200013757602036600319011262000137576004359060035482101562000137576020620003fe83620011d6565b90549060031b1c604051908152f35b5034620001375760203660031901126200013757604090600435815260016020522060018060a01b03908181541690620003a183600183015416938060028401541690600384015416926200046560048201620010b4565b93620004b060ff6005840154169560068401549260ff6008600787015496015416956040519a8b9a8b5260208b015260408a015260608901526101208060808a01528801906200118b565b94151560a087015260c086015260e0850152610100840190620011b2565b50608036600319011262000137576004359067ffffffffffffffff8211620001375736602383011215620001375781600401356200050c816200105a565b926200051c604051948562001037565b818452366024838301011162000df05781839260246020930183870137840101526024356001600160a01b038116900362000137576044356001600160a01b03811690036200013757600554341062000dc557620005876024356001600160a01b0316151562001224565b6200059f6044356001600160a01b031615156200125b565b620005ad8251151562001296565b606435151591620005be83620012cd565b62000614620005cf60643562001310565b93620005e86024356001600160a01b0316151562001224565b620006006044356001600160a01b031615156200125b565b6200060e8351151562001296565b620012cd565b6004546200067e60886040518093855162000637816020850160208a0162001166565b8201906001600160601b031960243560601b1660208301526001600160601b031960443560601b166034830152426048830152606882015203606881018452018262001037565b6020815191012091828152600160205260018060a01b0360408220541662000d9657604051806112dd81011067ffffffffffffffff6112dd8301111762000d82576112dd6200137582396044356001600160a01b03166112dd82019081528190036020019082f0801562000d755760018060a01b03169160405180613ee581011067ffffffffffffffff613ee58301111762000cf557613ee56200265282396001600160a01b03848116613ee58301908152602435909116602082015260643560408201528190606001039083f0801562000d6a576001600160a01b031691833b15620001375760405163175dcc5d60e21b815260048101849052818160248183895af1801562000d6a5762000d58575b5090833b15620001915760405163f2fde38b60e01b8152336004820152828160248183895af1801562000d355790839162000d40575b5050823b15620001915760405163f2fde38b60e01b8152336004820152828160248183885af1801562000d355790839162000d1d575b5050600454600019811462000d09576001016004556003546801000000000000000081101562000cf557806001620008379201600355620011d6565b81549060031b9087821b91600019901b1916179055828252600260205260408220600160ff19825416179055604051620008718162001019565b838152602081018590526001600160a01b036024358116604083015260443516606082015260808101829052600160a08201524260c082015260643560e0820152620008c287610100830162001303565b8583526001602052604083209060018060a01b038151166001600160601b0360a01b90818454161783556001830160018060a01b03602084015116828254161790556002830160018060a01b0360408401511682825416179055600383019060018060a01b0360608401511690825416179055608081015180519067ffffffffffffffff821162000ce1576200095c600485015462001077565b601f811162000c97575b50602090601f831160011462000c215761010093929187918362000c15575b50508160011b916000199060031b1c19161760048401555b620009bd60a08201511515600585019060ff801983541691151516179055565b60c0810151600684015560e08101516007840155015190600382101562000c01576008019060ff801983541691161790558383867f47ab7633006b3b6d4ecfa77b1c64dac99d985e2ec70de8fe50aeeded29c9574260405160a081528062000a2960a08201886200118b565b6001600160a01b0360243581166020840152604435166040830152606435606083015262000a5b608083018e620011b2565b0390a46040519060018060a01b0360443516602083015260208252604082019180831067ffffffffffffffff84111762000beb5760609787948686868a826020977fd995305719d82e4f9057e27ef693f99f3b5c384215955b35d47c5619856aea379a60405260408452600560808201526415985d5b1d60da1b60a08201528f6080908201527fdc7531fd6d62b7d8261d79f7b7ce83982ac69e2db1b52960d080fbbb1ecd152a938491603f199062000b1860c08201826200118b565b030190a3604080516001600160a01b038d8116898301908152602435909116602082015260643581840152819003918201815262000b9b9162000b5f906060018262001037565b604051918291604083526010604084015260606f426f6e64696e67437572766556414d4d60801b9084015260808a84015260808301906200118b565b0390a362000bcc62000bb9604051956080875260808701906200118b565b92606435858701526040860190620011b2565b83820391828b860152520190a260405192835260208301526040820152f35b634e487b7160e01b600052604160045260246000fd5b634e487b7160e01b84526021600452602484fd5b01519050388062000985565b906004850187526020872091875b601f198516811062000c7e57509183916001936101009695601f1981161062000c64575b505050811b0160048401556200099d565b015160001960f88460031b161c1916905538808062000c53565b9192602060018192868501518155019401920162000c2f565b60048501875260208720601f840160051c81016020851062000cd9575b601f830160051c8201811062000ccc57505062000966565b6000815560010162000cb4565b508062000cb4565b634e487b7160e01b86526041600452602486fd5b634e487b7160e01b83526041600452602483fd5b634e487b7160e01b83526011600452602483fd5b62000d289062001004565b62000191578138620007fb565b6040513d85823e3d90fd5b62000d4b9062001004565b62000191578138620007c5565b62000d639062001004565b386200078f565b6040513d84823e3d90fd5b50604051903d90823e3d90fd5b634e487b7160e01b82526041600452602482fd5b60405162461bcd60e51b81526020600482015260076024820152662165786973747360c81b6044820152606490fd5b606460405162461bcd60e51b81526020600482015260046024820152632166656560e01b6044820152fd5b8280fd5b503462000137576020366003190112620001375760209060ff906040906001600160a01b0362000e2362000fe8565b168152600284522054166040519015158152f35b5034620001375780600319360112620001375780546001600160a01b031662000e623382146200133e565b4790811562000ee0578280809381935af13d1562000eda573d62000e86816200105a565b9062000e96604051928362001037565b81528260203d92013e5b1562000ea95780f35b60405162461bcd60e51b815260206004820152600960248201526821776974686472617760b81b6044820152606490fd5b62000ea0565b60405162461bcd60e51b81526020600482015260086024820152672162616c616e636560c01b6044820152606490fd5b50346200013757604036600319011262000137576004356024358015159081810362000fe45783546001600160a01b039062000f5090821633146200133e565b83855260016020526040852054161562000fb6577ff74802a5f03ef3b60653fc5ef30996c42340c6f63ad2a625f0f7d4f996b28f359162000fac60209285875260018452600560408820019060ff801983541691151516179055565b604051908152a280f35b60405162461bcd60e51b815260206004820152600660248201526508599bdd5b9960d21b6044820152606490fd5b8380fd5b600435906001600160a01b038216820362000fff57565b600080fd5b67ffffffffffffffff811162000beb57604052565b610120810190811067ffffffffffffffff82111762000beb57604052565b90601f8019910116810190811067ffffffffffffffff82111762000beb57604052565b67ffffffffffffffff811162000beb57601f01601f191660200190565b90600182811c92168015620010a9575b60208310146200109357565b634e487b7160e01b600052602260045260246000fd5b91607f169162001087565b9060405191826000825492620010ca8462001077565b908184526001948581169081600014620011415750600114620010fa575b5050620010f89250038362001037565b565b9093915060005260209081600020936000915b81831062001128575050620010f893508201013880620010e8565b855488840185015294850194879450918301916200110d565b915050620010f894506020925060ff191682840152151560051b8201013880620010e8565b60005b8381106200117a5750506000910152565b818101518382015260200162001169565b90602091620011a68151809281855285808601910162001166565b601f01601f1916010190565b906003821015620011c05752565b634e487b7160e01b600052602160045260246000fd5b6003548110156200120e5760036000527fc2575a0e9e593c00f959f8c92f12db2869c3395a3b0502d05e2516446f71f85b0190600090565b634e487b7160e01b600052603260045260246000fd5b156200122c57565b60405162461bcd60e51b8152602060048201526007602482015266216f7261636c6560c81b6044820152606490fd5b156200126357565b60405162461bcd60e51b815260206004820152600b60248201526a0858dbdb1b185d195c985b60aa1b6044820152606490fd5b156200129e57565b60405162461bcd60e51b8152602060048201526007602482015266085cde5b589bdb60ca1b6044820152606490fd5b15620012d557565b60405162461bcd60e51b815260206004820152600660248201526521707269636560d01b6044820152606490fd5b6003821015620011c05752565b662386f26fc100008111620013255750600090565b678ac7230489e80000106200133957600190565b600290565b156200134657565b60405162461bcd60e51b815260206004820152600660248201526510b7bbb732b960d11b6044820152606490fdfe60803461008457601f6112dd38819003918201601f19168301916001600160401b038311848410176100895780849260209460405283398101031261008457516001600160a01b038116908190036100845760ff196005541660055560018060a01b031933816000541617600055600254161760025560405161123d90816100a08239f35b600080fd5b634e487b7160e01b600052604160045260246000fdfe6080604081815260048036101561001557600080fd5b600092833560e01c9081622bc16414610e2d57508063350c35e914610c4b5780633f4ba83a14610bf5578063485d7d9414610b885780635969f96b14610acf5780635c975abb14610aab5780635d773174146109bf5780637569f4c8146108ad5780638456cb59146108515780638da5cb5b1461082957806390a8ae9b1461080c5780639101e5b3146106f457806395ccea671461060d578063a5d5db0c14610505578063b2016bd4146104dc578063b39ff736146104aa578063b91816111461046e578063bcbaf487146103b5578063c1c7c9dd1461038f578063c90ba3a614610362578063cb625680146102bb578063cf1c316a1461020a578063e098372c146101e1578063e1f1c4a7146101c05763f2fde38b1461013557600080fd5b346101bc5760203660031901126101bc5761014e610ec9565b835491906001600160a01b03906101683383861614610ee4565b169283156101825750506001600160a01b03191617815580f35b906020606492519162461bcd60e51b835282015260146024820152732b30bab63a1d1034b73b30b634b21037bbb732b960611b6044820152fd5b8280fd5b5050346101dd57816003193601126101dd57602090516127108152f35b5080fd5b5050346101dd57816003193601126101dd5760015490516001600160a01b039091168152602090f35b5090346101bc5760203660031901126101bc57610225610ec9565b83546001600160a01b03919061023e9083163314610ee4565b16918215610280578284526020528220805460ff191660011790557fdd10d14f6ac19e913d4edbb11fd30661531e2ccd0d23f571e9b224f001f0dd068280a280f35b6020606492519162461bcd60e51b835282015260166024820152755661756c743a20696e76616c6964206164647265737360501b6044820152fd5b50346101bc57816003193601126101bc5760207f22d38deb33ee15dd233167fc440609397a226eb4e1b61e1773bdd09ef99424aa916102f8610ec9565b60243591338752835260ff8587205416801561034f575b610318906110b9565b6001600160a01b03169361032d851515610fa3565b8486526003835260028187200161034583825461110a565b905551908152a280f35b5085546001600160a01b0316331461030f565b5050346101dd5760203660031901126101dd57602090610388610383610ec9565b611171565b9051908152f35b5050346101dd5760203660031901126101dd576020906103886103b0610ec9565b611126565b50346101bc57816003193601126101bc5760207fe538b9438650b40b382a773f4b71a35129a6b330599b42ed9b50492847972fa6916103f2610ec9565b60243591338752835260ff8587205416801561045b575b610412906110b9565b6001600160a01b031680865260038352848620805491959187916002918511610453576104408582546110fd565b81555b826001820155015551908152a280f35b828155610443565b5085546001600160a01b03163314610409565b50346101bc5760203660031901126101bc5760209260ff918391906001600160a01b03610499610ec9565b168252855220541690519015158152f35b5050346101dd57806003193601126101dd576020906104d36104ca610ec9565b60243590611199565b90519015158152f35b5050346101dd57816003193601126101dd5760025490516001600160a01b039091168152602090f35b50346101bc57816003193601126101bc5761051e610ec9565b918360206024359361053560ff6005541615610f23565b610540851515610f5f565b6001600160a01b039586169560649061055a881515610fa3565b6002541691855194859384926323b872dd60e01b845233908401523060248401528860448401525af190811561060357916105c17fd7243f6f8212d5188fd054141cf6ea89cfc0d91facb8c3afe2f88a1358480142949260209488916105d6575b50611051565b84865260038352808620610345838254611096565b6105f69150853d81116105fc575b6105ee8183611017565b810190611039565b386105bb565b503d6105e4565b82513d87823e3d90fd5b50346101bc57816003193601126101bc57610626610ec9565b83546001600160a01b039081169061063f338314610ee4565b60ff60055416156106bd57845163a9059cbb60e01b81526001600160a01b0392909216938201938452602435602080860191909152919493919285928390036040019183918891165af19081156106b45750610699575080f35b6106b09060203d81116105fc576105ee8183611017565b5080f35b513d84823e3d90fd5b845162461bcd60e51b8152602081860152601160248201527015985d5b1d0e881b9bdd081c185d5cd959607a1b6044820152606490fd5b5090346101bc57806003193601126101bc5761070e610ec9565b90602435913385528360205260ff828620541680156107f9575b610731906110b9565b61074060ff6005541615610f23565b61074b831515610f5f565b6001600160a01b031692610760841515610fa3565b8385526003602052600182862001908154908482106107aa57509183916103457f5e63d54af10545f0b2bd229512f244caefe863ad94dbbb7ad827432c84d762f5956020956110fd565b608490602085519162461bcd60e51b8352820152602360248201527f5661756c743a20696e73756666696369656e74207265736572766564206d617260448201526233b4b760e91b6064820152fd5b5084546001600160a01b03163314610728565b5050346101dd57816003193601126101dd57602090516113888152f35b5050346101dd57816003193601126101dd57905490516001600160a01b039091168152602090f35b83346108aa57806003193601126108aa5761087660018060a01b038254163314610ee4565b600160ff1960055416176005557f9e87fac88ff661f02d44f95383c817fece4bce600a3dab7a54406878b965e7528180a180f35b80fd5b5090346101bc57806003193601126101bc576108c7610ec9565b90602435913385528360205260ff828620541680156109ac575b6108ea906110b9565b6108f960ff6005541615610f23565b610904831515610f5f565b6001600160a01b0381169361091a851515610fa3565b84865260036020528361092f84882093611126565b1061096957509160209160017f7a9b1b90f35f094ffc6d04d86069c79e82c6a16eb600f79672428a409635deca9401610345838254611096565b606490602084519162461bcd60e51b8352820152601a60248201527f5661756c743a20696e73756666696369656e74206d617267696e0000000000006044820152fd5b5084546001600160a01b031633146108e1565b5090346101bc5760203660031901126101bc576109da610ec9565b83546001600160a01b0391906109f39083163314610ee4565b16918215610a7357826bffffffffffffffffffffffff60a01b60015416176001558284526020528220600160ff19825416179055807fb9b7e0cd0425b8d1399710185feab651b96089b6f0e01cb950ffb46b17227cbf8380a27fdd10d14f6ac19e913d4edbb11fd30661531e2ccd0d23f571e9b224f001f0dd068280a280f35b6020606492519162461bcd60e51b835282015260136024820152725661756c743a20696e76616c69642076616d6d60681b6044820152fd5b5050346101dd57816003193601126101dd5760209060ff6005541690519015158152f35b5090346101bc5760603660031901126101bc577f4519c0de74b8f9f16fda0005326875e3fd4dd0d38446a1135a1ffa1739e4591e90610b0c610ec9565b602435906044359433875260205260ff83872054168015610b75575b610b31906110b9565b6001600160a01b031693610b46851515610fa3565b848652600360205280600384882060028101610b6386825461110a565b9055015582519182526020820152a280f35b5085546001600160a01b03163314610b28565b5090346101bc5760203660031901126101bc57610ba3610ec9565b83546001600160a01b039190610bbc9083163314610ee4565b1691828452602052822060ff1981541690557f0fafd0343e6c6f6985727574866da48938c918559eb9521cf9cc0d317ea0f7b48280a280f35b83346108aa57806003193601126108aa57610c1a60018060a01b038254163314610ee4565b60ff19600554166005557fa45f47fdea8a1efdd9029a5691c7f759c32b7c698632b563573e155625d169338180a180f35b50346101bc57816003193601126101bc57610c64610ec9565b90602435610c7760ff6005541615610f23565b610c82811515610f5f565b6001600160a01b0383811693909290610c9c851515610fa3565b8433148015610e18575b610caf906110b9565b848752602093600385528688208054858110610dd55785610ccf85611126565b10610d865792898693610d1e9693610ce8868b986110fd565b905560025416928a519687958694859363a9059cbb60e01b8552840160209093929193604081019460018060a01b031681520152565b03925af1908115610d7c577fc30fcfbcaac9e0deffa719714eaa82396ff506a0d0d0eebe170830177288715d949591610d5d918891610d655750611051565b51908152a280f35b6105f69150853d87116105fc576105ee8183611017565b85513d88823e3d90fd5b885162461bcd60e51b81528086018890526024808201527f5661756c743a20696e73756666696369656e7420617661696c61626c65206d616044820152633933b4b760e11b6064820152608490fd5b885162461bcd60e51b8152808601889052601e60248201527f5661756c743a20696e73756666696369656e7420636f6c6c61746572616c00006044820152606490fd5b5033875260208290528587205460ff16610ca6565b915050346101bc5760203660031901126101bc578282916080946060610e51610ec9565b92610e5b81610fe5565b8281528260208201528286820152015260018060a01b0316815260036020522090805190610e8882610fe5565b825492838352600181015460208401908152606060036002840154938587019485520154940193845282519485525160208501525190830152516060820152f35b600435906001600160a01b0382168203610edf57565b600080fd5b15610eeb57565b60405162461bcd60e51b815260206004820152601060248201526f2b30bab63a1d103737ba1037bbb732b960811b6044820152606490fd5b15610f2a57565b60405162461bcd60e51b815260206004820152600d60248201526c15985d5b1d0e881c185d5cd959609a1b6044820152606490fd5b15610f6657565b60405162461bcd60e51b815260206004820152601560248201527415985d5b1d0e881a5b9d985b1a5908185b5bdd5b9d605a1b6044820152606490fd5b15610faa57565b60405162461bcd60e51b81526020600482015260136024820152722b30bab63a1d1034b73b30b634b2103ab9b2b960691b6044820152606490fd5b6080810190811067ffffffffffffffff82111761100157604052565b634e487b7160e01b600052604160045260246000fd5b90601f8019910116810190811067ffffffffffffffff82111761100157604052565b90816020910312610edf57518015158103610edf5790565b1561105857565b60405162461bcd60e51b815260206004820152601660248201527515985d5b1d0e881d1c985b9cd9995c8819985a5b195960521b6044820152606490fd5b919082018092116110a357565b634e487b7160e01b600052601160045260246000fd5b156110c057565b60405162461bcd60e51b815260206004820152601560248201527415985d5b1d0e881b9bdd08185d5d1a1bdc9a5e9959605a1b6044820152606490fd5b919082039182116110a357565b919091600083820193841291129080158216911516176110a357565b6001600160a01b03811660009081526003602052604090209061114890611171565b90600082131561116a57600101548082111561116a57611167916110fd565b90565b5050600090565b6001600160a01b0316600090815260036020526040902080546002909101546111679161110a565b6001600160a01b038116600090815260036020526040812060010154918215611200576111c590611171565b92818413156111f757808302928304036111e3575061271090041190565b634e487b7160e01b81526011600452602490fd5b50505050600190565b509150509056fea2646970667358221220250518e77c864c13c97be4c084e3bf3e6d1eb5e1875e8924e7513fa1addc672c64736f6c634300081400336080346200016557601f62003ee538819003918201601f19168301916001600160401b038311848410176200016a5780849260609460405283398101031262000165576200004d8162000180565b9060406200005e6020830162000180565b91015191601e6003556101f4806004556005556103e86006556714d1120d7b16000060085560ff196018541660185560018060a01b0319913383600054161760005560018060a01b03809216836001541617600155169060025416176002556007557f1551b5180ce27b1b0d183046bbf7f4ed792368fa907dcaa0e08d22c5e8b145126060620000ed620001e0565b620000f7620005df565b80156200015057670de0b6b3a76400006200011883835b8060095562000195565b04600a55604051918252602082015260006040820152a142600d556305f5e100600c5560016013556040516138f39081620005f28239f35b670de0b6b3a76400006200011883826200010e565b600080fd5b634e487b7160e01b600052604160045260246000fd5b51906001600160a01b03821682036200016557565b81810292918115918404141715620001a957565b634e487b7160e01b600052601160045260246000fd5b8115620001ca570490565b634e487b7160e01b600052601260045260246000fd5b620001ea620005df565b80156200042b57670de0b6b3a764000090818102908082048303620001a95782620002168284620001bf565b03620003e6576ec097ce7bc90715b34b9f1000000000029080158183048414811715620001a957839015918262000413575b5050620002dc576103e8900480820190828210620003e65760085491600091816200031257505050600090156000146200030c5750805b905b60075461271092838202938285041482151715620001a957620002a491620004c1565b8181029080158183048414811715620001a9578390159182620002f4575b5050620002dc570481811115620002d7575090565b905090565b60249060405190634302c0e360e11b82526004820152fd5b6200030291925083620001bf565b14158238620002c2565b6200027f565b818111620003ff57671bc16d674ec800008101918210620003e65790620003399162000432565b620003458180620004c1565b916001918093835b600585106200037c57505050505062000375916200036f9160011b90620004c1565b62000519565b9062000281565b909192939460028201809211620003d257620003c0620003c791620003b9620003b2620003ab878799620004c1565b95620005a0565b8562000432565b906200050b565b95620004fb565b93929190916200034d565b634e487b7160e01b85526011600452602485fd5b604051634302c0e360e11b815260048101839052602490fd5b634e487b7160e01b83526011600452602483fd5b6200042191925083620001bf565b1415823862000248565b5060075490565b91908015620004a857670de0b6b3a7640000928381029381158286048214811715620001a95715918262000490575b50506200047757620004749192620001bf565b90565b604051634302c0e360e11b815260048101849052602490fd5b6200049e91925085620001bf565b1415388062000461565b604051634302c0e360e11b815260006004820152602490fd5b620004cd828262000195565b918115159182620004e3575b5050620002dc5790565b620004f191925083620001bf565b14153880620004d9565b6000198114620001a95760010190565b91908201809211620001a957565b90680755bf798b4a1bf1e58211620003e65781156200059357670de0b6b3a764000091806002915b600c8311156200055057505050565b620005856200057d6200056b846200058c94989698620004c1565b6200057688620005a0565b9062000432565b80946200050b565b94620004fb565b9162000541565b670de0b6b3a76400009150565b7812725dd1d243aba0e75fe645cc4873f9e65afe688c928e1f218111620002dc57670de0b6b3a764000090818102918183041490151715620001a95790565b601554600080821315620002d757509056fe608060408181526004918236101561001657600080fd5b60009260e08435811c928363036ae35414612952575082630f25901314612931578263135a9c811461285b578263165ce8db1461276657826316c19739146127365782631c88ef1e146126ce5782631ebf4eb5146126b25782632a6bc2dd14612482578263334ef7291461246257826334c1557d146124455782633f4ba83a146123ef578263415f1240146121aa578263485d7d941461213a57826349a659381461211a5782634ae13fa31461203e57826353906a0f14611f73578263544305bf14611ee157826355efb28714611ec35782635af5bfd614611e395782635bf804af14611e195782635c975abb14611df45782635ef54f3614611b775782635fb3b1b514611b585782636040963214611b3a57826368288678146119965782636e33531b146116005782637199344f146115e25782637a6841c314610b225782637b6eb9b61461158b5782637dc0d1d0146115615782637e6a6f671461142457826383a4098a1461140557826383acb48a146113e55782638456cb591461138c5782638da5cb5b146113635782638fbd0c2d146111ba57826395082d251461119657826395196f7e1461117657826398f89b2f1461115657826399fbab88146110e45782639b45ec97146110c7578263a0640c83146110a7578263ac0815ac14610f9b578263ae43509a14610f7b578263b25cdccf14610f41578263b3060d3614610f0d578263b31d659e14610e44578263b918161114610e05578263bf6268f214610de5578263c4e41b2214610dc7578263cf1c316a14610d13578263cffab08d14610bb7578263d2e7b97814610b87578263d6fbf20214610b67578263d97e25bc14610b47578263e01df1a814610b27578263e1f1c4a714610b22578263eaf1f1e6146107f9578263eb02c3011461077157508163eddf7570146105d8578163edf1a21f1461055e578163eeb07069146104b0578163efc339c814610434578163f257b32e14610415578163f2fde38b1461038957508063f40f2a791461036c578063fbfa77cf146103445763ffe777bd1461031357600080fd5b34610340578160031936011261034057806000608092519181835281602084015282015260006060820152f35b5080fd5b503461034057816003193601126103405760015490516001600160a01b039091168152602090f35b503461034057816003193601126103405760209051620f42408152f35b905034610411576020366003190112610411576103a4612986565b835491906001600160a01b03906103be3383861614612f9b565b169283156103d85750506001600160a01b03191617815580f35b906020606492519162461bcd60e51b835282015260136024820152723b20a6a69d1034b73b30b634b21037bbb732b960691b6044820152fd5b8280fd5b5050346103405781600319360112610340576020906013549051908152f35b8284346104ad57806003193601126104ad5761044e612a7a565b916007549061045b612eef565b90600854926127109485820295828704148215171561049a575060c09650815195865260208601528401526103e86060840152608083015260a0820152f35b634e487b7160e01b815260118852602490fd5b80fd5b905034610411576020366003190112610411578035906104da60018060a01b038554163314612f9b565b6103e88211610526575060008051602061389e8339815191529181608092600355600e8251928084528301526d74726164696e674665655261746560901b60608301526020820152a180f35b606490602084519162461bcd60e51b835282015260126024820152710ec829a9a7440cccaca40e8dede40d0d2ced60731b6044820152fd5b50503461034057816003193601126103405760809160608251610580816130a6565b82815282602082015282848201520152805161059b816130a6565b600b5491828252600c5460208301908152600d54908284019182526060600e54940193845282519485525160208501525190830152516060820152f35b8284346104ad57602080600319360112610340576001600160a01b036105fc612986565b16825260108152828220918351808484829654938481520190845284842092845b8682821061075b57505050610634925003846130c2565b8091815b84518110156106845761064b8186613589565b518352600f825260ff600687852001541661066f575b61066a90612e16565b610638565b9261067c61066a91612e16565b939050610661565b509183856106a96106948461359d565b936106a1835195866130c2565b80855261359d565b8386019490601f19013686378095815b845181101561071b576106cc8186613589565b518352600f825260ff60068585200154166106f0575b6106eb90612e16565b6106b9565b966107136106eb916107028a88613589565b5161070d828a613589565b52612e16565b9790506106e2565b508251818152855181830181905290938493908401928892915b82811061074457505050500390f35b835185528695509381019392810192600101610735565b855484526001958601958995509301920161061d565b908385346104ad5760203660031901126104ad579060ff6006826107f794610797613505565b5086358152600f602052208351956107ae87613060565b815487526001820154602088015283600283015416151585880152600382015460608801528101546080870152600581015460a0870152015416151560c08401525180926129b2565bf35b848285346104115760a03660031901126104115781356108176129f7565b60443561082960ff6018541615612fd9565b610834831515613637565b600181101580610b17575b61084890613683565b61085061326b565b61085a8184612a51565b610862612a7a565b9160643583101580610b0b575b610878906136c8565b8764e8d4a5100061089961271061089160035487612a51565b048098612e25565b600154919004906001600160a01b0316803b15610411578851630ead3e9960e31b815233818c019081526020810193909352918391839182908490829060400103925af18015610b0157610ae9575b5050601354966108f788612e16565b6013558415610ad55761090c8360155461324f565b6015555b6109186130fd565b600c5498875161092781613060565b898152896020809c8b828501898152818601908c1515825260608701928c84526080880194855260a088019542875260c0890197600189528a52600f9052882096518755516001870155511515600286019061098e919060ff801983541691151516179055565b516003850155518584015551600583015551151590600601906109bc919060ff801983541691151516179055565b60118a52878120336bffffffffffffffffffffffff60a01b82541617905533815260108a528781209081549268010000000000000000841015610ac25750508689969593610a5288610a3986610a8f9660017f345a1e15bff227bfd5051975d95c864c45cf9fe79def6f9ce1c1525b0e8312269b99018155612a23565b90919082549060031b91821b91600019901b1916179055565b610a5e82601754612e25565b60175589519485943398869192608093969594919660a0840197151584526020840152604083015260608201520152565b0390a381519081527f4b85f139405492fb78333512610ba07ed1e0c3fb2417f208a9aae27dc3843e6a843392a251908152f35b634e487b7160e01b825260419052602490fd5b610ae18360165461324f565b601655610910565b610af290613092565b610afd5787896108e8565b8780fd5b88513d84823e3d90fd5b5060843583111561086f565b50606481111561083f565b612a06565b505050346103405781600319360112610340576020906003549051908152f35b505050346103405781600319360112610340576020906006549051908152f35b505050346103405781600319360112610340576020906007549051908152f35b508284346104ad57816003193601126104ad5750610bb0602092610ba96129f7565b9035612f00565b9051908152f35b5090503461041157606036600319011261041157803590602435610be560018060a01b038654163314612f9b565b8215610cc6578015610c83576044351115610c40575081608091601560008051602061389e8339815191529451928084528301527464796e616d69635265736572766573506172616d7360581b60608301526020820152a180f35b606490602084519162461bcd60e51b8352820152601c60248201527f76414d4d3a20696e76616c6964206d6178206d756c7469706c696572000000006044820152fd5b835162461bcd60e51b8152602081840152601c60248201527f76414d4d3a20696e76616c6964206d696e206d756c7469706c696572000000006044820152606490fd5b835162461bcd60e51b8152602081840152602160248201527f76414d4d3a20696e76616c696420766f6c756d65207363616c6520666163746f6044820152603960f91b6064820152608490fd5b8482853461041157602036600319011261041157610d2f612986565b83546001600160a01b039190610d489083163314612f9b565b16918215610d8d575081835260146020528220805460ff191660011790557fdd10d14f6ac19e913d4edbb11fd30661531e2ccd0d23f571e9b224f001f0dd068280a280f35b6020606492519162461bcd60e51b8352820152601560248201527476414d4d3a20696e76616c6964206164647265737360581b6044820152fd5b50505034610340578160031936011261034057602090610bb0612eef565b505050346103405781600319360112610340576020906016549051908152f35b505050346103405760203660031901126103405760209160ff9082906001600160a01b03610e31612986565b1681526014855220541690519015158152f35b5090503461041157610e553661299c565b610e6c60018060a09594951b038654163314612f9b565b8215159081610f03575b5015610ec0575081608091601360008051602061389e83398151915294519280845283015272626173655669727475616c526573657276657360681b60608301526020820152a180f35b606490602084519162461bcd60e51b8352820152601b60248201527f76414d4d3a20696e76616c6964206261736520726573657276657300000000006044820152fd5b9050151538610e76565b509050346104115760203660031901126104115735825260116020908152918190205490516001600160a01b039091168152f35b50505034610340578160031936011261034057608090600b5490600c5490600d5490600e5492815194855260208501528301526060820152f35b505050346103405781600319360112610340576020906009549051908152f35b5090503461041157602036600319011261041157803590610fc660018060a01b038554163314612f9b565b60ff601854161561106d57811561102a575060008051602061389e83398151915291816080926007558460155584601655610fff6130fd565b600e8251928084528301526d195b595c99d95b98de54995cd95d60921b60608301526020820152a180f35b606490602084519162461bcd60e51b8352820152601c60248201527f76414d4d3a20696e76616c6964207374617274696e67207072696365000000006044820152fd5b606490602084519162461bcd60e51b835282015260146024820152731d9053534e881b5d5cdd081899481c185d5cd95960621b6044820152fd5b50505034610340578160031936011261034057602090600a549051908152f35b505050346103405781600319360112610340576020905160648152f35b838286346104ad5760203660031901126104ad57829082358152600f6020522080549260018201549260ff600284015416916003840154918401549260ff600660058701549601541695825197885260208801521515908601526060850152608084015260a0830152151560c0820152f35b50505034610340578160031936011261034057602090516305f5e1008152f35b50505034610340578160031936011261034057602090600b549051908152f35b5050503461034057816003193601126103405760209051670de0b6b3a76400008152f35b508383346103405760209081600319360112610411576111d8612986565b90839184918596869260018060a01b0316875260108652818720958251808883829a549384815201908b52838b20928b5b8582821061134d57505050611220925003886130c2565b875b875181101561132e576112358189613589565b518952600f825283892060ff908160068201541661125e575b505061125990612e16565b611222565b909a9561126d90989298612e16565b95611278898b613589565b5190865191630f25901360e01b8352868301528482602481305afa908115611324578c916112ee575b6112ab925061324f565b9a6002820154166000146112d4576112599160016112cb92015490612e25565b965b908b61124e565b61125991979660016112e892015490612e25565b956112cd565b90508482813d831161131d575b61130581836130c2565b81010312611318576112ab9151906112a1565b600080fd5b503d6112fb565b87513d8e823e3d90fd5b835187815260208101879052604081018b905260608101869052608090f35b855484526001958601958d955093019201611209565b50505034610340578160031936011261034057905490516001600160a01b039091168152602090f35b84346104ad57806003193601126104ad576113b160018060a01b038254163314612f9b565b600160ff1960185416176018557f9e87fac88ff661f02d44f95383c817fece4bce600a3dab7a54406878b965e7528180a180f35b505050346103405781600319360112610340576020906005549051908152f35b8385346104ad57806003193601126104ad578151908082526020820152f35b84828534610411576020918260031936011261155d576001600160a01b0361144a612986565b16845260108352818420928251808583829754938481520190885283882092885b8582821061154757505050611482925003856130c2565b84805b855181101561153e576114988187613589565b518252600f835260ff60068684200154166114bc575b6114b790612e16565b611485565b956114c78787613589565b51855190630f25901360e01b8252858201528381602481305afa908115611534578391611505575b506114fd906114b79261324f565b9690506114ae565b90508381813d831161152d575b61151c81836130c2565b8101031261131857516114b76114ef565b503d611512565b86513d85823e3d90fd5b82878651908152f35b855484526001958601958a95509301920161146b565b8380fd5b5050503461034057816003193601126103405760025490516001600160a01b039091168152602090f35b505050346103405780600319360112610340576115a6612986565b6001600160a01b031682526010602052808220805460243593908410156104ad57506020926115d491612a23565b91905490519160031b1c8152f35b50505034610340578160031936011261034057602090516103e88152f35b84828534610411576080366003190112610411578135926024359361162a60ff6018541615612fd9565b808252602094600f865261164660ff6006868620015416613014565b81835260118652838320546001600160a01b0390611667908216331461353d565b828452600f8752848420936001850196875480851161195e5761168861326b565b611691866133b3565b611699612a7a565b9360443585101580611952575b6116af906136c8565b600288015460ff1697881561193157670de0b6b3a76400006116de6116d8600384015489612ee2565b89612a51565b049a5b6127106116f06003548a612a51565b04991561191d57611703886015546130e4565b6015555b61170f6130fd565b8784036119055750600601805460ff1916905561172c873361317a565b806001541661173b898c6130e4565b813b15611901578591604483928d519485938492630196c4ad60e71b8452338b85015260248401525af180156118e3579085916118ed575b505060015416908851620af05960e21b81523384820152608081602481865afa9081156118e35787918d918791611875575b5001516117bb92916117b691612a51565b612b08565b91813b1561155d578851639101e5b360e01b81523391810191825260208201939093528391839182908490829060400103925af1801561186b5790889291611853575b50507f035509dd26c2d331b2eeaf713e533967ac9e8a0c5e37372abc7dedd026e816759161182e86601754612e25565b6017558651938452602084015260408301526060820184905233918060808101610a8f565b81925061185f90613092565b6104ad578087916117fe565b87513d84823e3d90fd5b925050506080813d82116118db575b81611891608093836130c2565b810103126118d757906117b6878d8c60606117bb968251926118b2846130a6565b81518452848201518585015280820151908401520151606082015291939450916117a5565b8480fd5b3d9150611884565b8a513d87823e3d90fd5b6118f690613092565b61155d57838c611773565b8580fd5b6119108882546130e4565b905560054291015561172c565b611929886016546130e4565b601655611707565b670de0b6b3a764000061194b6116d8886003850154612ee2565b049a6116e1565b506064358511156116a6565b875162461bcd60e51b81528083018b9052601260248201527176414d4d3a20696e76616c69642073697a6560701b6044820152606490fd5b5090503461041157610100366003190112610411576119b3612986565b916024359260443590811515820361131857606435908115158203611318576084359260a43560c4359160e43593338b52601460205260ff888c2054168015611b27575b15611aed576001600160a01b0316978815611ab5575015611a6b5790611a6592917f345a1e15bff227bfd5051975d95c864c45cf9fe79def6f9ce1c1525b0e8312269651958695869192608093969594919660a0840197151584526020840152604083015260608201520152565b0390a380f35b9451938452602084019490945260408301939093525060608101919091527f035509dd26c2d331b2eeaf713e533967ac9e8a0c5e37372abc7dedd026e81675908060808101611a65565b606490602089519162461bcd60e51b835282015260126024820152713b20a6a69d1034b73b30b634b2103ab9b2b960711b6044820152fd5b875162461bcd60e51b81526020818b015260146024820152731d9053534e881b9bdd08185d5d1a1bdc9a5e995960621b6044820152606490fd5b508a546001600160a01b031633146119f7565b50505034610340578160031936011261034057602090610bb0612a7a565b5090503461041157826003193601126104115760209250549051908152f35b508383346103405760a036600319011261034057823560243590604435611ba360ff6018541615612fd9565b818552600f602052611bbd60ff6006868820015416613014565b8185526011602052838520546001600160a01b039590611be0908716331461353d565b611beb841515613637565b600182101580611de9575b611bff90613683565b828152600f602052611c2585822092611c1661326b565b611c1f856133b3565b85612a51565b91611c2e612a7a565b9660643588101580611ddd575b611c44906136c8565b64e8d4a51000611c5c61271061089160035488612a51565b049060015416803b1561155d578751630ead3e9960e31b815233818c019081526020810193909352918491839182908490829060400103925af18015611dd357908391611dbf575b5050600281015460ff1615611dab57611cbf8360155461324f565b6015555b611ccb6130fd565b60018101968754906003830193611d04670de0b6b3a76400009283611cfd81611cf58a5489612a51565b04928a612a51565b0490612e25565b828102928184041490151715611d9857506020995091611d5d8583611d568a96611d50847f2337e687da16f7f70de054ec6c6f96c9faaeac16ca3fe6b873cf017380f578a89a98612e25565b90612b08565b855561324f565b809955600542910155611d7282601754612e25565b601755548651938452602084018890526040840152606083015233918060808101610a8f565b634e487b7160e01b815260118b52602490fd5b611db78360165461324f565b601655611cc3565b611dc890613092565b610340578189611ca4565b87513d85823e3d90fd5b50608435881115611c3b565b506064821115611bf6565b5050503461034057816003193601126103405760209060ff6018541690519015158152f35b505050346103405781600319360112610340576020906015549051908152f35b8385833461034057602036600319011261034057803590611e6460018060a01b038454163314612f9b565b60175490818311611e80575090611e7a91612ee2565b60175580f35b606490602086519162461bcd60e51b8352820152601760248201527f76414d4d3a20696e73756666696369656e7420666565730000000000000000006044820152fd5b5050503461034057816003193601126103405760209051610e108152f35b50838334610340576020928360031936011261041157611eff612986565b8251637e6a6f6760e01b81526001600160a01b03909116918101919091528381602481305afa928315611f685792611f39575b5051908152f35b9091508281813d8311611f61575b611f5181836130c2565b8101031261131857519083611f32565b503d611f47565b8251903d90823e3d90fd5b5090503461041157602036600319011261041157803590611f9e60018060a01b038554163314612f9b565b606482101580612032575b15611ff9575060008051602061389e83398151915291816080926005556016825192808452830152756d61696e74656e616e63654d617267696e526174696f60501b60608301526020820152a180f35b606490602084519162461bcd60e51b8352820152601360248201527276414d4d3a20696e76616c696420726174696f60681b6044820152fd5b506107d0821115611fa9565b838286346104ad5760203660031901126104ad5781359161205d612eef565b9182841015612111575b61207984612073612a7a565b94612ee2565b9050806120a75750506120a260209392612099610bb09360075490612e25565b60011c90612c7c565b612b6f565b6120b36120b891612c3a565b612b28565b90670de0b6b3a76400009182019182106120fc575060209392612099610bb0936120f66120a26120ee6120a29660085490612c99565b600754612c7c565b90612e25565b602491855191634302c0e360e11b8352820152fd5b92508192612067565b505050346103405781600319360112610340576020906017549051908152f35b5050503461034057602036600319011261034057612156612986565b82546001600160a01b03919061216f9083163314612f9b565b168083526014602052908220805460ff191690557f0fafd0343e6c6f6985727574866da48938c918559eb9521cf9cc0d317ea0f7b48280a280f35b848285346104115760208060031936011261155d578235916121d160ff6018541615612fd9565b828552600f82526121ea60ff6006838820015416613014565b828552601182528085205460015460055483516359cffb9b60e11b81526001600160a01b039384168882018181526020810193909352959394939290918391839182900360400190829088165afa9081156123e55788916123af575b501561237457848752600f81528187209060018201549661226561326b565b61226e876133b3565b8861271061227d83548b612a51565b049560ff6002860154166000146123605761229a8a6015546130e4565b6015555b6122a66130fd565b60066122b0612a7a565b9501805460ff191690556122c4898961317a565b6001541691823b1561034057855163bcbaf48760e01b81526001600160a01b0389169181019182526020820188905292839182908490829060400103925af1801561235657612343575b5082519687528601528401527feb125fc2316e55999aaacc483aa145655b8032d8bce094f8a17174ed9994d9d760603394a480f35b61234f90989198613092565b968861230e565b84513d8b823e3d90fd5b61236c8a6016546130e4565b60165561229e565b8590606492519162461bcd60e51b8352820152601660248201527576414d4d3a2063616e6e6f74206c697175696461746560501b6044820152fd5b90508181813d83116123de575b6123c681836130c2565b81010312610afd57518015158103610afd5788612246565b503d6123bc565b83513d8a823e3d90fd5b84346104ad57806003193601126104ad5761241460018060a01b038254163314612f9b565b60ff19601854166018557fa45f47fdea8a1efdd9029a5691c7f759c32b7c698632b563573e155625d169338180a180f35b505050346103405781600319360112610340576020905160018152f35b505050346103405781600319360112610340576020906008549051908152f35b9150913461155d576020806003193601126118d7576001600160a01b036124a7612986565b168552601081528185208251808284829454938481520190895284892092895b8682821061269c575050506124de925003826130c2565b8593865b825181101561252e576124f58184613589565b518852600f845260ff6006868a20015416612519575b61251490612e16565b6124e2565b9461252661251491612e16565b95905061250b565b50949086939461253d8161359d565b9061254a875192836130c2565b808252612559601f199161359d565b0184865b828110612686575050508493855b83518110156126385761257e8185613589565b518752600f80835260ff60069181838c8c200154166125a9575b5050506125a490612e16565b61256b565b9183989161262f936125be6125a4968a613589565b518c5286528b8b20918c51926125d384613060565b805484526001810154888501526002810154831615158e850152600381015460608501528a8101546080850152600581015460a0850152015416151560c082015261261e8287613589565b526126298186613589565b50612e16565b95908a80612598565b875182815283518184018190528190818b019086860190868c8f5b8382106126605786860387f35b91849650828661267660019496988498516129b2565b0196019201869594929391612653565b61268e613505565b82828601015201859061255d565b85548452600195860195879550930192016124c7565b84346104ad57806003193601126104ad576126cb61326b565b80f35b908385346104ad57816003193601126104ad579060ff6006826107f7946126f3612986565b61272260243591612702613505565b508284526011602052848420546001600160a01b0391821691161461353d565b8152600f602052208351956107ae87613060565b8385346104ad5760203660031901126104ad57506107f761275d612758612986565b61370b565b915180926129b2565b50905034610411576127773661299c565b61278e60018060a09594951b038654163314612f9b565b821561281857156127dc575081608091601260008051602061389e83398151915294519280845283015271626f6e64696e674375727665506172616d7360701b60608301526020820152a180f35b606490602084519162461bcd60e51b835282015260166024820152751d9053534e881a5b9d985b1a5908195e1c1bdb995b9d60521b6044820152fd5b835162461bcd60e51b8152602081840152601760248201527f76414d4d3a20696e76616c69642073746565706e6573730000000000000000006044820152606490fd5b508284346104ad5760203660031901126104ad5782359061287a612eef565b906128986120b36128938561288d612a7a565b95612e25565b612c3a565b670de0b6b3a764000090810190811061291b576008546128b791612c99565b906128c86120a26007549384612c7c565b906127109283810293818504149015171561290857610bb0936120a29360209796936120999350818111600014612900575090612e25565b905090612e25565b634e487b7160e01b815260118752602490fd5b85602491865191634302c0e360e11b8352820152fd5b508284346104ad5760203660031901126104ad5750610bb0602092356135b5565b85908534610411576020366003190112610411576020926001600160a01b03612979612986565b1681526012845220548152f35b600435906001600160a01b038216820361131857565b6040906003190112611318576004359060243590565b60c080918051845260208101516020850152604081015115156040850152606081015160608501526080810151608085015260a081015160a085015201511515910152565b60243590811515820361131857565b346113185760003660031901126113185760206040516127108152f35b8054821015612a3b5760005260206000200190600090565b634e487b7160e01b600052603260045260246000fd5b81810292918115918404141715612a6457565b634e487b7160e01b600052601160045260246000fd5b612a82612eef565b8015612b01576120b3612a9491612c3a565b670de0b6b3a7640000908101908110612ae957600854612ab391612c99565b6007549061271091828102928184041481151715612a6457612ad8916120a291612c7c565b81811115612ae4575090565b905090565b60249060405190634302c0e360e11b82526004820152fd5b5060075490565b8115612b12570490565b634e487b7160e01b600052601260045260246000fd5b670de0b6b3a7640000908181029181158284048214811715612a6457159182612b5a575b5050612ae9576103e8900490565b612b6691925083612b08565b14153880612b4c565b670de0b6b3a7640000908181029080158183048414811715612a64578390159182612b9f575b5050612ae9570490565b612bab91925083612b08565b14158238612b95565b91908015612c2157670de0b6b3a7640000928381029381158286048214811715612a6457159182612c0c575b5050612bf357612bf09192612b08565b90565b604051634302c0e360e11b815260048101849052602490fd5b612c1891925085612b08565b14153880612be0565b604051634302c0e360e11b815260006004820152602490fd5b670de0b6b3a7640000908181029181158284048214811715612a6457159182612c67575b5050612ae95790565b612c7391925083612b08565b14153880612c5e565b612c868282612a51565b918115159182612c67575050612ae95790565b80612cb35750600090612bf05750670de0b6b3a764000090565b670de0b6b3a764000090600082821015612d7b575080820390828211612a64578201918210612d625790612ce691612bb4565b612cf08180612c7c565b600191809280925b60058410612d22575050505060011b80612a6457612bf091612d1d9160000390612c7c565b612e32565b9091929360028301809311612a6457612d55612d5b916120f6612d4f612d49868899612c7c565b96612ea5565b86612bb4565b94612e16565b9290612cf8565b604051634302c0e360e11b815260048101839052602490fd5b9091670de0b6b3a763ffff19830191838311612e0257508201918210612d625790612da591612bb4565b612daf8180612c7c565b600191809280925b60058410612dd45750505050612bf091612d1d9160011b90612c7c565b9091929360028301809311612a6457612d55612dfb916120f6612d4f612d49868899612c7c565b9290612db7565b634e487b7160e01b81526011600452602490fd5b6000198114612a645760010190565b91908201809211612a6457565b90680755bf798b4a1bf1e58211612d62578115612e9857670de0b6b3a764000091806002915b600c831115612e6657505050565b612d55612e8b612e7c84612e9294989698612c7c565b612e8588612ea5565b90612bb4565b8094612e25565b91612e58565b670de0b6b3a76400009150565b7812725dd1d243aba0e75fe645cc4873f9e65afe688c928e1f218111612ae957670de0b6b3a764000090818102918183041490151715612a645790565b91908203918211612a6457565b601554600080821315612ae4575090565b9015612f9557612f256120b3612893612f17612a7a565b93612f20612eef565b612e25565b670de0b6b3a7640000908101908110612ae957600854612f4491612c99565b612f546120a26007549283612c7c565b61271091828102928184041490151715612a645781811115612f8d5750905b60009181811115612f8857612bf09250612ee2565b505090565b905090612f73565b50600090565b15612fa257565b60405162461bcd60e51b815260206004820152600f60248201526e3b20a6a69d103737ba1037bbb732b960891b6044820152606490fd5b15612fe057565b60405162461bcd60e51b815260206004820152600c60248201526b1d9053534e881c185d5cd95960a21b6044820152606490fd5b1561301b57565b60405162461bcd60e51b815260206004820152601960248201527f76414d4d3a20706f736974696f6e206e6f7420616374697665000000000000006044820152606490fd5b60e0810190811067ffffffffffffffff82111761307c57604052565b634e487b7160e01b600052604160045260246000fd5b67ffffffffffffffff811161307c57604052565b6080810190811067ffffffffffffffff82111761307c57604052565b90601f8019910116810190811067ffffffffffffffff82111761307c57604052565b81810392916000138015828513169184121617612a6457565b7f1551b5180ce27b1b0d183046bbf7f4ed792368fa907dcaa0e08d22c5e8b145126060613128612a7a565b613130612eef565b801561316757670de0b6b3a764000061314e83835b80600955612a51565b04600a55604051918252602082015260006040820152a1565b670de0b6b3a764000061314e8382613145565b6001600160a01b03166000908152601060205260408120909190825b8154808210156132485783906131ac8385612a23565b929054600393841b1c146131ca5750506131c590612e16565b613196565b9293509390600019928381019081116132345790610a396131ee6131fb9387612a23565b905490881b1c9186612a23565b825490811561322057508101926132128484612a23565b81939154921b1b1916905555565b634e487b7160e01b81526031600452602490fd5b634e487b7160e01b83526011600452602483fd5b5050505050565b91909160008382019384129112908015821691151617612a6457565b600d54610e108101809111612a645742106133b157613288612a7a565b600254604051634c6afee560e11b815290602090829060049082906001600160a01b03165afa9081156133a557600091613374575b506305f5e10091828102928184041490151715612a64576132dd91612b08565b6305f5e0ff198101908113600116612a64577fd0794ac40e87e336e6e652e1eef2cdb3793d91f30dcc09a45d18db669a686b9490606090620f424060188205818113156133565750905b81600b5580600e5542600d5561333f82600c5461324f565b80600c5560405192835260208301526040820152a1565b919050620f423f1980831261336c575b50613327565b915038613366565b906020823d821161339d575b8161338d602093836130c2565b810103126104ad575051386132bd565b3d9150613380565b6040513d6000823e3d90fd5b565b90600091808352600f60205260408084209060ff6006830154161580156134f9575b6134f257600c5491600481016133ec815485612ee2565b80156134e85760026305f5e10061340960ff936001870154612a51565b04930154166134c0575b8487526011602052828720546001546001600160a01b03918216958992909116803b15610411576064839287519485938492635969f96b60e01b84528b600485015289602485015260448401525af180156134b6577fc86c3274d0eb50daaa9786e84b032f4ee9f7c878dfc21d805b52cadc5ff4a1b095969798506134a7575b50600c5480915582519182526020820152a3565b6134b090613092565b38613493565b84513d8a823e3d90fd5b90600160ff1b81146134d457860390613413565b634e487b7160e01b87526011600452602487fd5b5050505050509050565b5050509050565b506001820154156133d5565b6040519061351282613060565b8160c06000918281528260208201528260408201528260608201528260808201528260a08201520152565b1561354457565b60405162461bcd60e51b815260206004820152601860248201527f76414d4d3a206e6f7420706f736974696f6e206f776e657200000000000000006044820152606490fd5b8051821015612a3b5760209160051b010190565b67ffffffffffffffff811161307c5760051b60200190565b600052600f602052604060002060ff60068201541615801561362b575b612f9557670de0b6b3a7640000906135e8612a7a565b9060018101549060ff60028201541660001461361a5761361692600361361092015490612ee2565b90612a51565b0490565b613616926003613610920154612ee2565b506001810154156135d2565b1561363e57565b60405162461bcd60e51b815260206004820152601860248201527f76414d4d3a20696e76616c696420636f6c6c61746572616c00000000000000006044820152606490fd5b1561368a57565b60405162461bcd60e51b815260206004820152601660248201527576414d4d3a20696e76616c6964206c6576657261676560501b6044820152606490fd5b156136cf57565b60405162461bcd60e51b815260206004820152601460248201527376414d4d3a20707269636520736c69707061676560601b6044820152606490fd5b613713613505565b5060009060018060a01b031681526020601081526040918281208351808285829454938481520190855285852092855b878282106138875750505061375a925003826130c2565b80511561384e57815b815181101561380a576137768183613589565b518352600f80855260ff9060069082828988200154166137a15750505061379c90612e16565b613763565b90949195969384936137b291613589565b518252865220908051946137c586613060565b82548652600183015490860152836002830154161515908501526003810154606085015260048101546080850152600581015460a0850152015416151560c082015290565b845162461bcd60e51b815260048101859052601860248201527f76414d4d3a206e6f2061637469766520706f736974696f6e00000000000000006044820152606490fd5b835162461bcd60e51b815260048101849052601260248201527176414d4d3a206e6f20706f736974696f6e7360701b6044820152606490fd5b855484526001958601958795509301920161374356fe952177133a28eea5034c93c6c70c1a8d223da94faaa45da8412c3c791111137fa26469706673582212206f77d2e8afa2d427fe89649ec9037b0c25a20f101b0a9f8d45830ad5a15657b564736f6c63430008140033a26469706673582212201b441da50fe278b1918ee3904a802c357eb513e5915e537a665cbe9244284cf764736f6c63430008140033","opcodes":"PUSH1 0x80 DUP1 PUSH1 0x40 MSTORE CALLVALUE PUSH2 0xBE JUMPI PUSH8 0x16345785D8A0000 PUSH1 0x5 SSTORE PUSH1 0x0 DUP1 SLOAD PUSH1 0x1 PUSH1 0x1 PUSH1 0xA0 SHL SUB NOT AND CALLER OR DUP2 SSTORE PUSH1 0x6 PUSH1 0x20 MSTORE PUSH7 0x38D7EA4C68000 PUSH32 0x54CDD369E4E8A8515E52CA72EC816C2101831AD1F18BF44102ED171459C9B4F8 SSTORE PUSH8 0xDE0B6B3A7640000 PUSH32 0x3E5FEC24AA4DC4E5AEE2E025E51E1392C72A2500577559FAE9665C6D52BD6A31 SSTORE PUSH1 0x2 SWAP1 MSTORE PUSH9 0x56BC75E2D63100000 PUSH32 0x8819EF417987F8AE7A81F42CDFB18815282FE989326FBFF903D13CF0E03ACE29 SSTORE PUSH2 0x656C SWAP1 DUP2 PUSH2 0xC4 DUP3 CODECOPY RETURN JUMPDEST PUSH1 0x0 DUP1 REVERT INVALID PUSH1 0x80 PUSH1 0x40 MSTORE PUSH1 0x4 CALLDATASIZE LT ISZERO PUSH3 0x13 JUMPI PUSH1 0x0 DUP1 REVERT JUMPDEST PUSH1 0x0 DUP1 CALLDATALOAD PUSH1 0xE0 SHR DUP1 PUSH4 0x2A519733 EQ PUSH3 0xF10 JUMPI DUP1 PUSH4 0x476343EE EQ PUSH3 0xE37 JUMPI DUP1 PUSH4 0x58E6309F EQ PUSH3 0xDF4 JUMPI DUP1 PUSH4 0x73D8C6BD EQ PUSH3 0x4CE JUMPI DUP1 PUSH4 0x7564912B EQ PUSH3 0x40D JUMPI DUP1 PUSH4 0x779A9683 EQ PUSH3 0x3CE JUMPI DUP1 PUSH4 0x8DA5CB5B EQ PUSH3 0x3A5 JUMPI DUP1 PUSH4 0xC3C95C7B EQ PUSH3 0x213 JUMPI DUP1 PUSH4 0xD002462B EQ PUSH3 0x1B5 JUMPI DUP1 PUSH4 0xEC979082 EQ PUSH3 0x195 JUMPI DUP1 PUSH4 0xF0A9D4C4 EQ PUSH3 0x15A JUMPI DUP1 PUSH4 0xF2CFF57F EQ PUSH3 0x13A JUMPI PUSH4 0xF2FDE38B EQ PUSH3 0xBA JUMPI PUSH1 0x0 DUP1 REVERT JUMPDEST CALLVALUE PUSH3 0x137 JUMPI PUSH1 0x20 CALLDATASIZE PUSH1 0x3 NOT ADD SLT PUSH3 0x137 JUMPI PUSH3 0xD7 PUSH3 0xFE8 JUMP JUMPDEST DUP2 SLOAD SWAP1 PUSH1 0x1 PUSH1 0x1 PUSH1 0xA0 SHL SUB DUP1 DUP4 AND SWAP2 PUSH3 0xF3 CALLER DUP5 EQ PUSH3 0x133E JUMP JUMPDEST AND DUP1 SWAP3 PUSH3 0x103 DUP3 ISZERO ISZERO PUSH3 0x133E JUMP JUMPDEST PUSH1 0x1 PUSH1 0x1 PUSH1 0xA0 SHL SUB NOT AND OR DUP4 SSTORE PUSH32 0x8BE0079C531659141344CD1FD0A4F28419497F9722A3DAAFE3B4186F6B6457E0 DUP4 DUP1 LOG3 DUP1 RETURN JUMPDEST DUP1 REVERT JUMPDEST POP CALLVALUE PUSH3 0x137 JUMPI DUP1 PUSH1 0x3 NOT CALLDATASIZE ADD SLT PUSH3 0x137 JUMPI PUSH1 0x20 PUSH1 0x5 SLOAD PUSH1 0x40 MLOAD SWAP1 DUP2 MSTORE RETURN JUMPDEST POP CALLVALUE PUSH3 0x137 JUMPI PUSH1 0x20 CALLDATASIZE PUSH1 0x3 NOT ADD SLT PUSH3 0x137 JUMPI PUSH1 0x4 CALLDATALOAD PUSH1 0x3 DUP2 LT ISZERO PUSH3 0x191 JUMPI DUP2 PUSH1 0x40 SWAP2 PUSH1 0x20 SWAP4 MSTORE PUSH1 0x6 DUP4 MSTORE KECCAK256 SLOAD PUSH1 0x40 MLOAD SWAP1 DUP2 MSTORE RETURN JUMPDEST POP DUP1 REVERT JUMPDEST POP CALLVALUE PUSH3 0x137 JUMPI DUP1 PUSH1 0x3 NOT CALLDATASIZE ADD SLT PUSH3 0x137 JUMPI PUSH1 0x20 PUSH1 0x4 SLOAD PUSH1 0x40 MLOAD SWAP1 DUP2 MSTORE RETURN JUMPDEST POP CALLVALUE PUSH3 0x137 JUMPI PUSH1 0x20 CALLDATASIZE PUSH1 0x3 NOT ADD SLT PUSH3 0x137 JUMPI PUSH32 0x40BD824D588484917DB8FA4FC894C1E0FEAE5A75885290BA7B97521CEBF82A80 PUSH1 0x20 PUSH1 0x4 CALLDATALOAD PUSH3 0x205 PUSH1 0x1 DUP1 PUSH1 0xA0 SHL SUB DUP6 SLOAD AND CALLER EQ PUSH3 0x133E JUMP JUMPDEST DUP1 PUSH1 0x5 SSTORE PUSH1 0x40 MLOAD SWAP1 DUP2 MSTORE LOG1 DUP1 RETURN JUMPDEST POP CALLVALUE PUSH3 0x137 JUMPI PUSH1 0x20 CALLDATASIZE PUSH1 0x3 NOT ADD SLT PUSH3 0x137 JUMPI DUP1 PUSH1 0x40 SWAP2 PUSH2 0x100 DUP4 MLOAD PUSH3 0x23B DUP2 PUSH3 0x1019 JUMP JUMPDEST DUP3 DUP2 MSTORE DUP3 PUSH1 0x20 DUP3 ADD MSTORE DUP3 DUP6 DUP3 ADD MSTORE DUP3 PUSH1 0x60 DUP3 ADD MSTORE PUSH1 0x60 PUSH1 0x80 DUP3 ADD MSTORE DUP3 PUSH1 0xA0 DUP3 ADD MSTORE DUP3 PUSH1 0xC0 DUP3 ADD MSTORE DUP3 PUSH1 0xE0 DUP3 ADD MSTORE ADD MSTORE PUSH1 0x4 CALLDATALOAD DUP2 MSTORE PUSH1 0x1 PUSH1 0x20 MSTORE KECCAK256 PUSH3 0x301 PUSH1 0xFF PUSH1 0x8 PUSH1 0x40 MLOAD SWAP4 PUSH3 0x28C DUP6 PUSH3 0x1019 JUMP JUMPDEST DUP1 SLOAD PUSH1 0x1 PUSH1 0x1 PUSH1 0xA0 SHL SUB SWAP1 DUP2 AND DUP7 MSTORE PUSH1 0x1 DUP3 ADD SLOAD DUP2 AND PUSH1 0x20 DUP8 ADD MSTORE PUSH1 0x2 DUP3 ADD SLOAD DUP2 AND PUSH1 0x40 DUP8 ADD MSTORE PUSH1 0x3 DUP3 ADD SLOAD AND PUSH1 0x60 DUP7 ADD MSTORE PUSH3 0x2CC PUSH1 0x4 DUP3 ADD PUSH3 0x10B4 JUMP JUMPDEST PUSH1 0x80 DUP7 ADD MSTORE DUP3 PUSH1 0x5 DUP3 ADD SLOAD AND ISZERO ISZERO PUSH1 0xA0 DUP7 ADD MSTORE PUSH1 0x6 DUP2 ADD SLOAD PUSH1 0xC0 DUP7 ADD MSTORE PUSH1 0x7 DUP2 ADD SLOAD PUSH1 0xE0 DUP7 ADD MSTORE ADD SLOAD AND PUSH2 0x100 DUP4 ADD PUSH3 0x1303 JUMP JUMPDEST PUSH1 0x40 MLOAD DUP1 SWAP2 PUSH1 0x20 DUP3 MSTORE PUSH1 0x1 DUP1 PUSH1 0xA0 SHL SUB DUP2 MLOAD AND PUSH1 0x20 DUP4 ADD MSTORE PUSH1 0x1 DUP1 PUSH1 0xA0 SHL SUB PUSH1 0x20 DUP3 ADD MLOAD AND PUSH1 0x40 DUP4 ADD MSTORE PUSH1 0x1 DUP1 PUSH1 0xA0 SHL SUB PUSH1 0x40 DUP3 ADD MLOAD AND PUSH1 0x60 DUP4 ADD MSTORE PUSH1 0x1 DUP1 PUSH1 0xA0 SHL SUB PUSH1 0x60 DUP3 ADD MLOAD AND PUSH1 0x80 DUP4 ADD MSTORE PUSH3 0x3A1 PUSH1 0x80 DUP3 ADD MLOAD PUSH2 0x100 PUSH3 0x375 PUSH2 0x120 SWAP3 DUP4 PUSH1 0xA0 DUP9 ADD MSTORE PUSH2 0x140 DUP8 ADD SWAP1 PUSH3 0x118B JUMP JUMPDEST SWAP4 PUSH1 0xA0 DUP2 ADD MLOAD ISZERO ISZERO PUSH1 0xC0 DUP8 ADD MSTORE PUSH1 0xC0 DUP2 ADD MLOAD PUSH1 0xE0 DUP8 ADD MSTORE PUSH1 0xE0 DUP2 ADD MLOAD DUP3 DUP8 ADD MSTORE ADD MLOAD SWAP1 DUP5 ADD SWAP1 PUSH3 0x11B2 JUMP JUMPDEST SUB SWAP1 RETURN JUMPDEST POP CALLVALUE PUSH3 0x137 JUMPI DUP1 PUSH1 0x3 NOT CALLDATASIZE ADD SLT PUSH3 0x137 JUMPI SLOAD PUSH1 0x40 MLOAD PUSH1 0x1 PUSH1 0x1 PUSH1 0xA0 SHL SUB SWAP1 SWAP2 AND DUP2 MSTORE PUSH1 0x20 SWAP1 RETURN JUMPDEST POP CALLVALUE PUSH3 0x137 JUMPI PUSH1 0x20 CALLDATASIZE PUSH1 0x3 NOT ADD SLT PUSH3 0x137 JUMPI PUSH1 0x4 CALLDATALOAD SWAP1 PUSH1 0x3 SLOAD DUP3 LT ISZERO PUSH3 0x137 JUMPI PUSH1 0x20 PUSH3 0x3FE DUP4 PUSH3 0x11D6 JUMP JUMPDEST SWAP1 SLOAD SWAP1 PUSH1 0x3 SHL SHR PUSH1 0x40 MLOAD SWAP1 DUP2 MSTORE RETURN JUMPDEST POP CALLVALUE PUSH3 0x137 JUMPI PUSH1 0x20 CALLDATASIZE PUSH1 0x3 NOT ADD SLT PUSH3 0x137 JUMPI PUSH1 0x40 SWAP1 PUSH1 0x4 CALLDATALOAD DUP2 MSTORE PUSH1 0x1 PUSH1 0x20 MSTORE KECCAK256 PUSH1 0x1 DUP1 PUSH1 0xA0 SHL SUB SWAP1 DUP2 DUP2 SLOAD AND SWAP1 PUSH3 0x3A1 DUP4 PUSH1 0x1 DUP4 ADD SLOAD AND SWAP4 DUP1 PUSH1 0x2 DUP5 ADD SLOAD AND SWAP1 PUSH1 0x3 DUP5 ADD SLOAD AND SWAP3 PUSH3 0x465 PUSH1 0x4 DUP3 ADD PUSH3 0x10B4 JUMP JUMPDEST SWAP4 PUSH3 0x4B0 PUSH1 0xFF PUSH1 0x5 DUP5 ADD SLOAD AND SWAP6 PUSH1 0x6 DUP5 ADD SLOAD SWAP3 PUSH1 0xFF PUSH1 0x8 PUSH1 0x7 DUP8 ADD SLOAD SWAP7 ADD SLOAD AND SWAP6 PUSH1 0x40 MLOAD SWAP11 DUP12 SWAP11 DUP12 MSTORE PUSH1 0x20 DUP12 ADD MSTORE PUSH1 0x40 DUP11 ADD MSTORE PUSH1 0x60 DUP10 ADD MSTORE PUSH2 0x120 DUP1 PUSH1 0x80 DUP11 ADD MSTORE DUP9 ADD SWAP1 PUSH3 0x118B JUMP JUMPDEST SWAP5 ISZERO ISZERO PUSH1 0xA0 DUP8 ADD MSTORE PUSH1 0xC0 DUP7 ADD MSTORE PUSH1 0xE0 DUP6 ADD MSTORE PUSH2 0x100 DUP5 ADD SWAP1 PUSH3 0x11B2 JUMP JUMPDEST POP PUSH1 0x80 CALLDATASIZE PUSH1 0x3 NOT ADD SLT PUSH3 0x137 JUMPI PUSH1 0x4 CALLDATALOAD SWAP1 PUSH8 0xFFFFFFFFFFFFFFFF DUP3 GT PUSH3 0x137 JUMPI CALLDATASIZE PUSH1 0x23 DUP4 ADD SLT ISZERO PUSH3 0x137 JUMPI DUP2 PUSH1 0x4 ADD CALLDATALOAD PUSH3 0x50C DUP2 PUSH3 0x105A JUMP JUMPDEST SWAP3 PUSH3 0x51C PUSH1 0x40 MLOAD SWAP5 DUP6 PUSH3 0x1037 JUMP JUMPDEST DUP2 DUP5 MSTORE CALLDATASIZE PUSH1 0x24 DUP4 DUP4 ADD ADD GT PUSH3 0xDF0 JUMPI DUP2 DUP4 SWAP3 PUSH1 0x24 PUSH1 0x20 SWAP4 ADD DUP4 DUP8 ADD CALLDATACOPY DUP5 ADD ADD MSTORE PUSH1 0x24 CALLDATALOAD PUSH1 0x1 PUSH1 0x1 PUSH1 0xA0 SHL SUB DUP2 AND SWAP1 SUB PUSH3 0x137 JUMPI PUSH1 0x44 CALLDATALOAD PUSH1 0x1 PUSH1 0x1 PUSH1 0xA0 SHL SUB DUP2 AND SWAP1 SUB PUSH3 0x137 JUMPI PUSH1 0x5 SLOAD CALLVALUE LT PUSH3 0xDC5 JUMPI PUSH3 0x587 PUSH1 0x24 CALLDATALOAD PUSH1 0x1 PUSH1 0x1 PUSH1 0xA0 SHL SUB AND ISZERO ISZERO PUSH3 0x1224 JUMP JUMPDEST PUSH3 0x59F PUSH1 0x44 CALLDATALOAD PUSH1 0x1 PUSH1 0x1 PUSH1 0xA0 SHL SUB AND ISZERO ISZERO PUSH3 0x125B JUMP JUMPDEST PUSH3 0x5AD DUP3 MLOAD ISZERO ISZERO PUSH3 0x1296 JUMP JUMPDEST PUSH1 0x64 CALLDATALOAD ISZERO ISZERO SWAP2 PUSH3 0x5BE DUP4 PUSH3 0x12CD JUMP JUMPDEST PUSH3 0x614 PUSH3 0x5CF PUSH1 0x64 CALLDATALOAD PUSH3 0x1310 JUMP JUMPDEST SWAP4 PUSH3 0x5E8 PUSH1 0x24 CALLDATALOAD PUSH1 0x1 PUSH1 0x1 PUSH1 0xA0 SHL SUB AND ISZERO ISZERO PUSH3 0x1224 JUMP JUMPDEST PUSH3 0x600 PUSH1 0x44 CALLDATALOAD PUSH1 0x1 PUSH1 0x1 PUSH1 0xA0 SHL SUB AND ISZERO ISZERO PUSH3 0x125B JUMP JUMPDEST PUSH3 0x60E DUP4 MLOAD ISZERO ISZERO PUSH3 0x1296 JUMP JUMPDEST PUSH3 0x12CD JUMP JUMPDEST PUSH1 0x4 SLOAD PUSH3 0x67E PUSH1 0x88 PUSH1 0x40 MLOAD DUP1 SWAP4 DUP6 MLOAD PUSH3 0x637 DUP2 PUSH1 0x20 DUP6 ADD PUSH1 0x20 DUP11 ADD PUSH3 0x1166 JUMP JUMPDEST DUP3 ADD SWAP1 PUSH1 0x1 PUSH1 0x1 PUSH1 0x60 SHL SUB NOT PUSH1 0x24 CALLDATALOAD PUSH1 0x60 SHL AND PUSH1 0x20 DUP4 ADD MSTORE PUSH1 0x1 PUSH1 0x1 PUSH1 0x60 SHL SUB NOT PUSH1 0x44 CALLDATALOAD PUSH1 0x60 SHL AND PUSH1 0x34 DUP4 ADD MSTORE TIMESTAMP PUSH1 0x48 DUP4 ADD MSTORE PUSH1 0x68 DUP3 ADD MSTORE SUB PUSH1 0x68 DUP2 ADD DUP5 MSTORE ADD DUP3 PUSH3 0x1037 JUMP JUMPDEST PUSH1 0x20 DUP2 MLOAD SWAP2 ADD KECCAK256 SWAP2 DUP3 DUP2 MSTORE PUSH1 0x1 PUSH1 0x20 MSTORE PUSH1 0x1 DUP1 PUSH1 0xA0 SHL SUB PUSH1 0x40 DUP3 KECCAK256 SLOAD AND PUSH3 0xD96 JUMPI PUSH1 0x40 MLOAD DUP1 PUSH2 0x12DD DUP2 ADD LT PUSH8 0xFFFFFFFFFFFFFFFF PUSH2 0x12DD DUP4 ADD GT OR PUSH3 0xD82 JUMPI PUSH2 0x12DD PUSH3 0x1375 DUP3 CODECOPY PUSH1 0x44 CALLDATALOAD PUSH1 0x1 PUSH1 0x1 PUSH1 0xA0 SHL SUB AND PUSH2 0x12DD DUP3 ADD SWAP1 DUP2 MSTORE DUP2 SWAP1 SUB PUSH1 0x20 ADD SWAP1 DUP3 CREATE DUP1 ISZERO PUSH3 0xD75 JUMPI PUSH1 0x1 DUP1 PUSH1 0xA0 SHL SUB AND SWAP2 PUSH1 0x40 MLOAD DUP1 PUSH2 0x3EE5 DUP2 ADD LT PUSH8 0xFFFFFFFFFFFFFFFF PUSH2 0x3EE5 DUP4 ADD GT OR PUSH3 0xCF5 JUMPI PUSH2 0x3EE5 PUSH3 0x2652 DUP3 CODECOPY PUSH1 0x1 PUSH1 0x1 PUSH1 0xA0 SHL SUB DUP5 DUP2 AND PUSH2 0x3EE5 DUP4 ADD SWAP1 DUP2 MSTORE PUSH1 0x24 CALLDATALOAD SWAP1 SWAP2 AND PUSH1 0x20 DUP3 ADD MSTORE PUSH1 0x64 CALLDATALOAD PUSH1 0x40 DUP3 ADD MSTORE DUP2 SWAP1 PUSH1 0x60 ADD SUB SWAP1 DUP4 CREATE DUP1 ISZERO PUSH3 0xD6A JUMPI PUSH1 0x1 PUSH1 0x1 PUSH1 0xA0 SHL SUB AND SWAP2 DUP4 EXTCODESIZE ISZERO PUSH3 0x137 JUMPI PUSH1 0x40 MLOAD PUSH4 0x175DCC5D PUSH1 0xE2 SHL DUP2 MSTORE PUSH1 0x4 DUP2 ADD DUP5 SWAP1 MSTORE DUP2 DUP2 PUSH1 0x24 DUP2 DUP4 DUP10 GAS CALL DUP1 ISZERO PUSH3 0xD6A JUMPI PUSH3 0xD58 JUMPI JUMPDEST POP SWAP1 DUP4 EXTCODESIZE ISZERO PUSH3 0x191 JUMPI PUSH1 0x40 MLOAD PUSH4 0xF2FDE38B PUSH1 0xE0 SHL DUP2 MSTORE CALLER PUSH1 0x4 DUP3 ADD MSTORE DUP3 DUP2 PUSH1 0x24 DUP2 DUP4 DUP10 GAS CALL DUP1 ISZERO PUSH3 0xD35 JUMPI SWAP1 DUP4 SWAP2 PUSH3 0xD40 JUMPI JUMPDEST POP POP DUP3 EXTCODESIZE ISZERO PUSH3 0x191 JUMPI PUSH1 0x40 MLOAD PUSH4 0xF2FDE38B PUSH1 0xE0 SHL DUP2 MSTORE CALLER PUSH1 0x4 DUP3 ADD MSTORE DUP3 DUP2 PUSH1 0x24 DUP2 DUP4 DUP9 GAS CALL DUP1 ISZERO PUSH3 0xD35 JUMPI SWAP1 DUP4 SWAP2 PUSH3 0xD1D JUMPI JUMPDEST POP POP PUSH1 0x4 SLOAD PUSH1 0x0 NOT DUP2 EQ PUSH3 0xD09 JUMPI PUSH1 0x1 ADD PUSH1 0x4 SSTORE PUSH1 0x3 SLOAD PUSH9 0x10000000000000000 DUP2 LT ISZERO PUSH3 0xCF5 JUMPI DUP1 PUSH1 0x1 PUSH3 0x837 SWAP3 ADD PUSH1 0x3 SSTORE PUSH3 0x11D6 JUMP JUMPDEST DUP2 SLOAD SWAP1 PUSH1 0x3 SHL SWAP1 DUP8 DUP3 SHL SWAP2 PUSH1 0x0 NOT SWAP1 SHL NOT AND OR SWAP1 SSTORE DUP3 DUP3 MSTORE PUSH1 0x2 PUSH1 0x20 MSTORE PUSH1 0x40 DUP3 KECCAK256 PUSH1 0x1 PUSH1 0xFF NOT DUP3 SLOAD AND OR SWAP1 SSTORE PUSH1 0x40 MLOAD PUSH3 0x871 DUP2 PUSH3 0x1019 JUMP JUMPDEST DUP4 DUP2 MSTORE PUSH1 0x20 DUP2 ADD DUP6 SWAP1 MSTORE PUSH1 0x1 PUSH1 0x1 PUSH1 0xA0 SHL SUB PUSH1 0x24 CALLDATALOAD DUP2 AND PUSH1 0x40 DUP4 ADD MSTORE PUSH1 0x44 CALLDATALOAD AND PUSH1 0x60 DUP3 ADD MSTORE PUSH1 0x80 DUP2 ADD DUP3 SWAP1 MSTORE PUSH1 0x1 PUSH1 0xA0 DUP3 ADD MSTORE TIMESTAMP PUSH1 0xC0 DUP3 ADD MSTORE PUSH1 0x64 CALLDATALOAD PUSH1 0xE0 DUP3 ADD MSTORE PUSH3 0x8C2 DUP8 PUSH2 0x100 DUP4 ADD PUSH3 0x1303 JUMP JUMPDEST DUP6 DUP4 MSTORE PUSH1 0x1 PUSH1 0x20 MSTORE PUSH1 0x40 DUP4 KECCAK256 SWAP1 PUSH1 0x1 DUP1 PUSH1 0xA0 SHL SUB DUP2 MLOAD AND PUSH1 0x1 PUSH1 0x1 PUSH1 0x60 SHL SUB PUSH1 0xA0 SHL SWAP1 DUP2 DUP5 SLOAD AND OR DUP4 SSTORE PUSH1 0x1 DUP4 ADD PUSH1 0x1 DUP1 PUSH1 0xA0 SHL SUB PUSH1 0x20 DUP5 ADD MLOAD AND DUP3 DUP3 SLOAD AND OR SWAP1 SSTORE PUSH1 0x2 DUP4 ADD PUSH1 0x1 DUP1 PUSH1 0xA0 SHL SUB PUSH1 0x40 DUP5 ADD MLOAD AND DUP3 DUP3 SLOAD AND OR SWAP1 SSTORE PUSH1 0x3 DUP4 ADD SWAP1 PUSH1 0x1 DUP1 PUSH1 0xA0 SHL SUB PUSH1 0x60 DUP5 ADD MLOAD AND SWAP1 DUP3 SLOAD AND OR SWAP1 SSTORE PUSH1 0x80 DUP2 ADD MLOAD DUP1 MLOAD SWAP1 PUSH8 0xFFFFFFFFFFFFFFFF DUP3 GT PUSH3 0xCE1 JUMPI PUSH3 0x95C PUSH1 0x4 DUP6 ADD SLOAD PUSH3 0x1077 JUMP JUMPDEST PUSH1 0x1F DUP2 GT PUSH3 0xC97 JUMPI JUMPDEST POP PUSH1 0x20 SWAP1 PUSH1 0x1F DUP4 GT PUSH1 0x1 EQ PUSH3 0xC21 JUMPI PUSH2 0x100 SWAP4 SWAP3 SWAP2 DUP8 SWAP2 DUP4 PUSH3 0xC15 JUMPI JUMPDEST POP POP DUP2 PUSH1 0x1 SHL SWAP2 PUSH1 0x0 NOT SWAP1 PUSH1 0x3 SHL SHR NOT AND OR PUSH1 0x4 DUP5 ADD SSTORE JUMPDEST PUSH3 0x9BD PUSH1 0xA0 DUP3 ADD MLOAD ISZERO ISZERO PUSH1 0x5 DUP6 ADD SWAP1 PUSH1 0xFF DUP1 NOT DUP4 SLOAD AND SWAP2 ISZERO ISZERO AND OR SWAP1 SSTORE JUMP JUMPDEST PUSH1 0xC0 DUP2 ADD MLOAD PUSH1 0x6 DUP5 ADD SSTORE PUSH1 0xE0 DUP2 ADD MLOAD PUSH1 0x7 DUP5 ADD SSTORE ADD MLOAD SWAP1 PUSH1 0x3 DUP3 LT ISZERO PUSH3 0xC01 JUMPI PUSH1 0x8 ADD SWAP1 PUSH1 0xFF DUP1 NOT DUP4 SLOAD AND SWAP2 AND OR SWAP1 SSTORE DUP4 DUP4 DUP7 PUSH32 0x47AB7633006B3B6D4ECFA77B1C64DAC99D985E2EC70DE8FE50AEEDED29C95742 PUSH1 0x40 MLOAD PUSH1 0xA0 DUP2 MSTORE DUP1 PUSH3 0xA29 PUSH1 0xA0 DUP3 ADD DUP9 PUSH3 0x118B JUMP JUMPDEST PUSH1 0x1 PUSH1 0x1 PUSH1 0xA0 SHL SUB PUSH1 0x24 CALLDATALOAD DUP2 AND PUSH1 0x20 DUP5 ADD MSTORE PUSH1 0x44 CALLDATALOAD AND PUSH1 0x40 DUP4 ADD MSTORE PUSH1 0x64 CALLDATALOAD PUSH1 0x60 DUP4 ADD MSTORE PUSH3 0xA5B PUSH1 0x80 DUP4 ADD DUP15 PUSH3 0x11B2 JUMP JUMPDEST SUB SWAP1 LOG4 PUSH1 0x40 MLOAD SWAP1 PUSH1 0x1 DUP1 PUSH1 0xA0 SHL SUB PUSH1 0x44 CALLDATALOAD AND PUSH1 0x20 DUP4 ADD MSTORE PUSH1 0x20 DUP3 MSTORE PUSH1 0x40 DUP3 ADD SWAP2 DUP1 DUP4 LT PUSH8 0xFFFFFFFFFFFFFFFF DUP5 GT OR PUSH3 0xBEB JUMPI PUSH1 0x60 SWAP8 DUP8 SWAP5 DUP7 DUP7 DUP7 DUP11 DUP3 PUSH1 0x20 SWAP8 PUSH32 0xD995305719D82E4F9057E27EF693F99F3B5C384215955B35D47C5619856AEA37 SWAP11 PUSH1 0x40 MSTORE PUSH1 0x40 DUP5 MSTORE PUSH1 0x5 PUSH1 0x80 DUP3 ADD MSTORE PUSH5 0x15985D5B1D PUSH1 0xDA SHL PUSH1 0xA0 DUP3 ADD MSTORE DUP16 PUSH1 0x80 SWAP1 DUP3 ADD MSTORE PUSH32 0xDC7531FD6D62B7D8261D79F7B7CE83982AC69E2DB1B52960D080FBBB1ECD152A SWAP4 DUP5 SWAP2 PUSH1 0x3F NOT SWAP1 PUSH3 0xB18 PUSH1 0xC0 DUP3 ADD DUP3 PUSH3 0x118B JUMP JUMPDEST SUB ADD SWAP1 LOG3 PUSH1 0x40 DUP1 MLOAD PUSH1 0x1 PUSH1 0x1 PUSH1 0xA0 SHL SUB DUP14 DUP2 AND DUP10 DUP4 ADD SWAP1 DUP2 MSTORE PUSH1 0x24 CALLDATALOAD SWAP1 SWAP2 AND PUSH1 0x20 DUP3 ADD MSTORE PUSH1 0x64 CALLDATALOAD DUP2 DUP5 ADD MSTORE DUP2 SWAP1 SUB SWAP2 DUP3 ADD DUP2 MSTORE PUSH3 0xB9B SWAP2 PUSH3 0xB5F SWAP1 PUSH1 0x60 ADD DUP3 PUSH3 0x1037 JUMP JUMPDEST PUSH1 0x40 MLOAD SWAP2 DUP3 SWAP2 PUSH1 0x40 DUP4 MSTORE PUSH1 0x10 PUSH1 0x40 DUP5 ADD MSTORE PUSH1 0x60 PUSH16 0x426F6E64696E67437572766556414D4D PUSH1 0x80 SHL SWAP1 DUP5 ADD MSTORE PUSH1 0x80 DUP11 DUP5 ADD MSTORE PUSH1 0x80 DUP4 ADD SWAP1 PUSH3 0x118B JUMP JUMPDEST SUB SWAP1 LOG3 PUSH3 0xBCC PUSH3 0xBB9 PUSH1 0x40 MLOAD SWAP6 PUSH1 0x80 DUP8 MSTORE PUSH1 0x80 DUP8 ADD SWAP1 PUSH3 0x118B JUMP JUMPDEST SWAP3 PUSH1 0x64 CALLDATALOAD DUP6 DUP8 ADD MSTORE PUSH1 0x40 DUP7 ADD SWAP1 PUSH3 0x11B2 JUMP JUMPDEST DUP4 DUP3 SUB SWAP2 DUP3 DUP12 DUP7 ADD MSTORE MSTORE ADD SWAP1 LOG2 PUSH1 0x40 MLOAD SWAP3 DUP4 MSTORE PUSH1 0x20 DUP4 ADD MSTORE PUSH1 0x40 DUP3 ADD MSTORE RETURN JUMPDEST PUSH4 0x4E487B71 PUSH1 0xE0 SHL PUSH1 0x0 MSTORE PUSH1 0x41 PUSH1 0x4 MSTORE PUSH1 0x24 PUSH1 0x0 REVERT JUMPDEST PUSH4 0x4E487B71 PUSH1 0xE0 SHL DUP5 MSTORE PUSH1 0x21 PUSH1 0x4 MSTORE PUSH1 0x24 DUP5 REVERT JUMPDEST ADD MLOAD SWAP1 POP CODESIZE DUP1 PUSH3 0x985 JUMP JUMPDEST SWAP1 PUSH1 0x4 DUP6 ADD DUP8 MSTORE PUSH1 0x20 DUP8 KECCAK256 SWAP2 DUP8 JUMPDEST PUSH1 0x1F NOT DUP6 AND DUP2 LT PUSH3 0xC7E JUMPI POP SWAP2 DUP4 SWAP2 PUSH1 0x1 SWAP4 PUSH2 0x100 SWAP7 SWAP6 PUSH1 0x1F NOT DUP2 AND LT PUSH3 0xC64 JUMPI JUMPDEST POP POP POP DUP2 SHL ADD PUSH1 0x4 DUP5 ADD SSTORE PUSH3 0x99D JUMP JUMPDEST ADD MLOAD PUSH1 0x0 NOT PUSH1 0xF8 DUP5 PUSH1 0x3 SHL AND SHR NOT AND SWAP1 SSTORE CODESIZE DUP1 DUP1 PUSH3 0xC53 JUMP JUMPDEST SWAP2 SWAP3 PUSH1 0x20 PUSH1 0x1 DUP2 SWAP3 DUP7 DUP6 ADD MLOAD DUP2 SSTORE ADD SWAP5 ADD SWAP3 ADD PUSH3 0xC2F JUMP JUMPDEST PUSH1 0x4 DUP6 ADD DUP8 MSTORE PUSH1 0x20 DUP8 KECCAK256 PUSH1 0x1F DUP5 ADD PUSH1 0x5 SHR DUP2 ADD PUSH1 0x20 DUP6 LT PUSH3 0xCD9 JUMPI JUMPDEST PUSH1 0x1F DUP4 ADD PUSH1 0x5 SHR DUP3 ADD DUP2 LT PUSH3 0xCCC JUMPI POP POP PUSH3 0x966 JUMP JUMPDEST PUSH1 0x0 DUP2 SSTORE PUSH1 0x1 ADD PUSH3 0xCB4 JUMP JUMPDEST POP DUP1 PUSH3 0xCB4 JUMP JUMPDEST PUSH4 0x4E487B71 PUSH1 0xE0 SHL DUP7 MSTORE PUSH1 0x41 PUSH1 0x4 MSTORE PUSH1 0x24 DUP7 REVERT JUMPDEST PUSH4 0x4E487B71 PUSH1 0xE0 SHL DUP4 MSTORE PUSH1 0x41 PUSH1 0x4 MSTORE PUSH1 0x24 DUP4 REVERT JUMPDEST PUSH4 0x4E487B71 PUSH1 0xE0 SHL DUP4 MSTORE PUSH1 0x11 PUSH1 0x4 MSTORE PUSH1 0x24 DUP4 REVERT JUMPDEST PUSH3 0xD28 SWAP1 PUSH3 0x1004 JUMP JUMPDEST PUSH3 0x191 JUMPI DUP2 CODESIZE PUSH3 0x7FB JUMP JUMPDEST PUSH1 0x40 MLOAD RETURNDATASIZE DUP6 DUP3 RETURNDATACOPY RETURNDATASIZE SWAP1 REVERT JUMPDEST PUSH3 0xD4B SWAP1 PUSH3 0x1004 JUMP JUMPDEST PUSH3 0x191 JUMPI DUP2 CODESIZE PUSH3 0x7C5 JUMP JUMPDEST PUSH3 0xD63 SWAP1 PUSH3 0x1004 JUMP JUMPDEST CODESIZE PUSH3 0x78F JUMP JUMPDEST PUSH1 0x40 MLOAD RETURNDATASIZE DUP5 DUP3 RETURNDATACOPY RETURNDATASIZE SWAP1 REVERT JUMPDEST POP PUSH1 0x40 MLOAD SWAP1 RETURNDATASIZE SWAP1 DUP3 RETURNDATACOPY RETURNDATASIZE SWAP1 REVERT JUMPDEST PUSH4 0x4E487B71 PUSH1 0xE0 SHL DUP3 MSTORE PUSH1 0x41 PUSH1 0x4 MSTORE PUSH1 0x24 DUP3 REVERT JUMPDEST PUSH1 0x40 MLOAD PUSH3 0x461BCD PUSH1 0xE5 SHL DUP2 MSTORE PUSH1 0x20 PUSH1 0x4 DUP3 ADD MSTORE PUSH1 0x7 PUSH1 0x24 DUP3 ADD MSTORE PUSH7 0x21657869737473 PUSH1 0xC8 SHL PUSH1 0x44 DUP3 ADD MSTORE PUSH1 0x64 SWAP1 REVERT JUMPDEST PUSH1 0x64 PUSH1 0x40 MLOAD PUSH3 0x461BCD PUSH1 0xE5 SHL DUP2 MSTORE PUSH1 0x20 PUSH1 0x4 DUP3 ADD MSTORE PUSH1 0x4 PUSH1 0x24 DUP3 ADD MSTORE PUSH4 0x21666565 PUSH1 0xE0 SHL PUSH1 0x44 DUP3 ADD MSTORE REVERT JUMPDEST DUP3 DUP1 REVERT JUMPDEST POP CALLVALUE PUSH3 0x137 JUMPI PUSH1 0x20 CALLDATASIZE PUSH1 0x3 NOT ADD SLT PUSH3 0x137 JUMPI PUSH1 0x20 SWAP1 PUSH1 0xFF SWAP1 PUSH1 0x40 SWAP1 PUSH1 0x1 PUSH1 0x1 PUSH1 0xA0 SHL SUB PUSH3 0xE23 PUSH3 0xFE8 JUMP JUMPDEST AND DUP2 MSTORE PUSH1 0x2 DUP5 MSTORE KECCAK256 SLOAD AND PUSH1 0x40 MLOAD SWAP1 ISZERO ISZERO DUP2 MSTORE RETURN JUMPDEST POP CALLVALUE PUSH3 0x137 JUMPI DUP1 PUSH1 0x3 NOT CALLDATASIZE ADD SLT PUSH3 0x137 JUMPI DUP1 SLOAD PUSH1 0x1 PUSH1 0x1 PUSH1 0xA0 SHL SUB AND PUSH3 0xE62 CALLER DUP3 EQ PUSH3 0x133E JUMP JUMPDEST SELFBALANCE SWAP1 DUP2 ISZERO PUSH3 0xEE0 JUMPI DUP3 DUP1 DUP1 SWAP4 DUP2 SWAP4 GAS CALL RETURNDATASIZE ISZERO PUSH3 0xEDA JUMPI RETURNDATASIZE PUSH3 0xE86 DUP2 PUSH3 0x105A JUMP JUMPDEST SWAP1 PUSH3 0xE96 PUSH1 0x40 MLOAD SWAP3 DUP4 PUSH3 0x1037 JUMP JUMPDEST DUP2 MSTORE DUP3 PUSH1 0x20 RETURNDATASIZE SWAP3 ADD RETURNDATACOPY JUMPDEST ISZERO PUSH3 0xEA9 JUMPI DUP1 RETURN JUMPDEST PUSH1 0x40 MLOAD PUSH3 0x461BCD PUSH1 0xE5 SHL DUP2 MSTORE PUSH1 0x20 PUSH1 0x4 DUP3 ADD MSTORE PUSH1 0x9 PUSH1 0x24 DUP3 ADD MSTORE PUSH9 0x217769746864726177 PUSH1 0xB8 SHL PUSH1 0x44 DUP3 ADD MSTORE PUSH1 0x64 SWAP1 REVERT JUMPDEST PUSH3 0xEA0 JUMP JUMPDEST PUSH1 0x40 MLOAD PUSH3 0x461BCD PUSH1 0xE5 SHL DUP2 MSTORE PUSH1 0x20 PUSH1 0x4 DUP3 ADD MSTORE PUSH1 0x8 PUSH1 0x24 DUP3 ADD MSTORE PUSH8 0x2162616C616E6365 PUSH1 0xC0 SHL PUSH1 0x44 DUP3 ADD MSTORE PUSH1 0x64 SWAP1 REVERT JUMPDEST POP CALLVALUE PUSH3 0x137 JUMPI PUSH1 0x40 CALLDATASIZE PUSH1 0x3 NOT ADD SLT PUSH3 0x137 JUMPI PUSH1 0x4 CALLDATALOAD PUSH1 0x24 CALLDATALOAD DUP1 ISZERO ISZERO SWAP1 DUP2 DUP2 SUB PUSH3 0xFE4 JUMPI DUP4 SLOAD PUSH1 0x1 PUSH1 0x1 PUSH1 0xA0 SHL SUB SWAP1 PUSH3 0xF50 SWAP1 DUP3 AND CALLER EQ PUSH3 0x133E JUMP JUMPDEST DUP4 DUP6 MSTORE PUSH1 0x1 PUSH1 0x20 MSTORE PUSH1 0x40 DUP6 KECCAK256 SLOAD AND ISZERO PUSH3 0xFB6 JUMPI PUSH32 0xF74802A5F03EF3B60653FC5EF30996C42340C6F63AD2A625F0F7D4F996B28F35 SWAP2 PUSH3 0xFAC PUSH1 0x20 SWAP3 DUP6 DUP8 MSTORE PUSH1 0x1 DUP5 MSTORE PUSH1 0x5 PUSH1 0x40 DUP9 KECCAK256 ADD SWAP1 PUSH1 0xFF DUP1 NOT DUP4 SLOAD AND SWAP2 ISZERO ISZERO AND OR SWAP1 SSTORE JUMP JUMPDEST PUSH1 0x40 MLOAD SWAP1 DUP2 MSTORE LOG2 DUP1 RETURN JUMPDEST PUSH1 0x40 MLOAD PUSH3 0x461BCD PUSH1 0xE5 SHL DUP2 MSTORE PUSH1 0x20 PUSH1 0x4 DUP3 ADD MSTORE PUSH1 0x6 PUSH1 0x24 DUP3 ADD MSTORE PUSH6 0x8599BDD5B99 PUSH1 0xD2 SHL PUSH1 0x44 DUP3 ADD MSTORE PUSH1 0x64 SWAP1 REVERT JUMPDEST DUP4 DUP1 REVERT JUMPDEST PUSH1 0x4 CALLDATALOAD SWAP1 PUSH1 0x1 PUSH1 0x1 PUSH1 0xA0 SHL SUB DUP3 AND DUP3 SUB PUSH3 0xFFF JUMPI JUMP JUMPDEST PUSH1 0x0 DUP1 REVERT JUMPDEST PUSH8 0xFFFFFFFFFFFFFFFF DUP2 GT PUSH3 0xBEB JUMPI PUSH1 0x40 MSTORE JUMP JUMPDEST PUSH2 0x120 DUP2 ADD SWAP1 DUP2 LT PUSH8 0xFFFFFFFFFFFFFFFF DUP3 GT OR PUSH3 0xBEB JUMPI PUSH1 0x40 MSTORE JUMP JUMPDEST SWAP1 PUSH1 0x1F DUP1 NOT SWAP2 ADD AND DUP2 ADD SWAP1 DUP2 LT PUSH8 0xFFFFFFFFFFFFFFFF DUP3 GT OR PUSH3 0xBEB JUMPI PUSH1 0x40 MSTORE JUMP JUMPDEST PUSH8 0xFFFFFFFFFFFFFFFF DUP2 GT PUSH3 0xBEB JUMPI PUSH1 0x1F ADD PUSH1 0x1F NOT AND PUSH1 0x20 ADD SWAP1 JUMP JUMPDEST SWAP1 PUSH1 0x1 DUP3 DUP2 SHR SWAP3 AND DUP1 ISZERO PUSH3 0x10A9 JUMPI JUMPDEST PUSH1 0x20 DUP4 LT EQ PUSH3 0x1093 JUMPI JUMP JUMPDEST PUSH4 0x4E487B71 PUSH1 0xE0 SHL PUSH1 0x0 MSTORE PUSH1 0x22 PUSH1 0x4 MSTORE PUSH1 0x24 PUSH1 0x0 REVERT JUMPDEST SWAP2 PUSH1 0x7F AND SWAP2 PUSH3 0x1087 JUMP JUMPDEST SWAP1 PUSH1 0x40 MLOAD SWAP2 DUP3 PUSH1 0x0 DUP3 SLOAD SWAP3 PUSH3 0x10CA DUP5 PUSH3 0x1077 JUMP JUMPDEST SWAP1 DUP2 DUP5 MSTORE PUSH1 0x1 SWAP5 DUP6 DUP2 AND SWAP1 DUP2 PUSH1 0x0 EQ PUSH3 0x1141 JUMPI POP PUSH1 0x1 EQ PUSH3 0x10FA JUMPI JUMPDEST POP POP PUSH3 0x10F8 SWAP3 POP SUB DUP4 PUSH3 0x1037 JUMP JUMPDEST JUMP JUMPDEST SWAP1 SWAP4 SWAP2 POP PUSH1 0x0 MSTORE PUSH1 0x20 SWAP1 DUP2 PUSH1 0x0 KECCAK256 SWAP4 PUSH1 0x0 SWAP2 JUMPDEST DUP2 DUP4 LT PUSH3 0x1128 JUMPI POP POP PUSH3 0x10F8 SWAP4 POP DUP3 ADD ADD CODESIZE DUP1 PUSH3 0x10E8 JUMP JUMPDEST DUP6 SLOAD DUP9 DUP5 ADD DUP6 ADD MSTORE SWAP5 DUP6 ADD SWAP5 DUP8 SWAP5 POP SWAP2 DUP4 ADD SWAP2 PUSH3 0x110D JUMP JUMPDEST SWAP2 POP POP PUSH3 0x10F8 SWAP5 POP PUSH1 0x20 SWAP3 POP PUSH1 0xFF NOT AND DUP3 DUP5 ADD MSTORE ISZERO ISZERO PUSH1 0x5 SHL DUP3 ADD ADD CODESIZE DUP1 PUSH3 0x10E8 JUMP JUMPDEST PUSH1 0x0 JUMPDEST DUP4 DUP2 LT PUSH3 0x117A JUMPI POP POP PUSH1 0x0 SWAP2 ADD MSTORE JUMP JUMPDEST DUP2 DUP2 ADD MLOAD DUP4 DUP3 ADD MSTORE PUSH1 0x20 ADD PUSH3 0x1169 JUMP JUMPDEST SWAP1 PUSH1 0x20 SWAP2 PUSH3 0x11A6 DUP2 MLOAD DUP1 SWAP3 DUP2 DUP6 MSTORE DUP6 DUP1 DUP7 ADD SWAP2 ADD PUSH3 0x1166 JUMP JUMPDEST PUSH1 0x1F ADD PUSH1 0x1F NOT AND ADD ADD SWAP1 JUMP JUMPDEST SWAP1 PUSH1 0x3 DUP3 LT ISZERO PUSH3 0x11C0 JUMPI MSTORE JUMP JUMPDEST PUSH4 0x4E487B71 PUSH1 0xE0 SHL PUSH1 0x0 MSTORE PUSH1 0x21 PUSH1 0x4 MSTORE PUSH1 0x24 PUSH1 0x0 REVERT JUMPDEST PUSH1 0x3 SLOAD DUP2 LT ISZERO PUSH3 0x120E JUMPI PUSH1 0x3 PUSH1 0x0 MSTORE PUSH32 0xC2575A0E9E593C00F959F8C92F12DB2869C3395A3B0502D05E2516446F71F85B ADD SWAP1 PUSH1 0x0 SWAP1 JUMP JUMPDEST PUSH4 0x4E487B71 PUSH1 0xE0 SHL PUSH1 0x0 MSTORE PUSH1 0x32 PUSH1 0x4 MSTORE PUSH1 0x24 PUSH1 0x0 REVERT JUMPDEST ISZERO PUSH3 0x122C JUMPI JUMP JUMPDEST PUSH1 0x40 MLOAD PUSH3 0x461BCD PUSH1 0xE5 SHL DUP2 MSTORE PUSH1 0x20 PUSH1 0x4 DUP3 ADD MSTORE PUSH1 0x7 PUSH1 0x24 DUP3 ADD MSTORE PUSH7 0x216F7261636C65 PUSH1 0xC8 SHL PUSH1 0x44 DUP3 ADD MSTORE PUSH1 0x64 SWAP1 REVERT JUMPDEST ISZERO PUSH3 0x1263 JUMPI JUMP JUMPDEST PUSH1 0x40 MLOAD PUSH3 0x461BCD PUSH1 0xE5 SHL DUP2 MSTORE PUSH1 0x20 PUSH1 0x4 DUP3 ADD MSTORE PUSH1 0xB PUSH1 0x24 DUP3 ADD MSTORE PUSH11 0x858DBDB1B185D195C985B PUSH1 0xAA SHL PUSH1 0x44 DUP3 ADD MSTORE PUSH1 0x64 SWAP1 REVERT JUMPDEST ISZERO PUSH3 0x129E JUMPI JUMP JUMPDEST PUSH1 0x40 MLOAD PUSH3 0x461BCD PUSH1 0xE5 SHL DUP2 MSTORE PUSH1 0x20 PUSH1 0x4 DUP3 ADD MSTORE PUSH1 0x7 PUSH1 0x24 DUP3 ADD MSTORE PUSH7 0x85CDE5B589BDB PUSH1 0xCA SHL PUSH1 0x44 DUP3 ADD MSTORE PUSH1 0x64 SWAP1 REVERT JUMPDEST ISZERO PUSH3 0x12D5 JUMPI JUMP JUMPDEST PUSH1 0x40 MLOAD PUSH3 0x461BCD PUSH1 0xE5 SHL DUP2 MSTORE PUSH1 0x20 PUSH1 0x4 DUP3 ADD MSTORE PUSH1 0x6 PUSH1 0x24 DUP3 ADD MSTORE PUSH6 0x217072696365 PUSH1 0xD0 SHL PUSH1 0x44 DUP3 ADD MSTORE PUSH1 0x64 SWAP1 REVERT JUMPDEST PUSH1 0x3 DUP3 LT ISZERO PUSH3 0x11C0 JUMPI MSTORE JUMP JUMPDEST PUSH7 0x2386F26FC10000 DUP2 GT PUSH3 0x1325 JUMPI POP PUSH1 0x0 SWAP1 JUMP JUMPDEST PUSH8 0x8AC7230489E80000 LT PUSH3 0x1339 JUMPI PUSH1 0x1 SWAP1 JUMP JUMPDEST PUSH1 0x2 SWAP1 JUMP JUMPDEST ISZERO PUSH3 0x1346 JUMPI JUMP JUMPDEST PUSH1 0x40 MLOAD PUSH3 0x461BCD PUSH1 0xE5 SHL DUP2 MSTORE PUSH1 0x20 PUSH1 0x4 DUP3 ADD MSTORE PUSH1 0x6 PUSH1 0x24 DUP3 ADD MSTORE PUSH6 0x10B7BBB732B9 PUSH1 0xD1 SHL PUSH1 0x44 DUP3 ADD MSTORE PUSH1 0x64 SWAP1 REVERT INVALID PUSH1 0x80 CALLVALUE PUSH2 0x84 JUMPI PUSH1 0x1F PUSH2 0x12DD CODESIZE DUP2 SWAP1 SUB SWAP2 DUP3 ADD PUSH1 0x1F NOT AND DUP4 ADD SWAP2 PUSH1 0x1 PUSH1 0x1 PUSH1 0x40 SHL SUB DUP4 GT DUP5 DUP5 LT OR PUSH2 0x89 JUMPI DUP1 DUP5 SWAP3 PUSH1 0x20 SWAP5 PUSH1 0x40 MSTORE DUP4 CODECOPY DUP2 ADD SUB SLT PUSH2 0x84 JUMPI MLOAD PUSH1 0x1 PUSH1 0x1 PUSH1 0xA0 SHL SUB DUP2 AND SWAP1 DUP2 SWAP1 SUB PUSH2 0x84 JUMPI PUSH1 0xFF NOT PUSH1 0x5 SLOAD AND PUSH1 0x5 SSTORE PUSH1 0x1 DUP1 PUSH1 0xA0 SHL SUB NOT CALLER DUP2 PUSH1 0x0 SLOAD AND OR PUSH1 0x0 SSTORE PUSH1 0x2 SLOAD AND OR PUSH1 0x2 SSTORE PUSH1 0x40 MLOAD PUSH2 0x123D SWAP1 DUP2 PUSH2 0xA0 DUP3 CODECOPY RETURN JUMPDEST PUSH1 0x0 DUP1 REVERT JUMPDEST PUSH4 0x4E487B71 PUSH1 0xE0 SHL PUSH1 0x0 MSTORE PUSH1 0x41 PUSH1 0x4 MSTORE PUSH1 0x24 PUSH1 0x0 REVERT INVALID PUSH1 0x80 PUSH1 0x40 DUP2 DUP2 MSTORE PUSH1 0x4 DUP1 CALLDATASIZE LT ISZERO PUSH2 0x15 JUMPI PUSH1 0x0 DUP1 REVERT JUMPDEST PUSH1 0x0 SWAP3 DUP4 CALLDATALOAD PUSH1 0xE0 SHR SWAP1 DUP2 PUSH3 0x2BC164 EQ PUSH2 0xE2D JUMPI POP DUP1 PUSH4 0x350C35E9 EQ PUSH2 0xC4B JUMPI DUP1 PUSH4 0x3F4BA83A EQ PUSH2 0xBF5 JUMPI DUP1 PUSH4 0x485D7D94 EQ PUSH2 0xB88 JUMPI DUP1 PUSH4 0x5969F96B EQ PUSH2 0xACF JUMPI DUP1 PUSH4 0x5C975ABB EQ PUSH2 0xAAB JUMPI DUP1 PUSH4 0x5D773174 EQ PUSH2 0x9BF JUMPI DUP1 PUSH4 0x7569F4C8 EQ PUSH2 0x8AD JUMPI DUP1 PUSH4 0x8456CB59 EQ PUSH2 0x851 JUMPI DUP1 PUSH4 0x8DA5CB5B EQ PUSH2 0x829 JUMPI DUP1 PUSH4 0x90A8AE9B EQ PUSH2 0x80C JUMPI DUP1 PUSH4 0x9101E5B3 EQ PUSH2 0x6F4 JUMPI DUP1 PUSH4 0x95CCEA67 EQ PUSH2 0x60D JUMPI DUP1 PUSH4 0xA5D5DB0C EQ PUSH2 0x505 JUMPI DUP1 PUSH4 0xB2016BD4 EQ PUSH2 0x4DC JUMPI DUP1 PUSH4 0xB39FF736 EQ PUSH2 0x4AA JUMPI DUP1 PUSH4 0xB9181611 EQ PUSH2 0x46E JUMPI DUP1 PUSH4 0xBCBAF487 EQ PUSH2 0x3B5 JUMPI DUP1 PUSH4 0xC1C7C9DD EQ PUSH2 0x38F JUMPI DUP1 PUSH4 0xC90BA3A6 EQ PUSH2 0x362 JUMPI DUP1 PUSH4 0xCB625680 EQ PUSH2 0x2BB JUMPI DUP1 PUSH4 0xCF1C316A EQ PUSH2 0x20A JUMPI DUP1 PUSH4 0xE098372C EQ PUSH2 0x1E1 JUMPI DUP1 PUSH4 0xE1F1C4A7 EQ PUSH2 0x1C0 JUMPI PUSH4 0xF2FDE38B EQ PUSH2 0x135 JUMPI PUSH1 0x0 DUP1 REVERT JUMPDEST CALLVALUE PUSH2 0x1BC JUMPI PUSH1 0x20 CALLDATASIZE PUSH1 0x3 NOT ADD SLT PUSH2 0x1BC JUMPI PUSH2 0x14E PUSH2 0xEC9 JUMP JUMPDEST DUP4 SLOAD SWAP2 SWAP1 PUSH1 0x1 PUSH1 0x1 PUSH1 0xA0 SHL SUB SWAP1 PUSH2 0x168 CALLER DUP4 DUP7 AND EQ PUSH2 0xEE4 JUMP JUMPDEST AND SWAP3 DUP4 ISZERO PUSH2 0x182 JUMPI POP POP PUSH1 0x1 PUSH1 0x1 PUSH1 0xA0 SHL SUB NOT AND OR DUP2 SSTORE DUP1 RETURN JUMPDEST SWAP1 PUSH1 0x20 PUSH1 0x64 SWAP3 MLOAD SWAP2 PUSH3 0x461BCD PUSH1 0xE5 SHL DUP4 MSTORE DUP3 ADD MSTORE PUSH1 0x14 PUSH1 0x24 DUP3 ADD MSTORE PUSH20 0x2B30BAB63A1D1034B73B30B634B21037BBB732B9 PUSH1 0x61 SHL PUSH1 0x44 DUP3 ADD MSTORE REVERT JUMPDEST DUP3 DUP1 REVERT JUMPDEST POP POP CALLVALUE PUSH2 0x1DD JUMPI DUP2 PUSH1 0x3 NOT CALLDATASIZE ADD SLT PUSH2 0x1DD JUMPI PUSH1 0x20 SWAP1 MLOAD PUSH2 0x2710 DUP2 MSTORE RETURN JUMPDEST POP DUP1 REVERT JUMPDEST POP POP CALLVALUE PUSH2 0x1DD JUMPI DUP2 PUSH1 0x3 NOT CALLDATASIZE ADD SLT PUSH2 0x1DD JUMPI PUSH1 0x1 SLOAD SWAP1 MLOAD PUSH1 0x1 PUSH1 0x1 PUSH1 0xA0 SHL SUB SWAP1 SWAP2 AND DUP2 MSTORE PUSH1 0x20 SWAP1 RETURN JUMPDEST POP SWAP1 CALLVALUE PUSH2 0x1BC JUMPI PUSH1 0x20 CALLDATASIZE PUSH1 0x3 NOT ADD SLT PUSH2 0x1BC JUMPI PUSH2 0x225 PUSH2 0xEC9 JUMP JUMPDEST DUP4 SLOAD PUSH1 0x1 PUSH1 0x1 PUSH1 0xA0 SHL SUB SWAP2 SWAP1 PUSH2 0x23E SWAP1 DUP4 AND CALLER EQ PUSH2 0xEE4 JUMP JUMPDEST AND SWAP2 DUP3 ISZERO PUSH2 0x280 JUMPI DUP3 DUP5 MSTORE PUSH1 0x20 MSTORE DUP3 KECCAK256 DUP1 SLOAD PUSH1 0xFF NOT AND PUSH1 0x1 OR SWAP1 SSTORE PUSH32 0xDD10D14F6AC19E913D4EDBB11FD30661531E2CCD0D23F571E9B224F001F0DD06 DUP3 DUP1 LOG2 DUP1 RETURN JUMPDEST PUSH1 0x20 PUSH1 0x64 SWAP3 MLOAD SWAP2 PUSH3 0x461BCD PUSH1 0xE5 SHL DUP4 MSTORE DUP3 ADD MSTORE PUSH1 0x16 PUSH1 0x24 DUP3 ADD MSTORE PUSH22 0x5661756C743A20696E76616C69642061646472657373 PUSH1 0x50 SHL PUSH1 0x44 DUP3 ADD MSTORE REVERT JUMPDEST POP CALLVALUE PUSH2 0x1BC JUMPI DUP2 PUSH1 0x3 NOT CALLDATASIZE ADD SLT PUSH2 0x1BC JUMPI PUSH1 0x20 PUSH32 0x22D38DEB33EE15DD233167FC440609397A226EB4E1B61E1773BDD09EF99424AA SWAP2 PUSH2 0x2F8 PUSH2 0xEC9 JUMP JUMPDEST PUSH1 0x24 CALLDATALOAD SWAP2 CALLER DUP8 MSTORE DUP4 MSTORE PUSH1 0xFF DUP6 DUP8 KECCAK256 SLOAD AND DUP1 ISZERO PUSH2 0x34F JUMPI JUMPDEST PUSH2 0x318 SWAP1 PUSH2 0x10B9 JUMP JUMPDEST PUSH1 0x1 PUSH1 0x1 PUSH1 0xA0 SHL SUB AND SWAP4 PUSH2 0x32D DUP6 ISZERO ISZERO PUSH2 0xFA3 JUMP JUMPDEST DUP5 DUP7 MSTORE PUSH1 0x3 DUP4 MSTORE PUSH1 0x2 DUP2 DUP8 KECCAK256 ADD PUSH2 0x345 DUP4 DUP3 SLOAD PUSH2 0x110A JUMP JUMPDEST SWAP1 SSTORE MLOAD SWAP1 DUP2 MSTORE LOG2 DUP1 RETURN JUMPDEST POP DUP6 SLOAD PUSH1 0x1 PUSH1 0x1 PUSH1 0xA0 SHL SUB AND CALLER EQ PUSH2 0x30F JUMP JUMPDEST POP POP CALLVALUE PUSH2 0x1DD JUMPI PUSH1 0x20 CALLDATASIZE PUSH1 0x3 NOT ADD SLT PUSH2 0x1DD JUMPI PUSH1 0x20 SWAP1 PUSH2 0x388 PUSH2 0x383 PUSH2 0xEC9 JUMP JUMPDEST PUSH2 0x1171 JUMP JUMPDEST SWAP1 MLOAD SWAP1 DUP2 MSTORE RETURN JUMPDEST POP POP CALLVALUE PUSH2 0x1DD JUMPI PUSH1 0x20 CALLDATASIZE PUSH1 0x3 NOT ADD SLT PUSH2 0x1DD JUMPI PUSH1 0x20 SWAP1 PUSH2 0x388 PUSH2 0x3B0 PUSH2 0xEC9 JUMP JUMPDEST PUSH2 0x1126 JUMP JUMPDEST POP CALLVALUE PUSH2 0x1BC JUMPI DUP2 PUSH1 0x3 NOT CALLDATASIZE ADD SLT PUSH2 0x1BC JUMPI PUSH1 0x20 PUSH32 0xE538B9438650B40B382A773F4B71A35129A6B330599B42ED9B50492847972FA6 SWAP2 PUSH2 0x3F2 PUSH2 0xEC9 JUMP JUMPDEST PUSH1 0x24 CALLDATALOAD SWAP2 CALLER DUP8 MSTORE DUP4 MSTORE PUSH1 0xFF DUP6 DUP8 KECCAK256 SLOAD AND DUP1 ISZERO PUSH2 0x45B JUMPI JUMPDEST PUSH2 0x412 SWAP1 PUSH2 0x10B9 JUMP JUMPDEST PUSH1 0x1 PUSH1 0x1 PUSH1 0xA0 SHL SUB AND DUP1 DUP7 MSTORE PUSH1 0x3 DUP4 MSTORE DUP5 DUP7 KECCAK256 DUP1 SLOAD SWAP2 SWAP6 SWAP2 DUP8 SWAP2 PUSH1 0x2 SWAP2 DUP6 GT PUSH2 0x453 JUMPI PUSH2 0x440 DUP6 DUP3 SLOAD PUSH2 0x10FD JUMP JUMPDEST DUP2 SSTORE JUMPDEST DUP3 PUSH1 0x1 DUP3 ADD SSTORE ADD SSTORE MLOAD SWAP1 DUP2 MSTORE LOG2 DUP1 RETURN JUMPDEST DUP3 DUP2 SSTORE PUSH2 0x443 JUMP JUMPDEST POP DUP6 SLOAD PUSH1 0x1 PUSH1 0x1 PUSH1 0xA0 SHL SUB AND CALLER EQ PUSH2 0x409 JUMP JUMPDEST POP CALLVALUE PUSH2 0x1BC JUMPI PUSH1 0x20 CALLDATASIZE PUSH1 0x3 NOT ADD SLT PUSH2 0x1BC JUMPI PUSH1 0x20 SWAP3 PUSH1 0xFF SWAP2 DUP4 SWAP2 SWAP1 PUSH1 0x1 PUSH1 0x1 PUSH1 0xA0 SHL SUB PUSH2 0x499 PUSH2 0xEC9 JUMP JUMPDEST AND DUP3 MSTORE DUP6 MSTORE KECCAK256 SLOAD AND SWAP1 MLOAD SWAP1 ISZERO ISZERO DUP2 MSTORE RETURN JUMPDEST POP POP CALLVALUE PUSH2 0x1DD JUMPI DUP1 PUSH1 0x3 NOT CALLDATASIZE ADD SLT PUSH2 0x1DD JUMPI PUSH1 0x20 SWAP1 PUSH2 0x4D3 PUSH2 0x4CA PUSH2 0xEC9 JUMP JUMPDEST PUSH1 0x24 CALLDATALOAD SWAP1 PUSH2 0x1199 JUMP JUMPDEST SWAP1 MLOAD SWAP1 ISZERO ISZERO DUP2 MSTORE RETURN JUMPDEST POP POP CALLVALUE PUSH2 0x1DD JUMPI DUP2 PUSH1 0x3 NOT CALLDATASIZE ADD SLT PUSH2 0x1DD JUMPI PUSH1 0x2 SLOAD SWAP1 MLOAD PUSH1 0x1 PUSH1 0x1 PUSH1 0xA0 SHL SUB SWAP1 SWAP2 AND DUP2 MSTORE PUSH1 0x20 SWAP1 RETURN JUMPDEST POP CALLVALUE PUSH2 0x1BC JUMPI DUP2 PUSH1 0x3 NOT CALLDATASIZE ADD SLT PUSH2 0x1BC JUMPI PUSH2 0x51E PUSH2 0xEC9 JUMP JUMPDEST SWAP2 DUP4 PUSH1 0x20 PUSH1 0x24 CALLDATALOAD SWAP4 PUSH2 0x535 PUSH1 0xFF PUSH1 0x5 SLOAD AND ISZERO PUSH2 0xF23 JUMP JUMPDEST PUSH2 0x540 DUP6 ISZERO ISZERO PUSH2 0xF5F JUMP JUMPDEST PUSH1 0x1 PUSH1 0x1 PUSH1 0xA0 SHL SUB SWAP6 DUP7 AND SWAP6 PUSH1 0x64 SWAP1 PUSH2 0x55A DUP9 ISZERO ISZERO PUSH2 0xFA3 JUMP JUMPDEST PUSH1 0x2 SLOAD AND SWAP2 DUP6 MLOAD SWAP5 DUP6 SWAP4 DUP5 SWAP3 PUSH4 0x23B872DD PUSH1 0xE0 SHL DUP5 MSTORE CALLER SWAP1 DUP5 ADD MSTORE ADDRESS PUSH1 0x24 DUP5 ADD MSTORE DUP9 PUSH1 0x44 DUP5 ADD MSTORE GAS CALL SWAP1 DUP2 ISZERO PUSH2 0x603 JUMPI SWAP2 PUSH2 0x5C1 PUSH32 0xD7243F6F8212D5188FD054141CF6EA89CFC0D91FACB8C3AFE2F88A1358480142 SWAP5 SWAP3 PUSH1 0x20 SWAP5 DUP9 SWAP2 PUSH2 0x5D6 JUMPI JUMPDEST POP PUSH2 0x1051 JUMP JUMPDEST DUP5 DUP7 MSTORE PUSH1 0x3 DUP4 MSTORE DUP1 DUP7 KECCAK256 PUSH2 0x345 DUP4 DUP3 SLOAD PUSH2 0x1096 JUMP JUMPDEST PUSH2 0x5F6 SWAP2 POP DUP6 RETURNDATASIZE DUP2 GT PUSH2 0x5FC JUMPI JUMPDEST PUSH2 0x5EE DUP2 DUP4 PUSH2 0x1017 JUMP JUMPDEST DUP2 ADD SWAP1 PUSH2 0x1039 JUMP JUMPDEST CODESIZE PUSH2 0x5BB JUMP JUMPDEST POP RETURNDATASIZE PUSH2 0x5E4 JUMP JUMPDEST DUP3 MLOAD RETURNDATASIZE DUP8 DUP3 RETURNDATACOPY RETURNDATASIZE SWAP1 REVERT JUMPDEST POP CALLVALUE PUSH2 0x1BC JUMPI DUP2 PUSH1 0x3 NOT CALLDATASIZE ADD SLT PUSH2 0x1BC JUMPI PUSH2 0x626 PUSH2 0xEC9 JUMP JUMPDEST DUP4 SLOAD PUSH1 0x1 PUSH1 0x1 PUSH1 0xA0 SHL SUB SWAP1 DUP2 AND SWAP1 PUSH2 0x63F CALLER DUP4 EQ PUSH2 0xEE4 JUMP JUMPDEST PUSH1 0xFF PUSH1 0x5 SLOAD AND ISZERO PUSH2 0x6BD JUMPI DUP5 MLOAD PUSH4 0xA9059CBB PUSH1 0xE0 SHL DUP2 MSTORE PUSH1 0x1 PUSH1 0x1 PUSH1 0xA0 SHL SUB SWAP3 SWAP1 SWAP3 AND SWAP4 DUP3 ADD SWAP4 DUP5 MSTORE PUSH1 0x24 CALLDATALOAD PUSH1 0x20 DUP1 DUP7 ADD SWAP2 SWAP1 SWAP2 MSTORE SWAP2 SWAP5 SWAP4 SWAP2 SWAP3 DUP6 SWAP3 DUP4 SWAP1 SUB PUSH1 0x40 ADD SWAP2 DUP4 SWAP2 DUP9 SWAP2 AND GAS CALL SWAP1 DUP2 ISZERO PUSH2 0x6B4 JUMPI POP PUSH2 0x699 JUMPI POP DUP1 RETURN JUMPDEST PUSH2 0x6B0 SWAP1 PUSH1 0x20 RETURNDATASIZE DUP2 GT PUSH2 0x5FC JUMPI PUSH2 0x5EE DUP2 DUP4 PUSH2 0x1017 JUMP JUMPDEST POP DUP1 RETURN JUMPDEST MLOAD RETURNDATASIZE DUP5 DUP3 RETURNDATACOPY RETURNDATASIZE SWAP1 REVERT JUMPDEST DUP5 MLOAD PUSH3 0x461BCD PUSH1 0xE5 SHL DUP2 MSTORE PUSH1 0x20 DUP2 DUP7 ADD MSTORE PUSH1 0x11 PUSH1 0x24 DUP3 ADD MSTORE PUSH17 0x15985D5B1D0E881B9BDD081C185D5CD959 PUSH1 0x7A SHL PUSH1 0x44 DUP3 ADD MSTORE PUSH1 0x64 SWAP1 REVERT JUMPDEST POP SWAP1 CALLVALUE PUSH2 0x1BC JUMPI DUP1 PUSH1 0x3 NOT CALLDATASIZE ADD SLT PUSH2 0x1BC JUMPI PUSH2 0x70E PUSH2 0xEC9 JUMP JUMPDEST SWAP1 PUSH1 0x24 CALLDATALOAD SWAP2 CALLER DUP6 MSTORE DUP4 PUSH1 0x20 MSTORE PUSH1 0xFF DUP3 DUP7 KECCAK256 SLOAD AND DUP1 ISZERO PUSH2 0x7F9 JUMPI JUMPDEST PUSH2 0x731 SWAP1 PUSH2 0x10B9 JUMP JUMPDEST PUSH2 0x740 PUSH1 0xFF PUSH1 0x5 SLOAD AND ISZERO PUSH2 0xF23 JUMP JUMPDEST PUSH2 0x74B DUP4 ISZERO ISZERO PUSH2 0xF5F JUMP JUMPDEST PUSH1 0x1 PUSH1 0x1 PUSH1 0xA0 SHL SUB AND SWAP3 PUSH2 0x760 DUP5 ISZERO ISZERO PUSH2 0xFA3 JUMP JUMPDEST DUP4 DUP6 MSTORE PUSH1 0x3 PUSH1 0x20 MSTORE PUSH1 0x1 DUP3 DUP7 KECCAK256 ADD SWAP1 DUP2 SLOAD SWAP1 DUP5 DUP3 LT PUSH2 0x7AA JUMPI POP SWAP2 DUP4 SWAP2 PUSH2 0x345 PUSH32 0x5E63D54AF10545F0B2BD229512F244CAEFE863AD94DBBB7AD827432C84D762F5 SWAP6 PUSH1 0x20 SWAP6 PUSH2 0x10FD JUMP JUMPDEST PUSH1 0x84 SWAP1 PUSH1 0x20 DUP6 MLOAD SWAP2 PUSH3 0x461BCD PUSH1 0xE5 SHL DUP4 MSTORE DUP3 ADD MSTORE PUSH1 0x23 PUSH1 0x24 DUP3 ADD MSTORE PUSH32 0x5661756C743A20696E73756666696369656E74207265736572766564206D6172 PUSH1 0x44 DUP3 ADD MSTORE PUSH3 0x33B4B7 PUSH1 0xE9 SHL PUSH1 0x64 DUP3 ADD MSTORE REVERT JUMPDEST POP DUP5 SLOAD PUSH1 0x1 PUSH1 0x1 PUSH1 0xA0 SHL SUB AND CALLER EQ PUSH2 0x728 JUMP JUMPDEST POP POP CALLVALUE PUSH2 0x1DD JUMPI DUP2 PUSH1 0x3 NOT CALLDATASIZE ADD SLT PUSH2 0x1DD JUMPI PUSH1 0x20 SWAP1 MLOAD PUSH2 0x1388 DUP2 MSTORE RETURN JUMPDEST POP POP CALLVALUE PUSH2 0x1DD JUMPI DUP2 PUSH1 0x3 NOT CALLDATASIZE ADD SLT PUSH2 0x1DD JUMPI SWAP1 SLOAD SWAP1 MLOAD PUSH1 0x1 PUSH1 0x1 PUSH1 0xA0 SHL SUB SWAP1 SWAP2 AND DUP2 MSTORE PUSH1 0x20 SWAP1 RETURN JUMPDEST DUP4 CALLVALUE PUSH2 0x8AA JUMPI DUP1 PUSH1 0x3 NOT CALLDATASIZE ADD SLT PUSH2 0x8AA JUMPI PUSH2 0x876 PUSH1 0x1 DUP1 PUSH1 0xA0 SHL SUB DUP3 SLOAD AND CALLER EQ PUSH2 0xEE4 JUMP JUMPDEST PUSH1 0x1 PUSH1 0xFF NOT PUSH1 0x5 SLOAD AND OR PUSH1 0x5 SSTORE PUSH32 0x9E87FAC88FF661F02D44F95383C817FECE4BCE600A3DAB7A54406878B965E752 DUP2 DUP1 LOG1 DUP1 RETURN JUMPDEST DUP1 REVERT JUMPDEST POP SWAP1 CALLVALUE PUSH2 0x1BC JUMPI DUP1 PUSH1 0x3 NOT CALLDATASIZE ADD SLT PUSH2 0x1BC JUMPI PUSH2 0x8C7 PUSH2 0xEC9 JUMP JUMPDEST SWAP1 PUSH1 0x24 CALLDATALOAD SWAP2 CALLER DUP6 MSTORE DUP4 PUSH1 0x20 MSTORE PUSH1 0xFF DUP3 DUP7 KECCAK256 SLOAD AND DUP1 ISZERO PUSH2 0x9AC JUMPI JUMPDEST PUSH2 0x8EA SWAP1 PUSH2 0x10B9 JUMP JUMPDEST PUSH2 0x8F9 PUSH1 0xFF PUSH1 0x5 SLOAD AND ISZERO PUSH2 0xF23 JUMP JUMPDEST PUSH2 0x904 DUP4 ISZERO ISZERO PUSH2 0xF5F JUMP JUMPDEST PUSH1 0x1 PUSH1 0x1 PUSH1 0xA0 SHL SUB DUP2 AND SWAP4 PUSH2 0x91A DUP6 ISZERO ISZERO PUSH2 0xFA3 JUMP JUMPDEST DUP5 DUP7 MSTORE PUSH1 0x3 PUSH1 0x20 MSTORE DUP4 PUSH2 0x92F DUP5 DUP9 KECCAK256 SWAP4 PUSH2 0x1126 JUMP JUMPDEST LT PUSH2 0x969 JUMPI POP SWAP2 PUSH1 0x20 SWAP2 PUSH1 0x1 PUSH32 0x7A9B1B90F35F094FFC6D04D86069C79E82C6A16EB600F79672428A409635DECA SWAP5 ADD PUSH2 0x345 DUP4 DUP3 SLOAD PUSH2 0x1096 JUMP JUMPDEST PUSH1 0x64 SWAP1 PUSH1 0x20 DUP5 MLOAD SWAP2 PUSH3 0x461BCD PUSH1 0xE5 SHL DUP4 MSTORE DUP3 ADD MSTORE PUSH1 0x1A PUSH1 0x24 DUP3 ADD MSTORE PUSH32 0x5661756C743A20696E73756666696369656E74206D617267696E000000000000 PUSH1 0x44 DUP3 ADD MSTORE REVERT JUMPDEST POP DUP5 SLOAD PUSH1 0x1 PUSH1 0x1 PUSH1 0xA0 SHL SUB AND CALLER EQ PUSH2 0x8E1 JUMP JUMPDEST POP SWAP1 CALLVALUE PUSH2 0x1BC JUMPI PUSH1 0x20 CALLDATASIZE PUSH1 0x3 NOT ADD SLT PUSH2 0x1BC JUMPI PUSH2 0x9DA PUSH2 0xEC9 JUMP JUMPDEST DUP4 SLOAD PUSH1 0x1 PUSH1 0x1 PUSH1 0xA0 SHL SUB SWAP2 SWAP1 PUSH2 0x9F3 SWAP1 DUP4 AND CALLER EQ PUSH2 0xEE4 JUMP JUMPDEST AND SWAP2 DUP3 ISZERO PUSH2 0xA73 JUMPI DUP3 PUSH12 0xFFFFFFFFFFFFFFFFFFFFFFFF PUSH1 0xA0 SHL PUSH1 0x1 SLOAD AND OR PUSH1 0x1 SSTORE DUP3 DUP5 MSTORE PUSH1 0x20 MSTORE DUP3 KECCAK256 PUSH1 0x1 PUSH1 0xFF NOT DUP3 SLOAD AND OR SWAP1 SSTORE DUP1 PUSH32 0xB9B7E0CD0425B8D1399710185FEAB651B96089B6F0E01CB950FFB46B17227CBF DUP4 DUP1 LOG2 PUSH32 0xDD10D14F6AC19E913D4EDBB11FD30661531E2CCD0D23F571E9B224F001F0DD06 DUP3 DUP1 LOG2 DUP1 RETURN JUMPDEST PUSH1 0x20 PUSH1 0x64 SWAP3 MLOAD SWAP2 PUSH3 0x461BCD PUSH1 0xE5 SHL DUP4 MSTORE DUP3 ADD MSTORE PUSH1 0x13 PUSH1 0x24 DUP3 ADD MSTORE PUSH19 0x5661756C743A20696E76616C69642076616D6D PUSH1 0x68 SHL PUSH1 0x44 DUP3 ADD MSTORE REVERT JUMPDEST POP POP CALLVALUE PUSH2 0x1DD JUMPI DUP2 PUSH1 0x3 NOT CALLDATASIZE ADD SLT PUSH2 0x1DD JUMPI PUSH1 0x20 SWAP1 PUSH1 0xFF PUSH1 0x5 SLOAD AND SWAP1 MLOAD SWAP1 ISZERO ISZERO DUP2 MSTORE RETURN JUMPDEST POP SWAP1 CALLVALUE PUSH2 0x1BC JUMPI PUSH1 0x60 CALLDATASIZE PUSH1 0x3 NOT ADD SLT PUSH2 0x1BC JUMPI PUSH32 0x4519C0DE74B8F9F16FDA0005326875E3FD4DD0D38446A1135A1FFA1739E4591E SWAP1 PUSH2 0xB0C PUSH2 0xEC9 JUMP JUMPDEST PUSH1 0x24 CALLDATALOAD SWAP1 PUSH1 0x44 CALLDATALOAD SWAP5 CALLER DUP8 MSTORE PUSH1 0x20 MSTORE PUSH1 0xFF DUP4 DUP8 KECCAK256 SLOAD AND DUP1 ISZERO PUSH2 0xB75 JUMPI JUMPDEST PUSH2 0xB31 SWAP1 PUSH2 0x10B9 JUMP JUMPDEST PUSH1 0x1 PUSH1 0x1 PUSH1 0xA0 SHL SUB AND SWAP4 PUSH2 0xB46 DUP6 ISZERO ISZERO PUSH2 0xFA3 JUMP JUMPDEST DUP5 DUP7 MSTORE PUSH1 0x3 PUSH1 0x20 MSTORE DUP1 PUSH1 0x3 DUP5 DUP9 KECCAK256 PUSH1 0x2 DUP2 ADD PUSH2 0xB63 DUP7 DUP3 SLOAD PUSH2 0x110A JUMP JUMPDEST SWAP1 SSTORE ADD SSTORE DUP3 MLOAD SWAP2 DUP3 MSTORE PUSH1 0x20 DUP3 ADD MSTORE LOG2 DUP1 RETURN JUMPDEST POP DUP6 SLOAD PUSH1 0x1 PUSH1 0x1 PUSH1 0xA0 SHL SUB AND CALLER EQ PUSH2 0xB28 JUMP JUMPDEST POP SWAP1 CALLVALUE PUSH2 0x1BC JUMPI PUSH1 0x20 CALLDATASIZE PUSH1 0x3 NOT ADD SLT PUSH2 0x1BC JUMPI PUSH2 0xBA3 PUSH2 0xEC9 JUMP JUMPDEST DUP4 SLOAD PUSH1 0x1 PUSH1 0x1 PUSH1 0xA0 SHL SUB SWAP2 SWAP1 PUSH2 0xBBC SWAP1 DUP4 AND CALLER EQ PUSH2 0xEE4 JUMP JUMPDEST AND SWAP2 DUP3 DUP5 MSTORE PUSH1 0x20 MSTORE DUP3 KECCAK256 PUSH1 0xFF NOT DUP2 SLOAD AND SWAP1 SSTORE PUSH32 0xFAFD0343E6C6F6985727574866DA48938C918559EB9521CF9CC0D317EA0F7B4 DUP3 DUP1 LOG2 DUP1 RETURN JUMPDEST DUP4 CALLVALUE PUSH2 0x8AA JUMPI DUP1 PUSH1 0x3 NOT CALLDATASIZE ADD SLT PUSH2 0x8AA JUMPI PUSH2 0xC1A PUSH1 0x1 DUP1 PUSH1 0xA0 SHL SUB DUP3 SLOAD AND CALLER EQ PUSH2 0xEE4 JUMP JUMPDEST PUSH1 0xFF NOT PUSH1 0x5 SLOAD AND PUSH1 0x5 SSTORE PUSH32 0xA45F47FDEA8A1EFDD9029A5691C7F759C32B7C698632B563573E155625D16933 DUP2 DUP1 LOG1 DUP1 RETURN JUMPDEST POP CALLVALUE PUSH2 0x1BC JUMPI DUP2 PUSH1 0x3 NOT CALLDATASIZE ADD SLT PUSH2 0x1BC JUMPI PUSH2 0xC64 PUSH2 0xEC9 JUMP JUMPDEST SWAP1 PUSH1 0x24 CALLDATALOAD PUSH2 0xC77 PUSH1 0xFF PUSH1 0x5 SLOAD AND ISZERO PUSH2 0xF23 JUMP JUMPDEST PUSH2 0xC82 DUP2 ISZERO ISZERO PUSH2 0xF5F JUMP JUMPDEST PUSH1 0x1 PUSH1 0x1 PUSH1 0xA0 SHL SUB DUP4 DUP2 AND SWAP4 SWAP1 SWAP3 SWAP1 PUSH2 0xC9C DUP6 ISZERO ISZERO PUSH2 0xFA3 JUMP JUMPDEST DUP5 CALLER EQ DUP1 ISZERO PUSH2 0xE18 JUMPI JUMPDEST PUSH2 0xCAF SWAP1 PUSH2 0x10B9 JUMP JUMPDEST DUP5 DUP8 MSTORE PUSH1 0x20 SWAP4 PUSH1 0x3 DUP6 MSTORE DUP7 DUP9 KECCAK256 DUP1 SLOAD DUP6 DUP2 LT PUSH2 0xDD5 JUMPI DUP6 PUSH2 0xCCF DUP6 PUSH2 0x1126 JUMP JUMPDEST LT PUSH2 0xD86 JUMPI SWAP3 DUP10 DUP7 SWAP4 PUSH2 0xD1E SWAP7 SWAP4 PUSH2 0xCE8 DUP7 DUP12 SWAP9 PUSH2 0x10FD JUMP JUMPDEST SWAP1 SSTORE PUSH1 0x2 SLOAD AND SWAP3 DUP11 MLOAD SWAP7 DUP8 SWAP6 DUP7 SWAP5 DUP6 SWAP4 PUSH4 0xA9059CBB PUSH1 0xE0 SHL DUP6 MSTORE DUP5 ADD PUSH1 0x20 SWAP1 SWAP4 SWAP3 SWAP2 SWAP4 PUSH1 0x40 DUP2 ADD SWAP5 PUSH1 0x1 DUP1 PUSH1 0xA0 SHL SUB AND DUP2 MSTORE ADD MSTORE JUMP JUMPDEST SUB SWAP3 GAS CALL SWAP1 DUP2 ISZERO PUSH2 0xD7C JUMPI PUSH32 0xC30FCFBCAAC9E0DEFFA719714EAA82396FF506A0D0D0EEBE170830177288715D SWAP5 SWAP6 SWAP2 PUSH2 0xD5D SWAP2 DUP9 SWAP2 PUSH2 0xD65 JUMPI POP PUSH2 0x1051 JUMP JUMPDEST MLOAD SWAP1 DUP2 MSTORE LOG2 DUP1 RETURN JUMPDEST PUSH2 0x5F6 SWAP2 POP DUP6 RETURNDATASIZE DUP8 GT PUSH2 0x5FC JUMPI PUSH2 0x5EE DUP2 DUP4 PUSH2 0x1017 JUMP JUMPDEST DUP6 MLOAD RETURNDATASIZE DUP9 DUP3 RETURNDATACOPY RETURNDATASIZE SWAP1 REVERT JUMPDEST DUP9 MLOAD PUSH3 0x461BCD PUSH1 0xE5 SHL DUP2 MSTORE DUP1 DUP7 ADD DUP9 SWAP1 MSTORE PUSH1 0x24 DUP1 DUP3 ADD MSTORE PUSH32 0x5661756C743A20696E73756666696369656E7420617661696C61626C65206D61 PUSH1 0x44 DUP3 ADD MSTORE PUSH4 0x3933B4B7 PUSH1 0xE1 SHL PUSH1 0x64 DUP3 ADD MSTORE PUSH1 0x84 SWAP1 REVERT JUMPDEST DUP9 MLOAD PUSH3 0x461BCD PUSH1 0xE5 SHL DUP2 MSTORE DUP1 DUP7 ADD DUP9 SWAP1 MSTORE PUSH1 0x1E PUSH1 0x24 DUP3 ADD MSTORE PUSH32 0x5661756C743A20696E73756666696369656E7420636F6C6C61746572616C0000 PUSH1 0x44 DUP3 ADD MSTORE PUSH1 0x64 SWAP1 REVERT JUMPDEST POP CALLER DUP8 MSTORE PUSH1 0x20 DUP3 SWAP1 MSTORE DUP6 DUP8 KECCAK256 SLOAD PUSH1 0xFF AND PUSH2 0xCA6 JUMP JUMPDEST SWAP2 POP POP CALLVALUE PUSH2 0x1BC JUMPI PUSH1 0x20 CALLDATASIZE PUSH1 0x3 NOT ADD SLT PUSH2 0x1BC JUMPI DUP3 DUP3 SWAP2 PUSH1 0x80 SWAP5 PUSH1 0x60 PUSH2 0xE51 PUSH2 0xEC9 JUMP JUMPDEST SWAP3 PUSH2 0xE5B DUP2 PUSH2 0xFE5 JUMP JUMPDEST DUP3 DUP2 MSTORE DUP3 PUSH1 0x20 DUP3 ADD MSTORE DUP3 DUP7 DUP3 ADD MSTORE ADD MSTORE PUSH1 0x1 DUP1 PUSH1 0xA0 SHL SUB AND DUP2 MSTORE PUSH1 0x3 PUSH1 0x20 MSTORE KECCAK256 SWAP1 DUP1 MLOAD SWAP1 PUSH2 0xE88 DUP3 PUSH2 0xFE5 JUMP JUMPDEST DUP3 SLOAD SWAP3 DUP4 DUP4 MSTORE PUSH1 0x1 DUP2 ADD SLOAD PUSH1 0x20 DUP5 ADD SWAP1 DUP2 MSTORE PUSH1 0x60 PUSH1 0x3 PUSH1 0x2 DUP5 ADD SLOAD SWAP4 DUP6 DUP8 ADD SWAP5 DUP6 MSTORE ADD SLOAD SWAP5 ADD SWAP4 DUP5 MSTORE DUP3 MLOAD SWAP5 DUP6 MSTORE MLOAD PUSH1 0x20 DUP6 ADD MSTORE MLOAD SWAP1 DUP4 ADD MSTORE MLOAD PUSH1 0x60 DUP3 ADD MSTORE RETURN JUMPDEST PUSH1 0x4 CALLDATALOAD SWAP1 PUSH1 0x1 PUSH1 0x1 PUSH1 0xA0 SHL SUB DUP3 AND DUP3 SUB PUSH2 0xEDF JUMPI JUMP JUMPDEST PUSH1 0x0 DUP1 REVERT JUMPDEST ISZERO PUSH2 0xEEB JUMPI JUMP JUMPDEST PUSH1 0x40 MLOAD PUSH3 0x461BCD PUSH1 0xE5 SHL DUP2 MSTORE PUSH1 0x20 PUSH1 0x4 DUP3 ADD MSTORE PUSH1 0x10 PUSH1 0x24 DUP3 ADD MSTORE PUSH16 0x2B30BAB63A1D103737BA1037BBB732B9 PUSH1 0x81 SHL PUSH1 0x44 DUP3 ADD MSTORE PUSH1 0x64 SWAP1 REVERT JUMPDEST ISZERO PUSH2 0xF2A JUMPI JUMP JUMPDEST PUSH1 0x40 MLOAD PUSH3 0x461BCD PUSH1 0xE5 SHL DUP2 MSTORE PUSH1 0x20 PUSH1 0x4 DUP3 ADD MSTORE PUSH1 0xD PUSH1 0x24 DUP3 ADD MSTORE PUSH13 0x15985D5B1D0E881C185D5CD959 PUSH1 0x9A SHL PUSH1 0x44 DUP3 ADD MSTORE PUSH1 0x64 SWAP1 REVERT JUMPDEST ISZERO PUSH2 0xF66 JUMPI JUMP JUMPDEST PUSH1 0x40 MLOAD PUSH3 0x461BCD PUSH1 0xE5 SHL DUP2 MSTORE PUSH1 0x20 PUSH1 0x4 DUP3 ADD MSTORE PUSH1 0x15 PUSH1 0x24 DUP3 ADD MSTORE PUSH21 0x15985D5B1D0E881A5B9D985B1A5908185B5BDD5B9D PUSH1 0x5A SHL PUSH1 0x44 DUP3 ADD MSTORE PUSH1 0x64 SWAP1 REVERT JUMPDEST ISZERO PUSH2 0xFAA JUMPI JUMP JUMPDEST PUSH1 0x40 MLOAD PUSH3 0x461BCD PUSH1 0xE5 SHL DUP2 MSTORE PUSH1 0x20 PUSH1 0x4 DUP3 ADD MSTORE PUSH1 0x13 PUSH1 0x24 DUP3 ADD MSTORE PUSH19 0x2B30BAB63A1D1034B73B30B634B2103AB9B2B9 PUSH1 0x69 SHL PUSH1 0x44 DUP3 ADD MSTORE PUSH1 0x64 SWAP1 REVERT JUMPDEST PUSH1 0x80 DUP2 ADD SWAP1 DUP2 LT PUSH8 0xFFFFFFFFFFFFFFFF DUP3 GT OR PUSH2 0x1001 JUMPI PUSH1 0x40 MSTORE JUMP JUMPDEST PUSH4 0x4E487B71 PUSH1 0xE0 SHL PUSH1 0x0 MSTORE PUSH1 0x41 PUSH1 0x4 MSTORE PUSH1 0x24 PUSH1 0x0 REVERT JUMPDEST SWAP1 PUSH1 0x1F DUP1 NOT SWAP2 ADD AND DUP2 ADD SWAP1 DUP2 LT PUSH8 0xFFFFFFFFFFFFFFFF DUP3 GT OR PUSH2 0x1001 JUMPI PUSH1 0x40 MSTORE JUMP JUMPDEST SWAP1 DUP2 PUSH1 0x20 SWAP2 SUB SLT PUSH2 0xEDF JUMPI MLOAD DUP1 ISZERO ISZERO DUP2 SUB PUSH2 0xEDF JUMPI SWAP1 JUMP JUMPDEST ISZERO PUSH2 0x1058 JUMPI JUMP JUMPDEST PUSH1 0x40 MLOAD PUSH3 0x461BCD PUSH1 0xE5 SHL DUP2 MSTORE PUSH1 0x20 PUSH1 0x4 DUP3 ADD MSTORE PUSH1 0x16 PUSH1 0x24 DUP3 ADD MSTORE PUSH22 0x15985D5B1D0E881D1C985B9CD9995C8819985A5B1959 PUSH1 0x52 SHL PUSH1 0x44 DUP3 ADD MSTORE PUSH1 0x64 SWAP1 REVERT JUMPDEST SWAP2 SWAP1 DUP3 ADD DUP1 SWAP3 GT PUSH2 0x10A3 JUMPI JUMP JUMPDEST PUSH4 0x4E487B71 PUSH1 0xE0 SHL PUSH1 0x0 MSTORE PUSH1 0x11 PUSH1 0x4 MSTORE PUSH1 0x24 PUSH1 0x0 REVERT JUMPDEST ISZERO PUSH2 0x10C0 JUMPI JUMP JUMPDEST PUSH1 0x40 MLOAD PUSH3 0x461BCD PUSH1 0xE5 SHL DUP2 MSTORE PUSH1 0x20 PUSH1 0x4 DUP3 ADD MSTORE PUSH1 0x15 PUSH1 0x24 DUP3 ADD MSTORE PUSH21 0x15985D5B1D0E881B9BDD08185D5D1A1BDC9A5E9959 PUSH1 0x5A SHL PUSH1 0x44 DUP3 ADD MSTORE PUSH1 0x64 SWAP1 REVERT JUMPDEST SWAP2 SWAP1 DUP3 SUB SWAP2 DUP3 GT PUSH2 0x10A3 JUMPI JUMP JUMPDEST SWAP2 SWAP1 SWAP2 PUSH1 0x0 DUP4 DUP3 ADD SWAP4 DUP5 SLT SWAP2 SLT SWAP1 DUP1 ISZERO DUP3 AND SWAP2 ISZERO AND OR PUSH2 0x10A3 JUMPI JUMP JUMPDEST PUSH1 0x1 PUSH1 0x1 PUSH1 0xA0 SHL SUB DUP2 AND PUSH1 0x0 SWAP1 DUP2 MSTORE PUSH1 0x3 PUSH1 0x20 MSTORE PUSH1 0x40 SWAP1 KECCAK256 SWAP1 PUSH2 0x1148 SWAP1 PUSH2 0x1171 JUMP JUMPDEST SWAP1 PUSH1 0x0 DUP3 SGT ISZERO PUSH2 0x116A JUMPI PUSH1 0x1 ADD SLOAD DUP1 DUP3 GT ISZERO PUSH2 0x116A JUMPI PUSH2 0x1167 SWAP2 PUSH2 0x10FD JUMP JUMPDEST SWAP1 JUMP JUMPDEST POP POP PUSH1 0x0 SWAP1 JUMP JUMPDEST PUSH1 0x1 PUSH1 0x1 PUSH1 0xA0 SHL SUB AND PUSH1 0x0 SWAP1 DUP2 MSTORE PUSH1 0x3 PUSH1 0x20 MSTORE PUSH1 0x40 SWAP1 KECCAK256 DUP1 SLOAD PUSH1 0x2 SWAP1 SWAP2 ADD SLOAD PUSH2 0x1167 SWAP2 PUSH2 0x110A JUMP JUMPDEST PUSH1 0x1 PUSH1 0x1 PUSH1 0xA0 SHL SUB DUP2 AND PUSH1 0x0 SWAP1 DUP2 MSTORE PUSH1 0x3 PUSH1 0x20 MSTORE PUSH1 0x40 DUP2 KECCAK256 PUSH1 0x1 ADD SLOAD SWAP2 DUP3 ISZERO PUSH2 0x1200 JUMPI PUSH2 0x11C5 SWAP1 PUSH2 0x1171 JUMP JUMPDEST SWAP3 DUP2 DUP5 SGT ISZERO PUSH2 0x11F7 JUMPI DUP1 DUP4 MUL SWAP3 DUP4 DIV SUB PUSH2 0x11E3 JUMPI POP PUSH2 0x2710 SWAP1 DIV GT SWAP1 JUMP JUMPDEST PUSH4 0x4E487B71 PUSH1 0xE0 SHL DUP2 MSTORE PUSH1 0x11 PUSH1 0x4 MSTORE PUSH1 0x24 SWAP1 REVERT JUMPDEST POP POP POP POP PUSH1 0x1 SWAP1 JUMP JUMPDEST POP SWAP2 POP POP SWAP1 JUMP INVALID LOG2 PUSH5 0x6970667358 0x22 SLT KECCAK256 0x25 SDIV XOR 0xE7 PUSH29 0x864C13C97BE4C084E3BF3E6D1EB5E1875E8924E7513FA1ADDC672C6473 PUSH16 0x6C634300081400336080346200016557 PUSH1 0x1F PUSH3 0x3EE5 CODESIZE DUP2 SWAP1 SUB SWAP2 DUP3 ADD PUSH1 0x1F NOT AND DUP4 ADD SWAP2 PUSH1 0x1 PUSH1 0x1 PUSH1 0x40 SHL SUB DUP4 GT DUP5 DUP5 LT OR PUSH3 0x16A JUMPI DUP1 DUP5 SWAP3 PUSH1 0x60 SWAP5 PUSH1 0x40 MSTORE DUP4 CODECOPY DUP2 ADD SUB SLT PUSH3 0x165 JUMPI PUSH3 0x4D DUP2 PUSH3 0x180 JUMP JUMPDEST SWAP1 PUSH1 0x40 PUSH3 0x5E PUSH1 0x20 DUP4 ADD PUSH3 0x180 JUMP JUMPDEST SWAP2 ADD MLOAD SWAP2 PUSH1 0x1E PUSH1 0x3 SSTORE PUSH2 0x1F4 DUP1 PUSH1 0x4 SSTORE PUSH1 0x5 SSTORE PUSH2 0x3E8 PUSH1 0x6 SSTORE PUSH8 0x14D1120D7B160000 PUSH1 0x8 SSTORE PUSH1 0xFF NOT PUSH1 0x18 SLOAD AND PUSH1 0x18 SSTORE PUSH1 0x1 DUP1 PUSH1 0xA0 SHL SUB NOT SWAP2 CALLER DUP4 PUSH1 0x0 SLOAD AND OR PUSH1 0x0 SSTORE PUSH1 0x1 DUP1 PUSH1 0xA0 SHL SUB DUP1 SWAP3 AND DUP4 PUSH1 0x1 SLOAD AND OR PUSH1 0x1 SSTORE AND SWAP1 PUSH1 0x2 SLOAD AND OR PUSH1 0x2 SSTORE PUSH1 0x7 SSTORE PUSH32 0x1551B5180CE27B1B0D183046BBF7F4ED792368FA907DCAA0E08D22C5E8B14512 PUSH1 0x60 PUSH3 0xED PUSH3 0x1E0 JUMP JUMPDEST PUSH3 0xF7 PUSH3 0x5DF JUMP JUMPDEST DUP1 ISZERO PUSH3 0x150 JUMPI PUSH8 0xDE0B6B3A7640000 PUSH3 0x118 DUP4 DUP4 JUMPDEST DUP1 PUSH1 0x9 SSTORE PUSH3 0x195 JUMP JUMPDEST DIV PUSH1 0xA SSTORE PUSH1 0x40 MLOAD SWAP2 DUP3 MSTORE PUSH1 0x20 DUP3 ADD MSTORE PUSH1 0x0 PUSH1 0x40 DUP3 ADD MSTORE LOG1 TIMESTAMP PUSH1 0xD SSTORE PUSH4 0x5F5E100 PUSH1 0xC SSTORE PUSH1 0x1 PUSH1 0x13 SSTORE PUSH1 0x40 MLOAD PUSH2 0x38F3 SWAP1 DUP2 PUSH3 0x5F2 DUP3 CODECOPY RETURN JUMPDEST PUSH8 0xDE0B6B3A7640000 PUSH3 0x118 DUP4 DUP3 PUSH3 0x10E JUMP JUMPDEST PUSH1 0x0 DUP1 REVERT JUMPDEST PUSH4 0x4E487B71 PUSH1 0xE0 SHL PUSH1 0x0 MSTORE PUSH1 0x41 PUSH1 0x4 MSTORE PUSH1 0x24 PUSH1 0x0 REVERT JUMPDEST MLOAD SWAP1 PUSH1 0x1 PUSH1 0x1 PUSH1 0xA0 SHL SUB DUP3 AND DUP3 SUB PUSH3 0x165 JUMPI JUMP JUMPDEST DUP2 DUP2 MUL SWAP3 SWAP2 DUP2 ISZERO SWAP2 DUP5 DIV EQ OR ISZERO PUSH3 0x1A9 JUMPI JUMP JUMPDEST PUSH4 0x4E487B71 PUSH1 0xE0 SHL PUSH1 0x0 MSTORE PUSH1 0x11 PUSH1 0x4 MSTORE PUSH1 0x24 PUSH1 0x0 REVERT JUMPDEST DUP2 ISZERO PUSH3 0x1CA JUMPI DIV SWAP1 JUMP JUMPDEST PUSH4 0x4E487B71 PUSH1 0xE0 SHL PUSH1 0x0 MSTORE PUSH1 0x12 PUSH1 0x4 MSTORE PUSH1 0x24 PUSH1 0x0 REVERT JUMPDEST PUSH3 0x1EA PUSH3 0x5DF JUMP JUMPDEST DUP1 ISZERO PUSH3 0x42B JUMPI PUSH8 0xDE0B6B3A7640000 SWAP1 DUP2 DUP2 MUL SWAP1 DUP1 DUP3 DIV DUP4 SUB PUSH3 0x1A9 JUMPI DUP3 PUSH3 0x216 DUP3 DUP5 PUSH3 0x1BF JUMP JUMPDEST SUB PUSH3 0x3E6 JUMPI PUSH15 0xC097CE7BC90715B34B9F1000000000 MUL SWAP1 DUP1 ISZERO DUP2 DUP4 DIV DUP5 EQ DUP2 OR ISZERO PUSH3 0x1A9 JUMPI DUP4 SWAP1 ISZERO SWAP2 DUP3 PUSH3 0x413 JUMPI JUMPDEST POP POP PUSH3 0x2DC JUMPI PUSH2 0x3E8 SWAP1 DIV DUP1 DUP3 ADD SWAP1 DUP3 DUP3 LT PUSH3 0x3E6 JUMPI PUSH1 0x8 SLOAD SWAP2 PUSH1 0x0 SWAP2 DUP2 PUSH3 0x312 JUMPI POP POP POP PUSH1 0x0 SWAP1 ISZERO PUSH1 0x0 EQ PUSH3 0x30C JUMPI POP DUP1 JUMPDEST SWAP1 JUMPDEST PUSH1 0x7 SLOAD PUSH2 0x2710 SWAP3 DUP4 DUP3 MUL SWAP4 DUP3 DUP6 DIV EQ DUP3 ISZERO OR ISZERO PUSH3 0x1A9 JUMPI PUSH3 0x2A4 SWAP2 PUSH3 0x4C1 JUMP JUMPDEST DUP2 DUP2 MUL SWAP1 DUP1 ISZERO DUP2 DUP4 DIV DUP5 EQ DUP2 OR ISZERO PUSH3 0x1A9 JUMPI DUP4 SWAP1 ISZERO SWAP2 DUP3 PUSH3 0x2F4 JUMPI JUMPDEST POP POP PUSH3 0x2DC JUMPI DIV DUP2 DUP2 GT ISZERO PUSH3 0x2D7 JUMPI POP SWAP1 JUMP JUMPDEST SWAP1 POP SWAP1 JUMP JUMPDEST PUSH1 0x24 SWAP1 PUSH1 0x40 MLOAD SWAP1 PUSH4 0x4302C0E3 PUSH1 0xE1 SHL DUP3 MSTORE PUSH1 0x4 DUP3 ADD MSTORE REVERT JUMPDEST PUSH3 0x302 SWAP2 SWAP3 POP DUP4 PUSH3 0x1BF JUMP JUMPDEST EQ ISZERO DUP3 CODESIZE PUSH3 0x2C2 JUMP JUMPDEST PUSH3 0x27F JUMP JUMPDEST DUP2 DUP2 GT PUSH3 0x3FF JUMPI PUSH8 0x1BC16D674EC80000 DUP2 ADD SWAP2 DUP3 LT PUSH3 0x3E6 JUMPI SWAP1 PUSH3 0x339 SWAP2 PUSH3 0x432 JUMP JUMPDEST PUSH3 0x345 DUP2 DUP1 PUSH3 0x4C1 JUMP JUMPDEST SWAP2 PUSH1 0x1 SWAP2 DUP1 SWAP4 DUP4 JUMPDEST PUSH1 0x5 DUP6 LT PUSH3 0x37C JUMPI POP POP POP POP POP PUSH3 0x375 SWAP2 PUSH3 0x36F SWAP2 PUSH1 0x1 SHL SWAP1 PUSH3 0x4C1 JUMP JUMPDEST PUSH3 0x519 JUMP JUMPDEST SWAP1 PUSH3 0x281 JUMP JUMPDEST SWAP1 SWAP2 SWAP3 SWAP4 SWAP5 PUSH1 0x2 DUP3 ADD DUP1 SWAP3 GT PUSH3 0x3D2 JUMPI PUSH3 0x3C0 PUSH3 0x3C7 SWAP2 PUSH3 0x3B9 PUSH3 0x3B2 PUSH3 0x3AB DUP8 DUP8 SWAP10 PUSH3 0x4C1 JUMP JUMPDEST SWAP6 PUSH3 0x5A0 JUMP JUMPDEST DUP6 PUSH3 0x432 JUMP JUMPDEST SWAP1 PUSH3 0x50B JUMP JUMPDEST SWAP6 PUSH3 0x4FB JUMP JUMPDEST SWAP4 SWAP3 SWAP2 SWAP1 SWAP2 PUSH3 0x34D JUMP JUMPDEST PUSH4 0x4E487B71 PUSH1 0xE0 SHL DUP6 MSTORE PUSH1 0x11 PUSH1 0x4 MSTORE PUSH1 0x24 DUP6 REVERT JUMPDEST PUSH1 0x40 MLOAD PUSH4 0x4302C0E3 PUSH1 0xE1 SHL DUP2 MSTORE PUSH1 0x4 DUP2 ADD DUP4 SWAP1 MSTORE PUSH1 0x24 SWAP1 REVERT JUMPDEST PUSH4 0x4E487B71 PUSH1 0xE0 SHL DUP4 MSTORE PUSH1 0x11 PUSH1 0x4 MSTORE PUSH1 0x24 DUP4 REVERT JUMPDEST PUSH3 0x421 SWAP2 SWAP3 POP DUP4 PUSH3 0x1BF JUMP JUMPDEST EQ ISZERO DUP3 CODESIZE PUSH3 0x248 JUMP JUMPDEST POP PUSH1 0x7 SLOAD SWAP1 JUMP JUMPDEST SWAP2 SWAP1 DUP1 ISZERO PUSH3 0x4A8 JUMPI PUSH8 0xDE0B6B3A7640000 SWAP3 DUP4 DUP2 MUL SWAP4 DUP2 ISZERO DUP3 DUP7 DIV DUP3 EQ DUP2 OR ISZERO PUSH3 0x1A9 JUMPI ISZERO SWAP2 DUP3 PUSH3 0x490 JUMPI JUMPDEST POP POP PUSH3 0x477 JUMPI PUSH3 0x474 SWAP2 SWAP3 PUSH3 0x1BF JUMP JUMPDEST SWAP1 JUMP JUMPDEST PUSH1 0x40 MLOAD PUSH4 0x4302C0E3 PUSH1 0xE1 SHL DUP2 MSTORE PUSH1 0x4 DUP2 ADD DUP5 SWAP1 MSTORE PUSH1 0x24 SWAP1 REVERT JUMPDEST PUSH3 0x49E SWAP2 SWAP3 POP DUP6 PUSH3 0x1BF JUMP JUMPDEST EQ ISZERO CODESIZE DUP1 PUSH3 0x461 JUMP JUMPDEST PUSH1 0x40 MLOAD PUSH4 0x4302C0E3 PUSH1 0xE1 SHL DUP2 MSTORE PUSH1 0x0 PUSH1 0x4 DUP3 ADD MSTORE PUSH1 0x24 SWAP1 REVERT JUMPDEST PUSH3 0x4CD DUP3 DUP3 PUSH3 0x195 JUMP JUMPDEST SWAP2 DUP2 ISZERO ISZERO SWAP2 DUP3 PUSH3 0x4E3 JUMPI JUMPDEST POP POP PUSH3 0x2DC JUMPI SWAP1 JUMP JUMPDEST PUSH3 0x4F1 SWAP2 SWAP3 POP DUP4 PUSH3 0x1BF JUMP JUMPDEST EQ ISZERO CODESIZE DUP1 PUSH3 0x4D9 JUMP JUMPDEST PUSH1 0x0 NOT DUP2 EQ PUSH3 0x1A9 JUMPI PUSH1 0x1 ADD SWAP1 JUMP JUMPDEST SWAP2 SWAP1 DUP3 ADD DUP1 SWAP3 GT PUSH3 0x1A9 JUMPI JUMP JUMPDEST SWAP1 PUSH9 0x755BF798B4A1BF1E5 DUP3 GT PUSH3 0x3E6 JUMPI DUP2 ISZERO PUSH3 0x593 JUMPI PUSH8 0xDE0B6B3A7640000 SWAP2 DUP1 PUSH1 0x2 SWAP2 JUMPDEST PUSH1 0xC DUP4 GT ISZERO PUSH3 0x550 JUMPI POP POP POP JUMP JUMPDEST PUSH3 0x585 PUSH3 0x57D PUSH3 0x56B DUP5 PUSH3 0x58C SWAP5 SWAP9 SWAP7 SWAP9 PUSH3 0x4C1 JUMP JUMPDEST PUSH3 0x576 DUP9 PUSH3 0x5A0 JUMP JUMPDEST SWAP1 PUSH3 0x432 JUMP JUMPDEST DUP1 SWAP5 PUSH3 0x50B JUMP JUMPDEST SWAP5 PUSH3 0x4FB JUMP JUMPDEST SWAP2 PUSH3 0x541 JUMP JUMPDEST PUSH8 0xDE0B6B3A7640000 SWAP2 POP JUMP JUMPDEST PUSH25 0x12725DD1D243ABA0E75FE645CC4873F9E65AFE688C928E1F21 DUP2 GT PUSH3 0x2DC JUMPI PUSH8 0xDE0B6B3A7640000 SWAP1 DUP2 DUP2 MUL SWAP2 DUP2 DUP4 DIV EQ SWAP1 ISZERO OR ISZERO PUSH3 0x1A9 JUMPI SWAP1 JUMP JUMPDEST PUSH1 0x15 SLOAD PUSH1 0x0 DUP1 DUP3 SGT ISZERO PUSH3 0x2D7 JUMPI POP SWAP1 JUMP INVALID PUSH1 0x80 PUSH1 0x40 DUP2 DUP2 MSTORE PUSH1 0x4 SWAP2 DUP3 CALLDATASIZE LT ISZERO PUSH2 0x16 JUMPI PUSH1 0x0 DUP1 REVERT JUMPDEST PUSH1 0x0 SWAP3 PUSH1 0xE0 DUP5 CALLDATALOAD DUP2 SHR SWAP3 DUP4 PUSH4 0x36AE354 EQ PUSH2 0x2952 JUMPI POP DUP3 PUSH4 0xF259013 EQ PUSH2 0x2931 JUMPI DUP3 PUSH4 0x135A9C81 EQ PUSH2 0x285B JUMPI DUP3 PUSH4 0x165CE8DB EQ PUSH2 0x2766 JUMPI DUP3 PUSH4 0x16C19739 EQ PUSH2 0x2736 JUMPI DUP3 PUSH4 0x1C88EF1E EQ PUSH2 0x26CE JUMPI DUP3 PUSH4 0x1EBF4EB5 EQ PUSH2 0x26B2 JUMPI DUP3 PUSH4 0x2A6BC2DD EQ PUSH2 0x2482 JUMPI DUP3 PUSH4 0x334EF729 EQ PUSH2 0x2462 JUMPI DUP3 PUSH4 0x34C1557D EQ PUSH2 0x2445 JUMPI DUP3 PUSH4 0x3F4BA83A EQ PUSH2 0x23EF JUMPI DUP3 PUSH4 0x415F1240 EQ PUSH2 0x21AA JUMPI DUP3 PUSH4 0x485D7D94 EQ PUSH2 0x213A JUMPI DUP3 PUSH4 0x49A65938 EQ PUSH2 0x211A JUMPI DUP3 PUSH4 0x4AE13FA3 EQ PUSH2 0x203E JUMPI DUP3 PUSH4 0x53906A0F EQ PUSH2 0x1F73 JUMPI DUP3 PUSH4 0x544305BF EQ PUSH2 0x1EE1 JUMPI DUP3 PUSH4 0x55EFB287 EQ PUSH2 0x1EC3 JUMPI DUP3 PUSH4 0x5AF5BFD6 EQ PUSH2 0x1E39 JUMPI DUP3 PUSH4 0x5BF804AF EQ PUSH2 0x1E19 JUMPI DUP3 PUSH4 0x5C975ABB EQ PUSH2 0x1DF4 JUMPI DUP3 PUSH4 0x5EF54F36 EQ PUSH2 0x1B77 JUMPI DUP3 PUSH4 0x5FB3B1B5 EQ PUSH2 0x1B58 JUMPI DUP3 PUSH4 0x60409632 EQ PUSH2 0x1B3A JUMPI DUP3 PUSH4 0x68288678 EQ PUSH2 0x1996 JUMPI DUP3 PUSH4 0x6E33531B EQ PUSH2 0x1600 JUMPI DUP3 PUSH4 0x7199344F EQ PUSH2 0x15E2 JUMPI DUP3 PUSH4 0x7A6841C3 EQ PUSH2 0xB22 JUMPI DUP3 PUSH4 0x7B6EB9B6 EQ PUSH2 0x158B JUMPI DUP3 PUSH4 0x7DC0D1D0 EQ PUSH2 0x1561 JUMPI DUP3 PUSH4 0x7E6A6F67 EQ PUSH2 0x1424 JUMPI DUP3 PUSH4 0x83A4098A EQ PUSH2 0x1405 JUMPI DUP3 PUSH4 0x83ACB48A EQ PUSH2 0x13E5 JUMPI DUP3 PUSH4 0x8456CB59 EQ PUSH2 0x138C JUMPI DUP3 PUSH4 0x8DA5CB5B EQ PUSH2 0x1363 JUMPI DUP3 PUSH4 0x8FBD0C2D EQ PUSH2 0x11BA JUMPI DUP3 PUSH4 0x95082D25 EQ PUSH2 0x1196 JUMPI DUP3 PUSH4 0x95196F7E EQ PUSH2 0x1176 JUMPI DUP3 PUSH4 0x98F89B2F EQ PUSH2 0x1156 JUMPI DUP3 PUSH4 0x99FBAB88 EQ PUSH2 0x10E4 JUMPI DUP3 PUSH4 0x9B45EC97 EQ PUSH2 0x10C7 JUMPI DUP3 PUSH4 0xA0640C83 EQ PUSH2 0x10A7 JUMPI DUP3 PUSH4 0xAC0815AC EQ PUSH2 0xF9B JUMPI DUP3 PUSH4 0xAE43509A EQ PUSH2 0xF7B JUMPI DUP3 PUSH4 0xB25CDCCF EQ PUSH2 0xF41 JUMPI DUP3 PUSH4 0xB3060D36 EQ PUSH2 0xF0D JUMPI DUP3 PUSH4 0xB31D659E EQ PUSH2 0xE44 JUMPI DUP3 PUSH4 0xB9181611 EQ PUSH2 0xE05 JUMPI DUP3 PUSH4 0xBF6268F2 EQ PUSH2 0xDE5 JUMPI DUP3 PUSH4 0xC4E41B22 EQ PUSH2 0xDC7 JUMPI DUP3 PUSH4 0xCF1C316A EQ PUSH2 0xD13 JUMPI DUP3 PUSH4 0xCFFAB08D EQ PUSH2 0xBB7 JUMPI DUP3 PUSH4 0xD2E7B978 EQ PUSH2 0xB87 JUMPI DUP3 PUSH4 0xD6FBF202 EQ PUSH2 0xB67 JUMPI DUP3 PUSH4 0xD97E25BC EQ PUSH2 0xB47 JUMPI DUP3 PUSH4 0xE01DF1A8 EQ PUSH2 0xB27 JUMPI DUP3 PUSH4 0xE1F1C4A7 EQ PUSH2 0xB22 JUMPI DUP3 PUSH4 0xEAF1F1E6 EQ PUSH2 0x7F9 JUMPI DUP3 PUSH4 0xEB02C301 EQ PUSH2 0x771 JUMPI POP DUP2 PUSH4 0xEDDF7570 EQ PUSH2 0x5D8 JUMPI DUP2 PUSH4 0xEDF1A21F EQ PUSH2 0x55E JUMPI DUP2 PUSH4 0xEEB07069 EQ PUSH2 0x4B0 JUMPI DUP2 PUSH4 0xEFC339C8 EQ PUSH2 0x434 JUMPI DUP2 PUSH4 0xF257B32E EQ PUSH2 0x415 JUMPI DUP2 PUSH4 0xF2FDE38B EQ PUSH2 0x389 JUMPI POP DUP1 PUSH4 0xF40F2A79 EQ PUSH2 0x36C JUMPI DUP1 PUSH4 0xFBFA77CF EQ PUSH2 0x344 JUMPI PUSH4 0xFFE777BD EQ PUSH2 0x313 JUMPI PUSH1 0x0 DUP1 REVERT JUMPDEST CALLVALUE PUSH2 0x340 JUMPI DUP2 PUSH1 0x3 NOT CALLDATASIZE ADD SLT PUSH2 0x340 JUMPI DUP1 PUSH1 0x0 PUSH1 0x80 SWAP3 MLOAD SWAP2 DUP2 DUP4 MSTORE DUP2 PUSH1 0x20 DUP5 ADD MSTORE DUP3 ADD MSTORE PUSH1 0x0 PUSH1 0x60 DUP3 ADD MSTORE RETURN JUMPDEST POP DUP1 REVERT JUMPDEST POP CALLVALUE PUSH2 0x340 JUMPI DUP2 PUSH1 0x3 NOT CALLDATASIZE ADD SLT PUSH2 0x340 JUMPI PUSH1 0x1 SLOAD SWAP1 MLOAD PUSH1 0x1 PUSH1 0x1 PUSH1 0xA0 SHL SUB SWAP1 SWAP2 AND DUP2 MSTORE PUSH1 0x20 SWAP1 RETURN JUMPDEST POP CALLVALUE PUSH2 0x340 JUMPI DUP2 PUSH1 0x3 NOT CALLDATASIZE ADD SLT PUSH2 0x340 JUMPI PUSH1 0x20 SWAP1 MLOAD PUSH3 0xF4240 DUP2 MSTORE RETURN JUMPDEST SWAP1 POP CALLVALUE PUSH2 0x411 JUMPI PUSH1 0x20 CALLDATASIZE PUSH1 0x3 NOT ADD SLT PUSH2 0x411 JUMPI PUSH2 0x3A4 PUSH2 0x2986 JUMP JUMPDEST DUP4 SLOAD SWAP2 SWAP1 PUSH1 0x1 PUSH1 0x1 PUSH1 0xA0 SHL SUB SWAP1 PUSH2 0x3BE CALLER DUP4 DUP7 AND EQ PUSH2 0x2F9B JUMP JUMPDEST AND SWAP3 DUP4 ISZERO PUSH2 0x3D8 JUMPI POP POP PUSH1 0x1 PUSH1 0x1 PUSH1 0xA0 SHL SUB NOT AND OR DUP2 SSTORE DUP1 RETURN JUMPDEST SWAP1 PUSH1 0x20 PUSH1 0x64 SWAP3 MLOAD SWAP2 PUSH3 0x461BCD PUSH1 0xE5 SHL DUP4 MSTORE DUP3 ADD MSTORE PUSH1 0x13 PUSH1 0x24 DUP3 ADD MSTORE PUSH19 0x3B20A6A69D1034B73B30B634B21037BBB732B9 PUSH1 0x69 SHL PUSH1 0x44 DUP3 ADD MSTORE REVERT JUMPDEST DUP3 DUP1 REVERT JUMPDEST POP POP CALLVALUE PUSH2 0x340 JUMPI DUP2 PUSH1 0x3 NOT CALLDATASIZE ADD SLT PUSH2 0x340 JUMPI PUSH1 0x20 SWAP1 PUSH1 0x13 SLOAD SWAP1 MLOAD SWAP1 DUP2 MSTORE RETURN JUMPDEST DUP3 DUP5 CALLVALUE PUSH2 0x4AD JUMPI DUP1 PUSH1 0x3 NOT CALLDATASIZE ADD SLT PUSH2 0x4AD JUMPI PUSH2 0x44E PUSH2 0x2A7A JUMP JUMPDEST SWAP2 PUSH1 0x7 SLOAD SWAP1 PUSH2 0x45B PUSH2 0x2EEF JUMP JUMPDEST SWAP1 PUSH1 0x8 SLOAD SWAP3 PUSH2 0x2710 SWAP5 DUP6 DUP3 MUL SWAP6 DUP3 DUP8 DIV EQ DUP3 ISZERO OR ISZERO PUSH2 0x49A JUMPI POP PUSH1 0xC0 SWAP7 POP DUP2 MLOAD SWAP6 DUP7 MSTORE PUSH1 0x20 DUP7 ADD MSTORE DUP5 ADD MSTORE PUSH2 0x3E8 PUSH1 0x60 DUP5 ADD MSTORE PUSH1 0x80 DUP4 ADD MSTORE PUSH1 0xA0 DUP3 ADD MSTORE RETURN JUMPDEST PUSH4 0x4E487B71 PUSH1 0xE0 SHL DUP2 MSTORE PUSH1 0x11 DUP9 MSTORE PUSH1 0x24 SWAP1 REVERT JUMPDEST DUP1 REVERT JUMPDEST SWAP1 POP CALLVALUE PUSH2 0x411 JUMPI PUSH1 0x20 CALLDATASIZE PUSH1 0x3 NOT ADD SLT PUSH2 0x411 JUMPI DUP1 CALLDATALOAD SWAP1 PUSH2 0x4DA PUSH1 0x1 DUP1 PUSH1 0xA0 SHL SUB DUP6 SLOAD AND CALLER EQ PUSH2 0x2F9B JUMP JUMPDEST PUSH2 0x3E8 DUP3 GT PUSH2 0x526 JUMPI POP PUSH1 0x0 DUP1 MLOAD PUSH1 0x20 PUSH2 0x389E DUP4 CODECOPY DUP2 MLOAD SWAP2 MSTORE SWAP2 DUP2 PUSH1 0x80 SWAP3 PUSH1 0x3 SSTORE PUSH1 0xE DUP3 MLOAD SWAP3 DUP1 DUP5 MSTORE DUP4 ADD MSTORE PUSH14 0x74726164696E6746656552617465 PUSH1 0x90 SHL PUSH1 0x60 DUP4 ADD MSTORE PUSH1 0x20 DUP3 ADD MSTORE LOG1 DUP1 RETURN JUMPDEST PUSH1 0x64 SWAP1 PUSH1 0x20 DUP5 MLOAD SWAP2 PUSH3 0x461BCD PUSH1 0xE5 SHL DUP4 MSTORE DUP3 ADD MSTORE PUSH1 0x12 PUSH1 0x24 DUP3 ADD MSTORE PUSH18 0xEC829A9A7440CCCACA40E8DEDE40D0D2CED PUSH1 0x73 SHL PUSH1 0x44 DUP3 ADD MSTORE REVERT JUMPDEST POP POP CALLVALUE PUSH2 0x340 JUMPI DUP2 PUSH1 0x3 NOT CALLDATASIZE ADD SLT PUSH2 0x340 JUMPI PUSH1 0x80 SWAP2 PUSH1 0x60 DUP3 MLOAD PUSH2 0x580 DUP2 PUSH2 0x30A6 JUMP JUMPDEST DUP3 DUP2 MSTORE DUP3 PUSH1 0x20 DUP3 ADD MSTORE DUP3 DUP5 DUP3 ADD MSTORE ADD MSTORE DUP1 MLOAD PUSH2 0x59B DUP2 PUSH2 0x30A6 JUMP JUMPDEST PUSH1 0xB SLOAD SWAP2 DUP3 DUP3 MSTORE PUSH1 0xC SLOAD PUSH1 0x20 DUP4 ADD SWAP1 DUP2 MSTORE PUSH1 0xD SLOAD SWAP1 DUP3 DUP5 ADD SWAP2 DUP3 MSTORE PUSH1 0x60 PUSH1 0xE SLOAD SWAP5 ADD SWAP4 DUP5 MSTORE DUP3 MLOAD SWAP5 DUP6 MSTORE MLOAD PUSH1 0x20 DUP6 ADD MSTORE MLOAD SWAP1 DUP4 ADD MSTORE MLOAD PUSH1 0x60 DUP3 ADD MSTORE RETURN JUMPDEST DUP3 DUP5 CALLVALUE PUSH2 0x4AD JUMPI PUSH1 0x20 DUP1 PUSH1 0x3 NOT CALLDATASIZE ADD SLT PUSH2 0x340 JUMPI PUSH1 0x1 PUSH1 0x1 PUSH1 0xA0 SHL SUB PUSH2 0x5FC PUSH2 0x2986 JUMP JUMPDEST AND DUP3 MSTORE PUSH1 0x10 DUP2 MSTORE DUP3 DUP3 KECCAK256 SWAP2 DUP4 MLOAD DUP1 DUP5 DUP5 DUP3 SWAP7 SLOAD SWAP4 DUP5 DUP2 MSTORE ADD SWAP1 DUP5 MSTORE DUP5 DUP5 KECCAK256 SWAP3 DUP5 JUMPDEST DUP7 DUP3 DUP3 LT PUSH2 0x75B JUMPI POP POP POP PUSH2 0x634 SWAP3 POP SUB DUP5 PUSH2 0x30C2 JUMP JUMPDEST DUP1 SWAP2 DUP2 JUMPDEST DUP5 MLOAD DUP2 LT ISZERO PUSH2 0x684 JUMPI PUSH2 0x64B DUP2 DUP7 PUSH2 0x3589 JUMP JUMPDEST MLOAD DUP4 MSTORE PUSH1 0xF DUP3 MSTORE PUSH1 0xFF PUSH1 0x6 DUP8 DUP6 KECCAK256 ADD SLOAD AND PUSH2 0x66F JUMPI JUMPDEST PUSH2 0x66A SWAP1 PUSH2 0x2E16 JUMP JUMPDEST PUSH2 0x638 JUMP JUMPDEST SWAP3 PUSH2 0x67C PUSH2 0x66A SWAP2 PUSH2 0x2E16 JUMP JUMPDEST SWAP4 SWAP1 POP PUSH2 0x661 JUMP JUMPDEST POP SWAP2 DUP4 DUP6 PUSH2 0x6A9 PUSH2 0x694 DUP5 PUSH2 0x359D JUMP JUMPDEST SWAP4 PUSH2 0x6A1 DUP4 MLOAD SWAP6 DUP7 PUSH2 0x30C2 JUMP JUMPDEST DUP1 DUP6 MSTORE PUSH2 0x359D JUMP JUMPDEST DUP4 DUP7 ADD SWAP5 SWAP1 PUSH1 0x1F NOT ADD CALLDATASIZE DUP7 CALLDATACOPY DUP1 SWAP6 DUP2 JUMPDEST DUP5 MLOAD DUP2 LT ISZERO PUSH2 0x71B JUMPI PUSH2 0x6CC DUP2 DUP7 PUSH2 0x3589 JUMP JUMPDEST MLOAD DUP4 MSTORE PUSH1 0xF DUP3 MSTORE PUSH1 0xFF PUSH1 0x6 DUP6 DUP6 KECCAK256 ADD SLOAD AND PUSH2 0x6F0 JUMPI JUMPDEST PUSH2 0x6EB SWAP1 PUSH2 0x2E16 JUMP JUMPDEST PUSH2 0x6B9 JUMP JUMPDEST SWAP7 PUSH2 0x713 PUSH2 0x6EB SWAP2 PUSH2 0x702 DUP11 DUP9 PUSH2 0x3589 JUMP JUMPDEST MLOAD PUSH2 0x70D DUP3 DUP11 PUSH2 0x3589 JUMP JUMPDEST MSTORE PUSH2 0x2E16 JUMP JUMPDEST SWAP8 SWAP1 POP PUSH2 0x6E2 JUMP JUMPDEST POP DUP3 MLOAD DUP2 DUP2 MSTORE DUP6 MLOAD DUP2 DUP4 ADD DUP2 SWAP1 MSTORE SWAP1 SWAP4 DUP5 SWAP4 SWAP1 DUP5 ADD SWAP3 DUP9 SWAP3 SWAP2 JUMPDEST DUP3 DUP2 LT PUSH2 0x744 JUMPI POP POP POP POP SUB SWAP1 RETURN JUMPDEST DUP4 MLOAD DUP6 MSTORE DUP7 SWAP6 POP SWAP4 DUP2 ADD SWAP4 SWAP3 DUP2 ADD SWAP3 PUSH1 0x1 ADD PUSH2 0x735 JUMP JUMPDEST DUP6 SLOAD DUP5 MSTORE PUSH1 0x1 SWAP6 DUP7 ADD SWAP6 DUP10 SWAP6 POP SWAP4 ADD SWAP3 ADD PUSH2 0x61D JUMP JUMPDEST SWAP1 DUP4 DUP6 CALLVALUE PUSH2 0x4AD JUMPI PUSH1 0x20 CALLDATASIZE PUSH1 0x3 NOT ADD SLT PUSH2 0x4AD JUMPI SWAP1 PUSH1 0xFF PUSH1 0x6 DUP3 PUSH2 0x7F7 SWAP5 PUSH2 0x797 PUSH2 0x3505 JUMP JUMPDEST POP DUP7 CALLDATALOAD DUP2 MSTORE PUSH1 0xF PUSH1 0x20 MSTORE KECCAK256 DUP4 MLOAD SWAP6 PUSH2 0x7AE DUP8 PUSH2 0x3060 JUMP JUMPDEST DUP2 SLOAD DUP8 MSTORE PUSH1 0x1 DUP3 ADD SLOAD PUSH1 0x20 DUP9 ADD MSTORE DUP4 PUSH1 0x2 DUP4 ADD SLOAD AND ISZERO ISZERO DUP6 DUP9 ADD MSTORE PUSH1 0x3 DUP3 ADD SLOAD PUSH1 0x60 DUP9 ADD MSTORE DUP2 ADD SLOAD PUSH1 0x80 DUP8 ADD MSTORE PUSH1 0x5 DUP2 ADD SLOAD PUSH1 0xA0 DUP8 ADD MSTORE ADD SLOAD AND ISZERO ISZERO PUSH1 0xC0 DUP5 ADD MSTORE MLOAD DUP1 SWAP3 PUSH2 0x29B2 JUMP JUMPDEST RETURN JUMPDEST DUP5 DUP3 DUP6 CALLVALUE PUSH2 0x411 JUMPI PUSH1 0xA0 CALLDATASIZE PUSH1 0x3 NOT ADD SLT PUSH2 0x411 JUMPI DUP2 CALLDATALOAD PUSH2 0x817 PUSH2 0x29F7 JUMP JUMPDEST PUSH1 0x44 CALLDATALOAD PUSH2 0x829 PUSH1 0xFF PUSH1 0x18 SLOAD AND ISZERO PUSH2 0x2FD9 JUMP JUMPDEST PUSH2 0x834 DUP4 ISZERO ISZERO PUSH2 0x3637 JUMP JUMPDEST PUSH1 0x1 DUP2 LT ISZERO DUP1 PUSH2 0xB17 JUMPI JUMPDEST PUSH2 0x848 SWAP1 PUSH2 0x3683 JUMP JUMPDEST PUSH2 0x850 PUSH2 0x326B JUMP JUMPDEST PUSH2 0x85A DUP2 DUP5 PUSH2 0x2A51 JUMP JUMPDEST PUSH2 0x862 PUSH2 0x2A7A JUMP JUMPDEST SWAP2 PUSH1 0x64 CALLDATALOAD DUP4 LT ISZERO DUP1 PUSH2 0xB0B JUMPI JUMPDEST PUSH2 0x878 SWAP1 PUSH2 0x36C8 JUMP JUMPDEST DUP8 PUSH5 0xE8D4A51000 PUSH2 0x899 PUSH2 0x2710 PUSH2 0x891 PUSH1 0x3 SLOAD DUP8 PUSH2 0x2A51 JUMP JUMPDEST DIV DUP1 SWAP9 PUSH2 0x2E25 JUMP JUMPDEST PUSH1 0x1 SLOAD SWAP2 SWAP1 DIV SWAP1 PUSH1 0x1 PUSH1 0x1 PUSH1 0xA0 SHL SUB AND DUP1 EXTCODESIZE ISZERO PUSH2 0x411 JUMPI DUP9 MLOAD PUSH4 0xEAD3E99 PUSH1 0xE3 SHL DUP2 MSTORE CALLER DUP2 DUP13 ADD SWAP1 DUP2 MSTORE PUSH1 0x20 DUP2 ADD SWAP4 SWAP1 SWAP4 MSTORE SWAP2 DUP4 SWAP2 DUP4 SWAP2 DUP3 SWAP1 DUP5 SWAP1 DUP3 SWAP1 PUSH1 0x40 ADD SUB SWAP3 GAS CALL DUP1 ISZERO PUSH2 0xB01 JUMPI PUSH2 0xAE9 JUMPI JUMPDEST POP POP PUSH1 0x13 SLOAD SWAP7 PUSH2 0x8F7 DUP9 PUSH2 0x2E16 JUMP JUMPDEST PUSH1 0x13 SSTORE DUP5 ISZERO PUSH2 0xAD5 JUMPI PUSH2 0x90C DUP4 PUSH1 0x15 SLOAD PUSH2 0x324F JUMP JUMPDEST PUSH1 0x15 SSTORE JUMPDEST PUSH2 0x918 PUSH2 0x30FD JUMP JUMPDEST PUSH1 0xC SLOAD SWAP9 DUP8 MLOAD PUSH2 0x927 DUP2 PUSH2 0x3060 JUMP JUMPDEST DUP10 DUP2 MSTORE DUP10 PUSH1 0x20 DUP1 SWAP13 DUP12 DUP3 DUP6 ADD DUP10 DUP2 MSTORE DUP2 DUP7 ADD SWAP1 DUP13 ISZERO ISZERO DUP3 MSTORE PUSH1 0x60 DUP8 ADD SWAP3 DUP13 DUP5 MSTORE PUSH1 0x80 DUP9 ADD SWAP5 DUP6 MSTORE PUSH1 0xA0 DUP9 ADD SWAP6 TIMESTAMP DUP8 MSTORE PUSH1 0xC0 DUP10 ADD SWAP8 PUSH1 0x1 DUP10 MSTORE DUP11 MSTORE PUSH1 0xF SWAP1 MSTORE DUP9 KECCAK256 SWAP7 MLOAD DUP8 SSTORE MLOAD PUSH1 0x1 DUP8 ADD SSTORE MLOAD ISZERO ISZERO PUSH1 0x2 DUP7 ADD SWAP1 PUSH2 0x98E SWAP2 SWAP1 PUSH1 0xFF DUP1 NOT DUP4 SLOAD AND SWAP2 ISZERO ISZERO AND OR SWAP1 SSTORE JUMP JUMPDEST MLOAD PUSH1 0x3 DUP6 ADD SSTORE MLOAD DUP6 DUP5 ADD SSTORE MLOAD PUSH1 0x5 DUP4 ADD SSTORE MLOAD ISZERO ISZERO SWAP1 PUSH1 0x6 ADD SWAP1 PUSH2 0x9BC SWAP2 SWAP1 PUSH1 0xFF DUP1 NOT DUP4 SLOAD AND SWAP2 ISZERO ISZERO AND OR SWAP1 SSTORE JUMP JUMPDEST PUSH1 0x11 DUP11 MSTORE DUP8 DUP2 KECCAK256 CALLER PUSH12 0xFFFFFFFFFFFFFFFFFFFFFFFF PUSH1 0xA0 SHL DUP3 SLOAD AND OR SWAP1 SSTORE CALLER DUP2 MSTORE PUSH1 0x10 DUP11 MSTORE DUP8 DUP2 KECCAK256 SWAP1 DUP2 SLOAD SWAP3 PUSH9 0x10000000000000000 DUP5 LT ISZERO PUSH2 0xAC2 JUMPI POP POP DUP7 DUP10 SWAP7 SWAP6 SWAP4 PUSH2 0xA52 DUP9 PUSH2 0xA39 DUP7 PUSH2 0xA8F SWAP7 PUSH1 0x1 PUSH32 0x345A1E15BFF227BFD5051975D95C864C45CF9FE79DEF6F9CE1C1525B0E831226 SWAP12 SWAP10 ADD DUP2 SSTORE PUSH2 0x2A23 JUMP JUMPDEST SWAP1 SWAP2 SWAP1 DUP3 SLOAD SWAP1 PUSH1 0x3 SHL SWAP2 DUP3 SHL SWAP2 PUSH1 0x0 NOT SWAP1 SHL NOT AND OR SWAP1 SSTORE JUMP JUMPDEST PUSH2 0xA5E DUP3 PUSH1 0x17 SLOAD PUSH2 0x2E25 JUMP JUMPDEST PUSH1 0x17 SSTORE DUP10 MLOAD SWAP5 DUP6 SWAP5 CALLER SWAP9 DUP7 SWAP2 SWAP3 PUSH1 0x80 SWAP4 SWAP7 SWAP6 SWAP5 SWAP2 SWAP7 PUSH1 0xA0 DUP5 ADD SWAP8 ISZERO ISZERO DUP5 MSTORE PUSH1 0x20 DUP5 ADD MSTORE PUSH1 0x40 DUP4 ADD MSTORE PUSH1 0x60 DUP3 ADD MSTORE ADD MSTORE JUMP JUMPDEST SUB SWAP1 LOG3 DUP2 MLOAD SWAP1 DUP2 MSTORE PUSH32 0x4B85F139405492FB78333512610BA07ED1E0C3FB2417F208A9AAE27DC3843E6A DUP5 CALLER SWAP3 LOG2 MLOAD SWAP1 DUP2 MSTORE RETURN JUMPDEST PUSH4 0x4E487B71 PUSH1 0xE0 SHL DUP3 MSTORE PUSH1 0x41 SWAP1 MSTORE PUSH1 0x24 SWAP1 REVERT JUMPDEST PUSH2 0xAE1 DUP4 PUSH1 0x16 SLOAD PUSH2 0x324F JUMP JUMPDEST PUSH1 0x16 SSTORE PUSH2 0x910 JUMP JUMPDEST PUSH2 0xAF2 SWAP1 PUSH2 0x3092 JUMP JUMPDEST PUSH2 0xAFD JUMPI DUP8 DUP10 PUSH2 0x8E8 JUMP JUMPDEST DUP8 DUP1 REVERT JUMPDEST DUP9 MLOAD RETURNDATASIZE DUP5 DUP3 RETURNDATACOPY RETURNDATASIZE SWAP1 REVERT JUMPDEST POP PUSH1 0x84 CALLDATALOAD DUP4 GT ISZERO PUSH2 0x86F JUMP JUMPDEST POP PUSH1 0x64 DUP2 GT ISZERO PUSH2 0x83F JUMP JUMPDEST PUSH2 0x2A06 JUMP JUMPDEST POP POP POP CALLVALUE PUSH2 0x340 JUMPI DUP2 PUSH1 0x3 NOT CALLDATASIZE ADD SLT PUSH2 0x340 JUMPI PUSH1 0x20 SWAP1 PUSH1 0x3 SLOAD SWAP1 MLOAD SWAP1 DUP2 MSTORE RETURN JUMPDEST POP POP POP CALLVALUE PUSH2 0x340 JUMPI DUP2 PUSH1 0x3 NOT CALLDATASIZE ADD SLT PUSH2 0x340 JUMPI PUSH1 0x20 SWAP1 PUSH1 0x6 SLOAD SWAP1 MLOAD SWAP1 DUP2 MSTORE RETURN JUMPDEST POP POP POP CALLVALUE PUSH2 0x340 JUMPI DUP2 PUSH1 0x3 NOT CALLDATASIZE ADD SLT PUSH2 0x340 JUMPI PUSH1 0x20 SWAP1 PUSH1 0x7 SLOAD SWAP1 MLOAD SWAP1 DUP2 MSTORE RETURN JUMPDEST POP DUP3 DUP5 CALLVALUE PUSH2 0x4AD JUMPI DUP2 PUSH1 0x3 NOT CALLDATASIZE ADD SLT PUSH2 0x4AD JUMPI POP PUSH2 0xBB0 PUSH1 0x20 SWAP3 PUSH2 0xBA9 PUSH2 0x29F7 JUMP JUMPDEST SWAP1 CALLDATALOAD PUSH2 0x2F00 JUMP JUMPDEST SWAP1 MLOAD SWAP1 DUP2 MSTORE RETURN JUMPDEST POP SWAP1 POP CALLVALUE PUSH2 0x411 JUMPI PUSH1 0x60 CALLDATASIZE PUSH1 0x3 NOT ADD SLT PUSH2 0x411 JUMPI DUP1 CALLDATALOAD SWAP1 PUSH1 0x24 CALLDATALOAD PUSH2 0xBE5 PUSH1 0x1 DUP1 PUSH1 0xA0 SHL SUB DUP7 SLOAD AND CALLER EQ PUSH2 0x2F9B JUMP JUMPDEST DUP3 ISZERO PUSH2 0xCC6 JUMPI DUP1 ISZERO PUSH2 0xC83 JUMPI PUSH1 0x44 CALLDATALOAD GT ISZERO PUSH2 0xC40 JUMPI POP DUP2 PUSH1 0x80 SWAP2 PUSH1 0x15 PUSH1 0x0 DUP1 MLOAD PUSH1 0x20 PUSH2 0x389E DUP4 CODECOPY DUP2 MLOAD SWAP2 MSTORE SWAP5 MLOAD SWAP3 DUP1 DUP5 MSTORE DUP4 ADD MSTORE PUSH21 0x64796E616D69635265736572766573506172616D73 PUSH1 0x58 SHL PUSH1 0x60 DUP4 ADD MSTORE PUSH1 0x20 DUP3 ADD MSTORE LOG1 DUP1 RETURN JUMPDEST PUSH1 0x64 SWAP1 PUSH1 0x20 DUP5 MLOAD SWAP2 PUSH3 0x461BCD PUSH1 0xE5 SHL DUP4 MSTORE DUP3 ADD MSTORE PUSH1 0x1C PUSH1 0x24 DUP3 ADD MSTORE PUSH32 0x76414D4D3A20696E76616C6964206D6178206D756C7469706C69657200000000 PUSH1 0x44 DUP3 ADD MSTORE REVERT JUMPDEST DUP4 MLOAD PUSH3 0x461BCD PUSH1 0xE5 SHL DUP2 MSTORE PUSH1 0x20 DUP2 DUP5 ADD MSTORE PUSH1 0x1C PUSH1 0x24 DUP3 ADD MSTORE PUSH32 0x76414D4D3A20696E76616C6964206D696E206D756C7469706C69657200000000 PUSH1 0x44 DUP3 ADD MSTORE PUSH1 0x64 SWAP1 REVERT JUMPDEST DUP4 MLOAD PUSH3 0x461BCD PUSH1 0xE5 SHL DUP2 MSTORE PUSH1 0x20 DUP2 DUP5 ADD MSTORE PUSH1 0x21 PUSH1 0x24 DUP3 ADD MSTORE PUSH32 0x76414D4D3A20696E76616C696420766F6C756D65207363616C6520666163746F PUSH1 0x44 DUP3 ADD MSTORE PUSH1 0x39 PUSH1 0xF9 SHL PUSH1 0x64 DUP3 ADD MSTORE PUSH1 0x84 SWAP1 REVERT JUMPDEST DUP5 DUP3 DUP6 CALLVALUE PUSH2 0x411 JUMPI PUSH1 0x20 CALLDATASIZE PUSH1 0x3 NOT ADD SLT PUSH2 0x411 JUMPI PUSH2 0xD2F PUSH2 0x2986 JUMP JUMPDEST DUP4 SLOAD PUSH1 0x1 PUSH1 0x1 PUSH1 0xA0 SHL SUB SWAP2 SWAP1 PUSH2 0xD48 SWAP1 DUP4 AND CALLER EQ PUSH2 0x2F9B JUMP JUMPDEST AND SWAP2 DUP3 ISZERO PUSH2 0xD8D JUMPI POP DUP2 DUP4 MSTORE PUSH1 0x14 PUSH1 0x20 MSTORE DUP3 KECCAK256 DUP1 SLOAD PUSH1 0xFF NOT AND PUSH1 0x1 OR SWAP1 SSTORE PUSH32 0xDD10D14F6AC19E913D4EDBB11FD30661531E2CCD0D23F571E9B224F001F0DD06 DUP3 DUP1 LOG2 DUP1 RETURN JUMPDEST PUSH1 0x20 PUSH1 0x64 SWAP3 MLOAD SWAP2 PUSH3 0x461BCD PUSH1 0xE5 SHL DUP4 MSTORE DUP3 ADD MSTORE PUSH1 0x15 PUSH1 0x24 DUP3 ADD MSTORE PUSH21 0x76414D4D3A20696E76616C69642061646472657373 PUSH1 0x58 SHL PUSH1 0x44 DUP3 ADD MSTORE REVERT JUMPDEST POP POP POP CALLVALUE PUSH2 0x340 JUMPI DUP2 PUSH1 0x3 NOT CALLDATASIZE ADD SLT PUSH2 0x340 JUMPI PUSH1 0x20 SWAP1 PUSH2 0xBB0 PUSH2 0x2EEF JUMP JUMPDEST POP POP POP CALLVALUE PUSH2 0x340 JUMPI DUP2 PUSH1 0x3 NOT CALLDATASIZE ADD SLT PUSH2 0x340 JUMPI PUSH1 0x20 SWAP1 PUSH1 0x16 SLOAD SWAP1 MLOAD SWAP1 DUP2 MSTORE RETURN JUMPDEST POP POP POP CALLVALUE PUSH2 0x340 JUMPI PUSH1 0x20 CALLDATASIZE PUSH1 0x3 NOT ADD SLT PUSH2 0x340 JUMPI PUSH1 0x20 SWAP2 PUSH1 0xFF SWAP1 DUP3 SWAP1 PUSH1 0x1 PUSH1 0x1 PUSH1 0xA0 SHL SUB PUSH2 0xE31 PUSH2 0x2986 JUMP JUMPDEST AND DUP2 MSTORE PUSH1 0x14 DUP6 MSTORE KECCAK256 SLOAD AND SWAP1 MLOAD SWAP1 ISZERO ISZERO DUP2 MSTORE RETURN JUMPDEST POP SWAP1 POP CALLVALUE PUSH2 0x411 JUMPI PUSH2 0xE55 CALLDATASIZE PUSH2 0x299C JUMP JUMPDEST PUSH2 0xE6C PUSH1 0x1 DUP1 PUSH1 0xA0 SWAP6 SWAP5 SWAP6 SHL SUB DUP7 SLOAD AND CALLER EQ PUSH2 0x2F9B JUMP JUMPDEST DUP3 ISZERO ISZERO SWAP1 DUP2 PUSH2 0xF03 JUMPI JUMPDEST POP ISZERO PUSH2 0xEC0 JUMPI POP DUP2 PUSH1 0x80 SWAP2 PUSH1 0x13 PUSH1 0x0 DUP1 MLOAD PUSH1 0x20 PUSH2 0x389E DUP4 CODECOPY DUP2 MLOAD SWAP2 MSTORE SWAP5 MLOAD SWAP3 DUP1 DUP5 MSTORE DUP4 ADD MSTORE PUSH19 0x626173655669727475616C5265736572766573 PUSH1 0x68 SHL PUSH1 0x60 DUP4 ADD MSTORE PUSH1 0x20 DUP3 ADD MSTORE LOG1 DUP1 RETURN JUMPDEST PUSH1 0x64 SWAP1 PUSH1 0x20 DUP5 MLOAD SWAP2 PUSH3 0x461BCD PUSH1 0xE5 SHL DUP4 MSTORE DUP3 ADD MSTORE PUSH1 0x1B PUSH1 0x24 DUP3 ADD MSTORE PUSH32 0x76414D4D3A20696E76616C696420626173652072657365727665730000000000 PUSH1 0x44 DUP3 ADD MSTORE REVERT JUMPDEST SWAP1 POP ISZERO ISZERO CODESIZE PUSH2 0xE76 JUMP JUMPDEST POP SWAP1 POP CALLVALUE PUSH2 0x411 JUMPI PUSH1 0x20 CALLDATASIZE PUSH1 0x3 NOT ADD SLT PUSH2 0x411 JUMPI CALLDATALOAD DUP3 MSTORE PUSH1 0x11 PUSH1 0x20 SWAP1 DUP2 MSTORE SWAP2 DUP2 SWAP1 KECCAK256 SLOAD SWAP1 MLOAD PUSH1 0x1 PUSH1 0x1 PUSH1 0xA0 SHL SUB SWAP1 SWAP2 AND DUP2 MSTORE RETURN JUMPDEST POP POP POP CALLVALUE PUSH2 0x340 JUMPI DUP2 PUSH1 0x3 NOT CALLDATASIZE ADD SLT PUSH2 0x340 JUMPI PUSH1 0x80 SWAP1 PUSH1 0xB SLOAD SWAP1 PUSH1 0xC SLOAD SWAP1 PUSH1 0xD SLOAD SWAP1 PUSH1 0xE SLOAD SWAP3 DUP2 MLOAD SWAP5 DUP6 MSTORE PUSH1 0x20 DUP6 ADD MSTORE DUP4 ADD MSTORE PUSH1 0x60 DUP3 ADD MSTORE RETURN JUMPDEST POP POP POP CALLVALUE PUSH2 0x340 JUMPI DUP2 PUSH1 0x3 NOT CALLDATASIZE ADD SLT PUSH2 0x340 JUMPI PUSH1 0x20 SWAP1 PUSH1 0x9 SLOAD SWAP1 MLOAD SWAP1 DUP2 MSTORE RETURN JUMPDEST POP SWAP1 POP CALLVALUE PUSH2 0x411 JUMPI PUSH1 0x20 CALLDATASIZE PUSH1 0x3 NOT ADD SLT PUSH2 0x411 JUMPI DUP1 CALLDATALOAD SWAP1 PUSH2 0xFC6 PUSH1 0x1 DUP1 PUSH1 0xA0 SHL SUB DUP6 SLOAD AND CALLER EQ PUSH2 0x2F9B JUMP JUMPDEST PUSH1 0xFF PUSH1 0x18 SLOAD AND ISZERO PUSH2 0x106D JUMPI DUP2 ISZERO PUSH2 0x102A JUMPI POP PUSH1 0x0 DUP1 MLOAD PUSH1 0x20 PUSH2 0x389E DUP4 CODECOPY DUP2 MLOAD SWAP2 MSTORE SWAP2 DUP2 PUSH1 0x80 SWAP3 PUSH1 0x7 SSTORE DUP5 PUSH1 0x15 SSTORE DUP5 PUSH1 0x16 SSTORE PUSH2 0xFFF PUSH2 0x30FD JUMP JUMPDEST PUSH1 0xE DUP3 MLOAD SWAP3 DUP1 DUP5 MSTORE DUP4 ADD MSTORE PUSH14 0x195B595C99D95B98DE54995CD95D PUSH1 0x92 SHL PUSH1 0x60 DUP4 ADD MSTORE PUSH1 0x20 DUP3 ADD MSTORE LOG1 DUP1 RETURN JUMPDEST PUSH1 0x64 SWAP1 PUSH1 0x20 DUP5 MLOAD SWAP2 PUSH3 0x461BCD PUSH1 0xE5 SHL DUP4 MSTORE DUP3 ADD MSTORE PUSH1 0x1C PUSH1 0x24 DUP3 ADD MSTORE PUSH32 0x76414D4D3A20696E76616C6964207374617274696E6720707269636500000000 PUSH1 0x44 DUP3 ADD MSTORE REVERT JUMPDEST PUSH1 0x64 SWAP1 PUSH1 0x20 DUP5 MLOAD SWAP2 PUSH3 0x461BCD PUSH1 0xE5 SHL DUP4 MSTORE DUP3 ADD MSTORE PUSH1 0x14 PUSH1 0x24 DUP3 ADD MSTORE PUSH20 0x1D9053534E881B5D5CDD081899481C185D5CD959 PUSH1 0x62 SHL PUSH1 0x44 DUP3 ADD MSTORE REVERT JUMPDEST POP POP POP CALLVALUE PUSH2 0x340 JUMPI DUP2 PUSH1 0x3 NOT CALLDATASIZE ADD SLT PUSH2 0x340 JUMPI PUSH1 0x20 SWAP1 PUSH1 0xA SLOAD SWAP1 MLOAD SWAP1 DUP2 MSTORE RETURN JUMPDEST POP POP POP CALLVALUE PUSH2 0x340 JUMPI DUP2 PUSH1 0x3 NOT CALLDATASIZE ADD SLT PUSH2 0x340 JUMPI PUSH1 0x20 SWAP1 MLOAD PUSH1 0x64 DUP2 MSTORE RETURN JUMPDEST DUP4 DUP3 DUP7 CALLVALUE PUSH2 0x4AD JUMPI PUSH1 0x20 CALLDATASIZE PUSH1 0x3 NOT ADD SLT PUSH2 0x4AD JUMPI DUP3 SWAP1 DUP3 CALLDATALOAD DUP2 MSTORE PUSH1 0xF PUSH1 0x20 MSTORE KECCAK256 DUP1 SLOAD SWAP3 PUSH1 0x1 DUP3 ADD SLOAD SWAP3 PUSH1 0xFF PUSH1 0x2 DUP5 ADD SLOAD AND SWAP2 PUSH1 0x3 DUP5 ADD SLOAD SWAP2 DUP5 ADD SLOAD SWAP3 PUSH1 0xFF PUSH1 0x6 PUSH1 0x5 DUP8 ADD SLOAD SWAP7 ADD SLOAD AND SWAP6 DUP3 MLOAD SWAP8 DUP9 MSTORE PUSH1 0x20 DUP9 ADD MSTORE ISZERO ISZERO SWAP1 DUP7 ADD MSTORE PUSH1 0x60 DUP6 ADD MSTORE PUSH1 0x80 DUP5 ADD MSTORE PUSH1 0xA0 DUP4 ADD MSTORE ISZERO ISZERO PUSH1 0xC0 DUP3 ADD MSTORE RETURN JUMPDEST POP POP POP CALLVALUE PUSH2 0x340 JUMPI DUP2 PUSH1 0x3 NOT CALLDATASIZE ADD SLT PUSH2 0x340 JUMPI PUSH1 0x20 SWAP1 MLOAD PUSH4 0x5F5E100 DUP2 MSTORE RETURN JUMPDEST POP POP POP CALLVALUE PUSH2 0x340 JUMPI DUP2 PUSH1 0x3 NOT CALLDATASIZE ADD SLT PUSH2 0x340 JUMPI PUSH1 0x20 SWAP1 PUSH1 0xB SLOAD SWAP1 MLOAD SWAP1 DUP2 MSTORE RETURN JUMPDEST POP POP POP CALLVALUE PUSH2 0x340 JUMPI DUP2 PUSH1 0x3 NOT CALLDATASIZE ADD SLT PUSH2 0x340 JUMPI PUSH1 0x20 SWAP1 MLOAD PUSH8 0xDE0B6B3A7640000 DUP2 MSTORE RETURN JUMPDEST POP DUP4 DUP4 CALLVALUE PUSH2 0x340 JUMPI PUSH1 0x20 SWAP1 DUP2 PUSH1 0x3 NOT CALLDATASIZE ADD SLT PUSH2 0x411 JUMPI PUSH2 0x11D8 PUSH2 0x2986 JUMP JUMPDEST SWAP1 DUP4 SWAP2 DUP5 SWAP2 DUP6 SWAP7 DUP7 SWAP3 PUSH1 0x1 DUP1 PUSH1 0xA0 SHL SUB AND DUP8 MSTORE PUSH1 0x10 DUP7 MSTORE DUP2 DUP8 KECCAK256 SWAP6 DUP3 MLOAD DUP1 DUP9 DUP4 DUP3 SWAP11 SLOAD SWAP4 DUP5 DUP2 MSTORE ADD SWAP1 DUP12 MSTORE DUP4 DUP12 KECCAK256 SWAP3 DUP12 JUMPDEST DUP6 DUP3 DUP3 LT PUSH2 0x134D JUMPI POP POP POP PUSH2 0x1220 SWAP3 POP SUB DUP9 PUSH2 0x30C2 JUMP JUMPDEST DUP8 JUMPDEST DUP8 MLOAD DUP2 LT ISZERO PUSH2 0x132E JUMPI PUSH2 0x1235 DUP2 DUP10 PUSH2 0x3589 JUMP JUMPDEST MLOAD DUP10 MSTORE PUSH1 0xF DUP3 MSTORE DUP4 DUP10 KECCAK256 PUSH1 0xFF SWAP1 DUP2 PUSH1 0x6 DUP3 ADD SLOAD AND PUSH2 0x125E JUMPI JUMPDEST POP POP PUSH2 0x1259 SWAP1 PUSH2 0x2E16 JUMP JUMPDEST PUSH2 0x1222 JUMP JUMPDEST SWAP1 SWAP11 SWAP6 PUSH2 0x126D SWAP1 SWAP9 SWAP3 SWAP9 PUSH2 0x2E16 JUMP JUMPDEST SWAP6 PUSH2 0x1278 DUP10 DUP12 PUSH2 0x3589 JUMP JUMPDEST MLOAD SWAP1 DUP7 MLOAD SWAP2 PUSH4 0xF259013 PUSH1 0xE0 SHL DUP4 MSTORE DUP7 DUP4 ADD MSTORE DUP5 DUP3 PUSH1 0x24 DUP2 ADDRESS GAS STATICCALL SWAP1 DUP2 ISZERO PUSH2 0x1324 JUMPI DUP13 SWAP2 PUSH2 0x12EE JUMPI JUMPDEST PUSH2 0x12AB SWAP3 POP PUSH2 0x324F JUMP JUMPDEST SWAP11 PUSH1 0x2 DUP3 ADD SLOAD AND PUSH1 0x0 EQ PUSH2 0x12D4 JUMPI PUSH2 0x1259 SWAP2 PUSH1 0x1 PUSH2 0x12CB SWAP3 ADD SLOAD SWAP1 PUSH2 0x2E25 JUMP JUMPDEST SWAP7 JUMPDEST SWAP1 DUP12 PUSH2 0x124E JUMP JUMPDEST PUSH2 0x1259 SWAP2 SWAP8 SWAP7 PUSH1 0x1 PUSH2 0x12E8 SWAP3 ADD SLOAD SWAP1 PUSH2 0x2E25 JUMP JUMPDEST SWAP6 PUSH2 0x12CD JUMP JUMPDEST SWAP1 POP DUP5 DUP3 DUP2 RETURNDATASIZE DUP4 GT PUSH2 0x131D JUMPI JUMPDEST PUSH2 0x1305 DUP2 DUP4 PUSH2 0x30C2 JUMP JUMPDEST DUP2 ADD SUB SLT PUSH2 0x1318 JUMPI PUSH2 0x12AB SWAP2 MLOAD SWAP1 PUSH2 0x12A1 JUMP JUMPDEST PUSH1 0x0 DUP1 REVERT JUMPDEST POP RETURNDATASIZE PUSH2 0x12FB JUMP JUMPDEST DUP8 MLOAD RETURNDATASIZE DUP15 DUP3 RETURNDATACOPY RETURNDATASIZE SWAP1 REVERT JUMPDEST DUP4 MLOAD DUP8 DUP2 MSTORE PUSH1 0x20 DUP2 ADD DUP8 SWAP1 MSTORE PUSH1 0x40 DUP2 ADD DUP12 SWAP1 MSTORE PUSH1 0x60 DUP2 ADD DUP7 SWAP1 MSTORE PUSH1 0x80 SWAP1 RETURN JUMPDEST DUP6 SLOAD DUP5 MSTORE PUSH1 0x1 SWAP6 DUP7 ADD SWAP6 DUP14 SWAP6 POP SWAP4 ADD SWAP3 ADD PUSH2 0x1209 JUMP JUMPDEST POP POP POP CALLVALUE PUSH2 0x340 JUMPI DUP2 PUSH1 0x3 NOT CALLDATASIZE ADD SLT PUSH2 0x340 JUMPI SWAP1 SLOAD SWAP1 MLOAD PUSH1 0x1 PUSH1 0x1 PUSH1 0xA0 SHL SUB SWAP1 SWAP2 AND DUP2 MSTORE PUSH1 0x20 SWAP1 RETURN JUMPDEST DUP5 CALLVALUE PUSH2 0x4AD JUMPI DUP1 PUSH1 0x3 NOT CALLDATASIZE ADD SLT PUSH2 0x4AD JUMPI PUSH2 0x13B1 PUSH1 0x1 DUP1 PUSH1 0xA0 SHL SUB DUP3 SLOAD AND CALLER EQ PUSH2 0x2F9B JUMP JUMPDEST PUSH1 0x1 PUSH1 0xFF NOT PUSH1 0x18 SLOAD AND OR PUSH1 0x18 SSTORE PUSH32 0x9E87FAC88FF661F02D44F95383C817FECE4BCE600A3DAB7A54406878B965E752 DUP2 DUP1 LOG1 DUP1 RETURN JUMPDEST POP POP POP CALLVALUE PUSH2 0x340 JUMPI DUP2 PUSH1 0x3 NOT CALLDATASIZE ADD SLT PUSH2 0x340 JUMPI PUSH1 0x20 SWAP1 PUSH1 0x5 SLOAD SWAP1 MLOAD SWAP1 DUP2 MSTORE RETURN JUMPDEST DUP4 DUP6 CALLVALUE PUSH2 0x4AD JUMPI DUP1 PUSH1 0x3 NOT CALLDATASIZE ADD SLT PUSH2 0x4AD JUMPI DUP2 MLOAD SWAP1 DUP1 DUP3 MSTORE PUSH1 0x20 DUP3 ADD MSTORE RETURN JUMPDEST DUP5 DUP3 DUP6 CALLVALUE PUSH2 0x411 JUMPI PUSH1 0x20 SWAP2 DUP3 PUSH1 0x3 NOT CALLDATASIZE ADD SLT PUSH2 0x155D JUMPI PUSH1 0x1 PUSH1 0x1 PUSH1 0xA0 SHL SUB PUSH2 0x144A PUSH2 0x2986 JUMP JUMPDEST AND DUP5 MSTORE PUSH1 0x10 DUP4 MSTORE DUP2 DUP5 KECCAK256 SWAP3 DUP3 MLOAD DUP1 DUP6 DUP4 DUP3 SWAP8 SLOAD SWAP4 DUP5 DUP2 MSTORE ADD SWAP1 DUP9 MSTORE DUP4 DUP9 KECCAK256 SWAP3 DUP9 JUMPDEST DUP6 DUP3 DUP3 LT PUSH2 0x1547 JUMPI POP POP POP PUSH2 0x1482 SWAP3 POP SUB DUP6 PUSH2 0x30C2 JUMP JUMPDEST DUP5 DUP1 JUMPDEST DUP6 MLOAD DUP2 LT ISZERO PUSH2 0x153E JUMPI PUSH2 0x1498 DUP2 DUP8 PUSH2 0x3589 JUMP JUMPDEST MLOAD DUP3 MSTORE PUSH1 0xF DUP4 MSTORE PUSH1 0xFF PUSH1 0x6 DUP7 DUP5 KECCAK256 ADD SLOAD AND PUSH2 0x14BC JUMPI JUMPDEST PUSH2 0x14B7 SWAP1 PUSH2 0x2E16 JUMP JUMPDEST PUSH2 0x1485 JUMP JUMPDEST SWAP6 PUSH2 0x14C7 DUP8 DUP8 PUSH2 0x3589 JUMP JUMPDEST MLOAD DUP6 MLOAD SWAP1 PUSH4 0xF259013 PUSH1 0xE0 SHL DUP3 MSTORE DUP6 DUP3 ADD MSTORE DUP4 DUP2 PUSH1 0x24 DUP2 ADDRESS GAS STATICCALL SWAP1 DUP2 ISZERO PUSH2 0x1534 JUMPI DUP4 SWAP2 PUSH2 0x1505 JUMPI JUMPDEST POP PUSH2 0x14FD SWAP1 PUSH2 0x14B7 SWAP3 PUSH2 0x324F JUMP JUMPDEST SWAP7 SWAP1 POP PUSH2 0x14AE JUMP JUMPDEST SWAP1 POP DUP4 DUP2 DUP2 RETURNDATASIZE DUP4 GT PUSH2 0x152D JUMPI JUMPDEST PUSH2 0x151C DUP2 DUP4 PUSH2 0x30C2 JUMP JUMPDEST DUP2 ADD SUB SLT PUSH2 0x1318 JUMPI MLOAD PUSH2 0x14B7 PUSH2 0x14EF JUMP JUMPDEST POP RETURNDATASIZE PUSH2 0x1512 JUMP JUMPDEST DUP7 MLOAD RETURNDATASIZE DUP6 DUP3 RETURNDATACOPY RETURNDATASIZE SWAP1 REVERT JUMPDEST DUP3 DUP8 DUP7 MLOAD SWAP1 DUP2 MSTORE RETURN JUMPDEST DUP6 SLOAD DUP5 MSTORE PUSH1 0x1 SWAP6 DUP7 ADD SWAP6 DUP11 SWAP6 POP SWAP4 ADD SWAP3 ADD PUSH2 0x146B JUMP JUMPDEST DUP4 DUP1 REVERT JUMPDEST POP POP POP CALLVALUE PUSH2 0x340 JUMPI DUP2 PUSH1 0x3 NOT CALLDATASIZE ADD SLT PUSH2 0x340 JUMPI PUSH1 0x2 SLOAD SWAP1 MLOAD PUSH1 0x1 PUSH1 0x1 PUSH1 0xA0 SHL SUB SWAP1 SWAP2 AND DUP2 MSTORE PUSH1 0x20 SWAP1 RETURN JUMPDEST POP POP POP CALLVALUE PUSH2 0x340 JUMPI DUP1 PUSH1 0x3 NOT CALLDATASIZE ADD SLT PUSH2 0x340 JUMPI PUSH2 0x15A6 PUSH2 0x2986 JUMP JUMPDEST PUSH1 0x1 PUSH1 0x1 PUSH1 0xA0 SHL SUB AND DUP3 MSTORE PUSH1 0x10 PUSH1 0x20 MSTORE DUP1 DUP3 KECCAK256 DUP1 SLOAD PUSH1 0x24 CALLDATALOAD SWAP4 SWAP1 DUP5 LT ISZERO PUSH2 0x4AD JUMPI POP PUSH1 0x20 SWAP3 PUSH2 0x15D4 SWAP2 PUSH2 0x2A23 JUMP JUMPDEST SWAP2 SWAP1 SLOAD SWAP1 MLOAD SWAP2 PUSH1 0x3 SHL SHR DUP2 MSTORE RETURN JUMPDEST POP POP POP CALLVALUE PUSH2 0x340 JUMPI DUP2 PUSH1 0x3 NOT CALLDATASIZE ADD SLT PUSH2 0x340 JUMPI PUSH1 0x20 SWAP1 MLOAD PUSH2 0x3E8 DUP2 MSTORE RETURN JUMPDEST DUP5 DUP3 DUP6 CALLVALUE PUSH2 0x411 JUMPI PUSH1 0x80 CALLDATASIZE PUSH1 0x3 NOT ADD SLT PUSH2 0x411 JUMPI DUP2 CALLDATALOAD SWAP3 PUSH1 0x24 CALLDATALOAD SWAP4 PUSH2 0x162A PUSH1 0xFF PUSH1 0x18 SLOAD AND ISZERO PUSH2 0x2FD9 JUMP JUMPDEST DUP1 DUP3 MSTORE PUSH1 0x20 SWAP5 PUSH1 0xF DUP7 MSTORE PUSH2 0x1646 PUSH1 0xFF PUSH1 0x6 DUP7 DUP7 KECCAK256 ADD SLOAD AND PUSH2 0x3014 JUMP JUMPDEST DUP2 DUP4 MSTORE PUSH1 0x11 DUP7 MSTORE DUP4 DUP4 KECCAK256 SLOAD PUSH1 0x1 PUSH1 0x1 PUSH1 0xA0 SHL SUB SWAP1 PUSH2 0x1667 SWAP1 DUP3 AND CALLER EQ PUSH2 0x353D JUMP JUMPDEST DUP3 DUP5 MSTORE PUSH1 0xF DUP8 MSTORE DUP5 DUP5 KECCAK256 SWAP4 PUSH1 0x1 DUP6 ADD SWAP7 DUP8 SLOAD DUP1 DUP6 GT PUSH2 0x195E JUMPI PUSH2 0x1688 PUSH2 0x326B JUMP JUMPDEST PUSH2 0x1691 DUP7 PUSH2 0x33B3 JUMP JUMPDEST PUSH2 0x1699 PUSH2 0x2A7A JUMP JUMPDEST SWAP4 PUSH1 0x44 CALLDATALOAD DUP6 LT ISZERO DUP1 PUSH2 0x1952 JUMPI JUMPDEST PUSH2 0x16AF SWAP1 PUSH2 0x36C8 JUMP JUMPDEST PUSH1 0x2 DUP9 ADD SLOAD PUSH1 0xFF AND SWAP8 DUP9 ISZERO PUSH2 0x1931 JUMPI PUSH8 0xDE0B6B3A7640000 PUSH2 0x16DE PUSH2 0x16D8 PUSH1 0x3 DUP5 ADD SLOAD DUP10 PUSH2 0x2EE2 JUMP JUMPDEST DUP10 PUSH2 0x2A51 JUMP JUMPDEST DIV SWAP11 JUMPDEST PUSH2 0x2710 PUSH2 0x16F0 PUSH1 0x3 SLOAD DUP11 PUSH2 0x2A51 JUMP JUMPDEST DIV SWAP10 ISZERO PUSH2 0x191D JUMPI PUSH2 0x1703 DUP9 PUSH1 0x15 SLOAD PUSH2 0x30E4 JUMP JUMPDEST PUSH1 0x15 SSTORE JUMPDEST PUSH2 0x170F PUSH2 0x30FD JUMP JUMPDEST DUP8 DUP5 SUB PUSH2 0x1905 JUMPI POP PUSH1 0x6 ADD DUP1 SLOAD PUSH1 0xFF NOT AND SWAP1 SSTORE PUSH2 0x172C DUP8 CALLER PUSH2 0x317A JUMP JUMPDEST DUP1 PUSH1 0x1 SLOAD AND PUSH2 0x173B DUP10 DUP13 PUSH2 0x30E4 JUMP JUMPDEST DUP2 EXTCODESIZE ISZERO PUSH2 0x1901 JUMPI DUP6 SWAP2 PUSH1 0x44 DUP4 SWAP3 DUP14 MLOAD SWAP5 DUP6 SWAP4 DUP5 SWAP3 PUSH4 0x196C4AD PUSH1 0xE7 SHL DUP5 MSTORE CALLER DUP12 DUP6 ADD MSTORE PUSH1 0x24 DUP5 ADD MSTORE GAS CALL DUP1 ISZERO PUSH2 0x18E3 JUMPI SWAP1 DUP6 SWAP2 PUSH2 0x18ED JUMPI JUMPDEST POP POP PUSH1 0x1 SLOAD AND SWAP1 DUP9 MLOAD PUSH3 0xAF059 PUSH1 0xE2 SHL DUP2 MSTORE CALLER DUP5 DUP3 ADD MSTORE PUSH1 0x80 DUP2 PUSH1 0x24 DUP2 DUP7 GAS STATICCALL SWAP1 DUP2 ISZERO PUSH2 0x18E3 JUMPI DUP8 SWAP2 DUP14 SWAP2 DUP8 SWAP2 PUSH2 0x1875 JUMPI JUMPDEST POP ADD MLOAD PUSH2 0x17BB SWAP3 SWAP2 PUSH2 0x17B6 SWAP2 PUSH2 0x2A51 JUMP JUMPDEST PUSH2 0x2B08 JUMP JUMPDEST SWAP2 DUP2 EXTCODESIZE ISZERO PUSH2 0x155D JUMPI DUP9 MLOAD PUSH4 0x9101E5B3 PUSH1 0xE0 SHL DUP2 MSTORE CALLER SWAP2 DUP2 ADD SWAP2 DUP3 MSTORE PUSH1 0x20 DUP3 ADD SWAP4 SWAP1 SWAP4 MSTORE DUP4 SWAP2 DUP4 SWAP2 DUP3 SWAP1 DUP5 SWAP1 DUP3 SWAP1 PUSH1 0x40 ADD SUB SWAP3 GAS CALL DUP1 ISZERO PUSH2 0x186B JUMPI SWAP1 DUP9 SWAP3 SWAP2 PUSH2 0x1853 JUMPI JUMPDEST POP POP PUSH32 0x35509DD26C2D331B2EEAF713E533967AC9E8A0C5E37372ABC7DEDD026E81675 SWAP2 PUSH2 0x182E DUP7 PUSH1 0x17 SLOAD PUSH2 0x2E25 JUMP JUMPDEST PUSH1 0x17 SSTORE DUP7 MLOAD SWAP4 DUP5 MSTORE PUSH1 0x20 DUP5 ADD MSTORE PUSH1 0x40 DUP4 ADD MSTORE PUSH1 0x60 DUP3 ADD DUP5 SWAP1 MSTORE CALLER SWAP2 DUP1 PUSH1 0x80 DUP2 ADD PUSH2 0xA8F JUMP JUMPDEST DUP2 SWAP3 POP PUSH2 0x185F SWAP1 PUSH2 0x3092 JUMP JUMPDEST PUSH2 0x4AD JUMPI DUP1 DUP8 SWAP2 PUSH2 0x17FE JUMP JUMPDEST DUP8 MLOAD RETURNDATASIZE DUP5 DUP3 RETURNDATACOPY RETURNDATASIZE SWAP1 REVERT JUMPDEST SWAP3 POP POP POP PUSH1 0x80 DUP2 RETURNDATASIZE DUP3 GT PUSH2 0x18DB JUMPI JUMPDEST DUP2 PUSH2 0x1891 PUSH1 0x80 SWAP4 DUP4 PUSH2 0x30C2 JUMP JUMPDEST DUP2 ADD SUB SLT PUSH2 0x18D7 JUMPI SWAP1 PUSH2 0x17B6 DUP8 DUP14 DUP13 PUSH1 0x60 PUSH2 0x17BB SWAP7 DUP3 MLOAD SWAP3 PUSH2 0x18B2 DUP5 PUSH2 0x30A6 JUMP JUMPDEST DUP2 MLOAD DUP5 MSTORE DUP5 DUP3 ADD MLOAD DUP6 DUP6 ADD MSTORE DUP1 DUP3 ADD MLOAD SWAP1 DUP5 ADD MSTORE ADD MLOAD PUSH1 0x60 DUP3 ADD MSTORE SWAP2 SWAP4 SWAP5 POP SWAP2 PUSH2 0x17A5 JUMP JUMPDEST DUP5 DUP1 REVERT JUMPDEST RETURNDATASIZE SWAP2 POP PUSH2 0x1884 JUMP JUMPDEST DUP11 MLOAD RETURNDATASIZE DUP8 DUP3 RETURNDATACOPY RETURNDATASIZE SWAP1 REVERT JUMPDEST PUSH2 0x18F6 SWAP1 PUSH2 0x3092 JUMP JUMPDEST PUSH2 0x155D JUMPI DUP4 DUP13 PUSH2 0x1773 JUMP JUMPDEST DUP6 DUP1 REVERT JUMPDEST PUSH2 0x1910 DUP9 DUP3 SLOAD PUSH2 0x30E4 JUMP JUMPDEST SWAP1 SSTORE PUSH1 0x5 TIMESTAMP SWAP2 ADD SSTORE PUSH2 0x172C JUMP JUMPDEST PUSH2 0x1929 DUP9 PUSH1 0x16 SLOAD PUSH2 0x30E4 JUMP JUMPDEST PUSH1 0x16 SSTORE PUSH2 0x1707 JUMP JUMPDEST PUSH8 0xDE0B6B3A7640000 PUSH2 0x194B PUSH2 0x16D8 DUP9 PUSH1 0x3 DUP6 ADD SLOAD PUSH2 0x2EE2 JUMP JUMPDEST DIV SWAP11 PUSH2 0x16E1 JUMP JUMPDEST POP PUSH1 0x64 CALLDATALOAD DUP6 GT ISZERO PUSH2 0x16A6 JUMP JUMPDEST DUP8 MLOAD PUSH3 0x461BCD PUSH1 0xE5 SHL DUP2 MSTORE DUP1 DUP4 ADD DUP12 SWAP1 MSTORE PUSH1 0x12 PUSH1 0x24 DUP3 ADD MSTORE PUSH18 0x76414D4D3A20696E76616C69642073697A65 PUSH1 0x70 SHL PUSH1 0x44 DUP3 ADD MSTORE PUSH1 0x64 SWAP1 REVERT JUMPDEST POP SWAP1 POP CALLVALUE PUSH2 0x411 JUMPI PUSH2 0x100 CALLDATASIZE PUSH1 0x3 NOT ADD SLT PUSH2 0x411 JUMPI PUSH2 0x19B3 PUSH2 0x2986 JUMP JUMPDEST SWAP2 PUSH1 0x24 CALLDATALOAD SWAP3 PUSH1 0x44 CALLDATALOAD SWAP1 DUP2 ISZERO ISZERO DUP3 SUB PUSH2 0x1318 JUMPI PUSH1 0x64 CALLDATALOAD SWAP1 DUP2 ISZERO ISZERO DUP3 SUB PUSH2 0x1318 JUMPI PUSH1 0x84 CALLDATALOAD SWAP3 PUSH1 0xA4 CALLDATALOAD PUSH1 0xC4 CALLDATALOAD SWAP2 PUSH1 0xE4 CALLDATALOAD SWAP4 CALLER DUP12 MSTORE PUSH1 0x14 PUSH1 0x20 MSTORE PUSH1 0xFF DUP9 DUP13 KECCAK256 SLOAD AND DUP1 ISZERO PUSH2 0x1B27 JUMPI JUMPDEST ISZERO PUSH2 0x1AED JUMPI PUSH1 0x1 PUSH1 0x1 PUSH1 0xA0 SHL SUB AND SWAP8 DUP9 ISZERO PUSH2 0x1AB5 JUMPI POP ISZERO PUSH2 0x1A6B JUMPI SWAP1 PUSH2 0x1A65 SWAP3 SWAP2 PUSH32 0x345A1E15BFF227BFD5051975D95C864C45CF9FE79DEF6F9CE1C1525B0E831226 SWAP7 MLOAD SWAP6 DUP7 SWAP6 DUP7 SWAP2 SWAP3 PUSH1 0x80 SWAP4 SWAP7 SWAP6 SWAP5 SWAP2 SWAP7 PUSH1 0xA0 DUP5 ADD SWAP8 ISZERO ISZERO DUP5 MSTORE PUSH1 0x20 DUP5 ADD MSTORE PUSH1 0x40 DUP4 ADD MSTORE PUSH1 0x60 DUP3 ADD MSTORE ADD MSTORE JUMP JUMPDEST SUB SWAP1 LOG3 DUP1 RETURN JUMPDEST SWAP5 MLOAD SWAP4 DUP5 MSTORE PUSH1 0x20 DUP5 ADD SWAP5 SWAP1 SWAP5 MSTORE PUSH1 0x40 DUP4 ADD SWAP4 SWAP1 SWAP4 MSTORE POP PUSH1 0x60 DUP2 ADD SWAP2 SWAP1 SWAP2 MSTORE PUSH32 0x35509DD26C2D331B2EEAF713E533967AC9E8A0C5E37372ABC7DEDD026E81675 SWAP1 DUP1 PUSH1 0x80 DUP2 ADD PUSH2 0x1A65 JUMP JUMPDEST PUSH1 0x64 SWAP1 PUSH1 0x20 DUP10 MLOAD SWAP2 PUSH3 0x461BCD PUSH1 0xE5 SHL DUP4 MSTORE DUP3 ADD MSTORE PUSH1 0x12 PUSH1 0x24 DUP3 ADD MSTORE PUSH18 0x3B20A6A69D1034B73B30B634B2103AB9B2B9 PUSH1 0x71 SHL PUSH1 0x44 DUP3 ADD MSTORE REVERT JUMPDEST DUP8 MLOAD PUSH3 0x461BCD PUSH1 0xE5 SHL DUP2 MSTORE PUSH1 0x20 DUP2 DUP12 ADD MSTORE PUSH1 0x14 PUSH1 0x24 DUP3 ADD MSTORE PUSH20 0x1D9053534E881B9BDD08185D5D1A1BDC9A5E9959 PUSH1 0x62 SHL PUSH1 0x44 DUP3 ADD MSTORE PUSH1 0x64 SWAP1 REVERT JUMPDEST POP DUP11 SLOAD PUSH1 0x1 PUSH1 0x1 PUSH1 0xA0 SHL SUB AND CALLER EQ PUSH2 0x19F7 JUMP JUMPDEST POP POP POP CALLVALUE PUSH2 0x340 JUMPI DUP2 PUSH1 0x3 NOT CALLDATASIZE ADD SLT PUSH2 0x340 JUMPI PUSH1 0x20 SWAP1 PUSH2 0xBB0 PUSH2 0x2A7A JUMP JUMPDEST POP SWAP1 POP CALLVALUE PUSH2 0x411 JUMPI DUP3 PUSH1 0x3 NOT CALLDATASIZE ADD SLT PUSH2 0x411 JUMPI PUSH1 0x20 SWAP3 POP SLOAD SWAP1 MLOAD SWAP1 DUP2 MSTORE RETURN JUMPDEST POP DUP4 DUP4 CALLVALUE PUSH2 0x340 JUMPI PUSH1 0xA0 CALLDATASIZE PUSH1 0x3 NOT ADD SLT PUSH2 0x340 JUMPI DUP3 CALLDATALOAD PUSH1 0x24 CALLDATALOAD SWAP1 PUSH1 0x44 CALLDATALOAD PUSH2 0x1BA3 PUSH1 0xFF PUSH1 0x18 SLOAD AND ISZERO PUSH2 0x2FD9 JUMP JUMPDEST DUP2 DUP6 MSTORE PUSH1 0xF PUSH1 0x20 MSTORE PUSH2 0x1BBD PUSH1 0xFF PUSH1 0x6 DUP7 DUP9 KECCAK256 ADD SLOAD AND PUSH2 0x3014 JUMP JUMPDEST DUP2 DUP6 MSTORE PUSH1 0x11 PUSH1 0x20 MSTORE DUP4 DUP6 KECCAK256 SLOAD PUSH1 0x1 PUSH1 0x1 PUSH1 0xA0 SHL SUB SWAP6 SWAP1 PUSH2 0x1BE0 SWAP1 DUP8 AND CALLER EQ PUSH2 0x353D JUMP JUMPDEST PUSH2 0x1BEB DUP5 ISZERO ISZERO PUSH2 0x3637 JUMP JUMPDEST PUSH1 0x1 DUP3 LT ISZERO DUP1 PUSH2 0x1DE9 JUMPI JUMPDEST PUSH2 0x1BFF SWAP1 PUSH2 0x3683 JUMP JUMPDEST DUP3 DUP2 MSTORE PUSH1 0xF PUSH1 0x20 MSTORE PUSH2 0x1C25 DUP6 DUP3 KECCAK256 SWAP3 PUSH2 0x1C16 PUSH2 0x326B JUMP JUMPDEST PUSH2 0x1C1F DUP6 PUSH2 0x33B3 JUMP JUMPDEST DUP6 PUSH2 0x2A51 JUMP JUMPDEST SWAP2 PUSH2 0x1C2E PUSH2 0x2A7A JUMP JUMPDEST SWAP7 PUSH1 0x64 CALLDATALOAD DUP9 LT ISZERO DUP1 PUSH2 0x1DDD JUMPI JUMPDEST PUSH2 0x1C44 SWAP1 PUSH2 0x36C8 JUMP JUMPDEST PUSH5 0xE8D4A51000 PUSH2 0x1C5C PUSH2 0x2710 PUSH2 0x891 PUSH1 0x3 SLOAD DUP9 PUSH2 0x2A51 JUMP JUMPDEST DIV SWAP1 PUSH1 0x1 SLOAD AND DUP1 EXTCODESIZE ISZERO PUSH2 0x155D JUMPI DUP8 MLOAD PUSH4 0xEAD3E99 PUSH1 0xE3 SHL DUP2 MSTORE CALLER DUP2 DUP13 ADD SWAP1 DUP2 MSTORE PUSH1 0x20 DUP2 ADD SWAP4 SWAP1 SWAP4 MSTORE SWAP2 DUP5 SWAP2 DUP4 SWAP2 DUP3 SWAP1 DUP5 SWAP1 DUP3 SWAP1 PUSH1 0x40 ADD SUB SWAP3 GAS CALL DUP1 ISZERO PUSH2 0x1DD3 JUMPI SWAP1 DUP4 SWAP2 PUSH2 0x1DBF JUMPI JUMPDEST POP POP PUSH1 0x2 DUP2 ADD SLOAD PUSH1 0xFF AND ISZERO PUSH2 0x1DAB JUMPI PUSH2 0x1CBF DUP4 PUSH1 0x15 SLOAD PUSH2 0x324F JUMP JUMPDEST PUSH1 0x15 SSTORE JUMPDEST PUSH2 0x1CCB PUSH2 0x30FD JUMP JUMPDEST PUSH1 0x1 DUP2 ADD SWAP7 DUP8 SLOAD SWAP1 PUSH1 0x3 DUP4 ADD SWAP4 PUSH2 0x1D04 PUSH8 0xDE0B6B3A7640000 SWAP3 DUP4 PUSH2 0x1CFD DUP2 PUSH2 0x1CF5 DUP11 SLOAD DUP10 PUSH2 0x2A51 JUMP JUMPDEST DIV SWAP3 DUP11 PUSH2 0x2A51 JUMP JUMPDEST DIV SWAP1 PUSH2 0x2E25 JUMP JUMPDEST DUP3 DUP2 MUL SWAP3 DUP2 DUP5 DIV EQ SWAP1 ISZERO OR ISZERO PUSH2 0x1D98 JUMPI POP PUSH1 0x20 SWAP10 POP SWAP2 PUSH2 0x1D5D DUP6 DUP4 PUSH2 0x1D56 DUP11 SWAP7 PUSH2 0x1D50 DUP5 PUSH32 0x2337E687DA16F7F70DE054EC6C6F96C9FAAEAC16CA3FE6B873CF017380F578A8 SWAP11 SWAP9 PUSH2 0x2E25 JUMP JUMPDEST SWAP1 PUSH2 0x2B08 JUMP JUMPDEST DUP6 SSTORE PUSH2 0x324F JUMP JUMPDEST DUP1 SWAP10 SSTORE PUSH1 0x5 TIMESTAMP SWAP2 ADD SSTORE PUSH2 0x1D72 DUP3 PUSH1 0x17 SLOAD PUSH2 0x2E25 JUMP JUMPDEST PUSH1 0x17 SSTORE SLOAD DUP7 MLOAD SWAP4 DUP5 MSTORE PUSH1 0x20 DUP5 ADD DUP9 SWAP1 MSTORE PUSH1 0x40 DUP5 ADD MSTORE PUSH1 0x60 DUP4 ADD MSTORE CALLER SWAP2 DUP1 PUSH1 0x80 DUP2 ADD PUSH2 0xA8F JUMP JUMPDEST PUSH4 0x4E487B71 PUSH1 0xE0 SHL DUP2 MSTORE PUSH1 0x11 DUP12 MSTORE PUSH1 0x24 SWAP1 REVERT JUMPDEST PUSH2 0x1DB7 DUP4 PUSH1 0x16 SLOAD PUSH2 0x324F JUMP JUMPDEST PUSH1 0x16 SSTORE PUSH2 0x1CC3 JUMP JUMPDEST PUSH2 0x1DC8 SWAP1 PUSH2 0x3092 JUMP JUMPDEST PUSH2 0x340 JUMPI DUP2 DUP10 PUSH2 0x1CA4 JUMP JUMPDEST DUP8 MLOAD RETURNDATASIZE DUP6 DUP3 RETURNDATACOPY RETURNDATASIZE SWAP1 REVERT JUMPDEST POP PUSH1 0x84 CALLDATALOAD DUP9 GT ISZERO PUSH2 0x1C3B JUMP JUMPDEST POP PUSH1 0x64 DUP3 GT ISZERO PUSH2 0x1BF6 JUMP JUMPDEST POP POP POP CALLVALUE PUSH2 0x340 JUMPI DUP2 PUSH1 0x3 NOT CALLDATASIZE ADD SLT PUSH2 0x340 JUMPI PUSH1 0x20 SWAP1 PUSH1 0xFF PUSH1 0x18 SLOAD AND SWAP1 MLOAD SWAP1 ISZERO ISZERO DUP2 MSTORE RETURN JUMPDEST POP POP POP CALLVALUE PUSH2 0x340 JUMPI DUP2 PUSH1 0x3 NOT CALLDATASIZE ADD SLT PUSH2 0x340 JUMPI PUSH1 0x20 SWAP1 PUSH1 0x15 SLOAD SWAP1 MLOAD SWAP1 DUP2 MSTORE RETURN JUMPDEST DUP4 DUP6 DUP4 CALLVALUE PUSH2 0x340 JUMPI PUSH1 0x20 CALLDATASIZE PUSH1 0x3 NOT ADD SLT PUSH2 0x340 JUMPI DUP1 CALLDATALOAD SWAP1 PUSH2 0x1E64 PUSH1 0x1 DUP1 PUSH1 0xA0 SHL SUB DUP5 SLOAD AND CALLER EQ PUSH2 0x2F9B JUMP JUMPDEST PUSH1 0x17 SLOAD SWAP1 DUP2 DUP4 GT PUSH2 0x1E80 JUMPI POP SWAP1 PUSH2 0x1E7A SWAP2 PUSH2 0x2EE2 JUMP JUMPDEST PUSH1 0x17 SSTORE DUP1 RETURN JUMPDEST PUSH1 0x64 SWAP1 PUSH1 0x20 DUP7 MLOAD SWAP2 PUSH3 0x461BCD PUSH1 0xE5 SHL DUP4 MSTORE DUP3 ADD MSTORE PUSH1 0x17 PUSH1 0x24 DUP3 ADD MSTORE PUSH32 0x76414D4D3A20696E73756666696369656E742066656573000000000000000000 PUSH1 0x44 DUP3 ADD MSTORE REVERT JUMPDEST POP POP POP CALLVALUE PUSH2 0x340 JUMPI DUP2 PUSH1 0x3 NOT CALLDATASIZE ADD SLT PUSH2 0x340 JUMPI PUSH1 0x20 SWAP1 MLOAD PUSH2 0xE10 DUP2 MSTORE RETURN JUMPDEST POP DUP4 DUP4 CALLVALUE PUSH2 0x340 JUMPI PUSH1 0x20 SWAP3 DUP4 PUSH1 0x3 NOT CALLDATASIZE ADD SLT PUSH2 0x411 JUMPI PUSH2 0x1EFF PUSH2 0x2986 JUMP JUMPDEST DUP3 MLOAD PUSH4 0x7E6A6F67 PUSH1 0xE0 SHL DUP2 MSTORE PUSH1 0x1 PUSH1 0x1 PUSH1 0xA0 SHL SUB SWAP1 SWAP2 AND SWAP2 DUP2 ADD SWAP2 SWAP1 SWAP2 MSTORE DUP4 DUP2 PUSH1 0x24 DUP2 ADDRESS GAS STATICCALL SWAP3 DUP4 ISZERO PUSH2 0x1F68 JUMPI SWAP3 PUSH2 0x1F39 JUMPI JUMPDEST POP MLOAD SWAP1 DUP2 MSTORE RETURN JUMPDEST SWAP1 SWAP2 POP DUP3 DUP2 DUP2 RETURNDATASIZE DUP4 GT PUSH2 0x1F61 JUMPI JUMPDEST PUSH2 0x1F51 DUP2 DUP4 PUSH2 0x30C2 JUMP JUMPDEST DUP2 ADD SUB SLT PUSH2 0x1318 JUMPI MLOAD SWAP1 DUP4 PUSH2 0x1F32 JUMP JUMPDEST POP RETURNDATASIZE PUSH2 0x1F47 JUMP JUMPDEST DUP3 MLOAD SWAP1 RETURNDATASIZE SWAP1 DUP3 RETURNDATACOPY RETURNDATASIZE SWAP1 REVERT JUMPDEST POP SWAP1 POP CALLVALUE PUSH2 0x411 JUMPI PUSH1 0x20 CALLDATASIZE PUSH1 0x3 NOT ADD SLT PUSH2 0x411 JUMPI DUP1 CALLDATALOAD SWAP1 PUSH2 0x1F9E PUSH1 0x1 DUP1 PUSH1 0xA0 SHL SUB DUP6 SLOAD AND CALLER EQ PUSH2 0x2F9B JUMP JUMPDEST PUSH1 0x64 DUP3 LT ISZERO DUP1 PUSH2 0x2032 JUMPI JUMPDEST ISZERO PUSH2 0x1FF9 JUMPI POP PUSH1 0x0 DUP1 MLOAD PUSH1 0x20 PUSH2 0x389E DUP4 CODECOPY DUP2 MLOAD SWAP2 MSTORE SWAP2 DUP2 PUSH1 0x80 SWAP3 PUSH1 0x5 SSTORE PUSH1 0x16 DUP3 MLOAD SWAP3 DUP1 DUP5 MSTORE DUP4 ADD MSTORE PUSH22 0x6D61696E74656E616E63654D617267696E526174696F PUSH1 0x50 SHL PUSH1 0x60 DUP4 ADD MSTORE PUSH1 0x20 DUP3 ADD MSTORE LOG1 DUP1 RETURN JUMPDEST PUSH1 0x64 SWAP1 PUSH1 0x20 DUP5 MLOAD SWAP2 PUSH3 0x461BCD PUSH1 0xE5 SHL DUP4 MSTORE DUP3 ADD MSTORE PUSH1 0x13 PUSH1 0x24 DUP3 ADD MSTORE PUSH19 0x76414D4D3A20696E76616C696420726174696F PUSH1 0x68 SHL PUSH1 0x44 DUP3 ADD MSTORE REVERT JUMPDEST POP PUSH2 0x7D0 DUP3 GT ISZERO PUSH2 0x1FA9 JUMP JUMPDEST DUP4 DUP3 DUP7 CALLVALUE PUSH2 0x4AD JUMPI PUSH1 0x20 CALLDATASIZE PUSH1 0x3 NOT ADD SLT PUSH2 0x4AD JUMPI DUP2 CALLDATALOAD SWAP2 PUSH2 0x205D PUSH2 0x2EEF JUMP JUMPDEST SWAP2 DUP3 DUP5 LT ISZERO PUSH2 0x2111 JUMPI JUMPDEST PUSH2 0x2079 DUP5 PUSH2 0x2073 PUSH2 0x2A7A JUMP JUMPDEST SWAP5 PUSH2 0x2EE2 JUMP JUMPDEST SWAP1 POP DUP1 PUSH2 0x20A7 JUMPI POP POP PUSH2 0x20A2 PUSH1 0x20 SWAP4 SWAP3 PUSH2 0x2099 PUSH2 0xBB0 SWAP4 PUSH1 0x7 SLOAD SWAP1 PUSH2 0x2E25 JUMP JUMPDEST PUSH1 0x1 SHR SWAP1 PUSH2 0x2C7C JUMP JUMPDEST PUSH2 0x2B6F JUMP JUMPDEST PUSH2 0x20B3 PUSH2 0x20B8 SWAP2 PUSH2 0x2C3A JUMP JUMPDEST PUSH2 0x2B28 JUMP JUMPDEST SWAP1 PUSH8 0xDE0B6B3A7640000 SWAP2 DUP3 ADD SWAP2 DUP3 LT PUSH2 0x20FC JUMPI POP PUSH1 0x20 SWAP4 SWAP3 PUSH2 0x2099 PUSH2 0xBB0 SWAP4 PUSH2 0x20F6 PUSH2 0x20A2 PUSH2 0x20EE PUSH2 0x20A2 SWAP7 PUSH1 0x8 SLOAD SWAP1 PUSH2 0x2C99 JUMP JUMPDEST PUSH1 0x7 SLOAD PUSH2 0x2C7C JUMP JUMPDEST SWAP1 PUSH2 0x2E25 JUMP JUMPDEST PUSH1 0x24 SWAP2 DUP6 MLOAD SWAP2 PUSH4 0x4302C0E3 PUSH1 0xE1 SHL DUP4 MSTORE DUP3 ADD MSTORE REVERT JUMPDEST SWAP3 POP DUP2 SWAP3 PUSH2 0x2067 JUMP JUMPDEST POP POP POP CALLVALUE PUSH2 0x340 JUMPI DUP2 PUSH1 0x3 NOT CALLDATASIZE ADD SLT PUSH2 0x340 JUMPI PUSH1 0x20 SWAP1 PUSH1 0x17 SLOAD SWAP1 MLOAD SWAP1 DUP2 MSTORE RETURN JUMPDEST POP POP POP CALLVALUE PUSH2 0x340 JUMPI PUSH1 0x20 CALLDATASIZE PUSH1 0x3 NOT ADD SLT PUSH2 0x340 JUMPI PUSH2 0x2156 PUSH2 0x2986 JUMP JUMPDEST DUP3 SLOAD PUSH1 0x1 PUSH1 0x1 PUSH1 0xA0 SHL SUB SWAP2 SWAP1 PUSH2 0x216F SWAP1 DUP4 AND CALLER EQ PUSH2 0x2F9B JUMP JUMPDEST AND DUP1 DUP4 MSTORE PUSH1 0x14 PUSH1 0x20 MSTORE SWAP1 DUP3 KECCAK256 DUP1 SLOAD PUSH1 0xFF NOT AND SWAP1 SSTORE PUSH32 0xFAFD0343E6C6F6985727574866DA48938C918559EB9521CF9CC0D317EA0F7B4 DUP3 DUP1 LOG2 DUP1 RETURN JUMPDEST DUP5 DUP3 DUP6 CALLVALUE PUSH2 0x411 JUMPI PUSH1 0x20 DUP1 PUSH1 0x3 NOT CALLDATASIZE ADD SLT PUSH2 0x155D JUMPI DUP3 CALLDATALOAD SWAP2 PUSH2 0x21D1 PUSH1 0xFF PUSH1 0x18 SLOAD AND ISZERO PUSH2 0x2FD9 JUMP JUMPDEST DUP3 DUP6 MSTORE PUSH1 0xF DUP3 MSTORE PUSH2 0x21EA PUSH1 0xFF PUSH1 0x6 DUP4 DUP9 KECCAK256 ADD SLOAD AND PUSH2 0x3014 JUMP JUMPDEST DUP3 DUP6 MSTORE PUSH1 0x11 DUP3 MSTORE DUP1 DUP6 KECCAK256 SLOAD PUSH1 0x1 SLOAD PUSH1 0x5 SLOAD DUP4 MLOAD PUSH4 0x59CFFB9B PUSH1 0xE1 SHL DUP2 MSTORE PUSH1 0x1 PUSH1 0x1 PUSH1 0xA0 SHL SUB SWAP4 DUP5 AND DUP9 DUP3 ADD DUP2 DUP2 MSTORE PUSH1 0x20 DUP2 ADD SWAP4 SWAP1 SWAP4 MSTORE SWAP6 SWAP4 SWAP5 SWAP4 SWAP3 SWAP1 SWAP2 DUP4 SWAP2 DUP4 SWAP2 DUP3 SWAP1 SUB PUSH1 0x40 ADD SWAP1 DUP3 SWAP1 DUP9 AND GAS STATICCALL SWAP1 DUP2 ISZERO PUSH2 0x23E5 JUMPI DUP9 SWAP2 PUSH2 0x23AF JUMPI JUMPDEST POP ISZERO PUSH2 0x2374 JUMPI DUP5 DUP8 MSTORE PUSH1 0xF DUP2 MSTORE DUP2 DUP8 KECCAK256 SWAP1 PUSH1 0x1 DUP3 ADD SLOAD SWAP7 PUSH2 0x2265 PUSH2 0x326B JUMP JUMPDEST PUSH2 0x226E DUP8 PUSH2 0x33B3 JUMP JUMPDEST DUP9 PUSH2 0x2710 PUSH2 0x227D DUP4 SLOAD DUP12 PUSH2 0x2A51 JUMP JUMPDEST DIV SWAP6 PUSH1 0xFF PUSH1 0x2 DUP7 ADD SLOAD AND PUSH1 0x0 EQ PUSH2 0x2360 JUMPI PUSH2 0x229A DUP11 PUSH1 0x15 SLOAD PUSH2 0x30E4 JUMP JUMPDEST PUSH1 0x15 SSTORE JUMPDEST PUSH2 0x22A6 PUSH2 0x30FD JUMP JUMPDEST PUSH1 0x6 PUSH2 0x22B0 PUSH2 0x2A7A JUMP JUMPDEST SWAP6 ADD DUP1 SLOAD PUSH1 0xFF NOT AND SWAP1 SSTORE PUSH2 0x22C4 DUP10 DUP10 PUSH2 0x317A JUMP JUMPDEST PUSH1 0x1 SLOAD AND SWAP2 DUP3 EXTCODESIZE ISZERO PUSH2 0x340 JUMPI DUP6 MLOAD PUSH4 0xBCBAF487 PUSH1 0xE0 SHL DUP2 MSTORE PUSH1 0x1 PUSH1 0x1 PUSH1 0xA0 SHL SUB DUP10 AND SWAP2 DUP2 ADD SWAP2 DUP3 MSTORE PUSH1 0x20 DUP3 ADD DUP9 SWAP1 MSTORE SWAP3 DUP4 SWAP2 DUP3 SWAP1 DUP5 SWAP1 DUP3 SWAP1 PUSH1 0x40 ADD SUB SWAP3 GAS CALL DUP1 ISZERO PUSH2 0x2356 JUMPI PUSH2 0x2343 JUMPI JUMPDEST POP DUP3 MLOAD SWAP7 DUP8 MSTORE DUP7 ADD MSTORE DUP5 ADD MSTORE PUSH32 0xEB125FC2316E55999AAACC483AA145655B8032D8BCE094F8A17174ED9994D9D7 PUSH1 0x60 CALLER SWAP5 LOG4 DUP1 RETURN JUMPDEST PUSH2 0x234F SWAP1 SWAP9 SWAP2 SWAP9 PUSH2 0x3092 JUMP JUMPDEST SWAP7 DUP9 PUSH2 0x230E JUMP JUMPDEST DUP5 MLOAD RETURNDATASIZE DUP12 DUP3 RETURNDATACOPY RETURNDATASIZE SWAP1 REVERT JUMPDEST PUSH2 0x236C DUP11 PUSH1 0x16 SLOAD PUSH2 0x30E4 JUMP JUMPDEST PUSH1 0x16 SSTORE PUSH2 0x229E JUMP JUMPDEST DUP6 SWAP1 PUSH1 0x64 SWAP3 MLOAD SWAP2 PUSH3 0x461BCD PUSH1 0xE5 SHL DUP4 MSTORE DUP3 ADD MSTORE PUSH1 0x16 PUSH1 0x24 DUP3 ADD MSTORE PUSH22 0x76414D4D3A2063616E6E6F74206C6971756964617465 PUSH1 0x50 SHL PUSH1 0x44 DUP3 ADD MSTORE REVERT JUMPDEST SWAP1 POP DUP2 DUP2 DUP2 RETURNDATASIZE DUP4 GT PUSH2 0x23DE JUMPI JUMPDEST PUSH2 0x23C6 DUP2 DUP4 PUSH2 0x30C2 JUMP JUMPDEST DUP2 ADD SUB SLT PUSH2 0xAFD JUMPI MLOAD DUP1 ISZERO ISZERO DUP2 SUB PUSH2 0xAFD JUMPI DUP9 PUSH2 0x2246 JUMP JUMPDEST POP RETURNDATASIZE PUSH2 0x23BC JUMP JUMPDEST DUP4 MLOAD RETURNDATASIZE DUP11 DUP3 RETURNDATACOPY RETURNDATASIZE SWAP1 REVERT JUMPDEST DUP5 CALLVALUE PUSH2 0x4AD JUMPI DUP1 PUSH1 0x3 NOT CALLDATASIZE ADD SLT PUSH2 0x4AD JUMPI PUSH2 0x2414 PUSH1 0x1 DUP1 PUSH1 0xA0 SHL SUB DUP3 SLOAD AND CALLER EQ PUSH2 0x2F9B JUMP JUMPDEST PUSH1 0xFF NOT PUSH1 0x18 SLOAD AND PUSH1 0x18 SSTORE PUSH32 0xA45F47FDEA8A1EFDD9029A5691C7F759C32B7C698632B563573E155625D16933 DUP2 DUP1 LOG1 DUP1 RETURN JUMPDEST POP POP POP CALLVALUE PUSH2 0x340 JUMPI DUP2 PUSH1 0x3 NOT CALLDATASIZE ADD SLT PUSH2 0x340 JUMPI PUSH1 0x20 SWAP1 MLOAD PUSH1 0x1 DUP2 MSTORE RETURN JUMPDEST POP POP POP CALLVALUE PUSH2 0x340 JUMPI DUP2 PUSH1 0x3 NOT CALLDATASIZE ADD SLT PUSH2 0x340 JUMPI PUSH1 0x20 SWAP1 PUSH1 0x8 SLOAD SWAP1 MLOAD SWAP1 DUP2 MSTORE RETURN JUMPDEST SWAP2 POP SWAP2 CALLVALUE PUSH2 0x155D JUMPI PUSH1 0x20 DUP1 PUSH1 0x3 NOT CALLDATASIZE ADD SLT PUSH2 0x18D7 JUMPI PUSH1 0x1 PUSH1 0x1 PUSH1 0xA0 SHL SUB PUSH2 0x24A7 PUSH2 0x2986 JUMP JUMPDEST AND DUP6 MSTORE PUSH1 0x10 DUP2 MSTORE DUP2 DUP6 KECCAK256 DUP3 MLOAD DUP1 DUP3 DUP5 DUP3 SWAP5 SLOAD SWAP4 DUP5 DUP2 MSTORE ADD SWAP1 DUP10 MSTORE DUP5 DUP10 KECCAK256 SWAP3 DUP10 JUMPDEST DUP7 DUP3 DUP3 LT PUSH2 0x269C JUMPI POP POP POP PUSH2 0x24DE SWAP3 POP SUB DUP3 PUSH2 0x30C2 JUMP JUMPDEST DUP6 SWAP4 DUP7 JUMPDEST DUP3 MLOAD DUP2 LT ISZERO PUSH2 0x252E JUMPI PUSH2 0x24F5 DUP2 DUP5 PUSH2 0x3589 JUMP JUMPDEST MLOAD DUP9 MSTORE PUSH1 0xF DUP5 MSTORE PUSH1 0xFF PUSH1 0x6 DUP7 DUP11 KECCAK256 ADD SLOAD AND PUSH2 0x2519 JUMPI JUMPDEST PUSH2 0x2514 SWAP1 PUSH2 0x2E16 JUMP JUMPDEST PUSH2 0x24E2 JUMP JUMPDEST SWAP5 PUSH2 0x2526 PUSH2 0x2514 SWAP2 PUSH2 0x2E16 JUMP JUMPDEST SWAP6 SWAP1 POP PUSH2 0x250B JUMP JUMPDEST POP SWAP5 SWAP1 DUP7 SWAP4 SWAP5 PUSH2 0x253D DUP2 PUSH2 0x359D JUMP JUMPDEST SWAP1 PUSH2 0x254A DUP8 MLOAD SWAP3 DUP4 PUSH2 0x30C2 JUMP JUMPDEST DUP1 DUP3 MSTORE PUSH2 0x2559 PUSH1 0x1F NOT SWAP2 PUSH2 0x359D JUMP JUMPDEST ADD DUP5 DUP7 JUMPDEST DUP3 DUP2 LT PUSH2 0x2686 JUMPI POP POP POP DUP5 SWAP4 DUP6 JUMPDEST DUP4 MLOAD DUP2 LT ISZERO PUSH2 0x2638 JUMPI PUSH2 0x257E DUP2 DUP6 PUSH2 0x3589 JUMP JUMPDEST MLOAD DUP8 MSTORE PUSH1 0xF DUP1 DUP4 MSTORE PUSH1 0xFF PUSH1 0x6 SWAP2 DUP2 DUP4 DUP13 DUP13 KECCAK256 ADD SLOAD AND PUSH2 0x25A9 JUMPI JUMPDEST POP POP POP PUSH2 0x25A4 SWAP1 PUSH2 0x2E16 JUMP JUMPDEST PUSH2 0x256B JUMP JUMPDEST SWAP2 DUP4 SWAP9 SWAP2 PUSH2 0x262F SWAP4 PUSH2 0x25BE PUSH2 0x25A4 SWAP7 DUP11 PUSH2 0x3589 JUMP JUMPDEST MLOAD DUP13 MSTORE DUP7 MSTORE DUP12 DUP12 KECCAK256 SWAP2 DUP13 MLOAD SWAP3 PUSH2 0x25D3 DUP5 PUSH2 0x3060 JUMP JUMPDEST DUP1 SLOAD DUP5 MSTORE PUSH1 0x1 DUP2 ADD SLOAD DUP9 DUP6 ADD MSTORE PUSH1 0x2 DUP2 ADD SLOAD DUP4 AND ISZERO ISZERO DUP15 DUP6 ADD MSTORE PUSH1 0x3 DUP2 ADD SLOAD PUSH1 0x60 DUP6 ADD MSTORE DUP11 DUP2 ADD SLOAD PUSH1 0x80 DUP6 ADD MSTORE PUSH1 0x5 DUP2 ADD SLOAD PUSH1 0xA0 DUP6 ADD MSTORE ADD SLOAD AND ISZERO ISZERO PUSH1 0xC0 DUP3 ADD MSTORE PUSH2 0x261E DUP3 DUP8 PUSH2 0x3589 JUMP JUMPDEST MSTORE PUSH2 0x2629 DUP2 DUP7 PUSH2 0x3589 JUMP JUMPDEST POP PUSH2 0x2E16 JUMP JUMPDEST SWAP6 SWAP1 DUP11 DUP1 PUSH2 0x2598 JUMP JUMPDEST DUP8 MLOAD DUP3 DUP2 MSTORE DUP4 MLOAD DUP2 DUP5 ADD DUP2 SWAP1 MSTORE DUP2 SWAP1 DUP2 DUP12 ADD SWAP1 DUP7 DUP7 ADD SWAP1 DUP7 DUP13 DUP16 JUMPDEST DUP4 DUP3 LT PUSH2 0x2660 JUMPI DUP7 DUP7 SUB DUP8 RETURN JUMPDEST SWAP2 DUP5 SWAP7 POP DUP3 DUP7 PUSH2 0x2676 PUSH1 0x1 SWAP5 SWAP7 SWAP9 DUP5 SWAP9 MLOAD PUSH2 0x29B2 JUMP JUMPDEST ADD SWAP7 ADD SWAP3 ADD DUP7 SWAP6 SWAP5 SWAP3 SWAP4 SWAP2 PUSH2 0x2653 JUMP JUMPDEST PUSH2 0x268E PUSH2 0x3505 JUMP JUMPDEST DUP3 DUP3 DUP7 ADD ADD MSTORE ADD DUP6 SWAP1 PUSH2 0x255D JUMP JUMPDEST DUP6 SLOAD DUP5 MSTORE PUSH1 0x1 SWAP6 DUP7 ADD SWAP6 DUP8 SWAP6 POP SWAP4 ADD SWAP3 ADD PUSH2 0x24C7 JUMP JUMPDEST DUP5 CALLVALUE PUSH2 0x4AD JUMPI DUP1 PUSH1 0x3 NOT CALLDATASIZE ADD SLT PUSH2 0x4AD JUMPI PUSH2 0x26CB PUSH2 0x326B JUMP JUMPDEST DUP1 RETURN JUMPDEST SWAP1 DUP4 DUP6 CALLVALUE PUSH2 0x4AD JUMPI DUP2 PUSH1 0x3 NOT CALLDATASIZE ADD SLT PUSH2 0x4AD JUMPI SWAP1 PUSH1 0xFF PUSH1 0x6 DUP3 PUSH2 0x7F7 SWAP5 PUSH2 0x26F3 PUSH2 0x2986 JUMP JUMPDEST PUSH2 0x2722 PUSH1 0x24 CALLDATALOAD SWAP2 PUSH2 0x2702 PUSH2 0x3505 JUMP JUMPDEST POP DUP3 DUP5 MSTORE PUSH1 0x11 PUSH1 0x20 MSTORE DUP5 DUP5 KECCAK256 SLOAD PUSH1 0x1 PUSH1 0x1 PUSH1 0xA0 SHL SUB SWAP2 DUP3 AND SWAP2 AND EQ PUSH2 0x353D JUMP JUMPDEST DUP2 MSTORE PUSH1 0xF PUSH1 0x20 MSTORE KECCAK256 DUP4 MLOAD SWAP6 PUSH2 0x7AE DUP8 PUSH2 0x3060 JUMP JUMPDEST DUP4 DUP6 CALLVALUE PUSH2 0x4AD JUMPI PUSH1 0x20 CALLDATASIZE PUSH1 0x3 NOT ADD SLT PUSH2 0x4AD JUMPI POP PUSH2 0x7F7 PUSH2 0x275D PUSH2 0x2758 PUSH2 0x2986 JUMP JUMPDEST PUSH2 0x370B JUMP JUMPDEST SWAP2 MLOAD DUP1 SWAP3 PUSH2 0x29B2 JUMP JUMPDEST POP SWAP1 POP CALLVALUE PUSH2 0x411 JUMPI PUSH2 0x2777 CALLDATASIZE PUSH2 0x299C JUMP JUMPDEST PUSH2 0x278E PUSH1 0x1 DUP1 PUSH1 0xA0 SWAP6 SWAP5 SWAP6 SHL SUB DUP7 SLOAD AND CALLER EQ PUSH2 0x2F9B JUMP JUMPDEST DUP3 ISZERO PUSH2 0x2818 JUMPI ISZERO PUSH2 0x27DC JUMPI POP DUP2 PUSH1 0x80 SWAP2 PUSH1 0x12 PUSH1 0x0 DUP1 MLOAD PUSH1 0x20 PUSH2 0x389E DUP4 CODECOPY DUP2 MLOAD SWAP2 MSTORE SWAP5 MLOAD SWAP3 DUP1 DUP5 MSTORE DUP4 ADD MSTORE PUSH18 0x626F6E64696E674375727665506172616D73 PUSH1 0x70 SHL PUSH1 0x60 DUP4 ADD MSTORE PUSH1 0x20 DUP3 ADD MSTORE LOG1 DUP1 RETURN JUMPDEST PUSH1 0x64 SWAP1 PUSH1 0x20 DUP5 MLOAD SWAP2 PUSH3 0x461BCD PUSH1 0xE5 SHL DUP4 MSTORE DUP3 ADD MSTORE PUSH1 0x16 PUSH1 0x24 DUP3 ADD MSTORE PUSH22 0x1D9053534E881A5B9D985B1A5908195E1C1BDB995B9D PUSH1 0x52 SHL PUSH1 0x44 DUP3 ADD MSTORE REVERT JUMPDEST DUP4 MLOAD PUSH3 0x461BCD PUSH1 0xE5 SHL DUP2 MSTORE PUSH1 0x20 DUP2 DUP5 ADD MSTORE PUSH1 0x17 PUSH1 0x24 DUP3 ADD MSTORE PUSH32 0x76414D4D3A20696E76616C69642073746565706E657373000000000000000000 PUSH1 0x44 DUP3 ADD MSTORE PUSH1 0x64 SWAP1 REVERT JUMPDEST POP DUP3 DUP5 CALLVALUE PUSH2 0x4AD JUMPI PUSH1 0x20 CALLDATASIZE PUSH1 0x3 NOT ADD SLT PUSH2 0x4AD JUMPI DUP3 CALLDATALOAD SWAP1 PUSH2 0x287A PUSH2 0x2EEF JUMP JUMPDEST SWAP1 PUSH2 0x2898 PUSH2 0x20B3 PUSH2 0x2893 DUP6 PUSH2 0x288D PUSH2 0x2A7A JUMP JUMPDEST SWAP6 PUSH2 0x2E25 JUMP JUMPDEST PUSH2 0x2C3A JUMP JUMPDEST PUSH8 0xDE0B6B3A7640000 SWAP1 DUP2 ADD SWAP1 DUP2 LT PUSH2 0x291B JUMPI PUSH1 0x8 SLOAD PUSH2 0x28B7 SWAP2 PUSH2 0x2C99 JUMP JUMPDEST SWAP1 PUSH2 0x28C8 PUSH2 0x20A2 PUSH1 0x7 SLOAD SWAP4 DUP5 PUSH2 0x2C7C JUMP JUMPDEST SWAP1 PUSH2 0x2710 SWAP3 DUP4 DUP2 MUL SWAP4 DUP2 DUP6 DIV EQ SWAP1 ISZERO OR ISZERO PUSH2 0x2908 JUMPI PUSH2 0xBB0 SWAP4 PUSH2 0x20A2 SWAP4 PUSH1 0x20 SWAP8 SWAP7 SWAP4 PUSH2 0x2099 SWAP4 POP DUP2 DUP2 GT PUSH1 0x0 EQ PUSH2 0x2900 JUMPI POP SWAP1 PUSH2 0x2E25 JUMP JUMPDEST SWAP1 POP SWAP1 PUSH2 0x2E25 JUMP JUMPDEST PUSH4 0x4E487B71 PUSH1 0xE0 SHL DUP2 MSTORE PUSH1 0x11 DUP8 MSTORE PUSH1 0x24 SWAP1 REVERT JUMPDEST DUP6 PUSH1 0x24 SWAP2 DUP7 MLOAD SWAP2 PUSH4 0x4302C0E3 PUSH1 0xE1 SHL DUP4 MSTORE DUP3 ADD MSTORE REVERT JUMPDEST POP DUP3 DUP5 CALLVALUE PUSH2 0x4AD JUMPI PUSH1 0x20 CALLDATASIZE PUSH1 0x3 NOT ADD SLT PUSH2 0x4AD JUMPI POP PUSH2 0xBB0 PUSH1 0x20 SWAP3 CALLDATALOAD PUSH2 0x35B5 JUMP JUMPDEST DUP6 SWAP1 DUP6 CALLVALUE PUSH2 0x411 JUMPI PUSH1 0x20 CALLDATASIZE PUSH1 0x3 NOT ADD SLT PUSH2 0x411 JUMPI PUSH1 0x20 SWAP3 PUSH1 0x1 PUSH1 0x1 PUSH1 0xA0 SHL SUB PUSH2 0x2979 PUSH2 0x2986 JUMP JUMPDEST AND DUP2 MSTORE PUSH1 0x12 DUP5 MSTORE KECCAK256 SLOAD DUP2 MSTORE RETURN JUMPDEST PUSH1 0x4 CALLDATALOAD SWAP1 PUSH1 0x1 PUSH1 0x1 PUSH1 0xA0 SHL SUB DUP3 AND DUP3 SUB PUSH2 0x1318 JUMPI JUMP JUMPDEST PUSH1 0x40 SWAP1 PUSH1 0x3 NOT ADD SLT PUSH2 0x1318 JUMPI PUSH1 0x4 CALLDATALOAD SWAP1 PUSH1 0x24 CALLDATALOAD SWAP1 JUMP JUMPDEST PUSH1 0xC0 DUP1 SWAP2 DUP1 MLOAD DUP5 MSTORE PUSH1 0x20 DUP2 ADD MLOAD PUSH1 0x20 DUP6 ADD MSTORE PUSH1 0x40 DUP2 ADD MLOAD ISZERO ISZERO PUSH1 0x40 DUP6 ADD MSTORE PUSH1 0x60 DUP2 ADD MLOAD PUSH1 0x60 DUP6 ADD MSTORE PUSH1 0x80 DUP2 ADD MLOAD PUSH1 0x80 DUP6 ADD MSTORE PUSH1 0xA0 DUP2 ADD MLOAD PUSH1 0xA0 DUP6 ADD MSTORE ADD MLOAD ISZERO ISZERO SWAP2 ADD MSTORE JUMP JUMPDEST PUSH1 0x24 CALLDATALOAD SWAP1 DUP2 ISZERO ISZERO DUP3 SUB PUSH2 0x1318 JUMPI JUMP JUMPDEST CALLVALUE PUSH2 0x1318 JUMPI PUSH1 0x0 CALLDATASIZE PUSH1 0x3 NOT ADD SLT PUSH2 0x1318 JUMPI PUSH1 0x20 PUSH1 0x40 MLOAD PUSH2 0x2710 DUP2 MSTORE RETURN JUMPDEST DUP1 SLOAD DUP3 LT ISZERO PUSH2 0x2A3B JUMPI PUSH1 0x0 MSTORE PUSH1 0x20 PUSH1 0x0 KECCAK256 ADD SWAP1 PUSH1 0x0 SWAP1 JUMP JUMPDEST PUSH4 0x4E487B71 PUSH1 0xE0 SHL PUSH1 0x0 MSTORE PUSH1 0x32 PUSH1 0x4 MSTORE PUSH1 0x24 PUSH1 0x0 REVERT JUMPDEST DUP2 DUP2 MUL SWAP3 SWAP2 DUP2 ISZERO SWAP2 DUP5 DIV EQ OR ISZERO PUSH2 0x2A64 JUMPI JUMP JUMPDEST PUSH4 0x4E487B71 PUSH1 0xE0 SHL PUSH1 0x0 MSTORE PUSH1 0x11 PUSH1 0x4 MSTORE PUSH1 0x24 PUSH1 0x0 REVERT JUMPDEST PUSH2 0x2A82 PUSH2 0x2EEF JUMP JUMPDEST DUP1 ISZERO PUSH2 0x2B01 JUMPI PUSH2 0x20B3 PUSH2 0x2A94 SWAP2 PUSH2 0x2C3A JUMP JUMPDEST PUSH8 0xDE0B6B3A7640000 SWAP1 DUP2 ADD SWAP1 DUP2 LT PUSH2 0x2AE9 JUMPI PUSH1 0x8 SLOAD PUSH2 0x2AB3 SWAP2 PUSH2 0x2C99 JUMP JUMPDEST PUSH1 0x7 SLOAD SWAP1 PUSH2 0x2710 SWAP2 DUP3 DUP2 MUL SWAP3 DUP2 DUP5 DIV EQ DUP2 ISZERO OR ISZERO PUSH2 0x2A64 JUMPI PUSH2 0x2AD8 SWAP2 PUSH2 0x20A2 SWAP2 PUSH2 0x2C7C JUMP JUMPDEST DUP2 DUP2 GT ISZERO PUSH2 0x2AE4 JUMPI POP SWAP1 JUMP JUMPDEST SWAP1 POP SWAP1 JUMP JUMPDEST PUSH1 0x24 SWAP1 PUSH1 0x40 MLOAD SWAP1 PUSH4 0x4302C0E3 PUSH1 0xE1 SHL DUP3 MSTORE PUSH1 0x4 DUP3 ADD MSTORE REVERT JUMPDEST POP PUSH1 0x7 SLOAD SWAP1 JUMP JUMPDEST DUP2 ISZERO PUSH2 0x2B12 JUMPI DIV SWAP1 JUMP JUMPDEST PUSH4 0x4E487B71 PUSH1 0xE0 SHL PUSH1 0x0 MSTORE PUSH1 0x12 PUSH1 0x4 MSTORE PUSH1 0x24 PUSH1 0x0 REVERT JUMPDEST PUSH8 0xDE0B6B3A7640000 SWAP1 DUP2 DUP2 MUL SWAP2 DUP2 ISZERO DUP3 DUP5 DIV DUP3 EQ DUP2 OR ISZERO PUSH2 0x2A64 JUMPI ISZERO SWAP2 DUP3 PUSH2 0x2B5A JUMPI JUMPDEST POP POP PUSH2 0x2AE9 JUMPI PUSH2 0x3E8 SWAP1 DIV SWAP1 JUMP JUMPDEST PUSH2 0x2B66 SWAP2 SWAP3 POP DUP4 PUSH2 0x2B08 JUMP JUMPDEST EQ ISZERO CODESIZE DUP1 PUSH2 0x2B4C JUMP JUMPDEST PUSH8 0xDE0B6B3A7640000 SWAP1 DUP2 DUP2 MUL SWAP1 DUP1 ISZERO DUP2 DUP4 DIV DUP5 EQ DUP2 OR ISZERO PUSH2 0x2A64 JUMPI DUP4 SWAP1 ISZERO SWAP2 DUP3 PUSH2 0x2B9F JUMPI JUMPDEST POP POP PUSH2 0x2AE9 JUMPI DIV SWAP1 JUMP JUMPDEST PUSH2 0x2BAB SWAP2 SWAP3 POP DUP4 PUSH2 0x2B08 JUMP JUMPDEST EQ ISZERO DUP3 CODESIZE PUSH2 0x2B95 JUMP JUMPDEST SWAP2 SWAP1 DUP1 ISZERO PUSH2 0x2C21 JUMPI PUSH8 0xDE0B6B3A7640000 SWAP3 DUP4 DUP2 MUL SWAP4 DUP2 ISZERO DUP3 DUP7 DIV DUP3 EQ DUP2 OR ISZERO PUSH2 0x2A64 JUMPI ISZERO SWAP2 DUP3 PUSH2 0x2C0C JUMPI JUMPDEST POP POP PUSH2 0x2BF3 JUMPI PUSH2 0x2BF0 SWAP2 SWAP3 PUSH2 0x2B08 JUMP JUMPDEST SWAP1 JUMP JUMPDEST PUSH1 0x40 MLOAD PUSH4 0x4302C0E3 PUSH1 0xE1 SHL DUP2 MSTORE PUSH1 0x4 DUP2 ADD DUP5 SWAP1 MSTORE PUSH1 0x24 SWAP1 REVERT JUMPDEST PUSH2 0x2C18 SWAP2 SWAP3 POP DUP6 PUSH2 0x2B08 JUMP JUMPDEST EQ ISZERO CODESIZE DUP1 PUSH2 0x2BE0 JUMP JUMPDEST PUSH1 0x40 MLOAD PUSH4 0x4302C0E3 PUSH1 0xE1 SHL DUP2 MSTORE PUSH1 0x0 PUSH1 0x4 DUP3 ADD MSTORE PUSH1 0x24 SWAP1 REVERT JUMPDEST PUSH8 0xDE0B6B3A7640000 SWAP1 DUP2 DUP2 MUL SWAP2 DUP2 ISZERO DUP3 DUP5 DIV DUP3 EQ DUP2 OR ISZERO PUSH2 0x2A64 JUMPI ISZERO SWAP2 DUP3 PUSH2 0x2C67 JUMPI JUMPDEST POP POP PUSH2 0x2AE9 JUMPI SWAP1 JUMP JUMPDEST PUSH2 0x2C73 SWAP2 SWAP3 POP DUP4 PUSH2 0x2B08 JUMP JUMPDEST EQ ISZERO CODESIZE DUP1 PUSH2 0x2C5E JUMP JUMPDEST PUSH2 0x2C86 DUP3 DUP3 PUSH2 0x2A51 JUMP JUMPDEST SWAP2 DUP2 ISZERO ISZERO SWAP2 DUP3 PUSH2 0x2C67 JUMPI POP POP PUSH2 0x2AE9 JUMPI SWAP1 JUMP JUMPDEST DUP1 PUSH2 0x2CB3 JUMPI POP PUSH1 0x0 SWAP1 PUSH2 0x2BF0 JUMPI POP PUSH8 0xDE0B6B3A7640000 SWAP1 JUMP JUMPDEST PUSH8 0xDE0B6B3A7640000 SWAP1 PUSH1 0x0 DUP3 DUP3 LT ISZERO PUSH2 0x2D7B JUMPI POP DUP1 DUP3 SUB SWAP1 DUP3 DUP3 GT PUSH2 0x2A64 JUMPI DUP3 ADD SWAP2 DUP3 LT PUSH2 0x2D62 JUMPI SWAP1 PUSH2 0x2CE6 SWAP2 PUSH2 0x2BB4 JUMP JUMPDEST PUSH2 0x2CF0 DUP2 DUP1 PUSH2 0x2C7C JUMP JUMPDEST PUSH1 0x1 SWAP2 DUP1 SWAP3 DUP1 SWAP3 JUMPDEST PUSH1 0x5 DUP5 LT PUSH2 0x2D22 JUMPI POP POP POP POP PUSH1 0x1 SHL DUP1 PUSH2 0x2A64 JUMPI PUSH2 0x2BF0 SWAP2 PUSH2 0x2D1D SWAP2 PUSH1 0x0 SUB SWAP1 PUSH2 0x2C7C JUMP JUMPDEST PUSH2 0x2E32 JUMP JUMPDEST SWAP1 SWAP2 SWAP3 SWAP4 PUSH1 0x2 DUP4 ADD DUP1 SWAP4 GT PUSH2 0x2A64 JUMPI PUSH2 0x2D55 PUSH2 0x2D5B SWAP2 PUSH2 0x20F6 PUSH2 0x2D4F PUSH2 0x2D49 DUP7 DUP9 SWAP10 PUSH2 0x2C7C JUMP JUMPDEST SWAP7 PUSH2 0x2EA5 JUMP JUMPDEST DUP7 PUSH2 0x2BB4 JUMP JUMPDEST SWAP5 PUSH2 0x2E16 JUMP JUMPDEST SWAP3 SWAP1 PUSH2 0x2CF8 JUMP JUMPDEST PUSH1 0x40 MLOAD PUSH4 0x4302C0E3 PUSH1 0xE1 SHL DUP2 MSTORE PUSH1 0x4 DUP2 ADD DUP4 SWAP1 MSTORE PUSH1 0x24 SWAP1 REVERT JUMPDEST SWAP1 SWAP2 PUSH8 0xDE0B6B3A763FFFF NOT DUP4 ADD SWAP2 DUP4 DUP4 GT PUSH2 0x2E02 JUMPI POP DUP3 ADD SWAP2 DUP3 LT PUSH2 0x2D62 JUMPI SWAP1 PUSH2 0x2DA5 SWAP2 PUSH2 0x2BB4 JUMP JUMPDEST PUSH2 0x2DAF DUP2 DUP1 PUSH2 0x2C7C JUMP JUMPDEST PUSH1 0x1 SWAP2 DUP1 SWAP3 DUP1 SWAP3 JUMPDEST PUSH1 0x5 DUP5 LT PUSH2 0x2DD4 JUMPI POP POP POP POP PUSH2 0x2BF0 SWAP2 PUSH2 0x2D1D SWAP2 PUSH1 0x1 SHL SWAP1 PUSH2 0x2C7C JUMP JUMPDEST SWAP1 SWAP2 SWAP3 SWAP4 PUSH1 0x2 DUP4 ADD DUP1 SWAP4 GT PUSH2 0x2A64 JUMPI PUSH2 0x2D55 PUSH2 0x2DFB SWAP2 PUSH2 0x20F6 PUSH2 0x2D4F PUSH2 0x2D49 DUP7 DUP9 SWAP10 PUSH2 0x2C7C JUMP JUMPDEST SWAP3 SWAP1 PUSH2 0x2DB7 JUMP JUMPDEST PUSH4 0x4E487B71 PUSH1 0xE0 SHL DUP2 MSTORE PUSH1 0x11 PUSH1 0x4 MSTORE PUSH1 0x24 SWAP1 REVERT JUMPDEST PUSH1 0x0 NOT DUP2 EQ PUSH2 0x2A64 JUMPI PUSH1 0x1 ADD SWAP1 JUMP JUMPDEST SWAP2 SWAP1 DUP3 ADD DUP1 SWAP3 GT PUSH2 0x2A64 JUMPI JUMP JUMPDEST SWAP1 PUSH9 0x755BF798B4A1BF1E5 DUP3 GT PUSH2 0x2D62 JUMPI DUP2 ISZERO PUSH2 0x2E98 JUMPI PUSH8 0xDE0B6B3A7640000 SWAP2 DUP1 PUSH1 0x2 SWAP2 JUMPDEST PUSH1 0xC DUP4 GT ISZERO PUSH2 0x2E66 JUMPI POP POP POP JUMP JUMPDEST PUSH2 0x2D55 PUSH2 0x2E8B PUSH2 0x2E7C DUP5 PUSH2 0x2E92 SWAP5 SWAP9 SWAP7 SWAP9 PUSH2 0x2C7C JUMP JUMPDEST PUSH2 0x2E85 DUP9 PUSH2 0x2EA5 JUMP JUMPDEST SWAP1 PUSH2 0x2BB4 JUMP JUMPDEST DUP1 SWAP5 PUSH2 0x2E25 JUMP JUMPDEST SWAP2 PUSH2 0x2E58 JUMP JUMPDEST PUSH8 0xDE0B6B3A7640000 SWAP2 POP JUMP JUMPDEST PUSH25 0x12725DD1D243ABA0E75FE645CC4873F9E65AFE688C928E1F21 DUP2 GT PUSH2 0x2AE9 JUMPI PUSH8 0xDE0B6B3A7640000 SWAP1 DUP2 DUP2 MUL SWAP2 DUP2 DUP4 DIV EQ SWAP1 ISZERO OR ISZERO PUSH2 0x2A64 JUMPI SWAP1 JUMP JUMPDEST SWAP2 SWAP1 DUP3 SUB SWAP2 DUP3 GT PUSH2 0x2A64 JUMPI JUMP JUMPDEST PUSH1 0x15 SLOAD PUSH1 0x0 DUP1 DUP3 SGT ISZERO PUSH2 0x2AE4 JUMPI POP SWAP1 JUMP JUMPDEST SWAP1 ISZERO PUSH2 0x2F95 JUMPI PUSH2 0x2F25 PUSH2 0x20B3 PUSH2 0x2893 PUSH2 0x2F17 PUSH2 0x2A7A JUMP JUMPDEST SWAP4 PUSH2 0x2F20 PUSH2 0x2EEF JUMP JUMPDEST PUSH2 0x2E25 JUMP JUMPDEST PUSH8 0xDE0B6B3A7640000 SWAP1 DUP2 ADD SWAP1 DUP2 LT PUSH2 0x2AE9 JUMPI PUSH1 0x8 SLOAD PUSH2 0x2F44 SWAP2 PUSH2 0x2C99 JUMP JUMPDEST PUSH2 0x2F54 PUSH2 0x20A2 PUSH1 0x7 SLOAD SWAP3 DUP4 PUSH2 0x2C7C JUMP JUMPDEST PUSH2 0x2710 SWAP2 DUP3 DUP2 MUL SWAP3 DUP2 DUP5 DIV EQ SWAP1 ISZERO OR ISZERO PUSH2 0x2A64 JUMPI DUP2 DUP2 GT ISZERO PUSH2 0x2F8D JUMPI POP SWAP1 JUMPDEST PUSH1 0x0 SWAP2 DUP2 DUP2 GT ISZERO PUSH2 0x2F88 JUMPI PUSH2 0x2BF0 SWAP3 POP PUSH2 0x2EE2 JUMP JUMPDEST POP POP SWAP1 JUMP JUMPDEST SWAP1 POP SWAP1 PUSH2 0x2F73 JUMP JUMPDEST POP PUSH1 0x0 SWAP1 JUMP JUMPDEST ISZERO PUSH2 0x2FA2 JUMPI JUMP JUMPDEST PUSH1 0x40 MLOAD PUSH3 0x461BCD PUSH1 0xE5 SHL DUP2 MSTORE PUSH1 0x20 PUSH1 0x4 DUP3 ADD MSTORE PUSH1 0xF PUSH1 0x24 DUP3 ADD MSTORE PUSH15 0x3B20A6A69D103737BA1037BBB732B9 PUSH1 0x89 SHL PUSH1 0x44 DUP3 ADD MSTORE PUSH1 0x64 SWAP1 REVERT JUMPDEST ISZERO PUSH2 0x2FE0 JUMPI JUMP JUMPDEST PUSH1 0x40 MLOAD PUSH3 0x461BCD PUSH1 0xE5 SHL DUP2 MSTORE PUSH1 0x20 PUSH1 0x4 DUP3 ADD MSTORE PUSH1 0xC PUSH1 0x24 DUP3 ADD MSTORE PUSH12 0x1D9053534E881C185D5CD959 PUSH1 0xA2 SHL PUSH1 0x44 DUP3 ADD MSTORE PUSH1 0x64 SWAP1 REVERT JUMPDEST ISZERO PUSH2 0x301B JUMPI JUMP JUMPDEST PUSH1 0x40 MLOAD PUSH3 0x461BCD PUSH1 0xE5 SHL DUP2 MSTORE PUSH1 0x20 PUSH1 0x4 DUP3 ADD MSTORE PUSH1 0x19 PUSH1 0x24 DUP3 ADD MSTORE PUSH32 0x76414D4D3A20706F736974696F6E206E6F742061637469766500000000000000 PUSH1 0x44 DUP3 ADD MSTORE PUSH1 0x64 SWAP1 REVERT JUMPDEST PUSH1 0xE0 DUP2 ADD SWAP1 DUP2 LT PUSH8 0xFFFFFFFFFFFFFFFF DUP3 GT OR PUSH2 0x307C JUMPI PUSH1 0x40 MSTORE JUMP JUMPDEST PUSH4 0x4E487B71 PUSH1 0xE0 SHL PUSH1 0x0 MSTORE PUSH1 0x41 PUSH1 0x4 MSTORE PUSH1 0x24 PUSH1 0x0 REVERT JUMPDEST PUSH8 0xFFFFFFFFFFFFFFFF DUP2 GT PUSH2 0x307C JUMPI PUSH1 0x40 MSTORE JUMP JUMPDEST PUSH1 0x80 DUP2 ADD SWAP1 DUP2 LT PUSH8 0xFFFFFFFFFFFFFFFF DUP3 GT OR PUSH2 0x307C JUMPI PUSH1 0x40 MSTORE JUMP JUMPDEST SWAP1 PUSH1 0x1F DUP1 NOT SWAP2 ADD AND DUP2 ADD SWAP1 DUP2 LT PUSH8 0xFFFFFFFFFFFFFFFF DUP3 GT OR PUSH2 0x307C JUMPI PUSH1 0x40 MSTORE JUMP JUMPDEST DUP2 DUP2 SUB SWAP3 SWAP2 PUSH1 0x0 SGT DUP1 ISZERO DUP3 DUP6 SGT AND SWAP2 DUP5 SLT AND OR PUSH2 0x2A64 JUMPI JUMP JUMPDEST PUSH32 0x1551B5180CE27B1B0D183046BBF7F4ED792368FA907DCAA0E08D22C5E8B14512 PUSH1 0x60 PUSH2 0x3128 PUSH2 0x2A7A JUMP JUMPDEST PUSH2 0x3130 PUSH2 0x2EEF JUMP JUMPDEST DUP1 ISZERO PUSH2 0x3167 JUMPI PUSH8 0xDE0B6B3A7640000 PUSH2 0x314E DUP4 DUP4 JUMPDEST DUP1 PUSH1 0x9 SSTORE PUSH2 0x2A51 JUMP JUMPDEST DIV PUSH1 0xA SSTORE PUSH1 0x40 MLOAD SWAP2 DUP3 MSTORE PUSH1 0x20 DUP3 ADD MSTORE PUSH1 0x0 PUSH1 0x40 DUP3 ADD MSTORE LOG1 JUMP JUMPDEST PUSH8 0xDE0B6B3A7640000 PUSH2 0x314E DUP4 DUP3 PUSH2 0x3145 JUMP JUMPDEST PUSH1 0x1 PUSH1 0x1 PUSH1 0xA0 SHL SUB AND PUSH1 0x0 SWAP1 DUP2 MSTORE PUSH1 0x10 PUSH1 0x20 MSTORE PUSH1 0x40 DUP2 KECCAK256 SWAP1 SWAP2 SWAP1 DUP3 JUMPDEST DUP2 SLOAD DUP1 DUP3 LT ISZERO PUSH2 0x3248 JUMPI DUP4 SWAP1 PUSH2 0x31AC DUP4 DUP6 PUSH2 0x2A23 JUMP JUMPDEST SWAP3 SWAP1 SLOAD PUSH1 0x3 SWAP4 DUP5 SHL SHR EQ PUSH2 0x31CA JUMPI POP POP PUSH2 0x31C5 SWAP1 PUSH2 0x2E16 JUMP JUMPDEST PUSH2 0x3196 JUMP JUMPDEST SWAP3 SWAP4 POP SWAP4 SWAP1 PUSH1 0x0 NOT SWAP3 DUP4 DUP2 ADD SWAP1 DUP2 GT PUSH2 0x3234 JUMPI SWAP1 PUSH2 0xA39 PUSH2 0x31EE PUSH2 0x31FB SWAP4 DUP8 PUSH2 0x2A23 JUMP JUMPDEST SWAP1 SLOAD SWAP1 DUP9 SHL SHR SWAP2 DUP7 PUSH2 0x2A23 JUMP JUMPDEST DUP3 SLOAD SWAP1 DUP2 ISZERO PUSH2 0x3220 JUMPI POP DUP2 ADD SWAP3 PUSH2 0x3212 DUP5 DUP5 PUSH2 0x2A23 JUMP JUMPDEST DUP2 SWAP4 SWAP2 SLOAD SWAP3 SHL SHL NOT AND SWAP1 SSTORE SSTORE JUMP JUMPDEST PUSH4 0x4E487B71 PUSH1 0xE0 SHL DUP2 MSTORE PUSH1 0x31 PUSH1 0x4 MSTORE PUSH1 0x24 SWAP1 REVERT JUMPDEST PUSH4 0x4E487B71 PUSH1 0xE0 SHL DUP4 MSTORE PUSH1 0x11 PUSH1 0x4 MSTORE PUSH1 0x24 DUP4 REVERT JUMPDEST POP POP POP POP POP JUMP JUMPDEST SWAP2 SWAP1 SWAP2 PUSH1 0x0 DUP4 DUP3 ADD SWAP4 DUP5 SLT SWAP2 SLT SWAP1 DUP1 ISZERO DUP3 AND SWAP2 ISZERO AND OR PUSH2 0x2A64 JUMPI JUMP JUMPDEST PUSH1 0xD SLOAD PUSH2 0xE10 DUP2 ADD DUP1 SWAP2 GT PUSH2 0x2A64 JUMPI TIMESTAMP LT PUSH2 0x33B1 JUMPI PUSH2 0x3288 PUSH2 0x2A7A JUMP JUMPDEST PUSH1 0x2 SLOAD PUSH1 0x40 MLOAD PUSH4 0x4C6AFEE5 PUSH1 0xE1 SHL DUP2 MSTORE SWAP1 PUSH1 0x20 SWAP1 DUP3 SWAP1 PUSH1 0x4 SWAP1 DUP3 SWAP1 PUSH1 0x1 PUSH1 0x1 PUSH1 0xA0 SHL SUB AND GAS STATICCALL SWAP1 DUP2 ISZERO PUSH2 0x33A5 JUMPI PUSH1 0x0 SWAP2 PUSH2 0x3374 JUMPI JUMPDEST POP PUSH4 0x5F5E100 SWAP2 DUP3 DUP2 MUL SWAP3 DUP2 DUP5 DIV EQ SWAP1 ISZERO OR ISZERO PUSH2 0x2A64 JUMPI PUSH2 0x32DD SWAP2 PUSH2 0x2B08 JUMP JUMPDEST PUSH4 0x5F5E0FF NOT DUP2 ADD SWAP1 DUP2 SGT PUSH1 0x1 AND PUSH2 0x2A64 JUMPI PUSH32 0xD0794AC40E87E336E6E652E1EEF2CDB3793D91F30DCC09A45D18DB669A686B94 SWAP1 PUSH1 0x60 SWAP1 PUSH3 0xF4240 PUSH1 0x18 DUP3 SDIV DUP2 DUP2 SGT ISZERO PUSH2 0x3356 JUMPI POP SWAP1 JUMPDEST DUP2 PUSH1 0xB SSTORE DUP1 PUSH1 0xE SSTORE TIMESTAMP PUSH1 0xD SSTORE PUSH2 0x333F DUP3 PUSH1 0xC SLOAD PUSH2 0x324F JUMP JUMPDEST DUP1 PUSH1 0xC SSTORE PUSH1 0x40 MLOAD SWAP3 DUP4 MSTORE PUSH1 0x20 DUP4 ADD MSTORE PUSH1 0x40 DUP3 ADD MSTORE LOG1 JUMP JUMPDEST SWAP2 SWAP1 POP PUSH3 0xF423F NOT DUP1 DUP4 SLT PUSH2 0x336C JUMPI JUMPDEST POP PUSH2 0x3327 JUMP JUMPDEST SWAP2 POP CODESIZE PUSH2 0x3366 JUMP JUMPDEST SWAP1 PUSH1 0x20 DUP3 RETURNDATASIZE DUP3 GT PUSH2 0x339D JUMPI JUMPDEST DUP2 PUSH2 0x338D PUSH1 0x20 SWAP4 DUP4 PUSH2 0x30C2 JUMP JUMPDEST DUP2 ADD SUB SLT PUSH2 0x4AD JUMPI POP MLOAD CODESIZE PUSH2 0x32BD JUMP JUMPDEST RETURNDATASIZE SWAP2 POP PUSH2 0x3380 JUMP JUMPDEST PUSH1 0x40 MLOAD RETURNDATASIZE PUSH1 0x0 DUP3 RETURNDATACOPY RETURNDATASIZE SWAP1 REVERT JUMPDEST JUMP JUMPDEST SWAP1 PUSH1 0x0 SWAP2 DUP1 DUP4 MSTORE PUSH1 0xF PUSH1 0x20 MSTORE PUSH1 0x40 DUP1 DUP5 KECCAK256 SWAP1 PUSH1 0xFF PUSH1 0x6 DUP4 ADD SLOAD AND ISZERO DUP1 ISZERO PUSH2 0x34F9 JUMPI JUMPDEST PUSH2 0x34F2 JUMPI PUSH1 0xC SLOAD SWAP2 PUSH1 0x4 DUP2 ADD PUSH2 0x33EC DUP2 SLOAD DUP6 PUSH2 0x2EE2 JUMP JUMPDEST DUP1 ISZERO PUSH2 0x34E8 JUMPI PUSH1 0x2 PUSH4 0x5F5E100 PUSH2 0x3409 PUSH1 0xFF SWAP4 PUSH1 0x1 DUP8 ADD SLOAD PUSH2 0x2A51 JUMP JUMPDEST DIV SWAP4 ADD SLOAD AND PUSH2 0x34C0 JUMPI JUMPDEST DUP5 DUP8 MSTORE PUSH1 0x11 PUSH1 0x20 MSTORE DUP3 DUP8 KECCAK256 SLOAD PUSH1 0x1 SLOAD PUSH1 0x1 PUSH1 0x1 PUSH1 0xA0 SHL SUB SWAP2 DUP3 AND SWAP6 DUP10 SWAP3 SWAP1 SWAP2 AND DUP1 EXTCODESIZE ISZERO PUSH2 0x411 JUMPI PUSH1 0x64 DUP4 SWAP3 DUP8 MLOAD SWAP5 DUP6 SWAP4 DUP5 SWAP3 PUSH4 0x5969F96B PUSH1 0xE0 SHL DUP5 MSTORE DUP12 PUSH1 0x4 DUP6 ADD MSTORE DUP10 PUSH1 0x24 DUP6 ADD MSTORE PUSH1 0x44 DUP5 ADD MSTORE GAS CALL DUP1 ISZERO PUSH2 0x34B6 JUMPI PUSH32 0xC86C3274D0EB50DAAA9786E84B032F4EE9F7C878DFC21D805B52CADC5FF4A1B0 SWAP6 SWAP7 SWAP8 SWAP9 POP PUSH2 0x34A7 JUMPI JUMPDEST POP PUSH1 0xC SLOAD DUP1 SWAP2 SSTORE DUP3 MLOAD SWAP2 DUP3 MSTORE PUSH1 0x20 DUP3 ADD MSTORE LOG3 JUMP JUMPDEST PUSH2 0x34B0 SWAP1 PUSH2 0x3092 JUMP JUMPDEST CODESIZE PUSH2 0x3493 JUMP JUMPDEST DUP5 MLOAD RETURNDATASIZE DUP11 DUP3 RETURNDATACOPY RETURNDATASIZE SWAP1 REVERT JUMPDEST SWAP1 PUSH1 0x1 PUSH1 0xFF SHL DUP2 EQ PUSH2 0x34D4 JUMPI DUP7 SUB SWAP1 PUSH2 0x3413 JUMP JUMPDEST PUSH4 0x4E487B71 PUSH1 0xE0 SHL DUP8 MSTORE PUSH1 0x11 PUSH1 0x4 MSTORE PUSH1 0x24 DUP8 REVERT JUMPDEST POP POP POP POP POP POP SWAP1 POP JUMP JUMPDEST POP POP POP SWAP1 POP JUMP JUMPDEST POP PUSH1 0x1 DUP3 ADD SLOAD ISZERO PUSH2 0x33D5 JUMP JUMPDEST PUSH1 0x40 MLOAD SWAP1 PUSH2 0x3512 DUP3 PUSH2 0x3060 JUMP JUMPDEST DUP2 PUSH1 0xC0 PUSH1 0x0 SWAP2 DUP3 DUP2 MSTORE DUP3 PUSH1 0x20 DUP3 ADD MSTORE DUP3 PUSH1 0x40 DUP3 ADD MSTORE DUP3 PUSH1 0x60 DUP3 ADD MSTORE DUP3 PUSH1 0x80 DUP3 ADD MSTORE DUP3 PUSH1 0xA0 DUP3 ADD MSTORE ADD MSTORE JUMP JUMPDEST ISZERO PUSH2 0x3544 JUMPI JUMP JUMPDEST PUSH1 0x40 MLOAD PUSH3 0x461BCD PUSH1 0xE5 SHL DUP2 MSTORE PUSH1 0x20 PUSH1 0x4 DUP3 ADD MSTORE PUSH1 0x18 PUSH1 0x24 DUP3 ADD MSTORE PUSH32 0x76414D4D3A206E6F7420706F736974696F6E206F776E65720000000000000000 PUSH1 0x44 DUP3 ADD MSTORE PUSH1 0x64 SWAP1 REVERT JUMPDEST DUP1 MLOAD DUP3 LT ISZERO PUSH2 0x2A3B JUMPI PUSH1 0x20 SWAP2 PUSH1 0x5 SHL ADD ADD SWAP1 JUMP JUMPDEST PUSH8 0xFFFFFFFFFFFFFFFF DUP2 GT PUSH2 0x307C JUMPI PUSH1 0x5 SHL PUSH1 0x20 ADD SWAP1 JUMP JUMPDEST PUSH1 0x0 MSTORE PUSH1 0xF PUSH1 0x20 MSTORE PUSH1 0x40 PUSH1 0x0 KECCAK256 PUSH1 0xFF PUSH1 0x6 DUP3 ADD SLOAD AND ISZERO DUP1 ISZERO PUSH2 0x362B JUMPI JUMPDEST PUSH2 0x2F95 JUMPI PUSH8 0xDE0B6B3A7640000 SWAP1 PUSH2 0x35E8 PUSH2 0x2A7A JUMP JUMPDEST SWAP1 PUSH1 0x1 DUP2 ADD SLOAD SWAP1 PUSH1 0xFF PUSH1 0x2 DUP3 ADD SLOAD AND PUSH1 0x0 EQ PUSH2 0x361A JUMPI PUSH2 0x3616 SWAP3 PUSH1 0x3 PUSH2 0x3610 SWAP3 ADD SLOAD SWAP1 PUSH2 0x2EE2 JUMP JUMPDEST SWAP1 PUSH2 0x2A51 JUMP JUMPDEST DIV SWAP1 JUMP JUMPDEST PUSH2 0x3616 SWAP3 PUSH1 0x3 PUSH2 0x3610 SWAP3 ADD SLOAD PUSH2 0x2EE2 JUMP JUMPDEST POP PUSH1 0x1 DUP2 ADD SLOAD ISZERO PUSH2 0x35D2 JUMP JUMPDEST ISZERO PUSH2 0x363E JUMPI JUMP JUMPDEST PUSH1 0x40 MLOAD PUSH3 0x461BCD PUSH1 0xE5 SHL DUP2 MSTORE PUSH1 0x20 PUSH1 0x4 DUP3 ADD MSTORE PUSH1 0x18 PUSH1 0x24 DUP3 ADD MSTORE PUSH32 0x76414D4D3A20696E76616C696420636F6C6C61746572616C0000000000000000 PUSH1 0x44 DUP3 ADD MSTORE PUSH1 0x64 SWAP1 REVERT JUMPDEST ISZERO PUSH2 0x368A JUMPI JUMP JUMPDEST PUSH1 0x40 MLOAD PUSH3 0x461BCD PUSH1 0xE5 SHL DUP2 MSTORE PUSH1 0x20 PUSH1 0x4 DUP3 ADD MSTORE PUSH1 0x16 PUSH1 0x24 DUP3 ADD MSTORE PUSH22 0x76414D4D3A20696E76616C6964206C65766572616765 PUSH1 0x50 SHL PUSH1 0x44 DUP3 ADD MSTORE PUSH1 0x64 SWAP1 REVERT JUMPDEST ISZERO PUSH2 0x36CF JUMPI JUMP JUMPDEST PUSH1 0x40 MLOAD PUSH3 0x461BCD PUSH1 0xE5 SHL DUP2 MSTORE PUSH1 0x20 PUSH1 0x4 DUP3 ADD MSTORE PUSH1 0x14 PUSH1 0x24 DUP3 ADD MSTORE PUSH20 0x76414D4D3A20707269636520736C697070616765 PUSH1 0x60 SHL PUSH1 0x44 DUP3 ADD MSTORE PUSH1 0x64 SWAP1 REVERT JUMPDEST PUSH2 0x3713 PUSH2 0x3505 JUMP JUMPDEST POP PUSH1 0x0 SWAP1 PUSH1 0x1 DUP1 PUSH1 0xA0 SHL SUB AND DUP2 MSTORE PUSH1 0x20 PUSH1 0x10 DUP2 MSTORE PUSH1 0x40 SWAP2 DUP3 DUP2 KECCAK256 DUP4 MLOAD DUP1 DUP3 DUP6 DUP3 SWAP5 SLOAD SWAP4 DUP5 DUP2 MSTORE ADD SWAP1 DUP6 MSTORE DUP6 DUP6 KECCAK256 SWAP3 DUP6 JUMPDEST DUP8 DUP3 DUP3 LT PUSH2 0x3887 JUMPI POP POP POP PUSH2 0x375A SWAP3 POP SUB DUP3 PUSH2 0x30C2 JUMP JUMPDEST DUP1 MLOAD ISZERO PUSH2 0x384E JUMPI DUP2 JUMPDEST DUP2 MLOAD DUP2 LT ISZERO PUSH2 0x380A JUMPI PUSH2 0x3776 DUP2 DUP4 PUSH2 0x3589 JUMP JUMPDEST MLOAD DUP4 MSTORE PUSH1 0xF DUP1 DUP6 MSTORE PUSH1 0xFF SWAP1 PUSH1 0x6 SWAP1 DUP3 DUP3 DUP10 DUP9 KECCAK256 ADD SLOAD AND PUSH2 0x37A1 JUMPI POP POP POP PUSH2 0x379C SWAP1 PUSH2 0x2E16 JUMP JUMPDEST PUSH2 0x3763 JUMP JUMPDEST SWAP1 SWAP5 SWAP2 SWAP6 SWAP7 SWAP4 DUP5 SWAP4 PUSH2 0x37B2 SWAP2 PUSH2 0x3589 JUMP JUMPDEST MLOAD DUP3 MSTORE DUP7 MSTORE KECCAK256 SWAP1 DUP1 MLOAD SWAP5 PUSH2 0x37C5 DUP7 PUSH2 0x3060 JUMP JUMPDEST DUP3 SLOAD DUP7 MSTORE PUSH1 0x1 DUP4 ADD SLOAD SWAP1 DUP7 ADD MSTORE DUP4 PUSH1 0x2 DUP4 ADD SLOAD AND ISZERO ISZERO SWAP1 DUP6 ADD MSTORE PUSH1 0x3 DUP2 ADD SLOAD PUSH1 0x60 DUP6 ADD MSTORE PUSH1 0x4 DUP2 ADD SLOAD PUSH1 0x80 DUP6 ADD MSTORE PUSH1 0x5 DUP2 ADD SLOAD PUSH1 0xA0 DUP6 ADD MSTORE ADD SLOAD AND ISZERO ISZERO PUSH1 0xC0 DUP3 ADD MSTORE SWAP1 JUMP JUMPDEST DUP5 MLOAD PUSH3 0x461BCD PUSH1 0xE5 SHL DUP2 MSTORE PUSH1 0x4 DUP2 ADD DUP6 SWAP1 MSTORE PUSH1 0x18 PUSH1 0x24 DUP3 ADD MSTORE PUSH32 0x76414D4D3A206E6F2061637469766520706F736974696F6E0000000000000000 PUSH1 0x44 DUP3 ADD MSTORE PUSH1 0x64 SWAP1 REVERT JUMPDEST DUP4 MLOAD PUSH3 0x461BCD PUSH1 0xE5 SHL DUP2 MSTORE PUSH1 0x4 DUP2 ADD DUP5 SWAP1 MSTORE PUSH1 0x12 PUSH1 0x24 DUP3 ADD MSTORE PUSH18 0x76414D4D3A206E6F20706F736974696F6E73 PUSH1 0x70 SHL PUSH1 0x44 DUP3 ADD MSTORE PUSH1 0x64 SWAP1 REVERT JUMPDEST DUP6 SLOAD DUP5 MSTORE PUSH1 0x1 SWAP6 DUP7 ADD SWAP6 DUP8 SWAP6 POP SWAP4 ADD SWAP3 ADD PUSH2 0x3743 JUMP INVALID SWAP6 0x21 PUSH24 0x133A28EEA5034C93C6C70C1A8D223DA94FAAA45DA8412C3C PUSH26 0x1111137FA26469706673582212206F77D2E8AFA2D427FE89649E 0xC9 SUB PUSH28 0xC25A20F101B0A9F8D45830AD5A15657B564736F6C63430008140033 LOG2 PUSH5 0x6970667358 0x22 SLT KECCAK256 SHL PREVRANDAO SAR 0xA5 0xF 0xE2 PUSH25 0xB1918EE3904A802C357EB513E5915E537A665CBE9244284CF7 PUSH5 0x736F6C6343 STOP ADDMOD EQ STOP CALLER "},"methodIdentifiers":{"createMarket(string,address,address,uint256)":"73d8c6bd","defaultStartingPrices(uint8)":"f0a9d4c4","deploymentFee()":"f2cff57f","getMarket(bytes32)":"c3c95c7b","isValidMarket(address)":"58e6309f","marketCount()":"ec979082","marketIds(uint256)":"779a9683","markets(bytes32)":"7564912b","owner()":"8da5cb5b","setDeploymentFee(uint256)":"d002462b","setMarketStatus(bytes32,bool)":"2a519733","transferOwnership(address)":"f2fde38b","withdrawFees()":"476343ee"}}}}}