{"contracts/MockUSDC.sol":{"MockUSDC":{"abi":[{"inputs":[{"internalType":"uint256","name":"_initialSupply","type":"uint256"}],"stateMutability":"nonpayable","type":"constructor"},{"anonymous":false,"inputs":[{"indexed":true,"internalType":"address","name":"owner","type":"address"},{"indexed":true,"internalType":"address","name":"spender","type":"address"},{"indexed":false,"internalType":"uint256","name":"value","type":"uint256"}],"name":"Approval","type":"event"},{"anonymous":false,"inputs":[{"indexed":true,"internalType":"address","name":"to","type":"address"},{"indexed":false,"internalType":"uint256","name":"value","type":"uint256"}],"name":"Mint","type":"event"},{"anonymous":false,"inputs":[{"indexed":true,"internalType":"address","name":"from","type":"address"},{"indexed":true,"internalType":"address","name":"to","type":"address"},{"indexed":false,"internalType":"uint256","name":"value","type":"uint256"}],"name":"Transfer","type":"event"},{"inputs":[{"internalType":"address","name":"","type":"address"},{"internalType":"address","name":"","type":"address"}],"name":"allowance","outputs":[{"internalType":"uint256","name":"","type":"uint256"}],"stateMutability":"view","type":"function"},{"inputs":[{"internalType":"address","name":"spender","type":"address"},{"internalType":"uint256","name":"value","type":"uint256"}],"name":"approve","outputs":[{"internalType":"bool","name":"","type":"bool"}],"stateMutability":"nonpayable","type":"function"},{"inputs":[{"internalType":"address","name":"","type":"address"}],"name":"balanceOf","outputs":[{"internalType":"uint256","name":"","type":"uint256"}],"stateMutability":"view","type":"function"},{"inputs":[],"name":"decimals","outputs":[{"internalType":"uint8","name":"","type":"uint8"}],"stateMutability":"view","type":"function"},{"inputs":[{"internalType":"uint256","name":"amount","type":"uint256"}],"name":"faucet","outputs":[],"stateMutability":"nonpayable","type":"function"},{"inputs":[{"internalType":"address","name":"to","type":"address"},{"internalType":"uint256","name":"value","type":"uint256"}],"name":"mint","outputs":[],"stateMutability":"nonpayable","type":"function"},{"inputs":[],"name":"name","outputs":[{"internalType":"string","name":"","type":"string"}],"stateMutability":"view","type":"function"},{"inputs":[],"name":"owner","outputs":[{"internalType":"address","name":"","type":"address"}],"stateMutability":"view","type":"function"},{"inputs":[],"name":"symbol","outputs":[{"internalType":"string","name":"","type":"string"}],"stateMutability":"view","type":"function"},{"inputs":[],"name":"totalSupply","outputs":[{"internalType":"uint256","name":"","type":"uint256"}],"stateMutability":"view","type":"function"},{"inputs":[{"internalType":"address","name":"to","type":"address"},{"internalType":"uint256","name":"value","type":"uint256"}],"name":"transfer","outputs":[{"internalType":"bool","name":"","type":"bool"}],"stateMutability":"nonpayable","type":"function"},{"inputs":[{"internalType":"address","name":"from","type":"address"},{"internalType":"address","name":"to","type":"address"},{"internalType":"uint256","name":"value","type":"uint256"}],"name":"transferFrom","outputs":[{"internalType":"bool","name":"","type":"bool"}],"stateMutability":"nonpayable","type":"function"},{"inputs":[{"internalType":"address","name":"newOwner","type":"address"}],"name":"transferOwnership","outputs":[],"stateMutability":"nonpayable","type":"function"}],"evm":{"bytecode":{"linkReferences":{},"object":"60803461018957601f610bc638819003918201601f19168301916001600160401b0383118484101761018e578084926020946040528339810103126101895751600061004b81546101a4565b601f811161015f575b507f4d6f636b2055534420436f696e0000000000000000000000000000000000001a815560018054610085906101a4565b601f8111610133575b506008635553444360e01b0190556002805460ff1916600690811790915580546001600160a01b03191633179055620f4240828102928015908404909114171561011f578160035533815260046020528160408220556040519182527fddf252ad1be2c89b69c2b068fc378daa952ba7f163c4a11628f55a4df523b3ef60203393a36040516109e790816101df8239f35b634e487b7160e01b81526011600452602490fd5b81835281601f60208520920160051c8201915b82811061015457505061008e565b848155018290610146565b818052601f60208320910160051c8101905b81811061017e5750610054565b828155600101610171565b600080fd5b634e487b7160e01b600052604160045260246000fd5b90600182811c921680156101d4575b60208310146101be57565b634e487b7160e01b600052602260045260246000fd5b91607f16916101b356fe6080604081815260048036101561001557600080fd5b600092833560e01c90816306fdde031461071e57508063095ea7b3146106ad57806318160ddd1461068e57806323b872dd1461056c578063313ce5671461054a5783816340c10f191461049d5750806357915897146103a057806370a082311461036b5780638da5cb5b1461034257806395d89b4114610221578063a9059cbb1461018d578063dd62ed3e146101405763f2fde38b146100b457600080fd5b3461013c57602036600319011261013c576100cd61085a565b60065491906001600160a01b03906100e83383861614610953565b169283156101035750506001600160a01b0319161760065580f35b906020606492519162461bcd60e51b835282015260136024820152722aa9a2219d1034b73b30b634b21037bbb732b960691b6044820152fd5b8280fd5b5050346101895780600319360112610189578060209261015e61085a565b610166610875565b6001600160a01b0391821683526005865283832091168252845220549051908152f35b5080fd5b503461013c578160031936011261013c57602092826101aa61085a565b6001600160a01b03169260243592906101c485151561088b565b3382528087526101d9848484205410156108d7565b3382528087528282206101ed858254610923565b9055848252865220610200828254610946565b90558251908152600080516020610992833981519152843392a35160018152f35b5091903461018957816003193601126101895780519082600180549081811c90808316928315610338575b60209384841081146103255783885290811561030957506001146102b4575b505050829003601f01601f191682019267ffffffffffffffff8411838510176102a1575082918261029d925282610811565b0390f35b634e487b7160e01b815260418552602490fd5b8087529192508591837fb10e2d527612073b26eecdfd717e6a320cf44b4afac2b0732d9fcbe2b7fa0cf65b8385106102f5575050505083010138808061026b565b8054888601830152930192849082016102df565b60ff1916878501525050151560051b840101905038808061026b565b634e487b7160e01b895260228a52602489fd5b91607f169161024c565b50503461018957816003193601126101895760065490516001600160a01b039091168152602090f35b503461013c57602036600319011261013c5760209282916001600160a01b0361039261085a565b168252845220549051908152f35b50903461013c57602036600319011261013c5781359160ff60025416604d811161048a57600a0a612710908082029182040361048a578311610448576103e883600354610946565b6003553384526020528083206103ff838254610946565b905580518281527f0f6798a560793a54c3bcfe86a93cde1e73087d944c0ea20544137d412139688560203392a2519081528160008051602061099283398151915260203393a380f35b6020606492519162461bcd60e51b8352820152601b60248201527f555344433a20666175636574206c696d697420657863656564656400000000006044820152fd5b634e487b7160e01b855260118252602485fd5b828185346101895780600319360112610189576020600080516020610992833981519152916104ca61085a565b60065460243592916001600160a01b03916104e89083163314610953565b16956104f587151561088b565b61050183600354610946565b6003558686528352808520610517838254610946565b9055857f0f6798a560793a54c3bcfe86a93cde1e73087d944c0ea20544137d4121396885848351858152a251908152a380f35b50503461018957816003193601126101895760209060ff600254169051908152f35b50913461068b57606036600319011261068b5761058761085a565b90610590610875565b6001600160a01b039081169260443591906105ac85151561088b565b16918281526020958087526105c6838784205410156108d7565b8382526005875285822033835287528286832054106106485791858260008051602061099283398151915294868a9552808552828220610607858254610923565b9055878252845281812061061c848254610946565b905585815260058452818120338252845220610639828254610923565b90558551908152a35160018152f35b855162461bcd60e51b8152908101879052601c60248201527f555344433a20696e73756666696369656e7420616c6c6f77616e6365000000006044820152606490fd5b80fd5b5050346101895781600319360112610189576020906003549051908152f35b505034610189578060031936011261018957602091816106cb61085a565b91602435918291338152600587528181209460018060a01b0316948582528752205582519081527f8c5be1e5ebec7d5bd14f71427d1e84f3dd0314c0f7b2291e5b200ac8c7c3b925843392a35160018152f35b849150833461013c578260031936011261013c57828354600181811c90808316928315610807575b6020938484108114610325578388529081156107eb575060011461079657505050829003601f01601f191682019267ffffffffffffffff8411838510176102a1575082918261029d925282610811565b8680529192508591837f290decd9548b62a8d60345a988386fc84ba6bc95484008f6362f93160ef3e5635b8385106107d7575050505083010185808061026b565b8054888601830152930192849082016107c1565b60ff1916878501525050151560051b840101905085808061026b565b91607f1691610746565b6020808252825181830181905290939260005b82811061084657505060409293506000838284010152601f8019910116010190565b818101860151848201604001528501610824565b600435906001600160a01b038216820361087057565b600080fd5b602435906001600160a01b038216820361087057565b1561089257565b60405162461bcd60e51b815260206004820152601760248201527f555344433a20696e76616c696420726563697069656e740000000000000000006044820152606490fd5b156108de57565b60405162461bcd60e51b815260206004820152601a60248201527f555344433a20696e73756666696369656e742062616c616e63650000000000006044820152606490fd5b9190820391821161093057565b634e487b7160e01b600052601160045260246000fd5b9190820180921161093057565b1561095a57565b60405162461bcd60e51b815260206004820152600f60248201526e2aa9a2219d103737ba1037bbb732b960891b6044820152606490fdfeddf252ad1be2c89b69c2b068fc378daa952ba7f163c4a11628f55a4df523b3efa2646970667358221220fe2898fd33778d21dd48702b72e939432daa1d901b9f21460a0860e73ec222c164736f6c63430008140033","opcodes":"PUSH1 0x80 CALLVALUE PUSH2 0x189 JUMPI PUSH1 0x1F PUSH2 0xBC6 CODESIZE DUP2 SWAP1 SUB SWAP2 DUP3 ADD PUSH1 0x1F NOT AND DUP4 ADD SWAP2 PUSH1 0x1 PUSH1 0x1 PUSH1 0x40 SHL SUB DUP4 GT DUP5 DUP5 LT OR PUSH2 0x18E JUMPI DUP1 DUP5 SWAP3 PUSH1 0x20 SWAP5 PUSH1 0x40 MSTORE DUP4 CODECOPY DUP2 ADD SUB SLT PUSH2 0x189 JUMPI MLOAD PUSH1 0x0 PUSH2 0x4B DUP2 SLOAD PUSH2 0x1A4 JUMP JUMPDEST PUSH1 0x1F DUP2 GT PUSH2 0x15F JUMPI JUMPDEST POP PUSH32 0x4D6F636B2055534420436F696E0000000000000000000000000000000000001A DUP2 SSTORE PUSH1 0x1 DUP1 SLOAD PUSH2 0x85 SWAP1 PUSH2 0x1A4 JUMP JUMPDEST PUSH1 0x1F DUP2 GT PUSH2 0x133 JUMPI JUMPDEST POP PUSH1 0x8 PUSH4 0x55534443 PUSH1 0xE0 SHL ADD SWAP1 SSTORE PUSH1 0x2 DUP1 SLOAD PUSH1 0xFF NOT AND PUSH1 0x6 SWAP1 DUP2 OR SWAP1 SWAP2 SSTORE DUP1 SLOAD PUSH1 0x1 PUSH1 0x1 PUSH1 0xA0 SHL SUB NOT AND CALLER OR SWAP1 SSTORE PUSH3 0xF4240 DUP3 DUP2 MUL SWAP3 DUP1 ISZERO SWAP1 DUP5 DIV SWAP1 SWAP2 EQ OR ISZERO PUSH2 0x11F JUMPI DUP2 PUSH1 0x3 SSTORE CALLER DUP2 MSTORE PUSH1 0x4 PUSH1 0x20 MSTORE DUP2 PUSH1 0x40 DUP3 KECCAK256 SSTORE PUSH1 0x40 MLOAD SWAP2 DUP3 MSTORE PUSH32 0xDDF252AD1BE2C89B69C2B068FC378DAA952BA7F163C4A11628F55A4DF523B3EF PUSH1 0x20 CALLER SWAP4 LOG3 PUSH1 0x40 MLOAD PUSH2 0x9E7 SWAP1 DUP2 PUSH2 0x1DF DUP3 CODECOPY RETURN JUMPDEST PUSH4 0x4E487B71 PUSH1 0xE0 SHL DUP2 MSTORE PUSH1 0x11 PUSH1 0x4 MSTORE PUSH1 0x24 SWAP1 REVERT JUMPDEST DUP2 DUP4 MSTORE DUP2 PUSH1 0x1F PUSH1 0x20 DUP6 KECCAK256 SWAP3 ADD PUSH1 0x5 SHR DUP3 ADD SWAP2 JUMPDEST DUP3 DUP2 LT PUSH2 0x154 JUMPI POP POP PUSH2 0x8E JUMP JUMPDEST DUP5 DUP2 SSTORE ADD DUP3 SWAP1 PUSH2 0x146 JUMP JUMPDEST DUP2 DUP1 MSTORE PUSH1 0x1F PUSH1 0x20 DUP4 KECCAK256 SWAP2 ADD PUSH1 0x5 SHR DUP2 ADD SWAP1 JUMPDEST DUP2 DUP2 LT PUSH2 0x17E JUMPI POP PUSH2 0x54 JUMP JUMPDEST DUP3 DUP2 SSTORE PUSH1 0x1 ADD PUSH2 0x171 JUMP JUMPDEST PUSH1 0x0 DUP1 REVERT JUMPDEST PUSH4 0x4E487B71 PUSH1 0xE0 SHL PUSH1 0x0 MSTORE PUSH1 0x41 PUSH1 0x4 MSTORE PUSH1 0x24 PUSH1 0x0 REVERT JUMPDEST SWAP1 PUSH1 0x1 DUP3 DUP2 SHR SWAP3 AND DUP1 ISZERO PUSH2 0x1D4 JUMPI JUMPDEST PUSH1 0x20 DUP4 LT EQ PUSH2 0x1BE JUMPI JUMP JUMPDEST PUSH4 0x4E487B71 PUSH1 0xE0 SHL PUSH1 0x0 MSTORE PUSH1 0x22 PUSH1 0x4 MSTORE PUSH1 0x24 PUSH1 0x0 REVERT JUMPDEST SWAP2 PUSH1 0x7F AND SWAP2 PUSH2 0x1B3 JUMP INVALID PUSH1 0x80 PUSH1 0x40 DUP2 DUP2 MSTORE PUSH1 0x4 DUP1 CALLDATASIZE LT ISZERO PUSH2 0x15 JUMPI PUSH1 0x0 DUP1 REVERT JUMPDEST PUSH1 0x0 SWAP3 DUP4 CALLDATALOAD PUSH1 0xE0 SHR SWAP1 DUP2 PUSH4 0x6FDDE03 EQ PUSH2 0x71E JUMPI POP DUP1 PUSH4 0x95EA7B3 EQ PUSH2 0x6AD JUMPI DUP1 PUSH4 0x18160DDD EQ PUSH2 0x68E JUMPI DUP1 PUSH4 0x23B872DD EQ PUSH2 0x56C JUMPI DUP1 PUSH4 0x313CE567 EQ PUSH2 0x54A JUMPI DUP4 DUP2 PUSH4 0x40C10F19 EQ PUSH2 0x49D JUMPI POP DUP1 PUSH4 0x57915897 EQ PUSH2 0x3A0 JUMPI DUP1 PUSH4 0x70A08231 EQ PUSH2 0x36B JUMPI DUP1 PUSH4 0x8DA5CB5B EQ PUSH2 0x342 JUMPI DUP1 PUSH4 0x95D89B41 EQ PUSH2 0x221 JUMPI DUP1 PUSH4 0xA9059CBB EQ PUSH2 0x18D JUMPI DUP1 PUSH4 0xDD62ED3E EQ PUSH2 0x140 JUMPI PUSH4 0xF2FDE38B EQ PUSH2 0xB4 JUMPI PUSH1 0x0 DUP1 REVERT JUMPDEST CALLVALUE PUSH2 0x13C JUMPI PUSH1 0x20 CALLDATASIZE PUSH1 0x3 NOT ADD SLT PUSH2 0x13C JUMPI PUSH2 0xCD PUSH2 0x85A JUMP JUMPDEST PUSH1 0x6 SLOAD SWAP2 SWAP1 PUSH1 0x1 PUSH1 0x1 PUSH1 0xA0 SHL SUB SWAP1 PUSH2 0xE8 CALLER DUP4 DUP7 AND EQ PUSH2 0x953 JUMP JUMPDEST AND SWAP3 DUP4 ISZERO PUSH2 0x103 JUMPI POP POP PUSH1 0x1 PUSH1 0x1 PUSH1 0xA0 SHL SUB NOT AND OR PUSH1 0x6 SSTORE DUP1 RETURN JUMPDEST SWAP1 PUSH1 0x20 PUSH1 0x64 SWAP3 MLOAD SWAP2 PUSH3 0x461BCD PUSH1 0xE5 SHL DUP4 MSTORE DUP3 ADD MSTORE PUSH1 0x13 PUSH1 0x24 DUP3 ADD MSTORE PUSH19 0x2AA9A2219D1034B73B30B634B21037BBB732B9 PUSH1 0x69 SHL PUSH1 0x44 DUP3 ADD MSTORE REVERT JUMPDEST DUP3 DUP1 REVERT JUMPDEST POP POP CALLVALUE PUSH2 0x189 JUMPI DUP1 PUSH1 0x3 NOT CALLDATASIZE ADD SLT PUSH2 0x189 JUMPI DUP1 PUSH1 0x20 SWAP3 PUSH2 0x15E PUSH2 0x85A JUMP JUMPDEST PUSH2 0x166 PUSH2 0x875 JUMP JUMPDEST PUSH1 0x1 PUSH1 0x1 PUSH1 0xA0 SHL SUB SWAP2 DUP3 AND DUP4 MSTORE PUSH1 0x5 DUP7 MSTORE DUP4 DUP4 KECCAK256 SWAP2 AND DUP3 MSTORE DUP5 MSTORE KECCAK256 SLOAD SWAP1 MLOAD SWAP1 DUP2 MSTORE RETURN JUMPDEST POP DUP1 REVERT JUMPDEST POP CALLVALUE PUSH2 0x13C JUMPI DUP2 PUSH1 0x3 NOT CALLDATASIZE ADD SLT PUSH2 0x13C JUMPI PUSH1 0x20 SWAP3 DUP3 PUSH2 0x1AA PUSH2 0x85A JUMP JUMPDEST PUSH1 0x1 PUSH1 0x1 PUSH1 0xA0 SHL SUB AND SWAP3 PUSH1 0x24 CALLDATALOAD SWAP3 SWAP1 PUSH2 0x1C4 DUP6 ISZERO ISZERO PUSH2 0x88B JUMP JUMPDEST CALLER DUP3 MSTORE DUP1 DUP8 MSTORE PUSH2 0x1D9 DUP5 DUP5 DUP5 KECCAK256 SLOAD LT ISZERO PUSH2 0x8D7 JUMP JUMPDEST CALLER DUP3 MSTORE DUP1 DUP8 MSTORE DUP3 DUP3 KECCAK256 PUSH2 0x1ED DUP6 DUP3 SLOAD PUSH2 0x923 JUMP JUMPDEST SWAP1 SSTORE DUP5 DUP3 MSTORE DUP7 MSTORE KECCAK256 PUSH2 0x200 DUP3 DUP3 SLOAD PUSH2 0x946 JUMP JUMPDEST SWAP1 SSTORE DUP3 MLOAD SWAP1 DUP2 MSTORE PUSH1 0x0 DUP1 MLOAD PUSH1 0x20 PUSH2 0x992 DUP4 CODECOPY DUP2 MLOAD SWAP2 MSTORE DUP5 CALLER SWAP3 LOG3 MLOAD PUSH1 0x1 DUP2 MSTORE RETURN JUMPDEST POP SWAP2 SWAP1 CALLVALUE PUSH2 0x189 JUMPI DUP2 PUSH1 0x3 NOT CALLDATASIZE ADD SLT PUSH2 0x189 JUMPI DUP1 MLOAD SWAP1 DUP3 PUSH1 0x1 DUP1 SLOAD SWAP1 DUP2 DUP2 SHR SWAP1 DUP1 DUP4 AND SWAP3 DUP4 ISZERO PUSH2 0x338 JUMPI JUMPDEST PUSH1 0x20 SWAP4 DUP5 DUP5 LT DUP2 EQ PUSH2 0x325 JUMPI DUP4 DUP9 MSTORE SWAP1 DUP2 ISZERO PUSH2 0x309 JUMPI POP PUSH1 0x1 EQ PUSH2 0x2B4 JUMPI JUMPDEST POP POP POP DUP3 SWAP1 SUB PUSH1 0x1F ADD PUSH1 0x1F NOT AND DUP3 ADD SWAP3 PUSH8 0xFFFFFFFFFFFFFFFF DUP5 GT DUP4 DUP6 LT OR PUSH2 0x2A1 JUMPI POP DUP3 SWAP2 DUP3 PUSH2 0x29D SWAP3 MSTORE DUP3 PUSH2 0x811 JUMP JUMPDEST SUB SWAP1 RETURN JUMPDEST PUSH4 0x4E487B71 PUSH1 0xE0 SHL DUP2 MSTORE PUSH1 0x41 DUP6 MSTORE PUSH1 0x24 SWAP1 REVERT JUMPDEST DUP1 DUP8 MSTORE SWAP2 SWAP3 POP DUP6 SWAP2 DUP4 PUSH32 0xB10E2D527612073B26EECDFD717E6A320CF44B4AFAC2B0732D9FCBE2B7FA0CF6 JUMPDEST DUP4 DUP6 LT PUSH2 0x2F5 JUMPI POP POP POP POP DUP4 ADD ADD CODESIZE DUP1 DUP1 PUSH2 0x26B JUMP JUMPDEST DUP1 SLOAD DUP9 DUP7 ADD DUP4 ADD MSTORE SWAP4 ADD SWAP3 DUP5 SWAP1 DUP3 ADD PUSH2 0x2DF JUMP JUMPDEST PUSH1 0xFF NOT AND DUP8 DUP6 ADD MSTORE POP POP ISZERO ISZERO PUSH1 0x5 SHL DUP5 ADD ADD SWAP1 POP CODESIZE DUP1 DUP1 PUSH2 0x26B JUMP JUMPDEST PUSH4 0x4E487B71 PUSH1 0xE0 SHL DUP10 MSTORE PUSH1 0x22 DUP11 MSTORE PUSH1 0x24 DUP10 REVERT JUMPDEST SWAP2 PUSH1 0x7F AND SWAP2 PUSH2 0x24C JUMP JUMPDEST POP POP CALLVALUE PUSH2 0x189 JUMPI DUP2 PUSH1 0x3 NOT CALLDATASIZE ADD SLT PUSH2 0x189 JUMPI PUSH1 0x6 SLOAD SWAP1 MLOAD PUSH1 0x1 PUSH1 0x1 PUSH1 0xA0 SHL SUB SWAP1 SWAP2 AND DUP2 MSTORE PUSH1 0x20 SWAP1 RETURN JUMPDEST POP CALLVALUE PUSH2 0x13C JUMPI PUSH1 0x20 CALLDATASIZE PUSH1 0x3 NOT ADD SLT PUSH2 0x13C JUMPI PUSH1 0x20 SWAP3 DUP3 SWAP2 PUSH1 0x1 PUSH1 0x1 PUSH1 0xA0 SHL SUB PUSH2 0x392 PUSH2 0x85A JUMP JUMPDEST AND DUP3 MSTORE DUP5 MSTORE KECCAK256 SLOAD SWAP1 MLOAD SWAP1 DUP2 MSTORE RETURN JUMPDEST POP SWAP1 CALLVALUE PUSH2 0x13C JUMPI PUSH1 0x20 CALLDATASIZE PUSH1 0x3 NOT ADD SLT PUSH2 0x13C JUMPI DUP2 CALLDATALOAD SWAP2 PUSH1 0xFF PUSH1 0x2 SLOAD AND PUSH1 0x4D DUP2 GT PUSH2 0x48A JUMPI PUSH1 0xA EXP PUSH2 0x2710 SWAP1 DUP1 DUP3 MUL SWAP2 DUP3 DIV SUB PUSH2 0x48A JUMPI DUP4 GT PUSH2 0x448 JUMPI PUSH2 0x3E8 DUP4 PUSH1 0x3 SLOAD PUSH2 0x946 JUMP JUMPDEST PUSH1 0x3 SSTORE CALLER DUP5 MSTORE PUSH1 0x20 MSTORE DUP1 DUP4 KECCAK256 PUSH2 0x3FF DUP4 DUP3 SLOAD PUSH2 0x946 JUMP JUMPDEST SWAP1 SSTORE DUP1 MLOAD DUP3 DUP2 MSTORE PUSH32 0xF6798A560793A54C3BCFE86A93CDE1E73087D944C0EA20544137D4121396885 PUSH1 0x20 CALLER SWAP3 LOG2 MLOAD SWAP1 DUP2 MSTORE DUP2 PUSH1 0x0 DUP1 MLOAD PUSH1 0x20 PUSH2 0x992 DUP4 CODECOPY DUP2 MLOAD SWAP2 MSTORE PUSH1 0x20 CALLER SWAP4 LOG3 DUP1 RETURN JUMPDEST PUSH1 0x20 PUSH1 0x64 SWAP3 MLOAD SWAP2 PUSH3 0x461BCD PUSH1 0xE5 SHL DUP4 MSTORE DUP3 ADD MSTORE PUSH1 0x1B PUSH1 0x24 DUP3 ADD MSTORE PUSH32 0x555344433A20666175636574206C696D69742065786365656465640000000000 PUSH1 0x44 DUP3 ADD MSTORE REVERT JUMPDEST PUSH4 0x4E487B71 PUSH1 0xE0 SHL DUP6 MSTORE PUSH1 0x11 DUP3 MSTORE PUSH1 0x24 DUP6 REVERT JUMPDEST DUP3 DUP2 DUP6 CALLVALUE PUSH2 0x189 JUMPI DUP1 PUSH1 0x3 NOT CALLDATASIZE ADD SLT PUSH2 0x189 JUMPI PUSH1 0x20 PUSH1 0x0 DUP1 MLOAD PUSH1 0x20 PUSH2 0x992 DUP4 CODECOPY DUP2 MLOAD SWAP2 MSTORE SWAP2 PUSH2 0x4CA PUSH2 0x85A JUMP JUMPDEST PUSH1 0x6 SLOAD PUSH1 0x24 CALLDATALOAD SWAP3 SWAP2 PUSH1 0x1 PUSH1 0x1 PUSH1 0xA0 SHL SUB SWAP2 PUSH2 0x4E8 SWAP1 DUP4 AND CALLER EQ PUSH2 0x953 JUMP JUMPDEST AND SWAP6 PUSH2 0x4F5 DUP8 ISZERO ISZERO PUSH2 0x88B JUMP JUMPDEST PUSH2 0x501 DUP4 PUSH1 0x3 SLOAD PUSH2 0x946 JUMP JUMPDEST PUSH1 0x3 SSTORE DUP7 DUP7 MSTORE DUP4 MSTORE DUP1 DUP6 KECCAK256 PUSH2 0x517 DUP4 DUP3 SLOAD PUSH2 0x946 JUMP JUMPDEST SWAP1 SSTORE DUP6 PUSH32 0xF6798A560793A54C3BCFE86A93CDE1E73087D944C0EA20544137D4121396885 DUP5 DUP4 MLOAD DUP6 DUP2 MSTORE LOG2 MLOAD SWAP1 DUP2 MSTORE LOG3 DUP1 RETURN JUMPDEST POP POP CALLVALUE PUSH2 0x189 JUMPI DUP2 PUSH1 0x3 NOT CALLDATASIZE ADD SLT PUSH2 0x189 JUMPI PUSH1 0x20 SWAP1 PUSH1 0xFF PUSH1 0x2 SLOAD AND SWAP1 MLOAD SWAP1 DUP2 MSTORE RETURN JUMPDEST POP SWAP2 CALLVALUE PUSH2 0x68B JUMPI PUSH1 0x60 CALLDATASIZE PUSH1 0x3 NOT ADD SLT PUSH2 0x68B JUMPI PUSH2 0x587 PUSH2 0x85A JUMP JUMPDEST SWAP1 PUSH2 0x590 PUSH2 0x875 JUMP JUMPDEST PUSH1 0x1 PUSH1 0x1 PUSH1 0xA0 SHL SUB SWAP1 DUP2 AND SWAP3 PUSH1 0x44 CALLDATALOAD SWAP2 SWAP1 PUSH2 0x5AC DUP6 ISZERO ISZERO PUSH2 0x88B JUMP JUMPDEST AND SWAP2 DUP3 DUP2 MSTORE PUSH1 0x20 SWAP6 DUP1 DUP8 MSTORE PUSH2 0x5C6 DUP4 DUP8 DUP5 KECCAK256 SLOAD LT ISZERO PUSH2 0x8D7 JUMP JUMPDEST DUP4 DUP3 MSTORE PUSH1 0x5 DUP8 MSTORE DUP6 DUP3 KECCAK256 CALLER DUP4 MSTORE DUP8 MSTORE DUP3 DUP7 DUP4 KECCAK256 SLOAD LT PUSH2 0x648 JUMPI SWAP2 DUP6 DUP3 PUSH1 0x0 DUP1 MLOAD PUSH1 0x20 PUSH2 0x992 DUP4 CODECOPY DUP2 MLOAD SWAP2 MSTORE SWAP5 DUP7 DUP11 SWAP6 MSTORE DUP1 DUP6 MSTORE DUP3 DUP3 KECCAK256 PUSH2 0x607 DUP6 DUP3 SLOAD PUSH2 0x923 JUMP JUMPDEST SWAP1 SSTORE DUP8 DUP3 MSTORE DUP5 MSTORE DUP2 DUP2 KECCAK256 PUSH2 0x61C DUP5 DUP3 SLOAD PUSH2 0x946 JUMP JUMPDEST SWAP1 SSTORE DUP6 DUP2 MSTORE PUSH1 0x5 DUP5 MSTORE DUP2 DUP2 KECCAK256 CALLER DUP3 MSTORE DUP5 MSTORE KECCAK256 PUSH2 0x639 DUP3 DUP3 SLOAD PUSH2 0x923 JUMP JUMPDEST SWAP1 SSTORE DUP6 MLOAD SWAP1 DUP2 MSTORE LOG3 MLOAD PUSH1 0x1 DUP2 MSTORE RETURN JUMPDEST DUP6 MLOAD PUSH3 0x461BCD PUSH1 0xE5 SHL DUP2 MSTORE SWAP1 DUP2 ADD DUP8 SWAP1 MSTORE PUSH1 0x1C PUSH1 0x24 DUP3 ADD MSTORE PUSH32 0x555344433A20696E73756666696369656E7420616C6C6F77616E636500000000 PUSH1 0x44 DUP3 ADD MSTORE PUSH1 0x64 SWAP1 REVERT JUMPDEST DUP1 REVERT JUMPDEST POP POP CALLVALUE PUSH2 0x189 JUMPI DUP2 PUSH1 0x3 NOT CALLDATASIZE ADD SLT PUSH2 0x189 JUMPI PUSH1 0x20 SWAP1 PUSH1 0x3 SLOAD SWAP1 MLOAD SWAP1 DUP2 MSTORE RETURN JUMPDEST POP POP CALLVALUE PUSH2 0x189 JUMPI DUP1 PUSH1 0x3 NOT CALLDATASIZE ADD SLT PUSH2 0x189 JUMPI PUSH1 0x20 SWAP2 DUP2 PUSH2 0x6CB PUSH2 0x85A JUMP JUMPDEST SWAP2 PUSH1 0x24 CALLDATALOAD SWAP2 DUP3 SWAP2 CALLER DUP2 MSTORE PUSH1 0x5 DUP8 MSTORE DUP2 DUP2 KECCAK256 SWAP5 PUSH1 0x1 DUP1 PUSH1 0xA0 SHL SUB AND SWAP5 DUP6 DUP3 MSTORE DUP8 MSTORE KECCAK256 SSTORE DUP3 MLOAD SWAP1 DUP2 MSTORE PUSH32 0x8C5BE1E5EBEC7D5BD14F71427D1E84F3DD0314C0F7B2291E5B200AC8C7C3B925 DUP5 CALLER SWAP3 LOG3 MLOAD PUSH1 0x1 DUP2 MSTORE RETURN JUMPDEST DUP5 SWAP2 POP DUP4 CALLVALUE PUSH2 0x13C JUMPI DUP3 PUSH1 0x3 NOT CALLDATASIZE ADD SLT PUSH2 0x13C JUMPI DUP3 DUP4 SLOAD PUSH1 0x1 DUP2 DUP2 SHR SWAP1 DUP1 DUP4 AND SWAP3 DUP4 ISZERO PUSH2 0x807 JUMPI JUMPDEST PUSH1 0x20 SWAP4 DUP5 DUP5 LT DUP2 EQ PUSH2 0x325 JUMPI DUP4 DUP9 MSTORE SWAP1 DUP2 ISZERO PUSH2 0x7EB JUMPI POP PUSH1 0x1 EQ PUSH2 0x796 JUMPI POP POP POP DUP3 SWAP1 SUB PUSH1 0x1F ADD PUSH1 0x1F NOT AND DUP3 ADD SWAP3 PUSH8 0xFFFFFFFFFFFFFFFF DUP5 GT DUP4 DUP6 LT OR PUSH2 0x2A1 JUMPI POP DUP3 SWAP2 DUP3 PUSH2 0x29D SWAP3 MSTORE DUP3 PUSH2 0x811 JUMP JUMPDEST DUP7 DUP1 MSTORE SWAP2 SWAP3 POP DUP6 SWAP2 DUP4 PUSH32 0x290DECD9548B62A8D60345A988386FC84BA6BC95484008F6362F93160EF3E563 JUMPDEST DUP4 DUP6 LT PUSH2 0x7D7 JUMPI POP POP POP POP DUP4 ADD ADD DUP6 DUP1 DUP1 PUSH2 0x26B JUMP JUMPDEST DUP1 SLOAD DUP9 DUP7 ADD DUP4 ADD MSTORE SWAP4 ADD SWAP3 DUP5 SWAP1 DUP3 ADD PUSH2 0x7C1 JUMP JUMPDEST PUSH1 0xFF NOT AND DUP8 DUP6 ADD MSTORE POP POP ISZERO ISZERO PUSH1 0x5 SHL DUP5 ADD ADD SWAP1 POP DUP6 DUP1 DUP1 PUSH2 0x26B JUMP JUMPDEST SWAP2 PUSH1 0x7F AND SWAP2 PUSH2 0x746 JUMP JUMPDEST PUSH1 0x20 DUP1 DUP3 MSTORE DUP3 MLOAD DUP2 DUP4 ADD DUP2 SWAP1 MSTORE SWAP1 SWAP4 SWAP3 PUSH1 0x0 JUMPDEST DUP3 DUP2 LT PUSH2 0x846 JUMPI POP POP PUSH1 0x40 SWAP3 SWAP4 POP PUSH1 0x0 DUP4 DUP3 DUP5 ADD ADD MSTORE PUSH1 0x1F DUP1 NOT SWAP2 ADD AND ADD ADD SWAP1 JUMP JUMPDEST DUP2 DUP2 ADD DUP7 ADD MLOAD DUP5 DUP3 ADD PUSH1 0x40 ADD MSTORE DUP6 ADD PUSH2 0x824 JUMP JUMPDEST PUSH1 0x4 CALLDATALOAD SWAP1 PUSH1 0x1 PUSH1 0x1 PUSH1 0xA0 SHL SUB DUP3 AND DUP3 SUB PUSH2 0x870 JUMPI JUMP JUMPDEST PUSH1 0x0 DUP1 REVERT JUMPDEST PUSH1 0x24 CALLDATALOAD SWAP1 PUSH1 0x1 PUSH1 0x1 PUSH1 0xA0 SHL SUB DUP3 AND DUP3 SUB PUSH2 0x870 JUMPI JUMP JUMPDEST ISZERO PUSH2 0x892 JUMPI JUMP JUMPDEST PUSH1 0x40 MLOAD PUSH3 0x461BCD PUSH1 0xE5 SHL DUP2 MSTORE PUSH1 0x20 PUSH1 0x4 DUP3 ADD MSTORE PUSH1 0x17 PUSH1 0x24 DUP3 ADD MSTORE PUSH32 0x555344433A20696E76616C696420726563697069656E74000000000000000000 PUSH1 0x44 DUP3 ADD MSTORE PUSH1 0x64 SWAP1 REVERT JUMPDEST ISZERO PUSH2 0x8DE JUMPI JUMP JUMPDEST PUSH1 0x40 MLOAD PUSH3 0x461BCD PUSH1 0xE5 SHL DUP2 MSTORE PUSH1 0x20 PUSH1 0x4 DUP3 ADD MSTORE PUSH1 0x1A PUSH1 0x24 DUP3 ADD MSTORE PUSH32 0x555344433A20696E73756666696369656E742062616C616E6365000000000000 PUSH1 0x44 DUP3 ADD MSTORE PUSH1 0x64 SWAP1 REVERT JUMPDEST SWAP2 SWAP1 DUP3 SUB SWAP2 DUP3 GT PUSH2 0x930 JUMPI JUMP JUMPDEST PUSH4 0x4E487B71 PUSH1 0xE0 SHL PUSH1 0x0 MSTORE PUSH1 0x11 PUSH1 0x4 MSTORE PUSH1 0x24 PUSH1 0x0 REVERT JUMPDEST SWAP2 SWAP1 DUP3 ADD DUP1 SWAP3 GT PUSH2 0x930 JUMPI JUMP JUMPDEST ISZERO PUSH2 0x95A JUMPI JUMP JUMPDEST PUSH1 0x40 MLOAD PUSH3 0x461BCD PUSH1 0xE5 SHL DUP2 MSTORE PUSH1 0x20 PUSH1 0x4 DUP3 ADD MSTORE PUSH1 0xF PUSH1 0x24 DUP3 ADD MSTORE PUSH15 0x2AA9A2219D103737BA1037BBB732B9 PUSH1 0x89 SHL PUSH1 0x44 DUP3 ADD MSTORE PUSH1 0x64 SWAP1 REVERT INVALID 0xDD CALLCODE MSTORE 0xAD SHL 0xE2 0xC8 SWAP12 PUSH10 0xC2B068FC378DAA952BA7 CALL PUSH4 0xC4A11628 CREATE2 GAS 0x4D CREATE2 0x23 0xB3 0xEF LOG2 PUSH5 0x6970667358 0x22 SLT KECCAK256 INVALID 0x28 SWAP9 REVERT CALLER PUSH24 0x8D21DD48702B72E939432DAA1D901B9F21460A0860E73EC2 0x22 0xC1 PUSH5 0x736F6C6343 STOP ADDMOD EQ STOP CALLER "},"methodIdentifiers":{"allowance(address,address)":"dd62ed3e","approve(address,uint256)":"095ea7b3","balanceOf(address)":"70a08231","decimals()":"313ce567","faucet(uint256)":"57915897","mint(address,uint256)":"40c10f19","name()":"06fdde03","owner()":"8da5cb5b","symbol()":"95d89b41","totalSupply()":"18160ddd","transfer(address,uint256)":"a9059cbb","transferFrom(address,address,uint256)":"23b872dd","transferOwnership(address)":"f2fde38b"}}}}}