{"contracts/MockPriceOracle.sol":{"MockPriceOracle":{"abi":[{"inputs":[{"internalType":"uint256","name":"_initialPrice","type":"uint256"}],"stateMutability":"nonpayable","type":"constructor"},{"anonymous":false,"inputs":[{"indexed":false,"internalType":"uint256","name":"newAge","type":"uint256"}],"name":"MaxPriceAgeUpdated","type":"event"},{"anonymous":false,"inputs":[{"indexed":false,"internalType":"bool","name":"active","type":"bool"}],"name":"OracleStatusChanged","type":"event"},{"anonymous":false,"inputs":[{"indexed":false,"internalType":"uint256","name":"newPrice","type":"uint256"},{"indexed":false,"internalType":"uint256","name":"timestamp","type":"uint256"}],"name":"PriceUpdated","type":"event"},{"inputs":[],"name":"active","outputs":[{"internalType":"bool","name":"","type":"bool"}],"stateMutability":"view","type":"function"},{"inputs":[],"name":"getMaxPriceAge","outputs":[{"internalType":"uint256","name":"","type":"uint256"}],"stateMutability":"view","type":"function"},{"inputs":[],"name":"getPrice","outputs":[{"internalType":"uint256","name":"","type":"uint256"}],"stateMutability":"view","type":"function"},{"inputs":[],"name":"getPriceWithTimestamp","outputs":[{"internalType":"uint256","name":"","type":"uint256"},{"internalType":"uint256","name":"","type":"uint256"}],"stateMutability":"view","type":"function"},{"inputs":[],"name":"isActive","outputs":[{"internalType":"bool","name":"","type":"bool"}],"stateMutability":"view","type":"function"},{"inputs":[],"name":"maxPriceAge","outputs":[{"internalType":"uint256","name":"","type":"uint256"}],"stateMutability":"view","type":"function"},{"inputs":[],"name":"owner","outputs":[{"internalType":"address","name":"","type":"address"}],"stateMutability":"view","type":"function"},{"inputs":[{"internalType":"bool","name":"_active","type":"bool"}],"name":"setActive","outputs":[],"stateMutability":"nonpayable","type":"function"},{"inputs":[{"internalType":"uint256","name":"_maxAge","type":"uint256"}],"name":"setMaxPriceAge","outputs":[],"stateMutability":"nonpayable","type":"function"},{"inputs":[{"internalType":"int256","name":"changePercent","type":"int256"}],"name":"simulatePriceMovement","outputs":[],"stateMutability":"nonpayable","type":"function"},{"inputs":[{"internalType":"address","name":"newOwner","type":"address"}],"name":"transferOwnership","outputs":[],"stateMutability":"nonpayable","type":"function"},{"inputs":[{"internalType":"uint256","name":"_newPrice","type":"uint256"}],"name":"updatePrice","outputs":[],"stateMutability":"nonpayable","type":"function"}],"evm":{"bytecode":{"linkReferences":{},"object":"60803461007b57601f61073738819003918201601f19168301916001600160401b038311848410176100805780849260209460405283398101031261007b5751610e106003556004805460ff19166001908117909155600080546001600160a01b0319163317905555426002556040516106a090816100978239f35b600080fd5b634e487b7160e01b600052604160045260246000fdfe6080604081815260048036101561001557600080fd5b600092833560e01c90816302fb0c5e146105a7575080631584410a1461035e57806322f3e2d41461056457806356447ce8146104ca5780638d6cc56d146104255780638da5cb5b146103fd57806398d5fdca14610381578063a432cc8c1461035e578063acec338a146102ee578063e7dd43d2146102b9578063f2fde38b146102285763fca7303a146100a757600080fd5b34610224576020366003190112610224578035906100cf60018060a01b03855416331461062a565b6113871982121580610218575b156101d557600154918483129080840290600160ff1b811483166101c25784820514841517156101af576127109005809301928312801582169115161761019c5783821315610160575090817f945c1c4e99aa89f648fbfe3df471b916f719e16d960fcec0737d4d56bd69683892600155426002558151908152426020820152a180f35b606490602084519162461bcd60e51b8352820152601660248201527513dc9858db194e881a5b9d985b1a59081c995cdd5b1d60521b6044820152fd5b634e487b7160e01b845260119052602483fd5b634e487b7160e01b865260118352602486fd5b634e487b7160e01b875260118452602487fd5b606490602084519162461bcd60e51b8352820152601860248201527f4f7261636c653a206368616e676520746f6f206c6172676500000000000000006044820152fd5b506113888213156100dc565b8280fd5b509034610224576020366003190112610224576001600160a01b038235818116939192908490036102b5576102628554938416331461062a565b831561027a5750506001600160a01b03191617815580f35b906020606492519162461bcd60e51b8352820152601560248201527427b930b1b6329d1034b73b30b634b21037bbb732b960591b6044820152fd5b8480fd5b5082346102eb57806003193601126102eb575060ff6102d99154166105c8565b60015460025482519182526020820152f35b80fd5b503461022457602036600319011261022457803580151580910361035a577f25de6ecc0a07bc4466fd80484cf3004b609d934030530ddde3ae04b8da1da2499260209261034560018060a01b03875416331461062a565b60ff1981541660ff841617905551908152a180f35b8380fd5b50503461037d578160031936011261037d576020906003549051908152f35b5080fd5b5082346102eb57806003193601126102eb57506103a160ff8254166105c8565b6103b060025460035490610607565b42116103c3576020826001549051908152f35b6020606492519162461bcd60e51b8352820152601560248201527413dc9858db194e881c1c9a58d9481d1bdbc81bdb19605a1b6044820152fd5b50503461037d578160031936011261037d57905490516001600160a01b039091168152602090f35b50346102245760203660031901126102245780359061044e60018060a01b03855416331461062a565b811561048f575090817f945c1c4e99aa89f648fbfe3df471b916f719e16d960fcec0737d4d56bd69683892600155426002558151908152426020820152a180f35b606490602084519162461bcd60e51b835282015260156024820152744f7261636c653a20696e76616c696420707269636560581b6044820152fd5b509034610224576020366003190112610224578135916104f460018060a01b03855416331461062a565b821561052c5750816020917fb1740bfafb685e9cda34b9238959b40d11f603ba6db685c0468d4804140547b49360035551908152a180f35b6020606492519162461bcd60e51b835282015260136024820152724f7261636c653a20696e76616c69642061676560681b6044820152fd5b5091346102eb57806003193601126102eb575060ff6020925416908161058d575b519015158152f35b905061059e60025460035490610607565b42111590610585565b905083346102eb57806003193601126102eb575060ff602092541615158152f35b156105cf57565b60405162461bcd60e51b815260206004820152601060248201526f4f7261636c653a20696e61637469766560801b6044820152606490fd5b9190820180921161061457565b634e487b7160e01b600052601160045260246000fd5b1561063157565b60405162461bcd60e51b815260206004820152601160248201527027b930b1b6329d103737ba1037bbb732b960791b6044820152606490fdfea26469706673582212201dd36b63cef8b3775c5418d53d8beb427d92fd0a083b3f0df9dabffbb327d36264736f6c63430008140033","opcodes":"PUSH1 0x80 CALLVALUE PUSH2 0x7B JUMPI PUSH1 0x1F PUSH2 0x737 CODESIZE DUP2 SWAP1 SUB SWAP2 DUP3 ADD PUSH1 0x1F NOT AND DUP4 ADD SWAP2 PUSH1 0x1 PUSH1 0x1 PUSH1 0x40 SHL SUB DUP4 GT DUP5 DUP5 LT OR PUSH2 0x80 JUMPI DUP1 DUP5 SWAP3 PUSH1 0x20 SWAP5 PUSH1 0x40 MSTORE DUP4 CODECOPY DUP2 ADD SUB SLT PUSH2 0x7B JUMPI MLOAD PUSH2 0xE10 PUSH1 0x3 SSTORE PUSH1 0x4 DUP1 SLOAD PUSH1 0xFF NOT AND PUSH1 0x1 SWAP1 DUP2 OR SWAP1 SWAP2 SSTORE PUSH1 0x0 DUP1 SLOAD PUSH1 0x1 PUSH1 0x1 PUSH1 0xA0 SHL SUB NOT AND CALLER OR SWAP1 SSTORE SSTORE TIMESTAMP PUSH1 0x2 SSTORE PUSH1 0x40 MLOAD PUSH2 0x6A0 SWAP1 DUP2 PUSH2 0x97 DUP3 CODECOPY RETURN JUMPDEST PUSH1 0x0 DUP1 REVERT JUMPDEST PUSH4 0x4E487B71 PUSH1 0xE0 SHL PUSH1 0x0 MSTORE PUSH1 0x41 PUSH1 0x4 MSTORE PUSH1 0x24 PUSH1 0x0 REVERT INVALID PUSH1 0x80 PUSH1 0x40 DUP2 DUP2 MSTORE PUSH1 0x4 DUP1 CALLDATASIZE LT ISZERO PUSH2 0x15 JUMPI PUSH1 0x0 DUP1 REVERT JUMPDEST PUSH1 0x0 SWAP3 DUP4 CALLDATALOAD PUSH1 0xE0 SHR SWAP1 DUP2 PUSH4 0x2FB0C5E EQ PUSH2 0x5A7 JUMPI POP DUP1 PUSH4 0x1584410A EQ PUSH2 0x35E JUMPI DUP1 PUSH4 0x22F3E2D4 EQ PUSH2 0x564 JUMPI DUP1 PUSH4 0x56447CE8 EQ PUSH2 0x4CA JUMPI DUP1 PUSH4 0x8D6CC56D EQ PUSH2 0x425 JUMPI DUP1 PUSH4 0x8DA5CB5B EQ PUSH2 0x3FD JUMPI DUP1 PUSH4 0x98D5FDCA EQ PUSH2 0x381 JUMPI DUP1 PUSH4 0xA432CC8C EQ PUSH2 0x35E JUMPI DUP1 PUSH4 0xACEC338A EQ PUSH2 0x2EE JUMPI DUP1 PUSH4 0xE7DD43D2 EQ PUSH2 0x2B9 JUMPI DUP1 PUSH4 0xF2FDE38B EQ PUSH2 0x228 JUMPI PUSH4 0xFCA7303A EQ PUSH2 0xA7 JUMPI PUSH1 0x0 DUP1 REVERT JUMPDEST CALLVALUE PUSH2 0x224 JUMPI PUSH1 0x20 CALLDATASIZE PUSH1 0x3 NOT ADD SLT PUSH2 0x224 JUMPI DUP1 CALLDATALOAD SWAP1 PUSH2 0xCF PUSH1 0x1 DUP1 PUSH1 0xA0 SHL SUB DUP6 SLOAD AND CALLER EQ PUSH2 0x62A JUMP JUMPDEST PUSH2 0x1387 NOT DUP3 SLT ISZERO DUP1 PUSH2 0x218 JUMPI JUMPDEST ISZERO PUSH2 0x1D5 JUMPI PUSH1 0x1 SLOAD SWAP2 DUP5 DUP4 SLT SWAP1 DUP1 DUP5 MUL SWAP1 PUSH1 0x1 PUSH1 0xFF SHL DUP2 EQ DUP4 AND PUSH2 0x1C2 JUMPI DUP5 DUP3 SDIV EQ DUP5 ISZERO OR ISZERO PUSH2 0x1AF JUMPI PUSH2 0x2710 SWAP1 SDIV DUP1 SWAP4 ADD SWAP3 DUP4 SLT DUP1 ISZERO DUP3 AND SWAP2 ISZERO AND OR PUSH2 0x19C JUMPI DUP4 DUP3 SGT ISZERO PUSH2 0x160 JUMPI POP SWAP1 DUP2 PUSH32 0x945C1C4E99AA89F648FBFE3DF471B916F719E16D960FCEC0737D4D56BD696838 SWAP3 PUSH1 0x1 SSTORE TIMESTAMP PUSH1 0x2 SSTORE DUP2 MLOAD SWAP1 DUP2 MSTORE TIMESTAMP PUSH1 0x20 DUP3 ADD MSTORE LOG1 DUP1 RETURN JUMPDEST PUSH1 0x64 SWAP1 PUSH1 0x20 DUP5 MLOAD SWAP2 PUSH3 0x461BCD PUSH1 0xE5 SHL DUP4 MSTORE DUP3 ADD MSTORE PUSH1 0x16 PUSH1 0x24 DUP3 ADD MSTORE PUSH22 0x13DC9858DB194E881A5B9D985B1A59081C995CDD5B1D PUSH1 0x52 SHL PUSH1 0x44 DUP3 ADD MSTORE REVERT JUMPDEST PUSH4 0x4E487B71 PUSH1 0xE0 SHL DUP5 MSTORE PUSH1 0x11 SWAP1 MSTORE PUSH1 0x24 DUP4 REVERT JUMPDEST PUSH4 0x4E487B71 PUSH1 0xE0 SHL DUP7 MSTORE PUSH1 0x11 DUP4 MSTORE PUSH1 0x24 DUP7 REVERT JUMPDEST PUSH4 0x4E487B71 PUSH1 0xE0 SHL DUP8 MSTORE PUSH1 0x11 DUP5 MSTORE PUSH1 0x24 DUP8 REVERT JUMPDEST PUSH1 0x64 SWAP1 PUSH1 0x20 DUP5 MLOAD SWAP2 PUSH3 0x461BCD PUSH1 0xE5 SHL DUP4 MSTORE DUP3 ADD MSTORE PUSH1 0x18 PUSH1 0x24 DUP3 ADD MSTORE PUSH32 0x4F7261636C653A206368616E676520746F6F206C617267650000000000000000 PUSH1 0x44 DUP3 ADD MSTORE REVERT JUMPDEST POP PUSH2 0x1388 DUP3 SGT ISZERO PUSH2 0xDC JUMP JUMPDEST DUP3 DUP1 REVERT JUMPDEST POP SWAP1 CALLVALUE PUSH2 0x224 JUMPI PUSH1 0x20 CALLDATASIZE PUSH1 0x3 NOT ADD SLT PUSH2 0x224 JUMPI PUSH1 0x1 PUSH1 0x1 PUSH1 0xA0 SHL SUB DUP3 CALLDATALOAD DUP2 DUP2 AND SWAP4 SWAP2 SWAP3 SWAP1 DUP5 SWAP1 SUB PUSH2 0x2B5 JUMPI PUSH2 0x262 DUP6 SLOAD SWAP4 DUP5 AND CALLER EQ PUSH2 0x62A JUMP JUMPDEST DUP4 ISZERO PUSH2 0x27A JUMPI POP POP PUSH1 0x1 PUSH1 0x1 PUSH1 0xA0 SHL SUB NOT AND OR DUP2 SSTORE DUP1 RETURN JUMPDEST SWAP1 PUSH1 0x20 PUSH1 0x64 SWAP3 MLOAD SWAP2 PUSH3 0x461BCD PUSH1 0xE5 SHL DUP4 MSTORE DUP3 ADD MSTORE PUSH1 0x15 PUSH1 0x24 DUP3 ADD MSTORE PUSH21 0x27B930B1B6329D1034B73B30B634B21037BBB732B9 PUSH1 0x59 SHL PUSH1 0x44 DUP3 ADD MSTORE REVERT JUMPDEST DUP5 DUP1 REVERT JUMPDEST POP DUP3 CALLVALUE PUSH2 0x2EB JUMPI DUP1 PUSH1 0x3 NOT CALLDATASIZE ADD SLT PUSH2 0x2EB JUMPI POP PUSH1 0xFF PUSH2 0x2D9 SWAP2 SLOAD AND PUSH2 0x5C8 JUMP JUMPDEST PUSH1 0x1 SLOAD PUSH1 0x2 SLOAD DUP3 MLOAD SWAP2 DUP3 MSTORE PUSH1 0x20 DUP3 ADD MSTORE RETURN JUMPDEST DUP1 REVERT JUMPDEST POP CALLVALUE PUSH2 0x224 JUMPI PUSH1 0x20 CALLDATASIZE PUSH1 0x3 NOT ADD SLT PUSH2 0x224 JUMPI DUP1 CALLDATALOAD DUP1 ISZERO ISZERO DUP1 SWAP2 SUB PUSH2 0x35A JUMPI PUSH32 0x25DE6ECC0A07BC4466FD80484CF3004B609D934030530DDDE3AE04B8DA1DA249 SWAP3 PUSH1 0x20 SWAP3 PUSH2 0x345 PUSH1 0x1 DUP1 PUSH1 0xA0 SHL SUB DUP8 SLOAD AND CALLER EQ PUSH2 0x62A JUMP JUMPDEST PUSH1 0xFF NOT DUP2 SLOAD AND PUSH1 0xFF DUP5 AND OR SWAP1 SSTORE MLOAD SWAP1 DUP2 MSTORE LOG1 DUP1 RETURN JUMPDEST DUP4 DUP1 REVERT JUMPDEST POP POP CALLVALUE PUSH2 0x37D JUMPI DUP2 PUSH1 0x3 NOT CALLDATASIZE ADD SLT PUSH2 0x37D JUMPI PUSH1 0x20 SWAP1 PUSH1 0x3 SLOAD SWAP1 MLOAD SWAP1 DUP2 MSTORE RETURN JUMPDEST POP DUP1 REVERT JUMPDEST POP DUP3 CALLVALUE PUSH2 0x2EB JUMPI DUP1 PUSH1 0x3 NOT CALLDATASIZE ADD SLT PUSH2 0x2EB JUMPI POP PUSH2 0x3A1 PUSH1 0xFF DUP3 SLOAD AND PUSH2 0x5C8 JUMP JUMPDEST PUSH2 0x3B0 PUSH1 0x2 SLOAD PUSH1 0x3 SLOAD SWAP1 PUSH2 0x607 JUMP JUMPDEST TIMESTAMP GT PUSH2 0x3C3 JUMPI PUSH1 0x20 DUP3 PUSH1 0x1 SLOAD SWAP1 MLOAD SWAP1 DUP2 MSTORE RETURN JUMPDEST PUSH1 0x20 PUSH1 0x64 SWAP3 MLOAD SWAP2 PUSH3 0x461BCD PUSH1 0xE5 SHL DUP4 MSTORE DUP3 ADD MSTORE PUSH1 0x15 PUSH1 0x24 DUP3 ADD MSTORE PUSH21 0x13DC9858DB194E881C1C9A58D9481D1BDBC81BDB19 PUSH1 0x5A SHL PUSH1 0x44 DUP3 ADD MSTORE REVERT JUMPDEST POP POP CALLVALUE PUSH2 0x37D JUMPI DUP2 PUSH1 0x3 NOT CALLDATASIZE ADD SLT PUSH2 0x37D JUMPI SWAP1 SLOAD SWAP1 MLOAD PUSH1 0x1 PUSH1 0x1 PUSH1 0xA0 SHL SUB SWAP1 SWAP2 AND DUP2 MSTORE PUSH1 0x20 SWAP1 RETURN JUMPDEST POP CALLVALUE PUSH2 0x224 JUMPI PUSH1 0x20 CALLDATASIZE PUSH1 0x3 NOT ADD SLT PUSH2 0x224 JUMPI DUP1 CALLDATALOAD SWAP1 PUSH2 0x44E PUSH1 0x1 DUP1 PUSH1 0xA0 SHL SUB DUP6 SLOAD AND CALLER EQ PUSH2 0x62A JUMP JUMPDEST DUP2 ISZERO PUSH2 0x48F JUMPI POP SWAP1 DUP2 PUSH32 0x945C1C4E99AA89F648FBFE3DF471B916F719E16D960FCEC0737D4D56BD696838 SWAP3 PUSH1 0x1 SSTORE TIMESTAMP PUSH1 0x2 SSTORE DUP2 MLOAD SWAP1 DUP2 MSTORE TIMESTAMP PUSH1 0x20 DUP3 ADD MSTORE LOG1 DUP1 RETURN JUMPDEST PUSH1 0x64 SWAP1 PUSH1 0x20 DUP5 MLOAD SWAP2 PUSH3 0x461BCD PUSH1 0xE5 SHL DUP4 MSTORE DUP3 ADD MSTORE PUSH1 0x15 PUSH1 0x24 DUP3 ADD MSTORE PUSH21 0x4F7261636C653A20696E76616C6964207072696365 PUSH1 0x58 SHL PUSH1 0x44 DUP3 ADD MSTORE REVERT JUMPDEST POP SWAP1 CALLVALUE PUSH2 0x224 JUMPI PUSH1 0x20 CALLDATASIZE PUSH1 0x3 NOT ADD SLT PUSH2 0x224 JUMPI DUP2 CALLDATALOAD SWAP2 PUSH2 0x4F4 PUSH1 0x1 DUP1 PUSH1 0xA0 SHL SUB DUP6 SLOAD AND CALLER EQ PUSH2 0x62A JUMP JUMPDEST DUP3 ISZERO PUSH2 0x52C JUMPI POP DUP2 PUSH1 0x20 SWAP2 PUSH32 0xB1740BFAFB685E9CDA34B9238959B40D11F603BA6DB685C0468D4804140547B4 SWAP4 PUSH1 0x3 SSTORE MLOAD SWAP1 DUP2 MSTORE LOG1 DUP1 RETURN JUMPDEST PUSH1 0x20 PUSH1 0x64 SWAP3 MLOAD SWAP2 PUSH3 0x461BCD PUSH1 0xE5 SHL DUP4 MSTORE DUP3 ADD MSTORE PUSH1 0x13 PUSH1 0x24 DUP3 ADD MSTORE PUSH19 0x4F7261636C653A20696E76616C696420616765 PUSH1 0x68 SHL PUSH1 0x44 DUP3 ADD MSTORE REVERT JUMPDEST POP SWAP2 CALLVALUE PUSH2 0x2EB JUMPI DUP1 PUSH1 0x3 NOT CALLDATASIZE ADD SLT PUSH2 0x2EB JUMPI POP PUSH1 0xFF PUSH1 0x20 SWAP3 SLOAD AND SWAP1 DUP2 PUSH2 0x58D JUMPI JUMPDEST MLOAD SWAP1 ISZERO ISZERO DUP2 MSTORE RETURN JUMPDEST SWAP1 POP PUSH2 0x59E PUSH1 0x2 SLOAD PUSH1 0x3 SLOAD SWAP1 PUSH2 0x607 JUMP JUMPDEST TIMESTAMP GT ISZERO SWAP1 PUSH2 0x585 JUMP JUMPDEST SWAP1 POP DUP4 CALLVALUE PUSH2 0x2EB JUMPI DUP1 PUSH1 0x3 NOT CALLDATASIZE ADD SLT PUSH2 0x2EB JUMPI POP PUSH1 0xFF PUSH1 0x20 SWAP3 SLOAD AND ISZERO ISZERO DUP2 MSTORE RETURN JUMPDEST ISZERO PUSH2 0x5CF JUMPI JUMP JUMPDEST PUSH1 0x40 MLOAD PUSH3 0x461BCD PUSH1 0xE5 SHL DUP2 MSTORE PUSH1 0x20 PUSH1 0x4 DUP3 ADD MSTORE PUSH1 0x10 PUSH1 0x24 DUP3 ADD MSTORE PUSH16 0x4F7261636C653A20696E616374697665 PUSH1 0x80 SHL PUSH1 0x44 DUP3 ADD MSTORE PUSH1 0x64 SWAP1 REVERT JUMPDEST SWAP2 SWAP1 DUP3 ADD DUP1 SWAP3 GT PUSH2 0x614 JUMPI JUMP JUMPDEST PUSH4 0x4E487B71 PUSH1 0xE0 SHL PUSH1 0x0 MSTORE PUSH1 0x11 PUSH1 0x4 MSTORE PUSH1 0x24 PUSH1 0x0 REVERT JUMPDEST ISZERO PUSH2 0x631 JUMPI JUMP JUMPDEST PUSH1 0x40 MLOAD PUSH3 0x461BCD PUSH1 0xE5 SHL DUP2 MSTORE PUSH1 0x20 PUSH1 0x4 DUP3 ADD MSTORE PUSH1 0x11 PUSH1 0x24 DUP3 ADD MSTORE PUSH17 0x27B930B1B6329D103737BA1037BBB732B9 PUSH1 0x79 SHL PUSH1 0x44 DUP3 ADD MSTORE PUSH1 0x64 SWAP1 REVERT INVALID LOG2 PUSH5 0x6970667358 0x22 SLT KECCAK256 SAR 0xD3 PUSH12 0x63CEF8B3775C5418D53D8BEB TIMESTAMP PUSH30 0x92FD0A083B3F0DF9DABFFBB327D36264736F6C6343000814003300000000 "},"methodIdentifiers":{"active()":"02fb0c5e","getMaxPriceAge()":"a432cc8c","getPrice()":"98d5fdca","getPriceWithTimestamp()":"e7dd43d2","isActive()":"22f3e2d4","maxPriceAge()":"1584410a","owner()":"8da5cb5b","setActive(bool)":"acec338a","setMaxPriceAge(uint256)":"56447ce8","simulatePriceMovement(int256)":"fca7303a","transferOwnership(address)":"f2fde38b","updatePrice(uint256)":"8d6cc56d"}}}}}