{"contracts/vAMMFactory.sol":{"vAMMFactory":{"abi":[{"inputs":[],"stateMutability":"nonpayable","type":"constructor"},{"anonymous":false,"inputs":[{"indexed":false,"internalType":"uint256","name":"newFee","type":"uint256"}],"name":"DeploymentFeeUpdated","type":"event"},{"anonymous":false,"inputs":[{"indexed":true,"internalType":"bytes32","name":"marketId","type":"bytes32"},{"indexed":false,"internalType":"string","name":"symbol","type":"string"},{"indexed":true,"internalType":"address","name":"vamm","type":"address"},{"indexed":true,"internalType":"address","name":"vault","type":"address"},{"indexed":false,"internalType":"address","name":"oracle","type":"address"},{"indexed":false,"internalType":"address","name":"collateralToken","type":"address"}],"name":"MarketCreated","type":"event"},{"anonymous":false,"inputs":[{"indexed":true,"internalType":"bytes32","name":"marketId","type":"bytes32"},{"indexed":false,"internalType":"bool","name":"isActive","type":"bool"}],"name":"MarketStatusChanged","type":"event"},{"anonymous":false,"inputs":[{"indexed":true,"internalType":"address","name":"previousOwner","type":"address"},{"indexed":true,"internalType":"address","name":"newOwner","type":"address"}],"name":"OwnershipTransferred","type":"event"},{"inputs":[{"internalType":"string","name":"symbol","type":"string"},{"internalType":"address","name":"oracle","type":"address"},{"internalType":"address","name":"collateralToken","type":"address"},{"internalType":"uint256","name":"initialPrice","type":"uint256"}],"name":"createMarket","outputs":[{"internalType":"bytes32","name":"marketId","type":"bytes32"},{"internalType":"address","name":"vammAddress","type":"address"},{"internalType":"address","name":"vaultAddress","type":"address"}],"stateMutability":"payable","type":"function"},{"inputs":[],"name":"deploymentFee","outputs":[{"internalType":"uint256","name":"","type":"uint256"}],"stateMutability":"view","type":"function"},{"inputs":[],"name":"getActiveMarkets","outputs":[{"internalType":"bytes32[]","name":"activeMarkets","type":"bytes32[]"}],"stateMutability":"view","type":"function"},{"inputs":[],"name":"getAllMarketIds","outputs":[{"internalType":"bytes32[]","name":"","type":"bytes32[]"}],"stateMutability":"view","type":"function"},{"inputs":[{"internalType":"bytes32","name":"marketId","type":"bytes32"}],"name":"getMarket","outputs":[{"components":[{"internalType":"address","name":"vamm","type":"address"},{"internalType":"address","name":"vault","type":"address"},{"internalType":"address","name":"oracle","type":"address"},{"internalType":"address","name":"collateralToken","type":"address"},{"internalType":"string","name":"symbol","type":"string"},{"internalType":"bool","name":"isActive","type":"bool"},{"internalType":"uint256","name":"createdAt","type":"uint256"}],"internalType":"struct vAMMFactory.MarketInfo","name":"","type":"tuple"}],"stateMutability":"view","type":"function"},{"inputs":[{"internalType":"address","name":"","type":"address"}],"name":"isValidMarket","outputs":[{"internalType":"bool","name":"","type":"bool"}],"stateMutability":"view","type":"function"},{"inputs":[],"name":"marketCount","outputs":[{"internalType":"uint256","name":"","type":"uint256"}],"stateMutability":"view","type":"function"},{"inputs":[{"internalType":"uint256","name":"","type":"uint256"}],"name":"marketIds","outputs":[{"internalType":"bytes32","name":"","type":"bytes32"}],"stateMutability":"view","type":"function"},{"inputs":[{"internalType":"bytes32","name":"","type":"bytes32"}],"name":"markets","outputs":[{"internalType":"address","name":"vamm","type":"address"},{"internalType":"address","name":"vault","type":"address"},{"internalType":"address","name":"oracle","type":"address"},{"internalType":"address","name":"collateralToken","type":"address"},{"internalType":"string","name":"symbol","type":"string"},{"internalType":"bool","name":"isActive","type":"bool"},{"internalType":"uint256","name":"createdAt","type":"uint256"}],"stateMutability":"view","type":"function"},{"inputs":[],"name":"owner","outputs":[{"internalType":"address","name":"","type":"address"}],"stateMutability":"view","type":"function"},{"inputs":[{"internalType":"address","name":"token","type":"address"},{"internalType":"uint256","name":"amount","type":"uint256"}],"name":"recoverToken","outputs":[],"stateMutability":"nonpayable","type":"function"},{"inputs":[{"internalType":"uint256","name":"newFee","type":"uint256"}],"name":"setDeploymentFee","outputs":[],"stateMutability":"nonpayable","type":"function"},{"inputs":[{"internalType":"bytes32","name":"marketId","type":"bytes32"},{"internalType":"bool","name":"isActive","type":"bool"}],"name":"setMarketStatus","outputs":[],"stateMutability":"nonpayable","type":"function"},{"inputs":[{"internalType":"address","name":"newOwner","type":"address"}],"name":"transferOwnership","outputs":[],"stateMutability":"nonpayable","type":"function"},{"inputs":[],"name":"withdrawFees","outputs":[],"stateMutability":"nonpayable","type":"function"}],"evm":{"bytecode":{"linkReferences":{},"object":"608060405267016345785d8a000060055534801561001c57600080fd5b50600080546001600160a01b03191633179055614f3c8061003e6000396000f3fe608060405260043610620000fb5760003560e01c8063a5e973c31162000095578063d002462b1162000060578063d002462b1462000306578063ec979082146200032b578063f2cff57f1462000343578063f2fde38b146200035b57600080fd5b8063a5e973c3146200026e578063b29a81401462000295578063b85ed63614620002ba578063c3c95c7b14620002d257600080fd5b806373d8c6bd11620000d657806373d8c6bd14620001885780637564912b14620001c5578063779a968314620001ff5780638da5cb5b146200023357600080fd5b80632a5197331462000100578063476343ee146200012757806358e6309f146200013f575b600080fd5b3480156200010d57600080fd5b50620001256200011f3660046200115a565b62000380565b005b3480156200013457600080fd5b506200012562000479565b3480156200014c57600080fd5b50620001736200015e366004620011ae565b60026020526000908152604090205460ff1681565b60405190151581526020015b60405180910390f35b6200019f62000199366004620011e9565b620005a1565b604080519384526001600160a01b0392831660208501529116908201526060016200017f565b348015620001d257600080fd5b50620001ea620001e4366004620012d1565b62000bb1565b6040516200017f97969594939291906200133f565b3480156200020c57600080fd5b50620002246200021e366004620012d1565b62000c95565b6040519081526020016200017f565b3480156200024057600080fd5b5060005462000255906001600160a01b031681565b6040516001600160a01b0390911681526020016200017f565b3480156200027b57600080fd5b506200028662000cb7565b6040516200017f919062001393565b348015620002a257600080fd5b5062000125620002b4366004620013d9565b62000e36565b348015620002c757600080fd5b506200028662000e63565b348015620002df57600080fd5b50620002f7620002f1366004620012d1565b62000ebd565b6040516200017f919062001406565b3480156200031357600080fd5b506200012562000325366004620012d1565b62001008565b3480156200033857600080fd5b506200022460045481565b3480156200035057600080fd5b506200022460055481565b3480156200036857600080fd5b50620001256200037a366004620011ae565b62001070565b6000546001600160a01b03163314620003b65760405162461bcd60e51b8152600401620003ad906200147f565b60405180910390fd5b60008281526001602052604090205482906001600160a01b03166200041e5760405162461bcd60e51b815260206004820152601960248201527f466163746f72793a206d61726b6574206e6f7420666f756e64000000000000006044820152606401620003ad565b600083815260016020908152604091829020600501805460ff1916851515908117909155915191825284917ff74802a5f03ef3b60653fc5ef30996c42340c6f63ad2a625f0f7d4f996b28f35910160405180910390a2505050565b6000546001600160a01b03163314620004a65760405162461bcd60e51b8152600401620003ad906200147f565b4780620004f65760405162461bcd60e51b815260206004820152601c60248201527f466163746f72793a206e6f206665657320746f207769746864726177000000006044820152606401620003ad565b600080546040516001600160a01b039091169083908381818185875af1925050503d806000811462000545576040519150601f19603f3d011682016040523d82523d6000602084013e6200054a565b606091505b50509050806200059d5760405162461bcd60e51b815260206004820152601a60248201527f466163746f72793a207769746864726177616c206661696c65640000000000006044820152606401620003ad565b5050565b6000806000600554341015620005fa5760405162461bcd60e51b815260206004820152601960248201527f466163746f72793a20696e73756666696369656e7420666565000000000000006044820152606401620003ad565b6001600160a01b038616620006525760405162461bcd60e51b815260206004820152601760248201527f466163746f72793a20696e76616c6964206f7261636c650000000000000000006044820152606401620003ad565b6001600160a01b038516620006aa5760405162461bcd60e51b815260206004820152601b60248201527f466163746f72793a20696e76616c696420636f6c6c61746572616c00000000006044820152606401620003ad565b6000875111620006fd5760405162461bcd60e51b815260206004820152601760248201527f466163746f72793a20696e76616c69642073796d626f6c0000000000000000006044820152606401620003ad565b60008411620007485760405162461bcd60e51b8152602060048201526016602482015275466163746f72793a20696e76616c696420707269636560501b6044820152606401620003ad565b8686864260045460405160200162000765959493929190620014ab565b60408051601f198184030181529181528151602092830120600081815260019093529120549093506001600160a01b031615620007de5760405162461bcd60e51b8152602060048201526016602482015275466163746f72793a206d61726b65742065786973747360501b6044820152606401620003ad565b600085604051620007ef906200113e565b6001600160a01b039091168152602001604051809103906000f0801580156200081c573d6000803e3d6000fd5b509050809150600082888760405162000835906200114c565b6001600160a01b0393841681529290911660208301526040820152606001604051809103906000f08015801562000870573d6000803e3d6000fd5b5060405163175dcc5d60e21b81526001600160a01b03808316600483015291955085925090831690635d77317490602401600060405180830381600087803b158015620008bc57600080fd5b505af1158015620008d1573d6000803e3d6000fd5b505060405163f2fde38b60e01b81523360048201526001600160a01b038516925063f2fde38b9150602401600060405180830381600087803b1580156200091757600080fd5b505af11580156200092c573d6000803e3d6000fd5b505060405163f2fde38b60e01b81523360048201526001600160a01b038416925063f2fde38b9150602401600060405180830381600087803b1580156200097257600080fd5b505af115801562000987573d6000803e3d6000fd5b505050506040518060e00160405280856001600160a01b03168152602001846001600160a01b03168152602001896001600160a01b03168152602001886001600160a01b031681526020018a8152602001600115158152602001428152506001600087815260200190815260200160002060008201518160000160006101000a8154816001600160a01b0302191690836001600160a01b0316021790555060208201518160010160006101000a8154816001600160a01b0302191690836001600160a01b0316021790555060408201518160020160006101000a8154816001600160a01b0302191690836001600160a01b0316021790555060608201518160030160006101000a8154816001600160a01b0302191690836001600160a01b03160217905550608082015181600401908162000ac391906200158a565b5060a082015160058201805491151560ff1992831617905560c0909201516006909101556001600160a01b03851660009081526002602052604081208054909216600190811790925560038054928301815581527fc2575a0e9e593c00f959f8c92f12db2869c3395a3b0502d05e2516446f71f85b909101869055600480549162000b4e8362001657565b9190505550826001600160a01b0316846001600160a01b0316867fc225f66bd854bba265bee08fc100e91c698aa86a9e70b0d9280d44f91066a93f8c8c8c60405162000b9d939291906200167f565b60405180910390a450509450945094915050565b6001602081905260009182526040909120805491810154600282015460038301546004840180546001600160a01b03968716969485169593851694909216929162000bfc90620014fb565b80601f016020809104026020016040519081016040528092919081815260200182805462000c2a90620014fb565b801562000c7b5780601f1062000c4f5761010080835404028352916020019162000c7b565b820191906000526020600020905b81548152906001019060200180831162000c5d57829003601f168201915b505050506005830154600690930154919260ff1691905087565b6003818154811062000ca657600080fd5b600091825260209091200154905081565b60606000805b60035481101562000d2f57600160006003838154811062000ce25762000ce2620016b4565b6000918252602080832090910154835282019290925260400190206005015460ff161562000d1a578162000d168162001657565b9250505b8062000d268162001657565b91505062000cbd565b508067ffffffffffffffff81111562000d4c5762000d4c620011d3565b60405190808252806020026020018201604052801562000d76578160200160208202803683370190505b5091506000805b60035481101562000e3057600160006003838154811062000da25762000da2620016b4565b6000918252602080832090910154835282019290925260400190206005015460ff161562000e1b576003818154811062000de05762000de0620016b4565b906000526020600020015484838151811062000e005762000e00620016b4565b60209081029190910101528162000e178162001657565b9250505b8062000e278162001657565b91505062000d7d565b50505090565b6000546001600160a01b031633146200059d5760405162461bcd60e51b8152600401620003ad906200147f565b6060600380548060200260200160405190810160405280929190818152602001828054801562000eb357602002820191906000526020600020905b81548152602001906001019080831162000e9e575b5050505050905090565b6040805160e0810182526000808252602082018190529181018290526060808201839052608082015260a0810182905260c0810191909152600082815260016020818152604092839020835160e08101855281546001600160a01b0390811682529382015484169281019290925260028101548316938201939093526003830154909116606082015260048201805491929160808401919062000f6090620014fb565b80601f016020809104026020016040519081016040528092919081815260200182805462000f8e90620014fb565b801562000fdf5780601f1062000fb35761010080835404028352916020019162000fdf565b820191906000526020600020905b81548152906001019060200180831162000fc157829003601f168201915b5050509183525050600582015460ff161515602082015260069091015460409091015292915050565b6000546001600160a01b03163314620010355760405162461bcd60e51b8152600401620003ad906200147f565b60058190556040518181527f40bd824d588484917db8fa4fc894c1e0feae5a75885290ba7b97521cebf82a809060200160405180910390a150565b6000546001600160a01b031633146200109d5760405162461bcd60e51b8152600401620003ad906200147f565b6001600160a01b038116620010ee5760405162461bcd60e51b81526020600482015260166024820152752330b1ba37b93c9d1034b73b30b634b21037bbb732b960511b6044820152606401620003ad565b600080546001600160a01b038381166001600160a01b0319831681178455604051919092169283917f8be0079c531659141344cd1fd0a4f28419497f9722a3daafe3b4186f6b6457e09190a35050565b61171180620016cb83390190565b61212b8062002ddc83390190565b600080604083850312156200116e57600080fd5b82359150602083013580151581146200118657600080fd5b809150509250929050565b80356001600160a01b0381168114620011a957600080fd5b919050565b600060208284031215620011c157600080fd5b620011cc8262001191565b9392505050565b634e487b7160e01b600052604160045260246000fd5b600080600080608085870312156200120057600080fd5b843567ffffffffffffffff808211156200121957600080fd5b818701915087601f8301126200122e57600080fd5b813581811115620012435762001243620011d3565b604051601f8201601f19908116603f011681019083821181831017156200126e576200126e620011d3565b816040528281528a60208487010111156200128857600080fd5b826020860160208301376000602084830101528098505050505050620012b16020860162001191565b9250620012c16040860162001191565b9396929550929360600135925050565b600060208284031215620012e457600080fd5b5035919050565b60005b8381101562001308578181015183820152602001620012ee565b50506000910152565b600081518084526200132b816020860160208601620012eb565b601f01601f19169290920160200192915050565b6001600160a01b038881168252878116602083015286811660408301528516606082015260e0608082018190526000906200137d9083018662001311565b93151560a08301525060c0015295945050505050565b6020808252825182820181905260009190848201906040850190845b81811015620013cd57835183529284019291840191600101620013af565b50909695505050505050565b60008060408385031215620013ed57600080fd5b620013f88362001191565b946020939093013593505050565b60208152600060018060a01b0380845116602084015280602085015116604084015280604085015116606084015280606085015116608084015250608083015160e060a08401526200145d61010084018262001311565b905060a0840151151560c084015260c084015160e08401528091505092915050565b6020808252601290820152712330b1ba37b93c9d103737ba1037bbb732b960711b604082015260600190565b60008651620014bf818460208b01620012eb565b6bffffffffffffffffffffffff19606097881b8116919093019081529490951b1660148401526028830191909152604882015260680192915050565b600181811c908216806200151057607f821691505b6020821081036200153157634e487b7160e01b600052602260045260246000fd5b50919050565b601f8211156200158557600081815260208120601f850160051c81016020861015620015605750805b601f850160051c820191505b8181101562001581578281556001016200156c565b5050505b505050565b815167ffffffffffffffff811115620015a757620015a7620011d3565b620015bf81620015b88454620014fb565b8462001537565b602080601f831160018114620015f75760008415620015de5750858301515b600019600386901b1c1916600185901b17855562001581565b600085815260208120601f198616915b82811015620016285788860151825594840194600190910190840162001607565b5085821015620016475787850151600019600388901b60f8161c191681555b5050505050600190811b01905550565b6000600182016200167857634e487b7160e01b600052601160045260246000fd5b5060010190565b60608152600062001694606083018662001311565b6001600160a01b0394851660208401529290931660409091015292915050565b634e487b7160e01b600052603260045260246000fdfe60806040526005805460ff1916905534801561001a57600080fd5b506040516117113803806117118339810160408190526100399161006c565b60008054336001600160a01b031991821617909155600280549091166001600160a01b039290921691909117905561009c565b60006020828403121561007e57600080fd5b81516001600160a01b038116811461009557600080fd5b9392505050565b611666806100ab6000396000f3fe608060405234801561001057600080fd5b50600436106101725760003560e01c806395ccea67116100de578063c1c7c9dd11610097578063cf1c316a11610071578063cf1c316a14610364578063e098372c14610377578063e1f1c4a71461038a578063f2fde38b1461039357600080fd5b8063c1c7c9dd1461032b578063c90ba3a61461033e578063cb6256801461035157600080fd5b806395ccea67146102a9578063a5d5db0c146102bc578063b2016bd4146102cf578063b39ff736146102e2578063b9181611146102f5578063bcbaf4871461031857600080fd5b80635d773174116101305780635d773174146102265780637569f4c8146102395780638456cb591461024c5780638da5cb5b1461025457806390a8ae9b1461027f5780639101e5b31461029657600080fd5b80622bc16414610177578063350c35e9146101c65780633f4ba83a146101db578063485d7d94146101e35780635969f96b146101f65780635c975abb14610209575b600080fd5b61018a6101853660046113f6565b6103a6565b6040516101bd91908151815260208083015190820152604080830151908201526060918201519181019190915260800190565b60405180910390f35b6101d96101d4366004611411565b61041c565b005b6101d96106c0565b6101d96101f13660046113f6565b61071f565b6101d961020436600461143b565b610792565b6005546102169060ff1681565b60405190151581526020016101bd565b6101d96102343660046113f6565b610876565b6101d9610247366004611411565b610982565b6101d9610af7565b600054610267906001600160a01b031681565b6040516001600160a01b0390911681526020016101bd565b61028861138881565b6040519081526020016101bd565b6101d96102a4366004611411565b610b59565b6101d96102b7366004611411565b610cdb565b6101d96102ca366004611411565b610dc7565b600254610267906001600160a01b031681565b6102166102f0366004611411565b610fa6565b6102166103033660046113f6565b60046020526000908152604090205460ff1681565b6101d9610326366004611411565b611020565b6102886103393660046113f6565b611111565b61028861034c3660046113f6565b611177565b6101d961035f366004611411565b6111a7565b6101d96103723660046113f6565b61127c565b600154610267906001600160a01b031681565b61028861271081565b6101d96103a13660046113f6565b611341565b6103d16040518060800160405280600081526020016000815260200160008152602001600081525090565b506001600160a01b0316600090815260036020818152604092839020835160808101855281548152600182015492810192909252600281015493820193909352910154606082015290565b60055460ff16156104485760405162461bcd60e51b815260040161043f9061146e565b60405180910390fd5b600081116104685760405162461bcd60e51b815260040161043f90611495565b6001600160a01b03821661048e5760405162461bcd60e51b815260040161043f906114c4565b336001600160a01b03831614806104b457503360009081526004602052604090205460ff165b6104d05760405162461bcd60e51b815260040161043f906114f1565b6001600160a01b038216600090815260036020526040902080548211156105395760405162461bcd60e51b815260206004820152601e60248201527f5661756c743a20696e73756666696369656e7420636f6c6c61746572616c0000604482015260640161043f565b600061054484611111565b9050828110156105a25760405162461bcd60e51b8152602060048201526024808201527f5661756c743a20696e73756666696369656e7420617661696c61626c65206d616044820152633933b4b760e11b606482015260840161043f565b828260000160008282546105b69190611536565b909155505060025460405163a9059cbb60e01b81526001600160a01b038681166004830152602482018690529091169063a9059cbb906044016020604051808303816000875af115801561060e573d6000803e3d6000fd5b505050506040513d601f19601f820116820180604052508101906106329190611549565b6106775760405162461bcd60e51b815260206004820152601660248201527515985d5b1d0e881d1c985b9cd9995c8819985a5b195960521b604482015260640161043f565b836001600160a01b03167fc30fcfbcaac9e0deffa719714eaa82396ff506a0d0d0eebe170830177288715d846040516106b291815260200190565b60405180910390a250505050565b6000546001600160a01b031633146106ea5760405162461bcd60e51b815260040161043f9061156b565b6005805460ff191690556040517fa45f47fdea8a1efdd9029a5691c7f759c32b7c698632b563573e155625d1693390600090a1565b6000546001600160a01b031633146107495760405162461bcd60e51b815260040161043f9061156b565b6001600160a01b038116600081815260046020526040808220805460ff19169055517f0fafd0343e6c6f6985727574866da48938c918559eb9521cf9cc0d317ea0f7b49190a250565b3360009081526004602052604090205460ff16806107ba57506000546001600160a01b031633145b6107d65760405162461bcd60e51b815260040161043f906114f1565b6001600160a01b0383166107fc5760405162461bcd60e51b815260040161043f906114c4565b6001600160a01b038316600090815260036020526040812060028101805491928592610829908490611595565b90915550506003810182905560408051848152602081018490526001600160a01b038616917f4519c0de74b8f9f16fda0005326875e3fd4dd0d38446a1135a1ffa1739e4591e91016106b2565b6000546001600160a01b031633146108a05760405162461bcd60e51b815260040161043f9061156b565b6001600160a01b0381166108ec5760405162461bcd60e51b81526020600482015260136024820152725661756c743a20696e76616c69642076616d6d60681b604482015260640161043f565b600180546001600160a01b0319166001600160a01b0383169081178255600081815260046020526040808220805460ff1916909417909355915190917fb9b7e0cd0425b8d1399710185feab651b96089b6f0e01cb950ffb46b17227cbf91a26040516001600160a01b038216907fdd10d14f6ac19e913d4edbb11fd30661531e2ccd0d23f571e9b224f001f0dd0690600090a250565b3360009081526004602052604090205460ff16806109aa57506000546001600160a01b031633145b6109c65760405162461bcd60e51b815260040161043f906114f1565b60055460ff16156109e95760405162461bcd60e51b815260040161043f9061146e565b60008111610a095760405162461bcd60e51b815260040161043f90611495565b6001600160a01b038216610a2f5760405162461bcd60e51b815260040161043f906114c4565b6001600160a01b038216600090815260036020526040812090610a5184611111565b905082811015610aa35760405162461bcd60e51b815260206004820152601a60248201527f5661756c743a20696e73756666696369656e74206d617267696e000000000000604482015260640161043f565b82826001016000828254610ab791906115bd565b90915550506040518381526001600160a01b038516907f7a9b1b90f35f094ffc6d04d86069c79e82c6a16eb600f79672428a409635deca906020016106b2565b6000546001600160a01b03163314610b215760405162461bcd60e51b815260040161043f9061156b565b6005805460ff191660011790556040517f9e87fac88ff661f02d44f95383c817fece4bce600a3dab7a54406878b965e75290600090a1565b3360009081526004602052604090205460ff1680610b8157506000546001600160a01b031633145b610b9d5760405162461bcd60e51b815260040161043f906114f1565b60055460ff1615610bc05760405162461bcd60e51b815260040161043f9061146e565b60008111610be05760405162461bcd60e51b815260040161043f90611495565b6001600160a01b038216610c065760405162461bcd60e51b815260040161043f906114c4565b6001600160a01b03821660009081526003602052604090206001810154821115610c7e5760405162461bcd60e51b815260206004820152602360248201527f5661756c743a20696e73756666696369656e74207265736572766564206d617260448201526233b4b760e91b606482015260840161043f565b81816001016000828254610c929190611536565b90915550506040518281526001600160a01b038416907f5e63d54af10545f0b2bd229512f244caefe863ad94dbbb7ad827432c84d762f5906020015b60405180910390a2505050565b6000546001600160a01b03163314610d055760405162461bcd60e51b815260040161043f9061156b565b60055460ff16610d4b5760405162461bcd60e51b815260206004820152601160248201527015985d5b1d0e881b9bdd081c185d5cd959607a1b604482015260640161043f565b60005460405163a9059cbb60e01b81526001600160a01b039182166004820152602481018390529083169063a9059cbb906044016020604051808303816000875af1158015610d9e573d6000803e3d6000fd5b505050506040513d601f19601f82011682018060405250810190610dc29190611549565b505050565b60055460ff1615610dea5760405162461bcd60e51b815260040161043f9061146e565b60008111610e0a5760405162461bcd60e51b815260040161043f90611495565b6001600160a01b038216610e305760405162461bcd60e51b815260040161043f906114c4565b6001600160a01b0382163303610f07576002546040516323b872dd60e01b81526001600160a01b03848116600483015230602483015260448201849052909116906323b872dd906064016020604051808303816000875af1158015610e99573d6000803e3d6000fd5b505050506040513d601f19601f82011682018060405250810190610ebd9190611549565b610f025760405162461bcd60e51b815260206004820152601660248201527515985d5b1d0e881d1c985b9cd9995c8819985a5b195960521b604482015260640161043f565b610f36565b3360009081526004602052604090205460ff16610f365760405162461bcd60e51b815260040161043f906114f1565b6001600160a01b03821660009081526003602052604081208054839290610f5e9084906115bd565b90915550506040518181526001600160a01b038316907fd7243f6f8212d5188fd054141cf6ea89cfc0d91facb8c3afe2f88a1358480142906020015b60405180910390a25050565b6001600160a01b038216600090815260036020526040812060018101548203610fd357600091505061101a565b6000610fde85611177565b905060008113610ff35760019250505061101a565b600061271085846001015461100891906115d0565b61101291906115e7565b909110925050505b92915050565b3360009081526004602052604090205460ff168061104857506000546001600160a01b031633145b6110645760405162461bcd60e51b815260040161043f906114f1565b6001600160a01b03821661108a5760405162461bcd60e51b815260040161043f906114c4565b6001600160a01b038216600090815260036020526040902081156110c8576000829050808260020160008282546110c19190611609565b9091555050505b60006001820181905560028201556040518281526001600160a01b038416907fe538b9438650b40b382a773f4b71a35129a6b330599b42ed9b50492847972fa690602001610cce565b6001600160a01b03811660009081526003602052604081208161113384611177565b905060008113611147575060009392505050565b60018201548190811161115f57506000949350505050565b600183015461116e9082611536565b95945050505050565b6001600160a01b0381166000908152600360205260408120600281015481546111a09190611595565b9392505050565b3360009081526004602052604090205460ff16806111cf57506000546001600160a01b031633145b6111eb5760405162461bcd60e51b815260040161043f906114f1565b6001600160a01b0382166112115760405162461bcd60e51b815260040161043f906114c4565b6001600160a01b0382166000908152600360205260408120600201805483929061123c908490611595565b90915550506040518181526001600160a01b038316907f22d38deb33ee15dd233167fc440609397a226eb4e1b61e1773bdd09ef99424aa90602001610f9a565b6000546001600160a01b031633146112a65760405162461bcd60e51b815260040161043f9061156b565b6001600160a01b0381166112f55760405162461bcd60e51b81526020600482015260166024820152755661756c743a20696e76616c6964206164647265737360501b604482015260640161043f565b6001600160a01b038116600081815260046020526040808220805460ff19166001179055517fdd10d14f6ac19e913d4edbb11fd30661531e2ccd0d23f571e9b224f001f0dd069190a250565b6000546001600160a01b0316331461136b5760405162461bcd60e51b815260040161043f9061156b565b6001600160a01b0381166113b85760405162461bcd60e51b81526020600482015260146024820152732b30bab63a1d1034b73b30b634b21037bbb732b960611b604482015260640161043f565b600080546001600160a01b0319166001600160a01b0392909216919091179055565b80356001600160a01b03811681146113f157600080fd5b919050565b60006020828403121561140857600080fd5b6111a0826113da565b6000806040838503121561142457600080fd5b61142d836113da565b946020939093013593505050565b60008060006060848603121561145057600080fd5b611459846113da565b95602085013595506040909401359392505050565b6020808252600d908201526c15985d5b1d0e881c185d5cd959609a1b604082015260600190565b60208082526015908201527415985d5b1d0e881a5b9d985b1a5908185b5bdd5b9d605a1b604082015260600190565b6020808252601390820152722b30bab63a1d1034b73b30b634b2103ab9b2b960691b604082015260600190565b60208082526015908201527415985d5b1d0e881b9bdd08185d5d1a1bdc9a5e9959605a1b604082015260600190565b634e487b7160e01b600052601160045260246000fd5b8181038181111561101a5761101a611520565b60006020828403121561155b57600080fd5b815180151581146111a057600080fd5b60208082526010908201526f2b30bab63a1d103737ba1037bbb732b960811b604082015260600190565b80820182811260008312801582168215821617156115b5576115b5611520565b505092915050565b8082018082111561101a5761101a611520565b808202811582820484141761101a5761101a611520565b60008261160457634e487b7160e01b600052601260045260246000fd5b500490565b818103600083128015838313168383128216171561162957611629611520565b509291505056fea2646970667358221220f2df868315e42b05feffc0eac8fdbe0c0e8b466c1ad3af3f96db22c42b7db18764736f6c634300081400336080604052601e6003556101f460048190556005556103e860065562000031670de0b6b3a7640000620f4240620000ff565b6007556200004b670de0b6b3a7640000620f4240620000ff565b6008556012805460ff191690553480156200006557600080fd5b506040516200212b3803806200212b833981016040819052620000889162000148565b60008054336001600160a01b0319918216179091556001805482166001600160a01b038681169190911790915560028054909216908416179055600754670de0b6b3a764000090620000db9083620000ff565b620000e7919062000189565b600855505042600b55506305f5e100600a55620001ac565b80820281158282048414176200012557634e487b7160e01b600052601160045260246000fd5b92915050565b80516001600160a01b03811681146200014357600080fd5b919050565b6000806000606084860312156200015e57600080fd5b62000169846200012b565b925062000179602085016200012b565b9150604084015190509250925092565b600082620001a757634e487b7160e01b600052601260045260246000fd5b500490565b611f6f80620001bc6000396000f3fe608060405234801561001057600080fd5b50600436106102535760003560e01c806395082d2511610146578063cf1c316a116100c3578063eaf1f1e611610087578063eaf1f1e6146104ed578063edf1a21f14610500578063eeb0706914610508578063f2fde38b1461051b578063f40f2a791461052e578063fbfa77cf1461053857600080fd5b8063cf1c316a146104ac578063d2e7b978146104bf578063d97e25bc146104d2578063e01df1a8146104db578063e1f1c4a7146104e457600080fd5b8063ae43509a1161010a578063ae43509a1461044e578063b25cdccf14610457578063b35648d71461046d578063b918161114610480578063bf6268f2146104a357600080fd5b806395082d251461041b57806395196f7e1461042a57806398f89b2f146104325780639b45ec971461043d578063a0640c831461044557600080fd5b806355f57510116101d4578063604096321161019857806360409632146103c45780637dc0d1d0146103cc57806383acb48a146103f75780638456cb59146104005780638da5cb5b1461040857600080fd5b806355f575101461032d5780635af5bfd6146103825780635bf804af146103955780635c975abb1461039e5780635fb3b1b5146103bb57600080fd5b8063485d7d941161021b578063485d7d94146102e257806349a65938146102f557806353906a0f146102fe578063544305bf1461031157806355efb2871461032457600080fd5b806316c19739146102585780631ebf4eb5146102a75780632f865568146102b157806334c1557d146102c45780633f4ba83a146102da575b600080fd5b61026b610266366004611c2c565b61054b565b60405161029e91908151815260208083015190820152604080830151908201526060918201519181019190915260800190565b60405180910390f35b6102af6105c4565b005b6102af6102bf366004611c2c565b61073a565b6102cc600181565b60405190815260200161029e565b6102af610a7f565b6102af6102f0366004611c2c565b610ade565b6102cc60115481565b6102af61030c366004611c5c565b610b51565b6102cc61031f366004611c2c565b610c3c565b6102cc610e1081565b61036261033b366004611c2c565b600d6020526000908152604090208054600182015460028301546003909301549192909184565b60408051948552602085019390935291830152606082015260800161029e565b6102af610390366004611c5c565b610cea565b6102cc600f5481565b6012546103ab9060ff1681565b604051901515815260200161029e565b6102cc60045481565b6102cc610d80565b6002546103df906001600160a01b031681565b6040516001600160a01b03909116815260200161029e565b6102cc60055481565b6102af610daa565b6000546103df906001600160a01b031681565b6102cc670de0b6b3a764000081565b6009546102cc565b6102cc6305f5e10081565b6102cc606481565b6102cc60085481565b6102cc60075481565b600954600a54600b54600c546103629392919084565b6102cc61047b366004611c75565b610e0c565b6103ab61048e366004611c2c565b600e6020526000908152604090205460ff1681565b6102cc60105481565b6102af6104ba366004611c2c565b6112b9565b6102cc6104cd366004611cb2565b61137d565b6102cc60065481565b6102cc60035481565b6102cc61271081565b6102cc6104fb366004611ce2565b61142e565b61026b611909565b6102af610516366004611c5c565b611961565b6102af610529366004611c2c565b611a2f565b6102cc620f424081565b6001546103df906001600160a01b031681565b6105766040518060800160405280600081526020016000815260200160008152602001600081525090565b506001600160a01b03166000908152600d6020908152604091829020825160808101845281548152600182015492810192909252600281015492820192909252600390910154606082015290565b600b546105d490610e1090611d40565b4210156105dd57565b60006105e7610d80565b90506000600260009054906101000a90046001600160a01b03166001600160a01b03166398d5fdca6040518163ffffffff1660e01b8152600401602060405180830381865afa15801561063e573d6000803e3d6000fd5b505050506040513d601f19601f820116820180604052508101906106629190611d53565b905060006305f5e100826106768286611d6c565b6106809190611d99565b61068a9190611dad565b90506000610699601883611dd4565b9050620f42408113156106b05750620f42406106d2565b6106bc620f4240611e02565b8112156106d2576106cf620f4240611e02565b90505b6009819055600c82905542600b55600a546106ee908290611e1e565b600a81905560408051838152602081019290925281018390527fd0794ac40e87e336e6e652e1eef2cdb3793d91f30dcc09a45d18db669a686b949060600160405180910390a150505050565b60125460ff16156107665760405162461bcd60e51b815260040161075d90611e46565b60405180910390fd5b806001600160a01b0381166107b25760405162461bcd60e51b81526020600482015260126024820152713b20a6a69d1034b73b30b634b2103ab9b2b960711b604482015260640161075d565b6001546005546040516359cffb9b60e11b81526001600160a01b038581166004830152602482019290925291169063b39ff73690604401602060405180830381865afa158015610806573d6000803e3d6000fd5b505050506040513d601f19601f8201168201806040525081019061082a9190611e6c565b61086f5760405162461bcd60e51b815260206004820152601660248201527576414d4d3a2063616e6e6f74206c697175696461746560501b604482015260640161075d565b6001600160a01b0382166000908152600d6020526040812080549091036108cc5760405162461bcd60e51b81526020600482015260116024820152703b20a6a69d103737903837b9b4ba34b7b760791b604482015260640161075d565b8054600090811290816108e95782546108e490611e02565b6108ec565b82545b90506108f66105c4565b6108ff85611ac7565b6000612710600454836109129190611d6c565b61091c9190611d99565b9050821561095a5781600860008282546109369190611e89565b9250508190555081600f600082825461094f9190611dad565b9091555061098b9050565b816007600082825461096c9190611e89565b9250508190555081601060008282546109859190611dad565b90915550505b6000610995610d80565b6001600160a01b038881166000818152600d60205260408082208281556001808201849055600282018490556003909101929092559054905163bcbaf48760e01b815260048101929092526024820186905292935091169063bcbaf48790604401600060405180830381600087803b158015610a1057600080fd5b505af1158015610a24573d6000803e3d6000fd5b505060408051868152602081018590529081018590523392506001600160a01b038a1691507f3ecbb371880c45545c63ac02e2364778ac379d2c14519773964068ef51bb454a9060600160405180910390a350505050505050565b6000546001600160a01b03163314610aa95760405162461bcd60e51b815260040161075d90611e9c565b6012805460ff191690556040517fa45f47fdea8a1efdd9029a5691c7f759c32b7c698632b563573e155625d1693390600090a1565b6000546001600160a01b03163314610b085760405162461bcd60e51b815260040161075d90611e9c565b6001600160a01b0381166000818152600e6020526040808220805460ff19169055517f0fafd0343e6c6f6985727574866da48938c918559eb9521cf9cc0d317ea0f7b49190a250565b6000546001600160a01b03163314610b7b5760405162461bcd60e51b815260040161075d90611e9c565b60648110158015610b8e57506107d08111155b610bd05760405162461bcd60e51b815260206004820152601360248201527276414d4d3a20696e76616c696420726174696f60681b604482015260640161075d565b600581905560408051818152601691810191909152756d61696e74656e616e63654d617267696e526174696f60501b6060820152602081018290527f952177133a28eea5034c93c6c70c1a8d223da94faaa45da8412c3c791111137f906080015b60405180910390a150565b6001600160a01b0381166000908152600d6020526040812080548203610c655750600092915050565b6000610c6f610d80565b825490915060009081129081610c8f578354610c8a90611e02565b610c92565b83545b90508115610cd157670de0b6b3a7640000846001015484610cb39190611e89565b610cbd9083611d6c565b610cc79190611d99565b9695505050505050565b670de0b6b3a7640000838560010154610cb39190611e89565b6000546001600160a01b03163314610d145760405162461bcd60e51b815260040161075d90611e9c565b601154811115610d665760405162461bcd60e51b815260206004820152601760248201527f76414d4d3a20696e73756666696369656e742066656573000000000000000000604482015260640161075d565b8060116000828254610d789190611e89565b909155505050565b6000600754670de0b6b3a7640000600854610d9b9190611d6c565b610da59190611d99565b905090565b6000546001600160a01b03163314610dd45760405162461bcd60e51b815260040161075d90611e9c565b6012805460ff191660011790556040517f9e87fac88ff661f02d44f95383c817fece4bce600a3dab7a54406878b965e75290600090a1565b60125460009060ff1615610e325760405162461bcd60e51b815260040161075d90611e46565b336000908152600d602052604081208054909103610e865760405162461bcd60e51b81526020600482015260116024820152703b20a6a69d103737903837b9b4ba34b7b760791b604482015260640161075d565b805460009081129081610ea3578254610e9e90611e02565b610ea6565b82545b905080871115610eed5760405162461bcd60e51b815260206004820152601260248201527176414d4d3a20696e76616c69642073697a6560701b604482015260640161075d565b610ef56105c4565b610efe33611ac7565b6000610f08610d80565b9050868110158015610f1a5750858111155b610f5d5760405162461bcd60e51b815260206004820152601460248201527376414d4d3a20707269636520736c69707061676560601b604482015260640161075d565b8215610f9757670de0b6b3a7640000846001015482610f7c9190611e89565b610f86908a611d6c565b610f909190611d99565b9450610fc7565b670de0b6b3a7640000818560010154610fb09190611e89565b610fba908a611d6c565b610fc49190611d99565b94505b60006127106003548a610fda9190611d6c565b610fe49190611d99565b90508315611022578860086000828254610ffe9190611e89565b9250508190555088600f60008282546110179190611dad565b909155506110539050565b88600760008282546110349190611e89565b92505081905550886010600082825461104d9190611dad565b90915550505b82890361108357336000908152600d602052604081208181556001810182905560028101829055600301556110b0565b8361109a578454611095908a90611e1e565b6110a7565b84546110a7908a90611dad565b85554260038601555b6001546001600160a01b031663cb625680336110cc848a611dad565b6040516001600160e01b031960e085901b1681526001600160a01b0390921660048301526024820152604401600060405180830381600087803b15801561111257600080fd5b505af1158015611126573d6000803e3d6000fd5b5050600154604051620af05960e21b8152336004820152600093508692508c916001600160a01b031690622bc16490602401608060405180830381865afa158015611175573d6000803e3d6000fd5b505050506040513d601f19601f820116820180604052508101906111999190611ec5565b602001516111a79190611d6c565b6111b19190611d99565b600154604051639101e5b360e01b8152336004820152602481018390529192506001600160a01b031690639101e5b390604401600060405180830381600087803b1580156111fe57600080fd5b505af1158015611212573d6000803e3d6000fd5b5050505081601160008282546112289190611d40565b9091555050604080518b8152602081018590529081018890526060810183905233907fda9c32aadba951abe6572af4fb5654a38201910647b4a3a0367a8e28945972f39060800160405180910390a260405182815233907f4b85f139405492fb78333512610ba07ed1e0c3fb2417f208a9aae27dc3843e6a9060200160405180910390a25050505050509392505050565b6000546001600160a01b031633146112e35760405162461bcd60e51b815260040161075d90611e9c565b6001600160a01b0381166113315760405162461bcd60e51b815260206004820152601560248201527476414d4d3a20696e76616c6964206164647265737360581b604482015260640161075d565b6001600160a01b0381166000818152600e6020526040808220805460ff19166001179055517fdd10d14f6ac19e913d4edbb11fd30661531e2ccd0d23f571e9b224f001f0dd069190a250565b600080611388610d80565b9050600083156113cc576000856008546113a29190611d40565b6007549091506113ba670de0b6b3a764000083611d6c565b6113c49190611d99565b915050611403565b6000856007546113dc9190611d40565b905080670de0b6b3a76400006008546113f59190611d6c565b6113ff9190611d99565b9150505b818111611419576114148183611e89565b611423565b6114238282611e89565b925050505b92915050565b60125460009060ff16156114545760405162461bcd60e51b815260040161075d90611e46565b600086116114a45760405162461bcd60e51b815260206004820152601860248201527f76414d4d3a20696e76616c696420636f6c6c61746572616c0000000000000000604482015260640161075d565b600184101580156114b6575060648411155b6114fb5760405162461bcd60e51b815260206004820152601660248201527576414d4d3a20696e76616c6964206c6576657261676560501b604482015260640161075d565b6115036105c4565b61150d8487611d6c565b90506000611519610d80565b905083811015801561152b5750828111155b61156e5760405162461bcd60e51b815260206004820152601460248201527376414d4d3a20707269636520736c69707061676560601b604482015260640161075d565b6000612710600354846115819190611d6c565b61158b9190611d99565b90506000611599828a611d40565b600154604051630ead3e9960e31b8152336004820152602481018390529192506001600160a01b031690637569f4c890604401600060405180830381600087803b1580156115e657600080fd5b505af11580156115fa573d6000803e3d6000fd5b5050336000908152600d6020526040902080549092501590506116205761162033611ac7565b881561165c5784600860008282546116389190611d40565b9250508190555084600f60008282546116519190611e1e565b9091555061168d9050565b846007600082825461166e9190611d40565b9250508190555084601060008282546116879190611e1e565b90915550505b80546000036116c157886116a9576116a485611e02565b6116ab565b845b815560018101849055600a546002820155611854565b805460001289151581036117ba576000670de0b6b3a76400008360010154836116f45784546116ef90611e02565b6116f7565b84545b6117019190611d6c565b61170b9190611d99565b90506000670de0b6b3a7640000611722888a611d6c565b61172c9190611d99565b9050600061173a8284611d40565b90508361175d578454899061174e90611e02565b6117589190611e1e565b61176a565b845461176a908a90611e1e565b61177c670de0b6b3a764000083611d6c565b6117869190611d99565b6001860155836117a257845461179d908a90611dad565b6117af565b84546117af908a90611e1e565b855550611852915050565b85816117d05782546117cb90611e02565b6117d3565b82545b111561180457806117f05781546117eb908790611e1e565b6117fd565b81546117fd908790611dad565b8255611852565b60008161181b57825461181690611e02565b61181e565b82545b6118289088611e89565b90508a61183d5761183881611e02565b61183f565b805b83555060018201859055600a5460028301555b505b428160030181905550826011600082825461186f9190611d40565b9091555050604080518a1515815260208101879052908101859052606081018990526080810184905233907f0e8f4b81343afa64bc4ddcfbf2d80e883e0ddfc6663c400ca09da13d1d28d5889060a00160405180910390a260405183815233907f4b85f139405492fb78333512610ba07ed1e0c3fb2417f208a9aae27dc3843e6a9060200160405180910390a25050505095945050505050565b6119346040518060800160405280600081526020016000815260200160008152602001600081525090565b50604080516080810182526009548152600a546020820152600b5491810191909152600c54606082015290565b6000546001600160a01b0316331461198b5760405162461bcd60e51b815260040161075d90611e9c565b6103e88111156119d25760405162461bcd60e51b81526020600482015260126024820152710ec829a9a7440cccaca40e8dede40d0d2ced60731b604482015260640161075d565b600381905560408051818152600e918101919091526d74726164696e674665655261746560901b6060820152602081018290527f952177133a28eea5034c93c6c70c1a8d223da94faaa45da8412c3c791111137f90608001610c31565b6000546001600160a01b03163314611a595760405162461bcd60e51b815260040161075d90611e9c565b6001600160a01b038116611aa55760405162461bcd60e51b81526020600482015260136024820152723b20a6a69d1034b73b30b634b21037bbb732b960691b604482015260640161075d565b600080546001600160a01b0319166001600160a01b0392909216919091179055565b6001600160a01b0381166000908152600d602052604081208054909103611aec575050565b6002810154600a54600091611b0091611e89565b905080600003611b0f57505050565b815460009081129081611b2c578354611b2790611e02565b611b2f565b83545b905060006305f5e100611b428584611d6c565b611b4c9190611d99565b90508215611b6057611b5d81611e02565b90505b600154600a54604051635969f96b60e01b81526001600160a01b038981166004830152602482018590526044820192909252911690635969f96b90606401600060405180830381600087803b158015611bb857600080fd5b505af1158015611bcc573d6000803e3d6000fd5b5050600a54600288018190556040516001600160a01b038a1693507f14b9e7b22b24fe3174a21280f7baf48fce7e6ae0b9a0a548e37bcc22ae1bdb489250611c1c91858252602082015260400190565b60405180910390a2505050505050565b600060208284031215611c3e57600080fd5b81356001600160a01b0381168114611c5557600080fd5b9392505050565b600060208284031215611c6e57600080fd5b5035919050565b600080600060608486031215611c8a57600080fd5b505081359360208301359350604090920135919050565b8015158114611caf57600080fd5b50565b60008060408385031215611cc557600080fd5b823591506020830135611cd781611ca1565b809150509250929050565b600080600080600060a08688031215611cfa57600080fd5b853594506020860135611d0c81611ca1565b94979496505050506040830135926060810135926080909101359150565b634e487b7160e01b600052601160045260246000fd5b8082018082111561142857611428611d2a565b600060208284031215611d6557600080fd5b5051919050565b808202811582820484141761142857611428611d2a565b634e487b7160e01b600052601260045260246000fd5b600082611da857611da8611d83565b500490565b8181036000831280158383131683831282161715611dcd57611dcd611d2a565b5092915050565b600082611de357611de3611d83565b600160ff1b821460001984141615611dfd57611dfd611d2a565b500590565b6000600160ff1b8201611e1757611e17611d2a565b5060000390565b8082018281126000831280158216821582161715611e3e57611e3e611d2a565b505092915050565b6020808252600c908201526b1d9053534e881c185d5cd95960a21b604082015260600190565b600060208284031215611e7e57600080fd5b8151611c5581611ca1565b8181038181111561142857611428611d2a565b6020808252600f908201526e3b20a6a69d103737ba1037bbb732b960891b604082015260600190565b600060808284031215611ed757600080fd5b6040516080810181811067ffffffffffffffff82111715611f0857634e487b7160e01b600052604160045260246000fd5b806040525082518152602083015160208201526040830151604082015260608301516060820152809150509291505056fea2646970667358221220e1fb659f918d167aae420d749c98ddf7b53f52784f96f1a422710e88bef18d5a64736f6c63430008140033a26469706673582212200670fd269f4f566965976959eeed88a31d86a41bb1dbd1acda776bacb018989d64736f6c63430008140033","opcodes":"PUSH1 0x80 PUSH1 0x40 MSTORE PUSH8 0x16345785D8A0000 PUSH1 0x5 SSTORE CALLVALUE DUP1 ISZERO PUSH2 0x1C JUMPI PUSH1 0x0 DUP1 REVERT JUMPDEST POP PUSH1 0x0 DUP1 SLOAD PUSH1 0x1 PUSH1 0x1 PUSH1 0xA0 SHL SUB NOT AND CALLER OR SWAP1 SSTORE PUSH2 0x4F3C DUP1 PUSH2 0x3E PUSH1 0x0 CODECOPY PUSH1 0x0 RETURN INVALID PUSH1 0x80 PUSH1 0x40 MSTORE PUSH1 0x4 CALLDATASIZE LT PUSH3 0xFB JUMPI PUSH1 0x0 CALLDATALOAD PUSH1 0xE0 SHR DUP1 PUSH4 0xA5E973C3 GT PUSH3 0x95 JUMPI DUP1 PUSH4 0xD002462B GT PUSH3 0x60 JUMPI DUP1 PUSH4 0xD002462B EQ PUSH3 0x306 JUMPI DUP1 PUSH4 0xEC979082 EQ PUSH3 0x32B JUMPI DUP1 PUSH4 0xF2CFF57F EQ PUSH3 0x343 JUMPI DUP1 PUSH4 0xF2FDE38B EQ PUSH3 0x35B JUMPI PUSH1 0x0 DUP1 REVERT JUMPDEST DUP1 PUSH4 0xA5E973C3 EQ PUSH3 0x26E JUMPI DUP1 PUSH4 0xB29A8140 EQ PUSH3 0x295 JUMPI DUP1 PUSH4 0xB85ED636 EQ PUSH3 0x2BA JUMPI DUP1 PUSH4 0xC3C95C7B EQ PUSH3 0x2D2 JUMPI PUSH1 0x0 DUP1 REVERT JUMPDEST DUP1 PUSH4 0x73D8C6BD GT PUSH3 0xD6 JUMPI DUP1 PUSH4 0x73D8C6BD EQ PUSH3 0x188 JUMPI DUP1 PUSH4 0x7564912B EQ PUSH3 0x1C5 JUMPI DUP1 PUSH4 0x779A9683 EQ PUSH3 0x1FF JUMPI DUP1 PUSH4 0x8DA5CB5B EQ PUSH3 0x233 JUMPI PUSH1 0x0 DUP1 REVERT JUMPDEST DUP1 PUSH4 0x2A519733 EQ PUSH3 0x100 JUMPI DUP1 PUSH4 0x476343EE EQ PUSH3 0x127 JUMPI DUP1 PUSH4 0x58E6309F EQ PUSH3 0x13F JUMPI JUMPDEST PUSH1 0x0 DUP1 REVERT JUMPDEST CALLVALUE DUP1 ISZERO PUSH3 0x10D JUMPI PUSH1 0x0 DUP1 REVERT JUMPDEST POP PUSH3 0x125 PUSH3 0x11F CALLDATASIZE PUSH1 0x4 PUSH3 0x115A JUMP JUMPDEST PUSH3 0x380 JUMP JUMPDEST STOP JUMPDEST CALLVALUE DUP1 ISZERO PUSH3 0x134 JUMPI PUSH1 0x0 DUP1 REVERT JUMPDEST POP PUSH3 0x125 PUSH3 0x479 JUMP JUMPDEST CALLVALUE DUP1 ISZERO PUSH3 0x14C JUMPI PUSH1 0x0 DUP1 REVERT JUMPDEST POP PUSH3 0x173 PUSH3 0x15E CALLDATASIZE PUSH1 0x4 PUSH3 0x11AE JUMP JUMPDEST PUSH1 0x2 PUSH1 0x20 MSTORE PUSH1 0x0 SWAP1 DUP2 MSTORE PUSH1 0x40 SWAP1 KECCAK256 SLOAD PUSH1 0xFF AND DUP2 JUMP JUMPDEST PUSH1 0x40 MLOAD SWAP1 ISZERO ISZERO DUP2 MSTORE PUSH1 0x20 ADD JUMPDEST PUSH1 0x40 MLOAD DUP1 SWAP2 SUB SWAP1 RETURN JUMPDEST PUSH3 0x19F PUSH3 0x199 CALLDATASIZE PUSH1 0x4 PUSH3 0x11E9 JUMP JUMPDEST PUSH3 0x5A1 JUMP JUMPDEST PUSH1 0x40 DUP1 MLOAD SWAP4 DUP5 MSTORE PUSH1 0x1 PUSH1 0x1 PUSH1 0xA0 SHL SUB SWAP3 DUP4 AND PUSH1 0x20 DUP6 ADD MSTORE SWAP2 AND SWAP1 DUP3 ADD MSTORE PUSH1 0x60 ADD PUSH3 0x17F JUMP JUMPDEST CALLVALUE DUP1 ISZERO PUSH3 0x1D2 JUMPI PUSH1 0x0 DUP1 REVERT JUMPDEST POP PUSH3 0x1EA PUSH3 0x1E4 CALLDATASIZE PUSH1 0x4 PUSH3 0x12D1 JUMP JUMPDEST PUSH3 0xBB1 JUMP JUMPDEST PUSH1 0x40 MLOAD PUSH3 0x17F SWAP8 SWAP7 SWAP6 SWAP5 SWAP4 SWAP3 SWAP2 SWAP1 PUSH3 0x133F JUMP JUMPDEST CALLVALUE DUP1 ISZERO PUSH3 0x20C JUMPI PUSH1 0x0 DUP1 REVERT JUMPDEST POP PUSH3 0x224 PUSH3 0x21E CALLDATASIZE PUSH1 0x4 PUSH3 0x12D1 JUMP JUMPDEST PUSH3 0xC95 JUMP JUMPDEST PUSH1 0x40 MLOAD SWAP1 DUP2 MSTORE PUSH1 0x20 ADD PUSH3 0x17F JUMP JUMPDEST CALLVALUE DUP1 ISZERO PUSH3 0x240 JUMPI PUSH1 0x0 DUP1 REVERT JUMPDEST POP PUSH1 0x0 SLOAD PUSH3 0x255 SWAP1 PUSH1 0x1 PUSH1 0x1 PUSH1 0xA0 SHL SUB AND DUP2 JUMP JUMPDEST PUSH1 0x40 MLOAD PUSH1 0x1 PUSH1 0x1 PUSH1 0xA0 SHL SUB SWAP1 SWAP2 AND DUP2 MSTORE PUSH1 0x20 ADD PUSH3 0x17F JUMP JUMPDEST CALLVALUE DUP1 ISZERO PUSH3 0x27B JUMPI PUSH1 0x0 DUP1 REVERT JUMPDEST POP PUSH3 0x286 PUSH3 0xCB7 JUMP JUMPDEST PUSH1 0x40 MLOAD PUSH3 0x17F SWAP2 SWAP1 PUSH3 0x1393 JUMP JUMPDEST CALLVALUE DUP1 ISZERO PUSH3 0x2A2 JUMPI PUSH1 0x0 DUP1 REVERT JUMPDEST POP PUSH3 0x125 PUSH3 0x2B4 CALLDATASIZE PUSH1 0x4 PUSH3 0x13D9 JUMP JUMPDEST PUSH3 0xE36 JUMP JUMPDEST CALLVALUE DUP1 ISZERO PUSH3 0x2C7 JUMPI PUSH1 0x0 DUP1 REVERT JUMPDEST POP PUSH3 0x286 PUSH3 0xE63 JUMP JUMPDEST CALLVALUE DUP1 ISZERO PUSH3 0x2DF JUMPI PUSH1 0x0 DUP1 REVERT JUMPDEST POP PUSH3 0x2F7 PUSH3 0x2F1 CALLDATASIZE PUSH1 0x4 PUSH3 0x12D1 JUMP JUMPDEST PUSH3 0xEBD JUMP JUMPDEST PUSH1 0x40 MLOAD PUSH3 0x17F SWAP2 SWAP1 PUSH3 0x1406 JUMP JUMPDEST CALLVALUE DUP1 ISZERO PUSH3 0x313 JUMPI PUSH1 0x0 DUP1 REVERT JUMPDEST POP PUSH3 0x125 PUSH3 0x325 CALLDATASIZE PUSH1 0x4 PUSH3 0x12D1 JUMP JUMPDEST PUSH3 0x1008 JUMP JUMPDEST CALLVALUE DUP1 ISZERO PUSH3 0x338 JUMPI PUSH1 0x0 DUP1 REVERT JUMPDEST POP PUSH3 0x224 PUSH1 0x4 SLOAD DUP2 JUMP JUMPDEST CALLVALUE DUP1 ISZERO PUSH3 0x350 JUMPI PUSH1 0x0 DUP1 REVERT JUMPDEST POP PUSH3 0x224 PUSH1 0x5 SLOAD DUP2 JUMP JUMPDEST CALLVALUE DUP1 ISZERO PUSH3 0x368 JUMPI PUSH1 0x0 DUP1 REVERT JUMPDEST POP PUSH3 0x125 PUSH3 0x37A CALLDATASIZE PUSH1 0x4 PUSH3 0x11AE JUMP JUMPDEST PUSH3 0x1070 JUMP JUMPDEST PUSH1 0x0 SLOAD PUSH1 0x1 PUSH1 0x1 PUSH1 0xA0 SHL SUB AND CALLER EQ PUSH3 0x3B6 JUMPI PUSH1 0x40 MLOAD PUSH3 0x461BCD PUSH1 0xE5 SHL DUP2 MSTORE PUSH1 0x4 ADD PUSH3 0x3AD SWAP1 PUSH3 0x147F JUMP JUMPDEST PUSH1 0x40 MLOAD DUP1 SWAP2 SUB SWAP1 REVERT JUMPDEST PUSH1 0x0 DUP3 DUP2 MSTORE PUSH1 0x1 PUSH1 0x20 MSTORE PUSH1 0x40 SWAP1 KECCAK256 SLOAD DUP3 SWAP1 PUSH1 0x1 PUSH1 0x1 PUSH1 0xA0 SHL SUB AND PUSH3 0x41E JUMPI PUSH1 0x40 MLOAD PUSH3 0x461BCD PUSH1 0xE5 SHL DUP2 MSTORE PUSH1 0x20 PUSH1 0x4 DUP3 ADD MSTORE PUSH1 0x19 PUSH1 0x24 DUP3 ADD MSTORE PUSH32 0x466163746F72793A206D61726B6574206E6F7420666F756E6400000000000000 PUSH1 0x44 DUP3 ADD MSTORE PUSH1 0x64 ADD PUSH3 0x3AD JUMP JUMPDEST PUSH1 0x0 DUP4 DUP2 MSTORE PUSH1 0x1 PUSH1 0x20 SWAP1 DUP2 MSTORE PUSH1 0x40 SWAP2 DUP3 SWAP1 KECCAK256 PUSH1 0x5 ADD DUP1 SLOAD PUSH1 0xFF NOT AND DUP6 ISZERO ISZERO SWAP1 DUP2 OR SWAP1 SWAP2 SSTORE SWAP2 MLOAD SWAP2 DUP3 MSTORE DUP5 SWAP2 PUSH32 0xF74802A5F03EF3B60653FC5EF30996C42340C6F63AD2A625F0F7D4F996B28F35 SWAP2 ADD PUSH1 0x40 MLOAD DUP1 SWAP2 SUB SWAP1 LOG2 POP POP POP JUMP JUMPDEST PUSH1 0x0 SLOAD PUSH1 0x1 PUSH1 0x1 PUSH1 0xA0 SHL SUB AND CALLER EQ PUSH3 0x4A6 JUMPI PUSH1 0x40 MLOAD PUSH3 0x461BCD PUSH1 0xE5 SHL DUP2 MSTORE PUSH1 0x4 ADD PUSH3 0x3AD SWAP1 PUSH3 0x147F JUMP JUMPDEST SELFBALANCE DUP1 PUSH3 0x4F6 JUMPI PUSH1 0x40 MLOAD PUSH3 0x461BCD PUSH1 0xE5 SHL DUP2 MSTORE PUSH1 0x20 PUSH1 0x4 DUP3 ADD MSTORE PUSH1 0x1C PUSH1 0x24 DUP3 ADD MSTORE PUSH32 0x466163746F72793A206E6F206665657320746F20776974686472617700000000 PUSH1 0x44 DUP3 ADD MSTORE PUSH1 0x64 ADD PUSH3 0x3AD JUMP JUMPDEST PUSH1 0x0 DUP1 SLOAD PUSH1 0x40 MLOAD PUSH1 0x1 PUSH1 0x1 PUSH1 0xA0 SHL SUB SWAP1 SWAP2 AND SWAP1 DUP4 SWAP1 DUP4 DUP2 DUP2 DUP2 DUP6 DUP8 GAS CALL SWAP3 POP POP POP RETURNDATASIZE DUP1 PUSH1 0x0 DUP2 EQ PUSH3 0x545 JUMPI PUSH1 0x40 MLOAD SWAP2 POP PUSH1 0x1F NOT PUSH1 0x3F RETURNDATASIZE ADD AND DUP3 ADD PUSH1 0x40 MSTORE RETURNDATASIZE DUP3 MSTORE RETURNDATASIZE PUSH1 0x0 PUSH1 0x20 DUP5 ADD RETURNDATACOPY PUSH3 0x54A JUMP JUMPDEST PUSH1 0x60 SWAP2 POP JUMPDEST POP POP SWAP1 POP DUP1 PUSH3 0x59D JUMPI PUSH1 0x40 MLOAD PUSH3 0x461BCD PUSH1 0xE5 SHL DUP2 MSTORE PUSH1 0x20 PUSH1 0x4 DUP3 ADD MSTORE PUSH1 0x1A PUSH1 0x24 DUP3 ADD MSTORE PUSH32 0x466163746F72793A207769746864726177616C206661696C6564000000000000 PUSH1 0x44 DUP3 ADD MSTORE PUSH1 0x64 ADD PUSH3 0x3AD JUMP JUMPDEST POP POP JUMP JUMPDEST PUSH1 0x0 DUP1 PUSH1 0x0 PUSH1 0x5 SLOAD CALLVALUE LT ISZERO PUSH3 0x5FA JUMPI PUSH1 0x40 MLOAD PUSH3 0x461BCD PUSH1 0xE5 SHL DUP2 MSTORE PUSH1 0x20 PUSH1 0x4 DUP3 ADD MSTORE PUSH1 0x19 PUSH1 0x24 DUP3 ADD MSTORE PUSH32 0x466163746F72793A20696E73756666696369656E742066656500000000000000 PUSH1 0x44 DUP3 ADD MSTORE PUSH1 0x64 ADD PUSH3 0x3AD JUMP JUMPDEST PUSH1 0x1 PUSH1 0x1 PUSH1 0xA0 SHL SUB DUP7 AND PUSH3 0x652 JUMPI PUSH1 0x40 MLOAD PUSH3 0x461BCD PUSH1 0xE5 SHL DUP2 MSTORE PUSH1 0x20 PUSH1 0x4 DUP3 ADD MSTORE PUSH1 0x17 PUSH1 0x24 DUP3 ADD MSTORE PUSH32 0x466163746F72793A20696E76616C6964206F7261636C65000000000000000000 PUSH1 0x44 DUP3 ADD MSTORE PUSH1 0x64 ADD PUSH3 0x3AD JUMP JUMPDEST PUSH1 0x1 PUSH1 0x1 PUSH1 0xA0 SHL SUB DUP6 AND PUSH3 0x6AA JUMPI PUSH1 0x40 MLOAD PUSH3 0x461BCD PUSH1 0xE5 SHL DUP2 MSTORE PUSH1 0x20 PUSH1 0x4 DUP3 ADD MSTORE PUSH1 0x1B PUSH1 0x24 DUP3 ADD MSTORE PUSH32 0x466163746F72793A20696E76616C696420636F6C6C61746572616C0000000000 PUSH1 0x44 DUP3 ADD MSTORE PUSH1 0x64 ADD PUSH3 0x3AD JUMP JUMPDEST PUSH1 0x0 DUP8 MLOAD GT PUSH3 0x6FD JUMPI PUSH1 0x40 MLOAD PUSH3 0x461BCD PUSH1 0xE5 SHL DUP2 MSTORE PUSH1 0x20 PUSH1 0x4 DUP3 ADD MSTORE PUSH1 0x17 PUSH1 0x24 DUP3 ADD MSTORE PUSH32 0x466163746F72793A20696E76616C69642073796D626F6C000000000000000000 PUSH1 0x44 DUP3 ADD MSTORE PUSH1 0x64 ADD PUSH3 0x3AD JUMP JUMPDEST PUSH1 0x0 DUP5 GT PUSH3 0x748 JUMPI PUSH1 0x40 MLOAD PUSH3 0x461BCD PUSH1 0xE5 SHL DUP2 MSTORE PUSH1 0x20 PUSH1 0x4 DUP3 ADD MSTORE PUSH1 0x16 PUSH1 0x24 DUP3 ADD MSTORE PUSH22 0x466163746F72793A20696E76616C6964207072696365 PUSH1 0x50 SHL PUSH1 0x44 DUP3 ADD MSTORE PUSH1 0x64 ADD PUSH3 0x3AD JUMP JUMPDEST DUP7 DUP7 DUP7 TIMESTAMP PUSH1 0x4 SLOAD PUSH1 0x40 MLOAD PUSH1 0x20 ADD PUSH3 0x765 SWAP6 SWAP5 SWAP4 SWAP3 SWAP2 SWAP1 PUSH3 0x14AB JUMP JUMPDEST PUSH1 0x40 DUP1 MLOAD PUSH1 0x1F NOT DUP2 DUP5 SUB ADD DUP2 MSTORE SWAP2 DUP2 MSTORE DUP2 MLOAD PUSH1 0x20 SWAP3 DUP4 ADD KECCAK256 PUSH1 0x0 DUP2 DUP2 MSTORE PUSH1 0x1 SWAP1 SWAP4 MSTORE SWAP2 KECCAK256 SLOAD SWAP1 SWAP4 POP PUSH1 0x1 PUSH1 0x1 PUSH1 0xA0 SHL SUB AND ISZERO PUSH3 0x7DE JUMPI PUSH1 0x40 MLOAD PUSH3 0x461BCD PUSH1 0xE5 SHL DUP2 MSTORE PUSH1 0x20 PUSH1 0x4 DUP3 ADD MSTORE PUSH1 0x16 PUSH1 0x24 DUP3 ADD MSTORE PUSH22 0x466163746F72793A206D61726B657420657869737473 PUSH1 0x50 SHL PUSH1 0x44 DUP3 ADD MSTORE PUSH1 0x64 ADD PUSH3 0x3AD JUMP JUMPDEST PUSH1 0x0 DUP6 PUSH1 0x40 MLOAD PUSH3 0x7EF SWAP1 PUSH3 0x113E JUMP JUMPDEST PUSH1 0x1 PUSH1 0x1 PUSH1 0xA0 SHL SUB SWAP1 SWAP2 AND DUP2 MSTORE PUSH1 0x20 ADD PUSH1 0x40 MLOAD DUP1 SWAP2 SUB SWAP1 PUSH1 0x0 CREATE DUP1 ISZERO DUP1 ISZERO PUSH3 0x81C JUMPI RETURNDATASIZE PUSH1 0x0 DUP1 RETURNDATACOPY RETURNDATASIZE PUSH1 0x0 REVERT JUMPDEST POP SWAP1 POP DUP1 SWAP2 POP PUSH1 0x0 DUP3 DUP9 DUP8 PUSH1 0x40 MLOAD PUSH3 0x835 SWAP1 PUSH3 0x114C JUMP JUMPDEST PUSH1 0x1 PUSH1 0x1 PUSH1 0xA0 SHL SUB SWAP4 DUP5 AND DUP2 MSTORE SWAP3 SWAP1 SWAP2 AND PUSH1 0x20 DUP4 ADD MSTORE PUSH1 0x40 DUP3 ADD MSTORE PUSH1 0x60 ADD PUSH1 0x40 MLOAD DUP1 SWAP2 SUB SWAP1 PUSH1 0x0 CREATE DUP1 ISZERO DUP1 ISZERO PUSH3 0x870 JUMPI RETURNDATASIZE PUSH1 0x0 DUP1 RETURNDATACOPY RETURNDATASIZE PUSH1 0x0 REVERT JUMPDEST POP PUSH1 0x40 MLOAD PUSH4 0x175DCC5D PUSH1 0xE2 SHL DUP2 MSTORE PUSH1 0x1 PUSH1 0x1 PUSH1 0xA0 SHL SUB DUP1 DUP4 AND PUSH1 0x4 DUP4 ADD MSTORE SWAP2 SWAP6 POP DUP6 SWAP3 POP SWAP1 DUP4 AND SWAP1 PUSH4 0x5D773174 SWAP1 PUSH1 0x24 ADD PUSH1 0x0 PUSH1 0x40 MLOAD DUP1 DUP4 SUB DUP2 PUSH1 0x0 DUP8 DUP1 EXTCODESIZE ISZERO DUP1 ISZERO PUSH3 0x8BC JUMPI PUSH1 0x0 DUP1 REVERT JUMPDEST POP GAS CALL ISZERO DUP1 ISZERO PUSH3 0x8D1 JUMPI RETURNDATASIZE PUSH1 0x0 DUP1 RETURNDATACOPY RETURNDATASIZE PUSH1 0x0 REVERT JUMPDEST POP POP PUSH1 0x40 MLOAD PUSH4 0xF2FDE38B PUSH1 0xE0 SHL DUP2 MSTORE CALLER PUSH1 0x4 DUP3 ADD MSTORE PUSH1 0x1 PUSH1 0x1 PUSH1 0xA0 SHL SUB DUP6 AND SWAP3 POP PUSH4 0xF2FDE38B SWAP2 POP PUSH1 0x24 ADD PUSH1 0x0 PUSH1 0x40 MLOAD DUP1 DUP4 SUB DUP2 PUSH1 0x0 DUP8 DUP1 EXTCODESIZE ISZERO DUP1 ISZERO PUSH3 0x917 JUMPI PUSH1 0x0 DUP1 REVERT JUMPDEST POP GAS CALL ISZERO DUP1 ISZERO PUSH3 0x92C JUMPI RETURNDATASIZE PUSH1 0x0 DUP1 RETURNDATACOPY RETURNDATASIZE PUSH1 0x0 REVERT JUMPDEST POP POP PUSH1 0x40 MLOAD PUSH4 0xF2FDE38B PUSH1 0xE0 SHL DUP2 MSTORE CALLER PUSH1 0x4 DUP3 ADD MSTORE PUSH1 0x1 PUSH1 0x1 PUSH1 0xA0 SHL SUB DUP5 AND SWAP3 POP PUSH4 0xF2FDE38B SWAP2 POP PUSH1 0x24 ADD PUSH1 0x0 PUSH1 0x40 MLOAD DUP1 DUP4 SUB DUP2 PUSH1 0x0 DUP8 DUP1 EXTCODESIZE ISZERO DUP1 ISZERO PUSH3 0x972 JUMPI PUSH1 0x0 DUP1 REVERT JUMPDEST POP GAS CALL ISZERO DUP1 ISZERO PUSH3 0x987 JUMPI RETURNDATASIZE PUSH1 0x0 DUP1 RETURNDATACOPY RETURNDATASIZE PUSH1 0x0 REVERT JUMPDEST POP POP POP POP PUSH1 0x40 MLOAD DUP1 PUSH1 0xE0 ADD PUSH1 0x40 MSTORE DUP1 DUP6 PUSH1 0x1 PUSH1 0x1 PUSH1 0xA0 SHL SUB AND DUP2 MSTORE PUSH1 0x20 ADD DUP5 PUSH1 0x1 PUSH1 0x1 PUSH1 0xA0 SHL SUB AND DUP2 MSTORE PUSH1 0x20 ADD DUP10 PUSH1 0x1 PUSH1 0x1 PUSH1 0xA0 SHL SUB AND DUP2 MSTORE PUSH1 0x20 ADD DUP9 PUSH1 0x1 PUSH1 0x1 PUSH1 0xA0 SHL SUB AND DUP2 MSTORE PUSH1 0x20 ADD DUP11 DUP2 MSTORE PUSH1 0x20 ADD PUSH1 0x1 ISZERO ISZERO DUP2 MSTORE PUSH1 0x20 ADD TIMESTAMP DUP2 MSTORE POP PUSH1 0x1 PUSH1 0x0 DUP8 DUP2 MSTORE PUSH1 0x20 ADD SWAP1 DUP2 MSTORE PUSH1 0x20 ADD PUSH1 0x0 KECCAK256 PUSH1 0x0 DUP3 ADD MLOAD DUP2 PUSH1 0x0 ADD PUSH1 0x0 PUSH2 0x100 EXP DUP2 SLOAD DUP2 PUSH1 0x1 PUSH1 0x1 PUSH1 0xA0 SHL SUB MUL NOT AND SWAP1 DUP4 PUSH1 0x1 PUSH1 0x1 PUSH1 0xA0 SHL SUB AND MUL OR SWAP1 SSTORE POP PUSH1 0x20 DUP3 ADD MLOAD DUP2 PUSH1 0x1 ADD PUSH1 0x0 PUSH2 0x100 EXP DUP2 SLOAD DUP2 PUSH1 0x1 PUSH1 0x1 PUSH1 0xA0 SHL SUB MUL NOT AND SWAP1 DUP4 PUSH1 0x1 PUSH1 0x1 PUSH1 0xA0 SHL SUB AND MUL OR SWAP1 SSTORE POP PUSH1 0x40 DUP3 ADD MLOAD DUP2 PUSH1 0x2 ADD PUSH1 0x0 PUSH2 0x100 EXP DUP2 SLOAD DUP2 PUSH1 0x1 PUSH1 0x1 PUSH1 0xA0 SHL SUB MUL NOT AND SWAP1 DUP4 PUSH1 0x1 PUSH1 0x1 PUSH1 0xA0 SHL SUB AND MUL OR SWAP1 SSTORE POP PUSH1 0x60 DUP3 ADD MLOAD DUP2 PUSH1 0x3 ADD PUSH1 0x0 PUSH2 0x100 EXP DUP2 SLOAD DUP2 PUSH1 0x1 PUSH1 0x1 PUSH1 0xA0 SHL SUB MUL NOT AND SWAP1 DUP4 PUSH1 0x1 PUSH1 0x1 PUSH1 0xA0 SHL SUB AND MUL OR SWAP1 SSTORE POP PUSH1 0x80 DUP3 ADD MLOAD DUP2 PUSH1 0x4 ADD SWAP1 DUP2 PUSH3 0xAC3 SWAP2 SWAP1 PUSH3 0x158A JUMP JUMPDEST POP PUSH1 0xA0 DUP3 ADD MLOAD PUSH1 0x5 DUP3 ADD DUP1 SLOAD SWAP2 ISZERO ISZERO PUSH1 0xFF NOT SWAP3 DUP4 AND OR SWAP1 SSTORE PUSH1 0xC0 SWAP1 SWAP3 ADD MLOAD PUSH1 0x6 SWAP1 SWAP2 ADD SSTORE PUSH1 0x1 PUSH1 0x1 PUSH1 0xA0 SHL SUB DUP6 AND PUSH1 0x0 SWAP1 DUP2 MSTORE PUSH1 0x2 PUSH1 0x20 MSTORE PUSH1 0x40 DUP2 KECCAK256 DUP1 SLOAD SWAP1 SWAP3 AND PUSH1 0x1 SWAP1 DUP2 OR SWAP1 SWAP3 SSTORE PUSH1 0x3 DUP1 SLOAD SWAP3 DUP4 ADD DUP2 SSTORE DUP2 MSTORE PUSH32 0xC2575A0E9E593C00F959F8C92F12DB2869C3395A3B0502D05E2516446F71F85B SWAP1 SWAP2 ADD DUP7 SWAP1 SSTORE PUSH1 0x4 DUP1 SLOAD SWAP2 PUSH3 0xB4E DUP4 PUSH3 0x1657 JUMP JUMPDEST SWAP2 SWAP1 POP SSTORE POP DUP3 PUSH1 0x1 PUSH1 0x1 PUSH1 0xA0 SHL SUB AND DUP5 PUSH1 0x1 PUSH1 0x1 PUSH1 0xA0 SHL SUB AND DUP7 PUSH32 0xC225F66BD854BBA265BEE08FC100E91C698AA86A9E70B0D9280D44F91066A93F DUP13 DUP13 DUP13 PUSH1 0x40 MLOAD PUSH3 0xB9D SWAP4 SWAP3 SWAP2 SWAP1 PUSH3 0x167F JUMP JUMPDEST PUSH1 0x40 MLOAD DUP1 SWAP2 SUB SWAP1 LOG4 POP POP SWAP5 POP SWAP5 POP SWAP5 SWAP2 POP POP JUMP JUMPDEST PUSH1 0x1 PUSH1 0x20 DUP2 SWAP1 MSTORE PUSH1 0x0 SWAP2 DUP3 MSTORE PUSH1 0x40 SWAP1 SWAP2 KECCAK256 DUP1 SLOAD SWAP2 DUP2 ADD SLOAD PUSH1 0x2 DUP3 ADD SLOAD PUSH1 0x3 DUP4 ADD SLOAD PUSH1 0x4 DUP5 ADD DUP1 SLOAD PUSH1 0x1 PUSH1 0x1 PUSH1 0xA0 SHL SUB SWAP7 DUP8 AND SWAP7 SWAP5 DUP6 AND SWAP6 SWAP4 DUP6 AND SWAP5 SWAP1 SWAP3 AND SWAP3 SWAP2 PUSH3 0xBFC SWAP1 PUSH3 0x14FB JUMP JUMPDEST DUP1 PUSH1 0x1F ADD PUSH1 0x20 DUP1 SWAP2 DIV MUL PUSH1 0x20 ADD PUSH1 0x40 MLOAD SWAP1 DUP2 ADD PUSH1 0x40 MSTORE DUP1 SWAP3 SWAP2 SWAP1 DUP2 DUP2 MSTORE PUSH1 0x20 ADD DUP3 DUP1 SLOAD PUSH3 0xC2A SWAP1 PUSH3 0x14FB JUMP JUMPDEST DUP1 ISZERO PUSH3 0xC7B JUMPI DUP1 PUSH1 0x1F LT PUSH3 0xC4F JUMPI PUSH2 0x100 DUP1 DUP4 SLOAD DIV MUL DUP4 MSTORE SWAP2 PUSH1 0x20 ADD SWAP2 PUSH3 0xC7B JUMP JUMPDEST DUP3 ADD SWAP2 SWAP1 PUSH1 0x0 MSTORE PUSH1 0x20 PUSH1 0x0 KECCAK256 SWAP1 JUMPDEST DUP2 SLOAD DUP2 MSTORE SWAP1 PUSH1 0x1 ADD SWAP1 PUSH1 0x20 ADD DUP1 DUP4 GT PUSH3 0xC5D JUMPI DUP3 SWAP1 SUB PUSH1 0x1F AND DUP3 ADD SWAP2 JUMPDEST POP POP POP POP PUSH1 0x5 DUP4 ADD SLOAD PUSH1 0x6 SWAP1 SWAP4 ADD SLOAD SWAP2 SWAP3 PUSH1 0xFF AND SWAP2 SWAP1 POP DUP8 JUMP JUMPDEST PUSH1 0x3 DUP2 DUP2 SLOAD DUP2 LT PUSH3 0xCA6 JUMPI PUSH1 0x0 DUP1 REVERT JUMPDEST PUSH1 0x0 SWAP2 DUP3 MSTORE PUSH1 0x20 SWAP1 SWAP2 KECCAK256 ADD SLOAD SWAP1 POP DUP2 JUMP JUMPDEST PUSH1 0x60 PUSH1 0x0 DUP1 JUMPDEST PUSH1 0x3 SLOAD DUP2 LT ISZERO PUSH3 0xD2F JUMPI PUSH1 0x1 PUSH1 0x0 PUSH1 0x3 DUP4 DUP2 SLOAD DUP2 LT PUSH3 0xCE2 JUMPI PUSH3 0xCE2 PUSH3 0x16B4 JUMP JUMPDEST PUSH1 0x0 SWAP2 DUP3 MSTORE PUSH1 0x20 DUP1 DUP4 KECCAK256 SWAP1 SWAP2 ADD SLOAD DUP4 MSTORE DUP3 ADD SWAP3 SWAP1 SWAP3 MSTORE PUSH1 0x40 ADD SWAP1 KECCAK256 PUSH1 0x5 ADD SLOAD PUSH1 0xFF AND ISZERO PUSH3 0xD1A JUMPI DUP2 PUSH3 0xD16 DUP2 PUSH3 0x1657 JUMP JUMPDEST SWAP3 POP POP JUMPDEST DUP1 PUSH3 0xD26 DUP2 PUSH3 0x1657 JUMP JUMPDEST SWAP2 POP POP PUSH3 0xCBD JUMP JUMPDEST POP DUP1 PUSH8 0xFFFFFFFFFFFFFFFF DUP2 GT ISZERO PUSH3 0xD4C JUMPI PUSH3 0xD4C PUSH3 0x11D3 JUMP JUMPDEST PUSH1 0x40 MLOAD SWAP1 DUP1 DUP3 MSTORE DUP1 PUSH1 0x20 MUL PUSH1 0x20 ADD DUP3 ADD PUSH1 0x40 MSTORE DUP1 ISZERO PUSH3 0xD76 JUMPI DUP2 PUSH1 0x20 ADD PUSH1 0x20 DUP3 MUL DUP1 CALLDATASIZE DUP4 CALLDATACOPY ADD SWAP1 POP JUMPDEST POP SWAP2 POP PUSH1 0x0 DUP1 JUMPDEST PUSH1 0x3 SLOAD DUP2 LT ISZERO PUSH3 0xE30 JUMPI PUSH1 0x1 PUSH1 0x0 PUSH1 0x3 DUP4 DUP2 SLOAD DUP2 LT PUSH3 0xDA2 JUMPI PUSH3 0xDA2 PUSH3 0x16B4 JUMP JUMPDEST PUSH1 0x0 SWAP2 DUP3 MSTORE PUSH1 0x20 DUP1 DUP4 KECCAK256 SWAP1 SWAP2 ADD SLOAD DUP4 MSTORE DUP3 ADD SWAP3 SWAP1 SWAP3 MSTORE PUSH1 0x40 ADD SWAP1 KECCAK256 PUSH1 0x5 ADD SLOAD PUSH1 0xFF AND ISZERO PUSH3 0xE1B JUMPI PUSH1 0x3 DUP2 DUP2 SLOAD DUP2 LT PUSH3 0xDE0 JUMPI PUSH3 0xDE0 PUSH3 0x16B4 JUMP JUMPDEST SWAP1 PUSH1 0x0 MSTORE PUSH1 0x20 PUSH1 0x0 KECCAK256 ADD SLOAD DUP5 DUP4 DUP2 MLOAD DUP2 LT PUSH3 0xE00 JUMPI PUSH3 0xE00 PUSH3 0x16B4 JUMP JUMPDEST PUSH1 0x20 SWAP1 DUP2 MUL SWAP2 SWAP1 SWAP2 ADD ADD MSTORE DUP2 PUSH3 0xE17 DUP2 PUSH3 0x1657 JUMP JUMPDEST SWAP3 POP POP JUMPDEST DUP1 PUSH3 0xE27 DUP2 PUSH3 0x1657 JUMP JUMPDEST SWAP2 POP POP PUSH3 0xD7D JUMP JUMPDEST POP POP POP SWAP1 JUMP JUMPDEST PUSH1 0x0 SLOAD PUSH1 0x1 PUSH1 0x1 PUSH1 0xA0 SHL SUB AND CALLER EQ PUSH3 0x59D JUMPI PUSH1 0x40 MLOAD PUSH3 0x461BCD PUSH1 0xE5 SHL DUP2 MSTORE PUSH1 0x4 ADD PUSH3 0x3AD SWAP1 PUSH3 0x147F JUMP JUMPDEST PUSH1 0x60 PUSH1 0x3 DUP1 SLOAD DUP1 PUSH1 0x20 MUL PUSH1 0x20 ADD PUSH1 0x40 MLOAD SWAP1 DUP2 ADD PUSH1 0x40 MSTORE DUP1 SWAP3 SWAP2 SWAP1 DUP2 DUP2 MSTORE PUSH1 0x20 ADD DUP3 DUP1 SLOAD DUP1 ISZERO PUSH3 0xEB3 JUMPI PUSH1 0x20 MUL DUP3 ADD SWAP2 SWAP1 PUSH1 0x0 MSTORE PUSH1 0x20 PUSH1 0x0 KECCAK256 SWAP1 JUMPDEST DUP2 SLOAD DUP2 MSTORE PUSH1 0x20 ADD SWAP1 PUSH1 0x1 ADD SWAP1 DUP1 DUP4 GT PUSH3 0xE9E JUMPI JUMPDEST POP POP POP POP POP SWAP1 POP SWAP1 JUMP JUMPDEST PUSH1 0x40 DUP1 MLOAD PUSH1 0xE0 DUP2 ADD DUP3 MSTORE PUSH1 0x0 DUP1 DUP3 MSTORE PUSH1 0x20 DUP3 ADD DUP2 SWAP1 MSTORE SWAP2 DUP2 ADD DUP3 SWAP1 MSTORE PUSH1 0x60 DUP1 DUP3 ADD DUP4 SWAP1 MSTORE PUSH1 0x80 DUP3 ADD MSTORE PUSH1 0xA0 DUP2 ADD DUP3 SWAP1 MSTORE PUSH1 0xC0 DUP2 ADD SWAP2 SWAP1 SWAP2 MSTORE PUSH1 0x0 DUP3 DUP2 MSTORE PUSH1 0x1 PUSH1 0x20 DUP2 DUP2 MSTORE PUSH1 0x40 SWAP3 DUP4 SWAP1 KECCAK256 DUP4 MLOAD PUSH1 0xE0 DUP2 ADD DUP6 MSTORE DUP2 SLOAD PUSH1 0x1 PUSH1 0x1 PUSH1 0xA0 SHL SUB SWAP1 DUP2 AND DUP3 MSTORE SWAP4 DUP3 ADD SLOAD DUP5 AND SWAP3 DUP2 ADD SWAP3 SWAP1 SWAP3 MSTORE PUSH1 0x2 DUP2 ADD SLOAD DUP4 AND SWAP4 DUP3 ADD SWAP4 SWAP1 SWAP4 MSTORE PUSH1 0x3 DUP4 ADD SLOAD SWAP1 SWAP2 AND PUSH1 0x60 DUP3 ADD MSTORE PUSH1 0x4 DUP3 ADD DUP1 SLOAD SWAP2 SWAP3 SWAP2 PUSH1 0x80 DUP5 ADD SWAP2 SWAP1 PUSH3 0xF60 SWAP1 PUSH3 0x14FB JUMP JUMPDEST DUP1 PUSH1 0x1F ADD PUSH1 0x20 DUP1 SWAP2 DIV MUL PUSH1 0x20 ADD PUSH1 0x40 MLOAD SWAP1 DUP2 ADD PUSH1 0x40 MSTORE DUP1 SWAP3 SWAP2 SWAP1 DUP2 DUP2 MSTORE PUSH1 0x20 ADD DUP3 DUP1 SLOAD PUSH3 0xF8E SWAP1 PUSH3 0x14FB JUMP JUMPDEST DUP1 ISZERO PUSH3 0xFDF JUMPI DUP1 PUSH1 0x1F LT PUSH3 0xFB3 JUMPI PUSH2 0x100 DUP1 DUP4 SLOAD DIV MUL DUP4 MSTORE SWAP2 PUSH1 0x20 ADD SWAP2 PUSH3 0xFDF JUMP JUMPDEST DUP3 ADD SWAP2 SWAP1 PUSH1 0x0 MSTORE PUSH1 0x20 PUSH1 0x0 KECCAK256 SWAP1 JUMPDEST DUP2 SLOAD DUP2 MSTORE SWAP1 PUSH1 0x1 ADD SWAP1 PUSH1 0x20 ADD DUP1 DUP4 GT PUSH3 0xFC1 JUMPI DUP3 SWAP1 SUB PUSH1 0x1F AND DUP3 ADD SWAP2 JUMPDEST POP POP POP SWAP2 DUP4 MSTORE POP POP PUSH1 0x5 DUP3 ADD SLOAD PUSH1 0xFF AND ISZERO ISZERO PUSH1 0x20 DUP3 ADD MSTORE PUSH1 0x6 SWAP1 SWAP2 ADD SLOAD PUSH1 0x40 SWAP1 SWAP2 ADD MSTORE SWAP3 SWAP2 POP POP JUMP JUMPDEST PUSH1 0x0 SLOAD PUSH1 0x1 PUSH1 0x1 PUSH1 0xA0 SHL SUB AND CALLER EQ PUSH3 0x1035 JUMPI PUSH1 0x40 MLOAD PUSH3 0x461BCD PUSH1 0xE5 SHL DUP2 MSTORE PUSH1 0x4 ADD PUSH3 0x3AD SWAP1 PUSH3 0x147F JUMP JUMPDEST PUSH1 0x5 DUP2 SWAP1 SSTORE PUSH1 0x40 MLOAD DUP2 DUP2 MSTORE PUSH32 0x40BD824D588484917DB8FA4FC894C1E0FEAE5A75885290BA7B97521CEBF82A80 SWAP1 PUSH1 0x20 ADD PUSH1 0x40 MLOAD DUP1 SWAP2 SUB SWAP1 LOG1 POP JUMP JUMPDEST PUSH1 0x0 SLOAD PUSH1 0x1 PUSH1 0x1 PUSH1 0xA0 SHL SUB AND CALLER EQ PUSH3 0x109D JUMPI PUSH1 0x40 MLOAD PUSH3 0x461BCD PUSH1 0xE5 SHL DUP2 MSTORE PUSH1 0x4 ADD PUSH3 0x3AD SWAP1 PUSH3 0x147F JUMP JUMPDEST PUSH1 0x1 PUSH1 0x1 PUSH1 0xA0 SHL SUB DUP2 AND PUSH3 0x10EE JUMPI PUSH1 0x40 MLOAD PUSH3 0x461BCD PUSH1 0xE5 SHL DUP2 MSTORE PUSH1 0x20 PUSH1 0x4 DUP3 ADD MSTORE PUSH1 0x16 PUSH1 0x24 DUP3 ADD MSTORE PUSH22 0x2330B1BA37B93C9D1034B73B30B634B21037BBB732B9 PUSH1 0x51 SHL PUSH1 0x44 DUP3 ADD MSTORE PUSH1 0x64 ADD PUSH3 0x3AD JUMP JUMPDEST PUSH1 0x0 DUP1 SLOAD PUSH1 0x1 PUSH1 0x1 PUSH1 0xA0 SHL SUB DUP4 DUP2 AND PUSH1 0x1 PUSH1 0x1 PUSH1 0xA0 SHL SUB NOT DUP4 AND DUP2 OR DUP5 SSTORE PUSH1 0x40 MLOAD SWAP2 SWAP1 SWAP3 AND SWAP3 DUP4 SWAP2 PUSH32 0x8BE0079C531659141344CD1FD0A4F28419497F9722A3DAAFE3B4186F6B6457E0 SWAP2 SWAP1 LOG3 POP POP JUMP JUMPDEST PUSH2 0x1711 DUP1 PUSH3 0x16CB DUP4 CODECOPY ADD SWAP1 JUMP JUMPDEST PUSH2 0x212B DUP1 PUSH3 0x2DDC DUP4 CODECOPY ADD SWAP1 JUMP JUMPDEST PUSH1 0x0 DUP1 PUSH1 0x40 DUP4 DUP6 SUB SLT ISZERO PUSH3 0x116E JUMPI PUSH1 0x0 DUP1 REVERT JUMPDEST DUP3 CALLDATALOAD SWAP2 POP PUSH1 0x20 DUP4 ADD CALLDATALOAD DUP1 ISZERO ISZERO DUP2 EQ PUSH3 0x1186 JUMPI PUSH1 0x0 DUP1 REVERT JUMPDEST DUP1 SWAP2 POP POP SWAP3 POP SWAP3 SWAP1 POP JUMP JUMPDEST DUP1 CALLDATALOAD PUSH1 0x1 PUSH1 0x1 PUSH1 0xA0 SHL SUB DUP2 AND DUP2 EQ PUSH3 0x11A9 JUMPI PUSH1 0x0 DUP1 REVERT JUMPDEST SWAP2 SWAP1 POP JUMP JUMPDEST PUSH1 0x0 PUSH1 0x20 DUP3 DUP5 SUB SLT ISZERO PUSH3 0x11C1 JUMPI PUSH1 0x0 DUP1 REVERT JUMPDEST PUSH3 0x11CC DUP3 PUSH3 0x1191 JUMP JUMPDEST SWAP4 SWAP3 POP POP POP JUMP JUMPDEST PUSH4 0x4E487B71 PUSH1 0xE0 SHL PUSH1 0x0 MSTORE PUSH1 0x41 PUSH1 0x4 MSTORE PUSH1 0x24 PUSH1 0x0 REVERT JUMPDEST PUSH1 0x0 DUP1 PUSH1 0x0 DUP1 PUSH1 0x80 DUP6 DUP8 SUB SLT ISZERO PUSH3 0x1200 JUMPI PUSH1 0x0 DUP1 REVERT JUMPDEST DUP5 CALLDATALOAD PUSH8 0xFFFFFFFFFFFFFFFF DUP1 DUP3 GT ISZERO PUSH3 0x1219 JUMPI PUSH1 0x0 DUP1 REVERT JUMPDEST DUP2 DUP8 ADD SWAP2 POP DUP8 PUSH1 0x1F DUP4 ADD SLT PUSH3 0x122E JUMPI PUSH1 0x0 DUP1 REVERT JUMPDEST DUP2 CALLDATALOAD DUP2 DUP2 GT ISZERO PUSH3 0x1243 JUMPI PUSH3 0x1243 PUSH3 0x11D3 JUMP JUMPDEST PUSH1 0x40 MLOAD PUSH1 0x1F DUP3 ADD PUSH1 0x1F NOT SWAP1 DUP2 AND PUSH1 0x3F ADD AND DUP2 ADD SWAP1 DUP4 DUP3 GT DUP2 DUP4 LT OR ISZERO PUSH3 0x126E JUMPI PUSH3 0x126E PUSH3 0x11D3 JUMP JUMPDEST DUP2 PUSH1 0x40 MSTORE DUP3 DUP2 MSTORE DUP11 PUSH1 0x20 DUP5 DUP8 ADD ADD GT ISZERO PUSH3 0x1288 JUMPI PUSH1 0x0 DUP1 REVERT JUMPDEST DUP3 PUSH1 0x20 DUP7 ADD PUSH1 0x20 DUP4 ADD CALLDATACOPY PUSH1 0x0 PUSH1 0x20 DUP5 DUP4 ADD ADD MSTORE DUP1 SWAP9 POP POP POP POP POP POP PUSH3 0x12B1 PUSH1 0x20 DUP7 ADD PUSH3 0x1191 JUMP JUMPDEST SWAP3 POP PUSH3 0x12C1 PUSH1 0x40 DUP7 ADD PUSH3 0x1191 JUMP JUMPDEST SWAP4 SWAP7 SWAP3 SWAP6 POP SWAP3 SWAP4 PUSH1 0x60 ADD CALLDATALOAD SWAP3 POP POP JUMP JUMPDEST PUSH1 0x0 PUSH1 0x20 DUP3 DUP5 SUB SLT ISZERO PUSH3 0x12E4 JUMPI PUSH1 0x0 DUP1 REVERT JUMPDEST POP CALLDATALOAD SWAP2 SWAP1 POP JUMP JUMPDEST PUSH1 0x0 JUMPDEST DUP4 DUP2 LT ISZERO PUSH3 0x1308 JUMPI DUP2 DUP2 ADD MLOAD DUP4 DUP3 ADD MSTORE PUSH1 0x20 ADD PUSH3 0x12EE JUMP JUMPDEST POP POP PUSH1 0x0 SWAP2 ADD MSTORE JUMP JUMPDEST PUSH1 0x0 DUP2 MLOAD DUP1 DUP5 MSTORE PUSH3 0x132B DUP2 PUSH1 0x20 DUP7 ADD PUSH1 0x20 DUP7 ADD PUSH3 0x12EB JUMP JUMPDEST PUSH1 0x1F ADD PUSH1 0x1F NOT AND SWAP3 SWAP1 SWAP3 ADD PUSH1 0x20 ADD SWAP3 SWAP2 POP POP JUMP JUMPDEST PUSH1 0x1 PUSH1 0x1 PUSH1 0xA0 SHL SUB DUP9 DUP2 AND DUP3 MSTORE DUP8 DUP2 AND PUSH1 0x20 DUP4 ADD MSTORE DUP7 DUP2 AND PUSH1 0x40 DUP4 ADD MSTORE DUP6 AND PUSH1 0x60 DUP3 ADD MSTORE PUSH1 0xE0 PUSH1 0x80 DUP3 ADD DUP2 SWAP1 MSTORE PUSH1 0x0 SWAP1 PUSH3 0x137D SWAP1 DUP4 ADD DUP7 PUSH3 0x1311 JUMP JUMPDEST SWAP4 ISZERO ISZERO PUSH1 0xA0 DUP4 ADD MSTORE POP PUSH1 0xC0 ADD MSTORE SWAP6 SWAP5 POP POP POP POP POP JUMP JUMPDEST PUSH1 0x20 DUP1 DUP3 MSTORE DUP3 MLOAD DUP3 DUP3 ADD DUP2 SWAP1 MSTORE PUSH1 0x0 SWAP2 SWAP1 DUP5 DUP3 ADD SWAP1 PUSH1 0x40 DUP6 ADD SWAP1 DUP5 JUMPDEST DUP2 DUP2 LT ISZERO PUSH3 0x13CD JUMPI DUP4 MLOAD DUP4 MSTORE SWAP3 DUP5 ADD SWAP3 SWAP2 DUP5 ADD SWAP2 PUSH1 0x1 ADD PUSH3 0x13AF JUMP JUMPDEST POP SWAP1 SWAP7 SWAP6 POP POP POP POP POP POP JUMP JUMPDEST PUSH1 0x0 DUP1 PUSH1 0x40 DUP4 DUP6 SUB SLT ISZERO PUSH3 0x13ED JUMPI PUSH1 0x0 DUP1 REVERT JUMPDEST PUSH3 0x13F8 DUP4 PUSH3 0x1191 JUMP JUMPDEST SWAP5 PUSH1 0x20 SWAP4 SWAP1 SWAP4 ADD CALLDATALOAD SWAP4 POP POP POP JUMP JUMPDEST PUSH1 0x20 DUP2 MSTORE PUSH1 0x0 PUSH1 0x1 DUP1 PUSH1 0xA0 SHL SUB DUP1 DUP5 MLOAD AND PUSH1 0x20 DUP5 ADD MSTORE DUP1 PUSH1 0x20 DUP6 ADD MLOAD AND PUSH1 0x40 DUP5 ADD MSTORE DUP1 PUSH1 0x40 DUP6 ADD MLOAD AND PUSH1 0x60 DUP5 ADD MSTORE DUP1 PUSH1 0x60 DUP6 ADD MLOAD AND PUSH1 0x80 DUP5 ADD MSTORE POP PUSH1 0x80 DUP4 ADD MLOAD PUSH1 0xE0 PUSH1 0xA0 DUP5 ADD MSTORE PUSH3 0x145D PUSH2 0x100 DUP5 ADD DUP3 PUSH3 0x1311 JUMP JUMPDEST SWAP1 POP PUSH1 0xA0 DUP5 ADD MLOAD ISZERO ISZERO PUSH1 0xC0 DUP5 ADD MSTORE PUSH1 0xC0 DUP5 ADD MLOAD PUSH1 0xE0 DUP5 ADD MSTORE DUP1 SWAP2 POP POP SWAP3 SWAP2 POP POP JUMP JUMPDEST PUSH1 0x20 DUP1 DUP3 MSTORE PUSH1 0x12 SWAP1 DUP3 ADD MSTORE PUSH18 0x2330B1BA37B93C9D103737BA1037BBB732B9 PUSH1 0x71 SHL PUSH1 0x40 DUP3 ADD MSTORE PUSH1 0x60 ADD SWAP1 JUMP JUMPDEST PUSH1 0x0 DUP7 MLOAD PUSH3 0x14BF DUP2 DUP5 PUSH1 0x20 DUP12 ADD PUSH3 0x12EB JUMP JUMPDEST PUSH12 0xFFFFFFFFFFFFFFFFFFFFFFFF NOT PUSH1 0x60 SWAP8 DUP9 SHL DUP2 AND SWAP2 SWAP1 SWAP4 ADD SWAP1 DUP2 MSTORE SWAP5 SWAP1 SWAP6 SHL AND PUSH1 0x14 DUP5 ADD MSTORE PUSH1 0x28 DUP4 ADD SWAP2 SWAP1 SWAP2 MSTORE PUSH1 0x48 DUP3 ADD MSTORE PUSH1 0x68 ADD SWAP3 SWAP2 POP POP JUMP JUMPDEST PUSH1 0x1 DUP2 DUP2 SHR SWAP1 DUP3 AND DUP1 PUSH3 0x1510 JUMPI PUSH1 0x7F DUP3 AND SWAP2 POP JUMPDEST PUSH1 0x20 DUP3 LT DUP2 SUB PUSH3 0x1531 JUMPI PUSH4 0x4E487B71 PUSH1 0xE0 SHL PUSH1 0x0 MSTORE PUSH1 0x22 PUSH1 0x4 MSTORE PUSH1 0x24 PUSH1 0x0 REVERT JUMPDEST POP SWAP2 SWAP1 POP JUMP JUMPDEST PUSH1 0x1F DUP3 GT ISZERO PUSH3 0x1585 JUMPI PUSH1 0x0 DUP2 DUP2 MSTORE PUSH1 0x20 DUP2 KECCAK256 PUSH1 0x1F DUP6 ADD PUSH1 0x5 SHR DUP2 ADD PUSH1 0x20 DUP7 LT ISZERO PUSH3 0x1560 JUMPI POP DUP1 JUMPDEST PUSH1 0x1F DUP6 ADD PUSH1 0x5 SHR DUP3 ADD SWAP2 POP JUMPDEST DUP2 DUP2 LT ISZERO PUSH3 0x1581 JUMPI DUP3 DUP2 SSTORE PUSH1 0x1 ADD PUSH3 0x156C JUMP JUMPDEST POP POP POP JUMPDEST POP POP POP JUMP JUMPDEST DUP2 MLOAD PUSH8 0xFFFFFFFFFFFFFFFF DUP2 GT ISZERO PUSH3 0x15A7 JUMPI PUSH3 0x15A7 PUSH3 0x11D3 JUMP JUMPDEST PUSH3 0x15BF DUP2 PUSH3 0x15B8 DUP5 SLOAD PUSH3 0x14FB JUMP JUMPDEST DUP5 PUSH3 0x1537 JUMP JUMPDEST PUSH1 0x20 DUP1 PUSH1 0x1F DUP4 GT PUSH1 0x1 DUP2 EQ PUSH3 0x15F7 JUMPI PUSH1 0x0 DUP5 ISZERO PUSH3 0x15DE JUMPI POP DUP6 DUP4 ADD MLOAD JUMPDEST PUSH1 0x0 NOT PUSH1 0x3 DUP7 SWAP1 SHL SHR NOT AND PUSH1 0x1 DUP6 SWAP1 SHL OR DUP6 SSTORE PUSH3 0x1581 JUMP JUMPDEST PUSH1 0x0 DUP6 DUP2 MSTORE PUSH1 0x20 DUP2 KECCAK256 PUSH1 0x1F NOT DUP7 AND SWAP2 JUMPDEST DUP3 DUP2 LT ISZERO PUSH3 0x1628 JUMPI DUP9 DUP7 ADD MLOAD DUP3 SSTORE SWAP5 DUP5 ADD SWAP5 PUSH1 0x1 SWAP1 SWAP2 ADD SWAP1 DUP5 ADD PUSH3 0x1607 JUMP JUMPDEST POP DUP6 DUP3 LT ISZERO PUSH3 0x1647 JUMPI DUP8 DUP6 ADD MLOAD PUSH1 0x0 NOT PUSH1 0x3 DUP9 SWAP1 SHL PUSH1 0xF8 AND SHR NOT AND DUP2 SSTORE JUMPDEST POP POP POP POP POP PUSH1 0x1 SWAP1 DUP2 SHL ADD SWAP1 SSTORE POP JUMP JUMPDEST PUSH1 0x0 PUSH1 0x1 DUP3 ADD PUSH3 0x1678 JUMPI PUSH4 0x4E487B71 PUSH1 0xE0 SHL PUSH1 0x0 MSTORE PUSH1 0x11 PUSH1 0x4 MSTORE PUSH1 0x24 PUSH1 0x0 REVERT JUMPDEST POP PUSH1 0x1 ADD SWAP1 JUMP JUMPDEST PUSH1 0x60 DUP2 MSTORE PUSH1 0x0 PUSH3 0x1694 PUSH1 0x60 DUP4 ADD DUP7 PUSH3 0x1311 JUMP JUMPDEST PUSH1 0x1 PUSH1 0x1 PUSH1 0xA0 SHL SUB SWAP5 DUP6 AND PUSH1 0x20 DUP5 ADD MSTORE SWAP3 SWAP1 SWAP4 AND PUSH1 0x40 SWAP1 SWAP2 ADD MSTORE SWAP3 SWAP2 POP POP JUMP JUMPDEST PUSH4 0x4E487B71 PUSH1 0xE0 SHL PUSH1 0x0 MSTORE PUSH1 0x32 PUSH1 0x4 MSTORE PUSH1 0x24 PUSH1 0x0 REVERT INVALID PUSH1 0x80 PUSH1 0x40 MSTORE PUSH1 0x5 DUP1 SLOAD PUSH1 0xFF NOT AND SWAP1 SSTORE CALLVALUE DUP1 ISZERO PUSH2 0x1A JUMPI PUSH1 0x0 DUP1 REVERT JUMPDEST POP PUSH1 0x40 MLOAD PUSH2 0x1711 CODESIZE SUB DUP1 PUSH2 0x1711 DUP4 CODECOPY DUP2 ADD PUSH1 0x40 DUP2 SWAP1 MSTORE PUSH2 0x39 SWAP2 PUSH2 0x6C JUMP JUMPDEST PUSH1 0x0 DUP1 SLOAD CALLER PUSH1 0x1 PUSH1 0x1 PUSH1 0xA0 SHL SUB NOT SWAP2 DUP3 AND OR SWAP1 SWAP2 SSTORE PUSH1 0x2 DUP1 SLOAD SWAP1 SWAP2 AND PUSH1 0x1 PUSH1 0x1 PUSH1 0xA0 SHL SUB SWAP3 SWAP1 SWAP3 AND SWAP2 SWAP1 SWAP2 OR SWAP1 SSTORE PUSH2 0x9C JUMP JUMPDEST PUSH1 0x0 PUSH1 0x20 DUP3 DUP5 SUB SLT ISZERO PUSH2 0x7E JUMPI PUSH1 0x0 DUP1 REVERT JUMPDEST DUP2 MLOAD PUSH1 0x1 PUSH1 0x1 PUSH1 0xA0 SHL SUB DUP2 AND DUP2 EQ PUSH2 0x95 JUMPI PUSH1 0x0 DUP1 REVERT JUMPDEST SWAP4 SWAP3 POP POP POP JUMP JUMPDEST PUSH2 0x1666 DUP1 PUSH2 0xAB PUSH1 0x0 CODECOPY PUSH1 0x0 RETURN INVALID PUSH1 0x80 PUSH1 0x40 MSTORE CALLVALUE DUP1 ISZERO PUSH2 0x10 JUMPI PUSH1 0x0 DUP1 REVERT JUMPDEST POP PUSH1 0x4 CALLDATASIZE LT PUSH2 0x172 JUMPI PUSH1 0x0 CALLDATALOAD PUSH1 0xE0 SHR DUP1 PUSH4 0x95CCEA67 GT PUSH2 0xDE JUMPI DUP1 PUSH4 0xC1C7C9DD GT PUSH2 0x97 JUMPI DUP1 PUSH4 0xCF1C316A GT PUSH2 0x71 JUMPI DUP1 PUSH4 0xCF1C316A EQ PUSH2 0x364 JUMPI DUP1 PUSH4 0xE098372C EQ PUSH2 0x377 JUMPI DUP1 PUSH4 0xE1F1C4A7 EQ PUSH2 0x38A JUMPI DUP1 PUSH4 0xF2FDE38B EQ PUSH2 0x393 JUMPI PUSH1 0x0 DUP1 REVERT JUMPDEST DUP1 PUSH4 0xC1C7C9DD EQ PUSH2 0x32B JUMPI DUP1 PUSH4 0xC90BA3A6 EQ PUSH2 0x33E JUMPI DUP1 PUSH4 0xCB625680 EQ PUSH2 0x351 JUMPI PUSH1 0x0 DUP1 REVERT JUMPDEST DUP1 PUSH4 0x95CCEA67 EQ PUSH2 0x2A9 JUMPI DUP1 PUSH4 0xA5D5DB0C EQ PUSH2 0x2BC JUMPI DUP1 PUSH4 0xB2016BD4 EQ PUSH2 0x2CF JUMPI DUP1 PUSH4 0xB39FF736 EQ PUSH2 0x2E2 JUMPI DUP1 PUSH4 0xB9181611 EQ PUSH2 0x2F5 JUMPI DUP1 PUSH4 0xBCBAF487 EQ PUSH2 0x318 JUMPI PUSH1 0x0 DUP1 REVERT JUMPDEST DUP1 PUSH4 0x5D773174 GT PUSH2 0x130 JUMPI DUP1 PUSH4 0x5D773174 EQ PUSH2 0x226 JUMPI DUP1 PUSH4 0x7569F4C8 EQ PUSH2 0x239 JUMPI DUP1 PUSH4 0x8456CB59 EQ PUSH2 0x24C JUMPI DUP1 PUSH4 0x8DA5CB5B EQ PUSH2 0x254 JUMPI DUP1 PUSH4 0x90A8AE9B EQ PUSH2 0x27F JUMPI DUP1 PUSH4 0x9101E5B3 EQ PUSH2 0x296 JUMPI PUSH1 0x0 DUP1 REVERT JUMPDEST DUP1 PUSH3 0x2BC164 EQ PUSH2 0x177 JUMPI DUP1 PUSH4 0x350C35E9 EQ PUSH2 0x1C6 JUMPI DUP1 PUSH4 0x3F4BA83A EQ PUSH2 0x1DB JUMPI DUP1 PUSH4 0x485D7D94 EQ PUSH2 0x1E3 JUMPI DUP1 PUSH4 0x5969F96B EQ PUSH2 0x1F6 JUMPI DUP1 PUSH4 0x5C975ABB EQ PUSH2 0x209 JUMPI JUMPDEST PUSH1 0x0 DUP1 REVERT JUMPDEST PUSH2 0x18A PUSH2 0x185 CALLDATASIZE PUSH1 0x4 PUSH2 0x13F6 JUMP JUMPDEST PUSH2 0x3A6 JUMP JUMPDEST PUSH1 0x40 MLOAD PUSH2 0x1BD SWAP2 SWAP1 DUP2 MLOAD DUP2 MSTORE PUSH1 0x20 DUP1 DUP4 ADD MLOAD SWAP1 DUP3 ADD MSTORE PUSH1 0x40 DUP1 DUP4 ADD MLOAD SWAP1 DUP3 ADD MSTORE PUSH1 0x60 SWAP2 DUP3 ADD MLOAD SWAP2 DUP2 ADD SWAP2 SWAP1 SWAP2 MSTORE PUSH1 0x80 ADD SWAP1 JUMP JUMPDEST PUSH1 0x40 MLOAD DUP1 SWAP2 SUB SWAP1 RETURN JUMPDEST PUSH2 0x1D9 PUSH2 0x1D4 CALLDATASIZE PUSH1 0x4 PUSH2 0x1411 JUMP JUMPDEST PUSH2 0x41C JUMP JUMPDEST STOP JUMPDEST PUSH2 0x1D9 PUSH2 0x6C0 JUMP JUMPDEST PUSH2 0x1D9 PUSH2 0x1F1 CALLDATASIZE PUSH1 0x4 PUSH2 0x13F6 JUMP JUMPDEST PUSH2 0x71F JUMP JUMPDEST PUSH2 0x1D9 PUSH2 0x204 CALLDATASIZE PUSH1 0x4 PUSH2 0x143B JUMP JUMPDEST PUSH2 0x792 JUMP JUMPDEST PUSH1 0x5 SLOAD PUSH2 0x216 SWAP1 PUSH1 0xFF AND DUP2 JUMP JUMPDEST PUSH1 0x40 MLOAD SWAP1 ISZERO ISZERO DUP2 MSTORE PUSH1 0x20 ADD PUSH2 0x1BD JUMP JUMPDEST PUSH2 0x1D9 PUSH2 0x234 CALLDATASIZE PUSH1 0x4 PUSH2 0x13F6 JUMP JUMPDEST PUSH2 0x876 JUMP JUMPDEST PUSH2 0x1D9 PUSH2 0x247 CALLDATASIZE PUSH1 0x4 PUSH2 0x1411 JUMP JUMPDEST PUSH2 0x982 JUMP JUMPDEST PUSH2 0x1D9 PUSH2 0xAF7 JUMP JUMPDEST PUSH1 0x0 SLOAD PUSH2 0x267 SWAP1 PUSH1 0x1 PUSH1 0x1 PUSH1 0xA0 SHL SUB AND DUP2 JUMP JUMPDEST PUSH1 0x40 MLOAD PUSH1 0x1 PUSH1 0x1 PUSH1 0xA0 SHL SUB SWAP1 SWAP2 AND DUP2 MSTORE PUSH1 0x20 ADD PUSH2 0x1BD JUMP JUMPDEST PUSH2 0x288 PUSH2 0x1388 DUP2 JUMP JUMPDEST PUSH1 0x40 MLOAD SWAP1 DUP2 MSTORE PUSH1 0x20 ADD PUSH2 0x1BD JUMP JUMPDEST PUSH2 0x1D9 PUSH2 0x2A4 CALLDATASIZE PUSH1 0x4 PUSH2 0x1411 JUMP JUMPDEST PUSH2 0xB59 JUMP JUMPDEST PUSH2 0x1D9 PUSH2 0x2B7 CALLDATASIZE PUSH1 0x4 PUSH2 0x1411 JUMP JUMPDEST PUSH2 0xCDB JUMP JUMPDEST PUSH2 0x1D9 PUSH2 0x2CA CALLDATASIZE PUSH1 0x4 PUSH2 0x1411 JUMP JUMPDEST PUSH2 0xDC7 JUMP JUMPDEST PUSH1 0x2 SLOAD PUSH2 0x267 SWAP1 PUSH1 0x1 PUSH1 0x1 PUSH1 0xA0 SHL SUB AND DUP2 JUMP JUMPDEST PUSH2 0x216 PUSH2 0x2F0 CALLDATASIZE PUSH1 0x4 PUSH2 0x1411 JUMP JUMPDEST PUSH2 0xFA6 JUMP JUMPDEST PUSH2 0x216 PUSH2 0x303 CALLDATASIZE PUSH1 0x4 PUSH2 0x13F6 JUMP JUMPDEST PUSH1 0x4 PUSH1 0x20 MSTORE PUSH1 0x0 SWAP1 DUP2 MSTORE PUSH1 0x40 SWAP1 KECCAK256 SLOAD PUSH1 0xFF AND DUP2 JUMP JUMPDEST PUSH2 0x1D9 PUSH2 0x326 CALLDATASIZE PUSH1 0x4 PUSH2 0x1411 JUMP JUMPDEST PUSH2 0x1020 JUMP JUMPDEST PUSH2 0x288 PUSH2 0x339 CALLDATASIZE PUSH1 0x4 PUSH2 0x13F6 JUMP JUMPDEST PUSH2 0x1111 JUMP JUMPDEST PUSH2 0x288 PUSH2 0x34C CALLDATASIZE PUSH1 0x4 PUSH2 0x13F6 JUMP JUMPDEST PUSH2 0x1177 JUMP JUMPDEST PUSH2 0x1D9 PUSH2 0x35F CALLDATASIZE PUSH1 0x4 PUSH2 0x1411 JUMP JUMPDEST PUSH2 0x11A7 JUMP JUMPDEST PUSH2 0x1D9 PUSH2 0x372 CALLDATASIZE PUSH1 0x4 PUSH2 0x13F6 JUMP JUMPDEST PUSH2 0x127C JUMP JUMPDEST PUSH1 0x1 SLOAD PUSH2 0x267 SWAP1 PUSH1 0x1 PUSH1 0x1 PUSH1 0xA0 SHL SUB AND DUP2 JUMP JUMPDEST PUSH2 0x288 PUSH2 0x2710 DUP2 JUMP JUMPDEST PUSH2 0x1D9 PUSH2 0x3A1 CALLDATASIZE PUSH1 0x4 PUSH2 0x13F6 JUMP JUMPDEST PUSH2 0x1341 JUMP JUMPDEST PUSH2 0x3D1 PUSH1 0x40 MLOAD DUP1 PUSH1 0x80 ADD PUSH1 0x40 MSTORE DUP1 PUSH1 0x0 DUP2 MSTORE PUSH1 0x20 ADD PUSH1 0x0 DUP2 MSTORE PUSH1 0x20 ADD PUSH1 0x0 DUP2 MSTORE PUSH1 0x20 ADD PUSH1 0x0 DUP2 MSTORE POP SWAP1 JUMP JUMPDEST POP PUSH1 0x1 PUSH1 0x1 PUSH1 0xA0 SHL SUB AND PUSH1 0x0 SWAP1 DUP2 MSTORE PUSH1 0x3 PUSH1 0x20 DUP2 DUP2 MSTORE PUSH1 0x40 SWAP3 DUP4 SWAP1 KECCAK256 DUP4 MLOAD PUSH1 0x80 DUP2 ADD DUP6 MSTORE DUP2 SLOAD DUP2 MSTORE PUSH1 0x1 DUP3 ADD SLOAD SWAP3 DUP2 ADD SWAP3 SWAP1 SWAP3 MSTORE PUSH1 0x2 DUP2 ADD SLOAD SWAP4 DUP3 ADD SWAP4 SWAP1 SWAP4 MSTORE SWAP2 ADD SLOAD PUSH1 0x60 DUP3 ADD MSTORE SWAP1 JUMP JUMPDEST PUSH1 0x5 SLOAD PUSH1 0xFF AND ISZERO PUSH2 0x448 JUMPI PUSH1 0x40 MLOAD PUSH3 0x461BCD PUSH1 0xE5 SHL DUP2 MSTORE PUSH1 0x4 ADD PUSH2 0x43F SWAP1 PUSH2 0x146E JUMP JUMPDEST PUSH1 0x40 MLOAD DUP1 SWAP2 SUB SWAP1 REVERT JUMPDEST PUSH1 0x0 DUP2 GT PUSH2 0x468 JUMPI PUSH1 0x40 MLOAD PUSH3 0x461BCD PUSH1 0xE5 SHL DUP2 MSTORE PUSH1 0x4 ADD PUSH2 0x43F SWAP1 PUSH2 0x1495 JUMP JUMPDEST PUSH1 0x1 PUSH1 0x1 PUSH1 0xA0 SHL SUB DUP3 AND PUSH2 0x48E JUMPI PUSH1 0x40 MLOAD PUSH3 0x461BCD PUSH1 0xE5 SHL DUP2 MSTORE PUSH1 0x4 ADD PUSH2 0x43F SWAP1 PUSH2 0x14C4 JUMP JUMPDEST CALLER PUSH1 0x1 PUSH1 0x1 PUSH1 0xA0 SHL SUB DUP4 AND EQ DUP1 PUSH2 0x4B4 JUMPI POP CALLER PUSH1 0x0 SWAP1 DUP2 MSTORE PUSH1 0x4 PUSH1 0x20 MSTORE PUSH1 0x40 SWAP1 KECCAK256 SLOAD PUSH1 0xFF AND JUMPDEST PUSH2 0x4D0 JUMPI PUSH1 0x40 MLOAD PUSH3 0x461BCD PUSH1 0xE5 SHL DUP2 MSTORE PUSH1 0x4 ADD PUSH2 0x43F SWAP1 PUSH2 0x14F1 JUMP JUMPDEST PUSH1 0x1 PUSH1 0x1 PUSH1 0xA0 SHL SUB DUP3 AND PUSH1 0x0 SWAP1 DUP2 MSTORE PUSH1 0x3 PUSH1 0x20 MSTORE PUSH1 0x40 SWAP1 KECCAK256 DUP1 SLOAD DUP3 GT ISZERO PUSH2 0x539 JUMPI PUSH1 0x40 MLOAD PUSH3 0x461BCD PUSH1 0xE5 SHL DUP2 MSTORE PUSH1 0x20 PUSH1 0x4 DUP3 ADD MSTORE PUSH1 0x1E PUSH1 0x24 DUP3 ADD MSTORE PUSH32 0x5661756C743A20696E73756666696369656E7420636F6C6C61746572616C0000 PUSH1 0x44 DUP3 ADD MSTORE PUSH1 0x64 ADD PUSH2 0x43F JUMP JUMPDEST PUSH1 0x0 PUSH2 0x544 DUP5 PUSH2 0x1111 JUMP JUMPDEST SWAP1 POP DUP3 DUP2 LT ISZERO PUSH2 0x5A2 JUMPI PUSH1 0x40 MLOAD PUSH3 0x461BCD PUSH1 0xE5 SHL DUP2 MSTORE PUSH1 0x20 PUSH1 0x4 DUP3 ADD MSTORE PUSH1 0x24 DUP1 DUP3 ADD MSTORE PUSH32 0x5661756C743A20696E73756666696369656E7420617661696C61626C65206D61 PUSH1 0x44 DUP3 ADD MSTORE PUSH4 0x3933B4B7 PUSH1 0xE1 SHL PUSH1 0x64 DUP3 ADD MSTORE PUSH1 0x84 ADD PUSH2 0x43F JUMP JUMPDEST DUP3 DUP3 PUSH1 0x0 ADD PUSH1 0x0 DUP3 DUP3 SLOAD PUSH2 0x5B6 SWAP2 SWAP1 PUSH2 0x1536 JUMP JUMPDEST SWAP1 SWAP2 SSTORE POP POP PUSH1 0x2 SLOAD PUSH1 0x40 MLOAD PUSH4 0xA9059CBB PUSH1 0xE0 SHL DUP2 MSTORE PUSH1 0x1 PUSH1 0x1 PUSH1 0xA0 SHL SUB DUP7 DUP2 AND PUSH1 0x4 DUP4 ADD MSTORE PUSH1 0x24 DUP3 ADD DUP7 SWAP1 MSTORE SWAP1 SWAP2 AND SWAP1 PUSH4 0xA9059CBB SWAP1 PUSH1 0x44 ADD PUSH1 0x20 PUSH1 0x40 MLOAD DUP1 DUP4 SUB DUP2 PUSH1 0x0 DUP8 GAS CALL ISZERO DUP1 ISZERO PUSH2 0x60E JUMPI RETURNDATASIZE PUSH1 0x0 DUP1 RETURNDATACOPY RETURNDATASIZE PUSH1 0x0 REVERT JUMPDEST POP POP POP POP PUSH1 0x40 MLOAD RETURNDATASIZE PUSH1 0x1F NOT PUSH1 0x1F DUP3 ADD AND DUP3 ADD DUP1 PUSH1 0x40 MSTORE POP DUP2 ADD SWAP1 PUSH2 0x632 SWAP2 SWAP1 PUSH2 0x1549 JUMP JUMPDEST PUSH2 0x677 JUMPI PUSH1 0x40 MLOAD PUSH3 0x461BCD PUSH1 0xE5 SHL DUP2 MSTORE PUSH1 0x20 PUSH1 0x4 DUP3 ADD MSTORE PUSH1 0x16 PUSH1 0x24 DUP3 ADD MSTORE PUSH22 0x15985D5B1D0E881D1C985B9CD9995C8819985A5B1959 PUSH1 0x52 SHL PUSH1 0x44 DUP3 ADD MSTORE PUSH1 0x64 ADD PUSH2 0x43F JUMP JUMPDEST DUP4 PUSH1 0x1 PUSH1 0x1 PUSH1 0xA0 SHL SUB AND PUSH32 0xC30FCFBCAAC9E0DEFFA719714EAA82396FF506A0D0D0EEBE170830177288715D DUP5 PUSH1 0x40 MLOAD PUSH2 0x6B2 SWAP2 DUP2 MSTORE PUSH1 0x20 ADD SWAP1 JUMP JUMPDEST PUSH1 0x40 MLOAD DUP1 SWAP2 SUB SWAP1 LOG2 POP POP POP POP JUMP JUMPDEST PUSH1 0x0 SLOAD PUSH1 0x1 PUSH1 0x1 PUSH1 0xA0 SHL SUB AND CALLER EQ PUSH2 0x6EA JUMPI PUSH1 0x40 MLOAD PUSH3 0x461BCD PUSH1 0xE5 SHL DUP2 MSTORE PUSH1 0x4 ADD PUSH2 0x43F SWAP1 PUSH2 0x156B JUMP JUMPDEST PUSH1 0x5 DUP1 SLOAD PUSH1 0xFF NOT AND SWAP1 SSTORE PUSH1 0x40 MLOAD PUSH32 0xA45F47FDEA8A1EFDD9029A5691C7F759C32B7C698632B563573E155625D16933 SWAP1 PUSH1 0x0 SWAP1 LOG1 JUMP JUMPDEST PUSH1 0x0 SLOAD PUSH1 0x1 PUSH1 0x1 PUSH1 0xA0 SHL SUB AND CALLER EQ PUSH2 0x749 JUMPI PUSH1 0x40 MLOAD PUSH3 0x461BCD PUSH1 0xE5 SHL DUP2 MSTORE PUSH1 0x4 ADD PUSH2 0x43F SWAP1 PUSH2 0x156B JUMP JUMPDEST PUSH1 0x1 PUSH1 0x1 PUSH1 0xA0 SHL SUB DUP2 AND PUSH1 0x0 DUP2 DUP2 MSTORE PUSH1 0x4 PUSH1 0x20 MSTORE PUSH1 0x40 DUP1 DUP3 KECCAK256 DUP1 SLOAD PUSH1 0xFF NOT AND SWAP1 SSTORE MLOAD PUSH32 0xFAFD0343E6C6F6985727574866DA48938C918559EB9521CF9CC0D317EA0F7B4 SWAP2 SWAP1 LOG2 POP JUMP JUMPDEST CALLER PUSH1 0x0 SWAP1 DUP2 MSTORE PUSH1 0x4 PUSH1 0x20 MSTORE PUSH1 0x40 SWAP1 KECCAK256 SLOAD PUSH1 0xFF AND DUP1 PUSH2 0x7BA JUMPI POP PUSH1 0x0 SLOAD PUSH1 0x1 PUSH1 0x1 PUSH1 0xA0 SHL SUB AND CALLER EQ JUMPDEST PUSH2 0x7D6 JUMPI PUSH1 0x40 MLOAD PUSH3 0x461BCD PUSH1 0xE5 SHL DUP2 MSTORE PUSH1 0x4 ADD PUSH2 0x43F SWAP1 PUSH2 0x14F1 JUMP JUMPDEST PUSH1 0x1 PUSH1 0x1 PUSH1 0xA0 SHL SUB DUP4 AND PUSH2 0x7FC JUMPI PUSH1 0x40 MLOAD PUSH3 0x461BCD PUSH1 0xE5 SHL DUP2 MSTORE PUSH1 0x4 ADD PUSH2 0x43F SWAP1 PUSH2 0x14C4 JUMP JUMPDEST PUSH1 0x1 PUSH1 0x1 PUSH1 0xA0 SHL SUB DUP4 AND PUSH1 0x0 SWAP1 DUP2 MSTORE PUSH1 0x3 PUSH1 0x20 MSTORE PUSH1 0x40 DUP2 KECCAK256 PUSH1 0x2 DUP2 ADD DUP1 SLOAD SWAP2 SWAP3 DUP6 SWAP3 PUSH2 0x829 SWAP1 DUP5 SWAP1 PUSH2 0x1595 JUMP JUMPDEST SWAP1 SWAP2 SSTORE POP POP PUSH1 0x3 DUP2 ADD DUP3 SWAP1 SSTORE PUSH1 0x40 DUP1 MLOAD DUP5 DUP2 MSTORE PUSH1 0x20 DUP2 ADD DUP5 SWAP1 MSTORE PUSH1 0x1 PUSH1 0x1 PUSH1 0xA0 SHL SUB DUP7 AND SWAP2 PUSH32 0x4519C0DE74B8F9F16FDA0005326875E3FD4DD0D38446A1135A1FFA1739E4591E SWAP2 ADD PUSH2 0x6B2 JUMP JUMPDEST PUSH1 0x0 SLOAD PUSH1 0x1 PUSH1 0x1 PUSH1 0xA0 SHL SUB AND CALLER EQ PUSH2 0x8A0 JUMPI PUSH1 0x40 MLOAD PUSH3 0x461BCD PUSH1 0xE5 SHL DUP2 MSTORE PUSH1 0x4 ADD PUSH2 0x43F SWAP1 PUSH2 0x156B JUMP JUMPDEST PUSH1 0x1 PUSH1 0x1 PUSH1 0xA0 SHL SUB DUP2 AND PUSH2 0x8EC JUMPI PUSH1 0x40 MLOAD PUSH3 0x461BCD PUSH1 0xE5 SHL DUP2 MSTORE PUSH1 0x20 PUSH1 0x4 DUP3 ADD MSTORE PUSH1 0x13 PUSH1 0x24 DUP3 ADD MSTORE PUSH19 0x5661756C743A20696E76616C69642076616D6D PUSH1 0x68 SHL PUSH1 0x44 DUP3 ADD MSTORE PUSH1 0x64 ADD PUSH2 0x43F JUMP JUMPDEST PUSH1 0x1 DUP1 SLOAD PUSH1 0x1 PUSH1 0x1 PUSH1 0xA0 SHL SUB NOT AND PUSH1 0x1 PUSH1 0x1 PUSH1 0xA0 SHL SUB DUP4 AND SWAP1 DUP2 OR DUP3 SSTORE PUSH1 0x0 DUP2 DUP2 MSTORE PUSH1 0x4 PUSH1 0x20 MSTORE PUSH1 0x40 DUP1 DUP3 KECCAK256 DUP1 SLOAD PUSH1 0xFF NOT AND SWAP1 SWAP5 OR SWAP1 SWAP4 SSTORE SWAP2 MLOAD SWAP1 SWAP2 PUSH32 0xB9B7E0CD0425B8D1399710185FEAB651B96089B6F0E01CB950FFB46B17227CBF SWAP2 LOG2 PUSH1 0x40 MLOAD PUSH1 0x1 PUSH1 0x1 PUSH1 0xA0 SHL SUB DUP3 AND SWAP1 PUSH32 0xDD10D14F6AC19E913D4EDBB11FD30661531E2CCD0D23F571E9B224F001F0DD06 SWAP1 PUSH1 0x0 SWAP1 LOG2 POP JUMP JUMPDEST CALLER PUSH1 0x0 SWAP1 DUP2 MSTORE PUSH1 0x4 PUSH1 0x20 MSTORE PUSH1 0x40 SWAP1 KECCAK256 SLOAD PUSH1 0xFF AND DUP1 PUSH2 0x9AA JUMPI POP PUSH1 0x0 SLOAD PUSH1 0x1 PUSH1 0x1 PUSH1 0xA0 SHL SUB AND CALLER EQ JUMPDEST PUSH2 0x9C6 JUMPI PUSH1 0x40 MLOAD PUSH3 0x461BCD PUSH1 0xE5 SHL DUP2 MSTORE PUSH1 0x4 ADD PUSH2 0x43F SWAP1 PUSH2 0x14F1 JUMP JUMPDEST PUSH1 0x5 SLOAD PUSH1 0xFF AND ISZERO PUSH2 0x9E9 JUMPI PUSH1 0x40 MLOAD PUSH3 0x461BCD PUSH1 0xE5 SHL DUP2 MSTORE PUSH1 0x4 ADD PUSH2 0x43F SWAP1 PUSH2 0x146E JUMP JUMPDEST PUSH1 0x0 DUP2 GT PUSH2 0xA09 JUMPI PUSH1 0x40 MLOAD PUSH3 0x461BCD PUSH1 0xE5 SHL DUP2 MSTORE PUSH1 0x4 ADD PUSH2 0x43F SWAP1 PUSH2 0x1495 JUMP JUMPDEST PUSH1 0x1 PUSH1 0x1 PUSH1 0xA0 SHL SUB DUP3 AND PUSH2 0xA2F JUMPI PUSH1 0x40 MLOAD PUSH3 0x461BCD PUSH1 0xE5 SHL DUP2 MSTORE PUSH1 0x4 ADD PUSH2 0x43F SWAP1 PUSH2 0x14C4 JUMP JUMPDEST PUSH1 0x1 PUSH1 0x1 PUSH1 0xA0 SHL SUB DUP3 AND PUSH1 0x0 SWAP1 DUP2 MSTORE PUSH1 0x3 PUSH1 0x20 MSTORE PUSH1 0x40 DUP2 KECCAK256 SWAP1 PUSH2 0xA51 DUP5 PUSH2 0x1111 JUMP JUMPDEST SWAP1 POP DUP3 DUP2 LT ISZERO PUSH2 0xAA3 JUMPI PUSH1 0x40 MLOAD PUSH3 0x461BCD PUSH1 0xE5 SHL DUP2 MSTORE PUSH1 0x20 PUSH1 0x4 DUP3 ADD MSTORE PUSH1 0x1A PUSH1 0x24 DUP3 ADD MSTORE PUSH32 0x5661756C743A20696E73756666696369656E74206D617267696E000000000000 PUSH1 0x44 DUP3 ADD MSTORE PUSH1 0x64 ADD PUSH2 0x43F JUMP JUMPDEST DUP3 DUP3 PUSH1 0x1 ADD PUSH1 0x0 DUP3 DUP3 SLOAD PUSH2 0xAB7 SWAP2 SWAP1 PUSH2 0x15BD JUMP JUMPDEST SWAP1 SWAP2 SSTORE POP POP PUSH1 0x40 MLOAD DUP4 DUP2 MSTORE PUSH1 0x1 PUSH1 0x1 PUSH1 0xA0 SHL SUB DUP6 AND SWAP1 PUSH32 0x7A9B1B90F35F094FFC6D04D86069C79E82C6A16EB600F79672428A409635DECA SWAP1 PUSH1 0x20 ADD PUSH2 0x6B2 JUMP JUMPDEST PUSH1 0x0 SLOAD PUSH1 0x1 PUSH1 0x1 PUSH1 0xA0 SHL SUB AND CALLER EQ PUSH2 0xB21 JUMPI PUSH1 0x40 MLOAD PUSH3 0x461BCD PUSH1 0xE5 SHL DUP2 MSTORE PUSH1 0x4 ADD PUSH2 0x43F SWAP1 PUSH2 0x156B JUMP JUMPDEST PUSH1 0x5 DUP1 SLOAD PUSH1 0xFF NOT AND PUSH1 0x1 OR SWAP1 SSTORE PUSH1 0x40 MLOAD PUSH32 0x9E87FAC88FF661F02D44F95383C817FECE4BCE600A3DAB7A54406878B965E752 SWAP1 PUSH1 0x0 SWAP1 LOG1 JUMP JUMPDEST CALLER PUSH1 0x0 SWAP1 DUP2 MSTORE PUSH1 0x4 PUSH1 0x20 MSTORE PUSH1 0x40 SWAP1 KECCAK256 SLOAD PUSH1 0xFF AND DUP1 PUSH2 0xB81 JUMPI POP PUSH1 0x0 SLOAD PUSH1 0x1 PUSH1 0x1 PUSH1 0xA0 SHL SUB AND CALLER EQ JUMPDEST PUSH2 0xB9D JUMPI PUSH1 0x40 MLOAD PUSH3 0x461BCD PUSH1 0xE5 SHL DUP2 MSTORE PUSH1 0x4 ADD PUSH2 0x43F SWAP1 PUSH2 0x14F1 JUMP JUMPDEST PUSH1 0x5 SLOAD PUSH1 0xFF AND ISZERO PUSH2 0xBC0 JUMPI PUSH1 0x40 MLOAD PUSH3 0x461BCD PUSH1 0xE5 SHL DUP2 MSTORE PUSH1 0x4 ADD PUSH2 0x43F SWAP1 PUSH2 0x146E JUMP JUMPDEST PUSH1 0x0 DUP2 GT PUSH2 0xBE0 JUMPI PUSH1 0x40 MLOAD PUSH3 0x461BCD PUSH1 0xE5 SHL DUP2 MSTORE PUSH1 0x4 ADD PUSH2 0x43F SWAP1 PUSH2 0x1495 JUMP JUMPDEST PUSH1 0x1 PUSH1 0x1 PUSH1 0xA0 SHL SUB DUP3 AND PUSH2 0xC06 JUMPI PUSH1 0x40 MLOAD PUSH3 0x461BCD PUSH1 0xE5 SHL DUP2 MSTORE PUSH1 0x4 ADD PUSH2 0x43F SWAP1 PUSH2 0x14C4 JUMP JUMPDEST PUSH1 0x1 PUSH1 0x1 PUSH1 0xA0 SHL SUB DUP3 AND PUSH1 0x0 SWAP1 DUP2 MSTORE PUSH1 0x3 PUSH1 0x20 MSTORE PUSH1 0x40 SWAP1 KECCAK256 PUSH1 0x1 DUP2 ADD SLOAD DUP3 GT ISZERO PUSH2 0xC7E JUMPI PUSH1 0x40 MLOAD PUSH3 0x461BCD PUSH1 0xE5 SHL DUP2 MSTORE PUSH1 0x20 PUSH1 0x4 DUP3 ADD MSTORE PUSH1 0x23 PUSH1 0x24 DUP3 ADD MSTORE PUSH32 0x5661756C743A20696E73756666696369656E74207265736572766564206D6172 PUSH1 0x44 DUP3 ADD MSTORE PUSH3 0x33B4B7 PUSH1 0xE9 SHL PUSH1 0x64 DUP3 ADD MSTORE PUSH1 0x84 ADD PUSH2 0x43F JUMP JUMPDEST DUP2 DUP2 PUSH1 0x1 ADD PUSH1 0x0 DUP3 DUP3 SLOAD PUSH2 0xC92 SWAP2 SWAP1 PUSH2 0x1536 JUMP JUMPDEST SWAP1 SWAP2 SSTORE POP POP PUSH1 0x40 MLOAD DUP3 DUP2 MSTORE PUSH1 0x1 PUSH1 0x1 PUSH1 0xA0 SHL SUB DUP5 AND SWAP1 PUSH32 0x5E63D54AF10545F0B2BD229512F244CAEFE863AD94DBBB7AD827432C84D762F5 SWAP1 PUSH1 0x20 ADD JUMPDEST PUSH1 0x40 MLOAD DUP1 SWAP2 SUB SWAP1 LOG2 POP POP POP JUMP JUMPDEST PUSH1 0x0 SLOAD PUSH1 0x1 PUSH1 0x1 PUSH1 0xA0 SHL SUB AND CALLER EQ PUSH2 0xD05 JUMPI PUSH1 0x40 MLOAD PUSH3 0x461BCD PUSH1 0xE5 SHL DUP2 MSTORE PUSH1 0x4 ADD PUSH2 0x43F SWAP1 PUSH2 0x156B JUMP JUMPDEST PUSH1 0x5 SLOAD PUSH1 0xFF AND PUSH2 0xD4B JUMPI PUSH1 0x40 MLOAD PUSH3 0x461BCD PUSH1 0xE5 SHL DUP2 MSTORE PUSH1 0x20 PUSH1 0x4 DUP3 ADD MSTORE PUSH1 0x11 PUSH1 0x24 DUP3 ADD MSTORE PUSH17 0x15985D5B1D0E881B9BDD081C185D5CD959 PUSH1 0x7A SHL PUSH1 0x44 DUP3 ADD MSTORE PUSH1 0x64 ADD PUSH2 0x43F JUMP JUMPDEST PUSH1 0x0 SLOAD PUSH1 0x40 MLOAD PUSH4 0xA9059CBB PUSH1 0xE0 SHL DUP2 MSTORE PUSH1 0x1 PUSH1 0x1 PUSH1 0xA0 SHL SUB SWAP2 DUP3 AND PUSH1 0x4 DUP3 ADD MSTORE PUSH1 0x24 DUP2 ADD DUP4 SWAP1 MSTORE SWAP1 DUP4 AND SWAP1 PUSH4 0xA9059CBB SWAP1 PUSH1 0x44 ADD PUSH1 0x20 PUSH1 0x40 MLOAD DUP1 DUP4 SUB DUP2 PUSH1 0x0 DUP8 GAS CALL ISZERO DUP1 ISZERO PUSH2 0xD9E JUMPI RETURNDATASIZE PUSH1 0x0 DUP1 RETURNDATACOPY RETURNDATASIZE PUSH1 0x0 REVERT JUMPDEST POP POP POP POP PUSH1 0x40 MLOAD RETURNDATASIZE PUSH1 0x1F NOT PUSH1 0x1F DUP3 ADD AND DUP3 ADD DUP1 PUSH1 0x40 MSTORE POP DUP2 ADD SWAP1 PUSH2 0xDC2 SWAP2 SWAP1 PUSH2 0x1549 JUMP JUMPDEST POP POP POP JUMP JUMPDEST PUSH1 0x5 SLOAD PUSH1 0xFF AND ISZERO PUSH2 0xDEA JUMPI PUSH1 0x40 MLOAD PUSH3 0x461BCD PUSH1 0xE5 SHL DUP2 MSTORE PUSH1 0x4 ADD PUSH2 0x43F SWAP1 PUSH2 0x146E JUMP JUMPDEST PUSH1 0x0 DUP2 GT PUSH2 0xE0A JUMPI PUSH1 0x40 MLOAD PUSH3 0x461BCD PUSH1 0xE5 SHL DUP2 MSTORE PUSH1 0x4 ADD PUSH2 0x43F SWAP1 PUSH2 0x1495 JUMP JUMPDEST PUSH1 0x1 PUSH1 0x1 PUSH1 0xA0 SHL SUB DUP3 AND PUSH2 0xE30 JUMPI PUSH1 0x40 MLOAD PUSH3 0x461BCD PUSH1 0xE5 SHL DUP2 MSTORE PUSH1 0x4 ADD PUSH2 0x43F SWAP1 PUSH2 0x14C4 JUMP JUMPDEST PUSH1 0x1 PUSH1 0x1 PUSH1 0xA0 SHL SUB DUP3 AND CALLER SUB PUSH2 0xF07 JUMPI PUSH1 0x2 SLOAD PUSH1 0x40 MLOAD PUSH4 0x23B872DD PUSH1 0xE0 SHL DUP2 MSTORE PUSH1 0x1 PUSH1 0x1 PUSH1 0xA0 SHL SUB DUP5 DUP2 AND PUSH1 0x4 DUP4 ADD MSTORE ADDRESS PUSH1 0x24 DUP4 ADD MSTORE PUSH1 0x44 DUP3 ADD DUP5 SWAP1 MSTORE SWAP1 SWAP2 AND SWAP1 PUSH4 0x23B872DD SWAP1 PUSH1 0x64 ADD PUSH1 0x20 PUSH1 0x40 MLOAD DUP1 DUP4 SUB DUP2 PUSH1 0x0 DUP8 GAS CALL ISZERO DUP1 ISZERO PUSH2 0xE99 JUMPI RETURNDATASIZE PUSH1 0x0 DUP1 RETURNDATACOPY RETURNDATASIZE PUSH1 0x0 REVERT JUMPDEST POP POP POP POP PUSH1 0x40 MLOAD RETURNDATASIZE PUSH1 0x1F NOT PUSH1 0x1F DUP3 ADD AND DUP3 ADD DUP1 PUSH1 0x40 MSTORE POP DUP2 ADD SWAP1 PUSH2 0xEBD SWAP2 SWAP1 PUSH2 0x1549 JUMP JUMPDEST PUSH2 0xF02 JUMPI PUSH1 0x40 MLOAD PUSH3 0x461BCD PUSH1 0xE5 SHL DUP2 MSTORE PUSH1 0x20 PUSH1 0x4 DUP3 ADD MSTORE PUSH1 0x16 PUSH1 0x24 DUP3 ADD MSTORE PUSH22 0x15985D5B1D0E881D1C985B9CD9995C8819985A5B1959 PUSH1 0x52 SHL PUSH1 0x44 DUP3 ADD MSTORE PUSH1 0x64 ADD PUSH2 0x43F JUMP JUMPDEST PUSH2 0xF36 JUMP JUMPDEST CALLER PUSH1 0x0 SWAP1 DUP2 MSTORE PUSH1 0x4 PUSH1 0x20 MSTORE PUSH1 0x40 SWAP1 KECCAK256 SLOAD PUSH1 0xFF AND PUSH2 0xF36 JUMPI PUSH1 0x40 MLOAD PUSH3 0x461BCD PUSH1 0xE5 SHL DUP2 MSTORE PUSH1 0x4 ADD PUSH2 0x43F SWAP1 PUSH2 0x14F1 JUMP JUMPDEST PUSH1 0x1 PUSH1 0x1 PUSH1 0xA0 SHL SUB DUP3 AND PUSH1 0x0 SWAP1 DUP2 MSTORE PUSH1 0x3 PUSH1 0x20 MSTORE PUSH1 0x40 DUP2 KECCAK256 DUP1 SLOAD DUP4 SWAP3 SWAP1 PUSH2 0xF5E SWAP1 DUP5 SWAP1 PUSH2 0x15BD JUMP JUMPDEST SWAP1 SWAP2 SSTORE POP POP PUSH1 0x40 MLOAD DUP2 DUP2 MSTORE PUSH1 0x1 PUSH1 0x1 PUSH1 0xA0 SHL SUB DUP4 AND SWAP1 PUSH32 0xD7243F6F8212D5188FD054141CF6EA89CFC0D91FACB8C3AFE2F88A1358480142 SWAP1 PUSH1 0x20 ADD JUMPDEST PUSH1 0x40 MLOAD DUP1 SWAP2 SUB SWAP1 LOG2 POP POP JUMP JUMPDEST PUSH1 0x1 PUSH1 0x1 PUSH1 0xA0 SHL SUB DUP3 AND PUSH1 0x0 SWAP1 DUP2 MSTORE PUSH1 0x3 PUSH1 0x20 MSTORE PUSH1 0x40 DUP2 KECCAK256 PUSH1 0x1 DUP2 ADD SLOAD DUP3 SUB PUSH2 0xFD3 JUMPI PUSH1 0x0 SWAP2 POP POP PUSH2 0x101A JUMP JUMPDEST PUSH1 0x0 PUSH2 0xFDE DUP6 PUSH2 0x1177 JUMP JUMPDEST SWAP1 POP PUSH1 0x0 DUP2 SGT PUSH2 0xFF3 JUMPI PUSH1 0x1 SWAP3 POP POP POP PUSH2 0x101A JUMP JUMPDEST PUSH1 0x0 PUSH2 0x2710 DUP6 DUP5 PUSH1 0x1 ADD SLOAD PUSH2 0x1008 SWAP2 SWAP1 PUSH2 0x15D0 JUMP JUMPDEST PUSH2 0x1012 SWAP2 SWAP1 PUSH2 0x15E7 JUMP JUMPDEST SWAP1 SWAP2 LT SWAP3 POP POP POP JUMPDEST SWAP3 SWAP2 POP POP JUMP JUMPDEST CALLER PUSH1 0x0 SWAP1 DUP2 MSTORE PUSH1 0x4 PUSH1 0x20 MSTORE PUSH1 0x40 SWAP1 KECCAK256 SLOAD PUSH1 0xFF AND DUP1 PUSH2 0x1048 JUMPI POP PUSH1 0x0 SLOAD PUSH1 0x1 PUSH1 0x1 PUSH1 0xA0 SHL SUB AND CALLER EQ JUMPDEST PUSH2 0x1064 JUMPI PUSH1 0x40 MLOAD PUSH3 0x461BCD PUSH1 0xE5 SHL DUP2 MSTORE PUSH1 0x4 ADD PUSH2 0x43F SWAP1 PUSH2 0x14F1 JUMP JUMPDEST PUSH1 0x1 PUSH1 0x1 PUSH1 0xA0 SHL SUB DUP3 AND PUSH2 0x108A JUMPI PUSH1 0x40 MLOAD PUSH3 0x461BCD PUSH1 0xE5 SHL DUP2 MSTORE PUSH1 0x4 ADD PUSH2 0x43F SWAP1 PUSH2 0x14C4 JUMP JUMPDEST PUSH1 0x1 PUSH1 0x1 PUSH1 0xA0 SHL SUB DUP3 AND PUSH1 0x0 SWAP1 DUP2 MSTORE PUSH1 0x3 PUSH1 0x20 MSTORE PUSH1 0x40 SWAP1 KECCAK256 DUP2 ISZERO PUSH2 0x10C8 JUMPI PUSH1 0x0 DUP3 SWAP1 POP DUP1 DUP3 PUSH1 0x2 ADD PUSH1 0x0 DUP3 DUP3 SLOAD PUSH2 0x10C1 SWAP2 SWAP1 PUSH2 0x1609 JUMP JUMPDEST SWAP1 SWAP2 SSTORE POP POP POP JUMPDEST PUSH1 0x0 PUSH1 0x1 DUP3 ADD DUP2 SWAP1 SSTORE PUSH1 0x2 DUP3 ADD SSTORE PUSH1 0x40 MLOAD DUP3 DUP2 MSTORE PUSH1 0x1 PUSH1 0x1 PUSH1 0xA0 SHL SUB DUP5 AND SWAP1 PUSH32 0xE538B9438650B40B382A773F4B71A35129A6B330599B42ED9B50492847972FA6 SWAP1 PUSH1 0x20 ADD PUSH2 0xCCE JUMP JUMPDEST PUSH1 0x1 PUSH1 0x1 PUSH1 0xA0 SHL SUB DUP2 AND PUSH1 0x0 SWAP1 DUP2 MSTORE PUSH1 0x3 PUSH1 0x20 MSTORE PUSH1 0x40 DUP2 KECCAK256 DUP2 PUSH2 0x1133 DUP5 PUSH2 0x1177 JUMP JUMPDEST SWAP1 POP PUSH1 0x0 DUP2 SGT PUSH2 0x1147 JUMPI POP PUSH1 0x0 SWAP4 SWAP3 POP POP POP JUMP JUMPDEST PUSH1 0x1 DUP3 ADD SLOAD DUP2 SWAP1 DUP2 GT PUSH2 0x115F JUMPI POP PUSH1 0x0 SWAP5 SWAP4 POP POP POP POP JUMP JUMPDEST PUSH1 0x1 DUP4 ADD SLOAD PUSH2 0x116E SWAP1 DUP3 PUSH2 0x1536 JUMP JUMPDEST SWAP6 SWAP5 POP POP POP POP POP JUMP JUMPDEST PUSH1 0x1 PUSH1 0x1 PUSH1 0xA0 SHL SUB DUP2 AND PUSH1 0x0 SWAP1 DUP2 MSTORE PUSH1 0x3 PUSH1 0x20 MSTORE PUSH1 0x40 DUP2 KECCAK256 PUSH1 0x2 DUP2 ADD SLOAD DUP2 SLOAD PUSH2 0x11A0 SWAP2 SWAP1 PUSH2 0x1595 JUMP JUMPDEST SWAP4 SWAP3 POP POP POP JUMP JUMPDEST CALLER PUSH1 0x0 SWAP1 DUP2 MSTORE PUSH1 0x4 PUSH1 0x20 MSTORE PUSH1 0x40 SWAP1 KECCAK256 SLOAD PUSH1 0xFF AND DUP1 PUSH2 0x11CF JUMPI POP PUSH1 0x0 SLOAD PUSH1 0x1 PUSH1 0x1 PUSH1 0xA0 SHL SUB AND CALLER EQ JUMPDEST PUSH2 0x11EB JUMPI PUSH1 0x40 MLOAD PUSH3 0x461BCD PUSH1 0xE5 SHL DUP2 MSTORE PUSH1 0x4 ADD PUSH2 0x43F SWAP1 PUSH2 0x14F1 JUMP JUMPDEST PUSH1 0x1 PUSH1 0x1 PUSH1 0xA0 SHL SUB DUP3 AND PUSH2 0x1211 JUMPI PUSH1 0x40 MLOAD PUSH3 0x461BCD PUSH1 0xE5 SHL DUP2 MSTORE PUSH1 0x4 ADD PUSH2 0x43F SWAP1 PUSH2 0x14C4 JUMP JUMPDEST PUSH1 0x1 PUSH1 0x1 PUSH1 0xA0 SHL SUB DUP3 AND PUSH1 0x0 SWAP1 DUP2 MSTORE PUSH1 0x3 PUSH1 0x20 MSTORE PUSH1 0x40 DUP2 KECCAK256 PUSH1 0x2 ADD DUP1 SLOAD DUP4 SWAP3 SWAP1 PUSH2 0x123C SWAP1 DUP5 SWAP1 PUSH2 0x1595 JUMP JUMPDEST SWAP1 SWAP2 SSTORE POP POP PUSH1 0x40 MLOAD DUP2 DUP2 MSTORE PUSH1 0x1 PUSH1 0x1 PUSH1 0xA0 SHL SUB DUP4 AND SWAP1 PUSH32 0x22D38DEB33EE15DD233167FC440609397A226EB4E1B61E1773BDD09EF99424AA SWAP1 PUSH1 0x20 ADD PUSH2 0xF9A JUMP JUMPDEST PUSH1 0x0 SLOAD PUSH1 0x1 PUSH1 0x1 PUSH1 0xA0 SHL SUB AND CALLER EQ PUSH2 0x12A6 JUMPI PUSH1 0x40 MLOAD PUSH3 0x461BCD PUSH1 0xE5 SHL DUP2 MSTORE PUSH1 0x4 ADD PUSH2 0x43F SWAP1 PUSH2 0x156B JUMP JUMPDEST PUSH1 0x1 PUSH1 0x1 PUSH1 0xA0 SHL SUB DUP2 AND PUSH2 0x12F5 JUMPI PUSH1 0x40 MLOAD PUSH3 0x461BCD PUSH1 0xE5 SHL DUP2 MSTORE PUSH1 0x20 PUSH1 0x4 DUP3 ADD MSTORE PUSH1 0x16 PUSH1 0x24 DUP3 ADD MSTORE PUSH22 0x5661756C743A20696E76616C69642061646472657373 PUSH1 0x50 SHL PUSH1 0x44 DUP3 ADD MSTORE PUSH1 0x64 ADD PUSH2 0x43F JUMP JUMPDEST PUSH1 0x1 PUSH1 0x1 PUSH1 0xA0 SHL SUB DUP2 AND PUSH1 0x0 DUP2 DUP2 MSTORE PUSH1 0x4 PUSH1 0x20 MSTORE PUSH1 0x40 DUP1 DUP3 KECCAK256 DUP1 SLOAD PUSH1 0xFF NOT AND PUSH1 0x1 OR SWAP1 SSTORE MLOAD PUSH32 0xDD10D14F6AC19E913D4EDBB11FD30661531E2CCD0D23F571E9B224F001F0DD06 SWAP2 SWAP1 LOG2 POP JUMP JUMPDEST PUSH1 0x0 SLOAD PUSH1 0x1 PUSH1 0x1 PUSH1 0xA0 SHL SUB AND CALLER EQ PUSH2 0x136B JUMPI PUSH1 0x40 MLOAD PUSH3 0x461BCD PUSH1 0xE5 SHL DUP2 MSTORE PUSH1 0x4 ADD PUSH2 0x43F SWAP1 PUSH2 0x156B JUMP JUMPDEST PUSH1 0x1 PUSH1 0x1 PUSH1 0xA0 SHL SUB DUP2 AND PUSH2 0x13B8 JUMPI PUSH1 0x40 MLOAD PUSH3 0x461BCD PUSH1 0xE5 SHL DUP2 MSTORE PUSH1 0x20 PUSH1 0x4 DUP3 ADD MSTORE PUSH1 0x14 PUSH1 0x24 DUP3 ADD MSTORE PUSH20 0x2B30BAB63A1D1034B73B30B634B21037BBB732B9 PUSH1 0x61 SHL PUSH1 0x44 DUP3 ADD MSTORE PUSH1 0x64 ADD PUSH2 0x43F JUMP JUMPDEST PUSH1 0x0 DUP1 SLOAD PUSH1 0x1 PUSH1 0x1 PUSH1 0xA0 SHL SUB NOT AND PUSH1 0x1 PUSH1 0x1 PUSH1 0xA0 SHL SUB SWAP3 SWAP1 SWAP3 AND SWAP2 SWAP1 SWAP2 OR SWAP1 SSTORE JUMP JUMPDEST DUP1 CALLDATALOAD PUSH1 0x1 PUSH1 0x1 PUSH1 0xA0 SHL SUB DUP2 AND DUP2 EQ PUSH2 0x13F1 JUMPI PUSH1 0x0 DUP1 REVERT JUMPDEST SWAP2 SWAP1 POP JUMP JUMPDEST PUSH1 0x0 PUSH1 0x20 DUP3 DUP5 SUB SLT ISZERO PUSH2 0x1408 JUMPI PUSH1 0x0 DUP1 REVERT JUMPDEST PUSH2 0x11A0 DUP3 PUSH2 0x13DA JUMP JUMPDEST PUSH1 0x0 DUP1 PUSH1 0x40 DUP4 DUP6 SUB SLT ISZERO PUSH2 0x1424 JUMPI PUSH1 0x0 DUP1 REVERT JUMPDEST PUSH2 0x142D DUP4 PUSH2 0x13DA JUMP JUMPDEST SWAP5 PUSH1 0x20 SWAP4 SWAP1 SWAP4 ADD CALLDATALOAD SWAP4 POP POP POP JUMP JUMPDEST PUSH1 0x0 DUP1 PUSH1 0x0 PUSH1 0x60 DUP5 DUP7 SUB SLT ISZERO PUSH2 0x1450 JUMPI PUSH1 0x0 DUP1 REVERT JUMPDEST PUSH2 0x1459 DUP5 PUSH2 0x13DA JUMP JUMPDEST SWAP6 PUSH1 0x20 DUP6 ADD CALLDATALOAD SWAP6 POP PUSH1 0x40 SWAP1 SWAP5 ADD CALLDATALOAD SWAP4 SWAP3 POP POP POP JUMP JUMPDEST PUSH1 0x20 DUP1 DUP3 MSTORE PUSH1 0xD SWAP1 DUP3 ADD MSTORE PUSH13 0x15985D5B1D0E881C185D5CD959 PUSH1 0x9A SHL PUSH1 0x40 DUP3 ADD MSTORE PUSH1 0x60 ADD SWAP1 JUMP JUMPDEST PUSH1 0x20 DUP1 DUP3 MSTORE PUSH1 0x15 SWAP1 DUP3 ADD MSTORE PUSH21 0x15985D5B1D0E881A5B9D985B1A5908185B5BDD5B9D PUSH1 0x5A SHL PUSH1 0x40 DUP3 ADD MSTORE PUSH1 0x60 ADD SWAP1 JUMP JUMPDEST PUSH1 0x20 DUP1 DUP3 MSTORE PUSH1 0x13 SWAP1 DUP3 ADD MSTORE PUSH19 0x2B30BAB63A1D1034B73B30B634B2103AB9B2B9 PUSH1 0x69 SHL PUSH1 0x40 DUP3 ADD MSTORE PUSH1 0x60 ADD SWAP1 JUMP JUMPDEST PUSH1 0x20 DUP1 DUP3 MSTORE PUSH1 0x15 SWAP1 DUP3 ADD MSTORE PUSH21 0x15985D5B1D0E881B9BDD08185D5D1A1BDC9A5E9959 PUSH1 0x5A SHL PUSH1 0x40 DUP3 ADD MSTORE PUSH1 0x60 ADD SWAP1 JUMP JUMPDEST PUSH4 0x4E487B71 PUSH1 0xE0 SHL PUSH1 0x0 MSTORE PUSH1 0x11 PUSH1 0x4 MSTORE PUSH1 0x24 PUSH1 0x0 REVERT JUMPDEST DUP2 DUP2 SUB DUP2 DUP2 GT ISZERO PUSH2 0x101A JUMPI PUSH2 0x101A PUSH2 0x1520 JUMP JUMPDEST PUSH1 0x0 PUSH1 0x20 DUP3 DUP5 SUB SLT ISZERO PUSH2 0x155B JUMPI PUSH1 0x0 DUP1 REVERT JUMPDEST DUP2 MLOAD DUP1 ISZERO ISZERO DUP2 EQ PUSH2 0x11A0 JUMPI PUSH1 0x0 DUP1 REVERT JUMPDEST PUSH1 0x20 DUP1 DUP3 MSTORE PUSH1 0x10 SWAP1 DUP3 ADD MSTORE PUSH16 0x2B30BAB63A1D103737BA1037BBB732B9 PUSH1 0x81 SHL PUSH1 0x40 DUP3 ADD MSTORE PUSH1 0x60 ADD SWAP1 JUMP JUMPDEST DUP1 DUP3 ADD DUP3 DUP2 SLT PUSH1 0x0 DUP4 SLT DUP1 ISZERO DUP3 AND DUP3 ISZERO DUP3 AND OR ISZERO PUSH2 0x15B5 JUMPI PUSH2 0x15B5 PUSH2 0x1520 JUMP JUMPDEST POP POP SWAP3 SWAP2 POP POP JUMP JUMPDEST DUP1 DUP3 ADD DUP1 DUP3 GT ISZERO PUSH2 0x101A JUMPI PUSH2 0x101A PUSH2 0x1520 JUMP JUMPDEST DUP1 DUP3 MUL DUP2 ISZERO DUP3 DUP3 DIV DUP5 EQ OR PUSH2 0x101A JUMPI PUSH2 0x101A PUSH2 0x1520 JUMP JUMPDEST PUSH1 0x0 DUP3 PUSH2 0x1604 JUMPI PUSH4 0x4E487B71 PUSH1 0xE0 SHL PUSH1 0x0 MSTORE PUSH1 0x12 PUSH1 0x4 MSTORE PUSH1 0x24 PUSH1 0x0 REVERT JUMPDEST POP DIV SWAP1 JUMP JUMPDEST DUP2 DUP2 SUB PUSH1 0x0 DUP4 SLT DUP1 ISZERO DUP4 DUP4 SGT AND DUP4 DUP4 SLT DUP3 AND OR ISZERO PUSH2 0x1629 JUMPI PUSH2 0x1629 PUSH2 0x1520 JUMP JUMPDEST POP SWAP3 SWAP2 POP POP JUMP INVALID LOG2 PUSH5 0x6970667358 0x22 SLT KECCAK256 CALLCODE 0xDF DUP7 DUP4 ISZERO 0xE4 0x2B SDIV INVALID SELFDESTRUCT 0xC0 0xEA 0xC8 REVERT 0xBE 0xC 0xE DUP12 CHAINID PUSH13 0x1AD3AF3F96DB22C42B7DB18764 PUSH20 0x6F6C634300081400336080604052601E60035561 ADD DELEGATECALL PUSH1 0x4 DUP2 SWAP1 SSTORE PUSH1 0x5 SSTORE PUSH2 0x3E8 PUSH1 0x6 SSTORE PUSH3 0x31 PUSH8 0xDE0B6B3A7640000 PUSH3 0xF4240 PUSH3 0xFF JUMP JUMPDEST PUSH1 0x7 SSTORE PUSH3 0x4B PUSH8 0xDE0B6B3A7640000 PUSH3 0xF4240 PUSH3 0xFF JUMP JUMPDEST PUSH1 0x8 SSTORE PUSH1 0x12 DUP1 SLOAD PUSH1 0xFF NOT AND SWAP1 SSTORE CALLVALUE DUP1 ISZERO PUSH3 0x65 JUMPI PUSH1 0x0 DUP1 REVERT JUMPDEST POP PUSH1 0x40 MLOAD PUSH3 0x212B CODESIZE SUB DUP1 PUSH3 0x212B DUP4 CODECOPY DUP2 ADD PUSH1 0x40 DUP2 SWAP1 MSTORE PUSH3 0x88 SWAP2 PUSH3 0x148 JUMP JUMPDEST PUSH1 0x0 DUP1 SLOAD CALLER PUSH1 0x1 PUSH1 0x1 PUSH1 0xA0 SHL SUB NOT SWAP2 DUP3 AND OR SWAP1 SWAP2 SSTORE PUSH1 0x1 DUP1 SLOAD DUP3 AND PUSH1 0x1 PUSH1 0x1 PUSH1 0xA0 SHL SUB DUP7 DUP2 AND SWAP2 SWAP1 SWAP2 OR SWAP1 SWAP2 SSTORE PUSH1 0x2 DUP1 SLOAD SWAP1 SWAP3 AND SWAP1 DUP5 AND OR SWAP1 SSTORE PUSH1 0x7 SLOAD PUSH8 0xDE0B6B3A7640000 SWAP1 PUSH3 0xDB SWAP1 DUP4 PUSH3 0xFF JUMP JUMPDEST PUSH3 0xE7 SWAP2 SWAP1 PUSH3 0x189 JUMP JUMPDEST PUSH1 0x8 SSTORE POP POP TIMESTAMP PUSH1 0xB SSTORE POP PUSH4 0x5F5E100 PUSH1 0xA SSTORE PUSH3 0x1AC JUMP JUMPDEST DUP1 DUP3 MUL DUP2 ISZERO DUP3 DUP3 DIV DUP5 EQ OR PUSH3 0x125 JUMPI PUSH4 0x4E487B71 PUSH1 0xE0 SHL PUSH1 0x0 MSTORE PUSH1 0x11 PUSH1 0x4 MSTORE PUSH1 0x24 PUSH1 0x0 REVERT JUMPDEST SWAP3 SWAP2 POP POP JUMP JUMPDEST DUP1 MLOAD PUSH1 0x1 PUSH1 0x1 PUSH1 0xA0 SHL SUB DUP2 AND DUP2 EQ PUSH3 0x143 JUMPI PUSH1 0x0 DUP1 REVERT JUMPDEST SWAP2 SWAP1 POP JUMP JUMPDEST PUSH1 0x0 DUP1 PUSH1 0x0 PUSH1 0x60 DUP5 DUP7 SUB SLT ISZERO PUSH3 0x15E JUMPI PUSH1 0x0 DUP1 REVERT JUMPDEST PUSH3 0x169 DUP5 PUSH3 0x12B JUMP JUMPDEST SWAP3 POP PUSH3 0x179 PUSH1 0x20 DUP6 ADD PUSH3 0x12B JUMP JUMPDEST SWAP2 POP PUSH1 0x40 DUP5 ADD MLOAD SWAP1 POP SWAP3 POP SWAP3 POP SWAP3 JUMP JUMPDEST PUSH1 0x0 DUP3 PUSH3 0x1A7 JUMPI PUSH4 0x4E487B71 PUSH1 0xE0 SHL PUSH1 0x0 MSTORE PUSH1 0x12 PUSH1 0x4 MSTORE PUSH1 0x24 PUSH1 0x0 REVERT JUMPDEST POP DIV SWAP1 JUMP JUMPDEST PUSH2 0x1F6F DUP1 PUSH3 0x1BC PUSH1 0x0 CODECOPY PUSH1 0x0 RETURN INVALID PUSH1 0x80 PUSH1 0x40 MSTORE CALLVALUE DUP1 ISZERO PUSH2 0x10 JUMPI PUSH1 0x0 DUP1 REVERT JUMPDEST POP PUSH1 0x4 CALLDATASIZE LT PUSH2 0x253 JUMPI PUSH1 0x0 CALLDATALOAD PUSH1 0xE0 SHR DUP1 PUSH4 0x95082D25 GT PUSH2 0x146 JUMPI DUP1 PUSH4 0xCF1C316A GT PUSH2 0xC3 JUMPI DUP1 PUSH4 0xEAF1F1E6 GT PUSH2 0x87 JUMPI DUP1 PUSH4 0xEAF1F1E6 EQ PUSH2 0x4ED JUMPI DUP1 PUSH4 0xEDF1A21F EQ PUSH2 0x500 JUMPI DUP1 PUSH4 0xEEB07069 EQ PUSH2 0x508 JUMPI DUP1 PUSH4 0xF2FDE38B EQ PUSH2 0x51B JUMPI DUP1 PUSH4 0xF40F2A79 EQ PUSH2 0x52E JUMPI DUP1 PUSH4 0xFBFA77CF EQ PUSH2 0x538 JUMPI PUSH1 0x0 DUP1 REVERT JUMPDEST DUP1 PUSH4 0xCF1C316A EQ PUSH2 0x4AC JUMPI DUP1 PUSH4 0xD2E7B978 EQ PUSH2 0x4BF JUMPI DUP1 PUSH4 0xD97E25BC EQ PUSH2 0x4D2 JUMPI DUP1 PUSH4 0xE01DF1A8 EQ PUSH2 0x4DB JUMPI DUP1 PUSH4 0xE1F1C4A7 EQ PUSH2 0x4E4 JUMPI PUSH1 0x0 DUP1 REVERT JUMPDEST DUP1 PUSH4 0xAE43509A GT PUSH2 0x10A JUMPI DUP1 PUSH4 0xAE43509A EQ PUSH2 0x44E JUMPI DUP1 PUSH4 0xB25CDCCF EQ PUSH2 0x457 JUMPI DUP1 PUSH4 0xB35648D7 EQ PUSH2 0x46D JUMPI DUP1 PUSH4 0xB9181611 EQ PUSH2 0x480 JUMPI DUP1 PUSH4 0xBF6268F2 EQ PUSH2 0x4A3 JUMPI PUSH1 0x0 DUP1 REVERT JUMPDEST DUP1 PUSH4 0x95082D25 EQ PUSH2 0x41B JUMPI DUP1 PUSH4 0x95196F7E EQ PUSH2 0x42A JUMPI DUP1 PUSH4 0x98F89B2F EQ PUSH2 0x432 JUMPI DUP1 PUSH4 0x9B45EC97 EQ PUSH2 0x43D JUMPI DUP1 PUSH4 0xA0640C83 EQ PUSH2 0x445 JUMPI PUSH1 0x0 DUP1 REVERT JUMPDEST DUP1 PUSH4 0x55F57510 GT PUSH2 0x1D4 JUMPI DUP1 PUSH4 0x60409632 GT PUSH2 0x198 JUMPI DUP1 PUSH4 0x60409632 EQ PUSH2 0x3C4 JUMPI DUP1 PUSH4 0x7DC0D1D0 EQ PUSH2 0x3CC JUMPI DUP1 PUSH4 0x83ACB48A EQ PUSH2 0x3F7 JUMPI DUP1 PUSH4 0x8456CB59 EQ PUSH2 0x400 JUMPI DUP1 PUSH4 0x8DA5CB5B EQ PUSH2 0x408 JUMPI PUSH1 0x0 DUP1 REVERT JUMPDEST DUP1 PUSH4 0x55F57510 EQ PUSH2 0x32D JUMPI DUP1 PUSH4 0x5AF5BFD6 EQ PUSH2 0x382 JUMPI DUP1 PUSH4 0x5BF804AF EQ PUSH2 0x395 JUMPI DUP1 PUSH4 0x5C975ABB EQ PUSH2 0x39E JUMPI DUP1 PUSH4 0x5FB3B1B5 EQ PUSH2 0x3BB JUMPI PUSH1 0x0 DUP1 REVERT JUMPDEST DUP1 PUSH4 0x485D7D94 GT PUSH2 0x21B JUMPI DUP1 PUSH4 0x485D7D94 EQ PUSH2 0x2E2 JUMPI DUP1 PUSH4 0x49A65938 EQ PUSH2 0x2F5 JUMPI DUP1 PUSH4 0x53906A0F EQ PUSH2 0x2FE JUMPI DUP1 PUSH4 0x544305BF EQ PUSH2 0x311 JUMPI DUP1 PUSH4 0x55EFB287 EQ PUSH2 0x324 JUMPI PUSH1 0x0 DUP1 REVERT JUMPDEST DUP1 PUSH4 0x16C19739 EQ PUSH2 0x258 JUMPI DUP1 PUSH4 0x1EBF4EB5 EQ PUSH2 0x2A7 JUMPI DUP1 PUSH4 0x2F865568 EQ PUSH2 0x2B1 JUMPI DUP1 PUSH4 0x34C1557D EQ PUSH2 0x2C4 JUMPI DUP1 PUSH4 0x3F4BA83A EQ PUSH2 0x2DA JUMPI JUMPDEST PUSH1 0x0 DUP1 REVERT JUMPDEST PUSH2 0x26B PUSH2 0x266 CALLDATASIZE PUSH1 0x4 PUSH2 0x1C2C JUMP JUMPDEST PUSH2 0x54B JUMP JUMPDEST PUSH1 0x40 MLOAD PUSH2 0x29E SWAP2 SWAP1 DUP2 MLOAD DUP2 MSTORE PUSH1 0x20 DUP1 DUP4 ADD MLOAD SWAP1 DUP3 ADD MSTORE PUSH1 0x40 DUP1 DUP4 ADD MLOAD SWAP1 DUP3 ADD MSTORE PUSH1 0x60 SWAP2 DUP3 ADD MLOAD SWAP2 DUP2 ADD SWAP2 SWAP1 SWAP2 MSTORE PUSH1 0x80 ADD SWAP1 JUMP JUMPDEST PUSH1 0x40 MLOAD DUP1 SWAP2 SUB SWAP1 RETURN JUMPDEST PUSH2 0x2AF PUSH2 0x5C4 JUMP JUMPDEST STOP JUMPDEST PUSH2 0x2AF PUSH2 0x2BF CALLDATASIZE PUSH1 0x4 PUSH2 0x1C2C JUMP JUMPDEST PUSH2 0x73A JUMP JUMPDEST PUSH2 0x2CC PUSH1 0x1 DUP2 JUMP JUMPDEST PUSH1 0x40 MLOAD SWAP1 DUP2 MSTORE PUSH1 0x20 ADD PUSH2 0x29E JUMP JUMPDEST PUSH2 0x2AF PUSH2 0xA7F JUMP JUMPDEST PUSH2 0x2AF PUSH2 0x2F0 CALLDATASIZE PUSH1 0x4 PUSH2 0x1C2C JUMP JUMPDEST PUSH2 0xADE JUMP JUMPDEST PUSH2 0x2CC PUSH1 0x11 SLOAD DUP2 JUMP JUMPDEST PUSH2 0x2AF PUSH2 0x30C CALLDATASIZE PUSH1 0x4 PUSH2 0x1C5C JUMP JUMPDEST PUSH2 0xB51 JUMP JUMPDEST PUSH2 0x2CC PUSH2 0x31F CALLDATASIZE PUSH1 0x4 PUSH2 0x1C2C JUMP JUMPDEST PUSH2 0xC3C JUMP JUMPDEST PUSH2 0x2CC PUSH2 0xE10 DUP2 JUMP JUMPDEST PUSH2 0x362 PUSH2 0x33B CALLDATASIZE PUSH1 0x4 PUSH2 0x1C2C JUMP JUMPDEST PUSH1 0xD PUSH1 0x20 MSTORE PUSH1 0x0 SWAP1 DUP2 MSTORE PUSH1 0x40 SWAP1 KECCAK256 DUP1 SLOAD PUSH1 0x1 DUP3 ADD SLOAD PUSH1 0x2 DUP4 ADD SLOAD PUSH1 0x3 SWAP1 SWAP4 ADD SLOAD SWAP2 SWAP3 SWAP1 SWAP2 DUP5 JUMP JUMPDEST PUSH1 0x40 DUP1 MLOAD SWAP5 DUP6 MSTORE PUSH1 0x20 DUP6 ADD SWAP4 SWAP1 SWAP4 MSTORE SWAP2 DUP4 ADD MSTORE PUSH1 0x60 DUP3 ADD MSTORE PUSH1 0x80 ADD PUSH2 0x29E JUMP JUMPDEST PUSH2 0x2AF PUSH2 0x390 CALLDATASIZE PUSH1 0x4 PUSH2 0x1C5C JUMP JUMPDEST PUSH2 0xCEA JUMP JUMPDEST PUSH2 0x2CC PUSH1 0xF SLOAD DUP2 JUMP JUMPDEST PUSH1 0x12 SLOAD PUSH2 0x3AB SWAP1 PUSH1 0xFF AND DUP2 JUMP JUMPDEST PUSH1 0x40 MLOAD SWAP1 ISZERO ISZERO DUP2 MSTORE PUSH1 0x20 ADD PUSH2 0x29E JUMP JUMPDEST PUSH2 0x2CC PUSH1 0x4 SLOAD DUP2 JUMP JUMPDEST PUSH2 0x2CC PUSH2 0xD80 JUMP JUMPDEST PUSH1 0x2 SLOAD PUSH2 0x3DF SWAP1 PUSH1 0x1 PUSH1 0x1 PUSH1 0xA0 SHL SUB AND DUP2 JUMP JUMPDEST PUSH1 0x40 MLOAD PUSH1 0x1 PUSH1 0x1 PUSH1 0xA0 SHL SUB SWAP1 SWAP2 AND DUP2 MSTORE PUSH1 0x20 ADD PUSH2 0x29E JUMP JUMPDEST PUSH2 0x2CC PUSH1 0x5 SLOAD DUP2 JUMP JUMPDEST PUSH2 0x2AF PUSH2 0xDAA JUMP JUMPDEST PUSH1 0x0 SLOAD PUSH2 0x3DF SWAP1 PUSH1 0x1 PUSH1 0x1 PUSH1 0xA0 SHL SUB AND DUP2 JUMP JUMPDEST PUSH2 0x2CC PUSH8 0xDE0B6B3A7640000 DUP2 JUMP JUMPDEST PUSH1 0x9 SLOAD PUSH2 0x2CC JUMP JUMPDEST PUSH2 0x2CC PUSH4 0x5F5E100 DUP2 JUMP JUMPDEST PUSH2 0x2CC PUSH1 0x64 DUP2 JUMP JUMPDEST PUSH2 0x2CC PUSH1 0x8 SLOAD DUP2 JUMP JUMPDEST PUSH2 0x2CC PUSH1 0x7 SLOAD DUP2 JUMP JUMPDEST PUSH1 0x9 SLOAD PUSH1 0xA SLOAD PUSH1 0xB SLOAD PUSH1 0xC SLOAD PUSH2 0x362 SWAP4 SWAP3 SWAP2 SWAP1 DUP5 JUMP JUMPDEST PUSH2 0x2CC PUSH2 0x47B CALLDATASIZE PUSH1 0x4 PUSH2 0x1C75 JUMP JUMPDEST PUSH2 0xE0C JUMP JUMPDEST PUSH2 0x3AB PUSH2 0x48E CALLDATASIZE PUSH1 0x4 PUSH2 0x1C2C JUMP JUMPDEST PUSH1 0xE PUSH1 0x20 MSTORE PUSH1 0x0 SWAP1 DUP2 MSTORE PUSH1 0x40 SWAP1 KECCAK256 SLOAD PUSH1 0xFF AND DUP2 JUMP JUMPDEST PUSH2 0x2CC PUSH1 0x10 SLOAD DUP2 JUMP JUMPDEST PUSH2 0x2AF PUSH2 0x4BA CALLDATASIZE PUSH1 0x4 PUSH2 0x1C2C JUMP JUMPDEST PUSH2 0x12B9 JUMP JUMPDEST PUSH2 0x2CC PUSH2 0x4CD CALLDATASIZE PUSH1 0x4 PUSH2 0x1CB2 JUMP JUMPDEST PUSH2 0x137D JUMP JUMPDEST PUSH2 0x2CC PUSH1 0x6 SLOAD DUP2 JUMP JUMPDEST PUSH2 0x2CC PUSH1 0x3 SLOAD DUP2 JUMP JUMPDEST PUSH2 0x2CC PUSH2 0x2710 DUP2 JUMP JUMPDEST PUSH2 0x2CC PUSH2 0x4FB CALLDATASIZE PUSH1 0x4 PUSH2 0x1CE2 JUMP JUMPDEST PUSH2 0x142E JUMP JUMPDEST PUSH2 0x26B PUSH2 0x1909 JUMP JUMPDEST PUSH2 0x2AF PUSH2 0x516 CALLDATASIZE PUSH1 0x4 PUSH2 0x1C5C JUMP JUMPDEST PUSH2 0x1961 JUMP JUMPDEST PUSH2 0x2AF PUSH2 0x529 CALLDATASIZE PUSH1 0x4 PUSH2 0x1C2C JUMP JUMPDEST PUSH2 0x1A2F JUMP JUMPDEST PUSH2 0x2CC PUSH3 0xF4240 DUP2 JUMP JUMPDEST PUSH1 0x1 SLOAD PUSH2 0x3DF SWAP1 PUSH1 0x1 PUSH1 0x1 PUSH1 0xA0 SHL SUB AND DUP2 JUMP JUMPDEST PUSH2 0x576 PUSH1 0x40 MLOAD DUP1 PUSH1 0x80 ADD PUSH1 0x40 MSTORE DUP1 PUSH1 0x0 DUP2 MSTORE PUSH1 0x20 ADD PUSH1 0x0 DUP2 MSTORE PUSH1 0x20 ADD PUSH1 0x0 DUP2 MSTORE PUSH1 0x20 ADD PUSH1 0x0 DUP2 MSTORE POP SWAP1 JUMP JUMPDEST POP PUSH1 0x1 PUSH1 0x1 PUSH1 0xA0 SHL SUB AND PUSH1 0x0 SWAP1 DUP2 MSTORE PUSH1 0xD PUSH1 0x20 SWAP1 DUP2 MSTORE PUSH1 0x40 SWAP2 DUP3 SWAP1 KECCAK256 DUP3 MLOAD PUSH1 0x80 DUP2 ADD DUP5 MSTORE DUP2 SLOAD DUP2 MSTORE PUSH1 0x1 DUP3 ADD SLOAD SWAP3 DUP2 ADD SWAP3 SWAP1 SWAP3 MSTORE PUSH1 0x2 DUP2 ADD SLOAD SWAP3 DUP3 ADD SWAP3 SWAP1 SWAP3 MSTORE PUSH1 0x3 SWAP1 SWAP2 ADD SLOAD PUSH1 0x60 DUP3 ADD MSTORE SWAP1 JUMP JUMPDEST PUSH1 0xB SLOAD PUSH2 0x5D4 SWAP1 PUSH2 0xE10 SWAP1 PUSH2 0x1D40 JUMP JUMPDEST TIMESTAMP LT ISZERO PUSH2 0x5DD JUMPI JUMP JUMPDEST PUSH1 0x0 PUSH2 0x5E7 PUSH2 0xD80 JUMP JUMPDEST SWAP1 POP PUSH1 0x0 PUSH1 0x2 PUSH1 0x0 SWAP1 SLOAD SWAP1 PUSH2 0x100 EXP SWAP1 DIV PUSH1 0x1 PUSH1 0x1 PUSH1 0xA0 SHL SUB AND PUSH1 0x1 PUSH1 0x1 PUSH1 0xA0 SHL SUB AND PUSH4 0x98D5FDCA PUSH1 0x40 MLOAD DUP2 PUSH4 0xFFFFFFFF AND PUSH1 0xE0 SHL DUP2 MSTORE PUSH1 0x4 ADD PUSH1 0x20 PUSH1 0x40 MLOAD DUP1 DUP4 SUB DUP2 DUP7 GAS STATICCALL ISZERO DUP1 ISZERO PUSH2 0x63E JUMPI RETURNDATASIZE PUSH1 0x0 DUP1 RETURNDATACOPY RETURNDATASIZE PUSH1 0x0 REVERT JUMPDEST POP POP POP POP PUSH1 0x40 MLOAD RETURNDATASIZE PUSH1 0x1F NOT PUSH1 0x1F DUP3 ADD AND DUP3 ADD DUP1 PUSH1 0x40 MSTORE POP DUP2 ADD SWAP1 PUSH2 0x662 SWAP2 SWAP1 PUSH2 0x1D53 JUMP JUMPDEST SWAP1 POP PUSH1 0x0 PUSH4 0x5F5E100 DUP3 PUSH2 0x676 DUP3 DUP7 PUSH2 0x1D6C JUMP JUMPDEST PUSH2 0x680 SWAP2 SWAP1 PUSH2 0x1D99 JUMP JUMPDEST PUSH2 0x68A SWAP2 SWAP1 PUSH2 0x1DAD JUMP JUMPDEST SWAP1 POP PUSH1 0x0 PUSH2 0x699 PUSH1 0x18 DUP4 PUSH2 0x1DD4 JUMP JUMPDEST SWAP1 POP PUSH3 0xF4240 DUP2 SGT ISZERO PUSH2 0x6B0 JUMPI POP PUSH3 0xF4240 PUSH2 0x6D2 JUMP JUMPDEST PUSH2 0x6BC PUSH3 0xF4240 PUSH2 0x1E02 JUMP JUMPDEST DUP2 SLT ISZERO PUSH2 0x6D2 JUMPI PUSH2 0x6CF PUSH3 0xF4240 PUSH2 0x1E02 JUMP JUMPDEST SWAP1 POP JUMPDEST PUSH1 0x9 DUP2 SWAP1 SSTORE PUSH1 0xC DUP3 SWAP1 SSTORE TIMESTAMP PUSH1 0xB SSTORE PUSH1 0xA SLOAD PUSH2 0x6EE SWAP1 DUP3 SWAP1 PUSH2 0x1E1E JUMP JUMPDEST PUSH1 0xA DUP2 SWAP1 SSTORE PUSH1 0x40 DUP1 MLOAD DUP4 DUP2 MSTORE PUSH1 0x20 DUP2 ADD SWAP3 SWAP1 SWAP3 MSTORE DUP2 ADD DUP4 SWAP1 MSTORE PUSH32 0xD0794AC40E87E336E6E652E1EEF2CDB3793D91F30DCC09A45D18DB669A686B94 SWAP1 PUSH1 0x60 ADD PUSH1 0x40 MLOAD DUP1 SWAP2 SUB SWAP1 LOG1 POP POP POP POP JUMP JUMPDEST PUSH1 0x12 SLOAD PUSH1 0xFF AND ISZERO PUSH2 0x766 JUMPI PUSH1 0x40 MLOAD PUSH3 0x461BCD PUSH1 0xE5 SHL DUP2 MSTORE PUSH1 0x4 ADD PUSH2 0x75D SWAP1 PUSH2 0x1E46 JUMP JUMPDEST PUSH1 0x40 MLOAD DUP1 SWAP2 SUB SWAP1 REVERT JUMPDEST DUP1 PUSH1 0x1 PUSH1 0x1 PUSH1 0xA0 SHL SUB DUP2 AND PUSH2 0x7B2 JUMPI PUSH1 0x40 MLOAD PUSH3 0x461BCD PUSH1 0xE5 SHL DUP2 MSTORE PUSH1 0x20 PUSH1 0x4 DUP3 ADD MSTORE PUSH1 0x12 PUSH1 0x24 DUP3 ADD MSTORE PUSH18 0x3B20A6A69D1034B73B30B634B2103AB9B2B9 PUSH1 0x71 SHL PUSH1 0x44 DUP3 ADD MSTORE PUSH1 0x64 ADD PUSH2 0x75D JUMP JUMPDEST PUSH1 0x1 SLOAD PUSH1 0x5 SLOAD PUSH1 0x40 MLOAD PUSH4 0x59CFFB9B PUSH1 0xE1 SHL DUP2 MSTORE PUSH1 0x1 PUSH1 0x1 PUSH1 0xA0 SHL SUB DUP6 DUP2 AND PUSH1 0x4 DUP4 ADD MSTORE PUSH1 0x24 DUP3 ADD SWAP3 SWAP1 SWAP3 MSTORE SWAP2 AND SWAP1 PUSH4 0xB39FF736 SWAP1 PUSH1 0x44 ADD PUSH1 0x20 PUSH1 0x40 MLOAD DUP1 DUP4 SUB DUP2 DUP7 GAS STATICCALL ISZERO DUP1 ISZERO PUSH2 0x806 JUMPI RETURNDATASIZE PUSH1 0x0 DUP1 RETURNDATACOPY RETURNDATASIZE PUSH1 0x0 REVERT JUMPDEST POP POP POP POP PUSH1 0x40 MLOAD RETURNDATASIZE PUSH1 0x1F NOT PUSH1 0x1F DUP3 ADD AND DUP3 ADD DUP1 PUSH1 0x40 MSTORE POP DUP2 ADD SWAP1 PUSH2 0x82A SWAP2 SWAP1 PUSH2 0x1E6C JUMP JUMPDEST PUSH2 0x86F JUMPI PUSH1 0x40 MLOAD PUSH3 0x461BCD PUSH1 0xE5 SHL DUP2 MSTORE PUSH1 0x20 PUSH1 0x4 DUP3 ADD MSTORE PUSH1 0x16 PUSH1 0x24 DUP3 ADD MSTORE PUSH22 0x76414D4D3A2063616E6E6F74206C6971756964617465 PUSH1 0x50 SHL PUSH1 0x44 DUP3 ADD MSTORE PUSH1 0x64 ADD PUSH2 0x75D JUMP JUMPDEST PUSH1 0x1 PUSH1 0x1 PUSH1 0xA0 SHL SUB DUP3 AND PUSH1 0x0 SWAP1 DUP2 MSTORE PUSH1 0xD PUSH1 0x20 MSTORE PUSH1 0x40 DUP2 KECCAK256 DUP1 SLOAD SWAP1 SWAP2 SUB PUSH2 0x8CC JUMPI PUSH1 0x40 MLOAD PUSH3 0x461BCD PUSH1 0xE5 SHL DUP2 MSTORE PUSH1 0x20 PUSH1 0x4 DUP3 ADD MSTORE PUSH1 0x11 PUSH1 0x24 DUP3 ADD MSTORE PUSH17 0x3B20A6A69D103737903837B9B4BA34B7B7 PUSH1 0x79 SHL PUSH1 0x44 DUP3 ADD MSTORE PUSH1 0x64 ADD PUSH2 0x75D JUMP JUMPDEST DUP1 SLOAD PUSH1 0x0 SWAP1 DUP2 SLT SWAP1 DUP2 PUSH2 0x8E9 JUMPI DUP3 SLOAD PUSH2 0x8E4 SWAP1 PUSH2 0x1E02 JUMP JUMPDEST PUSH2 0x8EC JUMP JUMPDEST DUP3 SLOAD JUMPDEST SWAP1 POP PUSH2 0x8F6 PUSH2 0x5C4 JUMP JUMPDEST PUSH2 0x8FF DUP6 PUSH2 0x1AC7 JUMP JUMPDEST PUSH1 0x0 PUSH2 0x2710 PUSH1 0x4 SLOAD DUP4 PUSH2 0x912 SWAP2 SWAP1 PUSH2 0x1D6C JUMP JUMPDEST PUSH2 0x91C SWAP2 SWAP1 PUSH2 0x1D99 JUMP JUMPDEST SWAP1 POP DUP3 ISZERO PUSH2 0x95A JUMPI DUP2 PUSH1 0x8 PUSH1 0x0 DUP3 DUP3 SLOAD PUSH2 0x936 SWAP2 SWAP1 PUSH2 0x1E89 JUMP JUMPDEST SWAP3 POP POP DUP2 SWAP1 SSTORE POP DUP2 PUSH1 0xF PUSH1 0x0 DUP3 DUP3 SLOAD PUSH2 0x94F SWAP2 SWAP1 PUSH2 0x1DAD JUMP JUMPDEST SWAP1 SWAP2 SSTORE POP PUSH2 0x98B SWAP1 POP JUMP JUMPDEST DUP2 PUSH1 0x7 PUSH1 0x0 DUP3 DUP3 SLOAD PUSH2 0x96C SWAP2 SWAP1 PUSH2 0x1E89 JUMP JUMPDEST SWAP3 POP POP DUP2 SWAP1 SSTORE POP DUP2 PUSH1 0x10 PUSH1 0x0 DUP3 DUP3 SLOAD PUSH2 0x985 SWAP2 SWAP1 PUSH2 0x1DAD JUMP JUMPDEST SWAP1 SWAP2 SSTORE POP POP JUMPDEST PUSH1 0x0 PUSH2 0x995 PUSH2 0xD80 JUMP JUMPDEST PUSH1 0x1 PUSH1 0x1 PUSH1 0xA0 SHL SUB DUP9 DUP2 AND PUSH1 0x0 DUP2 DUP2 MSTORE PUSH1 0xD PUSH1 0x20 MSTORE PUSH1 0x40 DUP1 DUP3 KECCAK256 DUP3 DUP2 SSTORE PUSH1 0x1 DUP1 DUP3 ADD DUP5 SWAP1 SSTORE PUSH1 0x2 DUP3 ADD DUP5 SWAP1 SSTORE PUSH1 0x3 SWAP1 SWAP2 ADD SWAP3 SWAP1 SWAP3 SSTORE SWAP1 SLOAD SWAP1 MLOAD PUSH4 0xBCBAF487 PUSH1 0xE0 SHL DUP2 MSTORE PUSH1 0x4 DUP2 ADD SWAP3 SWAP1 SWAP3 MSTORE PUSH1 0x24 DUP3 ADD DUP7 SWAP1 MSTORE SWAP3 SWAP4 POP SWAP2 AND SWAP1 PUSH4 0xBCBAF487 SWAP1 PUSH1 0x44 ADD PUSH1 0x0 PUSH1 0x40 MLOAD DUP1 DUP4 SUB DUP2 PUSH1 0x0 DUP8 DUP1 EXTCODESIZE ISZERO DUP1 ISZERO PUSH2 0xA10 JUMPI PUSH1 0x0 DUP1 REVERT JUMPDEST POP GAS CALL ISZERO DUP1 ISZERO PUSH2 0xA24 JUMPI RETURNDATASIZE PUSH1 0x0 DUP1 RETURNDATACOPY RETURNDATASIZE PUSH1 0x0 REVERT JUMPDEST POP POP PUSH1 0x40 DUP1 MLOAD DUP7 DUP2 MSTORE PUSH1 0x20 DUP2 ADD DUP6 SWAP1 MSTORE SWAP1 DUP2 ADD DUP6 SWAP1 MSTORE CALLER SWAP3 POP PUSH1 0x1 PUSH1 0x1 PUSH1 0xA0 SHL SUB DUP11 AND SWAP2 POP PUSH32 0x3ECBB371880C45545C63AC02E2364778AC379D2C14519773964068EF51BB454A SWAP1 PUSH1 0x60 ADD PUSH1 0x40 MLOAD DUP1 SWAP2 SUB SWAP1 LOG3 POP POP POP POP POP POP POP JUMP JUMPDEST PUSH1 0x0 SLOAD PUSH1 0x1 PUSH1 0x1 PUSH1 0xA0 SHL SUB AND CALLER EQ PUSH2 0xAA9 JUMPI PUSH1 0x40 MLOAD PUSH3 0x461BCD PUSH1 0xE5 SHL DUP2 MSTORE PUSH1 0x4 ADD PUSH2 0x75D SWAP1 PUSH2 0x1E9C JUMP JUMPDEST PUSH1 0x12 DUP1 SLOAD PUSH1 0xFF NOT AND SWAP1 SSTORE PUSH1 0x40 MLOAD PUSH32 0xA45F47FDEA8A1EFDD9029A5691C7F759C32B7C698632B563573E155625D16933 SWAP1 PUSH1 0x0 SWAP1 LOG1 JUMP JUMPDEST PUSH1 0x0 SLOAD PUSH1 0x1 PUSH1 0x1 PUSH1 0xA0 SHL SUB AND CALLER EQ PUSH2 0xB08 JUMPI PUSH1 0x40 MLOAD PUSH3 0x461BCD PUSH1 0xE5 SHL DUP2 MSTORE PUSH1 0x4 ADD PUSH2 0x75D SWAP1 PUSH2 0x1E9C JUMP JUMPDEST PUSH1 0x1 PUSH1 0x1 PUSH1 0xA0 SHL SUB DUP2 AND PUSH1 0x0 DUP2 DUP2 MSTORE PUSH1 0xE PUSH1 0x20 MSTORE PUSH1 0x40 DUP1 DUP3 KECCAK256 DUP1 SLOAD PUSH1 0xFF NOT AND SWAP1 SSTORE MLOAD PUSH32 0xFAFD0343E6C6F6985727574866DA48938C918559EB9521CF9CC0D317EA0F7B4 SWAP2 SWAP1 LOG2 POP JUMP JUMPDEST PUSH1 0x0 SLOAD PUSH1 0x1 PUSH1 0x1 PUSH1 0xA0 SHL SUB AND CALLER EQ PUSH2 0xB7B JUMPI PUSH1 0x40 MLOAD PUSH3 0x461BCD PUSH1 0xE5 SHL DUP2 MSTORE PUSH1 0x4 ADD PUSH2 0x75D SWAP1 PUSH2 0x1E9C JUMP JUMPDEST PUSH1 0x64 DUP2 LT ISZERO DUP1 ISZERO PUSH2 0xB8E JUMPI POP PUSH2 0x7D0 DUP2 GT ISZERO JUMPDEST PUSH2 0xBD0 JUMPI PUSH1 0x40 MLOAD PUSH3 0x461BCD PUSH1 0xE5 SHL DUP2 MSTORE PUSH1 0x20 PUSH1 0x4 DUP3 ADD MSTORE PUSH1 0x13 PUSH1 0x24 DUP3 ADD MSTORE PUSH19 0x76414D4D3A20696E76616C696420726174696F PUSH1 0x68 SHL PUSH1 0x44 DUP3 ADD MSTORE PUSH1 0x64 ADD PUSH2 0x75D JUMP JUMPDEST PUSH1 0x5 DUP2 SWAP1 SSTORE PUSH1 0x40 DUP1 MLOAD DUP2 DUP2 MSTORE PUSH1 0x16 SWAP2 DUP2 ADD SWAP2 SWAP1 SWAP2 MSTORE PUSH22 0x6D61696E74656E616E63654D617267696E526174696F PUSH1 0x50 SHL PUSH1 0x60 DUP3 ADD MSTORE PUSH1 0x20 DUP2 ADD DUP3 SWAP1 MSTORE PUSH32 0x952177133A28EEA5034C93C6C70C1A8D223DA94FAAA45DA8412C3C791111137F SWAP1 PUSH1 0x80 ADD JUMPDEST PUSH1 0x40 MLOAD DUP1 SWAP2 SUB SWAP1 LOG1 POP JUMP JUMPDEST PUSH1 0x1 PUSH1 0x1 PUSH1 0xA0 SHL SUB DUP2 AND PUSH1 0x0 SWAP1 DUP2 MSTORE PUSH1 0xD PUSH1 0x20 MSTORE PUSH1 0x40 DUP2 KECCAK256 DUP1 SLOAD DUP3 SUB PUSH2 0xC65 JUMPI POP PUSH1 0x0 SWAP3 SWAP2 POP POP JUMP JUMPDEST PUSH1 0x0 PUSH2 0xC6F PUSH2 0xD80 JUMP JUMPDEST DUP3 SLOAD SWAP1 SWAP2 POP PUSH1 0x0 SWAP1 DUP2 SLT SWAP1 DUP2 PUSH2 0xC8F JUMPI DUP4 SLOAD PUSH2 0xC8A SWAP1 PUSH2 0x1E02 JUMP JUMPDEST PUSH2 0xC92 JUMP JUMPDEST DUP4 SLOAD JUMPDEST SWAP1 POP DUP2 ISZERO PUSH2 0xCD1 JUMPI PUSH8 0xDE0B6B3A7640000 DUP5 PUSH1 0x1 ADD SLOAD DUP5 PUSH2 0xCB3 SWAP2 SWAP1 PUSH2 0x1E89 JUMP JUMPDEST PUSH2 0xCBD SWAP1 DUP4 PUSH2 0x1D6C JUMP JUMPDEST PUSH2 0xCC7 SWAP2 SWAP1 PUSH2 0x1D99 JUMP JUMPDEST SWAP7 SWAP6 POP POP POP POP POP POP JUMP JUMPDEST PUSH8 0xDE0B6B3A7640000 DUP4 DUP6 PUSH1 0x1 ADD SLOAD PUSH2 0xCB3 SWAP2 SWAP1 PUSH2 0x1E89 JUMP JUMPDEST PUSH1 0x0 SLOAD PUSH1 0x1 PUSH1 0x1 PUSH1 0xA0 SHL SUB AND CALLER EQ PUSH2 0xD14 JUMPI PUSH1 0x40 MLOAD PUSH3 0x461BCD PUSH1 0xE5 SHL DUP2 MSTORE PUSH1 0x4 ADD PUSH2 0x75D SWAP1 PUSH2 0x1E9C JUMP JUMPDEST PUSH1 0x11 SLOAD DUP2 GT ISZERO PUSH2 0xD66 JUMPI PUSH1 0x40 MLOAD PUSH3 0x461BCD PUSH1 0xE5 SHL DUP2 MSTORE PUSH1 0x20 PUSH1 0x4 DUP3 ADD MSTORE PUSH1 0x17 PUSH1 0x24 DUP3 ADD MSTORE PUSH32 0x76414D4D3A20696E73756666696369656E742066656573000000000000000000 PUSH1 0x44 DUP3 ADD MSTORE PUSH1 0x64 ADD PUSH2 0x75D JUMP JUMPDEST DUP1 PUSH1 0x11 PUSH1 0x0 DUP3 DUP3 SLOAD PUSH2 0xD78 SWAP2 SWAP1 PUSH2 0x1E89 JUMP JUMPDEST SWAP1 SWAP2 SSTORE POP POP POP JUMP JUMPDEST PUSH1 0x0 PUSH1 0x7 SLOAD PUSH8 0xDE0B6B3A7640000 PUSH1 0x8 SLOAD PUSH2 0xD9B SWAP2 SWAP1 PUSH2 0x1D6C JUMP JUMPDEST PUSH2 0xDA5 SWAP2 SWAP1 PUSH2 0x1D99 JUMP JUMPDEST SWAP1 POP SWAP1 JUMP JUMPDEST PUSH1 0x0 SLOAD PUSH1 0x1 PUSH1 0x1 PUSH1 0xA0 SHL SUB AND CALLER EQ PUSH2 0xDD4 JUMPI PUSH1 0x40 MLOAD PUSH3 0x461BCD PUSH1 0xE5 SHL DUP2 MSTORE PUSH1 0x4 ADD PUSH2 0x75D SWAP1 PUSH2 0x1E9C JUMP JUMPDEST PUSH1 0x12 DUP1 SLOAD PUSH1 0xFF NOT AND PUSH1 0x1 OR SWAP1 SSTORE PUSH1 0x40 MLOAD PUSH32 0x9E87FAC88FF661F02D44F95383C817FECE4BCE600A3DAB7A54406878B965E752 SWAP1 PUSH1 0x0 SWAP1 LOG1 JUMP JUMPDEST PUSH1 0x12 SLOAD PUSH1 0x0 SWAP1 PUSH1 0xFF AND ISZERO PUSH2 0xE32 JUMPI PUSH1 0x40 MLOAD PUSH3 0x461BCD PUSH1 0xE5 SHL DUP2 MSTORE PUSH1 0x4 ADD PUSH2 0x75D SWAP1 PUSH2 0x1E46 JUMP JUMPDEST CALLER PUSH1 0x0 SWAP1 DUP2 MSTORE PUSH1 0xD PUSH1 0x20 MSTORE PUSH1 0x40 DUP2 KECCAK256 DUP1 SLOAD SWAP1 SWAP2 SUB PUSH2 0xE86 JUMPI PUSH1 0x40 MLOAD PUSH3 0x461BCD PUSH1 0xE5 SHL DUP2 MSTORE PUSH1 0x20 PUSH1 0x4 DUP3 ADD MSTORE PUSH1 0x11 PUSH1 0x24 DUP3 ADD MSTORE PUSH17 0x3B20A6A69D103737903837B9B4BA34B7B7 PUSH1 0x79 SHL PUSH1 0x44 DUP3 ADD MSTORE PUSH1 0x64 ADD PUSH2 0x75D JUMP JUMPDEST DUP1 SLOAD PUSH1 0x0 SWAP1 DUP2 SLT SWAP1 DUP2 PUSH2 0xEA3 JUMPI DUP3 SLOAD PUSH2 0xE9E SWAP1 PUSH2 0x1E02 JUMP JUMPDEST PUSH2 0xEA6 JUMP JUMPDEST DUP3 SLOAD JUMPDEST SWAP1 POP DUP1 DUP8 GT ISZERO PUSH2 0xEED JUMPI PUSH1 0x40 MLOAD PUSH3 0x461BCD PUSH1 0xE5 SHL DUP2 MSTORE PUSH1 0x20 PUSH1 0x4 DUP3 ADD MSTORE PUSH1 0x12 PUSH1 0x24 DUP3 ADD MSTORE PUSH18 0x76414D4D3A20696E76616C69642073697A65 PUSH1 0x70 SHL PUSH1 0x44 DUP3 ADD MSTORE PUSH1 0x64 ADD PUSH2 0x75D JUMP JUMPDEST PUSH2 0xEF5 PUSH2 0x5C4 JUMP JUMPDEST PUSH2 0xEFE CALLER PUSH2 0x1AC7 JUMP JUMPDEST PUSH1 0x0 PUSH2 0xF08 PUSH2 0xD80 JUMP JUMPDEST SWAP1 POP DUP7 DUP2 LT ISZERO DUP1 ISZERO PUSH2 0xF1A JUMPI POP DUP6 DUP2 GT ISZERO JUMPDEST PUSH2 0xF5D JUMPI PUSH1 0x40 MLOAD PUSH3 0x461BCD PUSH1 0xE5 SHL DUP2 MSTORE PUSH1 0x20 PUSH1 0x4 DUP3 ADD MSTORE PUSH1 0x14 PUSH1 0x24 DUP3 ADD MSTORE PUSH20 0x76414D4D3A20707269636520736C697070616765 PUSH1 0x60 SHL PUSH1 0x44 DUP3 ADD MSTORE PUSH1 0x64 ADD PUSH2 0x75D JUMP JUMPDEST DUP3 ISZERO PUSH2 0xF97 JUMPI PUSH8 0xDE0B6B3A7640000 DUP5 PUSH1 0x1 ADD SLOAD DUP3 PUSH2 0xF7C SWAP2 SWAP1 PUSH2 0x1E89 JUMP JUMPDEST PUSH2 0xF86 SWAP1 DUP11 PUSH2 0x1D6C JUMP JUMPDEST PUSH2 0xF90 SWAP2 SWAP1 PUSH2 0x1D99 JUMP JUMPDEST SWAP5 POP PUSH2 0xFC7 JUMP JUMPDEST PUSH8 0xDE0B6B3A7640000 DUP2 DUP6 PUSH1 0x1 ADD SLOAD PUSH2 0xFB0 SWAP2 SWAP1 PUSH2 0x1E89 JUMP JUMPDEST PUSH2 0xFBA SWAP1 DUP11 PUSH2 0x1D6C JUMP JUMPDEST PUSH2 0xFC4 SWAP2 SWAP1 PUSH2 0x1D99 JUMP JUMPDEST SWAP5 POP JUMPDEST PUSH1 0x0 PUSH2 0x2710 PUSH1 0x3 SLOAD DUP11 PUSH2 0xFDA SWAP2 SWAP1 PUSH2 0x1D6C JUMP JUMPDEST PUSH2 0xFE4 SWAP2 SWAP1 PUSH2 0x1D99 JUMP JUMPDEST SWAP1 POP DUP4 ISZERO PUSH2 0x1022 JUMPI DUP9 PUSH1 0x8 PUSH1 0x0 DUP3 DUP3 SLOAD PUSH2 0xFFE SWAP2 SWAP1 PUSH2 0x1E89 JUMP JUMPDEST SWAP3 POP POP DUP2 SWAP1 SSTORE POP DUP9 PUSH1 0xF PUSH1 0x0 DUP3 DUP3 SLOAD PUSH2 0x1017 SWAP2 SWAP1 PUSH2 0x1DAD JUMP JUMPDEST SWAP1 SWAP2 SSTORE POP PUSH2 0x1053 SWAP1 POP JUMP JUMPDEST DUP9 PUSH1 0x7 PUSH1 0x0 DUP3 DUP3 SLOAD PUSH2 0x1034 SWAP2 SWAP1 PUSH2 0x1E89 JUMP JUMPDEST SWAP3 POP POP DUP2 SWAP1 SSTORE POP DUP9 PUSH1 0x10 PUSH1 0x0 DUP3 DUP3 SLOAD PUSH2 0x104D SWAP2 SWAP1 PUSH2 0x1DAD JUMP JUMPDEST SWAP1 SWAP2 SSTORE POP POP JUMPDEST DUP3 DUP10 SUB PUSH2 0x1083 JUMPI CALLER PUSH1 0x0 SWAP1 DUP2 MSTORE PUSH1 0xD PUSH1 0x20 MSTORE PUSH1 0x40 DUP2 KECCAK256 DUP2 DUP2 SSTORE PUSH1 0x1 DUP2 ADD DUP3 SWAP1 SSTORE PUSH1 0x2 DUP2 ADD DUP3 SWAP1 SSTORE PUSH1 0x3 ADD SSTORE PUSH2 0x10B0 JUMP JUMPDEST DUP4 PUSH2 0x109A JUMPI DUP5 SLOAD PUSH2 0x1095 SWAP1 DUP11 SWAP1 PUSH2 0x1E1E JUMP JUMPDEST PUSH2 0x10A7 JUMP JUMPDEST DUP5 SLOAD PUSH2 0x10A7 SWAP1 DUP11 SWAP1 PUSH2 0x1DAD JUMP JUMPDEST DUP6 SSTORE TIMESTAMP PUSH1 0x3 DUP7 ADD SSTORE JUMPDEST PUSH1 0x1 SLOAD PUSH1 0x1 PUSH1 0x1 PUSH1 0xA0 SHL SUB AND PUSH4 0xCB625680 CALLER PUSH2 0x10CC DUP5 DUP11 PUSH2 0x1DAD JUMP JUMPDEST PUSH1 0x40 MLOAD PUSH1 0x1 PUSH1 0x1 PUSH1 0xE0 SHL SUB NOT PUSH1 0xE0 DUP6 SWAP1 SHL AND DUP2 MSTORE PUSH1 0x1 PUSH1 0x1 PUSH1 0xA0 SHL SUB SWAP1 SWAP3 AND PUSH1 0x4 DUP4 ADD MSTORE PUSH1 0x24 DUP3 ADD MSTORE PUSH1 0x44 ADD PUSH1 0x0 PUSH1 0x40 MLOAD DUP1 DUP4 SUB DUP2 PUSH1 0x0 DUP8 DUP1 EXTCODESIZE ISZERO DUP1 ISZERO PUSH2 0x1112 JUMPI PUSH1 0x0 DUP1 REVERT JUMPDEST POP GAS CALL ISZERO DUP1 ISZERO PUSH2 0x1126 JUMPI RETURNDATASIZE PUSH1 0x0 DUP1 RETURNDATACOPY RETURNDATASIZE PUSH1 0x0 REVERT JUMPDEST POP POP PUSH1 0x1 SLOAD PUSH1 0x40 MLOAD PUSH3 0xAF059 PUSH1 0xE2 SHL DUP2 MSTORE CALLER PUSH1 0x4 DUP3 ADD MSTORE PUSH1 0x0 SWAP4 POP DUP7 SWAP3 POP DUP13 SWAP2 PUSH1 0x1 PUSH1 0x1 PUSH1 0xA0 SHL SUB AND SWAP1 PUSH3 0x2BC164 SWAP1 PUSH1 0x24 ADD PUSH1 0x80 PUSH1 0x40 MLOAD DUP1 DUP4 SUB DUP2 DUP7 GAS STATICCALL ISZERO DUP1 ISZERO PUSH2 0x1175 JUMPI RETURNDATASIZE PUSH1 0x0 DUP1 RETURNDATACOPY RETURNDATASIZE PUSH1 0x0 REVERT JUMPDEST POP POP POP POP PUSH1 0x40 MLOAD RETURNDATASIZE PUSH1 0x1F NOT PUSH1 0x1F DUP3 ADD AND DUP3 ADD DUP1 PUSH1 0x40 MSTORE POP DUP2 ADD SWAP1 PUSH2 0x1199 SWAP2 SWAP1 PUSH2 0x1EC5 JUMP JUMPDEST PUSH1 0x20 ADD MLOAD PUSH2 0x11A7 SWAP2 SWAP1 PUSH2 0x1D6C JUMP JUMPDEST PUSH2 0x11B1 SWAP2 SWAP1 PUSH2 0x1D99 JUMP JUMPDEST PUSH1 0x1 SLOAD PUSH1 0x40 MLOAD PUSH4 0x9101E5B3 PUSH1 0xE0 SHL DUP2 MSTORE CALLER PUSH1 0x4 DUP3 ADD MSTORE PUSH1 0x24 DUP2 ADD DUP4 SWAP1 MSTORE SWAP2 SWAP3 POP PUSH1 0x1 PUSH1 0x1 PUSH1 0xA0 SHL SUB AND SWAP1 PUSH4 0x9101E5B3 SWAP1 PUSH1 0x44 ADD PUSH1 0x0 PUSH1 0x40 MLOAD DUP1 DUP4 SUB DUP2 PUSH1 0x0 DUP8 DUP1 EXTCODESIZE ISZERO DUP1 ISZERO PUSH2 0x11FE JUMPI PUSH1 0x0 DUP1 REVERT JUMPDEST POP GAS CALL ISZERO DUP1 ISZERO PUSH2 0x1212 JUMPI RETURNDATASIZE PUSH1 0x0 DUP1 RETURNDATACOPY RETURNDATASIZE PUSH1 0x0 REVERT JUMPDEST POP POP POP POP DUP2 PUSH1 0x11 PUSH1 0x0 DUP3 DUP3 SLOAD PUSH2 0x1228 SWAP2 SWAP1 PUSH2 0x1D40 JUMP JUMPDEST SWAP1 SWAP2 SSTORE POP POP PUSH1 0x40 DUP1 MLOAD DUP12 DUP2 MSTORE PUSH1 0x20 DUP2 ADD DUP6 SWAP1 MSTORE SWAP1 DUP2 ADD DUP9 SWAP1 MSTORE PUSH1 0x60 DUP2 ADD DUP4 SWAP1 MSTORE CALLER SWAP1 PUSH32 0xDA9C32AADBA951ABE6572AF4FB5654A38201910647B4A3A0367A8E28945972F3 SWAP1 PUSH1 0x80 ADD PUSH1 0x40 MLOAD DUP1 SWAP2 SUB SWAP1 LOG2 PUSH1 0x40 MLOAD DUP3 DUP2 MSTORE CALLER SWAP1 PUSH32 0x4B85F139405492FB78333512610BA07ED1E0C3FB2417F208A9AAE27DC3843E6A SWAP1 PUSH1 0x20 ADD PUSH1 0x40 MLOAD DUP1 SWAP2 SUB SWAP1 LOG2 POP POP POP POP POP POP SWAP4 SWAP3 POP POP POP JUMP JUMPDEST PUSH1 0x0 SLOAD PUSH1 0x1 PUSH1 0x1 PUSH1 0xA0 SHL SUB AND CALLER EQ PUSH2 0x12E3 JUMPI PUSH1 0x40 MLOAD PUSH3 0x461BCD PUSH1 0xE5 SHL DUP2 MSTORE PUSH1 0x4 ADD PUSH2 0x75D SWAP1 PUSH2 0x1E9C JUMP JUMPDEST PUSH1 0x1 PUSH1 0x1 PUSH1 0xA0 SHL SUB DUP2 AND PUSH2 0x1331 JUMPI PUSH1 0x40 MLOAD PUSH3 0x461BCD PUSH1 0xE5 SHL DUP2 MSTORE PUSH1 0x20 PUSH1 0x4 DUP3 ADD MSTORE PUSH1 0x15 PUSH1 0x24 DUP3 ADD MSTORE PUSH21 0x76414D4D3A20696E76616C69642061646472657373 PUSH1 0x58 SHL PUSH1 0x44 DUP3 ADD MSTORE PUSH1 0x64 ADD PUSH2 0x75D JUMP JUMPDEST PUSH1 0x1 PUSH1 0x1 PUSH1 0xA0 SHL SUB DUP2 AND PUSH1 0x0 DUP2 DUP2 MSTORE PUSH1 0xE PUSH1 0x20 MSTORE PUSH1 0x40 DUP1 DUP3 KECCAK256 DUP1 SLOAD PUSH1 0xFF NOT AND PUSH1 0x1 OR SWAP1 SSTORE MLOAD PUSH32 0xDD10D14F6AC19E913D4EDBB11FD30661531E2CCD0D23F571E9B224F001F0DD06 SWAP2 SWAP1 LOG2 POP JUMP JUMPDEST PUSH1 0x0 DUP1 PUSH2 0x1388 PUSH2 0xD80 JUMP JUMPDEST SWAP1 POP PUSH1 0x0 DUP4 ISZERO PUSH2 0x13CC JUMPI PUSH1 0x0 DUP6 PUSH1 0x8 SLOAD PUSH2 0x13A2 SWAP2 SWAP1 PUSH2 0x1D40 JUMP JUMPDEST PUSH1 0x7 SLOAD SWAP1 SWAP2 POP PUSH2 0x13BA PUSH8 0xDE0B6B3A7640000 DUP4 PUSH2 0x1D6C JUMP JUMPDEST PUSH2 0x13C4 SWAP2 SWAP1 PUSH2 0x1D99 JUMP JUMPDEST SWAP2 POP POP PUSH2 0x1403 JUMP JUMPDEST PUSH1 0x0 DUP6 PUSH1 0x7 SLOAD PUSH2 0x13DC SWAP2 SWAP1 PUSH2 0x1D40 JUMP JUMPDEST SWAP1 POP DUP1 PUSH8 0xDE0B6B3A7640000 PUSH1 0x8 SLOAD PUSH2 0x13F5 SWAP2 SWAP1 PUSH2 0x1D6C JUMP JUMPDEST PUSH2 0x13FF SWAP2 SWAP1 PUSH2 0x1D99 JUMP JUMPDEST SWAP2 POP POP JUMPDEST DUP2 DUP2 GT PUSH2 0x1419 JUMPI PUSH2 0x1414 DUP2 DUP4 PUSH2 0x1E89 JUMP JUMPDEST PUSH2 0x1423 JUMP JUMPDEST PUSH2 0x1423 DUP3 DUP3 PUSH2 0x1E89 JUMP JUMPDEST SWAP3 POP POP POP JUMPDEST SWAP3 SWAP2 POP POP JUMP JUMPDEST PUSH1 0x12 SLOAD PUSH1 0x0 SWAP1 PUSH1 0xFF AND ISZERO PUSH2 0x1454 JUMPI PUSH1 0x40 MLOAD PUSH3 0x461BCD PUSH1 0xE5 SHL DUP2 MSTORE PUSH1 0x4 ADD PUSH2 0x75D SWAP1 PUSH2 0x1E46 JUMP JUMPDEST PUSH1 0x0 DUP7 GT PUSH2 0x14A4 JUMPI PUSH1 0x40 MLOAD PUSH3 0x461BCD PUSH1 0xE5 SHL DUP2 MSTORE PUSH1 0x20 PUSH1 0x4 DUP3 ADD MSTORE PUSH1 0x18 PUSH1 0x24 DUP3 ADD MSTORE PUSH32 0x76414D4D3A20696E76616C696420636F6C6C61746572616C0000000000000000 PUSH1 0x44 DUP3 ADD MSTORE PUSH1 0x64 ADD PUSH2 0x75D JUMP JUMPDEST PUSH1 0x1 DUP5 LT ISZERO DUP1 ISZERO PUSH2 0x14B6 JUMPI POP PUSH1 0x64 DUP5 GT ISZERO JUMPDEST PUSH2 0x14FB JUMPI PUSH1 0x40 MLOAD PUSH3 0x461BCD PUSH1 0xE5 SHL DUP2 MSTORE PUSH1 0x20 PUSH1 0x4 DUP3 ADD MSTORE PUSH1 0x16 PUSH1 0x24 DUP3 ADD MSTORE PUSH22 0x76414D4D3A20696E76616C6964206C65766572616765 PUSH1 0x50 SHL PUSH1 0x44 DUP3 ADD MSTORE PUSH1 0x64 ADD PUSH2 0x75D JUMP JUMPDEST PUSH2 0x1503 PUSH2 0x5C4 JUMP JUMPDEST PUSH2 0x150D DUP5 DUP8 PUSH2 0x1D6C JUMP JUMPDEST SWAP1 POP PUSH1 0x0 PUSH2 0x1519 PUSH2 0xD80 JUMP JUMPDEST SWAP1 POP DUP4 DUP2 LT ISZERO DUP1 ISZERO PUSH2 0x152B JUMPI POP DUP3 DUP2 GT ISZERO JUMPDEST PUSH2 0x156E JUMPI PUSH1 0x40 MLOAD PUSH3 0x461BCD PUSH1 0xE5 SHL DUP2 MSTORE PUSH1 0x20 PUSH1 0x4 DUP3 ADD MSTORE PUSH1 0x14 PUSH1 0x24 DUP3 ADD MSTORE PUSH20 0x76414D4D3A20707269636520736C697070616765 PUSH1 0x60 SHL PUSH1 0x44 DUP3 ADD MSTORE PUSH1 0x64 ADD PUSH2 0x75D JUMP JUMPDEST PUSH1 0x0 PUSH2 0x2710 PUSH1 0x3 SLOAD DUP5 PUSH2 0x1581 SWAP2 SWAP1 PUSH2 0x1D6C JUMP JUMPDEST PUSH2 0x158B SWAP2 SWAP1 PUSH2 0x1D99 JUMP JUMPDEST SWAP1 POP PUSH1 0x0 PUSH2 0x1599 DUP3 DUP11 PUSH2 0x1D40 JUMP JUMPDEST PUSH1 0x1 SLOAD PUSH1 0x40 MLOAD PUSH4 0xEAD3E99 PUSH1 0xE3 SHL DUP2 MSTORE CALLER PUSH1 0x4 DUP3 ADD MSTORE PUSH1 0x24 DUP2 ADD DUP4 SWAP1 MSTORE SWAP2 SWAP3 POP PUSH1 0x1 PUSH1 0x1 PUSH1 0xA0 SHL SUB AND SWAP1 PUSH4 0x7569F4C8 SWAP1 PUSH1 0x44 ADD PUSH1 0x0 PUSH1 0x40 MLOAD DUP1 DUP4 SUB DUP2 PUSH1 0x0 DUP8 DUP1 EXTCODESIZE ISZERO DUP1 ISZERO PUSH2 0x15E6 JUMPI PUSH1 0x0 DUP1 REVERT JUMPDEST POP GAS CALL ISZERO DUP1 ISZERO PUSH2 0x15FA JUMPI RETURNDATASIZE PUSH1 0x0 DUP1 RETURNDATACOPY RETURNDATASIZE PUSH1 0x0 REVERT JUMPDEST POP POP CALLER PUSH1 0x0 SWAP1 DUP2 MSTORE PUSH1 0xD PUSH1 0x20 MSTORE PUSH1 0x40 SWAP1 KECCAK256 DUP1 SLOAD SWAP1 SWAP3 POP ISZERO SWAP1 POP PUSH2 0x1620 JUMPI PUSH2 0x1620 CALLER PUSH2 0x1AC7 JUMP JUMPDEST DUP9 ISZERO PUSH2 0x165C JUMPI DUP5 PUSH1 0x8 PUSH1 0x0 DUP3 DUP3 SLOAD PUSH2 0x1638 SWAP2 SWAP1 PUSH2 0x1D40 JUMP JUMPDEST SWAP3 POP POP DUP2 SWAP1 SSTORE POP DUP5 PUSH1 0xF PUSH1 0x0 DUP3 DUP3 SLOAD PUSH2 0x1651 SWAP2 SWAP1 PUSH2 0x1E1E JUMP JUMPDEST SWAP1 SWAP2 SSTORE POP PUSH2 0x168D SWAP1 POP JUMP JUMPDEST DUP5 PUSH1 0x7 PUSH1 0x0 DUP3 DUP3 SLOAD PUSH2 0x166E SWAP2 SWAP1 PUSH2 0x1D40 JUMP JUMPDEST SWAP3 POP POP DUP2 SWAP1 SSTORE POP DUP5 PUSH1 0x10 PUSH1 0x0 DUP3 DUP3 SLOAD PUSH2 0x1687 SWAP2 SWAP1 PUSH2 0x1E1E JUMP JUMPDEST SWAP1 SWAP2 SSTORE POP POP JUMPDEST DUP1 SLOAD PUSH1 0x0 SUB PUSH2 0x16C1 JUMPI DUP9 PUSH2 0x16A9 JUMPI PUSH2 0x16A4 DUP6 PUSH2 0x1E02 JUMP JUMPDEST PUSH2 0x16AB JUMP JUMPDEST DUP5 JUMPDEST DUP2 SSTORE PUSH1 0x1 DUP2 ADD DUP5 SWAP1 SSTORE PUSH1 0xA SLOAD PUSH1 0x2 DUP3 ADD SSTORE PUSH2 0x1854 JUMP JUMPDEST DUP1 SLOAD PUSH1 0x0 SLT DUP10 ISZERO ISZERO DUP2 SUB PUSH2 0x17BA JUMPI PUSH1 0x0 PUSH8 0xDE0B6B3A7640000 DUP4 PUSH1 0x1 ADD SLOAD DUP4 PUSH2 0x16F4 JUMPI DUP5 SLOAD PUSH2 0x16EF SWAP1 PUSH2 0x1E02 JUMP JUMPDEST PUSH2 0x16F7 JUMP JUMPDEST DUP5 SLOAD JUMPDEST PUSH2 0x1701 SWAP2 SWAP1 PUSH2 0x1D6C JUMP JUMPDEST PUSH2 0x170B SWAP2 SWAP1 PUSH2 0x1D99 JUMP JUMPDEST SWAP1 POP PUSH1 0x0 PUSH8 0xDE0B6B3A7640000 PUSH2 0x1722 DUP9 DUP11 PUSH2 0x1D6C JUMP JUMPDEST PUSH2 0x172C SWAP2 SWAP1 PUSH2 0x1D99 JUMP JUMPDEST SWAP1 POP PUSH1 0x0 PUSH2 0x173A DUP3 DUP5 PUSH2 0x1D40 JUMP JUMPDEST SWAP1 POP DUP4 PUSH2 0x175D JUMPI DUP5 SLOAD DUP10 SWAP1 PUSH2 0x174E SWAP1 PUSH2 0x1E02 JUMP JUMPDEST PUSH2 0x1758 SWAP2 SWAP1 PUSH2 0x1E1E JUMP JUMPDEST PUSH2 0x176A JUMP JUMPDEST DUP5 SLOAD PUSH2 0x176A SWAP1 DUP11 SWAP1 PUSH2 0x1E1E JUMP JUMPDEST PUSH2 0x177C PUSH8 0xDE0B6B3A7640000 DUP4 PUSH2 0x1D6C JUMP JUMPDEST PUSH2 0x1786 SWAP2 SWAP1 PUSH2 0x1D99 JUMP JUMPDEST PUSH1 0x1 DUP7 ADD SSTORE DUP4 PUSH2 0x17A2 JUMPI DUP5 SLOAD PUSH2 0x179D SWAP1 DUP11 SWAP1 PUSH2 0x1DAD JUMP JUMPDEST PUSH2 0x17AF JUMP JUMPDEST DUP5 SLOAD PUSH2 0x17AF SWAP1 DUP11 SWAP1 PUSH2 0x1E1E JUMP JUMPDEST DUP6 SSTORE POP PUSH2 0x1852 SWAP2 POP POP JUMP JUMPDEST DUP6 DUP2 PUSH2 0x17D0 JUMPI DUP3 SLOAD PUSH2 0x17CB SWAP1 PUSH2 0x1E02 JUMP JUMPDEST PUSH2 0x17D3 JUMP JUMPDEST DUP3 SLOAD JUMPDEST GT ISZERO PUSH2 0x1804 JUMPI DUP1 PUSH2 0x17F0 JUMPI DUP2 SLOAD PUSH2 0x17EB SWAP1 DUP8 SWAP1 PUSH2 0x1E1E JUMP JUMPDEST PUSH2 0x17FD JUMP JUMPDEST DUP2 SLOAD PUSH2 0x17FD SWAP1 DUP8 SWAP1 PUSH2 0x1DAD JUMP JUMPDEST DUP3 SSTORE PUSH2 0x1852 JUMP JUMPDEST PUSH1 0x0 DUP2 PUSH2 0x181B JUMPI DUP3 SLOAD PUSH2 0x1816 SWAP1 PUSH2 0x1E02 JUMP JUMPDEST PUSH2 0x181E JUMP JUMPDEST DUP3 SLOAD JUMPDEST PUSH2 0x1828 SWAP1 DUP9 PUSH2 0x1E89 JUMP JUMPDEST SWAP1 POP DUP11 PUSH2 0x183D JUMPI PUSH2 0x1838 DUP2 PUSH2 0x1E02 JUMP JUMPDEST PUSH2 0x183F JUMP JUMPDEST DUP1 JUMPDEST DUP4 SSTORE POP PUSH1 0x1 DUP3 ADD DUP6 SWAP1 SSTORE PUSH1 0xA SLOAD PUSH1 0x2 DUP4 ADD SSTORE JUMPDEST POP JUMPDEST TIMESTAMP DUP2 PUSH1 0x3 ADD DUP2 SWAP1 SSTORE POP DUP3 PUSH1 0x11 PUSH1 0x0 DUP3 DUP3 SLOAD PUSH2 0x186F SWAP2 SWAP1 PUSH2 0x1D40 JUMP JUMPDEST SWAP1 SWAP2 SSTORE POP POP PUSH1 0x40 DUP1 MLOAD DUP11 ISZERO ISZERO DUP2 MSTORE PUSH1 0x20 DUP2 ADD DUP8 SWAP1 MSTORE SWAP1 DUP2 ADD DUP6 SWAP1 MSTORE PUSH1 0x60 DUP2 ADD DUP10 SWAP1 MSTORE PUSH1 0x80 DUP2 ADD DUP5 SWAP1 MSTORE CALLER SWAP1 PUSH32 0xE8F4B81343AFA64BC4DDCFBF2D80E883E0DDFC6663C400CA09DA13D1D28D588 SWAP1 PUSH1 0xA0 ADD PUSH1 0x40 MLOAD DUP1 SWAP2 SUB SWAP1 LOG2 PUSH1 0x40 MLOAD DUP4 DUP2 MSTORE CALLER SWAP1 PUSH32 0x4B85F139405492FB78333512610BA07ED1E0C3FB2417F208A9AAE27DC3843E6A SWAP1 PUSH1 0x20 ADD PUSH1 0x40 MLOAD DUP1 SWAP2 SUB SWAP1 LOG2 POP POP POP POP SWAP6 SWAP5 POP POP POP POP POP JUMP JUMPDEST PUSH2 0x1934 PUSH1 0x40 MLOAD DUP1 PUSH1 0x80 ADD PUSH1 0x40 MSTORE DUP1 PUSH1 0x0 DUP2 MSTORE PUSH1 0x20 ADD PUSH1 0x0 DUP2 MSTORE PUSH1 0x20 ADD PUSH1 0x0 DUP2 MSTORE PUSH1 0x20 ADD PUSH1 0x0 DUP2 MSTORE POP SWAP1 JUMP JUMPDEST POP PUSH1 0x40 DUP1 MLOAD PUSH1 0x80 DUP2 ADD DUP3 MSTORE PUSH1 0x9 SLOAD DUP2 MSTORE PUSH1 0xA SLOAD PUSH1 0x20 DUP3 ADD MSTORE PUSH1 0xB SLOAD SWAP2 DUP2 ADD SWAP2 SWAP1 SWAP2 MSTORE PUSH1 0xC SLOAD PUSH1 0x60 DUP3 ADD MSTORE SWAP1 JUMP JUMPDEST PUSH1 0x0 SLOAD PUSH1 0x1 PUSH1 0x1 PUSH1 0xA0 SHL SUB AND CALLER EQ PUSH2 0x198B JUMPI PUSH1 0x40 MLOAD PUSH3 0x461BCD PUSH1 0xE5 SHL DUP2 MSTORE PUSH1 0x4 ADD PUSH2 0x75D SWAP1 PUSH2 0x1E9C JUMP JUMPDEST PUSH2 0x3E8 DUP2 GT ISZERO PUSH2 0x19D2 JUMPI PUSH1 0x40 MLOAD PUSH3 0x461BCD PUSH1 0xE5 SHL DUP2 MSTORE PUSH1 0x20 PUSH1 0x4 DUP3 ADD MSTORE PUSH1 0x12 PUSH1 0x24 DUP3 ADD MSTORE PUSH18 0xEC829A9A7440CCCACA40E8DEDE40D0D2CED PUSH1 0x73 SHL PUSH1 0x44 DUP3 ADD MSTORE PUSH1 0x64 ADD PUSH2 0x75D JUMP JUMPDEST PUSH1 0x3 DUP2 SWAP1 SSTORE PUSH1 0x40 DUP1 MLOAD DUP2 DUP2 MSTORE PUSH1 0xE SWAP2 DUP2 ADD SWAP2 SWAP1 SWAP2 MSTORE PUSH14 0x74726164696E6746656552617465 PUSH1 0x90 SHL PUSH1 0x60 DUP3 ADD MSTORE PUSH1 0x20 DUP2 ADD DUP3 SWAP1 MSTORE PUSH32 0x952177133A28EEA5034C93C6C70C1A8D223DA94FAAA45DA8412C3C791111137F SWAP1 PUSH1 0x80 ADD PUSH2 0xC31 JUMP JUMPDEST PUSH1 0x0 SLOAD PUSH1 0x1 PUSH1 0x1 PUSH1 0xA0 SHL SUB AND CALLER EQ PUSH2 0x1A59 JUMPI PUSH1 0x40 MLOAD PUSH3 0x461BCD PUSH1 0xE5 SHL DUP2 MSTORE PUSH1 0x4 ADD PUSH2 0x75D SWAP1 PUSH2 0x1E9C JUMP JUMPDEST PUSH1 0x1 PUSH1 0x1 PUSH1 0xA0 SHL SUB DUP2 AND PUSH2 0x1AA5 JUMPI PUSH1 0x40 MLOAD PUSH3 0x461BCD PUSH1 0xE5 SHL DUP2 MSTORE PUSH1 0x20 PUSH1 0x4 DUP3 ADD MSTORE PUSH1 0x13 PUSH1 0x24 DUP3 ADD MSTORE PUSH19 0x3B20A6A69D1034B73B30B634B21037BBB732B9 PUSH1 0x69 SHL PUSH1 0x44 DUP3 ADD MSTORE PUSH1 0x64 ADD PUSH2 0x75D JUMP JUMPDEST PUSH1 0x0 DUP1 SLOAD PUSH1 0x1 PUSH1 0x1 PUSH1 0xA0 SHL SUB NOT AND PUSH1 0x1 PUSH1 0x1 PUSH1 0xA0 SHL SUB SWAP3 SWAP1 SWAP3 AND SWAP2 SWAP1 SWAP2 OR SWAP1 SSTORE JUMP JUMPDEST PUSH1 0x1 PUSH1 0x1 PUSH1 0xA0 SHL SUB DUP2 AND PUSH1 0x0 SWAP1 DUP2 MSTORE PUSH1 0xD PUSH1 0x20 MSTORE PUSH1 0x40 DUP2 KECCAK256 DUP1 SLOAD SWAP1 SWAP2 SUB PUSH2 0x1AEC JUMPI POP POP JUMP JUMPDEST PUSH1 0x2 DUP2 ADD SLOAD PUSH1 0xA SLOAD PUSH1 0x0 SWAP2 PUSH2 0x1B00 SWAP2 PUSH2 0x1E89 JUMP JUMPDEST SWAP1 POP DUP1 PUSH1 0x0 SUB PUSH2 0x1B0F JUMPI POP POP POP JUMP JUMPDEST DUP2 SLOAD PUSH1 0x0 SWAP1 DUP2 SLT SWAP1 DUP2 PUSH2 0x1B2C JUMPI DUP4 SLOAD PUSH2 0x1B27 SWAP1 PUSH2 0x1E02 JUMP JUMPDEST PUSH2 0x1B2F JUMP JUMPDEST DUP4 SLOAD JUMPDEST SWAP1 POP PUSH1 0x0 PUSH4 0x5F5E100 PUSH2 0x1B42 DUP6 DUP5 PUSH2 0x1D6C JUMP JUMPDEST PUSH2 0x1B4C SWAP2 SWAP1 PUSH2 0x1D99 JUMP JUMPDEST SWAP1 POP DUP3 ISZERO PUSH2 0x1B60 JUMPI PUSH2 0x1B5D DUP2 PUSH2 0x1E02 JUMP JUMPDEST SWAP1 POP JUMPDEST PUSH1 0x1 SLOAD PUSH1 0xA SLOAD PUSH1 0x40 MLOAD PUSH4 0x5969F96B PUSH1 0xE0 SHL DUP2 MSTORE PUSH1 0x1 PUSH1 0x1 PUSH1 0xA0 SHL SUB DUP10 DUP2 AND PUSH1 0x4 DUP4 ADD MSTORE PUSH1 0x24 DUP3 ADD DUP6 SWAP1 MSTORE PUSH1 0x44 DUP3 ADD SWAP3 SWAP1 SWAP3 MSTORE SWAP2 AND SWAP1 PUSH4 0x5969F96B SWAP1 PUSH1 0x64 ADD PUSH1 0x0 PUSH1 0x40 MLOAD DUP1 DUP4 SUB DUP2 PUSH1 0x0 DUP8 DUP1 EXTCODESIZE ISZERO DUP1 ISZERO PUSH2 0x1BB8 JUMPI PUSH1 0x0 DUP1 REVERT JUMPDEST POP GAS CALL ISZERO DUP1 ISZERO PUSH2 0x1BCC JUMPI RETURNDATASIZE PUSH1 0x0 DUP1 RETURNDATACOPY RETURNDATASIZE PUSH1 0x0 REVERT JUMPDEST POP POP PUSH1 0xA SLOAD PUSH1 0x2 DUP9 ADD DUP2 SWAP1 SSTORE PUSH1 0x40 MLOAD PUSH1 0x1 PUSH1 0x1 PUSH1 0xA0 SHL SUB DUP11 AND SWAP4 POP PUSH32 0x14B9E7B22B24FE3174A21280F7BAF48FCE7E6AE0B9A0A548E37BCC22AE1BDB48 SWAP3 POP PUSH2 0x1C1C SWAP2 DUP6 DUP3 MSTORE PUSH1 0x20 DUP3 ADD MSTORE PUSH1 0x40 ADD SWAP1 JUMP JUMPDEST PUSH1 0x40 MLOAD DUP1 SWAP2 SUB SWAP1 LOG2 POP POP POP POP POP POP JUMP JUMPDEST PUSH1 0x0 PUSH1 0x20 DUP3 DUP5 SUB SLT ISZERO PUSH2 0x1C3E JUMPI PUSH1 0x0 DUP1 REVERT JUMPDEST DUP2 CALLDATALOAD PUSH1 0x1 PUSH1 0x1 PUSH1 0xA0 SHL SUB DUP2 AND DUP2 EQ PUSH2 0x1C55 JUMPI PUSH1 0x0 DUP1 REVERT JUMPDEST SWAP4 SWAP3 POP POP POP JUMP JUMPDEST PUSH1 0x0 PUSH1 0x20 DUP3 DUP5 SUB SLT ISZERO PUSH2 0x1C6E JUMPI PUSH1 0x0 DUP1 REVERT JUMPDEST POP CALLDATALOAD SWAP2 SWAP1 POP JUMP JUMPDEST PUSH1 0x0 DUP1 PUSH1 0x0 PUSH1 0x60 DUP5 DUP7 SUB SLT ISZERO PUSH2 0x1C8A JUMPI PUSH1 0x0 DUP1 REVERT JUMPDEST POP POP DUP2 CALLDATALOAD SWAP4 PUSH1 0x20 DUP4 ADD CALLDATALOAD SWAP4 POP PUSH1 0x40 SWAP1 SWAP3 ADD CALLDATALOAD SWAP2 SWAP1 POP JUMP JUMPDEST DUP1 ISZERO ISZERO DUP2 EQ PUSH2 0x1CAF JUMPI PUSH1 0x0 DUP1 REVERT JUMPDEST POP JUMP JUMPDEST PUSH1 0x0 DUP1 PUSH1 0x40 DUP4 DUP6 SUB SLT ISZERO PUSH2 0x1CC5 JUMPI PUSH1 0x0 DUP1 REVERT JUMPDEST DUP3 CALLDATALOAD SWAP2 POP PUSH1 0x20 DUP4 ADD CALLDATALOAD PUSH2 0x1CD7 DUP2 PUSH2 0x1CA1 JUMP JUMPDEST DUP1 SWAP2 POP POP SWAP3 POP SWAP3 SWAP1 POP JUMP JUMPDEST PUSH1 0x0 DUP1 PUSH1 0x0 DUP1 PUSH1 0x0 PUSH1 0xA0 DUP7 DUP9 SUB SLT ISZERO PUSH2 0x1CFA JUMPI PUSH1 0x0 DUP1 REVERT JUMPDEST DUP6 CALLDATALOAD SWAP5 POP PUSH1 0x20 DUP7 ADD CALLDATALOAD PUSH2 0x1D0C DUP2 PUSH2 0x1CA1 JUMP JUMPDEST SWAP5 SWAP8 SWAP5 SWAP7 POP POP POP POP PUSH1 0x40 DUP4 ADD CALLDATALOAD SWAP3 PUSH1 0x60 DUP2 ADD CALLDATALOAD SWAP3 PUSH1 0x80 SWAP1 SWAP2 ADD CALLDATALOAD SWAP2 POP JUMP JUMPDEST PUSH4 0x4E487B71 PUSH1 0xE0 SHL PUSH1 0x0 MSTORE PUSH1 0x11 PUSH1 0x4 MSTORE PUSH1 0x24 PUSH1 0x0 REVERT JUMPDEST DUP1 DUP3 ADD DUP1 DUP3 GT ISZERO PUSH2 0x1428 JUMPI PUSH2 0x1428 PUSH2 0x1D2A JUMP JUMPDEST PUSH1 0x0 PUSH1 0x20 DUP3 DUP5 SUB SLT ISZERO PUSH2 0x1D65 JUMPI PUSH1 0x0 DUP1 REVERT JUMPDEST POP MLOAD SWAP2 SWAP1 POP JUMP JUMPDEST DUP1 DUP3 MUL DUP2 ISZERO DUP3 DUP3 DIV DUP5 EQ OR PUSH2 0x1428 JUMPI PUSH2 0x1428 PUSH2 0x1D2A JUMP JUMPDEST PUSH4 0x4E487B71 PUSH1 0xE0 SHL PUSH1 0x0 MSTORE PUSH1 0x12 PUSH1 0x4 MSTORE PUSH1 0x24 PUSH1 0x0 REVERT JUMPDEST PUSH1 0x0 DUP3 PUSH2 0x1DA8 JUMPI PUSH2 0x1DA8 PUSH2 0x1D83 JUMP JUMPDEST POP DIV SWAP1 JUMP JUMPDEST DUP2 DUP2 SUB PUSH1 0x0 DUP4 SLT DUP1 ISZERO DUP4 DUP4 SGT AND DUP4 DUP4 SLT DUP3 AND OR ISZERO PUSH2 0x1DCD JUMPI PUSH2 0x1DCD PUSH2 0x1D2A JUMP JUMPDEST POP SWAP3 SWAP2 POP POP JUMP JUMPDEST PUSH1 0x0 DUP3 PUSH2 0x1DE3 JUMPI PUSH2 0x1DE3 PUSH2 0x1D83 JUMP JUMPDEST PUSH1 0x1 PUSH1 0xFF SHL DUP3 EQ PUSH1 0x0 NOT DUP5 EQ AND ISZERO PUSH2 0x1DFD JUMPI PUSH2 0x1DFD PUSH2 0x1D2A JUMP JUMPDEST POP SDIV SWAP1 JUMP JUMPDEST PUSH1 0x0 PUSH1 0x1 PUSH1 0xFF SHL DUP3 ADD PUSH2 0x1E17 JUMPI PUSH2 0x1E17 PUSH2 0x1D2A JUMP JUMPDEST POP PUSH1 0x0 SUB SWAP1 JUMP JUMPDEST DUP1 DUP3 ADD DUP3 DUP2 SLT PUSH1 0x0 DUP4 SLT DUP1 ISZERO DUP3 AND DUP3 ISZERO DUP3 AND OR ISZERO PUSH2 0x1E3E JUMPI PUSH2 0x1E3E PUSH2 0x1D2A JUMP JUMPDEST POP POP SWAP3 SWAP2 POP POP JUMP JUMPDEST PUSH1 0x20 DUP1 DUP3 MSTORE PUSH1 0xC SWAP1 DUP3 ADD MSTORE PUSH12 0x1D9053534E881C185D5CD959 PUSH1 0xA2 SHL PUSH1 0x40 DUP3 ADD MSTORE PUSH1 0x60 ADD SWAP1 JUMP JUMPDEST PUSH1 0x0 PUSH1 0x20 DUP3 DUP5 SUB SLT ISZERO PUSH2 0x1E7E JUMPI PUSH1 0x0 DUP1 REVERT JUMPDEST DUP2 MLOAD PUSH2 0x1C55 DUP2 PUSH2 0x1CA1 JUMP JUMPDEST DUP2 DUP2 SUB DUP2 DUP2 GT ISZERO PUSH2 0x1428 JUMPI PUSH2 0x1428 PUSH2 0x1D2A JUMP JUMPDEST PUSH1 0x20 DUP1 DUP3 MSTORE PUSH1 0xF SWAP1 DUP3 ADD MSTORE PUSH15 0x3B20A6A69D103737BA1037BBB732B9 PUSH1 0x89 SHL PUSH1 0x40 DUP3 ADD MSTORE PUSH1 0x60 ADD SWAP1 JUMP JUMPDEST PUSH1 0x0 PUSH1 0x80 DUP3 DUP5 SUB SLT ISZERO PUSH2 0x1ED7 JUMPI PUSH1 0x0 DUP1 REVERT JUMPDEST PUSH1 0x40 MLOAD PUSH1 0x80 DUP2 ADD DUP2 DUP2 LT PUSH8 0xFFFFFFFFFFFFFFFF DUP3 GT OR ISZERO PUSH2 0x1F08 JUMPI PUSH4 0x4E487B71 PUSH1 0xE0 SHL PUSH1 0x0 MSTORE PUSH1 0x41 PUSH1 0x4 MSTORE PUSH1 0x24 PUSH1 0x0 REVERT JUMPDEST DUP1 PUSH1 0x40 MSTORE POP DUP3 MLOAD DUP2 MSTORE PUSH1 0x20 DUP4 ADD MLOAD PUSH1 0x20 DUP3 ADD MSTORE PUSH1 0x40 DUP4 ADD MLOAD PUSH1 0x40 DUP3 ADD MSTORE PUSH1 0x60 DUP4 ADD MLOAD PUSH1 0x60 DUP3 ADD MSTORE DUP1 SWAP2 POP POP SWAP3 SWAP2 POP POP JUMP INVALID LOG2 PUSH5 0x6970667358 0x22 SLT KECCAK256 0xE1 0xFB PUSH6 0x9F918D167AAE TIMESTAMP 0xD PUSH21 0x9C98DDF7B53F52784F96F1A422710E88BEF18D5A64 PUSH20 0x6F6C63430008140033A264697066735822122006 PUSH17 0xFD269F4F566965976959EEED88A31D86A4 SHL 0xB1 0xDB 0xD1 0xAC 0xDA PUSH24 0x6BACB018989D64736F6C6343000814003300000000000000 "},"methodIdentifiers":{"createMarket(string,address,address,uint256)":"73d8c6bd","deploymentFee()":"f2cff57f","getActiveMarkets()":"a5e973c3","getAllMarketIds()":"b85ed636","getMarket(bytes32)":"c3c95c7b","isValidMarket(address)":"58e6309f","marketCount()":"ec979082","marketIds(uint256)":"779a9683","markets(bytes32)":"7564912b","owner()":"8da5cb5b","recoverToken(address,uint256)":"b29a8140","setDeploymentFee(uint256)":"d002462b","setMarketStatus(bytes32,bool)":"2a519733","transferOwnership(address)":"f2fde38b","withdrawFees()":"476343ee"}}}}}