{"contracts/vAMM.sol":{"vAMM":{"abi":[{"inputs":[{"internalType":"address","name":"_vault","type":"address"},{"internalType":"address","name":"_oracle","type":"address"},{"internalType":"uint256","name":"_startingPrice","type":"uint256"}],"stateMutability":"nonpayable","type":"constructor"},{"anonymous":false,"inputs":[{"indexed":true,"internalType":"address","name":"account","type":"address"}],"name":"AuthorizedAdded","type":"event"},{"anonymous":false,"inputs":[{"indexed":true,"internalType":"address","name":"account","type":"address"}],"name":"AuthorizedRemoved","type":"event"},{"anonymous":false,"inputs":[{"indexed":false,"internalType":"uint256","name":"newPrice","type":"uint256"},{"indexed":false,"internalType":"uint256","name":"totalSupply","type":"uint256"},{"indexed":false,"internalType":"uint256","name":"priceChange","type":"uint256"}],"name":"BondingCurveUpdated","type":"event"},{"anonymous":false,"inputs":[{"indexed":true,"internalType":"address","name":"user","type":"address"},{"indexed":true,"internalType":"uint256","name":"positionId","type":"uint256"},{"indexed":false,"internalType":"int256","name":"amount","type":"int256"},{"indexed":false,"internalType":"uint256","name":"fundingIndex","type":"uint256"}],"name":"FundingPaid","type":"event"},{"anonymous":false,"inputs":[{"indexed":false,"internalType":"int256","name":"fundingRate","type":"int256"},{"indexed":false,"internalType":"uint256","name":"fundingIndex","type":"uint256"},{"indexed":false,"internalType":"int256","name":"premiumFraction","type":"int256"}],"name":"FundingUpdated","type":"event"},{"anonymous":false,"inputs":[{"indexed":false,"internalType":"string","name":"parameter","type":"string"},{"indexed":false,"internalType":"uint256","name":"newValue","type":"uint256"}],"name":"ParametersUpdated","type":"event"},{"anonymous":false,"inputs":[],"name":"Paused","type":"event"},{"anonymous":false,"inputs":[{"indexed":true,"internalType":"address","name":"user","type":"address"},{"indexed":true,"internalType":"uint256","name":"positionId","type":"uint256"},{"indexed":false,"internalType":"uint256","name":"size","type":"uint256"},{"indexed":false,"internalType":"uint256","name":"price","type":"uint256"},{"indexed":false,"internalType":"int256","name":"pnl","type":"int256"},{"indexed":false,"internalType":"uint256","name":"fee","type":"uint256"}],"name":"PositionClosed","type":"event"},{"anonymous":false,"inputs":[{"indexed":true,"internalType":"address","name":"user","type":"address"},{"indexed":true,"internalType":"uint256","name":"positionId","type":"uint256"},{"indexed":false,"internalType":"uint256","name":"sizeAdded","type":"uint256"},{"indexed":false,"internalType":"uint256","name":"newSize","type":"uint256"},{"indexed":false,"internalType":"uint256","name":"newEntryPrice","type":"uint256"},{"indexed":false,"internalType":"uint256","name":"fee","type":"uint256"}],"name":"PositionIncreased","type":"event"},{"anonymous":false,"inputs":[{"indexed":true,"internalType":"address","name":"user","type":"address"},{"indexed":true,"internalType":"uint256","name":"positionId","type":"uint256"},{"indexed":true,"internalType":"address","name":"liquidator","type":"address"},{"indexed":false,"internalType":"uint256","name":"size","type":"uint256"},{"indexed":false,"internalType":"uint256","name":"price","type":"uint256"},{"indexed":false,"internalType":"uint256","name":"fee","type":"uint256"}],"name":"PositionLiquidated","type":"event"},{"anonymous":false,"inputs":[{"indexed":true,"internalType":"address","name":"user","type":"address"},{"indexed":true,"internalType":"uint256","name":"positionId","type":"uint256"},{"indexed":false,"internalType":"bool","name":"isLong","type":"bool"},{"indexed":false,"internalType":"uint256","name":"size","type":"uint256"},{"indexed":false,"internalType":"uint256","name":"price","type":"uint256"},{"indexed":false,"internalType":"uint256","name":"leverage","type":"uint256"},{"indexed":false,"internalType":"uint256","name":"fee","type":"uint256"}],"name":"PositionOpened","type":"event"},{"anonymous":false,"inputs":[{"indexed":true,"internalType":"address","name":"user","type":"address"},{"indexed":false,"internalType":"uint256","name":"amount","type":"uint256"}],"name":"TradingFeeCollected","type":"event"},{"anonymous":false,"inputs":[],"name":"Unpaused","type":"event"},{"inputs":[],"name":"BASIS_POINTS","outputs":[{"internalType":"uint256","name":"","type":"uint256"}],"stateMutability":"view","type":"function"},{"inputs":[],"name":"BONDING_CURVE_STEEPNESS","outputs":[{"internalType":"uint256","name":"","type":"uint256"}],"stateMutability":"view","type":"function"},{"inputs":[],"name":"FUNDING_INTERVAL","outputs":[{"internalType":"uint256","name":"","type":"uint256"}],"stateMutability":"view","type":"function"},{"inputs":[],"name":"FUNDING_PRECISION","outputs":[{"internalType":"uint256","name":"","type":"uint256"}],"stateMutability":"view","type":"function"},{"inputs":[],"name":"MAX_FUNDING_RATE","outputs":[{"internalType":"uint256","name":"","type":"uint256"}],"stateMutability":"view","type":"function"},{"inputs":[],"name":"MAX_LEVERAGE","outputs":[{"internalType":"uint256","name":"","type":"uint256"}],"stateMutability":"view","type":"function"},{"inputs":[],"name":"MAX_PUMP_MULTIPLIER","outputs":[{"internalType":"uint256","name":"","type":"uint256"}],"stateMutability":"view","type":"function"},{"inputs":[],"name":"MIN_LEVERAGE","outputs":[{"internalType":"uint256","name":"","type":"uint256"}],"stateMutability":"view","type":"function"},{"inputs":[],"name":"PRICE_PRECISION","outputs":[{"internalType":"uint256","name":"","type":"uint256"}],"stateMutability":"view","type":"function"},{"inputs":[{"internalType":"address","name":"account","type":"address"}],"name":"addAuthorized","outputs":[],"stateMutability":"nonpayable","type":"function"},{"inputs":[{"internalType":"uint256","name":"positionId","type":"uint256"},{"internalType":"uint256","name":"collateralAmount","type":"uint256"},{"internalType":"uint256","name":"leverage","type":"uint256"},{"internalType":"uint256","name":"minPrice","type":"uint256"},{"internalType":"uint256","name":"maxPrice","type":"uint256"}],"name":"addToPosition","outputs":[{"internalType":"uint256","name":"newSize","type":"uint256"}],"stateMutability":"nonpayable","type":"function"},{"inputs":[{"internalType":"address","name":"","type":"address"}],"name":"authorized","outputs":[{"internalType":"bool","name":"","type":"bool"}],"stateMutability":"view","type":"function"},{"inputs":[{"internalType":"uint256","name":"amount","type":"uint256"}],"name":"calculateBuyCost","outputs":[{"internalType":"uint256","name":"totalCost","type":"uint256"}],"stateMutability":"view","type":"function"},{"inputs":[{"internalType":"uint256","name":"amount","type":"uint256"}],"name":"calculateSellPayout","outputs":[{"internalType":"uint256","name":"totalPayout","type":"uint256"}],"stateMutability":"view","type":"function"},{"inputs":[{"internalType":"uint256","name":"positionId","type":"uint256"},{"internalType":"uint256","name":"sizeToClose","type":"uint256"},{"internalType":"uint256","name":"minPrice","type":"uint256"},{"internalType":"uint256","name":"maxPrice","type":"uint256"}],"name":"closePosition","outputs":[{"internalType":"int256","name":"pnl","type":"int256"}],"stateMutability":"nonpayable","type":"function"},{"inputs":[{"internalType":"uint256","name":"_newStartingPrice","type":"uint256"}],"name":"emergencyResetBondingCurve","outputs":[],"stateMutability":"nonpayable","type":"function"},{"inputs":[{"internalType":"address","name":"user","type":"address"},{"internalType":"uint256","name":"positionId","type":"uint256"},{"internalType":"bool","name":"isOpenEvent","type":"bool"},{"internalType":"bool","name":"isLong","type":"bool"},{"internalType":"uint256","name":"size","type":"uint256"},{"internalType":"uint256","name":"price","type":"uint256"},{"internalType":"uint256","name":"leverageOrPnL","type":"uint256"},{"internalType":"uint256","name":"fee","type":"uint256"}],"name":"emitPositionEvent","outputs":[],"stateMutability":"nonpayable","type":"function"},{"inputs":[],"name":"fundingState","outputs":[{"internalType":"int256","name":"fundingRate","type":"int256"},{"internalType":"uint256","name":"fundingIndex","type":"uint256"},{"internalType":"uint256","name":"lastFundingTime","type":"uint256"},{"internalType":"int256","name":"premiumFraction","type":"int256"}],"stateMutability":"view","type":"function"},{"inputs":[],"name":"getBaseReserves","outputs":[{"internalType":"uint256","name":"baseReserves","type":"uint256"},{"internalType":"uint256","name":"quoteReserves","type":"uint256"}],"stateMutability":"view","type":"function"},{"inputs":[],"name":"getBondingCurveInfo","outputs":[{"internalType":"uint256","name":"currentPrice","type":"uint256"},{"internalType":"uint256","name":"startPrice","type":"uint256"},{"internalType":"uint256","name":"totalSupply","type":"uint256"},{"internalType":"uint256","name":"steepness","type":"uint256"},{"internalType":"uint256","name":"exponent","type":"uint256"},{"internalType":"uint256","name":"maxPrice","type":"uint256"}],"stateMutability":"view","type":"function"},{"inputs":[],"name":"getFundingRate","outputs":[{"internalType":"int256","name":"","type":"int256"}],"stateMutability":"view","type":"function"},{"inputs":[],"name":"getFundingState","outputs":[{"components":[{"internalType":"int256","name":"fundingRate","type":"int256"},{"internalType":"uint256","name":"fundingIndex","type":"uint256"},{"internalType":"uint256","name":"lastFundingTime","type":"uint256"},{"internalType":"int256","name":"premiumFraction","type":"int256"}],"internalType":"struct IvAMM.FundingState","name":"","type":"tuple"}],"stateMutability":"view","type":"function"},{"inputs":[],"name":"getMarkPrice","outputs":[{"internalType":"uint256","name":"","type":"uint256"}],"stateMutability":"view","type":"function"},{"inputs":[{"internalType":"address","name":"user","type":"address"}],"name":"getPosition","outputs":[{"components":[{"internalType":"uint256","name":"positionId","type":"uint256"},{"internalType":"int256","name":"size","type":"int256"},{"internalType":"bool","name":"isLong","type":"bool"},{"internalType":"uint256","name":"entryPrice","type":"uint256"},{"internalType":"uint256","name":"entryFundingIndex","type":"uint256"},{"internalType":"uint256","name":"lastInteractionTime","type":"uint256"},{"internalType":"bool","name":"isActive","type":"bool"}],"internalType":"struct IvAMM.Position","name":"","type":"tuple"}],"stateMutability":"view","type":"function"},{"inputs":[{"internalType":"uint256","name":"positionId","type":"uint256"}],"name":"getPosition","outputs":[{"components":[{"internalType":"uint256","name":"positionId","type":"uint256"},{"internalType":"int256","name":"size","type":"int256"},{"internalType":"bool","name":"isLong","type":"bool"},{"internalType":"uint256","name":"entryPrice","type":"uint256"},{"internalType":"uint256","name":"entryFundingIndex","type":"uint256"},{"internalType":"uint256","name":"lastInteractionTime","type":"uint256"},{"internalType":"bool","name":"isActive","type":"bool"}],"internalType":"struct IvAMM.Position","name":"","type":"tuple"}],"stateMutability":"view","type":"function"},{"inputs":[{"internalType":"uint256","name":"size","type":"uint256"},{"internalType":"bool","name":"isLong","type":"bool"}],"name":"getPriceImpact","outputs":[{"internalType":"uint256","name":"","type":"uint256"}],"stateMutability":"view","type":"function"},{"inputs":[],"name":"getReserveInfo","outputs":[{"internalType":"uint256","name":"baseReserves","type":"uint256"},{"internalType":"uint256","name":"quoteReserves","type":"uint256"},{"internalType":"uint256","name":"multiplier","type":"uint256"},{"internalType":"uint256","name":"totalVolume","type":"uint256"}],"stateMutability":"view","type":"function"},{"inputs":[],"name":"getTotalSupply","outputs":[{"internalType":"uint256","name":"","type":"uint256"}],"stateMutability":"view","type":"function"},{"inputs":[{"internalType":"address","name":"user","type":"address"}],"name":"getTotalUnrealizedPnL","outputs":[{"internalType":"int256","name":"","type":"int256"}],"stateMutability":"view","type":"function"},{"inputs":[{"internalType":"uint256","name":"positionId","type":"uint256"}],"name":"getUnrealizedPnL","outputs":[{"internalType":"int256","name":"","type":"int256"}],"stateMutability":"view","type":"function"},{"inputs":[{"internalType":"address","name":"user","type":"address"}],"name":"getUnrealizedPnL","outputs":[{"internalType":"int256","name":"","type":"int256"}],"stateMutability":"view","type":"function"},{"inputs":[{"internalType":"address","name":"user","type":"address"},{"internalType":"uint256","name":"positionId","type":"uint256"}],"name":"getUserPosition","outputs":[{"components":[{"internalType":"uint256","name":"positionId","type":"uint256"},{"internalType":"int256","name":"size","type":"int256"},{"internalType":"bool","name":"isLong","type":"bool"},{"internalType":"uint256","name":"entryPrice","type":"uint256"},{"internalType":"uint256","name":"entryFundingIndex","type":"uint256"},{"internalType":"uint256","name":"lastInteractionTime","type":"uint256"},{"internalType":"bool","name":"isActive","type":"bool"}],"internalType":"struct IvAMM.Position","name":"","type":"tuple"}],"stateMutability":"view","type":"function"},{"inputs":[{"internalType":"address","name":"user","type":"address"}],"name":"getUserPositionIds","outputs":[{"internalType":"uint256[]","name":"","type":"uint256[]"}],"stateMutability":"view","type":"function"},{"inputs":[{"internalType":"address","name":"user","type":"address"}],"name":"getUserPositions","outputs":[{"components":[{"internalType":"uint256","name":"positionId","type":"uint256"},{"internalType":"int256","name":"size","type":"int256"},{"internalType":"bool","name":"isLong","type":"bool"},{"internalType":"uint256","name":"entryPrice","type":"uint256"},{"internalType":"uint256","name":"entryFundingIndex","type":"uint256"},{"internalType":"uint256","name":"lastInteractionTime","type":"uint256"},{"internalType":"bool","name":"isActive","type":"bool"}],"internalType":"struct IvAMM.Position[]","name":"","type":"tuple[]"}],"stateMutability":"view","type":"function"},{"inputs":[{"internalType":"address","name":"user","type":"address"}],"name":"getUserSummary","outputs":[{"internalType":"uint256","name":"totalLongSize","type":"uint256"},{"internalType":"uint256","name":"totalShortSize","type":"uint256"},{"internalType":"int256","name":"totalPnL","type":"int256"},{"internalType":"uint256","name":"activePositionsCount","type":"uint256"}],"stateMutability":"view","type":"function"},{"inputs":[],"name":"globalPositionId","outputs":[{"internalType":"uint256","name":"","type":"uint256"}],"stateMutability":"view","type":"function"},{"inputs":[],"name":"initialMarginRatio","outputs":[{"internalType":"uint256","name":"","type":"uint256"}],"stateMutability":"view","type":"function"},{"inputs":[{"internalType":"uint256","name":"positionId","type":"uint256"}],"name":"liquidate","outputs":[],"stateMutability":"nonpayable","type":"function"},{"inputs":[],"name":"liquidationFeeRate","outputs":[{"internalType":"uint256","name":"","type":"uint256"}],"stateMutability":"view","type":"function"},{"inputs":[],"name":"maintenanceMarginRatio","outputs":[{"internalType":"uint256","name":"","type":"uint256"}],"stateMutability":"view","type":"function"},{"inputs":[{"internalType":"address","name":"","type":"address"}],"name":"nextPositionId","outputs":[{"internalType":"uint256","name":"","type":"uint256"}],"stateMutability":"view","type":"function"},{"inputs":[{"internalType":"uint256","name":"collateralAmount","type":"uint256"},{"internalType":"bool","name":"isLong","type":"bool"},{"internalType":"uint256","name":"leverage","type":"uint256"},{"internalType":"uint256","name":"minPrice","type":"uint256"},{"internalType":"uint256","name":"maxPrice","type":"uint256"}],"name":"openPosition","outputs":[{"internalType":"uint256","name":"positionId","type":"uint256"}],"stateMutability":"nonpayable","type":"function"},{"inputs":[],"name":"oracle","outputs":[{"internalType":"contract IPriceOracle","name":"","type":"address"}],"stateMutability":"view","type":"function"},{"inputs":[],"name":"owner","outputs":[{"internalType":"address","name":"","type":"address"}],"stateMutability":"view","type":"function"},{"inputs":[],"name":"pause","outputs":[],"stateMutability":"nonpayable","type":"function"},{"inputs":[],"name":"paused","outputs":[{"internalType":"bool","name":"","type":"bool"}],"stateMutability":"view","type":"function"},{"inputs":[{"internalType":"uint256","name":"","type":"uint256"}],"name":"positionOwner","outputs":[{"internalType":"address","name":"","type":"address"}],"stateMutability":"view","type":"function"},{"inputs":[{"internalType":"uint256","name":"","type":"uint256"}],"name":"positions","outputs":[{"internalType":"uint256","name":"positionId","type":"uint256"},{"internalType":"int256","name":"size","type":"int256"},{"internalType":"bool","name":"isLong","type":"bool"},{"internalType":"uint256","name":"entryPrice","type":"uint256"},{"internalType":"uint256","name":"entryFundingIndex","type":"uint256"},{"internalType":"uint256","name":"lastInteractionTime","type":"uint256"},{"internalType":"bool","name":"isActive","type":"bool"}],"stateMutability":"view","type":"function"},{"inputs":[],"name":"pumpExponent","outputs":[{"internalType":"uint256","name":"","type":"uint256"}],"stateMutability":"view","type":"function"},{"inputs":[{"internalType":"address","name":"account","type":"address"}],"name":"removeAuthorized","outputs":[],"stateMutability":"nonpayable","type":"function"},{"inputs":[],"name":"startingPrice","outputs":[{"internalType":"uint256","name":"","type":"uint256"}],"stateMutability":"view","type":"function"},{"inputs":[],"name":"totalLongSize","outputs":[{"internalType":"int256","name":"","type":"int256"}],"stateMutability":"view","type":"function"},{"inputs":[],"name":"totalShortSize","outputs":[{"internalType":"int256","name":"","type":"int256"}],"stateMutability":"view","type":"function"},{"inputs":[],"name":"totalTradingFees","outputs":[{"internalType":"uint256","name":"","type":"uint256"}],"stateMutability":"view","type":"function"},{"inputs":[],"name":"tradingFeeRate","outputs":[{"internalType":"uint256","name":"","type":"uint256"}],"stateMutability":"view","type":"function"},{"inputs":[{"internalType":"address","name":"newOwner","type":"address"}],"name":"transferOwnership","outputs":[],"stateMutability":"nonpayable","type":"function"},{"inputs":[],"name":"unpause","outputs":[],"stateMutability":"nonpayable","type":"function"},{"inputs":[{"internalType":"uint256","name":"_baseVirtualBaseReserves","type":"uint256"},{"internalType":"uint256","name":"_baseVirtualQuoteReserves","type":"uint256"}],"name":"updateBaseVirtualReserves","outputs":[],"stateMutability":"nonpayable","type":"function"},{"inputs":[{"internalType":"uint256","name":"_newSteepness","type":"uint256"},{"internalType":"uint256","name":"_newExponent","type":"uint256"}],"name":"updateBondingCurveParams","outputs":[],"stateMutability":"nonpayable","type":"function"},{"inputs":[{"internalType":"uint256","name":"_volumeScaleFactor","type":"uint256"},{"internalType":"uint256","name":"_minReserveMultiplier","type":"uint256"},{"internalType":"uint256","name":"_maxReserveMultiplier","type":"uint256"}],"name":"updateDynamicReservesParams","outputs":[],"stateMutability":"nonpayable","type":"function"},{"inputs":[],"name":"updateFunding","outputs":[],"stateMutability":"nonpayable","type":"function"},{"inputs":[{"internalType":"uint256","name":"_ratio","type":"uint256"}],"name":"updateMaintenanceMarginRatio","outputs":[],"stateMutability":"nonpayable","type":"function"},{"inputs":[{"internalType":"uint256","name":"_feeRate","type":"uint256"}],"name":"updateTradingFeeRate","outputs":[],"stateMutability":"nonpayable","type":"function"},{"inputs":[{"internalType":"address","name":"","type":"address"},{"internalType":"uint256","name":"","type":"uint256"}],"name":"userPositionIds","outputs":[{"internalType":"uint256","name":"","type":"uint256"}],"stateMutability":"view","type":"function"},{"inputs":[],"name":"vault","outputs":[{"internalType":"contract IVault","name":"","type":"address"}],"stateMutability":"view","type":"function"},{"inputs":[],"name":"virtualBaseReserves","outputs":[{"internalType":"uint256","name":"","type":"uint256"}],"stateMutability":"view","type":"function"},{"inputs":[],"name":"virtualQuoteReserves","outputs":[{"internalType":"uint256","name":"","type":"uint256"}],"stateMutability":"view","type":"function"},{"inputs":[{"internalType":"uint256","name":"amount","type":"uint256"}],"name":"withdrawTradingFees","outputs":[],"stateMutability":"nonpayable","type":"function"}],"evm":{"bytecode":{"linkReferences":{},"object":"6080346200016557601f6200389038819003918201601f19168301916001600160401b038311848410176200016a5780849260609460405283398101031262000165576200004d8162000180565b9060406200005e6020830162000180565b91015191601e6003556101f4806004556005556103e86006556710a741a46278000060085560ff196018541660185560018060a01b0319913383600054161760005560018060a01b03809216836001541617600155169060025416176002556007557f1551b5180ce27b1b0d183046bbf7f4ed792368fa907dcaa0e08d22c5e8b145126060620000ed620001bf565b620000f76200029d565b80156200015057670de0b6b3a76400006200011883835b8060095562000195565b04600a55604051918252602082015260006040820152a142600d556305f5e100600c5560016013556040516135e09081620002b08239f35b670de0b6b3a76400006200011883826200010e565b600080fd5b634e487b7160e01b600052604160045260246000fd5b51906001600160a01b03821682036200016557565b81810292918115918404141715620001a957565b634e487b7160e01b600052601160045260246000fd5b620001c96200029d565b80156200029657670de0b6b3a7640000908181029081048203620001a95781900480820190818311620001a9576000918381116200023c57505050805b6007546103e892838202938285041482151715620001a957620002299162000195565b048181111562000237575090565b905090565b81116200028257600c810290808204600c14901517156200028257600a90048201908183116200026e57509062000206565b634e487b7160e01b81526011600452602490fd5b634e487b7160e01b82526011600452602482fd5b5060075490565b6015546000808213156200023757509056fe608060408181526004918236101561001657600080fd5b60009260e08435811c928363036ae3541461293c575082630f2590131461291b578263135a9c811461286e578263165ce8db1461277957826316c19739146127495782631c88ef1e146126e15782631ebf4eb5146126c55782632a6bc2dd14612495578263334ef7291461247557826334c1557d146124585782633f4ba83a14612402578263415f1240146121bd578263485d7d941461214d57826349a659381461212d5782634ae13fa31461203e57826353906a0f14611f73578263544305bf14611ee157826355efb28714611ec35782635af5bfd614611e395782635bf804af14611e195782635c975abb14611df45782635ef54f3614611b775782635fb3b1b514611b585782636040963214611b3a57826368288678146119965782636e33531b146116005782637199344f146111b55782637a6841c3146115e25782637b6eb9b61461158b5782637dc0d1d0146115615782637e6a6f671461142457826383a4098a1461140557826383acb48a146113e55782638456cb591461138c5782638da5cb5b146113635782638fbd0c2d146111ba57826395082d25146111b557826395196f7e1461119557826398f89b2f1461117557826399fbab88146111035782639b45ec97146110e6578263a0640c83146110c6578263ac0815ac14610fba578263ae43509a14610f9a578263b25cdccf14610f60578263b3060d3614610f2c578263b31d659e14610e63578263b918161114610e24578263bf6268f214610e04578263c4e41b2214610de6578263cf1c316a14610d32578263cffab08d14610bd6578263d2e7b97814610ba6578263d6fbf20214610b86578263d97e25bc14610b66578263e01df1a814610b46578263e1f1c4a714610b28578263eaf1f1e6146107ff578263eb02c3011461077757508163eddf7570146105de578163edf1a21f14610564578163eeb07069146104b6578163efc339c814610434578163f257b32e14610415578163f2fde38b1461038957508063f40f2a791461036c578063fbfa77cf146103445763ffe777bd1461031357600080fd5b34610340578160031936011261034057806000608092519181835281602084015282015260006060820152f35b5080fd5b503461034057816003193601126103405760015490516001600160a01b039091168152602090f35b503461034057816003193601126103405760209051620f42408152f35b905034610411576020366003190112610411576103a4612970565b835491906001600160a01b03906103be3383861614612c79565b169283156103d85750506001600160a01b03191617815580f35b906020606492519162461bcd60e51b835282015260136024820152723b20a6a69d1034b73b30b634b21037bbb732b960691b6044820152fd5b8280fd5b5050346103405781600319360112610340576020906013549051908152f35b8284346104b357806003193601126104b35761044e612aa4565b916007549061045b612b74565b90600854926103e8948582029582870414821517156104a0575060c0965081519586526020860152840152670de0b6b3a76400006060840152608083015260a0820152f35b634e487b7160e01b815260118852602490fd5b80fd5b905034610411576020366003190112610411578035906104e060018060a01b038554163314612c79565b6103e8821161052c575060008051602061358b8339815191529181608092600355600e8251928084528301526d74726164696e674665655261746560901b60608301526020820152a180f35b606490602084519162461bcd60e51b835282015260126024820152710ec829a9a7440cccaca40e8dede40d0d2ced60731b6044820152fd5b5050346103405781600319360112610340576080916060825161058681612d84565b8281528260208201528284820152015280516105a181612d84565b600b5491828252600c5460208301908152600d54908284019182526060600e54940193845282519485525160208501525190830152516060820152f35b8284346104b357602080600319360112610340576001600160a01b03610602612970565b16825260108152828220918351808484829654938481520190845284842092845b868282106107615750505061063a92500384612da0565b8091815b845181101561068a576106518186613276565b518352600f825260ff6006878520015416610675575b61067090612e58565b61063e565b9261068261067091612e58565b939050610667565b509183856106af61069a8461328a565b936106a783519586612da0565b80855261328a565b8386019490601f19013686378095815b8451811015610721576106d28186613276565b518352600f825260ff60068585200154166106f6575b6106f190612e58565b6106bf565b966107196106f1916107088a88613276565b51610713828a613276565b52612e58565b9790506106e8565b508251818152855181830181905290938493908401928892915b82811061074a57505050500390f35b83518552869550938101939281019260010161073b565b8554845260019586019589955093019201610623565b908385346104b35760203660031901126104b3579060ff6006826107fd9461079d6131f2565b5086358152600f602052208351956107b487612d3e565b815487526001820154602088015283600283015416151585880152600382015460608801528101546080870152600581015460a0870152015416151560c084015251809261299c565bf35b848285346104115760a036600319011261041157813561081d6129e1565b60443561082f60ff6018541615612cb7565b61083a831515613324565b600181101580610b1d575b61084e90613370565b610856612f58565b6108608184612a41565b610868612aa4565b9160643583101580610b11575b61087e906133b5565b8764e8d4a5100061089f61271061089760035487612a41565b048098612a8a565b600154919004906001600160a01b0316803b15610411578851630ead3e9960e31b815233818c019081526020810193909352918391839182908490829060400103925af18015610b0757610aef575b5050601354966108fd88612e58565b6013558415610adb5761091283601554612f3c565b6015555b61091e612ddb565b600c5498875161092d81612d3e565b898152896020809c8b828501898152818601908c1515825260608701928c84526080880194855260a088019542875260c0890197600189528a52600f90528820965187555160018701555115156002860190610994919060ff801983541691151516179055565b516003850155518584015551600583015551151590600601906109c2919060ff801983541691151516179055565b60118a52878120336bffffffffffffffffffffffff60a01b82541617905533815260108a528781209081549268010000000000000000841015610ac85750508689969593610a5888610a3f86610a959660017f345a1e15bff227bfd5051975d95c864c45cf9fe79def6f9ce1c1525b0e8312269b99018155612a13565b90919082549060031b91821b91600019901b1916179055565b610a6482601754612a8a565b60175589519485943398869192608093969594919660a0840197151584526020840152604083015260608201520152565b0390a381519081527f4b85f139405492fb78333512610ba07ed1e0c3fb2417f208a9aae27dc3843e6a843392a251908152f35b634e487b7160e01b825260419052602490fd5b610ae783601654612f3c565b601655610916565b610af890612d70565b610b035787896108ee565b8780fd5b88513d84823e3d90fd5b50608435831115610875565b506064811115610845565b50505034610340578160031936011261034057602090516127108152f35b505050346103405781600319360112610340576020906003549051908152f35b505050346103405781600319360112610340576020906006549051908152f35b505050346103405781600319360112610340576020906007549051908152f35b508284346104b357816003193601126104b35750610bcf602092610bc86129e1565b9035612b85565b9051908152f35b5090503461041157606036600319011261041157803590602435610c0460018060a01b038654163314612c79565b8215610ce5578015610ca2576044351115610c5f575081608091601560008051602061358b8339815191529451928084528301527464796e616d69635265736572766573506172616d7360581b60608301526020820152a180f35b606490602084519162461bcd60e51b8352820152601c60248201527f76414d4d3a20696e76616c6964206d6178206d756c7469706c696572000000006044820152fd5b835162461bcd60e51b8152602081840152601c60248201527f76414d4d3a20696e76616c6964206d696e206d756c7469706c696572000000006044820152606490fd5b835162461bcd60e51b8152602081840152602160248201527f76414d4d3a20696e76616c696420766f6c756d65207363616c6520666163746f6044820152603960f91b6064820152608490fd5b8482853461041157602036600319011261041157610d4e612970565b83546001600160a01b039190610d679083163314612c79565b16918215610dac575081835260146020528220805460ff191660011790557fdd10d14f6ac19e913d4edbb11fd30661531e2ccd0d23f571e9b224f001f0dd068280a280f35b6020606492519162461bcd60e51b8352820152601560248201527476414d4d3a20696e76616c6964206164647265737360581b6044820152fd5b50505034610340578160031936011261034057602090610bcf612b74565b505050346103405781600319360112610340576020906016549051908152f35b505050346103405760203660031901126103405760209160ff9082906001600160a01b03610e50612970565b1681526014855220541690519015158152f35b5090503461041157610e7436612986565b610e8b60018060a09594951b038654163314612c79565b8215159081610f22575b5015610edf575081608091601360008051602061358b83398151915294519280845283015272626173655669727475616c526573657276657360681b60608301526020820152a180f35b606490602084519162461bcd60e51b8352820152601b60248201527f76414d4d3a20696e76616c6964206261736520726573657276657300000000006044820152fd5b9050151538610e95565b509050346104115760203660031901126104115735825260116020908152918190205490516001600160a01b039091168152f35b50505034610340578160031936011261034057608090600b5490600c5490600d5490600e5492815194855260208501528301526060820152f35b505050346103405781600319360112610340576020906009549051908152f35b5090503461041157602036600319011261041157803590610fe560018060a01b038554163314612c79565b60ff601854161561108c578115611049575060008051602061358b8339815191529181608092600755846015558460165561101e612ddb565b600e8251928084528301526d195b595c99d95b98de54995cd95d60921b60608301526020820152a180f35b606490602084519162461bcd60e51b8352820152601c60248201527f76414d4d3a20696e76616c6964207374617274696e67207072696365000000006044820152fd5b606490602084519162461bcd60e51b835282015260146024820152731d9053534e881b5d5cdd081899481c185d5cd95960621b6044820152fd5b50505034610340578160031936011261034057602090600a549051908152f35b505050346103405781600319360112610340576020905160648152f35b838286346104b35760203660031901126104b357829082358152600f6020522080549260018201549260ff600284015416916003840154918401549260ff600660058701549601541695825197885260208801521515908601526060850152608084015260a0830152151560c0820152f35b50505034610340578160031936011261034057602090516305f5e1008152f35b50505034610340578160031936011261034057602090600b549051908152f35b6129f0565b508383346103405760209081600319360112610411576111d8612970565b90839184918596869260018060a01b0316875260108652818720958251808883829a549384815201908b52838b20928b5b8582821061134d5750505061122092500388612da0565b875b875181101561132e576112358189613276565b518952600f825283892060ff908160068201541661125e575b505061125990612e58565b611222565b909a9561126d90989298612e58565b95611278898b613276565b5190865191630f25901360e01b8352868301528482602481305afa908115611324578c916112ee575b6112ab9250612f3c565b9a6002820154166000146112d4576112599160016112cb92015490612a8a565b965b908b61124e565b61125991979660016112e892015490612a8a565b956112cd565b90508482813d831161131d575b6113058183612da0565b81010312611318576112ab9151906112a1565b600080fd5b503d6112fb565b87513d8e823e3d90fd5b835187815260208101879052604081018b905260608101869052608090f35b855484526001958601958d955093019201611209565b50505034610340578160031936011261034057905490516001600160a01b039091168152602090f35b84346104b357806003193601126104b3576113b160018060a01b038254163314612c79565b600160ff1960185416176018557f9e87fac88ff661f02d44f95383c817fece4bce600a3dab7a54406878b965e7528180a180f35b505050346103405781600319360112610340576020906005549051908152f35b8385346104b357806003193601126104b3578151908082526020820152f35b84828534610411576020918260031936011261155d576001600160a01b0361144a612970565b16845260108352818420928251808583829754938481520190885283882092885b858282106115475750505061148292500385612da0565b84805b855181101561153e576114988187613276565b518252600f835260ff60068684200154166114bc575b6114b790612e58565b611485565b956114c78787613276565b51855190630f25901360e01b8252858201528381602481305afa908115611534578391611505575b506114fd906114b792612f3c565b9690506114ae565b90508381813d831161152d575b61151c8183612da0565b8101031261131857516114b76114ef565b503d611512565b86513d85823e3d90fd5b82878651908152f35b855484526001958601958a95509301920161146b565b8380fd5b5050503461034057816003193601126103405760025490516001600160a01b039091168152602090f35b505050346103405780600319360112610340576115a6612970565b6001600160a01b031682526010602052808220805460243593908410156104b357506020926115d491612a13565b91905490519160031b1c8152f35b50505034610340578160031936011261034057602090516103e88152f35b84828534610411576080366003190112610411578135926024359361162a60ff6018541615612cb7565b808252602094600f865261164660ff6006868620015416612cf2565b81835260118652838320546001600160a01b0390611667908216331461322a565b828452600f8752848420936001850196875480851161195e57611688612f58565b611691866130a0565b611699612aa4565b9360443585101580611952575b6116af906133b5565b600288015460ff1697881561193157670de0b6b3a76400006116de6116d8600384015489612a97565b89612a41565b049a5b6127106116f06003548a612a41565b04991561191d5761170388601554612dc2565b6015555b61170f612ddb565b8784036119055750600601805460ff1916905561172c8733612e67565b806001541661173b898c612dc2565b813b15611901578591604483928d519485938492630196c4ad60e71b8452338b85015260248401525af180156118e3579085916118ed575b505060015416908851620af05960e21b81523384820152608081602481865afa9081156118e35787918d918791611875575b5001516117bb92916117b691612a41565b612a6a565b91813b1561155d578851639101e5b360e01b81523391810191825260208201939093528391839182908490829060400103925af1801561186b5790889291611853575b50507f035509dd26c2d331b2eeaf713e533967ac9e8a0c5e37372abc7dedd026e816759161182e86601754612a8a565b6017558651938452602084015260408301526060820184905233918060808101610a95565b81925061185f90612d70565b6104b3578087916117fe565b87513d84823e3d90fd5b925050506080813d82116118db575b8161189160809383612da0565b810103126118d757906117b6878d8c60606117bb968251926118b284612d84565b81518452848201518585015280820151908401520151606082015291939450916117a5565b8480fd5b3d9150611884565b8a513d87823e3d90fd5b6118f690612d70565b61155d57838c611773565b8580fd5b611910888254612dc2565b905560054291015561172c565b61192988601654612dc2565b601655611707565b670de0b6b3a764000061194b6116d8886003850154612a97565b049a6116e1565b506064358511156116a6565b875162461bcd60e51b81528083018b9052601260248201527176414d4d3a20696e76616c69642073697a6560701b6044820152606490fd5b5090503461041157610100366003190112610411576119b3612970565b916024359260443590811515820361131857606435908115158203611318576084359260a43560c4359160e43593338b52601460205260ff888c2054168015611b27575b15611aed576001600160a01b0316978815611ab5575015611a6b5790611a6592917f345a1e15bff227bfd5051975d95c864c45cf9fe79def6f9ce1c1525b0e8312269651958695869192608093969594919660a0840197151584526020840152604083015260608201520152565b0390a380f35b9451938452602084019490945260408301939093525060608101919091527f035509dd26c2d331b2eeaf713e533967ac9e8a0c5e37372abc7dedd026e81675908060808101611a65565b606490602089519162461bcd60e51b835282015260126024820152713b20a6a69d1034b73b30b634b2103ab9b2b960711b6044820152fd5b875162461bcd60e51b81526020818b015260146024820152731d9053534e881b9bdd08185d5d1a1bdc9a5e995960621b6044820152606490fd5b508a546001600160a01b031633146119f7565b50505034610340578160031936011261034057602090610bcf612aa4565b5090503461041157826003193601126104115760209250549051908152f35b508383346103405760a036600319011261034057823560243590604435611ba360ff6018541615612cb7565b818552600f602052611bbd60ff6006868820015416612cf2565b8185526011602052838520546001600160a01b039590611be0908716331461322a565b611beb841515613324565b600182101580611de9575b611bff90613370565b828152600f602052611c2585822092611c16612f58565b611c1f856130a0565b85612a41565b91611c2e612aa4565b9660643588101580611ddd575b611c44906133b5565b64e8d4a51000611c5c61271061089760035488612a41565b049060015416803b1561155d578751630ead3e9960e31b815233818c019081526020810193909352918491839182908490829060400103925af18015611dd357908391611dbf575b5050600281015460ff1615611dab57611cbf83601554612f3c565b6015555b611ccb612ddb565b60018101968754906003830193611d04670de0b6b3a76400009283611cfd81611cf58a5489612a41565b04928a612a41565b0490612a8a565b828102928184041490151715611d9857506020995091611d5d8583611d568a96611d50847f2337e687da16f7f70de054ec6c6f96c9faaeac16ca3fe6b873cf017380f578a89a98612a8a565b90612a6a565b8555612f3c565b809955600542910155611d7282601754612a8a565b601755548651938452602084018890526040840152606083015233918060808101610a95565b634e487b7160e01b815260118b52602490fd5b611db783601654612f3c565b601655611cc3565b611dc890612d70565b610340578189611ca4565b87513d85823e3d90fd5b50608435881115611c3b565b506064821115611bf6565b5050503461034057816003193601126103405760209060ff6018541690519015158152f35b505050346103405781600319360112610340576020906015549051908152f35b8385833461034057602036600319011261034057803590611e6460018060a01b038454163314612c79565b60175490818311611e80575090611e7a91612a97565b60175580f35b606490602086519162461bcd60e51b8352820152601760248201527f76414d4d3a20696e73756666696369656e7420666565730000000000000000006044820152fd5b5050503461034057816003193601126103405760209051610e108152f35b50838334610340576020928360031936011261041157611eff612970565b8251637e6a6f6760e01b81526001600160a01b03909116918101919091528381602481305afa928315611f685792611f39575b5051908152f35b9091508281813d8311611f61575b611f518183612da0565b8101031261131857519083611f32565b503d611f47565b8251903d90823e3d90fd5b5090503461041157602036600319011261041157803590611f9e60018060a01b038554163314612c79565b606482101580612032575b15611ff9575060008051602061358b83398151915291816080926005556016825192808452830152756d61696e74656e616e63654d617267696e526174696f60501b60608301526020820152a180f35b606490602084519162461bcd60e51b8352820152601360248201527276414d4d3a20696e76616c696420726174696f60681b6044820152fd5b506107d0821115611fa9565b508284346104b35760203660031901126104b35782359061205d612b74565b9081831015612124575b61207983612073612aa4565b93612a97565b90816120b057505060209350670de0b6b3a76400009161209f6120a89260075490612a8a565b60011c90612a41565b049051908152f35b670de0b6b3a7640000918281029081048303612111578290048201908183116120fe5750602095506120a892670de0b6b3a76400009492611cfd6120f661209f94612c2d565b600754612a41565b634e487b7160e01b815260118752602490fd5b634e487b7160e01b825260118752602482fd5b91508091612067565b505050346103405781600319360112610340576020906017549051908152f35b5050503461034057602036600319011261034057612169612970565b82546001600160a01b0391906121829083163314612c79565b168083526014602052908220805460ff191690557f0fafd0343e6c6f6985727574866da48938c918559eb9521cf9cc0d317ea0f7b48280a280f35b848285346104115760208060031936011261155d578235916121e460ff6018541615612cb7565b828552600f82526121fd60ff6006838820015416612cf2565b828552601182528085205460015460055483516359cffb9b60e11b81526001600160a01b039384168882018181526020810193909352959394939290918391839182900360400190829088165afa9081156123f85788916123c2575b501561238757848752600f815281872090600182015496612278612f58565b612281876130a0565b8861271061229083548b612a41565b049560ff600286015416600014612373576122ad8a601554612dc2565b6015555b6122b9612ddb565b60066122c3612aa4565b9501805460ff191690556122d78989612e67565b6001541691823b1561034057855163bcbaf48760e01b81526001600160a01b0389169181019182526020820188905292839182908490829060400103925af1801561236957612356575b5082519687528601528401527feb125fc2316e55999aaacc483aa145655b8032d8bce094f8a17174ed9994d9d760603394a480f35b61236290989198612d70565b9688612321565b84513d8b823e3d90fd5b61237f8a601654612dc2565b6016556122b1565b8590606492519162461bcd60e51b8352820152601660248201527576414d4d3a2063616e6e6f74206c697175696461746560501b6044820152fd5b90508181813d83116123f1575b6123d98183612da0565b81010312610b0357518015158103610b035788612259565b503d6123cf565b83513d8a823e3d90fd5b84346104b357806003193601126104b35761242760018060a01b038254163314612c79565b60ff19601854166018557fa45f47fdea8a1efdd9029a5691c7f759c32b7c698632b563573e155625d169338180a180f35b505050346103405781600319360112610340576020905160018152f35b505050346103405781600319360112610340576020906008549051908152f35b9150913461155d576020806003193601126118d7576001600160a01b036124ba612970565b168552601081528185208251808284829454938481520190895284892092895b868282106126af575050506124f192500382612da0565b8593865b8251811015612541576125088184613276565b518852600f845260ff6006868a2001541661252c575b61252790612e58565b6124f5565b9461253961252791612e58565b95905061251e565b5094908693946125508161328a565b9061255d87519283612da0565b80825261256c601f199161328a565b0184865b828110612699575050508493855b835181101561264b576125918185613276565b518752600f80835260ff60069181838c8c200154166125bc575b5050506125b790612e58565b61257e565b91839891612642936125d16125b7968a613276565b518c5286528b8b20918c51926125e684612d3e565b805484526001810154888501526002810154831615158e850152600381015460608501528a8101546080850152600581015460a0850152015416151560c08201526126318287613276565b5261263c8186613276565b50612e58565b95908a806125ab565b875182815283518184018190528190818b019086860190868c8f5b8382106126735786860387f35b918496508286612689600194969884985161299c565b0196019201869594929391612666565b6126a16131f2565b828286010152018590612570565b85548452600195860195879550930192016124da565b84346104b357806003193601126104b3576126de612f58565b80f35b908385346104b357816003193601126104b3579060ff6006826107fd94612706612970565b612735602435916127156131f2565b508284526011602052848420546001600160a01b0391821691161461322a565b8152600f602052208351956107b487612d3e565b8385346104b35760203660031901126104b357506107fd61277061276b612970565b6133f8565b9151809261299c565b509050346104115761278a36612986565b6127a160018060a09594951b038654163314612c79565b821561282b57156127ef575081608091601260008051602061358b83398151915294519280845283015271626f6e64696e674375727665506172616d7360701b60608301526020820152a180f35b606490602084519162461bcd60e51b835282015260166024820152751d9053534e881a5b9d985b1a5908195e1c1bdb995b9d60521b6044820152fd5b835162461bcd60e51b8152602081840152601760248201527f76414d4d3a20696e76616c69642073746565706e6573730000000000000000006044820152606490fd5b508284346104b35760203660031901126104b357823561288c612b74565b61289e82612898612aa4565b92612a8a565b92670de0b6b3a76400009384810290808204861490151715612111578490048401808511612111576128cf90612c2d565b90846128de6007549384612a41565b04906103e8928381029381850414901517156104a05750602096506120a8939261209f92909181811115612913575090612a8a565b905090612a8a565b508284346104b35760203660031901126104b35750610bcf602092356132a2565b85908534610411576020366003190112610411576020926001600160a01b03612963612970565b1681526012845220548152f35b600435906001600160a01b038216820361131857565b6040906003190112611318576004359060243590565b60c080918051845260208101516020850152604081015115156040850152606081015160608501526080810151608085015260a081015160a085015201511515910152565b60243590811515820361131857565b34611318576000366003190112611318576020604051670de0b6b3a76400008152f35b8054821015612a2b5760005260206000200190600090565b634e487b7160e01b600052603260045260246000fd5b81810292918115918404141715612a5457565b634e487b7160e01b600052601160045260246000fd5b8115612a74570490565b634e487b7160e01b600052601260045260246000fd5b91908201809211612a5457565b91908203918211612a5457565b612aac612b74565b8015612b6d57670de0b6b3a7640000908181029081048203612a545781900480820190818311612a5457600091838111612b1757505050805b6007546103e892838202938285041482151715612a5457612b0591612a41565b0481811115612b12575090565b905090565b8111612b5957600c810290808204600c1490151715612b5957600a9004820190818311612b45575090612ae5565b634e487b7160e01b81526011600452602490fd5b634e487b7160e01b82526011600452602482fd5b5060075490565b601554600080821315612b12575090565b9015612c2757612ba4612b96612aa4565b91612b9f612b74565b612a8a565b670de0b6b3a76400009081810290808204831490151715612a54578190048101808211612a5457612bd490612c2d565b90612be26007549283612a41565b046103e891828102928184041490151715612a545781811115612c1f5750905b60009181811115612c1a57612c179250612a97565b90565b505090565b905090612c02565b50600090565b670de0b6b3a76400009081811115612c7557670de0b6b3a763ffff198101908111612a5457600c810290808204600c1490151715612a5457600a90048101809111612a545790565b5090565b15612c8057565b60405162461bcd60e51b815260206004820152600f60248201526e3b20a6a69d103737ba1037bbb732b960891b6044820152606490fd5b15612cbe57565b60405162461bcd60e51b815260206004820152600c60248201526b1d9053534e881c185d5cd95960a21b6044820152606490fd5b15612cf957565b60405162461bcd60e51b815260206004820152601960248201527f76414d4d3a20706f736974696f6e206e6f7420616374697665000000000000006044820152606490fd5b60e0810190811067ffffffffffffffff821117612d5a57604052565b634e487b7160e01b600052604160045260246000fd5b67ffffffffffffffff8111612d5a57604052565b6080810190811067ffffffffffffffff821117612d5a57604052565b90601f8019910116810190811067ffffffffffffffff821117612d5a57604052565b81810392916000138015828513169184121617612a5457565b7f1551b5180ce27b1b0d183046bbf7f4ed792368fa907dcaa0e08d22c5e8b145126060612e06612aa4565b612e0e612b74565b8015612e4557670de0b6b3a7640000612e2c83835b80600955612a41565b04600a55604051918252602082015260006040820152a1565b670de0b6b3a7640000612e2c8382612e23565b6000198114612a545760010190565b6001600160a01b03166000908152601060205260408120909190825b815480821015612f35578390612e998385612a13565b929054600393841b1c14612eb7575050612eb290612e58565b612e83565b929350939060001992838101908111612f215790610a3f612edb612ee89387612a13565b905490881b1c9186612a13565b8254908115612f0d5750810192612eff8484612a13565b81939154921b1b1916905555565b634e487b7160e01b81526031600452602490fd5b634e487b7160e01b83526011600452602483fd5b5050505050565b91909160008382019384129112908015821691151617612a5457565b600d54610e108101809111612a5457421061309e57612f75612aa4565b600254604051634c6afee560e11b815290602090829060049082906001600160a01b03165afa90811561309257600091613061575b506305f5e10091828102928184041490151715612a5457612fca91612a6a565b6305f5e0ff198101908113600116612a54577fd0794ac40e87e336e6e652e1eef2cdb3793d91f30dcc09a45d18db669a686b9490606090620f424060188205818113156130435750905b81600b5580600e5542600d5561302c82600c54612f3c565b80600c5560405192835260208301526040820152a1565b919050620f423f19808312613059575b50613014565b915038613053565b906020823d821161308a575b8161307a60209383612da0565b810103126104b357505138612faa565b3d915061306d565b6040513d6000823e3d90fd5b565b90600091808352600f60205260408084209060ff6006830154161580156131e6575b6131df57600c5491600481016130d9815485612a97565b80156131d55760026305f5e1006130f660ff936001870154612a41565b04930154166131ad575b8487526011602052828720546001546001600160a01b03918216958992909116803b15610411576064839287519485938492635969f96b60e01b84528b600485015289602485015260448401525af180156131a3577fc86c3274d0eb50daaa9786e84b032f4ee9f7c878dfc21d805b52cadc5ff4a1b09596979850613194575b50600c5480915582519182526020820152a3565b61319d90612d70565b38613180565b84513d8a823e3d90fd5b90600160ff1b81146131c157860390613100565b634e487b7160e01b87526011600452602487fd5b5050505050509050565b5050509050565b506001820154156130c2565b604051906131ff82612d3e565b8160c06000918281528260208201528260408201528260608201528260808201528260a08201520152565b1561323157565b60405162461bcd60e51b815260206004820152601860248201527f76414d4d3a206e6f7420706f736974696f6e206f776e657200000000000000006044820152606490fd5b8051821015612a2b5760209160051b010190565b67ffffffffffffffff8111612d5a5760051b60200190565b600052600f602052604060002060ff600682015416158015613318575b612c2757670de0b6b3a7640000906132d5612aa4565b9060018101549060ff600282015416600014613307576133039260036132fd92015490612a97565b90612a41565b0490565b6133039260036132fd920154612a97565b506001810154156132bf565b1561332b57565b60405162461bcd60e51b815260206004820152601860248201527f76414d4d3a20696e76616c696420636f6c6c61746572616c00000000000000006044820152606490fd5b1561337757565b60405162461bcd60e51b815260206004820152601660248201527576414d4d3a20696e76616c6964206c6576657261676560501b6044820152606490fd5b156133bc57565b60405162461bcd60e51b815260206004820152601460248201527376414d4d3a20707269636520736c69707061676560601b6044820152606490fd5b6134006131f2565b5060009060018060a01b031681526020601081526040918281208351808285829454938481520190855285852092855b878282106135745750505061344792500382612da0565b80511561353b57815b81518110156134f7576134638183613276565b518352600f80855260ff90600690828289882001541661348e5750505061348990612e58565b613450565b909491959693849361349f91613276565b518252865220908051946134b286612d3e565b82548652600183015490860152836002830154161515908501526003810154606085015260048101546080850152600581015460a0850152015416151560c082015290565b845162461bcd60e51b815260048101859052601860248201527f76414d4d3a206e6f2061637469766520706f736974696f6e00000000000000006044820152606490fd5b835162461bcd60e51b815260048101849052601260248201527176414d4d3a206e6f20706f736974696f6e7360701b6044820152606490fd5b855484526001958601958795509301920161343056fe952177133a28eea5034c93c6c70c1a8d223da94faaa45da8412c3c791111137fa2646970667358221220ed1eecdb628e7718fe3281f014d1cd3781dc70ea972c3726b4f7a7d6e53ce61764736f6c63430008140033","opcodes":"PUSH1 0x80 CALLVALUE PUSH3 0x165 JUMPI PUSH1 0x1F PUSH3 0x3890 CODESIZE DUP2 SWAP1 SUB SWAP2 DUP3 ADD PUSH1 0x1F NOT AND DUP4 ADD SWAP2 PUSH1 0x1 PUSH1 0x1 PUSH1 0x40 SHL SUB DUP4 GT DUP5 DUP5 LT OR PUSH3 0x16A JUMPI DUP1 DUP5 SWAP3 PUSH1 0x60 SWAP5 PUSH1 0x40 MSTORE DUP4 CODECOPY DUP2 ADD SUB SLT PUSH3 0x165 JUMPI PUSH3 0x4D DUP2 PUSH3 0x180 JUMP JUMPDEST SWAP1 PUSH1 0x40 PUSH3 0x5E PUSH1 0x20 DUP4 ADD PUSH3 0x180 JUMP JUMPDEST SWAP2 ADD MLOAD SWAP2 PUSH1 0x1E PUSH1 0x3 SSTORE PUSH2 0x1F4 DUP1 PUSH1 0x4 SSTORE PUSH1 0x5 SSTORE PUSH2 0x3E8 PUSH1 0x6 SSTORE PUSH8 0x10A741A462780000 PUSH1 0x8 SSTORE PUSH1 0xFF NOT PUSH1 0x18 SLOAD AND PUSH1 0x18 SSTORE PUSH1 0x1 DUP1 PUSH1 0xA0 SHL SUB NOT SWAP2 CALLER DUP4 PUSH1 0x0 SLOAD AND OR PUSH1 0x0 SSTORE PUSH1 0x1 DUP1 PUSH1 0xA0 SHL SUB DUP1 SWAP3 AND DUP4 PUSH1 0x1 SLOAD AND OR PUSH1 0x1 SSTORE AND SWAP1 PUSH1 0x2 SLOAD AND OR PUSH1 0x2 SSTORE PUSH1 0x7 SSTORE PUSH32 0x1551B5180CE27B1B0D183046BBF7F4ED792368FA907DCAA0E08D22C5E8B14512 PUSH1 0x60 PUSH3 0xED PUSH3 0x1BF JUMP JUMPDEST PUSH3 0xF7 PUSH3 0x29D JUMP JUMPDEST DUP1 ISZERO PUSH3 0x150 JUMPI PUSH8 0xDE0B6B3A7640000 PUSH3 0x118 DUP4 DUP4 JUMPDEST DUP1 PUSH1 0x9 SSTORE PUSH3 0x195 JUMP JUMPDEST DIV PUSH1 0xA SSTORE PUSH1 0x40 MLOAD SWAP2 DUP3 MSTORE PUSH1 0x20 DUP3 ADD MSTORE PUSH1 0x0 PUSH1 0x40 DUP3 ADD MSTORE LOG1 TIMESTAMP PUSH1 0xD SSTORE PUSH4 0x5F5E100 PUSH1 0xC SSTORE PUSH1 0x1 PUSH1 0x13 SSTORE PUSH1 0x40 MLOAD PUSH2 0x35E0 SWAP1 DUP2 PUSH3 0x2B0 DUP3 CODECOPY RETURN JUMPDEST PUSH8 0xDE0B6B3A7640000 PUSH3 0x118 DUP4 DUP3 PUSH3 0x10E JUMP JUMPDEST PUSH1 0x0 DUP1 REVERT JUMPDEST PUSH4 0x4E487B71 PUSH1 0xE0 SHL PUSH1 0x0 MSTORE PUSH1 0x41 PUSH1 0x4 MSTORE PUSH1 0x24 PUSH1 0x0 REVERT JUMPDEST MLOAD SWAP1 PUSH1 0x1 PUSH1 0x1 PUSH1 0xA0 SHL SUB DUP3 AND DUP3 SUB PUSH3 0x165 JUMPI JUMP JUMPDEST DUP2 DUP2 MUL SWAP3 SWAP2 DUP2 ISZERO SWAP2 DUP5 DIV EQ OR ISZERO PUSH3 0x1A9 JUMPI JUMP JUMPDEST PUSH4 0x4E487B71 PUSH1 0xE0 SHL PUSH1 0x0 MSTORE PUSH1 0x11 PUSH1 0x4 MSTORE PUSH1 0x24 PUSH1 0x0 REVERT JUMPDEST PUSH3 0x1C9 PUSH3 0x29D JUMP JUMPDEST DUP1 ISZERO PUSH3 0x296 JUMPI PUSH8 0xDE0B6B3A7640000 SWAP1 DUP2 DUP2 MUL SWAP1 DUP2 DIV DUP3 SUB PUSH3 0x1A9 JUMPI DUP2 SWAP1 DIV DUP1 DUP3 ADD SWAP1 DUP2 DUP4 GT PUSH3 0x1A9 JUMPI PUSH1 0x0 SWAP2 DUP4 DUP2 GT PUSH3 0x23C JUMPI POP POP POP DUP1 JUMPDEST PUSH1 0x7 SLOAD PUSH2 0x3E8 SWAP3 DUP4 DUP3 MUL SWAP4 DUP3 DUP6 DIV EQ DUP3 ISZERO OR ISZERO PUSH3 0x1A9 JUMPI PUSH3 0x229 SWAP2 PUSH3 0x195 JUMP JUMPDEST DIV DUP2 DUP2 GT ISZERO PUSH3 0x237 JUMPI POP SWAP1 JUMP JUMPDEST SWAP1 POP SWAP1 JUMP JUMPDEST DUP2 GT PUSH3 0x282 JUMPI PUSH1 0xC DUP2 MUL SWAP1 DUP1 DUP3 DIV PUSH1 0xC EQ SWAP1 ISZERO OR ISZERO PUSH3 0x282 JUMPI PUSH1 0xA SWAP1 DIV DUP3 ADD SWAP1 DUP2 DUP4 GT PUSH3 0x26E JUMPI POP SWAP1 PUSH3 0x206 JUMP JUMPDEST PUSH4 0x4E487B71 PUSH1 0xE0 SHL DUP2 MSTORE PUSH1 0x11 PUSH1 0x4 MSTORE PUSH1 0x24 SWAP1 REVERT JUMPDEST PUSH4 0x4E487B71 PUSH1 0xE0 SHL DUP3 MSTORE PUSH1 0x11 PUSH1 0x4 MSTORE PUSH1 0x24 DUP3 REVERT JUMPDEST POP PUSH1 0x7 SLOAD SWAP1 JUMP JUMPDEST PUSH1 0x15 SLOAD PUSH1 0x0 DUP1 DUP3 SGT ISZERO PUSH3 0x237 JUMPI POP SWAP1 JUMP INVALID PUSH1 0x80 PUSH1 0x40 DUP2 DUP2 MSTORE PUSH1 0x4 SWAP2 DUP3 CALLDATASIZE LT ISZERO PUSH2 0x16 JUMPI PUSH1 0x0 DUP1 REVERT JUMPDEST PUSH1 0x0 SWAP3 PUSH1 0xE0 DUP5 CALLDATALOAD DUP2 SHR SWAP3 DUP4 PUSH4 0x36AE354 EQ PUSH2 0x293C JUMPI POP DUP3 PUSH4 0xF259013 EQ PUSH2 0x291B JUMPI DUP3 PUSH4 0x135A9C81 EQ PUSH2 0x286E JUMPI DUP3 PUSH4 0x165CE8DB EQ PUSH2 0x2779 JUMPI DUP3 PUSH4 0x16C19739 EQ PUSH2 0x2749 JUMPI DUP3 PUSH4 0x1C88EF1E EQ PUSH2 0x26E1 JUMPI DUP3 PUSH4 0x1EBF4EB5 EQ PUSH2 0x26C5 JUMPI DUP3 PUSH4 0x2A6BC2DD EQ PUSH2 0x2495 JUMPI DUP3 PUSH4 0x334EF729 EQ PUSH2 0x2475 JUMPI DUP3 PUSH4 0x34C1557D EQ PUSH2 0x2458 JUMPI DUP3 PUSH4 0x3F4BA83A EQ PUSH2 0x2402 JUMPI DUP3 PUSH4 0x415F1240 EQ PUSH2 0x21BD JUMPI DUP3 PUSH4 0x485D7D94 EQ PUSH2 0x214D JUMPI DUP3 PUSH4 0x49A65938 EQ PUSH2 0x212D JUMPI DUP3 PUSH4 0x4AE13FA3 EQ PUSH2 0x203E JUMPI DUP3 PUSH4 0x53906A0F EQ PUSH2 0x1F73 JUMPI DUP3 PUSH4 0x544305BF EQ PUSH2 0x1EE1 JUMPI DUP3 PUSH4 0x55EFB287 EQ PUSH2 0x1EC3 JUMPI DUP3 PUSH4 0x5AF5BFD6 EQ PUSH2 0x1E39 JUMPI DUP3 PUSH4 0x5BF804AF EQ PUSH2 0x1E19 JUMPI DUP3 PUSH4 0x5C975ABB EQ PUSH2 0x1DF4 JUMPI DUP3 PUSH4 0x5EF54F36 EQ PUSH2 0x1B77 JUMPI DUP3 PUSH4 0x5FB3B1B5 EQ PUSH2 0x1B58 JUMPI DUP3 PUSH4 0x60409632 EQ PUSH2 0x1B3A JUMPI DUP3 PUSH4 0x68288678 EQ PUSH2 0x1996 JUMPI DUP3 PUSH4 0x6E33531B EQ PUSH2 0x1600 JUMPI DUP3 PUSH4 0x7199344F EQ PUSH2 0x11B5 JUMPI DUP3 PUSH4 0x7A6841C3 EQ PUSH2 0x15E2 JUMPI DUP3 PUSH4 0x7B6EB9B6 EQ PUSH2 0x158B JUMPI DUP3 PUSH4 0x7DC0D1D0 EQ PUSH2 0x1561 JUMPI DUP3 PUSH4 0x7E6A6F67 EQ PUSH2 0x1424 JUMPI DUP3 PUSH4 0x83A4098A EQ PUSH2 0x1405 JUMPI DUP3 PUSH4 0x83ACB48A EQ PUSH2 0x13E5 JUMPI DUP3 PUSH4 0x8456CB59 EQ PUSH2 0x138C JUMPI DUP3 PUSH4 0x8DA5CB5B EQ PUSH2 0x1363 JUMPI DUP3 PUSH4 0x8FBD0C2D EQ PUSH2 0x11BA JUMPI DUP3 PUSH4 0x95082D25 EQ PUSH2 0x11B5 JUMPI DUP3 PUSH4 0x95196F7E EQ PUSH2 0x1195 JUMPI DUP3 PUSH4 0x98F89B2F EQ PUSH2 0x1175 JUMPI DUP3 PUSH4 0x99FBAB88 EQ PUSH2 0x1103 JUMPI DUP3 PUSH4 0x9B45EC97 EQ PUSH2 0x10E6 JUMPI DUP3 PUSH4 0xA0640C83 EQ PUSH2 0x10C6 JUMPI DUP3 PUSH4 0xAC0815AC EQ PUSH2 0xFBA JUMPI DUP3 PUSH4 0xAE43509A EQ PUSH2 0xF9A JUMPI DUP3 PUSH4 0xB25CDCCF EQ PUSH2 0xF60 JUMPI DUP3 PUSH4 0xB3060D36 EQ PUSH2 0xF2C JUMPI DUP3 PUSH4 0xB31D659E EQ PUSH2 0xE63 JUMPI DUP3 PUSH4 0xB9181611 EQ PUSH2 0xE24 JUMPI DUP3 PUSH4 0xBF6268F2 EQ PUSH2 0xE04 JUMPI DUP3 PUSH4 0xC4E41B22 EQ PUSH2 0xDE6 JUMPI DUP3 PUSH4 0xCF1C316A EQ PUSH2 0xD32 JUMPI DUP3 PUSH4 0xCFFAB08D EQ PUSH2 0xBD6 JUMPI DUP3 PUSH4 0xD2E7B978 EQ PUSH2 0xBA6 JUMPI DUP3 PUSH4 0xD6FBF202 EQ PUSH2 0xB86 JUMPI DUP3 PUSH4 0xD97E25BC EQ PUSH2 0xB66 JUMPI DUP3 PUSH4 0xE01DF1A8 EQ PUSH2 0xB46 JUMPI DUP3 PUSH4 0xE1F1C4A7 EQ PUSH2 0xB28 JUMPI DUP3 PUSH4 0xEAF1F1E6 EQ PUSH2 0x7FF JUMPI DUP3 PUSH4 0xEB02C301 EQ PUSH2 0x777 JUMPI POP DUP2 PUSH4 0xEDDF7570 EQ PUSH2 0x5DE JUMPI DUP2 PUSH4 0xEDF1A21F EQ PUSH2 0x564 JUMPI DUP2 PUSH4 0xEEB07069 EQ PUSH2 0x4B6 JUMPI DUP2 PUSH4 0xEFC339C8 EQ PUSH2 0x434 JUMPI DUP2 PUSH4 0xF257B32E EQ PUSH2 0x415 JUMPI DUP2 PUSH4 0xF2FDE38B EQ PUSH2 0x389 JUMPI POP DUP1 PUSH4 0xF40F2A79 EQ PUSH2 0x36C JUMPI DUP1 PUSH4 0xFBFA77CF EQ PUSH2 0x344 JUMPI PUSH4 0xFFE777BD EQ PUSH2 0x313 JUMPI PUSH1 0x0 DUP1 REVERT JUMPDEST CALLVALUE PUSH2 0x340 JUMPI DUP2 PUSH1 0x3 NOT CALLDATASIZE ADD SLT PUSH2 0x340 JUMPI DUP1 PUSH1 0x0 PUSH1 0x80 SWAP3 MLOAD SWAP2 DUP2 DUP4 MSTORE DUP2 PUSH1 0x20 DUP5 ADD MSTORE DUP3 ADD MSTORE PUSH1 0x0 PUSH1 0x60 DUP3 ADD MSTORE RETURN JUMPDEST POP DUP1 REVERT JUMPDEST POP CALLVALUE PUSH2 0x340 JUMPI DUP2 PUSH1 0x3 NOT CALLDATASIZE ADD SLT PUSH2 0x340 JUMPI PUSH1 0x1 SLOAD SWAP1 MLOAD PUSH1 0x1 PUSH1 0x1 PUSH1 0xA0 SHL SUB SWAP1 SWAP2 AND DUP2 MSTORE PUSH1 0x20 SWAP1 RETURN JUMPDEST POP CALLVALUE PUSH2 0x340 JUMPI DUP2 PUSH1 0x3 NOT CALLDATASIZE ADD SLT PUSH2 0x340 JUMPI PUSH1 0x20 SWAP1 MLOAD PUSH3 0xF4240 DUP2 MSTORE RETURN JUMPDEST SWAP1 POP CALLVALUE PUSH2 0x411 JUMPI PUSH1 0x20 CALLDATASIZE PUSH1 0x3 NOT ADD SLT PUSH2 0x411 JUMPI PUSH2 0x3A4 PUSH2 0x2970 JUMP JUMPDEST DUP4 SLOAD SWAP2 SWAP1 PUSH1 0x1 PUSH1 0x1 PUSH1 0xA0 SHL SUB SWAP1 PUSH2 0x3BE CALLER DUP4 DUP7 AND EQ PUSH2 0x2C79 JUMP JUMPDEST AND SWAP3 DUP4 ISZERO PUSH2 0x3D8 JUMPI POP POP PUSH1 0x1 PUSH1 0x1 PUSH1 0xA0 SHL SUB NOT AND OR DUP2 SSTORE DUP1 RETURN JUMPDEST SWAP1 PUSH1 0x20 PUSH1 0x64 SWAP3 MLOAD SWAP2 PUSH3 0x461BCD PUSH1 0xE5 SHL DUP4 MSTORE DUP3 ADD MSTORE PUSH1 0x13 PUSH1 0x24 DUP3 ADD MSTORE PUSH19 0x3B20A6A69D1034B73B30B634B21037BBB732B9 PUSH1 0x69 SHL PUSH1 0x44 DUP3 ADD MSTORE REVERT JUMPDEST DUP3 DUP1 REVERT JUMPDEST POP POP CALLVALUE PUSH2 0x340 JUMPI DUP2 PUSH1 0x3 NOT CALLDATASIZE ADD SLT PUSH2 0x340 JUMPI PUSH1 0x20 SWAP1 PUSH1 0x13 SLOAD SWAP1 MLOAD SWAP1 DUP2 MSTORE RETURN JUMPDEST DUP3 DUP5 CALLVALUE PUSH2 0x4B3 JUMPI DUP1 PUSH1 0x3 NOT CALLDATASIZE ADD SLT PUSH2 0x4B3 JUMPI PUSH2 0x44E PUSH2 0x2AA4 JUMP JUMPDEST SWAP2 PUSH1 0x7 SLOAD SWAP1 PUSH2 0x45B PUSH2 0x2B74 JUMP JUMPDEST SWAP1 PUSH1 0x8 SLOAD SWAP3 PUSH2 0x3E8 SWAP5 DUP6 DUP3 MUL SWAP6 DUP3 DUP8 DIV EQ DUP3 ISZERO OR ISZERO PUSH2 0x4A0 JUMPI POP PUSH1 0xC0 SWAP7 POP DUP2 MLOAD SWAP6 DUP7 MSTORE PUSH1 0x20 DUP7 ADD MSTORE DUP5 ADD MSTORE PUSH8 0xDE0B6B3A7640000 PUSH1 0x60 DUP5 ADD MSTORE PUSH1 0x80 DUP4 ADD MSTORE PUSH1 0xA0 DUP3 ADD MSTORE RETURN JUMPDEST PUSH4 0x4E487B71 PUSH1 0xE0 SHL DUP2 MSTORE PUSH1 0x11 DUP9 MSTORE PUSH1 0x24 SWAP1 REVERT JUMPDEST DUP1 REVERT JUMPDEST SWAP1 POP CALLVALUE PUSH2 0x411 JUMPI PUSH1 0x20 CALLDATASIZE PUSH1 0x3 NOT ADD SLT PUSH2 0x411 JUMPI DUP1 CALLDATALOAD SWAP1 PUSH2 0x4E0 PUSH1 0x1 DUP1 PUSH1 0xA0 SHL SUB DUP6 SLOAD AND CALLER EQ PUSH2 0x2C79 JUMP JUMPDEST PUSH2 0x3E8 DUP3 GT PUSH2 0x52C JUMPI POP PUSH1 0x0 DUP1 MLOAD PUSH1 0x20 PUSH2 0x358B DUP4 CODECOPY DUP2 MLOAD SWAP2 MSTORE SWAP2 DUP2 PUSH1 0x80 SWAP3 PUSH1 0x3 SSTORE PUSH1 0xE DUP3 MLOAD SWAP3 DUP1 DUP5 MSTORE DUP4 ADD MSTORE PUSH14 0x74726164696E6746656552617465 PUSH1 0x90 SHL PUSH1 0x60 DUP4 ADD MSTORE PUSH1 0x20 DUP3 ADD MSTORE LOG1 DUP1 RETURN JUMPDEST PUSH1 0x64 SWAP1 PUSH1 0x20 DUP5 MLOAD SWAP2 PUSH3 0x461BCD PUSH1 0xE5 SHL DUP4 MSTORE DUP3 ADD MSTORE PUSH1 0x12 PUSH1 0x24 DUP3 ADD MSTORE PUSH18 0xEC829A9A7440CCCACA40E8DEDE40D0D2CED PUSH1 0x73 SHL PUSH1 0x44 DUP3 ADD MSTORE REVERT JUMPDEST POP POP CALLVALUE PUSH2 0x340 JUMPI DUP2 PUSH1 0x3 NOT CALLDATASIZE ADD SLT PUSH2 0x340 JUMPI PUSH1 0x80 SWAP2 PUSH1 0x60 DUP3 MLOAD PUSH2 0x586 DUP2 PUSH2 0x2D84 JUMP JUMPDEST DUP3 DUP2 MSTORE DUP3 PUSH1 0x20 DUP3 ADD MSTORE DUP3 DUP5 DUP3 ADD MSTORE ADD MSTORE DUP1 MLOAD PUSH2 0x5A1 DUP2 PUSH2 0x2D84 JUMP JUMPDEST PUSH1 0xB SLOAD SWAP2 DUP3 DUP3 MSTORE PUSH1 0xC SLOAD PUSH1 0x20 DUP4 ADD SWAP1 DUP2 MSTORE PUSH1 0xD SLOAD SWAP1 DUP3 DUP5 ADD SWAP2 DUP3 MSTORE PUSH1 0x60 PUSH1 0xE SLOAD SWAP5 ADD SWAP4 DUP5 MSTORE DUP3 MLOAD SWAP5 DUP6 MSTORE MLOAD PUSH1 0x20 DUP6 ADD MSTORE MLOAD SWAP1 DUP4 ADD MSTORE MLOAD PUSH1 0x60 DUP3 ADD MSTORE RETURN JUMPDEST DUP3 DUP5 CALLVALUE PUSH2 0x4B3 JUMPI PUSH1 0x20 DUP1 PUSH1 0x3 NOT CALLDATASIZE ADD SLT PUSH2 0x340 JUMPI PUSH1 0x1 PUSH1 0x1 PUSH1 0xA0 SHL SUB PUSH2 0x602 PUSH2 0x2970 JUMP JUMPDEST AND DUP3 MSTORE PUSH1 0x10 DUP2 MSTORE DUP3 DUP3 KECCAK256 SWAP2 DUP4 MLOAD DUP1 DUP5 DUP5 DUP3 SWAP7 SLOAD SWAP4 DUP5 DUP2 MSTORE ADD SWAP1 DUP5 MSTORE DUP5 DUP5 KECCAK256 SWAP3 DUP5 JUMPDEST DUP7 DUP3 DUP3 LT PUSH2 0x761 JUMPI POP POP POP PUSH2 0x63A SWAP3 POP SUB DUP5 PUSH2 0x2DA0 JUMP JUMPDEST DUP1 SWAP2 DUP2 JUMPDEST DUP5 MLOAD DUP2 LT ISZERO PUSH2 0x68A JUMPI PUSH2 0x651 DUP2 DUP7 PUSH2 0x3276 JUMP JUMPDEST MLOAD DUP4 MSTORE PUSH1 0xF DUP3 MSTORE PUSH1 0xFF PUSH1 0x6 DUP8 DUP6 KECCAK256 ADD SLOAD AND PUSH2 0x675 JUMPI JUMPDEST PUSH2 0x670 SWAP1 PUSH2 0x2E58 JUMP JUMPDEST PUSH2 0x63E JUMP JUMPDEST SWAP3 PUSH2 0x682 PUSH2 0x670 SWAP2 PUSH2 0x2E58 JUMP JUMPDEST SWAP4 SWAP1 POP PUSH2 0x667 JUMP JUMPDEST POP SWAP2 DUP4 DUP6 PUSH2 0x6AF PUSH2 0x69A DUP5 PUSH2 0x328A JUMP JUMPDEST SWAP4 PUSH2 0x6A7 DUP4 MLOAD SWAP6 DUP7 PUSH2 0x2DA0 JUMP JUMPDEST DUP1 DUP6 MSTORE PUSH2 0x328A JUMP JUMPDEST DUP4 DUP7 ADD SWAP5 SWAP1 PUSH1 0x1F NOT ADD CALLDATASIZE DUP7 CALLDATACOPY DUP1 SWAP6 DUP2 JUMPDEST DUP5 MLOAD DUP2 LT ISZERO PUSH2 0x721 JUMPI PUSH2 0x6D2 DUP2 DUP7 PUSH2 0x3276 JUMP JUMPDEST MLOAD DUP4 MSTORE PUSH1 0xF DUP3 MSTORE PUSH1 0xFF PUSH1 0x6 DUP6 DUP6 KECCAK256 ADD SLOAD AND PUSH2 0x6F6 JUMPI JUMPDEST PUSH2 0x6F1 SWAP1 PUSH2 0x2E58 JUMP JUMPDEST PUSH2 0x6BF JUMP JUMPDEST SWAP7 PUSH2 0x719 PUSH2 0x6F1 SWAP2 PUSH2 0x708 DUP11 DUP9 PUSH2 0x3276 JUMP JUMPDEST MLOAD PUSH2 0x713 DUP3 DUP11 PUSH2 0x3276 JUMP JUMPDEST MSTORE PUSH2 0x2E58 JUMP JUMPDEST SWAP8 SWAP1 POP PUSH2 0x6E8 JUMP JUMPDEST POP DUP3 MLOAD DUP2 DUP2 MSTORE DUP6 MLOAD DUP2 DUP4 ADD DUP2 SWAP1 MSTORE SWAP1 SWAP4 DUP5 SWAP4 SWAP1 DUP5 ADD SWAP3 DUP9 SWAP3 SWAP2 JUMPDEST DUP3 DUP2 LT PUSH2 0x74A JUMPI POP POP POP POP SUB SWAP1 RETURN JUMPDEST DUP4 MLOAD DUP6 MSTORE DUP7 SWAP6 POP SWAP4 DUP2 ADD SWAP4 SWAP3 DUP2 ADD SWAP3 PUSH1 0x1 ADD PUSH2 0x73B JUMP JUMPDEST DUP6 SLOAD DUP5 MSTORE PUSH1 0x1 SWAP6 DUP7 ADD SWAP6 DUP10 SWAP6 POP SWAP4 ADD SWAP3 ADD PUSH2 0x623 JUMP JUMPDEST SWAP1 DUP4 DUP6 CALLVALUE PUSH2 0x4B3 JUMPI PUSH1 0x20 CALLDATASIZE PUSH1 0x3 NOT ADD SLT PUSH2 0x4B3 JUMPI SWAP1 PUSH1 0xFF PUSH1 0x6 DUP3 PUSH2 0x7FD SWAP5 PUSH2 0x79D PUSH2 0x31F2 JUMP JUMPDEST POP DUP7 CALLDATALOAD DUP2 MSTORE PUSH1 0xF PUSH1 0x20 MSTORE KECCAK256 DUP4 MLOAD SWAP6 PUSH2 0x7B4 DUP8 PUSH2 0x2D3E JUMP JUMPDEST DUP2 SLOAD DUP8 MSTORE PUSH1 0x1 DUP3 ADD SLOAD PUSH1 0x20 DUP9 ADD MSTORE DUP4 PUSH1 0x2 DUP4 ADD SLOAD AND ISZERO ISZERO DUP6 DUP9 ADD MSTORE PUSH1 0x3 DUP3 ADD SLOAD PUSH1 0x60 DUP9 ADD MSTORE DUP2 ADD SLOAD PUSH1 0x80 DUP8 ADD MSTORE PUSH1 0x5 DUP2 ADD SLOAD PUSH1 0xA0 DUP8 ADD MSTORE ADD SLOAD AND ISZERO ISZERO PUSH1 0xC0 DUP5 ADD MSTORE MLOAD DUP1 SWAP3 PUSH2 0x299C JUMP JUMPDEST RETURN JUMPDEST DUP5 DUP3 DUP6 CALLVALUE PUSH2 0x411 JUMPI PUSH1 0xA0 CALLDATASIZE PUSH1 0x3 NOT ADD SLT PUSH2 0x411 JUMPI DUP2 CALLDATALOAD PUSH2 0x81D PUSH2 0x29E1 JUMP JUMPDEST PUSH1 0x44 CALLDATALOAD PUSH2 0x82F PUSH1 0xFF PUSH1 0x18 SLOAD AND ISZERO PUSH2 0x2CB7 JUMP JUMPDEST PUSH2 0x83A DUP4 ISZERO ISZERO PUSH2 0x3324 JUMP JUMPDEST PUSH1 0x1 DUP2 LT ISZERO DUP1 PUSH2 0xB1D JUMPI JUMPDEST PUSH2 0x84E SWAP1 PUSH2 0x3370 JUMP JUMPDEST PUSH2 0x856 PUSH2 0x2F58 JUMP JUMPDEST PUSH2 0x860 DUP2 DUP5 PUSH2 0x2A41 JUMP JUMPDEST PUSH2 0x868 PUSH2 0x2AA4 JUMP JUMPDEST SWAP2 PUSH1 0x64 CALLDATALOAD DUP4 LT ISZERO DUP1 PUSH2 0xB11 JUMPI JUMPDEST PUSH2 0x87E SWAP1 PUSH2 0x33B5 JUMP JUMPDEST DUP8 PUSH5 0xE8D4A51000 PUSH2 0x89F PUSH2 0x2710 PUSH2 0x897 PUSH1 0x3 SLOAD DUP8 PUSH2 0x2A41 JUMP JUMPDEST DIV DUP1 SWAP9 PUSH2 0x2A8A JUMP JUMPDEST PUSH1 0x1 SLOAD SWAP2 SWAP1 DIV SWAP1 PUSH1 0x1 PUSH1 0x1 PUSH1 0xA0 SHL SUB AND DUP1 EXTCODESIZE ISZERO PUSH2 0x411 JUMPI DUP9 MLOAD PUSH4 0xEAD3E99 PUSH1 0xE3 SHL DUP2 MSTORE CALLER DUP2 DUP13 ADD SWAP1 DUP2 MSTORE PUSH1 0x20 DUP2 ADD SWAP4 SWAP1 SWAP4 MSTORE SWAP2 DUP4 SWAP2 DUP4 SWAP2 DUP3 SWAP1 DUP5 SWAP1 DUP3 SWAP1 PUSH1 0x40 ADD SUB SWAP3 GAS CALL DUP1 ISZERO PUSH2 0xB07 JUMPI PUSH2 0xAEF JUMPI JUMPDEST POP POP PUSH1 0x13 SLOAD SWAP7 PUSH2 0x8FD DUP9 PUSH2 0x2E58 JUMP JUMPDEST PUSH1 0x13 SSTORE DUP5 ISZERO PUSH2 0xADB JUMPI PUSH2 0x912 DUP4 PUSH1 0x15 SLOAD PUSH2 0x2F3C JUMP JUMPDEST PUSH1 0x15 SSTORE JUMPDEST PUSH2 0x91E PUSH2 0x2DDB JUMP JUMPDEST PUSH1 0xC SLOAD SWAP9 DUP8 MLOAD PUSH2 0x92D DUP2 PUSH2 0x2D3E JUMP JUMPDEST DUP10 DUP2 MSTORE DUP10 PUSH1 0x20 DUP1 SWAP13 DUP12 DUP3 DUP6 ADD DUP10 DUP2 MSTORE DUP2 DUP7 ADD SWAP1 DUP13 ISZERO ISZERO DUP3 MSTORE PUSH1 0x60 DUP8 ADD SWAP3 DUP13 DUP5 MSTORE PUSH1 0x80 DUP9 ADD SWAP5 DUP6 MSTORE PUSH1 0xA0 DUP9 ADD SWAP6 TIMESTAMP DUP8 MSTORE PUSH1 0xC0 DUP10 ADD SWAP8 PUSH1 0x1 DUP10 MSTORE DUP11 MSTORE PUSH1 0xF SWAP1 MSTORE DUP9 KECCAK256 SWAP7 MLOAD DUP8 SSTORE MLOAD PUSH1 0x1 DUP8 ADD SSTORE MLOAD ISZERO ISZERO PUSH1 0x2 DUP7 ADD SWAP1 PUSH2 0x994 SWAP2 SWAP1 PUSH1 0xFF DUP1 NOT DUP4 SLOAD AND SWAP2 ISZERO ISZERO AND OR SWAP1 SSTORE JUMP JUMPDEST MLOAD PUSH1 0x3 DUP6 ADD SSTORE MLOAD DUP6 DUP5 ADD SSTORE MLOAD PUSH1 0x5 DUP4 ADD SSTORE MLOAD ISZERO ISZERO SWAP1 PUSH1 0x6 ADD SWAP1 PUSH2 0x9C2 SWAP2 SWAP1 PUSH1 0xFF DUP1 NOT DUP4 SLOAD AND SWAP2 ISZERO ISZERO AND OR SWAP1 SSTORE JUMP JUMPDEST PUSH1 0x11 DUP11 MSTORE DUP8 DUP2 KECCAK256 CALLER PUSH12 0xFFFFFFFFFFFFFFFFFFFFFFFF PUSH1 0xA0 SHL DUP3 SLOAD AND OR SWAP1 SSTORE CALLER DUP2 MSTORE PUSH1 0x10 DUP11 MSTORE DUP8 DUP2 KECCAK256 SWAP1 DUP2 SLOAD SWAP3 PUSH9 0x10000000000000000 DUP5 LT ISZERO PUSH2 0xAC8 JUMPI POP POP DUP7 DUP10 SWAP7 SWAP6 SWAP4 PUSH2 0xA58 DUP9 PUSH2 0xA3F DUP7 PUSH2 0xA95 SWAP7 PUSH1 0x1 PUSH32 0x345A1E15BFF227BFD5051975D95C864C45CF9FE79DEF6F9CE1C1525B0E831226 SWAP12 SWAP10 ADD DUP2 SSTORE PUSH2 0x2A13 JUMP JUMPDEST SWAP1 SWAP2 SWAP1 DUP3 SLOAD SWAP1 PUSH1 0x3 SHL SWAP2 DUP3 SHL SWAP2 PUSH1 0x0 NOT SWAP1 SHL NOT AND OR SWAP1 SSTORE JUMP JUMPDEST PUSH2 0xA64 DUP3 PUSH1 0x17 SLOAD PUSH2 0x2A8A JUMP JUMPDEST PUSH1 0x17 SSTORE DUP10 MLOAD SWAP5 DUP6 SWAP5 CALLER SWAP9 DUP7 SWAP2 SWAP3 PUSH1 0x80 SWAP4 SWAP7 SWAP6 SWAP5 SWAP2 SWAP7 PUSH1 0xA0 DUP5 ADD SWAP8 ISZERO ISZERO DUP5 MSTORE PUSH1 0x20 DUP5 ADD MSTORE PUSH1 0x40 DUP4 ADD MSTORE PUSH1 0x60 DUP3 ADD MSTORE ADD MSTORE JUMP JUMPDEST SUB SWAP1 LOG3 DUP2 MLOAD SWAP1 DUP2 MSTORE PUSH32 0x4B85F139405492FB78333512610BA07ED1E0C3FB2417F208A9AAE27DC3843E6A DUP5 CALLER SWAP3 LOG2 MLOAD SWAP1 DUP2 MSTORE RETURN JUMPDEST PUSH4 0x4E487B71 PUSH1 0xE0 SHL DUP3 MSTORE PUSH1 0x41 SWAP1 MSTORE PUSH1 0x24 SWAP1 REVERT JUMPDEST PUSH2 0xAE7 DUP4 PUSH1 0x16 SLOAD PUSH2 0x2F3C JUMP JUMPDEST PUSH1 0x16 SSTORE PUSH2 0x916 JUMP JUMPDEST PUSH2 0xAF8 SWAP1 PUSH2 0x2D70 JUMP JUMPDEST PUSH2 0xB03 JUMPI DUP8 DUP10 PUSH2 0x8EE JUMP JUMPDEST DUP8 DUP1 REVERT JUMPDEST DUP9 MLOAD RETURNDATASIZE DUP5 DUP3 RETURNDATACOPY RETURNDATASIZE SWAP1 REVERT JUMPDEST POP PUSH1 0x84 CALLDATALOAD DUP4 GT ISZERO PUSH2 0x875 JUMP JUMPDEST POP PUSH1 0x64 DUP2 GT ISZERO PUSH2 0x845 JUMP JUMPDEST POP POP POP CALLVALUE PUSH2 0x340 JUMPI DUP2 PUSH1 0x3 NOT CALLDATASIZE ADD SLT PUSH2 0x340 JUMPI PUSH1 0x20 SWAP1 MLOAD PUSH2 0x2710 DUP2 MSTORE RETURN JUMPDEST POP POP POP CALLVALUE PUSH2 0x340 JUMPI DUP2 PUSH1 0x3 NOT CALLDATASIZE ADD SLT PUSH2 0x340 JUMPI PUSH1 0x20 SWAP1 PUSH1 0x3 SLOAD SWAP1 MLOAD SWAP1 DUP2 MSTORE RETURN JUMPDEST POP POP POP CALLVALUE PUSH2 0x340 JUMPI DUP2 PUSH1 0x3 NOT CALLDATASIZE ADD SLT PUSH2 0x340 JUMPI PUSH1 0x20 SWAP1 PUSH1 0x6 SLOAD SWAP1 MLOAD SWAP1 DUP2 MSTORE RETURN JUMPDEST POP POP POP CALLVALUE PUSH2 0x340 JUMPI DUP2 PUSH1 0x3 NOT CALLDATASIZE ADD SLT PUSH2 0x340 JUMPI PUSH1 0x20 SWAP1 PUSH1 0x7 SLOAD SWAP1 MLOAD SWAP1 DUP2 MSTORE RETURN JUMPDEST POP DUP3 DUP5 CALLVALUE PUSH2 0x4B3 JUMPI DUP2 PUSH1 0x3 NOT CALLDATASIZE ADD SLT PUSH2 0x4B3 JUMPI POP PUSH2 0xBCF PUSH1 0x20 SWAP3 PUSH2 0xBC8 PUSH2 0x29E1 JUMP JUMPDEST SWAP1 CALLDATALOAD PUSH2 0x2B85 JUMP JUMPDEST SWAP1 MLOAD SWAP1 DUP2 MSTORE RETURN JUMPDEST POP SWAP1 POP CALLVALUE PUSH2 0x411 JUMPI PUSH1 0x60 CALLDATASIZE PUSH1 0x3 NOT ADD SLT PUSH2 0x411 JUMPI DUP1 CALLDATALOAD SWAP1 PUSH1 0x24 CALLDATALOAD PUSH2 0xC04 PUSH1 0x1 DUP1 PUSH1 0xA0 SHL SUB DUP7 SLOAD AND CALLER EQ PUSH2 0x2C79 JUMP JUMPDEST DUP3 ISZERO PUSH2 0xCE5 JUMPI DUP1 ISZERO PUSH2 0xCA2 JUMPI PUSH1 0x44 CALLDATALOAD GT ISZERO PUSH2 0xC5F JUMPI POP DUP2 PUSH1 0x80 SWAP2 PUSH1 0x15 PUSH1 0x0 DUP1 MLOAD PUSH1 0x20 PUSH2 0x358B DUP4 CODECOPY DUP2 MLOAD SWAP2 MSTORE SWAP5 MLOAD SWAP3 DUP1 DUP5 MSTORE DUP4 ADD MSTORE PUSH21 0x64796E616D69635265736572766573506172616D73 PUSH1 0x58 SHL PUSH1 0x60 DUP4 ADD MSTORE PUSH1 0x20 DUP3 ADD MSTORE LOG1 DUP1 RETURN JUMPDEST PUSH1 0x64 SWAP1 PUSH1 0x20 DUP5 MLOAD SWAP2 PUSH3 0x461BCD PUSH1 0xE5 SHL DUP4 MSTORE DUP3 ADD MSTORE PUSH1 0x1C PUSH1 0x24 DUP3 ADD MSTORE PUSH32 0x76414D4D3A20696E76616C6964206D6178206D756C7469706C69657200000000 PUSH1 0x44 DUP3 ADD MSTORE REVERT JUMPDEST DUP4 MLOAD PUSH3 0x461BCD PUSH1 0xE5 SHL DUP2 MSTORE PUSH1 0x20 DUP2 DUP5 ADD MSTORE PUSH1 0x1C PUSH1 0x24 DUP3 ADD MSTORE PUSH32 0x76414D4D3A20696E76616C6964206D696E206D756C7469706C69657200000000 PUSH1 0x44 DUP3 ADD MSTORE PUSH1 0x64 SWAP1 REVERT JUMPDEST DUP4 MLOAD PUSH3 0x461BCD PUSH1 0xE5 SHL DUP2 MSTORE PUSH1 0x20 DUP2 DUP5 ADD MSTORE PUSH1 0x21 PUSH1 0x24 DUP3 ADD MSTORE PUSH32 0x76414D4D3A20696E76616C696420766F6C756D65207363616C6520666163746F PUSH1 0x44 DUP3 ADD MSTORE PUSH1 0x39 PUSH1 0xF9 SHL PUSH1 0x64 DUP3 ADD MSTORE PUSH1 0x84 SWAP1 REVERT JUMPDEST DUP5 DUP3 DUP6 CALLVALUE PUSH2 0x411 JUMPI PUSH1 0x20 CALLDATASIZE PUSH1 0x3 NOT ADD SLT PUSH2 0x411 JUMPI PUSH2 0xD4E PUSH2 0x2970 JUMP JUMPDEST DUP4 SLOAD PUSH1 0x1 PUSH1 0x1 PUSH1 0xA0 SHL SUB SWAP2 SWAP1 PUSH2 0xD67 SWAP1 DUP4 AND CALLER EQ PUSH2 0x2C79 JUMP JUMPDEST AND SWAP2 DUP3 ISZERO PUSH2 0xDAC JUMPI POP DUP2 DUP4 MSTORE PUSH1 0x14 PUSH1 0x20 MSTORE DUP3 KECCAK256 DUP1 SLOAD PUSH1 0xFF NOT AND PUSH1 0x1 OR SWAP1 SSTORE PUSH32 0xDD10D14F6AC19E913D4EDBB11FD30661531E2CCD0D23F571E9B224F001F0DD06 DUP3 DUP1 LOG2 DUP1 RETURN JUMPDEST PUSH1 0x20 PUSH1 0x64 SWAP3 MLOAD SWAP2 PUSH3 0x461BCD PUSH1 0xE5 SHL DUP4 MSTORE DUP3 ADD MSTORE PUSH1 0x15 PUSH1 0x24 DUP3 ADD MSTORE PUSH21 0x76414D4D3A20696E76616C69642061646472657373 PUSH1 0x58 SHL PUSH1 0x44 DUP3 ADD MSTORE REVERT JUMPDEST POP POP POP CALLVALUE PUSH2 0x340 JUMPI DUP2 PUSH1 0x3 NOT CALLDATASIZE ADD SLT PUSH2 0x340 JUMPI PUSH1 0x20 SWAP1 PUSH2 0xBCF PUSH2 0x2B74 JUMP JUMPDEST POP POP POP CALLVALUE PUSH2 0x340 JUMPI DUP2 PUSH1 0x3 NOT CALLDATASIZE ADD SLT PUSH2 0x340 JUMPI PUSH1 0x20 SWAP1 PUSH1 0x16 SLOAD SWAP1 MLOAD SWAP1 DUP2 MSTORE RETURN JUMPDEST POP POP POP CALLVALUE PUSH2 0x340 JUMPI PUSH1 0x20 CALLDATASIZE PUSH1 0x3 NOT ADD SLT PUSH2 0x340 JUMPI PUSH1 0x20 SWAP2 PUSH1 0xFF SWAP1 DUP3 SWAP1 PUSH1 0x1 PUSH1 0x1 PUSH1 0xA0 SHL SUB PUSH2 0xE50 PUSH2 0x2970 JUMP JUMPDEST AND DUP2 MSTORE PUSH1 0x14 DUP6 MSTORE KECCAK256 SLOAD AND SWAP1 MLOAD SWAP1 ISZERO ISZERO DUP2 MSTORE RETURN JUMPDEST POP SWAP1 POP CALLVALUE PUSH2 0x411 JUMPI PUSH2 0xE74 CALLDATASIZE PUSH2 0x2986 JUMP JUMPDEST PUSH2 0xE8B PUSH1 0x1 DUP1 PUSH1 0xA0 SWAP6 SWAP5 SWAP6 SHL SUB DUP7 SLOAD AND CALLER EQ PUSH2 0x2C79 JUMP JUMPDEST DUP3 ISZERO ISZERO SWAP1 DUP2 PUSH2 0xF22 JUMPI JUMPDEST POP ISZERO PUSH2 0xEDF JUMPI POP DUP2 PUSH1 0x80 SWAP2 PUSH1 0x13 PUSH1 0x0 DUP1 MLOAD PUSH1 0x20 PUSH2 0x358B DUP4 CODECOPY DUP2 MLOAD SWAP2 MSTORE SWAP5 MLOAD SWAP3 DUP1 DUP5 MSTORE DUP4 ADD MSTORE PUSH19 0x626173655669727475616C5265736572766573 PUSH1 0x68 SHL PUSH1 0x60 DUP4 ADD MSTORE PUSH1 0x20 DUP3 ADD MSTORE LOG1 DUP1 RETURN JUMPDEST PUSH1 0x64 SWAP1 PUSH1 0x20 DUP5 MLOAD SWAP2 PUSH3 0x461BCD PUSH1 0xE5 SHL DUP4 MSTORE DUP3 ADD MSTORE PUSH1 0x1B PUSH1 0x24 DUP3 ADD MSTORE PUSH32 0x76414D4D3A20696E76616C696420626173652072657365727665730000000000 PUSH1 0x44 DUP3 ADD MSTORE REVERT JUMPDEST SWAP1 POP ISZERO ISZERO CODESIZE PUSH2 0xE95 JUMP JUMPDEST POP SWAP1 POP CALLVALUE PUSH2 0x411 JUMPI PUSH1 0x20 CALLDATASIZE PUSH1 0x3 NOT ADD SLT PUSH2 0x411 JUMPI CALLDATALOAD DUP3 MSTORE PUSH1 0x11 PUSH1 0x20 SWAP1 DUP2 MSTORE SWAP2 DUP2 SWAP1 KECCAK256 SLOAD SWAP1 MLOAD PUSH1 0x1 PUSH1 0x1 PUSH1 0xA0 SHL SUB SWAP1 SWAP2 AND DUP2 MSTORE RETURN JUMPDEST POP POP POP CALLVALUE PUSH2 0x340 JUMPI DUP2 PUSH1 0x3 NOT CALLDATASIZE ADD SLT PUSH2 0x340 JUMPI PUSH1 0x80 SWAP1 PUSH1 0xB SLOAD SWAP1 PUSH1 0xC SLOAD SWAP1 PUSH1 0xD SLOAD SWAP1 PUSH1 0xE SLOAD SWAP3 DUP2 MLOAD SWAP5 DUP6 MSTORE PUSH1 0x20 DUP6 ADD MSTORE DUP4 ADD MSTORE PUSH1 0x60 DUP3 ADD MSTORE RETURN JUMPDEST POP POP POP CALLVALUE PUSH2 0x340 JUMPI DUP2 PUSH1 0x3 NOT CALLDATASIZE ADD SLT PUSH2 0x340 JUMPI PUSH1 0x20 SWAP1 PUSH1 0x9 SLOAD SWAP1 MLOAD SWAP1 DUP2 MSTORE RETURN JUMPDEST POP SWAP1 POP CALLVALUE PUSH2 0x411 JUMPI PUSH1 0x20 CALLDATASIZE PUSH1 0x3 NOT ADD SLT PUSH2 0x411 JUMPI DUP1 CALLDATALOAD SWAP1 PUSH2 0xFE5 PUSH1 0x1 DUP1 PUSH1 0xA0 SHL SUB DUP6 SLOAD AND CALLER EQ PUSH2 0x2C79 JUMP JUMPDEST PUSH1 0xFF PUSH1 0x18 SLOAD AND ISZERO PUSH2 0x108C JUMPI DUP2 ISZERO PUSH2 0x1049 JUMPI POP PUSH1 0x0 DUP1 MLOAD PUSH1 0x20 PUSH2 0x358B DUP4 CODECOPY DUP2 MLOAD SWAP2 MSTORE SWAP2 DUP2 PUSH1 0x80 SWAP3 PUSH1 0x7 SSTORE DUP5 PUSH1 0x15 SSTORE DUP5 PUSH1 0x16 SSTORE PUSH2 0x101E PUSH2 0x2DDB JUMP JUMPDEST PUSH1 0xE DUP3 MLOAD SWAP3 DUP1 DUP5 MSTORE DUP4 ADD MSTORE PUSH14 0x195B595C99D95B98DE54995CD95D PUSH1 0x92 SHL PUSH1 0x60 DUP4 ADD MSTORE PUSH1 0x20 DUP3 ADD MSTORE LOG1 DUP1 RETURN JUMPDEST PUSH1 0x64 SWAP1 PUSH1 0x20 DUP5 MLOAD SWAP2 PUSH3 0x461BCD PUSH1 0xE5 SHL DUP4 MSTORE DUP3 ADD MSTORE PUSH1 0x1C PUSH1 0x24 DUP3 ADD MSTORE PUSH32 0x76414D4D3A20696E76616C6964207374617274696E6720707269636500000000 PUSH1 0x44 DUP3 ADD MSTORE REVERT JUMPDEST PUSH1 0x64 SWAP1 PUSH1 0x20 DUP5 MLOAD SWAP2 PUSH3 0x461BCD PUSH1 0xE5 SHL DUP4 MSTORE DUP3 ADD MSTORE PUSH1 0x14 PUSH1 0x24 DUP3 ADD MSTORE PUSH20 0x1D9053534E881B5D5CDD081899481C185D5CD959 PUSH1 0x62 SHL PUSH1 0x44 DUP3 ADD MSTORE REVERT JUMPDEST POP POP POP CALLVALUE PUSH2 0x340 JUMPI DUP2 PUSH1 0x3 NOT CALLDATASIZE ADD SLT PUSH2 0x340 JUMPI PUSH1 0x20 SWAP1 PUSH1 0xA SLOAD SWAP1 MLOAD SWAP1 DUP2 MSTORE RETURN JUMPDEST POP POP POP CALLVALUE PUSH2 0x340 JUMPI DUP2 PUSH1 0x3 NOT CALLDATASIZE ADD SLT PUSH2 0x340 JUMPI PUSH1 0x20 SWAP1 MLOAD PUSH1 0x64 DUP2 MSTORE RETURN JUMPDEST DUP4 DUP3 DUP7 CALLVALUE PUSH2 0x4B3 JUMPI PUSH1 0x20 CALLDATASIZE PUSH1 0x3 NOT ADD SLT PUSH2 0x4B3 JUMPI DUP3 SWAP1 DUP3 CALLDATALOAD DUP2 MSTORE PUSH1 0xF PUSH1 0x20 MSTORE KECCAK256 DUP1 SLOAD SWAP3 PUSH1 0x1 DUP3 ADD SLOAD SWAP3 PUSH1 0xFF PUSH1 0x2 DUP5 ADD SLOAD AND SWAP2 PUSH1 0x3 DUP5 ADD SLOAD SWAP2 DUP5 ADD SLOAD SWAP3 PUSH1 0xFF PUSH1 0x6 PUSH1 0x5 DUP8 ADD SLOAD SWAP7 ADD SLOAD AND SWAP6 DUP3 MLOAD SWAP8 DUP9 MSTORE PUSH1 0x20 DUP9 ADD MSTORE ISZERO ISZERO SWAP1 DUP7 ADD MSTORE PUSH1 0x60 DUP6 ADD MSTORE PUSH1 0x80 DUP5 ADD MSTORE PUSH1 0xA0 DUP4 ADD MSTORE ISZERO ISZERO PUSH1 0xC0 DUP3 ADD MSTORE RETURN JUMPDEST POP POP POP CALLVALUE PUSH2 0x340 JUMPI DUP2 PUSH1 0x3 NOT CALLDATASIZE ADD SLT PUSH2 0x340 JUMPI PUSH1 0x20 SWAP1 MLOAD PUSH4 0x5F5E100 DUP2 MSTORE RETURN JUMPDEST POP POP POP CALLVALUE PUSH2 0x340 JUMPI DUP2 PUSH1 0x3 NOT CALLDATASIZE ADD SLT PUSH2 0x340 JUMPI PUSH1 0x20 SWAP1 PUSH1 0xB SLOAD SWAP1 MLOAD SWAP1 DUP2 MSTORE RETURN JUMPDEST PUSH2 0x29F0 JUMP JUMPDEST POP DUP4 DUP4 CALLVALUE PUSH2 0x340 JUMPI PUSH1 0x20 SWAP1 DUP2 PUSH1 0x3 NOT CALLDATASIZE ADD SLT PUSH2 0x411 JUMPI PUSH2 0x11D8 PUSH2 0x2970 JUMP JUMPDEST SWAP1 DUP4 SWAP2 DUP5 SWAP2 DUP6 SWAP7 DUP7 SWAP3 PUSH1 0x1 DUP1 PUSH1 0xA0 SHL SUB AND DUP8 MSTORE PUSH1 0x10 DUP7 MSTORE DUP2 DUP8 KECCAK256 SWAP6 DUP3 MLOAD DUP1 DUP9 DUP4 DUP3 SWAP11 SLOAD SWAP4 DUP5 DUP2 MSTORE ADD SWAP1 DUP12 MSTORE DUP4 DUP12 KECCAK256 SWAP3 DUP12 JUMPDEST DUP6 DUP3 DUP3 LT PUSH2 0x134D JUMPI POP POP POP PUSH2 0x1220 SWAP3 POP SUB DUP9 PUSH2 0x2DA0 JUMP JUMPDEST DUP8 JUMPDEST DUP8 MLOAD DUP2 LT ISZERO PUSH2 0x132E JUMPI PUSH2 0x1235 DUP2 DUP10 PUSH2 0x3276 JUMP JUMPDEST MLOAD DUP10 MSTORE PUSH1 0xF DUP3 MSTORE DUP4 DUP10 KECCAK256 PUSH1 0xFF SWAP1 DUP2 PUSH1 0x6 DUP3 ADD SLOAD AND PUSH2 0x125E JUMPI JUMPDEST POP POP PUSH2 0x1259 SWAP1 PUSH2 0x2E58 JUMP JUMPDEST PUSH2 0x1222 JUMP JUMPDEST SWAP1 SWAP11 SWAP6 PUSH2 0x126D SWAP1 SWAP9 SWAP3 SWAP9 PUSH2 0x2E58 JUMP JUMPDEST SWAP6 PUSH2 0x1278 DUP10 DUP12 PUSH2 0x3276 JUMP JUMPDEST MLOAD SWAP1 DUP7 MLOAD SWAP2 PUSH4 0xF259013 PUSH1 0xE0 SHL DUP4 MSTORE DUP7 DUP4 ADD MSTORE DUP5 DUP3 PUSH1 0x24 DUP2 ADDRESS GAS STATICCALL SWAP1 DUP2 ISZERO PUSH2 0x1324 JUMPI DUP13 SWAP2 PUSH2 0x12EE JUMPI JUMPDEST PUSH2 0x12AB SWAP3 POP PUSH2 0x2F3C JUMP JUMPDEST SWAP11 PUSH1 0x2 DUP3 ADD SLOAD AND PUSH1 0x0 EQ PUSH2 0x12D4 JUMPI PUSH2 0x1259 SWAP2 PUSH1 0x1 PUSH2 0x12CB SWAP3 ADD SLOAD SWAP1 PUSH2 0x2A8A JUMP JUMPDEST SWAP7 JUMPDEST SWAP1 DUP12 PUSH2 0x124E JUMP JUMPDEST PUSH2 0x1259 SWAP2 SWAP8 SWAP7 PUSH1 0x1 PUSH2 0x12E8 SWAP3 ADD SLOAD SWAP1 PUSH2 0x2A8A JUMP JUMPDEST SWAP6 PUSH2 0x12CD JUMP JUMPDEST SWAP1 POP DUP5 DUP3 DUP2 RETURNDATASIZE DUP4 GT PUSH2 0x131D JUMPI JUMPDEST PUSH2 0x1305 DUP2 DUP4 PUSH2 0x2DA0 JUMP JUMPDEST DUP2 ADD SUB SLT PUSH2 0x1318 JUMPI PUSH2 0x12AB SWAP2 MLOAD SWAP1 PUSH2 0x12A1 JUMP JUMPDEST PUSH1 0x0 DUP1 REVERT JUMPDEST POP RETURNDATASIZE PUSH2 0x12FB JUMP JUMPDEST DUP8 MLOAD RETURNDATASIZE DUP15 DUP3 RETURNDATACOPY RETURNDATASIZE SWAP1 REVERT JUMPDEST DUP4 MLOAD DUP8 DUP2 MSTORE PUSH1 0x20 DUP2 ADD DUP8 SWAP1 MSTORE PUSH1 0x40 DUP2 ADD DUP12 SWAP1 MSTORE PUSH1 0x60 DUP2 ADD DUP7 SWAP1 MSTORE PUSH1 0x80 SWAP1 RETURN JUMPDEST DUP6 SLOAD DUP5 MSTORE PUSH1 0x1 SWAP6 DUP7 ADD SWAP6 DUP14 SWAP6 POP SWAP4 ADD SWAP3 ADD PUSH2 0x1209 JUMP JUMPDEST POP POP POP CALLVALUE PUSH2 0x340 JUMPI DUP2 PUSH1 0x3 NOT CALLDATASIZE ADD SLT PUSH2 0x340 JUMPI SWAP1 SLOAD SWAP1 MLOAD PUSH1 0x1 PUSH1 0x1 PUSH1 0xA0 SHL SUB SWAP1 SWAP2 AND DUP2 MSTORE PUSH1 0x20 SWAP1 RETURN JUMPDEST DUP5 CALLVALUE PUSH2 0x4B3 JUMPI DUP1 PUSH1 0x3 NOT CALLDATASIZE ADD SLT PUSH2 0x4B3 JUMPI PUSH2 0x13B1 PUSH1 0x1 DUP1 PUSH1 0xA0 SHL SUB DUP3 SLOAD AND CALLER EQ PUSH2 0x2C79 JUMP JUMPDEST PUSH1 0x1 PUSH1 0xFF NOT PUSH1 0x18 SLOAD AND OR PUSH1 0x18 SSTORE PUSH32 0x9E87FAC88FF661F02D44F95383C817FECE4BCE600A3DAB7A54406878B965E752 DUP2 DUP1 LOG1 DUP1 RETURN JUMPDEST POP POP POP CALLVALUE PUSH2 0x340 JUMPI DUP2 PUSH1 0x3 NOT CALLDATASIZE ADD SLT PUSH2 0x340 JUMPI PUSH1 0x20 SWAP1 PUSH1 0x5 SLOAD SWAP1 MLOAD SWAP1 DUP2 MSTORE RETURN JUMPDEST DUP4 DUP6 CALLVALUE PUSH2 0x4B3 JUMPI DUP1 PUSH1 0x3 NOT CALLDATASIZE ADD SLT PUSH2 0x4B3 JUMPI DUP2 MLOAD SWAP1 DUP1 DUP3 MSTORE PUSH1 0x20 DUP3 ADD MSTORE RETURN JUMPDEST DUP5 DUP3 DUP6 CALLVALUE PUSH2 0x411 JUMPI PUSH1 0x20 SWAP2 DUP3 PUSH1 0x3 NOT CALLDATASIZE ADD SLT PUSH2 0x155D JUMPI PUSH1 0x1 PUSH1 0x1 PUSH1 0xA0 SHL SUB PUSH2 0x144A PUSH2 0x2970 JUMP JUMPDEST AND DUP5 MSTORE PUSH1 0x10 DUP4 MSTORE DUP2 DUP5 KECCAK256 SWAP3 DUP3 MLOAD DUP1 DUP6 DUP4 DUP3 SWAP8 SLOAD SWAP4 DUP5 DUP2 MSTORE ADD SWAP1 DUP9 MSTORE DUP4 DUP9 KECCAK256 SWAP3 DUP9 JUMPDEST DUP6 DUP3 DUP3 LT PUSH2 0x1547 JUMPI POP POP POP PUSH2 0x1482 SWAP3 POP SUB DUP6 PUSH2 0x2DA0 JUMP JUMPDEST DUP5 DUP1 JUMPDEST DUP6 MLOAD DUP2 LT ISZERO PUSH2 0x153E JUMPI PUSH2 0x1498 DUP2 DUP8 PUSH2 0x3276 JUMP JUMPDEST MLOAD DUP3 MSTORE PUSH1 0xF DUP4 MSTORE PUSH1 0xFF PUSH1 0x6 DUP7 DUP5 KECCAK256 ADD SLOAD AND PUSH2 0x14BC JUMPI JUMPDEST PUSH2 0x14B7 SWAP1 PUSH2 0x2E58 JUMP JUMPDEST PUSH2 0x1485 JUMP JUMPDEST SWAP6 PUSH2 0x14C7 DUP8 DUP8 PUSH2 0x3276 JUMP JUMPDEST MLOAD DUP6 MLOAD SWAP1 PUSH4 0xF259013 PUSH1 0xE0 SHL DUP3 MSTORE DUP6 DUP3 ADD MSTORE DUP4 DUP2 PUSH1 0x24 DUP2 ADDRESS GAS STATICCALL SWAP1 DUP2 ISZERO PUSH2 0x1534 JUMPI DUP4 SWAP2 PUSH2 0x1505 JUMPI JUMPDEST POP PUSH2 0x14FD SWAP1 PUSH2 0x14B7 SWAP3 PUSH2 0x2F3C JUMP JUMPDEST SWAP7 SWAP1 POP PUSH2 0x14AE JUMP JUMPDEST SWAP1 POP DUP4 DUP2 DUP2 RETURNDATASIZE DUP4 GT PUSH2 0x152D JUMPI JUMPDEST PUSH2 0x151C DUP2 DUP4 PUSH2 0x2DA0 JUMP JUMPDEST DUP2 ADD SUB SLT PUSH2 0x1318 JUMPI MLOAD PUSH2 0x14B7 PUSH2 0x14EF JUMP JUMPDEST POP RETURNDATASIZE PUSH2 0x1512 JUMP JUMPDEST DUP7 MLOAD RETURNDATASIZE DUP6 DUP3 RETURNDATACOPY RETURNDATASIZE SWAP1 REVERT JUMPDEST DUP3 DUP8 DUP7 MLOAD SWAP1 DUP2 MSTORE RETURN JUMPDEST DUP6 SLOAD DUP5 MSTORE PUSH1 0x1 SWAP6 DUP7 ADD SWAP6 DUP11 SWAP6 POP SWAP4 ADD SWAP3 ADD PUSH2 0x146B JUMP JUMPDEST DUP4 DUP1 REVERT JUMPDEST POP POP POP CALLVALUE PUSH2 0x340 JUMPI DUP2 PUSH1 0x3 NOT CALLDATASIZE ADD SLT PUSH2 0x340 JUMPI PUSH1 0x2 SLOAD SWAP1 MLOAD PUSH1 0x1 PUSH1 0x1 PUSH1 0xA0 SHL SUB SWAP1 SWAP2 AND DUP2 MSTORE PUSH1 0x20 SWAP1 RETURN JUMPDEST POP POP POP CALLVALUE PUSH2 0x340 JUMPI DUP1 PUSH1 0x3 NOT CALLDATASIZE ADD SLT PUSH2 0x340 JUMPI PUSH2 0x15A6 PUSH2 0x2970 JUMP JUMPDEST PUSH1 0x1 PUSH1 0x1 PUSH1 0xA0 SHL SUB AND DUP3 MSTORE PUSH1 0x10 PUSH1 0x20 MSTORE DUP1 DUP3 KECCAK256 DUP1 SLOAD PUSH1 0x24 CALLDATALOAD SWAP4 SWAP1 DUP5 LT ISZERO PUSH2 0x4B3 JUMPI POP PUSH1 0x20 SWAP3 PUSH2 0x15D4 SWAP2 PUSH2 0x2A13 JUMP JUMPDEST SWAP2 SWAP1 SLOAD SWAP1 MLOAD SWAP2 PUSH1 0x3 SHL SHR DUP2 MSTORE RETURN JUMPDEST POP POP POP CALLVALUE PUSH2 0x340 JUMPI DUP2 PUSH1 0x3 NOT CALLDATASIZE ADD SLT PUSH2 0x340 JUMPI PUSH1 0x20 SWAP1 MLOAD PUSH2 0x3E8 DUP2 MSTORE RETURN JUMPDEST DUP5 DUP3 DUP6 CALLVALUE PUSH2 0x411 JUMPI PUSH1 0x80 CALLDATASIZE PUSH1 0x3 NOT ADD SLT PUSH2 0x411 JUMPI DUP2 CALLDATALOAD SWAP3 PUSH1 0x24 CALLDATALOAD SWAP4 PUSH2 0x162A PUSH1 0xFF PUSH1 0x18 SLOAD AND ISZERO PUSH2 0x2CB7 JUMP JUMPDEST DUP1 DUP3 MSTORE PUSH1 0x20 SWAP5 PUSH1 0xF DUP7 MSTORE PUSH2 0x1646 PUSH1 0xFF PUSH1 0x6 DUP7 DUP7 KECCAK256 ADD SLOAD AND PUSH2 0x2CF2 JUMP JUMPDEST DUP2 DUP4 MSTORE PUSH1 0x11 DUP7 MSTORE DUP4 DUP4 KECCAK256 SLOAD PUSH1 0x1 PUSH1 0x1 PUSH1 0xA0 SHL SUB SWAP1 PUSH2 0x1667 SWAP1 DUP3 AND CALLER EQ PUSH2 0x322A JUMP JUMPDEST DUP3 DUP5 MSTORE PUSH1 0xF DUP8 MSTORE DUP5 DUP5 KECCAK256 SWAP4 PUSH1 0x1 DUP6 ADD SWAP7 DUP8 SLOAD DUP1 DUP6 GT PUSH2 0x195E JUMPI PUSH2 0x1688 PUSH2 0x2F58 JUMP JUMPDEST PUSH2 0x1691 DUP7 PUSH2 0x30A0 JUMP JUMPDEST PUSH2 0x1699 PUSH2 0x2AA4 JUMP JUMPDEST SWAP4 PUSH1 0x44 CALLDATALOAD DUP6 LT ISZERO DUP1 PUSH2 0x1952 JUMPI JUMPDEST PUSH2 0x16AF SWAP1 PUSH2 0x33B5 JUMP JUMPDEST PUSH1 0x2 DUP9 ADD SLOAD PUSH1 0xFF AND SWAP8 DUP9 ISZERO PUSH2 0x1931 JUMPI PUSH8 0xDE0B6B3A7640000 PUSH2 0x16DE PUSH2 0x16D8 PUSH1 0x3 DUP5 ADD SLOAD DUP10 PUSH2 0x2A97 JUMP JUMPDEST DUP10 PUSH2 0x2A41 JUMP JUMPDEST DIV SWAP11 JUMPDEST PUSH2 0x2710 PUSH2 0x16F0 PUSH1 0x3 SLOAD DUP11 PUSH2 0x2A41 JUMP JUMPDEST DIV SWAP10 ISZERO PUSH2 0x191D JUMPI PUSH2 0x1703 DUP9 PUSH1 0x15 SLOAD PUSH2 0x2DC2 JUMP JUMPDEST PUSH1 0x15 SSTORE JUMPDEST PUSH2 0x170F PUSH2 0x2DDB JUMP JUMPDEST DUP8 DUP5 SUB PUSH2 0x1905 JUMPI POP PUSH1 0x6 ADD DUP1 SLOAD PUSH1 0xFF NOT AND SWAP1 SSTORE PUSH2 0x172C DUP8 CALLER PUSH2 0x2E67 JUMP JUMPDEST DUP1 PUSH1 0x1 SLOAD AND PUSH2 0x173B DUP10 DUP13 PUSH2 0x2DC2 JUMP JUMPDEST DUP2 EXTCODESIZE ISZERO PUSH2 0x1901 JUMPI DUP6 SWAP2 PUSH1 0x44 DUP4 SWAP3 DUP14 MLOAD SWAP5 DUP6 SWAP4 DUP5 SWAP3 PUSH4 0x196C4AD PUSH1 0xE7 SHL DUP5 MSTORE CALLER DUP12 DUP6 ADD MSTORE PUSH1 0x24 DUP5 ADD MSTORE GAS CALL DUP1 ISZERO PUSH2 0x18E3 JUMPI SWAP1 DUP6 SWAP2 PUSH2 0x18ED JUMPI JUMPDEST POP POP PUSH1 0x1 SLOAD AND SWAP1 DUP9 MLOAD PUSH3 0xAF059 PUSH1 0xE2 SHL DUP2 MSTORE CALLER DUP5 DUP3 ADD MSTORE PUSH1 0x80 DUP2 PUSH1 0x24 DUP2 DUP7 GAS STATICCALL SWAP1 DUP2 ISZERO PUSH2 0x18E3 JUMPI DUP8 SWAP2 DUP14 SWAP2 DUP8 SWAP2 PUSH2 0x1875 JUMPI JUMPDEST POP ADD MLOAD PUSH2 0x17BB SWAP3 SWAP2 PUSH2 0x17B6 SWAP2 PUSH2 0x2A41 JUMP JUMPDEST PUSH2 0x2A6A JUMP JUMPDEST SWAP2 DUP2 EXTCODESIZE ISZERO PUSH2 0x155D JUMPI DUP9 MLOAD PUSH4 0x9101E5B3 PUSH1 0xE0 SHL DUP2 MSTORE CALLER SWAP2 DUP2 ADD SWAP2 DUP3 MSTORE PUSH1 0x20 DUP3 ADD SWAP4 SWAP1 SWAP4 MSTORE DUP4 SWAP2 DUP4 SWAP2 DUP3 SWAP1 DUP5 SWAP1 DUP3 SWAP1 PUSH1 0x40 ADD SUB SWAP3 GAS CALL DUP1 ISZERO PUSH2 0x186B JUMPI SWAP1 DUP9 SWAP3 SWAP2 PUSH2 0x1853 JUMPI JUMPDEST POP POP PUSH32 0x35509DD26C2D331B2EEAF713E533967AC9E8A0C5E37372ABC7DEDD026E81675 SWAP2 PUSH2 0x182E DUP7 PUSH1 0x17 SLOAD PUSH2 0x2A8A JUMP JUMPDEST PUSH1 0x17 SSTORE DUP7 MLOAD SWAP4 DUP5 MSTORE PUSH1 0x20 DUP5 ADD MSTORE PUSH1 0x40 DUP4 ADD MSTORE PUSH1 0x60 DUP3 ADD DUP5 SWAP1 MSTORE CALLER SWAP2 DUP1 PUSH1 0x80 DUP2 ADD PUSH2 0xA95 JUMP JUMPDEST DUP2 SWAP3 POP PUSH2 0x185F SWAP1 PUSH2 0x2D70 JUMP JUMPDEST PUSH2 0x4B3 JUMPI DUP1 DUP8 SWAP2 PUSH2 0x17FE JUMP JUMPDEST DUP8 MLOAD RETURNDATASIZE DUP5 DUP3 RETURNDATACOPY RETURNDATASIZE SWAP1 REVERT JUMPDEST SWAP3 POP POP POP PUSH1 0x80 DUP2 RETURNDATASIZE DUP3 GT PUSH2 0x18DB JUMPI JUMPDEST DUP2 PUSH2 0x1891 PUSH1 0x80 SWAP4 DUP4 PUSH2 0x2DA0 JUMP JUMPDEST DUP2 ADD SUB SLT PUSH2 0x18D7 JUMPI SWAP1 PUSH2 0x17B6 DUP8 DUP14 DUP13 PUSH1 0x60 PUSH2 0x17BB SWAP7 DUP3 MLOAD SWAP3 PUSH2 0x18B2 DUP5 PUSH2 0x2D84 JUMP JUMPDEST DUP2 MLOAD DUP5 MSTORE DUP5 DUP3 ADD MLOAD DUP6 DUP6 ADD MSTORE DUP1 DUP3 ADD MLOAD SWAP1 DUP5 ADD MSTORE ADD MLOAD PUSH1 0x60 DUP3 ADD MSTORE SWAP2 SWAP4 SWAP5 POP SWAP2 PUSH2 0x17A5 JUMP JUMPDEST DUP5 DUP1 REVERT JUMPDEST RETURNDATASIZE SWAP2 POP PUSH2 0x1884 JUMP JUMPDEST DUP11 MLOAD RETURNDATASIZE DUP8 DUP3 RETURNDATACOPY RETURNDATASIZE SWAP1 REVERT JUMPDEST PUSH2 0x18F6 SWAP1 PUSH2 0x2D70 JUMP JUMPDEST PUSH2 0x155D JUMPI DUP4 DUP13 PUSH2 0x1773 JUMP JUMPDEST DUP6 DUP1 REVERT JUMPDEST PUSH2 0x1910 DUP9 DUP3 SLOAD PUSH2 0x2DC2 JUMP JUMPDEST SWAP1 SSTORE PUSH1 0x5 TIMESTAMP SWAP2 ADD SSTORE PUSH2 0x172C JUMP JUMPDEST PUSH2 0x1929 DUP9 PUSH1 0x16 SLOAD PUSH2 0x2DC2 JUMP JUMPDEST PUSH1 0x16 SSTORE PUSH2 0x1707 JUMP JUMPDEST PUSH8 0xDE0B6B3A7640000 PUSH2 0x194B PUSH2 0x16D8 DUP9 PUSH1 0x3 DUP6 ADD SLOAD PUSH2 0x2A97 JUMP JUMPDEST DIV SWAP11 PUSH2 0x16E1 JUMP JUMPDEST POP PUSH1 0x64 CALLDATALOAD DUP6 GT ISZERO PUSH2 0x16A6 JUMP JUMPDEST DUP8 MLOAD PUSH3 0x461BCD PUSH1 0xE5 SHL DUP2 MSTORE DUP1 DUP4 ADD DUP12 SWAP1 MSTORE PUSH1 0x12 PUSH1 0x24 DUP3 ADD MSTORE PUSH18 0x76414D4D3A20696E76616C69642073697A65 PUSH1 0x70 SHL PUSH1 0x44 DUP3 ADD MSTORE PUSH1 0x64 SWAP1 REVERT JUMPDEST POP SWAP1 POP CALLVALUE PUSH2 0x411 JUMPI PUSH2 0x100 CALLDATASIZE PUSH1 0x3 NOT ADD SLT PUSH2 0x411 JUMPI PUSH2 0x19B3 PUSH2 0x2970 JUMP JUMPDEST SWAP2 PUSH1 0x24 CALLDATALOAD SWAP3 PUSH1 0x44 CALLDATALOAD SWAP1 DUP2 ISZERO ISZERO DUP3 SUB PUSH2 0x1318 JUMPI PUSH1 0x64 CALLDATALOAD SWAP1 DUP2 ISZERO ISZERO DUP3 SUB PUSH2 0x1318 JUMPI PUSH1 0x84 CALLDATALOAD SWAP3 PUSH1 0xA4 CALLDATALOAD PUSH1 0xC4 CALLDATALOAD SWAP2 PUSH1 0xE4 CALLDATALOAD SWAP4 CALLER DUP12 MSTORE PUSH1 0x14 PUSH1 0x20 MSTORE PUSH1 0xFF DUP9 DUP13 KECCAK256 SLOAD AND DUP1 ISZERO PUSH2 0x1B27 JUMPI JUMPDEST ISZERO PUSH2 0x1AED JUMPI PUSH1 0x1 PUSH1 0x1 PUSH1 0xA0 SHL SUB AND SWAP8 DUP9 ISZERO PUSH2 0x1AB5 JUMPI POP ISZERO PUSH2 0x1A6B JUMPI SWAP1 PUSH2 0x1A65 SWAP3 SWAP2 PUSH32 0x345A1E15BFF227BFD5051975D95C864C45CF9FE79DEF6F9CE1C1525B0E831226 SWAP7 MLOAD SWAP6 DUP7 SWAP6 DUP7 SWAP2 SWAP3 PUSH1 0x80 SWAP4 SWAP7 SWAP6 SWAP5 SWAP2 SWAP7 PUSH1 0xA0 DUP5 ADD SWAP8 ISZERO ISZERO DUP5 MSTORE PUSH1 0x20 DUP5 ADD MSTORE PUSH1 0x40 DUP4 ADD MSTORE PUSH1 0x60 DUP3 ADD MSTORE ADD MSTORE JUMP JUMPDEST SUB SWAP1 LOG3 DUP1 RETURN JUMPDEST SWAP5 MLOAD SWAP4 DUP5 MSTORE PUSH1 0x20 DUP5 ADD SWAP5 SWAP1 SWAP5 MSTORE PUSH1 0x40 DUP4 ADD SWAP4 SWAP1 SWAP4 MSTORE POP PUSH1 0x60 DUP2 ADD SWAP2 SWAP1 SWAP2 MSTORE PUSH32 0x35509DD26C2D331B2EEAF713E533967AC9E8A0C5E37372ABC7DEDD026E81675 SWAP1 DUP1 PUSH1 0x80 DUP2 ADD PUSH2 0x1A65 JUMP JUMPDEST PUSH1 0x64 SWAP1 PUSH1 0x20 DUP10 MLOAD SWAP2 PUSH3 0x461BCD PUSH1 0xE5 SHL DUP4 MSTORE DUP3 ADD MSTORE PUSH1 0x12 PUSH1 0x24 DUP3 ADD MSTORE PUSH18 0x3B20A6A69D1034B73B30B634B2103AB9B2B9 PUSH1 0x71 SHL PUSH1 0x44 DUP3 ADD MSTORE REVERT JUMPDEST DUP8 MLOAD PUSH3 0x461BCD PUSH1 0xE5 SHL DUP2 MSTORE PUSH1 0x20 DUP2 DUP12 ADD MSTORE PUSH1 0x14 PUSH1 0x24 DUP3 ADD MSTORE PUSH20 0x1D9053534E881B9BDD08185D5D1A1BDC9A5E9959 PUSH1 0x62 SHL PUSH1 0x44 DUP3 ADD MSTORE PUSH1 0x64 SWAP1 REVERT JUMPDEST POP DUP11 SLOAD PUSH1 0x1 PUSH1 0x1 PUSH1 0xA0 SHL SUB AND CALLER EQ PUSH2 0x19F7 JUMP JUMPDEST POP POP POP CALLVALUE PUSH2 0x340 JUMPI DUP2 PUSH1 0x3 NOT CALLDATASIZE ADD SLT PUSH2 0x340 JUMPI PUSH1 0x20 SWAP1 PUSH2 0xBCF PUSH2 0x2AA4 JUMP JUMPDEST POP SWAP1 POP CALLVALUE PUSH2 0x411 JUMPI DUP3 PUSH1 0x3 NOT CALLDATASIZE ADD SLT PUSH2 0x411 JUMPI PUSH1 0x20 SWAP3 POP SLOAD SWAP1 MLOAD SWAP1 DUP2 MSTORE RETURN JUMPDEST POP DUP4 DUP4 CALLVALUE PUSH2 0x340 JUMPI PUSH1 0xA0 CALLDATASIZE PUSH1 0x3 NOT ADD SLT PUSH2 0x340 JUMPI DUP3 CALLDATALOAD PUSH1 0x24 CALLDATALOAD SWAP1 PUSH1 0x44 CALLDATALOAD PUSH2 0x1BA3 PUSH1 0xFF PUSH1 0x18 SLOAD AND ISZERO PUSH2 0x2CB7 JUMP JUMPDEST DUP2 DUP6 MSTORE PUSH1 0xF PUSH1 0x20 MSTORE PUSH2 0x1BBD PUSH1 0xFF PUSH1 0x6 DUP7 DUP9 KECCAK256 ADD SLOAD AND PUSH2 0x2CF2 JUMP JUMPDEST DUP2 DUP6 MSTORE PUSH1 0x11 PUSH1 0x20 MSTORE DUP4 DUP6 KECCAK256 SLOAD PUSH1 0x1 PUSH1 0x1 PUSH1 0xA0 SHL SUB SWAP6 SWAP1 PUSH2 0x1BE0 SWAP1 DUP8 AND CALLER EQ PUSH2 0x322A JUMP JUMPDEST PUSH2 0x1BEB DUP5 ISZERO ISZERO PUSH2 0x3324 JUMP JUMPDEST PUSH1 0x1 DUP3 LT ISZERO DUP1 PUSH2 0x1DE9 JUMPI JUMPDEST PUSH2 0x1BFF SWAP1 PUSH2 0x3370 JUMP JUMPDEST DUP3 DUP2 MSTORE PUSH1 0xF PUSH1 0x20 MSTORE PUSH2 0x1C25 DUP6 DUP3 KECCAK256 SWAP3 PUSH2 0x1C16 PUSH2 0x2F58 JUMP JUMPDEST PUSH2 0x1C1F DUP6 PUSH2 0x30A0 JUMP JUMPDEST DUP6 PUSH2 0x2A41 JUMP JUMPDEST SWAP2 PUSH2 0x1C2E PUSH2 0x2AA4 JUMP JUMPDEST SWAP7 PUSH1 0x64 CALLDATALOAD DUP9 LT ISZERO DUP1 PUSH2 0x1DDD JUMPI JUMPDEST PUSH2 0x1C44 SWAP1 PUSH2 0x33B5 JUMP JUMPDEST PUSH5 0xE8D4A51000 PUSH2 0x1C5C PUSH2 0x2710 PUSH2 0x897 PUSH1 0x3 SLOAD DUP9 PUSH2 0x2A41 JUMP JUMPDEST DIV SWAP1 PUSH1 0x1 SLOAD AND DUP1 EXTCODESIZE ISZERO PUSH2 0x155D JUMPI DUP8 MLOAD PUSH4 0xEAD3E99 PUSH1 0xE3 SHL DUP2 MSTORE CALLER DUP2 DUP13 ADD SWAP1 DUP2 MSTORE PUSH1 0x20 DUP2 ADD SWAP4 SWAP1 SWAP4 MSTORE SWAP2 DUP5 SWAP2 DUP4 SWAP2 DUP3 SWAP1 DUP5 SWAP1 DUP3 SWAP1 PUSH1 0x40 ADD SUB SWAP3 GAS CALL DUP1 ISZERO PUSH2 0x1DD3 JUMPI SWAP1 DUP4 SWAP2 PUSH2 0x1DBF JUMPI JUMPDEST POP POP PUSH1 0x2 DUP2 ADD SLOAD PUSH1 0xFF AND ISZERO PUSH2 0x1DAB JUMPI PUSH2 0x1CBF DUP4 PUSH1 0x15 SLOAD PUSH2 0x2F3C JUMP JUMPDEST PUSH1 0x15 SSTORE JUMPDEST PUSH2 0x1CCB PUSH2 0x2DDB JUMP JUMPDEST PUSH1 0x1 DUP2 ADD SWAP7 DUP8 SLOAD SWAP1 PUSH1 0x3 DUP4 ADD SWAP4 PUSH2 0x1D04 PUSH8 0xDE0B6B3A7640000 SWAP3 DUP4 PUSH2 0x1CFD DUP2 PUSH2 0x1CF5 DUP11 SLOAD DUP10 PUSH2 0x2A41 JUMP JUMPDEST DIV SWAP3 DUP11 PUSH2 0x2A41 JUMP JUMPDEST DIV SWAP1 PUSH2 0x2A8A JUMP JUMPDEST DUP3 DUP2 MUL SWAP3 DUP2 DUP5 DIV EQ SWAP1 ISZERO OR ISZERO PUSH2 0x1D98 JUMPI POP PUSH1 0x20 SWAP10 POP SWAP2 PUSH2 0x1D5D DUP6 DUP4 PUSH2 0x1D56 DUP11 SWAP7 PUSH2 0x1D50 DUP5 PUSH32 0x2337E687DA16F7F70DE054EC6C6F96C9FAAEAC16CA3FE6B873CF017380F578A8 SWAP11 SWAP9 PUSH2 0x2A8A JUMP JUMPDEST SWAP1 PUSH2 0x2A6A JUMP JUMPDEST DUP6 SSTORE PUSH2 0x2F3C JUMP JUMPDEST DUP1 SWAP10 SSTORE PUSH1 0x5 TIMESTAMP SWAP2 ADD SSTORE PUSH2 0x1D72 DUP3 PUSH1 0x17 SLOAD PUSH2 0x2A8A JUMP JUMPDEST PUSH1 0x17 SSTORE SLOAD DUP7 MLOAD SWAP4 DUP5 MSTORE PUSH1 0x20 DUP5 ADD DUP9 SWAP1 MSTORE PUSH1 0x40 DUP5 ADD MSTORE PUSH1 0x60 DUP4 ADD MSTORE CALLER SWAP2 DUP1 PUSH1 0x80 DUP2 ADD PUSH2 0xA95 JUMP JUMPDEST PUSH4 0x4E487B71 PUSH1 0xE0 SHL DUP2 MSTORE PUSH1 0x11 DUP12 MSTORE PUSH1 0x24 SWAP1 REVERT JUMPDEST PUSH2 0x1DB7 DUP4 PUSH1 0x16 SLOAD PUSH2 0x2F3C JUMP JUMPDEST PUSH1 0x16 SSTORE PUSH2 0x1CC3 JUMP JUMPDEST PUSH2 0x1DC8 SWAP1 PUSH2 0x2D70 JUMP JUMPDEST PUSH2 0x340 JUMPI DUP2 DUP10 PUSH2 0x1CA4 JUMP JUMPDEST DUP8 MLOAD RETURNDATASIZE DUP6 DUP3 RETURNDATACOPY RETURNDATASIZE SWAP1 REVERT JUMPDEST POP PUSH1 0x84 CALLDATALOAD DUP9 GT ISZERO PUSH2 0x1C3B JUMP JUMPDEST POP PUSH1 0x64 DUP3 GT ISZERO PUSH2 0x1BF6 JUMP JUMPDEST POP POP POP CALLVALUE PUSH2 0x340 JUMPI DUP2 PUSH1 0x3 NOT CALLDATASIZE ADD SLT PUSH2 0x340 JUMPI PUSH1 0x20 SWAP1 PUSH1 0xFF PUSH1 0x18 SLOAD AND SWAP1 MLOAD SWAP1 ISZERO ISZERO DUP2 MSTORE RETURN JUMPDEST POP POP POP CALLVALUE PUSH2 0x340 JUMPI DUP2 PUSH1 0x3 NOT CALLDATASIZE ADD SLT PUSH2 0x340 JUMPI PUSH1 0x20 SWAP1 PUSH1 0x15 SLOAD SWAP1 MLOAD SWAP1 DUP2 MSTORE RETURN JUMPDEST DUP4 DUP6 DUP4 CALLVALUE PUSH2 0x340 JUMPI PUSH1 0x20 CALLDATASIZE PUSH1 0x3 NOT ADD SLT PUSH2 0x340 JUMPI DUP1 CALLDATALOAD SWAP1 PUSH2 0x1E64 PUSH1 0x1 DUP1 PUSH1 0xA0 SHL SUB DUP5 SLOAD AND CALLER EQ PUSH2 0x2C79 JUMP JUMPDEST PUSH1 0x17 SLOAD SWAP1 DUP2 DUP4 GT PUSH2 0x1E80 JUMPI POP SWAP1 PUSH2 0x1E7A SWAP2 PUSH2 0x2A97 JUMP JUMPDEST PUSH1 0x17 SSTORE DUP1 RETURN JUMPDEST PUSH1 0x64 SWAP1 PUSH1 0x20 DUP7 MLOAD SWAP2 PUSH3 0x461BCD PUSH1 0xE5 SHL DUP4 MSTORE DUP3 ADD MSTORE PUSH1 0x17 PUSH1 0x24 DUP3 ADD MSTORE PUSH32 0x76414D4D3A20696E73756666696369656E742066656573000000000000000000 PUSH1 0x44 DUP3 ADD MSTORE REVERT JUMPDEST POP POP POP CALLVALUE PUSH2 0x340 JUMPI DUP2 PUSH1 0x3 NOT CALLDATASIZE ADD SLT PUSH2 0x340 JUMPI PUSH1 0x20 SWAP1 MLOAD PUSH2 0xE10 DUP2 MSTORE RETURN JUMPDEST POP DUP4 DUP4 CALLVALUE PUSH2 0x340 JUMPI PUSH1 0x20 SWAP3 DUP4 PUSH1 0x3 NOT CALLDATASIZE ADD SLT PUSH2 0x411 JUMPI PUSH2 0x1EFF PUSH2 0x2970 JUMP JUMPDEST DUP3 MLOAD PUSH4 0x7E6A6F67 PUSH1 0xE0 SHL DUP2 MSTORE PUSH1 0x1 PUSH1 0x1 PUSH1 0xA0 SHL SUB SWAP1 SWAP2 AND SWAP2 DUP2 ADD SWAP2 SWAP1 SWAP2 MSTORE DUP4 DUP2 PUSH1 0x24 DUP2 ADDRESS GAS STATICCALL SWAP3 DUP4 ISZERO PUSH2 0x1F68 JUMPI SWAP3 PUSH2 0x1F39 JUMPI JUMPDEST POP MLOAD SWAP1 DUP2 MSTORE RETURN JUMPDEST SWAP1 SWAP2 POP DUP3 DUP2 DUP2 RETURNDATASIZE DUP4 GT PUSH2 0x1F61 JUMPI JUMPDEST PUSH2 0x1F51 DUP2 DUP4 PUSH2 0x2DA0 JUMP JUMPDEST DUP2 ADD SUB SLT PUSH2 0x1318 JUMPI MLOAD SWAP1 DUP4 PUSH2 0x1F32 JUMP JUMPDEST POP RETURNDATASIZE PUSH2 0x1F47 JUMP JUMPDEST DUP3 MLOAD SWAP1 RETURNDATASIZE SWAP1 DUP3 RETURNDATACOPY RETURNDATASIZE SWAP1 REVERT JUMPDEST POP SWAP1 POP CALLVALUE PUSH2 0x411 JUMPI PUSH1 0x20 CALLDATASIZE PUSH1 0x3 NOT ADD SLT PUSH2 0x411 JUMPI DUP1 CALLDATALOAD SWAP1 PUSH2 0x1F9E PUSH1 0x1 DUP1 PUSH1 0xA0 SHL SUB DUP6 SLOAD AND CALLER EQ PUSH2 0x2C79 JUMP JUMPDEST PUSH1 0x64 DUP3 LT ISZERO DUP1 PUSH2 0x2032 JUMPI JUMPDEST ISZERO PUSH2 0x1FF9 JUMPI POP PUSH1 0x0 DUP1 MLOAD PUSH1 0x20 PUSH2 0x358B DUP4 CODECOPY DUP2 MLOAD SWAP2 MSTORE SWAP2 DUP2 PUSH1 0x80 SWAP3 PUSH1 0x5 SSTORE PUSH1 0x16 DUP3 MLOAD SWAP3 DUP1 DUP5 MSTORE DUP4 ADD MSTORE PUSH22 0x6D61696E74656E616E63654D617267696E526174696F PUSH1 0x50 SHL PUSH1 0x60 DUP4 ADD MSTORE PUSH1 0x20 DUP3 ADD MSTORE LOG1 DUP1 RETURN JUMPDEST PUSH1 0x64 SWAP1 PUSH1 0x20 DUP5 MLOAD SWAP2 PUSH3 0x461BCD PUSH1 0xE5 SHL DUP4 MSTORE DUP3 ADD MSTORE PUSH1 0x13 PUSH1 0x24 DUP3 ADD MSTORE PUSH19 0x76414D4D3A20696E76616C696420726174696F PUSH1 0x68 SHL PUSH1 0x44 DUP3 ADD MSTORE REVERT JUMPDEST POP PUSH2 0x7D0 DUP3 GT ISZERO PUSH2 0x1FA9 JUMP JUMPDEST POP DUP3 DUP5 CALLVALUE PUSH2 0x4B3 JUMPI PUSH1 0x20 CALLDATASIZE PUSH1 0x3 NOT ADD SLT PUSH2 0x4B3 JUMPI DUP3 CALLDATALOAD SWAP1 PUSH2 0x205D PUSH2 0x2B74 JUMP JUMPDEST SWAP1 DUP2 DUP4 LT ISZERO PUSH2 0x2124 JUMPI JUMPDEST PUSH2 0x2079 DUP4 PUSH2 0x2073 PUSH2 0x2AA4 JUMP JUMPDEST SWAP4 PUSH2 0x2A97 JUMP JUMPDEST SWAP1 DUP2 PUSH2 0x20B0 JUMPI POP POP PUSH1 0x20 SWAP4 POP PUSH8 0xDE0B6B3A7640000 SWAP2 PUSH2 0x209F PUSH2 0x20A8 SWAP3 PUSH1 0x7 SLOAD SWAP1 PUSH2 0x2A8A JUMP JUMPDEST PUSH1 0x1 SHR SWAP1 PUSH2 0x2A41 JUMP JUMPDEST DIV SWAP1 MLOAD SWAP1 DUP2 MSTORE RETURN JUMPDEST PUSH8 0xDE0B6B3A7640000 SWAP2 DUP3 DUP2 MUL SWAP1 DUP2 DIV DUP4 SUB PUSH2 0x2111 JUMPI DUP3 SWAP1 DIV DUP3 ADD SWAP1 DUP2 DUP4 GT PUSH2 0x20FE JUMPI POP PUSH1 0x20 SWAP6 POP PUSH2 0x20A8 SWAP3 PUSH8 0xDE0B6B3A7640000 SWAP5 SWAP3 PUSH2 0x1CFD PUSH2 0x20F6 PUSH2 0x209F SWAP5 PUSH2 0x2C2D JUMP JUMPDEST PUSH1 0x7 SLOAD PUSH2 0x2A41 JUMP JUMPDEST PUSH4 0x4E487B71 PUSH1 0xE0 SHL DUP2 MSTORE PUSH1 0x11 DUP8 MSTORE PUSH1 0x24 SWAP1 REVERT JUMPDEST PUSH4 0x4E487B71 PUSH1 0xE0 SHL DUP3 MSTORE PUSH1 0x11 DUP8 MSTORE PUSH1 0x24 DUP3 REVERT JUMPDEST SWAP2 POP DUP1 SWAP2 PUSH2 0x2067 JUMP JUMPDEST POP POP POP CALLVALUE PUSH2 0x340 JUMPI DUP2 PUSH1 0x3 NOT CALLDATASIZE ADD SLT PUSH2 0x340 JUMPI PUSH1 0x20 SWAP1 PUSH1 0x17 SLOAD SWAP1 MLOAD SWAP1 DUP2 MSTORE RETURN JUMPDEST POP POP POP CALLVALUE PUSH2 0x340 JUMPI PUSH1 0x20 CALLDATASIZE PUSH1 0x3 NOT ADD SLT PUSH2 0x340 JUMPI PUSH2 0x2169 PUSH2 0x2970 JUMP JUMPDEST DUP3 SLOAD PUSH1 0x1 PUSH1 0x1 PUSH1 0xA0 SHL SUB SWAP2 SWAP1 PUSH2 0x2182 SWAP1 DUP4 AND CALLER EQ PUSH2 0x2C79 JUMP JUMPDEST AND DUP1 DUP4 MSTORE PUSH1 0x14 PUSH1 0x20 MSTORE SWAP1 DUP3 KECCAK256 DUP1 SLOAD PUSH1 0xFF NOT AND SWAP1 SSTORE PUSH32 0xFAFD0343E6C6F6985727574866DA48938C918559EB9521CF9CC0D317EA0F7B4 DUP3 DUP1 LOG2 DUP1 RETURN JUMPDEST DUP5 DUP3 DUP6 CALLVALUE PUSH2 0x411 JUMPI PUSH1 0x20 DUP1 PUSH1 0x3 NOT CALLDATASIZE ADD SLT PUSH2 0x155D JUMPI DUP3 CALLDATALOAD SWAP2 PUSH2 0x21E4 PUSH1 0xFF PUSH1 0x18 SLOAD AND ISZERO PUSH2 0x2CB7 JUMP JUMPDEST DUP3 DUP6 MSTORE PUSH1 0xF DUP3 MSTORE PUSH2 0x21FD PUSH1 0xFF PUSH1 0x6 DUP4 DUP9 KECCAK256 ADD SLOAD AND PUSH2 0x2CF2 JUMP JUMPDEST DUP3 DUP6 MSTORE PUSH1 0x11 DUP3 MSTORE DUP1 DUP6 KECCAK256 SLOAD PUSH1 0x1 SLOAD PUSH1 0x5 SLOAD DUP4 MLOAD PUSH4 0x59CFFB9B PUSH1 0xE1 SHL DUP2 MSTORE PUSH1 0x1 PUSH1 0x1 PUSH1 0xA0 SHL SUB SWAP4 DUP5 AND DUP9 DUP3 ADD DUP2 DUP2 MSTORE PUSH1 0x20 DUP2 ADD SWAP4 SWAP1 SWAP4 MSTORE SWAP6 SWAP4 SWAP5 SWAP4 SWAP3 SWAP1 SWAP2 DUP4 SWAP2 DUP4 SWAP2 DUP3 SWAP1 SUB PUSH1 0x40 ADD SWAP1 DUP3 SWAP1 DUP9 AND GAS STATICCALL SWAP1 DUP2 ISZERO PUSH2 0x23F8 JUMPI DUP9 SWAP2 PUSH2 0x23C2 JUMPI JUMPDEST POP ISZERO PUSH2 0x2387 JUMPI DUP5 DUP8 MSTORE PUSH1 0xF DUP2 MSTORE DUP2 DUP8 KECCAK256 SWAP1 PUSH1 0x1 DUP3 ADD SLOAD SWAP7 PUSH2 0x2278 PUSH2 0x2F58 JUMP JUMPDEST PUSH2 0x2281 DUP8 PUSH2 0x30A0 JUMP JUMPDEST DUP9 PUSH2 0x2710 PUSH2 0x2290 DUP4 SLOAD DUP12 PUSH2 0x2A41 JUMP JUMPDEST DIV SWAP6 PUSH1 0xFF PUSH1 0x2 DUP7 ADD SLOAD AND PUSH1 0x0 EQ PUSH2 0x2373 JUMPI PUSH2 0x22AD DUP11 PUSH1 0x15 SLOAD PUSH2 0x2DC2 JUMP JUMPDEST PUSH1 0x15 SSTORE JUMPDEST PUSH2 0x22B9 PUSH2 0x2DDB JUMP JUMPDEST PUSH1 0x6 PUSH2 0x22C3 PUSH2 0x2AA4 JUMP JUMPDEST SWAP6 ADD DUP1 SLOAD PUSH1 0xFF NOT AND SWAP1 SSTORE PUSH2 0x22D7 DUP10 DUP10 PUSH2 0x2E67 JUMP JUMPDEST PUSH1 0x1 SLOAD AND SWAP2 DUP3 EXTCODESIZE ISZERO PUSH2 0x340 JUMPI DUP6 MLOAD PUSH4 0xBCBAF487 PUSH1 0xE0 SHL DUP2 MSTORE PUSH1 0x1 PUSH1 0x1 PUSH1 0xA0 SHL SUB DUP10 AND SWAP2 DUP2 ADD SWAP2 DUP3 MSTORE PUSH1 0x20 DUP3 ADD DUP9 SWAP1 MSTORE SWAP3 DUP4 SWAP2 DUP3 SWAP1 DUP5 SWAP1 DUP3 SWAP1 PUSH1 0x40 ADD SUB SWAP3 GAS CALL DUP1 ISZERO PUSH2 0x2369 JUMPI PUSH2 0x2356 JUMPI JUMPDEST POP DUP3 MLOAD SWAP7 DUP8 MSTORE DUP7 ADD MSTORE DUP5 ADD MSTORE PUSH32 0xEB125FC2316E55999AAACC483AA145655B8032D8BCE094F8A17174ED9994D9D7 PUSH1 0x60 CALLER SWAP5 LOG4 DUP1 RETURN JUMPDEST PUSH2 0x2362 SWAP1 SWAP9 SWAP2 SWAP9 PUSH2 0x2D70 JUMP JUMPDEST SWAP7 DUP9 PUSH2 0x2321 JUMP JUMPDEST DUP5 MLOAD RETURNDATASIZE DUP12 DUP3 RETURNDATACOPY RETURNDATASIZE SWAP1 REVERT JUMPDEST PUSH2 0x237F DUP11 PUSH1 0x16 SLOAD PUSH2 0x2DC2 JUMP JUMPDEST PUSH1 0x16 SSTORE PUSH2 0x22B1 JUMP JUMPDEST DUP6 SWAP1 PUSH1 0x64 SWAP3 MLOAD SWAP2 PUSH3 0x461BCD PUSH1 0xE5 SHL DUP4 MSTORE DUP3 ADD MSTORE PUSH1 0x16 PUSH1 0x24 DUP3 ADD MSTORE PUSH22 0x76414D4D3A2063616E6E6F74206C6971756964617465 PUSH1 0x50 SHL PUSH1 0x44 DUP3 ADD MSTORE REVERT JUMPDEST SWAP1 POP DUP2 DUP2 DUP2 RETURNDATASIZE DUP4 GT PUSH2 0x23F1 JUMPI JUMPDEST PUSH2 0x23D9 DUP2 DUP4 PUSH2 0x2DA0 JUMP JUMPDEST DUP2 ADD SUB SLT PUSH2 0xB03 JUMPI MLOAD DUP1 ISZERO ISZERO DUP2 SUB PUSH2 0xB03 JUMPI DUP9 PUSH2 0x2259 JUMP JUMPDEST POP RETURNDATASIZE PUSH2 0x23CF JUMP JUMPDEST DUP4 MLOAD RETURNDATASIZE DUP11 DUP3 RETURNDATACOPY RETURNDATASIZE SWAP1 REVERT JUMPDEST DUP5 CALLVALUE PUSH2 0x4B3 JUMPI DUP1 PUSH1 0x3 NOT CALLDATASIZE ADD SLT PUSH2 0x4B3 JUMPI PUSH2 0x2427 PUSH1 0x1 DUP1 PUSH1 0xA0 SHL SUB DUP3 SLOAD AND CALLER EQ PUSH2 0x2C79 JUMP JUMPDEST PUSH1 0xFF NOT PUSH1 0x18 SLOAD AND PUSH1 0x18 SSTORE PUSH32 0xA45F47FDEA8A1EFDD9029A5691C7F759C32B7C698632B563573E155625D16933 DUP2 DUP1 LOG1 DUP1 RETURN JUMPDEST POP POP POP CALLVALUE PUSH2 0x340 JUMPI DUP2 PUSH1 0x3 NOT CALLDATASIZE ADD SLT PUSH2 0x340 JUMPI PUSH1 0x20 SWAP1 MLOAD PUSH1 0x1 DUP2 MSTORE RETURN JUMPDEST POP POP POP CALLVALUE PUSH2 0x340 JUMPI DUP2 PUSH1 0x3 NOT CALLDATASIZE ADD SLT PUSH2 0x340 JUMPI PUSH1 0x20 SWAP1 PUSH1 0x8 SLOAD SWAP1 MLOAD SWAP1 DUP2 MSTORE RETURN JUMPDEST SWAP2 POP SWAP2 CALLVALUE PUSH2 0x155D JUMPI PUSH1 0x20 DUP1 PUSH1 0x3 NOT CALLDATASIZE ADD SLT PUSH2 0x18D7 JUMPI PUSH1 0x1 PUSH1 0x1 PUSH1 0xA0 SHL SUB PUSH2 0x24BA PUSH2 0x2970 JUMP JUMPDEST AND DUP6 MSTORE PUSH1 0x10 DUP2 MSTORE DUP2 DUP6 KECCAK256 DUP3 MLOAD DUP1 DUP3 DUP5 DUP3 SWAP5 SLOAD SWAP4 DUP5 DUP2 MSTORE ADD SWAP1 DUP10 MSTORE DUP5 DUP10 KECCAK256 SWAP3 DUP10 JUMPDEST DUP7 DUP3 DUP3 LT PUSH2 0x26AF JUMPI POP POP POP PUSH2 0x24F1 SWAP3 POP SUB DUP3 PUSH2 0x2DA0 JUMP JUMPDEST DUP6 SWAP4 DUP7 JUMPDEST DUP3 MLOAD DUP2 LT ISZERO PUSH2 0x2541 JUMPI PUSH2 0x2508 DUP2 DUP5 PUSH2 0x3276 JUMP JUMPDEST MLOAD DUP9 MSTORE PUSH1 0xF DUP5 MSTORE PUSH1 0xFF PUSH1 0x6 DUP7 DUP11 KECCAK256 ADD SLOAD AND PUSH2 0x252C JUMPI JUMPDEST PUSH2 0x2527 SWAP1 PUSH2 0x2E58 JUMP JUMPDEST PUSH2 0x24F5 JUMP JUMPDEST SWAP5 PUSH2 0x2539 PUSH2 0x2527 SWAP2 PUSH2 0x2E58 JUMP JUMPDEST SWAP6 SWAP1 POP PUSH2 0x251E JUMP JUMPDEST POP SWAP5 SWAP1 DUP7 SWAP4 SWAP5 PUSH2 0x2550 DUP2 PUSH2 0x328A JUMP JUMPDEST SWAP1 PUSH2 0x255D DUP8 MLOAD SWAP3 DUP4 PUSH2 0x2DA0 JUMP JUMPDEST DUP1 DUP3 MSTORE PUSH2 0x256C PUSH1 0x1F NOT SWAP2 PUSH2 0x328A JUMP JUMPDEST ADD DUP5 DUP7 JUMPDEST DUP3 DUP2 LT PUSH2 0x2699 JUMPI POP POP POP DUP5 SWAP4 DUP6 JUMPDEST DUP4 MLOAD DUP2 LT ISZERO PUSH2 0x264B JUMPI PUSH2 0x2591 DUP2 DUP6 PUSH2 0x3276 JUMP JUMPDEST MLOAD DUP8 MSTORE PUSH1 0xF DUP1 DUP4 MSTORE PUSH1 0xFF PUSH1 0x6 SWAP2 DUP2 DUP4 DUP13 DUP13 KECCAK256 ADD SLOAD AND PUSH2 0x25BC JUMPI JUMPDEST POP POP POP PUSH2 0x25B7 SWAP1 PUSH2 0x2E58 JUMP JUMPDEST PUSH2 0x257E JUMP JUMPDEST SWAP2 DUP4 SWAP9 SWAP2 PUSH2 0x2642 SWAP4 PUSH2 0x25D1 PUSH2 0x25B7 SWAP7 DUP11 PUSH2 0x3276 JUMP JUMPDEST MLOAD DUP13 MSTORE DUP7 MSTORE DUP12 DUP12 KECCAK256 SWAP2 DUP13 MLOAD SWAP3 PUSH2 0x25E6 DUP5 PUSH2 0x2D3E JUMP JUMPDEST DUP1 SLOAD DUP5 MSTORE PUSH1 0x1 DUP2 ADD SLOAD DUP9 DUP6 ADD MSTORE PUSH1 0x2 DUP2 ADD SLOAD DUP4 AND ISZERO ISZERO DUP15 DUP6 ADD MSTORE PUSH1 0x3 DUP2 ADD SLOAD PUSH1 0x60 DUP6 ADD MSTORE DUP11 DUP2 ADD SLOAD PUSH1 0x80 DUP6 ADD MSTORE PUSH1 0x5 DUP2 ADD SLOAD PUSH1 0xA0 DUP6 ADD MSTORE ADD SLOAD AND ISZERO ISZERO PUSH1 0xC0 DUP3 ADD MSTORE PUSH2 0x2631 DUP3 DUP8 PUSH2 0x3276 JUMP JUMPDEST MSTORE PUSH2 0x263C DUP2 DUP7 PUSH2 0x3276 JUMP JUMPDEST POP PUSH2 0x2E58 JUMP JUMPDEST SWAP6 SWAP1 DUP11 DUP1 PUSH2 0x25AB JUMP JUMPDEST DUP8 MLOAD DUP3 DUP2 MSTORE DUP4 MLOAD DUP2 DUP5 ADD DUP2 SWAP1 MSTORE DUP2 SWAP1 DUP2 DUP12 ADD SWAP1 DUP7 DUP7 ADD SWAP1 DUP7 DUP13 DUP16 JUMPDEST DUP4 DUP3 LT PUSH2 0x2673 JUMPI DUP7 DUP7 SUB DUP8 RETURN JUMPDEST SWAP2 DUP5 SWAP7 POP DUP3 DUP7 PUSH2 0x2689 PUSH1 0x1 SWAP5 SWAP7 SWAP9 DUP5 SWAP9 MLOAD PUSH2 0x299C JUMP JUMPDEST ADD SWAP7 ADD SWAP3 ADD DUP7 SWAP6 SWAP5 SWAP3 SWAP4 SWAP2 PUSH2 0x2666 JUMP JUMPDEST PUSH2 0x26A1 PUSH2 0x31F2 JUMP JUMPDEST DUP3 DUP3 DUP7 ADD ADD MSTORE ADD DUP6 SWAP1 PUSH2 0x2570 JUMP JUMPDEST DUP6 SLOAD DUP5 MSTORE PUSH1 0x1 SWAP6 DUP7 ADD SWAP6 DUP8 SWAP6 POP SWAP4 ADD SWAP3 ADD PUSH2 0x24DA JUMP JUMPDEST DUP5 CALLVALUE PUSH2 0x4B3 JUMPI DUP1 PUSH1 0x3 NOT CALLDATASIZE ADD SLT PUSH2 0x4B3 JUMPI PUSH2 0x26DE PUSH2 0x2F58 JUMP JUMPDEST DUP1 RETURN JUMPDEST SWAP1 DUP4 DUP6 CALLVALUE PUSH2 0x4B3 JUMPI DUP2 PUSH1 0x3 NOT CALLDATASIZE ADD SLT PUSH2 0x4B3 JUMPI SWAP1 PUSH1 0xFF PUSH1 0x6 DUP3 PUSH2 0x7FD SWAP5 PUSH2 0x2706 PUSH2 0x2970 JUMP JUMPDEST PUSH2 0x2735 PUSH1 0x24 CALLDATALOAD SWAP2 PUSH2 0x2715 PUSH2 0x31F2 JUMP JUMPDEST POP DUP3 DUP5 MSTORE PUSH1 0x11 PUSH1 0x20 MSTORE DUP5 DUP5 KECCAK256 SLOAD PUSH1 0x1 PUSH1 0x1 PUSH1 0xA0 SHL SUB SWAP2 DUP3 AND SWAP2 AND EQ PUSH2 0x322A JUMP JUMPDEST DUP2 MSTORE PUSH1 0xF PUSH1 0x20 MSTORE KECCAK256 DUP4 MLOAD SWAP6 PUSH2 0x7B4 DUP8 PUSH2 0x2D3E JUMP JUMPDEST DUP4 DUP6 CALLVALUE PUSH2 0x4B3 JUMPI PUSH1 0x20 CALLDATASIZE PUSH1 0x3 NOT ADD SLT PUSH2 0x4B3 JUMPI POP PUSH2 0x7FD PUSH2 0x2770 PUSH2 0x276B PUSH2 0x2970 JUMP JUMPDEST PUSH2 0x33F8 JUMP JUMPDEST SWAP2 MLOAD DUP1 SWAP3 PUSH2 0x299C JUMP JUMPDEST POP SWAP1 POP CALLVALUE PUSH2 0x411 JUMPI PUSH2 0x278A CALLDATASIZE PUSH2 0x2986 JUMP JUMPDEST PUSH2 0x27A1 PUSH1 0x1 DUP1 PUSH1 0xA0 SWAP6 SWAP5 SWAP6 SHL SUB DUP7 SLOAD AND CALLER EQ PUSH2 0x2C79 JUMP JUMPDEST DUP3 ISZERO PUSH2 0x282B JUMPI ISZERO PUSH2 0x27EF JUMPI POP DUP2 PUSH1 0x80 SWAP2 PUSH1 0x12 PUSH1 0x0 DUP1 MLOAD PUSH1 0x20 PUSH2 0x358B DUP4 CODECOPY DUP2 MLOAD SWAP2 MSTORE SWAP5 MLOAD SWAP3 DUP1 DUP5 MSTORE DUP4 ADD MSTORE PUSH18 0x626F6E64696E674375727665506172616D73 PUSH1 0x70 SHL PUSH1 0x60 DUP4 ADD MSTORE PUSH1 0x20 DUP3 ADD MSTORE LOG1 DUP1 RETURN JUMPDEST PUSH1 0x64 SWAP1 PUSH1 0x20 DUP5 MLOAD SWAP2 PUSH3 0x461BCD PUSH1 0xE5 SHL DUP4 MSTORE DUP3 ADD MSTORE PUSH1 0x16 PUSH1 0x24 DUP3 ADD MSTORE PUSH22 0x1D9053534E881A5B9D985B1A5908195E1C1BDB995B9D PUSH1 0x52 SHL PUSH1 0x44 DUP3 ADD MSTORE REVERT JUMPDEST DUP4 MLOAD PUSH3 0x461BCD PUSH1 0xE5 SHL DUP2 MSTORE PUSH1 0x20 DUP2 DUP5 ADD MSTORE PUSH1 0x17 PUSH1 0x24 DUP3 ADD MSTORE PUSH32 0x76414D4D3A20696E76616C69642073746565706E657373000000000000000000 PUSH1 0x44 DUP3 ADD MSTORE PUSH1 0x64 SWAP1 REVERT JUMPDEST POP DUP3 DUP5 CALLVALUE PUSH2 0x4B3 JUMPI PUSH1 0x20 CALLDATASIZE PUSH1 0x3 NOT ADD SLT PUSH2 0x4B3 JUMPI DUP3 CALLDATALOAD PUSH2 0x288C PUSH2 0x2B74 JUMP JUMPDEST PUSH2 0x289E DUP3 PUSH2 0x2898 PUSH2 0x2AA4 JUMP JUMPDEST SWAP3 PUSH2 0x2A8A JUMP JUMPDEST SWAP3 PUSH8 0xDE0B6B3A7640000 SWAP4 DUP5 DUP2 MUL SWAP1 DUP1 DUP3 DIV DUP7 EQ SWAP1 ISZERO OR ISZERO PUSH2 0x2111 JUMPI DUP5 SWAP1 DIV DUP5 ADD DUP1 DUP6 GT PUSH2 0x2111 JUMPI PUSH2 0x28CF SWAP1 PUSH2 0x2C2D JUMP JUMPDEST SWAP1 DUP5 PUSH2 0x28DE PUSH1 0x7 SLOAD SWAP4 DUP5 PUSH2 0x2A41 JUMP JUMPDEST DIV SWAP1 PUSH2 0x3E8 SWAP3 DUP4 DUP2 MUL SWAP4 DUP2 DUP6 DIV EQ SWAP1 ISZERO OR ISZERO PUSH2 0x4A0 JUMPI POP PUSH1 0x20 SWAP7 POP PUSH2 0x20A8 SWAP4 SWAP3 PUSH2 0x209F SWAP3 SWAP1 SWAP2 DUP2 DUP2 GT ISZERO PUSH2 0x2913 JUMPI POP SWAP1 PUSH2 0x2A8A JUMP JUMPDEST SWAP1 POP SWAP1 PUSH2 0x2A8A JUMP JUMPDEST POP DUP3 DUP5 CALLVALUE PUSH2 0x4B3 JUMPI PUSH1 0x20 CALLDATASIZE PUSH1 0x3 NOT ADD SLT PUSH2 0x4B3 JUMPI POP PUSH2 0xBCF PUSH1 0x20 SWAP3 CALLDATALOAD PUSH2 0x32A2 JUMP JUMPDEST DUP6 SWAP1 DUP6 CALLVALUE PUSH2 0x411 JUMPI PUSH1 0x20 CALLDATASIZE PUSH1 0x3 NOT ADD SLT PUSH2 0x411 JUMPI PUSH1 0x20 SWAP3 PUSH1 0x1 PUSH1 0x1 PUSH1 0xA0 SHL SUB PUSH2 0x2963 PUSH2 0x2970 JUMP JUMPDEST AND DUP2 MSTORE PUSH1 0x12 DUP5 MSTORE KECCAK256 SLOAD DUP2 MSTORE RETURN JUMPDEST PUSH1 0x4 CALLDATALOAD SWAP1 PUSH1 0x1 PUSH1 0x1 PUSH1 0xA0 SHL SUB DUP3 AND DUP3 SUB PUSH2 0x1318 JUMPI JUMP JUMPDEST PUSH1 0x40 SWAP1 PUSH1 0x3 NOT ADD SLT PUSH2 0x1318 JUMPI PUSH1 0x4 CALLDATALOAD SWAP1 PUSH1 0x24 CALLDATALOAD SWAP1 JUMP JUMPDEST PUSH1 0xC0 DUP1 SWAP2 DUP1 MLOAD DUP5 MSTORE PUSH1 0x20 DUP2 ADD MLOAD PUSH1 0x20 DUP6 ADD MSTORE PUSH1 0x40 DUP2 ADD MLOAD ISZERO ISZERO PUSH1 0x40 DUP6 ADD MSTORE PUSH1 0x60 DUP2 ADD MLOAD PUSH1 0x60 DUP6 ADD MSTORE PUSH1 0x80 DUP2 ADD MLOAD PUSH1 0x80 DUP6 ADD MSTORE PUSH1 0xA0 DUP2 ADD MLOAD PUSH1 0xA0 DUP6 ADD MSTORE ADD MLOAD ISZERO ISZERO SWAP2 ADD MSTORE JUMP JUMPDEST PUSH1 0x24 CALLDATALOAD SWAP1 DUP2 ISZERO ISZERO DUP3 SUB PUSH2 0x1318 JUMPI JUMP JUMPDEST CALLVALUE PUSH2 0x1318 JUMPI PUSH1 0x0 CALLDATASIZE PUSH1 0x3 NOT ADD SLT PUSH2 0x1318 JUMPI PUSH1 0x20 PUSH1 0x40 MLOAD PUSH8 0xDE0B6B3A7640000 DUP2 MSTORE RETURN JUMPDEST DUP1 SLOAD DUP3 LT ISZERO PUSH2 0x2A2B JUMPI PUSH1 0x0 MSTORE PUSH1 0x20 PUSH1 0x0 KECCAK256 ADD SWAP1 PUSH1 0x0 SWAP1 JUMP JUMPDEST PUSH4 0x4E487B71 PUSH1 0xE0 SHL PUSH1 0x0 MSTORE PUSH1 0x32 PUSH1 0x4 MSTORE PUSH1 0x24 PUSH1 0x0 REVERT JUMPDEST DUP2 DUP2 MUL SWAP3 SWAP2 DUP2 ISZERO SWAP2 DUP5 DIV EQ OR ISZERO PUSH2 0x2A54 JUMPI JUMP JUMPDEST PUSH4 0x4E487B71 PUSH1 0xE0 SHL PUSH1 0x0 MSTORE PUSH1 0x11 PUSH1 0x4 MSTORE PUSH1 0x24 PUSH1 0x0 REVERT JUMPDEST DUP2 ISZERO PUSH2 0x2A74 JUMPI DIV SWAP1 JUMP JUMPDEST PUSH4 0x4E487B71 PUSH1 0xE0 SHL PUSH1 0x0 MSTORE PUSH1 0x12 PUSH1 0x4 MSTORE PUSH1 0x24 PUSH1 0x0 REVERT JUMPDEST SWAP2 SWAP1 DUP3 ADD DUP1 SWAP3 GT PUSH2 0x2A54 JUMPI JUMP JUMPDEST SWAP2 SWAP1 DUP3 SUB SWAP2 DUP3 GT PUSH2 0x2A54 JUMPI JUMP JUMPDEST PUSH2 0x2AAC PUSH2 0x2B74 JUMP JUMPDEST DUP1 ISZERO PUSH2 0x2B6D JUMPI PUSH8 0xDE0B6B3A7640000 SWAP1 DUP2 DUP2 MUL SWAP1 DUP2 DIV DUP3 SUB PUSH2 0x2A54 JUMPI DUP2 SWAP1 DIV DUP1 DUP3 ADD SWAP1 DUP2 DUP4 GT PUSH2 0x2A54 JUMPI PUSH1 0x0 SWAP2 DUP4 DUP2 GT PUSH2 0x2B17 JUMPI POP POP POP DUP1 JUMPDEST PUSH1 0x7 SLOAD PUSH2 0x3E8 SWAP3 DUP4 DUP3 MUL SWAP4 DUP3 DUP6 DIV EQ DUP3 ISZERO OR ISZERO PUSH2 0x2A54 JUMPI PUSH2 0x2B05 SWAP2 PUSH2 0x2A41 JUMP JUMPDEST DIV DUP2 DUP2 GT ISZERO PUSH2 0x2B12 JUMPI POP SWAP1 JUMP JUMPDEST SWAP1 POP SWAP1 JUMP JUMPDEST DUP2 GT PUSH2 0x2B59 JUMPI PUSH1 0xC DUP2 MUL SWAP1 DUP1 DUP3 DIV PUSH1 0xC EQ SWAP1 ISZERO OR ISZERO PUSH2 0x2B59 JUMPI PUSH1 0xA SWAP1 DIV DUP3 ADD SWAP1 DUP2 DUP4 GT PUSH2 0x2B45 JUMPI POP SWAP1 PUSH2 0x2AE5 JUMP JUMPDEST PUSH4 0x4E487B71 PUSH1 0xE0 SHL DUP2 MSTORE PUSH1 0x11 PUSH1 0x4 MSTORE PUSH1 0x24 SWAP1 REVERT JUMPDEST PUSH4 0x4E487B71 PUSH1 0xE0 SHL DUP3 MSTORE PUSH1 0x11 PUSH1 0x4 MSTORE PUSH1 0x24 DUP3 REVERT JUMPDEST POP PUSH1 0x7 SLOAD SWAP1 JUMP JUMPDEST PUSH1 0x15 SLOAD PUSH1 0x0 DUP1 DUP3 SGT ISZERO PUSH2 0x2B12 JUMPI POP SWAP1 JUMP JUMPDEST SWAP1 ISZERO PUSH2 0x2C27 JUMPI PUSH2 0x2BA4 PUSH2 0x2B96 PUSH2 0x2AA4 JUMP JUMPDEST SWAP2 PUSH2 0x2B9F PUSH2 0x2B74 JUMP JUMPDEST PUSH2 0x2A8A JUMP JUMPDEST PUSH8 0xDE0B6B3A7640000 SWAP1 DUP2 DUP2 MUL SWAP1 DUP1 DUP3 DIV DUP4 EQ SWAP1 ISZERO OR ISZERO PUSH2 0x2A54 JUMPI DUP2 SWAP1 DIV DUP2 ADD DUP1 DUP3 GT PUSH2 0x2A54 JUMPI PUSH2 0x2BD4 SWAP1 PUSH2 0x2C2D JUMP JUMPDEST SWAP1 PUSH2 0x2BE2 PUSH1 0x7 SLOAD SWAP3 DUP4 PUSH2 0x2A41 JUMP JUMPDEST DIV PUSH2 0x3E8 SWAP2 DUP3 DUP2 MUL SWAP3 DUP2 DUP5 DIV EQ SWAP1 ISZERO OR ISZERO PUSH2 0x2A54 JUMPI DUP2 DUP2 GT ISZERO PUSH2 0x2C1F JUMPI POP SWAP1 JUMPDEST PUSH1 0x0 SWAP2 DUP2 DUP2 GT ISZERO PUSH2 0x2C1A JUMPI PUSH2 0x2C17 SWAP3 POP PUSH2 0x2A97 JUMP JUMPDEST SWAP1 JUMP JUMPDEST POP POP SWAP1 JUMP JUMPDEST SWAP1 POP SWAP1 PUSH2 0x2C02 JUMP JUMPDEST POP PUSH1 0x0 SWAP1 JUMP JUMPDEST PUSH8 0xDE0B6B3A7640000 SWAP1 DUP2 DUP2 GT ISZERO PUSH2 0x2C75 JUMPI PUSH8 0xDE0B6B3A763FFFF NOT DUP2 ADD SWAP1 DUP2 GT PUSH2 0x2A54 JUMPI PUSH1 0xC DUP2 MUL SWAP1 DUP1 DUP3 DIV PUSH1 0xC EQ SWAP1 ISZERO OR ISZERO PUSH2 0x2A54 JUMPI PUSH1 0xA SWAP1 DIV DUP2 ADD DUP1 SWAP2 GT PUSH2 0x2A54 JUMPI SWAP1 JUMP JUMPDEST POP SWAP1 JUMP JUMPDEST ISZERO PUSH2 0x2C80 JUMPI JUMP JUMPDEST PUSH1 0x40 MLOAD PUSH3 0x461BCD PUSH1 0xE5 SHL DUP2 MSTORE PUSH1 0x20 PUSH1 0x4 DUP3 ADD MSTORE PUSH1 0xF PUSH1 0x24 DUP3 ADD MSTORE PUSH15 0x3B20A6A69D103737BA1037BBB732B9 PUSH1 0x89 SHL PUSH1 0x44 DUP3 ADD MSTORE PUSH1 0x64 SWAP1 REVERT JUMPDEST ISZERO PUSH2 0x2CBE JUMPI JUMP JUMPDEST PUSH1 0x40 MLOAD PUSH3 0x461BCD PUSH1 0xE5 SHL DUP2 MSTORE PUSH1 0x20 PUSH1 0x4 DUP3 ADD MSTORE PUSH1 0xC PUSH1 0x24 DUP3 ADD MSTORE PUSH12 0x1D9053534E881C185D5CD959 PUSH1 0xA2 SHL PUSH1 0x44 DUP3 ADD MSTORE PUSH1 0x64 SWAP1 REVERT JUMPDEST ISZERO PUSH2 0x2CF9 JUMPI JUMP JUMPDEST PUSH1 0x40 MLOAD PUSH3 0x461BCD PUSH1 0xE5 SHL DUP2 MSTORE PUSH1 0x20 PUSH1 0x4 DUP3 ADD MSTORE PUSH1 0x19 PUSH1 0x24 DUP3 ADD MSTORE PUSH32 0x76414D4D3A20706F736974696F6E206E6F742061637469766500000000000000 PUSH1 0x44 DUP3 ADD MSTORE PUSH1 0x64 SWAP1 REVERT JUMPDEST PUSH1 0xE0 DUP2 ADD SWAP1 DUP2 LT PUSH8 0xFFFFFFFFFFFFFFFF DUP3 GT OR PUSH2 0x2D5A JUMPI PUSH1 0x40 MSTORE JUMP JUMPDEST PUSH4 0x4E487B71 PUSH1 0xE0 SHL PUSH1 0x0 MSTORE PUSH1 0x41 PUSH1 0x4 MSTORE PUSH1 0x24 PUSH1 0x0 REVERT JUMPDEST PUSH8 0xFFFFFFFFFFFFFFFF DUP2 GT PUSH2 0x2D5A JUMPI PUSH1 0x40 MSTORE JUMP JUMPDEST PUSH1 0x80 DUP2 ADD SWAP1 DUP2 LT PUSH8 0xFFFFFFFFFFFFFFFF DUP3 GT OR PUSH2 0x2D5A JUMPI PUSH1 0x40 MSTORE JUMP JUMPDEST SWAP1 PUSH1 0x1F DUP1 NOT SWAP2 ADD AND DUP2 ADD SWAP1 DUP2 LT PUSH8 0xFFFFFFFFFFFFFFFF DUP3 GT OR PUSH2 0x2D5A JUMPI PUSH1 0x40 MSTORE JUMP JUMPDEST DUP2 DUP2 SUB SWAP3 SWAP2 PUSH1 0x0 SGT DUP1 ISZERO DUP3 DUP6 SGT AND SWAP2 DUP5 SLT AND OR PUSH2 0x2A54 JUMPI JUMP JUMPDEST PUSH32 0x1551B5180CE27B1B0D183046BBF7F4ED792368FA907DCAA0E08D22C5E8B14512 PUSH1 0x60 PUSH2 0x2E06 PUSH2 0x2AA4 JUMP JUMPDEST PUSH2 0x2E0E PUSH2 0x2B74 JUMP JUMPDEST DUP1 ISZERO PUSH2 0x2E45 JUMPI PUSH8 0xDE0B6B3A7640000 PUSH2 0x2E2C DUP4 DUP4 JUMPDEST DUP1 PUSH1 0x9 SSTORE PUSH2 0x2A41 JUMP JUMPDEST DIV PUSH1 0xA SSTORE PUSH1 0x40 MLOAD SWAP2 DUP3 MSTORE PUSH1 0x20 DUP3 ADD MSTORE PUSH1 0x0 PUSH1 0x40 DUP3 ADD MSTORE LOG1 JUMP JUMPDEST PUSH8 0xDE0B6B3A7640000 PUSH2 0x2E2C DUP4 DUP3 PUSH2 0x2E23 JUMP JUMPDEST PUSH1 0x0 NOT DUP2 EQ PUSH2 0x2A54 JUMPI PUSH1 0x1 ADD SWAP1 JUMP JUMPDEST PUSH1 0x1 PUSH1 0x1 PUSH1 0xA0 SHL SUB AND PUSH1 0x0 SWAP1 DUP2 MSTORE PUSH1 0x10 PUSH1 0x20 MSTORE PUSH1 0x40 DUP2 KECCAK256 SWAP1 SWAP2 SWAP1 DUP3 JUMPDEST DUP2 SLOAD DUP1 DUP3 LT ISZERO PUSH2 0x2F35 JUMPI DUP4 SWAP1 PUSH2 0x2E99 DUP4 DUP6 PUSH2 0x2A13 JUMP JUMPDEST SWAP3 SWAP1 SLOAD PUSH1 0x3 SWAP4 DUP5 SHL SHR EQ PUSH2 0x2EB7 JUMPI POP POP PUSH2 0x2EB2 SWAP1 PUSH2 0x2E58 JUMP JUMPDEST PUSH2 0x2E83 JUMP JUMPDEST SWAP3 SWAP4 POP SWAP4 SWAP1 PUSH1 0x0 NOT SWAP3 DUP4 DUP2 ADD SWAP1 DUP2 GT PUSH2 0x2F21 JUMPI SWAP1 PUSH2 0xA3F PUSH2 0x2EDB PUSH2 0x2EE8 SWAP4 DUP8 PUSH2 0x2A13 JUMP JUMPDEST SWAP1 SLOAD SWAP1 DUP9 SHL SHR SWAP2 DUP7 PUSH2 0x2A13 JUMP JUMPDEST DUP3 SLOAD SWAP1 DUP2 ISZERO PUSH2 0x2F0D JUMPI POP DUP2 ADD SWAP3 PUSH2 0x2EFF DUP5 DUP5 PUSH2 0x2A13 JUMP JUMPDEST DUP2 SWAP4 SWAP2 SLOAD SWAP3 SHL SHL NOT AND SWAP1 SSTORE SSTORE JUMP JUMPDEST PUSH4 0x4E487B71 PUSH1 0xE0 SHL DUP2 MSTORE PUSH1 0x31 PUSH1 0x4 MSTORE PUSH1 0x24 SWAP1 REVERT JUMPDEST PUSH4 0x4E487B71 PUSH1 0xE0 SHL DUP4 MSTORE PUSH1 0x11 PUSH1 0x4 MSTORE PUSH1 0x24 DUP4 REVERT JUMPDEST POP POP POP POP POP JUMP JUMPDEST SWAP2 SWAP1 SWAP2 PUSH1 0x0 DUP4 DUP3 ADD SWAP4 DUP5 SLT SWAP2 SLT SWAP1 DUP1 ISZERO DUP3 AND SWAP2 ISZERO AND OR PUSH2 0x2A54 JUMPI JUMP JUMPDEST PUSH1 0xD SLOAD PUSH2 0xE10 DUP2 ADD DUP1 SWAP2 GT PUSH2 0x2A54 JUMPI TIMESTAMP LT PUSH2 0x309E JUMPI PUSH2 0x2F75 PUSH2 0x2AA4 JUMP JUMPDEST PUSH1 0x2 SLOAD PUSH1 0x40 MLOAD PUSH4 0x4C6AFEE5 PUSH1 0xE1 SHL DUP2 MSTORE SWAP1 PUSH1 0x20 SWAP1 DUP3 SWAP1 PUSH1 0x4 SWAP1 DUP3 SWAP1 PUSH1 0x1 PUSH1 0x1 PUSH1 0xA0 SHL SUB AND GAS STATICCALL SWAP1 DUP2 ISZERO PUSH2 0x3092 JUMPI PUSH1 0x0 SWAP2 PUSH2 0x3061 JUMPI JUMPDEST POP PUSH4 0x5F5E100 SWAP2 DUP3 DUP2 MUL SWAP3 DUP2 DUP5 DIV EQ SWAP1 ISZERO OR ISZERO PUSH2 0x2A54 JUMPI PUSH2 0x2FCA SWAP2 PUSH2 0x2A6A JUMP JUMPDEST PUSH4 0x5F5E0FF NOT DUP2 ADD SWAP1 DUP2 SGT PUSH1 0x1 AND PUSH2 0x2A54 JUMPI PUSH32 0xD0794AC40E87E336E6E652E1EEF2CDB3793D91F30DCC09A45D18DB669A686B94 SWAP1 PUSH1 0x60 SWAP1 PUSH3 0xF4240 PUSH1 0x18 DUP3 SDIV DUP2 DUP2 SGT ISZERO PUSH2 0x3043 JUMPI POP SWAP1 JUMPDEST DUP2 PUSH1 0xB SSTORE DUP1 PUSH1 0xE SSTORE TIMESTAMP PUSH1 0xD SSTORE PUSH2 0x302C DUP3 PUSH1 0xC SLOAD PUSH2 0x2F3C JUMP JUMPDEST DUP1 PUSH1 0xC SSTORE PUSH1 0x40 MLOAD SWAP3 DUP4 MSTORE PUSH1 0x20 DUP4 ADD MSTORE PUSH1 0x40 DUP3 ADD MSTORE LOG1 JUMP JUMPDEST SWAP2 SWAP1 POP PUSH3 0xF423F NOT DUP1 DUP4 SLT PUSH2 0x3059 JUMPI JUMPDEST POP PUSH2 0x3014 JUMP JUMPDEST SWAP2 POP CODESIZE PUSH2 0x3053 JUMP JUMPDEST SWAP1 PUSH1 0x20 DUP3 RETURNDATASIZE DUP3 GT PUSH2 0x308A JUMPI JUMPDEST DUP2 PUSH2 0x307A PUSH1 0x20 SWAP4 DUP4 PUSH2 0x2DA0 JUMP JUMPDEST DUP2 ADD SUB SLT PUSH2 0x4B3 JUMPI POP MLOAD CODESIZE PUSH2 0x2FAA JUMP JUMPDEST RETURNDATASIZE SWAP2 POP PUSH2 0x306D JUMP JUMPDEST PUSH1 0x40 MLOAD RETURNDATASIZE PUSH1 0x0 DUP3 RETURNDATACOPY RETURNDATASIZE SWAP1 REVERT JUMPDEST JUMP JUMPDEST SWAP1 PUSH1 0x0 SWAP2 DUP1 DUP4 MSTORE PUSH1 0xF PUSH1 0x20 MSTORE PUSH1 0x40 DUP1 DUP5 KECCAK256 SWAP1 PUSH1 0xFF PUSH1 0x6 DUP4 ADD SLOAD AND ISZERO DUP1 ISZERO PUSH2 0x31E6 JUMPI JUMPDEST PUSH2 0x31DF JUMPI PUSH1 0xC SLOAD SWAP2 PUSH1 0x4 DUP2 ADD PUSH2 0x30D9 DUP2 SLOAD DUP6 PUSH2 0x2A97 JUMP JUMPDEST DUP1 ISZERO PUSH2 0x31D5 JUMPI PUSH1 0x2 PUSH4 0x5F5E100 PUSH2 0x30F6 PUSH1 0xFF SWAP4 PUSH1 0x1 DUP8 ADD SLOAD PUSH2 0x2A41 JUMP JUMPDEST DIV SWAP4 ADD SLOAD AND PUSH2 0x31AD JUMPI JUMPDEST DUP5 DUP8 MSTORE PUSH1 0x11 PUSH1 0x20 MSTORE DUP3 DUP8 KECCAK256 SLOAD PUSH1 0x1 SLOAD PUSH1 0x1 PUSH1 0x1 PUSH1 0xA0 SHL SUB SWAP2 DUP3 AND SWAP6 DUP10 SWAP3 SWAP1 SWAP2 AND DUP1 EXTCODESIZE ISZERO PUSH2 0x411 JUMPI PUSH1 0x64 DUP4 SWAP3 DUP8 MLOAD SWAP5 DUP6 SWAP4 DUP5 SWAP3 PUSH4 0x5969F96B PUSH1 0xE0 SHL DUP5 MSTORE DUP12 PUSH1 0x4 DUP6 ADD MSTORE DUP10 PUSH1 0x24 DUP6 ADD MSTORE PUSH1 0x44 DUP5 ADD MSTORE GAS CALL DUP1 ISZERO PUSH2 0x31A3 JUMPI PUSH32 0xC86C3274D0EB50DAAA9786E84B032F4EE9F7C878DFC21D805B52CADC5FF4A1B0 SWAP6 SWAP7 SWAP8 SWAP9 POP PUSH2 0x3194 JUMPI JUMPDEST POP PUSH1 0xC SLOAD DUP1 SWAP2 SSTORE DUP3 MLOAD SWAP2 DUP3 MSTORE PUSH1 0x20 DUP3 ADD MSTORE LOG3 JUMP JUMPDEST PUSH2 0x319D SWAP1 PUSH2 0x2D70 JUMP JUMPDEST CODESIZE PUSH2 0x3180 JUMP JUMPDEST DUP5 MLOAD RETURNDATASIZE DUP11 DUP3 RETURNDATACOPY RETURNDATASIZE SWAP1 REVERT JUMPDEST SWAP1 PUSH1 0x1 PUSH1 0xFF SHL DUP2 EQ PUSH2 0x31C1 JUMPI DUP7 SUB SWAP1 PUSH2 0x3100 JUMP JUMPDEST PUSH4 0x4E487B71 PUSH1 0xE0 SHL DUP8 MSTORE PUSH1 0x11 PUSH1 0x4 MSTORE PUSH1 0x24 DUP8 REVERT JUMPDEST POP POP POP POP POP POP SWAP1 POP JUMP JUMPDEST POP POP POP SWAP1 POP JUMP JUMPDEST POP PUSH1 0x1 DUP3 ADD SLOAD ISZERO PUSH2 0x30C2 JUMP JUMPDEST PUSH1 0x40 MLOAD SWAP1 PUSH2 0x31FF DUP3 PUSH2 0x2D3E JUMP JUMPDEST DUP2 PUSH1 0xC0 PUSH1 0x0 SWAP2 DUP3 DUP2 MSTORE DUP3 PUSH1 0x20 DUP3 ADD MSTORE DUP3 PUSH1 0x40 DUP3 ADD MSTORE DUP3 PUSH1 0x60 DUP3 ADD MSTORE DUP3 PUSH1 0x80 DUP3 ADD MSTORE DUP3 PUSH1 0xA0 DUP3 ADD MSTORE ADD MSTORE JUMP JUMPDEST ISZERO PUSH2 0x3231 JUMPI JUMP JUMPDEST PUSH1 0x40 MLOAD PUSH3 0x461BCD PUSH1 0xE5 SHL DUP2 MSTORE PUSH1 0x20 PUSH1 0x4 DUP3 ADD MSTORE PUSH1 0x18 PUSH1 0x24 DUP3 ADD MSTORE PUSH32 0x76414D4D3A206E6F7420706F736974696F6E206F776E65720000000000000000 PUSH1 0x44 DUP3 ADD MSTORE PUSH1 0x64 SWAP1 REVERT JUMPDEST DUP1 MLOAD DUP3 LT ISZERO PUSH2 0x2A2B JUMPI PUSH1 0x20 SWAP2 PUSH1 0x5 SHL ADD ADD SWAP1 JUMP JUMPDEST PUSH8 0xFFFFFFFFFFFFFFFF DUP2 GT PUSH2 0x2D5A JUMPI PUSH1 0x5 SHL PUSH1 0x20 ADD SWAP1 JUMP JUMPDEST PUSH1 0x0 MSTORE PUSH1 0xF PUSH1 0x20 MSTORE PUSH1 0x40 PUSH1 0x0 KECCAK256 PUSH1 0xFF PUSH1 0x6 DUP3 ADD SLOAD AND ISZERO DUP1 ISZERO PUSH2 0x3318 JUMPI JUMPDEST PUSH2 0x2C27 JUMPI PUSH8 0xDE0B6B3A7640000 SWAP1 PUSH2 0x32D5 PUSH2 0x2AA4 JUMP JUMPDEST SWAP1 PUSH1 0x1 DUP2 ADD SLOAD SWAP1 PUSH1 0xFF PUSH1 0x2 DUP3 ADD SLOAD AND PUSH1 0x0 EQ PUSH2 0x3307 JUMPI PUSH2 0x3303 SWAP3 PUSH1 0x3 PUSH2 0x32FD SWAP3 ADD SLOAD SWAP1 PUSH2 0x2A97 JUMP JUMPDEST SWAP1 PUSH2 0x2A41 JUMP JUMPDEST DIV SWAP1 JUMP JUMPDEST PUSH2 0x3303 SWAP3 PUSH1 0x3 PUSH2 0x32FD SWAP3 ADD SLOAD PUSH2 0x2A97 JUMP JUMPDEST POP PUSH1 0x1 DUP2 ADD SLOAD ISZERO PUSH2 0x32BF JUMP JUMPDEST ISZERO PUSH2 0x332B JUMPI JUMP JUMPDEST PUSH1 0x40 MLOAD PUSH3 0x461BCD PUSH1 0xE5 SHL DUP2 MSTORE PUSH1 0x20 PUSH1 0x4 DUP3 ADD MSTORE PUSH1 0x18 PUSH1 0x24 DUP3 ADD MSTORE PUSH32 0x76414D4D3A20696E76616C696420636F6C6C61746572616C0000000000000000 PUSH1 0x44 DUP3 ADD MSTORE PUSH1 0x64 SWAP1 REVERT JUMPDEST ISZERO PUSH2 0x3377 JUMPI JUMP JUMPDEST PUSH1 0x40 MLOAD PUSH3 0x461BCD PUSH1 0xE5 SHL DUP2 MSTORE PUSH1 0x20 PUSH1 0x4 DUP3 ADD MSTORE PUSH1 0x16 PUSH1 0x24 DUP3 ADD MSTORE PUSH22 0x76414D4D3A20696E76616C6964206C65766572616765 PUSH1 0x50 SHL PUSH1 0x44 DUP3 ADD MSTORE PUSH1 0x64 SWAP1 REVERT JUMPDEST ISZERO PUSH2 0x33BC JUMPI JUMP JUMPDEST PUSH1 0x40 MLOAD PUSH3 0x461BCD PUSH1 0xE5 SHL DUP2 MSTORE PUSH1 0x20 PUSH1 0x4 DUP3 ADD MSTORE PUSH1 0x14 PUSH1 0x24 DUP3 ADD MSTORE PUSH20 0x76414D4D3A20707269636520736C697070616765 PUSH1 0x60 SHL PUSH1 0x44 DUP3 ADD MSTORE PUSH1 0x64 SWAP1 REVERT JUMPDEST PUSH2 0x3400 PUSH2 0x31F2 JUMP JUMPDEST POP PUSH1 0x0 SWAP1 PUSH1 0x1 DUP1 PUSH1 0xA0 SHL SUB AND DUP2 MSTORE PUSH1 0x20 PUSH1 0x10 DUP2 MSTORE PUSH1 0x40 SWAP2 DUP3 DUP2 KECCAK256 DUP4 MLOAD DUP1 DUP3 DUP6 DUP3 SWAP5 SLOAD SWAP4 DUP5 DUP2 MSTORE ADD SWAP1 DUP6 MSTORE DUP6 DUP6 KECCAK256 SWAP3 DUP6 JUMPDEST DUP8 DUP3 DUP3 LT PUSH2 0x3574 JUMPI POP POP POP PUSH2 0x3447 SWAP3 POP SUB DUP3 PUSH2 0x2DA0 JUMP JUMPDEST DUP1 MLOAD ISZERO PUSH2 0x353B JUMPI DUP2 JUMPDEST DUP2 MLOAD DUP2 LT ISZERO PUSH2 0x34F7 JUMPI PUSH2 0x3463 DUP2 DUP4 PUSH2 0x3276 JUMP JUMPDEST MLOAD DUP4 MSTORE PUSH1 0xF DUP1 DUP6 MSTORE PUSH1 0xFF SWAP1 PUSH1 0x6 SWAP1 DUP3 DUP3 DUP10 DUP9 KECCAK256 ADD SLOAD AND PUSH2 0x348E JUMPI POP POP POP PUSH2 0x3489 SWAP1 PUSH2 0x2E58 JUMP JUMPDEST PUSH2 0x3450 JUMP JUMPDEST SWAP1 SWAP5 SWAP2 SWAP6 SWAP7 SWAP4 DUP5 SWAP4 PUSH2 0x349F SWAP2 PUSH2 0x3276 JUMP JUMPDEST MLOAD DUP3 MSTORE DUP7 MSTORE KECCAK256 SWAP1 DUP1 MLOAD SWAP5 PUSH2 0x34B2 DUP7 PUSH2 0x2D3E JUMP JUMPDEST DUP3 SLOAD DUP7 MSTORE PUSH1 0x1 DUP4 ADD SLOAD SWAP1 DUP7 ADD MSTORE DUP4 PUSH1 0x2 DUP4 ADD SLOAD AND ISZERO ISZERO SWAP1 DUP6 ADD MSTORE PUSH1 0x3 DUP2 ADD SLOAD PUSH1 0x60 DUP6 ADD MSTORE PUSH1 0x4 DUP2 ADD SLOAD PUSH1 0x80 DUP6 ADD MSTORE PUSH1 0x5 DUP2 ADD SLOAD PUSH1 0xA0 DUP6 ADD MSTORE ADD SLOAD AND ISZERO ISZERO PUSH1 0xC0 DUP3 ADD MSTORE SWAP1 JUMP JUMPDEST DUP5 MLOAD PUSH3 0x461BCD PUSH1 0xE5 SHL DUP2 MSTORE PUSH1 0x4 DUP2 ADD DUP6 SWAP1 MSTORE PUSH1 0x18 PUSH1 0x24 DUP3 ADD MSTORE PUSH32 0x76414D4D3A206E6F2061637469766520706F736974696F6E0000000000000000 PUSH1 0x44 DUP3 ADD MSTORE PUSH1 0x64 SWAP1 REVERT JUMPDEST DUP4 MLOAD PUSH3 0x461BCD PUSH1 0xE5 SHL DUP2 MSTORE PUSH1 0x4 DUP2 ADD DUP5 SWAP1 MSTORE PUSH1 0x12 PUSH1 0x24 DUP3 ADD MSTORE PUSH18 0x76414D4D3A206E6F20706F736974696F6E73 PUSH1 0x70 SHL PUSH1 0x44 DUP3 ADD MSTORE PUSH1 0x64 SWAP1 REVERT JUMPDEST DUP6 SLOAD DUP5 MSTORE PUSH1 0x1 SWAP6 DUP7 ADD SWAP6 DUP8 SWAP6 POP SWAP4 ADD SWAP3 ADD PUSH2 0x3430 JUMP INVALID SWAP6 0x21 PUSH24 0x133A28EEA5034C93C6C70C1A8D223DA94FAAA45DA8412C3C PUSH26 0x1111137FA2646970667358221220ED1EECDB628E7718FE3281F0 EQ 0xD1 0xCD CALLDATACOPY DUP2 0xDC PUSH17 0xEA972C3726B4F7A7D6E53CE61764736F6C PUSH4 0x43000814 STOP CALLER "},"methodIdentifiers":{"BASIS_POINTS()":"e1f1c4a7","BONDING_CURVE_STEEPNESS()":"7199344f","FUNDING_INTERVAL()":"55efb287","FUNDING_PRECISION()":"98f89b2f","MAX_FUNDING_RATE()":"f40f2a79","MAX_LEVERAGE()":"9b45ec97","MAX_PUMP_MULTIPLIER()":"7a6841c3","MIN_LEVERAGE()":"34c1557d","PRICE_PRECISION()":"95082d25","addAuthorized(address)":"cf1c316a","addToPosition(uint256,uint256,uint256,uint256,uint256)":"5ef54f36","authorized(address)":"b9181611","calculateBuyCost(uint256)":"135a9c81","calculateSellPayout(uint256)":"4ae13fa3","closePosition(uint256,uint256,uint256,uint256)":"6e33531b","emergencyResetBondingCurve(uint256)":"ac0815ac","emitPositionEvent(address,uint256,bool,bool,uint256,uint256,uint256,uint256)":"68288678","fundingState()":"b25cdccf","getBaseReserves()":"83a4098a","getBondingCurveInfo()":"efc339c8","getFundingRate()":"95196f7e","getFundingState()":"edf1a21f","getMarkPrice()":"60409632","getPosition(address)":"16c19739","getPosition(uint256)":"eb02c301","getPriceImpact(uint256,bool)":"d2e7b978","getReserveInfo()":"ffe777bd","getTotalSupply()":"c4e41b22","getTotalUnrealizedPnL(address)":"7e6a6f67","getUnrealizedPnL(address)":"544305bf","getUnrealizedPnL(uint256)":"0f259013","getUserPosition(address,uint256)":"1c88ef1e","getUserPositionIds(address)":"eddf7570","getUserPositions(address)":"2a6bc2dd","getUserSummary(address)":"8fbd0c2d","globalPositionId()":"f257b32e","initialMarginRatio()":"d97e25bc","liquidate(uint256)":"415f1240","liquidationFeeRate()":"5fb3b1b5","maintenanceMarginRatio()":"83acb48a","nextPositionId(address)":"036ae354","openPosition(uint256,bool,uint256,uint256,uint256)":"eaf1f1e6","oracle()":"7dc0d1d0","owner()":"8da5cb5b","pause()":"8456cb59","paused()":"5c975abb","positionOwner(uint256)":"b3060d36","positions(uint256)":"99fbab88","pumpExponent()":"334ef729","removeAuthorized(address)":"485d7d94","startingPrice()":"d6fbf202","totalLongSize()":"5bf804af","totalShortSize()":"bf6268f2","totalTradingFees()":"49a65938","tradingFeeRate()":"e01df1a8","transferOwnership(address)":"f2fde38b","unpause()":"3f4ba83a","updateBaseVirtualReserves(uint256,uint256)":"b31d659e","updateBondingCurveParams(uint256,uint256)":"165ce8db","updateDynamicReservesParams(uint256,uint256,uint256)":"cffab08d","updateFunding()":"1ebf4eb5","updateMaintenanceMarginRatio(uint256)":"53906a0f","updateTradingFeeRate(uint256)":"eeb07069","userPositionIds(address,uint256)":"7b6eb9b6","vault()":"fbfa77cf","virtualBaseReserves()":"ae43509a","virtualQuoteReserves()":"a0640c83","withdrawTradingFees(uint256)":"5af5bfd6"}}}}}