{"contracts/Vault.sol":{"Vault":{"abi":[{"inputs":[{"internalType":"address","name":"_collateralToken","type":"address"}],"stateMutability":"nonpayable","type":"constructor"},{"anonymous":false,"inputs":[{"indexed":true,"internalType":"address","name":"account","type":"address"}],"name":"AuthorizedAdded","type":"event"},{"anonymous":false,"inputs":[{"indexed":true,"internalType":"address","name":"account","type":"address"}],"name":"AuthorizedRemoved","type":"event"},{"anonymous":false,"inputs":[{"indexed":true,"internalType":"address","name":"user","type":"address"},{"indexed":false,"internalType":"uint256","name":"amount","type":"uint256"}],"name":"CollateralDeposited","type":"event"},{"anonymous":false,"inputs":[{"indexed":true,"internalType":"address","name":"user","type":"address"},{"indexed":false,"internalType":"uint256","name":"amount","type":"uint256"}],"name":"CollateralWithdrawn","type":"event"},{"anonymous":false,"inputs":[{"indexed":true,"internalType":"address","name":"user","type":"address"},{"indexed":false,"internalType":"int256","name":"fundingPayment","type":"int256"},{"indexed":false,"internalType":"uint256","name":"fundingIndex","type":"uint256"}],"name":"FundingApplied","type":"event"},{"anonymous":false,"inputs":[{"indexed":true,"internalType":"address","name":"user","type":"address"},{"indexed":false,"internalType":"uint256","name":"amount","type":"uint256"}],"name":"MarginReleased","type":"event"},{"anonymous":false,"inputs":[{"indexed":true,"internalType":"address","name":"user","type":"address"},{"indexed":false,"internalType":"uint256","name":"amount","type":"uint256"}],"name":"MarginReserved","type":"event"},{"anonymous":false,"inputs":[],"name":"Paused","type":"event"},{"anonymous":false,"inputs":[{"indexed":true,"internalType":"address","name":"user","type":"address"},{"indexed":false,"internalType":"int256","name":"pnlDelta","type":"int256"}],"name":"PnLUpdated","type":"event"},{"anonymous":false,"inputs":[],"name":"Unpaused","type":"event"},{"anonymous":false,"inputs":[{"indexed":true,"internalType":"address","name":"user","type":"address"},{"indexed":false,"internalType":"uint256","name":"penalty","type":"uint256"}],"name":"UserLiquidated","type":"event"},{"anonymous":false,"inputs":[{"indexed":true,"internalType":"address","name":"newVamm","type":"address"}],"name":"VammUpdated","type":"event"},{"inputs":[],"name":"BASIS_POINTS","outputs":[{"internalType":"uint256","name":"","type":"uint256"}],"stateMutability":"view","type":"function"},{"inputs":[],"name":"LIQUIDATION_THRESHOLD","outputs":[{"internalType":"uint256","name":"","type":"uint256"}],"stateMutability":"view","type":"function"},{"inputs":[{"internalType":"address","name":"account","type":"address"}],"name":"addAuthorized","outputs":[],"stateMutability":"nonpayable","type":"function"},{"inputs":[{"internalType":"address","name":"user","type":"address"},{"internalType":"int256","name":"fundingPayment","type":"int256"},{"internalType":"uint256","name":"fundingIndex","type":"uint256"}],"name":"applyFunding","outputs":[],"stateMutability":"nonpayable","type":"function"},{"inputs":[{"internalType":"address","name":"","type":"address"}],"name":"authorized","outputs":[{"internalType":"bool","name":"","type":"bool"}],"stateMutability":"view","type":"function"},{"inputs":[{"internalType":"address","name":"user","type":"address"},{"internalType":"uint256","name":"maintenanceMarginRatio","type":"uint256"}],"name":"canLiquidate","outputs":[{"internalType":"bool","name":"","type":"bool"}],"stateMutability":"view","type":"function"},{"inputs":[],"name":"collateralToken","outputs":[{"internalType":"contract IERC20","name":"","type":"address"}],"stateMutability":"view","type":"function"},{"inputs":[{"internalType":"address","name":"user","type":"address"},{"internalType":"uint256","name":"amount","type":"uint256"}],"name":"depositCollateral","outputs":[],"stateMutability":"nonpayable","type":"function"},{"inputs":[{"internalType":"address","name":"token","type":"address"},{"internalType":"uint256","name":"amount","type":"uint256"}],"name":"emergencyWithdraw","outputs":[],"stateMutability":"nonpayable","type":"function"},{"inputs":[{"internalType":"address","name":"user","type":"address"}],"name":"getAvailableMargin","outputs":[{"internalType":"uint256","name":"","type":"uint256"}],"stateMutability":"view","type":"function"},{"inputs":[{"internalType":"address","name":"user","type":"address"}],"name":"getMarginAccount","outputs":[{"components":[{"internalType":"uint256","name":"collateral","type":"uint256"},{"internalType":"uint256","name":"reservedMargin","type":"uint256"},{"internalType":"int256","name":"unrealizedPnL","type":"int256"},{"internalType":"uint256","name":"lastFundingIndex","type":"uint256"}],"internalType":"struct IVault.MarginAccount","name":"","type":"tuple"}],"stateMutability":"view","type":"function"},{"inputs":[{"internalType":"address","name":"user","type":"address"}],"name":"getTotalMargin","outputs":[{"internalType":"int256","name":"","type":"int256"}],"stateMutability":"view","type":"function"},{"inputs":[{"internalType":"address","name":"user","type":"address"},{"internalType":"uint256","name":"liquidationPenalty","type":"uint256"}],"name":"liquidate","outputs":[],"stateMutability":"nonpayable","type":"function"},{"inputs":[],"name":"owner","outputs":[{"internalType":"address","name":"","type":"address"}],"stateMutability":"view","type":"function"},{"inputs":[],"name":"pause","outputs":[],"stateMutability":"nonpayable","type":"function"},{"inputs":[],"name":"paused","outputs":[{"internalType":"bool","name":"","type":"bool"}],"stateMutability":"view","type":"function"},{"inputs":[{"internalType":"address","name":"user","type":"address"},{"internalType":"uint256","name":"amount","type":"uint256"}],"name":"releaseMargin","outputs":[],"stateMutability":"nonpayable","type":"function"},{"inputs":[{"internalType":"address","name":"account","type":"address"}],"name":"removeAuthorized","outputs":[],"stateMutability":"nonpayable","type":"function"},{"inputs":[{"internalType":"address","name":"user","type":"address"},{"internalType":"uint256","name":"amount","type":"uint256"}],"name":"reserveMargin","outputs":[],"stateMutability":"nonpayable","type":"function"},{"inputs":[{"internalType":"address","name":"_vamm","type":"address"}],"name":"setVamm","outputs":[],"stateMutability":"nonpayable","type":"function"},{"inputs":[{"internalType":"address","name":"newOwner","type":"address"}],"name":"transferOwnership","outputs":[],"stateMutability":"nonpayable","type":"function"},{"inputs":[],"name":"unpause","outputs":[],"stateMutability":"nonpayable","type":"function"},{"inputs":[{"internalType":"address","name":"user","type":"address"},{"internalType":"int256","name":"pnlDelta","type":"int256"}],"name":"updatePnL","outputs":[],"stateMutability":"nonpayable","type":"function"},{"inputs":[],"name":"vamm","outputs":[{"internalType":"address","name":"","type":"address"}],"stateMutability":"view","type":"function"},{"inputs":[{"internalType":"address","name":"user","type":"address"},{"internalType":"uint256","name":"amount","type":"uint256"}],"name":"withdrawCollateral","outputs":[],"stateMutability":"nonpayable","type":"function"}],"evm":{"bytecode":{"linkReferences":{},"object":"60803461008457601f6112dd38819003918201601f19168301916001600160401b038311848410176100895780849260209460405283398101031261008457516001600160a01b038116908190036100845760ff196005541660055560018060a01b031933816000541617600055600254161760025560405161123d90816100a08239f35b600080fd5b634e487b7160e01b600052604160045260246000fdfe6080604081815260048036101561001557600080fd5b600092833560e01c9081622bc16414610e2d57508063350c35e914610c4b5780633f4ba83a14610bf5578063485d7d9414610b885780635969f96b14610acf5780635c975abb14610aab5780635d773174146109bf5780637569f4c8146108ad5780638456cb59146108515780638da5cb5b1461082957806390a8ae9b1461080c5780639101e5b3146106f457806395ccea671461060d578063a5d5db0c14610505578063b2016bd4146104dc578063b39ff736146104aa578063b91816111461046e578063bcbaf487146103b5578063c1c7c9dd1461038f578063c90ba3a614610362578063cb625680146102bb578063cf1c316a1461020a578063e098372c146101e1578063e1f1c4a7146101c05763f2fde38b1461013557600080fd5b346101bc5760203660031901126101bc5761014e610ec9565b835491906001600160a01b03906101683383861614610ee4565b169283156101825750506001600160a01b03191617815580f35b906020606492519162461bcd60e51b835282015260146024820152732b30bab63a1d1034b73b30b634b21037bbb732b960611b6044820152fd5b8280fd5b5050346101dd57816003193601126101dd57602090516127108152f35b5080fd5b5050346101dd57816003193601126101dd5760015490516001600160a01b039091168152602090f35b5090346101bc5760203660031901126101bc57610225610ec9565b83546001600160a01b03919061023e9083163314610ee4565b16918215610280578284526020528220805460ff191660011790557fdd10d14f6ac19e913d4edbb11fd30661531e2ccd0d23f571e9b224f001f0dd068280a280f35b6020606492519162461bcd60e51b835282015260166024820152755661756c743a20696e76616c6964206164647265737360501b6044820152fd5b50346101bc57816003193601126101bc5760207f22d38deb33ee15dd233167fc440609397a226eb4e1b61e1773bdd09ef99424aa916102f8610ec9565b60243591338752835260ff8587205416801561034f575b610318906110b9565b6001600160a01b03169361032d851515610fa3565b8486526003835260028187200161034583825461110a565b905551908152a280f35b5085546001600160a01b0316331461030f565b5050346101dd5760203660031901126101dd57602090610388610383610ec9565b611171565b9051908152f35b5050346101dd5760203660031901126101dd576020906103886103b0610ec9565b611126565b50346101bc57816003193601126101bc5760207fe538b9438650b40b382a773f4b71a35129a6b330599b42ed9b50492847972fa6916103f2610ec9565b60243591338752835260ff8587205416801561045b575b610412906110b9565b6001600160a01b031680865260038352848620805491959187916002918511610453576104408582546110fd565b81555b826001820155015551908152a280f35b828155610443565b5085546001600160a01b03163314610409565b50346101bc5760203660031901126101bc5760209260ff918391906001600160a01b03610499610ec9565b168252855220541690519015158152f35b5050346101dd57806003193601126101dd576020906104d36104ca610ec9565b60243590611199565b90519015158152f35b5050346101dd57816003193601126101dd5760025490516001600160a01b039091168152602090f35b50346101bc57816003193601126101bc5761051e610ec9565b918360206024359361053560ff6005541615610f23565b610540851515610f5f565b6001600160a01b039586169560649061055a881515610fa3565b6002541691855194859384926323b872dd60e01b845233908401523060248401528860448401525af190811561060357916105c17fd7243f6f8212d5188fd054141cf6ea89cfc0d91facb8c3afe2f88a1358480142949260209488916105d6575b50611051565b84865260038352808620610345838254611096565b6105f69150853d81116105fc575b6105ee8183611017565b810190611039565b386105bb565b503d6105e4565b82513d87823e3d90fd5b50346101bc57816003193601126101bc57610626610ec9565b83546001600160a01b039081169061063f338314610ee4565b60ff60055416156106bd57845163a9059cbb60e01b81526001600160a01b0392909216938201938452602435602080860191909152919493919285928390036040019183918891165af19081156106b45750610699575080f35b6106b09060203d81116105fc576105ee8183611017565b5080f35b513d84823e3d90fd5b845162461bcd60e51b8152602081860152601160248201527015985d5b1d0e881b9bdd081c185d5cd959607a1b6044820152606490fd5b5090346101bc57806003193601126101bc5761070e610ec9565b90602435913385528360205260ff828620541680156107f9575b610731906110b9565b61074060ff6005541615610f23565b61074b831515610f5f565b6001600160a01b031692610760841515610fa3565b8385526003602052600182862001908154908482106107aa57509183916103457f5e63d54af10545f0b2bd229512f244caefe863ad94dbbb7ad827432c84d762f5956020956110fd565b608490602085519162461bcd60e51b8352820152602360248201527f5661756c743a20696e73756666696369656e74207265736572766564206d617260448201526233b4b760e91b6064820152fd5b5084546001600160a01b03163314610728565b5050346101dd57816003193601126101dd57602090516113888152f35b5050346101dd57816003193601126101dd57905490516001600160a01b039091168152602090f35b83346108aa57806003193601126108aa5761087660018060a01b038254163314610ee4565b600160ff1960055416176005557f9e87fac88ff661f02d44f95383c817fece4bce600a3dab7a54406878b965e7528180a180f35b80fd5b5090346101bc57806003193601126101bc576108c7610ec9565b90602435913385528360205260ff828620541680156109ac575b6108ea906110b9565b6108f960ff6005541615610f23565b610904831515610f5f565b6001600160a01b0381169361091a851515610fa3565b84865260036020528361092f84882093611126565b1061096957509160209160017f7a9b1b90f35f094ffc6d04d86069c79e82c6a16eb600f79672428a409635deca9401610345838254611096565b606490602084519162461bcd60e51b8352820152601a60248201527f5661756c743a20696e73756666696369656e74206d617267696e0000000000006044820152fd5b5084546001600160a01b031633146108e1565b5090346101bc5760203660031901126101bc576109da610ec9565b83546001600160a01b0391906109f39083163314610ee4565b16918215610a7357826bffffffffffffffffffffffff60a01b60015416176001558284526020528220600160ff19825416179055807fb9b7e0cd0425b8d1399710185feab651b96089b6f0e01cb950ffb46b17227cbf8380a27fdd10d14f6ac19e913d4edbb11fd30661531e2ccd0d23f571e9b224f001f0dd068280a280f35b6020606492519162461bcd60e51b835282015260136024820152725661756c743a20696e76616c69642076616d6d60681b6044820152fd5b5050346101dd57816003193601126101dd5760209060ff6005541690519015158152f35b5090346101bc5760603660031901126101bc577f4519c0de74b8f9f16fda0005326875e3fd4dd0d38446a1135a1ffa1739e4591e90610b0c610ec9565b602435906044359433875260205260ff83872054168015610b75575b610b31906110b9565b6001600160a01b031693610b46851515610fa3565b848652600360205280600384882060028101610b6386825461110a565b9055015582519182526020820152a280f35b5085546001600160a01b03163314610b28565b5090346101bc5760203660031901126101bc57610ba3610ec9565b83546001600160a01b039190610bbc9083163314610ee4565b1691828452602052822060ff1981541690557f0fafd0343e6c6f6985727574866da48938c918559eb9521cf9cc0d317ea0f7b48280a280f35b83346108aa57806003193601126108aa57610c1a60018060a01b038254163314610ee4565b60ff19600554166005557fa45f47fdea8a1efdd9029a5691c7f759c32b7c698632b563573e155625d169338180a180f35b50346101bc57816003193601126101bc57610c64610ec9565b90602435610c7760ff6005541615610f23565b610c82811515610f5f565b6001600160a01b0383811693909290610c9c851515610fa3565b8433148015610e18575b610caf906110b9565b848752602093600385528688208054858110610dd55785610ccf85611126565b10610d865792898693610d1e9693610ce8868b986110fd565b905560025416928a519687958694859363a9059cbb60e01b8552840160209093929193604081019460018060a01b031681520152565b03925af1908115610d7c577fc30fcfbcaac9e0deffa719714eaa82396ff506a0d0d0eebe170830177288715d949591610d5d918891610d655750611051565b51908152a280f35b6105f69150853d87116105fc576105ee8183611017565b85513d88823e3d90fd5b885162461bcd60e51b81528086018890526024808201527f5661756c743a20696e73756666696369656e7420617661696c61626c65206d616044820152633933b4b760e11b6064820152608490fd5b885162461bcd60e51b8152808601889052601e60248201527f5661756c743a20696e73756666696369656e7420636f6c6c61746572616c00006044820152606490fd5b5033875260208290528587205460ff16610ca6565b915050346101bc5760203660031901126101bc578282916080946060610e51610ec9565b92610e5b81610fe5565b8281528260208201528286820152015260018060a01b0316815260036020522090805190610e8882610fe5565b825492838352600181015460208401908152606060036002840154938587019485520154940193845282519485525160208501525190830152516060820152f35b600435906001600160a01b0382168203610edf57565b600080fd5b15610eeb57565b60405162461bcd60e51b815260206004820152601060248201526f2b30bab63a1d103737ba1037bbb732b960811b6044820152606490fd5b15610f2a57565b60405162461bcd60e51b815260206004820152600d60248201526c15985d5b1d0e881c185d5cd959609a1b6044820152606490fd5b15610f6657565b60405162461bcd60e51b815260206004820152601560248201527415985d5b1d0e881a5b9d985b1a5908185b5bdd5b9d605a1b6044820152606490fd5b15610faa57565b60405162461bcd60e51b81526020600482015260136024820152722b30bab63a1d1034b73b30b634b2103ab9b2b960691b6044820152606490fd5b6080810190811067ffffffffffffffff82111761100157604052565b634e487b7160e01b600052604160045260246000fd5b90601f8019910116810190811067ffffffffffffffff82111761100157604052565b90816020910312610edf57518015158103610edf5790565b1561105857565b60405162461bcd60e51b815260206004820152601660248201527515985d5b1d0e881d1c985b9cd9995c8819985a5b195960521b6044820152606490fd5b919082018092116110a357565b634e487b7160e01b600052601160045260246000fd5b156110c057565b60405162461bcd60e51b815260206004820152601560248201527415985d5b1d0e881b9bdd08185d5d1a1bdc9a5e9959605a1b6044820152606490fd5b919082039182116110a357565b919091600083820193841291129080158216911516176110a357565b6001600160a01b03811660009081526003602052604090209061114890611171565b90600082131561116a57600101548082111561116a57611167916110fd565b90565b5050600090565b6001600160a01b0316600090815260036020526040902080546002909101546111679161110a565b6001600160a01b038116600090815260036020526040812060010154918215611200576111c590611171565b92818413156111f757808302928304036111e3575061271090041190565b634e487b7160e01b81526011600452602490fd5b50505050600190565b509150509056fea2646970667358221220250518e77c864c13c97be4c084e3bf3e6d1eb5e1875e8924e7513fa1addc672c64736f6c63430008140033","opcodes":"PUSH1 0x80 CALLVALUE PUSH2 0x84 JUMPI PUSH1 0x1F PUSH2 0x12DD CODESIZE DUP2 SWAP1 SUB SWAP2 DUP3 ADD PUSH1 0x1F NOT AND DUP4 ADD SWAP2 PUSH1 0x1 PUSH1 0x1 PUSH1 0x40 SHL SUB DUP4 GT DUP5 DUP5 LT OR PUSH2 0x89 JUMPI DUP1 DUP5 SWAP3 PUSH1 0x20 SWAP5 PUSH1 0x40 MSTORE DUP4 CODECOPY DUP2 ADD SUB SLT PUSH2 0x84 JUMPI MLOAD PUSH1 0x1 PUSH1 0x1 PUSH1 0xA0 SHL SUB DUP2 AND SWAP1 DUP2 SWAP1 SUB PUSH2 0x84 JUMPI PUSH1 0xFF NOT PUSH1 0x5 SLOAD AND PUSH1 0x5 SSTORE PUSH1 0x1 DUP1 PUSH1 0xA0 SHL SUB NOT CALLER DUP2 PUSH1 0x0 SLOAD AND OR PUSH1 0x0 SSTORE PUSH1 0x2 SLOAD AND OR PUSH1 0x2 SSTORE PUSH1 0x40 MLOAD PUSH2 0x123D SWAP1 DUP2 PUSH2 0xA0 DUP3 CODECOPY RETURN JUMPDEST PUSH1 0x0 DUP1 REVERT JUMPDEST PUSH4 0x4E487B71 PUSH1 0xE0 SHL PUSH1 0x0 MSTORE PUSH1 0x41 PUSH1 0x4 MSTORE PUSH1 0x24 PUSH1 0x0 REVERT INVALID PUSH1 0x80 PUSH1 0x40 DUP2 DUP2 MSTORE PUSH1 0x4 DUP1 CALLDATASIZE LT ISZERO PUSH2 0x15 JUMPI PUSH1 0x0 DUP1 REVERT JUMPDEST PUSH1 0x0 SWAP3 DUP4 CALLDATALOAD PUSH1 0xE0 SHR SWAP1 DUP2 PUSH3 0x2BC164 EQ PUSH2 0xE2D JUMPI POP DUP1 PUSH4 0x350C35E9 EQ PUSH2 0xC4B JUMPI DUP1 PUSH4 0x3F4BA83A EQ PUSH2 0xBF5 JUMPI DUP1 PUSH4 0x485D7D94 EQ PUSH2 0xB88 JUMPI DUP1 PUSH4 0x5969F96B EQ PUSH2 0xACF JUMPI DUP1 PUSH4 0x5C975ABB EQ PUSH2 0xAAB JUMPI DUP1 PUSH4 0x5D773174 EQ PUSH2 0x9BF JUMPI DUP1 PUSH4 0x7569F4C8 EQ PUSH2 0x8AD JUMPI DUP1 PUSH4 0x8456CB59 EQ PUSH2 0x851 JUMPI DUP1 PUSH4 0x8DA5CB5B EQ PUSH2 0x829 JUMPI DUP1 PUSH4 0x90A8AE9B EQ PUSH2 0x80C JUMPI DUP1 PUSH4 0x9101E5B3 EQ PUSH2 0x6F4 JUMPI DUP1 PUSH4 0x95CCEA67 EQ PUSH2 0x60D JUMPI DUP1 PUSH4 0xA5D5DB0C EQ PUSH2 0x505 JUMPI DUP1 PUSH4 0xB2016BD4 EQ PUSH2 0x4DC JUMPI DUP1 PUSH4 0xB39FF736 EQ PUSH2 0x4AA JUMPI DUP1 PUSH4 0xB9181611 EQ PUSH2 0x46E JUMPI DUP1 PUSH4 0xBCBAF487 EQ PUSH2 0x3B5 JUMPI DUP1 PUSH4 0xC1C7C9DD EQ PUSH2 0x38F JUMPI DUP1 PUSH4 0xC90BA3A6 EQ PUSH2 0x362 JUMPI DUP1 PUSH4 0xCB625680 EQ PUSH2 0x2BB JUMPI DUP1 PUSH4 0xCF1C316A EQ PUSH2 0x20A JUMPI DUP1 PUSH4 0xE098372C EQ PUSH2 0x1E1 JUMPI DUP1 PUSH4 0xE1F1C4A7 EQ PUSH2 0x1C0 JUMPI PUSH4 0xF2FDE38B EQ PUSH2 0x135 JUMPI PUSH1 0x0 DUP1 REVERT JUMPDEST CALLVALUE PUSH2 0x1BC JUMPI PUSH1 0x20 CALLDATASIZE PUSH1 0x3 NOT ADD SLT PUSH2 0x1BC JUMPI PUSH2 0x14E PUSH2 0xEC9 JUMP JUMPDEST DUP4 SLOAD SWAP2 SWAP1 PUSH1 0x1 PUSH1 0x1 PUSH1 0xA0 SHL SUB SWAP1 PUSH2 0x168 CALLER DUP4 DUP7 AND EQ PUSH2 0xEE4 JUMP JUMPDEST AND SWAP3 DUP4 ISZERO PUSH2 0x182 JUMPI POP POP PUSH1 0x1 PUSH1 0x1 PUSH1 0xA0 SHL SUB NOT AND OR DUP2 SSTORE DUP1 RETURN JUMPDEST SWAP1 PUSH1 0x20 PUSH1 0x64 SWAP3 MLOAD SWAP2 PUSH3 0x461BCD PUSH1 0xE5 SHL DUP4 MSTORE DUP3 ADD MSTORE PUSH1 0x14 PUSH1 0x24 DUP3 ADD MSTORE PUSH20 0x2B30BAB63A1D1034B73B30B634B21037BBB732B9 PUSH1 0x61 SHL PUSH1 0x44 DUP3 ADD MSTORE REVERT JUMPDEST DUP3 DUP1 REVERT JUMPDEST POP POP CALLVALUE PUSH2 0x1DD JUMPI DUP2 PUSH1 0x3 NOT CALLDATASIZE ADD SLT PUSH2 0x1DD JUMPI PUSH1 0x20 SWAP1 MLOAD PUSH2 0x2710 DUP2 MSTORE RETURN JUMPDEST POP DUP1 REVERT JUMPDEST POP POP CALLVALUE PUSH2 0x1DD JUMPI DUP2 PUSH1 0x3 NOT CALLDATASIZE ADD SLT PUSH2 0x1DD JUMPI PUSH1 0x1 SLOAD SWAP1 MLOAD PUSH1 0x1 PUSH1 0x1 PUSH1 0xA0 SHL SUB SWAP1 SWAP2 AND DUP2 MSTORE PUSH1 0x20 SWAP1 RETURN JUMPDEST POP SWAP1 CALLVALUE PUSH2 0x1BC JUMPI PUSH1 0x20 CALLDATASIZE PUSH1 0x3 NOT ADD SLT PUSH2 0x1BC JUMPI PUSH2 0x225 PUSH2 0xEC9 JUMP JUMPDEST DUP4 SLOAD PUSH1 0x1 PUSH1 0x1 PUSH1 0xA0 SHL SUB SWAP2 SWAP1 PUSH2 0x23E SWAP1 DUP4 AND CALLER EQ PUSH2 0xEE4 JUMP JUMPDEST AND SWAP2 DUP3 ISZERO PUSH2 0x280 JUMPI DUP3 DUP5 MSTORE PUSH1 0x20 MSTORE DUP3 KECCAK256 DUP1 SLOAD PUSH1 0xFF NOT AND PUSH1 0x1 OR SWAP1 SSTORE PUSH32 0xDD10D14F6AC19E913D4EDBB11FD30661531E2CCD0D23F571E9B224F001F0DD06 DUP3 DUP1 LOG2 DUP1 RETURN JUMPDEST PUSH1 0x20 PUSH1 0x64 SWAP3 MLOAD SWAP2 PUSH3 0x461BCD PUSH1 0xE5 SHL DUP4 MSTORE DUP3 ADD MSTORE PUSH1 0x16 PUSH1 0x24 DUP3 ADD MSTORE PUSH22 0x5661756C743A20696E76616C69642061646472657373 PUSH1 0x50 SHL PUSH1 0x44 DUP3 ADD MSTORE REVERT JUMPDEST POP CALLVALUE PUSH2 0x1BC JUMPI DUP2 PUSH1 0x3 NOT CALLDATASIZE ADD SLT PUSH2 0x1BC JUMPI PUSH1 0x20 PUSH32 0x22D38DEB33EE15DD233167FC440609397A226EB4E1B61E1773BDD09EF99424AA SWAP2 PUSH2 0x2F8 PUSH2 0xEC9 JUMP JUMPDEST PUSH1 0x24 CALLDATALOAD SWAP2 CALLER DUP8 MSTORE DUP4 MSTORE PUSH1 0xFF DUP6 DUP8 KECCAK256 SLOAD AND DUP1 ISZERO PUSH2 0x34F JUMPI JUMPDEST PUSH2 0x318 SWAP1 PUSH2 0x10B9 JUMP JUMPDEST PUSH1 0x1 PUSH1 0x1 PUSH1 0xA0 SHL SUB AND SWAP4 PUSH2 0x32D DUP6 ISZERO ISZERO PUSH2 0xFA3 JUMP JUMPDEST DUP5 DUP7 MSTORE PUSH1 0x3 DUP4 MSTORE PUSH1 0x2 DUP2 DUP8 KECCAK256 ADD PUSH2 0x345 DUP4 DUP3 SLOAD PUSH2 0x110A JUMP JUMPDEST SWAP1 SSTORE MLOAD SWAP1 DUP2 MSTORE LOG2 DUP1 RETURN JUMPDEST POP DUP6 SLOAD PUSH1 0x1 PUSH1 0x1 PUSH1 0xA0 SHL SUB AND CALLER EQ PUSH2 0x30F JUMP JUMPDEST POP POP CALLVALUE PUSH2 0x1DD JUMPI PUSH1 0x20 CALLDATASIZE PUSH1 0x3 NOT ADD SLT PUSH2 0x1DD JUMPI PUSH1 0x20 SWAP1 PUSH2 0x388 PUSH2 0x383 PUSH2 0xEC9 JUMP JUMPDEST PUSH2 0x1171 JUMP JUMPDEST SWAP1 MLOAD SWAP1 DUP2 MSTORE RETURN JUMPDEST POP POP CALLVALUE PUSH2 0x1DD JUMPI PUSH1 0x20 CALLDATASIZE PUSH1 0x3 NOT ADD SLT PUSH2 0x1DD JUMPI PUSH1 0x20 SWAP1 PUSH2 0x388 PUSH2 0x3B0 PUSH2 0xEC9 JUMP JUMPDEST PUSH2 0x1126 JUMP JUMPDEST POP CALLVALUE PUSH2 0x1BC JUMPI DUP2 PUSH1 0x3 NOT CALLDATASIZE ADD SLT PUSH2 0x1BC JUMPI PUSH1 0x20 PUSH32 0xE538B9438650B40B382A773F4B71A35129A6B330599B42ED9B50492847972FA6 SWAP2 PUSH2 0x3F2 PUSH2 0xEC9 JUMP JUMPDEST PUSH1 0x24 CALLDATALOAD SWAP2 CALLER DUP8 MSTORE DUP4 MSTORE PUSH1 0xFF DUP6 DUP8 KECCAK256 SLOAD AND DUP1 ISZERO PUSH2 0x45B JUMPI JUMPDEST PUSH2 0x412 SWAP1 PUSH2 0x10B9 JUMP JUMPDEST PUSH1 0x1 PUSH1 0x1 PUSH1 0xA0 SHL SUB AND DUP1 DUP7 MSTORE PUSH1 0x3 DUP4 MSTORE DUP5 DUP7 KECCAK256 DUP1 SLOAD SWAP2 SWAP6 SWAP2 DUP8 SWAP2 PUSH1 0x2 SWAP2 DUP6 GT PUSH2 0x453 JUMPI PUSH2 0x440 DUP6 DUP3 SLOAD PUSH2 0x10FD JUMP JUMPDEST DUP2 SSTORE JUMPDEST DUP3 PUSH1 0x1 DUP3 ADD SSTORE ADD SSTORE MLOAD SWAP1 DUP2 MSTORE LOG2 DUP1 RETURN JUMPDEST DUP3 DUP2 SSTORE PUSH2 0x443 JUMP JUMPDEST POP DUP6 SLOAD PUSH1 0x1 PUSH1 0x1 PUSH1 0xA0 SHL SUB AND CALLER EQ PUSH2 0x409 JUMP JUMPDEST POP CALLVALUE PUSH2 0x1BC JUMPI PUSH1 0x20 CALLDATASIZE PUSH1 0x3 NOT ADD SLT PUSH2 0x1BC JUMPI PUSH1 0x20 SWAP3 PUSH1 0xFF SWAP2 DUP4 SWAP2 SWAP1 PUSH1 0x1 PUSH1 0x1 PUSH1 0xA0 SHL SUB PUSH2 0x499 PUSH2 0xEC9 JUMP JUMPDEST AND DUP3 MSTORE DUP6 MSTORE KECCAK256 SLOAD AND SWAP1 MLOAD SWAP1 ISZERO ISZERO DUP2 MSTORE RETURN JUMPDEST POP POP CALLVALUE PUSH2 0x1DD JUMPI DUP1 PUSH1 0x3 NOT CALLDATASIZE ADD SLT PUSH2 0x1DD JUMPI PUSH1 0x20 SWAP1 PUSH2 0x4D3 PUSH2 0x4CA PUSH2 0xEC9 JUMP JUMPDEST PUSH1 0x24 CALLDATALOAD SWAP1 PUSH2 0x1199 JUMP JUMPDEST SWAP1 MLOAD SWAP1 ISZERO ISZERO DUP2 MSTORE RETURN JUMPDEST POP POP CALLVALUE PUSH2 0x1DD JUMPI DUP2 PUSH1 0x3 NOT CALLDATASIZE ADD SLT PUSH2 0x1DD JUMPI PUSH1 0x2 SLOAD SWAP1 MLOAD PUSH1 0x1 PUSH1 0x1 PUSH1 0xA0 SHL SUB SWAP1 SWAP2 AND DUP2 MSTORE PUSH1 0x20 SWAP1 RETURN JUMPDEST POP CALLVALUE PUSH2 0x1BC JUMPI DUP2 PUSH1 0x3 NOT CALLDATASIZE ADD SLT PUSH2 0x1BC JUMPI PUSH2 0x51E PUSH2 0xEC9 JUMP JUMPDEST SWAP2 DUP4 PUSH1 0x20 PUSH1 0x24 CALLDATALOAD SWAP4 PUSH2 0x535 PUSH1 0xFF PUSH1 0x5 SLOAD AND ISZERO PUSH2 0xF23 JUMP JUMPDEST PUSH2 0x540 DUP6 ISZERO ISZERO PUSH2 0xF5F JUMP JUMPDEST PUSH1 0x1 PUSH1 0x1 PUSH1 0xA0 SHL SUB SWAP6 DUP7 AND SWAP6 PUSH1 0x64 SWAP1 PUSH2 0x55A DUP9 ISZERO ISZERO PUSH2 0xFA3 JUMP JUMPDEST PUSH1 0x2 SLOAD AND SWAP2 DUP6 MLOAD SWAP5 DUP6 SWAP4 DUP5 SWAP3 PUSH4 0x23B872DD PUSH1 0xE0 SHL DUP5 MSTORE CALLER SWAP1 DUP5 ADD MSTORE ADDRESS PUSH1 0x24 DUP5 ADD MSTORE DUP9 PUSH1 0x44 DUP5 ADD MSTORE GAS CALL SWAP1 DUP2 ISZERO PUSH2 0x603 JUMPI SWAP2 PUSH2 0x5C1 PUSH32 0xD7243F6F8212D5188FD054141CF6EA89CFC0D91FACB8C3AFE2F88A1358480142 SWAP5 SWAP3 PUSH1 0x20 SWAP5 DUP9 SWAP2 PUSH2 0x5D6 JUMPI JUMPDEST POP PUSH2 0x1051 JUMP JUMPDEST DUP5 DUP7 MSTORE PUSH1 0x3 DUP4 MSTORE DUP1 DUP7 KECCAK256 PUSH2 0x345 DUP4 DUP3 SLOAD PUSH2 0x1096 JUMP JUMPDEST PUSH2 0x5F6 SWAP2 POP DUP6 RETURNDATASIZE DUP2 GT PUSH2 0x5FC JUMPI JUMPDEST PUSH2 0x5EE DUP2 DUP4 PUSH2 0x1017 JUMP JUMPDEST DUP2 ADD SWAP1 PUSH2 0x1039 JUMP JUMPDEST CODESIZE PUSH2 0x5BB JUMP JUMPDEST POP RETURNDATASIZE PUSH2 0x5E4 JUMP JUMPDEST DUP3 MLOAD RETURNDATASIZE DUP8 DUP3 RETURNDATACOPY RETURNDATASIZE SWAP1 REVERT JUMPDEST POP CALLVALUE PUSH2 0x1BC JUMPI DUP2 PUSH1 0x3 NOT CALLDATASIZE ADD SLT PUSH2 0x1BC JUMPI PUSH2 0x626 PUSH2 0xEC9 JUMP JUMPDEST DUP4 SLOAD PUSH1 0x1 PUSH1 0x1 PUSH1 0xA0 SHL SUB SWAP1 DUP2 AND SWAP1 PUSH2 0x63F CALLER DUP4 EQ PUSH2 0xEE4 JUMP JUMPDEST PUSH1 0xFF PUSH1 0x5 SLOAD AND ISZERO PUSH2 0x6BD JUMPI DUP5 MLOAD PUSH4 0xA9059CBB PUSH1 0xE0 SHL DUP2 MSTORE PUSH1 0x1 PUSH1 0x1 PUSH1 0xA0 SHL SUB SWAP3 SWAP1 SWAP3 AND SWAP4 DUP3 ADD SWAP4 DUP5 MSTORE PUSH1 0x24 CALLDATALOAD PUSH1 0x20 DUP1 DUP7 ADD SWAP2 SWAP1 SWAP2 MSTORE SWAP2 SWAP5 SWAP4 SWAP2 SWAP3 DUP6 SWAP3 DUP4 SWAP1 SUB PUSH1 0x40 ADD SWAP2 DUP4 SWAP2 DUP9 SWAP2 AND GAS CALL SWAP1 DUP2 ISZERO PUSH2 0x6B4 JUMPI POP PUSH2 0x699 JUMPI POP DUP1 RETURN JUMPDEST PUSH2 0x6B0 SWAP1 PUSH1 0x20 RETURNDATASIZE DUP2 GT PUSH2 0x5FC JUMPI PUSH2 0x5EE DUP2 DUP4 PUSH2 0x1017 JUMP JUMPDEST POP DUP1 RETURN JUMPDEST MLOAD RETURNDATASIZE DUP5 DUP3 RETURNDATACOPY RETURNDATASIZE SWAP1 REVERT JUMPDEST DUP5 MLOAD PUSH3 0x461BCD PUSH1 0xE5 SHL DUP2 MSTORE PUSH1 0x20 DUP2 DUP7 ADD MSTORE PUSH1 0x11 PUSH1 0x24 DUP3 ADD MSTORE PUSH17 0x15985D5B1D0E881B9BDD081C185D5CD959 PUSH1 0x7A SHL PUSH1 0x44 DUP3 ADD MSTORE PUSH1 0x64 SWAP1 REVERT JUMPDEST POP SWAP1 CALLVALUE PUSH2 0x1BC JUMPI DUP1 PUSH1 0x3 NOT CALLDATASIZE ADD SLT PUSH2 0x1BC JUMPI PUSH2 0x70E PUSH2 0xEC9 JUMP JUMPDEST SWAP1 PUSH1 0x24 CALLDATALOAD SWAP2 CALLER DUP6 MSTORE DUP4 PUSH1 0x20 MSTORE PUSH1 0xFF DUP3 DUP7 KECCAK256 SLOAD AND DUP1 ISZERO PUSH2 0x7F9 JUMPI JUMPDEST PUSH2 0x731 SWAP1 PUSH2 0x10B9 JUMP JUMPDEST PUSH2 0x740 PUSH1 0xFF PUSH1 0x5 SLOAD AND ISZERO PUSH2 0xF23 JUMP JUMPDEST PUSH2 0x74B DUP4 ISZERO ISZERO PUSH2 0xF5F JUMP JUMPDEST PUSH1 0x1 PUSH1 0x1 PUSH1 0xA0 SHL SUB AND SWAP3 PUSH2 0x760 DUP5 ISZERO ISZERO PUSH2 0xFA3 JUMP JUMPDEST DUP4 DUP6 MSTORE PUSH1 0x3 PUSH1 0x20 MSTORE PUSH1 0x1 DUP3 DUP7 KECCAK256 ADD SWAP1 DUP2 SLOAD SWAP1 DUP5 DUP3 LT PUSH2 0x7AA JUMPI POP SWAP2 DUP4 SWAP2 PUSH2 0x345 PUSH32 0x5E63D54AF10545F0B2BD229512F244CAEFE863AD94DBBB7AD827432C84D762F5 SWAP6 PUSH1 0x20 SWAP6 PUSH2 0x10FD JUMP JUMPDEST PUSH1 0x84 SWAP1 PUSH1 0x20 DUP6 MLOAD SWAP2 PUSH3 0x461BCD PUSH1 0xE5 SHL DUP4 MSTORE DUP3 ADD MSTORE PUSH1 0x23 PUSH1 0x24 DUP3 ADD MSTORE PUSH32 0x5661756C743A20696E73756666696369656E74207265736572766564206D6172 PUSH1 0x44 DUP3 ADD MSTORE PUSH3 0x33B4B7 PUSH1 0xE9 SHL PUSH1 0x64 DUP3 ADD MSTORE REVERT JUMPDEST POP DUP5 SLOAD PUSH1 0x1 PUSH1 0x1 PUSH1 0xA0 SHL SUB AND CALLER EQ PUSH2 0x728 JUMP JUMPDEST POP POP CALLVALUE PUSH2 0x1DD JUMPI DUP2 PUSH1 0x3 NOT CALLDATASIZE ADD SLT PUSH2 0x1DD JUMPI PUSH1 0x20 SWAP1 MLOAD PUSH2 0x1388 DUP2 MSTORE RETURN JUMPDEST POP POP CALLVALUE PUSH2 0x1DD JUMPI DUP2 PUSH1 0x3 NOT CALLDATASIZE ADD SLT PUSH2 0x1DD JUMPI SWAP1 SLOAD SWAP1 MLOAD PUSH1 0x1 PUSH1 0x1 PUSH1 0xA0 SHL SUB SWAP1 SWAP2 AND DUP2 MSTORE PUSH1 0x20 SWAP1 RETURN JUMPDEST DUP4 CALLVALUE PUSH2 0x8AA JUMPI DUP1 PUSH1 0x3 NOT CALLDATASIZE ADD SLT PUSH2 0x8AA JUMPI PUSH2 0x876 PUSH1 0x1 DUP1 PUSH1 0xA0 SHL SUB DUP3 SLOAD AND CALLER EQ PUSH2 0xEE4 JUMP JUMPDEST PUSH1 0x1 PUSH1 0xFF NOT PUSH1 0x5 SLOAD AND OR PUSH1 0x5 SSTORE PUSH32 0x9E87FAC88FF661F02D44F95383C817FECE4BCE600A3DAB7A54406878B965E752 DUP2 DUP1 LOG1 DUP1 RETURN JUMPDEST DUP1 REVERT JUMPDEST POP SWAP1 CALLVALUE PUSH2 0x1BC JUMPI DUP1 PUSH1 0x3 NOT CALLDATASIZE ADD SLT PUSH2 0x1BC JUMPI PUSH2 0x8C7 PUSH2 0xEC9 JUMP JUMPDEST SWAP1 PUSH1 0x24 CALLDATALOAD SWAP2 CALLER DUP6 MSTORE DUP4 PUSH1 0x20 MSTORE PUSH1 0xFF DUP3 DUP7 KECCAK256 SLOAD AND DUP1 ISZERO PUSH2 0x9AC JUMPI JUMPDEST PUSH2 0x8EA SWAP1 PUSH2 0x10B9 JUMP JUMPDEST PUSH2 0x8F9 PUSH1 0xFF PUSH1 0x5 SLOAD AND ISZERO PUSH2 0xF23 JUMP JUMPDEST PUSH2 0x904 DUP4 ISZERO ISZERO PUSH2 0xF5F JUMP JUMPDEST PUSH1 0x1 PUSH1 0x1 PUSH1 0xA0 SHL SUB DUP2 AND SWAP4 PUSH2 0x91A DUP6 ISZERO ISZERO PUSH2 0xFA3 JUMP JUMPDEST DUP5 DUP7 MSTORE PUSH1 0x3 PUSH1 0x20 MSTORE DUP4 PUSH2 0x92F DUP5 DUP9 KECCAK256 SWAP4 PUSH2 0x1126 JUMP JUMPDEST LT PUSH2 0x969 JUMPI POP SWAP2 PUSH1 0x20 SWAP2 PUSH1 0x1 PUSH32 0x7A9B1B90F35F094FFC6D04D86069C79E82C6A16EB600F79672428A409635DECA SWAP5 ADD PUSH2 0x345 DUP4 DUP3 SLOAD PUSH2 0x1096 JUMP JUMPDEST PUSH1 0x64 SWAP1 PUSH1 0x20 DUP5 MLOAD SWAP2 PUSH3 0x461BCD PUSH1 0xE5 SHL DUP4 MSTORE DUP3 ADD MSTORE PUSH1 0x1A PUSH1 0x24 DUP3 ADD MSTORE PUSH32 0x5661756C743A20696E73756666696369656E74206D617267696E000000000000 PUSH1 0x44 DUP3 ADD MSTORE REVERT JUMPDEST POP DUP5 SLOAD PUSH1 0x1 PUSH1 0x1 PUSH1 0xA0 SHL SUB AND CALLER EQ PUSH2 0x8E1 JUMP JUMPDEST POP SWAP1 CALLVALUE PUSH2 0x1BC JUMPI PUSH1 0x20 CALLDATASIZE PUSH1 0x3 NOT ADD SLT PUSH2 0x1BC JUMPI PUSH2 0x9DA PUSH2 0xEC9 JUMP JUMPDEST DUP4 SLOAD PUSH1 0x1 PUSH1 0x1 PUSH1 0xA0 SHL SUB SWAP2 SWAP1 PUSH2 0x9F3 SWAP1 DUP4 AND CALLER EQ PUSH2 0xEE4 JUMP JUMPDEST AND SWAP2 DUP3 ISZERO PUSH2 0xA73 JUMPI DUP3 PUSH12 0xFFFFFFFFFFFFFFFFFFFFFFFF PUSH1 0xA0 SHL PUSH1 0x1 SLOAD AND OR PUSH1 0x1 SSTORE DUP3 DUP5 MSTORE PUSH1 0x20 MSTORE DUP3 KECCAK256 PUSH1 0x1 PUSH1 0xFF NOT DUP3 SLOAD AND OR SWAP1 SSTORE DUP1 PUSH32 0xB9B7E0CD0425B8D1399710185FEAB651B96089B6F0E01CB950FFB46B17227CBF DUP4 DUP1 LOG2 PUSH32 0xDD10D14F6AC19E913D4EDBB11FD30661531E2CCD0D23F571E9B224F001F0DD06 DUP3 DUP1 LOG2 DUP1 RETURN JUMPDEST PUSH1 0x20 PUSH1 0x64 SWAP3 MLOAD SWAP2 PUSH3 0x461BCD PUSH1 0xE5 SHL DUP4 MSTORE DUP3 ADD MSTORE PUSH1 0x13 PUSH1 0x24 DUP3 ADD MSTORE PUSH19 0x5661756C743A20696E76616C69642076616D6D PUSH1 0x68 SHL PUSH1 0x44 DUP3 ADD MSTORE REVERT JUMPDEST POP POP CALLVALUE PUSH2 0x1DD JUMPI DUP2 PUSH1 0x3 NOT CALLDATASIZE ADD SLT PUSH2 0x1DD JUMPI PUSH1 0x20 SWAP1 PUSH1 0xFF PUSH1 0x5 SLOAD AND SWAP1 MLOAD SWAP1 ISZERO ISZERO DUP2 MSTORE RETURN JUMPDEST POP SWAP1 CALLVALUE PUSH2 0x1BC JUMPI PUSH1 0x60 CALLDATASIZE PUSH1 0x3 NOT ADD SLT PUSH2 0x1BC JUMPI PUSH32 0x4519C0DE74B8F9F16FDA0005326875E3FD4DD0D38446A1135A1FFA1739E4591E SWAP1 PUSH2 0xB0C PUSH2 0xEC9 JUMP JUMPDEST PUSH1 0x24 CALLDATALOAD SWAP1 PUSH1 0x44 CALLDATALOAD SWAP5 CALLER DUP8 MSTORE PUSH1 0x20 MSTORE PUSH1 0xFF DUP4 DUP8 KECCAK256 SLOAD AND DUP1 ISZERO PUSH2 0xB75 JUMPI JUMPDEST PUSH2 0xB31 SWAP1 PUSH2 0x10B9 JUMP JUMPDEST PUSH1 0x1 PUSH1 0x1 PUSH1 0xA0 SHL SUB AND SWAP4 PUSH2 0xB46 DUP6 ISZERO ISZERO PUSH2 0xFA3 JUMP JUMPDEST DUP5 DUP7 MSTORE PUSH1 0x3 PUSH1 0x20 MSTORE DUP1 PUSH1 0x3 DUP5 DUP9 KECCAK256 PUSH1 0x2 DUP2 ADD PUSH2 0xB63 DUP7 DUP3 SLOAD PUSH2 0x110A JUMP JUMPDEST SWAP1 SSTORE ADD SSTORE DUP3 MLOAD SWAP2 DUP3 MSTORE PUSH1 0x20 DUP3 ADD MSTORE LOG2 DUP1 RETURN JUMPDEST POP DUP6 SLOAD PUSH1 0x1 PUSH1 0x1 PUSH1 0xA0 SHL SUB AND CALLER EQ PUSH2 0xB28 JUMP JUMPDEST POP SWAP1 CALLVALUE PUSH2 0x1BC JUMPI PUSH1 0x20 CALLDATASIZE PUSH1 0x3 NOT ADD SLT PUSH2 0x1BC JUMPI PUSH2 0xBA3 PUSH2 0xEC9 JUMP JUMPDEST DUP4 SLOAD PUSH1 0x1 PUSH1 0x1 PUSH1 0xA0 SHL SUB SWAP2 SWAP1 PUSH2 0xBBC SWAP1 DUP4 AND CALLER EQ PUSH2 0xEE4 JUMP JUMPDEST AND SWAP2 DUP3 DUP5 MSTORE PUSH1 0x20 MSTORE DUP3 KECCAK256 PUSH1 0xFF NOT DUP2 SLOAD AND SWAP1 SSTORE PUSH32 0xFAFD0343E6C6F6985727574866DA48938C918559EB9521CF9CC0D317EA0F7B4 DUP3 DUP1 LOG2 DUP1 RETURN JUMPDEST DUP4 CALLVALUE PUSH2 0x8AA JUMPI DUP1 PUSH1 0x3 NOT CALLDATASIZE ADD SLT PUSH2 0x8AA JUMPI PUSH2 0xC1A PUSH1 0x1 DUP1 PUSH1 0xA0 SHL SUB DUP3 SLOAD AND CALLER EQ PUSH2 0xEE4 JUMP JUMPDEST PUSH1 0xFF NOT PUSH1 0x5 SLOAD AND PUSH1 0x5 SSTORE PUSH32 0xA45F47FDEA8A1EFDD9029A5691C7F759C32B7C698632B563573E155625D16933 DUP2 DUP1 LOG1 DUP1 RETURN JUMPDEST POP CALLVALUE PUSH2 0x1BC JUMPI DUP2 PUSH1 0x3 NOT CALLDATASIZE ADD SLT PUSH2 0x1BC JUMPI PUSH2 0xC64 PUSH2 0xEC9 JUMP JUMPDEST SWAP1 PUSH1 0x24 CALLDATALOAD PUSH2 0xC77 PUSH1 0xFF PUSH1 0x5 SLOAD AND ISZERO PUSH2 0xF23 JUMP JUMPDEST PUSH2 0xC82 DUP2 ISZERO ISZERO PUSH2 0xF5F JUMP JUMPDEST PUSH1 0x1 PUSH1 0x1 PUSH1 0xA0 SHL SUB DUP4 DUP2 AND SWAP4 SWAP1 SWAP3 SWAP1 PUSH2 0xC9C DUP6 ISZERO ISZERO PUSH2 0xFA3 JUMP JUMPDEST DUP5 CALLER EQ DUP1 ISZERO PUSH2 0xE18 JUMPI JUMPDEST PUSH2 0xCAF SWAP1 PUSH2 0x10B9 JUMP JUMPDEST DUP5 DUP8 MSTORE PUSH1 0x20 SWAP4 PUSH1 0x3 DUP6 MSTORE DUP7 DUP9 KECCAK256 DUP1 SLOAD DUP6 DUP2 LT PUSH2 0xDD5 JUMPI DUP6 PUSH2 0xCCF DUP6 PUSH2 0x1126 JUMP JUMPDEST LT PUSH2 0xD86 JUMPI SWAP3 DUP10 DUP7 SWAP4 PUSH2 0xD1E SWAP7 SWAP4 PUSH2 0xCE8 DUP7 DUP12 SWAP9 PUSH2 0x10FD JUMP JUMPDEST SWAP1 SSTORE PUSH1 0x2 SLOAD AND SWAP3 DUP11 MLOAD SWAP7 DUP8 SWAP6 DUP7 SWAP5 DUP6 SWAP4 PUSH4 0xA9059CBB PUSH1 0xE0 SHL DUP6 MSTORE DUP5 ADD PUSH1 0x20 SWAP1 SWAP4 SWAP3 SWAP2 SWAP4 PUSH1 0x40 DUP2 ADD SWAP5 PUSH1 0x1 DUP1 PUSH1 0xA0 SHL SUB AND DUP2 MSTORE ADD MSTORE JUMP JUMPDEST SUB SWAP3 GAS CALL SWAP1 DUP2 ISZERO PUSH2 0xD7C JUMPI PUSH32 0xC30FCFBCAAC9E0DEFFA719714EAA82396FF506A0D0D0EEBE170830177288715D SWAP5 SWAP6 SWAP2 PUSH2 0xD5D SWAP2 DUP9 SWAP2 PUSH2 0xD65 JUMPI POP PUSH2 0x1051 JUMP JUMPDEST MLOAD SWAP1 DUP2 MSTORE LOG2 DUP1 RETURN JUMPDEST PUSH2 0x5F6 SWAP2 POP DUP6 RETURNDATASIZE DUP8 GT PUSH2 0x5FC JUMPI PUSH2 0x5EE DUP2 DUP4 PUSH2 0x1017 JUMP JUMPDEST DUP6 MLOAD RETURNDATASIZE DUP9 DUP3 RETURNDATACOPY RETURNDATASIZE SWAP1 REVERT JUMPDEST DUP9 MLOAD PUSH3 0x461BCD PUSH1 0xE5 SHL DUP2 MSTORE DUP1 DUP7 ADD DUP9 SWAP1 MSTORE PUSH1 0x24 DUP1 DUP3 ADD MSTORE PUSH32 0x5661756C743A20696E73756666696369656E7420617661696C61626C65206D61 PUSH1 0x44 DUP3 ADD MSTORE PUSH4 0x3933B4B7 PUSH1 0xE1 SHL PUSH1 0x64 DUP3 ADD MSTORE PUSH1 0x84 SWAP1 REVERT JUMPDEST DUP9 MLOAD PUSH3 0x461BCD PUSH1 0xE5 SHL DUP2 MSTORE DUP1 DUP7 ADD DUP9 SWAP1 MSTORE PUSH1 0x1E PUSH1 0x24 DUP3 ADD MSTORE PUSH32 0x5661756C743A20696E73756666696369656E7420636F6C6C61746572616C0000 PUSH1 0x44 DUP3 ADD MSTORE PUSH1 0x64 SWAP1 REVERT JUMPDEST POP CALLER DUP8 MSTORE PUSH1 0x20 DUP3 SWAP1 MSTORE DUP6 DUP8 KECCAK256 SLOAD PUSH1 0xFF AND PUSH2 0xCA6 JUMP JUMPDEST SWAP2 POP POP CALLVALUE PUSH2 0x1BC JUMPI PUSH1 0x20 CALLDATASIZE PUSH1 0x3 NOT ADD SLT PUSH2 0x1BC JUMPI DUP3 DUP3 SWAP2 PUSH1 0x80 SWAP5 PUSH1 0x60 PUSH2 0xE51 PUSH2 0xEC9 JUMP JUMPDEST SWAP3 PUSH2 0xE5B DUP2 PUSH2 0xFE5 JUMP JUMPDEST DUP3 DUP2 MSTORE DUP3 PUSH1 0x20 DUP3 ADD MSTORE DUP3 DUP7 DUP3 ADD MSTORE ADD MSTORE PUSH1 0x1 DUP1 PUSH1 0xA0 SHL SUB AND DUP2 MSTORE PUSH1 0x3 PUSH1 0x20 MSTORE KECCAK256 SWAP1 DUP1 MLOAD SWAP1 PUSH2 0xE88 DUP3 PUSH2 0xFE5 JUMP JUMPDEST DUP3 SLOAD SWAP3 DUP4 DUP4 MSTORE PUSH1 0x1 DUP2 ADD SLOAD PUSH1 0x20 DUP5 ADD SWAP1 DUP2 MSTORE PUSH1 0x60 PUSH1 0x3 PUSH1 0x2 DUP5 ADD SLOAD SWAP4 DUP6 DUP8 ADD SWAP5 DUP6 MSTORE ADD SLOAD SWAP5 ADD SWAP4 DUP5 MSTORE DUP3 MLOAD SWAP5 DUP6 MSTORE MLOAD PUSH1 0x20 DUP6 ADD MSTORE MLOAD SWAP1 DUP4 ADD MSTORE MLOAD PUSH1 0x60 DUP3 ADD MSTORE RETURN JUMPDEST PUSH1 0x4 CALLDATALOAD SWAP1 PUSH1 0x1 PUSH1 0x1 PUSH1 0xA0 SHL SUB DUP3 AND DUP3 SUB PUSH2 0xEDF JUMPI JUMP JUMPDEST PUSH1 0x0 DUP1 REVERT JUMPDEST ISZERO PUSH2 0xEEB JUMPI JUMP JUMPDEST PUSH1 0x40 MLOAD PUSH3 0x461BCD PUSH1 0xE5 SHL DUP2 MSTORE PUSH1 0x20 PUSH1 0x4 DUP3 ADD MSTORE PUSH1 0x10 PUSH1 0x24 DUP3 ADD MSTORE PUSH16 0x2B30BAB63A1D103737BA1037BBB732B9 PUSH1 0x81 SHL PUSH1 0x44 DUP3 ADD MSTORE PUSH1 0x64 SWAP1 REVERT JUMPDEST ISZERO PUSH2 0xF2A JUMPI JUMP JUMPDEST PUSH1 0x40 MLOAD PUSH3 0x461BCD PUSH1 0xE5 SHL DUP2 MSTORE PUSH1 0x20 PUSH1 0x4 DUP3 ADD MSTORE PUSH1 0xD PUSH1 0x24 DUP3 ADD MSTORE PUSH13 0x15985D5B1D0E881C185D5CD959 PUSH1 0x9A SHL PUSH1 0x44 DUP3 ADD MSTORE PUSH1 0x64 SWAP1 REVERT JUMPDEST ISZERO PUSH2 0xF66 JUMPI JUMP JUMPDEST PUSH1 0x40 MLOAD PUSH3 0x461BCD PUSH1 0xE5 SHL DUP2 MSTORE PUSH1 0x20 PUSH1 0x4 DUP3 ADD MSTORE PUSH1 0x15 PUSH1 0x24 DUP3 ADD MSTORE PUSH21 0x15985D5B1D0E881A5B9D985B1A5908185B5BDD5B9D PUSH1 0x5A SHL PUSH1 0x44 DUP3 ADD MSTORE PUSH1 0x64 SWAP1 REVERT JUMPDEST ISZERO PUSH2 0xFAA JUMPI JUMP JUMPDEST PUSH1 0x40 MLOAD PUSH3 0x461BCD PUSH1 0xE5 SHL DUP2 MSTORE PUSH1 0x20 PUSH1 0x4 DUP3 ADD MSTORE PUSH1 0x13 PUSH1 0x24 DUP3 ADD MSTORE PUSH19 0x2B30BAB63A1D1034B73B30B634B2103AB9B2B9 PUSH1 0x69 SHL PUSH1 0x44 DUP3 ADD MSTORE PUSH1 0x64 SWAP1 REVERT JUMPDEST PUSH1 0x80 DUP2 ADD SWAP1 DUP2 LT PUSH8 0xFFFFFFFFFFFFFFFF DUP3 GT OR PUSH2 0x1001 JUMPI PUSH1 0x40 MSTORE JUMP JUMPDEST PUSH4 0x4E487B71 PUSH1 0xE0 SHL PUSH1 0x0 MSTORE PUSH1 0x41 PUSH1 0x4 MSTORE PUSH1 0x24 PUSH1 0x0 REVERT JUMPDEST SWAP1 PUSH1 0x1F DUP1 NOT SWAP2 ADD AND DUP2 ADD SWAP1 DUP2 LT PUSH8 0xFFFFFFFFFFFFFFFF DUP3 GT OR PUSH2 0x1001 JUMPI PUSH1 0x40 MSTORE JUMP JUMPDEST SWAP1 DUP2 PUSH1 0x20 SWAP2 SUB SLT PUSH2 0xEDF JUMPI MLOAD DUP1 ISZERO ISZERO DUP2 SUB PUSH2 0xEDF JUMPI SWAP1 JUMP JUMPDEST ISZERO PUSH2 0x1058 JUMPI JUMP JUMPDEST PUSH1 0x40 MLOAD PUSH3 0x461BCD PUSH1 0xE5 SHL DUP2 MSTORE PUSH1 0x20 PUSH1 0x4 DUP3 ADD MSTORE PUSH1 0x16 PUSH1 0x24 DUP3 ADD MSTORE PUSH22 0x15985D5B1D0E881D1C985B9CD9995C8819985A5B1959 PUSH1 0x52 SHL PUSH1 0x44 DUP3 ADD MSTORE PUSH1 0x64 SWAP1 REVERT JUMPDEST SWAP2 SWAP1 DUP3 ADD DUP1 SWAP3 GT PUSH2 0x10A3 JUMPI JUMP JUMPDEST PUSH4 0x4E487B71 PUSH1 0xE0 SHL PUSH1 0x0 MSTORE PUSH1 0x11 PUSH1 0x4 MSTORE PUSH1 0x24 PUSH1 0x0 REVERT JUMPDEST ISZERO PUSH2 0x10C0 JUMPI JUMP JUMPDEST PUSH1 0x40 MLOAD PUSH3 0x461BCD PUSH1 0xE5 SHL DUP2 MSTORE PUSH1 0x20 PUSH1 0x4 DUP3 ADD MSTORE PUSH1 0x15 PUSH1 0x24 DUP3 ADD MSTORE PUSH21 0x15985D5B1D0E881B9BDD08185D5D1A1BDC9A5E9959 PUSH1 0x5A SHL PUSH1 0x44 DUP3 ADD MSTORE PUSH1 0x64 SWAP1 REVERT JUMPDEST SWAP2 SWAP1 DUP3 SUB SWAP2 DUP3 GT PUSH2 0x10A3 JUMPI JUMP JUMPDEST SWAP2 SWAP1 SWAP2 PUSH1 0x0 DUP4 DUP3 ADD SWAP4 DUP5 SLT SWAP2 SLT SWAP1 DUP1 ISZERO DUP3 AND SWAP2 ISZERO AND OR PUSH2 0x10A3 JUMPI JUMP JUMPDEST PUSH1 0x1 PUSH1 0x1 PUSH1 0xA0 SHL SUB DUP2 AND PUSH1 0x0 SWAP1 DUP2 MSTORE PUSH1 0x3 PUSH1 0x20 MSTORE PUSH1 0x40 SWAP1 KECCAK256 SWAP1 PUSH2 0x1148 SWAP1 PUSH2 0x1171 JUMP JUMPDEST SWAP1 PUSH1 0x0 DUP3 SGT ISZERO PUSH2 0x116A JUMPI PUSH1 0x1 ADD SLOAD DUP1 DUP3 GT ISZERO PUSH2 0x116A JUMPI PUSH2 0x1167 SWAP2 PUSH2 0x10FD JUMP JUMPDEST SWAP1 JUMP JUMPDEST POP POP PUSH1 0x0 SWAP1 JUMP JUMPDEST PUSH1 0x1 PUSH1 0x1 PUSH1 0xA0 SHL SUB AND PUSH1 0x0 SWAP1 DUP2 MSTORE PUSH1 0x3 PUSH1 0x20 MSTORE PUSH1 0x40 SWAP1 KECCAK256 DUP1 SLOAD PUSH1 0x2 SWAP1 SWAP2 ADD SLOAD PUSH2 0x1167 SWAP2 PUSH2 0x110A JUMP JUMPDEST PUSH1 0x1 PUSH1 0x1 PUSH1 0xA0 SHL SUB DUP2 AND PUSH1 0x0 SWAP1 DUP2 MSTORE PUSH1 0x3 PUSH1 0x20 MSTORE PUSH1 0x40 DUP2 KECCAK256 PUSH1 0x1 ADD SLOAD SWAP2 DUP3 ISZERO PUSH2 0x1200 JUMPI PUSH2 0x11C5 SWAP1 PUSH2 0x1171 JUMP JUMPDEST SWAP3 DUP2 DUP5 SGT ISZERO PUSH2 0x11F7 JUMPI DUP1 DUP4 MUL SWAP3 DUP4 DIV SUB PUSH2 0x11E3 JUMPI POP PUSH2 0x2710 SWAP1 DIV GT SWAP1 JUMP JUMPDEST PUSH4 0x4E487B71 PUSH1 0xE0 SHL DUP2 MSTORE PUSH1 0x11 PUSH1 0x4 MSTORE PUSH1 0x24 SWAP1 REVERT JUMPDEST POP POP POP POP PUSH1 0x1 SWAP1 JUMP JUMPDEST POP SWAP2 POP POP SWAP1 JUMP INVALID LOG2 PUSH5 0x6970667358 0x22 SLT KECCAK256 0x25 SDIV XOR 0xE7 PUSH29 0x864C13C97BE4C084E3BF3E6D1EB5E1875E8924E7513FA1ADDC672C6473 PUSH16 0x6C634300081400330000000000000000 "},"methodIdentifiers":{"BASIS_POINTS()":"e1f1c4a7","LIQUIDATION_THRESHOLD()":"90a8ae9b","addAuthorized(address)":"cf1c316a","applyFunding(address,int256,uint256)":"5969f96b","authorized(address)":"b9181611","canLiquidate(address,uint256)":"b39ff736","collateralToken()":"b2016bd4","depositCollateral(address,uint256)":"a5d5db0c","emergencyWithdraw(address,uint256)":"95ccea67","getAvailableMargin(address)":"c1c7c9dd","getMarginAccount(address)":"002bc164","getTotalMargin(address)":"c90ba3a6","liquidate(address,uint256)":"bcbaf487","owner()":"8da5cb5b","pause()":"8456cb59","paused()":"5c975abb","releaseMargin(address,uint256)":"9101e5b3","removeAuthorized(address)":"485d7d94","reserveMargin(address,uint256)":"7569f4c8","setVamm(address)":"5d773174","transferOwnership(address)":"f2fde38b","unpause()":"3f4ba83a","updatePnL(address,int256)":"cb625680","vamm()":"e098372c","withdrawCollateral(address,uint256)":"350c35e9"}}}}}