{
  "_format": "hh-sol-artifact-1",
  "contractName": "MetricLimitOrderKeeper",
  "sourceName": "contracts/core/MetricLimitOrderKeeper.sol",
  "abi": [
    {
      "inputs": [
        {
          "internalType": "address",
          "name": "_orderManager",
          "type": "address"
        },
        {
          "internalType": "address",
          "name": "_factory",
          "type": "address"
        }
      ],
      "stateMutability": "nonpayable",
      "type": "constructor"
    },
    {
      "anonymous": false,
      "inputs": [
        {
          "indexed": false,
          "internalType": "uint256",
          "name": "minInterval",
          "type": "uint256"
        },
        {
          "indexed": false,
          "internalType": "uint256",
          "name": "gasPerOrder",
          "type": "uint256"
        },
        {
          "indexed": false,
          "internalType": "uint256",
          "name": "maxGas",
          "type": "uint256"
        }
      ],
      "name": "KeeperConfigUpdated",
      "type": "event"
    },
    {
      "anonymous": false,
      "inputs": [
        {
          "indexed": false,
          "internalType": "uint256",
          "name": "ordersChecked",
          "type": "uint256"
        },
        {
          "indexed": false,
          "internalType": "uint256",
          "name": "ordersExecuted",
          "type": "uint256"
        },
        {
          "indexed": false,
          "internalType": "uint256",
          "name": "gasUsed",
          "type": "uint256"
        },
        {
          "indexed": false,
          "internalType": "bytes32[]",
          "name": "executedOrders",
          "type": "bytes32[]"
        }
      ],
      "name": "UpkeepPerformed",
      "type": "event"
    },
    {
      "inputs": [],
      "name": "MAX_ORDERS_PER_CHECK",
      "outputs": [
        {
          "internalType": "uint256",
          "name": "",
          "type": "uint256"
        }
      ],
      "stateMutability": "view",
      "type": "function"
    },
    {
      "inputs": [],
      "name": "MAX_ORDERS_PER_EXECUTION",
      "outputs": [
        {
          "internalType": "uint256",
          "name": "",
          "type": "uint256"
        }
      ],
      "stateMutability": "view",
      "type": "function"
    },
    {
      "inputs": [],
      "name": "canExecuteNow",
      "outputs": [
        {
          "internalType": "bool",
          "name": "canExecute",
          "type": "bool"
        },
        {
          "internalType": "string",
          "name": "reason",
          "type": "string"
        }
      ],
      "stateMutability": "view",
      "type": "function"
    },
    {
      "inputs": [
        {
          "internalType": "bytes32",
          "name": "metricId",
          "type": "bytes32"
        },
        {
          "internalType": "uint256",
          "name": "maxOrders",
          "type": "uint256"
        }
      ],
      "name": "checkMetricOrders",
      "outputs": [
        {
          "internalType": "bool",
          "name": "hasExecutableOrders",
          "type": "bool"
        },
        {
          "internalType": "bytes32[]",
          "name": "executableOrders",
          "type": "bytes32[]"
        }
      ],
      "stateMutability": "view",
      "type": "function"
    },
    {
      "inputs": [
        {
          "internalType": "bytes32[]",
          "name": "metricIds",
          "type": "bytes32[]"
        },
        {
          "internalType": "uint256",
          "name": "maxOrdersPerMetric",
          "type": "uint256"
        }
      ],
      "name": "checkMultipleMetrics",
      "outputs": [
        {
          "internalType": "bool",
          "name": "hasAnyExecutableOrders",
          "type": "bool"
        },
        {
          "internalType": "uint256",
          "name": "totalExecutableOrders",
          "type": "uint256"
        },
        {
          "internalType": "bytes32[]",
          "name": "allExecutableOrders",
          "type": "bytes32[]"
        }
      ],
      "stateMutability": "view",
      "type": "function"
    },
    {
      "inputs": [
        {
          "internalType": "bytes",
          "name": "checkData",
          "type": "bytes"
        }
      ],
      "name": "checkUpkeep",
      "outputs": [
        {
          "internalType": "bool",
          "name": "upkeepNeeded",
          "type": "bool"
        },
        {
          "internalType": "bytes",
          "name": "performData",
          "type": "bytes"
        }
      ],
      "stateMutability": "view",
      "type": "function"
    },
    {
      "inputs": [],
      "name": "emergencyPause",
      "outputs": [],
      "stateMutability": "nonpayable",
      "type": "function"
    },
    {
      "inputs": [
        {
          "internalType": "uint256",
          "name": "orderCount",
          "type": "uint256"
        }
      ],
      "name": "estimateExecutionGas",
      "outputs": [
        {
          "internalType": "uint256",
          "name": "",
          "type": "uint256"
        }
      ],
      "stateMutability": "view",
      "type": "function"
    },
    {
      "inputs": [],
      "name": "estimatedGasPerOrder",
      "outputs": [
        {
          "internalType": "uint256",
          "name": "",
          "type": "uint256"
        }
      ],
      "stateMutability": "view",
      "type": "function"
    },
    {
      "inputs": [],
      "name": "factory",
      "outputs": [
        {
          "internalType": "address",
          "name": "",
          "type": "address"
        }
      ],
      "stateMutability": "view",
      "type": "function"
    },
    {
      "inputs": [],
      "name": "getKeeperConfig",
      "outputs": [
        {
          "internalType": "uint256",
          "name": "minInterval",
          "type": "uint256"
        },
        {
          "internalType": "uint256",
          "name": "gasPerOrder",
          "type": "uint256"
        },
        {
          "internalType": "uint256",
          "name": "maxGas",
          "type": "uint256"
        },
        {
          "internalType": "uint256",
          "name": "maxOrdersPerCheck",
          "type": "uint256"
        },
        {
          "internalType": "uint256",
          "name": "maxOrdersPerExecution",
          "type": "uint256"
        }
      ],
      "stateMutability": "view",
      "type": "function"
    },
    {
      "inputs": [],
      "name": "getKeeperReadiness",
      "outputs": [
        {
          "internalType": "bool",
          "name": "isReady",
          "type": "bool"
        },
        {
          "internalType": "string",
          "name": "status",
          "type": "string"
        },
        {
          "internalType": "uint256",
          "name": "timeSinceLastExecution",
          "type": "uint256"
        },
        {
          "internalType": "uint256",
          "name": "timeUntilNextExecution",
          "type": "uint256"
        }
      ],
      "stateMutability": "view",
      "type": "function"
    },
    {
      "inputs": [],
      "name": "getKeeperStats",
      "outputs": [
        {
          "internalType": "uint256",
          "name": "executions",
          "type": "uint256"
        },
        {
          "internalType": "uint256",
          "name": "ordersExecuted",
          "type": "uint256"
        },
        {
          "internalType": "uint256",
          "name": "gasUsed",
          "type": "uint256"
        },
        {
          "internalType": "uint256",
          "name": "avgGasPerOrder",
          "type": "uint256"
        },
        {
          "internalType": "uint256",
          "name": "lastExecution",
          "type": "uint256"
        }
      ],
      "stateMutability": "view",
      "type": "function"
    },
    {
      "inputs": [
        {
          "internalType": "bytes32[]",
          "name": "metricIds",
          "type": "bytes32[]"
        }
      ],
      "name": "getSuggestedCheckData",
      "outputs": [
        {
          "internalType": "bytes",
          "name": "",
          "type": "bytes"
        }
      ],
      "stateMutability": "pure",
      "type": "function"
    },
    {
      "inputs": [
        {
          "internalType": "address",
          "name": "",
          "type": "address"
        }
      ],
      "name": "keeperExecutions",
      "outputs": [
        {
          "internalType": "uint256",
          "name": "",
          "type": "uint256"
        }
      ],
      "stateMutability": "view",
      "type": "function"
    },
    {
      "inputs": [],
      "name": "lastExecutionTime",
      "outputs": [
        {
          "internalType": "uint256",
          "name": "",
          "type": "uint256"
        }
      ],
      "stateMutability": "view",
      "type": "function"
    },
    {
      "inputs": [
        {
          "internalType": "bytes32[]",
          "name": "orderHashes",
          "type": "bytes32[]"
        }
      ],
      "name": "manualExecuteOrders",
      "outputs": [],
      "stateMutability": "nonpayable",
      "type": "function"
    },
    {
      "inputs": [],
      "name": "maxGasLimit",
      "outputs": [
        {
          "internalType": "uint256",
          "name": "",
          "type": "uint256"
        }
      ],
      "stateMutability": "view",
      "type": "function"
    },
    {
      "inputs": [],
      "name": "minExecutionInterval",
      "outputs": [
        {
          "internalType": "uint256",
          "name": "",
          "type": "uint256"
        }
      ],
      "stateMutability": "view",
      "type": "function"
    },
    {
      "inputs": [],
      "name": "orderManager",
      "outputs": [
        {
          "internalType": "contract MetricLimitOrderManager",
          "name": "",
          "type": "address"
        }
      ],
      "stateMutability": "view",
      "type": "function"
    },
    {
      "inputs": [
        {
          "internalType": "bytes",
          "name": "performData",
          "type": "bytes"
        }
      ],
      "name": "performUpkeep",
      "outputs": [],
      "stateMutability": "nonpayable",
      "type": "function"
    },
    {
      "inputs": [],
      "name": "totalExecutions",
      "outputs": [
        {
          "internalType": "uint256",
          "name": "",
          "type": "uint256"
        }
      ],
      "stateMutability": "view",
      "type": "function"
    },
    {
      "inputs": [],
      "name": "totalGasUsed",
      "outputs": [
        {
          "internalType": "uint256",
          "name": "",
          "type": "uint256"
        }
      ],
      "stateMutability": "view",
      "type": "function"
    },
    {
      "inputs": [],
      "name": "totalOrdersExecuted",
      "outputs": [
        {
          "internalType": "uint256",
          "name": "",
          "type": "uint256"
        }
      ],
      "stateMutability": "view",
      "type": "function"
    },
    {
      "inputs": [
        {
          "internalType": "uint256",
          "name": "_minExecutionInterval",
          "type": "uint256"
        },
        {
          "internalType": "uint256",
          "name": "_estimatedGasPerOrder",
          "type": "uint256"
        },
        {
          "internalType": "uint256",
          "name": "_maxGasLimit",
          "type": "uint256"
        }
      ],
      "name": "updateKeeperConfig",
      "outputs": [],
      "stateMutability": "nonpayable",
      "type": "function"
    }
  ],
  "bytecode": "0x60c0346100cc57601f6117c338819003918201601f19168301916001600160401b038311848410176100d15780849260409485528339810103126100cc57610052602061004b836100e7565b92016100e7565b601e60005562030d40600255621e84806003556001600160a01b0390911660805260a052426001556040516116c790816100fc823960805181818161018901528181610239015281816105fb0152818161085c0152818161093e01528181610a0001528181610cc10152611326015260a051816101cc0152f35b600080fd5b634e487b7160e01b600052604160045260246000fd5b51906001600160a01b03821682036100cc5756fe608060408181526004918236101561001657600080fd5b600092833560e01c918263012e09a314610f98575081632b3dff6e14610ec2578163363dfb9814610c6f5781634480f46c14610c355781634585e33b146109bb5781634f24db971461090757816351858e271461082d578163540c33e4146107bc5781635e45da231461079d578163642f7d5e1461077f5781636e04ff0d1461076257816373b379bd1461074357816374809090146105a457816379dcdbe3146105395781637a1f08e7146104fa5781637a50568d146104b05781639fbefb2614610491578163a6c7499e14610455578163ad4bc88314610439578163b32693a11461041d578163be850f77146101fb57508063c45a0155146101b8578063f9b6117f14610175578063fbc3dbb5146101595763fd52a1071461013857600080fd5b346101555781600319360112610155576020906002549051908152f35b5080fd5b5034610155578160031936011261015557602091549051908152f35b5034610155578160031936011261015557517f00000000000000000000000000000000000000000000000000000000000000006001600160a01b03168152602090f35b5034610155578160031936011261015557517f00000000000000000000000000000000000000000000000000000000000000006001600160a01b03168152602090f35b905034610419576060366003190112610419578151638da5cb5b60e01b8152813592604435929091602435916020916001600160a01b0390838184817f000000000000000000000000000000000000000000000000000000000000000086165afa90811561040f5789916103e2575b501633036103a857600a8610158061039c575b80610390575b80610383575b80610376575b80610369575b156102dc57508486556002829055600384905582519485528401528201527f95f714ca57eb3700ccfc2153bb001e185b7168d6edf06c9c7144ccaa7ed046da90606090a180f35b60a49184519162461bcd60e51b8352820152605f60248201527f4d65747269634c696d69744f726465724b65657065723a20436f6e666967757260448201527f6174696f6e20706172616d6574657273206f7574206f6620626f756e6473202d60648201527f20636865636b20696e74657276616c7320616e6420676173206c696d697473006084820152fd5b50624c4b40851115610295565b506207a12085101561028f565b506207a120831115610289565b5061c350831015610283565b50610e1086111561027d565b60849184519162461bcd60e51b83528201526022602482015260008051602061167283398151915260448201526132b960f11b6064820152fd5b6104029150843d8611610408575b6103fa8183611116565b8101906115a6565b3861026a565b503d6103f0565b86513d8b823e3d90fd5b8280fd5b5050346101555781600319360112610155576020905160148152f35b50503461015557816003193601126101555760209051600a8152f35b50503461015557816003193601126101555760a091549060025490600354918151938452602084015282015260146060820152600a6080820152f35b5050346101555781600319360112610155576020906006549051908152f35b838334610155576020366003190112610155576104d06002548435611593565b9161c35083018093116104e7576020838351908152f35b634e487b7160e01b815260118452602490fd5b828434610536578060031936011261053657506105326105186115ee565b839291925193849315158452806020850152830190610fb4565b0390f35b80fd5b90508234610536576020366003190112610536578135906001600160401b038211610536576105326105928561057136868801610ff4565b92906105848351948592602084016115c5565b03601f198101845283611116565b51918291602083526020830190610fb4565b9050823461053657826003193601126105365781356001600160401b038111610155576105d49036908401610ff4565b906024938435916105ed6105e88486611593565b6111c9565b938596869360018060a01b037f000000000000000000000000000000000000000000000000000000000000000016935b838610610682578a8a8a8a610631836111c9565b915b83811061065e5750506105329060608451948486951515865260208601528401526060830190611073565b8061066c61067d928461120a565b51610677828661120a565b526111fb565b610633565b8a9599969a989497985197630270f83760e31b89528a60051b820135838a01528b848a01528589604481845afa988915610739578699610715575b5085975b89518910156106f4576106e8818c6106776106ee946106e18f8f9061120a565b519261120a565b986111fb565b976106c1565b9a9093969b929599985061070a919497506111fb565b94919390959261061d565b6107329199503d8088833e61072a8183611116565b810190611241565b978c6106bd565b87513d88823e3d90fd5b5050346101555781600319360112610155576020906001549051908152f35b828434610536575061053261051861077936611029565b906112ba565b90503461041957826003193601126104195760209250549051908152f35b5050346101555781600319360112610155576020906003549051908152f35b8284346105365780600319360112610536578254916005549160065490831580156000146108225761080f575060a09450828104915b600154938151958652602086015284015260608301526080820152f35b634e487b7160e01b815260128652602490fd5b5060a09550916107f2565b919050346104195782600319360112610419578051638da5cb5b60e01b81526001600160a01b039060208185817f000000000000000000000000000000000000000000000000000000000000000086165afa9081156108fd5785916108df575b50163303610899578280f35b906020608492519162461bcd60e51b8352820152602c602482015260008051602061167283398151915260448201526b65722063616e20706175736560a01b6064820152fd5b6108f7915060203d8111610408576103fa8183611116565b3861088d565b83513d87823e3d90fd5b839150346101555782600319360112610155578251630270f83760e31b8152813591810191909152602480359082015281816044817f00000000000000000000000000000000000000000000000000000000000000006001600160a01b03165afa9182156109b0578092610995575b5050610532815115159183519384938452806020850152830190611073565b6109a992503d8091833e61072a8183611116565b8280610976565b8351903d90823e3d90fd5b905034610419576109db906109cf36611029565b92905a93810190611150565b9081518015159081610c29575b5015610b9a5784939293946109fd83516111c9565b937f00000000000000000000000000000000000000000000000000000000000000006001600160a01b031690825b8551811015610ac057610a3e818761120a565b5182519063eda4ad9560e01b8252868201526020808260248189895af19182610a93575b5050610a7657610a71906111fb565b610a2b565b976106e8610a7191610a888b8961120a565b51610677828b61120a565b813d8311610ab9575b610aa68183611116565b81010312610ab5573880610a62565b8480fd5b503d610a9c565b86848a848989610ad18e5a90611234565b90610adc81546111fb565b9055610aea846005546110a7565b600555610af9816006546110a7565b6006553385526007602052828520610b1181546111fb565b905542600155610b20846111c9565b91855b858110610b7c575091610b76917f5640a152a190364c717a1773765beb8622fab97fc721d5e85b7f6649ee01a3eb9594935193805195869586526020860152840152608060608401526080830190611073565b0390a180f35b80610b8a610b95928a61120a565b51610677828761120a565b610b23565b60a490602085519162461bcd60e51b8352820152605f60248201527f4d65747269634c696d69744f726465724b65657065723a20496e76616c69642060448201527f6f72646572206261746368202d206d7573742068617665203120746f206d617860648201527f206f726465727320666f7220656666696369656e7420657865637574696f6e006084820152fd5b600a91501115386109e8565b90503461041957602036600319011261041957356001600160a01b0381169081900361041957828291602094526007845220549051908152f35b919050346104195760209182600319360112610ebe576001600160401b038135818111610eba57610ca39036908401610ff4565b845163c56f264d60e01b815233858201529091906001600160a01b037f000000000000000000000000000000000000000000000000000000000000000081168883602481845afa928315610eb05787918a918c95610e71575b508415610e18575b5050505015610d925790610d318792610d2387519384928a84016115c5565b03601f198101835282611116565b303b1561015557610d5b9585519687928392634585e33b60e01b8452878401526024830190610fb4565b038183305af180156108fd57610d6f578480f35b8311610d7f575052388080808480f35b634e487b7160e01b845260419052602483fd5b845162461bcd60e51b8152808501879052605460248201527f4d65747269634c696d69744f726465724b65657065723a204f6e6c792061757460448201527f686f72697a6564206b656570657273206f72206f776e65722063616e206d616e60648201527375616c6c792065786563757465206f726465727360601b608482015260a490fd5b8951638da5cb5b60e01b81529394509091839182905afa908115610e67578991610e4a575b5016331438858882610d04565b610e619150883d8a11610408576103fa8183611116565b38610e3d565b87513d8b823e3d90fd5b9250935081813d8311610ea9575b610e898183611116565b81010312610ea557518015158103610ea5578887919338610cfc565b8980fd5b503d610e7f565b88513d8c823e3d90fd5b8580fd5b8380fd5b82843461053657806003193601126105365760015491610ee28342611234565b8254909390808510610f4a5750506001918151610efe816110ca565b60138152722932b0b23c903337b91032bc32b1baba34b7b760691b6020820152935b610f3d835195869515158652608060208701526080860190610fb4565b9284015260608301520390f35b90610f59610f5e9242926110a7565b611234565b8151610f69816110ca565b601c81527b15d85a5d1a5b99c8199bdc881b5a5b9a5b5d5b481a5b9d195c9d985b60221b602082015293610f20565b8490346101555781600319360112610155576020906005548152f35b919082519283825260005b848110610fe0575050826000602080949584010152601f8019910116010190565b602081830181015184830182015201610fbf565b9181601f84011215611024578235916001600160401b038311611024576020808501948460051b01011161102457565b600080fd5b906020600319830112611024576001600160401b03916004359083821161102457806023830112156110245781600401359384116110245760248483010111611024576024019190565b90815180825260208080930193019160005b828110611093575050505090565b835185529381019392810192600101611085565b919082018092116110b457565b634e487b7160e01b600052601160045260246000fd5b604081019081106001600160401b038211176110e557604052565b634e487b7160e01b600052604160045260246000fd5b602081019081106001600160401b038211176110e557604052565b601f909101601f19168101906001600160401b038211908210176110e557604052565b6001600160401b0381116110e55760051b60200190565b6020908181840312611024578035906001600160401b03821161102457019180601f8401121561102457823561118581611139565b936111936040519586611116565b818552838086019260051b820101928311611024578301905b8282106111ba575050505090565b813581529083019083016111ac565b906111d382611139565b6111e06040519182611116565b82815280926111f1601f1991611139565b0190602036910137565b60001981146110b45760010190565b805182101561121e5760209160051b010190565b634e487b7160e01b600052603260045260246000fd5b919082039182116110b457565b6020908181840312611024578051906001600160401b03821161102457019180601f8401121561102457825161127681611139565b936112846040519586611116565b818552838086019260051b820101928311611024578301905b8282106112ab575050505090565b8151815290830190830161129d565b91906060926001918254916112d36000938454906110a7565b421061157b578115611564576112eb91810190611150565b915b6040805190926001600160401b03916102a0810183811182821017611550578552601493848252602094610280368785013792968793907f00000000000000000000000000000000000000000000000000000000000000006001600160a01b03169085845b61144a575b50505050508515159586611370575b5050505050509190565b9091929394959750611381816111c9565b91835b82811061143757505050600a91828251116000146114145785519361016085019081118582101761140057865282845261014036868601375b8281106113ed5750505090610d236113e092845194838694850152830190611073565b915b388080808080611366565b80610b8a6113fb928461120a565b6113bd565b634e487b7160e01b82526041600452602482fd5b50611431939250610d239150845194838694850152830190611073565b916113e2565b80610b8a611445928461120a565b611384565b8151811080611547575b1561154257611463818361120a565b518b850385811161152e578b5191630270f83760e31b8352600483015260248201528781604481875afa90811561152457908691899161150a575b5088915b6114bf575b5050906114b6859493926111fb565b90919293611352565b909b81518d1080611501575b156114fb57906114f56114ef88938f6114e4908561120a565b51610677828d61120a565b9d6111fb565b916114a2565b9b6114a7565b508581106114cb565b61151e91503d808b833e61072a8183611116565b3861149e565b8b513d8a823e3d90fd5b634e487b7160e01b89526011600452602489fd5b611357565b50838b10611454565b634e487b7160e01b83526041600452602483fd5b5050604051611572816110fb565b818152916112ed565b5050925050816040519061158e826110fb565b815290565b818102929181159184041417156110b457565b9081602091031261102457516001600160a01b03811681036110245790565b602080825281018390526001600160fb1b0383116110245760409260051b809284830137010190565b6115fd600154600054906110a7565b421061163557600190604051611612816110ca565b60138152722932b0b23c903337b91032bc32b1baba34b7b760691b602082015290565b600090604051611644816110ca565b601d81527f546f6f20736f6f6e2073696e6365206c61737420657865637574696f6e00000060208201529056fe4d65747269634c696d69744f726465724b65657065723a204f6e6c79206f776ea264697066735822122034723b813ccfe72f7b73bfe8d9165dcc818c79677e223b1512bb395185efb91864736f6c63430008140033",
  "linkReferences": {},
  "deployedLinkReferences": {}
}