{
  "_format": "hh-sol-artifact-1",
  "contractName": "MockUMAOracle",
  "sourceName": "contracts/mocks/MockUMAOracle.sol",
  "abi": [
    {
      "anonymous": false,
      "inputs": [
        {
          "indexed": true,
          "internalType": "address",
          "name": "requester",
          "type": "address"
        },
        {
          "indexed": true,
          "internalType": "address",
          "name": "proposer",
          "type": "address"
        },
        {
          "indexed": true,
          "internalType": "bytes32",
          "name": "identifier",
          "type": "bytes32"
        },
        {
          "indexed": false,
          "internalType": "uint256",
          "name": "timestamp",
          "type": "uint256"
        },
        {
          "indexed": false,
          "internalType": "bytes",
          "name": "ancillaryData",
          "type": "bytes"
        },
        {
          "indexed": false,
          "internalType": "int256",
          "name": "proposedPrice",
          "type": "int256"
        }
      ],
      "name": "PriceProposed",
      "type": "event"
    },
    {
      "anonymous": false,
      "inputs": [
        {
          "indexed": true,
          "internalType": "address",
          "name": "requester",
          "type": "address"
        },
        {
          "indexed": true,
          "internalType": "bytes32",
          "name": "identifier",
          "type": "bytes32"
        },
        {
          "indexed": false,
          "internalType": "uint256",
          "name": "timestamp",
          "type": "uint256"
        },
        {
          "indexed": false,
          "internalType": "bytes",
          "name": "ancillaryData",
          "type": "bytes"
        },
        {
          "indexed": false,
          "internalType": "address",
          "name": "currency",
          "type": "address"
        },
        {
          "indexed": false,
          "internalType": "uint256",
          "name": "reward",
          "type": "uint256"
        },
        {
          "indexed": false,
          "internalType": "uint256",
          "name": "finalFee",
          "type": "uint256"
        }
      ],
      "name": "PriceRequested",
      "type": "event"
    },
    {
      "anonymous": false,
      "inputs": [
        {
          "indexed": true,
          "internalType": "address",
          "name": "requester",
          "type": "address"
        },
        {
          "indexed": true,
          "internalType": "bytes32",
          "name": "identifier",
          "type": "bytes32"
        },
        {
          "indexed": false,
          "internalType": "uint256",
          "name": "timestamp",
          "type": "uint256"
        },
        {
          "indexed": false,
          "internalType": "bytes",
          "name": "ancillaryData",
          "type": "bytes"
        },
        {
          "indexed": false,
          "internalType": "int256",
          "name": "price",
          "type": "int256"
        }
      ],
      "name": "PriceSettled",
      "type": "event"
    },
    {
      "inputs": [
        {
          "internalType": "address",
          "name": "requester",
          "type": "address"
        },
        {
          "internalType": "bytes32",
          "name": "identifier",
          "type": "bytes32"
        },
        {
          "internalType": "uint256",
          "name": "timestamp",
          "type": "uint256"
        },
        {
          "internalType": "bytes",
          "name": "ancillaryData",
          "type": "bytes"
        }
      ],
      "name": "disputePrice",
      "outputs": [
        {
          "internalType": "uint256",
          "name": "",
          "type": "uint256"
        }
      ],
      "stateMutability": "nonpayable",
      "type": "function"
    },
    {
      "inputs": [],
      "name": "finalFee",
      "outputs": [
        {
          "internalType": "uint256",
          "name": "",
          "type": "uint256"
        }
      ],
      "stateMutability": "view",
      "type": "function"
    },
    {
      "inputs": [
        {
          "internalType": "address",
          "name": "currency",
          "type": "address"
        }
      ],
      "name": "getCurrentFinalFee",
      "outputs": [
        {
          "internalType": "uint256",
          "name": "",
          "type": "uint256"
        }
      ],
      "stateMutability": "view",
      "type": "function"
    },
    {
      "inputs": [
        {
          "internalType": "address",
          "name": "requester",
          "type": "address"
        },
        {
          "internalType": "bytes32",
          "name": "identifier",
          "type": "bytes32"
        },
        {
          "internalType": "uint256",
          "name": "timestamp",
          "type": "uint256"
        },
        {
          "internalType": "bytes",
          "name": "ancillaryData",
          "type": "bytes"
        },
        {
          "internalType": "int256",
          "name": "proposedPrice",
          "type": "int256"
        }
      ],
      "name": "proposePrice",
      "outputs": [
        {
          "internalType": "uint256",
          "name": "",
          "type": "uint256"
        }
      ],
      "stateMutability": "nonpayable",
      "type": "function"
    },
    {
      "inputs": [
        {
          "internalType": "bytes32",
          "name": "identifier",
          "type": "bytes32"
        },
        {
          "internalType": "uint256",
          "name": "timestamp",
          "type": "uint256"
        },
        {
          "internalType": "bytes",
          "name": "ancillaryData",
          "type": "bytes"
        },
        {
          "internalType": "address",
          "name": "currency",
          "type": "address"
        },
        {
          "internalType": "uint256",
          "name": "reward",
          "type": "uint256"
        }
      ],
      "name": "requestPrice",
      "outputs": [
        {
          "internalType": "uint256",
          "name": "",
          "type": "uint256"
        }
      ],
      "stateMutability": "nonpayable",
      "type": "function"
    },
    {
      "inputs": [
        {
          "internalType": "bytes32",
          "name": "",
          "type": "bytes32"
        }
      ],
      "name": "requests",
      "outputs": [
        {
          "internalType": "address",
          "name": "requester",
          "type": "address"
        },
        {
          "internalType": "bytes32",
          "name": "identifier",
          "type": "bytes32"
        },
        {
          "internalType": "uint256",
          "name": "timestamp",
          "type": "uint256"
        },
        {
          "internalType": "bytes",
          "name": "ancillaryData",
          "type": "bytes"
        },
        {
          "internalType": "address",
          "name": "currency",
          "type": "address"
        },
        {
          "internalType": "uint256",
          "name": "reward",
          "type": "uint256"
        },
        {
          "internalType": "bool",
          "name": "hasPrice",
          "type": "bool"
        },
        {
          "internalType": "int256",
          "name": "price",
          "type": "int256"
        },
        {
          "internalType": "uint256",
          "name": "finalFee",
          "type": "uint256"
        }
      ],
      "stateMutability": "view",
      "type": "function"
    },
    {
      "inputs": [
        {
          "internalType": "uint256",
          "name": "_finalFee",
          "type": "uint256"
        }
      ],
      "name": "setFinalFee",
      "outputs": [],
      "stateMutability": "nonpayable",
      "type": "function"
    },
    {
      "inputs": [
        {
          "internalType": "address",
          "name": "requester",
          "type": "address"
        },
        {
          "internalType": "bytes32",
          "name": "identifier",
          "type": "bytes32"
        },
        {
          "internalType": "uint256",
          "name": "timestamp",
          "type": "uint256"
        },
        {
          "internalType": "bytes",
          "name": "ancillaryData",
          "type": "bytes"
        },
        {
          "internalType": "int256",
          "name": "price",
          "type": "int256"
        }
      ],
      "name": "setPrice",
      "outputs": [],
      "stateMutability": "nonpayable",
      "type": "function"
    },
    {
      "inputs": [
        {
          "internalType": "bytes32",
          "name": "identifier",
          "type": "bytes32"
        },
        {
          "internalType": "uint256",
          "name": "timestamp",
          "type": "uint256"
        },
        {
          "internalType": "bytes",
          "name": "ancillaryData",
          "type": "bytes"
        }
      ],
      "name": "settledPrice",
      "outputs": [
        {
          "internalType": "bool",
          "name": "hasPrice",
          "type": "bool"
        },
        {
          "internalType": "int256",
          "name": "price",
          "type": "int256"
        },
        {
          "internalType": "uint256",
          "name": "settlementTime",
          "type": "uint256"
        }
      ],
      "stateMutability": "view",
      "type": "function"
    },
    {
      "inputs": [
        {
          "internalType": "bytes",
          "name": "ancillaryData",
          "type": "bytes"
        },
        {
          "internalType": "address",
          "name": "requester",
          "type": "address"
        }
      ],
      "name": "stampAncillaryData",
      "outputs": [
        {
          "internalType": "bytes",
          "name": "",
          "type": "bytes"
        }
      ],
      "stateMutability": "pure",
      "type": "function"
    }
  ],
  "bytecode": "0x6080806040523461001e57633b9aca00600155610a7890816100248239f35b600080fdfe6080604052600436101561001257600080fd5b60003560e01c806311df92f114610563578063171b3aa11461054a5780633b478334146105235780635e6cb0f6146105055780639d866985146103bf5780639e37efe41461033f578063af5d2f391461028b578063b8b4f9081461017f578063c2709a93146101015763fba7f1e31461008a57600080fd5b346100fc5760803660031901126100fc576100a36108e3565b606435906001600160401b0382116100fc576100e36100f16100cb602094369060040161088d565b604051928391868301956044359060243590886109c9565b03601f19810183528261086a565b519020604051908152f35b600080fd5b346100fc57600080516020610a2383398151915261017a6101213661097b565b604096949295919396516020810190610141816100e3888b8d8a886109c9565b5190206000526000602052806007604060002060068101600160ff19825416179055015560405193849360018060a01b03169684610a00565b0390a3005b346100fc5761018d3661097b565b604094919392945160208101906101ab816100e3888a8989886109c9565b5190209384600052600060205260406000209560018060a01b0380885416941680940361024b5761024083600080516020610a238339815191529460078a600660209c01600160ff19825416179055015586604051877f5b7ce8faf2c6b708259d38d609c0c058c6e1f2d66fab4a8ba22b3f1aa924cdf9339280610231878b8b84610a00565b0390a460405193849384610a00565b0390a3604051908152f35b60405162461bcd60e51b8152602060048201526018602482015277135bd8dad553504e88125b9d985b1a59081c995c5d595cdd60421b6044820152606490fd5b346100fc5760403660031901126100fc576004356001600160401b0381116100fc576102bb90369060040161088d565b6024356001600160a01b03811681036100fc57610327603f61033b9360405193816102f0869351809260208087019101610933565b8201906a163932b8bab2b9ba32b91d60a91b602083015260018060601b03199060601b16602b82015203601f81018452018261086a565b604051918291602083526020830190610956565b0390f35b346100fc5760603660031901126100fc576044356001600160401b0381116100fc5761036f90369060040161088d565b60405161038b816100e3602082019460243560043533886109c9565b519020600052600060205260606040600020600760ff60068301541691015460405191151582526020820152426040820152f35b346100fc576020806003193601126100fc5760043560005260008152604060002060018060a01b0390818154169160019182810154916002820154908660038401604051968791600091815491610415836108f9565b808652928281169081156104e257506001146104a1575b50505061043b9250038661086a565b6004830154169361048060058401549160ff6006860154169360086007870154960154966040519a8b9a8b528a015260408901526101208060608a0152880190610956565b94608087015260a0860152151560c085015260e08401526101008301520390f35b600090815285812095935091905b8183106104c857508b94505082010161043b8b8061042c565b8554948301840194909452938301938993918301916104af565b9250505061043b94925060ff191682840152151560051b82010189928b8061042c565b346100fc5760003660031901126100fc576020600154604051908152f35b346100fc5760203660031901126100fc5761053c6108e3565b506020600154604051908152f35b346100fc5760203660031901126100fc57600435600155005b346100fc5760a03660031901126100fc576044356001600160401b0381116100fc5761059390369060040161088d565b606435906001600160a01b03821682036100fc5760405160208101906105c4816100e38560243560043533886109c9565b519020600154604051939192919061012085016001600160401b038111868210176108545760409081523386526004356020808801918252602435888401908152606089018781526001600160a01b0387811660808c015260843560a08c0152600060c08c0181905260e08c018190526101008c01979097528987529286905293909420885181546001600160a01b031916921691909117815590516001820155915160028301555180519095906001600160401b0381116108545761068d60038401546108f9565b96601f881161080d575b602097508790601f8311600114610799579180600894926101009460009261078e575b50508160011b916000199060031b1c19161760038501555b6004840160018060a01b0360808301511660018060a01b031982541617905560a081015160058501556006840160c0820151151560ff8019835416911617905560e08101516007850155015191015560015461074060405193602435855260a08786015260a0850190610956565b9160018060a01b03166040840152608435606084015260808301527fb60ac007dc21850bffac718556c03ec285e43db806248fd343aaee6e97245308600435928033930390a3604051908152f35b015190508a806106ba565b9060038501600052886000209160005b601f19851681106107f6575092600894926001926101009583601f198116106107dd575b505050811b0160038501556106d2565b015160001960f88460031b161c191690558a80806107cd565b91928a6001819286850151815501940192016107a9565b600384016000526020600020601f830160051c81016020841061084d575b601f8a0160051c82018110610841575050610697565b6000815560010161082b565b508061082b565b634e487b7160e01b600052604160045260246000fd5b601f909101601f19168101906001600160401b0382119082101761085457604052565b81601f820112156100fc578035906001600160401b03821161085457604051926108c1601f8401601f19166020018561086a565b828452602083830101116100fc57816000926020809301838601378301015290565b600435906001600160a01b03821682036100fc57565b90600182811c92168015610929575b602083101461091357565b634e487b7160e01b600052602260045260246000fd5b91607f1691610908565b60005b8381106109465750506000910152565b8181015183820152602001610936565b9060209161096f81518092818552858086019101610933565b601f01601f1916010190565b9060a06003198301126100fc576004356001600160a01b03811681036100fc57916024359160443591606435906001600160401b0382116100fc576109c29160040161088d565b9060843590565b91605494939160018060601b03199060601b168352601483015260348201526109fb8251809360208685019101610933565b010190565b939291610a1d906040928652606060208701526060860190610956565b93015256fe60af647f87e36435e9838b56ac518ed95b7d94510c0ecdf688c9b1c97be8b621a264697066735822122015b02e2f80959fdee3197a3cbcfdd32ee8e0ce5a9aac486a477db6014ff5773364736f6c63430008140033",
  "linkReferences": {},
  "deployedLinkReferences": {}
}