{
  "_format": "hh-sol-artifact-1",
  "contractName": "MetricLimitOrderManager",
  "sourceName": "contracts/core/MetricLimitOrderManager.sol",
  "abi": [
    {
      "inputs": [
        {
          "internalType": "address",
          "name": "_router",
          "type": "address"
        },
        {
          "internalType": "address",
          "name": "_vault",
          "type": "address"
        },
        {
          "internalType": "address",
          "name": "_factory",
          "type": "address"
        },
        {
          "internalType": "address",
          "name": "_automationFunding",
          "type": "address"
        }
      ],
      "stateMutability": "nonpayable",
      "type": "constructor"
    },
    {
      "anonymous": false,
      "inputs": [
        {
          "indexed": false,
          "internalType": "uint256",
          "name": "newFee",
          "type": "uint256"
        }
      ],
      "name": "AutomationFeeUpdated",
      "type": "event"
    },
    {
      "anonymous": false,
      "inputs": [
        {
          "indexed": false,
          "internalType": "uint256",
          "name": "successCount",
          "type": "uint256"
        },
        {
          "indexed": false,
          "internalType": "uint256",
          "name": "attemptCount",
          "type": "uint256"
        },
        {
          "indexed": true,
          "internalType": "address",
          "name": "keeper",
          "type": "address"
        },
        {
          "indexed": false,
          "internalType": "uint256",
          "name": "totalRewards",
          "type": "uint256"
        }
      ],
      "name": "BatchOrdersExecuted",
      "type": "event"
    },
    {
      "anonymous": false,
      "inputs": [
        {
          "indexed": true,
          "internalType": "address",
          "name": "keeper",
          "type": "address"
        },
        {
          "indexed": false,
          "internalType": "bool",
          "name": "authorized",
          "type": "bool"
        }
      ],
      "name": "KeeperAuthorized",
      "type": "event"
    },
    {
      "anonymous": false,
      "inputs": [
        {
          "indexed": true,
          "internalType": "bytes32",
          "name": "orderHash",
          "type": "bytes32"
        },
        {
          "indexed": true,
          "internalType": "address",
          "name": "user",
          "type": "address"
        },
        {
          "indexed": false,
          "internalType": "string",
          "name": "reason",
          "type": "string"
        }
      ],
      "name": "LimitOrderCancelled",
      "type": "event"
    },
    {
      "anonymous": false,
      "inputs": [
        {
          "indexed": true,
          "internalType": "bytes32",
          "name": "orderHash",
          "type": "bytes32"
        },
        {
          "indexed": true,
          "internalType": "address",
          "name": "user",
          "type": "address"
        },
        {
          "indexed": true,
          "internalType": "bytes32",
          "name": "metricId",
          "type": "bytes32"
        },
        {
          "indexed": false,
          "internalType": "enum MetricLimitOrderManager.OrderType",
          "name": "orderType",
          "type": "uint8"
        },
        {
          "indexed": false,
          "internalType": "uint256",
          "name": "triggerPrice",
          "type": "uint256"
        },
        {
          "indexed": false,
          "internalType": "uint256",
          "name": "expiry",
          "type": "uint256"
        }
      ],
      "name": "LimitOrderCreated",
      "type": "event"
    },
    {
      "anonymous": false,
      "inputs": [
        {
          "indexed": true,
          "internalType": "bytes32",
          "name": "orderHash",
          "type": "bytes32"
        },
        {
          "indexed": true,
          "internalType": "address",
          "name": "keeper",
          "type": "address"
        },
        {
          "indexed": false,
          "internalType": "uint256",
          "name": "positionId",
          "type": "uint256"
        },
        {
          "indexed": false,
          "internalType": "uint256",
          "name": "executionPrice",
          "type": "uint256"
        },
        {
          "indexed": false,
          "internalType": "uint256",
          "name": "keeperReward",
          "type": "uint256"
        }
      ],
      "name": "LimitOrderExecuted",
      "type": "event"
    },
    {
      "inputs": [],
      "name": "AUTOMATION_FEE_USDC",
      "outputs": [
        {
          "internalType": "uint256",
          "name": "",
          "type": "uint256"
        }
      ],
      "stateMutability": "view",
      "type": "function"
    },
    {
      "inputs": [],
      "name": "BASIS_POINTS",
      "outputs": [
        {
          "internalType": "uint256",
          "name": "",
          "type": "uint256"
        }
      ],
      "stateMutability": "view",
      "type": "function"
    },
    {
      "inputs": [],
      "name": "DOMAIN_SEPARATOR",
      "outputs": [
        {
          "internalType": "bytes32",
          "name": "",
          "type": "bytes32"
        }
      ],
      "stateMutability": "view",
      "type": "function"
    },
    {
      "inputs": [],
      "name": "DOMAIN_TYPEHASH",
      "outputs": [
        {
          "internalType": "bytes32",
          "name": "",
          "type": "bytes32"
        }
      ],
      "stateMutability": "view",
      "type": "function"
    },
    {
      "inputs": [],
      "name": "EXECUTION_FEE_USDC",
      "outputs": [
        {
          "internalType": "uint256",
          "name": "",
          "type": "uint256"
        }
      ],
      "stateMutability": "view",
      "type": "function"
    },
    {
      "inputs": [],
      "name": "MIN_KEEPER_FEE",
      "outputs": [
        {
          "internalType": "uint256",
          "name": "",
          "type": "uint256"
        }
      ],
      "stateMutability": "view",
      "type": "function"
    },
    {
      "inputs": [],
      "name": "ORDER_TYPEHASH",
      "outputs": [
        {
          "internalType": "bytes32",
          "name": "",
          "type": "bytes32"
        }
      ],
      "stateMutability": "view",
      "type": "function"
    },
    {
      "inputs": [
        {
          "internalType": "address",
          "name": "keeper",
          "type": "address"
        }
      ],
      "name": "addKeeper",
      "outputs": [],
      "stateMutability": "nonpayable",
      "type": "function"
    },
    {
      "inputs": [
        {
          "internalType": "address",
          "name": "",
          "type": "address"
        }
      ],
      "name": "authorizedKeepers",
      "outputs": [
        {
          "internalType": "bool",
          "name": "",
          "type": "bool"
        }
      ],
      "stateMutability": "view",
      "type": "function"
    },
    {
      "inputs": [],
      "name": "automationFunding",
      "outputs": [
        {
          "internalType": "address",
          "name": "",
          "type": "address"
        }
      ],
      "stateMutability": "view",
      "type": "function"
    },
    {
      "inputs": [
        {
          "internalType": "bytes32",
          "name": "orderHash",
          "type": "bytes32"
        },
        {
          "internalType": "string",
          "name": "reason",
          "type": "string"
        }
      ],
      "name": "cancelLimitOrder",
      "outputs": [],
      "stateMutability": "nonpayable",
      "type": "function"
    },
    {
      "inputs": [
        {
          "internalType": "bytes32",
          "name": "metricId",
          "type": "bytes32"
        },
        {
          "internalType": "bool",
          "name": "isLong",
          "type": "bool"
        },
        {
          "internalType": "uint256",
          "name": "collateralAmount",
          "type": "uint256"
        },
        {
          "internalType": "uint256",
          "name": "leverage",
          "type": "uint256"
        },
        {
          "internalType": "uint256",
          "name": "triggerPrice",
          "type": "uint256"
        },
        {
          "internalType": "uint256",
          "name": "targetValue",
          "type": "uint256"
        },
        {
          "internalType": "enum IMetricVAMM.PositionType",
          "name": "positionType",
          "type": "uint8"
        },
        {
          "internalType": "enum MetricLimitOrderManager.OrderType",
          "name": "orderType",
          "type": "uint8"
        },
        {
          "internalType": "uint256",
          "name": "expiry",
          "type": "uint256"
        },
        {
          "internalType": "uint256",
          "name": "maxSlippage",
          "type": "uint256"
        }
      ],
      "name": "createLimitOrder",
      "outputs": [
        {
          "internalType": "bytes32",
          "name": "orderHash",
          "type": "bytes32"
        }
      ],
      "stateMutability": "nonpayable",
      "type": "function"
    },
    {
      "inputs": [
        {
          "components": [
            {
              "internalType": "bytes32",
              "name": "orderHash",
              "type": "bytes32"
            },
            {
              "internalType": "address",
              "name": "user",
              "type": "address"
            },
            {
              "internalType": "bytes32",
              "name": "metricId",
              "type": "bytes32"
            },
            {
              "internalType": "bool",
              "name": "isLong",
              "type": "bool"
            },
            {
              "internalType": "uint256",
              "name": "collateralAmount",
              "type": "uint256"
            },
            {
              "internalType": "uint256",
              "name": "leverage",
              "type": "uint256"
            },
            {
              "internalType": "uint256",
              "name": "triggerPrice",
              "type": "uint256"
            },
            {
              "internalType": "uint256",
              "name": "targetValue",
              "type": "uint256"
            },
            {
              "internalType": "enum IMetricVAMM.PositionType",
              "name": "positionType",
              "type": "uint8"
            },
            {
              "internalType": "enum MetricLimitOrderManager.OrderType",
              "name": "orderType",
              "type": "uint8"
            },
            {
              "internalType": "uint256",
              "name": "expiry",
              "type": "uint256"
            },
            {
              "internalType": "uint256",
              "name": "maxSlippage",
              "type": "uint256"
            },
            {
              "internalType": "uint256",
              "name": "keeperFee",
              "type": "uint256"
            },
            {
              "internalType": "bool",
              "name": "isActive",
              "type": "bool"
            },
            {
              "internalType": "uint256",
              "name": "createdAt",
              "type": "uint256"
            },
            {
              "internalType": "uint256",
              "name": "nonce",
              "type": "uint256"
            }
          ],
          "internalType": "struct MetricLimitOrderManager.LimitOrder",
          "name": "order",
          "type": "tuple"
        },
        {
          "internalType": "bytes",
          "name": "signature",
          "type": "bytes"
        }
      ],
      "name": "createLimitOrderWithSignature",
      "outputs": [
        {
          "internalType": "bytes32",
          "name": "orderHash",
          "type": "bytes32"
        }
      ],
      "stateMutability": "nonpayable",
      "type": "function"
    },
    {
      "inputs": [
        {
          "internalType": "bytes32",
          "name": "orderHash",
          "type": "bytes32"
        },
        {
          "internalType": "string",
          "name": "reason",
          "type": "string"
        }
      ],
      "name": "emergencyCancelOrder",
      "outputs": [],
      "stateMutability": "nonpayable",
      "type": "function"
    },
    {
      "inputs": [
        {
          "internalType": "address",
          "name": "token",
          "type": "address"
        },
        {
          "internalType": "uint256",
          "name": "amount",
          "type": "uint256"
        }
      ],
      "name": "emergencyWithdraw",
      "outputs": [],
      "stateMutability": "nonpayable",
      "type": "function"
    },
    {
      "inputs": [
        {
          "internalType": "bytes32[]",
          "name": "orderHashes",
          "type": "bytes32[]"
        }
      ],
      "name": "executeBatchOrders",
      "outputs": [],
      "stateMutability": "nonpayable",
      "type": "function"
    },
    {
      "inputs": [
        {
          "internalType": "bytes32",
          "name": "orderHash",
          "type": "bytes32"
        }
      ],
      "name": "executeLimitOrder",
      "outputs": [
        {
          "internalType": "uint256",
          "name": "positionId",
          "type": "uint256"
        }
      ],
      "stateMutability": "nonpayable",
      "type": "function"
    },
    {
      "inputs": [],
      "name": "factory",
      "outputs": [
        {
          "internalType": "contract IMetricVAMMFactory",
          "name": "",
          "type": "address"
        }
      ],
      "stateMutability": "view",
      "type": "function"
    },
    {
      "inputs": [
        {
          "internalType": "bytes32",
          "name": "metricId",
          "type": "bytes32"
        },
        {
          "internalType": "uint256",
          "name": "maxOrders",
          "type": "uint256"
        }
      ],
      "name": "getExecutableOrders",
      "outputs": [
        {
          "internalType": "bytes32[]",
          "name": "executableOrders",
          "type": "bytes32[]"
        }
      ],
      "stateMutability": "view",
      "type": "function"
    },
    {
      "inputs": [
        {
          "internalType": "bytes32",
          "name": "metricId",
          "type": "bytes32"
        }
      ],
      "name": "getMetricOrders",
      "outputs": [
        {
          "internalType": "bytes32[]",
          "name": "",
          "type": "bytes32[]"
        }
      ],
      "stateMutability": "view",
      "type": "function"
    },
    {
      "inputs": [
        {
          "internalType": "bytes32",
          "name": "orderHash",
          "type": "bytes32"
        }
      ],
      "name": "getOrderDetails",
      "outputs": [
        {
          "components": [
            {
              "internalType": "bytes32",
              "name": "orderHash",
              "type": "bytes32"
            },
            {
              "internalType": "address",
              "name": "user",
              "type": "address"
            },
            {
              "internalType": "bytes32",
              "name": "metricId",
              "type": "bytes32"
            },
            {
              "internalType": "bool",
              "name": "isLong",
              "type": "bool"
            },
            {
              "internalType": "uint256",
              "name": "collateralAmount",
              "type": "uint256"
            },
            {
              "internalType": "uint256",
              "name": "leverage",
              "type": "uint256"
            },
            {
              "internalType": "uint256",
              "name": "triggerPrice",
              "type": "uint256"
            },
            {
              "internalType": "uint256",
              "name": "targetValue",
              "type": "uint256"
            },
            {
              "internalType": "enum IMetricVAMM.PositionType",
              "name": "positionType",
              "type": "uint8"
            },
            {
              "internalType": "enum MetricLimitOrderManager.OrderType",
              "name": "orderType",
              "type": "uint8"
            },
            {
              "internalType": "uint256",
              "name": "expiry",
              "type": "uint256"
            },
            {
              "internalType": "uint256",
              "name": "maxSlippage",
              "type": "uint256"
            },
            {
              "internalType": "uint256",
              "name": "keeperFee",
              "type": "uint256"
            },
            {
              "internalType": "bool",
              "name": "isActive",
              "type": "bool"
            },
            {
              "internalType": "uint256",
              "name": "createdAt",
              "type": "uint256"
            },
            {
              "internalType": "uint256",
              "name": "nonce",
              "type": "uint256"
            }
          ],
          "internalType": "struct MetricLimitOrderManager.LimitOrder",
          "name": "",
          "type": "tuple"
        }
      ],
      "stateMutability": "view",
      "type": "function"
    },
    {
      "inputs": [],
      "name": "getOrderStats",
      "outputs": [
        {
          "internalType": "uint256",
          "name": "created",
          "type": "uint256"
        },
        {
          "internalType": "uint256",
          "name": "executed",
          "type": "uint256"
        },
        {
          "internalType": "uint256",
          "name": "cancelled",
          "type": "uint256"
        },
        {
          "internalType": "uint256",
          "name": "feesCollected",
          "type": "uint256"
        }
      ],
      "stateMutability": "view",
      "type": "function"
    },
    {
      "inputs": [
        {
          "internalType": "address",
          "name": "user",
          "type": "address"
        }
      ],
      "name": "getUserActiveOrders",
      "outputs": [
        {
          "components": [
            {
              "internalType": "bytes32",
              "name": "orderHash",
              "type": "bytes32"
            },
            {
              "internalType": "address",
              "name": "user",
              "type": "address"
            },
            {
              "internalType": "bytes32",
              "name": "metricId",
              "type": "bytes32"
            },
            {
              "internalType": "bool",
              "name": "isLong",
              "type": "bool"
            },
            {
              "internalType": "uint256",
              "name": "collateralAmount",
              "type": "uint256"
            },
            {
              "internalType": "uint256",
              "name": "leverage",
              "type": "uint256"
            },
            {
              "internalType": "uint256",
              "name": "triggerPrice",
              "type": "uint256"
            },
            {
              "internalType": "uint256",
              "name": "targetValue",
              "type": "uint256"
            },
            {
              "internalType": "enum IMetricVAMM.PositionType",
              "name": "positionType",
              "type": "uint8"
            },
            {
              "internalType": "enum MetricLimitOrderManager.OrderType",
              "name": "orderType",
              "type": "uint8"
            },
            {
              "internalType": "uint256",
              "name": "expiry",
              "type": "uint256"
            },
            {
              "internalType": "uint256",
              "name": "maxSlippage",
              "type": "uint256"
            },
            {
              "internalType": "uint256",
              "name": "keeperFee",
              "type": "uint256"
            },
            {
              "internalType": "bool",
              "name": "isActive",
              "type": "bool"
            },
            {
              "internalType": "uint256",
              "name": "createdAt",
              "type": "uint256"
            },
            {
              "internalType": "uint256",
              "name": "nonce",
              "type": "uint256"
            }
          ],
          "internalType": "struct MetricLimitOrderManager.LimitOrder[]",
          "name": "activeOrders",
          "type": "tuple[]"
        }
      ],
      "stateMutability": "view",
      "type": "function"
    },
    {
      "inputs": [
        {
          "internalType": "address",
          "name": "user",
          "type": "address"
        }
      ],
      "name": "getUserNonce",
      "outputs": [
        {
          "internalType": "uint256",
          "name": "",
          "type": "uint256"
        }
      ],
      "stateMutability": "view",
      "type": "function"
    },
    {
      "inputs": [
        {
          "internalType": "address",
          "name": "user",
          "type": "address"
        }
      ],
      "name": "getUserOrders",
      "outputs": [
        {
          "internalType": "bytes32[]",
          "name": "",
          "type": "bytes32[]"
        }
      ],
      "stateMutability": "view",
      "type": "function"
    },
    {
      "inputs": [
        {
          "internalType": "bytes32",
          "name": "",
          "type": "bytes32"
        }
      ],
      "name": "limitOrders",
      "outputs": [
        {
          "internalType": "bytes32",
          "name": "orderHash",
          "type": "bytes32"
        },
        {
          "internalType": "address",
          "name": "user",
          "type": "address"
        },
        {
          "internalType": "bytes32",
          "name": "metricId",
          "type": "bytes32"
        },
        {
          "internalType": "bool",
          "name": "isLong",
          "type": "bool"
        },
        {
          "internalType": "uint256",
          "name": "collateralAmount",
          "type": "uint256"
        },
        {
          "internalType": "uint256",
          "name": "leverage",
          "type": "uint256"
        },
        {
          "internalType": "uint256",
          "name": "triggerPrice",
          "type": "uint256"
        },
        {
          "internalType": "uint256",
          "name": "targetValue",
          "type": "uint256"
        },
        {
          "internalType": "enum IMetricVAMM.PositionType",
          "name": "positionType",
          "type": "uint8"
        },
        {
          "internalType": "enum MetricLimitOrderManager.OrderType",
          "name": "orderType",
          "type": "uint8"
        },
        {
          "internalType": "uint256",
          "name": "expiry",
          "type": "uint256"
        },
        {
          "internalType": "uint256",
          "name": "maxSlippage",
          "type": "uint256"
        },
        {
          "internalType": "uint256",
          "name": "keeperFee",
          "type": "uint256"
        },
        {
          "internalType": "bool",
          "name": "isActive",
          "type": "bool"
        },
        {
          "internalType": "uint256",
          "name": "createdAt",
          "type": "uint256"
        },
        {
          "internalType": "uint256",
          "name": "nonce",
          "type": "uint256"
        }
      ],
      "stateMutability": "view",
      "type": "function"
    },
    {
      "inputs": [],
      "name": "maxOrdersPerTx",
      "outputs": [
        {
          "internalType": "uint256",
          "name": "",
          "type": "uint256"
        }
      ],
      "stateMutability": "view",
      "type": "function"
    },
    {
      "inputs": [
        {
          "internalType": "bytes32",
          "name": "",
          "type": "bytes32"
        },
        {
          "internalType": "uint256",
          "name": "",
          "type": "uint256"
        }
      ],
      "name": "metricOrders",
      "outputs": [
        {
          "internalType": "bytes32",
          "name": "",
          "type": "bytes32"
        }
      ],
      "stateMutability": "view",
      "type": "function"
    },
    {
      "inputs": [
        {
          "internalType": "address",
          "name": "",
          "type": "address"
        }
      ],
      "name": "nonces",
      "outputs": [
        {
          "internalType": "uint256",
          "name": "",
          "type": "uint256"
        }
      ],
      "stateMutability": "view",
      "type": "function"
    },
    {
      "inputs": [],
      "name": "owner",
      "outputs": [
        {
          "internalType": "address",
          "name": "",
          "type": "address"
        }
      ],
      "stateMutability": "view",
      "type": "function"
    },
    {
      "inputs": [],
      "name": "pause",
      "outputs": [],
      "stateMutability": "nonpayable",
      "type": "function"
    },
    {
      "inputs": [],
      "name": "paused",
      "outputs": [
        {
          "internalType": "bool",
          "name": "",
          "type": "bool"
        }
      ],
      "stateMutability": "view",
      "type": "function"
    },
    {
      "inputs": [
        {
          "internalType": "address",
          "name": "keeper",
          "type": "address"
        }
      ],
      "name": "removeKeeper",
      "outputs": [],
      "stateMutability": "nonpayable",
      "type": "function"
    },
    {
      "inputs": [],
      "name": "router",
      "outputs": [
        {
          "internalType": "contract MetricVAMMRouter",
          "name": "",
          "type": "address"
        }
      ],
      "stateMutability": "view",
      "type": "function"
    },
    {
      "inputs": [
        {
          "internalType": "uint256",
          "name": "_maxOrders",
          "type": "uint256"
        }
      ],
      "name": "setMaxOrdersPerTx",
      "outputs": [],
      "stateMutability": "nonpayable",
      "type": "function"
    },
    {
      "inputs": [],
      "name": "totalFeesCollected",
      "outputs": [
        {
          "internalType": "uint256",
          "name": "",
          "type": "uint256"
        }
      ],
      "stateMutability": "view",
      "type": "function"
    },
    {
      "inputs": [],
      "name": "totalOrdersCancelled",
      "outputs": [
        {
          "internalType": "uint256",
          "name": "",
          "type": "uint256"
        }
      ],
      "stateMutability": "view",
      "type": "function"
    },
    {
      "inputs": [],
      "name": "totalOrdersCreated",
      "outputs": [
        {
          "internalType": "uint256",
          "name": "",
          "type": "uint256"
        }
      ],
      "stateMutability": "view",
      "type": "function"
    },
    {
      "inputs": [],
      "name": "totalOrdersExecuted",
      "outputs": [
        {
          "internalType": "uint256",
          "name": "",
          "type": "uint256"
        }
      ],
      "stateMutability": "view",
      "type": "function"
    },
    {
      "inputs": [
        {
          "internalType": "address",
          "name": "newOwner",
          "type": "address"
        }
      ],
      "name": "transferOwnership",
      "outputs": [],
      "stateMutability": "nonpayable",
      "type": "function"
    },
    {
      "inputs": [],
      "name": "unpause",
      "outputs": [],
      "stateMutability": "nonpayable",
      "type": "function"
    },
    {
      "inputs": [
        {
          "internalType": "address",
          "name": "",
          "type": "address"
        },
        {
          "internalType": "uint256",
          "name": "",
          "type": "uint256"
        }
      ],
      "name": "userOrders",
      "outputs": [
        {
          "internalType": "bytes32",
          "name": "",
          "type": "bytes32"
        }
      ],
      "stateMutability": "view",
      "type": "function"
    },
    {
      "inputs": [],
      "name": "vault",
      "outputs": [
        {
          "internalType": "contract ICentralizedVault",
          "name": "",
          "type": "address"
        }
      ],
      "stateMutability": "view",
      "type": "function"
    }
  ],
  "bytecode": "0x61010034620001c7576001600160401b0390601f620031f738819003918201601f191683019184831184841017620001b157808492608094604052833981010312620001c7576200005081620001cc565b906200005f60208201620001cc565b906200007c60606200007460408401620001cc565b9201620001cc565b92600a60055560018060a01b0392838092166080521660a0521660c05260e0523360018060a01b0319600054161760005560405160208101907f8b73c3c69bb8fe3d512ecc4cf759cc79239f7b179b0ffacaa9a75d522b39400f82527f6152f5b2a06885b9779ccfa5f6712e663eb954df0b970f6ac12d5a8c150ca33660408201527fc89efdaa54c0f20c7adf612882df0950f5a951637e0307cdcb4c672f298b8bc660608201524660808201523060a082015260a0815260c081019281841090841117620001b157826040525190206007556130159081620001e282396080518181816102830152610483015260a051818181610212015281816104c901528181610eff01526120ad015260c0518181816109ca015281816121030152612ab1015260e051818181610f4a01526114360152f35b634e487b7160e01b600052604160045260246000fd5b600080fd5b51906001600160a01b0382168203620001c75756fe6080806040526004908136101561001557600080fd5b600091823560e01c918263012e09a314611c5857508163024663f714611c15578163034fc82e14611bab5781631184233e146119925781631387c1b81461182257816314ae9f2e146117bf57816320606b70146117845781632075cc19146114a15781632d57317e146114835781633644e5151461146557816336b9333a146114205781633f4ba83a146113ed5781634032b72b1461138657816347df5a5e146113685781635c975abb1461134357816360c6d8ae146113255781636203f6d51461118757816363c69f0814611114578163656975c814610e935781636834e3a814610e195781636850b8a214610e525781637ecebe0014610e195781638456cb5914610de0578163856652e914610d8a5781638aef1b4714610bc05781638bcae95214610b4b5781638da5cb5b14610b2457816395ccea6714610ad1578163a14acbc214610a35578163b73ee60514610a17578163bc116d24146109f9578163c45a0155146109b4578163c56f264d14610975578163ca697db414610875578163cd79a7a214610857578163e1f1c4a71461083a578163ec35356e14610803578163ec9cc801146107e5578163eda4ad9514610347578163f2fde38b146102b257508063f887ea401461026d578063f973a209146102445763fbfa77cf146101fd57600080fd5b346102415780600319360112610241576040517f00000000000000000000000000000000000000000000000000000000000000006001600160a01b03168152602090f35b80fd5b50346102415780600319360112610241576020604051600080516020612fc08339815191528152f35b50346102415780600319360112610241576040517f00000000000000000000000000000000000000000000000000000000000000006001600160a01b03168152602090f35b905034610343576020366003190112610343576102cd611e19565b8254906001600160a01b03906102e63383851614612d3b565b169182156102ff57506001600160a01b03191617815580f35b60649060206040519162461bcd60e51b8352820152602060248201527f4c696d69744f726465724d616e616765723a20696e76616c6964206f776e65726044820152fd5b5080fd5b8234610241576020918260031936011261034357803533835281845261037360ff604085205416612813565b61038460ff845460a01c1615611ecd565b8083526001845260408320600c81019384549360ff85161561075d5760098301544210156106c5576002830154956103bb87612a8a565b956103c687866129de565b156106265760ff19169055600a83015460ff6003850154169080870290878204148715171561061357612710900481156105e957808711156105dd57610467610419610412838a612bc5565b9289611fc8565b925b8487015490600588015460078901549160ff60088b0154169360246040519e8f9063b8a94e1360e01b82528b8201520152151560448d015260648c015260848b015260a48a0190611c74565b60c488015260e48701526001600160a01b0390878761010481867f000000000000000000000000000000000000000000000000000000000000000087165af19687156105d257839761059f575b50876040518092639642366360e01b825281857f0000000000000000000000000000000000000000000000000000000000000000165afa928315610593579161055493917fab680af2c5d7c119e43a1d580e8b838abf5fa1faf78d0e2eebfb455754cece1c95939261055f575b50600b61053692930192835491339116612884565b610541600954611f15565b600955546040519182913396888461286e565b0390a3604051908152f35b6105369250610585600b918b3d8d1161058c575b61057d8183611e7c565b810190611f3a565b9250610521565b503d610573565b604051903d90823e3d90fd5b9096508781813d83116105cb575b6105b78183611e7c565b810103126105c7575195886104b4565b8280fd5b503d6105ad565b6040513d85823e3d90fd5b61046761041985610412565b8087111561060757610467610601610412838a612bc5565b9261041b565b61046761060185610412565b634e487b7160e01b845260118352602484fd5b60405162461bcd60e51b81528084018a9052606660248201527f4c696d69744f726465724d616e616765723a205472696767657220636f6e646960448201527f74696f6e206e6f74206d6574202d2063757272656e7420707269636520646f6560648201527f73206e6f742073617469736679206f7264657220657865637574696f6e20637260848201526569746572696160d01b60a482015260c490fd5b60405162461bcd60e51b815290810187905260716024820152600080516020612f4083398151915260448201527f202d2063616e6e6f7420657865637574652065787069726564206f726465727360648201527f202875736572206d75737420637265617465206e6577206f7264657220776974608482015270682075706461746564206578706972792960781b60a482015260c490fd5b60405162461bcd60e51b815290810187905260616024820152600080516020612f6083398151915260448201527f697665202d206d61792062652063616e63656c6c65642c20657865637574656460648201527f2c206f7220696e76616c69642028636865636b206f72646572207374617475736084820152602960f81b60a482015260c490fd5b82346102415780600319360112610241576020604051621e84808152f35b82346102415780600319360112610241576080600854600954600a54600b5491604051938452602084015260408301526060820152f35b823461024157806003193601126102415760206040516127108152f35b82346102415780600319360112610241576020600854604051908152f35b82346102415760203660031901126102415781358152600160205260409020805490600160a01b6001900360018201541692600282015490600383015460ff1690830154600584015460068501546007860154600887015491600988015493600a89015495600b8a015497600c8b015460ff1699600d8c01549b600e01549c6040519e8f918252602082015260400152151560608d015260808c015260a08b015260c08a015260e0890152610100880160ff82169061093391611c74565b61012088019060081c60ff169061094991611c97565b61014087015261016086015261018085015215156101a08401526101c08301526101e082015261020090f35b9050346103435760203660031901126103435760209160ff91604091906001600160a01b036109a2611e19565b16825284522054166040519015158152f35b82346102415780600319360112610241576040517f00000000000000000000000000000000000000000000000000000000000000006001600160a01b03168152602090f35b82346102415780600319360112610241576020600a54604051908152f35b82346102415780600319360112610241576020604051622dc6c08152f35b90503461034357602036600319011261034357803590610a5f60018060a01b038454163314612d3b565b81151580610ac6575b15610a74575060055580f35b60849060206040519162461bcd60e51b8352820152602560248201527f4c696d69744f726465724d616e616765723a20496e76616c6964206d6178206f604482015264726465727360d81b6064820152fd5b506032821115610a68565b823461024157604036600319011261024157610b21610aee611e19565b82546001600160a01b0380821691610b179060ff90610b0e338614612d3b565b60a01c16612ed3565b6024359216612884565b80f35b8234610241578060031936011261024157546040516001600160a01b039091168152602090f35b90503461034357602090816003193601126105c7573582526003815260408220916040518092808554928381520194835280832092905b828210610ba957610ba585610b9981890382611e7c565b60405191829182611dde565b0390f35b835486529485019460019384019390910190610b82565b823461024157602080600319360112610343576001600160a01b03610be3611e19565b168252600281526040822090604051808383829554938481520190865283862092865b85828210610d7457505050610c1d92500383611e7c565b8290835b8351811015610c6e57610c3481856129ca565b5185526001825260ff600c60408720015416610c59575b610c5490611f15565b610c21565b91610c66610c5491611f15565b929050610c4b565b50610c7882612981565b91610c866040519384611e7c565b808352610c95601f1991612981565b0181855b828110610d5e575050508390845b8451811015610d1457610cba81866129ca565b518652600182526040862060ff600c82015416610ce1575b50610cdc90611f15565b610ca7565b610cdc9193610cf2610d0d92612dfd565b610cfc82886129ca565b52610d0781876129ca565b50611f15565b9290610cd2565b60408051838152855181850181905286850192820190858a5b828110610d3a5784840385f35b9091928261020082610d4f6001948a51611ca4565b01960191019492919094610d2d565b610d66612d87565b828287010152018290610c99565b8554845260019586019588955093019201610c06565b823461024157604036600319011261024157610da4611e19565b6001600160a01b0316815260026020526040812080546024359290831015610241576020610dd28484611e9f565b90546040519160031b1c8152f35b82346102415780600319360112610241578054610e07336001600160a01b03831614612d3b565b60ff60a01b1916600160a01b17815580f35b8234610241576020366003190112610241576020906040906001600160a01b03610e41611e19565b168152600683522054604051908152f35b823461024157610e6136611dc8565b91908152600360205260408120908154831015610241576020610e848484611e9f565b90549060031b1c604051908152f35b823461024157610140918260031936011261034357602435918215158093036102415760c4359360038510156103435760e43594838610156105c757610ee060ff845460a01c1615611ecd565b604051639642366360e01b8152602095906001600160a01b03878288817f000000000000000000000000000000000000000000000000000000000000000085165afa9182156111095786926110ea575b506040516323b872dd60e01b8982019081523360248301527f000000000000000000000000000000000000000000000000000000000000000083166044830152621e84806064808401919091528252919060a081016001600160401b038111828210176110d757604052518793849391928491165af1610fae611f71565b816110a7575b5015611063579561101161101b9261105b979860405197610fd489611e2f565b878952338b8a01523560408901526060880152604435608088015260643560a088015260843560c088015260a43560e08801526101008701611f59565b6101208501611f65565b610104359083015261012435610160830152622dc6c061018083015260016101a0830152426101c08301526101e082015261105581612bd2565b9061200a565b604051908152f35b60405162461bcd60e51b8152808601879052601e60248201527f5361666545524332303a207472616e7366657246726f6d206661696c656400006044820152606490fd5b805180159250889083156110bf575b50505088610fb4565b6110cf9350820181019101611fb0565b8887816110b6565b634e487b7160e01b895260418a52602489fd5b611102919250883d8a1161058c5761057d8183611e7c565b9089610f30565b6040513d88823e3d90fd5b823461024157602080600319360112610343576001600160a01b03611137611e19565b1682526002815260408220916040518092808554928381520194835280832092905b82821061117057610ba585610b9981890382611e7c565b835486529485019460019384019390910190611159565b9050346103435761119736611d95565b90926111aa60ff865460a01c1615611ecd565b8285526001602081905260408620908101546001600160a01b031633036112a357600c019081549060ff821615611219575060ff19169055600a54600080516020612f20833981519152916112139161120290611f15565b600a55604051918291339683612959565b0390a380f35b60c49060206040519162461bcd60e51b835282015260636024820152600080516020612f6083398151915260448201527f697665202d2063616e6e6f742063616e63656c20616c7265616479206578656360648201527f757465642c2063616e63656c6c65642c206f7220696e616374697665206f726460848201526265727360e81b60a4820152fd5b60405162461bcd60e51b8152602081840152604f60248201527f4c696d69744f726465724d616e616765723a204e6f74206f72646572206f776e60448201527f6572202d206f6e6c79206f726465722063726561746f722063616e2063616e6360648201526e656c207468656972206f726465727360881b608482015260a490fd5b82346102415780600319360112610241576020600b54604051908152f35b823461024157806003193601126102415760ff6020915460a01c166040519015158152f35b82346102415780600319360112610241576020604051620f42408152f35b905034610343576020366003190112610343576113a1611e19565b82546001600160a01b0391906113ba9083163314612d3b565b169081835260205260408220600160ff19825416179055600080516020612f80833981519152602060405160018152a280f35b82346102415780600319360112610241578054611414336001600160a01b03831614612d3b565b60ff60a01b1916815580f35b82346102415780600319360112610241576040517f00000000000000000000000000000000000000000000000000000000000000006001600160a01b03168152602090f35b82346102415780600319360112610241576020600754604051908152f35b82346102415780600319360112610241576020600554604051908152f35b823461024157366003190161022081126103435761020013610241576040516114c981611e2f565b82358152602435926001600160a01b0380851685036117805760209384840195865260443560408501526064358015158103610343576060850152608435608085015260a43560a085015260c43560c085015260e43560e0850152610104356003811015610343576101008501526101243583811015610343576101208501526101443561014085015261016435610160850152610184356101808501526101a4358015158103610343576101a08501526101c4356101c08501526101e4356101e0850190815261020435969092906001600160401b0388116105c7576115b7611607979836908701611d63565b6115cb60ff869a939a5460a01c1615611ecd565b6115d488612bd2565b986007546040518c81019161190160f01b835260228201528b6042820152604281526115ff81611e61565b519020612cca565b82808351169116036116cf575116815260068652604090208054919061162c83611f15565b9055510361163f57509061105b9161200a565b60405162461bcd60e51b8152908101849052605f60248201527f4c696d69744f726465724d616e616765723a20496e76616c6964206e6f6e636560448201527f202d2070726576656e7473207369676e6174757265207265706c61792061747460648201527f61636b732028636865636b2063757272656e742075736572206e6f6e63652900608482015260a490fd5b60405162461bcd60e51b8152808601899052607860248201527f4c696d69744f726465724d616e616765723a20496e76616c6964207369676e6160448201527f74757265202d207265636f7665726564207369676e657220646f6573206e6f7460648201527f206d61746368206f7264657220757365722028636865636b207369676e617475608482015277726520616e64206f7264657220706172616d65746572732960401b60a482015260c490fd5b8380fd5b823461024157806003193601126102415760206040517f8b73c3c69bb8fe3d512ecc4cf759cc79239f7b179b0ffacaa9a75d522b39400f8152f35b905034610343576020366003190112610343576117da611e19565b82546001600160a01b0391906117f39083163314612d3b565b16908183526020526040822060ff198154169055600080516020612f808339815191526020604051848152a280f35b82346102415761183136611dc8565b91818152602091600383526040822090604051808386829554938481520190865286862092865b8882821061197c5750505061186f92500383611e7c565b61187885612998565b9280948192845161196a575b50815b8451811080611961575b15611920576118a081866129ca565b51835260018252604083208460ff600c830154169182611912575b82611901575b50506118d6575b6118d190611f15565b611887565b956118f96118d1916118e889886129ca565b516118f3828a6129ca565b52611f15565b9690506118c8565b61190b92506129de565b848a6118c1565b6009810154421092506118bb565b82878761192c82612998565b925b8281106119435760405180610ba58682611dde565b8061195161195c92846129ca565b516118f382876129ca565b61192e565b50878710611891565b611975919350612a8a565b9187611884565b8554845260019586019588955093019201611858565b905034610343576020806003193601126105c75781356001600160401b03808211611ba75736602383011215611ba75781840135908111611ba757602491828101908336918460051b010111611ba3573386528484526119f860ff604088205416612813565b611a0960ff875460a01c1615611ecd565b6005548211611b045785938693875b848110611a5b5788877f0b125fbc57ccf74bb99aec2a6a7250961e2fbd96af610de1d8957720c6c984648888611a5560405192839233968461286e565b0390a280f35b888380611a69848989612949565b35858c604051958693849263eda4ad9560e01b8452830152305af19182611ad7575b5050611a9f57611a9a90611f15565b611a18565b9495611ad1611ab0611a9a92611f15565b97611abc888888612949565b358b5260018552600b60408c20015490611fc8565b95611f15565b813d8311611afd575b611aea8183611e7c565b81010312611af9578338611a8b565b8980fd5b503d611ae0565b60405162461bcd60e51b81528086018590526067818501527f4c696d69744f726465724d616e616765723a20426174636820746f6f206c617260448201527f6765202d2065786365656473206d6178696d756d206f7264657273207065722060648201527f7472616e73616374696f6e20746f2070726576656e7420676173206c696d69746084820152662069737375657360c81b60a482015260c490fd5b8580fd5b8480fd5b823461024157600080516020612f20833981519152611bc936611d95565b84549193916001600160a01b0390611beb9060ff90610b0e3385831614612d3b565b8386526001602052600c604087200160ff1981541690558554169361121360405192839283612959565b90503461034357602036600319011261034357604061020092611c4992611c3a612d87565b50358152600160205220612dfd565b611c566040518092611ca4565bf35b8390346103435781600319360112610343576020906009548152f35b906003821015611c815752565b634e487b7160e01b600052602160045260246000fd5b906004821015611c815752565b8051825260018060a01b036020820151166020830152604081015160408301526060810151151560608301526080810151608083015260a081015160a083015260c081015160c083015260e081015160e0830152611d0b6101008083015190840190611c74565b611d1e6101208083015190840190611c97565b6101408082015190830152610160808201519083015261018080820151908301526101a0808201511515908301526101c080820151908301526101e080910151910152565b9181601f84011215611d90578235916001600160401b038311611d905760208381860195010111611d9057565b600080fd5b906040600319830112611d905760043591602435906001600160401b038211611d9057611dc491600401611d63565b9091565b6040906003190112611d90576004359060243590565b6020908160408183019282815285518094520193019160005b828110611e05575050505090565b835185529381019392810192600101611df7565b600435906001600160a01b0382168203611d9057565b61020081019081106001600160401b03821117611e4b57604052565b634e487b7160e01b600052604160045260246000fd5b608081019081106001600160401b03821117611e4b57604052565b601f909101601f19168101906001600160401b03821190821017611e4b57604052565b8054821015611eb75760005260206000200190600090565b634e487b7160e01b600052603260045260246000fd5b15611ed457565b60405162461bcd60e51b8152602060048201526019602482015278131a5b5a5d13dc99195c93585b9859d95c8e881c185d5cd959603a1b6044820152606490fd5b6000198114611f245760010190565b634e487b7160e01b600052601160045260246000fd5b90816020910312611d9057516001600160a01b0381168103611d905790565b6003821015611c815752565b6004821015611c815752565b3d15611fab573d906001600160401b038211611e4b5760405191611f9f601f8201601f191660200184611e7c565b82523d6000602084013e565b606090565b90816020910312611d9057518015158103611d905790565b91908201809211611f2457565b8054600160401b811015611e4b57611ff291600182018155611e9f565b819291549060031b91821b91600019901b1916179055565b610140810190815142101561278657610180810190620f42408251106126fd5760808101918251156126705760a082019260018451106125e45760c0830194855115612557576101608401956113888751116124a35761206d8351855190611fc8565b92621e84808401809411611f24576020948587019060018060a01b03928383511698604097885163c1c7c9dd60e01b815260049b8c8201528a816024818a7f0000000000000000000000000000000000000000000000000000000000000000165afa9081156123ee57600091612476575b50106123f9578781019a8b5189519063b5fba11d60e01b82528c8201528a816024818a7f0000000000000000000000000000000000000000000000000000000000000000165afa9081156123ee579087916000916123d1575b501615612338578d82528d60005260018a52886000209282518455600184018787511660018060a01b03198254161790558c51600285015561218e60608401511515600386019060ff801983541691151516179055565b518b8401555160058301558551600683015560e081015160078301556101008101519b60038d10156123235760088301549c61012083019d8e518d81101561230e57916101e0939160ff61ff00600e979560081b1692169061ffff1916171760088601558951600986015551600a8501558451600b8501556122266101a08201511515600c86019060ff801983541691151516179055565b6101c0810151600d8501550151910155828251166000526002875261224e8b87600020611fd5565b8851600052600387526122648b87600020611fd5565b61226f600854611f15565b60085551621e84800180621e8480116122f95761228e90600b54611fc8565b600b5551169551965194808610156122e45750926060928895927f76ef467048d23cfaf3e41bba063fd0fec6fe9471ae5d6c96a8942db8606c479295519051926122da83518096611c97565b840152820152a490565b602190634e487b7160e01b6000525260246000fd5b601188634e487b7160e01b6000525260246000fd5b60218e634e487b7160e01b6000525260246000fd5b60218b634e487b7160e01b6000525260246000fd5b885162461bcd60e51b8152808c018b9052606160248201527f4c696d69744f726465724d616e616765723a20556e737570706f72746564206d60448201527f6574726963202d206e6f2056414d4d206465706c6f79656420666f722074686960648201527f73206d65747269632028636865636b20666163746f7279206d617070696e67736084820152602960f81b60a482015260c490fd5b6123e891508c8d3d1061058c5761057d8183611e7c565b38612137565b8a513d6000823e3d90fd5b875162461bcd60e51b8152808b018a9052605f6024820152600080516020612fa083398151915260448201527f6d617267696e202d206e65656420636f6c6c61746572616c20706c757320617560648201527f746f6d6174696f6e2066656520706c757320657865637574696f6e2066656500608482015260a490fd5b908b82813d831161249c575b61248c8183611e7c565b81010312610241575051386120de565b503d612482565b60405162461bcd60e51b815260206004820152607a60248201527f4c696d69744f726465724d616e616765723a2045786365737369766520736c6960448201527f707061676520746f6c6572616e6365202d206d6178696d756d2035303030206260648201527f6173697320706f696e747320283530252920746f2070726f746563742061676160848201527934b739ba103ab73330bb37b930b136329032bc32b1baba34b7b760311b60a482015260c490fd5b60405162461bcd60e51b815260206004820152605960248201527f4c696d69744f726465724d616e616765723a20496e76616c696420747269676760448201527f6572207072696365202d206d7573742062652067726561746572207468616e206064820152783d32b937903337b910383934b1b29031b7b6b830b934b9b7b760391b608482015260a490fd5b60405162461bcd60e51b815260206004820152605860248201527f4c696d69744f726465724d616e616765723a20496e76616c6964206c6576657260448201527f616765202d206d757374206265206174206c6561737420317820666f72206d65606482015277616e696e6766756c20706f736974696f6e2073697a696e6760401b608482015260a490fd5b60405162461bcd60e51b815260206004820152605960248201527f4c696d69744f726465724d616e616765723a20496e76616c696420636f6c6c6160448201527f746572616c20616d6f756e74202d206d757374206265206772656174657220746064820152783430b7103d32b937903a37903130b1b5903837b9b4ba34b7b760391b608482015260a490fd5b60405162461bcd60e51b81526020600482015260616024820152600080516020612fa083398151915260448201527f6b656570657220666565202d206d757374206d656574206d696e696d756d207460648201527f68726573686f6c6420746f20696e63656e746976697a6520657865637574696f6084820152603760f91b60a482015260c490fd5b60405162461bcd60e51b81526020600482015260656024820152600080516020612f4083398151915260448201527f206f6e206372656174696f6e202d20657870697279206d75737420626520696e60648201527f207468652066757475726520746f20616c6c6f7720657865637574696f6e2077608482015264696e646f7760d81b60a482015260c490fd5b1561281a57565b60405162461bcd60e51b815260206004820152602660248201527f4c696d69744f726465724d616e616765723a20756e617574686f72697a65642060448201526535b2b2b832b960d11b6064820152608490fd5b6040919493926060820195825260208201520152565b600092838093604051602081019363a9059cbb60e01b855260018060a01b0380931660248301526044820152604481526128bd81611e61565b5193165af16128ca611f71565b8161291a575b50156128d857565b60405162461bcd60e51b815260206004820152601a60248201527914d85999515490cc8c0e881d1c985b9cd9995c8819985a5b195960321b6044820152606490fd5b805180159250821561292f575b5050386128d0565b6129429250602080918301019101611fb0565b3880612927565b9190811015611eb75760051b0190565b90918060409360208452816020850152848401376000828201840152601f01601f1916010190565b6001600160401b038111611e4b5760051b60200190565b906129a282612981565b6129af6040519182611e7c565b82815280926129c0601f1991612981565b0190602036910137565b8051821015611eb75760209160051b010190565b60ff600882015460081c166004811015611c815760018103612a1b57508060ff6003600693015416600014612a14570154101590565b0154111590565b80612a4157508060ff6003600693015416600014612a3a570154111590565b0154101590565b60028103612a6357508060ff6003600693015416600014612a14570154101590565b600314612a71575050600090565b8060ff6003600693015416600014612a3a570154111590565b60405163b5fba11d60e01b8152600481018290526020906001600160a01b039082816024817f000000000000000000000000000000000000000000000000000000000000000086165afa908115612b4957600091612ba8575b5016918215612b5557819060246040518095819363e2fe814760e01b835260048301525afa908115612b4957600091612b1d575b50905090565b82813d8311612b42575b612b318183611e7c565b810103126102415750518038612b17565b503d612b27565b6040513d6000823e3d90fd5b60405162461bcd60e51b815260048101839052602560248201527f4c696d69744f726465724d616e616765723a204e6f2056414d4d20666f72206d604482015264657472696360d81b6064820152608490fd5b612bbf9150833d851161058c5761057d8183611e7c565b38612ae3565b91908203918211611f2457565b60018060a01b036020820151169060408101519060608101511515608082015160a083015160c084015160e085015161010080870151926003841015611c8157610120880151946004861015611c8157610140890151966101608a0151986101808b01519a6101e001519b604051809e60208201600080516020612fc0833981519152905260408201526060015260808d015260a08c015260c08b015260e08a015288015260ff1661012087015260ff166101408601526101608501526101808401526101a08301526101c0908183015281526101e08101818110600160401b60019003821117611e4b576040526020815191012090565b9091604103612d34576020820135916fa2a8918ca85bafe22016d0b997e4df60600160ff1b038311612d2c57608060209260405190815260009483604087950135851a86840152356040830152606082015282805260015afa15610593575190565b505050600090565b5050600090565b15612d4257565b60405162461bcd60e51b815260206004820152601d60248201527f4c696d69744f726465724d616e616765723a206f6e6c79206f776e65720000006044820152606490fd5b60405190612d9482611e2f565b816101e06000918281528260208201528260408201528260608201528260808201528260a08201528260c08201528260e08201528261010082015282610120820152826101408201528261016082015282610180820152826101a0820152826101c08201520152565b90604051612e0a81611e2f565b6101e0600e82948054845260018060a01b0360018201541660208501526002810154604085015260ff6003820154161515606085015260048101546080850152600581015460a0850152600681015460c0850152600781015460e0850152612e9060ff6008830154612e828282166101008901611f59565b60081c166101208601611f65565b6009810154610140850152600a810154610160850152600b81015461018085015260ff600c8201541615156101a0850152600d8101546101c08501520154910152565b15612eda57565b60405162461bcd60e51b815260206004820152601d60248201527f4c696d69744f726465724d616e616765723a206e6f74207061757365640000006044820152606490fdfeec354c59ac67259af9c87ec2fae43cb965ce88f78ff0b2b1823b40cec307491f4c696d69744f726465724d616e616765723a204f7264657220657870697265644c696d69744f726465724d616e616765723a204f72646572206e6f7420616374d370523e7a29cc54b0e1e6b66ffeb47a2c0d6e37b090e2da19993c7282da39ac4c696d69744f726465724d616e616765723a20496e73756666696369656e7420d298e2efdb56e0d9837b2217af76a0a1297e8cb70b68631e119731ca5990ab84a2646970667358221220c2788553afa2804555df54625d5310a0ff01ab064d566858d39916ff274ba8ea64736f6c63430008140033",
  "linkReferences": {},
  "deployedLinkReferences": {}
}