{"abi":[{"type":"constructor","inputs":[],"stateMutability":"nonpayable"},{"type":"function","name":"SEVERITY_CRITICAL","inputs":[],"outputs":[{"name":"","type":"uint256","internalType":"uint256"}],"stateMutability":"view"},{"type":"function","name":"SEVERITY_HIGH","inputs":[],"outputs":[{"name":"","type":"uint256","internalType":"uint256"}],"stateMutability":"view"},{"type":"function","name":"SEVERITY_LOW","inputs":[],"outputs":[{"name":"","type":"uint256","internalType":"uint256"}],"stateMutability":"view"},{"type":"function","name":"SEVERITY_MEDIUM","inputs":[],"outputs":[{"name":"","type":"uint256","internalType":"uint256"}],"stateMutability":"view"},{"type":"function","name":"addressSeenInHour","inputs":[{"name":"","type":"uint256","internalType":"uint256"},{"name":"","type":"address","internalType":"address"}],"outputs":[{"name":"","type":"bool","internalType":"bool"}],"stateMutability":"view"},{"type":"function","name":"addressStats","inputs":[{"name":"","type":"address","internalType":"address"}],"outputs":[{"name":"totalWithdrawals","type":"uint256","internalType":"uint256"},{"name":"totalValue","type":"uint256","internalType":"uint256"},{"name":"firstWithdrawalTime","type":"uint256","internalType":"uint256"},{"name":"lastWithdrawalTime","type":"uint256","internalType":"uint256"},{"name":"largestWithdrawal","type":"uint256","internalType":"uint256"}],"stateMutability":"view"},{"type":"function","name":"avgHourlyCount","inputs":[],"outputs":[{"name":"","type":"uint256","internalType":"uint256"}],"stateMutability":"view"},{"type":"function","name":"avgHourlyValue","inputs":[],"outputs":[{"name":"","type":"uint256","internalType":"uint256"}],"stateMutability":"view"},{"type":"function","name":"avgWithdrawalSize","inputs":[],"outputs":[{"name":"","type":"uint256","internalType":"uint256"}],"stateMutability":"view"},{"type":"function","name":"checkWithdrawal","inputs":[{"name":"user","type":"address","internalType":"address"},{"name":"amount","type":"uint256","internalType":"uint256"}],"outputs":[{"name":"severity","type":"uint256","internalType":"uint256"},{"name":"reasons","type":"string[]","internalType":"string[]"}],"stateMutability":"view"},{"type":"function","name":"concentrationThreshold","inputs":[],"outputs":[{"name":"","type":"uint256","internalType":"uint256"}],"stateMutability":"view"},{"type":"function","name":"getAddressRiskScore","inputs":[{"name":"user","type":"address","internalType":"address"}],"outputs":[{"name":"score","type":"uint256","internalType":"uint256"}],"stateMutability":"view"},{"type":"function","name":"getCurrentHourStats","inputs":[],"outputs":[{"name":"count","type":"uint256","internalType":"uint256"},{"name":"totalValue","type":"uint256","internalType":"uint256"},{"name":"maxSingleValue","type":"uint256","internalType":"uint256"},{"name":"uniqueAddresses","type":"uint256","internalType":"uint256"}],"stateMutability":"view"},{"type":"function","name":"hourlyStats","inputs":[{"name":"","type":"uint256","internalType":"uint256"}],"outputs":[{"name":"count","type":"uint256","internalType":"uint256"},{"name":"totalValue","type":"uint256","internalType":"uint256"},{"name":"maxSingleValue","type":"uint256","internalType":"uint256"},{"name":"uniqueAddresses","type":"uint256","internalType":"uint256"}],"stateMutability":"view"},{"type":"function","name":"isSuspicious","inputs":[{"name":"user","type":"address","internalType":"address"},{"name":"amount","type":"uint256","internalType":"uint256"}],"outputs":[{"name":"","type":"bool","internalType":"bool"}],"stateMutability":"view"},{"type":"function","name":"lastStatsUpdate","inputs":[],"outputs":[{"name":"","type":"uint256","internalType":"uint256"}],"stateMutability":"view"},{"type":"function","name":"newAddressLargeThreshold","inputs":[],"outputs":[{"name":"","type":"uint256","internalType":"uint256"}],"stateMutability":"view"},{"type":"function","name":"owner","inputs":[],"outputs":[{"name":"","type":"address","internalType":"address"}],"stateMutability":"view"},{"type":"function","name":"recordWithdrawal","inputs":[{"name":"user","type":"address","internalType":"address"},{"name":"amount","type":"uint256","internalType":"uint256"}],"outputs":[],"stateMutability":"nonpayable"},{"type":"function","name":"renounceOwnership","inputs":[],"outputs":[],"stateMutability":"nonpayable"},{"type":"function","name":"shouldPause","inputs":[],"outputs":[{"name":"","type":"bool","internalType":"bool"},{"name":"reason","type":"string","internalType":"string"}],"stateMutability":"view"},{"type":"function","name":"stdDevMultiplier","inputs":[],"outputs":[{"name":"","type":"uint256","internalType":"uint256"}],"stateMutability":"view"},{"type":"function","name":"stdDevWithdrawalSize","inputs":[],"outputs":[{"name":"","type":"uint256","internalType":"uint256"}],"stateMutability":"view"},{"type":"function","name":"transferOwnership","inputs":[{"name":"newOwner","type":"address","internalType":"address"}],"outputs":[],"stateMutability":"nonpayable"},{"type":"function","name":"updateStatistics","inputs":[{"name":"_avgHourlyCount","type":"uint256","internalType":"uint256"},{"name":"_avgHourlyValue","type":"uint256","internalType":"uint256"},{"name":"_avgWithdrawalSize","type":"uint256","internalType":"uint256"},{"name":"_stdDevWithdrawalSize","type":"uint256","internalType":"uint256"}],"outputs":[],"stateMutability":"nonpayable"},{"type":"function","name":"updateThresholds","inputs":[{"name":"_velocityThreshold","type":"uint256","internalType":"uint256"},{"name":"_volumeThreshold","type":"uint256","internalType":"uint256"},{"name":"_concentrationThreshold","type":"uint256","internalType":"uint256"},{"name":"_newAddressLargeThreshold","type":"uint256","internalType":"uint256"},{"name":"_stdDevMultiplier","type":"uint256","internalType":"uint256"}],"outputs":[],"stateMutability":"nonpayable"},{"type":"function","name":"velocityThreshold","inputs":[],"outputs":[{"name":"","type":"uint256","internalType":"uint256"}],"stateMutability":"view"},{"type":"function","name":"volumeThreshold","inputs":[],"outputs":[{"name":"","type":"uint256","internalType":"uint256"}],"stateMutability":"view"},{"type":"event","name":"AnomalyDetected","inputs":[{"name":"user","type":"address","indexed":true,"internalType":"address"},{"name":"anomalyType","type":"string","indexed":false,"internalType":"string"},{"name":"severity","type":"uint256","indexed":false,"internalType":"uint256"}],"anonymous":false},{"type":"event","name":"OwnershipTransferred","inputs":[{"name":"previousOwner","type":"address","indexed":true,"internalType":"address"},{"name":"newOwner","type":"address","indexed":true,"internalType":"address"}],"anonymous":false},{"type":"event","name":"StatsUpdated","inputs":[{"name":"avgCount","type":"uint256","indexed":false,"internalType":"uint256"},{"name":"avgValue","type":"uint256","indexed":false,"internalType":"uint256"},{"name":"avgSize","type":"uint256","indexed":false,"internalType":"uint256"}],"anonymous":false},{"type":"event","name":"ThresholdsUpdated","inputs":[{"name":"velocity","type":"uint256","indexed":false,"internalType":"uint256"},{"name":"volume","type":"uint256","indexed":false,"internalType":"uint256"},{"name":"concentration","type":"uint256","indexed":false,"internalType":"uint256"}],"anonymous":false},{"type":"event","name":"WithdrawalRecorded","inputs":[{"name":"user","type":"address","indexed":true,"internalType":"address"},{"name":"amount","type":"uint256","indexed":false,"internalType":"uint256"},{"name":"timestamp","type":"uint256","indexed":false,"internalType":"uint256"}],"anonymous":false},{"type":"error","name":"OwnableInvalidOwner","inputs":[{"name":"owner","type":"address","internalType":"address"}]},{"type":"error","name":"OwnableUnauthorizedAccount","inputs":[{"name":"account","type":"address","internalType":"address"}]}],"bytecode":{"object":"0x608060405260036009556005600a55601e600b5564012a05f200600c556003600d5534801561002c575f80fd5b50338061005257604051631e4fbdf760e01b81525f600482015260240160405180910390fd5b61005b81610061565b506100b0565b5f80546001600160a01b038381166001600160a01b0319831681178455604051919092169283917f8be0079c531659141344cd1fd0a4f28419497f9722a3daafe3b4186f6b6457e09190a35050565b6111f5806100bd5f395ff3fe608060405234801561000f575f80fd5b50600436106101bb575f3560e01c8063a21bab8e116100f3578063d91f514211610093578063f2fde38b1161006e578063f2fde38b146103d6578063fa17bb75146103e9578063fefd3444146103fc578063ff33cf671461040f575f80fd5b8063d91f5142146103bb578063dd53b976146103c4578063f166e1c0146103cd575f80fd5b8063b8605701116100ce578063b86057011461034c578063c795d31114610355578063ca6d64801461037d578063d06f0c32146103b2575f80fd5b8063a21bab8e1461031a578063a53757a71461033b578063b3f0d5cc14610344575f80fd5b8063707d2b6b1161015e578063865124951161013957806386512495146102e85780638da5cb5b146102f05780638dd43bbe1461030a578063950b915814610312575f80fd5b8063707d2b6b1461029a578063715018a6146102d757806385537995146102df575f80fd5b80633a1744a0116101995780633a1744a0146101f757806352172fdb1461020c578063526c8f8a146102225780636566103814610287575f80fd5b8063047ff2ed146101bf578063271f4139146101e55780632ccbf7fa146101ee575b5f80fd5b6101d26101cd366004610e06565b610418565b6040519081526020015b60405180910390f35b6101d260095481565b6101d2600d5481565b61020a610205366004610e1f565b6104d4565b005b61021461053b565b6040516101dc929190610e9b565b61025f610230366004610e06565b600360208190525f91825260409091208054600182015460028301549383015460049093015491939092909185565b604080519586526020860194909452928401919091526060830152608082015260a0016101dc565b61020a610295366004610ebd565b610643565b6102c76102a8366004610ef4565b600260209081525f928352604080842090915290825290205460ff1681565b60405190151581526020016101dc565b61020a6106ac565b6101d2600c5481565b6101d2600181565b5f546040516001600160a01b0390911681526020016101dc565b6101d2600481565b6101d2600381565b61032d610328366004610f1e565b6106bf565b6040516101dc929190610f46565b6101d260085481565b6101d2600281565b6101d260075481565b61035d610ad5565b6040805194855260208501939093529183015260608201526080016101dc565b61035d61038b366004610fb0565b600160208190525f9182526040909120805491810154600282015460039092015490919084565b6101d260055481565b6101d2600b5481565b6101d2600a5481565b6101d260045481565b61020a6103e4366004610e06565b610b17565b61020a6103f7366004610f1e565b610b59565b6102c761040a366004610f1e565b610cd9565b6101d260065481565b6001600160a01b0381165f9081526003602052604081206002810154820361044857610445601e83610fdb565b91505b8054600a10156104605761045d600a83610fdb565b91505b80546032101561047857610475601483610fdb565b91505b64174876e8008160010154111561049757610494601483610fdb565b91505b6104a3610e1042610fee565b816003015411156104bc576104b9600a83610fdb565b91505b606482116104ca57816104cd565b60645b9392505050565b6104dc610d5b565b60048490556005839055600682905560078190554260085560408051858152602081018590529081018390527f10239bdd5c74b679554af458cf0f10870ab12e158e848cdac9ff21471bd161379060600160405180910390a150505050565b5f60608161054b610e1042611001565b5f818152600160205260409020600454919250901580159061058757506009546004546105789190611020565b610583906003611020565b8154115b156105c257600160405180604001604052806011815260200170435249544943414c5f56454c4f4349545960781b8152509350935050509091565b5f6005541180156105f05750600a546005546105de9190611020565b6105e9906002611020565b8160010154115b156106295760016040518060400160405280600f81526020016e435249544943414c5f564f4c554d4560881b8152509350935050509091565b5f60405180602001604052805f8152509350935050509091565b61064b610d5b565b6009859055600a849055600b839055600c829055600d81905560408051868152602081018690529081018490527f5c18dc8d95da80ea715f2473abe6f01199d4bfa87d2ed1ef051058a60dcce2589060600160405180910390a15050505050565b6106b4610d5b565b6106bd5f610d87565b565b60408051600580825260c082019092525f916060918391816020015b60608152602001906001900390816106db5790505090505f8080610701610e1042611001565b5f8181526001602090815260408083206001600160a01b038d168452600390925290912060045492935090911580159061074a57506009546004546107469190611020565b8254115b156107de5760408051808201909152600d81526c484947485f56454c4f4349545960981b6020820152868661077e8161104b565b97508151811061079057610790611063565b60200260200101819052506009546004546107ab9190611020565b6107b6906002611020565b825411156107d0576107c9846004610dd6565b93506107de565b6107db846003610dd6565b93505b5f60055411801561080c5750600a546005546107fa9190611020565b89836001015461080a9190610fdb565b115b156108695760408051808201909152600b81526a484947485f564f4c554d4560a81b6020820152868661083e8161104b565b97508151811061085057610850611063565b6020026020010181905250610866846003610dd6565b93505b600182015415610916575f8983600101546108849190610fdb565b8a83600101546108949190610fdb565b61089f906064611020565b6108a99190611001565b9050600b54811115610914576040805180820190915260128152712424a3a42fa1a7a721a2a72a2920aa24a7a760711b602082015287876108e98161104b565b9850815181106108fb576108fb611063565b6020026020010181905250610911856002610dd6565b94505b505b60028101541580156109295750600c5489115b1561098c576040805180820190915260118152704e45575f414444524553535f4c4152474560781b602082015286866109618161104b565b97508151811061097357610973611063565b6020026020010181905250610989846002610dd6565b93505b5f60065411801561099e57505f600754115b15610a2d575f600d546007546109b49190611020565b6006546109c19190610fdb565b9050808a1115610a2b5760408051808201909152601381527229aa20aa24a9aa24a1a0a62fa7aaaa2624a2a960691b60208201528787610a008161104b565b985081518110610a1257610a12611063565b6020026020010181905250610a28856001610dd6565b94505b505b8467ffffffffffffffff811115610a4657610a46611037565b604051908082528060200260200182016040528015610a7957816020015b6060815260200190600190039081610a645790505b5096505f5b85811015610ac557868181518110610a9857610a98611063565b6020026020010151888281518110610ab257610ab2611063565b6020908102919091010152600101610a7e565b5092965050505050509250929050565b5f80808080610ae6610e1042611001565b5f90815260016020819052604090912080549181015460028201546003909201549297509550935091505090919293565b610b1f610d5b565b6001600160a01b038116610b4d57604051631e4fbdf760e01b81525f60048201526024015b60405180910390fd5b610b5681610d87565b50565b5f610b66610e1042611001565b5f818152600160205260408120805492935091908290610b858361104b565b919050555082816001015f828254610b9d9190610fdb565b90915550506002810154831115610bb657600281018390555b5f8281526002602090815260408083206001600160a01b038816845290915290205460ff16610c21575f8281526002602090815260408083206001600160a01b03881684529091528120805460ff1916600117905560038201805491610c1b8361104b565b91905055505b6001600160a01b0384165f9081526003602052604081206002810154909103610c4b574260028201555b8054815f610c588361104b565b919050555083816001015f828254610c709190610fdb565b90915550504260038201556004810154841115610c8f57600481018490555b604080518581524260208201526001600160a01b038716917f364b1296a5841ec6e0474802799ff1703fe6775f2e758a02d4a1d715ad03ce1c910160405180910390a25050505050565b60405163510dd5c760e11b81526001600160a01b0383166004820152602481018290525f908190309063a21bab8e906044015f60405180830381865afa158015610d25573d5f803e3d5ffd5b505050506040513d5f823e601f3d908101601f19168201604052610d4c91908101906110a8565b50600211159150505b92915050565b5f546001600160a01b031633146106bd5760405163118cdaa760e01b8152336004820152602401610b44565b5f80546001600160a01b038381166001600160a01b0319831681178455604051919092169283917f8be0079c531659141344cd1fd0a4f28419497f9722a3daafe3b4186f6b6457e09190a35050565b5f818311610de457816104cd565b5090919050565b80356001600160a01b0381168114610e01575f80fd5b919050565b5f60208284031215610e16575f80fd5b6104cd82610deb565b5f805f8060808587031215610e32575f80fd5b5050823594602084013594506040840135936060013592509050565b5f5b83811015610e68578181015183820152602001610e50565b50505f910152565b5f8151808452610e87816020860160208601610e4e565b601f01601f19169290920160200192915050565b8215158152604060208201525f610eb56040830184610e70565b949350505050565b5f805f805f60a08688031215610ed1575f80fd5b505083359560208501359550604085013594606081013594506080013592509050565b5f8060408385031215610f05575f80fd5b82359150610f1560208401610deb565b90509250929050565b5f8060408385031215610f2f575f80fd5b610f3883610deb565b946020939093013593505050565b5f6040820184835260206040602085015281855180845260608601915060608160051b8701019350602087015f5b82811015610fa257605f19888703018452610f90868351610e70565b95509284019290840190600101610f74565b509398975050505050505050565b5f60208284031215610fc0575f80fd5b5035919050565b634e487b7160e01b5f52601160045260245ffd5b80820180821115610d5557610d55610fc7565b81810381811115610d5557610d55610fc7565b5f8261101b57634e487b7160e01b5f52601260045260245ffd5b500490565b8082028115828204841417610d5557610d55610fc7565b634e487b7160e01b5f52604160045260245ffd5b5f6001820161105c5761105c610fc7565b5060010190565b634e487b7160e01b5f52603260045260245ffd5b604051601f8201601f1916810167ffffffffffffffff811182821017156110a0576110a0611037565b604052919050565b5f8060408084860312156110ba575f80fd5b8351925060208085015167ffffffffffffffff808211156110d9575f80fd5b8187019150601f88601f8401126110ee575f80fd5b82518281111561110057611100611037565b8060051b61110f868201611077565b918252848101860191868101908c841115611128575f80fd5b87870192505b838310156111ac57825186811115611144575f80fd5b8701603f81018e13611154575f80fd5b888101518781111561116857611168611037565b611179818801601f19168b01611077565b8181528f8c83850101111561118c575f80fd5b61119b828c83018e8601610e4e565b84525050918701919087019061112e565b809950505050505050505050925092905056fea2646970667358221220c9e8f8a55cc828ed93c2902cb29b1ce58c9aded448a4b9818d4fd4e19b90c7f764736f6c63430008180033","linkReferences":{}},"methodIdentifiers":{"SEVERITY_CRITICAL()":"8dd43bbe","SEVERITY_HIGH()":"950b9158","SEVERITY_LOW()":"86512495","SEVERITY_MEDIUM()":"b3f0d5cc","addressSeenInHour(uint256,address)":"707d2b6b","addressStats(address)":"526c8f8a","avgHourlyCount()":"f166e1c0","avgHourlyValue()":"d06f0c32","avgWithdrawalSize()":"ff33cf67","checkWithdrawal(address,uint256)":"a21bab8e","concentrationThreshold()":"d91f5142","getAddressRiskScore(address)":"047ff2ed","getCurrentHourStats()":"c795d311","hourlyStats(uint256)":"ca6d6480","isSuspicious(address,uint256)":"fefd3444","lastStatsUpdate()":"a53757a7","newAddressLargeThreshold()":"85537995","owner()":"8da5cb5b","recordWithdrawal(address,uint256)":"fa17bb75","renounceOwnership()":"715018a6","shouldPause()":"52172fdb","stdDevMultiplier()":"2ccbf7fa","stdDevWithdrawalSize()":"b8605701","transferOwnership(address)":"f2fde38b","updateStatistics(uint256,uint256,uint256,uint256)":"3a1744a0","updateThresholds(uint256,uint256,uint256,uint256,uint256)":"65661038","velocityThreshold()":"271f4139","volumeThreshold()":"dd53b976"},"id":32}