{
  "_format": "hh-sol-artifact-1",
  "contractName": "vAMMFactory",
  "sourceName": "contracts/vAMMFactory.sol",
  "abi": [
    {
      "inputs": [],
      "stateMutability": "nonpayable",
      "type": "constructor"
    },
    {
      "anonymous": false,
      "inputs": [
        {
          "indexed": true,
          "internalType": "bytes32",
          "name": "marketId",
          "type": "bytes32"
        },
        {
          "indexed": false,
          "internalType": "string",
          "name": "symbol",
          "type": "string"
        },
        {
          "indexed": false,
          "internalType": "uint256",
          "name": "startingPrice",
          "type": "uint256"
        },
        {
          "indexed": false,
          "internalType": "enum vAMMFactory.MarketType",
          "name": "marketType",
          "type": "uint8"
        },
        {
          "indexed": false,
          "internalType": "string",
          "name": "description",
          "type": "string"
        }
      ],
      "name": "BondingCurveMarketCreated",
      "type": "event"
    },
    {
      "anonymous": false,
      "inputs": [
        {
          "indexed": true,
          "internalType": "bytes32",
          "name": "marketId",
          "type": "bytes32"
        },
        {
          "indexed": true,
          "internalType": "address",
          "name": "contractAddress",
          "type": "address"
        },
        {
          "indexed": false,
          "internalType": "string",
          "name": "contractType",
          "type": "string"
        },
        {
          "indexed": false,
          "internalType": "bytes",
          "name": "constructorArgs",
          "type": "bytes"
        }
      ],
      "name": "ContractDeployed",
      "type": "event"
    },
    {
      "anonymous": false,
      "inputs": [
        {
          "indexed": false,
          "internalType": "uint256",
          "name": "newFee",
          "type": "uint256"
        }
      ],
      "name": "DeploymentFeeUpdated",
      "type": "event"
    },
    {
      "anonymous": false,
      "inputs": [
        {
          "indexed": true,
          "internalType": "bytes32",
          "name": "marketId",
          "type": "bytes32"
        },
        {
          "indexed": false,
          "internalType": "string",
          "name": "symbol",
          "type": "string"
        },
        {
          "indexed": true,
          "internalType": "address",
          "name": "vamm",
          "type": "address"
        },
        {
          "indexed": true,
          "internalType": "address",
          "name": "vault",
          "type": "address"
        },
        {
          "indexed": false,
          "internalType": "address",
          "name": "oracle",
          "type": "address"
        },
        {
          "indexed": false,
          "internalType": "address",
          "name": "collateralToken",
          "type": "address"
        },
        {
          "indexed": false,
          "internalType": "uint256",
          "name": "startingPrice",
          "type": "uint256"
        },
        {
          "indexed": false,
          "internalType": "enum vAMMFactory.MarketType",
          "name": "marketType",
          "type": "uint8"
        }
      ],
      "name": "MarketCreated",
      "type": "event"
    },
    {
      "anonymous": false,
      "inputs": [
        {
          "indexed": true,
          "internalType": "bytes32",
          "name": "marketId",
          "type": "bytes32"
        },
        {
          "indexed": false,
          "internalType": "bool",
          "name": "isActive",
          "type": "bool"
        }
      ],
      "name": "MarketStatusChanged",
      "type": "event"
    },
    {
      "anonymous": false,
      "inputs": [
        {
          "indexed": true,
          "internalType": "address",
          "name": "previousOwner",
          "type": "address"
        },
        {
          "indexed": true,
          "internalType": "address",
          "name": "newOwner",
          "type": "address"
        }
      ],
      "name": "OwnershipTransferred",
      "type": "event"
    },
    {
      "inputs": [
        {
          "internalType": "string",
          "name": "symbol",
          "type": "string"
        },
        {
          "internalType": "address",
          "name": "oracle",
          "type": "address"
        },
        {
          "internalType": "address",
          "name": "collateralToken",
          "type": "address"
        },
        {
          "internalType": "uint256",
          "name": "startingPrice",
          "type": "uint256"
        }
      ],
      "name": "createMarket",
      "outputs": [
        {
          "internalType": "bytes32",
          "name": "marketId",
          "type": "bytes32"
        },
        {
          "internalType": "address",
          "name": "vammAddress",
          "type": "address"
        },
        {
          "internalType": "address",
          "name": "vaultAddress",
          "type": "address"
        }
      ],
      "stateMutability": "payable",
      "type": "function"
    },
    {
      "inputs": [
        {
          "internalType": "enum vAMMFactory.MarketType",
          "name": "",
          "type": "uint8"
        }
      ],
      "name": "defaultStartingPrices",
      "outputs": [
        {
          "internalType": "uint256",
          "name": "",
          "type": "uint256"
        }
      ],
      "stateMutability": "view",
      "type": "function"
    },
    {
      "inputs": [],
      "name": "deploymentFee",
      "outputs": [
        {
          "internalType": "uint256",
          "name": "",
          "type": "uint256"
        }
      ],
      "stateMutability": "view",
      "type": "function"
    },
    {
      "inputs": [
        {
          "internalType": "bytes32",
          "name": "marketId",
          "type": "bytes32"
        }
      ],
      "name": "getMarket",
      "outputs": [
        {
          "components": [
            {
              "internalType": "address",
              "name": "vamm",
              "type": "address"
            },
            {
              "internalType": "address",
              "name": "vault",
              "type": "address"
            },
            {
              "internalType": "address",
              "name": "oracle",
              "type": "address"
            },
            {
              "internalType": "address",
              "name": "collateralToken",
              "type": "address"
            },
            {
              "internalType": "string",
              "name": "symbol",
              "type": "string"
            },
            {
              "internalType": "bool",
              "name": "isActive",
              "type": "bool"
            },
            {
              "internalType": "uint256",
              "name": "createdAt",
              "type": "uint256"
            },
            {
              "internalType": "uint256",
              "name": "startingPrice",
              "type": "uint256"
            },
            {
              "internalType": "enum vAMMFactory.MarketType",
              "name": "marketType",
              "type": "uint8"
            }
          ],
          "internalType": "struct vAMMFactory.MarketInfo",
          "name": "",
          "type": "tuple"
        }
      ],
      "stateMutability": "view",
      "type": "function"
    },
    {
      "inputs": [
        {
          "internalType": "address",
          "name": "",
          "type": "address"
        }
      ],
      "name": "isValidMarket",
      "outputs": [
        {
          "internalType": "bool",
          "name": "",
          "type": "bool"
        }
      ],
      "stateMutability": "view",
      "type": "function"
    },
    {
      "inputs": [],
      "name": "marketCount",
      "outputs": [
        {
          "internalType": "uint256",
          "name": "",
          "type": "uint256"
        }
      ],
      "stateMutability": "view",
      "type": "function"
    },
    {
      "inputs": [
        {
          "internalType": "uint256",
          "name": "",
          "type": "uint256"
        }
      ],
      "name": "marketIds",
      "outputs": [
        {
          "internalType": "bytes32",
          "name": "",
          "type": "bytes32"
        }
      ],
      "stateMutability": "view",
      "type": "function"
    },
    {
      "inputs": [
        {
          "internalType": "bytes32",
          "name": "",
          "type": "bytes32"
        }
      ],
      "name": "markets",
      "outputs": [
        {
          "internalType": "address",
          "name": "vamm",
          "type": "address"
        },
        {
          "internalType": "address",
          "name": "vault",
          "type": "address"
        },
        {
          "internalType": "address",
          "name": "oracle",
          "type": "address"
        },
        {
          "internalType": "address",
          "name": "collateralToken",
          "type": "address"
        },
        {
          "internalType": "string",
          "name": "symbol",
          "type": "string"
        },
        {
          "internalType": "bool",
          "name": "isActive",
          "type": "bool"
        },
        {
          "internalType": "uint256",
          "name": "createdAt",
          "type": "uint256"
        },
        {
          "internalType": "uint256",
          "name": "startingPrice",
          "type": "uint256"
        },
        {
          "internalType": "enum vAMMFactory.MarketType",
          "name": "marketType",
          "type": "uint8"
        }
      ],
      "stateMutability": "view",
      "type": "function"
    },
    {
      "inputs": [],
      "name": "owner",
      "outputs": [
        {
          "internalType": "address",
          "name": "",
          "type": "address"
        }
      ],
      "stateMutability": "view",
      "type": "function"
    },
    {
      "inputs": [
        {
          "internalType": "uint256",
          "name": "newFee",
          "type": "uint256"
        }
      ],
      "name": "setDeploymentFee",
      "outputs": [],
      "stateMutability": "nonpayable",
      "type": "function"
    },
    {
      "inputs": [
        {
          "internalType": "bytes32",
          "name": "marketId",
          "type": "bytes32"
        },
        {
          "internalType": "bool",
          "name": "isActive",
          "type": "bool"
        }
      ],
      "name": "setMarketStatus",
      "outputs": [],
      "stateMutability": "nonpayable",
      "type": "function"
    },
    {
      "inputs": [
        {
          "internalType": "address",
          "name": "newOwner",
          "type": "address"
        }
      ],
      "name": "transferOwnership",
      "outputs": [],
      "stateMutability": "nonpayable",
      "type": "function"
    },
    {
      "inputs": [],
      "name": "withdrawFees",
      "outputs": [],
      "stateMutability": "nonpayable",
      "type": "function"
    }
  ],
  "bytecode": "0x608080604052346100be5767016345785d8a0000600555600080546001600160a01b03191633178155600660205266038d7ea4c680007f54cdd369e4e8a8515e52ca72ec816c2101831ad1f18bf44102ed171459c9b4f855670de0b6b3a76400007f3e5fec24aa4dc4e5aee2e025e51e1392c72a2500577559fae9665c6d52bd6a31556002905268056bc75e2d631000007f8819ef417987f8ae7a81f42cdfb18815282fe989326fbff903d13cf0e03ace2955615f2690816100c48239f35b600080fdfe608060405260043610156200001357600080fd5b6000803560e01c80632a5197331462000f1f578063476343ee1462000e4657806358e6309f1462000e0357806373d8c6bd14620004ce5780637564912b146200040d578063779a968314620003ce5780638da5cb5b14620003a5578063c3c95c7b1462000213578063d002462b14620001b5578063ec9790821462000195578063f0a9d4c4146200015a578063f2cff57f146200013a5763f2fde38b14620000ba57600080fd5b34620001375760203660031901126200013757620000d762000ff7565b8154906001600160a01b0380831691620000f33384146200134d565b168092620001038215156200134d565b6001600160a01b0319161783557f8be0079c531659141344cd1fd0a4f28419497f9722a3daafe3b4186f6b6457e08380a380f35b80fd5b503462000137578060031936011262000137576020600554604051908152f35b5034620001375760203660031901126200013757600435600381101562000191578160409160209352600683522054604051908152f35b5080fd5b503462000137578060031936011262000137576020600454604051908152f35b50346200013757602036600319011262000137577f40bd824d588484917db8fa4fc894c1e0feae5a75885290ba7b97521cebf82a8060206004356200020560018060a01b0385541633146200134d565b80600555604051908152a180f35b50346200013757602036600319011262000137578060409161010083516200023b8162001028565b8281528260208201528285820152826060820152606060808201528260a08201528260c08201528260e0820152015260043581526001602052206200030160ff6008604051936200028c8562001028565b80546001600160a01b0390811686526001820154811660208701526002820154811660408701526003820154166060860152620002cc60048201620010c3565b608086015282600582015416151560a0860152600681015460c0860152600781015460e0860152015416610100830162001312565b60405180916020825260018060a01b03815116602083015260018060a01b03602082015116604083015260018060a01b03604082015116606083015260018060a01b036060820151166080830152620003a1608082015161010062000375610120928360a08801526101408701906200119a565b9360a0810151151560c087015260c081015160e087015260e081015182870152015190840190620011c1565b0390f35b50346200013757806003193601126200013757546040516001600160a01b039091168152602090f35b50346200013757602036600319011262000137576004359060035482101562000137576020620003fe83620011e5565b90549060031b1c604051908152f35b5034620001375760203660031901126200013757604090600435815260016020522060018060a01b03908181541690620003a183600183015416938060028401541690600384015416926200046560048201620010c3565b93620004b060ff6005840154169560068401549260ff6008600787015496015416956040519a8b9a8b5260208b015260408a015260608901526101208060808a01528801906200119a565b94151560a087015260c086015260e0850152610100840190620011c1565b50608036600319011262000137576004359067ffffffffffffffff8211620001375736602383011215620001375781600401356200050c8162001069565b926200051c604051948562001046565b818452366024838301011162000dff5781839260246020930183870137840101526024356001600160a01b038116900362000137576044356001600160a01b03811690036200013757600554341062000dd457620005876024356001600160a01b0316151562001233565b6200059f6044356001600160a01b031615156200126a565b620005ad82511515620012a5565b606435151591620005be83620012dc565b62000614620005cf6064356200131f565b93620005e86024356001600160a01b0316151562001233565b620006006044356001600160a01b031615156200126a565b6200060e83511515620012a5565b620012dc565b6004546200067e60886040518093855162000637816020850160208a0162001175565b8201906001600160601b031960243560601b1660208301526001600160601b031960443560601b166034830152426048830152606882015203606881018452018262001046565b6020815191012091828152600160205260018060a01b0360408220541662000da557604051806112dd81011067ffffffffffffffff6112dd8301111762000d91576112dd6200138482396044356001600160a01b03166112dd82019081528190036020019082f0801562000d845760018060a01b0316916040518061389081011067ffffffffffffffff6138908301111762000cf8576138906200266182396001600160a01b038481166138908301908152602435909116602082015260643560408201528190606001039083f091821562000d7857833b15620001375760405163175dcc5d60e21b81526001600160a01b039093166004840181905292818160248183895af1801562000d6d5762000d5b575b5090833b15620001915760405163f2fde38b60e01b8152336004820152828160248183895af1801562000d385790839162000d43575b5050823b15620001915760405163f2fde38b60e01b8152336004820152828160248183885af1801562000d385790839162000d20575b5050600454600019811462000d0c576001016004556003546801000000000000000081101562000cf8578060016200083a9201600355620011e5565b81549060031b9087821b91600019901b1916179055828252600260205260408220600160ff19825416179055604051620008748162001028565b838152602081018590526001600160a01b036024358116604083015260443516606082015260808101829052600160a08201524260c082015260643560e0820152620008c587610100830162001312565b8583526001602052604083209060018060a01b038151166001600160601b0360a01b90818454161783556001830160018060a01b03602084015116828254161790556002830160018060a01b0360408401511682825416179055600383019060018060a01b0360608401511690825416179055608081015180519067ffffffffffffffff821162000ce4576200095f600485015462001086565b601f811162000c9a575b50602090601f831160011462000c245761010093929187918362000c18575b50508160011b916000199060031b1c19161760048401555b620009c060a08201511515600585019060ff801983541691151516179055565b60c0810151600684015560e08101516007840155015190600382101562000c04576008019060ff801983541691161790558383867f47ab7633006b3b6d4ecfa77b1c64dac99d985e2ec70de8fe50aeeded29c9574260405160a081528062000a2c60a08201886200119a565b6001600160a01b0360243581166020840152604435166040830152606435606083015262000a5e608083018e620011c1565b0390a46040519060018060a01b0360443516602083015260208252604082019180831067ffffffffffffffff84111762000bee5760609787948686868a826020977fd995305719d82e4f9057e27ef693f99f3b5c384215955b35d47c5619856aea379a60405260408452600560808201526415985d5b1d60da1b60a08201528f6080908201527fdc7531fd6d62b7d8261d79f7b7ce83982ac69e2db1b52960d080fbbb1ecd152a938491603f199062000b1b60c08201826200119a565b030190a3604080516001600160a01b038d8116898301908152602435909116602082015260643581840152819003918201815262000b9e9162000b62906060018262001046565b604051918291604083526010604084015260606f426f6e64696e67437572766556414d4d60801b9084015260808a84015260808301906200119a565b0390a362000bcf62000bbc604051956080875260808701906200119a565b92606435858701526040860190620011c1565b83820391828b860152520190a260405192835260208301526040820152f35b634e487b7160e01b600052604160045260246000fd5b634e487b7160e01b84526021600452602484fd5b01519050388062000988565b906004850187526020872091875b601f198516811062000c8157509183916001936101009695601f1981161062000c67575b505050811b016004840155620009a0565b015160001960f88460031b161c1916905538808062000c56565b9192602060018192868501518155019401920162000c32565b60048501875260208720601f840160051c81016020851062000cdc575b601f830160051c8201811062000ccf57505062000969565b6000815560010162000cb7565b508062000cb7565b634e487b7160e01b86526041600452602486fd5b634e487b7160e01b83526041600452602483fd5b634e487b7160e01b83526011600452602483fd5b62000d2b9062001013565b62000191578138620007fe565b6040513d85823e3d90fd5b62000d4e9062001013565b62000191578138620007c8565b62000d669062001013565b3862000792565b6040513d84823e3d90fd5b604051903d90823e3d90fd5b50604051903d90823e3d90fd5b634e487b7160e01b82526041600452602482fd5b60405162461bcd60e51b81526020600482015260076024820152662165786973747360c81b6044820152606490fd5b606460405162461bcd60e51b81526020600482015260046024820152632166656560e01b6044820152fd5b8280fd5b503462000137576020366003190112620001375760209060ff906040906001600160a01b0362000e3262000ff7565b168152600284522054166040519015158152f35b5034620001375780600319360112620001375780546001600160a01b031662000e713382146200134d565b4790811562000eef578280809381935af13d1562000ee9573d62000e958162001069565b9062000ea5604051928362001046565b81528260203d92013e5b1562000eb85780f35b60405162461bcd60e51b815260206004820152600960248201526821776974686472617760b81b6044820152606490fd5b62000eaf565b60405162461bcd60e51b81526020600482015260086024820152672162616c616e636560c01b6044820152606490fd5b50346200013757604036600319011262000137576004356024358015159081810362000ff35783546001600160a01b039062000f5f90821633146200134d565b83855260016020526040852054161562000fc5577ff74802a5f03ef3b60653fc5ef30996c42340c6f63ad2a625f0f7d4f996b28f359162000fbb60209285875260018452600560408820019060ff801983541691151516179055565b604051908152a280f35b60405162461bcd60e51b815260206004820152600660248201526508599bdd5b9960d21b6044820152606490fd5b8380fd5b600435906001600160a01b03821682036200100e57565b600080fd5b67ffffffffffffffff811162000bee57604052565b610120810190811067ffffffffffffffff82111762000bee57604052565b90601f8019910116810190811067ffffffffffffffff82111762000bee57604052565b67ffffffffffffffff811162000bee57601f01601f191660200190565b90600182811c92168015620010b8575b6020831014620010a257565b634e487b7160e01b600052602260045260246000fd5b91607f169162001096565b9060405191826000825492620010d98462001086565b90818452600194858116908160001462001150575060011462001109575b5050620011079250038362001046565b565b9093915060005260209081600020936000915b818310620011375750506200110793508201013880620010f7565b855488840185015294850194879450918301916200111c565b9150506200110794506020925060ff191682840152151560051b8201013880620010f7565b60005b838110620011895750506000910152565b818101518382015260200162001178565b90602091620011b58151809281855285808601910162001175565b601f01601f1916010190565b906003821015620011cf5752565b634e487b7160e01b600052602160045260246000fd5b6003548110156200121d5760036000527fc2575a0e9e593c00f959f8c92f12db2869c3395a3b0502d05e2516446f71f85b0190600090565b634e487b7160e01b600052603260045260246000fd5b156200123b57565b60405162461bcd60e51b8152602060048201526007602482015266216f7261636c6560c81b6044820152606490fd5b156200127257565b60405162461bcd60e51b815260206004820152600b60248201526a0858dbdb1b185d195c985b60aa1b6044820152606490fd5b15620012ad57565b60405162461bcd60e51b8152602060048201526007602482015266085cde5b589bdb60ca1b6044820152606490fd5b15620012e457565b60405162461bcd60e51b815260206004820152600660248201526521707269636560d01b6044820152606490fd5b6003821015620011cf5752565b662386f26fc100008111620013345750600090565b678ac7230489e80000106200134857600190565b600290565b156200135557565b60405162461bcd60e51b815260206004820152600660248201526510b7bbb732b960d11b6044820152606490fdfe60803461008457601f6112dd38819003918201601f19168301916001600160401b038311848410176100895780849260209460405283398101031261008457516001600160a01b038116908190036100845760ff196005541660055560018060a01b031933816000541617600055600254161760025560405161123d90816100a08239f35b600080fd5b634e487b7160e01b600052604160045260246000fdfe6080604081815260048036101561001557600080fd5b600092833560e01c9081622bc16414610e2d57508063350c35e914610c4b5780633f4ba83a14610bf5578063485d7d9414610b885780635969f96b14610acf5780635c975abb14610aab5780635d773174146109bf5780637569f4c8146108ad5780638456cb59146108515780638da5cb5b1461082957806390a8ae9b1461080c5780639101e5b3146106f457806395ccea671461060d578063a5d5db0c14610505578063b2016bd4146104dc578063b39ff736146104aa578063b91816111461046e578063bcbaf487146103b5578063c1c7c9dd1461038f578063c90ba3a614610362578063cb625680146102bb578063cf1c316a1461020a578063e098372c146101e1578063e1f1c4a7146101c05763f2fde38b1461013557600080fd5b346101bc5760203660031901126101bc5761014e610ec9565b835491906001600160a01b03906101683383861614610ee4565b169283156101825750506001600160a01b03191617815580f35b906020606492519162461bcd60e51b835282015260146024820152732b30bab63a1d1034b73b30b634b21037bbb732b960611b6044820152fd5b8280fd5b5050346101dd57816003193601126101dd57602090516127108152f35b5080fd5b5050346101dd57816003193601126101dd5760015490516001600160a01b039091168152602090f35b5090346101bc5760203660031901126101bc57610225610ec9565b83546001600160a01b03919061023e9083163314610ee4565b16918215610280578284526020528220805460ff191660011790557fdd10d14f6ac19e913d4edbb11fd30661531e2ccd0d23f571e9b224f001f0dd068280a280f35b6020606492519162461bcd60e51b835282015260166024820152755661756c743a20696e76616c6964206164647265737360501b6044820152fd5b50346101bc57816003193601126101bc5760207f22d38deb33ee15dd233167fc440609397a226eb4e1b61e1773bdd09ef99424aa916102f8610ec9565b60243591338752835260ff8587205416801561034f575b610318906110b9565b6001600160a01b03169361032d851515610fa3565b8486526003835260028187200161034583825461110a565b905551908152a280f35b5085546001600160a01b0316331461030f565b5050346101dd5760203660031901126101dd57602090610388610383610ec9565b611171565b9051908152f35b5050346101dd5760203660031901126101dd576020906103886103b0610ec9565b611126565b50346101bc57816003193601126101bc5760207fe538b9438650b40b382a773f4b71a35129a6b330599b42ed9b50492847972fa6916103f2610ec9565b60243591338752835260ff8587205416801561045b575b610412906110b9565b6001600160a01b031680865260038352848620805491959187916002918511610453576104408582546110fd565b81555b826001820155015551908152a280f35b828155610443565b5085546001600160a01b03163314610409565b50346101bc5760203660031901126101bc5760209260ff918391906001600160a01b03610499610ec9565b168252855220541690519015158152f35b5050346101dd57806003193601126101dd576020906104d36104ca610ec9565b60243590611199565b90519015158152f35b5050346101dd57816003193601126101dd5760025490516001600160a01b039091168152602090f35b50346101bc57816003193601126101bc5761051e610ec9565b918360206024359361053560ff6005541615610f23565b610540851515610f5f565b6001600160a01b039586169560649061055a881515610fa3565b6002541691855194859384926323b872dd60e01b845233908401523060248401528860448401525af190811561060357916105c17fd7243f6f8212d5188fd054141cf6ea89cfc0d91facb8c3afe2f88a1358480142949260209488916105d6575b50611051565b84865260038352808620610345838254611096565b6105f69150853d81116105fc575b6105ee8183611017565b810190611039565b386105bb565b503d6105e4565b82513d87823e3d90fd5b50346101bc57816003193601126101bc57610626610ec9565b83546001600160a01b039081169061063f338314610ee4565b60ff60055416156106bd57845163a9059cbb60e01b81526001600160a01b0392909216938201938452602435602080860191909152919493919285928390036040019183918891165af19081156106b45750610699575080f35b6106b09060203d81116105fc576105ee8183611017565b5080f35b513d84823e3d90fd5b845162461bcd60e51b8152602081860152601160248201527015985d5b1d0e881b9bdd081c185d5cd959607a1b6044820152606490fd5b5090346101bc57806003193601126101bc5761070e610ec9565b90602435913385528360205260ff828620541680156107f9575b610731906110b9565b61074060ff6005541615610f23565b61074b831515610f5f565b6001600160a01b031692610760841515610fa3565b8385526003602052600182862001908154908482106107aa57509183916103457f5e63d54af10545f0b2bd229512f244caefe863ad94dbbb7ad827432c84d762f5956020956110fd565b608490602085519162461bcd60e51b8352820152602360248201527f5661756c743a20696e73756666696369656e74207265736572766564206d617260448201526233b4b760e91b6064820152fd5b5084546001600160a01b03163314610728565b5050346101dd57816003193601126101dd57602090516113888152f35b5050346101dd57816003193601126101dd57905490516001600160a01b039091168152602090f35b83346108aa57806003193601126108aa5761087660018060a01b038254163314610ee4565b600160ff1960055416176005557f9e87fac88ff661f02d44f95383c817fece4bce600a3dab7a54406878b965e7528180a180f35b80fd5b5090346101bc57806003193601126101bc576108c7610ec9565b90602435913385528360205260ff828620541680156109ac575b6108ea906110b9565b6108f960ff6005541615610f23565b610904831515610f5f565b6001600160a01b0381169361091a851515610fa3565b84865260036020528361092f84882093611126565b1061096957509160209160017f7a9b1b90f35f094ffc6d04d86069c79e82c6a16eb600f79672428a409635deca9401610345838254611096565b606490602084519162461bcd60e51b8352820152601a60248201527f5661756c743a20696e73756666696369656e74206d617267696e0000000000006044820152fd5b5084546001600160a01b031633146108e1565b5090346101bc5760203660031901126101bc576109da610ec9565b83546001600160a01b0391906109f39083163314610ee4565b16918215610a7357826bffffffffffffffffffffffff60a01b60015416176001558284526020528220600160ff19825416179055807fb9b7e0cd0425b8d1399710185feab651b96089b6f0e01cb950ffb46b17227cbf8380a27fdd10d14f6ac19e913d4edbb11fd30661531e2ccd0d23f571e9b224f001f0dd068280a280f35b6020606492519162461bcd60e51b835282015260136024820152725661756c743a20696e76616c69642076616d6d60681b6044820152fd5b5050346101dd57816003193601126101dd5760209060ff6005541690519015158152f35b5090346101bc5760603660031901126101bc577f4519c0de74b8f9f16fda0005326875e3fd4dd0d38446a1135a1ffa1739e4591e90610b0c610ec9565b602435906044359433875260205260ff83872054168015610b75575b610b31906110b9565b6001600160a01b031693610b46851515610fa3565b848652600360205280600384882060028101610b6386825461110a565b9055015582519182526020820152a280f35b5085546001600160a01b03163314610b28565b5090346101bc5760203660031901126101bc57610ba3610ec9565b83546001600160a01b039190610bbc9083163314610ee4565b1691828452602052822060ff1981541690557f0fafd0343e6c6f6985727574866da48938c918559eb9521cf9cc0d317ea0f7b48280a280f35b83346108aa57806003193601126108aa57610c1a60018060a01b038254163314610ee4565b60ff19600554166005557fa45f47fdea8a1efdd9029a5691c7f759c32b7c698632b563573e155625d169338180a180f35b50346101bc57816003193601126101bc57610c64610ec9565b90602435610c7760ff6005541615610f23565b610c82811515610f5f565b6001600160a01b0383811693909290610c9c851515610fa3565b8433148015610e18575b610caf906110b9565b848752602093600385528688208054858110610dd55785610ccf85611126565b10610d865792898693610d1e9693610ce8868b986110fd565b905560025416928a519687958694859363a9059cbb60e01b8552840160209093929193604081019460018060a01b031681520152565b03925af1908115610d7c577fc30fcfbcaac9e0deffa719714eaa82396ff506a0d0d0eebe170830177288715d949591610d5d918891610d655750611051565b51908152a280f35b6105f69150853d87116105fc576105ee8183611017565b85513d88823e3d90fd5b885162461bcd60e51b81528086018890526024808201527f5661756c743a20696e73756666696369656e7420617661696c61626c65206d616044820152633933b4b760e11b6064820152608490fd5b885162461bcd60e51b8152808601889052601e60248201527f5661756c743a20696e73756666696369656e7420636f6c6c61746572616c00006044820152606490fd5b5033875260208290528587205460ff16610ca6565b915050346101bc5760203660031901126101bc578282916080946060610e51610ec9565b92610e5b81610fe5565b8281528260208201528286820152015260018060a01b0316815260036020522090805190610e8882610fe5565b825492838352600181015460208401908152606060036002840154938587019485520154940193845282519485525160208501525190830152516060820152f35b600435906001600160a01b0382168203610edf57565b600080fd5b15610eeb57565b60405162461bcd60e51b815260206004820152601060248201526f2b30bab63a1d103737ba1037bbb732b960811b6044820152606490fd5b15610f2a57565b60405162461bcd60e51b815260206004820152600d60248201526c15985d5b1d0e881c185d5cd959609a1b6044820152606490fd5b15610f6657565b60405162461bcd60e51b815260206004820152601560248201527415985d5b1d0e881a5b9d985b1a5908185b5bdd5b9d605a1b6044820152606490fd5b15610faa57565b60405162461bcd60e51b81526020600482015260136024820152722b30bab63a1d1034b73b30b634b2103ab9b2b960691b6044820152606490fd5b6080810190811067ffffffffffffffff82111761100157604052565b634e487b7160e01b600052604160045260246000fd5b90601f8019910116810190811067ffffffffffffffff82111761100157604052565b90816020910312610edf57518015158103610edf5790565b1561105857565b60405162461bcd60e51b815260206004820152601660248201527515985d5b1d0e881d1c985b9cd9995c8819985a5b195960521b6044820152606490fd5b919082018092116110a357565b634e487b7160e01b600052601160045260246000fd5b156110c057565b60405162461bcd60e51b815260206004820152601560248201527415985d5b1d0e881b9bdd08185d5d1a1bdc9a5e9959605a1b6044820152606490fd5b919082039182116110a357565b919091600083820193841291129080158216911516176110a357565b6001600160a01b03811660009081526003602052604090209061114890611171565b90600082131561116a57600101548082111561116a57611167916110fd565b90565b5050600090565b6001600160a01b0316600090815260036020526040902080546002909101546111679161110a565b6001600160a01b038116600090815260036020526040812060010154918215611200576111c590611171565b92818413156111f757808302928304036111e3575061271090041190565b634e487b7160e01b81526011600452602490fd5b50505050600190565b509150509056fea2646970667358221220250518e77c864c13c97be4c084e3bf3e6d1eb5e1875e8924e7513fa1addc672c64736f6c634300081400336080346200016557601f6200389038819003918201601f19168301916001600160401b038311848410176200016a5780849260609460405283398101031262000165576200004d8162000180565b9060406200005e6020830162000180565b91015191601e6003556101f4806004556005556103e86006556710a741a46278000060085560ff196018541660185560018060a01b0319913383600054161760005560018060a01b03809216836001541617600155169060025416176002556007557f1551b5180ce27b1b0d183046bbf7f4ed792368fa907dcaa0e08d22c5e8b145126060620000ed620001bf565b620000f76200029d565b80156200015057670de0b6b3a76400006200011883835b8060095562000195565b04600a55604051918252602082015260006040820152a142600d556305f5e100600c5560016013556040516135e09081620002b08239f35b670de0b6b3a76400006200011883826200010e565b600080fd5b634e487b7160e01b600052604160045260246000fd5b51906001600160a01b03821682036200016557565b81810292918115918404141715620001a957565b634e487b7160e01b600052601160045260246000fd5b620001c96200029d565b80156200029657670de0b6b3a7640000908181029081048203620001a95781900480820190818311620001a9576000918381116200023c57505050805b6007546103e892838202938285041482151715620001a957620002299162000195565b048181111562000237575090565b905090565b81116200028257600c810290808204600c14901517156200028257600a90048201908183116200026e57509062000206565b634e487b7160e01b81526011600452602490fd5b634e487b7160e01b82526011600452602482fd5b5060075490565b6015546000808213156200023757509056fe608060408181526004918236101561001657600080fd5b60009260e08435811c928363036ae3541461293c575082630f2590131461291b578263135a9c811461286e578263165ce8db1461277957826316c19739146127495782631c88ef1e146126e15782631ebf4eb5146126c55782632a6bc2dd14612495578263334ef7291461247557826334c1557d146124585782633f4ba83a14612402578263415f1240146121bd578263485d7d941461214d57826349a659381461212d5782634ae13fa31461203e57826353906a0f14611f73578263544305bf14611ee157826355efb28714611ec35782635af5bfd614611e395782635bf804af14611e195782635c975abb14611df45782635ef54f3614611b775782635fb3b1b514611b585782636040963214611b3a57826368288678146119965782636e33531b146116005782637199344f146111b55782637a6841c3146115e25782637b6eb9b61461158b5782637dc0d1d0146115615782637e6a6f671461142457826383a4098a1461140557826383acb48a146113e55782638456cb591461138c5782638da5cb5b146113635782638fbd0c2d146111ba57826395082d25146111b557826395196f7e1461119557826398f89b2f1461117557826399fbab88146111035782639b45ec97146110e6578263a0640c83146110c6578263ac0815ac14610fba578263ae43509a14610f9a578263b25cdccf14610f60578263b3060d3614610f2c578263b31d659e14610e63578263b918161114610e24578263bf6268f214610e04578263c4e41b2214610de6578263cf1c316a14610d32578263cffab08d14610bd6578263d2e7b97814610ba6578263d6fbf20214610b86578263d97e25bc14610b66578263e01df1a814610b46578263e1f1c4a714610b28578263eaf1f1e6146107ff578263eb02c3011461077757508163eddf7570146105de578163edf1a21f14610564578163eeb07069146104b6578163efc339c814610434578163f257b32e14610415578163f2fde38b1461038957508063f40f2a791461036c578063fbfa77cf146103445763ffe777bd1461031357600080fd5b34610340578160031936011261034057806000608092519181835281602084015282015260006060820152f35b5080fd5b503461034057816003193601126103405760015490516001600160a01b039091168152602090f35b503461034057816003193601126103405760209051620f42408152f35b905034610411576020366003190112610411576103a4612970565b835491906001600160a01b03906103be3383861614612c79565b169283156103d85750506001600160a01b03191617815580f35b906020606492519162461bcd60e51b835282015260136024820152723b20a6a69d1034b73b30b634b21037bbb732b960691b6044820152fd5b8280fd5b5050346103405781600319360112610340576020906013549051908152f35b8284346104b357806003193601126104b35761044e612aa4565b916007549061045b612b74565b90600854926103e8948582029582870414821517156104a0575060c0965081519586526020860152840152670de0b6b3a76400006060840152608083015260a0820152f35b634e487b7160e01b815260118852602490fd5b80fd5b905034610411576020366003190112610411578035906104e060018060a01b038554163314612c79565b6103e8821161052c575060008051602061358b8339815191529181608092600355600e8251928084528301526d74726164696e674665655261746560901b60608301526020820152a180f35b606490602084519162461bcd60e51b835282015260126024820152710ec829a9a7440cccaca40e8dede40d0d2ced60731b6044820152fd5b5050346103405781600319360112610340576080916060825161058681612d84565b8281528260208201528284820152015280516105a181612d84565b600b5491828252600c5460208301908152600d54908284019182526060600e54940193845282519485525160208501525190830152516060820152f35b8284346104b357602080600319360112610340576001600160a01b03610602612970565b16825260108152828220918351808484829654938481520190845284842092845b868282106107615750505061063a92500384612da0565b8091815b845181101561068a576106518186613276565b518352600f825260ff6006878520015416610675575b61067090612e58565b61063e565b9261068261067091612e58565b939050610667565b509183856106af61069a8461328a565b936106a783519586612da0565b80855261328a565b8386019490601f19013686378095815b8451811015610721576106d28186613276565b518352600f825260ff60068585200154166106f6575b6106f190612e58565b6106bf565b966107196106f1916107088a88613276565b51610713828a613276565b52612e58565b9790506106e8565b508251818152855181830181905290938493908401928892915b82811061074a57505050500390f35b83518552869550938101939281019260010161073b565b8554845260019586019589955093019201610623565b908385346104b35760203660031901126104b3579060ff6006826107fd9461079d6131f2565b5086358152600f602052208351956107b487612d3e565b815487526001820154602088015283600283015416151585880152600382015460608801528101546080870152600581015460a0870152015416151560c084015251809261299c565bf35b848285346104115760a036600319011261041157813561081d6129e1565b60443561082f60ff6018541615612cb7565b61083a831515613324565b600181101580610b1d575b61084e90613370565b610856612f58565b6108608184612a41565b610868612aa4565b9160643583101580610b11575b61087e906133b5565b8764e8d4a5100061089f61271061089760035487612a41565b048098612a8a565b600154919004906001600160a01b0316803b15610411578851630ead3e9960e31b815233818c019081526020810193909352918391839182908490829060400103925af18015610b0757610aef575b5050601354966108fd88612e58565b6013558415610adb5761091283601554612f3c565b6015555b61091e612ddb565b600c5498875161092d81612d3e565b898152896020809c8b828501898152818601908c1515825260608701928c84526080880194855260a088019542875260c0890197600189528a52600f90528820965187555160018701555115156002860190610994919060ff801983541691151516179055565b516003850155518584015551600583015551151590600601906109c2919060ff801983541691151516179055565b60118a52878120336bffffffffffffffffffffffff60a01b82541617905533815260108a528781209081549268010000000000000000841015610ac85750508689969593610a5888610a3f86610a959660017f345a1e15bff227bfd5051975d95c864c45cf9fe79def6f9ce1c1525b0e8312269b99018155612a13565b90919082549060031b91821b91600019901b1916179055565b610a6482601754612a8a565b60175589519485943398869192608093969594919660a0840197151584526020840152604083015260608201520152565b0390a381519081527f4b85f139405492fb78333512610ba07ed1e0c3fb2417f208a9aae27dc3843e6a843392a251908152f35b634e487b7160e01b825260419052602490fd5b610ae783601654612f3c565b601655610916565b610af890612d70565b610b035787896108ee565b8780fd5b88513d84823e3d90fd5b50608435831115610875565b506064811115610845565b50505034610340578160031936011261034057602090516127108152f35b505050346103405781600319360112610340576020906003549051908152f35b505050346103405781600319360112610340576020906006549051908152f35b505050346103405781600319360112610340576020906007549051908152f35b508284346104b357816003193601126104b35750610bcf602092610bc86129e1565b9035612b85565b9051908152f35b5090503461041157606036600319011261041157803590602435610c0460018060a01b038654163314612c79565b8215610ce5578015610ca2576044351115610c5f575081608091601560008051602061358b8339815191529451928084528301527464796e616d69635265736572766573506172616d7360581b60608301526020820152a180f35b606490602084519162461bcd60e51b8352820152601c60248201527f76414d4d3a20696e76616c6964206d6178206d756c7469706c696572000000006044820152fd5b835162461bcd60e51b8152602081840152601c60248201527f76414d4d3a20696e76616c6964206d696e206d756c7469706c696572000000006044820152606490fd5b835162461bcd60e51b8152602081840152602160248201527f76414d4d3a20696e76616c696420766f6c756d65207363616c6520666163746f6044820152603960f91b6064820152608490fd5b8482853461041157602036600319011261041157610d4e612970565b83546001600160a01b039190610d679083163314612c79565b16918215610dac575081835260146020528220805460ff191660011790557fdd10d14f6ac19e913d4edbb11fd30661531e2ccd0d23f571e9b224f001f0dd068280a280f35b6020606492519162461bcd60e51b8352820152601560248201527476414d4d3a20696e76616c6964206164647265737360581b6044820152fd5b50505034610340578160031936011261034057602090610bcf612b74565b505050346103405781600319360112610340576020906016549051908152f35b505050346103405760203660031901126103405760209160ff9082906001600160a01b03610e50612970565b1681526014855220541690519015158152f35b5090503461041157610e7436612986565b610e8b60018060a09594951b038654163314612c79565b8215159081610f22575b5015610edf575081608091601360008051602061358b83398151915294519280845283015272626173655669727475616c526573657276657360681b60608301526020820152a180f35b606490602084519162461bcd60e51b8352820152601b60248201527f76414d4d3a20696e76616c6964206261736520726573657276657300000000006044820152fd5b9050151538610e95565b509050346104115760203660031901126104115735825260116020908152918190205490516001600160a01b039091168152f35b50505034610340578160031936011261034057608090600b5490600c5490600d5490600e5492815194855260208501528301526060820152f35b505050346103405781600319360112610340576020906009549051908152f35b5090503461041157602036600319011261041157803590610fe560018060a01b038554163314612c79565b60ff601854161561108c578115611049575060008051602061358b8339815191529181608092600755846015558460165561101e612ddb565b600e8251928084528301526d195b595c99d95b98de54995cd95d60921b60608301526020820152a180f35b606490602084519162461bcd60e51b8352820152601c60248201527f76414d4d3a20696e76616c6964207374617274696e67207072696365000000006044820152fd5b606490602084519162461bcd60e51b835282015260146024820152731d9053534e881b5d5cdd081899481c185d5cd95960621b6044820152fd5b50505034610340578160031936011261034057602090600a549051908152f35b505050346103405781600319360112610340576020905160648152f35b838286346104b35760203660031901126104b357829082358152600f6020522080549260018201549260ff600284015416916003840154918401549260ff600660058701549601541695825197885260208801521515908601526060850152608084015260a0830152151560c0820152f35b50505034610340578160031936011261034057602090516305f5e1008152f35b50505034610340578160031936011261034057602090600b549051908152f35b6129f0565b508383346103405760209081600319360112610411576111d8612970565b90839184918596869260018060a01b0316875260108652818720958251808883829a549384815201908b52838b20928b5b8582821061134d5750505061122092500388612da0565b875b875181101561132e576112358189613276565b518952600f825283892060ff908160068201541661125e575b505061125990612e58565b611222565b909a9561126d90989298612e58565b95611278898b613276565b5190865191630f25901360e01b8352868301528482602481305afa908115611324578c916112ee575b6112ab9250612f3c565b9a6002820154166000146112d4576112599160016112cb92015490612a8a565b965b908b61124e565b61125991979660016112e892015490612a8a565b956112cd565b90508482813d831161131d575b6113058183612da0565b81010312611318576112ab9151906112a1565b600080fd5b503d6112fb565b87513d8e823e3d90fd5b835187815260208101879052604081018b905260608101869052608090f35b855484526001958601958d955093019201611209565b50505034610340578160031936011261034057905490516001600160a01b039091168152602090f35b84346104b357806003193601126104b3576113b160018060a01b038254163314612c79565b600160ff1960185416176018557f9e87fac88ff661f02d44f95383c817fece4bce600a3dab7a54406878b965e7528180a180f35b505050346103405781600319360112610340576020906005549051908152f35b8385346104b357806003193601126104b3578151908082526020820152f35b84828534610411576020918260031936011261155d576001600160a01b0361144a612970565b16845260108352818420928251808583829754938481520190885283882092885b858282106115475750505061148292500385612da0565b84805b855181101561153e576114988187613276565b518252600f835260ff60068684200154166114bc575b6114b790612e58565b611485565b956114c78787613276565b51855190630f25901360e01b8252858201528381602481305afa908115611534578391611505575b506114fd906114b792612f3c565b9690506114ae565b90508381813d831161152d575b61151c8183612da0565b8101031261131857516114b76114ef565b503d611512565b86513d85823e3d90fd5b82878651908152f35b855484526001958601958a95509301920161146b565b8380fd5b5050503461034057816003193601126103405760025490516001600160a01b039091168152602090f35b505050346103405780600319360112610340576115a6612970565b6001600160a01b031682526010602052808220805460243593908410156104b357506020926115d491612a13565b91905490519160031b1c8152f35b50505034610340578160031936011261034057602090516103e88152f35b84828534610411576080366003190112610411578135926024359361162a60ff6018541615612cb7565b808252602094600f865261164660ff6006868620015416612cf2565b81835260118652838320546001600160a01b0390611667908216331461322a565b828452600f8752848420936001850196875480851161195e57611688612f58565b611691866130a0565b611699612aa4565b9360443585101580611952575b6116af906133b5565b600288015460ff1697881561193157670de0b6b3a76400006116de6116d8600384015489612a97565b89612a41565b049a5b6127106116f06003548a612a41565b04991561191d5761170388601554612dc2565b6015555b61170f612ddb565b8784036119055750600601805460ff1916905561172c8733612e67565b806001541661173b898c612dc2565b813b15611901578591604483928d519485938492630196c4ad60e71b8452338b85015260248401525af180156118e3579085916118ed575b505060015416908851620af05960e21b81523384820152608081602481865afa9081156118e35787918d918791611875575b5001516117bb92916117b691612a41565b612a6a565b91813b1561155d578851639101e5b360e01b81523391810191825260208201939093528391839182908490829060400103925af1801561186b5790889291611853575b50507f035509dd26c2d331b2eeaf713e533967ac9e8a0c5e37372abc7dedd026e816759161182e86601754612a8a565b6017558651938452602084015260408301526060820184905233918060808101610a95565b81925061185f90612d70565b6104b3578087916117fe565b87513d84823e3d90fd5b925050506080813d82116118db575b8161189160809383612da0565b810103126118d757906117b6878d8c60606117bb968251926118b284612d84565b81518452848201518585015280820151908401520151606082015291939450916117a5565b8480fd5b3d9150611884565b8a513d87823e3d90fd5b6118f690612d70565b61155d57838c611773565b8580fd5b611910888254612dc2565b905560054291015561172c565b61192988601654612dc2565b601655611707565b670de0b6b3a764000061194b6116d8886003850154612a97565b049a6116e1565b506064358511156116a6565b875162461bcd60e51b81528083018b9052601260248201527176414d4d3a20696e76616c69642073697a6560701b6044820152606490fd5b5090503461041157610100366003190112610411576119b3612970565b916024359260443590811515820361131857606435908115158203611318576084359260a43560c4359160e43593338b52601460205260ff888c2054168015611b27575b15611aed576001600160a01b0316978815611ab5575015611a6b5790611a6592917f345a1e15bff227bfd5051975d95c864c45cf9fe79def6f9ce1c1525b0e8312269651958695869192608093969594919660a0840197151584526020840152604083015260608201520152565b0390a380f35b9451938452602084019490945260408301939093525060608101919091527f035509dd26c2d331b2eeaf713e533967ac9e8a0c5e37372abc7dedd026e81675908060808101611a65565b606490602089519162461bcd60e51b835282015260126024820152713b20a6a69d1034b73b30b634b2103ab9b2b960711b6044820152fd5b875162461bcd60e51b81526020818b015260146024820152731d9053534e881b9bdd08185d5d1a1bdc9a5e995960621b6044820152606490fd5b508a546001600160a01b031633146119f7565b50505034610340578160031936011261034057602090610bcf612aa4565b5090503461041157826003193601126104115760209250549051908152f35b508383346103405760a036600319011261034057823560243590604435611ba360ff6018541615612cb7565b818552600f602052611bbd60ff6006868820015416612cf2565b8185526011602052838520546001600160a01b039590611be0908716331461322a565b611beb841515613324565b600182101580611de9575b611bff90613370565b828152600f602052611c2585822092611c16612f58565b611c1f856130a0565b85612a41565b91611c2e612aa4565b9660643588101580611ddd575b611c44906133b5565b64e8d4a51000611c5c61271061089760035488612a41565b049060015416803b1561155d578751630ead3e9960e31b815233818c019081526020810193909352918491839182908490829060400103925af18015611dd357908391611dbf575b5050600281015460ff1615611dab57611cbf83601554612f3c565b6015555b611ccb612ddb565b60018101968754906003830193611d04670de0b6b3a76400009283611cfd81611cf58a5489612a41565b04928a612a41565b0490612a8a565b828102928184041490151715611d9857506020995091611d5d8583611d568a96611d50847f2337e687da16f7f70de054ec6c6f96c9faaeac16ca3fe6b873cf017380f578a89a98612a8a565b90612a6a565b8555612f3c565b809955600542910155611d7282601754612a8a565b601755548651938452602084018890526040840152606083015233918060808101610a95565b634e487b7160e01b815260118b52602490fd5b611db783601654612f3c565b601655611cc3565b611dc890612d70565b610340578189611ca4565b87513d85823e3d90fd5b50608435881115611c3b565b506064821115611bf6565b5050503461034057816003193601126103405760209060ff6018541690519015158152f35b505050346103405781600319360112610340576020906015549051908152f35b8385833461034057602036600319011261034057803590611e6460018060a01b038454163314612c79565b60175490818311611e80575090611e7a91612a97565b60175580f35b606490602086519162461bcd60e51b8352820152601760248201527f76414d4d3a20696e73756666696369656e7420666565730000000000000000006044820152fd5b5050503461034057816003193601126103405760209051610e108152f35b50838334610340576020928360031936011261041157611eff612970565b8251637e6a6f6760e01b81526001600160a01b03909116918101919091528381602481305afa928315611f685792611f39575b5051908152f35b9091508281813d8311611f61575b611f518183612da0565b8101031261131857519083611f32565b503d611f47565b8251903d90823e3d90fd5b5090503461041157602036600319011261041157803590611f9e60018060a01b038554163314612c79565b606482101580612032575b15611ff9575060008051602061358b83398151915291816080926005556016825192808452830152756d61696e74656e616e63654d617267696e526174696f60501b60608301526020820152a180f35b606490602084519162461bcd60e51b8352820152601360248201527276414d4d3a20696e76616c696420726174696f60681b6044820152fd5b506107d0821115611fa9565b508284346104b35760203660031901126104b35782359061205d612b74565b9081831015612124575b61207983612073612aa4565b93612a97565b90816120b057505060209350670de0b6b3a76400009161209f6120a89260075490612a8a565b60011c90612a41565b049051908152f35b670de0b6b3a7640000918281029081048303612111578290048201908183116120fe5750602095506120a892670de0b6b3a76400009492611cfd6120f661209f94612c2d565b600754612a41565b634e487b7160e01b815260118752602490fd5b634e487b7160e01b825260118752602482fd5b91508091612067565b505050346103405781600319360112610340576020906017549051908152f35b5050503461034057602036600319011261034057612169612970565b82546001600160a01b0391906121829083163314612c79565b168083526014602052908220805460ff191690557f0fafd0343e6c6f6985727574866da48938c918559eb9521cf9cc0d317ea0f7b48280a280f35b848285346104115760208060031936011261155d578235916121e460ff6018541615612cb7565b828552600f82526121fd60ff6006838820015416612cf2565b828552601182528085205460015460055483516359cffb9b60e11b81526001600160a01b039384168882018181526020810193909352959394939290918391839182900360400190829088165afa9081156123f85788916123c2575b501561238757848752600f815281872090600182015496612278612f58565b612281876130a0565b8861271061229083548b612a41565b049560ff600286015416600014612373576122ad8a601554612dc2565b6015555b6122b9612ddb565b60066122c3612aa4565b9501805460ff191690556122d78989612e67565b6001541691823b1561034057855163bcbaf48760e01b81526001600160a01b0389169181019182526020820188905292839182908490829060400103925af1801561236957612356575b5082519687528601528401527feb125fc2316e55999aaacc483aa145655b8032d8bce094f8a17174ed9994d9d760603394a480f35b61236290989198612d70565b9688612321565b84513d8b823e3d90fd5b61237f8a601654612dc2565b6016556122b1565b8590606492519162461bcd60e51b8352820152601660248201527576414d4d3a2063616e6e6f74206c697175696461746560501b6044820152fd5b90508181813d83116123f1575b6123d98183612da0565b81010312610b0357518015158103610b035788612259565b503d6123cf565b83513d8a823e3d90fd5b84346104b357806003193601126104b35761242760018060a01b038254163314612c79565b60ff19601854166018557fa45f47fdea8a1efdd9029a5691c7f759c32b7c698632b563573e155625d169338180a180f35b505050346103405781600319360112610340576020905160018152f35b505050346103405781600319360112610340576020906008549051908152f35b9150913461155d576020806003193601126118d7576001600160a01b036124ba612970565b168552601081528185208251808284829454938481520190895284892092895b868282106126af575050506124f192500382612da0565b8593865b8251811015612541576125088184613276565b518852600f845260ff6006868a2001541661252c575b61252790612e58565b6124f5565b9461253961252791612e58565b95905061251e565b5094908693946125508161328a565b9061255d87519283612da0565b80825261256c601f199161328a565b0184865b828110612699575050508493855b835181101561264b576125918185613276565b518752600f80835260ff60069181838c8c200154166125bc575b5050506125b790612e58565b61257e565b91839891612642936125d16125b7968a613276565b518c5286528b8b20918c51926125e684612d3e565b805484526001810154888501526002810154831615158e850152600381015460608501528a8101546080850152600581015460a0850152015416151560c08201526126318287613276565b5261263c8186613276565b50612e58565b95908a806125ab565b875182815283518184018190528190818b019086860190868c8f5b8382106126735786860387f35b918496508286612689600194969884985161299c565b0196019201869594929391612666565b6126a16131f2565b828286010152018590612570565b85548452600195860195879550930192016124da565b84346104b357806003193601126104b3576126de612f58565b80f35b908385346104b357816003193601126104b3579060ff6006826107fd94612706612970565b612735602435916127156131f2565b508284526011602052848420546001600160a01b0391821691161461322a565b8152600f602052208351956107b487612d3e565b8385346104b35760203660031901126104b357506107fd61277061276b612970565b6133f8565b9151809261299c565b509050346104115761278a36612986565b6127a160018060a09594951b038654163314612c79565b821561282b57156127ef575081608091601260008051602061358b83398151915294519280845283015271626f6e64696e674375727665506172616d7360701b60608301526020820152a180f35b606490602084519162461bcd60e51b835282015260166024820152751d9053534e881a5b9d985b1a5908195e1c1bdb995b9d60521b6044820152fd5b835162461bcd60e51b8152602081840152601760248201527f76414d4d3a20696e76616c69642073746565706e6573730000000000000000006044820152606490fd5b508284346104b35760203660031901126104b357823561288c612b74565b61289e82612898612aa4565b92612a8a565b92670de0b6b3a76400009384810290808204861490151715612111578490048401808511612111576128cf90612c2d565b90846128de6007549384612a41565b04906103e8928381029381850414901517156104a05750602096506120a8939261209f92909181811115612913575090612a8a565b905090612a8a565b508284346104b35760203660031901126104b35750610bcf602092356132a2565b85908534610411576020366003190112610411576020926001600160a01b03612963612970565b1681526012845220548152f35b600435906001600160a01b038216820361131857565b6040906003190112611318576004359060243590565b60c080918051845260208101516020850152604081015115156040850152606081015160608501526080810151608085015260a081015160a085015201511515910152565b60243590811515820361131857565b34611318576000366003190112611318576020604051670de0b6b3a76400008152f35b8054821015612a2b5760005260206000200190600090565b634e487b7160e01b600052603260045260246000fd5b81810292918115918404141715612a5457565b634e487b7160e01b600052601160045260246000fd5b8115612a74570490565b634e487b7160e01b600052601260045260246000fd5b91908201809211612a5457565b91908203918211612a5457565b612aac612b74565b8015612b6d57670de0b6b3a7640000908181029081048203612a545781900480820190818311612a5457600091838111612b1757505050805b6007546103e892838202938285041482151715612a5457612b0591612a41565b0481811115612b12575090565b905090565b8111612b5957600c810290808204600c1490151715612b5957600a9004820190818311612b45575090612ae5565b634e487b7160e01b81526011600452602490fd5b634e487b7160e01b82526011600452602482fd5b5060075490565b601554600080821315612b12575090565b9015612c2757612ba4612b96612aa4565b91612b9f612b74565b612a8a565b670de0b6b3a76400009081810290808204831490151715612a54578190048101808211612a5457612bd490612c2d565b90612be26007549283612a41565b046103e891828102928184041490151715612a545781811115612c1f5750905b60009181811115612c1a57612c179250612a97565b90565b505090565b905090612c02565b50600090565b670de0b6b3a76400009081811115612c7557670de0b6b3a763ffff198101908111612a5457600c810290808204600c1490151715612a5457600a90048101809111612a545790565b5090565b15612c8057565b60405162461bcd60e51b815260206004820152600f60248201526e3b20a6a69d103737ba1037bbb732b960891b6044820152606490fd5b15612cbe57565b60405162461bcd60e51b815260206004820152600c60248201526b1d9053534e881c185d5cd95960a21b6044820152606490fd5b15612cf957565b60405162461bcd60e51b815260206004820152601960248201527f76414d4d3a20706f736974696f6e206e6f7420616374697665000000000000006044820152606490fd5b60e0810190811067ffffffffffffffff821117612d5a57604052565b634e487b7160e01b600052604160045260246000fd5b67ffffffffffffffff8111612d5a57604052565b6080810190811067ffffffffffffffff821117612d5a57604052565b90601f8019910116810190811067ffffffffffffffff821117612d5a57604052565b81810392916000138015828513169184121617612a5457565b7f1551b5180ce27b1b0d183046bbf7f4ed792368fa907dcaa0e08d22c5e8b145126060612e06612aa4565b612e0e612b74565b8015612e4557670de0b6b3a7640000612e2c83835b80600955612a41565b04600a55604051918252602082015260006040820152a1565b670de0b6b3a7640000612e2c8382612e23565b6000198114612a545760010190565b6001600160a01b03166000908152601060205260408120909190825b815480821015612f35578390612e998385612a13565b929054600393841b1c14612eb7575050612eb290612e58565b612e83565b929350939060001992838101908111612f215790610a3f612edb612ee89387612a13565b905490881b1c9186612a13565b8254908115612f0d5750810192612eff8484612a13565b81939154921b1b1916905555565b634e487b7160e01b81526031600452602490fd5b634e487b7160e01b83526011600452602483fd5b5050505050565b91909160008382019384129112908015821691151617612a5457565b600d54610e108101809111612a5457421061309e57612f75612aa4565b600254604051634c6afee560e11b815290602090829060049082906001600160a01b03165afa90811561309257600091613061575b506305f5e10091828102928184041490151715612a5457612fca91612a6a565b6305f5e0ff198101908113600116612a54577fd0794ac40e87e336e6e652e1eef2cdb3793d91f30dcc09a45d18db669a686b9490606090620f424060188205818113156130435750905b81600b5580600e5542600d5561302c82600c54612f3c565b80600c5560405192835260208301526040820152a1565b919050620f423f19808312613059575b50613014565b915038613053565b906020823d821161308a575b8161307a60209383612da0565b810103126104b357505138612faa565b3d915061306d565b6040513d6000823e3d90fd5b565b90600091808352600f60205260408084209060ff6006830154161580156131e6575b6131df57600c5491600481016130d9815485612a97565b80156131d55760026305f5e1006130f660ff936001870154612a41565b04930154166131ad575b8487526011602052828720546001546001600160a01b03918216958992909116803b15610411576064839287519485938492635969f96b60e01b84528b600485015289602485015260448401525af180156131a3577fc86c3274d0eb50daaa9786e84b032f4ee9f7c878dfc21d805b52cadc5ff4a1b09596979850613194575b50600c5480915582519182526020820152a3565b61319d90612d70565b38613180565b84513d8a823e3d90fd5b90600160ff1b81146131c157860390613100565b634e487b7160e01b87526011600452602487fd5b5050505050509050565b5050509050565b506001820154156130c2565b604051906131ff82612d3e565b8160c06000918281528260208201528260408201528260608201528260808201528260a08201520152565b1561323157565b60405162461bcd60e51b815260206004820152601860248201527f76414d4d3a206e6f7420706f736974696f6e206f776e657200000000000000006044820152606490fd5b8051821015612a2b5760209160051b010190565b67ffffffffffffffff8111612d5a5760051b60200190565b600052600f602052604060002060ff600682015416158015613318575b612c2757670de0b6b3a7640000906132d5612aa4565b9060018101549060ff600282015416600014613307576133039260036132fd92015490612a97565b90612a41565b0490565b6133039260036132fd920154612a97565b506001810154156132bf565b1561332b57565b60405162461bcd60e51b815260206004820152601860248201527f76414d4d3a20696e76616c696420636f6c6c61746572616c00000000000000006044820152606490fd5b1561337757565b60405162461bcd60e51b815260206004820152601660248201527576414d4d3a20696e76616c6964206c6576657261676560501b6044820152606490fd5b156133bc57565b60405162461bcd60e51b815260206004820152601460248201527376414d4d3a20707269636520736c69707061676560601b6044820152606490fd5b6134006131f2565b5060009060018060a01b031681526020601081526040918281208351808285829454938481520190855285852092855b878282106135745750505061344792500382612da0565b80511561353b57815b81518110156134f7576134638183613276565b518352600f80855260ff90600690828289882001541661348e5750505061348990612e58565b613450565b909491959693849361349f91613276565b518252865220908051946134b286612d3e565b82548652600183015490860152836002830154161515908501526003810154606085015260048101546080850152600581015460a0850152015416151560c082015290565b845162461bcd60e51b815260048101859052601860248201527f76414d4d3a206e6f2061637469766520706f736974696f6e00000000000000006044820152606490fd5b835162461bcd60e51b815260048101849052601260248201527176414d4d3a206e6f20706f736974696f6e7360701b6044820152606490fd5b855484526001958601958795509301920161343056fe952177133a28eea5034c93c6c70c1a8d223da94faaa45da8412c3c791111137fa2646970667358221220ed1eecdb628e7718fe3281f014d1cd3781dc70ea972c3726b4f7a7d6e53ce61764736f6c63430008140033a264697066735822122008733c83d528474079f9abd8fb238b83d6b4f1aae5c5a3d502e5dfe2ed5ad9f664736f6c63430008140033",
  "linkReferences": {},
  "deployedLinkReferences": {}
}