{
  "_format": "hh-sol-artifact-1",
  "contractName": "CentralizedVault",
  "sourceName": "contracts/core/CentralizedVault.sol",
  "abi": [
    {
      "inputs": [
        {
          "internalType": "address",
          "name": "_collateralToken",
          "type": "address"
        },
        {
          "internalType": "address",
          "name": "_factory",
          "type": "address"
        }
      ],
      "stateMutability": "nonpayable",
      "type": "constructor"
    },
    {
      "anonymous": false,
      "inputs": [
        {
          "indexed": true,
          "internalType": "address",
          "name": "user",
          "type": "address"
        },
        {
          "indexed": false,
          "internalType": "uint256",
          "name": "amount",
          "type": "uint256"
        },
        {
          "indexed": false,
          "internalType": "uint256",
          "name": "newBalance",
          "type": "uint256"
        }
      ],
      "name": "CollateralDeposited",
      "type": "event"
    },
    {
      "anonymous": false,
      "inputs": [
        {
          "indexed": true,
          "internalType": "address",
          "name": "user",
          "type": "address"
        },
        {
          "indexed": false,
          "internalType": "uint256",
          "name": "amount",
          "type": "uint256"
        },
        {
          "indexed": false,
          "internalType": "uint256",
          "name": "newBalance",
          "type": "uint256"
        }
      ],
      "name": "CollateralWithdrawn",
      "type": "event"
    },
    {
      "anonymous": false,
      "inputs": [
        {
          "indexed": true,
          "internalType": "address",
          "name": "user",
          "type": "address"
        },
        {
          "indexed": true,
          "internalType": "address",
          "name": "vamm",
          "type": "address"
        },
        {
          "indexed": false,
          "internalType": "int256",
          "name": "fundingPayment",
          "type": "int256"
        }
      ],
      "name": "FundingApplied",
      "type": "event"
    },
    {
      "anonymous": false,
      "inputs": [
        {
          "indexed": true,
          "internalType": "address",
          "name": "user",
          "type": "address"
        },
        {
          "indexed": false,
          "internalType": "uint256",
          "name": "totalLoss",
          "type": "uint256"
        },
        {
          "indexed": false,
          "internalType": "address[]",
          "name": "vammsLiquidated",
          "type": "address[]"
        }
      ],
      "name": "GlobalLiquidation",
      "type": "event"
    },
    {
      "anonymous": false,
      "inputs": [
        {
          "indexed": true,
          "internalType": "address",
          "name": "user",
          "type": "address"
        },
        {
          "indexed": true,
          "internalType": "address",
          "name": "vamm",
          "type": "address"
        },
        {
          "indexed": false,
          "internalType": "uint256",
          "name": "amount",
          "type": "uint256"
        }
      ],
      "name": "MarginReleased",
      "type": "event"
    },
    {
      "anonymous": false,
      "inputs": [
        {
          "indexed": true,
          "internalType": "address",
          "name": "user",
          "type": "address"
        },
        {
          "indexed": true,
          "internalType": "address",
          "name": "vamm",
          "type": "address"
        },
        {
          "indexed": false,
          "internalType": "uint256",
          "name": "amount",
          "type": "uint256"
        }
      ],
      "name": "MarginReserved",
      "type": "event"
    },
    {
      "anonymous": false,
      "inputs": [
        {
          "indexed": true,
          "internalType": "address",
          "name": "user",
          "type": "address"
        },
        {
          "indexed": true,
          "internalType": "address",
          "name": "vamm",
          "type": "address"
        },
        {
          "indexed": false,
          "internalType": "int256",
          "name": "pnlDelta",
          "type": "int256"
        },
        {
          "indexed": false,
          "internalType": "int256",
          "name": "totalPnL",
          "type": "int256"
        }
      ],
      "name": "PnLUpdated",
      "type": "event"
    },
    {
      "anonymous": false,
      "inputs": [
        {
          "indexed": true,
          "internalType": "address",
          "name": "vamm",
          "type": "address"
        },
        {
          "indexed": false,
          "internalType": "string",
          "name": "category",
          "type": "string"
        }
      ],
      "name": "VAMMAuthorized",
      "type": "event"
    },
    {
      "anonymous": false,
      "inputs": [
        {
          "indexed": true,
          "internalType": "address",
          "name": "vamm",
          "type": "address"
        },
        {
          "indexed": false,
          "internalType": "string",
          "name": "reason",
          "type": "string"
        }
      ],
      "name": "VAMMDeauthorized",
      "type": "event"
    },
    {
      "inputs": [],
      "name": "LIQUIDATION_PENALTY",
      "outputs": [
        {
          "internalType": "uint256",
          "name": "",
          "type": "uint256"
        }
      ],
      "stateMutability": "view",
      "type": "function"
    },
    {
      "inputs": [],
      "name": "MAINTENANCE_MARGIN_RATIO",
      "outputs": [
        {
          "internalType": "uint256",
          "name": "",
          "type": "uint256"
        }
      ],
      "stateMutability": "view",
      "type": "function"
    },
    {
      "inputs": [],
      "name": "MAX_UTILIZATION",
      "outputs": [
        {
          "internalType": "uint256",
          "name": "",
          "type": "uint256"
        }
      ],
      "stateMutability": "view",
      "type": "function"
    },
    {
      "inputs": [],
      "name": "PRECISION",
      "outputs": [
        {
          "internalType": "uint256",
          "name": "",
          "type": "uint256"
        }
      ],
      "stateMutability": "view",
      "type": "function"
    },
    {
      "inputs": [],
      "name": "activeUserCount",
      "outputs": [
        {
          "internalType": "uint256",
          "name": "",
          "type": "uint256"
        }
      ],
      "stateMutability": "view",
      "type": "function"
    },
    {
      "inputs": [
        {
          "internalType": "uint256",
          "name": "",
          "type": "uint256"
        }
      ],
      "name": "allVAMMs",
      "outputs": [
        {
          "internalType": "address",
          "name": "",
          "type": "address"
        }
      ],
      "stateMutability": "view",
      "type": "function"
    },
    {
      "inputs": [
        {
          "internalType": "address",
          "name": "user",
          "type": "address"
        },
        {
          "internalType": "int256",
          "name": "fundingPayment",
          "type": "int256"
        }
      ],
      "name": "applyFunding",
      "outputs": [],
      "stateMutability": "nonpayable",
      "type": "function"
    },
    {
      "inputs": [
        {
          "internalType": "address",
          "name": "vamm",
          "type": "address"
        },
        {
          "internalType": "string",
          "name": "category",
          "type": "string"
        }
      ],
      "name": "authorizeVAMM",
      "outputs": [],
      "stateMutability": "nonpayable",
      "type": "function"
    },
    {
      "inputs": [
        {
          "internalType": "address",
          "name": "",
          "type": "address"
        }
      ],
      "name": "authorizedVAMMs",
      "outputs": [
        {
          "internalType": "bool",
          "name": "",
          "type": "bool"
        }
      ],
      "stateMutability": "view",
      "type": "function"
    },
    {
      "inputs": [
        {
          "internalType": "address",
          "name": "user",
          "type": "address"
        },
        {
          "internalType": "uint256",
          "name": "additionalMargin",
          "type": "uint256"
        }
      ],
      "name": "canOpenPosition",
      "outputs": [
        {
          "internalType": "bool",
          "name": "",
          "type": "bool"
        }
      ],
      "stateMutability": "view",
      "type": "function"
    },
    {
      "inputs": [
        {
          "internalType": "address",
          "name": "user",
          "type": "address"
        }
      ],
      "name": "checkLiquidationRisk",
      "outputs": [
        {
          "internalType": "bool",
          "name": "atRisk",
          "type": "bool"
        },
        {
          "internalType": "uint256",
          "name": "totalExposure",
          "type": "uint256"
        },
        {
          "internalType": "uint256",
          "name": "marginRatio",
          "type": "uint256"
        },
        {
          "internalType": "address[]",
          "name": "riskiestVAMMs",
          "type": "address[]"
        }
      ],
      "stateMutability": "view",
      "type": "function"
    },
    {
      "inputs": [],
      "name": "collateralToken",
      "outputs": [
        {
          "internalType": "contract IERC20",
          "name": "",
          "type": "address"
        }
      ],
      "stateMutability": "view",
      "type": "function"
    },
    {
      "inputs": [
        {
          "internalType": "address",
          "name": "vamm",
          "type": "address"
        },
        {
          "internalType": "string",
          "name": "reason",
          "type": "string"
        }
      ],
      "name": "deauthorizeVAMM",
      "outputs": [],
      "stateMutability": "nonpayable",
      "type": "function"
    },
    {
      "inputs": [
        {
          "internalType": "uint256",
          "name": "amount",
          "type": "uint256"
        }
      ],
      "name": "depositCollateral",
      "outputs": [],
      "stateMutability": "nonpayable",
      "type": "function"
    },
    {
      "inputs": [
        {
          "internalType": "address",
          "name": "token",
          "type": "address"
        },
        {
          "internalType": "uint256",
          "name": "amount",
          "type": "uint256"
        }
      ],
      "name": "emergencyWithdraw",
      "outputs": [],
      "stateMutability": "nonpayable",
      "type": "function"
    },
    {
      "inputs": [],
      "name": "factory",
      "outputs": [
        {
          "internalType": "address",
          "name": "",
          "type": "address"
        }
      ],
      "stateMutability": "view",
      "type": "function"
    },
    {
      "inputs": [],
      "name": "getAllAuthorizedVAMMs",
      "outputs": [
        {
          "internalType": "address[]",
          "name": "",
          "type": "address[]"
        }
      ],
      "stateMutability": "view",
      "type": "function"
    },
    {
      "inputs": [
        {
          "internalType": "address",
          "name": "user",
          "type": "address"
        }
      ],
      "name": "getAvailableMargin",
      "outputs": [
        {
          "internalType": "uint256",
          "name": "",
          "type": "uint256"
        }
      ],
      "stateMutability": "view",
      "type": "function"
    },
    {
      "inputs": [],
      "name": "getCollateralToken",
      "outputs": [
        {
          "internalType": "address",
          "name": "",
          "type": "address"
        }
      ],
      "stateMutability": "view",
      "type": "function"
    },
    {
      "inputs": [],
      "name": "getGlobalRiskMetrics",
      "outputs": [
        {
          "components": [
            {
              "internalType": "uint256",
              "name": "totalCollateral",
              "type": "uint256"
            },
            {
              "internalType": "uint256",
              "name": "totalReservedMargin",
              "type": "uint256"
            },
            {
              "internalType": "int256",
              "name": "totalUnrealizedPnL",
              "type": "int256"
            },
            {
              "internalType": "uint256",
              "name": "utilizationRatio",
              "type": "uint256"
            },
            {
              "internalType": "uint256",
              "name": "activeUsers",
              "type": "uint256"
            }
          ],
          "internalType": "struct ICentralizedVault.GlobalRiskMetrics",
          "name": "",
          "type": "tuple"
        }
      ],
      "stateMutability": "view",
      "type": "function"
    },
    {
      "inputs": [
        {
          "internalType": "address",
          "name": "user",
          "type": "address"
        }
      ],
      "name": "getMarginAccount",
      "outputs": [
        {
          "components": [
            {
              "internalType": "uint256",
              "name": "totalCollateral",
              "type": "uint256"
            },
            {
              "internalType": "uint256",
              "name": "availableCollateral",
              "type": "uint256"
            },
            {
              "internalType": "uint256",
              "name": "reservedMargin",
              "type": "uint256"
            },
            {
              "internalType": "int256",
              "name": "unrealizedPnL",
              "type": "int256"
            },
            {
              "internalType": "uint256",
              "name": "lastUpdateTime",
              "type": "uint256"
            }
          ],
          "internalType": "struct ICentralizedVault.MarginAccount",
          "name": "",
          "type": "tuple"
        }
      ],
      "stateMutability": "view",
      "type": "function"
    },
    {
      "inputs": [
        {
          "internalType": "address",
          "name": "user",
          "type": "address"
        }
      ],
      "name": "getPortfolioSummary",
      "outputs": [
        {
          "internalType": "uint256",
          "name": "totalCollateral",
          "type": "uint256"
        },
        {
          "internalType": "uint256",
          "name": "availableMargin",
          "type": "uint256"
        },
        {
          "internalType": "int256",
          "name": "unrealizedPnL",
          "type": "int256"
        },
        {
          "internalType": "uint256",
          "name": "marginRatio",
          "type": "uint256"
        },
        {
          "internalType": "uint256",
          "name": "activeVAMMs",
          "type": "uint256"
        }
      ],
      "stateMutability": "view",
      "type": "function"
    },
    {
      "inputs": [
        {
          "internalType": "address",
          "name": "user",
          "type": "address"
        }
      ],
      "name": "getTotalMargin",
      "outputs": [
        {
          "internalType": "int256",
          "name": "",
          "type": "int256"
        }
      ],
      "stateMutability": "view",
      "type": "function"
    },
    {
      "inputs": [],
      "name": "getTotalValueLocked",
      "outputs": [
        {
          "internalType": "uint256",
          "name": "",
          "type": "uint256"
        }
      ],
      "stateMutability": "view",
      "type": "function"
    },
    {
      "inputs": [
        {
          "internalType": "address",
          "name": "user",
          "type": "address"
        },
        {
          "internalType": "address",
          "name": "vamm",
          "type": "address"
        }
      ],
      "name": "getVAMMAllocation",
      "outputs": [
        {
          "components": [
            {
              "internalType": "uint256",
              "name": "reservedMargin",
              "type": "uint256"
            },
            {
              "internalType": "int256",
              "name": "unrealizedPnL",
              "type": "int256"
            },
            {
              "internalType": "uint256",
              "name": "activePositions",
              "type": "uint256"
            },
            {
              "internalType": "uint256",
              "name": "lastFundingUpdate",
              "type": "uint256"
            }
          ],
          "internalType": "struct ICentralizedVault.VAMMAllocation",
          "name": "",
          "type": "tuple"
        }
      ],
      "stateMutability": "view",
      "type": "function"
    },
    {
      "inputs": [],
      "name": "getVAMMCount",
      "outputs": [
        {
          "internalType": "uint256",
          "name": "",
          "type": "uint256"
        }
      ],
      "stateMutability": "view",
      "type": "function"
    },
    {
      "inputs": [
        {
          "internalType": "address",
          "name": "vamm",
          "type": "address"
        }
      ],
      "name": "isAuthorizedVAMM",
      "outputs": [
        {
          "internalType": "bool",
          "name": "",
          "type": "bool"
        }
      ],
      "stateMutability": "view",
      "type": "function"
    },
    {
      "inputs": [
        {
          "internalType": "address",
          "name": "user",
          "type": "address"
        }
      ],
      "name": "liquidateUser",
      "outputs": [
        {
          "internalType": "uint256",
          "name": "totalLoss",
          "type": "uint256"
        }
      ],
      "stateMutability": "nonpayable",
      "type": "function"
    },
    {
      "inputs": [
        {
          "internalType": "address",
          "name": "",
          "type": "address"
        }
      ],
      "name": "marginAccounts",
      "outputs": [
        {
          "internalType": "uint256",
          "name": "totalCollateral",
          "type": "uint256"
        },
        {
          "internalType": "uint256",
          "name": "availableCollateral",
          "type": "uint256"
        },
        {
          "internalType": "uint256",
          "name": "reservedMargin",
          "type": "uint256"
        },
        {
          "internalType": "int256",
          "name": "unrealizedPnL",
          "type": "int256"
        },
        {
          "internalType": "uint256",
          "name": "lastUpdateTime",
          "type": "uint256"
        }
      ],
      "stateMutability": "view",
      "type": "function"
    },
    {
      "inputs": [],
      "name": "owner",
      "outputs": [
        {
          "internalType": "address",
          "name": "",
          "type": "address"
        }
      ],
      "stateMutability": "view",
      "type": "function"
    },
    {
      "inputs": [],
      "name": "pause",
      "outputs": [],
      "stateMutability": "nonpayable",
      "type": "function"
    },
    {
      "inputs": [],
      "name": "paused",
      "outputs": [
        {
          "internalType": "bool",
          "name": "",
          "type": "bool"
        }
      ],
      "stateMutability": "view",
      "type": "function"
    },
    {
      "inputs": [
        {
          "internalType": "address",
          "name": "user",
          "type": "address"
        },
        {
          "internalType": "uint256",
          "name": "amount",
          "type": "uint256"
        }
      ],
      "name": "releaseMargin",
      "outputs": [],
      "stateMutability": "nonpayable",
      "type": "function"
    },
    {
      "inputs": [
        {
          "internalType": "address",
          "name": "user",
          "type": "address"
        },
        {
          "internalType": "uint256",
          "name": "amount",
          "type": "uint256"
        }
      ],
      "name": "reserveMargin",
      "outputs": [],
      "stateMutability": "nonpayable",
      "type": "function"
    },
    {
      "inputs": [
        {
          "internalType": "address",
          "name": "newFactory",
          "type": "address"
        }
      ],
      "name": "setFactory",
      "outputs": [],
      "stateMutability": "nonpayable",
      "type": "function"
    },
    {
      "inputs": [],
      "name": "totalCollateralDeposited",
      "outputs": [
        {
          "internalType": "uint256",
          "name": "",
          "type": "uint256"
        }
      ],
      "stateMutability": "view",
      "type": "function"
    },
    {
      "inputs": [],
      "name": "totalReservedMargin",
      "outputs": [
        {
          "internalType": "uint256",
          "name": "",
          "type": "uint256"
        }
      ],
      "stateMutability": "view",
      "type": "function"
    },
    {
      "inputs": [],
      "name": "totalUnrealizedPnL",
      "outputs": [
        {
          "internalType": "int256",
          "name": "",
          "type": "int256"
        }
      ],
      "stateMutability": "view",
      "type": "function"
    },
    {
      "inputs": [
        {
          "internalType": "address",
          "name": "newOwner",
          "type": "address"
        }
      ],
      "name": "transferOwnership",
      "outputs": [],
      "stateMutability": "nonpayable",
      "type": "function"
    },
    {
      "inputs": [],
      "name": "unpause",
      "outputs": [],
      "stateMutability": "nonpayable",
      "type": "function"
    },
    {
      "inputs": [
        {
          "internalType": "address",
          "name": "user",
          "type": "address"
        },
        {
          "internalType": "int256",
          "name": "pnlDelta",
          "type": "int256"
        }
      ],
      "name": "updatePnL",
      "outputs": [],
      "stateMutability": "nonpayable",
      "type": "function"
    },
    {
      "inputs": [
        {
          "internalType": "address",
          "name": "",
          "type": "address"
        },
        {
          "internalType": "address",
          "name": "",
          "type": "address"
        }
      ],
      "name": "vammAllocations",
      "outputs": [
        {
          "internalType": "uint256",
          "name": "reservedMargin",
          "type": "uint256"
        },
        {
          "internalType": "int256",
          "name": "unrealizedPnL",
          "type": "int256"
        },
        {
          "internalType": "uint256",
          "name": "activePositions",
          "type": "uint256"
        },
        {
          "internalType": "uint256",
          "name": "lastFundingUpdate",
          "type": "uint256"
        }
      ],
      "stateMutability": "view",
      "type": "function"
    },
    {
      "inputs": [
        {
          "internalType": "address",
          "name": "",
          "type": "address"
        }
      ],
      "name": "vammCategories",
      "outputs": [
        {
          "internalType": "string",
          "name": "",
          "type": "string"
        }
      ],
      "stateMutability": "view",
      "type": "function"
    },
    {
      "inputs": [
        {
          "internalType": "uint256",
          "name": "amount",
          "type": "uint256"
        }
      ],
      "name": "withdrawCollateral",
      "outputs": [],
      "stateMutability": "nonpayable",
      "type": "function"
    }
  ],
  "bytecode": "0x60a0346200022057601f62002d8738819003918201601f19168301916001600160401b038311848410176200022557808492604094855283398101031262000220576200005a602062000052836200023b565b92016200023b565b6001600160a01b0391821691908215620001695716908115620000bd5760805260018060a01b03199081600054161760005533906001541617600155604051612b369081620002518239608051818181610caf015281816110cd01526114110152f35b60405162461bcd60e51b815260206004820152607260248201527f43656e7472616c697a65645661756c743a20466163746f72792061646472657360448201527f732063616e6e6f74206265207a65726f202d206d7573742062652076616c696460648201527f204d657472696356414d4d466163746f727920636f6e747261637420666f72206084820152712b20a6a69030baba3437b934bd30ba34b7b760711b60a482015260c490fd5b60405162461bcd60e51b815260206004820152607f60248201527f43656e7472616c697a65645661756c743a20436f6c6c61746572616c20746f6b60448201527f656e20616464726573732063616e6e6f74206265207a65726f202d206d75737460648201527f2062652076616c696420455243323020636f6e7472616374206164647265737360848201527f20666f722055534443206f722073696d696c617220737461626c65636f696e0060a482015260c490fd5b600080fd5b634e487b7160e01b600052604160045260246000fd5b51906001600160a01b0382168203620002205756fe6080604052600436101561001257600080fd5b60003560e01c80622bc164146102c7578063071cbbd3146102c25780630aa14932146102bd5780630bf429d7146102b8578063124fea4f146102b357806316b0819e146102ae578063276ec286146102a957806329e509a3146102a45780632c8bab0e1461029f5780633c5c66b31461029a5780633e0cbabd146102955780633f4ba83a1461029057806351c9d67b1461028b5780635bb47808146102865780635c975abb146102815780636112fe2e1461027c5780636b4dceba14610213578063728e9ecc146102775780637569f4c8146102725780638456cb591461026d5780638da5cb5b146102685780639101e5b3146102635780639387fb2c1461025e57806395ccea671461025957806396423663146102455780639b8621d5146102545780639c498bc31461024f578063a9de314914610240578063aaf5eb681461024a578063b2016bd414610245578063b26025aa14610240578063b8b419741461023b578063bad4a01f14610236578063c1c7c9dd14610231578063c45a01551461022c578063c612350814610227578063c90ba3a614610222578063cb6256801461021d578063e346f57014610218578063e780264114610213578063ef9dc26f1461020e578063f2fde38b14610209578063f572eaeb146102045763fddc6086146101ff57600080fd5b611a30565b611a12565b61197e565b611801565b610d1f565b611730565b61166b565b61161f565b6115c3565b611572565b611532565b6113a8565b6111bd565b611182565b6110b7565b6111a0565b611119565b6110fc565b61101e565b611000565b610ef7565b610ece565b610e94565b610d7f565b610d61565b610bdd565b610bb7565b610b14565b610a80565b610a4c565b610a2e565b6109b4565b6108d9565b6106b5565b61056e565b6104c7565b61046d565b610450565b61041b565b6103d2565b610316565b6001600160a01b038116036102dd57565b600080fd5b91909160808060a0830194805184526020810151602085015260408101516040850152606081015160608501520151910152565b346102dd5760203660031901126102dd57600435610333816102cc565b61033b6129c2565b5060018060a01b03166000526002602052610398604060002060046040519161036383610832565b8054835260018101546020840152600281015460408401526003810154606084015201546080820152604051918291826102e2565b0390f35b634e487b7160e01b600052603260045260246000fd5b6006548110156103cd57600660005260206000200190600090565b61039c565b346102dd5760203660031901126102dd576004356006548110156102dd576006600052600080516020612ae183398151915201546040516001600160a01b039091168152602090f35b346102dd5760403660031901126102dd57602061044660043561043d816102cc565b6024359061296e565b6040519015158152f35b346102dd5760003660031901126102dd5760206040516101f48152f35b346102dd5760003660031901126102dd5760206040516123288152f35b90815180825260208080930193019160005b8281106104aa575050505090565b83516001600160a01b03168552938101939281019260010161049c565b346102dd5760203660031901126102dd576103986104ef6004356104ea816102cc565b6126fa565b90604094929451948594151585526020850152604084015260806060840152608083019061048a565b60406003198201126102dd57600435610530816102cc565b916001600160401b0391602435908382116102dd57806023830112156102dd5781600401359384116102dd57602484830101116102dd576024019190565b346102dd5761057c36610518565b909160018060a01b039061059582600054163314611fdc565b6105b06105ab6105a48361077d565b5460ff1690565b612274565b6105c66105bc8261077d565b805460ff19169055565b60005b6006548082101561067c576105f56105e0836103b2565b905460039190911b1c6001600160a01b031690565b84168385161461060e575061060990611b3a565b6105c9565b936106616106779261064261063c6105e0610637600080516020612ac18339815191529a611e10565b6103b2565b916103b2565b90919082549060031b9160018060a01b03809116831b921b1916179055565b6106696122bf565b60405193849316958361224c565b0390a2005b5050610677600080516020612ac183398151915293610669565b60409060031901126102dd576004356106ae816102cc565b9060243590565b346102dd576106c336610696565b60009133835260046020526106de60ff604085205416612317565b60018060a01b0316808352600260205260408320600360205261070433604086206107cb565b9060038101610714858254612659565b90556004429101556001810161072b848254612659565b905560034291015561074761074283600954612659565b600955565b60405191825233917fc7643f5b7ac84e222ef35c4648473da86ddecd9547fbd65f839aae63a15e38c59080602081015b0390a380f35b6001600160a01b0316600090815260046020526040902090565b6001600160a01b0316600090815260026020526040902090565b6001600160a01b0316600090815260036020526040902090565b9060018060a01b0316600052602052604060002090565b90600182811c92168015610812575b60208310146107fc57565b634e487b7160e01b600052602260045260246000fd5b91607f16916107f1565b634e487b7160e01b600052604160045260246000fd5b60a081019081106001600160401b0382111761084d57604052565b61081c565b608081019081106001600160401b0382111761084d57604052565b601f909101601f19168101906001600160401b0382119082101761084d57604052565b6020808252825181830181905290939260005b8281106108c557505060409293506000838284010152601f8019910116010190565b8181018601518482016040015285016108a3565b346102dd576020806003193601126102dd57600435906108f8826102cc565b60009160018060a01b03168252600581526040822090604051918381549061091f826107e2565b808652926001928084169081156109905750600114610955575b61039886610949818a038261086d565b60405191829182610890565b9080949650528483205b82841061097d57505050816103989361094992820101933880610939565b805485850187015292850192810161095f565b60ff19168787015250505050151560051b8201019150610949816103983880610939565b346102dd57600080600319360112610a2b5760405180918260065480845260208094019060068452848420935b85828210610a0c575050506109f89250038361086d565b61039860405192828493845283019061048a565b85546001600160a01b03168452600195860195889550930192016109e1565b80fd5b346102dd5760003660031901126102dd576020600954604051908152f35b346102dd5760003660031901126102dd57600154610a74336001600160a01b03831614612a55565b60ff60a01b1916600155005b346102dd5760003660031901126102dd57610a996129c2565b5060075460008115610b0a57506008549061271091828102928184041490151715610b0557610acb8161039893612937565b60085490600954600a549260405194610ae386610832565b85526020850152604084015260608301526080820152604051918291826102e2565b611b24565b9061039891610acb565b346102dd5760203660031901126102dd57600435610b31816102cc565b6001546001600160a01b039190610b4b9083163314612a55565b168015610b6857600080546001600160a01b031916919091179055005b60405162461bcd60e51b815260206004820152602160248201527f43656e7472616c697a65645661756c743a20696e76616c696420666163746f726044820152607960f81b6064820152608490fd5b346102dd5760003660031901126102dd57602060ff60015460a01c166040519015158152f35b346102dd5760203660031901126102dd57600435610c0360ff60015460a01c1615611add565b610c0e811515611c8d565b7fdaed309a628faec6cab72194019e2a1a34e890ca9bf9be99788992dd54692819610677610c3b33610797565b60018101610c84858254610c5182821015611d47565b610c5b8282611e1f565b506002850154158015610d06575b610c7290611e2c565b610c7d828654611e1f565b8555611e1f565b9055426004820155610ca0610c9b85600754611e1f565b600755565b805415610cee575b610cd384337f0000000000000000000000000000000000000000000000000000000000000000611f17565b54604051918291339583908152602081019190915260400190565b610d01610cfc600a54611f0a565b600a55565b610ca8565b50610c726101f4610d16336129ed565b10159050610c69565b346102dd5760203660031901126102dd57600435610d3c816102cc565b60018060a01b03166000526004602052602060ff604060002054166040519015158152f35b346102dd5760003660031901126102dd576020600a54604051908152f35b346102dd5760403660031901126102dd57600435610d9c816102cc565b602435336000526004602052610db960ff60406000205416612317565b610dcb60ff60015460a01c1615611add565b610dd681151561236f565b610ddf82610797565b60018101610dfa838254610df58282101561243b565b611e1f565b905560028101610e0b838254611b49565b90556004429101556002610e2733610e22856107b1565b6107cb565b610e32838254611b49565b815501610e3f8154611b3a565b9055610e55610e5082600854611b49565b600855565b60405190815233916001600160a01b0316907f90b442d67e77727832ebc3c074af99b9add7f07e3d3e17a72f57b555b8dbf6ba9080602081015b0390a3005b346102dd5760003660031901126102dd57600154610ebc336001600160a01b03831614612a55565b60ff60a01b1916600160a01b17600155005b346102dd5760003660031901126102dd576001546040516001600160a01b039091168152602090f35b346102dd5760403660031901126102dd57600435610f14816102cc565b602435336000526004602052610f3160ff60406000205416612317565b610f3c8115156124e6565b6002610f4783610797565b610f5433610e22866107b1565b90610f62848354101561259f565b60018101610f71858254611b49565b9055828101610f81858254611e1f565b9055600442910155610f94838254611e1f565b815501805480610fee575b5050610fb0610e5082600854611e1f565b60405190815233916001600160a01b0316907fac5c4e736822c313316ba6592347cca07d0b3790780e7b60e144039f283c8375908060208101610e8f565b610ff790611f0a565b90553880610f9f565b346102dd5760003660031901126102dd576020600854604051908152f35b346102dd5760403660031901126102dd5760043561103b816102cc565b6001546001600160a01b0391908281169060ff9061105a338414612a55565b60a01c161561107357611071926024359216611f17565b005b60405162461bcd60e51b815260206004820152601c60248201527b10d95b9d1c985b1a5e995915985d5b1d0e881b9bdd081c185d5cd95960221b6044820152606490fd5b346102dd5760003660031901126102dd576040517f00000000000000000000000000000000000000000000000000000000000000006001600160a01b03168152602090f35b346102dd5760003660031901126102dd5760206040516103e88152f35b346102dd5760203660031901126102dd57600435611136816102cc565b60018060a01b0316600052600260205260a06040600020805490600181015490600281015460046003830154920154926040519485526020850152604084015260608301526080820152f35b346102dd5760003660031901126102dd576020600754604051908152f35b346102dd5760003660031901126102dd5760206040516127108152f35b346102dd5760203660031901126102dd576004356111da816102cc565b600033815260046020526111f460ff604083205416612317565b604051630b5840cf60e11b81526001600160a01b03831660048201528181602481305afa80156113a35761122f91839161137e575b5061286b565b61123882610797565b906002908183019261125561124d8554612920565b612710900490565b938482548681101560001461136a5750611270908354611e1f565b8083559054808211156113625761128691611e1f565b60018201555b60044291015560065461129e816126b4565b92825b828110611301575050508152604051610398936001600160a01b0316917f13a5cd17e8786eb7432b4dcb3ba275ebeac921047f623a533a5f09b2c1137b8c919081906112ee908683612957565b0390a26040519081529081906020820190565b61130d6105e0826103b2565b8261131b82610e228b6107b1565b0154611331575b5061132c90611b3a565b6112a1565b8461135661135b9261134761132c95988a6126e6565b6001600160a01b039091169052565b611b3a565b9390611322565b505081611286565b92955050509281815581600182015561128c565b61139a91503d8085833e611392818361086d565b8101906127c4565b50505038611229565b61285f565b346102dd5760203660031901126102dd576004356113ce60ff60015460a01c1615611add565b801561147b577ff4d587c98d234ca4d147061e6b5167e7f41ee17f11562a9f0b49570abece859e61067761140133610797565b805415611468575b6114358430337f0000000000000000000000000000000000000000000000000000000000000000611bb6565b611440848254611b49565b815560018101611451858254611b49565b9055426004820155610cd3610c9b85600754611b49565b611476610cfc600a54611b3a565b611409565b60405162461bcd60e51b815260206004820152607e60248201527f43656e7472616c697a65645661756c743a204465706f73697420616d6f756e7460448201527f206d7573742062652067726561746572207468616e207a65726f202d2063616e60648201527f6e6f74206465706f736974207a65726f20636f6c6c61746572616c206173206960848201527f742070726f7669646573206e6f2074726164696e67206361706163697479000060a482015260c490fd5b346102dd5760203660031901126102dd5760043561154f816102cc565b60018060a01b031660005260026020526020600160406000200154604051908152f35b346102dd5760003660031901126102dd576000546040516001600160a01b039091168152602090f35b60409060031901126102dd576004356115b3816102cc565b906024356115c0816102cc565b90565b346102dd5760806115f46115d63661159b565b6001600160a01b0390911660009081526003602052604090206107cb565b8054906001810154906003600282015491015491604051938452602084015260408301526060820152f35b346102dd5760203660031901126102dd5760043561163c816102cc565b60018060a01b03166000526002602052602061166360406000206003815491015490612659565b604051908152f35b346102dd5761167936610696565b600091338352600460205261169460ff604085205416612317565b60018060a01b031680835260026020527f84fcf563e396e139bd5421191f4f774851937bdf17f1daaf021a7a190602f45461077760408520600360205260016116e033604089206107cb565b60038301926116f0888554612659565b845560044291015501611704868254612659565b905561171561074286600954612659565b54604051918291339683908152602081019190915260400190565b346102dd576020806003193601126102dd5760043561174e816102cc565b600060018060a01b03821692838252600292838252604080842095865495600188015497611781600380920154956129ed565b958793600654945b8581106117b65786518b8152602081018d905260408101899052606081018a9052608081018b905260a090f35b81600052838352846117d7886000206117d16105e0856103b2565b906107cb565b01546117ec575b6117e790611b3a565b611789565b986117f96117e791611b3a565b9990506117de565b346102dd5761180f36610518565b6000549192916001600160a01b039061182b9082163314611fdc565b82169283156118c7576118b88361187461186f61186b6105a47f960d30395a26c945bf73bc633ecf7d7f06b2328f574553662d6b1c3ba7b008b09861077d565b1590565b612028565b61188d6118808261077d565b805460ff19166001179055565b6118b384846118ae8460018060a01b03166000526005602052604060002090565b612133565b6121fa565b6106776040519283928361224c565b60405162461bcd60e51b815260206004820152607d60248201527f43656e7472616c697a65645661756c743a2056414d4d2061646472657373206360448201527f616e6e6f74206265207a65726f202d206d7573742062652076616c696420646560648201527f706c6f796564205370656369616c697a65644d657472696356414d4d20636f6e60848201527f747261637420666f7220706f736974696f6e206d616e6167656d656e7400000060a482015260c490fd5b346102dd5760203660031901126102dd5760043561199b816102cc565b600154906001600160a01b03906119b53383851614612a55565b169081156119cd576001600160a01b03191617600155005b60405162461bcd60e51b815260206004820152601f60248201527f43656e7472616c697a65645661756c743a20696e76616c6964206f776e6572006044820152606490fd5b346102dd5760003660031901126102dd576020600654604051908152f35b346102dd576103986060611a81611a463661159b565b9060409384918251611a5781610852565b60009281848093528260208201528286820152015260018060a01b031681526003602052206107cb565b906003815192611a9084610852565b805484526001810154602085015260028101548385015201546060830152519182918291909160608060808301948051845260208101516020850152604081015160408501520151910152565b15611ae457565b60405162461bcd60e51b815260206004820152601860248201527710d95b9d1c985b1a5e995915985d5b1d0e881c185d5cd95960421b6044820152606490fd5b634e487b7160e01b600052601160045260246000fd5b6000198114610b055760010190565b91908201809211610b0557565b3d15611b90573d906001600160401b03821161084d5760405191611b84601f8201601f19166020018461086d565b82523d6000602084013e565b606090565b519081151582036102dd57565b908160209103126102dd576115c090611b95565b6040516323b872dd60e01b602082019081526001600160a01b0393841660248301529383166044820152606480820195909552938452600093849391928491611bfe81610832565b5193165af1611c0b611b56565b81611c5e575b5015611c1957565b60405162461bcd60e51b815260206004820152601e60248201527f5361666545524332303a207472616e7366657246726f6d206661696c656400006044820152606490fd5b8051801592508215611c73575b505038611c11565b611c869250602080918301019101611ba2565b3880611c6b565b15611c9457565b60405162461bcd60e51b815260206004820152607960248201527f43656e7472616c697a65645661756c743a205769746864726177616c20616d6f60448201527f756e74206d7573742062652067726561746572207468616e207a65726f202d2060648201527f63616e6e6f74207769746864726177207a65726f20636f6c6c61746572616c20608482015278185cc81a5d081c1c9bdd9a59195cc81b9bc818995b99599a5d603a1b60a482015260c490fd5b15611d4e57565b60405162461bcd60e51b81526020600482015260946024820152600080516020612aa183398151915260448201527f7661696c61626c6520636f6c6c61746572616c202d207265717565737465642060648201527f7769746864726177616c2065786365656473206e6f6e2d72657365727665642060848201527f62616c616e63652028736f6d6520636f6c6c61746572616c206c6f636b65642060a482015273696e2061637469766520706f736974696f6e732960601b60c482015260e490fd5b600019810191908211610b0557565b91908203918211610b0557565b15611e3357565b60405162461bcd60e51b815260206004820152609760248201527f43656e7472616c697a65645661756c743a205769746864726177616c20776f7560448201527f6c642076696f6c617465206d61696e74656e616e6365206d617267696e202d2060648201527f706f73742d7769746864726177616c206d617267696e20726174696f20776f7560848201527f6c642066616c6c2062656c6f77203525206d696e696d756d207468726573686f60a482015276363216103934b9b5b4b733903634b8bab4b230ba34b7b760491b60c482015260e490fd5b8015610b05576000190190565b600092838093604051602081019363a9059cbb60e01b855260018060a01b038093166024830152604482015260448152611f5081610852565b5193165af1611f5d611b56565b81611fad575b5015611f6b57565b60405162461bcd60e51b815260206004820152601a60248201527914d85999515490cc8c0e881d1c985b9cd9995c8819985a5b195960321b6044820152606490fd5b8051801592508215611fc2575b505038611f63565b611fd59250602080918301019101611ba2565b3880611fba565b15611fe357565b60405162461bcd60e51b815260206004820152601e60248201527f43656e7472616c697a65645661756c743a206f6e6c7920666163746f727900006044820152606490fd5b1561202f57565b60405162461bcd60e51b815260206004820152607660248201527f43656e7472616c697a65645661756c743a2056414d4d20616c7265616479206160448201527f7574686f72697a6564202d2063616e6e6f742072652d617574686f72697a652060648201527f73616d6520636f6e747261637420616464726573732028776f756c6420637265608482015275617465206475706c696361746520656e74726965732960501b60a482015260c490fd5b90601f81116120ed57505050565b600091825260208220906020601f850160051c83019410612129575b601f0160051c01915b82811061211e57505050565b818155600101612112565b9092508290612109565b9092916001600160401b03811161084d576121588161215284546107e2565b846120df565b6000601f82116001146121925781929394600092612187575b50508160011b916000199060031b1c1916179055565b013590503880612171565b601f198216946121a784600052602060002090565b91805b8781106121e25750836001959697106121c8575b505050811b019055565b0135600019600384901b60f8161c191690553880806121be565b909260206001819286860135815501940191016121aa565b600654600160401b81101561084d5760018101806006558110156103cd576006600052600080516020612ae18339815191520180546001600160a01b0319166001600160a01b03909216919091179055565b90918060409360208452816020850152848401376000828201840152601f01601f1916010190565b1561227b57565b606460405162461bcd60e51b815260206004820152602060248201527f43656e7472616c697a65645661756c743a206e6f7420617574686f72697a65646044820152fd5b60065480156123015760001981810191808310156103cd57600660008190529101600080516020612ae18339815191520180546001600160a01b031916905555565b634e487b7160e01b600052603160045260246000fd5b1561231e57565b60405162461bcd60e51b815260206004820152602360248201527f43656e7472616c697a65645661756c743a20756e617574686f72697a65642056604482015262414d4d60e81b6064820152608490fd5b1561237657565b60405162461bcd60e51b815260206004820152608560248201527f43656e7472616c697a65645661756c743a204d617267696e207265736572766160448201527f74696f6e20616d6f756e74206d7573742062652067726561746572207468616e60648201527f207a65726f202d2063616e6e6f742072657365727665207a65726f206d61726760848201527f696e2061732069742070726f7669646573206e6f20706f736974696f6e20626160a482015264636b696e6760d81b60c482015260e490fd5b1561244257565b60405162461bcd60e51b815260206004820152607c6024820152600080516020612aa183398151915260448201527f7661696c61626c6520636f6c6c61746572616c20666f72206d617267696e207260648201527f65736572766174696f6e202d2075736572206c61636b73206672656520636f6c60848201527b3630ba32b930b6103a37903130b1b5903732bb903837b9b4ba34b7b760211b60a482015260c490fd5b156124ed57565b60405162461bcd60e51b815260206004820152607860248201527f43656e7472616c697a65645661756c743a204d617267696e2072656c6561736560448201527f20616d6f756e74206d7573742062652067726561746572207468616e207a657260648201527f6f202d2063616e6e6f742072656c65617365207a65726f206d617267696e20616084820152771cc81a5d08199c99595cc81b9bc818dbdb1b185d195c985b60421b60a482015260c490fd5b156125a657565b60405162461bcd60e51b815260206004820152607960248201527f43656e7472616c697a65645661756c743a20496e73756666696369656e74207260448201527f65736572766564206d617267696e20666f722072656c65617365202d2072657160648201527f75657374696e672056414d4d20686173206e6f7420726573657276656420656e60848201527837bab3b41036b0b933b4b7103337b9103a3434b9903ab9b2b960391b60a482015260c490fd5b91909160008382019384129112908015821691151617610b0557565b6001600160401b03811161084d5760051b60200190565b604051602081016001600160401b0381118282101761084d5760405260008152906000368137565b906126be82612675565b6126cb604051918261086d565b82815280926126dc601f1991612675565b0190602036910137565b80518210156103cd5760209160051b010190565b60028061270683610797565b01549283156127ad57612718836129ed565b92600654612725816126b4565b9360008093815b84811061274557505050505082526101f4831093929190565b6127516105e0826103b2565b61275e81610e22856107b1565b84868201541515918261279f575b5050612782575b5061277d90611b3a565b61272c565b866113566127989261134761277d959a8d6126e6565b9590612773565b60010154129050843861276c565b925050506127b961268c565b600091829161271091565b6080818303126102dd576127d781611b95565b92602092838301519360408401519360608101519060018060401b0382116102dd57019180601f840112156102dd57825161281181612675565b9361281f604051958661086d565b818552838086019260051b8201019283116102dd578301905b828210612846575050505090565b8380918351612854816102cc565b815201910190612838565b6040513d6000823e3d90fd5b1561287257565b60405162461bcd60e51b815260206004820152607460248201527f43656e7472616c697a65645661756c743a2055736572206e6f74206174206c6960448201527f717569646174696f6e207269736b202d206d617267696e20726174696f20616260648201527f6f7665206d61696e74656e616e6365207468726573686f6c642c206c6971756960848201527319185d1a5bdb881b9bdd081a9d5cdd1a599a595960621b60a482015260c490fd5b906103e891828102928184041490151715610b0557565b8115612941570490565b634e487b7160e01b600052601260045260246000fd5b6040906115c093928152816020820152019061048a565b6001600160a01b038116600090815260026020526040902060018101549192908183106129b9576002015481810110610b0557810311610b05576129b46101f4916129ed565b101590565b50505050600090565b604051906129cf82610832565b60006080838281528260208201528260408201528260608201520152565b60018060a01b0316600052600260205260406000206002810154908115612a4d57806003612a1f925491015490612659565b906000821315612a465761271091828102928184041490151715610b05576115c091612937565b5050600090565b505061271090565b15612a5c57565b60405162461bcd60e51b815260206004820152601c60248201527b21b2b73a3930b634bd32b22b30bab63a1d1037b7363c9037bbb732b960211b6044820152606490fdfe43656e7472616c697a65645661756c743a20496e73756666696369656e742061440c401e8e55a4f3c5f3d415ec1115b97566c609be762136988a7958e80fa654f652222313e28459528d920b65115c16c04f3efc82aaedc97be59f3f377c0d3fa264697066735822122061ac0ca9328222c090fa01b3dd779b7967773bb39519ed2e8f43250a5dfe56f664736f6c63430008140033",
  "linkReferences": {},
  "deployedLinkReferences": {}
}