{
  "_format": "hh-sol-artifact-1",
  "contractName": "MockPriceOracle",
  "sourceName": "contracts/MockPriceOracle.sol",
  "abi": [
    {
      "inputs": [
        {
          "internalType": "uint256",
          "name": "_initialPrice",
          "type": "uint256"
        }
      ],
      "stateMutability": "nonpayable",
      "type": "constructor"
    },
    {
      "anonymous": false,
      "inputs": [
        {
          "indexed": false,
          "internalType": "uint256",
          "name": "newAge",
          "type": "uint256"
        }
      ],
      "name": "MaxPriceAgeUpdated",
      "type": "event"
    },
    {
      "anonymous": false,
      "inputs": [
        {
          "indexed": false,
          "internalType": "bool",
          "name": "active",
          "type": "bool"
        }
      ],
      "name": "OracleStatusChanged",
      "type": "event"
    },
    {
      "anonymous": false,
      "inputs": [
        {
          "indexed": false,
          "internalType": "uint256",
          "name": "newPrice",
          "type": "uint256"
        },
        {
          "indexed": false,
          "internalType": "uint256",
          "name": "timestamp",
          "type": "uint256"
        }
      ],
      "name": "PriceUpdated",
      "type": "event"
    },
    {
      "inputs": [],
      "name": "active",
      "outputs": [
        {
          "internalType": "bool",
          "name": "",
          "type": "bool"
        }
      ],
      "stateMutability": "view",
      "type": "function"
    },
    {
      "inputs": [],
      "name": "getMaxPriceAge",
      "outputs": [
        {
          "internalType": "uint256",
          "name": "",
          "type": "uint256"
        }
      ],
      "stateMutability": "view",
      "type": "function"
    },
    {
      "inputs": [],
      "name": "getPrice",
      "outputs": [
        {
          "internalType": "uint256",
          "name": "",
          "type": "uint256"
        }
      ],
      "stateMutability": "view",
      "type": "function"
    },
    {
      "inputs": [],
      "name": "getPriceWithTimestamp",
      "outputs": [
        {
          "internalType": "uint256",
          "name": "",
          "type": "uint256"
        },
        {
          "internalType": "uint256",
          "name": "",
          "type": "uint256"
        }
      ],
      "stateMutability": "view",
      "type": "function"
    },
    {
      "inputs": [],
      "name": "isActive",
      "outputs": [
        {
          "internalType": "bool",
          "name": "",
          "type": "bool"
        }
      ],
      "stateMutability": "view",
      "type": "function"
    },
    {
      "inputs": [],
      "name": "maxPriceAge",
      "outputs": [
        {
          "internalType": "uint256",
          "name": "",
          "type": "uint256"
        }
      ],
      "stateMutability": "view",
      "type": "function"
    },
    {
      "inputs": [],
      "name": "owner",
      "outputs": [
        {
          "internalType": "address",
          "name": "",
          "type": "address"
        }
      ],
      "stateMutability": "view",
      "type": "function"
    },
    {
      "inputs": [
        {
          "internalType": "bool",
          "name": "_active",
          "type": "bool"
        }
      ],
      "name": "setActive",
      "outputs": [],
      "stateMutability": "nonpayable",
      "type": "function"
    },
    {
      "inputs": [
        {
          "internalType": "uint256",
          "name": "_maxAge",
          "type": "uint256"
        }
      ],
      "name": "setMaxPriceAge",
      "outputs": [],
      "stateMutability": "nonpayable",
      "type": "function"
    },
    {
      "inputs": [
        {
          "internalType": "int256",
          "name": "changePercent",
          "type": "int256"
        }
      ],
      "name": "simulatePriceMovement",
      "outputs": [],
      "stateMutability": "nonpayable",
      "type": "function"
    },
    {
      "inputs": [
        {
          "internalType": "address",
          "name": "newOwner",
          "type": "address"
        }
      ],
      "name": "transferOwnership",
      "outputs": [],
      "stateMutability": "nonpayable",
      "type": "function"
    },
    {
      "inputs": [
        {
          "internalType": "uint256",
          "name": "_newPrice",
          "type": "uint256"
        }
      ],
      "name": "updatePrice",
      "outputs": [],
      "stateMutability": "nonpayable",
      "type": "function"
    }
  ],
  "bytecode": "0x60803461007b57601f61073738819003918201601f19168301916001600160401b038311848410176100805780849260209460405283398101031261007b5751610e106003556004805460ff19166001908117909155600080546001600160a01b0319163317905555426002556040516106a090816100978239f35b600080fd5b634e487b7160e01b600052604160045260246000fdfe6080604081815260048036101561001557600080fd5b600092833560e01c90816302fb0c5e146105a7575080631584410a1461035e57806322f3e2d41461056457806356447ce8146104ca5780638d6cc56d146104255780638da5cb5b146103fd57806398d5fdca14610381578063a432cc8c1461035e578063acec338a146102ee578063e7dd43d2146102b9578063f2fde38b146102285763fca7303a146100a757600080fd5b34610224576020366003190112610224578035906100cf60018060a01b03855416331461062a565b6113871982121580610218575b156101d557600154918483129080840290600160ff1b811483166101c25784820514841517156101af576127109005809301928312801582169115161761019c5783821315610160575090817f945c1c4e99aa89f648fbfe3df471b916f719e16d960fcec0737d4d56bd69683892600155426002558151908152426020820152a180f35b606490602084519162461bcd60e51b8352820152601660248201527513dc9858db194e881a5b9d985b1a59081c995cdd5b1d60521b6044820152fd5b634e487b7160e01b845260119052602483fd5b634e487b7160e01b865260118352602486fd5b634e487b7160e01b875260118452602487fd5b606490602084519162461bcd60e51b8352820152601860248201527f4f7261636c653a206368616e676520746f6f206c6172676500000000000000006044820152fd5b506113888213156100dc565b8280fd5b509034610224576020366003190112610224576001600160a01b038235818116939192908490036102b5576102628554938416331461062a565b831561027a5750506001600160a01b03191617815580f35b906020606492519162461bcd60e51b8352820152601560248201527427b930b1b6329d1034b73b30b634b21037bbb732b960591b6044820152fd5b8480fd5b5082346102eb57806003193601126102eb575060ff6102d99154166105c8565b60015460025482519182526020820152f35b80fd5b503461022457602036600319011261022457803580151580910361035a577f25de6ecc0a07bc4466fd80484cf3004b609d934030530ddde3ae04b8da1da2499260209261034560018060a01b03875416331461062a565b60ff1981541660ff841617905551908152a180f35b8380fd5b50503461037d578160031936011261037d576020906003549051908152f35b5080fd5b5082346102eb57806003193601126102eb57506103a160ff8254166105c8565b6103b060025460035490610607565b42116103c3576020826001549051908152f35b6020606492519162461bcd60e51b8352820152601560248201527413dc9858db194e881c1c9a58d9481d1bdbc81bdb19605a1b6044820152fd5b50503461037d578160031936011261037d57905490516001600160a01b039091168152602090f35b50346102245760203660031901126102245780359061044e60018060a01b03855416331461062a565b811561048f575090817f945c1c4e99aa89f648fbfe3df471b916f719e16d960fcec0737d4d56bd69683892600155426002558151908152426020820152a180f35b606490602084519162461bcd60e51b835282015260156024820152744f7261636c653a20696e76616c696420707269636560581b6044820152fd5b509034610224576020366003190112610224578135916104f460018060a01b03855416331461062a565b821561052c5750816020917fb1740bfafb685e9cda34b9238959b40d11f603ba6db685c0468d4804140547b49360035551908152a180f35b6020606492519162461bcd60e51b835282015260136024820152724f7261636c653a20696e76616c69642061676560681b6044820152fd5b5091346102eb57806003193601126102eb575060ff6020925416908161058d575b519015158152f35b905061059e60025460035490610607565b42111590610585565b905083346102eb57806003193601126102eb575060ff602092541615158152f35b156105cf57565b60405162461bcd60e51b815260206004820152601060248201526f4f7261636c653a20696e61637469766560801b6044820152606490fd5b9190820180921161061457565b634e487b7160e01b600052601160045260246000fd5b1561063157565b60405162461bcd60e51b815260206004820152601160248201527027b930b1b6329d103737ba1037bbb732b960791b6044820152606490fdfea26469706673582212201dd36b63cef8b3775c5418d53d8beb427d92fd0a083b3f0df9dabffbb327d36264736f6c63430008140033",
  "linkReferences": {},
  "deployedLinkReferences": {}
}