{
  "_format": "hh-sol-artifact-1",
  "contractName": "SimplePriceOracle",
  "sourceName": "contracts/SimplePriceOracle.sol",
  "abi": [
    {
      "inputs": [
        {
          "internalType": "uint256",
          "name": "_initialPrice",
          "type": "uint256"
        }
      ],
      "stateMutability": "nonpayable",
      "type": "constructor"
    },
    {
      "anonymous": false,
      "inputs": [
        {
          "indexed": false,
          "internalType": "uint256",
          "name": "newPrice",
          "type": "uint256"
        },
        {
          "indexed": false,
          "internalType": "uint256",
          "name": "timestamp",
          "type": "uint256"
        }
      ],
      "name": "PriceUpdated",
      "type": "event"
    },
    {
      "inputs": [],
      "name": "getPrice",
      "outputs": [
        {
          "internalType": "uint256",
          "name": "",
          "type": "uint256"
        }
      ],
      "stateMutability": "view",
      "type": "function"
    },
    {
      "inputs": [],
      "name": "owner",
      "outputs": [
        {
          "internalType": "address",
          "name": "",
          "type": "address"
        }
      ],
      "stateMutability": "view",
      "type": "function"
    },
    {
      "inputs": [
        {
          "internalType": "address",
          "name": "newOwner",
          "type": "address"
        }
      ],
      "name": "transferOwnership",
      "outputs": [],
      "stateMutability": "nonpayable",
      "type": "function"
    },
    {
      "inputs": [
        {
          "internalType": "uint256",
          "name": "newPrice",
          "type": "uint256"
        }
      ],
      "name": "updatePrice",
      "outputs": [],
      "stateMutability": "nonpayable",
      "type": "function"
    }
  ],
  "bytecode": "0x60803461009557601f6102d138819003918201601f19168301916001600160401b0383118484101761009a578084926020946040528339810103126100955751600080546001600160a01b031916331790556001819055604080519182524260208301527f945c1c4e99aa89f648fbfe3df471b916f719e16d960fcec0737d4d56bd69683891a160405161022090816100b18239f35b600080fd5b634e487b7160e01b600052604160045260246000fdfe604060808152600436101561001357600080fd5b600090813560e01c80638d6cc56d146101195780638da5cb5b146100f257806398d5fdca146100d45763f2fde38b1461004b57600080fd5b346100d05760203660031901126100d0576001600160a01b0360043581811692908390036100cc57610082845492831633146101b2565b821561009957506001600160a01b03191617815580f35b5162461bcd60e51b815260206004820152600d60248201526c24b73b30b634b21037bbb732b960991b6044820152606490fd5b8380fd5b5080fd5b50346100d057816003193601126100d0576020906001549051908152f35b50346100d057816003193601126100d057905490516001600160a01b039091168152602090f35b50346100d05760203660031901126100d05760043561014260018060a01b0384541633146101b2565b801561017e5790817f945c1c4e99aa89f648fbfe3df471b916f719e16d960fcec0737d4d56bd696838926001558151908152426020820152a180f35b815162461bcd60e51b815260206004820152600d60248201526c496e76616c696420707269636560981b6044820152606490fd5b156101b957565b60405162461bcd60e51b81526020600482015260096024820152682737ba1037bbb732b960b91b6044820152606490fdfea264697066735822122077398df3ad5899abba171bd0dfe38f6eb82139b4dbed6822f6cc92102979101964736f6c63430008140033",
  "linkReferences": {},
  "deployedLinkReferences": {}
}