{
  "_format": "hh-sol-artifact-1",
  "contractName": "AutomationFundingManager",
  "sourceName": "contracts/core/AutomationFundingManager.sol",
  "abi": [
    {
      "inputs": [
        {
          "internalType": "address",
          "name": "_treasury",
          "type": "address"
        },
        {
          "internalType": "address",
          "name": "_limitOrderManager",
          "type": "address"
        }
      ],
      "stateMutability": "nonpayable",
      "type": "constructor"
    },
    {
      "anonymous": false,
      "inputs": [
        {
          "indexed": false,
          "internalType": "bool",
          "name": "enabled",
          "type": "bool"
        }
      ],
      "name": "AutomationStatusChanged",
      "type": "event"
    },
    {
      "anonymous": false,
      "inputs": [
        {
          "indexed": false,
          "internalType": "uint256",
          "name": "usdcSpent",
          "type": "uint256"
        },
        {
          "indexed": false,
          "internalType": "uint256",
          "name": "linkReceived",
          "type": "uint256"
        },
        {
          "indexed": false,
          "internalType": "uint256",
          "name": "price",
          "type": "uint256"
        }
      ],
      "name": "LinkPurchased",
      "type": "event"
    },
    {
      "anonymous": false,
      "inputs": [
        {
          "indexed": false,
          "internalType": "uint256",
          "name": "treasuryAmount",
          "type": "uint256"
        },
        {
          "indexed": false,
          "internalType": "uint256",
          "name": "protocolAmount",
          "type": "uint256"
        }
      ],
      "name": "RevenueDistributed",
      "type": "event"
    },
    {
      "anonymous": false,
      "inputs": [
        {
          "indexed": true,
          "internalType": "address",
          "name": "from",
          "type": "address"
        },
        {
          "indexed": false,
          "internalType": "uint256",
          "name": "amount",
          "type": "uint256"
        },
        {
          "indexed": false,
          "internalType": "uint256",
          "name": "totalCollected",
          "type": "uint256"
        }
      ],
      "name": "USDCCollected",
      "type": "event"
    },
    {
      "anonymous": false,
      "inputs": [
        {
          "indexed": false,
          "internalType": "uint256",
          "name": "upkeepId",
          "type": "uint256"
        },
        {
          "indexed": false,
          "internalType": "uint256",
          "name": "linkAmount",
          "type": "uint256"
        }
      ],
      "name": "UpkeepFunded",
      "type": "event"
    },
    {
      "anonymous": false,
      "inputs": [
        {
          "indexed": false,
          "internalType": "uint256",
          "name": "upkeepId",
          "type": "uint256"
        },
        {
          "indexed": false,
          "internalType": "string",
          "name": "name",
          "type": "string"
        }
      ],
      "name": "UpkeepRegistered",
      "type": "event"
    },
    {
      "inputs": [],
      "name": "AUTOMATION_REGISTRY",
      "outputs": [
        {
          "internalType": "contract AutomationRegistryInterface2_0",
          "name": "",
          "type": "address"
        }
      ],
      "stateMutability": "view",
      "type": "function"
    },
    {
      "inputs": [],
      "name": "BASIS_POINTS",
      "outputs": [
        {
          "internalType": "uint256",
          "name": "",
          "type": "uint256"
        }
      ],
      "stateMutability": "view",
      "type": "function"
    },
    {
      "inputs": [],
      "name": "LINK_BUFFER",
      "outputs": [
        {
          "internalType": "uint256",
          "name": "",
          "type": "uint256"
        }
      ],
      "stateMutability": "view",
      "type": "function"
    },
    {
      "inputs": [],
      "name": "LINK_TOKEN",
      "outputs": [
        {
          "internalType": "contract LinkTokenInterface",
          "name": "",
          "type": "address"
        }
      ],
      "stateMutability": "view",
      "type": "function"
    },
    {
      "inputs": [],
      "name": "MIN_LINK_BALANCE",
      "outputs": [
        {
          "internalType": "uint256",
          "name": "",
          "type": "uint256"
        }
      ],
      "stateMutability": "view",
      "type": "function"
    },
    {
      "inputs": [],
      "name": "PROTOCOL_SHARE",
      "outputs": [
        {
          "internalType": "uint256",
          "name": "",
          "type": "uint256"
        }
      ],
      "stateMutability": "view",
      "type": "function"
    },
    {
      "inputs": [],
      "name": "REFILL_AMOUNT",
      "outputs": [
        {
          "internalType": "uint256",
          "name": "",
          "type": "uint256"
        }
      ],
      "stateMutability": "view",
      "type": "function"
    },
    {
      "inputs": [],
      "name": "SWAP_ROUTER",
      "outputs": [
        {
          "internalType": "contract ISwapRouter",
          "name": "",
          "type": "address"
        }
      ],
      "stateMutability": "view",
      "type": "function"
    },
    {
      "inputs": [],
      "name": "TREASURY_SHARE",
      "outputs": [
        {
          "internalType": "uint256",
          "name": "",
          "type": "uint256"
        }
      ],
      "stateMutability": "view",
      "type": "function"
    },
    {
      "inputs": [],
      "name": "USDC",
      "outputs": [
        {
          "internalType": "address",
          "name": "",
          "type": "address"
        }
      ],
      "stateMutability": "view",
      "type": "function"
    },
    {
      "inputs": [],
      "name": "WETH",
      "outputs": [
        {
          "internalType": "address",
          "name": "",
          "type": "address"
        }
      ],
      "stateMutability": "view",
      "type": "function"
    },
    {
      "inputs": [],
      "name": "autoFundingEnabled",
      "outputs": [
        {
          "internalType": "bool",
          "name": "",
          "type": "bool"
        }
      ],
      "stateMutability": "view",
      "type": "function"
    },
    {
      "inputs": [],
      "name": "automationCheckInterval",
      "outputs": [
        {
          "internalType": "uint256",
          "name": "",
          "type": "uint256"
        }
      ],
      "stateMutability": "view",
      "type": "function"
    },
    {
      "inputs": [
        {
          "internalType": "uint256",
          "name": "usdcAmount",
          "type": "uint256"
        }
      ],
      "name": "buyLinkWithUSDC",
      "outputs": [],
      "stateMutability": "nonpayable",
      "type": "function"
    },
    {
      "inputs": [],
      "name": "cancelUpkeep",
      "outputs": [],
      "stateMutability": "nonpayable",
      "type": "function"
    },
    {
      "inputs": [
        {
          "internalType": "address",
          "name": "user",
          "type": "address"
        },
        {
          "internalType": "uint256",
          "name": "usdcAmount",
          "type": "uint256"
        }
      ],
      "name": "collectAutomationFee",
      "outputs": [],
      "stateMutability": "nonpayable",
      "type": "function"
    },
    {
      "inputs": [],
      "name": "distributeRevenue",
      "outputs": [],
      "stateMutability": "nonpayable",
      "type": "function"
    },
    {
      "inputs": [
        {
          "internalType": "address",
          "name": "token",
          "type": "address"
        }
      ],
      "name": "emergencyWithdraw",
      "outputs": [],
      "stateMutability": "nonpayable",
      "type": "function"
    },
    {
      "inputs": [
        {
          "internalType": "uint256",
          "name": "linkAmount",
          "type": "uint256"
        }
      ],
      "name": "fundUpkeep",
      "outputs": [],
      "stateMutability": "nonpayable",
      "type": "function"
    },
    {
      "inputs": [],
      "name": "getFinancialSummary",
      "outputs": [
        {
          "internalType": "uint256",
          "name": "totalUSDCCollectedAmount",
          "type": "uint256"
        },
        {
          "internalType": "uint256",
          "name": "totalLinkPurchasedAmount",
          "type": "uint256"
        },
        {
          "internalType": "uint256",
          "name": "totalLinkSpentAmount",
          "type": "uint256"
        },
        {
          "internalType": "uint256",
          "name": "currentUSDCBalance",
          "type": "uint256"
        },
        {
          "internalType": "uint256",
          "name": "currentLinkBalance",
          "type": "uint256"
        },
        {
          "internalType": "uint256",
          "name": "lastPurchaseTime",
          "type": "uint256"
        }
      ],
      "stateMutability": "view",
      "type": "function"
    },
    {
      "inputs": [],
      "name": "getUpkeepInfo",
      "outputs": [
        {
          "internalType": "uint256",
          "name": "id",
          "type": "uint256"
        },
        {
          "internalType": "uint256",
          "name": "balance",
          "type": "uint256"
        },
        {
          "internalType": "bool",
          "name": "needsFunding",
          "type": "bool"
        },
        {
          "internalType": "uint256",
          "name": "linkBalance",
          "type": "uint256"
        },
        {
          "internalType": "uint256",
          "name": "usdcBalance",
          "type": "uint256"
        }
      ],
      "stateMutability": "view",
      "type": "function"
    },
    {
      "inputs": [],
      "name": "lastAutomationCheck",
      "outputs": [
        {
          "internalType": "uint256",
          "name": "",
          "type": "uint256"
        }
      ],
      "stateMutability": "view",
      "type": "function"
    },
    {
      "inputs": [],
      "name": "lastLinkPurchase",
      "outputs": [
        {
          "internalType": "uint256",
          "name": "",
          "type": "uint256"
        }
      ],
      "stateMutability": "view",
      "type": "function"
    },
    {
      "inputs": [],
      "name": "limitOrderManager",
      "outputs": [
        {
          "internalType": "address",
          "name": "",
          "type": "address"
        }
      ],
      "stateMutability": "view",
      "type": "function"
    },
    {
      "inputs": [],
      "name": "owner",
      "outputs": [
        {
          "internalType": "address",
          "name": "",
          "type": "address"
        }
      ],
      "stateMutability": "view",
      "type": "function"
    },
    {
      "inputs": [],
      "name": "performMaintenance",
      "outputs": [],
      "stateMutability": "nonpayable",
      "type": "function"
    },
    {
      "inputs": [
        {
          "internalType": "string",
          "name": "name",
          "type": "string"
        },
        {
          "internalType": "bytes",
          "name": "encryptedEmail",
          "type": "bytes"
        },
        {
          "internalType": "address",
          "name": "upkeepContract",
          "type": "address"
        },
        {
          "internalType": "uint32",
          "name": "gasLimit",
          "type": "uint32"
        },
        {
          "internalType": "bytes",
          "name": "checkData",
          "type": "bytes"
        },
        {
          "internalType": "uint96",
          "name": "amount",
          "type": "uint96"
        }
      ],
      "name": "registerUpkeep",
      "outputs": [
        {
          "internalType": "uint256",
          "name": "",
          "type": "uint256"
        }
      ],
      "stateMutability": "nonpayable",
      "type": "function"
    },
    {
      "inputs": [
        {
          "internalType": "bool",
          "name": "_enabled",
          "type": "bool"
        }
      ],
      "name": "setAutoFundingEnabled",
      "outputs": [],
      "stateMutability": "nonpayable",
      "type": "function"
    },
    {
      "inputs": [
        {
          "internalType": "uint256",
          "name": "_interval",
          "type": "uint256"
        }
      ],
      "name": "setAutomationCheckInterval",
      "outputs": [],
      "stateMutability": "nonpayable",
      "type": "function"
    },
    {
      "inputs": [
        {
          "internalType": "address",
          "name": "_limitOrderManager",
          "type": "address"
        }
      ],
      "name": "setLimitOrderManager",
      "outputs": [],
      "stateMutability": "nonpayable",
      "type": "function"
    },
    {
      "inputs": [
        {
          "internalType": "address",
          "name": "_treasury",
          "type": "address"
        }
      ],
      "name": "setTreasury",
      "outputs": [],
      "stateMutability": "nonpayable",
      "type": "function"
    },
    {
      "inputs": [],
      "name": "shouldPerformMaintenance",
      "outputs": [
        {
          "internalType": "bool",
          "name": "needsMaintenance",
          "type": "bool"
        },
        {
          "internalType": "string",
          "name": "reason",
          "type": "string"
        }
      ],
      "stateMutability": "view",
      "type": "function"
    },
    {
      "inputs": [],
      "name": "totalLinkPurchased",
      "outputs": [
        {
          "internalType": "uint256",
          "name": "",
          "type": "uint256"
        }
      ],
      "stateMutability": "view",
      "type": "function"
    },
    {
      "inputs": [],
      "name": "totalLinkSpent",
      "outputs": [
        {
          "internalType": "uint256",
          "name": "",
          "type": "uint256"
        }
      ],
      "stateMutability": "view",
      "type": "function"
    },
    {
      "inputs": [],
      "name": "totalUSDCCollected",
      "outputs": [
        {
          "internalType": "uint256",
          "name": "",
          "type": "uint256"
        }
      ],
      "stateMutability": "view",
      "type": "function"
    },
    {
      "inputs": [
        {
          "internalType": "address",
          "name": "newOwner",
          "type": "address"
        }
      ],
      "name": "transferOwnership",
      "outputs": [],
      "stateMutability": "nonpayable",
      "type": "function"
    },
    {
      "inputs": [],
      "name": "treasury",
      "outputs": [
        {
          "internalType": "address",
          "name": "",
          "type": "address"
        }
      ],
      "stateMutability": "view",
      "type": "function"
    },
    {
      "inputs": [
        {
          "internalType": "uint32",
          "name": "gasLimit",
          "type": "uint32"
        }
      ],
      "name": "updateUpkeep",
      "outputs": [],
      "stateMutability": "nonpayable",
      "type": "function"
    },
    {
      "inputs": [],
      "name": "upkeepId",
      "outputs": [
        {
          "internalType": "uint256",
          "name": "",
          "type": "uint256"
        }
      ],
      "stateMutability": "view",
      "type": "function"
    }
  ],
  "bytecode": "0x608034620000b257601f6200313f38819003918201601f19168301916001600160401b03831184841017620000b7578084926040948552833981010312620000b2576200005a60206200005283620000cd565b9201620000cd565b90610e10600855600160ff19600a541617600a5560018060a01b0319913383600054161760005560018060a01b03809216836001541617600155169060025416176002554260095560405161305c9081620000e38239f35b600080fd5b634e487b7160e01b600052604160045260246000fd5b51906001600160a01b0382168203620000b25756fe60806040908082526004918236101561001757600080fd5b600091823560e01c908163061cd80214611d72575080630d891a1114611d4a578063189f4fcd14611cbf5780631930d4cf14611ca15780631de4a91914611c835780632d07953a14611c5e5780633269617414611c425780633d3cd18414611c0657806346e9a65814611a6357806348566a3314611a3b57806351adc76114611a1f5780635235d1ef1461197057806361d027b31461194857806364dd761b146115ba5780636b3b9515146115975780636e798e68146115795780636ff1c9bc146114165780637442e44e146113f357806375d4205a146113d557806376703e231461136657806389a302711461133e5780638da5cb5b146113175780638fb062b01461116857806391b475041461114a5780639837f0df1461102d578063a041458514610f8f578063ad5c464814610f61578063ba79c5e314610f43578063bcb10b9f14610a8a578063c600589314610a5c578063d0c046b414610a3a578063d2aa789f14610a1c578063de7a324e14610628578063e1f1c4a71461060c578063e9ae98fb14610560578063eedac3a614610538578063f0f4426014610494578063f2fde38b146104025763fc0f8130146101d257600080fd5b346103fe576020806003193601126103fa5783356101fa60018060a01b0385541633146123c3565b610207600354151561298e565b801561037d5782516370a0823160e01b815230868201528281602481600080516020612f278339815191525afa9081156103725790829160009161033f575b50106102fa57610255816127ec565b60035494600080516020612f8783398151915295863b156102f557845163948108f760e01b8152918201526001600160601b0382166024820152946000908690604490829084905af19485156102ea57600080516020612f4783398151915294956102db575b506102c881600654611e1e565b600655600354918351928352820152a180f35b6102e490611e41565b386102bb565b83513d6000823e3d90fd5b600080fd5b825162461bcd60e51b8152808601839052603f6024820152600080516020612f678339815191526044820152600080516020612ec78339815191526064820152608490fd5b91508382813d831161036b575b6103568183611ebb565b81010312610368575081905138610246565b80fd5b503d61034c565b84513d6000823e3d90fd5b825162461bcd60e51b8152808601839052604b60248201527f4175746f6d6174696f6e46756e64696e673a204c494e4b20616d6f756e74206d60448201527f7573742062652067726561746572207468616e207a65726f20666f722075706b60648201526a6565702066756e64696e6760a81b608482015260a490fd5b8280fd5b5080fd5b5082346103fa5760203660031901126103fa5761041d611ddb565b835491906001600160a01b039061043733838616146123c3565b169283156104515750506001600160a01b03191617815580f35b906020606492519162461bcd60e51b8352820152602060248201527f4175746f6d6174696f6e46756e64696e673a20496e76616c6964206f776e65726044820152fd5b5082346103fa5760203660031901126103fa576104af611ddb565b83546001600160a01b0391906104c890831633146123c3565b169182156104e9575050600180546001600160a01b03191691909117905580f35b906020608492519162461bcd60e51b8352820152602360248201527f4175746f6d6174696f6e46756e64696e673a20496e76616c696420747265617360448201526275727960e81b6064820152fd5b50346103fe57816003193601126103fe5760209051600080516020612f278339815191528152f35b508290346103fa5760203660031901126103fa5781359063ffffffff82168092036102f557839261059b60018060a01b0385541633146123c3565b6003546105a981151561298e565b600080516020612f87833981519152803b156106085785928360449286519788958694635395513f60e11b865285015260248401525af19081156105ff57506105ef5750f35b6105f890611e41565b6103685780f35b513d84823e3d90fd5b8580fd5b50346103fe57816003193601126103fe57602090516127108152f35b5082346103fa57816003193601126103fa57610642611ddb565b6002546001600160a01b039081169190602490813590338590036109c6578115610947578651938880602096878101986323b872dd60e01b8a52878201523060448201528560648201526064815261069981611e6a565b51600080516020612ee783398151915298828a5af16106b6611ef9565b8161090b575b50156108c9577f760aa20303a0215b5f8fb7baf93418b203180c9fa8511a9328b8e1d99e7a2e089188916106f1858a54611e1e565b808a558351958652878601521692a2600a5460ff1680806108b1575b610715578680f35b156108715742600955600354610864575b84516370a0823160e01b8082523086830152919083818381600080516020612f278339815191525afa801561085a578890610824575b6802b5e3af16b1880000915010610798575b50505050633b9aca00915054101561078b575b8180808080808680f35b6107936129ea565b610781565b908291865180958193825230888301525afa93841561081b575084936107e3575b5050631dcd6500633b9aca009210156107d6575b8380808061076e565b6107de61240f565b6107cd565b90809350813d8311610814575b6107fa8183611ebb565b810103126102f557631dcd6500633b9aca009251926107b9565b503d6107f0565b513d86823e3d90fd5b508381813d8311610853575b61083a8183611ebb565b810103126102f5576802b5e3af16b1880000905161075c565b503d610830565b87513d8a823e3d90fd5b61086c612064565b610726565b9060289250608494519362461bcd60e51b8552840152820152600080516020612fc7833981519152604482015267191a5cd8589b195960c21b6064820152fd5b506108c160095460085490611e1e565b42101561070d565b875162461bcd60e51b8152808801869052601e818601527f5361666545524332303a207472616e7366657246726f6d206661696c656400006044820152606490fd5b80915051868115918215610924575b505090508a6106bc565b8380929350010312610943578561093b9101611f29565b80868c61091a565b8980fd5b865162461bcd60e51b8152602081880152604e818501527f4175746f6d6174696f6e46756e64696e673a2046656520616d6f756e74206d7560448201527f73742062652067726561746572207468616e207a65726f20666f72206175746f60648201526d6d6174696f6e2066756e64696e6760901b608482015260a490fd5b865162461bcd60e51b8152602081880152602b818501527f4175746f6d6174696f6e46756e64696e673a206f6e6c79206c696d6974206f7260448201526a3232b91036b0b730b3b2b960a91b6064820152608490fd5b50346103fe57816003193601126103fe576020906003549051908152f35b50346103fe57816003193601126103fe5760209051674563918244f400008152f35b50346103fe57816003193601126103fe576020905173e592427a0aece92de3edee1f18e0157c058615648152f35b508290346103fa57602080600319360112610f3f5782359260018060a01b0391610ab88387541633146123c3565b8415610ec45783516370a0823160e01b81523083820152602490600080516020612ee78339815191529083818481855afa908115610eb957908891600091610e89575b5010610e45578551636eb1769f60e11b8152308582015273e592427a0aece92de3edee1f18e0157c05861564838201819052604492909185818581855afa908115610e3a57600091610e0d575b50610de057600080918951828882019163095ea7b360e01b835286898201528d88820152878152610b7881611e85565b51925af1610b84611ef9565b81610da8575b5015610d7a5786517314170d467cc883f41920f96d88fad7a0c612d91760631b85820152607d60ea1b6034820152736015551cd911ff4685072e2793f56c841e3ab66160611b603782015261017760eb1b604b8201527328a4883b8d7ce532b57c206ffc1f4132767cc36560611b604e8201526042815291610c0b83611e85565b61012c4201804211610d665786869493928a8c8794825197610c2c89611e6a565b88528588019330855283890191825260608901928352608089019360008552519d8e998a98899863c04b8d5960e01b8a52890152518c880160a0905260c48801610c7591611db6565b955116908601525160648501525160848401525160a483015203915a90600091f1938415610d5b57600094610d2c575b50610cb284600554611e1e565b60055542600755670de0b6b3a7640000860292670de0b6b3a763ffff1987850401610d19578415610d065787600080516020613007833981519152606089898989818a84519586528501520490820152a180f35b601290634e487b7160e01b600052526000fd5b601190634e487b7160e01b600052526000fd5b90938282813d8311610d54575b610d438183611ebb565b810103126103685750519287610ca5565b503d610d39565b85513d6000823e3d90fd5b84601188634e487b7160e01b600052526000fd5b506019600080516020612f07833981519152926064959488519562461bcd60e51b8752860152840152820152fd5b80915051858115918215610dc1575b505090508a610b8a565b83809293500103126102f55784610dd89101611f29565b80858c610db7565b606486600080516020612fe7833981519152858888818e519562461bcd60e51b8752860152840152820152fd5b908682813d8311610e33575b610e238183611ebb565b810103126103685750518b610b48565b503d610e19565b89513d6000823e3d90fd5b855162461bcd60e51b8152808501849052603e81840152600080516020612f678339815191526044820152600080516020612fa78339815191526064820152608490fd5b91508482813d8311610eb2575b610ea08183611ebb565b8101031261036857508790518a610afb565b503d610e96565b87513d6000823e3d90fd5b835162461bcd60e51b815291820152604a60248201527f4175746f6d6174696f6e46756e64696e673a205553444320616d6f756e74206d60448201527f7573742062652067726561746572207468616e207a65726f20666f72204c494e6064820152694b20707572636861736560b01b608482015260a49150fd5b8380fd5b50346103fe57816003193601126103fe576020906006549051908152f35b50346103fe57816003193601126103fe576020905173c02aaa39b223fe8d0a0e5c4f27ead9083c756cc28152f35b5082346103fa5760203660031901126103fa57803591610fb960018060a01b0385541633146123c3565b603c83101580611020575b15610fd157505060085580f35b906020608492519162461bcd60e51b8352820152602360248201527f4175746f6d6174696f6e46756e64696e673a20496e76616c696420696e7465726044820152621d985b60ea1b6064820152fd5b5062015180831115610fc4565b5091346103fe57816003193601126103fe57805491600554936006548151916370a0823160e01b9687845230868501526020958685602481600080516020612ee78339815191525afa948515611140578695611111575b50825198895230908901528588602481600080516020612f278339815191525afa94851561110657946110d6575b60c097506007549582519788528701528501526060840152608083015260a0820152f35b93508487813d83116110ff575b6110ed8183611ebb565b810103126102f55760c09651936110b2565b503d6110e3565b8251903d90823e3d90fd5b9094508681813d8311611139575b6111298183611ebb565b810103126102f557519338611084565b503d61111f565b83513d88823e3d90fd5b50346103fe57816003193601126103fe576020906007549051908152f35b5082346103fa57826003193601126103fa5760ff600a5416156112d657426009556003546112c9575b81516370a0823160e01b8082523083830152906020908181602481600080516020612f278339815191525afa80156112bf578690611289575b6802b5e3af16b18800009150106111fa575b5050633b9aca0091505410156111ef5780f35b6111f76129ea565b80f35b835191825230838301528082602481600080516020612ee78339815191525afa93841561081b57508493611251575b5050631dcd6500633b9aca00921015611244575b83806111dc565b61124c61240f565b61123d565b90809350813d8311611282575b6112688183611ebb565b810103126102f557631dcd6500633b9aca00925192611229565b503d61125e565b508181813d83116112b8575b61129f8183611ebb565b810103126102f5576802b5e3af16b188000090516111ca565b503d611295565b85513d88823e3d90fd5b6112d1612064565b611191565b6020608492519162461bcd60e51b835282015260286024820152600080516020612fc7833981519152604482015267191a5cd8589b195960c21b6064820152fd5b50346103fe57816003193601126103fe57905490516001600160a01b039091168152602090f35b50346103fe57816003193601126103fe5760209051600080516020612ee78339815191528152f35b5082346103fa5760203660031901126103fa5735908115158092036103fa577fd2bf2481749b053fd6b6943d64ffe9a761bb85152df86255b3b05a095135197b916020916113be60018060a01b0386541633146123c3565b60ff19600a541660ff831617600a5551908152a180f35b5082346103fa57826003193601126103fa5760209250549051908152f35b50346103fe57816003193601126103fe57602090516801158e460913d000008152f35b508290346103fa5760209081600319360112610f3f57611434611ddb565b84546001600160a01b039081169161144d3384146123c3565b1682516370a0823160e01b815230868201528481602481855afa90811561156f57879161153f575b50906000928361149f6114ad829588519283918b83019663a9059cbb60e01b8852602484016127d1565b03601f198101835282611ebb565b51925af16114b9611ef9565b81611507575b50156114c9578380f35b5162461bcd60e51b815291820152601a60248201527914d85999515490cc8c0e881d1c985b9cd9995c8819985a5b195960321b604482015260649150fd5b80915051838115918215611520575b50509050856114bf565b83809293500103126102f557826115379101611f29565b808387611516565b9190508482813d8311611568575b6115578183611ebb565b810103126102f55790516000611475565b503d61154d565b84513d89823e3d90fd5b50346103fe57816003193601126103fe576020906005549051908152f35b50346103fe57816003193601126103fe57602090516802b5e3af16b18800008152f35b5090346103685760c0366003190112610368576001600160401b039183358381116103fa576115ec9036908601611df1565b602435858111611944576116039036908801611df1565b50506001600160a01b03604435818116979196908890036102f5576064359063ffffffff82168092036102f557608435908111611940576116479036908401611df1565b909160a4359860018060601b038a16809a0361193c5761166b9089541633146123c3565b89156118af57620186a0811015806118a2575b1561181757881561178a57906116c692916116988a6127ec565b87519a8b95632fb0524360e11b8752860152602485015230604485015260a0606485015260a4840191612be5565b866084830152816020988992038188600080516020612f878339815191525af194851561177f579461174c575b5061172784957f9018b32610e2afe24314d6ad4ed3968f701c9a03396c76266779bb53b4cdfb0f9495600355600654611e1e565b6006556117438451928392878452868985015286840191612be5565b0390a151908152f35b9293508583813d8311611778575b6117648183611ebb565b810103126102f557915192916117276116f3565b503d61175a565b8451903d90823e3d90fd5b865162461bcd60e51b8152602081860152605b60248201527f4175746f6d6174696f6e46756e64696e673a20496e697469616c2066756e646960448201527f6e6720616d6f756e74206d7573742062652067726561746572207468616e207a60648201527a32b937903337b9103ab835b2b2b8103932b3b4b9ba3930ba34b7b760291b608482015260a490fd5b865162461bcd60e51b8152602081860152605960248201527f4175746f6d6174696f6e46756e64696e673a20476173206c696d6974206d757360448201527f74206265206265747765656e203130302c30303020616e6420322c3530302c306064820152781818103337b9103932b634b0b136329032bc32b1baba34b7b760391b608482015260a490fd5b50622625a081111561167e565b865162461bcd60e51b8152602081860152605b60248201527f4175746f6d6174696f6e46756e64696e673a2055706b65657020636f6e74726160448201527f63742063616e6e6f74206265207a65726f2061646472657373202d206d75737460648201527a081899481d985b1a590819195c1b1bde59590818dbdb9d1c9858dd602a1b608482015260a490fd5b8880fd5b8680fd5b8480fd5b50346103fe57816003193601126103fe5760015490516001600160a01b039091168152602090f35b5082346103fa5760203660031901126103fa5761198b611ddb565b83546001600160a01b0391906119a490831633146123c3565b169182156119c5575050600280546001600160a01b03191691909117905580f35b906020608492519162461bcd60e51b8352820152602e60248201527f4175746f6d6174696f6e46756e64696e673a20496e76616c6964206c696d697460448201526d1037b93232b91036b0b730b3b2b960911b6064820152fd5b50346103fe57816003193601126103fe5760209051610bb88152f35b50346103fe57816003193601126103fe5760025490516001600160a01b039091168152602090f35b5082346103fa57826003193601126103fa5760035482516370a0823160e01b80825230848301529491939091806020818186602481600080516020612f278339815191525afa958615611bcb578196611bd7575b50845198895230878a01528189602481600080516020612ee78339815191525afa968715611bcb578197611b9b575b60a0995088611b0c575b5050835196875286015215159084015260608301526080820152f35b85516363e1d0cd60e11b815290810189905291935091508181602481600080516020612f878339815191525afa829181611b6d575b50611b5257506001915b8880611af0565b905060018060601b0316674563918244f40000811091611b4b565b611b8a9192503d8085833e611b828183611ebb565b810190611fb4565b505050505050925050509089611b41565b96508189813d8311611bc4575b611bb28183611ebb565b810103126102f55760a0985196611ae6565b503d611ba8565b508451903d90823e3d90fd5b9095508181813d8311611bff575b611bef8183611ebb565b810103126102f557519489611ab7565b503d611be5565b50903461036857806003193601126103685750611c3e611c24612c06565b839291925193849315158452806020850152830190611db6565b0390f35b50346103fe57816003193601126103fe5760209051611b588152f35b82346103685780600319360112610368576111ef60018060a01b0382541633146123c3565b50346103fe57816003193601126103fe576020906009549051908152f35b50346103fe57816003193601126103fe576020906008549051908152f35b508290346103fa57826003193601126103fa57611ce660018060a01b0384541633146123c3565b82600354611cf581151561298e565b600080516020612f8783398151915293843b156103fa576024908385519687948593636402401160e11b85528401525af19081156105ff5750611d3b575b508060035580f35b611d4490611e41565b81611d33565b50346103fe57816003193601126103fe5760209051600080516020612f878339815191528152f35b8390346103fe57816003193601126103fe5760209060ff600a541615158152f35b60005b838110611da65750506000910152565b8181015183820152602001611d96565b90602091611dcf81518092818552858086019101611d93565b601f01601f1916010190565b600435906001600160a01b03821682036102f557565b9181601f840112156102f5578235916001600160401b0383116102f557602083818601950101116102f557565b91908201809211611e2b57565b634e487b7160e01b600052601160045260246000fd5b6001600160401b038111611e5457604052565b634e487b7160e01b600052604160045260246000fd5b60a081019081106001600160401b03821117611e5457604052565b608081019081106001600160401b03821117611e5457604052565b604081019081106001600160401b03821117611e5457604052565b601f909101601f19168101906001600160401b03821190821017611e5457604052565b6001600160401b038111611e5457601f01601f191660200190565b3d15611f24573d90611f0a82611ede565b91611f186040519384611ebb565b82523d6000602084013e565b606090565b519081151582036102f557565b51906001600160a01b03821682036102f557565b519063ffffffff821682036102f557565b81601f820112156102f5578051611f7181611ede565b92611f7f6040519485611ebb565b818452602082840101116102f557611f9d9160208085019101611d93565b90565b51906001600160601b03821682036102f557565b919091610140818403126102f557611fcb81611f36565b92611fd860208301611f4a565b604083015190936001600160401b03918281116102f55783611ffb918601611f5b565b9361200860608201611fa0565b9361201560808301611f36565b9360a083015181811681036102f5579361203160c08501611f4a565b9361203e60e08201611fa0565b9361204c6101008301611f29565b936101208301519081116102f557611f9d9201611f5b565b6003549081156123bf57604080516363e1d0cd60e11b8152600493848201526000602494600080516020612f878339815191529282818881875afa908184918593612396575b506120ba575b5050505050509050565b674563918244f400006001600160601b0390911610908161238d575b506120e3575b80806120b0565b8351916370a0823160e01b83523082840152602093600080516020612f278339815191529085858a81855afa948515612383578395612354575b506801158e460913d00000809510612310578651636eb1769f60e11b815230858201528981018290526044929087818581855afa9081156123065785916122d9575b506122ac578380918b828b51868c82019363095ea7b360e01b85528201528a8882015287815261218e81611e85565b51925af161219a611ef9565b81612274575b50156122455760035490803b15610f3f5785928492838c938b51968795869463948108f760e01b86528b8601528401525af1801561223b5761222c575b506006549183830180931161221a575050600080516020612f47833981519152949550600655600354918351928352820152a180388080806120dc565b634e487b7160e01b8252601190528690fd5b61223590611e41565b386121dd565b86513d84823e3d90fd5b865162461bcd60e51b81528085018790526019818b0152600080516020612f0783398151915281840152606490fd5b8091505187811591821561228d575b50509050386121a0565b8380929350010312610f3f57866122a49101611f29565b808738612283565b606485600080516020612fe7833981519152858a8e818e519562461bcd60e51b8752860152840152820152fd5b90508781813d83116122ff575b6122f08183611ebb565b8101031261194457513861215f565b503d6122e6565b89513d87823e3d90fd5b865162461bcd60e51b8152808501879052603f818b0152600080516020612f678339815191526044820152600080516020612ec78339815191526064820152608490fd5b9094508581813d831161237c575b61236c8183611ebb565b810103126103fa5751933861211d565b503d612362565b87513d85823e3d90fd5b905015386120d6565b9092506123ad91503d8086833e611b828183611ebb565b509750505050509150509091386120aa565b9050565b156123ca57565b60405162461bcd60e51b815260206004820152601d60248201527f4175746f6d6174696f6e46756e64696e673a206f6e6c79206f776e65720000006044820152606490fd5b60408051906370a0823160e01b82526004308184015260206024600080516020612ee78339815191529282868381875afa958615610d5b576000966127a2575b50631dcd6500809610612760578451636eb1769f60e11b8152308282015273e592427a0aece92de3edee1f18e0157c058615648382018190529460449185818481855afa90811561275557600091612728575b506126fb57600080918851828882019163095ea7b360e01b83528a898201528c878201528681526124d281611e85565b51925af16124de611ef9565b816126c3575b50156126965785517314170d467cc883f41920f96d88fad7a0c612d91760631b85820152607d60ea1b6034820152736015551cd911ff4685072e2793f56c841e3ab66160611b603782015261017760eb1b604b8201527328a4883b8d7ce532b57c206ffc1f4132767cc36560611b604e820152604281529461256586611e85565b61012c420191824211612682579085929188519761258289611e6a565b88528388019730895289810193845260608101988b8a5260808201600081528b519a8b968795869563c04b8d5960e01b87528a8c880152518c870160a0905260c487016125ce91611db6565b94516001600160a01b0316908601525160648501525160848401525160a483015203915a90600091f1938415610d5b57600094612653575b5061261384600554611e1e565b600555426007558315610d0657505082519384528301819052676765c793fa10079d601a1b049082015260008051602061300783398151915290606090a1565b90938382813d831161267b575b61266a8183611ebb565b810103126103685750519238612606565b503d612660565b84601185634e487b7160e01b600052526000fd5b6019600080516020612f07833981519152929360649588519562461bcd60e51b8752860152840152820152fd5b809150518581159182156126dc575b50509050386124e4565b83809293500103126102f557846126f39101611f29565b8085386126d2565b5083600080516020612fe7833981519152929360649588519562461bcd60e51b8752860152840152820152fd5b908682813d831161274e575b61273e8183611ebb565b81010312610368575051386124a2565b503d612734565b88513d6000823e3d90fd5b603e6084928487519362461bcd60e51b8552840152820152600080516020612f678339815191526044820152600080516020612fa78339815191526064820152fd5b90958382813d83116127ca575b6127b98183611ebb565b81010312610368575051943861244f565b503d6127af565b6001600160a01b039091168152602081019190915260400190565b801580156128fc575b156128ca5760008091604051602081019163095ea7b360e01b8352600080516020612f87833981519152602483015260448201526044815261283681611e85565b519082600080516020612f278339815191525af1612852611ef9565b81612893575b501561286057565b60405162461bcd60e51b81526020600482015260196024820152600080516020612f078339815191526044820152606490fd5b80518015925082156128a8575b505038612858565b81925090602091810103126102f55760206128c39101611f29565b38806128a0565b606460405162461bcd60e51b81526020600482015260206024820152600080516020612fe78339815191526044820152fd5b50604051636eb1769f60e11b8152306004820152600080516020612f878339815191526024820152602081604481600080516020612f278339815191525afa90811561298257600091612951575b50156127f5565b906020823d821161297a575b8161296a60209383611ebb565b810103126103685750513861294a565b3d915061295d565b6040513d6000823e3d90fd5b1561299557565b60405162461bcd60e51b815260206004820152602760248201527f4175746f6d6174696f6e46756e64696e673a204e6f2075706b656570207265676044820152661a5cdd195c995960ca1b6064820152608490fd5b6004548015612a9157611b588102611b571982820401611e2b5761271090049081810391818311611e2b577ff2838e4b541f90d41a1076a560d75e948f7d1008e72118a655568626a30b451f928160409381612a75575b03612a59575b600060045582519182526020820152a1565b600054612a709082906001600160a01b0316612b18565b612a47565b600154612a8c9083906001600160a01b0316612b18565b612a41565b60405162461bcd60e51b815260206004820152605360248201527f4175746f6d6174696f6e46756e64696e673a204e6f20726576656e756520746f60448201527f2064697374726962757465202d206d75737420636f6c6c6563742066656573206064820152723132b337b932903234b9ba3934b13aba34b7b760691b608482015260a490fd5b6000919061149f612b428493604051928391602083019563a9059cbb60e01b8752602484016127d1565b519082600080516020612ee78339815191525af1612b5e611ef9565b81612bae575b5015612b6c57565b60405162461bcd60e51b815260206004820152601a60248201527914d85999515490cc8c0e881d1c985b9cd9995c8819985a5b195960321b6044820152606490fd5b8051801592508215612bc3575b505038612b64565b81925090602091810103126102f5576020612bde9101611f29565b3880612bbb565b908060209392818452848401376000828201840152601f01601f1916010190565b60ff600a541615612e9257612c2060095460085490611e1e565b4210612e565760035480612d5c575b506040516370a0823160e01b8152306004820152602091908281602481600080516020612f278339815191525afa801561298257600090612d26575b6802b5e3af16b1880000915010612cf857633b9aca006004541015612cbd5760009174139bc81b585a5b9d195b985b98d9481b9959591959605a1b60405191612cb383611ea0565b6015835282015290565b6001917f526576656e756520726561647920666f7220646973747269627574696f6e000060405191612cee83611ea0565b601e835282015290565b6001916f4c494e4b2062616c616e6365206c6f7760801b60405191612d1c83611ea0565b6010835282015290565b8382813d8311612d55575b612d3b8183611ebb565b8101031261036857506802b5e3af16b18800009051612c6b565b503d612d31565b604051906363e1d0cd60e11b82526004820152600081602481600080516020612f878339815191525afa90816000918293612e2e575b50612dcb575050600190604051612da881611ea0565b6013815272155c1ad9595c0818da1958dac819985a5b1959606a1b602082015290565b674563918244f400006001600160601b03909116109081612e25575b50612df25738612c2f565b600190604051612e0181611ea0565b601481527355706b656570206e656564732066756e64696e6760601b602082015290565b90501538612de7565b909250612e44913d8091833e611b828183611ebb565b50975050505050915050909138612d92565b600090604051612e6581611ea0565b601e81527f546f6f20736f6f6e20666f72206d61696e74656e616e636520636865636b0000602082015290565b600090604051612ea181611ea0565b6015815274105d5d1bc8199d5b991a5b99c8191a5cd8589b1959605a1b60208201529056fe4c494e4b2062616c616e636520666f722075706b6565702066756e64696e6700000000000000000000000000a0b86a33e6441fa0c907cb6c47d6bd063096c8b85361666545524332303a20617070726f7665206661696c656400000000000000000000000000000000000000514910771af9ca656af840dff83e8264ecf986ca56f1995e841964dd697e863dab12a106fcfc421d7a2a2ae0fc5bad945754b85d4175746f6d6174696f6e46756e64696e673a20496e73756666696369656e742000000000000000000000000002777053d6764996e594c3e88af1d58d5363a2e6555344432062616c616e636520666f72204c494e4b20707572636861736500004175746f6d6174696f6e46756e64696e673a206175746f2066756e64696e67205361666545524332303a20617070726f76652066726f6d206e6f6e2d7a65726fb9ad26d78ef10877db885dd251506429ab0a715181a5138c994df4e32fc3a831a26469706673582212204a158e6a45727b190722422cce3d02a925db052226af17f07849a320cbcf03f764736f6c63430008140033",
  "linkReferences": {},
  "deployedLinkReferences": {}
}