{
  "_format": "hh-sol-artifact-1",
  "contractName": "SimpleVAMM",
  "sourceName": "contracts/SimpleVAMM.sol",
  "abi": [
    {
      "inputs": [
        {
          "internalType": "address",
          "name": "_vault",
          "type": "address"
        },
        {
          "internalType": "address",
          "name": "_oracle",
          "type": "address"
        },
        {
          "internalType": "uint256",
          "name": "_initialPrice",
          "type": "uint256"
        }
      ],
      "stateMutability": "nonpayable",
      "type": "constructor"
    },
    {
      "anonymous": false,
      "inputs": [
        {
          "indexed": true,
          "internalType": "address",
          "name": "account",
          "type": "address"
        }
      ],
      "name": "AuthorizedAdded",
      "type": "event"
    },
    {
      "anonymous": false,
      "inputs": [
        {
          "indexed": true,
          "internalType": "address",
          "name": "account",
          "type": "address"
        }
      ],
      "name": "AuthorizedRemoved",
      "type": "event"
    },
    {
      "anonymous": false,
      "inputs": [
        {
          "indexed": true,
          "internalType": "address",
          "name": "user",
          "type": "address"
        },
        {
          "indexed": true,
          "internalType": "uint256",
          "name": "positionId",
          "type": "uint256"
        },
        {
          "indexed": false,
          "internalType": "uint256",
          "name": "size",
          "type": "uint256"
        },
        {
          "indexed": false,
          "internalType": "uint256",
          "name": "price",
          "type": "uint256"
        },
        {
          "indexed": false,
          "internalType": "int256",
          "name": "pnl",
          "type": "int256"
        }
      ],
      "name": "PositionClosed",
      "type": "event"
    },
    {
      "anonymous": false,
      "inputs": [
        {
          "indexed": true,
          "internalType": "address",
          "name": "user",
          "type": "address"
        },
        {
          "indexed": true,
          "internalType": "uint256",
          "name": "positionId",
          "type": "uint256"
        },
        {
          "indexed": false,
          "internalType": "bool",
          "name": "isLong",
          "type": "bool"
        },
        {
          "indexed": false,
          "internalType": "uint256",
          "name": "size",
          "type": "uint256"
        },
        {
          "indexed": false,
          "internalType": "uint256",
          "name": "price",
          "type": "uint256"
        },
        {
          "indexed": false,
          "internalType": "uint256",
          "name": "leverage",
          "type": "uint256"
        }
      ],
      "name": "PositionOpened",
      "type": "event"
    },
    {
      "anonymous": false,
      "inputs": [
        {
          "indexed": false,
          "internalType": "uint256",
          "name": "newPrice",
          "type": "uint256"
        },
        {
          "indexed": false,
          "internalType": "int256",
          "name": "netPosition",
          "type": "int256"
        }
      ],
      "name": "PriceUpdated",
      "type": "event"
    },
    {
      "inputs": [],
      "name": "BASIS_POINTS",
      "outputs": [
        {
          "internalType": "uint256",
          "name": "",
          "type": "uint256"
        }
      ],
      "stateMutability": "view",
      "type": "function"
    },
    {
      "inputs": [],
      "name": "MAX_LEVERAGE",
      "outputs": [
        {
          "internalType": "uint256",
          "name": "",
          "type": "uint256"
        }
      ],
      "stateMutability": "view",
      "type": "function"
    },
    {
      "inputs": [],
      "name": "MIN_LEVERAGE",
      "outputs": [
        {
          "internalType": "uint256",
          "name": "",
          "type": "uint256"
        }
      ],
      "stateMutability": "view",
      "type": "function"
    },
    {
      "inputs": [],
      "name": "PRICE_PRECISION",
      "outputs": [
        {
          "internalType": "uint256",
          "name": "",
          "type": "uint256"
        }
      ],
      "stateMutability": "view",
      "type": "function"
    },
    {
      "inputs": [
        {
          "internalType": "address",
          "name": "account",
          "type": "address"
        }
      ],
      "name": "addAuthorized",
      "outputs": [],
      "stateMutability": "nonpayable",
      "type": "function"
    },
    {
      "inputs": [
        {
          "internalType": "address",
          "name": "",
          "type": "address"
        }
      ],
      "name": "authorized",
      "outputs": [
        {
          "internalType": "bool",
          "name": "",
          "type": "bool"
        }
      ],
      "stateMutability": "view",
      "type": "function"
    },
    {
      "inputs": [],
      "name": "baseVirtualBaseReserves",
      "outputs": [
        {
          "internalType": "uint256",
          "name": "",
          "type": "uint256"
        }
      ],
      "stateMutability": "view",
      "type": "function"
    },
    {
      "inputs": [],
      "name": "baseVirtualQuoteReserves",
      "outputs": [
        {
          "internalType": "uint256",
          "name": "",
          "type": "uint256"
        }
      ],
      "stateMutability": "view",
      "type": "function"
    },
    {
      "inputs": [
        {
          "internalType": "uint256",
          "name": "positionId",
          "type": "uint256"
        },
        {
          "internalType": "uint256",
          "name": "sizeToClose",
          "type": "uint256"
        },
        {
          "internalType": "uint256",
          "name": "minPrice",
          "type": "uint256"
        },
        {
          "internalType": "uint256",
          "name": "maxPrice",
          "type": "uint256"
        }
      ],
      "name": "closePosition",
      "outputs": [
        {
          "internalType": "int256",
          "name": "pnl",
          "type": "int256"
        }
      ],
      "stateMutability": "nonpayable",
      "type": "function"
    },
    {
      "inputs": [
        {
          "internalType": "address",
          "name": "user",
          "type": "address"
        },
        {
          "internalType": "uint256",
          "name": "positionId",
          "type": "uint256"
        },
        {
          "internalType": "bool",
          "name": "isOpenEvent",
          "type": "bool"
        },
        {
          "internalType": "bool",
          "name": "isLong",
          "type": "bool"
        },
        {
          "internalType": "uint256",
          "name": "size",
          "type": "uint256"
        },
        {
          "internalType": "uint256",
          "name": "price",
          "type": "uint256"
        },
        {
          "internalType": "uint256",
          "name": "leverageOrPnL",
          "type": "uint256"
        }
      ],
      "name": "emitPositionEvent",
      "outputs": [],
      "stateMutability": "nonpayable",
      "type": "function"
    },
    {
      "inputs": [],
      "name": "emitTestPositionEvents",
      "outputs": [],
      "stateMutability": "nonpayable",
      "type": "function"
    },
    {
      "inputs": [],
      "name": "getEffectiveReserves",
      "outputs": [
        {
          "internalType": "uint256",
          "name": "baseReserves",
          "type": "uint256"
        },
        {
          "internalType": "uint256",
          "name": "quoteReserves",
          "type": "uint256"
        }
      ],
      "stateMutability": "view",
      "type": "function"
    },
    {
      "inputs": [],
      "name": "getMarkPrice",
      "outputs": [
        {
          "internalType": "uint256",
          "name": "",
          "type": "uint256"
        }
      ],
      "stateMutability": "view",
      "type": "function"
    },
    {
      "inputs": [],
      "name": "getMarketSummary",
      "outputs": [
        {
          "internalType": "uint256",
          "name": "markPrice",
          "type": "uint256"
        },
        {
          "internalType": "int256",
          "name": "netPositionSize",
          "type": "int256"
        },
        {
          "internalType": "uint256",
          "name": "totalLongSizeUint",
          "type": "uint256"
        },
        {
          "internalType": "uint256",
          "name": "totalShortSizeUint",
          "type": "uint256"
        },
        {
          "internalType": "uint256",
          "name": "baseReserves",
          "type": "uint256"
        },
        {
          "internalType": "uint256",
          "name": "quoteReserves",
          "type": "uint256"
        }
      ],
      "stateMutability": "view",
      "type": "function"
    },
    {
      "inputs": [
        {
          "internalType": "uint256",
          "name": "positionId",
          "type": "uint256"
        }
      ],
      "name": "getPosition",
      "outputs": [
        {
          "components": [
            {
              "internalType": "uint256",
              "name": "positionId",
              "type": "uint256"
            },
            {
              "internalType": "int256",
              "name": "size",
              "type": "int256"
            },
            {
              "internalType": "bool",
              "name": "isLong",
              "type": "bool"
            },
            {
              "internalType": "uint256",
              "name": "entryPrice",
              "type": "uint256"
            },
            {
              "internalType": "uint256",
              "name": "entryFundingIndex",
              "type": "uint256"
            },
            {
              "internalType": "uint256",
              "name": "lastInteractionTime",
              "type": "uint256"
            },
            {
              "internalType": "bool",
              "name": "isActive",
              "type": "bool"
            }
          ],
          "internalType": "struct ISimpleVAMM.Position",
          "name": "",
          "type": "tuple"
        }
      ],
      "stateMutability": "view",
      "type": "function"
    },
    {
      "inputs": [
        {
          "internalType": "uint256",
          "name": "size",
          "type": "uint256"
        },
        {
          "internalType": "bool",
          "name": "isLong",
          "type": "bool"
        }
      ],
      "name": "getPriceImpact",
      "outputs": [
        {
          "internalType": "uint256",
          "name": "",
          "type": "uint256"
        }
      ],
      "stateMutability": "view",
      "type": "function"
    },
    {
      "inputs": [
        {
          "internalType": "uint256",
          "name": "positionId",
          "type": "uint256"
        }
      ],
      "name": "getUnrealizedPnL",
      "outputs": [
        {
          "internalType": "int256",
          "name": "",
          "type": "int256"
        }
      ],
      "stateMutability": "view",
      "type": "function"
    },
    {
      "inputs": [
        {
          "internalType": "address",
          "name": "user",
          "type": "address"
        }
      ],
      "name": "getUserPositions",
      "outputs": [
        {
          "components": [
            {
              "internalType": "uint256",
              "name": "positionId",
              "type": "uint256"
            },
            {
              "internalType": "int256",
              "name": "size",
              "type": "int256"
            },
            {
              "internalType": "bool",
              "name": "isLong",
              "type": "bool"
            },
            {
              "internalType": "uint256",
              "name": "entryPrice",
              "type": "uint256"
            },
            {
              "internalType": "uint256",
              "name": "entryFundingIndex",
              "type": "uint256"
            },
            {
              "internalType": "uint256",
              "name": "lastInteractionTime",
              "type": "uint256"
            },
            {
              "internalType": "bool",
              "name": "isActive",
              "type": "bool"
            }
          ],
          "internalType": "struct ISimpleVAMM.Position[]",
          "name": "",
          "type": "tuple[]"
        }
      ],
      "stateMutability": "view",
      "type": "function"
    },
    {
      "inputs": [],
      "name": "globalPositionId",
      "outputs": [
        {
          "internalType": "uint256",
          "name": "",
          "type": "uint256"
        }
      ],
      "stateMutability": "view",
      "type": "function"
    },
    {
      "inputs": [],
      "name": "maintenanceMarginRatio",
      "outputs": [
        {
          "internalType": "uint256",
          "name": "",
          "type": "uint256"
        }
      ],
      "stateMutability": "view",
      "type": "function"
    },
    {
      "inputs": [],
      "name": "maxReserveMultiplier",
      "outputs": [
        {
          "internalType": "uint256",
          "name": "",
          "type": "uint256"
        }
      ],
      "stateMutability": "view",
      "type": "function"
    },
    {
      "inputs": [],
      "name": "minReserveMultiplier",
      "outputs": [
        {
          "internalType": "uint256",
          "name": "",
          "type": "uint256"
        }
      ],
      "stateMutability": "view",
      "type": "function"
    },
    {
      "inputs": [],
      "name": "netPosition",
      "outputs": [
        {
          "internalType": "int256",
          "name": "",
          "type": "int256"
        }
      ],
      "stateMutability": "view",
      "type": "function"
    },
    {
      "inputs": [
        {
          "internalType": "uint256",
          "name": "collateralAmount",
          "type": "uint256"
        },
        {
          "internalType": "bool",
          "name": "isLong",
          "type": "bool"
        },
        {
          "internalType": "uint256",
          "name": "leverage",
          "type": "uint256"
        },
        {
          "internalType": "uint256",
          "name": "minPrice",
          "type": "uint256"
        },
        {
          "internalType": "uint256",
          "name": "maxPrice",
          "type": "uint256"
        }
      ],
      "name": "openPosition",
      "outputs": [
        {
          "internalType": "uint256",
          "name": "positionId",
          "type": "uint256"
        }
      ],
      "stateMutability": "nonpayable",
      "type": "function"
    },
    {
      "inputs": [],
      "name": "oracle",
      "outputs": [
        {
          "internalType": "contract ISimplePriceOracle",
          "name": "",
          "type": "address"
        }
      ],
      "stateMutability": "view",
      "type": "function"
    },
    {
      "inputs": [],
      "name": "owner",
      "outputs": [
        {
          "internalType": "address",
          "name": "",
          "type": "address"
        }
      ],
      "stateMutability": "view",
      "type": "function"
    },
    {
      "inputs": [
        {
          "internalType": "uint256",
          "name": "",
          "type": "uint256"
        }
      ],
      "name": "positionOwner",
      "outputs": [
        {
          "internalType": "address",
          "name": "",
          "type": "address"
        }
      ],
      "stateMutability": "view",
      "type": "function"
    },
    {
      "inputs": [
        {
          "internalType": "uint256",
          "name": "",
          "type": "uint256"
        }
      ],
      "name": "positions",
      "outputs": [
        {
          "internalType": "uint256",
          "name": "positionId",
          "type": "uint256"
        },
        {
          "internalType": "int256",
          "name": "size",
          "type": "int256"
        },
        {
          "internalType": "bool",
          "name": "isLong",
          "type": "bool"
        },
        {
          "internalType": "uint256",
          "name": "entryPrice",
          "type": "uint256"
        },
        {
          "internalType": "uint256",
          "name": "entryFundingIndex",
          "type": "uint256"
        },
        {
          "internalType": "uint256",
          "name": "lastInteractionTime",
          "type": "uint256"
        },
        {
          "internalType": "bool",
          "name": "isActive",
          "type": "bool"
        }
      ],
      "stateMutability": "view",
      "type": "function"
    },
    {
      "inputs": [
        {
          "internalType": "address",
          "name": "account",
          "type": "address"
        }
      ],
      "name": "removeAuthorized",
      "outputs": [],
      "stateMutability": "nonpayable",
      "type": "function"
    },
    {
      "inputs": [],
      "name": "totalLongSize",
      "outputs": [
        {
          "internalType": "int256",
          "name": "",
          "type": "int256"
        }
      ],
      "stateMutability": "view",
      "type": "function"
    },
    {
      "inputs": [],
      "name": "totalShortSize",
      "outputs": [
        {
          "internalType": "int256",
          "name": "",
          "type": "int256"
        }
      ],
      "stateMutability": "view",
      "type": "function"
    },
    {
      "inputs": [],
      "name": "tradingFeeRate",
      "outputs": [
        {
          "internalType": "uint256",
          "name": "",
          "type": "uint256"
        }
      ],
      "stateMutability": "view",
      "type": "function"
    },
    {
      "inputs": [
        {
          "internalType": "address",
          "name": "newOwner",
          "type": "address"
        }
      ],
      "name": "transferOwnership",
      "outputs": [],
      "stateMutability": "nonpayable",
      "type": "function"
    },
    {
      "inputs": [
        {
          "internalType": "uint256",
          "name": "_volumeScaleFactor",
          "type": "uint256"
        }
      ],
      "name": "updateSensitivity",
      "outputs": [],
      "stateMutability": "nonpayable",
      "type": "function"
    },
    {
      "inputs": [
        {
          "internalType": "address",
          "name": "",
          "type": "address"
        },
        {
          "internalType": "uint256",
          "name": "",
          "type": "uint256"
        }
      ],
      "name": "userPositionIds",
      "outputs": [
        {
          "internalType": "uint256",
          "name": "",
          "type": "uint256"
        }
      ],
      "stateMutability": "view",
      "type": "function"
    },
    {
      "inputs": [],
      "name": "vault",
      "outputs": [
        {
          "internalType": "contract ISimpleVault",
          "name": "",
          "type": "address"
        }
      ],
      "stateMutability": "view",
      "type": "function"
    },
    {
      "inputs": [],
      "name": "volumeScaleFactor",
      "outputs": [
        {
          "internalType": "uint256",
          "name": "",
          "type": "uint256"
        }
      ],
      "stateMutability": "view",
      "type": "function"
    }
  ],
  "bytecode": "0x6080346200010157601f62001c8338819003918201601f19168301916001600160401b03831184841017620001065780849260609460405283398101031262000101576200004d816200011c565b9060406200005e602083016200011c565b91015190601e6003556101f4600455670de0b6b3a76400009283600555603260075583600855678ac7230489e800006009556001600d5560018060a01b0319913383600054161760005560018060a01b038092168360015416176001551690600254161760025581810290808204831490151715620000eb5704600655604051611b519081620001328239f35b634e487b7160e01b600052601160045260246000fd5b600080fd5b634e487b7160e01b600052604160045260246000fd5b51906001600160a01b0382168203620001015756fe60806040818152600436101561001457600080fd5b60009160e08335811c918263022f84b7146116a8575081630965c48f1461154c5781630f2590131461152b5781632a6bc2dd146112f357816334c1557d146112d757816344f88097146112b8578163485d7d94146112495781635bf804af1461122a578163604096321461120d578163612766c7146110955781636e33531b14610c265781636e7f1e4614610bff5781637b6eb9b614610ba95781637da21dea14610b8a5781637dc0d1d014610b61578163833b0acb14610b4257816383acb48a14610b235781638da5cb5b14610afb57816395082d2514610ad857816399fbab8814610a635781639b45ec9714610a475781639fc15e78146109c8578163add3fad1146109a9578163b3060d3614610974578163b5e5537714610955578163b918161114610917578163bf6268f2146108f8578163ca414882146108a7578163cf1c316a146107ec578163d2e7b978146106b6578163e01df1a814610697578163e1f1c4a71461067a578163eaf1f1e614610310578163eb02c3011461028357508063f257b32e14610265578063f2fde38b146101e65763fbfa77cf146101bb57600080fd5b346101e257816003193601126101e25760015490516001600160a01b039091168152602090f35b5080fd5b50346101e25760203660031901126101e2576102006116c4565b8254906001600160a01b03906102193383851614611a53565b1691821561023257506001600160a01b03191617815580f35b5162461bcd60e51b815260206004820152600d60248201526c24b73b30b634b21037bbb732b960991b6044820152606490fd5b50346101e257816003193601126101e257602090600d549051908152f35b82843461030d57602036600319011261030d578161030b916102a36119a6565b506004358152600a602052209160ff60068251946102c0866118ce565b8054865260018101546020870152826002820154161515848701526003810154606087015260048101546080870152600581015460a0870152015416151560c08401525180926116ee565bf35b80fd5b82843461030d5760a036600319011261030d576004359161032f6116df565b8315610641576001604435101580610634575b156105fd5761035360443585611761565b9361038b61035f6117aa565b91606435831015806105f1575b61037590611891565b61271061038460035489611761565b04906117d9565b6001546001600160a01b031690813b156105ed578451630ead3e9960e31b815233600482015260248101919091529085908290604490829084905af180156105e3579085916105cb575b5050600d54936103e485611936565b600d5582156105b7576103f986600e54611945565b600e555b61040c600e54600f5490611961565b6010556104a9845161041d816118ce565b868152600687602083018a8152888401881515815260608501888152610481608087019289845260a088019442865260c0890196600188528b52600a6020528d8b2098518955516001890155511515600288019060ff801983541691151516179055565b51600386015551600485015551600584015551151591019060ff801983541691151516179055565b600c602052838120336bffffffffffffffffffffffff60a01b825416179055338152600b602052838120805491680100000000000000008310156105a35750926020969261053c8761052385829860017f5cf8fa4a8e333990018876ad3a82065e68b3859d46c3198b692b77fc3043808b98018155611733565b90919082549060031b91821b91600019901b1916179055565b85519115158252602082019390935260408101929092526044356060830152339180608081015b0390a37f31423be1df71d4ecba11d1051d8033416ed316d601c79812e7cd8103e35b88a0816105906117aa565b601054825191825286820152a151908152f35b634e487b7160e01b81526041600452602490fd5b6105c386600f54611945565b600f556103fd565b6105d490611900565b6105df5783866103d5565b8380fd5b84513d87823e3d90fd5b8580fd5b5060843583111561036c565b815162461bcd60e51b815260206004820152601060248201526f496e76616c6964206c6576657261676560801b6044820152606490fd5b5060326044351115610342565b815162461bcd60e51b8152602060048201526012602482015271125b9d985b1a590818dbdb1b185d195c985b60721b6044820152606490fd5b5050346101e257816003193601126101e257602090516127108152f35b5050346101e257816003193601126101e2576020906003549051908152f35b5050346101e257806003193601126101e2576004356106d36116df565b906106dc6117aa565b916106e56117f3565b9290911561079c5764e8d4a5100090818102918183041490151715610788578082111561077e57610715916117e6565b905b670de0b6b3a76400009081810291818304149015171561076a576020949161073e9161178a565b905b508181111561075b5790610753916117e6565b905b51908152f35b610764916117e6565b90610755565b634e487b7160e01b85526011600452602485fd5b5060011c90610717565b634e487b7160e01b86526011600452602486fd5b9064e8d4a510009182810292818404149015171561078857906107be916117d9565b90670de0b6b3a76400009081810291818304149015171561076a57602094916107e69161178a565b90610740565b5050346101e25760203660031901126101e2576108076116c4565b82546001600160a01b0391906108209083163314611ad7565b169081156108645781835260116020528220805460ff191660011790557fdd10d14f6ac19e913d4edbb11fd30661531e2ccd0d23f571e9b224f001f0dd068280a280f35b5162461bcd60e51b815260206004820152601b60248201527f53696d706c6556414d4d3a20696e76616c6964206164647265737300000000006044820152606490fd5b5050346101e257816003193601126101e25760c0906108c46117aa565b90601054600e54600f54906108d76117f3565b949093815196875260208701528501526060840152608083015260a0820152f35b5050346101e257816003193601126101e257602090600f549051908152f35b5050346101e25760203660031901126101e25760209160ff9082906001600160a01b036109426116c4565b1681526011855220541690519015158152f35b5050346101e257816003193601126101e2576020906007549051908152f35b5050346101e25760203660031901126101e2576004358252600c6020908152918190205490516001600160a01b039091168152f35b5050346101e257816003193601126101e2576020906005549051908152f35b5050346101e25760203660031901126101e257600435906109f360018060a01b038454163314611a53565b81151580610a3b575b15610a08575060075580f35b5162461bcd60e51b815260206004820152600d60248201526c496e76616c6964207363616c6560981b6044820152606490fd5b506103e88211156109fc565b5050346101e257816003193601126101e2576020905160328152f35b82843461030d57602036600319011261030d5781906004358152600a602052209081549160018101549160ff6002830154169060038301549060048401549260ff600660058701549601541695825197885260208801521515908601526060850152608084015260a0830152151560c0820152f35b5050346101e257816003193601126101e25760209051670de0b6b3a76400008152f35b5050346101e257816003193601126101e257905490516001600160a01b039091168152602090f35b5050346101e257816003193601126101e2576020906004549051908152f35b5050346101e257816003193601126101e2576020906010549051908152f35b5050346101e257816003193601126101e25760025490516001600160a01b039091168152602090f35b5050346101e257816003193601126101e2576020906009549051908152f35b5050346101e257806003193601126101e257610bc36116c4565b6001600160a01b03168252600b6020528082208054602435939084101561030d5750602092610bf191611733565b91905490519160031b1c8152f35b82843461030d578060031936011261030d5750610c1a6117f3565b82519182526020820152f35b5050346101e25760803660031901126101e25760043591602491823593808352602094600c865260018060a01b03808486205416330361105d57828552600a875283852094600686019660ff885416156110255760019788880193845491828711610ff357610c936117aa565b9560443587101580610fe7575b610ca990611891565b670de0b6b3a764000060ff60028d0154169b888d600014610fcf5750610cd66003610cdc9201548a6117e6565b8a611761565b049a5b15610fbb57610cf088600e54611961565b600e555b610d03600e54600f5490611961565b601055878403610f9c5750805460ff19169055338452600b8b52878420848b5b610ecd575b50509091929394959697985b612710610d4360035489611761565b04610d5283835416918c611961565b813b15610ec9578691604483928d519485938492630196c4ad60e71b84523360048501528b8401525af18015610ebf57610eac575b50541691898851809263649c076360e01b825233600483015281865afa908115610ea2579086918591610e6f575b50610dc99291610dc491611761565b61178a565b813b15610e6b578651639101e5b360e01b815233600482015260248101919091529082908290604490829084905af18015610e615790879291610e49575b505084519283526020830191909152604082015233907f398340331999d3ec20eba0ca6ed7fff4090f1906a8f6dfa8d96b3c4708155005908060608101610563565b819250610e5590611900565b61030d57808691610e07565b86513d84823e3d90fd5b8280fd5b8092508b8092503d8311610e9b575b610e888183611914565b810103126105df57518590610dc9610db5565b503d610e7e565b88513d86823e3d90fd5b610eb890959195611900565b9338610d87565b8a513d88823e3d90fd5b8680fd5b815480821015610f96578990610ee38385611733565b929054600393841b1c14610f0557505090610efe8c92611936565b9091610d23565b90929160009d9495969798999a9b9c9d1991828101908111610f835790610523610f32610f3f9386611733565b905490871b1c9185611733565b81548015610f7057810192610f548484611733565b81939154921b1b19169055559897969594939291903880610d28565b634e487b7160e01b895260316004528789fd5b634e487b7160e01b8a526011600452888afd5b50610d28565b9050610fb487829c939495969798999a9b9c54611961565b9055610d34565b610fc788600f54611961565b600f55610cf4565b610cd6906003610fe09301546117e6565b049a610cdf565b50606435871115610ca0565b885162461bcd60e51b8152600481018d9052600c818601526b496e76616c69642073697a6560a01b6044820152606490fd5b88601360649288519262461bcd60e51b8452600484015282015272506f736974696f6e206e6f742061637469766560681b6044820152fd5b835162461bcd60e51b815260048101889052601281880152712737ba103837b9b4ba34b7b71037bbb732b960711b6044820152606490fd5b5050346101e257816003193601126101e2577f31423be1df71d4ecba11d1051d8033416ed316d601c79812e7cd8103e35b88a09033835260206011815260ff828520541680156111fa575b6110e990611a8b565b81516001815269021e19e0c9bab2400000808383015268056bc75e2d63100000908185840152600a6060840152620f3e59807f5cf8fa4a8e333990018876ad3a82065e68b3859d46c3198b692b77fc3043808b948560803392a385519388855269032d26d12e980b6000009384878701528786015260056060860152620f3e5a94859160803392a3855191825268068155a43676e0000085830152686c6b935b8bbd400000868301527f398340331999d3ec20eba0ca6ed7fff4090f1906a8f6dfa8d96b3c4708155005918260603392a384519182526804e1003b28d928000084830152685150ae84a8cdefffff198583015260603392a36111e96117aa565b90601054908351928352820152a180f35b5083546001600160a01b031633146110e0565b5050346101e257816003193601126101e2576020906107536117aa565b5050346101e257816003193601126101e257602090600e549051908152f35b5050346101e25760203660031901126101e2576112646116c4565b82546001600160a01b03919061127d9083163314611ad7565b168083526011602052908220805460ff191690557f0fafd0343e6c6f6985727574866da48938c918559eb9521cf9cc0d317ea0f7b48280a280f35b5050346101e257816003193601126101e2576020906008549051908152f35b5050346101e257816003193601126101e2576020905160018152f35b91905034610e6b57602090816003193601126105df576001600160a01b036113196116c4565b168452600b8252808420918151808483829654938481520190885283882092885b858282106115155750505061135192500384611914565b8492855b81518110156113a157611368818361197a565b518752600a835260ff600685892001541661138c575b61138790611936565b611355565b9361139961138791611936565b94905061137e565b5083859387926113b08361198e565b926113bd83519485611914565b8084526113cc601f199161198e565b0185855b8281106114ff575050508392845b82518110156114ac576113f1818461197a565b518652600a80885260ff6006918183888b2001541661141c575b50505061141790611936565b6113de565b918397916114a393611431611417968961197a565b518b528b52878a2091885192611446846118ce565b8054845260018101548d8501528260028201541615158a8501526003810154606085015260048101546080850152600581015460a0850152015416151560c0820152611492828661197a565b5261149d818561197a565b50611936565b9490898061140b565b508251868152815181880181905290978897948801969285019550909392505b8382106114d95786860387f35b9184965082866114ef60019496988498516116ee565b01960192018695949293916114cc565b6115076119a6565b8282880101520186906113d0565b855484526001958601958995509301920161133a565b5050346101e25760203660031901126101e2576020906107536004356119de565b905034610e6b573660031901126101e2576115656116c4565b602435916044359182151583036116a45760643580151581036105ed576084359160a43560c43591338952601160205260ff868a2054168015611691575b6115ac90611a8b565b6001600160a01b031695861561164d571561160b57935191151582526020820192909252604081019290925260608201527f5cf8fa4a8e333990018876ad3a82065e68b3859d46c3198b692b77fc3043808b9080608081015b0390a380f35b935192835260208301939093525060408101919091527f398340331999d3ec20eba0ca6ed7fff4090f1906a8f6dfa8d96b3c4708155005908060608101611605565b855162461bcd60e51b815260206004820152601860248201527f53696d706c6556414d4d3a20696e76616c6964207573657200000000000000006044820152606490fd5b5088546001600160a01b031633146115a3565b8480fd5b8490346101e257816003193601126101e2576020906006548152f35b600435906001600160a01b03821682036116da57565b600080fd5b6024359081151582036116da57565b60c080918051845260208101516020850152604081015115156040850152606081015160608501526080810151608085015260a081015160a085015201511515910152565b805482101561174b5760005260206000200190600090565b634e487b7160e01b600052603260045260246000fd5b8181029291811591840414171561177457565b634e487b7160e01b600052601160045260246000fd5b8115611794570490565b634e487b7160e01b600052601260045260246000fd5b6117b26117f3565b90670de0b6b3a764000091828102928184041490151715611774576117d69161178a565b90565b9190820180921161177457565b9190820391821161177457565b6005546006549060105460008082136000146118505764e8d4a510009182810292818404149015171561183c57508082111561183557611832916117e6565b91565b5060011c91565b634e487b7160e01b81526011600452602490fd5b80829593951261185e575050565b91939091600160ff1b831461183c578281039264e8d4a51000808502948504149015171561183c575090611832916117d9565b1561189857565b60405162461bcd60e51b815260206004820152600e60248201526d507269636520736c69707061676560901b6044820152606490fd5b60e0810190811067ffffffffffffffff8211176118ea57604052565b634e487b7160e01b600052604160045260246000fd5b67ffffffffffffffff81116118ea57604052565b90601f8019910116810190811067ffffffffffffffff8211176118ea57604052565b60001981146117745760010190565b9190916000838201938412911290801582169115161761177457565b8181039291600013801582851316918412161761177457565b805182101561174b5760209160051b010190565b67ffffffffffffffff81116118ea5760051b60200190565b604051906119b3826118ce565b8160c06000918281528260208201528260408201528260608201528260808201528260a08201520152565b600052600a602052604060002060ff60068201541615611a4d57670de0b6b3a764000090611a0a6117aa565b9060018101549060ff600282015416600014611a3c57611a38926003611a32920154906117e6565b90611761565b0490565b611a38926003611a329201546117e6565b50600090565b15611a5a57565b60405162461bcd60e51b81526020600482015260096024820152682737ba1037bbb732b960b91b6044820152606490fd5b15611a9257565b60405162461bcd60e51b815260206004820152601a60248201527f53696d706c6556414d4d3a206e6f7420617574686f72697a65640000000000006044820152606490fd5b15611ade57565b60405162461bcd60e51b815260206004820152601560248201527429b4b6b83632ab20a6a69d103737ba1037bbb732b960591b6044820152606490fdfea26469706673582212207dc4493b18b9cbec71ad4f8e220aadab21018c531647a525acac79dd7bbc535164736f6c63430008140033",
  "linkReferences": {},
  "deployedLinkReferences": {}
}