{
  "_format": "hh-sol-artifact-1",
  "contractName": "SimpleVAMM",
  "sourceName": "contracts/SimpleVAMM.sol",
  "abi": [
    {
      "inputs": [
        {
          "internalType": "address",
          "name": "_vault",
          "type": "address"
        },
        {
          "internalType": "address",
          "name": "_oracle",
          "type": "address"
        },
        {
          "internalType": "uint256",
          "name": "_initialPrice",
          "type": "uint256"
        }
      ],
      "stateMutability": "nonpayable",
      "type": "constructor"
    },
    {
      "anonymous": false,
      "inputs": [
        {
          "indexed": true,
          "internalType": "address",
          "name": "user",
          "type": "address"
        },
        {
          "indexed": true,
          "internalType": "uint256",
          "name": "positionId",
          "type": "uint256"
        },
        {
          "indexed": false,
          "internalType": "uint256",
          "name": "size",
          "type": "uint256"
        },
        {
          "indexed": false,
          "internalType": "uint256",
          "name": "price",
          "type": "uint256"
        },
        {
          "indexed": false,
          "internalType": "int256",
          "name": "pnl",
          "type": "int256"
        }
      ],
      "name": "PositionClosed",
      "type": "event"
    },
    {
      "anonymous": false,
      "inputs": [
        {
          "indexed": true,
          "internalType": "address",
          "name": "user",
          "type": "address"
        },
        {
          "indexed": true,
          "internalType": "uint256",
          "name": "positionId",
          "type": "uint256"
        },
        {
          "indexed": false,
          "internalType": "bool",
          "name": "isLong",
          "type": "bool"
        },
        {
          "indexed": false,
          "internalType": "uint256",
          "name": "size",
          "type": "uint256"
        },
        {
          "indexed": false,
          "internalType": "uint256",
          "name": "price",
          "type": "uint256"
        },
        {
          "indexed": false,
          "internalType": "uint256",
          "name": "leverage",
          "type": "uint256"
        }
      ],
      "name": "PositionOpened",
      "type": "event"
    },
    {
      "anonymous": false,
      "inputs": [
        {
          "indexed": false,
          "internalType": "uint256",
          "name": "newPrice",
          "type": "uint256"
        },
        {
          "indexed": false,
          "internalType": "int256",
          "name": "netPosition",
          "type": "int256"
        }
      ],
      "name": "PriceUpdated",
      "type": "event"
    },
    {
      "inputs": [],
      "name": "BASIS_POINTS",
      "outputs": [
        {
          "internalType": "uint256",
          "name": "",
          "type": "uint256"
        }
      ],
      "stateMutability": "view",
      "type": "function"
    },
    {
      "inputs": [],
      "name": "MAX_LEVERAGE",
      "outputs": [
        {
          "internalType": "uint256",
          "name": "",
          "type": "uint256"
        }
      ],
      "stateMutability": "view",
      "type": "function"
    },
    {
      "inputs": [],
      "name": "MIN_LEVERAGE",
      "outputs": [
        {
          "internalType": "uint256",
          "name": "",
          "type": "uint256"
        }
      ],
      "stateMutability": "view",
      "type": "function"
    },
    {
      "inputs": [],
      "name": "PRICE_PRECISION",
      "outputs": [
        {
          "internalType": "uint256",
          "name": "",
          "type": "uint256"
        }
      ],
      "stateMutability": "view",
      "type": "function"
    },
    {
      "inputs": [],
      "name": "baseVirtualBaseReserves",
      "outputs": [
        {
          "internalType": "uint256",
          "name": "",
          "type": "uint256"
        }
      ],
      "stateMutability": "view",
      "type": "function"
    },
    {
      "inputs": [],
      "name": "baseVirtualQuoteReserves",
      "outputs": [
        {
          "internalType": "uint256",
          "name": "",
          "type": "uint256"
        }
      ],
      "stateMutability": "view",
      "type": "function"
    },
    {
      "inputs": [
        {
          "internalType": "uint256",
          "name": "positionId",
          "type": "uint256"
        },
        {
          "internalType": "uint256",
          "name": "sizeToClose",
          "type": "uint256"
        },
        {
          "internalType": "uint256",
          "name": "minPrice",
          "type": "uint256"
        },
        {
          "internalType": "uint256",
          "name": "maxPrice",
          "type": "uint256"
        }
      ],
      "name": "closePosition",
      "outputs": [
        {
          "internalType": "int256",
          "name": "pnl",
          "type": "int256"
        }
      ],
      "stateMutability": "nonpayable",
      "type": "function"
    },
    {
      "inputs": [],
      "name": "getEffectiveReserves",
      "outputs": [
        {
          "internalType": "uint256",
          "name": "baseReserves",
          "type": "uint256"
        },
        {
          "internalType": "uint256",
          "name": "quoteReserves",
          "type": "uint256"
        }
      ],
      "stateMutability": "view",
      "type": "function"
    },
    {
      "inputs": [],
      "name": "getMarkPrice",
      "outputs": [
        {
          "internalType": "uint256",
          "name": "",
          "type": "uint256"
        }
      ],
      "stateMutability": "view",
      "type": "function"
    },
    {
      "inputs": [],
      "name": "getMarketSummary",
      "outputs": [
        {
          "internalType": "uint256",
          "name": "markPrice",
          "type": "uint256"
        },
        {
          "internalType": "int256",
          "name": "netPositionSize",
          "type": "int256"
        },
        {
          "internalType": "uint256",
          "name": "totalLongSizeUint",
          "type": "uint256"
        },
        {
          "internalType": "uint256",
          "name": "totalShortSizeUint",
          "type": "uint256"
        },
        {
          "internalType": "uint256",
          "name": "baseReserves",
          "type": "uint256"
        },
        {
          "internalType": "uint256",
          "name": "quoteReserves",
          "type": "uint256"
        }
      ],
      "stateMutability": "view",
      "type": "function"
    },
    {
      "inputs": [
        {
          "internalType": "uint256",
          "name": "positionId",
          "type": "uint256"
        }
      ],
      "name": "getPosition",
      "outputs": [
        {
          "components": [
            {
              "internalType": "uint256",
              "name": "positionId",
              "type": "uint256"
            },
            {
              "internalType": "int256",
              "name": "size",
              "type": "int256"
            },
            {
              "internalType": "bool",
              "name": "isLong",
              "type": "bool"
            },
            {
              "internalType": "uint256",
              "name": "entryPrice",
              "type": "uint256"
            },
            {
              "internalType": "uint256",
              "name": "entryFundingIndex",
              "type": "uint256"
            },
            {
              "internalType": "uint256",
              "name": "lastInteractionTime",
              "type": "uint256"
            },
            {
              "internalType": "bool",
              "name": "isActive",
              "type": "bool"
            }
          ],
          "internalType": "struct ISimpleVAMM.Position",
          "name": "",
          "type": "tuple"
        }
      ],
      "stateMutability": "view",
      "type": "function"
    },
    {
      "inputs": [
        {
          "internalType": "uint256",
          "name": "size",
          "type": "uint256"
        },
        {
          "internalType": "bool",
          "name": "isLong",
          "type": "bool"
        }
      ],
      "name": "getPriceImpact",
      "outputs": [
        {
          "internalType": "uint256",
          "name": "",
          "type": "uint256"
        }
      ],
      "stateMutability": "view",
      "type": "function"
    },
    {
      "inputs": [
        {
          "internalType": "uint256",
          "name": "positionId",
          "type": "uint256"
        }
      ],
      "name": "getUnrealizedPnL",
      "outputs": [
        {
          "internalType": "int256",
          "name": "",
          "type": "int256"
        }
      ],
      "stateMutability": "view",
      "type": "function"
    },
    {
      "inputs": [
        {
          "internalType": "address",
          "name": "user",
          "type": "address"
        }
      ],
      "name": "getUserPositions",
      "outputs": [
        {
          "components": [
            {
              "internalType": "uint256",
              "name": "positionId",
              "type": "uint256"
            },
            {
              "internalType": "int256",
              "name": "size",
              "type": "int256"
            },
            {
              "internalType": "bool",
              "name": "isLong",
              "type": "bool"
            },
            {
              "internalType": "uint256",
              "name": "entryPrice",
              "type": "uint256"
            },
            {
              "internalType": "uint256",
              "name": "entryFundingIndex",
              "type": "uint256"
            },
            {
              "internalType": "uint256",
              "name": "lastInteractionTime",
              "type": "uint256"
            },
            {
              "internalType": "bool",
              "name": "isActive",
              "type": "bool"
            }
          ],
          "internalType": "struct ISimpleVAMM.Position[]",
          "name": "",
          "type": "tuple[]"
        }
      ],
      "stateMutability": "view",
      "type": "function"
    },
    {
      "inputs": [],
      "name": "globalPositionId",
      "outputs": [
        {
          "internalType": "uint256",
          "name": "",
          "type": "uint256"
        }
      ],
      "stateMutability": "view",
      "type": "function"
    },
    {
      "inputs": [],
      "name": "maintenanceMarginRatio",
      "outputs": [
        {
          "internalType": "uint256",
          "name": "",
          "type": "uint256"
        }
      ],
      "stateMutability": "view",
      "type": "function"
    },
    {
      "inputs": [],
      "name": "maxReserveMultiplier",
      "outputs": [
        {
          "internalType": "uint256",
          "name": "",
          "type": "uint256"
        }
      ],
      "stateMutability": "view",
      "type": "function"
    },
    {
      "inputs": [],
      "name": "minReserveMultiplier",
      "outputs": [
        {
          "internalType": "uint256",
          "name": "",
          "type": "uint256"
        }
      ],
      "stateMutability": "view",
      "type": "function"
    },
    {
      "inputs": [],
      "name": "netPosition",
      "outputs": [
        {
          "internalType": "int256",
          "name": "",
          "type": "int256"
        }
      ],
      "stateMutability": "view",
      "type": "function"
    },
    {
      "inputs": [
        {
          "internalType": "uint256",
          "name": "collateralAmount",
          "type": "uint256"
        },
        {
          "internalType": "bool",
          "name": "isLong",
          "type": "bool"
        },
        {
          "internalType": "uint256",
          "name": "leverage",
          "type": "uint256"
        },
        {
          "internalType": "uint256",
          "name": "minPrice",
          "type": "uint256"
        },
        {
          "internalType": "uint256",
          "name": "maxPrice",
          "type": "uint256"
        }
      ],
      "name": "openPosition",
      "outputs": [
        {
          "internalType": "uint256",
          "name": "positionId",
          "type": "uint256"
        }
      ],
      "stateMutability": "nonpayable",
      "type": "function"
    },
    {
      "inputs": [],
      "name": "oracle",
      "outputs": [
        {
          "internalType": "contract ISimplePriceOracle",
          "name": "",
          "type": "address"
        }
      ],
      "stateMutability": "view",
      "type": "function"
    },
    {
      "inputs": [],
      "name": "owner",
      "outputs": [
        {
          "internalType": "address",
          "name": "",
          "type": "address"
        }
      ],
      "stateMutability": "view",
      "type": "function"
    },
    {
      "inputs": [
        {
          "internalType": "uint256",
          "name": "",
          "type": "uint256"
        }
      ],
      "name": "positionOwner",
      "outputs": [
        {
          "internalType": "address",
          "name": "",
          "type": "address"
        }
      ],
      "stateMutability": "view",
      "type": "function"
    },
    {
      "inputs": [
        {
          "internalType": "uint256",
          "name": "",
          "type": "uint256"
        }
      ],
      "name": "positions",
      "outputs": [
        {
          "internalType": "uint256",
          "name": "positionId",
          "type": "uint256"
        },
        {
          "internalType": "int256",
          "name": "size",
          "type": "int256"
        },
        {
          "internalType": "bool",
          "name": "isLong",
          "type": "bool"
        },
        {
          "internalType": "uint256",
          "name": "entryPrice",
          "type": "uint256"
        },
        {
          "internalType": "uint256",
          "name": "entryFundingIndex",
          "type": "uint256"
        },
        {
          "internalType": "uint256",
          "name": "lastInteractionTime",
          "type": "uint256"
        },
        {
          "internalType": "bool",
          "name": "isActive",
          "type": "bool"
        }
      ],
      "stateMutability": "view",
      "type": "function"
    },
    {
      "inputs": [],
      "name": "totalLongSize",
      "outputs": [
        {
          "internalType": "int256",
          "name": "",
          "type": "int256"
        }
      ],
      "stateMutability": "view",
      "type": "function"
    },
    {
      "inputs": [],
      "name": "totalShortSize",
      "outputs": [
        {
          "internalType": "int256",
          "name": "",
          "type": "int256"
        }
      ],
      "stateMutability": "view",
      "type": "function"
    },
    {
      "inputs": [],
      "name": "tradingFeeRate",
      "outputs": [
        {
          "internalType": "uint256",
          "name": "",
          "type": "uint256"
        }
      ],
      "stateMutability": "view",
      "type": "function"
    },
    {
      "inputs": [
        {
          "internalType": "address",
          "name": "newOwner",
          "type": "address"
        }
      ],
      "name": "transferOwnership",
      "outputs": [],
      "stateMutability": "nonpayable",
      "type": "function"
    },
    {
      "inputs": [
        {
          "internalType": "uint256",
          "name": "_volumeScaleFactor",
          "type": "uint256"
        }
      ],
      "name": "updateSensitivity",
      "outputs": [],
      "stateMutability": "nonpayable",
      "type": "function"
    },
    {
      "inputs": [
        {
          "internalType": "address",
          "name": "",
          "type": "address"
        },
        {
          "internalType": "uint256",
          "name": "",
          "type": "uint256"
        }
      ],
      "name": "userPositionIds",
      "outputs": [
        {
          "internalType": "uint256",
          "name": "",
          "type": "uint256"
        }
      ],
      "stateMutability": "view",
      "type": "function"
    },
    {
      "inputs": [],
      "name": "vault",
      "outputs": [
        {
          "internalType": "contract ISimpleVault",
          "name": "",
          "type": "address"
        }
      ],
      "stateMutability": "view",
      "type": "function"
    },
    {
      "inputs": [],
      "name": "volumeScaleFactor",
      "outputs": [
        {
          "internalType": "uint256",
          "name": "",
          "type": "uint256"
        }
      ],
      "stateMutability": "view",
      "type": "function"
    }
  ],
  "bytecode": "0x6080346100f757601f61179138819003918201601f19168301916001600160401b038311848410176100fc578084926060946040528339810103126100f75761004781610112565b90604061005660208301610112565b91015190601e6003556101f4600455670de0b6b3a76400009283600555603260075583600855678ac7230489e800006009556001600d5560018060a01b0319913383600054161760005560018060a01b0380921683600154161760015516906002541617600255818102908082048314901517156100e1570460065560405161166a90816101278239f35b634e487b7160e01b600052601160045260246000fd5b600080fd5b634e487b7160e01b600052604160045260246000fd5b51906001600160a01b03821682036100f75756fe608060408181526004918236101561001657600080fd5b60009260e08435811c928363022f84b714611251575082630f259013146112305782632a6bc2dd1461100057826334c1557d14610fe357826344f8809714610fc35782635bf804af14610fa35782636040963214610f855782636e33531b14610afb5782636e7f1e4614610ad45782637b6eb9b614610a7d5782637da21dea14610a5d5782637dc0d1d014610a33578263833b0acb14610a1357826383acb48a146109f45782638da5cb5b146109cb57826395082d25146109a757826399fbab88146109355782639b45ec97146109185782639fc15e7814610898578263add3fad114610878578263b3060d3614610844578263b5e5537714610824578263bf6268f214610804578263ca414882146107b2578263d2e7b9781461067b578263e01df1a81461065b578263e1f1c4a71461063d578263eaf1f1e6146102e2578263eb02c3011461025757508163f257b32e14610238578163f2fde38b146101b2575063fbfa77cf1461018757600080fd5b346101ae57816003193601126101ae5760015490516001600160a01b039091168152602090f35b5080fd5b905034610234576020366003190112610234576101cd61126d565b835491906001600160a01b03906101e733838616146115fc565b169283156102015750506001600160a01b03191617815580f35b906020606492519162461bcd60e51b8352820152600d60248201526c24b73b30b634b21037bbb732b960991b6044820152fd5b8280fd5b5050346101ae57816003193601126101ae57602090600d549051908152f35b908385346102df5760203660031901126102df579060ff6006826102dd9461027d61154f565b5086358152600a6020522083519561029487611477565b815487526001820154602088015283600283015416151585880152600382015460608801528101546080870152600581015460a0870152015416151560c0840152518092611288565bf35b80fd5b508383346101ae5760a03660031901126101ae578235906103016112fb565b6044358315610605576001811015806105fa575b156105c457610324818561130a565b9361035c610330611353565b91606435831015806105b8575b6103469061143a565b6127106103556003548961130a565b0490611382565b6001546001600160a01b0316803b156105b4578551630ead3e9960e31b815233818b019081526020810193909352918891839182908490829060400103925af180156105aa57908791610592575b5050600d54946103b9866114df565b600d55831561057e576103ce81600e546114ee565b600e555b600e54600f546103e19161150a565b6010558451966103f088611477565b8688526020978789808301858152898401981515988981526060850190888252608086019287845260a087019442865260c0880196600188528952600a90528c8820965187555160018701555115156002860190610459919060ff801983541691151516179055565b516003850155518c8401555160058301555115159060060190610487919060ff801983541691151516179055565b600c8852858120336bffffffffffffffffffffffff60a01b825416179055338152600b88528581208054916801000000000000000083101561056b5750876104dd836104f6936001849a999897960181556112cd565b90919082549060031b91821b91600019901b1916179055565b8551938452878401528483015260608201527f5cf8fa4a8e333990018876ad3a82065e68b3859d46c3198b692b77fc3043808b60803392a37f31423be1df71d4ecba11d1051d8033416ed316d601c79812e7cd8103e35b88a081610558611353565b601054825191825286820152a151908152f35b634e487b7160e01b815260418b52602490fd5b61058a81600f546114ee565b600f556103d2565b61059b906114a9565b6105a65785886103aa565b8580fd5b85513d89823e3d90fd5b8780fd5b5060843583111561033d565b825162461bcd60e51b8152602081880152601060248201526f496e76616c6964206c6576657261676560801b6044820152606490fd5b506032811115610315565b825162461bcd60e51b81526020818801526012602482015271125b9d985b1a590818dbdb1b185d195c985b60721b6044820152606490fd5b505050346101ae57816003193601126101ae57602090516127108152f35b505050346101ae57816003193601126101ae576020906003549051908152f35b508284346102df57816003193601126102df578235906106996112fb565b916106a2611353565b926106ab61139c565b929091156107615764e8d4a510009081810291818304149015171561074e5780821115610744576106db9161138f565b905b670de0b6b3a76400009081810291818304149015171561073157602095509061070591611333565b905b5081811115610722579061071a9161138f565b905b51908152f35b61072b9161138f565b9061071c565b634e487b7160e01b835260118652602483fd5b5060011c906106dd565b634e487b7160e01b845260118752602484fd5b9064e8d4a510009182810292818404149015171561074e579061078391611382565b90670de0b6b3a7640000908181029181830414901517156107315760209550906107ac91611333565b90610707565b505050346101ae57816003193601126101ae5760c0906107d0611353565b90601054600e54600f54906107e361139c565b949093815196875260208701528501526060840152608083015260a0820152f35b505050346101ae57816003193601126101ae57602090600f549051908152f35b505050346101ae57816003193601126101ae576020906007549051908152f35b5090503461023457602036600319011261023457358252600c6020908152918190205490516001600160a01b039091168152f35b505050346101ae57816003193601126101ae576020906005549051908152f35b50905034610234576020366003190112610234578035916108c360018060a01b0385541633146115fc565b8215158061090c575b156108d957505060075580f35b906020606492519162461bcd60e51b8352820152600d60248201526c496e76616c6964207363616c6560981b6044820152fd5b506103e88311156108cc565b505050346101ae57816003193601126101ae576020905160328152f35b838286346102df5760203660031901126102df57829082358152600a6020522080549260018201549260ff600284015416916003840154918401549260ff600660058701549601541695825197885260208801521515908601526060850152608084015260a0830152151560c0820152f35b505050346101ae57816003193601126101ae5760209051670de0b6b3a76400008152f35b505050346101ae57816003193601126101ae57905490516001600160a01b039091168152602090f35b5090503461023457826003193601126102345760209250549051908152f35b505050346101ae57816003193601126101ae576020906010549051908152f35b505050346101ae57816003193601126101ae5760025490516001600160a01b039091168152602090f35b505050346101ae57816003193601126101ae576020906009549051908152f35b505050346101ae57806003193601126101ae57610a9861126d565b6001600160a01b03168252600b602052808220805460243593908410156102df5750602092610ac6916112cd565b91905490519160031b1c8152f35b8385346102df57806003193601126102df5750610aef61139c565b82519182526020820152f35b84828534610234576080366003190112610234578135906024918235818652602094600c865260018060a01b03968785822054163303610f4e57838152600a875284812091600683019660ff88541615610f16576001978885019a8b5491828811610ee557670de0b6b3a76400009a9b9c610b74611353565b9b8c986044358a101580610ed9575b610b8c9061143a565b600281015460ff169d8e15610ec15750610bad6003610bb39201548b61138f565b8b61130a565b049b5b15610ead57610bc789600e5461150a565b600e555b610bda600e54600f549061150a565b601055888403610e8d5750805460ff19169055338552600b8c52888520858c5b610dbe575b5050909192939495969798995b612710610c1b6003548a61130a565b04610c2a83835416918d61150a565b813b156105b4578791604483928e519485938492630196c4ad60e71b8452338d8501528b8401525af18015610db457610da1575b505416918a8951809263649c076360e01b8252338783015281865afa908115610d97579087918691610d60575b50610c9f9291610c9a9161130a565b611333565b91813b15610d5c578751639101e5b360e01b81523391810191825260208201939093528391839182908490829060400103925af18015610d5257610d3e575b505083519182528582015283838201527f398340331999d3ec20eba0ca6ed7fff4090f1906a8f6dfa8d96b3c470815500560603392a37f31423be1df71d4ecba11d1051d8033416ed316d601c79812e7cd8103e35b88a081610558611353565b610d4882916114a9565b6102df5780610cde565b86513d84823e3d90fd5b8380fd5b8092508c8092503d8311610d90575b610d7981836114bd565b81010312610d8c57518690610c9f610c8b565b8480fd5b503d610d6f565b89513d87823e3d90fd5b610dad909691966114a9565b948c610c5e565b8b513d89823e3d90fd5b815480821015610e87578a90610dd483856112cd565b929054600393841b1c14610df657505090610def8d926114df565b9091610bfa565b90929160009e9495969798999a9b9c9d9e1991828101908111610e7557906104dd610e24610e3193866112cd565b905490871b1c91856112cd565b81548015610e6357810192610e4684846112cd565b81939154921b1b1916905555999897969594939291908c80610bff565b634e487b7160e01b8a5260318952878afd5b634e487b7160e01b8b5260118a52888bfd5b50610bff565b9050610ea688829d939495969798999a9b9c9d5461150a565b9055610c0c565b610eb989600f5461150a565b600f55610bcb565b610bad906003610ed293015461138f565b049b610bb6565b506064358a1115610b83565b895162461bcd60e51b81528086018d9052600c818601526b496e76616c69642073697a6560a01b6044820152606490fd5b865162461bcd60e51b815291820189905260139082015272506f736974696f6e206e6f742061637469766560681b6044820152606490fd5b845162461bcd60e51b8152808301889052601281880152712737ba103837b9b4ba34b7b71037bbb732b960711b6044820152606490fd5b505050346101ae57816003193601126101ae5760209061071a611353565b505050346101ae57816003193601126101ae57602090600e549051908152f35b505050346101ae57816003193601126101ae576020906008549051908152f35b505050346101ae57816003193601126101ae576020905160018152f35b91509134610d5c57602080600319360112610d8c576001600160a01b0361102561126d565b168552600b81528185208251808284829454938481520190895284892092895b8682821061121a5750505061105c925003826114bd565b8593865b82518110156110ac576110738184611523565b518852600a845260ff6006868a20015416611097575b611092906114df565b611060565b946110a4611092916114df565b959050611089565b5094908693946110bb81611537565b906110c8875192836114bd565b8082526110d7601f1991611537565b0184865b828110611204575050508493855b83518110156111b6576110fc8185611523565b518752600a80835260ff60069181838c8c20015416611127575b505050611122906114df565b6110e9565b918398916111ad9361113c611122968a611523565b518c5286528b8b20918c519261115184611477565b805484526001810154888501526002810154831615158e850152600381015460608501528a8101546080850152600581015460a0850152015416151560c082015261119c8287611523565b526111a78186611523565b506114df565b95908a80611116565b875182815283518184018190528190818b019086860190868c8f5b8382106111de5786860387f35b9184965082866111f46001949698849851611288565b01960192018695949293916111d1565b61120c61154f565b8282860101520185906110db565b8554845260019586019587955093019201611045565b508284346102df5760203660031901126102df575061071a60209235611587565b8590346101ae57816003193601126101ae576020906006548152f35b600435906001600160a01b038216820361128357565b600080fd5b60c080918051845260208101516020850152604081015115156040850152606081015160608501526080810151608085015260a081015160a085015201511515910152565b80548210156112e55760005260206000200190600090565b634e487b7160e01b600052603260045260246000fd5b60243590811515820361128357565b8181029291811591840414171561131d57565b634e487b7160e01b600052601160045260246000fd5b811561133d570490565b634e487b7160e01b600052601260045260246000fd5b61135b61139c565b90670de0b6b3a76400009182810292818404149015171561131d5761137f91611333565b90565b9190820180921161131d57565b9190820391821161131d57565b6005546006549060105460008082136000146113f95764e8d4a51000918281029281840414901517156113e55750808211156113de576113db9161138f565b91565b5060011c91565b634e487b7160e01b81526011600452602490fd5b808295939512611407575050565b91939091600160ff1b83146113e5578281039264e8d4a5100080850294850414901517156113e55750906113db91611382565b1561144157565b60405162461bcd60e51b815260206004820152600e60248201526d507269636520736c69707061676560901b6044820152606490fd5b60e0810190811067ffffffffffffffff82111761149357604052565b634e487b7160e01b600052604160045260246000fd5b67ffffffffffffffff811161149357604052565b90601f8019910116810190811067ffffffffffffffff82111761149357604052565b600019811461131d5760010190565b9190916000838201938412911290801582169115161761131d57565b8181039291600013801582851316918412161761131d57565b80518210156112e55760209160051b010190565b67ffffffffffffffff81116114935760051b60200190565b6040519061155c82611477565b8160c06000918281528260208201528260408201528260608201528260808201528260a08201520152565b600052600a602052604060002060ff600682015416156115f657670de0b6b3a7640000906115b3611353565b9060018101549060ff6002820154166000146115e5576115e19260036115db9201549061138f565b9061130a565b0490565b6115e19260036115db92015461138f565b50600090565b1561160357565b60405162461bcd60e51b81526020600482015260096024820152682737ba1037bbb732b960b91b6044820152606490fdfea26469706673582212208757d8ff51acf6efec7c217fb2a7f230570c25aa030342bee5691d3e30c2c96f64736f6c63430008140033",
  "linkReferences": {},
  "deployedLinkReferences": {}
}