{"abi":[{"type":"constructor","inputs":[{"name":"_initialCoSigners","type":"address[]","internalType":"address[]"},{"name":"_requiredSignatures","type":"uint256","internalType":"uint256"}],"stateMutability":"nonpayable"},{"type":"function","name":"addCoSigner","inputs":[{"name":"signer","type":"address","internalType":"address"}],"outputs":[],"stateMutability":"nonpayable"},{"type":"function","name":"approveWithdrawal","inputs":[{"name":"user","type":"address","internalType":"address"},{"name":"token","type":"address","internalType":"address"},{"name":"amount","type":"uint256","internalType":"uint256"},{"name":"withdrawId","type":"bytes32","internalType":"bytes32"},{"name":"chainId","type":"uint256","internalType":"uint256"},{"name":"vault","type":"address","internalType":"address"}],"outputs":[],"stateMutability":"nonpayable"},{"type":"function","name":"approvedWithdrawals","inputs":[{"name":"","type":"bytes32","internalType":"bytes32"}],"outputs":[{"name":"","type":"bool","internalType":"bool"}],"stateMutability":"view"},{"type":"function","name":"batchApproveWithdrawals","inputs":[{"name":"withdrawalHashes","type":"bytes32[]","internalType":"bytes32[]"}],"outputs":[],"stateMutability":"nonpayable"},{"type":"function","name":"blacklistAddress","inputs":[{"name":"user","type":"address","internalType":"address"},{"name":"reason","type":"string","internalType":"string"}],"outputs":[],"stateMutability":"nonpayable"},{"type":"function","name":"blacklisted","inputs":[{"name":"","type":"address","internalType":"address"}],"outputs":[{"name":"","type":"bool","internalType":"bool"}],"stateMutability":"view"},{"type":"function","name":"coSigners","inputs":[{"name":"","type":"uint256","internalType":"uint256"}],"outputs":[{"name":"","type":"address","internalType":"address"}],"stateMutability":"view"},{"type":"function","name":"getCoSigners","inputs":[],"outputs":[{"name":"","type":"address[]","internalType":"address[]"}],"stateMutability":"view"},{"type":"function","name":"getUserDailyWithdrawn","inputs":[{"name":"user","type":"address","internalType":"address"}],"outputs":[{"name":"","type":"uint256","internalType":"uint256"}],"stateMutability":"view"},{"type":"function","name":"getUserRemainingLimit","inputs":[{"name":"user","type":"address","internalType":"address"}],"outputs":[{"name":"","type":"uint256","internalType":"uint256"}],"stateMutability":"view"},{"type":"function","name":"getWithdrawalHash","inputs":[{"name":"user","type":"address","internalType":"address"},{"name":"token","type":"address","internalType":"address"},{"name":"amount","type":"uint256","internalType":"uint256"},{"name":"withdrawId","type":"bytes32","internalType":"bytes32"},{"name":"chainId","type":"uint256","internalType":"uint256"},{"name":"vault","type":"address","internalType":"address"}],"outputs":[{"name":"","type":"bytes32","internalType":"bytes32"}],"stateMutability":"pure"},{"type":"function","name":"isCoSigner","inputs":[{"name":"","type":"address","internalType":"address"}],"outputs":[{"name":"","type":"bool","internalType":"bool"}],"stateMutability":"view"},{"type":"function","name":"isWithdrawalApproved","inputs":[{"name":"hash","type":"bytes32","internalType":"bytes32"}],"outputs":[{"name":"","type":"bool","internalType":"bool"}],"stateMutability":"view"},{"type":"function","name":"maxUserDailyLimit","inputs":[],"outputs":[{"name":"","type":"uint256","internalType":"uint256"}],"stateMutability":"view"},{"type":"function","name":"nonces","inputs":[{"name":"","type":"address","internalType":"address"}],"outputs":[{"name":"","type":"uint256","internalType":"uint256"}],"stateMutability":"view"},{"type":"function","name":"owner","inputs":[],"outputs":[{"name":"","type":"address","internalType":"address"}],"stateMutability":"view"},{"type":"function","name":"removeCoSigner","inputs":[{"name":"signer","type":"address","internalType":"address"}],"outputs":[],"stateMutability":"nonpayable"},{"type":"function","name":"renounceOwnership","inputs":[],"outputs":[],"stateMutability":"nonpayable"},{"type":"function","name":"requiredSignatures","inputs":[],"outputs":[{"name":"","type":"uint256","internalType":"uint256"}],"stateMutability":"view"},{"type":"function","name":"setThreshold","inputs":[{"name":"newThreshold","type":"uint256","internalType":"uint256"}],"outputs":[],"stateMutability":"nonpayable"},{"type":"function","name":"transferOwnership","inputs":[{"name":"newOwner","type":"address","internalType":"address"}],"outputs":[],"stateMutability":"nonpayable"},{"type":"function","name":"unblacklistAddress","inputs":[{"name":"user","type":"address","internalType":"address"}],"outputs":[],"stateMutability":"nonpayable"},{"type":"function","name":"userDailyWithdrawals","inputs":[{"name":"","type":"address","internalType":"address"},{"name":"","type":"uint256","internalType":"uint256"}],"outputs":[{"name":"","type":"uint256","internalType":"uint256"}],"stateMutability":"view"},{"type":"function","name":"verifyMultiSignature","inputs":[{"name":"user","type":"address","internalType":"address"},{"name":"token","type":"address","internalType":"address"},{"name":"amount","type":"uint256","internalType":"uint256"},{"name":"withdrawId","type":"bytes32","internalType":"bytes32"},{"name":"chainId","type":"uint256","internalType":"uint256"},{"name":"vault","type":"address","internalType":"address"},{"name":"signatures","type":"bytes[]","internalType":"bytes[]"}],"outputs":[{"name":"","type":"bool","internalType":"bool"}],"stateMutability":"view"},{"type":"function","name":"verifySignature","inputs":[{"name":"user","type":"address","internalType":"address"},{"name":"token","type":"address","internalType":"address"},{"name":"amount","type":"uint256","internalType":"uint256"},{"name":"withdrawId","type":"bytes32","internalType":"bytes32"},{"name":"chainId","type":"uint256","internalType":"uint256"},{"name":"vault","type":"address","internalType":"address"},{"name":"signature","type":"bytes","internalType":"bytes"}],"outputs":[{"name":"valid","type":"bool","internalType":"bool"},{"name":"signer","type":"address","internalType":"address"}],"stateMutability":"view"},{"type":"event","name":"AddressBlacklisted","inputs":[{"name":"user","type":"address","indexed":true,"internalType":"address"},{"name":"reason","type":"string","indexed":false,"internalType":"string"}],"anonymous":false},{"type":"event","name":"AddressUnblacklisted","inputs":[{"name":"user","type":"address","indexed":true,"internalType":"address"}],"anonymous":false},{"type":"event","name":"CoSignerAdded","inputs":[{"name":"signer","type":"address","indexed":true,"internalType":"address"}],"anonymous":false},{"type":"event","name":"CoSignerRemoved","inputs":[{"name":"signer","type":"address","indexed":true,"internalType":"address"}],"anonymous":false},{"type":"event","name":"OwnershipTransferred","inputs":[{"name":"previousOwner","type":"address","indexed":true,"internalType":"address"},{"name":"newOwner","type":"address","indexed":true,"internalType":"address"}],"anonymous":false},{"type":"event","name":"ThresholdUpdated","inputs":[{"name":"newThreshold","type":"uint256","indexed":false,"internalType":"uint256"}],"anonymous":false},{"type":"event","name":"WithdrawalApproved","inputs":[{"name":"withdrawalHash","type":"bytes32","indexed":true,"internalType":"bytes32"},{"name":"approver","type":"address","indexed":true,"internalType":"address"}],"anonymous":false},{"type":"event","name":"WithdrawalBatchApproved","inputs":[{"name":"hashes","type":"bytes32[]","indexed":false,"internalType":"bytes32[]"},{"name":"approver","type":"address","indexed":true,"internalType":"address"}],"anonymous":false},{"type":"error","name":"AddressBlacklistedError","inputs":[]},{"type":"error","name":"AlreadyApproved","inputs":[]},{"type":"error","name":"ECDSAInvalidSignature","inputs":[]},{"type":"error","name":"ECDSAInvalidSignatureLength","inputs":[{"name":"length","type":"uint256","internalType":"uint256"}]},{"type":"error","name":"ECDSAInvalidSignatureS","inputs":[{"name":"s","type":"bytes32","internalType":"bytes32"}]},{"type":"error","name":"InsufficientSignatures","inputs":[]},{"type":"error","name":"InvalidSignature","inputs":[]},{"type":"error","name":"NotCoSigner","inputs":[]},{"type":"error","name":"OwnableInvalidOwner","inputs":[{"name":"owner","type":"address","internalType":"address"}]},{"type":"error","name":"OwnableUnauthorizedAccount","inputs":[{"name":"account","type":"address","internalType":"address"}]},{"type":"error","name":"UserDailyLimitExceeded","inputs":[]}],"bytecode":{"object":"0x60806040526402540be40060085534801562000019575f80fd5b5060405162001a7338038062001a738339810160408190526200003c91620002a2565b33806200006357604051631e4fbdf760e01b81525f60048201526024015b60405180910390fd5b6200006e8162000223565b508151811115620000b75760405162461bcd60e51b81526020600482015260126024820152710e8d0e4cae6d0ded8c840e8dede40d0d2ced60731b60448201526064016200005a565b5f8111620001085760405162461bcd60e51b815260206004820152601560248201527f7468726573686f6c64206d757374206265203e2030000000000000000000000060448201526064016200005a565b5f5b825181101562000218576001805f8584815181106200012d576200012d62000377565b60200260200101516001600160a01b03166001600160a01b031681526020019081526020015f205f6101000a81548160ff021916908315150217905550600283828151811062000181576200018162000377565b60209081029190910181015182546001810184555f938452919092200180546001600160a01b0319166001600160a01b039092169190911790558251839082908110620001d257620001d262000377565b60200260200101516001600160a01b03167f98ee294f1bb7e8a0f6d065619fa90bdf3b0694d7fb2ca71c4b460cd9a111515f60405160405180910390a26001016200010a565b50600355506200038b565b5f80546001600160a01b038381166001600160a01b0319831681178455604051919092169283917f8be0079c531659141344cd1fd0a4f28419497f9722a3daafe3b4186f6b6457e09190a35050565b634e487b7160e01b5f52604160045260245ffd5b80516001600160a01b03811681146200029d575f80fd5b919050565b5f8060408385031215620002b4575f80fd5b82516001600160401b0380821115620002cb575f80fd5b818501915085601f830112620002df575f80fd5b8151602082821115620002f657620002f662000272565b8160051b604051601f19603f830116810181811086821117156200031e576200031e62000272565b6040529283528183019350848101820192898411156200033c575f80fd5b948201945b838610156200036557620003558662000286565b8552948201949382019362000341565b97909101519698969750505050505050565b634e487b7160e01b5f52603260045260245ffd5b6116da80620003995f395ff3fe608060405234801561000f575f80fd5b506004361061016d575f3560e01c806379ea5caa116100d9578063960bfe0411610093578063e046c07b1161006e578063e046c07b1461039b578063eca4bf6d146103ae578063f13c1bf1146103c1578063f2fde38b146103d4575f80fd5b8063960bfe0414610351578063cc9a189e14610364578063dbac26e914610379575f80fd5b806379ea5caa146102b25780637d5088c0146102c55780637ecebe00146102e757806382d1fc2a146103065780638d068043146103385780638da5cb5b14610341575f80fd5b80635b0246fd1161012a5780635b0246fd1461022e57806361468f5b14610241578063702d5de81461024a578063715018a61461027557806371f8fa041461027d57806374cfb44814610290575f80fd5b80631ba4be0e146101715780631c479b18146101975780631d33e373146101c15780631dace8bc146101d65780632649e595146101f957806345e349491461021b575b5f80fd5b61018461017f366004611224565b6103e7565b6040519081526020015b60405180910390f35b6101846101a536600461123d565b600760209081525f928352604080842090915290825290205481565b6101d46101cf366004611224565b610421565b005b6101e96101e43660046112ad565b610515565b604051901515815260200161018e565b6101e9610207366004611224565b60016020525f908152604090205460ff1681565b6101d4610229366004611224565b6106ef565b61018461023c366004611224565b61073f565b61018460085481565b61025d610258366004611339565b61079c565b6040516001600160a01b03909116815260200161018e565b6101d46107c4565b6101d461028b36600461138e565b6107d7565b6101e961029e366004611339565b5f9081526005602052604090205460ff1690565b6101846102c03660046113dd565b61089b565b6101e96102d3366004611339565b60056020525f908152604090205460ff1681565b6101846102f5366004611224565b60046020525f908152604090205481565b610319610314366004611438565b610907565b6040805192151583526001600160a01b0390911660208301520161018e565b61018460035481565b5f546001600160a01b031661025d565b6101d461035f366004611339565b6109b8565b61036c610a89565b60405161018e91906114b0565b6101e9610387366004611224565b60066020525f908152604090205460ff1681565b6101d46103a93660046113dd565b610ae9565b6101d46103bc366004611224565b610c65565b6101d46103cf3660046114fc565b610e5a565b6101d46103e2366004611224565b610f5a565b6001600160a01b0381165f9081526007602052604081208161040c620151804261154f565b81526020019081526020015f20549050919050565b610429610f97565b6001600160a01b0381165f9081526001602052604090205460ff161561048a5760405162461bcd60e51b815260206004820152601160248201527030b63932b0b23c9031b796b9b4b3b732b960791b60448201526064015b60405180910390fd5b6001600160a01b0381165f818152600160208190526040808320805460ff19168317905560028054928301815583527f405787fa12a823e0f2b7631cc41b3ba8828b3321ca811111fa75cd3aa3bb5ace90910180546001600160a01b03191684179055517f98ee294f1bb7e8a0f6d065619fa90bdf3b0694d7fb2ca71c4b460cd9a111515f9190a250565b6003545f9082101561052857505f6106e3565b5f6105378a8a8a8a8a8a61089b565b7f19457468657265756d205369676e6564204d6573736167653a0a3332000000005f908152601c829052603c81209192508467ffffffffffffffff8111156105815761058161156e565b6040519080825280602002602001820160405280156105aa578160200160208202803683370190505b5090505f805b868110156106d7575f61061c8989848181106105ce576105ce611582565b90506020028101906105e09190611596565b8080601f0160208091040260200160405190810160405280939291908181526020018383808284375f920191909152508993925050610fc39050565b6001600160a01b0381165f9081526001602052604090205490915060ff16156106ce575f805b8481101561068d57826001600160a01b031686828151811061066657610666611582565b60200260200101516001600160a01b031603610685576001915061068d565b600101610642565b50806106cc57818585815181106106a6576106a6611582565b6001600160a01b0390921660209283029190910190910152836106c8816115d9565b9450505b505b506001016105b0565b50600354111593505050505b98975050505050505050565b6106f7610f97565b6001600160a01b0381165f81815260066020526040808220805460ff19169055517fb2aa8f2cce614e8fceaca560dbaf2a8ed3083e4ab371b10bf6d02e359216767a9190a250565b6001600160a01b0381165f908152600760205260408120819081610766620151804261154f565b81526020019081526020015f20549050600854811015610793578060085461078e91906115f1565b610795565b5f5b9392505050565b600281815481106107ab575f80fd5b5f918252602090912001546001600160a01b0316905081565b6107cc610f97565b6107d55f610fed565b565b335f9081526001602052604090205460ff16806107fd57505f546001600160a01b031633145b61083a5760405162461bcd60e51b815260206004820152600e60248201526d1b9bdd08185d5d1a1bdc9a5e995960921b6044820152606401610481565b6001600160a01b0383165f8181526006602052604090819020805460ff19166001179055517fddbfcbca8a6ec25cc3e99e3a7ddc04420eaa6749c91bffcd405e0c3ecc42d9f49061088e9085908590611604565b60405180910390a2505050565b6040516bffffffffffffffffffffffff19606088811b8216602084015287811b8216603484015260488301879052606883018690526088830185905283901b1660a88201525f9060bc016040516020818303038152906040528051906020012090509695505050505050565b5f805f6109188b8b8b8b8b8b61089b565b7f19457468657265756d205369676e6564204d6573736167653a0a3332000000005f908152601c829052603c81209192505061098b86868080601f0160208091040260200160405190810160405280939291908181526020018383808284375f920191909152508593925050610fc39050565b6001600160a01b0381165f9081526001602052604090205460ff169d909c509a5050505050505050505050565b6109c0610f97565b600254811115610a075760405162461bcd60e51b81526020600482015260126024820152710e8d0e4cae6d0ded8c840e8dede40d0d2ced60731b6044820152606401610481565b5f8111610a4e5760405162461bcd60e51b815260206004820152601560248201527407468726573686f6c64206d757374206265203e203605c1b6044820152606401610481565b60038190556040518181527fadfa8ecb21b6962ebcd0adbd9ab985b7b4c5b5eb3b0dead683171565c7bfe1719060200160405180910390a150565b60606002805480602002602001604051908101604052809291908181526020018280548015610adf57602002820191905f5260205f20905b81546001600160a01b03168152600190910190602001808311610ac1575b5050505050905090565b335f9081526001602052604090205460ff16610b1857604051633d86aebf60e11b815260040160405180910390fd5b6001600160a01b0386165f9081526006602052604090205460ff1615610b515760405163ebd39b8360e01b815260040160405180910390fd5b5f610b5f620151804261154f565b6001600160a01b0388165f90815260076020908152604080832084845290915281205491925090610b91908790611632565b9050600854811115610bb657604051632890190760e11b815260040160405180910390fd5b5f610bc589898989898961089b565b5f8181526005602052604090205490915060ff1615610bf75760405163080fc0bd60e11b815260040160405180910390fd5b5f818152600560209081526040808320805460ff191660011790556001600160a01b038c1683526007825280832086845290915280822084905551339183917f9b7fb9ebb11af49db7704d786ccb0cf052943df0b062f6da40ff1670ff005da09190a3505050505050505050565b610c6d610f97565b6001600160a01b0381165f9081526001602052604090205460ff16610cc45760405162461bcd60e51b815260206004820152600d60248201526c3737ba1031b796b9b4b3b732b960991b6044820152606401610481565b60035460025411610d0f5760405162461bcd60e51b81526020600482015260156024820152741ddbdd5b1908189c99585ac81d1a1c995cda1bdb19605a1b6044820152606401610481565b6001600160a01b0381165f908152600160205260408120805460ff191690555b600254811015610e2357816001600160a01b031660028281548110610d5657610d56611582565b5f918252602090912001546001600160a01b031603610e1b5760028054610d7f906001906115f1565b81548110610d8f57610d8f611582565b5f91825260209091200154600280546001600160a01b039092169183908110610dba57610dba611582565b905f5260205f20015f6101000a8154816001600160a01b0302191690836001600160a01b031602179055506002805480610df657610df6611645565b5f8281526020902081015f1990810180546001600160a01b0319169055019055610e23565b600101610d2f565b506040516001600160a01b038216907f3689a7a3b23ac7c4e356a117b6330beab299bd33e0f2cc02b1314f3f961c4bcd905f90a250565b335f9081526001602052604090205460ff16610e8957604051633d86aebf60e11b815260040160405180910390fd5b5f5b81811015610f125760055f848484818110610ea857610ea8611582565b602090810292909201358352508101919091526040015f205460ff16610f0a57600160055f858585818110610edf57610edf611582565b9050602002013581526020019081526020015f205f6101000a81548160ff0219169083151502179055505b600101610e8b565b50336001600160a01b03167f9542cf0afbdbf081a9770e804fc8ad6aaf4f14e7573075b290fa3bc9c8f60bfc8383604051610f4e929190611659565b60405180910390a25050565b610f62610f97565b6001600160a01b038116610f8b57604051631e4fbdf760e01b81525f6004820152602401610481565b610f9481610fed565b50565b5f546001600160a01b031633146107d55760405163118cdaa760e01b8152336004820152602401610481565b5f805f80610fd1868661103c565b925092509250610fe18282611085565b50909150505b92915050565b5f80546001600160a01b038381166001600160a01b0319831681178455604051919092169283917f8be0079c531659141344cd1fd0a4f28419497f9722a3daafe3b4186f6b6457e09190a35050565b5f805f8351604103611073576020840151604085015160608601515f1a61106588828585611141565b95509550955050505061107e565b505081515f91506002905b9250925092565b5f82600381111561109857611098611690565b036110a1575050565b60018260038111156110b5576110b5611690565b036110d35760405163f645eedf60e01b815260040160405180910390fd5b60028260038111156110e7576110e7611690565b036111085760405163fce698f760e01b815260048101829052602401610481565b600382600381111561111c5761111c611690565b0361113d576040516335e2f38360e21b815260048101829052602401610481565b5050565b5f80807f7fffffffffffffffffffffffffffffff5d576e7357a4501ddfe92f46681b20a084111561117a57505f915060039050826111ff565b604080515f808252602082018084528a905260ff891692820192909252606081018790526080810186905260019060a0016020604051602081039080840390855afa1580156111cb573d5f803e3d5ffd5b5050604051601f1901519150506001600160a01b0381166111f657505f9250600191508290506111ff565b92505f91508190505b9450945094915050565b80356001600160a01b038116811461121f575f80fd5b919050565b5f60208284031215611234575f80fd5b61079582611209565b5f806040838503121561124e575f80fd5b61125783611209565b946020939093013593505050565b5f8083601f840112611275575f80fd5b50813567ffffffffffffffff81111561128c575f80fd5b6020830191508360208260051b85010111156112a6575f80fd5b9250929050565b5f805f805f805f8060e0898b0312156112c4575f80fd5b6112cd89611209565b97506112db60208a01611209565b96506040890135955060608901359450608089013593506112fe60a08a01611209565b925060c089013567ffffffffffffffff811115611319575f80fd5b6113258b828c01611265565b999c989b5096995094979396929594505050565b5f60208284031215611349575f80fd5b5035919050565b5f8083601f840112611360575f80fd5b50813567ffffffffffffffff811115611377575f80fd5b6020830191508360208285010111156112a6575f80fd5b5f805f604084860312156113a0575f80fd5b6113a984611209565b9250602084013567ffffffffffffffff8111156113c4575f80fd5b6113d086828701611350565b9497909650939450505050565b5f805f805f8060c087890312156113f2575f80fd5b6113fb87611209565b955061140960208801611209565b945060408701359350606087013592506080870135915061142c60a08801611209565b90509295509295509295565b5f805f805f805f8060e0898b03121561144f575f80fd5b61145889611209565b975061146660208a01611209565b965060408901359550606089013594506080890135935061148960a08a01611209565b925060c089013567ffffffffffffffff8111156114a4575f80fd5b6113258b828c01611350565b602080825282518282018190525f9190848201906040850190845b818110156114f05783516001600160a01b0316835292840192918401916001016114cb565b50909695505050505050565b5f806020838503121561150d575f80fd5b823567ffffffffffffffff811115611523575f80fd5b61152f85828601611265565b90969095509350505050565b634e487b7160e01b5f52601160045260245ffd5b5f8261156957634e487b7160e01b5f52601260045260245ffd5b500490565b634e487b7160e01b5f52604160045260245ffd5b634e487b7160e01b5f52603260045260245ffd5b5f808335601e198436030181126115ab575f80fd5b83018035915067ffffffffffffffff8211156115c5575f80fd5b6020019150368190038213156112a6575f80fd5b5f600182016115ea576115ea61153b565b5060010190565b81810381811115610fe757610fe761153b565b60208152816020820152818360408301375f818301604090810191909152601f909201601f19160101919050565b80820180821115610fe757610fe761153b565b634e487b7160e01b5f52603160045260245ffd5b602080825281018290525f6001600160fb1b03831115611677575f80fd5b8260051b80856040850137919091016040019392505050565b634e487b7160e01b5f52602160045260245ffdfea2646970667358221220715539772ca51676cabc87b70ec8ae9855000fbc6c824dd7cd19adc828fdd2ae64736f6c63430008180033","linkReferences":{}},"methodIdentifiers":{"addCoSigner(address)":"1d33e373","approveWithdrawal(address,address,uint256,bytes32,uint256,address)":"e046c07b","approvedWithdrawals(bytes32)":"7d5088c0","batchApproveWithdrawals(bytes32[])":"f13c1bf1","blacklistAddress(address,string)":"71f8fa04","blacklisted(address)":"dbac26e9","coSigners(uint256)":"702d5de8","getCoSigners()":"cc9a189e","getUserDailyWithdrawn(address)":"1ba4be0e","getUserRemainingLimit(address)":"5b0246fd","getWithdrawalHash(address,address,uint256,bytes32,uint256,address)":"79ea5caa","isCoSigner(address)":"2649e595","isWithdrawalApproved(bytes32)":"74cfb448","maxUserDailyLimit()":"61468f5b","nonces(address)":"7ecebe00","owner()":"8da5cb5b","removeCoSigner(address)":"eca4bf6d","renounceOwnership()":"715018a6","requiredSignatures()":"8d068043","setThreshold(uint256)":"960bfe04","transferOwnership(address)":"f2fde38b","unblacklistAddress(address)":"45e34949","userDailyWithdrawals(address,uint256)":"1c479b18","verifyMultiSignature(address,address,uint256,bytes32,uint256,address,bytes[])":"1dace8bc","verifySignature(address,address,uint256,bytes32,uint256,address,bytes)":"82d1fc2a"},"id":34}