{
  "_format": "hh-sol-artifact-1",
  "contractName": "MockUSDC",
  "sourceName": "contracts/MockUSDC.sol",
  "abi": [
    {
      "inputs": [
        {
          "internalType": "uint256",
          "name": "_initialSupply",
          "type": "uint256"
        }
      ],
      "stateMutability": "nonpayable",
      "type": "constructor"
    },
    {
      "anonymous": false,
      "inputs": [
        {
          "indexed": true,
          "internalType": "address",
          "name": "owner",
          "type": "address"
        },
        {
          "indexed": true,
          "internalType": "address",
          "name": "spender",
          "type": "address"
        },
        {
          "indexed": false,
          "internalType": "uint256",
          "name": "value",
          "type": "uint256"
        }
      ],
      "name": "Approval",
      "type": "event"
    },
    {
      "anonymous": false,
      "inputs": [
        {
          "indexed": true,
          "internalType": "address",
          "name": "to",
          "type": "address"
        },
        {
          "indexed": false,
          "internalType": "uint256",
          "name": "value",
          "type": "uint256"
        }
      ],
      "name": "Mint",
      "type": "event"
    },
    {
      "anonymous": false,
      "inputs": [
        {
          "indexed": true,
          "internalType": "address",
          "name": "from",
          "type": "address"
        },
        {
          "indexed": true,
          "internalType": "address",
          "name": "to",
          "type": "address"
        },
        {
          "indexed": false,
          "internalType": "uint256",
          "name": "value",
          "type": "uint256"
        }
      ],
      "name": "Transfer",
      "type": "event"
    },
    {
      "inputs": [
        {
          "internalType": "address",
          "name": "",
          "type": "address"
        },
        {
          "internalType": "address",
          "name": "",
          "type": "address"
        }
      ],
      "name": "allowance",
      "outputs": [
        {
          "internalType": "uint256",
          "name": "",
          "type": "uint256"
        }
      ],
      "stateMutability": "view",
      "type": "function"
    },
    {
      "inputs": [
        {
          "internalType": "address",
          "name": "spender",
          "type": "address"
        },
        {
          "internalType": "uint256",
          "name": "value",
          "type": "uint256"
        }
      ],
      "name": "approve",
      "outputs": [
        {
          "internalType": "bool",
          "name": "",
          "type": "bool"
        }
      ],
      "stateMutability": "nonpayable",
      "type": "function"
    },
    {
      "inputs": [
        {
          "internalType": "address",
          "name": "",
          "type": "address"
        }
      ],
      "name": "balanceOf",
      "outputs": [
        {
          "internalType": "uint256",
          "name": "",
          "type": "uint256"
        }
      ],
      "stateMutability": "view",
      "type": "function"
    },
    {
      "inputs": [],
      "name": "decimals",
      "outputs": [
        {
          "internalType": "uint8",
          "name": "",
          "type": "uint8"
        }
      ],
      "stateMutability": "view",
      "type": "function"
    },
    {
      "inputs": [
        {
          "internalType": "uint256",
          "name": "amount",
          "type": "uint256"
        }
      ],
      "name": "faucet",
      "outputs": [],
      "stateMutability": "nonpayable",
      "type": "function"
    },
    {
      "inputs": [
        {
          "internalType": "address",
          "name": "to",
          "type": "address"
        },
        {
          "internalType": "uint256",
          "name": "value",
          "type": "uint256"
        }
      ],
      "name": "mint",
      "outputs": [],
      "stateMutability": "nonpayable",
      "type": "function"
    },
    {
      "inputs": [],
      "name": "name",
      "outputs": [
        {
          "internalType": "string",
          "name": "",
          "type": "string"
        }
      ],
      "stateMutability": "view",
      "type": "function"
    },
    {
      "inputs": [],
      "name": "owner",
      "outputs": [
        {
          "internalType": "address",
          "name": "",
          "type": "address"
        }
      ],
      "stateMutability": "view",
      "type": "function"
    },
    {
      "inputs": [],
      "name": "symbol",
      "outputs": [
        {
          "internalType": "string",
          "name": "",
          "type": "string"
        }
      ],
      "stateMutability": "view",
      "type": "function"
    },
    {
      "inputs": [],
      "name": "totalSupply",
      "outputs": [
        {
          "internalType": "uint256",
          "name": "",
          "type": "uint256"
        }
      ],
      "stateMutability": "view",
      "type": "function"
    },
    {
      "inputs": [
        {
          "internalType": "address",
          "name": "to",
          "type": "address"
        },
        {
          "internalType": "uint256",
          "name": "value",
          "type": "uint256"
        }
      ],
      "name": "transfer",
      "outputs": [
        {
          "internalType": "bool",
          "name": "",
          "type": "bool"
        }
      ],
      "stateMutability": "nonpayable",
      "type": "function"
    },
    {
      "inputs": [
        {
          "internalType": "address",
          "name": "from",
          "type": "address"
        },
        {
          "internalType": "address",
          "name": "to",
          "type": "address"
        },
        {
          "internalType": "uint256",
          "name": "value",
          "type": "uint256"
        }
      ],
      "name": "transferFrom",
      "outputs": [
        {
          "internalType": "bool",
          "name": "",
          "type": "bool"
        }
      ],
      "stateMutability": "nonpayable",
      "type": "function"
    },
    {
      "inputs": [
        {
          "internalType": "address",
          "name": "newOwner",
          "type": "address"
        }
      ],
      "name": "transferOwnership",
      "outputs": [],
      "stateMutability": "nonpayable",
      "type": "function"
    }
  ],
  "bytecode": "0x60803461018957601f610bc638819003918201601f19168301916001600160401b0383118484101761018e578084926020946040528339810103126101895751600061004b81546101a4565b601f811161015f575b507f4d6f636b2055534420436f696e0000000000000000000000000000000000001a815560018054610085906101a4565b601f8111610133575b506008635553444360e01b0190556002805460ff1916600690811790915580546001600160a01b03191633179055620f4240828102928015908404909114171561011f578160035533815260046020528160408220556040519182527fddf252ad1be2c89b69c2b068fc378daa952ba7f163c4a11628f55a4df523b3ef60203393a36040516109e790816101df8239f35b634e487b7160e01b81526011600452602490fd5b81835281601f60208520920160051c8201915b82811061015457505061008e565b848155018290610146565b818052601f60208320910160051c8101905b81811061017e5750610054565b828155600101610171565b600080fd5b634e487b7160e01b600052604160045260246000fd5b90600182811c921680156101d4575b60208310146101be57565b634e487b7160e01b600052602260045260246000fd5b91607f16916101b356fe6080604081815260048036101561001557600080fd5b600092833560e01c90816306fdde031461071e57508063095ea7b3146106ad57806318160ddd1461068e57806323b872dd1461056c578063313ce5671461054a5783816340c10f191461049d5750806357915897146103a057806370a082311461036b5780638da5cb5b1461034257806395d89b4114610221578063a9059cbb1461018d578063dd62ed3e146101405763f2fde38b146100b457600080fd5b3461013c57602036600319011261013c576100cd61085a565b60065491906001600160a01b03906100e83383861614610953565b169283156101035750506001600160a01b0319161760065580f35b906020606492519162461bcd60e51b835282015260136024820152722aa9a2219d1034b73b30b634b21037bbb732b960691b6044820152fd5b8280fd5b5050346101895780600319360112610189578060209261015e61085a565b610166610875565b6001600160a01b0391821683526005865283832091168252845220549051908152f35b5080fd5b503461013c578160031936011261013c57602092826101aa61085a565b6001600160a01b03169260243592906101c485151561088b565b3382528087526101d9848484205410156108d7565b3382528087528282206101ed858254610923565b9055848252865220610200828254610946565b90558251908152600080516020610992833981519152843392a35160018152f35b5091903461018957816003193601126101895780519082600180549081811c90808316928315610338575b60209384841081146103255783885290811561030957506001146102b4575b505050829003601f01601f191682019267ffffffffffffffff8411838510176102a1575082918261029d925282610811565b0390f35b634e487b7160e01b815260418552602490fd5b8087529192508591837fb10e2d527612073b26eecdfd717e6a320cf44b4afac2b0732d9fcbe2b7fa0cf65b8385106102f5575050505083010138808061026b565b8054888601830152930192849082016102df565b60ff1916878501525050151560051b840101905038808061026b565b634e487b7160e01b895260228a52602489fd5b91607f169161024c565b50503461018957816003193601126101895760065490516001600160a01b039091168152602090f35b503461013c57602036600319011261013c5760209282916001600160a01b0361039261085a565b168252845220549051908152f35b50903461013c57602036600319011261013c5781359160ff60025416604d811161048a57600a0a612710908082029182040361048a578311610448576103e883600354610946565b6003553384526020528083206103ff838254610946565b905580518281527f0f6798a560793a54c3bcfe86a93cde1e73087d944c0ea20544137d412139688560203392a2519081528160008051602061099283398151915260203393a380f35b6020606492519162461bcd60e51b8352820152601b60248201527f555344433a20666175636574206c696d697420657863656564656400000000006044820152fd5b634e487b7160e01b855260118252602485fd5b828185346101895780600319360112610189576020600080516020610992833981519152916104ca61085a565b60065460243592916001600160a01b03916104e89083163314610953565b16956104f587151561088b565b61050183600354610946565b6003558686528352808520610517838254610946565b9055857f0f6798a560793a54c3bcfe86a93cde1e73087d944c0ea20544137d4121396885848351858152a251908152a380f35b50503461018957816003193601126101895760209060ff600254169051908152f35b50913461068b57606036600319011261068b5761058761085a565b90610590610875565b6001600160a01b039081169260443591906105ac85151561088b565b16918281526020958087526105c6838784205410156108d7565b8382526005875285822033835287528286832054106106485791858260008051602061099283398151915294868a9552808552828220610607858254610923565b9055878252845281812061061c848254610946565b905585815260058452818120338252845220610639828254610923565b90558551908152a35160018152f35b855162461bcd60e51b8152908101879052601c60248201527f555344433a20696e73756666696369656e7420616c6c6f77616e6365000000006044820152606490fd5b80fd5b5050346101895781600319360112610189576020906003549051908152f35b505034610189578060031936011261018957602091816106cb61085a565b91602435918291338152600587528181209460018060a01b0316948582528752205582519081527f8c5be1e5ebec7d5bd14f71427d1e84f3dd0314c0f7b2291e5b200ac8c7c3b925843392a35160018152f35b849150833461013c578260031936011261013c57828354600181811c90808316928315610807575b6020938484108114610325578388529081156107eb575060011461079657505050829003601f01601f191682019267ffffffffffffffff8411838510176102a1575082918261029d925282610811565b8680529192508591837f290decd9548b62a8d60345a988386fc84ba6bc95484008f6362f93160ef3e5635b8385106107d7575050505083010185808061026b565b8054888601830152930192849082016107c1565b60ff1916878501525050151560051b840101905085808061026b565b91607f1691610746565b6020808252825181830181905290939260005b82811061084657505060409293506000838284010152601f8019910116010190565b818101860151848201604001528501610824565b600435906001600160a01b038216820361087057565b600080fd5b602435906001600160a01b038216820361087057565b1561089257565b60405162461bcd60e51b815260206004820152601760248201527f555344433a20696e76616c696420726563697069656e740000000000000000006044820152606490fd5b156108de57565b60405162461bcd60e51b815260206004820152601a60248201527f555344433a20696e73756666696369656e742062616c616e63650000000000006044820152606490fd5b9190820391821161093057565b634e487b7160e01b600052601160045260246000fd5b9190820180921161093057565b1561095a57565b60405162461bcd60e51b815260206004820152600f60248201526e2aa9a2219d103737ba1037bbb732b960891b6044820152606490fdfeddf252ad1be2c89b69c2b068fc378daa952ba7f163c4a11628f55a4df523b3efa2646970667358221220fe2898fd33778d21dd48702b72e939432daa1d901b9f21460a0860e73ec222c164736f6c63430008140033",
  "linkReferences": {},
  "deployedLinkReferences": {}
}