{
  "_format": "hh-sol-artifact-1",
  "contractName": "OrderBookFactoryOptimized",
  "sourceName": "contracts/OrderBookFactoryOptimized.sol",
  "abi": [
    {
      "inputs": [
        {
          "internalType": "address",
          "name": "_vaultRouter",
          "type": "address"
        },
        {
          "internalType": "address",
          "name": "_admin",
          "type": "address"
        }
      ],
      "stateMutability": "nonpayable",
      "type": "constructor"
    },
    {
      "inputs": [],
      "name": "AccessControlBadConfirmation",
      "type": "error"
    },
    {
      "inputs": [
        {
          "internalType": "address",
          "name": "account",
          "type": "address"
        },
        {
          "internalType": "bytes32",
          "name": "neededRole",
          "type": "bytes32"
        }
      ],
      "name": "AccessControlUnauthorizedAccount",
      "type": "error"
    },
    {
      "inputs": [],
      "name": "ReentrancyGuardReentrantCall",
      "type": "error"
    },
    {
      "anonymous": false,
      "inputs": [
        {
          "indexed": true,
          "internalType": "bytes32",
          "name": "marketId",
          "type": "bytes32"
        },
        {
          "indexed": true,
          "internalType": "address",
          "name": "orderBookAddress",
          "type": "address"
        },
        {
          "indexed": false,
          "internalType": "string",
          "name": "symbol",
          "type": "string"
        },
        {
          "indexed": true,
          "internalType": "address",
          "name": "creator",
          "type": "address"
        }
      ],
      "name": "MarketCreated",
      "type": "event"
    },
    {
      "anonymous": false,
      "inputs": [
        {
          "indexed": false,
          "internalType": "uint256",
          "name": "oldFee",
          "type": "uint256"
        },
        {
          "indexed": false,
          "internalType": "uint256",
          "name": "newFee",
          "type": "uint256"
        }
      ],
      "name": "MarketCreationFeeChanged",
      "type": "event"
    },
    {
      "anonymous": false,
      "inputs": [
        {
          "indexed": true,
          "internalType": "bytes32",
          "name": "marketId",
          "type": "bytes32"
        },
        {
          "indexed": false,
          "internalType": "bool",
          "name": "isActive",
          "type": "bool"
        }
      ],
      "name": "MarketStatusChanged",
      "type": "event"
    },
    {
      "anonymous": false,
      "inputs": [
        {
          "indexed": true,
          "internalType": "bytes32",
          "name": "role",
          "type": "bytes32"
        },
        {
          "indexed": true,
          "internalType": "bytes32",
          "name": "previousAdminRole",
          "type": "bytes32"
        },
        {
          "indexed": true,
          "internalType": "bytes32",
          "name": "newAdminRole",
          "type": "bytes32"
        }
      ],
      "name": "RoleAdminChanged",
      "type": "event"
    },
    {
      "anonymous": false,
      "inputs": [
        {
          "indexed": true,
          "internalType": "bytes32",
          "name": "role",
          "type": "bytes32"
        },
        {
          "indexed": true,
          "internalType": "address",
          "name": "account",
          "type": "address"
        },
        {
          "indexed": true,
          "internalType": "address",
          "name": "sender",
          "type": "address"
        }
      ],
      "name": "RoleGranted",
      "type": "event"
    },
    {
      "anonymous": false,
      "inputs": [
        {
          "indexed": true,
          "internalType": "bytes32",
          "name": "role",
          "type": "bytes32"
        },
        {
          "indexed": true,
          "internalType": "address",
          "name": "account",
          "type": "address"
        },
        {
          "indexed": true,
          "internalType": "address",
          "name": "sender",
          "type": "address"
        }
      ],
      "name": "RoleRevoked",
      "type": "event"
    },
    {
      "anonymous": false,
      "inputs": [
        {
          "indexed": false,
          "internalType": "address",
          "name": "oldRouter",
          "type": "address"
        },
        {
          "indexed": false,
          "internalType": "address",
          "name": "newRouter",
          "type": "address"
        }
      ],
      "name": "VaultRouterUpdated",
      "type": "event"
    },
    {
      "inputs": [],
      "name": "DEFAULT_ADMIN_ROLE",
      "outputs": [
        {
          "internalType": "bytes32",
          "name": "",
          "type": "bytes32"
        }
      ],
      "stateMutability": "view",
      "type": "function"
    },
    {
      "inputs": [],
      "name": "MARKET_CREATOR_ROLE",
      "outputs": [
        {
          "internalType": "bytes32",
          "name": "",
          "type": "bytes32"
        }
      ],
      "stateMutability": "view",
      "type": "function"
    },
    {
      "inputs": [
        {
          "internalType": "uint256",
          "name": "",
          "type": "uint256"
        }
      ],
      "name": "allMarketIds",
      "outputs": [
        {
          "internalType": "bytes32",
          "name": "",
          "type": "bytes32"
        }
      ],
      "stateMutability": "view",
      "type": "function"
    },
    {
      "inputs": [
        {
          "internalType": "string",
          "name": "symbol",
          "type": "string"
        },
        {
          "internalType": "string",
          "name": "metricId",
          "type": "string"
        }
      ],
      "name": "createCustomMetricMarket",
      "outputs": [
        {
          "internalType": "bytes32",
          "name": "marketId",
          "type": "bytes32"
        }
      ],
      "stateMutability": "payable",
      "type": "function"
    },
    {
      "inputs": [
        {
          "internalType": "string",
          "name": "symbol",
          "type": "string"
        }
      ],
      "name": "createTraditionalMarket",
      "outputs": [
        {
          "internalType": "bytes32",
          "name": "marketId",
          "type": "bytes32"
        }
      ],
      "stateMutability": "payable",
      "type": "function"
    },
    {
      "inputs": [],
      "name": "getActiveMarkets",
      "outputs": [
        {
          "internalType": "bytes32[]",
          "name": "",
          "type": "bytes32[]"
        }
      ],
      "stateMutability": "view",
      "type": "function"
    },
    {
      "inputs": [],
      "name": "getAllMarkets",
      "outputs": [
        {
          "internalType": "bytes32[]",
          "name": "",
          "type": "bytes32[]"
        }
      ],
      "stateMutability": "view",
      "type": "function"
    },
    {
      "inputs": [
        {
          "internalType": "bytes32",
          "name": "marketId",
          "type": "bytes32"
        }
      ],
      "name": "getMarket",
      "outputs": [
        {
          "components": [
            {
              "internalType": "bytes32",
              "name": "marketId",
              "type": "bytes32"
            },
            {
              "internalType": "address",
              "name": "orderBookAddress",
              "type": "address"
            },
            {
              "internalType": "string",
              "name": "symbol",
              "type": "string"
            },
            {
              "internalType": "string",
              "name": "metricId",
              "type": "string"
            },
            {
              "internalType": "bool",
              "name": "isCustomMetric",
              "type": "bool"
            },
            {
              "internalType": "bool",
              "name": "isActive",
              "type": "bool"
            },
            {
              "internalType": "uint256",
              "name": "createdAt",
              "type": "uint256"
            },
            {
              "internalType": "address",
              "name": "creator",
              "type": "address"
            }
          ],
          "internalType": "struct MarketUtils.MarketInfo",
          "name": "",
          "type": "tuple"
        }
      ],
      "stateMutability": "view",
      "type": "function"
    },
    {
      "inputs": [
        {
          "internalType": "string",
          "name": "symbol",
          "type": "string"
        }
      ],
      "name": "getMarketBySymbol",
      "outputs": [
        {
          "internalType": "bytes32",
          "name": "",
          "type": "bytes32"
        }
      ],
      "stateMutability": "view",
      "type": "function"
    },
    {
      "inputs": [
        {
          "internalType": "address",
          "name": "creator",
          "type": "address"
        }
      ],
      "name": "getMarketsByCreator",
      "outputs": [
        {
          "internalType": "bytes32[]",
          "name": "",
          "type": "bytes32[]"
        }
      ],
      "stateMutability": "view",
      "type": "function"
    },
    {
      "inputs": [
        {
          "internalType": "uint256",
          "name": "offset",
          "type": "uint256"
        },
        {
          "internalType": "uint256",
          "name": "limit",
          "type": "uint256"
        }
      ],
      "name": "getMarketsPaginated",
      "outputs": [
        {
          "internalType": "bytes32[]",
          "name": "",
          "type": "bytes32[]"
        }
      ],
      "stateMutability": "view",
      "type": "function"
    },
    {
      "inputs": [
        {
          "internalType": "bytes32",
          "name": "role",
          "type": "bytes32"
        }
      ],
      "name": "getRoleAdmin",
      "outputs": [
        {
          "internalType": "bytes32",
          "name": "",
          "type": "bytes32"
        }
      ],
      "stateMutability": "view",
      "type": "function"
    },
    {
      "inputs": [],
      "name": "getTotalMarkets",
      "outputs": [
        {
          "internalType": "uint256",
          "name": "",
          "type": "uint256"
        }
      ],
      "stateMutability": "view",
      "type": "function"
    },
    {
      "inputs": [
        {
          "internalType": "bytes32",
          "name": "role",
          "type": "bytes32"
        },
        {
          "internalType": "address",
          "name": "account",
          "type": "address"
        }
      ],
      "name": "grantRole",
      "outputs": [],
      "stateMutability": "nonpayable",
      "type": "function"
    },
    {
      "inputs": [
        {
          "internalType": "bytes32",
          "name": "role",
          "type": "bytes32"
        },
        {
          "internalType": "address",
          "name": "account",
          "type": "address"
        }
      ],
      "name": "hasRole",
      "outputs": [
        {
          "internalType": "bool",
          "name": "",
          "type": "bool"
        }
      ],
      "stateMutability": "view",
      "type": "function"
    },
    {
      "inputs": [],
      "name": "marketCreationFee",
      "outputs": [
        {
          "internalType": "uint256",
          "name": "",
          "type": "uint256"
        }
      ],
      "stateMutability": "view",
      "type": "function"
    },
    {
      "inputs": [
        {
          "internalType": "bytes32",
          "name": "",
          "type": "bytes32"
        }
      ],
      "name": "markets",
      "outputs": [
        {
          "internalType": "bytes32",
          "name": "marketId",
          "type": "bytes32"
        },
        {
          "internalType": "address",
          "name": "orderBookAddress",
          "type": "address"
        },
        {
          "internalType": "string",
          "name": "symbol",
          "type": "string"
        },
        {
          "internalType": "string",
          "name": "metricId",
          "type": "string"
        },
        {
          "internalType": "bool",
          "name": "isCustomMetric",
          "type": "bool"
        },
        {
          "internalType": "bool",
          "name": "isActive",
          "type": "bool"
        },
        {
          "internalType": "uint256",
          "name": "createdAt",
          "type": "uint256"
        },
        {
          "internalType": "address",
          "name": "creator",
          "type": "address"
        }
      ],
      "stateMutability": "view",
      "type": "function"
    },
    {
      "inputs": [
        {
          "internalType": "bytes32",
          "name": "role",
          "type": "bytes32"
        },
        {
          "internalType": "address",
          "name": "callerConfirmation",
          "type": "address"
        }
      ],
      "name": "renounceRole",
      "outputs": [],
      "stateMutability": "nonpayable",
      "type": "function"
    },
    {
      "inputs": [
        {
          "internalType": "bytes32",
          "name": "role",
          "type": "bytes32"
        },
        {
          "internalType": "address",
          "name": "account",
          "type": "address"
        }
      ],
      "name": "revokeRole",
      "outputs": [],
      "stateMutability": "nonpayable",
      "type": "function"
    },
    {
      "inputs": [
        {
          "internalType": "uint256",
          "name": "newFee",
          "type": "uint256"
        }
      ],
      "name": "setMarketCreationFee",
      "outputs": [],
      "stateMutability": "nonpayable",
      "type": "function"
    },
    {
      "inputs": [
        {
          "internalType": "bytes32",
          "name": "marketId",
          "type": "bytes32"
        },
        {
          "internalType": "bool",
          "name": "isActive",
          "type": "bool"
        }
      ],
      "name": "setMarketStatus",
      "outputs": [],
      "stateMutability": "nonpayable",
      "type": "function"
    },
    {
      "inputs": [
        {
          "internalType": "address",
          "name": "newVaultRouter",
          "type": "address"
        }
      ],
      "name": "setVaultRouter",
      "outputs": [],
      "stateMutability": "nonpayable",
      "type": "function"
    },
    {
      "inputs": [
        {
          "internalType": "bytes4",
          "name": "interfaceId",
          "type": "bytes4"
        }
      ],
      "name": "supportsInterface",
      "outputs": [
        {
          "internalType": "bool",
          "name": "",
          "type": "bool"
        }
      ],
      "stateMutability": "view",
      "type": "function"
    },
    {
      "inputs": [
        {
          "internalType": "string",
          "name": "",
          "type": "string"
        }
      ],
      "name": "symbolToMarketId",
      "outputs": [
        {
          "internalType": "bytes32",
          "name": "",
          "type": "bytes32"
        }
      ],
      "stateMutability": "view",
      "type": "function"
    },
    {
      "inputs": [],
      "name": "vaultRouter",
      "outputs": [
        {
          "internalType": "contract VaultRouter",
          "name": "",
          "type": "address"
        }
      ],
      "stateMutability": "view",
      "type": "function"
    },
    {
      "inputs": [],
      "name": "withdrawCreationFees",
      "outputs": [],
      "stateMutability": "nonpayable",
      "type": "function"
    }
  ],
  "bytecode": "0x6080346200013b57601f6200684938819003918201601f19168301916001600160401b03831184841017620001405780849260409485528339810103126200013b576200005a6020620000528362000156565b920162000156565b6001805567016345785d8a00006006556001600160a01b03918216918215620000f657811615620000c157600580546001600160a01b031916909217909155620000b090620000a9816200016b565b50620001eb565b5060405161659b90816200028e8239f35b60405162461bcd60e51b815260206004820152600d60248201526c24b73b30b634b21030b236b4b760991b6044820152606490fd5b60405162461bcd60e51b815260206004820152601460248201527f496e76616c6964207661756c7420726f757465720000000000000000000000006044820152606490fd5b600080fd5b634e487b7160e01b600052604160045260246000fd5b51906001600160a01b03821682036200013b57565b6001600160a01b031660008181527fad3228b676f7d3cd4284a5443f17f1962b36e491b30a40b2405849e597ba5fb5602052604081205490919060ff16620001e757818052816020526040822081835260205260408220600160ff198254161790553391600080516020620068298339815191528180a4600190565b5090565b6001600160a01b031660008181527f2412b2af58bf3b93d578a423d333d33fb94fb5093f9cda1aed2eaafb3215f92960205260408120549091907fd3065a24ad9e7725d223007135762d2902038999e3e5829146654498a58d97959060ff166200028857808352826020526040832082845260205260408320600160ff1982541617905560008051602062006829833981519152339380a4600190565b50509056fe60808060405260043610156200001457600080fd5b60003560e01c90816301ffc9a714620017e15750806323188024146200179e578063248a9ca3146200176d5780632a519733146200169d5780632ef1bdfa146200167d5780632f2ff15d14620016365780632f54f8521462000d0f57806330777061146200155a57806336568abe146200150c578063609ee5b51462000eec5780637564912b1462000e2d578063780e72ff1462000d725780637c845b2d1462000d0f57806381ebf2091462000cef57806391d148541462000c9e5780639354931314620007495780639f37022a14620006f1578063a217fddf14620006d3578063a5e973c314620005cf578063ae42820c14620005a3578063aec572f9146200048f578063b0772d0b1462000461578063c3c95c7b1462000305578063d37c441c14620002da578063d547741f14620002915763e99c80bd146200015857600080fd5b346200028c576020806003193601126200028c576200017662001850565b6200018062001d63565b906000906001600160a01b0390811690825b8451811015620001ed57620001a8818662001f64565b516000526002865282826006604060002001541614620001d4575b620001ce9062001db7565b62000192565b92620001e4620001ce9162001db7565b939050620001c3565b509092620001fc859362001f91565b9360009260005b8351811015620002785762000219818562001f64565b51600052600286528282600660406000200154161462000245575b6200023f9062001db7565b62000203565b936200026f6200023f916200025b878762001f64565b5162000268828b62001f64565b5262001db7565b94905062000234565b6040518062000288898262001a4c565b0390f35b600080fd5b346200028c5760403660031901126200028c57620002d8600435620002b562001839565b90806000526000602052620002d260016040600020015462001b2e565b62001bd4565b005b346200028c5760003660031901126200028c576005546040516001600160a01b039091168152602090f35b346200028c576020806003193601126200028c57600060e06040516200032b8162001867565b8281528284820152606060408201526060808201528260808201528260a08201528260c0820152015260043560005260028152604060002060405190620003728262001867565b8054825260018101546001600160a01b0390811684840190815291906200039c600283016200194e565b9260408501938452620003b2600384016200194e565b9260608601938452600481015462000440608088019660ff83161515885260ff60a08a019360081c16151583528580600660058701549660c08d019788520154169560e08b019687526040519b8c9b818d5251908c0152511660408a015251956200042c610100978860608c01526101208b019062001a25565b9051898203601f190160808b015262001a25565b9551151560a088015251151560c08701525160e08601525116908301520390f35b346200028c5760003660031901126200028c57620002886200048262001d63565b6040519182918262001a4c565b346200028c5760403660031901126200028c57600435620004af62001d63565b80518210156200055457620004c76024358362001fc9565b9080518083116200054b575b508282039182116200053557620004ea8262001f91565b9260005b83811062000506576040518062000288878262001a4c565b80620005226200051b6200052f938562001fc9565b8562001f64565b5162000268828862001f64565b620004ee565b634e487b7160e01b600052601160045260246000fd5b915083620004d3565b60405162461bcd60e51b815260206004820152602160248201527f4d61726b65745574696c733a206f6666736574206f7574206f6620626f756e646044820152607360f81b6064820152608490fd5b346200028c5760003660031901126200028c576020604051600080516020620065068339815191528152f35b346200028c5760003660031901126200028c57620005ec62001d63565b6000805b82518110156200064e5762000606818462001f64565b51600052600260205260ff60046040600020015460081c1662000635575b6200062f9062001db7565b620005f0565b90620006456200062f9162001db7565b91905062000624565b506200065a9062001f91565b906000805b8251811015620006c35762000675818462001f64565b51600052600260205260ff60046040600020015460081c16620006a4575b6200069e9062001db7565b6200065f565b90620006ba6200069e9162000522848662001f64565b91905062000693565b6040518062000288868262001a4c565b346200028c5760003660031901126200028c57602060405160008152f35b346200028c5760203660031901126200028c577f89bfd5bd6812d20a34ddc1748ad400ead99f5b07baf1bc492c2e57a460fc810d60406004356200073462001a89565b600654908060065582519182526020820152a1005b60203660031901126200028c576004356001600160401b0381116200028c5762000778903690600401620018c4565b6200078262001ae2565b6200078c62001d3f565b6200079c60065434101562001c4a565b620007a78162001dd9565b6040516020810190620007e96027828551620007c8818760208a0162001a00565b81016617d3505492d15560ca1b602082015203600781018452018262001884565b51902060008181526002602052604090206001015462000813906001600160a01b03161562001c93565b6005546040519061452e808301916001600160a01b03166001600160401b0383118484101762000ba157602092849262001fd8843985815260c0848201526200086060c082018862001a25565b9181830360408301526000835260006060830152608082015260a0339101520301906000f0801562000c9257604051926200089b8462001867565b8284526001600160a01b0382166020808601919091526040808601839052519081018082116001600160401b039091111762000ba1576020810160405260008152606085015260006080850152600160a08501524260c08501523360e0850152826000526002602052604060002093805185556001850160018060a01b0360208301511660018060a01b0319825416179055604081015180519060018060401b03821162000ba157819062000954600289015462001911565b601f811162000c3a575b50602090601f831160011462000bc35760009262000bb7575b50508160011b916000199060031b1c19161760028601555b606081015180519095906001600160401b03811162000ba157620009b7600383015462001911565b96601f881162000b55575b602097508790601f831160011462000adf5760069392916000918362000ad3575b50508160011b916000199060031b1c19161760038201555b62000a2e6004820162000a2060808601511515829060ff801983541691151516179055565b60a085015115159062001cd8565b60c08301516005820155019060e060018060a01b039101511660018060a01b0319825416179055826040518581845162000a6c818385890162001a00565b810160038152030190205562000a828362001cf0565b827fec25940cde6eeb2c10269a5a11aee5140a3802dc1f9c1915d26c9e2b9410f6c06040518681528062000ac4339660018060a01b0316958983019062001a25565b0390a460018055604051908152f35b015190508980620009e3565b9060038401600052886000209160005b601f198516811062000b3d575091839160019360069695601f1981161062000b23575b505050811b016003820155620009fb565b015160001960f88460031b161c1916905589808062000b12565b91928a60018192868501518155019401920162000aef565b600383016000526020600020601f830160051c81016020841062000b99575b601f8a0160051c8201811062000b8c575050620009c2565b6000815560010162000b74565b508062000b74565b634e487b7160e01b600052604160045260246000fd5b01519050878062000977565b9250600288016000526020600020906000935b601f198416851062000c1e576001945083601f1981161062000c04575b505050811b0160028601556200098f565b015160001960f88460031b161c1916905587808062000bf3565b8181015183556020948501946001909301929091019062000bd6565b909150600288016000526020600020601f840160051c81016020851062000c8a575b90849392915b601f830160051c8201811062000c7a5750506200095e565b6000815585945060010162000c62565b508062000c5c565b6040513d6000823e3d90fd5b346200028c5760403660031901126200028c5762000cbb62001839565b600435600052600060205260406000209060018060a01b0316600052602052602060ff604060002054166040519015158152f35b346200028c5760003660031901126200028c576020600454604051908152f35b346200028c5760203660031901126200028c576004356001600160401b0381116200028c5762000d5f602062000d4b81933690600401620018c4565b816040519382858094519384920162001a00565b8101600381520301902054604051908152f35b346200028c5760203660031901126200028c5762000d8f62001850565b62000d9962001a89565b6001600160a01b03908116801562000df1577f2e607e1aa775c142b2ec2d4747e64f6cc4c2fa979eb0df2cb6d1578c033ca2f491604091600554918160018060a01b03198416176005558351921682526020820152a1005b60405162461bcd60e51b815260206004820152601460248201527324b73b30b634b2103b30bab63a103937baba32b960611b6044820152606490fd5b346200028c5760203660031901126200028c5760043560005260026020526040600020805460018060a01b03806001840154169262000e6f600282016200194e565b9060ff62000ec862000e84600384016200194e565b62000eb9600485015496600660058701549601541695604051998a998a5260208a01526101008060408b015289019062001a25565b90878203606089015262001a25565b938181161515608087015260081c16151560a085015260c084015260e08301520390f35b60403660031901126200028c576004356001600160401b0381116200028c5762000f1b903690600401620018c4565b6024356001600160401b0381116200028c5762000f3d903690600401620018c4565b62000f4762001ae2565b62000f5162001d3f565b62000f6160065434101562001c4a565b62000f6c8262001dd9565b80518015159081620014ff575b5015620014ac5760005b8151811015620010b0576001600160f81b031962000fa2828462001dc7565b5116600360fc1b8110159081620010a0575b811562001079575b811562001052575b811562001043575b811562001034575b501562000fec5762000fe69062001db7565b62000f83565b60405162461bcd60e51b815260206004820152602b60248201526000805160206200654683398151915260448201526a1b881b595d1c9a58c8125160aa1b6064820152608490fd5b602d60f81b1490508462000fd4565b605f60f81b8114915062000fcc565b9050606160f81b811015806200106a575b9062000fc4565b50603d60f91b81111562001063565b9050604160f81b8110158062001091575b9062000fbc565b50602d60f91b8111156200108a565b603960f81b811115915062000fb4565b50906040516020810190620010fb602e828651620010d3818760208b0162001a00565b81016d17d0d554d513d357d3505492d15560921b602082015203600e81018452018262001884565b519020908160005260026020526200112460018060a01b03600160406000200154161562001c93565b600554604051906001600160a01b03166001600160401b0361452e83019081119083111762000ba157819061452e62001fd8833961452e820185815260c06020820181905262001192916200117b91018662001a25565b61452e84018103604061452e860101528762001a25565b906001606061452e85010152608061452e840101523360a061452e8401015203906000f090811562000c925760405193620011cd8562001867565b8385526001600160a01b038381166020808801918252604080890186815260608a0195909552600160808a0181905260a08a018190524260c08b01523360e08b015260008981526002909352912088518155915190820180546001600160a01b031916919093161790915590518051919591906001600160401b03821162000ba157819062001260600289015462001911565b601f811162001454575b50602090601f8311600114620013dd57600092620013d1575b50508160011b916000199060031b1c19161760028601555b606081015180519095906001600160401b03811162000ba157620012c3600383015462001911565b96601f881162001385575b602097508790601f83116001146200132a5760069392916000918362000ad35750508160011b916000199060031b1c191617600382015562000a2e6004820162000a2060808601511515829060ff801983541691151516179055565b9060038401600052886000209160005b601f19851681106200136d575091839160019360069695601f1981161062000b2357505050811b016003820155620009fb565b91928a6001819286850151815501940192016200133a565b600383016000526020600020601f830160051c810160208410620013c9575b601f8a0160051c82018110620013bc575050620012ce565b60008155600101620013a4565b5080620013a4565b01519050878062001283565b9250600288016000526020600020906000935b601f198416851062001438576001945083601f198116106200141e575b505050811b0160028601556200129b565b015160001960f88460031b161c191690558780806200140d565b81810151835560209485019460019093019290910190620013f0565b909150600288016000526020600020601f840160051c810160208510620014a4575b90849392915b601f830160051c82018110620014945750506200126a565b600081558594506001016200147c565b508062001476565b60405162461bcd60e51b815260206004820152602560248201527f4d61726b65745574696c733a20696e76616c6964206d6574726963204944206c6044820152640cadccee8d60db1b6064820152608490fd5b6032915011158362000f79565b346200028c5760403660031901126200028c576200152962001839565b336001600160a01b038216036200154857620002d89060043562001bd4565b60405163334bd91960e11b8152600490fd5b346200028c5760003660031901126200028c576200157762001a89565b478015620015fb57600080808093335af13d15620015f5573d6200159b81620018a8565b90620015ab604051928362001884565b8152600060203d92013e5b15620015be57005b60405162461bcd60e51b815260206004820152600f60248201526e151c985b9cd9995c8819985a5b1959608a1b6044820152606490fd5b620015b6565b60405162461bcd60e51b81526020600482015260136024820152724e6f206665657320746f20776974686472617760681b6044820152606490fd5b346200028c5760403660031901126200028c57620002d86004356200165a62001839565b908060005260006020526200167760016040600020015462001b2e565b62001b55565b346200028c5760003660031901126200028c576020600654604051908152f35b346200028c5760403660031901126200028c57600435602435801515908181036200028c57620016cc62001a89565b6000838152600260205260409020600101546001600160a01b03161562001735577ff74802a5f03ef3b60653fc5ef30996c42340c6f63ad2a625f0f7d4f996b28f35916200172c6020928560005260028452600460406000200162001cd8565b604051908152a2005b60405162461bcd60e51b815260206004820152601060248201526f13585c9ad95d081b9bdd08199bdd5b9960821b6044820152606490fd5b346200028c5760203660031901126200028c5760043560005260006020526020600160406000200154604051908152f35b346200028c5760203660031901126200028c576004356004548110156200028c576004600052600080516020620065268339815191520154604051908152602090f35b346200028c5760203660031901126200028c576004359063ffffffff60e01b82168092036200028c57602091637965db0b60e01b811490811562001827575b5015158152f35b6301ffc9a760e01b1490508362001820565b602435906001600160a01b03821682036200028c57565b600435906001600160a01b03821682036200028c57565b61010081019081106001600160401b0382111762000ba157604052565b601f909101601f19168101906001600160401b0382119082101762000ba157604052565b6001600160401b03811162000ba157601f01601f191660200190565b81601f820112156200028c57803590620018de82620018a8565b92620018ee604051948562001884565b828452602083830101116200028c57816000926020809301838601378301015290565b90600182811c9216801562001943575b60208310146200192d57565b634e487b7160e01b600052602260045260246000fd5b91607f169162001921565b9060405191826000825492620019648462001911565b908184526001948581169081600014620019db575060011462001994575b5050620019929250038362001884565b565b9093915060005260209081600020936000915b818310620019c2575050620019929350820101388062001982565b85548884018501529485019487945091830191620019a7565b9150506200199294506020925060ff191682840152151560051b820101388062001982565b60005b83811062001a145750506000910152565b818101518382015260200162001a03565b9060209162001a408151809281855285808601910162001a00565b601f01601f1916010190565b6020908160408183019282815285518094520193019160005b82811062001a74575050505090565b83518552938101939281019260010162001a65565b3360009081527fad3228b676f7d3cd4284a5443f17f1962b36e491b30a40b2405849e597ba5fb5602052604081205460ff161562001ac45750565b6044906040519063e2517d3f60e01b82523360048301526024820152fd5b3360009081527f2412b2af58bf3b93d578a423d333d33fb94fb5093f9cda1aed2eaafb3215f9296020526040902054600080516020620065068339815191529060ff161562001ac45750565b80600052600060205260406000203360005260205260ff604060002054161562001ac45750565b9060009180835282602052604083209160018060a01b03169182845260205260ff6040842054161560001462001bcf57808352826020526040832082845260205260408320600160ff198254161790557f2f8788117e7eff1d82e926ec794901d17c78024a50270940304540a733656f0d339380a4600190565b505090565b9060009180835282602052604083209160018060a01b03169182845260205260ff60408420541660001462001bcf5780835282602052604083208284526020526040832060ff1981541690557ff6391f5c32d9c69d2a47ea670b442974b53935d1edc7fd64eb21e047a839171b339380a4600190565b1562001c5257565b60405162461bcd60e51b8152602060048201526019602482015278496e73756666696369656e74206372656174696f6e2066656560381b6044820152606490fd5b1562001c9b57565b60405162461bcd60e51b81526020600482015260156024820152744d61726b657420616c72656164792065786973747360581b6044820152606490fd5b9061ff00825491151560081b169061ff001916179055565b600454600160401b81101562000ba157600181018060045581101562001d29576004600052600080516020620065268339815191520155565b634e487b7160e01b600052603260045260246000fd5b60026001541462001d51576002600155565b604051633ee5aeb560e01b8152600490fd5b604051906004548083528260209182820190600460005283600020936000905b82821062001d9c57505050620019929250038362001884565b85548452600195860195889550938101939091019062001d83565b6000198114620005355760010190565b90815181101562001d29570160200190565b8051801515908162001f57575b501562001f075760005b815181101562001f03576001600160f81b031962001e0f828462001dc7565b5116600360fc1b811015908162001ef3575b811562001ecc575b811562001ea5575b811562001e96575b501562001e515762001e4b9062001db7565b62001df0565b60405162461bcd60e51b81526020600482015260286024820152600080516020620065468339815191526044820152671b881cde5b589bdb60c21b6064820152608490fd5b602f60f81b1490503862001e39565b9050606160f81b8110158062001ebd575b9062001e31565b50603d60f91b81111562001eb6565b9050604160f81b8110158062001ee4575b9062001e29565b50602d60f91b81111562001edd565b603960f81b811115915062001e21565b5050565b60405162461bcd60e51b815260206004820152602260248201527f4d61726b65745574696c733a20696e76616c69642073796d626f6c206c656e676044820152610e8d60f31b6064820152608490fd5b6014915011153862001de6565b805182101562001d295760209160051b010190565b6001600160401b03811162000ba15760051b60200190565b9062001f9d8262001f79565b62001fac604051918262001884565b828152809262001fbf601f199162001f79565b0190602036910137565b91908201809211620005355756fe60406080815234620004a8576200452e90813803806200001f81620004ad565b93843982019160c081840312620004a857805160208201519091906001600160401b038111620004a8578462000057918301620004d3565b8184015190946001600160401b038211620004a85762000079918301620004d3565b93606082015192831515809403620004a857620000a760a06200009f6080860162000545565b940162000545565b6001805585519690949061016088016001600160401b038111898210176200037e578752828852836020890152868801526000606088015260006080880152600060a0880152600060c0880152600060e088015242610100880152600161012088015261014087015260035580519060018060401b0382116200037e5760045490600182811c921680156200049d575b60208310146200035d5781601f8493116200042b575b50602090601f8311600114620003a05760009262000394575b50508160011b916000199060031b1c1916176004555b83830151805194906001600160401b0386116200037e57600554600181811c9116801562000373575b60208210146200035d57601f811162000313575b50602090601f87116001146200029d5795809162000282969760009262000291575b50508160011b916000199060031b1c1916176005555b6060810151600655608081015160075560a081015160085560c081015160095560e0810151600a55610100810151600b5561012081015115159060ff61ff00610140600c54930151151560081b1692169061ffff19161717600c5560018060a01b031660018060a01b031960025416176002556200026f816200055a565b506200027b81620005da565b506200067c565b5051613df490816200071a8239f35b015190503880620001db565b90600560005260206000209160005b601f1989168110620002fa5750918791600193620002829899601f19811610620002e0575b505050811b01600555620001f1565b015160001960f88460031b161c19169055388080620002d1565b91926020600181928685015181550194019201620002ac565b60056000526020600020601f880160051c81016020891062000355575b601f830160051c8201811062000348575050620001b9565b6000815560010162000330565b508062000330565b634e487b7160e01b600052602260045260246000fd5b90607f1690620001a5565b634e487b7160e01b600052604160045260246000fd5b01519050388062000166565b600460009081527f8a35acfbc15ff81a39ae7d344fd709f28e8600b4aa8c65c6b64bfe7fe36bd19b9350601f198516905b818110620004125750908460019594939210620003f8575b505050811b016004556200017c565b015160001960f88460031b161c19169055388080620003e9565b92936020600181928786015181550195019301620003d1565b60046000529091507f8a35acfbc15ff81a39ae7d344fd709f28e8600b4aa8c65c6b64bfe7fe36bd19b601f840160051c81016020851062000495575b90849392915b601f830160051c82018110620004855750506200014d565b600081558594506001016200046d565b508062000467565b91607f169162000137565b600080fd5b6040519190601f01601f191682016001600160401b038111838210176200037e57604052565b919080601f84011215620004a85782516001600160401b0381116200037e5760209062000509601f8201601f19168301620004ad565b92818452828287010111620004a85760005b8181106200053157508260009394955001015290565b85810183015184820184015282016200051b565b51906001600160a01b0382168203620004a857565b6001600160a01b031660008181527fad3228b676f7d3cd4284a5443f17f1962b36e491b30a40b2405849e597ba5fb5602052604081205490919060ff16620005d657818052816020526040822081835260205260408220600160ff1982541617905533916000805160206200450e8339815191528180a4600190565b5090565b6001600160a01b031660008181527fa629f6981c2f6895a67dc766e8e03ff72d04a413d0d8773a3ca56e9e474032c160205260408120549091907f68e79a7bf1e0bc45d0a330c573bc367f9cf464fd326078812f301165fbda4ef19060ff166200067757808352826020526040832082845260205260408320600160ff198254161790556000805160206200450e833981519152339380a4600190565b505090565b6001600160a01b031660008181527f738678fe42df6a4211eb7628ac9b056229141839eb4f4ef4cc249f1d36e8c92160205260408120549091907f73e573f9566d61418a34d5de3ff49360f9c51fec37f7486551670290f6285dab9060ff166200067757808352826020526040832082845260205260408320600160ff198254161790556000805160206200450e833981519152339380a460019056fe608080604052600436101561001357600080fd5b600090813560e01c90816301ffc9a7146128cf5750806307e2cea5146128a6578063110e41751461275357806316c38b3c146126ee57806316fafe62146126d05780631bd4ffb21461269b5780631ec363091461263a57806320c1614b1461261c57806323341a05146124a4578063248a9ca3146124785780632f2ff15d1461243b57806336568abe146123f357806347e63380146123ca5780635494b7de146123a55780635778472a146121ca5780635c18f185146121ac5780635f5e3d2b1461218d57806361555e2e1461216d57806363c69f08146120bf5780636a6ae60614612086578063712a7dc514611e8b5780637489ec2314611cb2578063780e72ff14611bf35780637be82f3f14611bd75780637de9371c1461148a57806380f55605146113e05780638461eafc1461137f578063856652e9146113295780638d592ab81461130c57806391d14854146112c157806395082d25146112a3578063961d537f146111a35780639c3f1e90146110d4578063a217fddf146110b8578063a6769ef81461107f578063b187bd261461105c578063b26ff6ed1461101a578063cffb7d1514610ffc578063d1602f941461047d578063d37c441c14610454578063d547741f14610413578063db0b569e146103495763f6ec96e9146101fa57600080fd5b34610346576040366003190112610346576024356004358115158203610341576101209260409182519361022d85612a6f565b82855282602086015282848601528260608601528260808601528260a08601528260c08601528260e08601528261010080960152600014610333578152600f60205220905b6040519161027f83612a6f565b8054835260ff60018201541690602084019161029a81612933565b825260028101546040850190815260038201546060860190815260048301546080870190815260058401549160a0880192835260068501549360c08901948552600860078701549660e08b01978852015496888a0197885260405199518a525161030381612933565b60208a01525160408901525160608801525160808701525160a08601525160c08501525160e08401525190820152f35b815260106020522090610272565b600080fd5b80fd5b503461034657602036600319011261034657600435610366612caf565b600681905560025460035483916001600160a01b031690813b1561040f57829160448392604051948593849263dee0f5e560e01b845260048401528860248401525af18015610404576103ec575b50507fa3c7d8aaf2336e4edf38a77aee612e833e0bb392f08ef86f1324a58d2a4616306040600354928151908152426020820152a280f35b6103f590612a24565b6104005781386103b4565b5080fd5b6040513d84823e3d90fd5b8280fd5b5034610346576040366003190112610346576104506004356104336129c2565b908084528360205261044b6001604086200154612cf9565b612dda565b5080f35b50346103465780600319360112610346576002546040516001600160a01b039091168152602090f35b50346103465760603660031901126103465760026004351015610346576104a2612fa3565b6104b160ff6017541615612e4f565b6104bf60ff600c5416612e9b565b6104ca331515612ee6565b60243515610fb85764e8d4a5100060243511610f7757604435610f50575b5a60405160208101913360601b83524260348301526024356054830152604435607483015244609483015260b482015260b4815260e0810181811060018060401b03821117610f3a57604052519020610545604435602435613ab2565b9160018060a01b0360025416600354813b1561040f578461058192849283604051809681958294630beb045360e21b84528b3360048601612f32565b03925af1801561040457908291610f26575b5050604051926105a284612a53565b8284523360208501528160408501526105bc600435612933565b6004356060850152602435608085015260443560a08501528160c08501524260e0850152816101008501526101208401528061014084015280610160840152818152600d60205260408120835181556001810160018060a01b03602086015116815460408701519161062d83612933565b61063683612933565b606088015161064481612933565b61064d81612933565b6001600160b01b03199092161760a092831b60ff60a01b161760a89190911b60ff60a81b161790915560808501516002830155840151600382015560c084015160048083019190915560e0850151600583015561010085015190811015610f12576106bb9060068301612f56565b6101208401516007820155600961016061014086015195600896878501550151910155338152600e6020526106f38260408320612f6e565b818152600d6020526040812060ff600182015460a81c1661071381612933565b610d4b57600381015493848352600f6020526040832090815415600014610cc4578582558460066001840193600160ff1994858754168755848952600d602052600260408a200154600784015582015582600582015501556011548015600014610c1c575060019060039495966011558254161790555b01546013548111610c13575b505b818152600d602052604081205a9260ff600183015460a81c166107ba81612933565b610a575792829383915b600484015460028501541180610a4c575b80610a3c575b80610a32575b1561095e576014548086526010602052600560408720019081541561095157508054808752600d602052604087209060ff600683015416600481101561093d57806108359115908115610932575b5061309f565b6108c36108bd6108b160048501546108706002870154916108578382106130f7565b60028d015460048e015461086a9161307c565b9261307c565b8082101561092b57505b61088581151561314f565b6108948b8288601454926136fa565b6108a28160048d0154613198565b60048c01556004860154613198565b9a8b6004860155612fc6565b96612fc6565b98600283015414600014610917576006909101805460ff191660011790556014546108ed916133c5565b54156108fc575b9491946107c4565b610907601454613580565b61090f61346c565b6014556108f4565b50600601805460ff191660031790556108ed565b905061087a565b60039150143861082f565b634e487b7160e01b89526021600452602489fd5b6109079150969396613580565b926020959194506109969250600481015460028201548114600014610a135750600601805460ff191660011790555b915b5a9061307c565b90806109e8575b50506040516109ad600435612933565b600435815260243583820152604435604082015242606082015281600080516020613d7f83398151915260803393a360018055604051908152f35b600080516020613d1f83398151915291610a09604051928392429184613089565b0390a1388061099d565b610a1e575b5061098d565b600601805460ff1916600317905538610a18565b50600a83106107e1565b50601454600385015410156107db565b5060145415156107d5565b92829383915b600484015460028501541180610c08575b80610bf8575b80610bee575b15610b9a57601354808652600f6020526005604087200190815415610b8d57508054808752600d602052604087209060ff600683015416600481101561093d5780610ace9115908115610b82575b506131a5565b610b136108bd6108b16004850154610af06002870154916108578382106131fd565b80821015610b7b57505b610b0581151561314f565b610894601354828d896136fa565b98600283015414600014610b67576006909101805460ff19166001179055601354610b3d916132fa565b5415610b4c575b949194610a5d565b610b576013546134ca565b610b5f613439565b601355610b44565b50600601805460ff19166003179055610b3d565b9050610afa565b600391501438610ac8565b610b5791509693966134ca565b926020959194506109969250600481015460028201548114600014610bcf5750600601805460ff191660011790555b9161098f565b610bda575b50610bc9565b600601805460ff1916600317905538610bd4565b50600a8310610a7a565b5060135460038501541115610a74565b506013541515610a6e565b60135538610796565b915050600090805b610c865750600392939481610c3b575b505061078a565b81811115610c6f5781600052600f602052806004604060002001555b600052600f6020526002604060002001553880610c34565b81600052600f602052808460406000200155610c57565b90508080861115610cac57600052600f60205260046040600020015494855b9095610c24565b600052600f6020526003604060002001549485610ca5565b9050839460039394600052600d602052604060002090600052600f60205260026040600020918760058401805415600014610d2657558760068401555b0154610d1260078301918254613198565b905501610d1f8154612fc6565b905561078a565b50600684018054600052600d6020528186604060002001558054600984015555610d01565b90919260038201549081845260106020526040842090815415600014610e8f578282558560066001840193600160ff1994858754168755848a52600d602052600260408b20015460078401558201558260058201550155601254928315600014610df0576012558154166001179055505b6014548015908115610de2575b50610dd5575b50610798565b6003015460145538610dcf565b905060038201541038610dc9565b915050600091805b610e56575081610e0a575b5050610dbc565b81811015610e3e57816000526010602052806003604060002001555b60005260106020526002604060002001553880610e03565b81600052601060205280600460406000200155610e26565b91508180821015610e7857600052601060205260036040600020015480610df8565b600052601060205260046040600020015480610df8565b91905084600052600d602052604060002090600052601060205260026040600020918660058401805415600014610eed57558660068401555b0154610ed960078301918254613198565b905501610ee68154612fc6565b9055610dbc565b50600684018054600052600d6020528186604060002001558054600984015555610ec8565b634e487b7160e01b83526021600452602483fd5b610f2f90612a24565b610346578038610593565b634e487b7160e01b600052604160045260246000fd5b610f606127106044351015613c81565b610f72633b9aca006044351115613c39565b6104e8565b60405162461bcd60e51b81526020600482015260196024820152784f72646572426f6f6b3a2073697a6520746f6f206c6172676560381b6044820152606490fd5b606460405162461bcd60e51b815260206004820152602060248201527f4f72646572426f6f6b3a2073697a65206d75737420626520706f7369746976656044820152fd5b50346103465780600319360112610346576020601454604051908152f35b5034610346578060031936011261034657611033612caf565b617080611042600b544261307c565b101561104b5780f35b61271060065404600a5542600b5580f35b5034610346578060031936011261034657602060ff601754166040519015158152f35b5034610346576020366003190112610346576020906040906001600160a01b036110a76129d8565b168152601583522054604051908152f35b5034610346578060031936011261034657602090604051908152f35b5034610346576020366003190112610346576040610180916004358152600d6020522080549060018101549060ff8260a01c1661118f60ff8460a81c166002840154600385015460048601549060058701549260ff60068901541694600789015497600960088b01549a01549a6040519c8d5260018060a01b031660208d015261115d81612933565b60408c015261116b81612933565b60608b015260808a015260a089015260c088015260e08701526101008601906129ee565b610120840152610140830152610160820152f35b503461034657602036600319011261034657611206906112306004356112226111cb82613cdf565b936112146111d884613cdf565b6111e185613cdf565b926111eb86613cdf565b95611234575b50604051978897608089526080890190612c41565b908782036020890152612c41565b908582036040870152612c41565b908382036060850152612c41565b0390f35b601354806112418a613d11565b52601454908161125087613d11565b5280611284575b5080611264575b506111f1565b81526010602052604090206007015461127c86613d11565b52388061125e565b8252600f602052600760408320015461129c84613d11565b5238611257565b50346103465780600319360112610346576020604051620f42408152f35b50346103465760403660031901126103465760406112dd6129c2565b91600435815280602052209060018060a01b0316600052602052602060ff604060002054166040519015158152f35b503461034657806003193601126103465760206040516127108152f35b5034610346576040366003190112610346576113436129d8565b6001600160a01b03168152600e60205260408120805460243592908310156103465760206113718484612c13565b90546040519160031b1c8152f35b5034610346576020366003190112610346576040906004358152600f60205220805461123060ff60018401541692600281015490600381015460048201546005830154906006840154926008600786015495015495604051998a998a61293d565b50346103465780600319360112610346576003546113fc612aae565b90611405612b7c565b60ff60065491600754600854600954600a5491600b549361144f600c54966114416040519c8d9c8d5260208d61016091829101528d0190612982565b908b820360408d0152612982565b9760608a0152608089015260a088015260c087015260e0860152610100850152818116151561012085015260081c1615156101408301520390f35b50346103465760403660031901126103465760026004351015610346576114af612fa3565b6114be60ff6017541615612e4f565b6114cc60ff600c5416612e9b565b6114d7331515612ee6565b60243515610fb85764e8d4a5100060243511610f77575a60405160208101913360601b835242603483015260243560548301526513505492d15560d21b607483015244607a830152609a820152609a815260c0810181811060018060401b03821117610f3a576040525190209061154f600435612933565b6004351580611bcc575b15611b95576014545b8015611b45578061157c633b9aca00611592931115613c39565b61158a612710821015613c81565b602435613ab2565b60018060a01b0360025416600354813b15611b4157826115cd92859283604051809681958294630beb045360e21b84528c3360048601612f32565b03925af18015611b3657908391611b22575b5050604051906115ee82612a53565b83825233602083015260016040830152611609600435612933565b600435606083015260243560808301528260a08301528260c08301524260e0830152826101008301526101208201528161014082015281610160820152828252600d6020526040822090805182556001820160018060a01b03602083015116815460408401519161167983612933565b61168283612933565b606085015161169081612933565b61169981612933565b6001600160b01b03199092161760a092831b60ff60a01b161760a89190911b60ff60a81b161790915560808201516002840155810151600383015560c081015160048084019190915560e0820151600584015561010082015190811015611b0e5760099161170d6101609260068601612f56565b610120810151600785015561014081015160088501550151910155338152600e60205261173d8260408320612f6e565b818152600d6020526040812060ff600182015460a81c1661175d81612933565b6119bc57819282905b6004830154600284015411806119b1575b806119a7575b156118e757601454808552601060205260056040862001908154156118da57508054808652600d602052604086209060ff60068301541660048110156118c657806117d09115908115610932575061309f565b61185761185161184560048501546118056002870154916117f28382106130f7565b60028c015460048d015461086a9161307c565b808210156118bf57505b61181a81151561314f565b61182860145482888d6136fa565b6118368160048c0154613198565b60048b01556004860154613198565b998a6004860155612fc6565b95612fc6565b976002830154146000146118ab576006909101805460ff19166001179055601454611881916133c5565b5415611890575b939093611766565b61189b601454613580565b6118a361346c565b601455611888565b50600601805460ff19166003179055611881565b905061180f565b634e487b7160e01b88526021600452602488fd5b61189b9150959295613580565b92919050602093905b6004810154600282015481036119885750600601805460ff191660011790555b8061195e575b5060405190611926600435612933565b600435825260243584830152604082015242606082015281600080516020613d7f83398151915260803393a360018055604051908152f35b6060600080516020613d1f833981519152916040519081528386820152426040820152a138611916565b611993575b50611910565b600601805460ff191660031790553861198d565b50600a821061177d565b506014541515611777565b819282905b600483015460028401541180611b03575b80611af9575b15611aec57601354808552600f6020526005604086200190815415611adf57508054808652600d602052604086209060ff60068301541660048110156118c65780611a2b9115908115610b8257506131a5565b611a706118516118456004850154611a4d6002870154916117f28382106131fd565b80821015611ad857505b611a6281151561314f565b611828601354828c896136fa565b97600283015414600014611ac4576006909101805460ff19166001179055601354611a9a916132fa565b5415611aa9575b9390936119c1565b611ab46013546134ca565b611abc613439565b601355611aa1565b50600601805460ff19166003179055611a9a565b9050611a57565b611ab491509592956134ca565b92919050602093906118f0565b50600a82106119d8565b5060135415156119d2565b634e487b7160e01b84526021600452602484fd5b611b2b90612a24565b6104005781386115df565b6040513d85823e3d90fd5b8380fd5b60405162461bcd60e51b815260206004820152602260248201527f4f72646572426f6f6b3a20696e76616c696420657374696d6174656420707269604482015261636560f01b6064820152608490fd5b611ba0600435612933565b60016004351480611bc1575b15611bb957601354611562565b600654611562565b506013541515611bac565b506014541515611559565b50346103465780600319360112610346576020604051600a8152f35b503461034657602036600319011261034657611c0d6129d8565b611c15612c75565b6001600160a01b03908116908115611c6d57600280546001600160a01b0319811684179091556040514281529116907f0cfa1cc2dc116bd34dffc0ffbf6251fbca08c1c97f7db3916bbe46a25df96df890602090a380f35b60405162461bcd60e51b815260206004820152601f60248201527f4f72646572426f6f6b3a20696e76616c6964207661756c7420726f75746572006044820152606490fd5b50346103465760208060031936011261040057600435611cd0612fa3565b808352600d825260408320805415611e465760018101546001600160a01b03919082163303611e045760060160ff8154166004811015611df0578015908115611de5575b5015611da257908491611d2684612fd5565b600260ff1982541617905560025416803b156104005781604051809263759510a160e11b8252818381611d5d893360048401612d41565b03925af1801561040457611d8e575b5050600080516020613d9f833981519152604051924284523393a36001805580f35b611d9790612a24565b61040f578238611d6c565b6064846040519062461bcd60e51b825280600483015260248201527f4f72646572426f6f6b3a206f72646572206e6f742063616e63656c6c61626c656044820152fd5b600391501438611d14565b634e487b7160e01b86526021600452602486fd5b60405162461bcd60e51b815260048101859052601a60248201527927b93232b92137b7b59d103737ba1037b93232b91037bbb732b960311b6044820152606490fd5b60405162461bcd60e51b815260048101849052601f60248201527f4f72646572426f6f6b3a206f7264657220646f6573206e6f74206578697374006044820152606490fd5b503461034657602080600319360112610400576001600160401b0390600435828111611b415736602382011215611b41578060040135928311611b4157602490600590368386841b8301011161208257611ee3612fa3565b84151580612077575b1561203357855b858110611f0257866001805580f35b8381841b8301013590818852600d86528760408120805415158061201d575b80611fd8575b611f3d575b5050611f389150612fc6565b611ef3565b600690611f4985612fd5565b01805460ff19166002908117909155546001600160a01b0316803b156104005781604051809263759510a160e11b8252818381611f8a8a3360048401612d41565b03925af1801561040457611fc0575b5050611f389160405190428252600080516020613d9f833981519152883393a38738611f2c565b611fc990612a24565b611fd4578738611f99565b8780fd5b50905060ff600682015416600481101561200a5790818a9215908115611fff575b50611f27565b600391501438611ff9565b634e487b7160e01b8a526021600452868afd5b5060018101546001600160a01b03163314611f21565b60405162461bcd60e51b815260048101859052601d818501527f4f72646572426f6f6b3a20696e76616c69642062617463682073697a650000006044820152606490fd5b50600a851115611eec565b8580fd5b5034610346576020366003190112610346576020906040906001600160a01b036120ae6129d8565b168152601683522054604051908152f35b503461034657602080600319360112610400576001600160a01b036120e26129d8565b168252600e81526040822060405192838383549182815201908193835284832090835b818110612159575050508461211b910385612a8b565b60405193838594850191818652518092526040850193925b82811061214257505050500390f35b835185528695509381019392810192600101612133565b825484529286019260019283019201612105565b5034610346578060031936011261034657602060405164e8d4a510008152f35b50346103465780600319360112610346576020604051633b9aca008152f35b50346103465780600319360112610346576020601254604051908152f35b5034610346576020366003190112610346578060409161016083516121ee81612a53565b82815282602082015282858201528260608201528260808201528260a08201528260c08201528260e082015282610100820152826101208201528261014082015201526004358152600d6020522060405161224881612a53565b8154815260018201546001600160a01b038116602083015260ff9060a081901c821661227381612933565b604084015260a81c1661228581612933565b606082015260028201546080820152600382015460a0820152600482015460c0820152600582015460e082015260ff600683015416600481101561238f5761018092600991610100840152600781015461012084015260088101546101408401520154610160820152610160604051918051835260018060a01b036020820151166020840152604081015161231981612933565b6040840152606081015161232c81612933565b60608401526080810151608084015260a081015160a084015260c081015160c084015260e081015160e084015261236d6101008201516101008501906129ee565b6101208101516101208401526101408101516101408401520151610160820152f35b634e487b7160e01b600052602160045260246000fd5b5034610346578060031936011261034657604060135460145482519182526020820152f35b50346103465780600319360112610346576020604051600080516020613d3f8339815191528152f35b50346103465760403660031901126103465761240d6129c2565b336001600160a01b038216036124295761045090600435612dda565b60405163334bd91960e11b8152600490fd5b50346103465760403660031901126103465761045060043561245b6129c2565b90808452836020526124736001604086200154612cf9565b612d5c565b503461034657602036600319011261034657600160406020926004358152808452200154604051908152f35b50346103465780600319360112610346576101406040516124c481612a37565b82815260606020820152606060408201528260608201528260808201528260a08201528260c08201528260e08201528261010082015282610120820152015260405161250f81612a37565b600354815261251c612aae565b6020820152612529612b7c565b60408201526006546060820152600754608082015260085460a082015260095460c0820152600a5460e0820152600b5461010082015260ff600c54818116151561012084015260081c1615156101408201526040518091602082528051602083015260208101516101406125c46125ae61016093846040880152610180870190612982565b6040850151868203601f19016060880152612982565b9260608101516080860152608081015160a086015260a081015160c086015260c081015160e086015260e081015161010086015261010081015161012086015261012081015115158286015201511515908301520390f35b50346103465780600319360112610346576020601354604051908152f35b5034610346576020366003190112610346576040906004358152601060205220805461123060ff60018401541692600281015490600381015460048201546005830154906006840154926008600786015495015495604051998a998a61293d565b5034610346576020366003190112610346576126b5612924565b6126bd612c75565b60ff8019600c54169115151617600c5580f35b50346103465780600319360112610346576020601154604051908152f35b5034610346576020366003190112610346577fb2eb730e1d552dcf5764626a50ed1650f11ce0bafb9caf2f9971e9c25bded9ba604061272b612924565b612733612c75565b151560ff196017541660ff8216176017558151908152426020820152a180f35b50346103465760203660031901126103465760043590600080516020613d3f833981519152808252816020526040822033835260205260ff60408320541615612888575060ff600c5460081c1615612835578160065560018060a01b0360025416600354813b1561040f57829160448392604051948593849263dee0f5e560e01b845260048401528860248401525af1801561040457612826575b50907f71f32a55faca657f8f6b266ef85a0595b93565f9c1240545ab94fc4e75398b626040600354928151908152426020820152a280f35b61282f90612a24565b386127ee565b60405162461bcd60e51b815260206004820152602560248201527f4f72646572426f6f6b3a206e6f74206120637573746f6d206d6574726963206d604482015264185c9ad95d60da1b6064820152608490fd5b6044906040519063e2517d3f60e01b82523360048301526024820152fd5b50346103465780600319360112610346576020604051600080516020613d5f8339815191528152f35b9050346104005760203660031901126104005760043563ffffffff60e01b811680910361040f5760209250637965db0b60e01b8114908115612913575b5015158152f35b6301ffc9a760e01b1490503861290c565b60043590811515820361034157565b6002111561238f57565b95926101009794919a9998959261012088019b885261295b81612933565b602088015260408701526060860152608085015260a084015260c083015260e08201520152565b919082519283825260005b8481106129ae575050826000602080949584010152601f8019910116010190565b60208183018101518483018201520161298d565b602435906001600160a01b038216820361034157565b600435906001600160a01b038216820361034157565b90600482101561238f5752565b81810292918115918404141715612a0e57565b634e487b7160e01b600052601160045260246000fd5b6001600160401b038111610f3a57604052565b61016081019081106001600160401b03821117610f3a57604052565b61018081019081106001600160401b03821117610f3a57604052565b61012081019081106001600160401b03821117610f3a57604052565b601f909101601f19168101906001600160401b03821190821017610f3a57604052565b60405190600060045490600182811c90808416938415612b72575b6020948584108114612b5e5783885287949392918115612b3e5750600114612afc575b5050612afa92500383612a8b565b565b90939150600460005281600020936000915b818310612b26575050612afa93508201013880612aec565b85548884018501529485019487945091830191612b0e565b915050612afa94925060ff191682840152151560051b8201013880612aec565b634e487b7160e01b85526022600452602485fd5b91607f1691612ac9565b60405190600060055490600182811c90808416938415612c09575b6020948584108114612b5e5783885287949392918115612b3e5750600114612bc7575050612afa92500383612a8b565b90939150600560005281600020936000915b818310612bf1575050612afa93508201013880612aec565b85548884018501529485019487945091830191612bd9565b91607f1691612b97565b8054821015612c2b5760005260206000200190600090565b634e487b7160e01b600052603260045260246000fd5b90815180825260208080930193019160005b828110612c61575050505090565b835185529381019392810192600101612c53565b3360009081527fad3228b676f7d3cd4284a5443f17f1962b36e491b30a40b2405849e597ba5fb5602052604081205460ff16156128885750565b3360009081527fa629f6981c2f6895a67dc766e8e03ff72d04a413d0d8773a3ca56e9e474032c16020526040902054600080516020613d5f8339815191529060ff16156128885750565b80600052600060205260406000203360005260205260ff6040600020541615612d1f5750565b60405163e2517d3f60e01b8152908190612d3d903360048401612d41565b0390fd5b6001600160a01b039091168152602081019190915260400190565b9060009180835282602052604083209160018060a01b03169182845260205260ff60408420541615600014612dd557808352826020526040832082845260205260408320600160ff198254161790557f2f8788117e7eff1d82e926ec794901d17c78024a50270940304540a733656f0d339380a4600190565b505090565b9060009180835282602052604083209160018060a01b03169182845260205260ff604084205416600014612dd55780835282602052604083208284526020526040832060ff1981541690557ff6391f5c32d9c69d2a47ea670b442974b53935d1edc7fd64eb21e047a839171b339380a4600190565b15612e5657565b60405162461bcd60e51b815260206004820152601d60248201527f4f72646572426f6f6b3a20636f6e7472616374206973207061757365640000006044820152606490fd5b15612ea257565b60405162461bcd60e51b815260206004820152601c60248201527b4f72646572426f6f6b3a206d61726b6574206e6f742061637469766560201b6044820152606490fd5b15612eed57565b60405162461bcd60e51b815260206004820152601f60248201527f4f72646572426f6f6b3a20696e76616c696420757365722061646472657373006044820152606490fd5b90949392606092608083019660018060a01b03168352602083015260408201520152565b90600481101561238f5760ff80198354169116179055565b8054600160401b811015610f3a57612f8b91600182018155612c13565b819291549060031b91821b91600019901b1916179055565b600260015414612fb4576002600155565b604051633ee5aeb560e01b8152600490fd5b6000198114612a0e5760010190565b600860406000838152600d60205281812060ff600182015460a81c16612ffa81612933565b61304757600361300d91015480956132fa565b838152600f60205220015415613038575b505b613028613439565b60135561303361346c565b601455565b613041906134ca565b3861301e565b600361305691015480956133c5565b83815260106020522001541561306d575b50613020565b61307690613580565b38613067565b91908203918211612a0e57565b6040919493926060820195825260208201520152565b156130a657565b60405162461bcd60e51b8152602060048201526024808201527f4f72646572426f6f6b3a20696e76616c69642073656c6c206f726465722073746044820152636174757360e01b6064820152608490fd5b156130fe57565b60405162461bcd60e51b8152602060048201526024808201527f4f72646572426f6f6b3a2073656c6c206f7264657220616c72656164792066696044820152631b1b195960e21b6064820152608490fd5b1561315657565b60405162461bcd60e51b815260206004820152601a6024820152794f72646572426f6f6b3a207a65726f206d617463682073697a6560301b6044820152606490fd5b91908201809211612a0e57565b156131ac57565b60405162461bcd60e51b815260206004820152602360248201527f4f72646572426f6f6b3a20696e76616c696420627579206f726465722073746160448201526274757360e81b6064820152608490fd5b1561320457565b60405162461bcd60e51b815260206004820152602360248201527f4f72646572426f6f6b3a20627579206f7264657220616c72656164792066696c6044820152621b195960ea1b6064820152608490fd5b1561325c57565b60405162461bcd60e51b815260206004820152601d60248201527f4f72646572426f6f6b3a20696e76616c696420746f74616c2073697a650000006044820152606490fd5b156132a857565b60405162461bcd60e51b815260206004820152601e60248201527f4f72646572426f6f6b3a20696e76616c6964206f7264657220636f756e7400006044820152606490fd5b8015612a0e576000190190565b906000918252600d60205260408220908252600f60205281604081209160086009820193845415156000146133b7578183015485548552600d602052826040862001555b8282018054909361337291156133ab57865485548752600d60205260096040882001555b600460028201549101549061307c565b61338d6007830191825461338882821015613255565b61307c565b9055016133a581546133a08115156132a1565b6132ed565b90555555565b86546006840155613362565b81830154600582015561333e565b906000918252600d60205260408220908252601060205281604081209160086009820193845415156000146133b757828201805486548652600d602052604086208401819055909361337291156133ab57865485548752600d6020526009604088200155600460028201549101549061307c565b6011548015613466575b600460406000838152600f6020522001549081156134615750613443565b905090565b50600090565b6012548015613466575b60036040600083815260106020522001549081156134615750613476565b60086000918281558260018201558260028201558260038201558260048201558260058201558260068201558260078201550155565b6040612afa91600090808252600f602052828220600281015490600460038201549101549180613556575b50826011541461350f575b50508152600f60205220613494565b81156135315750806011558252600f60205281600284822001555b3880613500565b9050801561354c57806011558252816002848220015561352a565b508160115561352a565b8452838581206003810190858254146000146135755750555b386134f5565b60049150015561356f565b6040612afa916000908082526010602052828220600281015460046003830154920154908061360b575b5082601254146135c4575b50508152601060205220613494565b81156135e65750806012558252601060205281600284822001555b38806135b5565b905080156136015780601255825281600284822001556135df565b50816012556135df565b84528385812060038101908582541460001461362a5750555b386135aa565b600491500155613624565b1561363c57565b60405162461bcd60e51b815260206004820152601f60248201527f4f72646572426f6f6b3a207573657220766f6c756d65206f766572666c6f77006044820152606490fd5b1561368857565b60405162461bcd60e51b815260206004820152602660248201527f4f72646572426f6f6b3a207573657220747261646520636f756e746572206f766044820152656572666c6f7760d01b6064820152608490fd5b604091949392606082019560018060a01b0316825260208201520152565b9192906000938260075561370e83826129fb565b60095481198111613a70578161372391613198565b60095560011c92600185019560018060a01b03968791601683835416978883526020906015825260409961377b8b862054613762841980921115613635565b60018c019e8f54168752601585528c8720541115613635565b84526015825289842061378f828254613198565b9055858c54168452601582526137a98a8520918254613198565b90558a6137de8a8780885416938488528686526137cd60001980948a205410613681565b541686528484528b86205410613681565b83528181528883206137f08154612fc6565b9055848b54168352528681206138068154612fc6565b90556138128486613ab2565b61381c8587613ab2565b908460025416908585541691600354813b156120825791859161385793838e5180968195829463b25cdccf60e01b9a8b8552600485016136dc565b03925af18015613a6657613a53575b508460025416858c541660035492823b15612082579085809493926138988e51978896879586948552600485016136dc565b03925af180156139ff57908291613a3f575b505082600254168383541690600354813b15611b4157866138e792898680948e5196879586948593635463f81560e11b9b8c865260048601612f32565b03925af18015613a3557908391613a21575b5050836002541690848b54169160035491600160ff1b8914613a0d57813b15613a095790888580949361393d8b8f5198899788968795865286039160048601612f32565b03925af180156139ff576139eb575b505090806139e69261396086600854613198565b60085554169754169586887fcfaae44f59cdc0459335ad7fa6324241a4e86a442fc914e1aea4f2076aba7a5088518061399b42898b84613089565b0390a3549386888751967f043f1fb3781a272561a63f61d52b4dbd6524d6d0a8cd1e003888f2a341974e8f8881996139d5428a8c84613089565b0390a4549451928392429184613089565b0390a4565b6139f58291612a24565b610346578061394c565b88513d84823e3d90fd5b8480fd5b634e487b7160e01b85526011600452602485fd5b613a2a90612a24565b6104005781386138f9565b89513d85823e3d90fd5b613a4890612a24565b6103465780386138aa565b613a5f90939193612a24565b9138613866565b8a513d86823e3d90fd5b60405162461bcd60e51b815260206004820152601a6024820152794f72646572426f6f6b3a20766f6c756d65206f766572666c6f7760301b6044820152606490fd5b908015613bf4578115613baf5780600019048211613b6b57613ad3916129fb565b7f19999999999999999999999999999999999999999999999999999999999999998111613b1757600a810290808204600a1490151715612a0e576305f5e100900490565b60405162461bcd60e51b815260206004820152602660248201527f4f72646572426f6f6b3a206d617267696e2063616c63756c6174696f6e206f766044820152656572666c6f7760d01b6064820152608490fd5b606460405162461bcd60e51b815260206004820152602060248201527f4f72646572426f6f6b3a2073697a65202a207072696365206f766572666c6f776044820152fd5b60405162461bcd60e51b815260206004820152601e60248201527f4f72646572426f6f6b3a2073697a652063616e6e6f74206265207a65726f00006044820152606490fd5b60405162461bcd60e51b815260206004820152601f60248201527f4f72646572426f6f6b3a2070726963652063616e6e6f74206265207a65726f006044820152606490fd5b15613c4057565b60405162461bcd60e51b815260206004820152601960248201527809ee4c8cae484deded67440e0e4d2c6ca40e8dede40d0d2ced603b1b6044820152606490fd5b15613c8857565b60405162461bcd60e51b81526020600482015260186024820152774f72646572426f6f6b3a20707269636520746f6f206c6f7760401b6044820152606490fd5b6001600160401b038111610f3a5760051b60200190565b90613ce982613cc8565b613cf66040519182612a8b565b8281528092613d07601f1991613cc8565b0190602036910137565b805115612c2b576020019056fea2ee7b9f6b18d3372b1bb15bde43f572accc22f4869ee3c7a6911ec08969710873e573f9566d61418a34d5de3ff49360f9c51fec37f7486551670290f6285dab68e79a7bf1e0bc45d0a330c573bc367f9cf464fd326078812f301165fbda4ef1348379522536ddee6c265b4008f5063ca68d4ee1e27925ba2a01236bab3c59e6b2705df32ac67fc3101f496cd7036bf59074a603544d97d73650b6f09744986aa2646970667358221220e62eceadefe2efd23a4554de9f8e70c54b4ccb19d8cb77e3388b0cab208b84ef64736f6c634300081400332f8788117e7eff1d82e926ec794901d17c78024a50270940304540a733656f0dd3065a24ad9e7725d223007135762d2902038999e3e5829146654498a58d97958a35acfbc15ff81a39ae7d344fd709f28e8600b4aa8c65c6b64bfe7fe36bd19b4d61726b65745574696c733a20696e76616c6964206368617261637465722069a2646970667358221220adfcb9d172885696bc049c6fab7b99226236548517afa269838d7cadde47751964736f6c634300081400332f8788117e7eff1d82e926ec794901d17c78024a50270940304540a733656f0d",
  "linkReferences": {},
  "deployedLinkReferences": {}
}