{
  "_format": "hh-sol-artifact-1",
  "contractName": "CentralVault",
  "sourceName": "contracts/core/CentralVault.sol",
  "abi": [
    {
      "inputs": [
        {
          "internalType": "address",
          "name": "admin",
          "type": "address"
        },
        {
          "internalType": "uint256",
          "name": "_emergencyPauseDuration",
          "type": "uint256"
        },
        {
          "internalType": "address",
          "name": "_primaryCollateralToken",
          "type": "address"
        }
      ],
      "stateMutability": "nonpayable",
      "type": "constructor"
    },
    {
      "anonymous": false,
      "inputs": [
        {
          "indexed": true,
          "internalType": "address",
          "name": "asset",
          "type": "address"
        },
        {
          "indexed": false,
          "internalType": "string",
          "name": "name",
          "type": "string"
        },
        {
          "indexed": false,
          "internalType": "string",
          "name": "symbol",
          "type": "string"
        }
      ],
      "name": "AssetAdded",
      "type": "event"
    },
    {
      "anonymous": false,
      "inputs": [
        {
          "indexed": true,
          "internalType": "address",
          "name": "user",
          "type": "address"
        },
        {
          "indexed": true,
          "internalType": "address",
          "name": "market",
          "type": "address"
        },
        {
          "indexed": true,
          "internalType": "address",
          "name": "asset",
          "type": "address"
        },
        {
          "indexed": false,
          "internalType": "uint256",
          "name": "amount",
          "type": "uint256"
        },
        {
          "indexed": false,
          "internalType": "bool",
          "name": "isAllocation",
          "type": "bool"
        }
      ],
      "name": "AssetAllocation",
      "type": "event"
    },
    {
      "anonymous": false,
      "inputs": [
        {
          "indexed": true,
          "internalType": "address",
          "name": "asset",
          "type": "address"
        }
      ],
      "name": "AssetRemoved",
      "type": "event"
    },
    {
      "anonymous": false,
      "inputs": [
        {
          "indexed": true,
          "internalType": "address",
          "name": "user",
          "type": "address"
        },
        {
          "indexed": true,
          "internalType": "address",
          "name": "asset",
          "type": "address"
        },
        {
          "indexed": false,
          "internalType": "uint256",
          "name": "amount",
          "type": "uint256"
        },
        {
          "indexed": false,
          "internalType": "uint256",
          "name": "timestamp",
          "type": "uint256"
        }
      ],
      "name": "Deposit",
      "type": "event"
    },
    {
      "anonymous": false,
      "inputs": [
        {
          "indexed": true,
          "internalType": "address",
          "name": "admin",
          "type": "address"
        },
        {
          "indexed": false,
          "internalType": "bool",
          "name": "isPaused",
          "type": "bool"
        }
      ],
      "name": "EmergencyPause",
      "type": "event"
    },
    {
      "anonymous": false,
      "inputs": [
        {
          "indexed": false,
          "internalType": "address",
          "name": "account",
          "type": "address"
        }
      ],
      "name": "Paused",
      "type": "event"
    },
    {
      "anonymous": false,
      "inputs": [
        {
          "indexed": true,
          "internalType": "address",
          "name": "oldToken",
          "type": "address"
        },
        {
          "indexed": true,
          "internalType": "address",
          "name": "newToken",
          "type": "address"
        }
      ],
      "name": "PrimaryCollateralTokenUpdated",
      "type": "event"
    },
    {
      "anonymous": false,
      "inputs": [
        {
          "indexed": true,
          "internalType": "address",
          "name": "asset",
          "type": "address"
        },
        {
          "indexed": false,
          "internalType": "uint256",
          "name": "maxSingle",
          "type": "uint256"
        },
        {
          "indexed": false,
          "internalType": "uint256",
          "name": "maxDaily",
          "type": "uint256"
        },
        {
          "indexed": false,
          "internalType": "uint256",
          "name": "collateralRatio",
          "type": "uint256"
        }
      ],
      "name": "RiskParametersUpdated",
      "type": "event"
    },
    {
      "anonymous": false,
      "inputs": [
        {
          "indexed": true,
          "internalType": "bytes32",
          "name": "role",
          "type": "bytes32"
        },
        {
          "indexed": true,
          "internalType": "bytes32",
          "name": "previousAdminRole",
          "type": "bytes32"
        },
        {
          "indexed": true,
          "internalType": "bytes32",
          "name": "newAdminRole",
          "type": "bytes32"
        }
      ],
      "name": "RoleAdminChanged",
      "type": "event"
    },
    {
      "anonymous": false,
      "inputs": [
        {
          "indexed": true,
          "internalType": "bytes32",
          "name": "role",
          "type": "bytes32"
        },
        {
          "indexed": true,
          "internalType": "address",
          "name": "account",
          "type": "address"
        },
        {
          "indexed": true,
          "internalType": "address",
          "name": "sender",
          "type": "address"
        }
      ],
      "name": "RoleGranted",
      "type": "event"
    },
    {
      "anonymous": false,
      "inputs": [
        {
          "indexed": true,
          "internalType": "bytes32",
          "name": "role",
          "type": "bytes32"
        },
        {
          "indexed": true,
          "internalType": "address",
          "name": "account",
          "type": "address"
        },
        {
          "indexed": true,
          "internalType": "address",
          "name": "sender",
          "type": "address"
        }
      ],
      "name": "RoleRevoked",
      "type": "event"
    },
    {
      "anonymous": false,
      "inputs": [
        {
          "indexed": false,
          "internalType": "address",
          "name": "account",
          "type": "address"
        }
      ],
      "name": "Unpaused",
      "type": "event"
    },
    {
      "anonymous": false,
      "inputs": [
        {
          "indexed": true,
          "internalType": "address",
          "name": "user",
          "type": "address"
        },
        {
          "indexed": true,
          "internalType": "address",
          "name": "asset",
          "type": "address"
        },
        {
          "indexed": false,
          "internalType": "uint256",
          "name": "amount",
          "type": "uint256"
        },
        {
          "indexed": false,
          "internalType": "uint256",
          "name": "timestamp",
          "type": "uint256"
        }
      ],
      "name": "Withdrawal",
      "type": "event"
    },
    {
      "anonymous": false,
      "inputs": [
        {
          "indexed": true,
          "internalType": "address",
          "name": "user",
          "type": "address"
        },
        {
          "indexed": true,
          "internalType": "address",
          "name": "asset",
          "type": "address"
        },
        {
          "indexed": false,
          "internalType": "uint256",
          "name": "amount",
          "type": "uint256"
        }
      ],
      "name": "WithdrawalCancelled",
      "type": "event"
    },
    {
      "anonymous": false,
      "inputs": [
        {
          "indexed": false,
          "internalType": "uint256",
          "name": "oldDelay",
          "type": "uint256"
        },
        {
          "indexed": false,
          "internalType": "uint256",
          "name": "newDelay",
          "type": "uint256"
        }
      ],
      "name": "WithdrawalDelayUpdated",
      "type": "event"
    },
    {
      "anonymous": false,
      "inputs": [
        {
          "indexed": true,
          "internalType": "address",
          "name": "user",
          "type": "address"
        },
        {
          "indexed": true,
          "internalType": "address",
          "name": "asset",
          "type": "address"
        },
        {
          "indexed": false,
          "internalType": "uint256",
          "name": "amount",
          "type": "uint256"
        }
      ],
      "name": "WithdrawalExecuted",
      "type": "event"
    },
    {
      "anonymous": false,
      "inputs": [
        {
          "indexed": true,
          "internalType": "address",
          "name": "user",
          "type": "address"
        },
        {
          "indexed": true,
          "internalType": "address",
          "name": "asset",
          "type": "address"
        },
        {
          "indexed": false,
          "internalType": "uint256",
          "name": "amount",
          "type": "uint256"
        },
        {
          "indexed": false,
          "internalType": "uint256",
          "name": "executeTime",
          "type": "uint256"
        }
      ],
      "name": "WithdrawalRequested",
      "type": "event"
    },
    {
      "inputs": [],
      "name": "DEFAULT_ADMIN_ROLE",
      "outputs": [
        {
          "internalType": "bytes32",
          "name": "",
          "type": "bytes32"
        }
      ],
      "stateMutability": "view",
      "type": "function"
    },
    {
      "inputs": [],
      "name": "EMERGENCY_ROLE",
      "outputs": [
        {
          "internalType": "bytes32",
          "name": "",
          "type": "bytes32"
        }
      ],
      "stateMutability": "view",
      "type": "function"
    },
    {
      "inputs": [],
      "name": "ETH_ADDRESS",
      "outputs": [
        {
          "internalType": "address",
          "name": "",
          "type": "address"
        }
      ],
      "stateMutability": "view",
      "type": "function"
    },
    {
      "inputs": [],
      "name": "MARKET_ROLE",
      "outputs": [
        {
          "internalType": "bytes32",
          "name": "",
          "type": "bytes32"
        }
      ],
      "stateMutability": "view",
      "type": "function"
    },
    {
      "inputs": [],
      "name": "MAX_WITHDRAWAL_DELAY",
      "outputs": [
        {
          "internalType": "uint256",
          "name": "",
          "type": "uint256"
        }
      ],
      "stateMutability": "view",
      "type": "function"
    },
    {
      "inputs": [],
      "name": "PRECISION",
      "outputs": [
        {
          "internalType": "uint256",
          "name": "",
          "type": "uint256"
        }
      ],
      "stateMutability": "view",
      "type": "function"
    },
    {
      "inputs": [],
      "name": "VAULT_ADMIN_ROLE",
      "outputs": [
        {
          "internalType": "bytes32",
          "name": "",
          "type": "bytes32"
        }
      ],
      "stateMutability": "view",
      "type": "function"
    },
    {
      "inputs": [
        {
          "internalType": "address",
          "name": "asset",
          "type": "address"
        },
        {
          "internalType": "uint256",
          "name": "maxSingleWithdrawal",
          "type": "uint256"
        },
        {
          "internalType": "uint256",
          "name": "maxDailyWithdrawal",
          "type": "uint256"
        },
        {
          "internalType": "uint256",
          "name": "collateralizationRatio",
          "type": "uint256"
        }
      ],
      "name": "addSupportedAsset",
      "outputs": [],
      "stateMutability": "nonpayable",
      "type": "function"
    },
    {
      "inputs": [
        {
          "internalType": "address",
          "name": "user",
          "type": "address"
        },
        {
          "internalType": "address",
          "name": "asset",
          "type": "address"
        },
        {
          "internalType": "uint256",
          "name": "amount",
          "type": "uint256"
        }
      ],
      "name": "allocateAssets",
      "outputs": [],
      "stateMutability": "nonpayable",
      "type": "function"
    },
    {
      "inputs": [
        {
          "internalType": "uint256",
          "name": "",
          "type": "uint256"
        }
      ],
      "name": "assetList",
      "outputs": [
        {
          "internalType": "address",
          "name": "",
          "type": "address"
        }
      ],
      "stateMutability": "view",
      "type": "function"
    },
    {
      "inputs": [
        {
          "internalType": "address",
          "name": "",
          "type": "address"
        }
      ],
      "name": "assetRiskParams",
      "outputs": [
        {
          "internalType": "uint256",
          "name": "maxSingleWithdrawal",
          "type": "uint256"
        },
        {
          "internalType": "uint256",
          "name": "maxDailyWithdrawal",
          "type": "uint256"
        },
        {
          "internalType": "uint256",
          "name": "collateralizationRatio",
          "type": "uint256"
        },
        {
          "internalType": "bool",
          "name": "enabled",
          "type": "bool"
        }
      ],
      "stateMutability": "view",
      "type": "function"
    },
    {
      "inputs": [
        {
          "internalType": "address",
          "name": "",
          "type": "address"
        }
      ],
      "name": "authorizedMarkets",
      "outputs": [
        {
          "internalType": "bool",
          "name": "",
          "type": "bool"
        }
      ],
      "stateMutability": "view",
      "type": "function"
    },
    {
      "inputs": [
        {
          "internalType": "address",
          "name": "asset",
          "type": "address"
        }
      ],
      "name": "cancelWithdrawal",
      "outputs": [],
      "stateMutability": "nonpayable",
      "type": "function"
    },
    {
      "inputs": [
        {
          "internalType": "address",
          "name": "",
          "type": "address"
        },
        {
          "internalType": "uint256",
          "name": "",
          "type": "uint256"
        }
      ],
      "name": "dailyWithdrawals",
      "outputs": [
        {
          "internalType": "uint256",
          "name": "",
          "type": "uint256"
        }
      ],
      "stateMutability": "view",
      "type": "function"
    },
    {
      "inputs": [
        {
          "internalType": "address",
          "name": "user",
          "type": "address"
        },
        {
          "internalType": "address",
          "name": "asset",
          "type": "address"
        },
        {
          "internalType": "uint256",
          "name": "amount",
          "type": "uint256"
        }
      ],
      "name": "deallocateAssets",
      "outputs": [],
      "stateMutability": "nonpayable",
      "type": "function"
    },
    {
      "inputs": [
        {
          "internalType": "address",
          "name": "asset",
          "type": "address"
        },
        {
          "internalType": "uint256",
          "name": "amount",
          "type": "uint256"
        }
      ],
      "name": "deposit",
      "outputs": [],
      "stateMutability": "payable",
      "type": "function"
    },
    {
      "inputs": [
        {
          "internalType": "uint256",
          "name": "amount",
          "type": "uint256"
        }
      ],
      "name": "depositPrimaryCollateral",
      "outputs": [],
      "stateMutability": "payable",
      "type": "function"
    },
    {
      "inputs": [],
      "name": "emergencyPauseDuration",
      "outputs": [
        {
          "internalType": "uint256",
          "name": "",
          "type": "uint256"
        }
      ],
      "stateMutability": "view",
      "type": "function"
    },
    {
      "inputs": [],
      "name": "emergencyPauseStart",
      "outputs": [
        {
          "internalType": "uint256",
          "name": "",
          "type": "uint256"
        }
      ],
      "stateMutability": "view",
      "type": "function"
    },
    {
      "inputs": [
        {
          "internalType": "address",
          "name": "asset",
          "type": "address"
        },
        {
          "internalType": "address",
          "name": "to",
          "type": "address"
        },
        {
          "internalType": "uint256",
          "name": "amount",
          "type": "uint256"
        }
      ],
      "name": "emergencyWithdraw",
      "outputs": [],
      "stateMutability": "nonpayable",
      "type": "function"
    },
    {
      "inputs": [
        {
          "internalType": "address",
          "name": "asset",
          "type": "address"
        }
      ],
      "name": "executeWithdrawal",
      "outputs": [],
      "stateMutability": "nonpayable",
      "type": "function"
    },
    {
      "inputs": [],
      "name": "getAuthorizedMarkets",
      "outputs": [
        {
          "internalType": "address[]",
          "name": "",
          "type": "address[]"
        }
      ],
      "stateMutability": "view",
      "type": "function"
    },
    {
      "inputs": [],
      "name": "getCurrentDay",
      "outputs": [
        {
          "internalType": "uint256",
          "name": "",
          "type": "uint256"
        }
      ],
      "stateMutability": "view",
      "type": "function"
    },
    {
      "inputs": [
        {
          "internalType": "address",
          "name": "user",
          "type": "address"
        },
        {
          "internalType": "uint256",
          "name": "day",
          "type": "uint256"
        }
      ],
      "name": "getDailyWithdrawal",
      "outputs": [
        {
          "internalType": "uint256",
          "name": "",
          "type": "uint256"
        }
      ],
      "stateMutability": "view",
      "type": "function"
    },
    {
      "inputs": [
        {
          "internalType": "address",
          "name": "user",
          "type": "address"
        }
      ],
      "name": "getPrimaryCollateralBalance",
      "outputs": [
        {
          "internalType": "uint256",
          "name": "available",
          "type": "uint256"
        },
        {
          "internalType": "uint256",
          "name": "allocated",
          "type": "uint256"
        },
        {
          "internalType": "uint256",
          "name": "locked",
          "type": "uint256"
        }
      ],
      "stateMutability": "view",
      "type": "function"
    },
    {
      "inputs": [],
      "name": "getPrimaryCollateralToken",
      "outputs": [
        {
          "internalType": "address",
          "name": "token",
          "type": "address"
        },
        {
          "internalType": "bool",
          "name": "isERC20",
          "type": "bool"
        },
        {
          "internalType": "string",
          "name": "name",
          "type": "string"
        },
        {
          "internalType": "string",
          "name": "symbol",
          "type": "string"
        }
      ],
      "stateMutability": "view",
      "type": "function"
    },
    {
      "inputs": [
        {
          "internalType": "bytes32",
          "name": "role",
          "type": "bytes32"
        }
      ],
      "name": "getRoleAdmin",
      "outputs": [
        {
          "internalType": "bytes32",
          "name": "",
          "type": "bytes32"
        }
      ],
      "stateMutability": "view",
      "type": "function"
    },
    {
      "inputs": [],
      "name": "getSupportedAssets",
      "outputs": [
        {
          "internalType": "address[]",
          "name": "",
          "type": "address[]"
        }
      ],
      "stateMutability": "view",
      "type": "function"
    },
    {
      "inputs": [
        {
          "internalType": "address",
          "name": "asset",
          "type": "address"
        }
      ],
      "name": "getTotalAssets",
      "outputs": [
        {
          "internalType": "uint256",
          "name": "total",
          "type": "uint256"
        }
      ],
      "stateMutability": "view",
      "type": "function"
    },
    {
      "inputs": [
        {
          "internalType": "address",
          "name": "user",
          "type": "address"
        },
        {
          "internalType": "address",
          "name": "asset",
          "type": "address"
        }
      ],
      "name": "getUserBalance",
      "outputs": [
        {
          "components": [
            {
              "internalType": "uint256",
              "name": "available",
              "type": "uint256"
            },
            {
              "internalType": "uint256",
              "name": "allocated",
              "type": "uint256"
            },
            {
              "internalType": "uint256",
              "name": "locked",
              "type": "uint256"
            }
          ],
          "internalType": "struct ICentralVault.UserBalance",
          "name": "balance",
          "type": "tuple"
        }
      ],
      "stateMutability": "view",
      "type": "function"
    },
    {
      "inputs": [
        {
          "internalType": "address",
          "name": "user",
          "type": "address"
        },
        {
          "internalType": "address",
          "name": "asset",
          "type": "address"
        }
      ],
      "name": "getWithdrawalRequest",
      "outputs": [
        {
          "internalType": "uint256",
          "name": "amount",
          "type": "uint256"
        },
        {
          "internalType": "uint256",
          "name": "requestTime",
          "type": "uint256"
        },
        {
          "internalType": "bool",
          "name": "processed",
          "type": "bool"
        },
        {
          "internalType": "uint256",
          "name": "executeTime",
          "type": "uint256"
        }
      ],
      "stateMutability": "view",
      "type": "function"
    },
    {
      "inputs": [
        {
          "internalType": "bytes32",
          "name": "role",
          "type": "bytes32"
        },
        {
          "internalType": "address",
          "name": "account",
          "type": "address"
        }
      ],
      "name": "grantRole",
      "outputs": [],
      "stateMutability": "nonpayable",
      "type": "function"
    },
    {
      "inputs": [
        {
          "internalType": "bytes32",
          "name": "role",
          "type": "bytes32"
        },
        {
          "internalType": "address",
          "name": "account",
          "type": "address"
        }
      ],
      "name": "hasRole",
      "outputs": [
        {
          "internalType": "bool",
          "name": "",
          "type": "bool"
        }
      ],
      "stateMutability": "view",
      "type": "function"
    },
    {
      "inputs": [
        {
          "internalType": "address",
          "name": "user",
          "type": "address"
        },
        {
          "internalType": "address",
          "name": "asset",
          "type": "address"
        },
        {
          "internalType": "uint256",
          "name": "amount",
          "type": "uint256"
        }
      ],
      "name": "hasSufficientBalance",
      "outputs": [
        {
          "internalType": "bool",
          "name": "sufficient",
          "type": "bool"
        }
      ],
      "stateMutability": "view",
      "type": "function"
    },
    {
      "inputs": [
        {
          "internalType": "address",
          "name": "market",
          "type": "address"
        }
      ],
      "name": "isAuthorizedMarket",
      "outputs": [
        {
          "internalType": "bool",
          "name": "isAuthorized",
          "type": "bool"
        }
      ],
      "stateMutability": "view",
      "type": "function"
    },
    {
      "inputs": [],
      "name": "isEmergencyPaused",
      "outputs": [
        {
          "internalType": "bool",
          "name": "isPaused",
          "type": "bool"
        }
      ],
      "stateMutability": "view",
      "type": "function"
    },
    {
      "inputs": [
        {
          "internalType": "uint256",
          "name": "",
          "type": "uint256"
        }
      ],
      "name": "marketList",
      "outputs": [
        {
          "internalType": "address",
          "name": "",
          "type": "address"
        }
      ],
      "stateMutability": "view",
      "type": "function"
    },
    {
      "inputs": [],
      "name": "paused",
      "outputs": [
        {
          "internalType": "bool",
          "name": "",
          "type": "bool"
        }
      ],
      "stateMutability": "view",
      "type": "function"
    },
    {
      "inputs": [],
      "name": "primaryCollateralIsERC20",
      "outputs": [
        {
          "internalType": "bool",
          "name": "",
          "type": "bool"
        }
      ],
      "stateMutability": "view",
      "type": "function"
    },
    {
      "inputs": [],
      "name": "primaryCollateralToken",
      "outputs": [
        {
          "internalType": "address",
          "name": "",
          "type": "address"
        }
      ],
      "stateMutability": "view",
      "type": "function"
    },
    {
      "inputs": [
        {
          "internalType": "address",
          "name": "asset",
          "type": "address"
        }
      ],
      "name": "removeSupportedAsset",
      "outputs": [],
      "stateMutability": "nonpayable",
      "type": "function"
    },
    {
      "inputs": [
        {
          "internalType": "bytes32",
          "name": "role",
          "type": "bytes32"
        },
        {
          "internalType": "address",
          "name": "account",
          "type": "address"
        }
      ],
      "name": "renounceRole",
      "outputs": [],
      "stateMutability": "nonpayable",
      "type": "function"
    },
    {
      "inputs": [
        {
          "internalType": "bytes32",
          "name": "role",
          "type": "bytes32"
        },
        {
          "internalType": "address",
          "name": "account",
          "type": "address"
        }
      ],
      "name": "revokeRole",
      "outputs": [],
      "stateMutability": "nonpayable",
      "type": "function"
    },
    {
      "inputs": [
        {
          "internalType": "bool",
          "name": "isPaused",
          "type": "bool"
        }
      ],
      "name": "setEmergencyPause",
      "outputs": [],
      "stateMutability": "nonpayable",
      "type": "function"
    },
    {
      "inputs": [
        {
          "internalType": "address",
          "name": "market",
          "type": "address"
        },
        {
          "internalType": "bool",
          "name": "isAuthorized",
          "type": "bool"
        }
      ],
      "name": "setMarketAuthorization",
      "outputs": [],
      "stateMutability": "nonpayable",
      "type": "function"
    },
    {
      "inputs": [
        {
          "internalType": "address",
          "name": "newCollateralToken",
          "type": "address"
        }
      ],
      "name": "setPrimaryCollateralToken",
      "outputs": [],
      "stateMutability": "nonpayable",
      "type": "function"
    },
    {
      "inputs": [
        {
          "internalType": "uint256",
          "name": "newDelay",
          "type": "uint256"
        }
      ],
      "name": "setWithdrawalDelay",
      "outputs": [],
      "stateMutability": "nonpayable",
      "type": "function"
    },
    {
      "inputs": [
        {
          "internalType": "address",
          "name": "",
          "type": "address"
        }
      ],
      "name": "supportedAssets",
      "outputs": [
        {
          "internalType": "bool",
          "name": "",
          "type": "bool"
        }
      ],
      "stateMutability": "view",
      "type": "function"
    },
    {
      "inputs": [
        {
          "internalType": "bytes4",
          "name": "interfaceId",
          "type": "bytes4"
        }
      ],
      "name": "supportsInterface",
      "outputs": [
        {
          "internalType": "bool",
          "name": "",
          "type": "bool"
        }
      ],
      "stateMutability": "view",
      "type": "function"
    },
    {
      "inputs": [
        {
          "internalType": "address",
          "name": "",
          "type": "address"
        }
      ],
      "name": "totalAssetReserves",
      "outputs": [
        {
          "internalType": "uint256",
          "name": "",
          "type": "uint256"
        }
      ],
      "stateMutability": "view",
      "type": "function"
    },
    {
      "inputs": [
        {
          "internalType": "address",
          "name": "from",
          "type": "address"
        },
        {
          "internalType": "address",
          "name": "to",
          "type": "address"
        },
        {
          "internalType": "address",
          "name": "asset",
          "type": "address"
        },
        {
          "internalType": "uint256",
          "name": "amount",
          "type": "uint256"
        }
      ],
      "name": "transferAssets",
      "outputs": [],
      "stateMutability": "nonpayable",
      "type": "function"
    },
    {
      "inputs": [
        {
          "internalType": "address",
          "name": "asset",
          "type": "address"
        },
        {
          "internalType": "uint256",
          "name": "maxSingleWithdrawal",
          "type": "uint256"
        },
        {
          "internalType": "uint256",
          "name": "maxDailyWithdrawal",
          "type": "uint256"
        },
        {
          "internalType": "uint256",
          "name": "collateralizationRatio",
          "type": "uint256"
        },
        {
          "internalType": "bool",
          "name": "enabled",
          "type": "bool"
        }
      ],
      "name": "updateAssetRiskParameters",
      "outputs": [],
      "stateMutability": "nonpayable",
      "type": "function"
    },
    {
      "inputs": [
        {
          "internalType": "address",
          "name": "",
          "type": "address"
        },
        {
          "internalType": "address",
          "name": "",
          "type": "address"
        }
      ],
      "name": "userBalances",
      "outputs": [
        {
          "internalType": "uint256",
          "name": "available",
          "type": "uint256"
        },
        {
          "internalType": "uint256",
          "name": "allocated",
          "type": "uint256"
        },
        {
          "internalType": "uint256",
          "name": "locked",
          "type": "uint256"
        }
      ],
      "stateMutability": "view",
      "type": "function"
    },
    {
      "inputs": [
        {
          "internalType": "address",
          "name": "asset",
          "type": "address"
        },
        {
          "internalType": "uint256",
          "name": "amount",
          "type": "uint256"
        }
      ],
      "name": "withdraw",
      "outputs": [],
      "stateMutability": "nonpayable",
      "type": "function"
    },
    {
      "inputs": [
        {
          "internalType": "uint256",
          "name": "amount",
          "type": "uint256"
        }
      ],
      "name": "withdrawPrimaryCollateral",
      "outputs": [],
      "stateMutability": "nonpayable",
      "type": "function"
    },
    {
      "inputs": [],
      "name": "withdrawalDelay",
      "outputs": [
        {
          "internalType": "uint256",
          "name": "",
          "type": "uint256"
        }
      ],
      "stateMutability": "view",
      "type": "function"
    },
    {
      "inputs": [
        {
          "internalType": "address",
          "name": "",
          "type": "address"
        },
        {
          "internalType": "address",
          "name": "",
          "type": "address"
        }
      ],
      "name": "withdrawalRequests",
      "outputs": [
        {
          "internalType": "uint256",
          "name": "amount",
          "type": "uint256"
        },
        {
          "internalType": "uint256",
          "name": "requestTime",
          "type": "uint256"
        },
        {
          "internalType": "bool",
          "name": "processed",
          "type": "bool"
        }
      ],
      "stateMutability": "view",
      "type": "function"
    },
    {
      "stateMutability": "payable",
      "type": "receive"
    }
  ],
  "bytecode": "0x60806040818152346200067a57606082620043fd8038038091620000248285620006b1565b8339810103126200067a576200003a82620006d5565b60206200004d83828601519501620006d5565b9360019283805560ff1995866002541660025560018060a01b03809216928315620006365762093a808111620005e657600355610e10600d5516926005548415908560ff60a01b831560a01b169160018060a81b0319161717600555600092838052838552868420818552855260ff878520541615620005b1575b7f7edcee67725a77bfa311b39349d7e96df9b23fbdbdcb328dfc17d77926920c13808552848652878520828652865260ff8886205416156200057b575b507fbf233dd2aafeb4d50879c4aa5c81e96d92f6e6945c906a58f9f2d1c1631b4b2690818552848652878520818652865260ff88862054161562000545575b50508280526007845285832082888254161790556008968754976801000000000000000091828a10156200053157848a018083558a10156200051d5760c0979899828752878720019360018060a01b0319948581541690556200020c8b6003888a8c845194620001b4866200067f565b68056bc75e2d631000008652600e82870192683635c9adc5dea00000845282880194613a988652606089019687528052528d2094518555518b85015551600284015551151591019060ff801983541691151516179055565b868b518c8152848d82015267457468657265756d60c01b606082015260808a820152600360808201526208aa8960eb1b60a08201527f9f1ffd7915fd0d97979cca0ac07b1048a70d2e76e98d1fdb62e5ad5759f7737b9a8b91a260ff60055460a01c1662000284575b8a51613c329081620007ab8239f35b620004cd5788865260078752848a872091825416179055805491821015620004b957838201808255821015620004a55784528484200180549091168617905585516200032591600390620002d8836200067f565b6000199081845286840191825289840190612ee0825260608501928184528a8852600e89528b882095518655519085015551600284015551151591019060ff801983541691151516179055565b84516306fdde0360e01b8152908082600481885afa8092829362000485575b50620003b0575050508251806200039c8160c090604081526012604082015271141c9a5b585c9e4810dbdb1b185d195c985b60721b606082015260806020820152600360808201526210d3d360ea1b60a08201520190565b0390a25b3880808080808080808062000275565b85516395d89b4160e01b8152908082600481895afa909182826200045b575b50506200043157505050825180620004288160c090604081526012604082015271141c9a5b585c9e4810dbdb1b185d195c985b60721b606082015260806020820152600360808201526210d3d360ea1b60a08201520190565b0390a2620003a0565b6200044d92620004289187519485948986528986019062000783565b918483039085015262000783565b6200047c9293503d8091833e620004738183620006b1565b8101906200070f565b903880620003cf565b6200049d9193503d8084833e620004738183620006b1565b913862000344565b634e487b7160e01b85526032600452602485fd5b634e487b7160e01b85526041600452602485fd5b895162461bcd60e51b815260048101889052602360248201527f43656e7472616c5661756c743a20496e76616c696420746f6b656e206164647260448201526265737360e81b6064820152608490fd5b634e487b7160e01b86526032600452602486fd5b634e487b7160e01b86526041600452602486fd5b8185528486528785208186528652878520848a8254161790553391600080516020620043dd8339815191528680a4388062000144565b8085528486528785208286528652878520848a825416179055813391600080516020620043dd8339815191528780a43862000105565b83805283855286842081855285528684208389825416179055338185600080516020620043dd8339815191528180a4620000c8565b865162461bcd60e51b8152600481018690526024808201527f43656e7472616c5661756c743a20496e76616c696420706175736520647572616044820152633a34b7b760e11b6064820152608490fd5b865162461bcd60e51b815260048101869052601b60248201527f43656e7472616c5661756c743a20496e76616c69642061646d696e00000000006044820152606490fd5b600080fd5b608081019081106001600160401b038211176200069b57604052565b634e487b7160e01b600052604160045260246000fd5b601f909101601f19168101906001600160401b038211908210176200069b57604052565b51906001600160a01b03821682036200067a57565b60005b838110620006fe5750506000910152565b8181015183820152602001620006ed565b6020818303126200067a5780516001600160401b03918282116200067a57019082601f830112156200067a5781519081116200069b57604051926200075f601f8301601f191660200185620006b1565b818452602082840101116200067a57620007809160208085019101620006ea565b90565b906020916200079e81518092818552858086019101620006ea565b601f01601f191601019056fe6080604090808252600490813610156100fa575b50361561001f57600080fd5b60ff60055460a01c161580156100e3575b156100925750600090818052600660205280822061004f348254612aa5565b90553382526009602052808220828052602052808220610070348254612aa5565b9055600080516020613bdd8339815191528151913483524260208401523392a3005b6020608492519162461bcd60e51b8352820152602660248201527f43656e7472616c5661756c743a20455448206465706f73697473206e6f7420616044820152651b1b1bddd95960d21b6064820152fd5b5060008052600760205260ff826000205416610030565b600090813560e01c90816301ffc9a714612371575080630c6d3e2c146122585780631c46bc6f146120a35780631d3b742d146104de57806320df43591461206857806321daa8ce14611fd5578063232b956c14611fa9578063248a9ca314611f7e57806326cd4fc014611ec4578063283d0ca014611e9b578063290d10c414611e755780632b6028a414611e4e5780632f2ff15d14611da457806336568abe14611d135780633a6cc47014611c545780633e0db86914611bb15780633e27ec9b14611b765780633e6968b614611b565780634299b8a214610f7f57806347e7ef24146119f75780634fed39761461188457806358f3904a146117665780635c975abb146117425780636805d6ad146116ac5780636a3adf1d146115355780636b92348c146114b15780636ea2c8851461140f578063748fec13146113d35780637b803f84146113505780637deb9260146112475780637f730fd01461100457806388ec05c31461087657806391d1485414610fbd5780639907967114610f7f5780639e34111914610f44578063a0b4b30114610f02578063a217fddf14610c66578063a238f9df14610ee4578063a641b49914610c81578063a734f06e14610c66578063a7ab696114610c47578063aaf5eb6814610c24578063adb5198014610bbb578063b84f319714610b54578063bd81579e14610b16578063ca7f6e43146108d6578063ce16afa0146108b7578063d0caf20114610876578063d2c13da5146107d0578063d547741f14610793578063d8d1a65714610672578063e5406dbf146105de578063e63ea40814610516578063ead6d295146104de578063eb717d4e1461047b578063f3fef3a3146103985763ffe6de0a036100135791903461039457826003193601126103945760209250549051908152f35b8280fd5b5091346103945780600319360112610394576104236103b56123c5565b926024359283916103c4612d87565b6103cc612d43565b548061045e575b506001600160a01b03851680875260076020528187205460ff168015610456575b6103fd90612c4b565b610408831515612ca1565b33875260096020528187209087526020528520541015612ff6565b61042e8183336134ae565b600d5415610447576104409133613662565b6001805580f35b6104519133613773565b610440565b5080156103f4565b61046e6104759160035490612aa5565b4211612bf3565b386103d3565b5082346104da5760203660031901126104da5760809181906001600160a01b036104a36123c5565b168152600e602052209081549160018101549160ff6003600284015493015416928151948552602085015283015215156060820152f35b5080fd5b5082346104da5760203660031901126104da5760209181906001600160a01b036105066123c5565b1681526006845220549051908152f35b5082346104da576105263661247a565b929194610531612756565b6001600160a01b039582871691821561059b57509380959661058695610558831515612ca1565b16928361058b5750610575916105708247101561333a565b6133d3565b845260066020528320918254613163565b905580f35b610596925083613395565b610575565b606490602086519162461bcd60e51b8352820152601f60248201527f43656e7472616c5661756c743a20496e76616c696420726563697069656e74006044820152fd5b83823461066f578060031936011261066f578151918291600854808552602080950194600883527ff3f7a9fe364faab93b216da50a3214154f22a0a2b415b23a84c8169e8b636ee392905b82821061064f5761064b8686610641828b0383612a0f565b51918291826124f7565b0390f35b83546001600160a01b031687529586019560019384019390910190610629565b80fd5b509134610394576020366003190112610394578135918215159283810361078f5761069b612756565b1561070f574290556106ab612d43565b600160ff1960025416176002557f62e78cea01bee320cd4e420270b5ea74000d11b0c9f74754ebdbfc544b05a25860208251338152a15b519081527fec7f519031221865933b7e38f4f4f73d69d9dae7d2c65ea7dd171280930ea39360203392a280f35b8381556002549060ff821615610755575060ff19166002557f5db9ee0a495bf2e6ff9c91a7834c1ba4fdd244a5e8aa4e537bd38aeae4b073aa60208251338152a16106e2565b606490602084519162461bcd60e51b8352820152601460248201527314185d5cd8589b194e881b9bdd081c185d5cd95960621b6044820152fd5b8480fd5b5091346103945780600319360112610394576107cd91356107c860016107b76123e0565b93838752866020528620015461289b565b612a31565b80f35b50919034610394576020366003190112610394578035906107ef61253b565b62093a8082116108335750907f9c3f1b54b1487e018f1d0593ff5cf7fb625b2df6332c974a6cc56bb35887984191600d549080600d5582519182526020820152a180f35b606490602084519162461bcd60e51b8352820152601c60248201527f43656e7472616c5661756c743a2044656c617920746f6f206c6f6e67000000006044820152fd5b5082346104da57806003193601126104da5760209181906001600160a01b0361089d6123c5565b168152600f84528181206024358252845220549051908152f35b5082346104da57816003193601126104da576020906003549051908152f35b5082346104da57806003193601126104da576108f06123c5565b906024908135801580158203610b125761090861253b565b6001600160a01b03858116929091908315610ac35780610aad575b156109945750508452600a6020528320805460ff19166001179055600b5493600160401b8510156109835750506109648360016107cd949501600b55612443565b90919082549060031b9160018060a01b03809116831b921b1916179055565b634e487b7160e01b84526041905282fd5b8091955096929193959690610a98575b6109b1575b505050505080f35b828652600a6020528520805460ff19169055845b600b805480831015610a8c5785856109dc85612443565b929054600393841b1c16146109fc575050506109f790613b86565b6109c5565b9095919693945060001995868101908111610a7a579161096491610a23610a2f9594612443565b9054911b1c1691612443565b8354918215610a695750500190610a5d610a4883612443565b81549060018060a01b039060031b1b19169055565b555b81808080806109a9565b634e487b7160e01b86526031905284fd5b634e487b7160e01b8952601186528489fd5b50505050505050610a5f565b50828652600a60205260ff81872054166109a4565b50828752600a60205260ff848820541615610923565b845162461bcd60e51b81526020818b01528087018790527f43656e7472616c5661756c743a20496e76616c6964206d61726b6574206164646044820152637265737360e01b6064820152608490fd5b8580fd5b5082346104da5760203660031901126104da5760209160ff9082906001600160a01b03610b416123c5565b1681526007855220541690519015158152f35b5082346104da57806003193601126104da5780606092610b726123c5565b610b7a6123e0565b9060018060a01b038091168352600c60205283832091168252602052209081549160ff60026001830154920154169082519384526020840152151590820152f35b5082346104da57806003193601126104da578091610bd76123c5565b610bdf6123e0565b6001600160a01b039182168352600960209081528484209190921683528152919020805460018201546002909201549351908152918201526040810191909152606090f35b5082346104da57816003193601126104da5760209051670de0b6b3a76400008152f35b5082346104da57816003193601126104da57602090600d549051908152f35b5082346104da57816003193601126104da5751908152602090f35b509190346103945760209081600319360112610ee057610c9f6123c5565b92610ca861253b565b6005549160018060a01b039384861695861560ff8060a01b821560a01b16896affffffffffffffffffffff60a81b891617178060055560a01c1680610ecb575b610d1a575b5050505050167fd6bc12636f832838f3e7e0b63b54932769adacf56d23b4a75b43e397abaa4e178380a380f35b610e7e5791610dbf879492610d647f9f1ffd7915fd0d97979cca0ac07b1048a70d2e76e98d1fdb62e5ad5759f7737b95878c5260078352858c20600160ff198254161790556131f2565b6003845191610d72836129d7565b8b6000198085528285019081528780860192612ee08452600e6060880195600187528d835252209451855551600185015551600284015551151591019060ff801983541691151516179055565b81516306fdde0360e01b815288818381885afa899181610e62575b50610dfa5750505180610dec81613b95565b0390a25b3880808080610ced565b88835180936395d89b4160e01b825281885afa899281610e3e575b50610e2f5750505180610e2781613b95565b0390a2610df0565b9151918291610e2791836132d9565b610e5b9193503d808c833e610e538183612a0f565b810190613277565b9138610e15565b610e779192503d808c833e610e538183612a0f565b9038610dda565b50608492519162461bcd60e51b8352820152602360248201527f43656e7472616c5661756c743a20496e76616c696420746f6b656e206164647260448201526265737360e81b6064820152fd5b508789526007835260ff858a20541615610ce8565b8380fd5b5082346104da57816003193601126104da576020905162093a808152f35b5091903461039457602036600319011261039457359160085483101561066f5750610f2e6020926123f6565b905491519160018060a01b039160031b1c168152f35b5082346104da57816003193601126104da57602090517f7edcee67725a77bfa311b39349d7e96df9b23fbdbdcb328dfc17d77926920c138152f35b5082346104da5760203660031901126104da5760209160ff9082906001600160a01b03610faa6123c5565b168152600a855220541690519015158152f35b509190346103945781600319360112610394578160209360ff92610fdf6123e0565b903582528186528282206001600160a01b039091168252855220549151911615158152f35b5091346103945760803660031901126103945761101f6123c5565b9160643561102b61253b565b6001600160a01b0384169384156111f857848652600760205260ff84872054166111a757816110a3611100926110886127107f9f1ffd7915fd0d97979cca0ac07b1048a70d2e76e98d1fdb62e5ad5759f7737b9897961015613215565b8789526007602052858920805460ff191660011790556131f2565b60038451916110b1836129d7565b602435835260208301906044358252868401908152606084019160018352898b52600e602052878b209451855551600185015551600284015551151591019060ff801983541691151516179055565b81516306fdde0360e01b815285818381885afa86918161118b575b50611133575050518061112d816132fe565b0390a280f35b85835180936395d89b4160e01b825281885afa86928161116f575b50611160575050518061112d816132fe565b915191829161112d91836132d9565b6111849193503d8089833e610e538183612a0f565b913861114e565b6111a09192503d8089833e610e538183612a0f565b903861111b565b835162461bcd60e51b8152602081850152602560248201527f43656e7472616c5661756c743a20417373657420616c726561647920737570706044820152641bdc9d195960da1b6064820152608490fd5b835162461bcd60e51b8152602081850152602360248201527f43656e7472616c5661756c743a20496e76616c6964206173736574206164647260448201526265737360e81b6064820152608490fd5b5090346104da5760203660031901126104da576112626123c5565b61126a612d87565b611272612d43565b81548061133a575b50338352600c60205283832060018060a01b03821684526020528383209160028301908154906112ad60ff831615613057565b6112cb60018654966112c08815156130b3565b0154600d5490612aa5565b42106112e8575060ff191660011790559192506104409133613773565b608490602088519162461bcd60e51b8352820152602660248201527f43656e7472616c5661756c743a205769746864726177616c2064656c6179206e6044820152651bdd081b595d60d21b6064820152fd5b61046e61134a9160035490612aa5565b3861127a565b83823461066f578060031936011261066f578151918291600b54808552602080950194600b83527f0175b7a638427703f0dbe7bb9bbf987a2551717b34e79f33b5b1008d1fa01db992905b8282106113b35761064b8686610641828b0383612a0f565b83546001600160a01b03168752958601956001938401939091019061139b565b5082346104da57602091816113e73661247a565b6001600160a01b03928316855260098752838520919092168452855291205491519110158152f35b509190346103945760203660031901126103945780359061142e612d43565b548061149b575b50611441811515612ca1565b338352600960205281832061146e8260018060a01b03948560055416938488526020528620541015612ff6565b6114798282336134ae565b600d541561149057506107cd916005541633613662565b6107cd925033613773565b61046e6114ab9160035490612aa5565b38611435565b5082346104da5760203660031901126104da579081906001600160a01b03806114d86123c5565b168252600960205282822090600554168252602052209061064b8151916114fe836129a5565b8084549384815260026001870154968760208401520154928391015251938493846040919493926060820195825260208201520152565b50913461039457826003193601126103945760055460a081901c60ff16936001600160a01b039091169261064b929185156116645782516306fdde0360e01b815261160e9290828183818a5afa839181611648575b506116425750835161159b816129f3565b60078152662ab735b737bbb760c91b6020820152915b80855180936395d89b4160e01b8252818a5afa90918282611625575b505061161c5750608083516115e1816129f3565b6003815262554e4b60e81b6020820152935b805197889788521515602088015286015260808501906124d2565b9083820360608501526124d2565b608090936115f3565b61163a9293503d8091833e610e538183612a0f565b9038806115cd565b916115b1565b61165d9192503d8086833e610e538183612a0f565b903861158a565b505061160e8151611674816129f3565b6008815267457468657265756d60c01b602082015260808351611696816129f3565b600381526208aa8960eb1b6020820152936115f3565b5082346104da57806003193601126104da57806060926116ca6123c5565b6116d26123e0565b90828480516116e0816129a5565b828152826020820152015260018060a01b03809116835260096020528383209116825260205220908051611713816129a5565b825492838252826002600183015492602085019384520154920191825282519384525160208401525190820152f35b5082346104da57816003193601126104da5760209060ff6002541690519015158152f35b5082346104da5760a03660031901126104da576117816123c5565b90602435604435906064359360843594851515809603611880577f4c4cfed3959e3227b8c53dc7e4bd33ab42124041d3ae2e9193d0eea37ba3747b9461185d61112d936117cc61253b565b6001600160a01b0316808a526007602052828a205490989060ff168015611878575b6117f790612c4b565b611805612710851015613215565b6003835191611813836129d7565b8783528a8c8660208601918c8352818701938a8552606088019586528152600e602052209451855551600185015551600284015551151591019060ff801983541691151516179055565b51938493846040919493926060820195825260208201520152565b5088156117ee565b8680fd5b50919060209182600319360112610ee0578135916118a0612d87565b6118a8612d43565b8054806119e1575b506118bc831515612ca1565b6005549060ff8260a01c166000146119bf57346119605750600080516020613bdd83398151915291906118fd908490309033906001600160a01b0316612ddd565b338552600984528085206005546001600160a01b039081168752908552818620805461192a908690612aa5565b90558060055416865260068552818620611945858254612aa5565b90556005541693815193845242908401523392a36001805580f35b825162461bcd60e51b8152908101859052603360248201527f43656e7472616c5661756c743a20455448206e6f7420657870656374656420666044820152721bdc88115490cc8c0818dbdb1b185d195c985b606a1b6064820152608490fd5b5050600080516020613bdd833981519152906119dc833414612ced565b6118fd565b61046e6119f19160035490612aa5565b386118b0565b50918060031936011261039457611a0c6123c5565b9060243591611a19612d87565b611a21612d43565b835480611b40575b506001600160a01b031680855260076020908152828620549194909160ff168015611b38575b611a5890612c4b565b611a63841515612ca1565b84611acf575090600080516020613bdd83398151915291611a85843414612ced565b338652600981528186208587528152818620611aa2858254612aa5565b905584865260068152818620611ab9858254612aa5565b9055815193845242908401523392a36001805580f35b34611af7575090600080516020613bdd83398151915291611af284303388612ddd565b611a85565b915162461bcd60e51b815291820152601e60248201527f43656e7472616c5661756c743a20455448206e6f7420657870656374656400006044820152606490fd5b508415611a4f565b61046e611b509160035490612aa5565b38611a29565b5082346104da57816003193601126104da57602090516201518042048152f35b5082346104da57816003193601126104da57602090517f395f08be531c0d7403cba7c5ffd2b57329184452bcebcd6a48299ebbbf39db6f8152f35b5082346104da5760209081600319360112610394577f75f1e929bc3763cbb44e9f41114fbc63fb4dc8b10ecb29e801d0970fddb30779611bef6123c5565b92338552600c81528285209360018060a01b0316938486528152828520611c1d60ff60028301541615613057565b5492611c2a8415156130b3565b338652600c825280862085875282528560028282208281558260018201550155519283523392a380f35b5082346104da577f2762f0b94df9521b6a3cf7618329e161ac349a6e68e922b89bb8fdab87ce5b18611c853661247a565b929093338652600a602052611c9f60ff828820541661310b565b611ca7612d87565b611cb2841515612ca1565b60018060a01b0380931692838752600960205281872095169485875260205280862060018101611cef868254611cea82821015613170565b613163565b9055611cfc858254612aa5565b905580519384528560208501523393a46001805580f35b5090346104da57826003193601126104da57611d2d6123e0565b90336001600160a01b03831603611d4957906107cd9135612a31565b608490602085519162461bcd60e51b8352820152602f60248201527f416363657373436f6e74726f6c3a2063616e206f6e6c792072656e6f756e636560448201526e103937b632b9903337b91039b2b63360891b6064820152fd5b509190346103945781600319360112610394573590611dc16123e0565b9082845283602052611dd86001828620015461289b565b82845260208481528185206001600160a01b039093168086529290528084205460ff1615611e04578380f35b828452836020528084208285526020528320600160ff1982541617905533917f2f8788117e7eff1d82e926ec794901d17c78024a50270940304540a733656f0d8480a43880808380f35b5082346104da57816003193601126104da5760209060ff60055460a01c1690519015158152f35b5082346104da57816003193601126104da57602090611e926131d1565b90519015158152f35b5082346104da57816003193601126104da5760055490516001600160a01b039091168152602090f35b5082346104da577f2762f0b94df9521b6a3cf7618329e161ac349a6e68e922b89bb8fdab87ce5b18611ef53661247a565b929093338652600a602052611f0f60ff828820541661310b565b611f17612d87565b611f22841515612ca1565b60018060a01b038093169283875260096020528187209516948587526020526001818720611f58868254611cea82821015612ff6565b815501611f66858254612aa5565b90558051938452600160208501523393a46001805580f35b5091903461039457602036600319011261039457816020936001923581528085522001549051908152f35b50919034610394576020366003190112610394573591600b5483101561066f5750610f2e602092612443565b5082346104da57806003193601126104da5780608092611ff36123c5565b611ffb6123e0565b6001600160a01b039182168352600c60209081528484209290911683525220815191612026836129a5565b8082549384815260ff600260018601549586602085015201541615159283910152612053600d5484612aa5565b92815194855260208501528301526060820152f35b5082346104da57816003193601126104da57602090517fbf233dd2aafeb4d50879c4aa5c81e96d92f6e6945c906a58f9f2d1c1631b4b268152f35b5091346103945760209081600319360112610ee0576120c06123c5565b906120c961253b565b6001600160a01b0391821680865260078452818620549093906120ee9060ff16612c4b565b838652600681528186205461221757600e908487526007815282872060ff1981541690555284208481556001938585830155856002830155856003809301558486905b61215f575b86857f37803e2125c48ee96c38ddf04e826daf335b0e1603579040fd275aba6d06b6fc8280a280f35b6008805480831015612210578686612176856123f6565b905490881b1c161461219357505061218d90613b86565b85612131565b9491929390959650600019948581019081116121fd5791610964916121bb6121c795946123f6565b9054911b1c16916123f6565b82549081156121ea575001906121df610a48836123f6565b558038808080612136565b634e487b7160e01b865260319052602485fd5b634e487b7160e01b895260118552602489fd5b5050612136565b808591606493519262461bcd60e51b845283015260248201527f43656e7472616c5661756c743a204173736574206861732072657365727665736044820152fd5b5082346104da5760803660031901126104da576122736123c5565b9061227c6123e0565b6001600160a01b0392604435848116929190839003610b12576064359433875280602093600a85526122b360ff888b20541661310b565b6122bb612d87565b1691169681881461232057508495966122d8612317961515612ca1565b87526009825283872083885282526001848820016122fe878254611cea82821015613170565b9055865260098152828620918652528320918254612aa5565b90556001805580f35b845162461bcd60e51b8152908101839052602560248201527f43656e7472616c5661756c743a2043616e6e6f74207472616e7366657220746f6044820152641039b2b63360d91b6064820152608490fd5b90508234610394576020366003190112610394573563ffffffff60e01b81168091036103945760209250637965db0b60e01b81149081156123b4575b5015158152f35b6301ffc9a760e01b149050836123ad565b600435906001600160a01b03821682036123db57565b600080fd5b602435906001600160a01b03821682036123db57565b60085481101561242d5760086000527ff3f7a9fe364faab93b216da50a3214154f22a0a2b415b23a84c8169e8b636ee30190600090565b634e487b7160e01b600052603260045260246000fd5b600b5481101561242d57600b6000527f0175b7a638427703f0dbe7bb9bbf987a2551717b34e79f33b5b1008d1fa01db90190600090565b60609060031901126123db576001600160a01b039060043582811681036123db579160243590811681036123db579060443590565b60005b8381106124c25750506000910152565b81810151838201526020016124b2565b906020916124eb815180928185528580860191016124af565b601f01601f1916010190565b6020908160408183019282815285518094520193019160005b82811061251e575050505090565b83516001600160a01b031685529381019392810192600101612510565b3360009081527fc72d1fd6a9d5bcedebd4aa54df4f803fa3adb4c0519b628bbaec183deaef848a602090815260408083205490927f7edcee67725a77bfa311b39349d7e96df9b23fbdbdcb328dfc17d77926920c139160ff161561259f5750505050565b6125a833612af5565b918451906125b5826129d7565b6042825284820192606036853782511561274257603084538251906001918210156127425790607860218501536041915b8183116126d45750505061269257604861268e93869361267293612663985198899376020b1b1b2b9b9a1b7b73a3937b61d1030b1b1b7bab73a1604d1b8a86015261263a815180928c6037890191016124af565b8401917001034b99036b4b9b9b4b733903937b6329607d1b6037840152518093868401906124af565b01036028810187520185612a0f565b5192839262461bcd60e51b8452600484015260248301906124d2565b0390fd5b60648486519062461bcd60e51b825280600483015260248201527f537472696e67733a20686578206c656e67746820696e73756666696369656e746044820152fd5b909192600f8116601081101561272e576f181899199a1a9b1b9c1cb0b131b232b360811b901a6127048587612ae4565b5360041c92801561271a576000190191906125e6565b634e487b7160e01b82526011600452602482fd5b634e487b7160e01b83526032600452602483fd5b634e487b7160e01b81526032600452602490fd5b3360009081527f3c1b1854ab1360abbb06c8d4c6b2672d4b8cedc5eff522ab19e51d5cb8fdbd46602090815260408083205490927fbf233dd2aafeb4d50879c4aa5c81e96d92f6e6945c906a58f9f2d1c1631b4b269160ff16156127ba5750505050565b6127c333612af5565b918451906127d0826129d7565b6042825284820192606036853782511561274257603084538251906001918210156127425790607860218501536041915b8183116128555750505061269257604861268e93869361267293612663985198899376020b1b1b2b9b9a1b7b73a3937b61d1030b1b1b7bab73a1604d1b8a86015261263a815180928c6037890191016124af565b909192600f8116601081101561272e576f181899199a1a9b1b9c1cb0b131b232b360811b901a6128858587612ae4565b5360041c92801561271a57600019019190612801565b600090808252602090828252604092838120338252835260ff8482205416156128c45750505050565b6128cd33612af5565b918451906128da826129d7565b6042825284820192606036853782511561274257603084538251906001918210156127425790607860218501536041915b81831161295f5750505061269257604861268e93869361267293612663985198899376020b1b1b2b9b9a1b7b73a3937b61d1030b1b1b7bab73a1604d1b8a86015261263a815180928c6037890191016124af565b909192600f8116601081101561272e576f181899199a1a9b1b9c1cb0b131b232b360811b901a61298f8587612ae4565b5360041c92801561271a5760001901919061290b565b6060810190811067ffffffffffffffff8211176129c157604052565b634e487b7160e01b600052604160045260246000fd5b6080810190811067ffffffffffffffff8211176129c157604052565b6040810190811067ffffffffffffffff8211176129c157604052565b90601f8019910116810190811067ffffffffffffffff8211176129c157604052565b9060009180835282602052604083209160018060a01b03169182845260205260ff604084205416612a6157505050565b80835282602052604083208284526020526040832060ff1981541690557ff6391f5c32d9c69d2a47ea670b442974b53935d1edc7fd64eb21e047a839171b339380a4565b91908201809211612ab257565b634e487b7160e01b600052601160045260246000fd5b67ffffffffffffffff81116129c157601f01601f191660200190565b90815181101561242d570160200190565b60405190612b02826129a5565b602a825260208201604036823782511561242d5760309053815160019081101561242d57607860218401536029905b808211612b85575050612b415790565b606460405162461bcd60e51b815260206004820152602060248201527f537472696e67733a20686578206c656e67746820696e73756666696369656e746044820152fd5b9091600f81166010811015612bde576f181899199a1a9b1b9c1cb0b131b232b360811b901a612bb48486612ae4565b5360041c918015612bc9576000190190612b31565b60246000634e487b7160e01b81526011600452fd5b60246000634e487b7160e01b81526032600452fd5b15612bfa57565b60405162461bcd60e51b8152602060048201526024808201527f43656e7472616c5661756c743a20456d657267656e63792070617573652061636044820152637469766560e01b6064820152608490fd5b15612c5257565b60405162461bcd60e51b815260206004820152602160248201527f43656e7472616c5661756c743a204173736574206e6f7420737570706f7274656044820152601960fa1b6064820152608490fd5b15612ca857565b60405162461bcd60e51b815260206004820152601c60248201527f43656e7472616c5661756c743a20496e76616c696420616d6f756e74000000006044820152606490fd5b15612cf457565b60405162461bcd60e51b815260206004820152602160248201527f43656e7472616c5661756c743a2045544820616d6f756e74206d69736d6174636044820152600d60fb1b6064820152608490fd5b60ff60025416612d4f57565b60405162461bcd60e51b815260206004820152601060248201526f14185d5cd8589b194e881c185d5cd95960821b6044820152606490fd5b600260015414612d98576002600155565b60405162461bcd60e51b815260206004820152601f60248201527f5265656e7472616e637947756172643a207265656e7472616e742063616c6c006044820152606490fd5b6040516323b872dd60e01b60208201526001600160a01b03928316602482015292909116604483015260648083019390935291815260a081019181831067ffffffffffffffff8411176129c157612e3692604052612e38565b565b60018060a01b031690612e97604051612e50816129f3565b6020938482527f5361666545524332303a206c6f772d6c6576656c2063616c6c206661696c6564858301526000808587829751910182855af1612e91612f2d565b91612f5d565b805191821591848315612f09575b505050905015612eb25750565b6084906040519062461bcd60e51b82526004820152602a60248201527f5361666545524332303a204552433230206f7065726174696f6e20646964206e6044820152691bdd081cdd58d8d9595960b21b6064820152fd5b9193818094500103126104da5782015190811515820361066f575080388084612ea5565b3d15612f58573d90612f3e82612ac8565b91612f4c6040519384612a0f565b82523d6000602084013e565b606090565b91929015612fbf5750815115612f71575090565b3b15612f7a5790565b60405162461bcd60e51b815260206004820152601d60248201527f416464726573733a2063616c6c20746f206e6f6e2d636f6e74726163740000006044820152606490fd5b825190915015612fd25750805190602001fd5b60405162461bcd60e51b81526020600482015290819061268e9060248301906124d2565b15612ffd57565b60405162461bcd60e51b815260206004820152602c60248201527f43656e7472616c5661756c743a20496e73756666696369656e7420617661696c60448201526b61626c652062616c616e636560a01b6064820152608490fd5b1561305e57565b60405162461bcd60e51b815260206004820152602760248201527f43656e7472616c5661756c743a205265717565737420616c72656164792070726044820152661bd8d95cdcd95960ca1b6064820152608490fd5b156130ba57565b60405162461bcd60e51b815260206004820152602360248201527f43656e7472616c5661756c743a204e6f207769746864726177616c2072657175604482015262195cdd60ea1b6064820152608490fd5b1561311257565b60405162461bcd60e51b815260206004820152602360248201527f43656e7472616c5661756c743a204e6f7420617574686f72697a6564206d61726044820152621ad95d60ea1b6064820152608490fd5b91908203918211612ab257565b1561317757565b60405162461bcd60e51b815260206004820152602c60248201527f43656e7472616c5661756c743a20496e73756666696369656e7420616c6c6f6360448201526b617465642062616c616e636560a01b6064820152608490fd5b60045480156131ec576003546131e691612aa5565b42111590565b50600090565b60085490600160401b8210156129c157610964826001612e3694016008556123f6565b1561321c57565b60405162461bcd60e51b815260206004820152602d60248201527f43656e7472616c5661756c743a20496e76616c696420636f6c6c61746572616c60448201526c697a6174696f6e20726174696f60981b6064820152608490fd5b6020818303126123db5780519067ffffffffffffffff82116123db570181601f820112156123db5780516132aa81612ac8565b926132b86040519485612a0f565b818452602082840101116123db576132d691602080850191016124af565b90565b90916132f06132d6936040845260408401906124d2565b9160208184039101526124d2565b60c0906040815260076040820152662ab735b737bbb760c91b6060820152608060208201526003608082015262554e4b60e81b60a08201520190565b1561334157565b60405162461bcd60e51b815260206004820152602660248201527f43656e7472616c5661756c743a20496e73756666696369656e74204554482062604482015265616c616e636560d01b6064820152608490fd5b60405163a9059cbb60e01b60208201526001600160a01b039092166024830152604480830193909352918152612e36916133ce826129d7565b612e38565b814710613469576000918291829182916001600160a01b03165af16133f6612f2d565b50156133fe57565b60405162461bcd60e51b815260206004820152603a60248201527f416464726573733a20756e61626c6520746f2073656e642076616c75652c207260448201527f6563697069656e74206d617920686176652072657665727465640000000000006064820152608490fd5b60405162461bcd60e51b815260206004820152601d60248201527f416464726573733a20696e73756666696369656e742062616c616e63650000006044820152606490fd5b9060018060a01b0380600092168252602093600e85526040938484209385516134d6816129d7565b8554815260ff60036001880154978a840198895260028101548a850152015416158015606083015261360a5751806135a4575b50845161351a575b50505050505050565b61353b938692168152600f8752818120620151804204825287522054612aa5565b90511061354c578080808080613511565b60849250519062461bcd60e51b82526004820152602c60248201527f43656e7472616c5661756c743a2045786365656473206461696c79207769746860448201526b191c985dd85b081b1a5b5a5d60a21b6064820152fd5b83116135b05738613509565b855162461bcd60e51b815260048101889052602d60248201527f43656e7472616c5661756c743a20457863656564732073696e676c652077697460448201526c1a191c985dd85b081b1a5b5a5d609a1b6064820152608490fd5b865162461bcd60e51b815260048101899052602b60248201527f43656e7472616c5661756c743a2041737365742064697361626c656420666f7260448201526a081dda5d1a191c985dd85b60aa1b6064820152608490fd5b7f196e6601eb68141737e4636af773e3013089d698090efd395ba859863e1f2f9c9092919260018060a01b03809116926000918483526002602091600c8352604094859182822099169889825284528181205461374f575b61370c82516136c8816129a5565b86815284868201428152858301908582528c8652600c89528d87872090875289528686209351845551600184015551151591019060ff801983541691151516179055565b87815260098452818120898252845220613727848254613163565b815501613735838254612aa5565b9055613743600d5442612aa5565b908351928352820152a3565b878152600c84528181208982528452808383822082815582600182015501556136ba565b90916001600160a01b038083169291908315613b36578115613ae1576000928484526020936009855260409283822097169687825285528281208054906002810190815492876137c38583612aa5565b10613a8c5784888510613a635750505090506137e0858254613163565b90555b86815260068552838382205410613a0d5786815260068552828120613809858254613163565b9055620151804204868252600f86528382208183528652838220548519106139b957868252600f86528382209082528552828120613848858254612aa5565b9055866138c1575050907f121eb3d5e027dba2c931e672efb7d244364546af71aef554f4c26e802c143c9b92916138818247101561333a565b61388b82866133d3565b85857fc2b4a290c20fb28939d29f102514fbffd2b73c059ffba8b78250c94161d5fcc68380518681524288820152a351908152a3565b82516370a0823160e01b815230600482015285816024818b5afa9182156139ae579081869361397b575b5050106139265790613921837f121eb3d5e027dba2c931e672efb7d244364546af71aef554f4c26e802c143c9b95949388613395565b61388b565b815162461bcd60e51b815260048101859052602860248201527f43656e7472616c5661756c743a20496e73756666696369656e7420746f6b656e6044820152672062616c616e636560c01b6064820152608490fd5b915091508582813d83116139a7575b6139948183612a0f565b8101031261066f575083905138806138eb565b503d61398a565b8451903d90823e3d90fd5b835162461bcd60e51b815260048101879052602760248201527f43656e7472616c5661756c743a204461696c79207769746864726177616c206f604482015266766572666c6f7760c81b6064820152608490fd5b825162461bcd60e51b815260048101869052602960248201527f43656e7472616c5661756c743a20496e73756666696369656e74207661756c7460448201526820726573657276657360b81b6064820152608490fd5b613a72613a859493958a613163565b92613a7f84841015612ff6565b55613163565b90556137e3565b865162461bcd60e51b8152600481018a9052602860248201527f43656e7472616c5661756c743a20496e73756666696369656e7420746f74616c6044820152672062616c616e636560c01b6064820152608490fd5b60405162461bcd60e51b815260206004820152602760248201527f43656e7472616c5661756c743a20496e76616c6964207769746864726177616c60448201526608185b5bdd5b9d60ca1b6064820152608490fd5b60405162461bcd60e51b815260206004820152602260248201527f43656e7472616c5661756c743a20496e76616c69642075736572206164647265604482015261737360f01b6064820152608490fd5b6000198114612ab25760010190565b60c090604081526012604082015271141c9a5b585c9e4810dbdb1b185d195c985b60721b606082015260806020820152600360808201526210d3d360ea1b60a0820152019056fedcbc1c05240f31ff3ad067ef1ee35ce4997762752e3a095284754544f4c709d7a26469706673582212204757da7d694f73f56fd2a91fbb0bd320b11388d82203511eece47e014a4cb68764736f6c634300081300332f8788117e7eff1d82e926ec794901d17c78024a50270940304540a733656f0d",
  "linkReferences": {},
  "deployedLinkReferences": {}
}