{
  "_format": "hh-sol-artifact-1",
  "contractName": "FuturesMarketFactory",
  "sourceName": "src/FuturesMarketFactory.sol",
  "abi": [
    {
      "inputs": [
        {
          "internalType": "address",
          "name": "_vault",
          "type": "address"
        },
        {
          "internalType": "address",
          "name": "_admin",
          "type": "address"
        },
        {
          "internalType": "address",
          "name": "_feeRecipient",
          "type": "address"
        }
      ],
      "stateMutability": "nonpayable",
      "type": "constructor"
    },
    {
      "inputs": [],
      "name": "ECDSAInvalidSignature",
      "type": "error"
    },
    {
      "inputs": [
        {
          "internalType": "uint256",
          "name": "length",
          "type": "uint256"
        }
      ],
      "name": "ECDSAInvalidSignatureLength",
      "type": "error"
    },
    {
      "inputs": [
        {
          "internalType": "bytes32",
          "name": "s",
          "type": "bytes32"
        }
      ],
      "name": "ECDSAInvalidSignatureS",
      "type": "error"
    },
    {
      "inputs": [],
      "name": "InvalidInput",
      "type": "error"
    },
    {
      "inputs": [],
      "name": "InvalidLeverage",
      "type": "error"
    },
    {
      "inputs": [],
      "name": "InvalidMarginRequirement",
      "type": "error"
    },
    {
      "inputs": [],
      "name": "InvalidMarketSymbol",
      "type": "error"
    },
    {
      "inputs": [],
      "name": "InvalidMetricUrl",
      "type": "error"
    },
    {
      "inputs": [],
      "name": "InvalidOraclePrice",
      "type": "error"
    },
    {
      "inputs": [],
      "name": "InvalidSettlementDate",
      "type": "error"
    },
    {
      "inputs": [],
      "name": "InvalidShortString",
      "type": "error"
    },
    {
      "inputs": [],
      "name": "MarginTooLowForLeverage",
      "type": "error"
    },
    {
      "inputs": [],
      "name": "MarketCreationRestricted",
      "type": "error"
    },
    {
      "inputs": [],
      "name": "MarketIdCollision",
      "type": "error"
    },
    {
      "inputs": [],
      "name": "MarketNotFound",
      "type": "error"
    },
    {
      "inputs": [],
      "name": "NotAuthorized",
      "type": "error"
    },
    {
      "inputs": [],
      "name": "OnlyAdmin",
      "type": "error"
    },
    {
      "inputs": [],
      "name": "OracleNotConfigured",
      "type": "error"
    },
    {
      "inputs": [],
      "name": "ReasonRequired",
      "type": "error"
    },
    {
      "inputs": [],
      "name": "RewardMustBePositive",
      "type": "error"
    },
    {
      "inputs": [
        {
          "internalType": "string",
          "name": "str",
          "type": "string"
        }
      ],
      "name": "StringTooLong",
      "type": "error"
    },
    {
      "inputs": [],
      "name": "TradingFeeTooHigh",
      "type": "error"
    },
    {
      "inputs": [],
      "name": "UseCreateMarketDiamond",
      "type": "error"
    },
    {
      "inputs": [],
      "name": "ZeroAddress",
      "type": "error"
    },
    {
      "anonymous": false,
      "inputs": [],
      "name": "EIP712DomainChanged",
      "type": "event"
    },
    {
      "anonymous": false,
      "inputs": [
        {
          "indexed": true,
          "internalType": "address",
          "name": "orderBook",
          "type": "address"
        },
        {
          "indexed": true,
          "internalType": "bytes32",
          "name": "marketId",
          "type": "bytes32"
        },
        {
          "indexed": false,
          "internalType": "string",
          "name": "marketSymbol",
          "type": "string"
        },
        {
          "indexed": true,
          "internalType": "address",
          "name": "creator",
          "type": "address"
        },
        {
          "indexed": false,
          "internalType": "uint256",
          "name": "creationFee",
          "type": "uint256"
        },
        {
          "indexed": false,
          "internalType": "string",
          "name": "metricUrl",
          "type": "string"
        },
        {
          "indexed": false,
          "internalType": "uint256",
          "name": "settlementDate",
          "type": "uint256"
        },
        {
          "indexed": false,
          "internalType": "uint256",
          "name": "startPrice",
          "type": "uint256"
        }
      ],
      "name": "FuturesMarketCreated",
      "type": "event"
    },
    {
      "inputs": [
        {
          "internalType": "bytes32",
          "name": "marketId",
          "type": "bytes32"
        },
        {
          "internalType": "address",
          "name": "oracle",
          "type": "address"
        }
      ],
      "name": "assignCustomOracle",
      "outputs": [],
      "stateMutability": "nonpayable",
      "type": "function"
    },
    {
      "inputs": [
        {
          "internalType": "bytes32[]",
          "name": "marketIds",
          "type": "bytes32[]"
        },
        {
          "internalType": "uint256[]",
          "name": "prices",
          "type": "uint256[]"
        }
      ],
      "name": "batchUpdatePrices",
      "outputs": [],
      "stateMutability": "nonpayable",
      "type": "function"
    },
    {
      "inputs": [
        {
          "internalType": "address",
          "name": "_umaOracle",
          "type": "address"
        },
        {
          "internalType": "address",
          "name": "_defaultOracle",
          "type": "address"
        },
        {
          "internalType": "address",
          "name": "_oracleAdmin",
          "type": "address"
        }
      ],
      "name": "configureOracles",
      "outputs": [],
      "stateMutability": "nonpayable",
      "type": "function"
    },
    {
      "inputs": [
        {
          "internalType": "string",
          "name": "",
          "type": "string"
        },
        {
          "internalType": "string",
          "name": "",
          "type": "string"
        },
        {
          "internalType": "uint256",
          "name": "",
          "type": "uint256"
        },
        {
          "internalType": "uint256",
          "name": "",
          "type": "uint256"
        },
        {
          "internalType": "string",
          "name": "",
          "type": "string"
        },
        {
          "internalType": "string[]",
          "name": "",
          "type": "string[]"
        },
        {
          "internalType": "uint256",
          "name": "",
          "type": "uint256"
        },
        {
          "internalType": "uint256",
          "name": "",
          "type": "uint256"
        }
      ],
      "name": "createFuturesMarket",
      "outputs": [
        {
          "internalType": "address",
          "name": "",
          "type": "address"
        },
        {
          "internalType": "bytes32",
          "name": "",
          "type": "bytes32"
        }
      ],
      "stateMutability": "pure",
      "type": "function"
    },
    {
      "inputs": [
        {
          "internalType": "string",
          "name": "marketSymbol",
          "type": "string"
        },
        {
          "internalType": "string",
          "name": "metricUrl",
          "type": "string"
        },
        {
          "internalType": "uint256",
          "name": "settlementDate",
          "type": "uint256"
        },
        {
          "internalType": "uint256",
          "name": "startPrice",
          "type": "uint256"
        },
        {
          "internalType": "string",
          "name": "dataSource",
          "type": "string"
        },
        {
          "internalType": "string[]",
          "name": "tags",
          "type": "string[]"
        },
        {
          "internalType": "address",
          "name": "diamondOwner",
          "type": "address"
        },
        {
          "components": [
            {
              "internalType": "address",
              "name": "facetAddress",
              "type": "address"
            },
            {
              "internalType": "enum IDiamondCut.FacetCutAction",
              "name": "action",
              "type": "uint8"
            },
            {
              "internalType": "bytes4[]",
              "name": "functionSelectors",
              "type": "bytes4[]"
            }
          ],
          "internalType": "struct IDiamondCut.FacetCut[]",
          "name": "cut",
          "type": "tuple[]"
        },
        {
          "internalType": "address",
          "name": "initFacet",
          "type": "address"
        },
        {
          "internalType": "bytes",
          "name": "",
          "type": "bytes"
        }
      ],
      "name": "createFuturesMarketDiamond",
      "outputs": [
        {
          "internalType": "address",
          "name": "orderBook",
          "type": "address"
        },
        {
          "internalType": "bytes32",
          "name": "marketId",
          "type": "bytes32"
        }
      ],
      "stateMutability": "nonpayable",
      "type": "function"
    },
    {
      "inputs": [
        {
          "internalType": "address",
          "name": "orderBook",
          "type": "address"
        }
      ],
      "name": "deactivateFuturesMarket",
      "outputs": [],
      "stateMutability": "nonpayable",
      "type": "function"
    },
    {
      "inputs": [
        {
          "internalType": "bytes32",
          "name": "marketId",
          "type": "bytes32"
        }
      ],
      "name": "disableMarketLeverage",
      "outputs": [],
      "stateMutability": "nonpayable",
      "type": "function"
    },
    {
      "inputs": [],
      "name": "eip712Domain",
      "outputs": [
        {
          "internalType": "bytes1",
          "name": "fields",
          "type": "bytes1"
        },
        {
          "internalType": "string",
          "name": "name",
          "type": "string"
        },
        {
          "internalType": "string",
          "name": "version",
          "type": "string"
        },
        {
          "internalType": "uint256",
          "name": "chainId",
          "type": "uint256"
        },
        {
          "internalType": "address",
          "name": "verifyingContract",
          "type": "address"
        },
        {
          "internalType": "bytes32",
          "name": "salt",
          "type": "bytes32"
        },
        {
          "internalType": "uint256[]",
          "name": "extensions",
          "type": "uint256[]"
        }
      ],
      "stateMutability": "view",
      "type": "function"
    },
    {
      "inputs": [
        {
          "internalType": "bytes32",
          "name": "marketId",
          "type": "bytes32"
        },
        {
          "internalType": "uint256",
          "name": "emergencyPrice",
          "type": "uint256"
        },
        {
          "internalType": "string",
          "name": "reason",
          "type": "string"
        }
      ],
      "name": "emergencyPriceUpdate",
      "outputs": [],
      "stateMutability": "nonpayable",
      "type": "function"
    },
    {
      "inputs": [
        {
          "internalType": "bytes32",
          "name": "marketId",
          "type": "bytes32"
        },
        {
          "internalType": "uint256",
          "name": "maxLeverage",
          "type": "uint256"
        },
        {
          "internalType": "uint256",
          "name": "marginRequirementBps",
          "type": "uint256"
        }
      ],
      "name": "enableMarketLeverage",
      "outputs": [],
      "stateMutability": "nonpayable",
      "type": "function"
    },
    {
      "inputs": [],
      "name": "getAllMarkets",
      "outputs": [
        {
          "internalType": "bytes32[]",
          "name": "",
          "type": "bytes32[]"
        }
      ],
      "stateMutability": "view",
      "type": "function"
    },
    {
      "inputs": [
        {
          "internalType": "bytes32",
          "name": "marketId",
          "type": "bytes32"
        }
      ],
      "name": "getCurrentOraclePrice",
      "outputs": [
        {
          "internalType": "uint256",
          "name": "price",
          "type": "uint256"
        },
        {
          "internalType": "uint256",
          "name": "timestamp",
          "type": "uint256"
        }
      ],
      "stateMutability": "view",
      "type": "function"
    },
    {
      "inputs": [],
      "name": "getDefaultParameters",
      "outputs": [
        {
          "internalType": "uint256",
          "name": "marginRequirement",
          "type": "uint256"
        },
        {
          "internalType": "uint256",
          "name": "fee",
          "type": "uint256"
        }
      ],
      "stateMutability": "view",
      "type": "function"
    },
    {
      "inputs": [
        {
          "internalType": "bytes32",
          "name": "marketId",
          "type": "bytes32"
        }
      ],
      "name": "getMarketLeverageInfo",
      "outputs": [
        {
          "internalType": "bool",
          "name": "enabled",
          "type": "bool"
        },
        {
          "internalType": "uint256",
          "name": "maxLeverage",
          "type": "uint256"
        },
        {
          "internalType": "uint256",
          "name": "marginRequirement",
          "type": "uint256"
        },
        {
          "internalType": "address",
          "name": "controller",
          "type": "address"
        }
      ],
      "stateMutability": "view",
      "type": "function"
    },
    {
      "inputs": [
        {
          "internalType": "bytes32",
          "name": "marketId",
          "type": "bytes32"
        }
      ],
      "name": "getMarketOracleConfig",
      "outputs": [
        {
          "internalType": "address",
          "name": "customOracle",
          "type": "address"
        },
        {
          "internalType": "bytes32",
          "name": "umaRequestId",
          "type": "bytes32"
        },
        {
          "internalType": "bool",
          "name": "hasUmaRequest",
          "type": "bool"
        }
      ],
      "stateMutability": "view",
      "type": "function"
    },
    {
      "inputs": [
        {
          "internalType": "bytes32",
          "name": "marketId",
          "type": "bytes32"
        }
      ],
      "name": "getMarketSymbol",
      "outputs": [
        {
          "internalType": "string",
          "name": "",
          "type": "string"
        }
      ],
      "stateMutability": "view",
      "type": "function"
    },
    {
      "inputs": [],
      "name": "getMarketsReadyForSettlement",
      "outputs": [
        {
          "internalType": "bytes32[]",
          "name": "",
          "type": "bytes32[]"
        }
      ],
      "stateMutability": "view",
      "type": "function"
    },
    {
      "inputs": [
        {
          "internalType": "bytes32",
          "name": "marketId",
          "type": "bytes32"
        }
      ],
      "name": "getOrderBookForMarket",
      "outputs": [
        {
          "internalType": "address",
          "name": "",
          "type": "address"
        }
      ],
      "stateMutability": "view",
      "type": "function"
    },
    {
      "inputs": [
        {
          "internalType": "string",
          "name": "marketSymbol",
          "type": "string"
        },
        {
          "internalType": "string",
          "name": "metricUrl",
          "type": "string"
        },
        {
          "internalType": "uint256",
          "name": "settlementDate",
          "type": "uint256"
        },
        {
          "internalType": "uint256",
          "name": "startPrice",
          "type": "uint256"
        },
        {
          "internalType": "string",
          "name": "dataSource",
          "type": "string"
        },
        {
          "internalType": "string[]",
          "name": "tags",
          "type": "string[]"
        },
        {
          "internalType": "address",
          "name": "diamondOwner",
          "type": "address"
        },
        {
          "components": [
            {
              "internalType": "address",
              "name": "facetAddress",
              "type": "address"
            },
            {
              "internalType": "enum IDiamondCut.FacetCutAction",
              "name": "action",
              "type": "uint8"
            },
            {
              "internalType": "bytes4[]",
              "name": "functionSelectors",
              "type": "bytes4[]"
            }
          ],
          "internalType": "struct IDiamondCut.FacetCut[]",
          "name": "cut",
          "type": "tuple[]"
        },
        {
          "internalType": "address",
          "name": "initFacet",
          "type": "address"
        },
        {
          "internalType": "address",
          "name": "creator",
          "type": "address"
        },
        {
          "internalType": "uint256",
          "name": "nonce",
          "type": "uint256"
        },
        {
          "internalType": "uint256",
          "name": "deadline",
          "type": "uint256"
        },
        {
          "internalType": "bytes",
          "name": "signature",
          "type": "bytes"
        }
      ],
      "name": "metaCreateFuturesMarketDiamond",
      "outputs": [
        {
          "internalType": "address",
          "name": "orderBook",
          "type": "address"
        },
        {
          "internalType": "bytes32",
          "name": "marketId",
          "type": "bytes32"
        }
      ],
      "stateMutability": "nonpayable",
      "type": "function"
    },
    {
      "inputs": [
        {
          "internalType": "address",
          "name": "",
          "type": "address"
        }
      ],
      "name": "metaCreateNonce",
      "outputs": [
        {
          "internalType": "uint256",
          "name": "",
          "type": "uint256"
        }
      ],
      "stateMutability": "view",
      "type": "function"
    },
    {
      "inputs": [
        {
          "internalType": "bytes32",
          "name": "marketId",
          "type": "bytes32"
        }
      ],
      "name": "requestPriceUpdate",
      "outputs": [],
      "stateMutability": "nonpayable",
      "type": "function"
    },
    {
      "inputs": [
        {
          "internalType": "bytes32",
          "name": "marketId",
          "type": "bytes32"
        },
        {
          "internalType": "address",
          "name": "controller",
          "type": "address"
        }
      ],
      "name": "setMarketLeverageController",
      "outputs": [],
      "stateMutability": "nonpayable",
      "type": "function"
    },
    {
      "inputs": [
        {
          "internalType": "uint256",
          "name": "rewardAmount",
          "type": "uint256"
        }
      ],
      "name": "setOracleReward",
      "outputs": [],
      "stateMutability": "nonpayable",
      "type": "function"
    },
    {
      "inputs": [
        {
          "internalType": "bool",
          "name": "enabled",
          "type": "bool"
        }
      ],
      "name": "togglePublicMarketCreation",
      "outputs": [],
      "stateMutability": "nonpayable",
      "type": "function"
    },
    {
      "inputs": [
        {
          "internalType": "address",
          "name": "newAdmin",
          "type": "address"
        }
      ],
      "name": "updateAdmin",
      "outputs": [],
      "stateMutability": "nonpayable",
      "type": "function"
    },
    {
      "inputs": [
        {
          "internalType": "uint256",
          "name": "_defaultMarginRequirementBps",
          "type": "uint256"
        },
        {
          "internalType": "bool",
          "name": "_defaultLeverageEnabled",
          "type": "bool"
        }
      ],
      "name": "updateDefaultLeverageSettings",
      "outputs": [],
      "stateMutability": "nonpayable",
      "type": "function"
    },
    {
      "inputs": [
        {
          "internalType": "uint256",
          "name": "marginRequirementBps",
          "type": "uint256"
        },
        {
          "internalType": "uint256",
          "name": "tradingFee",
          "type": "uint256"
        }
      ],
      "name": "updateDefaultParameters",
      "outputs": [],
      "stateMutability": "nonpayable",
      "type": "function"
    },
    {
      "inputs": [
        {
          "internalType": "address",
          "name": "newFeeRecipient",
          "type": "address"
        }
      ],
      "name": "updateFeeRecipient",
      "outputs": [],
      "stateMutability": "nonpayable",
      "type": "function"
    },
    {
      "inputs": [
        {
          "internalType": "uint256",
          "name": "newFee",
          "type": "uint256"
        }
      ],
      "name": "updateMarketCreationFee",
      "outputs": [],
      "stateMutability": "nonpayable",
      "type": "function"
    },
    {
      "inputs": [
        {
          "internalType": "address",
          "name": "newOracleAdmin",
          "type": "address"
        }
      ],
      "name": "updateOracleAdmin",
      "outputs": [],
      "stateMutability": "nonpayable",
      "type": "function"
    }
  ],
  "bytecode": "0x61018034620002e857601f6200653538819003918201601f1916830192916001600160401b039182851184861017620002d2578160609285926040978852833981010312620002e857620000538262000309565b916200006f84620000676020840162000309565b920162000309565b938051916200007e83620002ed565b600e835260208301946d44657865747261466163746f727960901b8652825196620000a988620002ed565b6001885260208801603160f81b8152620000c3866200031e565b97610120988952620000d58a620004f1565b96610140978852519020988960e0525190209761010098808a524660a05285519060208201927f8b73c3c69bb8fe3d512ecc4cf759cc79239f7b179b0ffacaa9a75d522b39400f84528783015260608201524660808201523060a082015260a0815260c081019781891090891117620002d2578786525190206080523060c052612710600555600a600655600160ff198060075416600755629896806014556305f5e100601655601754161760175560018060a01b038092169586158015620002c7575b8015620002bc575b620002ad57506101609586528160018060a01b03199316836002541617600255169060035416176003555192615e9694856200069f863960805185613659015260a05185613725015260c05185613621015260e051856136a8015251846136ce01525183612169015251826121950152518181816102ac015281816105e901528181610682015281816106c6015281816106fe01528181610752015281816108ba0152818161090501528181610c050152818161134e015281816113dd015281816114360152818161146c015281816114ca01528181611644015281816116970152818161198d01528181611bec0152818161258b015281816126270152818161297801526138200152f35b63d92e233d60e01b8152600490fd5b5082821615620001a1565b508284161562000199565b634e487b7160e01b600052604160045260246000fd5b600080fd5b604081019081106001600160401b03821117620002d257604052565b51906001600160a01b0382168203620002e857565b80516020919082811015620003bd575090601f8251116200035c57808251920151908083106200034d57501790565b82600019910360031b1b161790565b90604051809263305a27a960e01b82528060048301528251908160248401526000935b828510620003a3575050604492506000838284010152601f80199101168101030190fd5b84810182015186860160440152938101938593506200037f565b6001600160401b038111620002d2576000928354926001938481811c91168015620004e6575b83821014620004d257601f81116200049c575b5081601f8411600114620004355750928293918392869462000429575b50501b916000199060031b1c191617905560ff90565b01519250388062000413565b919083601f1981168780528488209488905b8883831062000481575050501062000467575b505050811b01905560ff90565b015160001960f88460031b161c191690553880806200045a565b85870151885590960195948501948793509081019062000447565b85805284601f848820920160051c820191601f860160051c015b828110620004c6575050620003f6565b878155018590620004b6565b634e487b7160e01b86526022600452602486fd5b90607f1690620003e3565b8051602090818110156200057f5750601f8251116200051e57808251920151908083106200034d57501790565b90604051809263305a27a960e01b82528060048301528251908160248401526000935b82851062000565575050604492506000838284010152601f80199101168101030190fd5b848101820151868601604401529381019385935062000541565b9192916001600160401b038111620002d25760019182548381811c9116801562000693575b828210146200067d57601f811162000644575b5080601f8311600114620005f7575081929394600092620005eb575b5050600019600383901b1c191690821b17905560ff90565b015190503880620005d3565b90601f198316958460005282600020926000905b8882106200062c57505083859697106200046757505050811b01905560ff90565b8087859682949686015181550195019301906200060b565b8360005283601f83600020920160051c820191601f850160051c015b82811062000670575050620005b7565b6000815501849062000660565b634e487b7160e01b600052602260045260246000fd5b90607f1690620005a456fe60808060405260043610156200001457600080fd5b600090813560e01c9081630bf100321462002b11575080630c682669146200291a5780631edefe3414620028965780631fa02e7b146200283e57806333916d7c14620027f45780633d665d0e14620027bf57806344ba68f21462002773578063476cfd25146200274c57806362adcbef14620026d3578063650ef52f14620024385780636695f14c14620023345780636a30069614620022a45780636a7a0e96146200226757806384b0196e146200215057806384c3c30b14620020af57806385b370ee14620020105780638c5046f51462001fbe578063b0772d0b1462001f34578063b698fdf31462001ec9578063ba3eba071462001e47578063bbd96ca91462001e01578063be6566bf1462001bd4578063c349e28a1462001b27578063d64bd7b91462000d77578063df5bfa3814620003e2578063e2f273bd1462000393578063e847d2161462000363578063f1229af81462000231578063f160d36914620001bb5763f5c92780146200018a57600080fd5b34620001b8576020366003190112620001b8576040620001ac600435620037be565b82519182526020820152f35b80fd5b5034620001b8576020366003190112620001b857620001d962002c4b565b6002546001600160a01b039190821633036200021f571680156200020d576001600160601b0360a01b600354161760035580f35b60405163d92e233d60e01b8152600490fd5b604051634755657960e01b8152600490fd5b5034620001b8576060366003190112620001b8576004356024356044356001600160401b0381116200035f576200026d90369060040162002da8565b6002546001600160a01b03939190841633036200021f57818552600a60205260ff604086205416156200034d5782156200033c5751156200032a5783927f00000000000000000000000000000000000000000000000000000000000000001691823b1562000325576044849283604051958694859363dee0f5e560e01b8552600485015260248401525af180156200031a57620003075750f35b620003129062002cf4565b620001b85780f35b6040513d84823e3d90fd5b505050fd5b60405163bc7fd33160e01b8152600490fd5b60405162fc7cad60e51b8152600490fd5b6040516307db1be560e41b8152600490fd5b8380fd5b5034620001b8576020366003190112620001b8576002546001600160a01b031633036200021f5760043560165580f35b5034620001b8576020366003190112620001b857620003b162002c4b565b600254906001600160a01b039081831633036200021f57169081156200020d576001600160a01b0319161760025580f35b5034620001b857610140366003190112620001b8576004356001600160401b03811162000d73576200041990369060040162002da8565b906024356001600160401b03811162000d73576200043c90369060040162002da8565b906084356001600160401b03811162000d73576200045f90369060040162002da8565b9060a4356001600160401b03811162000d73576200048290369060040162002dc9565b936200048d62002c79565b60e4356001600160401b0381116200035f57620004af90369060040162002e91565b95620004ba62002c90565b94610124356001600160401b03811162000d6f573660238201121562000d6f57620004f090369060248160040135910162002d5e565b5060ff60175416801562000d5a575b1562000d48578351801590811562000d3c575b5062000d2a578651801590811562000d1d575b5062000d0b57426044351180159062000cdd575b62000ccb57606435156200033c57511562000cb957600a90511162000cb9576001600160a01b0395818716156200020d576016548015158062000caa575b62000c02575b506040516020810190620005aa816200059b4342338d8b89620032b5565b03601f19810183528262002d24565b51902094858552600a60205260ff60408620541662000bf057878116156200020d57600354604051632b6c8a5b60e11b60208201526001600160a01b037f00000000000000000000000000000000000000000000000000000000000000008b168116602483015260448201899052918a16919091166064820152916200063e83608481015b03601f19810185528462002d24565b60405193612540808601908682106001600160401b0383111762000bdc57918695939162000673959362003921883962003328565b039083f09384156200031a57857f0000000000000000000000000000000000000000000000000000000000000000163b1562000a0f5760405163e1379dbb60e01b815285871660048201528381602481837f00000000000000000000000000000000000000000000000000000000000000008c165af1801562000a135790849162000bc4575b5050857f0000000000000000000000000000000000000000000000000000000000000000163b1562000a0f5760405163539bea8d60e01b8152600481018590528686166001600160a01b031660248201528381604481837f00000000000000000000000000000000000000000000000000000000000000008c165af1801562000a135790849162000bac575b508490526008602052604083206001600160601b0360a01b908787168282541617905586861684526009602052846040852055848452600a60205260408420600160ff19825416179055600b60205260408420903390825416179055600c6020526040832082516001600160401b03811162000adc576200080782546200300d565b601f811162000b65575b50806020601f821160011462000afc57869162000af0575b508160011b916000199060031b1c19161790555b62000848846200346b565b838352600d6020526040832081516001600160401b03811162000adc576200087182546200300d565b601f811162000a91575b50806020601f821160011462000a2a57869162000a1e575b508160011b916000199060031b1c19161790555b838352600e6020526044356040842055857f0000000000000000000000000000000000000000000000000000000000000000163b1562000a0f5760405163dee0f5e560e01b81526004810185905260643560248201528381604481837f00000000000000000000000000000000000000000000000000000000000000008c165af1801562000a13578592918591620009f2575b50507fa8786ce5c1c6982894b2280e9d3ad81632ac0abfdbfa9cdcee4e07b7099e11786200097f60165460405191829133978c8c16966064359260443592866200349a565b0390a48383163b15620001b857604051633482233360e01b81526044356004820152600060248201528181604481838989165af1620009da575b505060408051939092166001600160a01b03168352602083015290f35b0390f35b620009e6829162002cf4565b620001b85780620009b9565b62000a009192935062002cf4565b62000a0f57839083386200093a565b8280fd5b6040513d86823e3d90fd5b90508301513862000893565b838752602087209150601f198316875b81811062000a785750908360019493921062000a5e575b5050811b019055620008a7565b85015160001960f88460031b161c19169055388062000a51565b9192602060018192868a01518155019401920162000a3a565b82865260208620601f830160051c8101916020841062000ad1575b601f0160051c01905b81811062000ac457506200087b565b6000815560010162000ab5565b909150819062000aac565b634e487b7160e01b85526041600452602485fd5b90508401513862000829565b91508286526020862086925b601f198316841062000b4c576001935082601f1981161062000b32575b5050811b0190556200083d565b86015160001960f88460031b161c19169055388062000b25565b8681015182556020938401936001909201910162000b08565b82865260208620601f830160051c81016020841062000ba4575b601f830160051c8201811062000b9757505062000811565b6000815560010162000b7f565b508062000b7f565b62000bb79062002cf4565b62000a0f57823862000785565b62000bcf9062002cf4565b62000a0f578238620006f9565b634e487b7160e01b89526041600452602489fd5b6040516304a7adb960e51b8152600490fd5b877f000000000000000000000000000000000000000000000000000000000000000016886003541691813b1562000ca657604051633eb29b8760e01b815233600482015260248101919091526001600160a01b0392909216604483015285908290606490829084905af1801562000c9b5790859162000c83575b506200057d565b62000c8e9062002cf4565b6200035f57833862000c7c565b6040513d87823e3d90fd5b8680fd5b50876002541633141562000577565b60405163b4fa3fb360e01b8152600490fd5b60405163620fa5ab60e11b8152600490fd5b506301e13380420180421162000cf7576044351162000539565b634e487b7160e01b86526011600452602486fd5b60405163213b197b60e01b8152600490fd5b6101009150113862000525565b60405163ee79ac5160e01b8152600490fd5b60409150113862000512565b604051636dfe746960e01b8152600490fd5b506002546001600160a01b03163314620004ff565b8580fd5b5080fd5b5034620001b8576101a0366003190112620001b8576004356001600160401b03811162000d735762000dae90369060040162002da8565b906024356001600160401b03811162000d735762000dd190369060040162002da8565b916084356001600160401b03811162000a0f5762000df490369060040162002da8565b60a4356001600160401b0381116200035f5762000e1690369060040162002dc9565b9362000e2162002c79565b9160e4356001600160401b03811162000d6f5762000e4490369060040162002e91565b9562000e4f62002c90565b90610124356001600160a01b038116900362001b22576001600160401b03610184351162000ca6573660236101843501121562000ca6576001600160401b0361018435600401351162000ca65736602461018435600401356101843501011162000ca6578551801590811562001b16575b5062000d2a578351801590811562001b09575b5062000d0b57426044351180159062001adb575b62000ccb57606435156200033c5782511562000cb957600a81511162000cb9576001600160a01b038516156200020d576001600160a01b038216156200020d5760ff60175416801562001abf575b1562000d485761016435421162000cb957610124356001600160a01b0316875260046020526040872054610144350362000cb95780519194929392916060918891905b81831062001a52575050506020815191012062000f96885162003761565b9387955b89518710156200110557889460605b8b604062000fb88b836200374c565b5101515188101562001031579062001028602460019362000ff38b60408f62000fea9063ffffffff60e01b956200374c565b5101516200374c565b51169260405193816200101186935180926020808701910162002ca8565b820190602082015203600481018452018262002d24565b96019562000fa9565b92959891949799939650602081519101206020620010668360018060a01b036200105c82886200374c565b515116956200374c565b5101516003811015620010f1576200108c90604051946020860152604085019062003304565b6060830152606082528160808101106001600160401b03608084011117620010db578160806001930160405260208151910120620010cb828b6200374c565b5201959296949193909662000f9a565b634e487b7160e01b600052604160045260246000fd5b634e487b7160e01b8c52602160045260248cfd5b84898988968d60609684975b8a518910156200116c57600190620011636040620011308c8f6200374c565b5192815193816200114c86935180926020808701910162002ca8565b820190602082015203602081018452018262002d24565b98019762001111565b899060208151910120908551602087012092885160208a0120906020815191012090604051947fae50defb2e3ad99d3a134b02147763deaf13340e500f7037c8f9c64b7f9c233e602087015260408601526060850152604435608085015260643560a085015260c084015260e083015260018060a01b03841661010083015261012082015260018060a01b03871661014082015260018060a01b03610124351661016082015261014435610180820152610164356101a08201526101a08152806101c08101106001600160401b036101c083011117620010db57620012a36042826101c0620012ad9401604052602081519101206200126a6200361e565b906040519161190160f01b835260028301526022820152206200129c3661018435600401356024610184350162002d5e565b90620034d8565b90929192620035aa565b6001600160a01b0361012435811691160362001a4057610124356001600160a01b031684526004602052604084206101443560010190556016548015158062001a23575b6200197c575b50604051602081019062001318816200059b4342610124358c8b89620032b5565b51902095868552600a60205260ff60408620541662000bf057600354604051632b6c8a5b60e11b60208201526001600160a01b037f000000000000000000000000000000000000000000000000000000000000000081166024830152604482018a90529091166064820152916200139383608481016200062f565b60405193846125408101106001600160401b0361254087011117620019685791849391620013cf93612540620039218739612540860162003328565b039083f09283156200031a577f00000000000000000000000000000000000000000000000000000000000000006001600160a01b03163b1562000a0f5760405163e1379dbb60e01b81526001600160a01b03858116600483015284908290602490829084907f0000000000000000000000000000000000000000000000000000000000000000165af1801562000a135790849162001950575b50507f00000000000000000000000000000000000000000000000000000000000000006001600160a01b03163b1562000a0f5760405163539bea8d60e01b8152600481018690526001600160a01b0385166024820152838180604481010381837f00000000000000000000000000000000000000000000000000000000000000006001600160a01b03165af1801562000a135790849162001938575b5085905260086020908152604080852080546001600160a01b03199081166001600160a01b03898116918217909355875260098452828720899055888752600a8452828720805460ff19166001179055600b8452828720805490911661012435909216919091179055600c909152832082516001600160401b03811162000adc576200159182546200300d565b601f8111620018f1575b50806020601f8211600114620018885786916200187c575b508160011b916000199060031b1c19161790555b620015d2856200346b565b848352600d6020526040832081516001600160401b03811162000adc57620015fb82546200300d565b601f811162001835575b50806020601f8211600114620017ce578691620017c2575b508160011b916000199060031b1c19161790555b848352600e6020526040832060443590557f00000000000000000000000000000000000000000000000000000000000000006001600160a01b03163b1562000a0f5760405163dee0f5e560e01b81526004810186905260643560248201528381604481837f00000000000000000000000000000000000000000000000000000000000000006001600160a01b03165af1801562000a13578692918591620017a5575b50506016546040516001600160a01b0361012435811695908816937fa8786ce5c1c6982894b2280e9d3ad81632ac0abfdbfa9cdcee4e07b7099e117893839262001726926064359260443592866200349a565b0390a46001600160a01b0382163b15620001b857604051633482233360e01b8152604480356004830152600060248301528290829081836001600160a01b0388165af16200178d575b5050604080516001600160a01b039290921682526020820192909252f35b62001799829162002cf4565b620001b857806200176f565b620017b39192935062002cf4565b62000a0f5784908387620016d3565b9050830151886200161d565b838752602087209150601f198316875b8181106200181c5750908360019493921062001802575b5050811b01905562001631565b85015160001960f88460031b161c191690558880620017f5565b9192602060018192868a015181550194019201620017de565b82865260208620601f830160051c81016020841062001874575b601f830160051c820181106200186757505062001605565b600081556001016200184f565b50806200184f565b905084015188620015b3565b91508286526020862086925b601f1983168410620018d8576001935082601f19811610620018be575b5050811b019055620015c7565b86015160001960f88460031b161c191690558880620018b1565b8681015182556020938401936001909201910162001894565b82865260208620601f830160051c81016020841062001930575b601f830160051c82018110620019235750506200159b565b600081556001016200190b565b50806200190b565b620019439062002cf4565b62000a0f57828662001504565b6200195b9062002cf4565b62000a0f57828662001468565b634e487b7160e01b87526041600452602487fd5b6003546001600160a01b03908116917f000000000000000000000000000000000000000000000000000000000000000090911690813b1562000ca657604051633eb29b8760e01b81526001600160a01b03610124358116600483015260248201929092529216604483015285908290606490829084905af1801562000c9b5790859162001a0b575b50620012f7565b62001a169062002cf4565b6200035f57838762001a04565b50600254610124356001600160a01b0390811691161415620012f1565b60405163ea8e4eb560e01b8152600490fd5b90919260019062001aaf602062001a7087869c999c9b9a9b6200374c565b5192604051938162001a8c869351809286808701910162002ca8565b820162001aa28251809386808501910162002ca8565b0103808452018262002d24565b9301919096939695949562000f78565b50600254610124356001600160a01b0390811691161462000f35565b506301e13380420180421162001af5576044351162000ee7565b634e487b7160e01b88526011600452602488fd5b6101009150113862000ed3565b60409150113862000ec0565b600080fd5b5034620001b8576020366003190112620001b857600435808252600a60205260ff604083205416156200034d576012546001600160a01b0316801562001bc2578183928352600d60205260408320823b15620003255762001baf928492836040518096819582946313e942a560e31b845260048401526040602484015260448301906200304a565b03925af180156200031a57620003075750f35b60405163012fac1160e21b8152600490fd5b5034620001b85780600319360112620001b8576015547f00000000000000000000000000000000000000000000000000000000000000006001600160a01b03169082805b82821062001d245762001c2c915062003761565b918390845b83811062001c495760405180620009d6878262002e54565b62001c54816200341d565b90549060031b1c60405163d40afcb160e01b81528160048201526020908181602481885afa90811562001d1957899162001cd8575b5015908162001cc1575b5062001ca4575b5060010162001c31565b83600192949162001cb78493896200374c565b5201929062001c9a565b600e91508289525260408720544210153862001c93565b90508181813d831162001d11575b62001cf2818362002d24565b8101031262001d0d5762001d069062003799565b3862001c89565b8880fd5b503d62001ce6565b6040513d8b823e3d90fd5b62001d2f826200341d565b90549060031b1c6040519063d40afcb160e01b82528060048301526020602492818185818b5afa90811562001d1957899162001dc4575b5015918262001dad575b505062001d84575b50906001019062001c18565b600019821462001d9b575060018091019062001d78565b634e487b7160e01b8652601160045285fd5b600e92508852526040862054421015388062001d70565b90508181813d831162001df9575b62001dde818362002d24565b8101031262001d0d5762001df29062003799565b3862001d66565b503d62001dd2565b5034620001b8576020366003190112620001b85760043580151580910362001b22576002546001600160a01b031633036200021f5760ff80196017541691161760175580f35b5034620001b8576040366003190112620001b85760025460243590600435906001600160a01b031633036200021f576103e8808210801562001ebd575b62001eab57821162001e995760055560065580f35b604051630120fd4960e21b8152600490fd5b60405163b5d4c3d760e01b8152600490fd5b50612710821162001e84565b5034620001b8576040366003190112620001b8576004356024359081151580920362001b22576002546001600160a01b031633036200021f576103e88110801562001f28575b62001eab5760055560ff80196007541691161760075580f35b50612710811162001f0f565b5034620001b85780600319360112620001b857604051601580548083529083526020808301937f55f448fdea98c4d29eb340757ef0a66cd03dbb9538908a6a81d96026b71ec47592915b82821062001fa657620009d68562001f998189038262002d24565b6040519182918262002e54565b83548652948501946001938401939091019062001f7e565b5034620001b8576020366003190112620001b85762001fdc62002c4b565b6002546001600160a01b039190821633036200021f571680156200020d576001600160601b0360a01b601354161760135580f35b5034620001b857610100366003190112620001b8576001600160401b0360043581811162000a0f576200204890369060040162002da8565b5060243581811162000a0f576200206490369060040162002da8565b5060843581811162000a0f576200208090369060040162002da8565b5060a43590811162000d73576200209c90369060040162002dc9565b5060405163131dd77b60e21b8152600490fd5b5034620001b8576040366003190112620001b857600435620020d062002c62565b6002546001600160a01b039190821633036200021f57828452600a60205260ff604085205416156200034d5781169081156200020d5783928352600860205260408320541690813b156200214c5782916024839260405194859384926346c9eb6360e01b845260048401525af180156200031a57620003075750f35b5050fd5b5034620001b85780600319360112620001b8576200218e7f0000000000000000000000000000000000000000000000000000000000000000620030e8565b90620021ba7f0000000000000000000000000000000000000000000000000000000000000000620031ef565b9060405190602090818301938385106001600160401b03861117620010db57928285936200221b88966200220c98604052858552604051988998600f60f81b8a5260e0858b015260e08a019062002ccd565b9088820360408a015262002ccd565b924660608801523060808801528460a088015286840360c088015251928381520193925b8281106200224f57505050500390f35b8351855286955093810193928101926001016200223f565b5034620001b8576020366003190112620001b8576020906040906001600160a01b036200229362002c4b565b168152600483522054604051908152f35b5034620001b8576040366003190112620001b857600435620022c562002c62565b90808352600a60205260ff604084205416156200034d57808352600b60205260408320546001600160a01b03919082163314801562002326575b1562001a40578352600f6020526040832091166001600160601b0360a01b82541617905580f35b5081600254163314620022ff565b5034620001b8576020366003190112620001b857600435808252600a60205260ff604083205416156200034d57815260086020526040808220549051636d64bcc960e01b8152906001600160a01b03906080908390600490829085165afa80156200242d5783928485918693620023c5575b5060809550604051941515855260208501526040840152166060820152f35b94505050506080823d821162002424575b81620023e56080938362002d24565b8101031262000a0f57620023f98262003799565b916020810151926060604083015192015190838216820362000d6f57608095509391909138620023a6565b3d9150620023d6565b6040513d85823e3d90fd5b5034620001b8576040366003190112620001b8576001600160401b0360043581811162000a0f573660238201121562000a0f5780600401356200247b8162002d46565b926200248b604051948562002d24565b8184526020928385016024809460051b83010191368311620026085784869101915b838310620026c257505050508135908111620026be5736602382011215620026be57806004013590620024e08262002d46565b91620024f0604051938462002d24565b808352838584019160051b83010191368311620026085784869101915b838310620026ad5750506013546001600160a01b03925082163314905080156200269f575b1562001a4057845182510362000cb957845194865b86811062002553578780f35b876200256082846200374c565b51808252600a885260ff604083205416806200260c575b62002588575b505060010162002547565b847f00000000000000000000000000000000000000000000000000000000000000001690620025b884886200374c565b51823b156200035f576044849283604051958694859363dee0f5e560e01b855260048501528d8401525af180156200031a57156200257d57620025fb9062002cf4565b620026085787386200257d565b8780fd5b5060405163d40afcb160e01b815260048101829052888189817f00000000000000000000000000000000000000000000000000000000000000008a165afa9081156200242d57839162002662575b501562002577565b90508881813d831162002697575b6200267c818362002d24565b8101031262000a0f57620026909062003799565b386200265a565b503d62002670565b508060025416331462002532565b82358152918101918691016200250d565b8480fd5b8235815291810191869101620024ad565b5034620001b8576060366003190112620001b857620026f162002c4b565b620026fb62002c62565b6001600160a01b0360443581811693929084900362001b2257816002541633036200021f57816001600160601b0360a01b931683601154161760115516816012541617601255601354161760135580f35b5034620001b85780600319360112620001b857604060055460065482519182526020820152f35b5034620001b8576020366003190112620001b8576060906004358152600f602052604060018060a01b038183205416916010602052205460405191825280602083015215156040820152f35b5034620001b8576020366003190112620001b857602090600435815260088252604060018060a01b0391205416604051908152f35b5034620001b8576020366003190112620001b857600254600435906001600160a01b031633036200021f5780156200282c5760145580f35b60405163fb93c7c760e01b8152600490fd5b5034620001b8576020366003190112620001b85762002879620028816040620009d6936004358152600c60205220604051928380926200304a565b038262002d24565b60405191829160208352602083019062002ccd565b5034620001b8576020366003190112620001b857600254600435906001600160a01b0390811633036200021f57818352600a60205260ff604084205416156200034d57829182526008602052604082205416803b1562002917578180916004604051809481936376e329dd60e11b83525af180156200031a57620003075750f35b50fd5b5034620001b85760208060031936011262000d73576001600160a01b0390816200294362002c4b565b1680156200020d578084526009825260408420549182156200034d5783600254163314801562002afa575b1562001a405784937f000000000000000000000000000000000000000000000000000000000000000016803b15620026be578490816040518092631740e71760e11b8252866004830152816024998a925af180156200031a5762002ae2575b5083905260088152604080862080546001600160a01b03191690559185526009815281852060009055828552600a90528320805460ff191690556015805492845b84811062002a1a578580f35b8362002a26826200341d565b919054600392831b1c1462002a3f575060010162002a0e565b83549095509293506000199283810190811162002acf5762002a7662002a6962002a8d926200341d565b905490881b1c926200341d565b819391549060031b91821b91600019901b19161790565b9055825490811562002abd575081019262002aa8846200341d565b81939154921b1b191690555538808080808580f35b634e487b7160e01b8652603160045285fd5b634e487b7160e01b875260116004528287fd5b62002aed9062002cf4565b620026be578438620029cd565b50828552600b81528360408620541633146200296e565b90503462000d7357606036600319011262000d73576002546024359160043591604435916001600160a01b03918216330362002c3c5750828552600a60205260ff604086205416156200034d57600184118062002c30575b1562002c1e5760648210158062002c11575b1562001eab57831562002bfd578361271004821162002bec5784928352600860205260408320541692833b1562000a0f57604490836040519586948593630e2b950560e21b8552600485015260248401525af180156200031a5762002bde575080f35b62002be99062002cf4565b80f35b60405162f5f29560e01b8152600490fd5b634e487b7160e01b85526012600452602485fd5b5061271082111562002b7b565b604051633fe89cb960e11b8152600490fd5b50606484111562002b69565b634755657960e01b8152600490fd5b600435906001600160a01b038216820362001b2257565b602435906001600160a01b038216820362001b2257565b60c435906001600160a01b038216820362001b2257565b61010435906001600160a01b038216820362001b2257565b60005b83811062002cbc5750506000910152565b818101518382015260200162002cab565b9060209162002ce88151809281855285808601910162002ca8565b601f01601f1916010190565b6001600160401b038111620010db57604052565b604081019081106001600160401b03821117620010db57604052565b90601f801991011681019081106001600160401b03821117620010db57604052565b6001600160401b038111620010db5760051b60200190565b9291926001600160401b038211620010db576040519162002d8a601f8201601f19166020018462002d24565b82948184528183011162001b22578281602093846000960137010152565b9080601f8301121562001b225781602062002dc69335910162002d5e565b90565b9080601f8301121562001b225781359062002de48262002d46565b9262002df4604051948562002d24565b828452602092838086019160051b8301019280841162001b2257848301915b84831062002e245750505050505090565b82356001600160401b03811162001b2257869162002e488484809489010162002da8565b81520192019162002e13565b6020908160408183019282815285518094520193019160005b82811062002e7c575050505090565b83518552938101939281019260010162002e6d565b81601f8201121562001b2257803562002eaa8162002d46565b9260409162002ebc8351958662002d24565b8085526020938486019185600591821b8301019484861162001b2257868301935b86851062002ef057505050505050505090565b6001600160401b03853581811162001b225785019060609182601f19828b03011262001b22578451928084018481108482111762002ff8578652818c01356001600160a01b038116810362001b2257845285820135600381101562001b22578c85015281013591821162001b22570187603f8201121562001b22578981013562002f7a8162002d46565b9162002f898651938462002d24565b818352858c840192881b820101908a821162001b225790868d959396949201955b81871062002fc75750508394508582015281520194019362002edd565b9395929450909282356001600160e01b03198116810362001b2257818e92918392520192019492908c949262002faa565b60246000634e487b7160e01b81526041600452fd5b90600182811c921680156200303f575b60208310146200302957565b634e487b7160e01b600052602260045260246000fd5b91607f16916200301d565b90600092918054916200305d836200300d565b918282526001938481169081600014620030c4575060011462003081575b50505050565b90919394506000526020928360002092846000945b838610620030af5750505050010190388080806200307b565b80548587018301529401938590820162003096565b9294505050602093945060ff191683830152151560051b010190388080806200307b565b60ff81146200312a5760ff811690601f82116200311857604051916200310e8362002d08565b8252602082015290565b604051632cd44ac360e21b8152600490fd5b506040516000818154916200313f836200300d565b80835292600190818116908115620031cb57506001146200316a575b5062002dc69250038262002d24565b600080805291507f290decd9548b62a8d60345a988386fc84ba6bc95484008f6362f93160ef3e5635b848310620031af575062002dc69350508101602001386200315b565b8193509081602092548385890101520191019091849262003193565b90506020925062002dc694915060ff191682840152151560051b820101386200315b565b60ff8114620032155760ff811690601f82116200311857604051916200310e8362002d08565b506040516000816001918254926200322d846200300d565b80845293818116908115620031cb575060011462003254575062002dc69250038262002d24565b600081815291507fb10e2d527612073b26eecdfd717e6a320cf44b4afac2b0732d9fcbe2b7fa0cf65b84831062003299575062002dc69350508101602001386200315b565b819350908160209254838589010152019101909184926200327d565b91620032e46020605497959694620032d582958281519485920162002ca8565b01918281519485920162002ca8565b01926001600160601b03199060601b168352601483015260348201520190565b906003821015620033125752565b634e487b7160e01b600052602160045260246000fd5b9094939192946080958683019660018060a01b0380931684526020978189860152865180915260a08501988060a08360051b880101980192600080915b8483106200338e5750505050505062002dc6959650166040820152606081840391015262002ccd565b9091928094959a8d609f198b83030190528b51908284606092838101938d8651168252620033c3848701518584019062003304565b6040809601519582015284518094520192019085905b808210620033f8575050509c81019c9a01949392600101919062003365565b82516001600160e01b03191684528894938401939092019160019190910190620033d9565b601554811015620034555760156000527f55f448fdea98c4d29eb340757ef0a66cd03dbb9538908a6a81d96026b71ec4750190600090565b634e487b7160e01b600052603260045260246000fd5b60155468010000000000000000811015620010db5762002a768160016200349693016015556200341d565b9055565b91608093620034ba620034ce939897969860a0865260a086019062002ccd565b916020850152838203604085015262002ccd565b9460608201520152565b81519190604183036200350c576200350592506020820151906060604084015193015160001a9062003517565b9192909190565b505060009160029190565b91907f7fffffffffffffffffffffffffffffff5d576e7357a4501ddfe92f46681b20a084116200359e57926020929160ff608095604051948552168484015260408301526060820152600092839182805260015afa15620035925780516001600160a01b038116156200358957918190565b50809160019190565b604051903d90823e3d90fd5b50505060009160039190565b6004811015620033125780620035be575050565b60018103620035d95760405163f645eedf60e01b8152600490fd5b60028103620035fb5760405163fce698f760e01b815260048101839052602490fd5b600314620036065750565b602490604051906335e2f38360e21b82526004820152fd5b307f00000000000000000000000000000000000000000000000000000000000000006001600160a01b0316148062003722575b156200367b577f000000000000000000000000000000000000000000000000000000000000000090565b60405160208101907f8b73c3c69bb8fe3d512ecc4cf759cc79239f7b179b0ffacaa9a75d522b39400f82527f000000000000000000000000000000000000000000000000000000000000000060408201527f000000000000000000000000000000000000000000000000000000000000000060608201524660808201523060a082015260a0815260c081018181106001600160401b03821117620010db5760405251902090565b507f0000000000000000000000000000000000000000000000000000000000000000461462003651565b8051821015620034555760209160051b010190565b906200376d8262002d46565b6200377c604051918262002d24565b82815280926200378f601f199162002d46565b0190602036910137565b5190811515820362001b2257565b919082604091031262001b22576020825192015190565b600090808252602091600a835260409260ff8483205416156200390f57828252600f8152838220546001600160a01b0393908416806200389d57508360125416806200389d575081906024865180968193637dc2fb6960e01b835260048301527f0000000000000000000000000000000000000000000000000000000000000000165afa93841562003892575081936200385b575b505050904290565b9091809350813d83116200388a575b62003876818362002d24565b81010312620001b857505138808062003853565b503d6200386a565b51913d9150823e3d90fd5b929350849594915060248251809481936331d98b3f60e01b835260048301525afa93841562003892578294620038d4575b50509190565b620038fd93945080919250903d1062003907575b620038f4818362002d24565b810190620037a7565b91903880620038ce565b503d620038e8565b83516307db1be560e41b8152600490fdfe60406080815234620001035762002540803803806200001e8162000261565b92833960808282810103126200010357620000398262000287565b60208301519091906001600160401b0381116200010357818401601f828601011215620001035780840151906200007a62000074836200029c565b62000261565b91602083828152019184870160208360051b838a010101116200010357602081880101925b60208360051b838a0101018410620001085750505050620000c285850162000287565b6060850151949092906001600160401b0386116200010357620000f595620000ee9282019101620002f5565b9262000337565b51611547908162000f998239f35b600080fd5b83516001600160401b03811162000103578289010160609081601f19828a8d0103011262000103576200013a6200021b565b91620001496020830162000287565b83528b820151600381101562000103576020840152810151906001600160401b038211620001035701878a01603f8201121562000103576020810151906200019562000074836200029c565b82815291602083018a8d01600583901b84018f01116200010357918d8101908e5b8360051b8201018210620001db57505050508a8201528152602093840193016200009f565b8151936001600160e01b03198516850362000103578f9481602092918392520192019193620001b6565b634e487b7160e01b600052604160045260246000fd5b60405190606082016001600160401b038111838210176200023b57604052565b62000205565b60408051919082016001600160401b038111838210176200023b57604052565b6040519190601f01601f191682016001600160401b038111838210176200023b57604052565b51906001600160a01b03821682036200010357565b6001600160401b0381116200023b5760051b60200190565b6001600160401b0381116200023b57601f01601f191660200190565b60005b838110620002e45750506000910152565b8181015183820152602001620002d3565b81601f8201121562000103578051620003126200007482620002b4565b92818452602082840101116200010357620003349160208085019101620002d0565b90565b7fc8fcad8db84d3cc18b4c41d551ea0ee66dd599cde068d998e57d5e09332c131f80546001600160a01b038381166001600160a01b0319831617909255929593949281169116907f8be0079c531659141344cd1fd0a4f28419497f9722a3daafe3b4186f6b6457e0600080a360005b8451811015620004c857620003ca6020620003c2838862000552565b51016200058e565b620003e8620003da838862000552565b51516001600160a01b031690565b604080620003f7858a62000552565b5101519262000406816200056d565b806200042b5750506200042592916200041f91620007aa565b62000526565b620003a6565b62000436816200056d565b60018103620004525750506200042592916200041f9162000a69565b600291925062000462816200056d565b03620004795750906200041f620004259262000cb3565b5162461bcd60e51b8152602060048201526024808201527f4c69624469616d6f6e643a20496e636f727265637420466163657443757441636044820152633a34b7b760e11b6064820152608490fd5b509092917f8faa70878671ccd212d20771b795c50af8fd3ff6cf27f4bde57e5d4de0aeb673816200050e94620005058560405193849384620005c3565b0390a162000ecc565b565b634e487b7160e01b600052601160045260246000fd5b6000198114620005365760010190565b62000510565b634e487b7160e01b600052603260045260246000fd5b8051821015620005675760209160051b010190565b6200053c565b600311156200057857565b634e487b7160e01b600052602160045260246000fd5b516003811015620005785790565b90602091620005b781518092818552858086019101620002d0565b601f01601f1916010190565b93929093606092838201848352865180915260809485840191868160051b860101966020809a01936000915b8383106200062557505050505050620006179062000334959683019060018060a01b03169052565b60408184039101526200059c565b909192939498607f198882030183528951908681019060018060a01b0383511681528d83015160038110156200057857848f9493928592838201528a604080960151958201528451809452019201906000905b808210620006995750505090806001929b01930193019194939290620005ef565b82516001600160e01b03191684528f9493840193909201916001919091019062000678565b15620006c657565b60405162461bcd60e51b815260206004820152601b60248201527f4c69624469616d6f6e643a2053656c6563746f722065786973747300000000006044820152606490fd5b906000805160206200252083398151915280548310156200056757600052601c60206000208360031c019260021b1690565b6000805160206200252083398151915290815491680100000000000000008310156200023b5782620007799160016200050e950190556200070b565b90919063ffffffff83549160031b9260e01c831b921b1916179055565b61ffff809116908114620005365760010190565b91906001600160a01b038316156200094457600080516020620025208339815191525461ffff16906000915b81518310156200093d57620008e56200093691620008df6200080b620007fd878762000552565b516001600160e01b03191690565b620008636200085c62000850620008438463ffffffff60e01b16600052600080516020620024e0833981519152602052604060002090565b546001600160a01b031690565b6001600160a01b031690565b15620006be565b620008d96200087162000241565b6001600160a01b038b8116825261ffff861660208084019182526001600160e01b031986166000908152600080516020620024e08339815191529091526040902092518354915192166001600160b01b03199091161760a09190911b61ffff60a01b16179055565b6200073d565b62000796565b926200041f620009158760018060a01b031660005260008051602062002500833981519152602052604060002090565b62000926620008df825461ffff1690565b61ffff1661ffff19825416179055565b91620007d6565b5050509050565b60405162461bcd60e51b815260206004820152602960248201527f4c69624469616d6f6e643a204164642066616365742063616e2774206265206160448201526864647265737328302960b81b6064820152608490fd5b15620009a357565b60405162461bcd60e51b815260206004820152602d60248201527f4c69624469616d6f6e643a205265706c6163652066616365742063616e27742060448201526c6265206164647265737328302960981b6064820152608490fd5b1562000a0657565b60405162461bcd60e51b815260206004820152602360248201527f4c69624469616d6f6e643a2053656c6563746f7220646f6573206e6f742065786044820152621a5cdd60ea1b6064820152608490fd5b61ffff16801562000536576000190190565b9091906001600160a01b039081811662000a858115156200099b565b60005b855181101562000c14578062000aa7620007fd62000bbd938962000552565b62000ad7620008438263ffffffff60e01b16600052600080516020620024e0833981519152602052604060002090565b90858588841662000aea811515620009fe565b1462000c0b5762000b2062000b3f9263ffffffff60e01b16600052600080516020620024e0833981519152602052604060002090565b80546001600160a01b0319166001600160a01b03909216919091179055565b6001600160a01b0385166000908152600080516020620025008339815191526020526040902062000b709062000915565b6001600160a01b0381166000908152600080516020620025008339815191526020526040902062000bb09062000ba9905b5461ffff1690565b61ffff1690565b62000bc3575b5062000526565b62000a88565b6001600160a01b03166000908152600080516020620025008339815191526020526040902062000c04906200092662000bfe825461ffff1690565b62000a57565b3862000bb6565b50505062000526565b505050509050565b9061ffff62000c2a62000241565b92546001600160a01b038116845260a01c166020830152565b6000198101919082116200053657565b600080516020620025208339815191528054801562000c8f57600019019062000c7c826200070b565b63ffffffff82549160031b1b1916905555565b634e487b7160e01b600052603160045260246000fd5b801562000536576000190190565b9060008051602062002520833981519152546000805b84518110156200093d578062000ce8620007fd62000e53938862000552565b938362000e1c62000df462000d2862000d228963ffffffff60e01b16600052600080516020620024e0833981519152602052604060002090565b62000c1c565b9362000de462000d64602062000d44885160018060a01b031690565b9762000d5b6001600160a01b038a161515620009fe565b015161ffff1690565b62000dc562000d8e62000d8162000d7b8662000c43565b6200070b565b90549060031b1c60e01b90565b62000d9e8162000779856200070b565b63ffffffff60e01b16600052600080516020620024e0833981519152602052604060002090565b805461ffff60a01b191660a09290921b61ffff60a01b16919091179055565b62000dee62000c53565b62000ca5565b9663ffffffff60e01b16600052600080516020620024e0833981519152602052604060002090565b556001600160a01b0381166000908152600080516020620025008339815191526020526040902062000bb09062000ba99062000ba1565b62000cc9565b1562000e6157565b60405162461bcd60e51b815260206004820152603960248201527f4c69624469616d6f6e643a205f696e697420697320616464726573732830292060448201527f6275745f63616c6c64617461206973206e6f7420656d707479000000000000006064820152608490fd5b6001600160a01b03811662000ee957506200050e90511562000e59565b816000929160208493519201905af43d1562000f8f573d9062000f106200007483620002b4565b9182523d6000602084013e5b1562000f255750565b80511562000f3557602081519101fd5b60405162461bcd60e51b815260206004820152602c60248201527f4c69624469616d6f6e643a20496e697469616c697a6174696f6e2066756e637460448201526b1a5bdb881c995d995c9d195960a21b6064820152608490fd5b60609062000f1c56fe60806040526004361015610015575b36610ae357005b6000803560e01c9081631f931c1c146100885750806352ef6b2c146100835780637a0ed6271461007e5780638da5cb5b14610079578063adfca15e14610074578063cdffacc61461006f5763f2fde38b0361000e576104a0565b61045c565b6103dd565b610395565b6102a6565b610187565b346101115760603660031901126101115760043567ffffffffffffffff80821161010d573660238301121561010d57816004013591818311610109573660248460051b83010111610109576100db610114565b60443592831161010557610102936100f96024943690600401610159565b94909301610654565b80f35b8480fd5b8380fd5b8280fd5b80fd5b602435906001600160a01b038216820361012a57565b600080fd5b600435906001600160a01b038216820361012a57565b35906001600160a01b038216820361012a57565b9181601f8401121561012a5782359167ffffffffffffffff831161012a576020838186019501011161012a57565b3461012a57600036600319011261012a576101a06109b8565b604051809160208083018184528251809152816040850193019160005b8281106101cc57505050500390f35b83516001600160a01b0316855286955093810193928101926001016101bd565b90815180825260208080930193019160005b82811061020c575050505090565b83516001600160e01b031916855293810193928101926001016101fe565b602080820190808352835180925260409283810182858560051b8401019601946000925b85841061025f575050505050505090565b909192939495968580610295600193603f1986820301885286838d51878060a01b038151168452015191818582015201906101ec565b99019401940192959493919061024e565b3461012a57600080600319360112610111576102c06109b8565b8051916102d46102cf846105f4565b6105ce565b928084526102e4601f19916105f4565b01815b8181106103755750505b8151811015610363578061033561031b61030e61035e94866107ba565b516001600160a01b031690565b61032583876107ba565b516001600160a01b039091169052565b61034a61034561030e83866107ba565b6108dd565b602061035683876107ba565b510152610790565b6102f1565b60405180610371858261022a565b0390f35b602090610380610589565b848152826060818301528288010152016102e7565b3461012a57600036600319011261012a577fc8fcad8db84d3cc18b4c41d551ea0ee66dd599cde068d998e57d5e09332c131f546040516001600160a01b039091168152602090f35b3461012a5760208060031936011261012a576103fa61034561012f565b906040519181839283018184528251809152816040850193019160005b82811061042657505050500390f35b83516001600160e01b03191685528695509381019392810192600101610417565b35906001600160e01b03198216820361012a57565b3461012a57602036600319011261012a576004356001600160e01b03198116810361012a576020906001600160a01b039061049690610880565b5416604051908152f35b3461012a57602036600319011261012a576104b961012f565b6104c1610b8c565b6001600160a01b0390811690811561052e577fc8fcad8db84d3cc18b4c41d551ea0ee66dd599cde068d998e57d5e09332c131f80546001600160a01b031981168417909155167f8be0079c531659141344cd1fd0a4f28419497f9722a3daafe3b4186f6b6457e0600080a3005b60405162461bcd60e51b815260206004820152601a60248201527f4469616d6f6e643a206e6577206f776e6572206973207a65726f0000000000006044820152606490fd5b634e487b7160e01b600052604160045260246000fd5b604051906040820182811067ffffffffffffffff8211176105a957604052565b610573565b604051906060820182811067ffffffffffffffff8211176105a957604052565b6040519190601f01601f1916820167ffffffffffffffff8111838210176105a957604052565b67ffffffffffffffff81116105a95760051b60200190565b67ffffffffffffffff81116105a957601f01601f191660200190565b9291926106376102cf8361060c565b938285528282011161012a57816000926020928387013784010152565b9493909294610661610b8c565b61066d6102cf856105f4565b9081948083526020809301600591821b83019236841161012a5780915b8483106106af575050505050506106ad93946106a7913691610628565b91610d4d565b565b67ffffffffffffffff833581811161012a57830160608136031261012a576106d56105ae565b916106df82610145565b835288820135600381101561012a57898401526040918281013591821161012a57019036601f8301121561012a5781359161071c6102cf846105f4565b928a808583815201918a1b8301019136831161012a57918b80969492979593015b81811061075757505084955082015281520192019161068a565b919395809193959761076884610447565b8152019101918b95939196949261073d565b634e487b7160e01b600052601160045260246000fd5b600019811461079f5760010190565b61077a565b634e487b7160e01b600052603260045260246000fd5b80518210156107ce5760209160051b010190565b6107a4565b6001600160a01b031660009081527fc8fcad8db84d3cc18b4c41d551ea0ee66dd599cde068d998e57d5e09332c131e6020526040902090565b906108196102cf836105f4565b828152809261082a601f19916105f4565b0190602036910137565b906000805160206114f283398151915280548310156107ce57600052601c8260031c7fc0d727610ea16241eff4447d08bb1b4595f7d2ec4515282437a13b7d0df4b922019260021b1690565b63ffffffff60e01b166000527fc8fcad8db84d3cc18b4c41d551ea0ee66dd599cde068d998e57d5e09332c131c602052604060002090565b9061ffff6108c4610589565b92546001600160a01b038116845260a01c166020830152565b61ffff6108e9826107d3565b5416916108f58361080c565b92600080936000805160206114f283398151915254945b85811061091c575b505050509050565b61092581610834565b905460e0916003916001600160a01b039182916109509161094b9190861b1c861b610880565b6108b8565b51169085161461096b575b505061096690610790565b61090c565b82949161099f9161097e6109a495610834565b9054911b1c901b61098f838b6107ba565b6001600160e01b03199091169052565b610790565b918383146109b357388061095b565b610914565b6000805160206114f283398151915254906109d28261080c565b91600090815b818110610a2c5750506109ea8161080c565b9260005b8281106109fa57505050565b8061099f610a0e61030e610a2794866107ba565b610a1883896107ba565b6001600160a01b039091169052565b6109ee565b610a5d610a50610a4b610a3e84610834565b90549060031b1c60e01b90565b610880565b546001600160a01b031690565b60006001600160a01b038216815b868110610aa7575b505015610a8a575b50610a8590610790565b6109d8565b8361099f610aa092610a18610a8595978a6107ba565b9290610a7b565b81610ac4610ab861030e848d6107ba565b6001600160a01b031690565b14610ad757610ad290610790565b610a6b565b50505060013880610a73565b600080356001600160e01b03191681527fc8fcad8db84d3cc18b4c41d551ea0ee66dd599cde068d998e57d5e09332c131c60205260408120546001600160a01b03168015610b4857818091368280378136915af43d82803e15610b44573d90f35b3d90fd5b606460405162461bcd60e51b815260206004820152602060248201527f4469616d6f6e643a2046756e6374696f6e20646f6573206e6f742065786973746044820152fd5b7fc8fcad8db84d3cc18b4c41d551ea0ee66dd599cde068d998e57d5e09332c131f546001600160a01b03163303610bbf57565b60405162461bcd60e51b815260206004820152602260248201527f4c69624469616d6f6e643a204d75737420626520636f6e7472616374206f776e60448201526132b960f11b6064820152608490fd5b60031115610c1957565b634e487b7160e01b600052602160045260246000fd5b516003811015610c195790565b919082519283825260005b848110610c68575050826000602080949584010152601f8019910116010190565b602081830181015184830182015201610c47565b93929091936060928382019380835281518095526080830160808660051b85010195602080940192600080915b838310610cde57505050505050610cdb9495610cce9183019060018060a01b03169052565b6040818403910152610c3c565b90565b909192939498607f1988820301865289519060018060a01b038251168152878201516003811015610d3957610d2b60019385848c95948680960152816040809401519382015201906101ec565b9b0196019493019190610ca9565b634e487b7160e01b85526021600452602485fd5b92909160005b8451811015610e5257610d726020610d6b83886107ba565b5101610c2f565b610d8d610d7f83886107ba565b51516001600160a01b031690565b604080610d9a858a6107ba565b51015192610da781610c0f565b80610dc1575050610dbc929161099f91610f7e565b610d53565b610dca81610c0f565b60018103610de2575050610dbc929161099f91611182565b6002919250610df081610c0f565b03610e0357509061099f610dbc926112d8565b5162461bcd60e51b8152602060048201526024808201527f4c69624469616d6f6e643a20496e636f727265637420466163657443757441636044820152633a34b7b760e11b6064820152608490fd5b509092917f8faa70878671ccd212d20771b795c50af8fd3ff6cf27f4bde57e5d4de0aeb673816106ad94610e8c8560405193849384610c7c565b0390a161142f565b15610e9b57565b60405162461bcd60e51b815260206004820152601b60248201527f4c69624469616d6f6e643a2053656c6563746f722065786973747300000000006044820152606490fd5b8151815460209093015161ffff60a01b60a09190911b166001600160b01b03199093166001600160a01b0390911617919091179055565b6000805160206114f283398151915290815491680100000000000000008310156105a95782610f4e9160016106ad95019055610834565b90919063ffffffff83549160031b9260e01c831b921b1916179055565b61ffff80911690811461079f5760010190565b91906001600160a01b03831615611060576000805160206114f28339815191525461ffff16906000915b81518310156110595761102761105391611022610fd6610fc887876107ba565b516001600160e01b03191690565b610fee610fe8610ab8610a5084610880565b15610e94565b61101d610ff9610589565b6001600160a01b038b16815261ffff8516602082015261101883610880565b610ee0565b610f17565b610f6b565b9261099f611034876107d3565b611043611022825461ffff1690565b61ffff1661ffff19825416179055565b91610fa8565b5050509050565b60405162461bcd60e51b815260206004820152602960248201527f4c69624469616d6f6e643a204164642066616365742063616e2774206265206160448201526864647265737328302960b81b6064820152608490fd5b156110be57565b60405162461bcd60e51b815260206004820152602d60248201527f4c69624469616d6f6e643a205265706c6163652066616365742063616e27742060448201526c6265206164647265737328302960981b6064820152608490fd5b1561112057565b60405162461bcd60e51b815260206004820152602360248201527f4c69624469616d6f6e643a2053656c6563746f7220646f6573206e6f742065786044820152621a5cdd60ea1b6064820152608490fd5b61ffff16801561079f576000190190565b9091906001600160a01b039081811661119c8115156110b7565b60005b855181101561091457806111b9610fc861123b93896107ba565b6111c5610a5082610880565b9085858884166111d6811515611119565b14611266576111e761120692610880565b80546001600160a01b0319166001600160a01b03909216919091179055565b611212611034866107d3565b611230611229611221836107d3565b5461ffff1690565b61ffff1690565b611240575b50610790565b61119f565b61124c611260916107d3565b61104361125b825461ffff1690565b611171565b38611235565b505050610790565b60001981019190821161079f57565b6000805160206114f2833981519152805480156112b55760001901906112a282610834565b63ffffffff82549160031b1b1916905555565b634e487b7160e01b600052603160045260246000fd5b801561079f576000190190565b906000805160206114f2833981519152546000805b84518110156110595780611307610fc86113b893886107ba565b93836113a86113a261131b61094b89610880565b936113956113526020611334885160018060a01b031690565b976113496001600160a01b038a161515611119565b015161ffff1690565b611376611369610a3e6113648661126e565b610834565b610a4b81610f4e85610834565b805461ffff60a01b191660a09290921b61ffff60a01b16919091179055565b61139d61127d565b6112cb565b96610880565b55611230611229611221836107d3565b6112ed565b156113c457565b60405162461bcd60e51b815260206004820152603960248201527f4c69624469616d6f6e643a205f696e697420697320616464726573732830292060448201527f6275745f63616c6c64617461206973206e6f7420656d707479000000000000006064820152608490fd5b6001600160a01b03811661144957506106ad9051156113bd565b816000929160208493519201905af43d156114e9573d9061146c6102cf8361060c565b9182523d6000602084013e5b156114805750565b80511561148f57602081519101fd5b60405162461bcd60e51b815260206004820152602c60248201527f4c69624469616d6f6e643a20496e697469616c697a6174696f6e2066756e637460448201526b1a5bdb881c995d995c9d195960a21b6064820152608490fd5b60609061147856fec8fcad8db84d3cc18b4c41d551ea0ee66dd599cde068d998e57d5e09332c131da264697066735822122018c2250c45cecf70524557e5219a1d904a3235a4831b4980b2492a63d7f66cde64736f6c63430008140033c8fcad8db84d3cc18b4c41d551ea0ee66dd599cde068d998e57d5e09332c131cc8fcad8db84d3cc18b4c41d551ea0ee66dd599cde068d998e57d5e09332c131ec8fcad8db84d3cc18b4c41d551ea0ee66dd599cde068d998e57d5e09332c131da26469706673582212208d1ef48590ad7596553343598eb30ffc9e25e4b54cb80ed84c544e6e659f679264736f6c63430008140033",
  "linkReferences": {},
  "deployedLinkReferences": {}
}