{
  "_format": "hh-sol-artifact-1",
  "contractName": "FuturesMarketFactory",
  "sourceName": "src/FuturesMarketFactory.sol",
  "abi": [
    {
      "inputs": [
        {
          "internalType": "address",
          "name": "_vault",
          "type": "address"
        },
        {
          "internalType": "address",
          "name": "_admin",
          "type": "address"
        },
        {
          "internalType": "address",
          "name": "_feeRecipient",
          "type": "address"
        }
      ],
      "stateMutability": "nonpayable",
      "type": "constructor"
    },
    {
      "inputs": [],
      "name": "BadNonce",
      "type": "error"
    },
    {
      "inputs": [],
      "name": "BadSignature",
      "type": "error"
    },
    {
      "inputs": [],
      "name": "ECDSAInvalidSignature",
      "type": "error"
    },
    {
      "inputs": [
        {
          "internalType": "uint256",
          "name": "length",
          "type": "uint256"
        }
      ],
      "name": "ECDSAInvalidSignatureLength",
      "type": "error"
    },
    {
      "inputs": [
        {
          "internalType": "bytes32",
          "name": "s",
          "type": "bytes32"
        }
      ],
      "name": "ECDSAInvalidSignatureS",
      "type": "error"
    },
    {
      "inputs": [],
      "name": "InvalidFinalPrice",
      "type": "error"
    },
    {
      "inputs": [],
      "name": "InvalidInput",
      "type": "error"
    },
    {
      "inputs": [],
      "name": "InvalidLeverage",
      "type": "error"
    },
    {
      "inputs": [],
      "name": "InvalidMarginRequirement",
      "type": "error"
    },
    {
      "inputs": [],
      "name": "InvalidMarketSymbol",
      "type": "error"
    },
    {
      "inputs": [],
      "name": "InvalidMetricUrl",
      "type": "error"
    },
    {
      "inputs": [],
      "name": "InvalidOraclePrice",
      "type": "error"
    },
    {
      "inputs": [],
      "name": "InvalidSettlementDate",
      "type": "error"
    },
    {
      "inputs": [],
      "name": "InvalidShortString",
      "type": "error"
    },
    {
      "inputs": [],
      "name": "MarginTooLowForLeverage",
      "type": "error"
    },
    {
      "inputs": [],
      "name": "MarketAlreadySettledErr",
      "type": "error"
    },
    {
      "inputs": [],
      "name": "MarketCreationRestricted",
      "type": "error"
    },
    {
      "inputs": [],
      "name": "MarketIdCollision",
      "type": "error"
    },
    {
      "inputs": [],
      "name": "MarketNotFound",
      "type": "error"
    },
    {
      "inputs": [],
      "name": "MetaExpired",
      "type": "error"
    },
    {
      "inputs": [],
      "name": "NotAuthorized",
      "type": "error"
    },
    {
      "inputs": [],
      "name": "OnlyAdmin",
      "type": "error"
    },
    {
      "inputs": [],
      "name": "OracleNotConfigured",
      "type": "error"
    },
    {
      "inputs": [],
      "name": "ReasonRequired",
      "type": "error"
    },
    {
      "inputs": [],
      "name": "RewardMustBePositive",
      "type": "error"
    },
    {
      "inputs": [],
      "name": "SettlementNotReady",
      "type": "error"
    },
    {
      "inputs": [
        {
          "internalType": "string",
          "name": "str",
          "type": "string"
        }
      ],
      "name": "StringTooLong",
      "type": "error"
    },
    {
      "inputs": [],
      "name": "TradingFeeTooHigh",
      "type": "error"
    },
    {
      "inputs": [],
      "name": "UmaRequestMissing",
      "type": "error"
    },
    {
      "inputs": [],
      "name": "UseCreateMarketDiamond",
      "type": "error"
    },
    {
      "inputs": [],
      "name": "ZeroAddress",
      "type": "error"
    },
    {
      "anonymous": false,
      "inputs": [],
      "name": "EIP712DomainChanged",
      "type": "event"
    },
    {
      "anonymous": false,
      "inputs": [
        {
          "indexed": true,
          "internalType": "address",
          "name": "orderBook",
          "type": "address"
        },
        {
          "indexed": true,
          "internalType": "bytes32",
          "name": "marketId",
          "type": "bytes32"
        },
        {
          "indexed": false,
          "internalType": "string",
          "name": "marketSymbol",
          "type": "string"
        },
        {
          "indexed": true,
          "internalType": "address",
          "name": "creator",
          "type": "address"
        },
        {
          "indexed": false,
          "internalType": "uint256",
          "name": "creationFee",
          "type": "uint256"
        },
        {
          "indexed": false,
          "internalType": "string",
          "name": "metricUrl",
          "type": "string"
        },
        {
          "indexed": false,
          "internalType": "uint256",
          "name": "settlementDate",
          "type": "uint256"
        },
        {
          "indexed": false,
          "internalType": "uint256",
          "name": "startPrice",
          "type": "uint256"
        }
      ],
      "name": "FuturesMarketCreated",
      "type": "event"
    },
    {
      "anonymous": false,
      "inputs": [
        {
          "indexed": true,
          "internalType": "bytes32",
          "name": "marketId",
          "type": "bytes32"
        },
        {
          "indexed": false,
          "internalType": "uint256",
          "name": "finalPrice",
          "type": "uint256"
        },
        {
          "indexed": true,
          "internalType": "address",
          "name": "settler",
          "type": "address"
        }
      ],
      "name": "MarketSettled",
      "type": "event"
    },
    {
      "inputs": [
        {
          "internalType": "bytes32",
          "name": "marketId",
          "type": "bytes32"
        },
        {
          "internalType": "address",
          "name": "oracle",
          "type": "address"
        }
      ],
      "name": "assignCustomOracle",
      "outputs": [],
      "stateMutability": "nonpayable",
      "type": "function"
    },
    {
      "inputs": [
        {
          "internalType": "bytes32[]",
          "name": "marketIds",
          "type": "bytes32[]"
        },
        {
          "internalType": "uint256[]",
          "name": "prices",
          "type": "uint256[]"
        }
      ],
      "name": "batchUpdatePrices",
      "outputs": [],
      "stateMutability": "nonpayable",
      "type": "function"
    },
    {
      "inputs": [],
      "name": "bondManager",
      "outputs": [
        {
          "internalType": "address",
          "name": "",
          "type": "address"
        }
      ],
      "stateMutability": "view",
      "type": "function"
    },
    {
      "inputs": [
        {
          "components": [
            {
              "internalType": "address",
              "name": "facetAddress",
              "type": "address"
            },
            {
              "internalType": "enum IDiamondCut.FacetCutAction",
              "name": "action",
              "type": "uint8"
            },
            {
              "internalType": "bytes4[]",
              "name": "functionSelectors",
              "type": "bytes4[]"
            }
          ],
          "internalType": "struct IDiamondCut.FacetCut[]",
          "name": "cut",
          "type": "tuple[]"
        }
      ],
      "name": "computeCutHash",
      "outputs": [
        {
          "internalType": "bytes32",
          "name": "",
          "type": "bytes32"
        }
      ],
      "stateMutability": "pure",
      "type": "function"
    },
    {
      "inputs": [
        {
          "internalType": "string",
          "name": "marketSymbol",
          "type": "string"
        },
        {
          "internalType": "string",
          "name": "metricUrl",
          "type": "string"
        },
        {
          "internalType": "uint256",
          "name": "settlementDate",
          "type": "uint256"
        },
        {
          "internalType": "uint256",
          "name": "startPrice",
          "type": "uint256"
        },
        {
          "internalType": "string",
          "name": "dataSource",
          "type": "string"
        },
        {
          "internalType": "bytes32",
          "name": "tagsHash",
          "type": "bytes32"
        },
        {
          "internalType": "address",
          "name": "diamondOwner",
          "type": "address"
        },
        {
          "internalType": "bytes32",
          "name": "cutHash",
          "type": "bytes32"
        },
        {
          "internalType": "address",
          "name": "initFacet",
          "type": "address"
        },
        {
          "internalType": "address",
          "name": "creator",
          "type": "address"
        },
        {
          "internalType": "uint256",
          "name": "nonce",
          "type": "uint256"
        },
        {
          "internalType": "uint256",
          "name": "deadline",
          "type": "uint256"
        }
      ],
      "name": "computeStructHash",
      "outputs": [
        {
          "internalType": "bytes32",
          "name": "",
          "type": "bytes32"
        }
      ],
      "stateMutability": "pure",
      "type": "function"
    },
    {
      "inputs": [
        {
          "internalType": "string[]",
          "name": "tags",
          "type": "string[]"
        }
      ],
      "name": "computeTagsHash",
      "outputs": [
        {
          "internalType": "bytes32",
          "name": "",
          "type": "bytes32"
        }
      ],
      "stateMutability": "pure",
      "type": "function"
    },
    {
      "inputs": [
        {
          "internalType": "address",
          "name": "_umaOracle",
          "type": "address"
        },
        {
          "internalType": "address",
          "name": "_defaultOracle",
          "type": "address"
        },
        {
          "internalType": "address",
          "name": "_oracleAdmin",
          "type": "address"
        }
      ],
      "name": "configureOracles",
      "outputs": [],
      "stateMutability": "nonpayable",
      "type": "function"
    },
    {
      "inputs": [
        {
          "internalType": "string",
          "name": "",
          "type": "string"
        },
        {
          "internalType": "string",
          "name": "",
          "type": "string"
        },
        {
          "internalType": "uint256",
          "name": "",
          "type": "uint256"
        },
        {
          "internalType": "uint256",
          "name": "",
          "type": "uint256"
        },
        {
          "internalType": "string",
          "name": "",
          "type": "string"
        },
        {
          "internalType": "string[]",
          "name": "",
          "type": "string[]"
        },
        {
          "internalType": "uint256",
          "name": "",
          "type": "uint256"
        },
        {
          "internalType": "uint256",
          "name": "",
          "type": "uint256"
        }
      ],
      "name": "createFuturesMarket",
      "outputs": [
        {
          "internalType": "address",
          "name": "",
          "type": "address"
        },
        {
          "internalType": "bytes32",
          "name": "",
          "type": "bytes32"
        }
      ],
      "stateMutability": "pure",
      "type": "function"
    },
    {
      "inputs": [
        {
          "internalType": "string",
          "name": "marketSymbol",
          "type": "string"
        },
        {
          "internalType": "string",
          "name": "metricUrl",
          "type": "string"
        },
        {
          "internalType": "uint256",
          "name": "settlementDate",
          "type": "uint256"
        },
        {
          "internalType": "uint256",
          "name": "startPrice",
          "type": "uint256"
        },
        {
          "internalType": "string",
          "name": "dataSource",
          "type": "string"
        },
        {
          "internalType": "string[]",
          "name": "tags",
          "type": "string[]"
        },
        {
          "internalType": "address",
          "name": "diamondOwner",
          "type": "address"
        },
        {
          "components": [
            {
              "internalType": "address",
              "name": "facetAddress",
              "type": "address"
            },
            {
              "internalType": "enum IDiamondCut.FacetCutAction",
              "name": "action",
              "type": "uint8"
            },
            {
              "internalType": "bytes4[]",
              "name": "functionSelectors",
              "type": "bytes4[]"
            }
          ],
          "internalType": "struct IDiamondCut.FacetCut[]",
          "name": "cut",
          "type": "tuple[]"
        },
        {
          "internalType": "address",
          "name": "initFacet",
          "type": "address"
        },
        {
          "internalType": "bytes",
          "name": "",
          "type": "bytes"
        }
      ],
      "name": "createFuturesMarketDiamond",
      "outputs": [
        {
          "internalType": "address",
          "name": "orderBook",
          "type": "address"
        },
        {
          "internalType": "bytes32",
          "name": "marketId",
          "type": "bytes32"
        }
      ],
      "stateMutability": "nonpayable",
      "type": "function"
    },
    {
      "inputs": [
        {
          "internalType": "address",
          "name": "orderBook",
          "type": "address"
        }
      ],
      "name": "deactivateFuturesMarket",
      "outputs": [],
      "stateMutability": "nonpayable",
      "type": "function"
    },
    {
      "inputs": [
        {
          "internalType": "bytes32",
          "name": "marketId",
          "type": "bytes32"
        }
      ],
      "name": "disableMarketLeverage",
      "outputs": [],
      "stateMutability": "nonpayable",
      "type": "function"
    },
    {
      "inputs": [],
      "name": "eip712Domain",
      "outputs": [
        {
          "internalType": "bytes1",
          "name": "fields",
          "type": "bytes1"
        },
        {
          "internalType": "string",
          "name": "name",
          "type": "string"
        },
        {
          "internalType": "string",
          "name": "version",
          "type": "string"
        },
        {
          "internalType": "uint256",
          "name": "chainId",
          "type": "uint256"
        },
        {
          "internalType": "address",
          "name": "verifyingContract",
          "type": "address"
        },
        {
          "internalType": "bytes32",
          "name": "salt",
          "type": "bytes32"
        },
        {
          "internalType": "uint256[]",
          "name": "extensions",
          "type": "uint256[]"
        }
      ],
      "stateMutability": "view",
      "type": "function"
    },
    {
      "inputs": [],
      "name": "eip712DomainInfo",
      "outputs": [
        {
          "internalType": "string",
          "name": "name",
          "type": "string"
        },
        {
          "internalType": "string",
          "name": "version",
          "type": "string"
        },
        {
          "internalType": "uint256",
          "name": "chainId",
          "type": "uint256"
        },
        {
          "internalType": "address",
          "name": "verifyingContract",
          "type": "address"
        },
        {
          "internalType": "bytes32",
          "name": "domainSeparator",
          "type": "bytes32"
        }
      ],
      "stateMutability": "view",
      "type": "function"
    },
    {
      "inputs": [
        {
          "internalType": "bytes32",
          "name": "marketId",
          "type": "bytes32"
        },
        {
          "internalType": "uint256",
          "name": "emergencyPrice",
          "type": "uint256"
        },
        {
          "internalType": "string",
          "name": "reason",
          "type": "string"
        }
      ],
      "name": "emergencyPriceUpdate",
      "outputs": [],
      "stateMutability": "nonpayable",
      "type": "function"
    },
    {
      "inputs": [
        {
          "internalType": "bytes32",
          "name": "marketId",
          "type": "bytes32"
        },
        {
          "internalType": "uint256",
          "name": "maxLeverage",
          "type": "uint256"
        },
        {
          "internalType": "uint256",
          "name": "marginRequirementBps",
          "type": "uint256"
        }
      ],
      "name": "enableMarketLeverage",
      "outputs": [],
      "stateMutability": "nonpayable",
      "type": "function"
    },
    {
      "inputs": [],
      "name": "getAllMarkets",
      "outputs": [
        {
          "internalType": "bytes32[]",
          "name": "",
          "type": "bytes32[]"
        }
      ],
      "stateMutability": "view",
      "type": "function"
    },
    {
      "inputs": [
        {
          "internalType": "bytes32",
          "name": "marketId",
          "type": "bytes32"
        }
      ],
      "name": "getCurrentOraclePrice",
      "outputs": [
        {
          "internalType": "uint256",
          "name": "price",
          "type": "uint256"
        },
        {
          "internalType": "uint256",
          "name": "timestamp",
          "type": "uint256"
        }
      ],
      "stateMutability": "view",
      "type": "function"
    },
    {
      "inputs": [],
      "name": "getDefaultParameters",
      "outputs": [
        {
          "internalType": "uint256",
          "name": "marginRequirement",
          "type": "uint256"
        },
        {
          "internalType": "uint256",
          "name": "fee",
          "type": "uint256"
        }
      ],
      "stateMutability": "view",
      "type": "function"
    },
    {
      "inputs": [
        {
          "internalType": "bytes32",
          "name": "marketId",
          "type": "bytes32"
        }
      ],
      "name": "getMarketLeverageInfo",
      "outputs": [
        {
          "internalType": "bool",
          "name": "enabled",
          "type": "bool"
        },
        {
          "internalType": "uint256",
          "name": "maxLeverage",
          "type": "uint256"
        },
        {
          "internalType": "uint256",
          "name": "marginRequirement",
          "type": "uint256"
        },
        {
          "internalType": "address",
          "name": "controller",
          "type": "address"
        }
      ],
      "stateMutability": "view",
      "type": "function"
    },
    {
      "inputs": [
        {
          "internalType": "bytes32",
          "name": "marketId",
          "type": "bytes32"
        }
      ],
      "name": "getMarketOracleConfig",
      "outputs": [
        {
          "internalType": "address",
          "name": "customOracle",
          "type": "address"
        },
        {
          "internalType": "bytes32",
          "name": "umaRequestId",
          "type": "bytes32"
        },
        {
          "internalType": "bool",
          "name": "hasUmaRequest",
          "type": "bool"
        }
      ],
      "stateMutability": "view",
      "type": "function"
    },
    {
      "inputs": [
        {
          "internalType": "bytes32",
          "name": "marketId",
          "type": "bytes32"
        }
      ],
      "name": "getMarketSymbol",
      "outputs": [
        {
          "internalType": "string",
          "name": "",
          "type": "string"
        }
      ],
      "stateMutability": "view",
      "type": "function"
    },
    {
      "inputs": [
        {
          "internalType": "bytes32",
          "name": "marketId",
          "type": "bytes32"
        }
      ],
      "name": "getOrderBookForMarket",
      "outputs": [
        {
          "internalType": "address",
          "name": "",
          "type": "address"
        }
      ],
      "stateMutability": "view",
      "type": "function"
    },
    {
      "inputs": [
        {
          "internalType": "bytes32",
          "name": "marketId",
          "type": "bytes32"
        },
        {
          "internalType": "uint256",
          "name": "finalPrice",
          "type": "uint256"
        }
      ],
      "name": "manualSettle",
      "outputs": [],
      "stateMutability": "nonpayable",
      "type": "function"
    },
    {
      "inputs": [
        {
          "internalType": "string",
          "name": "marketSymbol",
          "type": "string"
        },
        {
          "internalType": "string",
          "name": "metricUrl",
          "type": "string"
        },
        {
          "internalType": "uint256",
          "name": "settlementDate",
          "type": "uint256"
        },
        {
          "internalType": "uint256",
          "name": "startPrice",
          "type": "uint256"
        },
        {
          "internalType": "string",
          "name": "dataSource",
          "type": "string"
        },
        {
          "internalType": "string[]",
          "name": "tags",
          "type": "string[]"
        },
        {
          "internalType": "address",
          "name": "diamondOwner",
          "type": "address"
        },
        {
          "components": [
            {
              "internalType": "address",
              "name": "facetAddress",
              "type": "address"
            },
            {
              "internalType": "enum IDiamondCut.FacetCutAction",
              "name": "action",
              "type": "uint8"
            },
            {
              "internalType": "bytes4[]",
              "name": "functionSelectors",
              "type": "bytes4[]"
            }
          ],
          "internalType": "struct IDiamondCut.FacetCut[]",
          "name": "cut",
          "type": "tuple[]"
        },
        {
          "internalType": "address",
          "name": "initFacet",
          "type": "address"
        },
        {
          "internalType": "address",
          "name": "creator",
          "type": "address"
        },
        {
          "internalType": "uint256",
          "name": "nonce",
          "type": "uint256"
        },
        {
          "internalType": "uint256",
          "name": "deadline",
          "type": "uint256"
        },
        {
          "internalType": "bytes",
          "name": "signature",
          "type": "bytes"
        }
      ],
      "name": "metaCreateFuturesMarketDiamond",
      "outputs": [
        {
          "internalType": "address",
          "name": "orderBook",
          "type": "address"
        },
        {
          "internalType": "bytes32",
          "name": "marketId",
          "type": "bytes32"
        }
      ],
      "stateMutability": "nonpayable",
      "type": "function"
    },
    {
      "inputs": [
        {
          "internalType": "address",
          "name": "",
          "type": "address"
        }
      ],
      "name": "metaCreateNonce",
      "outputs": [
        {
          "internalType": "uint256",
          "name": "",
          "type": "uint256"
        }
      ],
      "stateMutability": "view",
      "type": "function"
    },
    {
      "inputs": [
        {
          "internalType": "bytes32",
          "name": "marketId",
          "type": "bytes32"
        }
      ],
      "name": "requestPriceUpdate",
      "outputs": [],
      "stateMutability": "nonpayable",
      "type": "function"
    },
    {
      "inputs": [
        {
          "internalType": "bytes32",
          "name": "marketId",
          "type": "bytes32"
        }
      ],
      "name": "requestUMASettlement",
      "outputs": [],
      "stateMutability": "nonpayable",
      "type": "function"
    },
    {
      "inputs": [
        {
          "internalType": "address",
          "name": "newBondManager",
          "type": "address"
        }
      ],
      "name": "setBondManager",
      "outputs": [],
      "stateMutability": "nonpayable",
      "type": "function"
    },
    {
      "inputs": [
        {
          "internalType": "bytes32",
          "name": "marketId",
          "type": "bytes32"
        },
        {
          "internalType": "address",
          "name": "controller",
          "type": "address"
        }
      ],
      "name": "setMarketLeverageController",
      "outputs": [],
      "stateMutability": "nonpayable",
      "type": "function"
    },
    {
      "inputs": [
        {
          "internalType": "uint256",
          "name": "rewardAmount",
          "type": "uint256"
        }
      ],
      "name": "setOracleReward",
      "outputs": [],
      "stateMutability": "nonpayable",
      "type": "function"
    },
    {
      "inputs": [
        {
          "internalType": "address",
          "name": "_currency",
          "type": "address"
        }
      ],
      "name": "setUmaCurrency",
      "outputs": [],
      "stateMutability": "nonpayable",
      "type": "function"
    },
    {
      "inputs": [
        {
          "internalType": "bytes32",
          "name": "marketId",
          "type": "bytes32"
        }
      ],
      "name": "settleMarketWithUMA",
      "outputs": [],
      "stateMutability": "nonpayable",
      "type": "function"
    },
    {
      "inputs": [
        {
          "internalType": "bool",
          "name": "enabled",
          "type": "bool"
        }
      ],
      "name": "togglePublicMarketCreation",
      "outputs": [],
      "stateMutability": "nonpayable",
      "type": "function"
    },
    {
      "inputs": [
        {
          "internalType": "address",
          "name": "newAdmin",
          "type": "address"
        }
      ],
      "name": "updateAdmin",
      "outputs": [],
      "stateMutability": "nonpayable",
      "type": "function"
    },
    {
      "inputs": [
        {
          "internalType": "uint256",
          "name": "_defaultMarginRequirementBps",
          "type": "uint256"
        },
        {
          "internalType": "bool",
          "name": "_defaultLeverageEnabled",
          "type": "bool"
        }
      ],
      "name": "updateDefaultLeverageSettings",
      "outputs": [],
      "stateMutability": "nonpayable",
      "type": "function"
    },
    {
      "inputs": [
        {
          "internalType": "uint256",
          "name": "marginRequirementBps",
          "type": "uint256"
        },
        {
          "internalType": "uint256",
          "name": "tradingFee",
          "type": "uint256"
        }
      ],
      "name": "updateDefaultParameters",
      "outputs": [],
      "stateMutability": "nonpayable",
      "type": "function"
    },
    {
      "inputs": [
        {
          "internalType": "address",
          "name": "newFeeRecipient",
          "type": "address"
        }
      ],
      "name": "updateFeeRecipient",
      "outputs": [],
      "stateMutability": "nonpayable",
      "type": "function"
    },
    {
      "inputs": [
        {
          "internalType": "uint256",
          "name": "newFee",
          "type": "uint256"
        }
      ],
      "name": "updateMarketCreationFee",
      "outputs": [],
      "stateMutability": "nonpayable",
      "type": "function"
    },
    {
      "inputs": [
        {
          "internalType": "address",
          "name": "newOracleAdmin",
          "type": "address"
        }
      ],
      "name": "updateOracleAdmin",
      "outputs": [],
      "stateMutability": "nonpayable",
      "type": "function"
    },
    {
      "inputs": [
        {
          "internalType": "address",
          "name": "newVault",
          "type": "address"
        }
      ],
      "name": "updateVault",
      "outputs": [],
      "stateMutability": "nonpayable",
      "type": "function"
    },
    {
      "inputs": [],
      "name": "vault",
      "outputs": [
        {
          "internalType": "contract CoreVault",
          "name": "",
          "type": "address"
        }
      ],
      "stateMutability": "view",
      "type": "function"
    }
  ],
  "bytecode": "0x6101603462000252576001600160401b03601f6200625638819003918201601f191684019190838311858410176200023c5781606092869260409586528339810103126200025257620000528362000273565b906200006e81620000666020870162000273565b950162000273565b928151926200007d8462000257565b600f845260208401946e4465786574657261466163746f727960881b8652835196620000a98862000257565b6001885260208801603160f81b8152620000c38762000288565b97610120988952620000d58a6200045b565b97610140988952519020988960e0525190209761010098808a524660a05286519060208201927f8b73c3c69bb8fe3d512ecc4cf759cc79239f7b179b0ffacaa9a75d522b39400f84528883015260608201524660808201523060a082015260a0815260c0810195818710908711176200023c578587525190206080523060c052612710600755600a600855600160ff198060095416600955629896806017556305f5e100601a55601b541617601b5560018060a01b03809316938415801562000231575b801562000226575b620002175750829060018060a01b03199485600254161760025516836003541617600355169060045416176004555191615c4d9384620006098539608051846133ce015260a05184613499015260c05184613396015260e0518461341d0152518361344301525182611bdb01525181611c070152f35b63d92e233d60e01b8152600490fd5b5083831615620001a1565b508382161562000199565b634e487b7160e01b600052604160045260246000fd5b600080fd5b604081019081106001600160401b038211176200023c57604052565b51906001600160a01b03821682036200025257565b8051602091908281101562000327575090601f825111620002c65780825192015190808310620002b757501790565b82600019910360031b1b161790565b90604051809263305a27a960e01b82528060048301528251908160248401526000935b8285106200030d575050604492506000838284010152601f80199101168101030190fd5b8481018201518686016044015293810193859350620002e9565b6001600160401b0381116200023c576000928354926001938481811c9116801562000450575b838210146200043c57601f811162000406575b5081601f84116001146200039f5750928293918392869462000393575b50501b916000199060031b1c191617905560ff90565b0151925038806200037d565b919083601f1981168780528488209488905b88838310620003eb5750505010620003d1575b505050811b01905560ff90565b015160001960f88460031b161c19169055388080620003c4565b858701518855909601959485019487935090810190620003b1565b85805284601f848820920160051c820191601f860160051c015b8281106200043057505062000360565b87815501859062000420565b634e487b7160e01b86526022600452602486fd5b90607f16906200034d565b805160209081811015620004e95750601f825111620004885780825192015190808310620002b757501790565b90604051809263305a27a960e01b82528060048301528251908160248401526000935b828510620004cf575050604492506000838284010152601f80199101168101030190fd5b8481018201518686016044015293810193859350620004ab565b9192916001600160401b0381116200023c5760019182548381811c91168015620005fd575b82821014620005e757601f8111620005ae575b5080601f83116001146200056157508192939460009262000555575b5050600019600383901b1c191690821b17905560ff90565b0151905038806200053d565b90601f198316958460005282600020926000905b888210620005965750508385969710620003d157505050811b01905560ff90565b80878596829496860151815501950193019062000575565b8360005283601f83600020920160051c820191601f850160051c015b828110620005da57505062000521565b60008155018490620005ca565b634e487b7160e01b600052602260045260246000fd5b90607f16906200050e56fe608060405260043610156200001357600080fd5b6000803560e01c806309fd71a21462002ca55780630bf100321462002b7c5780630c682669146200293b578063109388b1146200279b5780631edefe3414620027175780631fa02e7b14620026bf578063299841aa146200266c57806330618f4114620025c657806333916d7c146200257c578063363cc427146200255157806337c8320714620024365780633d665d0e146200240157806344ba68f214620023b5578063476cfd25146200238e57806348d3fed314620023465780634bd6b0af146200223557806362adcbef14620021bf578063650ef52f1462001fc6578063653ea1621462001ed55780636695f14c1462001dd05780636a3006961462001d2e5780636a7a0e961462001cf157806384b0196e1462001bc257806384c3c30b1462001b2157806385b370ee1462001a825780638c5046f51462001a2f5780638f955ce714620019d9578063b0772d0b146200193b578063b698fdf314620018d0578063ba3eba07146200184e578063bbd96ca91462001803578063c349e28a1462001756578063d64bd7b91462000db2578063df5bfa3814620004c3578063e2f273bd1462000474578063e7563f3f1462000421578063e847d21614620003f1578063f1229af814620002dd578063f160d3691462000266578063f5c9278014620002375763fbfa77cf146200020a57600080fd5b3462000234578060031936011262000234576002546040516001600160a01b039091168152602090f35b80fd5b503462000234576020366003190112620002345760406200025a60043562003bef565b82519182526020820152f35b50346200023457602036600319011262000234576200028462002d26565b6003546001600160a01b03919082163303620002cb57168015620002b957600480546001600160a01b03191691909117905580f35b60405163d92e233d60e01b8152600490fd5b604051634755657960e01b8152600490fd5b50346200023457606036600319011262000234576004356024356044356001600160401b038111620003ed576200031990369060040162002ecd565b6003546001600160a01b0393919084163303620002cb57818552600c60205260ff60408620541615620003db578215620003ca575115620003b85783926002541691823b15620003b3576044849283604051958694859363dee0f5e560e01b8552600485015260248401525af18015620003a857620003955750f35b620003a09062002e17565b620002345780f35b6040513d84823e3d90fd5b505050fd5b60405163bc7fd33160e01b8152600490fd5b60405162fc7cad60e51b8152600490fd5b6040516307db1be560e41b8152600490fd5b8380fd5b50346200023457602036600319011262000234576003546001600160a01b03163303620002cb57600435601a5580f35b50346200023457602036600319011262000234576200043f62002d26565b6003546001600160a01b03919082163303620002cb57168015620002b957600280546001600160a01b03191691909117905580f35b50346200023457602036600319011262000234576200049262002d26565b600354906001600160a01b03908183163303620002cb5716908115620002b9576001600160a01b0319161760035580f35b5034620002345761014036600319011262000234576004356001600160401b03811162000a3957620004fa90369060040162002ecd565b906024356001600160401b03811162000a39576200051d90369060040162002ecd565b916084356001600160401b03811162000dae576200054090369060040162002ecd565b9260a4356001600160401b038111620003ed576200056390369060040162002f67565b6200056d62002d3d565b9060e4356001600160401b03811162000c335762000590903690600401620030ea565b906200059b62002d54565b96610124356001600160401b03811162000cf0573660238201121562000cf057620005d190369060248160040135910162002e83565b5060ff601b5416801562000d99575b1562000d87578551801590811562000d7b575b5062000d69578451801590811562000d5c575b5062000d4a57426044351180159062000d1c575b62000d0a5760643515620003ca57511562000c4657600a90511162000c46576001600160a01b03821615620002b957601a548015158062000cf4575b62000c6a575b50604051602081019062000689816200067a4342338a8c89620037c8565b03601f19810183528262002e47565b51902095868652600c60205260ff60408720541662000c58576005546001600160a01b0316801562000c4657803b1562000c4257604051637d6746db60e01b81529087908290818381620006e2338f600484016200381a565b03925af1801562000c375790879162000c1b575b50506001600160a01b03811615620002b957600254600454604051632b6c8a5b60e11b602082015293916200075491859162000745916001600160a01b03908116918d911660248501620037a5565b03601f19810185528462002e47565b60405193611ea3808601906001600160401b0382118783101762000c0757918695939162000789959362003d35883962003833565b039084f092831562000bfb576002546001600160a01b0316803b1562000a395760405163e1379dbb60e01b81526001600160a01b03861660048201529082908290602490829084905af18015620003a85790829162000be3575b50506002546001600160a01b0316803b1562000a395760405163539bea8d60e01b81529082908290818381620008276001600160a01b038c168d600484016200381a565b03925af18015620003a85790829162000bcb575b50859052600a6020908152604080832080546001600160a01b03199081166001600160a01b038916908117909255908452600b8352818420889055878452600c8352818420805460ff19166001179055600d8352818420805490911633179055600e909152812083516001600160401b03811162000afb57620008bf825462003108565b601f811162000b84575b50806020601f821160011462000b1b57849162000b0f575b508160011b916000199060031b1c19161790555b620009008562003944565b848152600f6020526040812082516001600160401b03811162000afb5762000929825462003108565b601f811162000ab0575b50806020601f821160011462000a4957849162000a3d575b508160011b916000199060031b1c19161790555b84815260106020526040812060443590556002546001600160a01b0316803b1562000a395781809160446040518094819363dee0f5e560e01b83528b600484015260643560248401525af18015620003a857908693929162000a1b575b5050601a5460405133946001600160a01b0387169360008051602062005bd8833981519152938392620009f8926064359260443592866200396e565b0390a4604080516001600160a01b039290921682526020820192909252f35b0390f35b8192935062000a2a9062002e17565b620002345790818592620009bc565b5080fd5b9050840151386200094b565b838552602085209150601f198316855b81811062000a975750908360019493921062000a7d575b5050811b0190556200095f565b86015160001960f88460031b161c19169055388062000a70565b9192602060018192868b01518155019401920162000a59565b82845260208420601f830160051c8101916020841062000af0575b601f0160051c01905b81811062000ae3575062000933565b6000815560010162000ad4565b909150819062000acb565b634e487b7160e01b83526041600452602483fd5b905085015138620008e1565b91508284526020842084925b601f198316841062000b6b576001935082601f1981161062000b51575b5050811b019055620008f5565b87015160001960f88460031b161c19169055388062000b44565b8781015182556020938401936001909201910162000b27565b82845260208420601f830160051c81016020841062000bc3575b601f830160051c8201811062000bb6575050620008c9565b6000815560010162000b9e565b508062000b9e565b62000bd69062002e17565b620002345780386200083b565b62000bee9062002e17565b62000234578038620007e3565b604051903d90823e3d90fd5b634e487b7160e01b8a52604160045260248afd5b62000c269062002e17565b62000c33578538620006f6565b8580fd5b6040513d89823e3d90fd5b8680fd5b60405163b4fa3fb360e01b8152600490fd5b6040516304a7adb960e51b8152600490fd5b6002546004546001600160a01b0390811692911690813b1562000cf05791879162000cae9383604051809681958294633eb29b8760e01b84523360048501620037a5565b03925af1801562000ce55790869162000cc9575b506200065c565b62000cd49062002e17565b62000ce157843862000cc2565b8480fd5b6040513d88823e3d90fd5b8780fd5b506003546001600160a01b031633141562000656565b60405163620fa5ab60e11b8152600490fd5b506301e13380420180421162000d3657604435116200061a565b634e487b7160e01b88526011600452602488fd5b60405163213b197b60e01b8152600490fd5b6101009150113862000606565b60405163ee79ac5160e01b8152600490fd5b604091501138620005f3565b604051636dfe746960e01b8152600490fd5b506003546001600160a01b03163314620005e0565b8280fd5b503462000234576101a036600319011262000234576004356001600160401b03811162000a395762000de990369060040162002ecd565b906024356001600160401b03811162000a395762000e0c90369060040162002ecd565b916084356001600160401b03811162000dae5762000e2f90369060040162002ecd565b9260a4356001600160401b038111620003ed5762000e5290369060040162002f67565b9362000e5d62002d3d565b60e4356001600160401b03811162000c335762000e7f903690600401620030ea565b9562000e8a62002d54565b9062000e9562002d6c565b93610184356001600160401b0381116200166c5762000eb990369060040162002de7565b9092885180159081156200174a575b5062000d6957875180159081156200173d575b5062000d4a5742604435118015906200170f575b62000d0a5760643515620003ca5782511562000c4657600a81511162000c46576001600160a01b038616158015620016fd575b8015620016eb575b620002b957610164354211620016d9576001600160a01b0387168a52600660205260408a20546101443503620016c7576200100a9360428a8862000fcb8f6200067a8e620010009a8f8e62000f8e62000f8762000ff99d620034eb565b966200358f565b98602081519101209360208151910120926020815191012098604051988997602089019b61016435978d610144359860643592604435926200371e565b51902062000fd862003393565b906040519161190160f01b8352600283015260228201522092369162002e83565b90620039ac565b9092919262003a68565b6001600160a01b03848116911603620016b55760ff601b541680156200169d575b1562000d875760016101443501610144351162001689576001600160a01b0383168652600660205260408620610144356001019055601a548015158062001670575b620015f5575b50604051602081019062001091816200067a4342898b8d89620037c8565b51902096878752600c60205260ff60408820541662000c58576005546001600160a01b0316801562000c4657803b1562000cf0578785620010eb928b83604051809681958294637d6746db60e01b8452600484016200381a565b03925af18015620015ea57899392918991620015cb575b5050600254600454604051632b6c8a5b60e11b6020820152946200114092869262000745926001600160a01b039182169290911660248501620037a5565b60405193611ea3808601906001600160401b03821187831017620015b757918695939162001175959362003d35883962003833565b039085f093841562000bfb576002546001600160a01b0316803b1562000a395760405163e1379dbb60e01b81526001600160a01b03871660048201529082908290602490829084905af18015620003a8579082916200159f575b50506002546001600160a01b0316803b1562000a395760405163539bea8d60e01b81529082908290818381620012136001600160a01b038d168e600484016200381a565b03925af18015620003a85790829162001587575b50869052600a6020908152604080832080546001600160a01b03199081166001600160a01b038a81169182179093558552600b84528285208a9055898552600c8452828520805460ff19166001179055600d84528285208054909116918616919091179055600e909152812084516001600160401b03811162000afb57620012b0825462003108565b601f811162001540575b50806020601f8211600114620014d7578491620014cb575b508160011b916000199060031b1c19161790555b620012f18662003944565b858152600f6020526040812083516001600160401b03811162000afb576200131a825462003108565b601f811162001484575b50806020601f82116001146200141b5784916200140f575b508160011b916000199060031b1c19161790555b85815260106020526040812060443590556002546001600160a01b0316803b1562000a395781809160446040518094819363dee0f5e560e01b83528c600484015260643560248401525af18015620003a857908794939291620013ef575b5050601a546040516001600160a01b03928316959287169360008051602062005bd88339815191529391928392620009f8926064359260443592866200396e565b8192939450620013ff9062002e17565b62000234579081869392620013ae565b9050850151386200133c565b91508284526020842084925b601f19831684106200146b576001935082601f1981161062001451575b5050811b01905562001350565b87015160001960f88460031b161c19169055388062001444565b8781015182556020938401936001909201910162001427565b82845260208420601f830160051c810160208410620014c3575b601f830160051c82018110620014b657505062001324565b600081556001016200149e565b50806200149e565b905086015138620012d2565b91508284526020842084925b601f198316841062001527576001935082601f198116106200150d575b5050811b019055620012e6565b88015160001960f88460031b161c19169055388062001500565b88810151825560209384019360019092019101620014e3565b82845260208420601f830160051c8101602084106200157f575b601f830160051c8201811062001572575050620012ba565b600081556001016200155a565b50806200155a565b620015929062002e17565b6200023457803862001227565b620015aa9062002e17565b62000234578038620011cf565b634e487b7160e01b8b52604160045260248bfd5b620015da919293945062002e17565b62000c4257908791873862001102565b6040513d8a823e3d90fd5b6002546004546001600160a01b0390811692911690813b156200166c57918891620016399383604051809681958294633eb29b8760e01b84528c60048501620037a5565b03925af1801562000c375790879162001654575b5062001073565b6200165f9062002e17565b62000c335785386200164d565b8880fd5b506003546001600160a01b03858116911614156200106d565b634e487b7160e01b86526011600452602486fd5b506003546001600160a01b038481169116146200102b565b604051635cd5d23360e01b8152600490fd5b6040516312f55d3b60e21b8152600490fd5b604051631fec337b60e21b8152600490fd5b506001600160a01b0387161562000f2a565b506001600160a01b0385161562000f22565b506301e13380420180421162001729576044351162000eef565b634e487b7160e01b8b52601160045260248bfd5b6101009150113862000edb565b60409150113862000ec8565b5034620002345760203660031901126200023457600435808252600c60205260ff60408320541615620003db576015546001600160a01b03168015620017f1578183928352600f60205260408320823b15620003b357620017de928492836040518096819582946313e942a560e31b8452600484015260406024840152604483019062003145565b03925af18015620003a857620003955750f35b60405163012fac1160e21b8152600490fd5b503462000234576020366003190112620002345760043580151580910362001849576003546001600160a01b03163303620002cb5760ff8019601b5416911617601b5580f35b600080fd5b503462000234576040366003190112620002345760035460243590600435906001600160a01b03163303620002cb576103e88082108015620018c4575b620018b2578211620018a05760075560085580f35b604051630120fd4960e21b8152600490fd5b60405163b5d4c3d760e01b8152600490fd5b5061271082116200188b565b50346200023457604036600319011262000234576004356024359081151580920362001849576003546001600160a01b03163303620002cb576103e8811080156200192f575b620018b25760075560ff80196009541691161760095580f35b50612710811162001916565b50346200023457806003193601126200023457604051809160195490818352602080930180926019835284832090835b818110620019c457505050846200198491038562002e47565b60405193838594850191818652518092526040850193925b828110620019ac57505050500390f35b8351855286955093810193928101926001016200199c565b8254845292860192600192830192016200196b565b5034620002345760203660031901126200023457600435906001600160401b0382116200023457602062001a2762001a2162001a19366004870162002cf3565b369162002eee565b620034eb565b604051908152f35b503462000234576020366003190112620002345762001a4d62002d26565b6003546001600160a01b03919082163303620002cb57168015620002b957601680546001600160a01b03191691909117905580f35b5034620002345761010036600319011262000234576001600160401b0360043581811162000dae5762001aba90369060040162002ecd565b5060243581811162000dae5762001ad690369060040162002ecd565b5060843581811162000dae5762001af290369060040162002ecd565b5060a43590811162000a395762001b0e90369060040162002f67565b5060405163131dd77b60e21b8152600490fd5b503462000234576040366003190112620002345760043562001b4262002d84565b6003546001600160a01b03919082163303620002cb57828452600c60205260ff60408520541615620003db578116908115620002b95783928352600a60205260408320541690813b1562001bbe5782916024839260405194859384926346c9eb6360e01b845260048401525af18015620003a857620003955750f35b5050fd5b5034620002345780600319360112620002345762001c007f0000000000000000000000000000000000000000000000000000000000000000620031e3565b9062001c2c7f0000000000000000000000000000000000000000000000000000000000000000620032e9565b60405160208082019391929091906001600160401b0385118486101762001cdb579282859362001c8f889662001c8098604052858552604051988998600f60f81b8a5260e0858b015260e08a019062002dc0565b9088820360408a015262002dc0565b924660608801523060808801528460a088015286840360c088015251928381520193925b82811062001cc357505050500390f35b83518552869550938101939281019260010162001cb3565b634e487b7160e01b600052604160045260246000fd5b50346200023457602036600319011262000234576020906040906001600160a01b0362001d1d62002d26565b168152600683522054604051908152f35b503462000234576040366003190112620002345760043562001d4f62002d84565b90808352600c60205260ff60408420541615620003db57808352600d60205260408320546001600160a01b03919082163314801562001dc2575b1562001db057835260116020526040832080546001600160a01b0319169190921617905580f35b60405163ea8e4eb560e01b8152600490fd5b508160035416331462001d89565b5034620002345760203660031901126200023457600435808252600c60205260ff60408320541615620003db578152600a6020526040808220549051636d64bcc960e01b8152906001600160a01b03906080908390600490829085165afa801562001eca578392848591869362001e61575b5060809550604051941515855260208501526040840152166060820152f35b94505050506080823d821162001ec1575b8162001e816080938362002e47565b8101031262000dae578151918215158303620003ed576020810151926060604083015192015190838216820362000c335760809550939190913862001e42565b3d915062001e72565b6040513d85823e3d90fd5b50346200023457604036600319011262000234576016546024359060043590336001600160a01b039182161490811562001fb7575b501562001db057808352600c60205260ff60408420541615620003db57808352601360205260ff60408420541662001fa55780835260106020526040832054421062001f9357811562001f815762001f63828262003b66565b60405191825260008051602062005bf883398151915260203393a380f35b6040516323da237d60e01b8152600490fd5b60405163c03deffd60e01b8152600490fd5b60405163d865994560e01b8152600490fd5b90506003541633143862001f0a565b50346200023457604036600319011262000234576001600160401b0360043581811162000dae573660238201121562000dae578060040135620020098162002e6b565b9262002019604051948562002e47565b8184526020928385016024809460051b8301019136831162000cf05784869101915b838310620021ae5750505050813590811162000ce1573660238201121562000ce1578060040135906200206e8262002e6b565b916200207e604051938462002e47565b808352838584019160051b8301019136831162000cf05784869101915b8383106200219d5750506016546001600160a01b03925082163314905080156200218f575b1562001db057845182510362000c4657845194865b868110620020e1578780f35b87620020ee8284620034c0565b51808252600c885260ff8060408420541690816200217b575b5062002119575b5050600101620020d5565b8460025416906200212b8488620034c0565b51823b15620003ed576044849283604051958694859363dee0f5e560e01b855260048501528d8401525af18015620003a857156200210e576200216e9062002e17565b62000cf05787386200210e565b905060138952604083205416153862002107565b5080600354163314620020c0565b82358152918101918691016200209b565b82358152918101918691016200203b565b5034620002345760603660031901126200023457620021dd62002d26565b620021e762002d84565b6001600160a01b03604435818116939290849003620018495781600354163303620002cb578160018060a01b0319931683601454161760145516816015541617601555601654161760165580f35b5034620002345761018036600319011262000234576001600160401b039060043582811162000a39576200226e90369060040162002de7565b602435848111620003ed576200228990369060040162002de7565b949093608435918211620002345750936200067a620023096200233b93620022b8602098369060040162002de7565b9290620022fa620022c862002d3d565b99620022eb620022d762002d54565b9a620022e262002d6c565b96369162002e83565b8c815191012097369162002e83565b8a815191012093369162002e83565b888151910120906040519687958a8701996101643595610144359560e435938d60a4359360643592604435926200371e565b519020604051908152f35b50346200023457602036600319011262000234576200236462002d26565b6003546001600160a01b03919082163303620002cb571660018060a01b0319600554161760055580f35b50346200023457806003193601126200023457604060075460085482519182526020820152f35b503462000234576020366003190112620002345760609060043581526011602052604060018060a01b038183205416916012602052205460405191825280602083015215156040820152f35b50346200023457602036600319011262000234576020906004358152600a8252604060018060a01b0391205416604051908152f35b5034620002345760208060031936011262000a3957600435808352600c825260ff60408420541615620003db578083526013825260ff60408420541662001fa557808352601282526040832054156200253f5760018060a01b036014541691818452601281528060408520546024604051809681936331d98b3f60e01b835260048301525afa92831562002534578493620024ff575b5083831315620003ca5760008051602062005bf883398151915290620024f3848462003b66565b6040519384523393a380f35b9080935081813d83116200252c575b6200251a818362002e47565b81010312620003ed57519138620024cc565b503d6200250e565b6040513d86823e3d90fd5b604051633658545f60e01b8152600490fd5b503462000234578060031936011262000234576005546040516001600160a01b039091168152602090f35b5034620002345760203660031901126200023457600354600435906001600160a01b03163303620002cb578015620025b45760175580f35b60405163fb93c7c760e01b8152600490fd5b5034620002345780600319360112620002345762002647604051620025eb8162002e2b565b600f81526e4465786574657261466163746f727960881b6020820152604051620026158162002e2b565b60018152603160f81b6020820152620026566200263162003393565b9160405194859460a0865260a086019062002dc0565b90848203602086015262002dc0565b9046604084015230606084015260808301520390f35b50346200023457602036600319011262000234576200268a62002d26565b6003546001600160a01b03919082163303620002cb57168015620002b957601880546001600160a01b03191691909117905580f35b5034620002345760203660031901126200023457620026fa62002702604062000a17936004358152600e602052206040519283809262003145565b038262002e47565b60405191829160208352602083019062002dc0565b5034620002345760203660031901126200023457600354600435906001600160a01b039081163303620002cb57818352600c60205260ff60408420541615620003db5782918252600a602052604082205416803b1562002798578180916004604051809481936376e329dd60e11b83525af18015620003a857620003955750f35b50fd5b5034620002345760208060031936011262000a395760043590818352600c815260ff60408420541615620003db578183526013815260ff60408420541662001fa557818352601081526040832054421062001f93576014546001600160a01b0390811691908215620017f15760185416918215620017f157620028d68291858752600f83526200286362002894602360408a20600e875260408b20601088526200287660408d2054916005604051978895632aa9261d60e11b8d880152602487019062003adc565b641629aca69d60d91b8152019062003adc565b9062162a1d60e91b8252600382015203600381018452018262002e47565b8688526010845287604081205460175497604051988996879586946311df92f160e01b86528d6004870152602486015260a0604486015260a485019062002dc0565b916064840152608483015203925af19182156200253457849262002905575b5060129192845252604082205580f35b91508082813d831162002933575b6200291f818362002e47565b81010312620003ed576012915191620028f5565b503d62002913565b5034620002345760208060031936011262000a39576001600160a01b0390816200296462002d26565b16918215620002b957828452600b82526040842054928315620003db57600392828454163314801562002b65575b1562001db057826005541692831562000c46578690843b1562000a3957604051632f2107a960e21b815287600482015282816064818360249a8a8c8401523360448401525af190811562001eca57839162002b4d575b505060025416803b1562000a39578180918660405180948193631740e71760e11b83528960048401525af18015620003a85762002b35575b50859052600a8152604080872080546001600160a01b0319169055918652600b815281862060009055848652600c90528420805460ff191690556019805493909190855b85811062002a70578680f35b8162002a7c8262003928565b905490871b1c1462002a915760010162002a64565b92939450508254916000199283810190811162002b225762002ac862002abb62002adf9262003928565b905490881b1c9262003928565b819391549060031b91821b91600019901b19161790565b9055825490811562002b10575081019262002afa8462003928565b81939154921b1b19169055553880808080808680f35b634e487b7160e01b8652603160045285fd5b634e487b7160e01b875260116004528287fd5b62002b409062002e17565b62000c3357853862002a20565b62002b589062002e17565b62000a39578138620029e8565b50848652600d815282604087205416331462002992565b50346200023457606036600319011262000234576003546024359060043590604435906001600160a01b039081163303620002cb57828552600c60205260ff60408620541615620003db57600184118062002c99575b1562002c875760648210158062002c7a575b15620018b257831562002c66578361271004821162002c555784928352600a60205260408320541692833b1562000dae57604490836040519586948593630e2b950560e21b8552600485015260248401525af18015620003a85762002c47575080f35b62002c529062002e17565b80f35b60405162f5f29560e01b8152600490fd5b634e487b7160e01b85526012600452602485fd5b5061271082111562002be4565b604051633fe89cb960e11b8152600490fd5b50606484111562002bd2565b5034620002345760203660031901126200023457600435906001600160401b0382116200023457602062001a2762002ced62002ce5366004870162002cf3565b369162002f85565b6200358f565b9181601f8401121562001849578235916001600160401b03831162001849576020808501948460051b0101116200184957565b600435906001600160a01b03821682036200184957565b60c435906001600160a01b03821682036200184957565b61010435906001600160a01b03821682036200184957565b61012435906001600160a01b03821682036200184957565b602435906001600160a01b03821682036200184957565b60005b83811062002daf5750506000910152565b818101518382015260200162002d9e565b9060209162002ddb8151809281855285808601910162002d9b565b601f01601f1916010190565b9181601f8401121562001849578235916001600160401b0383116200184957602083818601950101116200184957565b6001600160401b03811162001cdb57604052565b604081019081106001600160401b0382111762001cdb57604052565b601f909101601f19168101906001600160401b0382119082101762001cdb57604052565b6001600160401b03811162001cdb5760051b60200190565b9192916001600160401b03821162001cdb576040519162002eaf601f8201601f19166020018462002e47565b82948184528183011162001849578281602093846000960137010152565b9080601f83011215620018495781602062002eeb9335910162002e83565b90565b9291909262002efd8462002e6b565b9162002f0d604051938462002e47565b829480845260208094019060051b830192828411620018495780915b84831062002f3957505050505050565b82356001600160401b0381116200184957869162002f5b868493860162002ecd565b81520192019162002f29565b9080601f83011215620018495781602062002eeb9335910162002eee565b92919062002f938162002e6b565b9160409162002fa58351948562002e47565b8395818552602080950191600590811b820194848611620018495782935b86851062002fd5575050505050505050565b6001600160401b038535818111620018495785019060609182818a03126200184957845192830183811083821117620030d557855280356001600160a01b0381168103620018495783528a810135600381101562001849578b8401528481013591821162001849570187601f8201121562001849578035620030578162002e6b565b91620030668651938462002e47565b8183528b80840192881b820101908a82116200184957908c80959396949201955b818710620030a45750508394508582015281520194019362002fc3565b9395929450909282356001600160e01b0319811681036200184957818e92918392520192019492908c949262003087565b60246000634e487b7160e01b81526041600452fd5b9080601f83011215620018495781602062002eeb9335910162002f85565b90600182811c921680156200313a575b60208310146200312457565b634e487b7160e01b600052602260045260246000fd5b91607f169162003118565b9060009291805491620031588362003108565b918282526001938481169081600014620031bf57506001146200317c575b50505050565b90919394506000526020928360002092846000945b838610620031aa57505050500101903880808062003176565b80548587018301529401938590820162003191565b9294505050602093945060ff191683830152151560051b0101903880808062003176565b60ff8114620032255760ff811690601f8211620032135760405191620032098362002e2b565b8252602082015290565b604051632cd44ac360e21b8152600490fd5b506040516000818154916200323a8362003108565b808352600193808516908115620032c6575060011462003264575b5062002eeb9250038262002e47565b60008080527f290decd9548b62a8d60345a988386fc84ba6bc95484008f6362f93160ef3e56394602093509091905b818310620032ad57505062002eeb93508201013862003255565b8554878401850152948501948694509183019162003293565b905062002eeb94506020925060ff191682840152151560051b8201013862003255565b60ff81146200330f5760ff811690601f8211620032135760405191620032098362002e2b565b506040516000816001918254620033268162003108565b80845290848116908115620032c657506001146200334d575062002eeb9250038262002e47565b9280915060005260209081600020936000915b8183106200337a57505062002eeb93508201013862003255565b8554878401850152948501948694509183019162003360565b307f00000000000000000000000000000000000000000000000000000000000000006001600160a01b0316148062003496575b15620033f0577f000000000000000000000000000000000000000000000000000000000000000090565b60405160208101907f8b73c3c69bb8fe3d512ecc4cf759cc79239f7b179b0ffacaa9a75d522b39400f82527f000000000000000000000000000000000000000000000000000000000000000060408201527f000000000000000000000000000000000000000000000000000000000000000060608201524660808201523060a082015260a0815260c0810181811060018060401b0382111762001cdb5760405251902090565b507f00000000000000000000000000000000000000000000000000000000000000004614620033c6565b8051821015620034d55760209160051b010190565b634e487b7160e01b600052603260045260246000fd5b60609080516000905b80821062003509575050506020815191012090565b9091939260019062003560620035208588620034c0565b5191604051809382516200353d8160209586808701910162002d9b565b8201620035538251809386808501910162002d9b565b0103808452018262002e47565b9394920190620034f4565b906003821015620035795752565b634e487b7160e01b600052602160045260246000fd5b80516200359c8162002e6b565b916040620035ad8151948562002e47565b828452620035bb8362002e6b565b60209385850193601f199392840136863760005b828110620036255750505051838194820180965190949160005b8281106200360d575050505062003607920390810183528262002e47565b51902090565b835187529581019587945092810192600101620035e9565b9394936001600160a01b036200363c8284620034c0565b51511690876200364d8285620034c0565b510151916003831015620035795785620036688386620034c0565b51015186518a81018181938d808251949201936000915b818310620036f9575050506200369d9250038b810183528262002e47565b519020620036b78751948b8601938452888601906200356b565b606084810191909152835260808301926001600160401b0384118185101762001cdb576001938752519020620036ee828b620034c0565b5201949394620035cf565b600192945080919363ffffffff60e01b87511681520194019201849293918f6200367f565b9893909c9b9a97969491926101809a96936101a08b019e7fae50defb2e3ad99d3a134b02147763deaf13340e500f7037c8f9c64b7f9c233e8c5260208c015260408b015260608a0152608089015260a088015260c087015260018060a01b03938480931660e088015261010087015216610120850152166101408301526101608201520152565b6001600160a01b0391821681526020810192909252909116604082015260600190565b91620037f76020605497959694620037e882958281519485920162002d9b565b01918281519485920162002d9b565b60609490941b6001600160601b0319169301928352601483015260348201520190565b9081526001600160a01b03909116602082015260400190565b9094939192946080958683019660018060a01b0380931684526020978189860152865180915260a08501988060a08360051b880101980192600080915b848310620038995750505050505062002eeb959650166040820152606081840391015262002dc0565b9091928094959a8d609f198b83030190528b51908284606092838101938d8651168252620038ce84870151858401906200356b565b6040809601519582015284518094520192019085905b80821062003903575050509c81019c9a01949392600101919062003870565b82516001600160e01b03191684528894938401939092019160019190910190620038e4565b601954811015620034d557601960005260206000200190600090565b601954600160401b81101562001cdb5762002ac88160016200396a930160195562003928565b9055565b916080936200398e620039a2939897969860a0865260a086019062002dc0565b916020850152838203604085015262002dc0565b9460608201520152565b8151919060418303620039e057620039d992506020820151906060604084015193015160001a90620039eb565b9192909190565b505060009160029190565b91906fa2a8918ca85bafe22016d0b997e4df60600160ff1b03841162003a5c57926020929160ff608095604051948552168484015260408301526060820152600092839182805260015afa1562000bfb5780516001600160a01b0381161562003a5357918190565b50809160019190565b50505060009160039190565b600481101562003579578062003a7c575050565b6001810362003a975760405163f645eedf60e01b8152600490fd5b6002810362003ab95760405163fce698f760e01b815260048101839052602490fd5b60031462003ac45750565b602490604051906335e2f38360e21b82526004820152fd5b60009291815462003aed8162003108565b9260019180831690811562003b4a575060011462003b0b5750505050565b90919293945060005260209081600020906000915b85831062003b38575050505001903880808062003176565b80548584015291830191810162003b20565b60ff191684525050508115159091020191503880808062003176565b6000818152601360205260408120805460ff191660011790556002546001600160a01b0316929091833b1562000dae57906044839283604051968794859363dee0f5e560e01b8552600485015260248401525af190811562000bfb575062003bcb5750565b62003bd69062002e17565b565b919082604091031262001849576020825192015190565b600090808252602091600c835260409260ff84832054161562003d235782825260118152838220546001600160a01b039081168062003cb0575080601554168062003cb05750819060025416936024865180968193637698aa3360e01b835260048301525afa93841562003ca55750819362003c6e575b505050904290565b9091809350813d831162003c9d575b62003c89818362002e47565b810103126200023457505138808062003c66565b503d62003c7d565b51913d9150823e3d90fd5b92939050849594915060248251809481936331d98b3f60e01b835260048301525afa93841562003ca557829462003ce8575b50509190565b62003d1193945080919250903d1062003d1b575b62003d08818362002e47565b81019062003bd8565b9190388062003ce2565b503d62003cfc565b83516307db1be560e41b8152600490fdfe60406080815234620001035762001ea3803803806200001e8162000261565b92833960808282810103126200010357620000398262000287565b60208301519091906001600160401b0381116200010357818401601f828601011215620001035780840151906200007a62000074836200029c565b62000261565b91602083828152019184870160208360051b838a010101116200010357602081880101925b60208360051b838a0101018410620001085750505050620000c285850162000287565b6060850151949092906001600160401b0386116200010357620000f595620000ee9282019101620002f5565b9262000337565b51611221908162000c628239f35b600080fd5b83516001600160401b03811162000103578289010160609081601f19828a8d0103011262000103576200013a6200021b565b91620001496020830162000287565b83528b820151600381101562000103576020840152810151906001600160401b038211620001035701878a01603f8201121562000103576020810151906200019562000074836200029c565b82815291602083018a8d01600583901b84018f01116200010357918d8101908e5b8360051b8201018210620001db57505050508a8201528152602093840193016200009f565b8151936001600160e01b03198516850362000103578f9481602092918392520192019193620001b6565b634e487b7160e01b600052604160045260246000fd5b60405190606082016001600160401b038111838210176200023b57604052565b62000205565b60408051919082016001600160401b038111838210176200023b57604052565b6040519190601f01601f191682016001600160401b038111838210176200023b57604052565b51906001600160a01b03821682036200010357565b6001600160401b0381116200023b5760051b60200190565b6001600160401b0381116200023b57601f01601f191660200190565b60005b838110620002e45750506000910152565b8181015183820152602001620002d3565b81601f8201121562000103578051620003126200007482620002b4565b92818452602082840101116200010357620003349160208085019101620002d0565b90565b7fc8fcad8db84d3cc18b4c41d551ea0ee66dd599cde068d998e57d5e09332c131f80546001600160a01b038381166001600160a01b0319831617909255929593949281169116907f8be0079c531659141344cd1fd0a4f28419497f9722a3daafe3b4186f6b6457e0600080a360005b84518110156200048957620003ca6020620003c2838862000532565b51016200056e565b620003e8620003da838862000532565b51516001600160a01b031690565b604080620003f7858a62000532565b5101519262000406816200054d565b806200042b5750506200042592916200041f91620007f6565b62000506565b620003a6565b62000436816200054d565b60018103620004525750506200042592916200041f916200093f565b600291925062000462816200054d565b03620004795750906200041f620004259262000adb565b5163e548e6b560e01b8152600490fd5b509092917f8faa70878671ccd212d20771b795c50af8fd3ff6cf27f4bde57e5d4de0aeb67381620004cf94620004c68560405193849384620005a3565b0390a162000bd0565b565b80546001600160a01b0319166001600160a01b03909216919091179055565b634e487b7160e01b600052601160045260246000fd5b6000198114620005165760010190565b620004f0565b634e487b7160e01b600052603260045260246000fd5b8051821015620005475760209160051b010190565b6200051c565b600311156200055857565b634e487b7160e01b600052602160045260246000fd5b516003811015620005585790565b906020916200059781518092818552858086019101620002d0565b601f01601f1916010190565b93929093606092838201848352865180915260809485840191868160051b860101966020809a01936000915b8383106200060557505050505050620005f79062000334959683019060018060a01b03169052565b60408184039101526200057c565b909192939498607f198882030183528951908681019060018060a01b0383511681528d83015160038110156200055857848f9493928592838201528a604080960151958201528451809452019201906000905b808210620006795750505090806001929b01930193019194939290620005cf565b82516001600160e01b03191684528f9493840193909201916001919091019062000658565b63ffffffff60e01b166000527fc8fcad8db84d3cc18b4c41d551ea0ee66dd599cde068d998e57d5e09332c131c602052604060002090565b805461ffff60a01b191660a09290921b61ffff60a01b16919091179055565b61ffff6020620004cf936200071460018060a01b0382511685620004d1565b01511690620006d6565b9060008051602062001e8383398151915280548310156200054757600052601c60206000208360031c019260021b1690565b60008051602062001e8383398151915290815491680100000000000000008310156200023b57826200078c916001620004cf950190556200071e565b90919063ffffffff83549160031b9260e01c831b921b1916179055565b61ffff809116908114620005165760010190565b6001600160a01b031660009081527fc8fcad8db84d3cc18b4c41d551ea0ee66dd599cde068d998e57d5e09332c131e6020526040902090565b91906001600160a01b038316156200091b5760008051602062001e838339815191525461ffff16906000915b815183101562000914576200084a6200083c848462000532565b516001600160e01b03191690565b620008766200086a6200085d836200069e565b546001600160a01b031690565b6001600160a01b031690565b6200090257620008fb91620008c4620008ca92620008be6200089762000241565b6001600160a01b038b16815261ffff85166020820152620008b8836200069e565b620006f5565b62000750565b620007a9565b926200041f620008da87620007bd565b620008eb620008c4825461ffff1690565b61ffff1661ffff19825416179055565b9162000822565b604051635286e7e960e01b8152600490fd5b5050509050565b604051636dc8921f60e01b8152600490fd5b61ffff16801562000516576000190190565b6001600160a01b03808216939290919084156200091b5760005b815181101562000a3c57620009736200083c828462000532565b90620009836200085d836200069e565b85811692831562000a2a578589620009ee951462000a2157620009aa620009b0926200069e565b620004d1565b620009bf620008da86620007bd565b620009e1620009da620009d283620007bd565b5461ffff1690565b61ffff1690565b620009f4575b5062000506565b62000959565b62000a0362000a1a91620007bd565b620008eb62000a14825461ffff1690565b6200092d565b38620009e7565b50505062000506565b60405163a555f8b160e01b8152600490fd5b505050509050565b9061ffff62000a5262000241565b92546001600160a01b038116845260a01c166020830152565b6000198101919082116200051657565b60008051602062001e838339815191528054801562000ab757600019019062000aa4826200071e565b63ffffffff82549160031b1b1916905555565b634e487b7160e01b600052603160045260246000fd5b801562000516576000190190565b60008051602062001e83833981519152546000929183915b8151851015620009145762000b0d6200083c868462000532565b9462000b2362000b1d876200069e565b62000a44565b80516001600160a01b031690811562000a2a5762000bb562000bae62000bc99562000b9e62000b5860208b96015161ffff1690565b62000b9862000b8262000b7562000b6f8662000a6b565b6200071e565b90549060031b1c60e01b90565b62000b92816200078c856200071e565b6200069e565b620006d6565b62000ba862000a7b565b62000acd565b986200069e565b55620009e1620009da620009d283620007bd565b9362000af3565b6001600160a01b03811662000bfa57505162000be857565b604051630e0bf9eb60e01b8152600490fd5b816000929160208493519201905af43d1562000c58573d9062000c216200007483620002b4565b9182523d6000602084013e5b1562000c365750565b80511562000c4657602081519101fd5b604051633f735ec560e21b8152600490fd5b60609062000c2d56fe60806040526004361015610015575b36610a5657005b6000803560e01c9081631f931c1c146100885750806352ef6b2c146100835780637a0ed6271461007e5780638da5cb5b14610079578063adfca15e14610074578063cdffacc61461006f5763f2fde38b0361000e5761047a565b610436565b6103b7565b610381565b6102a4565b610185565b34610110576060366003190112610110576004356001600160401b0380821161010c573660238301121561010c57816004013591818311610108573660248460051b83010111610108576100da610113565b60443592831161010457610101936100f86024943690600401610158565b949093016105e4565b80f35b8480fd5b8380fd5b8280fd5b80fd5b602435906001600160a01b038216820361012957565b600080fd5b600435906001600160a01b038216820361012957565b35906001600160a01b038216820361012957565b9181601f84011215610129578235916001600160401b038311610129576020838186019501011161012957565b346101295760003660031901126101295761019e610935565b604051809160208083018184528251809152816040850193019160005b8281106101ca57505050500390f35b83516001600160a01b0316855286955093810193928101926001016101bb565b90815180825260208080930193019160005b82811061020a575050505090565b83516001600160e01b031916855293810193928101926001016101fc565b602080820190808352835180925260409283810182858560051b8401019601946000925b85841061025d575050505050505090565b909192939495968580610293600193603f1986820301885286838d51878060a01b038151168452015191818582015201906101ea565b99019401940192959493919061024c565b3461012957600080600319360112610110576102be610935565b8051916102d26102cd84610586565b610561565b928084526102e2601f1991610586565b01815b8181106103615750505b815181101561034f578061032161031161030c61034a9486610749565b610762565b61031b8387610749565b5161076f565b61033661033161030c8386610749565b61085a565b60206103428387610749565b51015261071f565b6102ef565b6040518061035d8582610228565b0390f35b60209061036c61051e565b848152826060818301528288010152016102e5565b34610129576000366003190112610129576000805160206111cc833981519152546040516001600160a01b039091168152602090f35b3461012957602080600319360112610129576103d461033161012e565b906040519181839283018184528251809152816040850193019160005b82811061040057505050500390f35b83516001600160e01b031916855286955093810193928101926001016103f1565b35906001600160e01b03198216820361012957565b34610129576020366003190112610129576004356001600160e01b031981168103610129576020906001600160a01b03906104709061080f565b5416604051908152f35b346101295760203660031901126101295761049361012e565b61049b610ada565b6001600160a01b039081169081156104f6576000805160206111cc83398151915280546001600160a01b031981168417909155167f8be0079c531659141344cd1fd0a4f28419497f9722a3daafe3b4186f6b6457e0600080a3005b60405163e043ab3f60e01b8152600490fd5b634e487b7160e01b600052604160045260246000fd5b60408051919082016001600160401b0381118382101761053d57604052565b610508565b60405190606082016001600160401b0381118382101761053d57604052565b6040519190601f01601f191682016001600160401b0381118382101761053d57604052565b6001600160401b03811161053d5760051b60200190565b6001600160401b03811161053d57601f01601f191660200190565b9291926105c76102cd8361059d565b938285528282011161012957816000926020928387013784010152565b94939092946105f1610ada565b6105fd6102cd85610586565b9081948083526020809301600591821b8301923684116101295780915b84831061063f5750505050505061063d93946106379136916105b8565b91610c4b565b565b6001600160401b03833581811161012957830160608136031261012957610664610542565b9161066e82610144565b835288820135600381101561012957898401526040918281013591821161012957019036601f83011215610129578135916106ab6102cd84610586565b928a808583815201918a1b8301019136831161012957918b80969492979593015b8181106106e657505084955082015281520192019161061a565b91939580919395976106f784610421565b8152019101918b9593919694926106cc565b634e487b7160e01b600052601160045260246000fd5b600019811461072e5760010190565b610709565b634e487b7160e01b600052603260045260246000fd5b805182101561075d5760209160051b010190565b610733565b516001600160a01b031690565b6001600160a01b039091169052565b6001600160a01b031660009081527fc8fcad8db84d3cc18b4c41d551ea0ee66dd599cde068d998e57d5e09332c131e6020526040902090565b906107c46102cd83610586565b82815280926107d5601f1991610586565b0190602036910137565b906000805160206111ac833981519152805483101561075d57600052601c60206000208360031c019260021b1690565b63ffffffff60e01b1660005260008051602061118c833981519152602052604060002090565b9061ffff61084161051e565b92546001600160a01b038116845260a01c166020830152565b61ffff6108668261077e565b541691610872836107b7565b92600080936000805160206111ac83398151915254945b858110610899575b505050509050565b6108a2816107df565b905460e0916003916001600160a01b039182916108cd916108c89190861b1c861b61080f565b610835565b5116908516146108e8575b50506108e39061071f565b610889565b82949161091c916108fb610921956107df565b9054911b1c901b61090c838b610749565b6001600160e01b03199091169052565b61071f565b918383146109305738806108d8565b610891565b6000805160206111ac833981519152549061094f826107b7565b91600090815b81811061099f575050610967816107b7565b9260005b82811061097757505050565b8061091c61098b61030c61099a9486610749565b6109958389610749565b61076f565b61096b565b6109d06109c36109be6109b1846107df565b90549060031b1c60e01b90565b61080f565b546001600160a01b031690565b60006001600160a01b038216815b868110610a1a575b5050156109fd575b506109f89061071f565b610955565b8361091c610a13926109956109f895978a610749565b92906109ee565b81610a37610a2b61030c848d610749565b6001600160a01b031690565b14610a4a57610a459061071f565b6109de565b505050600138806109e6565b600080356001600160e01b031916815260008051602061118c83398151915260205260408120546001600160a01b03168015610aa957818091368280378136915af43d82803e15610aa5573d90f35b3d90fd5b604051631535ac5f60e31b8152600490fd5b80546001600160a01b0319166001600160a01b03909216919091179055565b6000805160206111cc833981519152546001600160a01b03163303610afb57565b60405163bfcafd3760e01b8152600490fd5b60031115610b1757565b634e487b7160e01b600052602160045260246000fd5b516003811015610b175790565b919082519283825260005b848110610b66575050826000602080949584010152601f8019910116010190565b602081830181015184830182015201610b45565b93929091936060928382019380835281518095526080830160808660051b85010195602080940192600080915b838310610bdc57505050505050610bd99495610bcc9183019060018060a01b03169052565b6040818403910152610b3a565b90565b909192939498607f1988820301865289519060018060a01b038251168152878201516003811015610c3757610c2960019385848c95948680960152816040809401519382015201906101ea565b9b0196019493019190610ba7565b634e487b7160e01b85526021600452602485fd5b92909160005b8451811015610d0957610c706020610c698388610749565b5101610b2d565b610c83610c7d8388610749565b51610762565b604080610c90858a610749565b51015192610c9d81610b0d565b80610cb7575050610cb2929161091c91610df1565b610c51565b610cc081610b0d565b60018103610cd8575050610cb2929161091c91610f02565b6002919250610ce681610b0d565b03610cf957509061091c610cb292611048565b5163e548e6b560e01b8152600490fd5b509092917f8faa70878671ccd212d20771b795c50af8fd3ff6cf27f4bde57e5d4de0aeb6738161063d94610d438560405193849384610b7a565b0390a1611103565b805461ffff60a01b191660a09290921b61ffff60a01b16919091179055565b61ffff602061063d93610d8660018060a01b0382511685610abb565b01511690610d4b565b6000805160206111ac83398151915280549190600160401b83101561053d5782610dc191600161063d950190556107df565b90919063ffffffff83549160031b9260e01c831b921b1916179055565b61ffff80911690811461072e5760010190565b91906001600160a01b03831615610edf576000805160206111ac8339815191525461ffff16906000915b8151831015610ed857610e3f610e318484610749565b516001600160e01b03191690565b610e4e610a2b6109c38361080f565b610ec657610ec091610e8f610e9492610e8a610e6861051e565b610e728b8261076f565b61ffff85166020820152610e858361080f565b610d6a565b610d8f565b610dde565b9261091c610ea18761077e565b610eb0610e8f825461ffff1690565b61ffff1661ffff19825416179055565b91610e1b565b604051635286e7e960e01b8152600490fd5b5050509050565b604051636dc8921f60e01b8152600490fd5b61ffff16801561072e576000190190565b6001600160a01b0380821693929091908415610edf5760005b815181101561089157610f31610e318284610749565b90610f3e6109c38361080f565b858116928315610fcc578589610f999514610fc457610f5f610f649261080f565b610abb565b610f70610ea18661077e565b610f8e610f87610f7f8361077e565b5461ffff1690565b61ffff1690565b610f9e575b5061071f565b610f1b565b610faa610fbe9161077e565b610eb0610fb9825461ffff1690565b610ef1565b38610f93565b50505061071f565b60405163a555f8b160e01b8152600490fd5b60001981019190821161072e57565b6000805160206111ac83398151915280548015611025576000190190611012826107df565b63ffffffff82549160031b1b1916905555565b634e487b7160e01b600052603160045260246000fd5b801561072e576000190190565b6000805160206111ac833981519152546000929183915b8151851015610ed857611075610e318684610749565b946110826108c88761080f565b80516001600160a01b0316908115610fcc576110ed6110e76110fd956110da6110b160208b96015161ffff1690565b6110d56110c86109b16110c386610fde565b6107df565b6109be81610dc1856107df565b610d4b565b6110e2610fed565b61103b565b9861080f565b55610f8e610f87610f7f8361077e565b9361105f565b6001600160a01b03811661112b57505161111957565b604051630e0bf9eb60e01b8152600490fd5b816000929160208493519201905af43d15611183573d9061114e6102cd8361059d565b9182523d6000602084013e5b156111625750565b80511561117157602081519101fd5b604051633f735ec560e21b8152600490fd5b60609061115a56fec8fcad8db84d3cc18b4c41d551ea0ee66dd599cde068d998e57d5e09332c131cc8fcad8db84d3cc18b4c41d551ea0ee66dd599cde068d998e57d5e09332c131dc8fcad8db84d3cc18b4c41d551ea0ee66dd599cde068d998e57d5e09332c131fa264697066735822122013c9fc535f8d5969d6a61350d74b13ac724b1c01e79d6d4924f20d2a3f9002c064736f6c63430008140033c8fcad8db84d3cc18b4c41d551ea0ee66dd599cde068d998e57d5e09332c131da8786ce5c1c6982894b2280e9d3ad81632ac0abfdbfa9cdcee4e07b7099e117832e90fc80b0499f5118c3b4341fda3f8b0c9542c445f61be30c9c6d2e656147fa264697066735822122011084ce788a0d7117b22679043844cf7d866517c4f05b92502384ce28e96bf9e64736f6c63430008140033",
  "linkReferences": {},
  "deployedLinkReferences": {}
}