{
  "_format": "hh-sol-artifact-1",
  "contractName": "FuturesMarketFactory",
  "sourceName": "src/FuturesMarketFactory.sol",
  "abi": [
    {
      "inputs": [
        {
          "internalType": "address",
          "name": "_vault",
          "type": "address"
        },
        {
          "internalType": "address",
          "name": "_admin",
          "type": "address"
        },
        {
          "internalType": "address",
          "name": "_feeRecipient",
          "type": "address"
        }
      ],
      "stateMutability": "nonpayable",
      "type": "constructor"
    },
    {
      "inputs": [],
      "name": "InvalidFinalPrice",
      "type": "error"
    },
    {
      "inputs": [],
      "name": "InvalidInput",
      "type": "error"
    },
    {
      "inputs": [],
      "name": "InvalidLeverage",
      "type": "error"
    },
    {
      "inputs": [],
      "name": "InvalidMarginRequirement",
      "type": "error"
    },
    {
      "inputs": [],
      "name": "InvalidMarketSymbol",
      "type": "error"
    },
    {
      "inputs": [],
      "name": "InvalidMetricUrl",
      "type": "error"
    },
    {
      "inputs": [],
      "name": "InvalidOraclePrice",
      "type": "error"
    },
    {
      "inputs": [],
      "name": "InvalidSettlementDate",
      "type": "error"
    },
    {
      "inputs": [],
      "name": "MarginTooLowForLeverage",
      "type": "error"
    },
    {
      "inputs": [],
      "name": "MarketAlreadySettledErr",
      "type": "error"
    },
    {
      "inputs": [],
      "name": "MarketCreationRestricted",
      "type": "error"
    },
    {
      "inputs": [],
      "name": "MarketIdCollision",
      "type": "error"
    },
    {
      "inputs": [],
      "name": "MarketNotFound",
      "type": "error"
    },
    {
      "inputs": [],
      "name": "NotAuthorized",
      "type": "error"
    },
    {
      "inputs": [],
      "name": "OnlyAdmin",
      "type": "error"
    },
    {
      "inputs": [],
      "name": "OracleNotConfigured",
      "type": "error"
    },
    {
      "inputs": [],
      "name": "ReasonRequired",
      "type": "error"
    },
    {
      "inputs": [],
      "name": "RewardMustBePositive",
      "type": "error"
    },
    {
      "inputs": [],
      "name": "SettlementNotReady",
      "type": "error"
    },
    {
      "inputs": [],
      "name": "TradingFeeTooHigh",
      "type": "error"
    },
    {
      "inputs": [],
      "name": "UmaRequestMissing",
      "type": "error"
    },
    {
      "inputs": [],
      "name": "UseCreateMarketDiamond",
      "type": "error"
    },
    {
      "inputs": [],
      "name": "ZeroAddress",
      "type": "error"
    },
    {
      "anonymous": false,
      "inputs": [
        {
          "indexed": true,
          "internalType": "address",
          "name": "orderBook",
          "type": "address"
        },
        {
          "indexed": true,
          "internalType": "bytes32",
          "name": "marketId",
          "type": "bytes32"
        },
        {
          "indexed": false,
          "internalType": "string",
          "name": "marketSymbol",
          "type": "string"
        },
        {
          "indexed": true,
          "internalType": "address",
          "name": "creator",
          "type": "address"
        },
        {
          "indexed": false,
          "internalType": "uint256",
          "name": "creationFee",
          "type": "uint256"
        },
        {
          "indexed": false,
          "internalType": "string",
          "name": "metricUrl",
          "type": "string"
        },
        {
          "indexed": false,
          "internalType": "uint256",
          "name": "settlementDate",
          "type": "uint256"
        },
        {
          "indexed": false,
          "internalType": "uint256",
          "name": "startPrice",
          "type": "uint256"
        }
      ],
      "name": "FuturesMarketCreated",
      "type": "event"
    },
    {
      "anonymous": false,
      "inputs": [
        {
          "indexed": true,
          "internalType": "bytes32",
          "name": "marketId",
          "type": "bytes32"
        },
        {
          "indexed": false,
          "internalType": "uint256",
          "name": "finalPrice",
          "type": "uint256"
        },
        {
          "indexed": true,
          "internalType": "address",
          "name": "settler",
          "type": "address"
        }
      ],
      "name": "MarketSettled",
      "type": "event"
    },
    {
      "inputs": [
        {
          "internalType": "bytes32",
          "name": "marketId",
          "type": "bytes32"
        },
        {
          "internalType": "address",
          "name": "oracle",
          "type": "address"
        }
      ],
      "name": "assignCustomOracle",
      "outputs": [],
      "stateMutability": "nonpayable",
      "type": "function"
    },
    {
      "inputs": [
        {
          "internalType": "bytes32[]",
          "name": "marketIds",
          "type": "bytes32[]"
        },
        {
          "internalType": "uint256[]",
          "name": "prices",
          "type": "uint256[]"
        }
      ],
      "name": "batchUpdatePrices",
      "outputs": [],
      "stateMutability": "nonpayable",
      "type": "function"
    },
    {
      "inputs": [
        {
          "internalType": "address",
          "name": "_umaOracle",
          "type": "address"
        },
        {
          "internalType": "address",
          "name": "_defaultOracle",
          "type": "address"
        },
        {
          "internalType": "address",
          "name": "_oracleAdmin",
          "type": "address"
        }
      ],
      "name": "configureOracles",
      "outputs": [],
      "stateMutability": "nonpayable",
      "type": "function"
    },
    {
      "inputs": [
        {
          "internalType": "string",
          "name": "",
          "type": "string"
        },
        {
          "internalType": "string",
          "name": "",
          "type": "string"
        },
        {
          "internalType": "uint256",
          "name": "",
          "type": "uint256"
        },
        {
          "internalType": "uint256",
          "name": "",
          "type": "uint256"
        },
        {
          "internalType": "string",
          "name": "",
          "type": "string"
        },
        {
          "internalType": "string[]",
          "name": "",
          "type": "string[]"
        },
        {
          "internalType": "uint256",
          "name": "",
          "type": "uint256"
        },
        {
          "internalType": "uint256",
          "name": "",
          "type": "uint256"
        }
      ],
      "name": "createFuturesMarket",
      "outputs": [
        {
          "internalType": "address",
          "name": "",
          "type": "address"
        },
        {
          "internalType": "bytes32",
          "name": "",
          "type": "bytes32"
        }
      ],
      "stateMutability": "pure",
      "type": "function"
    },
    {
      "inputs": [
        {
          "internalType": "string",
          "name": "marketSymbol",
          "type": "string"
        },
        {
          "internalType": "string",
          "name": "metricUrl",
          "type": "string"
        },
        {
          "internalType": "uint256",
          "name": "settlementDate",
          "type": "uint256"
        },
        {
          "internalType": "uint256",
          "name": "startPrice",
          "type": "uint256"
        },
        {
          "internalType": "string",
          "name": "dataSource",
          "type": "string"
        },
        {
          "internalType": "string[]",
          "name": "tags",
          "type": "string[]"
        },
        {
          "internalType": "address",
          "name": "diamondOwner",
          "type": "address"
        },
        {
          "components": [
            {
              "internalType": "address",
              "name": "facetAddress",
              "type": "address"
            },
            {
              "internalType": "enum IDiamondCut.FacetCutAction",
              "name": "action",
              "type": "uint8"
            },
            {
              "internalType": "bytes4[]",
              "name": "functionSelectors",
              "type": "bytes4[]"
            }
          ],
          "internalType": "struct IDiamondCut.FacetCut[]",
          "name": "cut",
          "type": "tuple[]"
        },
        {
          "internalType": "address",
          "name": "initFacet",
          "type": "address"
        },
        {
          "internalType": "bytes",
          "name": "",
          "type": "bytes"
        }
      ],
      "name": "createFuturesMarketDiamond",
      "outputs": [
        {
          "internalType": "address",
          "name": "orderBook",
          "type": "address"
        },
        {
          "internalType": "bytes32",
          "name": "marketId",
          "type": "bytes32"
        }
      ],
      "stateMutability": "nonpayable",
      "type": "function"
    },
    {
      "inputs": [
        {
          "internalType": "address",
          "name": "orderBook",
          "type": "address"
        }
      ],
      "name": "deactivateFuturesMarket",
      "outputs": [],
      "stateMutability": "nonpayable",
      "type": "function"
    },
    {
      "inputs": [
        {
          "internalType": "bytes32",
          "name": "marketId",
          "type": "bytes32"
        }
      ],
      "name": "disableMarketLeverage",
      "outputs": [],
      "stateMutability": "nonpayable",
      "type": "function"
    },
    {
      "inputs": [
        {
          "internalType": "bytes32",
          "name": "marketId",
          "type": "bytes32"
        },
        {
          "internalType": "uint256",
          "name": "emergencyPrice",
          "type": "uint256"
        },
        {
          "internalType": "string",
          "name": "reason",
          "type": "string"
        }
      ],
      "name": "emergencyPriceUpdate",
      "outputs": [],
      "stateMutability": "nonpayable",
      "type": "function"
    },
    {
      "inputs": [
        {
          "internalType": "bytes32",
          "name": "marketId",
          "type": "bytes32"
        },
        {
          "internalType": "uint256",
          "name": "maxLeverage",
          "type": "uint256"
        },
        {
          "internalType": "uint256",
          "name": "marginRequirementBps",
          "type": "uint256"
        }
      ],
      "name": "enableMarketLeverage",
      "outputs": [],
      "stateMutability": "nonpayable",
      "type": "function"
    },
    {
      "inputs": [],
      "name": "getAllMarkets",
      "outputs": [
        {
          "internalType": "bytes32[]",
          "name": "",
          "type": "bytes32[]"
        }
      ],
      "stateMutability": "view",
      "type": "function"
    },
    {
      "inputs": [
        {
          "internalType": "bytes32",
          "name": "marketId",
          "type": "bytes32"
        }
      ],
      "name": "getCurrentOraclePrice",
      "outputs": [
        {
          "internalType": "uint256",
          "name": "price",
          "type": "uint256"
        },
        {
          "internalType": "uint256",
          "name": "timestamp",
          "type": "uint256"
        }
      ],
      "stateMutability": "view",
      "type": "function"
    },
    {
      "inputs": [],
      "name": "getDefaultParameters",
      "outputs": [
        {
          "internalType": "uint256",
          "name": "marginRequirement",
          "type": "uint256"
        },
        {
          "internalType": "uint256",
          "name": "fee",
          "type": "uint256"
        }
      ],
      "stateMutability": "view",
      "type": "function"
    },
    {
      "inputs": [
        {
          "internalType": "bytes32",
          "name": "marketId",
          "type": "bytes32"
        }
      ],
      "name": "getMarketLeverageInfo",
      "outputs": [
        {
          "internalType": "bool",
          "name": "enabled",
          "type": "bool"
        },
        {
          "internalType": "uint256",
          "name": "maxLeverage",
          "type": "uint256"
        },
        {
          "internalType": "uint256",
          "name": "marginRequirement",
          "type": "uint256"
        },
        {
          "internalType": "address",
          "name": "controller",
          "type": "address"
        }
      ],
      "stateMutability": "view",
      "type": "function"
    },
    {
      "inputs": [
        {
          "internalType": "bytes32",
          "name": "marketId",
          "type": "bytes32"
        }
      ],
      "name": "getMarketOracleConfig",
      "outputs": [
        {
          "internalType": "address",
          "name": "customOracle",
          "type": "address"
        },
        {
          "internalType": "bytes32",
          "name": "umaRequestId",
          "type": "bytes32"
        },
        {
          "internalType": "bool",
          "name": "hasUmaRequest",
          "type": "bool"
        }
      ],
      "stateMutability": "view",
      "type": "function"
    },
    {
      "inputs": [
        {
          "internalType": "bytes32",
          "name": "marketId",
          "type": "bytes32"
        }
      ],
      "name": "getMarketSymbol",
      "outputs": [
        {
          "internalType": "string",
          "name": "",
          "type": "string"
        }
      ],
      "stateMutability": "view",
      "type": "function"
    },
    {
      "inputs": [],
      "name": "getMarketsReadyForSettlement",
      "outputs": [
        {
          "internalType": "bytes32[]",
          "name": "",
          "type": "bytes32[]"
        }
      ],
      "stateMutability": "view",
      "type": "function"
    },
    {
      "inputs": [
        {
          "internalType": "bytes32",
          "name": "marketId",
          "type": "bytes32"
        }
      ],
      "name": "getOrderBookForMarket",
      "outputs": [
        {
          "internalType": "address",
          "name": "",
          "type": "address"
        }
      ],
      "stateMutability": "view",
      "type": "function"
    },
    {
      "inputs": [
        {
          "internalType": "bytes32",
          "name": "marketId",
          "type": "bytes32"
        },
        {
          "internalType": "uint256",
          "name": "finalPrice",
          "type": "uint256"
        }
      ],
      "name": "manualSettle",
      "outputs": [],
      "stateMutability": "nonpayable",
      "type": "function"
    },
    {
      "inputs": [
        {
          "internalType": "bytes32",
          "name": "marketId",
          "type": "bytes32"
        }
      ],
      "name": "requestPriceUpdate",
      "outputs": [],
      "stateMutability": "nonpayable",
      "type": "function"
    },
    {
      "inputs": [
        {
          "internalType": "bytes32",
          "name": "marketId",
          "type": "bytes32"
        }
      ],
      "name": "requestUMASettlement",
      "outputs": [],
      "stateMutability": "nonpayable",
      "type": "function"
    },
    {
      "inputs": [
        {
          "internalType": "bytes32",
          "name": "marketId",
          "type": "bytes32"
        },
        {
          "internalType": "address",
          "name": "controller",
          "type": "address"
        }
      ],
      "name": "setMarketLeverageController",
      "outputs": [],
      "stateMutability": "nonpayable",
      "type": "function"
    },
    {
      "inputs": [
        {
          "internalType": "uint256",
          "name": "rewardAmount",
          "type": "uint256"
        }
      ],
      "name": "setOracleReward",
      "outputs": [],
      "stateMutability": "nonpayable",
      "type": "function"
    },
    {
      "inputs": [
        {
          "internalType": "bytes32",
          "name": "marketId",
          "type": "bytes32"
        }
      ],
      "name": "settleMarketWithUMA",
      "outputs": [],
      "stateMutability": "nonpayable",
      "type": "function"
    },
    {
      "inputs": [
        {
          "internalType": "bool",
          "name": "enabled",
          "type": "bool"
        }
      ],
      "name": "togglePublicMarketCreation",
      "outputs": [],
      "stateMutability": "nonpayable",
      "type": "function"
    },
    {
      "inputs": [
        {
          "internalType": "address",
          "name": "newAdmin",
          "type": "address"
        }
      ],
      "name": "updateAdmin",
      "outputs": [],
      "stateMutability": "nonpayable",
      "type": "function"
    },
    {
      "inputs": [
        {
          "internalType": "uint256",
          "name": "_defaultMarginRequirementBps",
          "type": "uint256"
        },
        {
          "internalType": "bool",
          "name": "_defaultLeverageEnabled",
          "type": "bool"
        }
      ],
      "name": "updateDefaultLeverageSettings",
      "outputs": [],
      "stateMutability": "nonpayable",
      "type": "function"
    },
    {
      "inputs": [
        {
          "internalType": "uint256",
          "name": "marginRequirementBps",
          "type": "uint256"
        },
        {
          "internalType": "uint256",
          "name": "tradingFee",
          "type": "uint256"
        }
      ],
      "name": "updateDefaultParameters",
      "outputs": [],
      "stateMutability": "nonpayable",
      "type": "function"
    },
    {
      "inputs": [
        {
          "internalType": "address",
          "name": "newFeeRecipient",
          "type": "address"
        }
      ],
      "name": "updateFeeRecipient",
      "outputs": [],
      "stateMutability": "nonpayable",
      "type": "function"
    },
    {
      "inputs": [
        {
          "internalType": "uint256",
          "name": "newFee",
          "type": "uint256"
        }
      ],
      "name": "updateMarketCreationFee",
      "outputs": [],
      "stateMutability": "nonpayable",
      "type": "function"
    },
    {
      "inputs": [
        {
          "internalType": "address",
          "name": "newOracleAdmin",
          "type": "address"
        }
      ],
      "name": "updateOracleAdmin",
      "outputs": [],
      "stateMutability": "nonpayable",
      "type": "function"
    }
  ],
  "bytecode": "0x60a0346200017d57601f6200510738819003918201601f19168301916001600160401b0383118484101762000182578084926060946040528339810103126200017d576200004d8162000198565b620000696040620000616020850162000198565b930162000198565b612710600255600a600355600160ff198060045416600455629896806012556305f5e100601455601554161760155560018060a01b038092168015801562000172575b801562000167575b62000155576080528160018060a01b0319931683600054161760005516906001541617600155604051614f599081620001ae82396080518181816102aa01528181610693015281816107aa01528181610803015281816108390152818161089901528181610a3c01528181610a8f01528181610e4d01528181610e9c01528181611a9701528181611fd20152818161215c0152818161274301526128e30152f35b60405163d92e233d60e01b8152600490fd5b5082821615620000b4565b5082841615620000ac565b600080fd5b634e487b7160e01b600052604160045260246000fd5b51906001600160a01b03821682036200017d5756fe60808060405260043610156200001457600080fd5b600090813560e01c9081630bf1003214620022de575080630c68266914620020ff578063109388b11462001ec75780631edefe341462001e445780631fa02e7b1462001dec57806333916d7c1462001da357806337c832071462001c775780633d665d0e1462001c4257806344ba68f21462001bf6578063476cfd251462001bcf57806362adcbef1462001b57578063650ef52f1462001941578063653ea16214620018405780636695f14c146200173b5780636a300696146200169a57806384c3c30b14620015fa57806385b370ee146200155b5780638c5046f5146200150a578063b0772d0b1462001480578063b698fdf31462001416578063ba3eba071462001395578063bbd96ca91462001350578063be6566bf14620011f7578063c349e28a146200114a578063df5bfa3814620003dd578063e2f273bd1462000390578063e847d2161462000361578063f1229af81462000230578063f160d36914620001bb5763f5c92780146200018a57600080fd5b34620001b8576020366003190112620001b8576040620001ac60043562002881565b82519182526020820152f35b80fd5b5034620001b8576020366003190112620001b857620001d962002417565b81546001600160a01b039190821633036200021e571680156200020c576001600160601b0360a01b600154161760015580f35b60405163d92e233d60e01b8152600490fd5b604051634755657960e01b8152600490fd5b5034620001b8576060366003190112620001b8576004356024356044356001600160401b0381116200035d576200026c90369060040162002529565b83546001600160a01b03939190841633036200021e57818552600760205260ff604086205416156200034b5782156200033a575115620003285783927f00000000000000000000000000000000000000000000000000000000000000001691823b1562000323576044849283604051958694859363dee0f5e560e01b8552600485015260248401525af180156200031857620003055750f35b620003109062002491565b620001b85780f35b6040513d84823e3d90fd5b505050fd5b60405163bc7fd33160e01b8152600490fd5b60405162fc7cad60e51b8152600490fd5b6040516307db1be560e41b8152600490fd5b8380fd5b5034620001b8576020366003190112620001b85780546001600160a01b031633036200021e5760043560145580f35b5034620001b8576020366003190112620001b857620003ae62002417565b8154906001600160a01b039081831633036200021e57169081156200020c576001600160a01b03191617815580f35b5034620001b857610140366003190112620001b8576004356001600160401b03811162001146576200041490369060040162002529565b906024356001600160401b03811162001146576200043790369060040162002529565b916084356001600160401b03811162001142576200045a90369060040162002529565b9060a4356001600160401b0381116200035d576200047d9036906004016200254a565b9160c435906001600160a01b038216820362000fd2576001600160401b0360e435116200113e5736602360e4350112156200113e5760e4356004013590620004c582620024c7565b94620004d56040519687620024a5565b8286526020860192833660248360051b60e4350101116200113a57602460e43501905b60248360051b60e4350101821062000fd7575050610104359290506001600160a01b038316830362000fd2576001600160401b03610124351162000f04573660236101243501121562000f04576200055f36610124356004013560246101243501620024df565b5060ff60155416801562000fbe575b1562000fac578551801590811562000fa0575b5062000f8e578851801590811562000f81575b5062000f6f57426044351180159062000f41575b62000f2f57606435156200033a57511562000f1d57600a90511162000f1d576001600160a01b038316156200020c576014548015158062000f08575b62000e3c575b50604051620006496074828a88516200060b816020850160208d0162002445565b620006228251809360208085880101910162002445565b8201013360601b6020820152426034820152436054820152036054810184520182620024a5565b6020815191012094858752600760205260ff60408820541662000e2a576001600160a01b038216156200020c57600154604051632b6c8a5b60e11b60208201526001600160a01b037f0000000000000000000000000000000000000000000000000000000000000000811660248301526044820189905290911660648083019190915281529360a085018086116001600160401b039091111762000e145760a085810160408190526001600160401b03612540880190920191821191101762000e005792919092612540620029e460a08701396001600160a01b0316612540850160a0810191909152608060c0820152925161012084018190529192600583901b810161014090810193918991015b82821062000d4c5750505060a09250600180841b031660e061254085010152826200079a609f199283612540840182030161010061254085010152826200246a565b0301910184f092831562000d40577f00000000000000000000000000000000000000000000000000000000000000006001600160a01b03163b15620001b85760405163e1379dbb60e01b81526001600160a01b03858116600483015282908290602490829084907f0000000000000000000000000000000000000000000000000000000000000000165af18015620003185790829162000d28575b50507f00000000000000000000000000000000000000000000000000000000000000006001600160a01b03163b15620001b85760405163539bea8d60e01b8152600481018490526001600160a01b03858116602483015282908290604490829084907f0000000000000000000000000000000000000000000000000000000000000000165af18015620003185790829162000d10575b5083905260056020908152604080832080546001600160a01b03199081166001600160a01b0389169081179092559084526006835281842086905585845260078352818420805460ff19166001179055600883528184208054909116331790556009909152812082516001600160401b03811162000c2c576200094f825462002612565b601f811162000cc9575b50806020601f821160011462000c6057849162000c54575b508160011b916000199060031b1c19161790555b6013546801000000000000000081101562000c4057620009c8620009b18260018794016013556200264f565b819391549060031b91821b91600019901b19161790565b9055828152600a6020526040812085516001600160401b03811162000c2c57620009f3825462002612565b601f811162000be5575b50806020601f821160011462000b7c57849162000b70575b508160011b916000199060031b1c19161790555b828152600b6020526040812060443590557f00000000000000000000000000000000000000000000000000000000000000006001600160a01b03163b15620001b85760405163dee0f5e560e01b81526004810184905260643560248201528181604481837f00000000000000000000000000000000000000000000000000000000000000006001600160a01b03165af18015620003185762000b58575b50508162000afd6040956014549062000aea88519560a0875260a08701906200246a565b916020860152848203888601526200246a565b6044356060840152606435608084015233926001600160a01b038616917fa8786ce5c1c6982894b2280e9d3ad81632ac0abfdbfa9cdcee4e07b7099e1178919081900390a482516001600160a01b0390921682526020820152f35b62000b64829162002491565b620001b8578062000ac6565b90508701513862000a15565b91508284526020842084925b601f198316841062000bcc576001935082601f1981161062000bb2575b5050811b01905562000a29565b89015160001960f88460031b161c19169055388062000ba5565b8981015182556020938401936001909201910162000b88565b82845260208420601f830160051c81016020841062000c24575b601f830160051c8201811062000c17575050620009fd565b6000815560010162000bff565b508062000bff565b634e487b7160e01b83526041600452602483fd5b634e487b7160e01b82526041600452602482fd5b90508401513862000971565b91508284526020842084925b601f198316841062000cb0576001935082601f1981161062000c96575b5050811b01905562000985565b86015160001960f88460031b161c19169055388062000c89565b8681015182556020938401936001909201910162000c6c565b82845260208420601f830160051c81016020841062000d08575b601f830160051c8201811062000cfb57505062000959565b6000815560010162000ce3565b508062000ce3565b62000d1b9062002491565b620001b8578038620008cb565b62000d339062002491565b620001b857803862000835565b604051903d90823e3d90fd5b6125408701850361013f19018152855180516001600160a01b0316865260208101519495939492939192600381101562000dec57906040916020840152015190606060408201526020608060608301928451809452019201908b905b80821062000dc85750505060209586019590949392600101910162000758565b82516001600160e01b03191684526020938401939092019160019091019062000da8565b634e487b7160e01b8c52602160045260248cfd5b634e487b7160e01b88526041600452602488fd5b634e487b7160e01b600052604160045260246000fd5b6040516304a7adb960e51b8152600490fd5b6001546001600160a01b03908116907f0000000000000000000000000000000000000000000000000000000000000000163b1562000f0457604051633eb29b8760e01b8152336004820152602481019290925260448201528681606481837f00000000000000000000000000000000000000000000000000000000000000006001600160a01b03165af1801562000ef95790879162000edd575b50620005ea565b62000ee89062002491565b62000ef557853862000ed6565b8580fd5b6040513d89823e3d90fd5b8780fd5b5086546001600160a01b0316331415620005e4565b60405163b4fa3fb360e01b8152600490fd5b60405163620fa5ab60e11b8152600490fd5b506301e13380420180421162000f5b5760443511620005a8565b634e487b7160e01b89526011600452602489fd5b60405163213b197b60e01b8152600490fd5b6101009150113862000594565b60405163ee79ac5160e01b8152600490fd5b60409150113862000581565b604051636dfe746960e01b8152600490fd5b5087546001600160a01b031633146200056e565b600080fd5b81356001600160401b0381116200113657606060e4358201360360231901126200113657604051908160608101106001600160401b0360608401111762000e14576060820160405260e4358101602401356001600160a01b038116810362000fd2578252600360448260e4350101351015620011325760e435810160448101356020840152606401356001600160401b0381116200112e57366043828460e43501010112156200112e576024818360e435010101356200109781620024c7565b92620010a76040519485620024a5565b81845260208401923660448460051b838560e43501010101116200112a576044818360e435010101935b60448460051b838560e435010101018510620011005750505050506040820152815260209182019101620004f8565b84356001600160e01b03198116900362001125578435815260209485019401620010d1565b508f80fd5b8f80fd5b8c80fd5b8b80fd5b8a80fd5b8880fd5b8480fd5b8280fd5b5080fd5b5034620001b8576020366003190112620001b857600435808252600760205260ff604083205416156200034b576010546001600160a01b03168015620011e5578183928352600a60205260408320823b156200032357620011d2928492836040518096819582946313e942a560e31b84526004840152604060248401526044830190620027b8565b03925af180156200031857620003055750f35b60405163012fac1160e21b8152600490fd5b5034620001b85780600319360112620001b85760135481805b828110620012d857506200122483620024c7565b92620012346040519485620024a5565b80845262001245601f1991620024c7565b019060209136838601378091815b8481106200126f57604051806200126b8882620025d5565b0390f35b6200127a816200264f565b90549060031b1c808452600e835260ff6040852054161580620012c5575b620012a8575b5060010162001253565b846001929591620012bb84938a62002855565b520193906200129e565b50600b8352604084205442101562001298565b620012e3816200264f565b90549060031b1c82526020600e815260ff6040842054161590816200133c575b5062001313575b60010162001210565b9260001981146200132857600101926200130a565b634e487b7160e01b82526011600452602482fd5b600b91505260408220544210153862001303565b5034620001b8576020366003190112620001b85760043580151580910362000fd25781546001600160a01b031633036200021e5760ff80196015541691161760155580f35b5034620001b8576040366003190112620001b857805460243590600435906001600160a01b031633036200021e576103e880821080156200140a575b620013f8578211620013e65760025560035580f35b604051630120fd4960e21b8152600490fd5b60405163b5d4c3d760e01b8152600490fd5b506127108211620013d1565b5034620001b8576040366003190112620001b8576004356024359081151580920362000fd25782546001600160a01b031633036200021e576103e88110801562001474575b620013f85760025560ff80196004541691161760045580f35b5061271081116200145b565b5034620001b85780600319360112620001b857604051601380548083529083526020808301937f66de8ffda797e3de9c05e8fc57b3bf0ec28a930d40b0d285d93c06501cf6a09092915b828210620014f2576200126b85620014e581890382620024a5565b60405191829182620025d5565b835486529485019460019384019390910190620014ca565b5034620001b8576020366003190112620001b8576200152862002417565b81546001600160a01b039190821633036200021e571680156200020c576001600160601b0360a01b601154161760115580f35b5034620001b857610100366003190112620001b8576001600160401b0360043581811162001142576200159390369060040162002529565b506024358181116200114257620015af90369060040162002529565b506084358181116200114257620015cb90369060040162002529565b5060a4359081116200114657620015e79036906004016200254a565b5060405163131dd77b60e21b8152600490fd5b5034620001b8576040366003190112620001b8576004356200161b6200242e565b82546001600160a01b039190821633036200021e57828452600760205260ff604085205416156200034b5781169081156200020c5783928352600560205260408320541690813b15620016965782916024839260405194859384926346c9eb6360e01b845260048401525af180156200031857620003055750f35b5050fd5b5034620001b8576040366003190112620001b857600435620016bb6200242e565b90808352600760205260ff604084205416156200034b57808352600860205260408320546001600160a01b0391908216331480156200172e575b156200171c578352600c6020526040832091166001600160601b0360a01b82541617905580f35b60405163ea8e4eb560e01b8152600490fd5b50818454163314620016f5565b5034620001b8576020366003190112620001b857600435808252600760205260ff604083205416156200034b57815260056020526040808220549051636d64bcc960e01b8152906001600160a01b03906080908390600490829085165afa8015620018355783928485918693620017cc575b5060809550604051941515855260208501526040840152166060820152f35b94505050506080823d82116200182c575b81620017ec60809383620024a5565b81010312620011425781519182151583036200035d576020810151926060604083015192015190838216820362000ef557608095509391909138620017ad565b3d9150620017dd565b6040513d85823e3d90fd5b5034620001b8576040366003190112620001b8576011546024359060043590336001600160a01b039182161490811562001933575b50156200171c57808352600760205260ff604084205416156200034b57808352600e60205260ff6040842054166200192157808352600b602052604083205442106200190f578115620018fd57620018ce828262002728565b6040519182527f32e90fc80b0499f5118c3b4341fda3f8b0c9542c445f61be30c9c6d2e656147f60203393a380f35b6040516323da237d60e01b8152600490fd5b60405163c03deffd60e01b8152600490fd5b60405163d865994560e01b8152600490fd5b905083541633143862001875565b5034620001b8576040366003190112620001b8576001600160401b03600435818111620011425736602382011215620011425780600401356200198481620024c7565b92620019946040519485620024a5565b8184526020928385016024809460051b8301019136831162000f045784869101915b83831062001b46575050505081359081116200113e57366023820112156200113e57806004013590620019e982620024c7565b91620019f96040519384620024a5565b808352838584019160051b8301019136831162000f045784869101915b83831062001b355750506011546001600160a01b039250821633149050801562001b28575b156200171c57845182510362000f1d57845194865b86811062001a5c578780f35b8762001a69828462002855565b518082526007885260ff80604084205416908162001b14575b5062001a94575b505060010162001a50565b847f0000000000000000000000000000000000000000000000000000000000000000169062001ac4848862002855565b51823b156200035d576044849283604051958694859363dee0f5e560e01b855260048501528d8401525af1801562000318571562001a895762001b079062002491565b62000f0457873862001a89565b9050600e8952604083205416153862001a82565b5080865416331462001a3b565b823581529181019186910162001a16565b8235815291810191869101620019b6565b5034620001b8576060366003190112620001b85762001b7562002417565b62001b7f6200242e565b6001600160a01b0360443581811693929084900362000fd2578185541633036200021e57816001600160601b0360a01b931683600f541617600f5516816010541617601055601154161760115580f35b5034620001b85780600319360112620001b857604060025460035482519182526020820152f35b5034620001b8576020366003190112620001b8576060906004358152600c602052604060018060a01b03818320541691600d602052205460405191825280602083015215156040820152f35b5034620001b8576020366003190112620001b857602090600435815260058252604060018060a01b0391205416604051908152f35b5034620001b85760208060031936011262001146576004358083526007825260ff604084205416156200034b57808352600e825260ff6040842054166200192157808352600d825260408320541562001d915760018060a01b03600f541691818452600d81528060408520546024604051809681936331d98b3f60e01b835260048301525afa92831562001d8657849362001d51575b50838313156200033a577f32e90fc80b0499f5118c3b4341fda3f8b0c9542c445f61be30c9c6d2e656147f9062001d45848462002728565b6040519384523393a380f35b9080935081813d831162001d7e575b62001d6c8183620024a5565b810103126200035d5751913862001d0d565b503d62001d60565b6040513d86823e3d90fd5b604051633658545f60e01b8152600490fd5b5034620001b8576020366003190112620001b8578054600435906001600160a01b031633036200021e57801562001dda5760125580f35b60405163fb93c7c760e01b8152600490fd5b5034620001b8576020366003190112620001b85762001e2762001e2f60406200126b93600435815260096020522060405192838092620027b8565b0382620024a5565b6040519182916020835260208301906200246a565b5034620001b8576020366003190112620001b8578054600435906001600160a01b0390811633036200021e57818352600760205260ff604084205416156200034b57829182526005602052604082205416803b1562001ec4578180916004604051809481936376e329dd60e11b83525af180156200031857620003055750f35b50fd5b5034620001b8576020806003193601126200114657600435908183526007815260ff604084205416156200034b57818352600e815260ff6040842054166200192157818352600b8152604083205442106200190f57600f546001600160a01b03919082168015620011e55762001f7d90848652600a835262001fae6023604088206009865260408920600b875262001f9060408b2054916005604051988995632aa9261d60e11b8c88015260248701906200269d565b641629aca69d60d91b815201906200269d565b9062162a1d60e91b82526003820152036003810185520183620024a5565b848652600b83528560408120549460405190632c805af560e21b82528582600481847f0000000000000000000000000000000000000000000000000000000000000000165afa908115620018355788928492620020ad575b50918695949391620020479893601254906040519a8b98899788966311df92f160e01b88526004880152602487015260a0604487015260a48601906200246a565b92166064840152608483015203925af191821562001d8657849262002077575b50600d9192845252604082205580f35b91508082813d8311620020a5575b620020918183620024a5565b810103126200035d57600d91519162002067565b503d62002085565b925094939250508481813d8311620020f7575b620020cc8183620024a5565b8101031262000f04575194878487168703620001b85790959293919290918791906200204762002006565b503d620020c0565b5034620001b85760208060031936011262001146576001600160a01b0390816200212862002417565b1680156200020c578084526006825260408420549182156200034b578385541633148015620022c7575b156200171c5784937f000000000000000000000000000000000000000000000000000000000000000016803b156200113e578490816040518092631740e71760e11b8252866004830152816024998a925af180156200031857620022af575b5083905260058152604080862080546001600160a01b03191690559185526006815281852060009055828552600790528320805460ff191690556013805492845b848110620021fe578580f35b836200220a826200264f565b919054600392831b1c14620022235750600101620021f2565b8354909550929350600019928381019081116200229c57620009b16200224d6200225a926200264f565b905490881b1c926200264f565b905582549081156200228a575081019262002275846200264f565b81939154921b1b191690555538808080808580f35b634e487b7160e01b8652603160045285fd5b634e487b7160e01b875260116004528287fd5b620022ba9062002491565b6200113e578438620021b1565b508285526008815283604086205416331462002152565b90503462001146576060366003190112620011465781546024359160043591604435916001600160a01b039182163303620024085750828552600760205260ff604086205416156200034b576001841180620023fc575b15620023ea57606482101580620023dd575b15620013f8578315620023c95783612710048211620023b85784928352600560205260408320541692833b156200114257604490836040519586948593630e2b950560e21b8552600485015260248401525af180156200031857620023aa575080f35b620023b59062002491565b80f35b60405162f5f29560e01b8152600490fd5b634e487b7160e01b85526012600452602485fd5b5061271082111562002347565b604051633fe89cb960e11b8152600490fd5b50606484111562002335565b634755657960e01b8152600490fd5b600435906001600160a01b038216820362000fd257565b602435906001600160a01b038216820362000fd257565b60005b838110620024595750506000910152565b818101518382015260200162002448565b90602091620024858151809281855285808601910162002445565b601f01601f1916010190565b6001600160401b03811162000e1457604052565b90601f801991011681019081106001600160401b0382111762000e1457604052565b6001600160401b03811162000e145760051b60200190565b9291926001600160401b03821162000e1457604051916200250b601f8201601f191660200184620024a5565b82948184528183011162000fd2578281602093846000960137010152565b9080601f8301121562000fd2578160206200254793359101620024df565b90565b9080601f8301121562000fd2578135906200256582620024c7565b92620025756040519485620024a5565b828452602092838086019160051b8301019280841162000fd257848301915b848310620025a55750505050505090565b82356001600160401b03811162000fd2578691620025c98484809489010162002529565b81520192019162002594565b6020908160408183019282815285518094520193019160005b828110620025fd575050505090565b835185529381019392810192600101620025ee565b90600182811c9216801562002644575b60208310146200262e57565b634e487b7160e01b600052602260045260246000fd5b91607f169162002622565b601354811015620026875760136000527f66de8ffda797e3de9c05e8fc57b3bf0ec28a930d40b0d285d93c06501cf6a0900190600090565b634e487b7160e01b600052603260045260246000fd5b600092918154620026ae8162002612565b926001918083169081156200270c5750600114620026cd575b50505050565b90919293945060005260209081600020906000915b858310620026fa5750505050019038808080620026c7565b805485840152918301918101620026e2565b60ff1916845250505081151590910201915038808080620026c7565b6000818152600e60205260408120805460ff191660011790557f00000000000000000000000000000000000000000000000000000000000000006001600160a01b0316929091833b156200114257906044839283604051968794859363dee0f5e560e01b8552600485015260248401525af190811562000d405750620027ab5750565b620027b69062002491565b565b9060009291805491620027cb8362002612565b918282526001938481169081600014620028315750600114620027ee5750505050565b90919394506000526020928360002092846000945b8386106200281c575050505001019038808080620026c7565b80548587018301529401938590820162002803565b9294505050602093945060ff191683830152151560051b01019038808080620026c7565b8051821015620026875760209160051b010190565b919082604091031262000fd2576020825192015190565b6000908082526020916007835260409260ff848320541615620029d257828252600c8152838220546001600160a01b03939084168062002960575083601054168062002960575081906024865180968193637dc2fb6960e01b835260048301527f0000000000000000000000000000000000000000000000000000000000000000165afa93841562002955575081936200291e575b505050904290565b9091809350813d83116200294d575b620029398183620024a5565b81010312620001b857505138808062002916565b503d6200292d565b51913d9150823e3d90fd5b929350849594915060248251809481936331d98b3f60e01b835260048301525afa9384156200295557829462002997575b50509190565b620029c093945080919250903d10620029ca575b620029b78183620024a5565b8101906200286a565b9190388062002991565b503d620029ab565b83516307db1be560e41b8152600490fdfe60406080815234620001035762002540803803806200001e8162000261565b92833960808282810103126200010357620000398262000287565b60208301519091906001600160401b0381116200010357818401601f828601011215620001035780840151906200007a62000074836200029c565b62000261565b91602083828152019184870160208360051b838a010101116200010357602081880101925b60208360051b838a0101018410620001085750505050620000c285850162000287565b6060850151949092906001600160401b0386116200010357620000f595620000ee9282019101620002f5565b9262000337565b51611547908162000f998239f35b600080fd5b83516001600160401b03811162000103578289010160609081601f19828a8d0103011262000103576200013a6200021b565b91620001496020830162000287565b83528b820151600381101562000103576020840152810151906001600160401b038211620001035701878a01603f8201121562000103576020810151906200019562000074836200029c565b82815291602083018a8d01600583901b84018f01116200010357918d8101908e5b8360051b8201018210620001db57505050508a8201528152602093840193016200009f565b8151936001600160e01b03198516850362000103578f9481602092918392520192019193620001b6565b634e487b7160e01b600052604160045260246000fd5b60405190606082016001600160401b038111838210176200023b57604052565b62000205565b60408051919082016001600160401b038111838210176200023b57604052565b6040519190601f01601f191682016001600160401b038111838210176200023b57604052565b51906001600160a01b03821682036200010357565b6001600160401b0381116200023b5760051b60200190565b6001600160401b0381116200023b57601f01601f191660200190565b60005b838110620002e45750506000910152565b8181015183820152602001620002d3565b81601f8201121562000103578051620003126200007482620002b4565b92818452602082840101116200010357620003349160208085019101620002d0565b90565b7fc8fcad8db84d3cc18b4c41d551ea0ee66dd599cde068d998e57d5e09332c131f80546001600160a01b038381166001600160a01b0319831617909255929593949281169116907f8be0079c531659141344cd1fd0a4f28419497f9722a3daafe3b4186f6b6457e0600080a360005b8451811015620004c857620003ca6020620003c2838862000552565b51016200058e565b620003e8620003da838862000552565b51516001600160a01b031690565b604080620003f7858a62000552565b5101519262000406816200056d565b806200042b5750506200042592916200041f91620007aa565b62000526565b620003a6565b62000436816200056d565b60018103620004525750506200042592916200041f9162000a69565b600291925062000462816200056d565b03620004795750906200041f620004259262000cb3565b5162461bcd60e51b8152602060048201526024808201527f4c69624469616d6f6e643a20496e636f727265637420466163657443757441636044820152633a34b7b760e11b6064820152608490fd5b509092917f8faa70878671ccd212d20771b795c50af8fd3ff6cf27f4bde57e5d4de0aeb673816200050e94620005058560405193849384620005c3565b0390a162000ecc565b565b634e487b7160e01b600052601160045260246000fd5b6000198114620005365760010190565b62000510565b634e487b7160e01b600052603260045260246000fd5b8051821015620005675760209160051b010190565b6200053c565b600311156200057857565b634e487b7160e01b600052602160045260246000fd5b516003811015620005785790565b90602091620005b781518092818552858086019101620002d0565b601f01601f1916010190565b93929093606092838201848352865180915260809485840191868160051b860101966020809a01936000915b8383106200062557505050505050620006179062000334959683019060018060a01b03169052565b60408184039101526200059c565b909192939498607f198882030183528951908681019060018060a01b0383511681528d83015160038110156200057857848f9493928592838201528a604080960151958201528451809452019201906000905b808210620006995750505090806001929b01930193019194939290620005ef565b82516001600160e01b03191684528f9493840193909201916001919091019062000678565b15620006c657565b60405162461bcd60e51b815260206004820152601b60248201527f4c69624469616d6f6e643a2053656c6563746f722065786973747300000000006044820152606490fd5b906000805160206200252083398151915280548310156200056757600052601c60206000208360031c019260021b1690565b6000805160206200252083398151915290815491680100000000000000008310156200023b5782620007799160016200050e950190556200070b565b90919063ffffffff83549160031b9260e01c831b921b1916179055565b61ffff809116908114620005365760010190565b91906001600160a01b038316156200094457600080516020620025208339815191525461ffff16906000915b81518310156200093d57620008e56200093691620008df6200080b620007fd878762000552565b516001600160e01b03191690565b620008636200085c62000850620008438463ffffffff60e01b16600052600080516020620024e0833981519152602052604060002090565b546001600160a01b031690565b6001600160a01b031690565b15620006be565b620008d96200087162000241565b6001600160a01b038b8116825261ffff861660208084019182526001600160e01b031986166000908152600080516020620024e08339815191529091526040902092518354915192166001600160b01b03199091161760a09190911b61ffff60a01b16179055565b6200073d565b62000796565b926200041f620009158760018060a01b031660005260008051602062002500833981519152602052604060002090565b62000926620008df825461ffff1690565b61ffff1661ffff19825416179055565b91620007d6565b5050509050565b60405162461bcd60e51b815260206004820152602960248201527f4c69624469616d6f6e643a204164642066616365742063616e2774206265206160448201526864647265737328302960b81b6064820152608490fd5b15620009a357565b60405162461bcd60e51b815260206004820152602d60248201527f4c69624469616d6f6e643a205265706c6163652066616365742063616e27742060448201526c6265206164647265737328302960981b6064820152608490fd5b1562000a0657565b60405162461bcd60e51b815260206004820152602360248201527f4c69624469616d6f6e643a2053656c6563746f7220646f6573206e6f742065786044820152621a5cdd60ea1b6064820152608490fd5b61ffff16801562000536576000190190565b9091906001600160a01b039081811662000a858115156200099b565b60005b855181101562000c14578062000aa7620007fd62000bbd938962000552565b62000ad7620008438263ffffffff60e01b16600052600080516020620024e0833981519152602052604060002090565b90858588841662000aea811515620009fe565b1462000c0b5762000b2062000b3f9263ffffffff60e01b16600052600080516020620024e0833981519152602052604060002090565b80546001600160a01b0319166001600160a01b03909216919091179055565b6001600160a01b0385166000908152600080516020620025008339815191526020526040902062000b709062000915565b6001600160a01b0381166000908152600080516020620025008339815191526020526040902062000bb09062000ba9905b5461ffff1690565b61ffff1690565b62000bc3575b5062000526565b62000a88565b6001600160a01b03166000908152600080516020620025008339815191526020526040902062000c04906200092662000bfe825461ffff1690565b62000a57565b3862000bb6565b50505062000526565b505050509050565b9061ffff62000c2a62000241565b92546001600160a01b038116845260a01c166020830152565b6000198101919082116200053657565b600080516020620025208339815191528054801562000c8f57600019019062000c7c826200070b565b63ffffffff82549160031b1b1916905555565b634e487b7160e01b600052603160045260246000fd5b801562000536576000190190565b9060008051602062002520833981519152546000805b84518110156200093d578062000ce8620007fd62000e53938862000552565b938362000e1c62000df462000d2862000d228963ffffffff60e01b16600052600080516020620024e0833981519152602052604060002090565b62000c1c565b9362000de462000d64602062000d44885160018060a01b031690565b9762000d5b6001600160a01b038a161515620009fe565b015161ffff1690565b62000dc562000d8e62000d8162000d7b8662000c43565b6200070b565b90549060031b1c60e01b90565b62000d9e8162000779856200070b565b63ffffffff60e01b16600052600080516020620024e0833981519152602052604060002090565b805461ffff60a01b191660a09290921b61ffff60a01b16919091179055565b62000dee62000c53565b62000ca5565b9663ffffffff60e01b16600052600080516020620024e0833981519152602052604060002090565b556001600160a01b0381166000908152600080516020620025008339815191526020526040902062000bb09062000ba99062000ba1565b62000cc9565b1562000e6157565b60405162461bcd60e51b815260206004820152603960248201527f4c69624469616d6f6e643a205f696e697420697320616464726573732830292060448201527f6275745f63616c6c64617461206973206e6f7420656d707479000000000000006064820152608490fd5b6001600160a01b03811662000ee957506200050e90511562000e59565b816000929160208493519201905af43d1562000f8f573d9062000f106200007483620002b4565b9182523d6000602084013e5b1562000f255750565b80511562000f3557602081519101fd5b60405162461bcd60e51b815260206004820152602c60248201527f4c69624469616d6f6e643a20496e697469616c697a6174696f6e2066756e637460448201526b1a5bdb881c995d995c9d195960a21b6064820152608490fd5b60609062000f1c56fe60806040526004361015610015575b36610ae357005b6000803560e01c9081631f931c1c146100885750806352ef6b2c146100835780637a0ed6271461007e5780638da5cb5b14610079578063adfca15e14610074578063cdffacc61461006f5763f2fde38b0361000e576104a0565b61045c565b6103dd565b610395565b6102a6565b610187565b346101115760603660031901126101115760043567ffffffffffffffff80821161010d573660238301121561010d57816004013591818311610109573660248460051b83010111610109576100db610114565b60443592831161010557610102936100f96024943690600401610159565b94909301610654565b80f35b8480fd5b8380fd5b8280fd5b80fd5b602435906001600160a01b038216820361012a57565b600080fd5b600435906001600160a01b038216820361012a57565b35906001600160a01b038216820361012a57565b9181601f8401121561012a5782359167ffffffffffffffff831161012a576020838186019501011161012a57565b3461012a57600036600319011261012a576101a06109b8565b604051809160208083018184528251809152816040850193019160005b8281106101cc57505050500390f35b83516001600160a01b0316855286955093810193928101926001016101bd565b90815180825260208080930193019160005b82811061020c575050505090565b83516001600160e01b031916855293810193928101926001016101fe565b602080820190808352835180925260409283810182858560051b8401019601946000925b85841061025f575050505050505090565b909192939495968580610295600193603f1986820301885286838d51878060a01b038151168452015191818582015201906101ec565b99019401940192959493919061024e565b3461012a57600080600319360112610111576102c06109b8565b8051916102d46102cf846105f4565b6105ce565b928084526102e4601f19916105f4565b01815b8181106103755750505b8151811015610363578061033561031b61030e61035e94866107ba565b516001600160a01b031690565b61032583876107ba565b516001600160a01b039091169052565b61034a61034561030e83866107ba565b6108dd565b602061035683876107ba565b510152610790565b6102f1565b60405180610371858261022a565b0390f35b602090610380610589565b848152826060818301528288010152016102e7565b3461012a57600036600319011261012a577fc8fcad8db84d3cc18b4c41d551ea0ee66dd599cde068d998e57d5e09332c131f546040516001600160a01b039091168152602090f35b3461012a5760208060031936011261012a576103fa61034561012f565b906040519181839283018184528251809152816040850193019160005b82811061042657505050500390f35b83516001600160e01b03191685528695509381019392810192600101610417565b35906001600160e01b03198216820361012a57565b3461012a57602036600319011261012a576004356001600160e01b03198116810361012a576020906001600160a01b039061049690610880565b5416604051908152f35b3461012a57602036600319011261012a576104b961012f565b6104c1610b8c565b6001600160a01b0390811690811561052e577fc8fcad8db84d3cc18b4c41d551ea0ee66dd599cde068d998e57d5e09332c131f80546001600160a01b031981168417909155167f8be0079c531659141344cd1fd0a4f28419497f9722a3daafe3b4186f6b6457e0600080a3005b60405162461bcd60e51b815260206004820152601a60248201527f4469616d6f6e643a206e6577206f776e6572206973207a65726f0000000000006044820152606490fd5b634e487b7160e01b600052604160045260246000fd5b604051906040820182811067ffffffffffffffff8211176105a957604052565b610573565b604051906060820182811067ffffffffffffffff8211176105a957604052565b6040519190601f01601f1916820167ffffffffffffffff8111838210176105a957604052565b67ffffffffffffffff81116105a95760051b60200190565b67ffffffffffffffff81116105a957601f01601f191660200190565b9291926106376102cf8361060c565b938285528282011161012a57816000926020928387013784010152565b9493909294610661610b8c565b61066d6102cf856105f4565b9081948083526020809301600591821b83019236841161012a5780915b8483106106af575050505050506106ad93946106a7913691610628565b91610d4d565b565b67ffffffffffffffff833581811161012a57830160608136031261012a576106d56105ae565b916106df82610145565b835288820135600381101561012a57898401526040918281013591821161012a57019036601f8301121561012a5781359161071c6102cf846105f4565b928a808583815201918a1b8301019136831161012a57918b80969492979593015b81811061075757505084955082015281520192019161068a565b919395809193959761076884610447565b8152019101918b95939196949261073d565b634e487b7160e01b600052601160045260246000fd5b600019811461079f5760010190565b61077a565b634e487b7160e01b600052603260045260246000fd5b80518210156107ce5760209160051b010190565b6107a4565b6001600160a01b031660009081527fc8fcad8db84d3cc18b4c41d551ea0ee66dd599cde068d998e57d5e09332c131e6020526040902090565b906108196102cf836105f4565b828152809261082a601f19916105f4565b0190602036910137565b906000805160206114f283398151915280548310156107ce57600052601c8260031c7fc0d727610ea16241eff4447d08bb1b4595f7d2ec4515282437a13b7d0df4b922019260021b1690565b63ffffffff60e01b166000527fc8fcad8db84d3cc18b4c41d551ea0ee66dd599cde068d998e57d5e09332c131c602052604060002090565b9061ffff6108c4610589565b92546001600160a01b038116845260a01c166020830152565b61ffff6108e9826107d3565b5416916108f58361080c565b92600080936000805160206114f283398151915254945b85811061091c575b505050509050565b61092581610834565b905460e0916003916001600160a01b039182916109509161094b9190861b1c861b610880565b6108b8565b51169085161461096b575b505061096690610790565b61090c565b82949161099f9161097e6109a495610834565b9054911b1c901b61098f838b6107ba565b6001600160e01b03199091169052565b610790565b918383146109b357388061095b565b610914565b6000805160206114f283398151915254906109d28261080c565b91600090815b818110610a2c5750506109ea8161080c565b9260005b8281106109fa57505050565b8061099f610a0e61030e610a2794866107ba565b610a1883896107ba565b6001600160a01b039091169052565b6109ee565b610a5d610a50610a4b610a3e84610834565b90549060031b1c60e01b90565b610880565b546001600160a01b031690565b60006001600160a01b038216815b868110610aa7575b505015610a8a575b50610a8590610790565b6109d8565b8361099f610aa092610a18610a8595978a6107ba565b9290610a7b565b81610ac4610ab861030e848d6107ba565b6001600160a01b031690565b14610ad757610ad290610790565b610a6b565b50505060013880610a73565b600080356001600160e01b03191681527fc8fcad8db84d3cc18b4c41d551ea0ee66dd599cde068d998e57d5e09332c131c60205260408120546001600160a01b03168015610b4857818091368280378136915af43d82803e15610b44573d90f35b3d90fd5b606460405162461bcd60e51b815260206004820152602060248201527f4469616d6f6e643a2046756e6374696f6e20646f6573206e6f742065786973746044820152fd5b7fc8fcad8db84d3cc18b4c41d551ea0ee66dd599cde068d998e57d5e09332c131f546001600160a01b03163303610bbf57565b60405162461bcd60e51b815260206004820152602260248201527f4c69624469616d6f6e643a204d75737420626520636f6e7472616374206f776e60448201526132b960f11b6064820152608490fd5b60031115610c1957565b634e487b7160e01b600052602160045260246000fd5b516003811015610c195790565b919082519283825260005b848110610c68575050826000602080949584010152601f8019910116010190565b602081830181015184830182015201610c47565b93929091936060928382019380835281518095526080830160808660051b85010195602080940192600080915b838310610cde57505050505050610cdb9495610cce9183019060018060a01b03169052565b6040818403910152610c3c565b90565b909192939498607f1988820301865289519060018060a01b038251168152878201516003811015610d3957610d2b60019385848c95948680960152816040809401519382015201906101ec565b9b0196019493019190610ca9565b634e487b7160e01b85526021600452602485fd5b92909160005b8451811015610e5257610d726020610d6b83886107ba565b5101610c2f565b610d8d610d7f83886107ba565b51516001600160a01b031690565b604080610d9a858a6107ba565b51015192610da781610c0f565b80610dc1575050610dbc929161099f91610f7e565b610d53565b610dca81610c0f565b60018103610de2575050610dbc929161099f91611182565b6002919250610df081610c0f565b03610e0357509061099f610dbc926112d8565b5162461bcd60e51b8152602060048201526024808201527f4c69624469616d6f6e643a20496e636f727265637420466163657443757441636044820152633a34b7b760e11b6064820152608490fd5b509092917f8faa70878671ccd212d20771b795c50af8fd3ff6cf27f4bde57e5d4de0aeb673816106ad94610e8c8560405193849384610c7c565b0390a161142f565b15610e9b57565b60405162461bcd60e51b815260206004820152601b60248201527f4c69624469616d6f6e643a2053656c6563746f722065786973747300000000006044820152606490fd5b8151815460209093015161ffff60a01b60a09190911b166001600160b01b03199093166001600160a01b0390911617919091179055565b6000805160206114f283398151915290815491680100000000000000008310156105a95782610f4e9160016106ad95019055610834565b90919063ffffffff83549160031b9260e01c831b921b1916179055565b61ffff80911690811461079f5760010190565b91906001600160a01b03831615611060576000805160206114f28339815191525461ffff16906000915b81518310156110595761102761105391611022610fd6610fc887876107ba565b516001600160e01b03191690565b610fee610fe8610ab8610a5084610880565b15610e94565b61101d610ff9610589565b6001600160a01b038b16815261ffff8516602082015261101883610880565b610ee0565b610f17565b610f6b565b9261099f611034876107d3565b611043611022825461ffff1690565b61ffff1661ffff19825416179055565b91610fa8565b5050509050565b60405162461bcd60e51b815260206004820152602960248201527f4c69624469616d6f6e643a204164642066616365742063616e2774206265206160448201526864647265737328302960b81b6064820152608490fd5b156110be57565b60405162461bcd60e51b815260206004820152602d60248201527f4c69624469616d6f6e643a205265706c6163652066616365742063616e27742060448201526c6265206164647265737328302960981b6064820152608490fd5b1561112057565b60405162461bcd60e51b815260206004820152602360248201527f4c69624469616d6f6e643a2053656c6563746f7220646f6573206e6f742065786044820152621a5cdd60ea1b6064820152608490fd5b61ffff16801561079f576000190190565b9091906001600160a01b039081811661119c8115156110b7565b60005b855181101561091457806111b9610fc861123b93896107ba565b6111c5610a5082610880565b9085858884166111d6811515611119565b14611266576111e761120692610880565b80546001600160a01b0319166001600160a01b03909216919091179055565b611212611034866107d3565b611230611229611221836107d3565b5461ffff1690565b61ffff1690565b611240575b50610790565b61119f565b61124c611260916107d3565b61104361125b825461ffff1690565b611171565b38611235565b505050610790565b60001981019190821161079f57565b6000805160206114f2833981519152805480156112b55760001901906112a282610834565b63ffffffff82549160031b1b1916905555565b634e487b7160e01b600052603160045260246000fd5b801561079f576000190190565b906000805160206114f2833981519152546000805b84518110156110595780611307610fc86113b893886107ba565b93836113a86113a261131b61094b89610880565b936113956113526020611334885160018060a01b031690565b976113496001600160a01b038a161515611119565b015161ffff1690565b611376611369610a3e6113648661126e565b610834565b610a4b81610f4e85610834565b805461ffff60a01b191660a09290921b61ffff60a01b16919091179055565b61139d61127d565b6112cb565b96610880565b55611230611229611221836107d3565b6112ed565b156113c457565b60405162461bcd60e51b815260206004820152603960248201527f4c69624469616d6f6e643a205f696e697420697320616464726573732830292060448201527f6275745f63616c6c64617461206973206e6f7420656d707479000000000000006064820152608490fd5b6001600160a01b03811661144957506106ad9051156113bd565b816000929160208493519201905af43d156114e9573d9061146c6102cf8361060c565b9182523d6000602084013e5b156114805750565b80511561148f57602081519101fd5b60405162461bcd60e51b815260206004820152602c60248201527f4c69624469616d6f6e643a20496e697469616c697a6174696f6e2066756e637460448201526b1a5bdb881c995d995c9d195960a21b6064820152608490fd5b60609061147856fec8fcad8db84d3cc18b4c41d551ea0ee66dd599cde068d998e57d5e09332c131da264697066735822122018c2250c45cecf70524557e5219a1d904a3235a4831b4980b2492a63d7f66cde64736f6c63430008140033c8fcad8db84d3cc18b4c41d551ea0ee66dd599cde068d998e57d5e09332c131cc8fcad8db84d3cc18b4c41d551ea0ee66dd599cde068d998e57d5e09332c131ec8fcad8db84d3cc18b4c41d551ea0ee66dd599cde068d998e57d5e09332c131da2646970667358221220068133abfdb87fed2e007de78a59bb4a63a611d216f182c6243364bd085c56ae64736f6c63430008140033",
  "linkReferences": {},
  "deployedLinkReferences": {}
}