{
  "_format": "hh-sol-artifact-1",
  "contractName": "FuturesMarketFactoryV2",
  "sourceName": "src/FuturesMarketFactoryV2.sol",
  "abi": [
    {
      "inputs": [
        {
          "internalType": "address",
          "name": "_vault",
          "type": "address"
        },
        {
          "internalType": "address",
          "name": "_admin",
          "type": "address"
        },
        {
          "internalType": "address",
          "name": "_feeRecipient",
          "type": "address"
        }
      ],
      "stateMutability": "nonpayable",
      "type": "constructor"
    },
    {
      "inputs": [],
      "name": "BadNonce",
      "type": "error"
    },
    {
      "inputs": [],
      "name": "BadSignature",
      "type": "error"
    },
    {
      "inputs": [],
      "name": "ECDSAInvalidSignature",
      "type": "error"
    },
    {
      "inputs": [
        {
          "internalType": "uint256",
          "name": "length",
          "type": "uint256"
        }
      ],
      "name": "ECDSAInvalidSignatureLength",
      "type": "error"
    },
    {
      "inputs": [
        {
          "internalType": "bytes32",
          "name": "s",
          "type": "bytes32"
        }
      ],
      "name": "ECDSAInvalidSignatureS",
      "type": "error"
    },
    {
      "inputs": [],
      "name": "InvalidInput",
      "type": "error"
    },
    {
      "inputs": [],
      "name": "InvalidMarketSymbol",
      "type": "error"
    },
    {
      "inputs": [],
      "name": "InvalidMetricUrl",
      "type": "error"
    },
    {
      "inputs": [],
      "name": "InvalidOraclePrice",
      "type": "error"
    },
    {
      "inputs": [],
      "name": "InvalidSettlementDate",
      "type": "error"
    },
    {
      "inputs": [],
      "name": "InvalidShortString",
      "type": "error"
    },
    {
      "inputs": [],
      "name": "MarketCreationRestricted",
      "type": "error"
    },
    {
      "inputs": [],
      "name": "MarketIdCollision",
      "type": "error"
    },
    {
      "inputs": [],
      "name": "MarketNotFound",
      "type": "error"
    },
    {
      "inputs": [],
      "name": "MetaExpired",
      "type": "error"
    },
    {
      "inputs": [],
      "name": "NotAuthorized",
      "type": "error"
    },
    {
      "inputs": [],
      "name": "OnlyAdmin",
      "type": "error"
    },
    {
      "inputs": [
        {
          "internalType": "string",
          "name": "str",
          "type": "string"
        }
      ],
      "name": "StringTooLong",
      "type": "error"
    },
    {
      "inputs": [],
      "name": "ZeroAddress",
      "type": "error"
    },
    {
      "anonymous": false,
      "inputs": [],
      "name": "EIP712DomainChanged",
      "type": "event"
    },
    {
      "anonymous": false,
      "inputs": [
        {
          "indexed": true,
          "internalType": "address",
          "name": "orderBook",
          "type": "address"
        },
        {
          "indexed": true,
          "internalType": "bytes32",
          "name": "marketId",
          "type": "bytes32"
        },
        {
          "indexed": false,
          "internalType": "string",
          "name": "marketSymbol",
          "type": "string"
        },
        {
          "indexed": true,
          "internalType": "address",
          "name": "creator",
          "type": "address"
        },
        {
          "indexed": false,
          "internalType": "uint256",
          "name": "creationFee",
          "type": "uint256"
        },
        {
          "indexed": false,
          "internalType": "string",
          "name": "metricUrl",
          "type": "string"
        },
        {
          "indexed": false,
          "internalType": "uint256",
          "name": "settlementDate",
          "type": "uint256"
        },
        {
          "indexed": false,
          "internalType": "uint256",
          "name": "startPrice",
          "type": "uint256"
        }
      ],
      "name": "FuturesMarketCreated",
      "type": "event"
    },
    {
      "inputs": [],
      "name": "admin",
      "outputs": [
        {
          "internalType": "address",
          "name": "",
          "type": "address"
        }
      ],
      "stateMutability": "view",
      "type": "function"
    },
    {
      "inputs": [],
      "name": "bondManager",
      "outputs": [
        {
          "internalType": "address",
          "name": "",
          "type": "address"
        }
      ],
      "stateMutability": "view",
      "type": "function"
    },
    {
      "inputs": [
        {
          "components": [
            {
              "internalType": "address",
              "name": "facetAddress",
              "type": "address"
            },
            {
              "internalType": "enum IDiamondCut.FacetCutAction",
              "name": "action",
              "type": "uint8"
            },
            {
              "internalType": "bytes4[]",
              "name": "functionSelectors",
              "type": "bytes4[]"
            }
          ],
          "internalType": "struct IDiamondCut.FacetCut[]",
          "name": "cut",
          "type": "tuple[]"
        }
      ],
      "name": "computeCutHash",
      "outputs": [
        {
          "internalType": "bytes32",
          "name": "",
          "type": "bytes32"
        }
      ],
      "stateMutability": "pure",
      "type": "function"
    },
    {
      "inputs": [
        {
          "internalType": "string[]",
          "name": "tags",
          "type": "string[]"
        }
      ],
      "name": "computeTagsHash",
      "outputs": [
        {
          "internalType": "bytes32",
          "name": "",
          "type": "bytes32"
        }
      ],
      "stateMutability": "pure",
      "type": "function"
    },
    {
      "inputs": [
        {
          "internalType": "string",
          "name": "marketSymbol",
          "type": "string"
        },
        {
          "internalType": "string",
          "name": "metricUrl",
          "type": "string"
        },
        {
          "internalType": "uint256",
          "name": "settlementDate",
          "type": "uint256"
        },
        {
          "internalType": "uint256",
          "name": "startPrice",
          "type": "uint256"
        },
        {
          "internalType": "string",
          "name": "dataSource",
          "type": "string"
        },
        {
          "internalType": "string[]",
          "name": "tags",
          "type": "string[]"
        },
        {
          "internalType": "address",
          "name": "diamondOwner",
          "type": "address"
        },
        {
          "components": [
            {
              "internalType": "address",
              "name": "facetAddress",
              "type": "address"
            },
            {
              "internalType": "enum IDiamondCut.FacetCutAction",
              "name": "action",
              "type": "uint8"
            },
            {
              "internalType": "bytes4[]",
              "name": "functionSelectors",
              "type": "bytes4[]"
            }
          ],
          "internalType": "struct IDiamondCut.FacetCut[]",
          "name": "cut",
          "type": "tuple[]"
        },
        {
          "internalType": "address",
          "name": "initFacet",
          "type": "address"
        },
        {
          "internalType": "bytes",
          "name": "",
          "type": "bytes"
        }
      ],
      "name": "createFuturesMarketDiamond",
      "outputs": [
        {
          "internalType": "address",
          "name": "orderBook",
          "type": "address"
        },
        {
          "internalType": "bytes32",
          "name": "marketId",
          "type": "bytes32"
        }
      ],
      "stateMutability": "nonpayable",
      "type": "function"
    },
    {
      "inputs": [
        {
          "internalType": "string",
          "name": "marketSymbol",
          "type": "string"
        },
        {
          "internalType": "string",
          "name": "metricUrl",
          "type": "string"
        },
        {
          "internalType": "uint256",
          "name": "settlementDate",
          "type": "uint256"
        },
        {
          "internalType": "uint256",
          "name": "startPrice",
          "type": "uint256"
        },
        {
          "internalType": "string",
          "name": "dataSource",
          "type": "string"
        },
        {
          "internalType": "string[]",
          "name": "tags",
          "type": "string[]"
        },
        {
          "internalType": "address",
          "name": "diamondOwner",
          "type": "address"
        }
      ],
      "name": "createFuturesMarketV2",
      "outputs": [
        {
          "internalType": "address",
          "name": "orderBook",
          "type": "address"
        },
        {
          "internalType": "bytes32",
          "name": "marketId",
          "type": "bytes32"
        }
      ],
      "stateMutability": "nonpayable",
      "type": "function"
    },
    {
      "inputs": [
        {
          "internalType": "address",
          "name": "orderBook",
          "type": "address"
        }
      ],
      "name": "deactivateFuturesMarket",
      "outputs": [],
      "stateMutability": "nonpayable",
      "type": "function"
    },
    {
      "inputs": [],
      "name": "eip712Domain",
      "outputs": [
        {
          "internalType": "bytes1",
          "name": "fields",
          "type": "bytes1"
        },
        {
          "internalType": "string",
          "name": "name",
          "type": "string"
        },
        {
          "internalType": "string",
          "name": "version",
          "type": "string"
        },
        {
          "internalType": "uint256",
          "name": "chainId",
          "type": "uint256"
        },
        {
          "internalType": "address",
          "name": "verifyingContract",
          "type": "address"
        },
        {
          "internalType": "bytes32",
          "name": "salt",
          "type": "bytes32"
        },
        {
          "internalType": "uint256[]",
          "name": "extensions",
          "type": "uint256[]"
        }
      ],
      "stateMutability": "view",
      "type": "function"
    },
    {
      "inputs": [],
      "name": "eip712DomainInfo",
      "outputs": [
        {
          "internalType": "string",
          "name": "name",
          "type": "string"
        },
        {
          "internalType": "string",
          "name": "version",
          "type": "string"
        },
        {
          "internalType": "uint256",
          "name": "chainId",
          "type": "uint256"
        },
        {
          "internalType": "address",
          "name": "verifyingContract",
          "type": "address"
        },
        {
          "internalType": "bytes32",
          "name": "domainSeparator",
          "type": "bytes32"
        }
      ],
      "stateMutability": "view",
      "type": "function"
    },
    {
      "inputs": [],
      "name": "facetRegistry",
      "outputs": [
        {
          "internalType": "address",
          "name": "",
          "type": "address"
        }
      ],
      "stateMutability": "view",
      "type": "function"
    },
    {
      "inputs": [],
      "name": "feeRecipient",
      "outputs": [
        {
          "internalType": "address",
          "name": "",
          "type": "address"
        }
      ],
      "stateMutability": "view",
      "type": "function"
    },
    {
      "inputs": [],
      "name": "getAllMarkets",
      "outputs": [
        {
          "internalType": "bytes32[]",
          "name": "",
          "type": "bytes32[]"
        }
      ],
      "stateMutability": "view",
      "type": "function"
    },
    {
      "inputs": [
        {
          "internalType": "bytes32",
          "name": "marketId",
          "type": "bytes32"
        }
      ],
      "name": "getMarketSymbol",
      "outputs": [
        {
          "internalType": "string",
          "name": "",
          "type": "string"
        }
      ],
      "stateMutability": "view",
      "type": "function"
    },
    {
      "inputs": [
        {
          "internalType": "bytes32",
          "name": "marketId",
          "type": "bytes32"
        }
      ],
      "name": "getOrderBookForMarket",
      "outputs": [
        {
          "internalType": "address",
          "name": "",
          "type": "address"
        }
      ],
      "stateMutability": "view",
      "type": "function"
    },
    {
      "inputs": [],
      "name": "initFacetAddress",
      "outputs": [
        {
          "internalType": "address",
          "name": "",
          "type": "address"
        }
      ],
      "stateMutability": "view",
      "type": "function"
    },
    {
      "inputs": [],
      "name": "marketCreationFee",
      "outputs": [
        {
          "internalType": "uint256",
          "name": "",
          "type": "uint256"
        }
      ],
      "stateMutability": "view",
      "type": "function"
    },
    {
      "inputs": [
        {
          "internalType": "bytes32",
          "name": "",
          "type": "bytes32"
        }
      ],
      "name": "marketCreators",
      "outputs": [
        {
          "internalType": "address",
          "name": "",
          "type": "address"
        }
      ],
      "stateMutability": "view",
      "type": "function"
    },
    {
      "inputs": [
        {
          "internalType": "bytes32",
          "name": "",
          "type": "bytes32"
        }
      ],
      "name": "marketExists",
      "outputs": [
        {
          "internalType": "bool",
          "name": "",
          "type": "bool"
        }
      ],
      "stateMutability": "view",
      "type": "function"
    },
    {
      "inputs": [
        {
          "internalType": "bytes32",
          "name": "",
          "type": "bytes32"
        }
      ],
      "name": "marketMetricUrls",
      "outputs": [
        {
          "internalType": "string",
          "name": "",
          "type": "string"
        }
      ],
      "stateMutability": "view",
      "type": "function"
    },
    {
      "inputs": [
        {
          "internalType": "bytes32",
          "name": "",
          "type": "bytes32"
        }
      ],
      "name": "marketSettlementDates",
      "outputs": [
        {
          "internalType": "uint256",
          "name": "",
          "type": "uint256"
        }
      ],
      "stateMutability": "view",
      "type": "function"
    },
    {
      "inputs": [
        {
          "internalType": "bytes32",
          "name": "",
          "type": "bytes32"
        }
      ],
      "name": "marketSymbols",
      "outputs": [
        {
          "internalType": "string",
          "name": "",
          "type": "string"
        }
      ],
      "stateMutability": "view",
      "type": "function"
    },
    {
      "inputs": [
        {
          "internalType": "bytes32",
          "name": "",
          "type": "bytes32"
        }
      ],
      "name": "marketToOrderBook",
      "outputs": [
        {
          "internalType": "address",
          "name": "",
          "type": "address"
        }
      ],
      "stateMutability": "view",
      "type": "function"
    },
    {
      "inputs": [
        {
          "internalType": "string",
          "name": "marketSymbol",
          "type": "string"
        },
        {
          "internalType": "string",
          "name": "metricUrl",
          "type": "string"
        },
        {
          "internalType": "uint256",
          "name": "settlementDate",
          "type": "uint256"
        },
        {
          "internalType": "uint256",
          "name": "startPrice",
          "type": "uint256"
        },
        {
          "internalType": "string",
          "name": "dataSource",
          "type": "string"
        },
        {
          "internalType": "string[]",
          "name": "tags",
          "type": "string[]"
        },
        {
          "internalType": "address",
          "name": "diamondOwner",
          "type": "address"
        },
        {
          "components": [
            {
              "internalType": "address",
              "name": "facetAddress",
              "type": "address"
            },
            {
              "internalType": "enum IDiamondCut.FacetCutAction",
              "name": "action",
              "type": "uint8"
            },
            {
              "internalType": "bytes4[]",
              "name": "functionSelectors",
              "type": "bytes4[]"
            }
          ],
          "internalType": "struct IDiamondCut.FacetCut[]",
          "name": "cut",
          "type": "tuple[]"
        },
        {
          "internalType": "address",
          "name": "initFacet",
          "type": "address"
        },
        {
          "internalType": "address",
          "name": "creator",
          "type": "address"
        },
        {
          "internalType": "uint256",
          "name": "nonce",
          "type": "uint256"
        },
        {
          "internalType": "uint256",
          "name": "deadline",
          "type": "uint256"
        },
        {
          "internalType": "bytes",
          "name": "signature",
          "type": "bytes"
        }
      ],
      "name": "metaCreateFuturesMarketDiamond",
      "outputs": [
        {
          "internalType": "address",
          "name": "orderBook",
          "type": "address"
        },
        {
          "internalType": "bytes32",
          "name": "marketId",
          "type": "bytes32"
        }
      ],
      "stateMutability": "nonpayable",
      "type": "function"
    },
    {
      "inputs": [
        {
          "internalType": "string",
          "name": "marketSymbol",
          "type": "string"
        },
        {
          "internalType": "string",
          "name": "metricUrl",
          "type": "string"
        },
        {
          "internalType": "uint256",
          "name": "settlementDate",
          "type": "uint256"
        },
        {
          "internalType": "uint256",
          "name": "startPrice",
          "type": "uint256"
        },
        {
          "internalType": "string",
          "name": "dataSource",
          "type": "string"
        },
        {
          "internalType": "string[]",
          "name": "tags",
          "type": "string[]"
        },
        {
          "internalType": "address",
          "name": "diamondOwner",
          "type": "address"
        },
        {
          "internalType": "address",
          "name": "creator",
          "type": "address"
        },
        {
          "internalType": "uint256",
          "name": "nonce",
          "type": "uint256"
        },
        {
          "internalType": "uint256",
          "name": "deadline",
          "type": "uint256"
        },
        {
          "internalType": "bytes",
          "name": "signature",
          "type": "bytes"
        }
      ],
      "name": "metaCreateFuturesMarketV2",
      "outputs": [
        {
          "internalType": "address",
          "name": "orderBook",
          "type": "address"
        },
        {
          "internalType": "bytes32",
          "name": "marketId",
          "type": "bytes32"
        }
      ],
      "stateMutability": "nonpayable",
      "type": "function"
    },
    {
      "inputs": [
        {
          "internalType": "address",
          "name": "",
          "type": "address"
        }
      ],
      "name": "metaCreateNonce",
      "outputs": [
        {
          "internalType": "uint256",
          "name": "",
          "type": "uint256"
        }
      ],
      "stateMutability": "view",
      "type": "function"
    },
    {
      "inputs": [
        {
          "internalType": "address",
          "name": "",
          "type": "address"
        }
      ],
      "name": "orderBookToMarket",
      "outputs": [
        {
          "internalType": "bytes32",
          "name": "",
          "type": "bytes32"
        }
      ],
      "stateMutability": "view",
      "type": "function"
    },
    {
      "inputs": [],
      "name": "publicMarketCreation",
      "outputs": [
        {
          "internalType": "bool",
          "name": "",
          "type": "bool"
        }
      ],
      "stateMutability": "view",
      "type": "function"
    },
    {
      "inputs": [
        {
          "internalType": "address",
          "name": "newBondManager",
          "type": "address"
        }
      ],
      "name": "setBondManager",
      "outputs": [],
      "stateMutability": "nonpayable",
      "type": "function"
    },
    {
      "inputs": [
        {
          "internalType": "address",
          "name": "_facetRegistry",
          "type": "address"
        }
      ],
      "name": "setFacetRegistry",
      "outputs": [],
      "stateMutability": "nonpayable",
      "type": "function"
    },
    {
      "inputs": [
        {
          "internalType": "address",
          "name": "_initFacet",
          "type": "address"
        }
      ],
      "name": "setInitFacet",
      "outputs": [],
      "stateMutability": "nonpayable",
      "type": "function"
    },
    {
      "inputs": [
        {
          "internalType": "address",
          "name": "_vault",
          "type": "address"
        }
      ],
      "name": "setVault",
      "outputs": [],
      "stateMutability": "nonpayable",
      "type": "function"
    },
    {
      "inputs": [
        {
          "internalType": "bool",
          "name": "enabled",
          "type": "bool"
        }
      ],
      "name": "togglePublicMarketCreation",
      "outputs": [],
      "stateMutability": "nonpayable",
      "type": "function"
    },
    {
      "inputs": [
        {
          "internalType": "address",
          "name": "newAdmin",
          "type": "address"
        }
      ],
      "name": "updateAdmin",
      "outputs": [],
      "stateMutability": "nonpayable",
      "type": "function"
    },
    {
      "inputs": [
        {
          "internalType": "address",
          "name": "newFeeRecipient",
          "type": "address"
        }
      ],
      "name": "updateFeeRecipient",
      "outputs": [],
      "stateMutability": "nonpayable",
      "type": "function"
    },
    {
      "inputs": [
        {
          "internalType": "uint256",
          "name": "newFee",
          "type": "uint256"
        }
      ],
      "name": "updateMarketCreationFee",
      "outputs": [],
      "stateMutability": "nonpayable",
      "type": "function"
    },
    {
      "inputs": [],
      "name": "vault",
      "outputs": [
        {
          "internalType": "contract CoreVault",
          "name": "",
          "type": "address"
        }
      ],
      "stateMutability": "view",
      "type": "function"
    }
  ],
  "bytecode": "0x6101603462000239576001600160401b03601f6200643538819003918201601f1916840191908383118584101762000223578160609286926040958652833981010312620002395762000052836200025a565b906200006e8162000066602087016200025a565b95016200025a565b928151926200007d846200023e565b600f845260208401946e4465786574657261466163746f727960881b8652835196620000a9886200023e565b6001885260208801603160f81b8152620000c3876200026f565b97610120988952620000d58a62000442565b97610140988952519020988960e0525190209761010098808a524660a05286519060208201927f8b73c3c69bb8fe3d512ecc4cf759cc79239f7b179b0ffacaa9a75d522b39400f84528883015260608201524660808201523060a082015260a0815260c08101958187109087111762000223578587525190206080523060c0526305f5e1006011556012805460ff191660011790556001600160a01b03928316938415801562000218575b80156200020d575b620001fe5750829060018060a01b03199485600254161760025516836003541617600355169060045416176004555191615e459384620005f0853960805184612cc9015260a05184612d94015260c05184612c91015260e05184612d1801525183612d3e01525182611077015251816110a30152f35b63d92e233d60e01b8152600490fd5b508383161562000188565b508382161562000180565b634e487b7160e01b600052604160045260246000fd5b600080fd5b604081019081106001600160401b038211176200022357604052565b51906001600160a01b03821682036200023957565b805160209190828110156200030e575090601f825111620002ad57808251920151908083106200029e57501790565b82600019910360031b1b161790565b90604051809263305a27a960e01b82528060048301528251908160248401526000935b828510620002f4575050604492506000838284010152601f80199101168101030190fd5b8481018201518686016044015293810193859350620002d0565b6001600160401b03811162000223576000928354926001938481811c9116801562000437575b838210146200042357601f8111620003ed575b5081601f841160011462000386575092829391839286946200037a575b50501b916000199060031b1c191617905560ff90565b01519250388062000364565b919083601f1981168780528488209488905b88838310620003d25750505010620003b8575b505050811b01905560ff90565b015160001960f88460031b161c19169055388080620003ab565b85870151885590960195948501948793509081019062000398565b85805284601f848820920160051c820191601f860160051c015b8281106200041757505062000347565b87815501859062000407565b634e487b7160e01b86526022600452602486fd5b90607f169062000334565b805160209081811015620004d05750601f8251116200046f57808251920151908083106200029e57501790565b90604051809263305a27a960e01b82528060048301528251908160248401526000935b828510620004b6575050604492506000838284010152601f80199101168101030190fd5b848101820151868601604401529381019385935062000492565b9192916001600160401b038111620002235760019182548381811c91168015620005e4575b82821014620005ce57601f811162000595575b5080601f8311600114620005485750819293946000926200053c575b5050600019600383901b1c191690821b17905560ff90565b01519050388062000524565b90601f198316958460005282600020926000905b8882106200057d5750508385969710620003b857505050811b01905560ff90565b8087859682949686015181550195019301906200055c565b8360005283601f83600020920160051c820191601f850160051c015b828110620005c157505062000508565b60008155018490620005b1565b634e487b7160e01b600052602260045260246000fd5b90607f1690620004f556fe608060405260043610156200001357600080fd5b6000803560e01c806309ebcc311462001c7157806309fd71a21462001c235780630a1acd731462001bf85780630c6826691462001995578063180d67c614620019125780631ef0746414620019425780631fa02e7b14620019125780632ef1bdfa14620018f257806330618f41146200184c578063363cc42714620018215780633d665d0e14620017795780634690484014620017f657806348d3fed314620017ae5780634fb6a1881462001779578063605482f914620012335780636817031b14620011e05780636a7a0e9614620011a35780637a5c05da146200117857806384b0196e146200105e5780638f955ce71462001008578063afe956a61462000fcb578063aff0c7bd1462000f9f578063b0772d0b1462000f01578063b1e5c60a1462000ecc578063bbd96ca91462000e86578063c0b93feb1462000e41578063d64bd7b91462000814578063d8d0398914620007e3578063dd31b0a11462000790578063df5bfa381462000341578063e2f273bd14620002f2578063e847d21614620002c2578063f160d369146200024b578063f7d171dd1462000226578063f851a44014620001fb5763fbfa77cf14620001ce57600080fd5b34620001f85780600319360112620001f8576002546040516001600160a01b039091168152602090f35b80fd5b5034620001f85780600319360112620001f8576003546040516001600160a01b039091168152602090f35b5034620001f85780600319360112620001f857602060ff601254166040519015158152f35b5034620001f8576020366003190112620001f857620002696200213c565b6003546001600160a01b03919082163303620002b0571680156200029e57600480546001600160a01b03191691909117905580f35b60405163d92e233d60e01b8152600490fd5b604051634755657960e01b8152600490fd5b5034620001f8576020366003190112620001f8576003546001600160a01b03163303620002b05760043560115580f35b5034620001f8576020366003190112620001f857620003106200213c565b600354906001600160a01b03908183163303620002b057169081156200029e576001600160a01b0319161760035580f35b5034620001f857610140366003190112620001f8576001600160401b036004358181116200078c576200037990369060040162002018565b602435828111620006be576200039490369060040162002018565b604435606435916084358581116200078857620003b690369060040162002018565b60a4358681116200078457620003d190369060040162002104565b95620003dc62002125565b9660e435828111620006ba57620003f890369060040162002459565b906200040362002153565b936101243584811162000621576200042090369060040162002018565b5060ff6012541680156200076f575b156200075d578851801590811562000751575b506200073f578551801590811562000732575b506200072057428711801590620006f4575b620006e2578715620006d15751156200063457600a90511162000634576001600160a01b0392888416156200029e578960115480151580620006c2575b62000658575b5050604051916020830183620004c54342338b8f876200249a565b0393620004db601f199586810183528262001ff4565b519020998a8c52600b60205260ff60408d2054166200064657856005541680156200063457808d913b156200063057816200053181928f604051948580948193637d6746db60e01b8352339060048401620024ec565b03925af18015620006255762000609575b5050858316156200029e576200058b8b9487600254166200057e8960045416604051988993632b6c8a5b60e11b60208601526024850162002477565b0390810186528562001ff4565b60405194611e9880870191821187831017620005f5579186959391620005b895936200313788396200258f565b039088f08015620005ea57620005d5959697501694868662002686565b620005e6604051928392836200216b565b0390f35b6040513d89823e3d90fd5b634e487b7160e01b8e52604160045260248efd5b620006149062001fc4565b62000621578b3862000542565b8b80fd5b6040513d84823e3d90fd5b5080fd5b60405163b4fa3fb360e01b8152600490fd5b6040516304a7adb960e51b8152600490fd5b8560025416908660045416823b15620006be576200069192849283604051809681958294633eb29b8760e01b8452336004850162002477565b03925af18015620006255715620004aa57620006ad9062001fc4565b620006ba578938620004aa565b8980fd5b8380fd5b508560035416331415620004a4565b60405162fc7cad60e51b8152600490fd5b60405163620fa5ab60e11b8152600490fd5b506301e1338042018042116200070c57871162000467565b634e487b7160e01b8c52601160045260248cfd5b60405163213b197b60e01b8152600490fd5b6101009150113862000455565b60405163ee79ac5160e01b8152600490fd5b60409150113862000442565b604051636dfe746960e01b8152600490fd5b506003546001600160a01b031633146200042f565b8780fd5b8680fd5b8280fd5b5034620001f8576020366003190112620001f857620007ae6200213c565b6003546001600160a01b03919082163303620002b0571680156200029e57600680546001600160a01b03191691909117905580f35b5034620001f8576020366003190112620001f85760ff60406020926004358152600b84522054166040519015158152f35b5034620001f8576101a0366003190112620001f8576004356001600160401b03811162000630576200084b90369060040162002018565b6024356001600160401b0381116200078c576200086d90369060040162002018565b916084356001600160401b03811162000630576200089090369060040162002018565b9260a4356001600160401b0381116200078c57620008b390369060040162002104565b93620008be62002125565b9060e4356001600160401b03811162000ceb57620008e190369060040162002459565b95620008ec62002153565b91610124356001600160a01b038116900362000e3c576001600160401b03610184351162000cfa5762000926366101843560040162002018565b918751801590811562000e30575b506200073f578551801590811562000e23575b506200072057426044351180159062000df5575b620006e25761016435421162000de357610124356001600160a01b031687526008602052604087205461014435900362000dd15760643515620006d1578151156200063457600a81511162000634576001600160a01b03851615801562000dbf575b6200029e57620009cd9062002dbb565b620009d88962002afd565b90885160208a01209287516020890120906020815191012090604051947fae50defb2e3ad99d3a134b02147763deaf13340e500f7037c8f9c64b7f9c233e602087015260408601526060850152604435608085015260643560a085015260c084015260e083015260018060a01b03851661010083015261012082015260018060a01b03831661014082015260018060a01b03610124351661016082015261014435610180820152610164356101a08201526101a08152806101c081011060018060401b036101c08301111762000da95762000adb9162000acb826101c062000ad194016040526020815191012062002e35565b62002e5d565b9092919262002e9c565b6001600160a01b0361012435811691160362000d975760016101443501610144351162000d8357610124356001600160a01b031684526008602052604084206101443560010190556011548062000cfe575b50604051602081019062000b5d8162000b4e4342610124358a8d896200249a565b03601f19810183528262001ff4565b51902095868552600b60205260ff60408620541662000646576005546001600160a01b031680156200063457803b1562000cfa57604051637d6746db60e01b8152908690829081838162000bb9610124358f60048401620024ec565b03925af1801562000cef5788939291879162000ccc575b5050600254600454604051632b6c8a5b60e11b60208201529462000c1d92869262000c0e926001600160a01b03918216929091166024850162002477565b03601f19810185528462001ff4565b60405193611e98808601906001600160401b0382118783101762000cb857918695939162000c5295936200313788396200258f565b039083f0801562000625576001600160a01b0316926040929162000c80916064359160443591888862002686565b838152600c6020522080546001600160a01b031916610124356001600160a01b0316179055604051918291620005e69190836200216b565b634e487b7160e01b89526041600452602489fd5b62000cdb919293945062001fc4565b62000ceb57908691853862000bd0565b8480fd5b6040513d88823e3d90fd5b8580fd5b6002546004546001600160a01b0390811692911690813b15620007885791869162000d459383604051809681958294633eb29b8760e01b8452610124356004850162002477565b03925af1801562000d785790859162000d60575b5062000b2d565b62000d6b9062001fc4565b620006be57833862000d59565b6040513d87823e3d90fd5b634e487b7160e01b84526011600452602484fd5b604051635cd5d23360e01b8152600490fd5b634e487b7160e01b600052604160045260246000fd5b506001600160a01b03841615620009bd565b6040516312f55d3b60e21b8152600490fd5b604051631fec337b60e21b8152600490fd5b506301e13380420180421162000e0f57604435116200095b565b634e487b7160e01b88526011600452602488fd5b6101009150113862000947565b60409150113862000934565b600080fd5b5034620001f8576020366003190112620001f85762000e716040620005e6926004358152600e60205220620021f6565b604051918291602083526020830190620022cc565b5034620001f8576020366003190112620001f85760043580151580910362000630576003546001600160a01b03163303620002b05760ff80196012541691161760125580f35b5034620001f8576020366003190112620001f8576020906004358152600c8252604060018060a01b0391205416604051908152f35b5034620001f85780600319360112620001f857604051809160105490818352602080930180926010835284832090835b81811062000f8a575050508462000f4a91038562001ff4565b60405193838594850191818652518092526040850193925b82811062000f7257505050500390f35b83518552869550938101939281019260010162000f62565b82548452928601926001928301920162000f31565b5034620001f8576020366003190112620001f85760406020916004358152600f83522054604051908152f35b5034620001f8576020366003190112620001f8576020906040906001600160a01b0362000ff76200213c565b168152600a83522054604051908152f35b5034620001f8576020366003190112620001f857600435906001600160401b038211620001f8576020620010566200105062001048366004870162002186565b36916200208b565b62002dbb565b604051908152f35b5034620001f85780600319360112620001f8576200109c7f000000000000000000000000000000000000000000000000000000000000000062002f10565b90620010c87f000000000000000000000000000000000000000000000000000000000000000062002ffa565b60405160208082019391929091906001600160401b0385118486101762000da95792849260206200112c88966200111d98604052858552604051988998600f60f81b8a5260e0858b015260e08a0190620022cc565b9088820360408a0152620022cc565b924660608801523060808801528460a088015286840360c088015251928381520193925b8281106200116057505050500390f35b83518552869550938101939281019260010162001150565b5034620001f85780600319360112620001f8576007546040516001600160a01b039091168152602090f35b5034620001f8576020366003190112620001f8576020906040906001600160a01b03620011cf6200213c565b168152600883522054604051908152f35b5034620001f8576020366003190112620001f857620011fe6200213c565b6003546001600160a01b03919082163303620002b0571680156200029e57600280546001600160a01b03191691909117905580f35b5034620001f857610160366003190112620001f8576004356001600160401b03811162000630576200126a90369060040162002018565b6024356001600160401b0381116200078c576200128c90369060040162002018565b916084356001600160401b0381116200063057620012af90369060040162002018565b9260a4356001600160401b0381116200078c57620012d290369060040162002104565b620012dc62002125565b9460e4356001600160a01b038116900362000e3c576001600160401b036101443511620006be5762001315366101443560040162002018565b91855180159081156200176d575b506200073f578351801590811562001760575b506200072057426044351180159062001732575b620006e25761012435421162000de35760e4356001600160a01b031685526008602052604085205461010435900362000dd15760643515620006d1578151156200063457600a81511162000634576001600160a01b038716156200029e576006546001600160a01b03161580156200171e575b6200063457620013cd9062002dbb565b9185516020870120928451602086012092602081519101206040519360208501957f800b21a87886ba0936e0a216e19c67406b8e8fbf076db5e77e37960a4a662498875260408601526060850152604435608085015260643560a085015260c084015260e083015260018060a01b03871661010083015260018060a01b0360e4351661012083015261010435610140830152610124356101608301526101608252610180820182811060018060401b0382111762000da957620014a09362000ad19362000acb9260405251902062002e35565b6001600160a01b0360e435811691160362000d9757600161010435018061010435116200170a5760e4356001600160a01b03168352600860205260408320556011548062001686575b506040516020810190620015098162000b4e434260e435888b896200249a565b51902093848352600b60205260ff60408420541662000646576005546001600160a01b031680156200063457803b15620006be57836040518092637d6746db60e01b82528183816200156260e4358d60048401620024ec565b03925af180156200167b5790849162001663575b5050600254600454604051632b6c8a5b60e11b602082015291620015b491839162000b4e916001600160a01b03908116918b91166024850162002477565b600654600754604051936001600160a01b0391821692909116610e41808601906001600160401b0382118783101762000cb8579186959391620015fe959362004fcf883962002505565b039083f0801562000625576001600160a01b031692604092916200162c916064359160443591888862002686565b838152600c6020522080546001600160a01b03191660e4356001600160a01b0316179055604051918291620005e69190836200216b565b6200166e9062001fc4565b6200078c57823862001576565b6040513d86823e3d90fd5b6002546004546001600160a01b0390811692911690813b1562000ceb57918491620016cc9383604051809681958294633eb29b8760e01b845260e4356004850162002477565b03925af18015620016ff57908391620016e7575b50620014e9565b620016f29062001fc4565b62000630578138620016e0565b6040513d85823e3d90fd5b634e487b7160e01b83526011600452602483fd5b506007546001600160a01b031615620013bd565b506301e1338042018042116200174c57604435116200134a565b634e487b7160e01b86526011600452602486fd5b6101009150113862001336565b60409150113862001323565b5034620001f8576020366003190112620001f857602090600435815260098252604060018060a01b0391205416604051908152f35b5034620001f8576020366003190112620001f857620017cc6200213c565b6003546001600160a01b03919082163303620002b0571660018060a01b0319600554161760055580f35b5034620001f85780600319360112620001f8576004546040516001600160a01b039091168152602090f35b5034620001f85780600319360112620001f8576005546040516001600160a01b039091168152602090f35b5034620001f85780600319360112620001f857620018cd604051620018718162001fd8565b600f81526e4465786574657261466163746f727960881b60208201526040516200189b8162001fd8565b60018152603160f81b6020820152620018dc620018b762002c8e565b9160405194859460a0865260a0860190620022cc565b908482036020860152620022cc565b9046604084015230606084015260808301520390f35b5034620001f85780600319360112620001f8576020601154604051908152f35b5034620001f8576020366003190112620001f85762000e716040620005e6926004358152600d60205220620021f6565b5034620001f8576020366003190112620001f857620019606200213c565b6003546001600160a01b03919082163303620002b0571680156200029e57600780546001600160a01b03191691909117905580f35b5034620001f85760208060031936011262000630576001600160a01b0380620019bd6200213c565b169182156200029e57828452600a8152604084205492831562001be65760039280600354163314801562001bcf575b1562001bbd578581600554168062001b66575b50506002541691823b1562000cfa5785604051631740e71760e11b815283600482015281816024818382995af18015620006255762001b4e575b5085905260098152604080872080546001600160a01b0319169055918652600a815281862060009055848652600b90528420805460ff191690556010805493909190855b85811062001a89578680f35b8162001a958262002539565b905490871b1c1462001aaa5760010162001a7d565b92939450508254916000199283810190811162001b3b5762001ae162001ad462001af89262002539565b905490881b1c9262002539565b819391549060031b91821b91600019901b19161790565b9055825490811562001b29575081019262001b138462002539565b81939154921b1b19169055553880808080808680f35b634e487b7160e01b8652603160045285fd5b634e487b7160e01b875260116004528287fd5b62001b599062001fc4565b62000cfa57853862001a39565b803b156200063057818091606460405180948193632f2107a960e21b83528c60048401528960248401523360448401525af18015620006255715620019ff5762001bb09062001fc4565b62000cfa578538620019ff565b60405163ea8e4eb560e01b8152600490fd5b50848652600c8352806040872054163314620019ec565b6040516307db1be560e41b8152600490fd5b5034620001f85780600319360112620001f8576006546040516001600160a01b039091168152602090f35b5034620001f8576020366003190112620001f857600435906001600160401b038211620001f85760206200105662001c6b62001c63366004870162002186565b3691620022f3565b62002afd565b5034620001f85760e0366003190112620001f8576001600160401b036004358181116200078c5762001ca890369060040162002018565b602435828111620006be5762001cc390369060040162002018565b60443560643591608435858111620007885762001ce590369060040162002018565b9460a435818111620007845762001d0190369060040162002104565b62001d0b62002125565b9660ff60125416801562001faf575b156200075d578651801590811562001fa3575b506200073f578351801590811562001f96575b50620007205742851180159062001f6a575b620006e2578515620006d15751156200063457600a90511162000634576001600160a01b0390868216156200029e57816006541615801562001f5d575b62000634576011548015158062001f4e575b62001ee4575b50604051602081018162001dc0434233898d876200249a565b039162001dd6601f199384810183528262001ff4565b51902097888a52600b60205260ff60408b205416620006465783600554169182156200063457828b933b15620006be578362001e2d81928d604051978880948193637d6746db60e01b8352339060048401620024ec565b03925af193841562001ed7578b9462001eba575b505062001e8090856002541662001e738760045416604051968793632b6c8a5b60e11b60208601526024850162002477565b0390810184528362001ff4565b83600654169084600754169160405194610e418087019187831090831117620005f5579186959391620005b8959362004fcf883962002505565b62001ec89192945062001fc4565b620006ba5788918a3862001e41565b50604051903d90823e3d90fd5b888360025416846004541690803b156200078c5762001f1c9383604051809681958294633eb29b8760e01b8452336004850162002477565b03925af1801562001f43571562001da75762001f3b9098919862001fc4565b963862001da7565b6040513d8b823e3d90fd5b50826003541633141562001da1565b5081600754161562001d8f565b506301e13380420180421162001f8257851162001d52565b634e487b7160e01b8a52601160045260248afd5b6101009150113862001d40565b60409150113862001d2d565b506003546001600160a01b0316331462001d1a565b6001600160401b03811162000da957604052565b604081019081106001600160401b0382111762000da957604052565b601f909101601f19168101906001600160401b0382119082101762000da957604052565b81601f8201121562000e3c578035906001600160401b03821162000da9576040519262002050601f8401601f19166020018562001ff4565b8284526020838301011162000e3c57816000926020809301838601378301015290565b6001600160401b03811162000da95760051b60200190565b929190926200209a8462002073565b91620020aa604051938462001ff4565b829480845260208094019060051b83019282841162000e3c5780915b848310620020d657505050505050565b82356001600160401b03811162000e3c578691620020f8868493860162002018565b815201920191620020c6565b9080601f8301121562000e3c5781602062002122933591016200208b565b90565b60c435906001600160a01b038216820362000e3c57565b600435906001600160a01b038216820362000e3c57565b61010435906001600160a01b038216820362000e3c57565b6001600160a01b039091168152602081019190915260400190565b9181601f8401121562000e3c578235916001600160401b03831162000e3c576020808501948460051b01011162000e3c57565b90600182811c92168015620021eb575b6020831014620021d557565b634e487b7160e01b600052602260045260246000fd5b91607f1691620021c9565b906040519182600082546200220b81620021b9565b9081845260209460019160018116908160001462002283575060011462002240575b5050506200223e9250038362001ff4565b565b600090815285812095935091905b8183106200226a5750506200223e93508201013880806200222d565b855488840185015294850194879450918301916200224e565b925050506200223e94925060ff191682840152151560051b8201013880806200222d565b60005b838110620022bb5750506000910152565b8181015183820152602001620022aa565b90602091620022e781518092818552858086019101620022a7565b601f01601f1916010190565b929190620023018162002073565b91604091620023138351948562001ff4565b839581855260208095019160059060051b82019484861162000e3c5782935b86851062002344575050505050505050565b6001600160401b03853581811162000e3c5785019060609182818a031262000e3c578451928301838110838211176200244457855280356001600160a01b038116810362000e3c5783528a810135600381101562000e3c578b8401528481013591821162000e3c570187601f8201121562000e3c578035620023c68162002073565b91620023d58651938462001ff4565b8183528b80840192881b820101908a821162000e3c57908c80959396949201955b818710620024135750508394508582015281520194019362002332565b9395929450909282356001600160e01b03198116810362000e3c57818e92918392520192019492908c9492620023f6565b60246000634e487b7160e01b81526041600452fd5b9080601f8301121562000e3c578160206200212293359101620022f3565b6001600160a01b0391821681526020810192909252909116604082015260600190565b91620024c96020605497959694620024ba829582815194859201620022a7565b019182815194859201620022a7565b60609490941b6001600160601b0319169301928352601483015260348201520190565b9081526001600160a01b03909116602082015260400190565b6001600160a01b039182168152918116602083015290911660408201526080606082018190526200212292910190620022cc565b6010548110156200255557601060005260206000200190600090565b634e487b7160e01b600052603260045260246000fd5b906003821015620025795752565b634e487b7160e01b600052602160045260246000fd5b909493919294608095608083019660018060a01b038093168452602097608089860152865180915260a08501988060a08360051b880101980192600080915b848310620025f757505050505050620021229596501660408201526060818403910152620022cc565b9091928094959a8d609f198b83030190528b51908284606092838101938d86511682526200262c84870151858401906200256b565b6040809601519582015284518094520192019085905b80821062002661575050509c81019c9a019493926001019190620025ce565b82516001600160e01b0319168452889493840193909201916001919091019062002642565b600254949591946001600160a01b03908116949091600090863b156200063057604091825163e1379dbb60e01b81528181602481838a88169d8e60048401525af1801562002ade5762002acc575b50908460025416803b156200078c57620027089183918b83875180968195829463539bea8d60e01b845260048401620024ec565b03925af180156200291a5790829162002ab4575b508890526009602090815282822080546001600160a01b03199081168a17909155888352600a82528383208a9055898352600b8252838320805460ff19166001908117909155600c835284842080549092163317909155600d8252838320885192969291906001600160401b0390818411620029dc576200279e8154620021b9565b93601f9485811162002a6b575b50808a868211600114620029fc578891620029f0575b50600019600383901b1c191690841b1790555b601054600160401b811015620029dc57620027fa62001ae1828f93860160105562002539565b90558b8552600e8852858520928751918211620029dc576200281d8454620021b9565b81811162002993575b5088908211600114620029305781928291879362002924575b501b916000199060031b1c19161790555b888252600f8552898383205560025416803b15620006305781809160448b8651948593849263dee0f5e560e01b845260048401528b60248401525af180156200291a5762002902575b505091620028ef917fa8786ce5c1c6982894b2280e9d3ad81632ac0abfdbfa9cdcee4e07b7099e1178959493601154620028de82519760a0895260a0890190620022cc565b9387015285830390860152620022cc565b95606083015260808201528033950390a4565b6200290e829162001fc4565b620001f8578062002899565b83513d84823e3d90fd5b8901519250386200283f565b8386528886209082601f198116885b8c878d8484106200297c57505050501062002962575b5050811b01905562002850565b88015160001960f88460031b161c19169055388062002955565b86015187559095019493840193869350016200293f565b8487528987208280850160051c8201928c8610620029d2575b0160051c019084905b828110620029c557505062002826565b60008155018490620029b5565b92508192620029ac565b634e487b7160e01b86526041600452602486fd5b90508c015138620027c1565b8389528b8920869350908e601f1984168b8f5b82821062002a49575050841162002a2f575b505050811b019055620027d4565b015160001960f88460031b161c1916905538808e62002a21565b929484849395979892960151815501940192018f909188959493928f62002a0f565b8288528a88208680840160051c8201928d851062002aaa575b0160051c019085905b82811062002a9d575050620027ab565b6000815501859062002a8d565b9250819262002a84565b62002abf9062001fc4565b620001f85780386200271c565b62002ad79062001fc4565b38620026d4565b84513d84823e3d90fd5b8051821015620025555760209160051b010190565b9081519162002b0c8362002073565b9062002b2b60409462002b228651948562001ff4565b80845262002073565b9360209485840194601f1980920136873760005b845181101562002c3c578362002b56828762002ae8565b51015184518981018181938c808251949201936000915b81831062002c175750505062002b8b92500386810183528262001ff4565b519020906001600160a01b0362002ba3828862002ae8565b5151168962002bb3838962002ae8565b510151926003841015620025795762002bd88751948c8601938452888601906200256b565b606084810191909152835260808301926001600160401b0384118185101762000da957600193875251902062002c0f828962002ae8565b520162002b3f565b600192945080919363ffffffff60e01b87511681520194019201849293918e62002b6d565b5095939492509051838194820180965190949160005b82811062002c76575050505062002c70920390810183528262001ff4565b51902090565b83518752958101958794509281019260010162002c52565b307f00000000000000000000000000000000000000000000000000000000000000006001600160a01b0316148062002d91575b1562002ceb577f000000000000000000000000000000000000000000000000000000000000000090565b60405160208101907f8b73c3c69bb8fe3d512ecc4cf759cc79239f7b179b0ffacaa9a75d522b39400f82527f000000000000000000000000000000000000000000000000000000000000000060408201527f000000000000000000000000000000000000000000000000000000000000000060608201524660808201523060a082015260a0815260c0810181811060018060401b0382111762000da95760405251902090565b507f0000000000000000000000000000000000000000000000000000000000000000461462002cc1565b90600060605b835182101562002e285760019062002e1f62002dde848762002ae8565b5191604051809360209262002dfc81518092868087019101620022a7565b820162002e1282518093868085019101620022a7565b0103808452018262001ff4565b91019062002dc1565b8051602090910120925050565b60429062002e4262002c8e565b906040519161190160f01b8352600283015260228201522090565b815191906041830362002e915762002e8a92506020820151906060604084015193015160001a90620030ad565b9192909190565b505060009160029190565b600481101562002579578062002eb0575050565b6001810362002ecb5760405163f645eedf60e01b8152600490fd5b6002810362002eed5760405163fce698f760e01b815260048101839052602490fd5b60031462002ef85750565b602490604051906335e2f38360e21b82526004820152fd5b60ff811462002f525760ff811690601f821162002f40576040519162002f368362001fd8565b8252602082015290565b604051632cd44ac360e21b8152600490fd5b506040516000816000549162002f6883620021b9565b80835260209360019081811690811562002fd8575060011462002f96575b5050620021229250038262001ff4565b600080805285812095935091905b81831062002fbf575050620021229350820101388062002f86565b8554878401850152948501948694509183019162002fa4565b9150506200212294925060ff191682840152151560051b820101388062002f86565b60ff8114620030205760ff811690601f821162002f40576040519162002f368362001fd8565b50604051600081600191600154926200303984620021b9565b9081845260209460018116908160001462002fd8575060011462003067575050620021229250038262001ff4565b90939150600160005281600020936000915b81831062003094575050620021229350820101388062002f86565b8554878401850152948501948694509183019162003079565b91906fa2a8918ca85bafe22016d0b997e4df60600160ff1b0384116200312a57926020929160ff608095604051948552168484015260408301526060820152600092839182805260015afa156200311e5780516001600160a01b038116156200311557918190565b50809160019190565b604051903d90823e3d90fd5b5050506000916003919056fe60406080815234620001035762001e98803803806200001e8162000261565b92833960808282810103126200010357620000398262000287565b60208301519091906001600160401b0381116200010357818401601f828601011215620001035780840151906200007a62000074836200029c565b62000261565b91602083828152019184870160208360051b838a010101116200010357602081880101925b60208360051b838a0101018410620001085750505050620000c285850162000287565b6060850151949092906001600160401b0386116200010357620000f595620000ee9282019101620002f5565b9262000337565b51611212908162000c668239f35b600080fd5b83516001600160401b03811162000103578289010160609081601f19828a8d0103011262000103576200013a6200021b565b91620001496020830162000287565b83528b820151600381101562000103576020840152810151906001600160401b038211620001035701878a01603f8201121562000103576020810151906200019562000074836200029c565b82815291602083018a8d01600583901b84018f01116200010357918d8101908e5b8360051b8201018210620001db57505050508a8201528152602093840193016200009f565b8151936001600160e01b03198516850362000103578f9481602092918392520192019193620001b6565b634e487b7160e01b600052604160045260246000fd5b60405190606082016001600160401b038111838210176200023b57604052565b62000205565b60408051919082016001600160401b038111838210176200023b57604052565b6040519190601f01601f191682016001600160401b038111838210176200023b57604052565b51906001600160a01b03821682036200010357565b6001600160401b0381116200023b5760051b60200190565b6001600160401b0381116200023b57601f01601f191660200190565b60005b838110620002e45750506000910152565b8181015183820152602001620002d3565b81601f8201121562000103578051620003126200007482620002b4565b92818452602082840101116200010357620003349160208085019101620002d0565b90565b7fc8fcad8db84d3cc18b4c41d551ea0ee66dd599cde068d998e57d5e09332c131f80546001600160a01b038381166001600160a01b0319831617909255929593949281169116907f8be0079c531659141344cd1fd0a4f28419497f9722a3daafe3b4186f6b6457e0600080a360005b84518110156200048457620003ca6020620003c2838862000501565b51016200053d565b620003e8620003da838862000501565b51516001600160a01b031690565b604080620003f7858a62000501565b5101519262000406816200051c565b8062000424575050600192916200041d9162000af9565b01620003a6565b6200042f816200051c565b600181036200044f57505060019291620004499162000997565b6200041d565b60029192506200045f816200051c565b036200047457509062000449600192620007f8565b5163e548e6b560e01b8152600490fd5b509092917f8faa70878671ccd212d20771b795c50af8fd3ff6cf27f4bde57e5d4de0aeb67381620004ca94620004c1856040519384938462000572565b0390a162000bd4565b565b80546001600160a01b0319166001600160a01b03909216919091179055565b634e487b7160e01b600052603260045260246000fd5b8051821015620005165760209160051b010190565b620004eb565b600311156200052757565b634e487b7160e01b600052602160045260246000fd5b516003811015620005275790565b906020916200056681518092818552858086019101620002d0565b601f01601f1916010190565b9392909360609260608201606083528651809152608094608084019160808160051b860101966020809a01936000915b838310620005d857505050505050620005ca9062000334959683019060018060a01b03169052565b60408184039101526200054b565b909192939498607f198882030183528951908681019060018060a01b0383511681528d83015160038110156200052757848f9493928592838201528a604080960151958201528451809452019201906000905b8082106200064c5750505090806001929b01930193019194939290620005a2565b82516001600160e01b03191684528f949384019390920191600191909101906200062b565b63ffffffff60e01b166000527fc8fcad8db84d3cc18b4c41d551ea0ee66dd599cde068d998e57d5e09332c131c602052604060002090565b9061ffff620006b762000241565b92546001600160a01b038116845260a01c166020830152565b634e487b7160e01b600052601160045260246000fd5b600019810191908211620006f657565b620006d0565b9060008051602062001e7883398151915280548310156200051657600052601c60206000208360031c019260021b1690565b805461ffff60a01b191660a09290921b61ffff60a01b16919091179055565b60008051602062001e7883398151915280548015620007895760001901906200077682620006fc565b63ffffffff82549160031b1b1916905555565b634e487b7160e01b600052603160045260246000fd5b8015620006f6576000190190565b6001600160a01b031660009081527fc8fcad8db84d3cc18b4c41d551ea0ee66dd599cde068d998e57d5e09332c131e6020526040902090565b61ffff168015620006f6576000190190565b60008051602062001e78833981519152546000929183915b81518510156200097c57620008386200082a868462000501565b516001600160e01b03191690565b946200084e620008488762000671565b620006a9565b80516001600160a01b03169081156200096a57620008fb620008f4600195620008e46200088160208b96015161ffff1690565b620008de620008ab6200089e6200089886620006e6565b620006fc565b90549060031b1c60e01b90565b620008d881620008bb85620006fc565b90919063ffffffff83549160031b9260e01c831b921b1916179055565b62000671565b6200072e565b620008ee6200074d565b6200079f565b9862000671565b556200091e620009176200090f83620007ad565b5461ffff1690565b61ffff1690565b6200092d575b50019362000810565b6200093c6200096391620007ad565b620009536200094d825461ffff1690565b620007e6565b61ffff1661ffff19825416179055565b3862000924565b60405163a555f8b160e01b8152600490fd5b5050509050565b61ffff809116908114620006f65760010190565b6001600160a01b038082169392909190841562000a825760005b815181101562000a7a57620009cb6200082a828462000501565b90620009e8620009db8362000671565b546001600160a01b031690565b8581169283156200096a5785896001951462000a715762000a0d62000a139262000671565b620004cc565b62000a3962000a2286620007ad565b6200095362000a33825461ffff1690565b62000983565b62000a4c620009176200090f83620007ad565b62000a5b575b505b01620009b1565b6200093c62000a6a91620007ad565b3862000a52565b50505062000a54565b505050509050565b604051636dc8921f60e01b8152600490fd5b61ffff6020620004ca9362000ab360018060a01b0382511685620004cc565b015116906200072e565b60008051602062001e7883398151915290815491680100000000000000008310156200023b5782620008bb916001620004ca95019055620006fc565b91906001600160a01b0383161562000a825760008051602062001e788339815191525461ffff16906000915b81518310156200097c5762000b3f6200082a848462000501565b62000b5e62000b52620009db8362000671565b6001600160a01b031690565b62000bc25760019162000a3362000baa9262000ba462000b7d62000241565b6001600160a01b038b16815261ffff8516602082015262000b9e8362000671565b62000a94565b62000abd565b9262000bba62000a2287620007ad565b019162000b25565b604051635286e7e960e01b8152600490fd5b6001600160a01b03811662000bfe57505162000bec57565b604051630e0bf9eb60e01b8152600490fd5b816000929160208493519201905af43d1562000c5c573d9062000c256200007483620002b4565b9182523d6000602084013e5b1562000c3a5750565b80511562000c4a57602081519101fd5b604051633f735ec560e21b8152600490fd5b60609062000c3156fe60806040526004361015610015575b36610a2e57005b6000803560e01c9081631f931c1c146100885750806352ef6b2c146100835780637a0ed6271461007e5780638da5cb5b14610079578063adfca15e14610074578063cdffacc61461006f5763f2fde38b0361000e57610479565b610435565b6103b6565b610380565b6102a8565b610185565b34610110576060366003190112610110576004356001600160401b0380821161010c573660238301121561010c57816004013591818311610108573660248460051b83010111610108576100da610113565b60443592831161010457610101936100f86024943690600401610158565b949093016105e3565b80f35b8480fd5b8380fd5b8280fd5b80fd5b602435906001600160a01b038216820361012957565b600080fd5b600435906001600160a01b038216820361012957565b35906001600160a01b038216820361012957565b9181601f84011215610129578235916001600160401b038311610129576020838186019501011161012957565b346101295760003660031901126101295761019e6107fc565b6040518091602080830160208452825180915260206040850193019160005b8281106101cc57505050500390f35b83516001600160a01b0316855286955093810193928101926001016101bd565b90815180825260208080930193019160005b82811061020c575050505090565b83516001600160e01b031916855293810193928101926001016101fe565b6020808201908083528351809252604092604081018260408560051b8401019601946000925b858410610261575050505050505090565b909192939495968580610297600193603f1986820301885286838d51878060a01b038151168452015191818582015201906101ec565b990194019401929594939190610250565b3461012957600080600319360112610110576102c26107fc565b8051916102d66102d184610585565b610560565b928084526102e6601f1991610585565b01815b8181106103605750505b815181101561034e578061032461031461030f600194866107a2565b6107b6565b61031e83876107a2565b516107c3565b61033961033461030f83866107a2565b610973565b602061034583876107a2565b510152016102f3565b6040518061035c858261022a565b0390f35b60209061036b61051d565b848152826060818301528288010152016102e9565b34610129576000366003190112610129576000805160206111bd833981519152546040516001600160a01b039091168152602090f35b3461012957602080600319360112610129576103d361033461012e565b906040519181839283018184528251809152816040850193019160005b8281106103ff57505050500390f35b83516001600160e01b031916855286955093810193928101926001016103f0565b35906001600160e01b03198216820361012957565b34610129576020366003190112610129576004356001600160e01b031981168103610129576020906001600160a01b039061046f9061077c565b5416604051908152f35b346101295760203660031901126101295761049261012e565b61049a610a93565b6001600160a01b039081169081156104f5576000805160206111bd83398151915280546001600160a01b031981168417909155167f8be0079c531659141344cd1fd0a4f28419497f9722a3daafe3b4186f6b6457e0600080a3005b60405163e043ab3f60e01b8152600490fd5b634e487b7160e01b600052604160045260246000fd5b60408051919082016001600160401b0381118382101761053c57604052565b610507565b60405190606082016001600160401b0381118382101761053c57604052565b6040519190601f01601f191682016001600160401b0381118382101761053c57604052565b6001600160401b03811161053c5760051b60200190565b6001600160401b03811161053c57601f01601f191660200190565b9291926105c66102d18361059c565b938285528282011161012957816000926020928387013784010152565b94939092946105f0610a93565b6105fc6102d185610585565b908194808352602080930160059160051b8301923684116101295780915b84831061063f5750505050505061063d93946106379136916105b7565b91610c06565b565b6001600160401b03833581811161012957830160608136031261012957610664610541565b9161066e82610144565b835288820135600381101561012957898401526040918281013591821161012957019036601f83011215610129578135916106ab6102d184610585565b928a808583815201918a1b8301019136831161012957918b80969492979593015b8181106106e657505084955082015281520192019161061a565b91939580919395976106f784610420565b8152019101918b9593919694926106cc565b906107166102d183610585565b8281528092610727601f1991610585565b0190602036910137565b634e487b7160e01b600052603260045260246000fd5b9060008051602061119d833981519152805483101561077757600052601c60206000208360031c019260021b1690565b610731565b63ffffffff60e01b1660005260008051602061117d833981519152602052604060002090565b80518210156107775760209160051b010190565b516001600160a01b031690565b6001600160a01b039091169052565b634e487b7160e01b600052601160045260246000fd5b60001981146107f75760010190565b6107d2565b60008051602061119d833981519152549061081682610709565b91600090815b81811061086657505061082e81610709565b9260005b82811061083e57505050565b8061086061085161030f600194866107a2565b61085b83896107a2565b6107c3565b01610832565b61089761088a61088561087884610747565b90549060031b1c60e01b90565b61077c565b546001600160a01b031690565b60006001600160a01b038216815b8681106108df575b5050156108be575b5060010161081c565b836108d36108d89261085b600195978a6107a2565b6107e8565b92906108b5565b816108fc6108f061030f848d6107a2565b6001600160a01b031690565b14610909576001016108a5565b505050600138806108ad565b6001600160a01b031660009081527fc8fcad8db84d3cc18b4c41d551ea0ee66dd599cde068d998e57d5e09332c131e6020526040902090565b9061ffff61095a61051d565b92546001600160a01b038116845260a01c166020830152565b61ffff61097f82610915565b54169161098b83610709565b926000809360008051602061119d83398151915254945b8581106109b2575b505050509050565b6109d861030f6109d36109c484610747565b90549060031b1c60e01b61077c565b61094e565b6001600160a01b038381169116146109f3575b6001016109a2565b91610a21906108d3610a0761087886610747565b610a11838b6107a2565b6001600160e01b03199091169052565b918383036109eb576109aa565b600080356001600160e01b031916815260008051602061117d83398151915260205260408120546001600160a01b03168015610a8157818091368280378136915af43d82803e15610a7d573d90f35b3d90fd5b604051631535ac5f60e31b8152600490fd5b6000805160206111bd833981519152546001600160a01b03163303610ab457565b60405163bfcafd3760e01b8152600490fd5b60031115610ad057565b634e487b7160e01b600052602160045260246000fd5b516003811015610ad05790565b919082519283825260005b848110610b1f575050826000602080949584010152601f8019910116010190565b602081830181015184830182015201610afe565b939290919360609260608201936060835281518095526080830160808660051b85010195602080940192600080915b838310610b9757505050505050610b949495610b879183019060018060a01b03169052565b6040818403910152610af3565b90565b909192939498607f1988820301865289519060018060a01b038251168152878201516003811015610bf257610be460019385848c95948680960152816040809401519382015201906101ec565b9b0196019493019190610b62565b634e487b7160e01b85526021600452602485fd5b92909160005b8451811015610cc757610c2b6020610c2483886107a2565b5101610ae6565b610c3e610c3883886107a2565b516107b6565b604080610c4b858a6107a2565b51015192610c5881610ac6565b80610c7257505060019291610c6c9161103f565b01610c0c565b610c7b81610ac6565b60018103610c9757505060019291610c9291610f1f565b610c6c565b6002919250610ca581610ac6565b03610cb7575090610c92600192610dc2565b5163e548e6b560e01b8152600490fd5b509092917f8faa70878671ccd212d20771b795c50af8fd3ff6cf27f4bde57e5d4de0aeb6738161063d94610d018560405193849384610b33565b0390a16110f4565b80546001600160a01b0319166001600160a01b03909216919091179055565b6000198101919082116107f757565b805461ffff60a01b191660a09290921b61ffff60a01b16919091179055565b60008051602061119d83398151915280548015610d8e576000190190610d7b82610747565b63ffffffff82549160031b1b1916905555565b634e487b7160e01b600052603160045260246000fd5b80156107f7576000190190565b61ffff1680156107f7576000190190565b60008051602061119d833981519152546000929183915b8151851015610f0557610dfd610def86846107a2565b516001600160e01b03191690565b94610e0a6109d38761077c565b80516001600160a01b0316908115610ef357610e91610e8b600195610e7e610e3860208b96015161ffff1690565b610e79610e4f610878610e4a86610d28565b610747565b61088581610e5c85610747565b90919063ffffffff83549160031b9260e01c831b921b1916179055565b610d37565b610e86610d56565b610da4565b9861077c565b55610eb0610ea9610ea183610915565b5461ffff1690565b61ffff1690565b610ebd575b500193610dd9565b610ec9610eed91610915565b610edd610ed8825461ffff1690565b610db1565b61ffff1661ffff19825416179055565b38610eb5565b60405163a555f8b160e01b8152600490fd5b5050509050565b61ffff8091169081146107f75760010190565b6001600160a01b0380821693929091908415610fd65760005b81518110156109aa57610f4e610def82846107a2565b90610f5b61088a8361077c565b858116928315610ef357858960019514610fce57610f7b610f809261077c565b610d09565b610fa0610f8c86610915565b610edd610f9b825461ffff1690565b610f0c565b610faf610ea9610ea183610915565b610fbc575b505b01610f38565b610ec9610fc891610915565b38610fb4565b505050610fb6565b604051636dc8921f60e01b8152600490fd5b61ffff602061063d9361100460018060a01b0382511685610d09565b01511690610d37565b60008051602061119d83398151915280549190600160401b83101561053c5782610e5c91600161063d95019055610747565b91906001600160a01b03831615610fd65760008051602061119d8339815191525461ffff16906000915b8151831015610f055761107f610def84846107a2565b61108e6108f061088a8361077c565b6110e257600191610f9b6110ce926110c96110a761051d565b6110b18b826107c3565b61ffff851660208201526110c48361077c565b610fe8565b61100d565b926110db610f8c87610915565b0191611069565b604051635286e7e960e01b8152600490fd5b6001600160a01b03811661111c57505161110a57565b604051630e0bf9eb60e01b8152600490fd5b816000929160208493519201905af43d15611174573d9061113f6102d18361059c565b9182523d6000602084013e5b156111535750565b80511561116257602081519101fd5b604051633f735ec560e21b8152600490fd5b60609061114b56fec8fcad8db84d3cc18b4c41d551ea0ee66dd599cde068d998e57d5e09332c131cc8fcad8db84d3cc18b4c41d551ea0ee66dd599cde068d998e57d5e09332c131dc8fcad8db84d3cc18b4c41d551ea0ee66dd599cde068d998e57d5e09332c131fa264697066735822122085e062024c14dfff6165cb6b5941906f2dd725b4ae473b9e5a20bc94fc5f446e64736f6c63430008160033c8fcad8db84d3cc18b4c41d551ea0ee66dd599cde068d998e57d5e09332c131d60a060405234620001095762000e41803803806200001d8162000124565b92833981016080828203126200010957620000388262000150565b916020926200004984830162000150565b90620000586040840162000150565b606084015190936001600160401b03821162000109570184601f820112156200010957805190620000936200008d8362000165565b62000124565b95828752878383010111620001095760005b828110620000f5575050620000c1956000918601015262000181565b604051610c0490816200023d8239608051818181609a015281816102c50152818161058f015281816109b10152610b460152f35b8181018801518782018901528701620000a5565b600080fd5b634e487b7160e01b600052604160045260246000fd5b6040519190601f01601f191682016001600160401b038111838210176200014a57604052565b6200010e565b51906001600160a01b03821682036200010957565b6001600160401b0381116200014a57601f01601f191660200190565b608052600080546001600160a01b0319166001600160a01b0392831690811782559093929190847f8be0079c531659141344cd1fd0a4f28419497f9722a3daafe3b4186f6b6457e08180a38116620001d857505050565b8183929160208493519201905af43d1562000232573d620001fd6200008d8262000165565b908152809260203d92013e5b15620002125750565b805190816200022d57604051630337323560e31b8152600490fd5b602001fd5b606091506200020956fe60806040526004361015610015575b36610b0d57005b6000803560e01c9081630a1acd73146100885750806352ef6b2c146100835780637a0ed6271461007e5780638da5cb5b14610079578063adfca15e14610074578063cdffacc61461006f5763f2fde38b0361000e57610605565b61054c565b610503565b6104c9565b610299565b610114565b346100cc57806003193601126100cc577f00000000000000000000000000000000000000000000000000000000000000006001600160a01b03166080908152602090f35b80fd5b602090602060408183019282815285518094520193019160005b8281106100f7575050505090565b83516001600160a01b0316855293810193928101926001016100e9565b346101d8576000806003193601126100cc57604051637a0ed62760e01b81528181600481305afa9081156101d35782916101b1575b50610154815161085b565b915b815181101561019f57806101996101806101726001948661088d565b51516001600160a01b031690565b61018a838761088d565b6001600160a01b039091169052565b01610156565b604051806101ad85826100cf565b0390f35b6101cd91503d8084833e6101c581836106d5565b81019061077a565b38610149565b61084f565b600080fd5b90815180825260208080930193019160005b8281106101fd575050505090565b83516001600160e01b031916855293810193928101926001016101ef565b6020808201908083528351809252604092604081018260408560051b8401019601946000925b858410610252575050505050505090565b909192939495968580610288600193603f1986820301885286838d51878060a01b038151168452015191818582015201906101dd565b990194019401929594939190610241565b346101d8576000806003193601126100cc57604080516371e259ed60e01b815290916001600160a01b037f00000000000000000000000000000000000000000000000000000000000000008116916004919080858481875afa9485156101d35781956104a5575b5061030b855161085b565b918193825b875181101561042b57610353610337610329838b61088d565b516001600160e01b03191690565b8a5190632b9d1ceb60e21b8252818060209485938883016108f4565b03818c5afa9182156101d35786926103fe575b505083811680156103f4578590865b8981106103b1575b505015610390575b506001905b01610310565b866103a56103aa9261018a6001959a8a61088d565b610908565b9590610385565b816103db6103cf6103c2848d61088d565b516001600160a01b031690565b6001600160a01b031690565b146103e857600101610375565b5050506001388061037d565b505060019061038a565b61041d9250803d10610424575b61041581836106d5565b8101906108df565b3880610366565b503d61040b565b8386866104378261092d565b925b82811061044e57604051806101ad868261021b565b8061047b6104616103c26001948661088d565b61046b838861088d565b516001600160a01b039091169052565b61049061048b6103c2838661088d565b610990565b602061049c838861088d565b51015201610439565b6104c29195503d8087833e6104ba81836106d5565b8101906108b7565b9338610300565b346101d85760003660031901126101d8576000546040516001600160a01b039091168152602090f35b6001600160a01b038116036101d857565b346101d85760203660031901126101d8576101ad61052660043561048b816104f2565b6040519182916020835260208301906101dd565b6001600160e01b03198116036101d857565b346101d85760203660031901126101d8576004356105698161053a565b60405163112b6a6760e01b81526001600160e01b031990911660048201526020816024817f00000000000000000000000000000000000000000000000000000000000000006001600160a01b03165afa80156101d3576101ad916000916105e6575b506040516001600160a01b0390911681529081906020820190565b6105ff915060203d6020116104245761041581836106d5565b386105cb565b346101d85760203660031901126101d857600435610622816104f2565b6000805490916001600160a01b0380831692913384900361068d571691821561067b5782907f8be0079c531659141344cd1fd0a4f28419497f9722a3daafe3b4186f6b6457e08580a36001600160a01b03191617815580f35b60405163e043ab3f60e01b8152600490fd5b6040516330cd747160e01b8152600490fd5b634e487b7160e01b600052604160045260246000fd5b604081019081106001600160401b038211176106d057604052565b61069f565b601f909101601f19168101906001600160401b038211908210176106d057604052565b6001600160401b0381116106d05760051b60200190565b9080601f830112156101d85781519060209161072a816106f8565b9361073860405195866106d5565b81855260208086019260051b8201019283116101d857602001905b828210610761575050505090565b838091835161076f8161053a565b815201910190610753565b9060209081838203126101d85782516001600160401b03938482116101d857019080601f830112156101d85781516107b1816106f8565b946040906107c260405197886106d5565b828752858088019360051b860101948486116101d857868101935b8685106107ef57505050505050505090565b84518381116101d85782019084601f1983890301126101d857845190610814826106b5565b89830151610821816104f2565b825285830151918583116101d857610840898c8096958196010161070f565b838201528152019401936107dd565b6040513d6000823e3d90fd5b90610865826106f8565b61087260405191826106d5565b8281528092610883601f19916106f8565b0190602036910137565b80518210156108a15760209160051b010190565b634e487b7160e01b600052603260045260246000fd5b906020828203126101d85781516001600160401b0381116101d8576108dc920161070f565b90565b908160209103126101d857516108dc816104f2565b6001600160e01b0319909116815260200190565b60001981146109175760010190565b634e487b7160e01b600052601160045260246000fd5b90610937826106f8565b604061094660405192836106d5565b8382528193610957601f19916106f8565b019160009160005b84811061096d575050505050565b602090825161097b816106b5565b8581528260608183015282860101520161095f565b604080516371e259ed60e01b81529092916000916004916001600160a01b037f000000000000000000000000000000000000000000000000000000000000000081169085848681855afa9384156101d3578694610af1575b506109f3845161085b565b928695875b8651811015610aab57610a2d610a11610329838a61088d565b8c5190632b9d1ceb60e21b8252818060209485938883016108f4565b03818a5afa9182156101d3578b92610a8e575b5050841683851614610a55575b6001016109f8565b96610a866001916103a5610a6c6103298c8c61088d565b610a76838b61088d565b6001600160e01b03199091169052565b979050610a4d565b610aa49250803d106104245761041581836106d5565b3880610a40565b5050505050919293945050610abf8261085b565b925b828110610ace5750505090565b80610aeb610ae16103296001948661088d565b610a76838861088d565b01610ac1565b610b069194503d8088833e6104ba81836106d5565b92386109e8565b60405163112b6a6760e01b81526000906001600160a01b0360208280610b4186356001600160e01b031916600483016108f4565b0381847f0000000000000000000000000000000000000000000000000000000000000000165afa9182156101d3578392610bad575b50811615610b9b57818091368280378136915af43d82803e15610b97573d90f35b3d90fd5b604051631535ac5f60e31b8152600490fd5b610bc791925060203d6020116104245761041581836106d5565b9038610b7656fea26469706673582212205674344ed01e2701affab2d24defb6e6128f9364ee7ee04e1f3737fed797f46364736f6c63430008160033a2646970667358221220a28e670c8ffa7c5fc26c1f0836a7f391b0c465ec216295f547f07b92de4df2df64736f6c63430008160033",
  "linkReferences": {},
  "deployedLinkReferences": {}
}