{
  "_format": "hh-sol-artifact-1",
  "contractName": "MockUSDC",
  "sourceName": "src/MockUSDC.sol",
  "abi": [
    {
      "inputs": [
        {
          "internalType": "address",
          "name": "initialOwner",
          "type": "address"
        }
      ],
      "stateMutability": "nonpayable",
      "type": "constructor"
    },
    {
      "inputs": [],
      "name": "ECDSAInvalidSignature",
      "type": "error"
    },
    {
      "inputs": [
        {
          "internalType": "uint256",
          "name": "length",
          "type": "uint256"
        }
      ],
      "name": "ECDSAInvalidSignatureLength",
      "type": "error"
    },
    {
      "inputs": [
        {
          "internalType": "bytes32",
          "name": "s",
          "type": "bytes32"
        }
      ],
      "name": "ECDSAInvalidSignatureS",
      "type": "error"
    },
    {
      "inputs": [
        {
          "internalType": "address",
          "name": "spender",
          "type": "address"
        },
        {
          "internalType": "uint256",
          "name": "allowance",
          "type": "uint256"
        },
        {
          "internalType": "uint256",
          "name": "needed",
          "type": "uint256"
        }
      ],
      "name": "ERC20InsufficientAllowance",
      "type": "error"
    },
    {
      "inputs": [
        {
          "internalType": "address",
          "name": "sender",
          "type": "address"
        },
        {
          "internalType": "uint256",
          "name": "balance",
          "type": "uint256"
        },
        {
          "internalType": "uint256",
          "name": "needed",
          "type": "uint256"
        }
      ],
      "name": "ERC20InsufficientBalance",
      "type": "error"
    },
    {
      "inputs": [
        {
          "internalType": "address",
          "name": "approver",
          "type": "address"
        }
      ],
      "name": "ERC20InvalidApprover",
      "type": "error"
    },
    {
      "inputs": [
        {
          "internalType": "address",
          "name": "receiver",
          "type": "address"
        }
      ],
      "name": "ERC20InvalidReceiver",
      "type": "error"
    },
    {
      "inputs": [
        {
          "internalType": "address",
          "name": "sender",
          "type": "address"
        }
      ],
      "name": "ERC20InvalidSender",
      "type": "error"
    },
    {
      "inputs": [
        {
          "internalType": "address",
          "name": "spender",
          "type": "address"
        }
      ],
      "name": "ERC20InvalidSpender",
      "type": "error"
    },
    {
      "inputs": [
        {
          "internalType": "uint256",
          "name": "deadline",
          "type": "uint256"
        }
      ],
      "name": "ERC2612ExpiredSignature",
      "type": "error"
    },
    {
      "inputs": [
        {
          "internalType": "address",
          "name": "signer",
          "type": "address"
        },
        {
          "internalType": "address",
          "name": "owner",
          "type": "address"
        }
      ],
      "name": "ERC2612InvalidSigner",
      "type": "error"
    },
    {
      "inputs": [
        {
          "internalType": "address",
          "name": "account",
          "type": "address"
        },
        {
          "internalType": "uint256",
          "name": "currentNonce",
          "type": "uint256"
        }
      ],
      "name": "InvalidAccountNonce",
      "type": "error"
    },
    {
      "inputs": [],
      "name": "InvalidShortString",
      "type": "error"
    },
    {
      "inputs": [
        {
          "internalType": "address",
          "name": "owner",
          "type": "address"
        }
      ],
      "name": "OwnableInvalidOwner",
      "type": "error"
    },
    {
      "inputs": [
        {
          "internalType": "address",
          "name": "account",
          "type": "address"
        }
      ],
      "name": "OwnableUnauthorizedAccount",
      "type": "error"
    },
    {
      "inputs": [
        {
          "internalType": "string",
          "name": "str",
          "type": "string"
        }
      ],
      "name": "StringTooLong",
      "type": "error"
    },
    {
      "anonymous": false,
      "inputs": [
        {
          "indexed": true,
          "internalType": "address",
          "name": "owner",
          "type": "address"
        },
        {
          "indexed": true,
          "internalType": "address",
          "name": "spender",
          "type": "address"
        },
        {
          "indexed": false,
          "internalType": "uint256",
          "name": "value",
          "type": "uint256"
        }
      ],
      "name": "Approval",
      "type": "event"
    },
    {
      "anonymous": false,
      "inputs": [
        {
          "indexed": true,
          "internalType": "address",
          "name": "from",
          "type": "address"
        },
        {
          "indexed": false,
          "internalType": "uint256",
          "name": "amount",
          "type": "uint256"
        }
      ],
      "name": "Burn",
      "type": "event"
    },
    {
      "anonymous": false,
      "inputs": [],
      "name": "EIP712DomainChanged",
      "type": "event"
    },
    {
      "anonymous": false,
      "inputs": [
        {
          "indexed": true,
          "internalType": "address",
          "name": "to",
          "type": "address"
        },
        {
          "indexed": false,
          "internalType": "uint256",
          "name": "amount",
          "type": "uint256"
        }
      ],
      "name": "Mint",
      "type": "event"
    },
    {
      "anonymous": false,
      "inputs": [
        {
          "indexed": true,
          "internalType": "address",
          "name": "previousOwner",
          "type": "address"
        },
        {
          "indexed": true,
          "internalType": "address",
          "name": "newOwner",
          "type": "address"
        }
      ],
      "name": "OwnershipTransferred",
      "type": "event"
    },
    {
      "anonymous": false,
      "inputs": [
        {
          "indexed": true,
          "internalType": "address",
          "name": "from",
          "type": "address"
        },
        {
          "indexed": true,
          "internalType": "address",
          "name": "to",
          "type": "address"
        },
        {
          "indexed": false,
          "internalType": "uint256",
          "name": "value",
          "type": "uint256"
        }
      ],
      "name": "Transfer",
      "type": "event"
    },
    {
      "inputs": [],
      "name": "DOMAIN_SEPARATOR",
      "outputs": [
        {
          "internalType": "bytes32",
          "name": "",
          "type": "bytes32"
        }
      ],
      "stateMutability": "view",
      "type": "function"
    },
    {
      "inputs": [
        {
          "internalType": "address",
          "name": "owner",
          "type": "address"
        },
        {
          "internalType": "address",
          "name": "spender",
          "type": "address"
        }
      ],
      "name": "allowance",
      "outputs": [
        {
          "internalType": "uint256",
          "name": "",
          "type": "uint256"
        }
      ],
      "stateMutability": "view",
      "type": "function"
    },
    {
      "inputs": [
        {
          "internalType": "address",
          "name": "spender",
          "type": "address"
        },
        {
          "internalType": "uint256",
          "name": "value",
          "type": "uint256"
        }
      ],
      "name": "approve",
      "outputs": [
        {
          "internalType": "bool",
          "name": "",
          "type": "bool"
        }
      ],
      "stateMutability": "nonpayable",
      "type": "function"
    },
    {
      "inputs": [
        {
          "internalType": "address",
          "name": "account",
          "type": "address"
        }
      ],
      "name": "balanceOf",
      "outputs": [
        {
          "internalType": "uint256",
          "name": "",
          "type": "uint256"
        }
      ],
      "stateMutability": "view",
      "type": "function"
    },
    {
      "inputs": [
        {
          "internalType": "uint256",
          "name": "amount",
          "type": "uint256"
        }
      ],
      "name": "burn",
      "outputs": [],
      "stateMutability": "nonpayable",
      "type": "function"
    },
    {
      "inputs": [
        {
          "internalType": "address",
          "name": "from",
          "type": "address"
        },
        {
          "internalType": "uint256",
          "name": "amount",
          "type": "uint256"
        }
      ],
      "name": "burnFrom",
      "outputs": [],
      "stateMutability": "nonpayable",
      "type": "function"
    },
    {
      "inputs": [],
      "name": "decimals",
      "outputs": [
        {
          "internalType": "uint8",
          "name": "",
          "type": "uint8"
        }
      ],
      "stateMutability": "pure",
      "type": "function"
    },
    {
      "inputs": [],
      "name": "eip712Domain",
      "outputs": [
        {
          "internalType": "bytes1",
          "name": "fields",
          "type": "bytes1"
        },
        {
          "internalType": "string",
          "name": "name",
          "type": "string"
        },
        {
          "internalType": "string",
          "name": "version",
          "type": "string"
        },
        {
          "internalType": "uint256",
          "name": "chainId",
          "type": "uint256"
        },
        {
          "internalType": "address",
          "name": "verifyingContract",
          "type": "address"
        },
        {
          "internalType": "bytes32",
          "name": "salt",
          "type": "bytes32"
        },
        {
          "internalType": "uint256[]",
          "name": "extensions",
          "type": "uint256[]"
        }
      ],
      "stateMutability": "view",
      "type": "function"
    },
    {
      "inputs": [
        {
          "internalType": "uint256",
          "name": "amount",
          "type": "uint256"
        }
      ],
      "name": "faucet",
      "outputs": [],
      "stateMutability": "nonpayable",
      "type": "function"
    },
    {
      "inputs": [
        {
          "internalType": "address",
          "name": "to",
          "type": "address"
        },
        {
          "internalType": "uint256",
          "name": "amount",
          "type": "uint256"
        }
      ],
      "name": "mint",
      "outputs": [],
      "stateMutability": "nonpayable",
      "type": "function"
    },
    {
      "inputs": [],
      "name": "name",
      "outputs": [
        {
          "internalType": "string",
          "name": "",
          "type": "string"
        }
      ],
      "stateMutability": "view",
      "type": "function"
    },
    {
      "inputs": [
        {
          "internalType": "address",
          "name": "owner",
          "type": "address"
        }
      ],
      "name": "nonces",
      "outputs": [
        {
          "internalType": "uint256",
          "name": "",
          "type": "uint256"
        }
      ],
      "stateMutability": "view",
      "type": "function"
    },
    {
      "inputs": [],
      "name": "owner",
      "outputs": [
        {
          "internalType": "address",
          "name": "",
          "type": "address"
        }
      ],
      "stateMutability": "view",
      "type": "function"
    },
    {
      "inputs": [
        {
          "internalType": "address",
          "name": "owner",
          "type": "address"
        },
        {
          "internalType": "address",
          "name": "spender",
          "type": "address"
        },
        {
          "internalType": "uint256",
          "name": "value",
          "type": "uint256"
        },
        {
          "internalType": "uint256",
          "name": "deadline",
          "type": "uint256"
        },
        {
          "internalType": "uint8",
          "name": "v",
          "type": "uint8"
        },
        {
          "internalType": "bytes32",
          "name": "r",
          "type": "bytes32"
        },
        {
          "internalType": "bytes32",
          "name": "s",
          "type": "bytes32"
        }
      ],
      "name": "permit",
      "outputs": [],
      "stateMutability": "nonpayable",
      "type": "function"
    },
    {
      "inputs": [],
      "name": "renounceOwnership",
      "outputs": [],
      "stateMutability": "nonpayable",
      "type": "function"
    },
    {
      "inputs": [],
      "name": "symbol",
      "outputs": [
        {
          "internalType": "string",
          "name": "",
          "type": "string"
        }
      ],
      "stateMutability": "view",
      "type": "function"
    },
    {
      "inputs": [],
      "name": "totalSupply",
      "outputs": [
        {
          "internalType": "uint256",
          "name": "",
          "type": "uint256"
        }
      ],
      "stateMutability": "view",
      "type": "function"
    },
    {
      "inputs": [
        {
          "internalType": "address",
          "name": "to",
          "type": "address"
        },
        {
          "internalType": "uint256",
          "name": "value",
          "type": "uint256"
        }
      ],
      "name": "transfer",
      "outputs": [
        {
          "internalType": "bool",
          "name": "",
          "type": "bool"
        }
      ],
      "stateMutability": "nonpayable",
      "type": "function"
    },
    {
      "inputs": [
        {
          "internalType": "address",
          "name": "from",
          "type": "address"
        },
        {
          "internalType": "address",
          "name": "to",
          "type": "address"
        },
        {
          "internalType": "uint256",
          "name": "value",
          "type": "uint256"
        }
      ],
      "name": "transferFrom",
      "outputs": [
        {
          "internalType": "bool",
          "name": "",
          "type": "bool"
        }
      ],
      "stateMutability": "nonpayable",
      "type": "function"
    },
    {
      "inputs": [
        {
          "internalType": "address",
          "name": "newOwner",
          "type": "address"
        }
      ],
      "name": "transferOwnership",
      "outputs": [],
      "stateMutability": "nonpayable",
      "type": "function"
    }
  ],
  "bytecode": "0x610160346200054957601f906001600160401b0390601f199062001d703881900385810184168301929190858411838510176200054e57808392604095865283396020928391810103126200054957516001600160a01b039384821692918390036200054957835194620000738662000564565b600d8652828601966c26b7b1b5902aa9a21021b7b4b760991b988989528651996200009e8b62000564565b600d8b52858b0152865193620000b48562000564565b600494858152635553444360e01b8782015288519b620000d48d62000564565b8c886001918281520194603160f81b86528251878111620004405760039384548481811c911680156200053e575b8d8210146200052957908c8285859411620004d0575b50508c90848311600114620004615760009262000455575b505060001982861b1c191690831b1783555b835193878511620004405789548381811c9116801562000435575b8c821014620004205780838d9211620003d3575b50508a9185116001146200036a57849550908492916000956200035e575b50501b92600019911b1c19161784555b620001aa8862000580565b98610120998a52620001bc8b6200075a565b98610140998a52519020998a60e05251902061010099818b524660a052875191868301917f8b73c3c69bb8fe3d512ecc4cf759cc79239f7b179b0ffacaa9a75d522b39400f83528984015260608301524660808301523060a083015260a0825260c0820192828410908411176200034957828852815190206080523060c052851562000332575050600880546001600160a01b0319811686179091558491167f8be0079c531659141344cd1fd0a4f28419497f9722a3daafe3b4186f6b6457e0600080a360025466038d7ea4c68000918282018092116200031d575060025560008381528083528481208054830190558451918252917fddf252ad1be2c89b69c2b068fc378daa952ba7f163c4a11628f55a4df523b3ef91a3519161145d938462000913853960805184611008015260a051846110d4015260c05184610fd2015260e051846110570152518361107d015251826104a1015251816104cb0152f35b601190634e487b7160e01b6000525260246000fd5b631e4fbdf760e01b8252600060c490910152602490fd5b604185634e487b7160e01b6000525260246000fd5b0151935038806200018f565b92919484169289600052848b6000209460005b8d89838310620003bb5750505010620003a0575b50505050811b0184556200019f565b01519060f884600019921b161c191690553880808062000391565b8686015189559097019694850194889350016200037d565b8b60005283826000209181890160051c830193891062000416575b0160051c019084905b8281106200040957508c915062000171565b60008155018490620003f7565b92508192620003ee565b60228b634e487b7160e01b6000525260246000fd5b90607f16906200015d565b60418a634e487b7160e01b6000525260246000fd5b01519050388062000130565b908d91898795168860005283600020936000905b828210620004ae575050841162000495575b505050811b01835562000142565b015160001983881b60f8161c1916905538808062000487565b91929395968291958786015181550195019301908f9188969594939262000475565b909192508660005284826000209181860160051c83019386106200051f575b918791869594930160051c01915b8281106200050f57508e915062000118565b60008155859450879101620004fd565b92508192620004ef565b60228c634e487b7160e01b6000525260246000fd5b90607f169062000102565b600080fd5b634e487b7160e01b600052604160045260246000fd5b604081019081106001600160401b038211176200054e57604052565b805160209190828110156200061f575090601f825111620005be5780825192015190808310620005af57501790565b82600019910360031b1b161790565b90604051809263305a27a960e01b82528060048301528251908160248401526000935b82851062000605575050604492506000838284010152601f80199101168101030190fd5b8481018201518686016044015293810193859350620005e1565b6001600160401b0381116200054e576005928354926001938481811c911680156200074f575b838210146200073957601f811162000702575b5081601f84116001146200069857509282939183926000946200068c575b50501b916000199060031b1c191617905560ff90565b01519250388062000676565b919083601f1981168760005284600020946000905b88838310620006e75750505010620006cd575b505050811b01905560ff90565b015160001960f88460031b161c19169055388080620006c0565b858701518855909601959485019487935090810190620006ad565b8560005284601f846000209201871c820191601f8601881c015b8281106200072c57505062000658565b600081550185906200071c565b634e487b7160e01b600052602260045260246000fd5b90607f169062000645565b805160209081811015620007e85750601f825111620007875780825192015190808310620005af57501790565b90604051809263305a27a960e01b82528060048301528251908160248401526000935b828510620007ce575050604492506000838284010152601f80199101168101030190fd5b8481018201518686016044015293810193859350620007aa565b906001600160401b0382116200054e57600654926001938481811c9116801562000907575b838210146200073957601f8111620008cd575b5081601f841160011462000861575092829391839260009462000855575b50501b916000199060031b1c19161760065560ff90565b0151925038806200083e565b919083601f198116600660005284600020946000905b88838310620008b2575050501062000898575b505050811b0160065560ff90565b015160001960f88460031b161c191690553880806200088a565b85870151885590960195948501948793509081019062000877565b600660005284601f84600020920160051c820191601f860160051c015b828110620008fa57505062000820565b60008155018590620008ea565b90607f16906200080d56fe6080604081815260048036101561001557600080fd5b600092833560e01c90816306fdde0314610b4d57508063095ea7b314610b2357806318160ddd14610b0457806323b872dd14610a11578063313ce567146109f55780633644e515146109d157806340c10f19146108c857806342966c681461087257806357915897146107c557806370a082311461078e578063715018a61461072e57806379cc6790146105df5780637ecebe00146105a757806384b0196e1461048a5780638da5cb5b1461046157806395d89b4114610377578063a9059cbb14610346578063d505accf146101de578063dd62ed3e146101915763f2fde38b146100ff57600080fd5b3461018d57602036600319011261018d57610118610c5e565b90610121610c8f565b6001600160a01b03918216928315610177575050600854826bffffffffffffffffffffffff60a01b821617600855167f8be0079c531659141344cd1fd0a4f28419497f9722a3daafe3b4186f6b6457e08380a380f35b51631e4fbdf760e01b8152908101849052602490fd5b8280fd5b5050346101da57806003193601126101da57806020926101af610c5e565b6101b7610c79565b6001600160a01b0391821683526001865283832091168252845220549051908152f35b5080fd5b508290346101da5760e03660031901126101da576101fa610c5e565b610202610c79565b906044359260643560843560ff811681036103425781421161032b5760018060a01b0390818516928389526007602052898920908154916001830190558a519060208201927f6e71edae12b1b97f4d1f60370fef10105fa2faae0126114a169c64845d6126c98452868d840152858a1660608401528a608084015260a083015260c082015260c0815260e0810181811067ffffffffffffffff821117610318578b525190206102e6916102dd916102b7610fcf565b908c519161190160f01b83526002830152602282015260c43591604260a4359220610eba565b90929192610f4a565b168181036102fd57866102fa878787610e27565b80f35b87516325c0072360e11b815292830152602482015260449150fd5b634e487b7160e01b8b526041875260248bfd5b875163313c898160e11b8152808401839052602490fd5b8680fd5b5050346101da57806003193601126101da57602090610370610366610c5e565b6024359033610d49565b5160018152f35b50903461018d578260031936011261018d578051918381549061039982610cbb565b8086529260019280841690811561043657506001146103da575b6103d686866103c4828b0383610d27565b51918291602083526020830190610c1e565b0390f35b815294507f8a35acfbc15ff81a39ae7d344fd709f28e8600b4aa8c65c6b64bfe7fe36bd19b5b82861061041e575050506103c48260206103d69582010194386103b3565b80546020878701810191909152909501948101610400565b90506103d69750869350602092506103c494915060ff191682840152151560051b82010194386103b3565b5050346101da57816003193601126101da5760085490516001600160a01b039091168152602090f35b50903461018d578260031936011261018d576104c57f00000000000000000000000000000000000000000000000000000000000000006110fa565b926104ef7f00000000000000000000000000000000000000000000000000000000000000006111f6565b908251926020928385019585871067ffffffffffffffff8811176105945750928061054a83889661053d998b9996528686528151998a99600f60f81b8b5260e0868c015260e08b0190610c1e565b91898303908a0152610c1e565b924660608801523060808801528460a088015286840360c088015251928381520193925b82811061057d57505050500390f35b83518552869550938101939281019260010161056e565b634e487b7160e01b845260419052602483fd5b5050346101da5760203660031901126101da5760209181906001600160a01b036105cf610c5e565b1681526007845220549051908152f35b50903461018d578060031936011261018d576105f9610c5e565b6001600160a01b0381169260243592919084156106eb5761061b841515611327565b848652600160205282862033875260205282862054908482106106985784820391821161068557509161067d847fcc16f5dbb4873280815c1ee09dbd06736cffcc184412cf7a71a0fdb75d397ca595936106786020963383610e27565b611388565b51908152a280f35b634e487b7160e01b875260119052602486fd5b608490602085519162461bcd60e51b8352820152602760248201527f4d6f636b555344433a206275726e20616d6f756e74206578636565647320616c6044820152666c6f77616e636560c81b6064820152fd5b606490602084519162461bcd60e51b8352820152602060248201527f4d6f636b555344433a206275726e2066726f6d207a65726f20616464726573736044820152fd5b833461078b578060031936011261078b57610747610c8f565b600880546001600160a01b0319811690915581906001600160a01b03167f8be0079c531659141344cd1fd0a4f28419497f9722a3daafe3b4186f6b6457e08280a380f35b80fd5b5050346101da5760203660031901126101da5760209181906001600160a01b036107b6610c5e565b16815280845220549051908152f35b50903461018d57602036600319011261018d57813591821561081957506107ec82336112b0565b519081527f0f6798a560793a54c3bcfe86a93cde1e73087d944c0ea20544137d412139688560203392a280f35b6020608492519162461bcd60e51b8352820152602e60248201527f4d6f636b555344433a2066617563657420616d6f756e74206d7573742062652060448201526d067726561746572207468616e20360941b6064820152fd5b503461018d57602036600319011261018d573590610891821515611327565b61089b8233611388565b519081527fcc16f5dbb4873280815c1ee09dbd06736cffcc184412cf7a71a0fdb75d397ca560203392a280f35b50903461018d578060031936011261018d576108e2610c5e565b90602435916108ef610c8f565b6001600160a01b03811693841561098e57831561093657509160209161067d827f0f6798a560793a54c3bcfe86a93cde1e73087d944c0ea20544137d4121396885956112b0565b608490602084519162461bcd60e51b8352820152602c60248201527f4d6f636b555344433a206d696e7420616d6f756e74206d75737420626520677260448201526b06561746572207468616e20360a41b6064820152fd5b606490602084519162461bcd60e51b8352820152601e60248201527f4d6f636b555344433a206d696e7420746f207a65726f206164647265737300006044820152fd5b5050346101da57816003193601126101da576020906109ee610fcf565b9051908152f35b5050346101da57816003193601126101da576020905160068152f35b50823461078b57606036600319011261078b57610a2c610c5e565b610a34610c79565b916044359360018060a01b038316808352600160205286832033845260205286832054916000198310610a70575b602088610370898989610d49565b868310610ad8578115610ac1573315610aaa5750825260016020908152868320338452815291869020908590039055829061037087610a62565b8751634a1406b160e11b8152908101849052602490fd5b875163e602df0560e01b8152908101849052602490fd5b8751637dc7a0d960e11b8152339181019182526020820193909352604081018790528291506060010390fd5b5050346101da57816003193601126101da576020906002549051908152f35b5050346101da57806003193601126101da57602090610370610b43610c5e565b6024359033610e27565b8490843461018d578260031936011261018d5782600354610b6d81610cbb565b80855291600191808316908115610bf65750600114610b99575b5050506103c4826103d6940383610d27565b9450600385527fc2575a0e9e593c00f959f8c92f12db2869c3395a3b0502d05e2516446f71f85b5b828610610bde575050506103c48260206103d69582010194610b87565b80546020878701810191909152909501948101610bc1565b6103d69750869350602092506103c494915060ff191682840152151560051b82010194610b87565b919082519283825260005b848110610c4a575050826000602080949584010152601f8019910116010190565b602081830181015184830182015201610c29565b600435906001600160a01b0382168203610c7457565b600080fd5b602435906001600160a01b0382168203610c7457565b6008546001600160a01b03163303610ca357565b60405163118cdaa760e01b8152336004820152602490fd5b90600182811c92168015610ceb575b6020831014610cd557565b634e487b7160e01b600052602260045260246000fd5b91607f1691610cca565b6040810190811067ffffffffffffffff821117610d1157604052565b634e487b7160e01b600052604160045260246000fd5b90601f8019910116810190811067ffffffffffffffff821117610d1157604052565b916001600160a01b03808416928315610e0e5716928315610df55760009083825281602052604082205490838210610dc3575091604082827fddf252ad1be2c89b69c2b068fc378daa952ba7f163c4a11628f55a4df523b3ef958760209652828652038282205586815220818154019055604051908152a3565b60405163391434e360e21b81526001600160a01b03919091166004820152602481019190915260448101839052606490fd5b60405163ec442f0560e01b815260006004820152602490fd5b604051634b637e8f60e11b815260006004820152602490fd5b6001600160a01b03908116918215610ea15716918215610e885760207f8c5be1e5ebec7d5bd14f71427d1e84f3dd0314c0f7b2291e5b200ac8c7c3b925918360005260018252604060002085600052825280604060002055604051908152a3565b604051634a1406b160e11b815260006004820152602490fd5b60405163e602df0560e01b815260006004820152602490fd5b91907f7fffffffffffffffffffffffffffffff5d576e7357a4501ddfe92f46681b20a08411610f3e57926020929160ff608095604051948552168484015260408301526060820152600092839182805260015afa15610f325780516001600160a01b03811615610f2957918190565b50809160019190565b604051903d90823e3d90fd5b50505060009160039190565b6004811015610fb95780610f5c575050565b60018103610f765760405163f645eedf60e01b8152600490fd5b60028103610f975760405163fce698f760e01b815260048101839052602490fd5b600314610fa15750565b602490604051906335e2f38360e21b82526004820152fd5b634e487b7160e01b600052602160045260246000fd5b307f00000000000000000000000000000000000000000000000000000000000000006001600160a01b031614806110d1575b1561102a577f000000000000000000000000000000000000000000000000000000000000000090565b60405160208101907f8b73c3c69bb8fe3d512ecc4cf759cc79239f7b179b0ffacaa9a75d522b39400f82527f000000000000000000000000000000000000000000000000000000000000000060408201527f000000000000000000000000000000000000000000000000000000000000000060608201524660808201523060a082015260a0815260c0810181811067ffffffffffffffff821117610d115760405251902090565b507f00000000000000000000000000000000000000000000000000000000000000004614611001565b60ff81146111385760ff811690601f8211611126576040519161111c83610cf5565b8252602082015290565b604051632cd44ac360e21b8152600490fd5b5060405160055481600061114b83610cbb565b808352926001908181169081156111d45750600114611175575b5061117292500382610d27565b90565b6005600090815291507f036b6384b5eca791c62761152d0c79bb0604c104a5fb6f4eb0703f3154bb3db05b8483106111b95750611172935050810160200138611165565b819350908160209254838589010152019101909184926111a0565b90506020925061117294915060ff191682840152151560051b82010138611165565b60ff81146112185760ff811690601f8211611126576040519161111c83610cf5565b5060405160065481600061122b83610cbb565b808352926001908181169081156111d45750600114611251575061117292500382610d27565b6006600090815291507ff652222313e28459528d920b65115c16c04f3efc82aaedc97be59f3f377c0d3f5b8483106112955750611172935050810160200138611165565b8193509081602092548385890101520191019091849261127c565b6001600160a01b0316908115610df557600254908082018092116113115760207fddf252ad1be2c89b69c2b068fc378daa952ba7f163c4a11628f55a4df523b3ef9160009360025584845283825260408420818154019055604051908152a3565b634e487b7160e01b600052601160045260246000fd5b1561132e57565b60405162461bcd60e51b815260206004820152602c60248201527f4d6f636b555344433a206275726e20616d6f756e74206d75737420626520677260448201526b06561746572207468616e20360a41b6064820152608490fd5b906001600160a01b038216908115610e0e57600092828452836020526040842054908282106113f55750817fddf252ad1be2c89b69c2b068fc378daa952ba7f163c4a11628f55a4df523b3ef926020928587528684520360408620558060025403600255604051908152a3565b60405163391434e360e21b81526001600160a01b03919091166004820152602481019190915260448101829052606490fdfea26469706673582212200663996abd4e717ac5b69d2e41d00ad721657ecc7140036cd73ce9f086b26fe964736f6c63430008140033",
  "linkReferences": {},
  "deployedLinkReferences": {}
}