{
  "_format": "hh-sol-artifact-1",
  "contractName": "OrderRouter",
  "sourceName": "contracts/core/OrderRouter.sol",
  "abi": [
    {
      "inputs": [
        {
          "internalType": "address",
          "name": "_centralVault",
          "type": "address"
        },
        {
          "internalType": "address",
          "name": "_umaOracleManager",
          "type": "address"
        },
        {
          "internalType": "address",
          "name": "_admin",
          "type": "address"
        },
        {
          "internalType": "uint256",
          "name": "_tradingFeeRate",
          "type": "uint256"
        }
      ],
      "stateMutability": "nonpayable",
      "type": "constructor"
    },
    {
      "anonymous": false,
      "inputs": [
        {
          "indexed": false,
          "internalType": "uint256[]",
          "name": "orderIds",
          "type": "uint256[]"
        },
        {
          "indexed": true,
          "internalType": "address",
          "name": "caller",
          "type": "address"
        }
      ],
      "name": "BatchOrdersExpired",
      "type": "event"
    },
    {
      "anonymous": false,
      "inputs": [
        {
          "indexed": true,
          "internalType": "address",
          "name": "oldRecipient",
          "type": "address"
        },
        {
          "indexed": true,
          "internalType": "address",
          "name": "newRecipient",
          "type": "address"
        }
      ],
      "name": "FeeRecipientUpdated",
      "type": "event"
    },
    {
      "anonymous": false,
      "inputs": [
        {
          "indexed": true,
          "internalType": "string",
          "name": "metricId",
          "type": "string"
        },
        {
          "indexed": true,
          "internalType": "address",
          "name": "orderBook",
          "type": "address"
        }
      ],
      "name": "MarketDeregistered",
      "type": "event"
    },
    {
      "anonymous": false,
      "inputs": [
        {
          "indexed": true,
          "internalType": "string",
          "name": "metricId",
          "type": "string"
        },
        {
          "indexed": true,
          "internalType": "address",
          "name": "orderBook",
          "type": "address"
        }
      ],
      "name": "MarketRegistered",
      "type": "event"
    },
    {
      "anonymous": false,
      "inputs": [
        {
          "indexed": true,
          "internalType": "uint256",
          "name": "orderId",
          "type": "uint256"
        },
        {
          "indexed": true,
          "internalType": "address",
          "name": "trader",
          "type": "address"
        },
        {
          "indexed": false,
          "internalType": "uint256",
          "name": "remainingQuantity",
          "type": "uint256"
        }
      ],
      "name": "OrderCancelled",
      "type": "event"
    },
    {
      "anonymous": false,
      "inputs": [
        {
          "indexed": true,
          "internalType": "uint256",
          "name": "orderId",
          "type": "uint256"
        },
        {
          "indexed": true,
          "internalType": "address",
          "name": "trader",
          "type": "address"
        },
        {
          "indexed": false,
          "internalType": "uint256",
          "name": "executedQuantity",
          "type": "uint256"
        },
        {
          "indexed": false,
          "internalType": "uint256",
          "name": "executedPrice",
          "type": "uint256"
        },
        {
          "indexed": false,
          "internalType": "uint256",
          "name": "timestamp",
          "type": "uint256"
        }
      ],
      "name": "OrderExecuted",
      "type": "event"
    },
    {
      "anonymous": false,
      "inputs": [
        {
          "indexed": true,
          "internalType": "uint256",
          "name": "orderId",
          "type": "uint256"
        },
        {
          "indexed": true,
          "internalType": "address",
          "name": "trader",
          "type": "address"
        },
        {
          "indexed": true,
          "internalType": "string",
          "name": "metricId",
          "type": "string"
        }
      ],
      "name": "OrderExpired",
      "type": "event"
    },
    {
      "anonymous": false,
      "inputs": [
        {
          "indexed": true,
          "internalType": "address",
          "name": "user",
          "type": "address"
        },
        {
          "indexed": false,
          "internalType": "uint256",
          "name": "activeOrders",
          "type": "uint256"
        },
        {
          "indexed": false,
          "internalType": "uint256",
          "name": "maxActiveOrders",
          "type": "uint256"
        }
      ],
      "name": "OrderLimitReached",
      "type": "event"
    },
    {
      "anonymous": false,
      "inputs": [
        {
          "indexed": true,
          "internalType": "uint256",
          "name": "orderId",
          "type": "uint256"
        },
        {
          "indexed": true,
          "internalType": "address",
          "name": "trader",
          "type": "address"
        },
        {
          "indexed": true,
          "internalType": "string",
          "name": "metricId",
          "type": "string"
        },
        {
          "indexed": false,
          "internalType": "enum IOrderRouter.OrderType",
          "name": "orderType",
          "type": "uint8"
        },
        {
          "indexed": false,
          "internalType": "enum IOrderRouter.Side",
          "name": "side",
          "type": "uint8"
        },
        {
          "indexed": false,
          "internalType": "uint256",
          "name": "quantity",
          "type": "uint256"
        },
        {
          "indexed": false,
          "internalType": "uint256",
          "name": "price",
          "type": "uint256"
        }
      ],
      "name": "OrderPlaced",
      "type": "event"
    },
    {
      "anonymous": false,
      "inputs": [
        {
          "indexed": false,
          "internalType": "address",
          "name": "account",
          "type": "address"
        }
      ],
      "name": "Paused",
      "type": "event"
    },
    {
      "anonymous": false,
      "inputs": [
        {
          "indexed": true,
          "internalType": "bytes32",
          "name": "role",
          "type": "bytes32"
        },
        {
          "indexed": true,
          "internalType": "bytes32",
          "name": "previousAdminRole",
          "type": "bytes32"
        },
        {
          "indexed": true,
          "internalType": "bytes32",
          "name": "newAdminRole",
          "type": "bytes32"
        }
      ],
      "name": "RoleAdminChanged",
      "type": "event"
    },
    {
      "anonymous": false,
      "inputs": [
        {
          "indexed": true,
          "internalType": "bytes32",
          "name": "role",
          "type": "bytes32"
        },
        {
          "indexed": true,
          "internalType": "address",
          "name": "account",
          "type": "address"
        },
        {
          "indexed": true,
          "internalType": "address",
          "name": "sender",
          "type": "address"
        }
      ],
      "name": "RoleGranted",
      "type": "event"
    },
    {
      "anonymous": false,
      "inputs": [
        {
          "indexed": true,
          "internalType": "bytes32",
          "name": "role",
          "type": "bytes32"
        },
        {
          "indexed": true,
          "internalType": "address",
          "name": "account",
          "type": "address"
        },
        {
          "indexed": true,
          "internalType": "address",
          "name": "sender",
          "type": "address"
        }
      ],
      "name": "RoleRevoked",
      "type": "event"
    },
    {
      "anonymous": false,
      "inputs": [
        {
          "indexed": true,
          "internalType": "address",
          "name": "user",
          "type": "address"
        },
        {
          "indexed": false,
          "internalType": "uint256",
          "name": "maxSlippage",
          "type": "uint256"
        }
      ],
      "name": "SlippageProtectionUpdated",
      "type": "event"
    },
    {
      "anonymous": false,
      "inputs": [
        {
          "indexed": false,
          "internalType": "uint256",
          "name": "oldFee",
          "type": "uint256"
        },
        {
          "indexed": false,
          "internalType": "uint256",
          "name": "newFee",
          "type": "uint256"
        }
      ],
      "name": "TradingFeeUpdated",
      "type": "event"
    },
    {
      "anonymous": false,
      "inputs": [
        {
          "indexed": false,
          "internalType": "address",
          "name": "account",
          "type": "address"
        }
      ],
      "name": "Unpaused",
      "type": "event"
    },
    {
      "anonymous": false,
      "inputs": [
        {
          "indexed": true,
          "internalType": "address",
          "name": "user",
          "type": "address"
        },
        {
          "indexed": false,
          "internalType": "uint256",
          "name": "maxPosition",
          "type": "uint256"
        },
        {
          "indexed": false,
          "internalType": "uint256",
          "name": "maxDailyVolume",
          "type": "uint256"
        },
        {
          "indexed": false,
          "internalType": "uint256",
          "name": "maxOrders",
          "type": "uint256"
        }
      ],
      "name": "UserRiskLimitsUpdated",
      "type": "event"
    },
    {
      "inputs": [],
      "name": "BASIS_POINTS",
      "outputs": [
        {
          "internalType": "uint256",
          "name": "",
          "type": "uint256"
        }
      ],
      "stateMutability": "view",
      "type": "function"
    },
    {
      "inputs": [],
      "name": "DEFAULT_ADMIN_ROLE",
      "outputs": [
        {
          "internalType": "bytes32",
          "name": "",
          "type": "bytes32"
        }
      ],
      "stateMutability": "view",
      "type": "function"
    },
    {
      "inputs": [],
      "name": "FACTORY_ROLE",
      "outputs": [
        {
          "internalType": "bytes32",
          "name": "",
          "type": "bytes32"
        }
      ],
      "stateMutability": "view",
      "type": "function"
    },
    {
      "inputs": [],
      "name": "MARKET_ROLE",
      "outputs": [
        {
          "internalType": "bytes32",
          "name": "",
          "type": "bytes32"
        }
      ],
      "stateMutability": "view",
      "type": "function"
    },
    {
      "inputs": [],
      "name": "MAX_ORDERS_PER_USER",
      "outputs": [
        {
          "internalType": "uint256",
          "name": "",
          "type": "uint256"
        }
      ],
      "stateMutability": "view",
      "type": "function"
    },
    {
      "inputs": [],
      "name": "MAX_SLIPPAGE_BPS",
      "outputs": [
        {
          "internalType": "uint256",
          "name": "",
          "type": "uint256"
        }
      ],
      "stateMutability": "view",
      "type": "function"
    },
    {
      "inputs": [],
      "name": "PRECISION",
      "outputs": [
        {
          "internalType": "uint256",
          "name": "",
          "type": "uint256"
        }
      ],
      "stateMutability": "view",
      "type": "function"
    },
    {
      "inputs": [],
      "name": "ROUTER_ADMIN_ROLE",
      "outputs": [
        {
          "internalType": "bytes32",
          "name": "",
          "type": "bytes32"
        }
      ],
      "stateMutability": "view",
      "type": "function"
    },
    {
      "inputs": [
        {
          "internalType": "uint256[]",
          "name": "orderIds",
          "type": "uint256[]"
        }
      ],
      "name": "batchExpireOrders",
      "outputs": [
        {
          "internalType": "uint256",
          "name": "expiredCount",
          "type": "uint256"
        }
      ],
      "stateMutability": "nonpayable",
      "type": "function"
    },
    {
      "inputs": [
        {
          "components": [
            {
              "internalType": "uint256",
              "name": "orderId",
              "type": "uint256"
            },
            {
              "internalType": "address",
              "name": "trader",
              "type": "address"
            },
            {
              "internalType": "string",
              "name": "metricId",
              "type": "string"
            },
            {
              "internalType": "enum IOrderRouter.OrderType",
              "name": "orderType",
              "type": "uint8"
            },
            {
              "internalType": "enum IOrderRouter.Side",
              "name": "side",
              "type": "uint8"
            },
            {
              "internalType": "uint256",
              "name": "quantity",
              "type": "uint256"
            },
            {
              "internalType": "uint256",
              "name": "price",
              "type": "uint256"
            },
            {
              "internalType": "uint256",
              "name": "filledQuantity",
              "type": "uint256"
            },
            {
              "internalType": "uint256",
              "name": "timestamp",
              "type": "uint256"
            },
            {
              "internalType": "uint256",
              "name": "expiryTime",
              "type": "uint256"
            },
            {
              "internalType": "enum IOrderRouter.OrderStatus",
              "name": "status",
              "type": "uint8"
            },
            {
              "internalType": "enum IOrderRouter.TimeInForce",
              "name": "timeInForce",
              "type": "uint8"
            },
            {
              "internalType": "uint256",
              "name": "stopPrice",
              "type": "uint256"
            },
            {
              "internalType": "uint256",
              "name": "icebergQty",
              "type": "uint256"
            },
            {
              "internalType": "bool",
              "name": "postOnly",
              "type": "bool"
            },
            {
              "internalType": "bytes32",
              "name": "metadataHash",
              "type": "bytes32"
            }
          ],
          "internalType": "struct IOrderRouter.Order[]",
          "name": "ordersToPlace",
          "type": "tuple[]"
        },
        {
          "internalType": "uint256[]",
          "name": "cancellations",
          "type": "uint256[]"
        }
      ],
      "name": "batchOperations",
      "outputs": [],
      "stateMutability": "nonpayable",
      "type": "function"
    },
    {
      "inputs": [
        {
          "internalType": "uint256",
          "name": "tradeValue",
          "type": "uint256"
        }
      ],
      "name": "calculateTradingFees",
      "outputs": [
        {
          "internalType": "uint256",
          "name": "",
          "type": "uint256"
        }
      ],
      "stateMutability": "view",
      "type": "function"
    },
    {
      "inputs": [
        {
          "internalType": "uint256",
          "name": "orderId",
          "type": "uint256"
        }
      ],
      "name": "cancelOrder",
      "outputs": [],
      "stateMutability": "nonpayable",
      "type": "function"
    },
    {
      "inputs": [],
      "name": "centralVault",
      "outputs": [
        {
          "internalType": "contract ICentralVault",
          "name": "",
          "type": "address"
        }
      ],
      "stateMutability": "view",
      "type": "function"
    },
    {
      "inputs": [
        {
          "internalType": "uint256",
          "name": "orderId",
          "type": "uint256"
        }
      ],
      "name": "checkOrderExpiry",
      "outputs": [
        {
          "internalType": "bool",
          "name": "isExpired",
          "type": "bool"
        }
      ],
      "stateMutability": "nonpayable",
      "type": "function"
    },
    {
      "inputs": [
        {
          "internalType": "address",
          "name": "trader",
          "type": "address"
        }
      ],
      "name": "cleanupUserExpiredOrders",
      "outputs": [
        {
          "internalType": "uint256",
          "name": "cleanedCount",
          "type": "uint256"
        }
      ],
      "stateMutability": "nonpayable",
      "type": "function"
    },
    {
      "inputs": [
        {
          "internalType": "address",
          "name": "",
          "type": "address"
        },
        {
          "internalType": "uint256",
          "name": "",
          "type": "uint256"
        }
      ],
      "name": "dailyVolume",
      "outputs": [
        {
          "internalType": "uint256",
          "name": "",
          "type": "uint256"
        }
      ],
      "stateMutability": "view",
      "type": "function"
    },
    {
      "inputs": [
        {
          "internalType": "string",
          "name": "metricId",
          "type": "string"
        }
      ],
      "name": "deregisterMarket",
      "outputs": [],
      "stateMutability": "nonpayable",
      "type": "function"
    },
    {
      "inputs": [
        {
          "internalType": "string",
          "name": "metricId",
          "type": "string"
        },
        {
          "internalType": "enum IOrderRouter.Side",
          "name": "side",
          "type": "uint8"
        },
        {
          "internalType": "uint256",
          "name": "quantity",
          "type": "uint256"
        }
      ],
      "name": "estimateExecution",
      "outputs": [
        {
          "internalType": "uint256",
          "name": "estimatedPrice",
          "type": "uint256"
        },
        {
          "internalType": "uint256",
          "name": "estimatedQuantity",
          "type": "uint256"
        },
        {
          "internalType": "uint256",
          "name": "priceImpact",
          "type": "uint256"
        }
      ],
      "stateMutability": "view",
      "type": "function"
    },
    {
      "inputs": [],
      "name": "feeRecipient",
      "outputs": [
        {
          "internalType": "address",
          "name": "",
          "type": "address"
        }
      ],
      "stateMutability": "view",
      "type": "function"
    },
    {
      "inputs": [],
      "name": "getCurrentDay",
      "outputs": [
        {
          "internalType": "uint256",
          "name": "",
          "type": "uint256"
        }
      ],
      "stateMutability": "view",
      "type": "function"
    },
    {
      "inputs": [
        {
          "internalType": "address",
          "name": "user",
          "type": "address"
        },
        {
          "internalType": "uint256",
          "name": "day",
          "type": "uint256"
        }
      ],
      "name": "getDailyVolume",
      "outputs": [
        {
          "internalType": "uint256",
          "name": "",
          "type": "uint256"
        }
      ],
      "stateMutability": "view",
      "type": "function"
    },
    {
      "inputs": [
        {
          "internalType": "string",
          "name": "metricId",
          "type": "string"
        },
        {
          "internalType": "uint256",
          "name": "depth",
          "type": "uint256"
        }
      ],
      "name": "getMarketDepth",
      "outputs": [
        {
          "components": [
            {
              "internalType": "uint256",
              "name": "orderId",
              "type": "uint256"
            },
            {
              "internalType": "address",
              "name": "trader",
              "type": "address"
            },
            {
              "internalType": "string",
              "name": "metricId",
              "type": "string"
            },
            {
              "internalType": "enum IOrderRouter.OrderType",
              "name": "orderType",
              "type": "uint8"
            },
            {
              "internalType": "enum IOrderRouter.Side",
              "name": "side",
              "type": "uint8"
            },
            {
              "internalType": "uint256",
              "name": "quantity",
              "type": "uint256"
            },
            {
              "internalType": "uint256",
              "name": "price",
              "type": "uint256"
            },
            {
              "internalType": "uint256",
              "name": "filledQuantity",
              "type": "uint256"
            },
            {
              "internalType": "uint256",
              "name": "timestamp",
              "type": "uint256"
            },
            {
              "internalType": "uint256",
              "name": "expiryTime",
              "type": "uint256"
            },
            {
              "internalType": "enum IOrderRouter.OrderStatus",
              "name": "status",
              "type": "uint8"
            },
            {
              "internalType": "enum IOrderRouter.TimeInForce",
              "name": "timeInForce",
              "type": "uint8"
            },
            {
              "internalType": "uint256",
              "name": "stopPrice",
              "type": "uint256"
            },
            {
              "internalType": "uint256",
              "name": "icebergQty",
              "type": "uint256"
            },
            {
              "internalType": "bool",
              "name": "postOnly",
              "type": "bool"
            },
            {
              "internalType": "bytes32",
              "name": "metadataHash",
              "type": "bytes32"
            }
          ],
          "internalType": "struct IOrderRouter.Order[]",
          "name": "buyOrders",
          "type": "tuple[]"
        },
        {
          "components": [
            {
              "internalType": "uint256",
              "name": "orderId",
              "type": "uint256"
            },
            {
              "internalType": "address",
              "name": "trader",
              "type": "address"
            },
            {
              "internalType": "string",
              "name": "metricId",
              "type": "string"
            },
            {
              "internalType": "enum IOrderRouter.OrderType",
              "name": "orderType",
              "type": "uint8"
            },
            {
              "internalType": "enum IOrderRouter.Side",
              "name": "side",
              "type": "uint8"
            },
            {
              "internalType": "uint256",
              "name": "quantity",
              "type": "uint256"
            },
            {
              "internalType": "uint256",
              "name": "price",
              "type": "uint256"
            },
            {
              "internalType": "uint256",
              "name": "filledQuantity",
              "type": "uint256"
            },
            {
              "internalType": "uint256",
              "name": "timestamp",
              "type": "uint256"
            },
            {
              "internalType": "uint256",
              "name": "expiryTime",
              "type": "uint256"
            },
            {
              "internalType": "enum IOrderRouter.OrderStatus",
              "name": "status",
              "type": "uint8"
            },
            {
              "internalType": "enum IOrderRouter.TimeInForce",
              "name": "timeInForce",
              "type": "uint8"
            },
            {
              "internalType": "uint256",
              "name": "stopPrice",
              "type": "uint256"
            },
            {
              "internalType": "uint256",
              "name": "icebergQty",
              "type": "uint256"
            },
            {
              "internalType": "bool",
              "name": "postOnly",
              "type": "bool"
            },
            {
              "internalType": "bytes32",
              "name": "metadataHash",
              "type": "bytes32"
            }
          ],
          "internalType": "struct IOrderRouter.Order[]",
          "name": "sellOrders",
          "type": "tuple[]"
        }
      ],
      "stateMutability": "view",
      "type": "function"
    },
    {
      "inputs": [
        {
          "internalType": "string",
          "name": "metricId",
          "type": "string"
        }
      ],
      "name": "getMarketOrderBook",
      "outputs": [
        {
          "internalType": "address",
          "name": "",
          "type": "address"
        }
      ],
      "stateMutability": "view",
      "type": "function"
    },
    {
      "inputs": [
        {
          "internalType": "uint256",
          "name": "orderId",
          "type": "uint256"
        }
      ],
      "name": "getOrder",
      "outputs": [
        {
          "components": [
            {
              "internalType": "uint256",
              "name": "orderId",
              "type": "uint256"
            },
            {
              "internalType": "address",
              "name": "trader",
              "type": "address"
            },
            {
              "internalType": "string",
              "name": "metricId",
              "type": "string"
            },
            {
              "internalType": "enum IOrderRouter.OrderType",
              "name": "orderType",
              "type": "uint8"
            },
            {
              "internalType": "enum IOrderRouter.Side",
              "name": "side",
              "type": "uint8"
            },
            {
              "internalType": "uint256",
              "name": "quantity",
              "type": "uint256"
            },
            {
              "internalType": "uint256",
              "name": "price",
              "type": "uint256"
            },
            {
              "internalType": "uint256",
              "name": "filledQuantity",
              "type": "uint256"
            },
            {
              "internalType": "uint256",
              "name": "timestamp",
              "type": "uint256"
            },
            {
              "internalType": "uint256",
              "name": "expiryTime",
              "type": "uint256"
            },
            {
              "internalType": "enum IOrderRouter.OrderStatus",
              "name": "status",
              "type": "uint8"
            },
            {
              "internalType": "enum IOrderRouter.TimeInForce",
              "name": "timeInForce",
              "type": "uint8"
            },
            {
              "internalType": "uint256",
              "name": "stopPrice",
              "type": "uint256"
            },
            {
              "internalType": "uint256",
              "name": "icebergQty",
              "type": "uint256"
            },
            {
              "internalType": "bool",
              "name": "postOnly",
              "type": "bool"
            },
            {
              "internalType": "bytes32",
              "name": "metadataHash",
              "type": "bytes32"
            }
          ],
          "internalType": "struct IOrderRouter.Order",
          "name": "order",
          "type": "tuple"
        }
      ],
      "stateMutability": "view",
      "type": "function"
    },
    {
      "inputs": [
        {
          "internalType": "uint256",
          "name": "orderId",
          "type": "uint256"
        }
      ],
      "name": "getOrderExecutions",
      "outputs": [
        {
          "components": [
            {
              "internalType": "uint256",
              "name": "orderId",
              "type": "uint256"
            },
            {
              "internalType": "uint256",
              "name": "executedQuantity",
              "type": "uint256"
            },
            {
              "internalType": "uint256",
              "name": "executedPrice",
              "type": "uint256"
            },
            {
              "internalType": "uint256",
              "name": "timestamp",
              "type": "uint256"
            },
            {
              "internalType": "address",
              "name": "counterparty",
              "type": "address"
            },
            {
              "internalType": "uint256",
              "name": "fees",
              "type": "uint256"
            }
          ],
          "internalType": "struct IOrderRouter.TradeExecution[]",
          "name": "executions",
          "type": "tuple[]"
        }
      ],
      "stateMutability": "view",
      "type": "function"
    },
    {
      "inputs": [
        {
          "internalType": "address",
          "name": "trader",
          "type": "address"
        },
        {
          "internalType": "uint256",
          "name": "limit",
          "type": "uint256"
        }
      ],
      "name": "getOrdersEligibleForExpiration",
      "outputs": [
        {
          "components": [
            {
              "internalType": "uint256",
              "name": "orderId",
              "type": "uint256"
            },
            {
              "internalType": "address",
              "name": "trader",
              "type": "address"
            },
            {
              "internalType": "string",
              "name": "metricId",
              "type": "string"
            },
            {
              "internalType": "enum IOrderRouter.OrderType",
              "name": "orderType",
              "type": "uint8"
            },
            {
              "internalType": "enum IOrderRouter.Side",
              "name": "side",
              "type": "uint8"
            },
            {
              "internalType": "uint256",
              "name": "quantity",
              "type": "uint256"
            },
            {
              "internalType": "uint256",
              "name": "price",
              "type": "uint256"
            },
            {
              "internalType": "uint256",
              "name": "filledQuantity",
              "type": "uint256"
            },
            {
              "internalType": "uint256",
              "name": "timestamp",
              "type": "uint256"
            },
            {
              "internalType": "uint256",
              "name": "expiryTime",
              "type": "uint256"
            },
            {
              "internalType": "enum IOrderRouter.OrderStatus",
              "name": "status",
              "type": "uint8"
            },
            {
              "internalType": "enum IOrderRouter.TimeInForce",
              "name": "timeInForce",
              "type": "uint8"
            },
            {
              "internalType": "uint256",
              "name": "stopPrice",
              "type": "uint256"
            },
            {
              "internalType": "uint256",
              "name": "icebergQty",
              "type": "uint256"
            },
            {
              "internalType": "bool",
              "name": "postOnly",
              "type": "bool"
            },
            {
              "internalType": "bytes32",
              "name": "metadataHash",
              "type": "bytes32"
            }
          ],
          "internalType": "struct IOrderRouter.Order[]",
          "name": "eligibleOrders",
          "type": "tuple[]"
        }
      ],
      "stateMutability": "view",
      "type": "function"
    },
    {
      "inputs": [
        {
          "internalType": "address",
          "name": "user",
          "type": "address"
        }
      ],
      "name": "getRemainingOrderSlots",
      "outputs": [
        {
          "internalType": "uint256",
          "name": "",
          "type": "uint256"
        }
      ],
      "stateMutability": "view",
      "type": "function"
    },
    {
      "inputs": [
        {
          "internalType": "bytes32",
          "name": "role",
          "type": "bytes32"
        }
      ],
      "name": "getRoleAdmin",
      "outputs": [
        {
          "internalType": "bytes32",
          "name": "",
          "type": "bytes32"
        }
      ],
      "stateMutability": "view",
      "type": "function"
    },
    {
      "inputs": [
        {
          "internalType": "address",
          "name": "trader",
          "type": "address"
        }
      ],
      "name": "getSlippageProtection",
      "outputs": [
        {
          "internalType": "uint256",
          "name": "maxSlippage",
          "type": "uint256"
        }
      ],
      "stateMutability": "view",
      "type": "function"
    },
    {
      "inputs": [
        {
          "internalType": "address",
          "name": "user",
          "type": "address"
        }
      ],
      "name": "getUserActiveOrderCount",
      "outputs": [
        {
          "internalType": "uint256",
          "name": "",
          "type": "uint256"
        }
      ],
      "stateMutability": "view",
      "type": "function"
    },
    {
      "inputs": [
        {
          "internalType": "address",
          "name": "trader",
          "type": "address"
        }
      ],
      "name": "getUserActiveOrders",
      "outputs": [
        {
          "components": [
            {
              "internalType": "uint256",
              "name": "orderId",
              "type": "uint256"
            },
            {
              "internalType": "address",
              "name": "trader",
              "type": "address"
            },
            {
              "internalType": "string",
              "name": "metricId",
              "type": "string"
            },
            {
              "internalType": "enum IOrderRouter.OrderType",
              "name": "orderType",
              "type": "uint8"
            },
            {
              "internalType": "enum IOrderRouter.Side",
              "name": "side",
              "type": "uint8"
            },
            {
              "internalType": "uint256",
              "name": "quantity",
              "type": "uint256"
            },
            {
              "internalType": "uint256",
              "name": "price",
              "type": "uint256"
            },
            {
              "internalType": "uint256",
              "name": "filledQuantity",
              "type": "uint256"
            },
            {
              "internalType": "uint256",
              "name": "timestamp",
              "type": "uint256"
            },
            {
              "internalType": "uint256",
              "name": "expiryTime",
              "type": "uint256"
            },
            {
              "internalType": "enum IOrderRouter.OrderStatus",
              "name": "status",
              "type": "uint8"
            },
            {
              "internalType": "enum IOrderRouter.TimeInForce",
              "name": "timeInForce",
              "type": "uint8"
            },
            {
              "internalType": "uint256",
              "name": "stopPrice",
              "type": "uint256"
            },
            {
              "internalType": "uint256",
              "name": "icebergQty",
              "type": "uint256"
            },
            {
              "internalType": "bool",
              "name": "postOnly",
              "type": "bool"
            },
            {
              "internalType": "bytes32",
              "name": "metadataHash",
              "type": "bytes32"
            }
          ],
          "internalType": "struct IOrderRouter.Order[]",
          "name": "activeOrders",
          "type": "tuple[]"
        }
      ],
      "stateMutability": "view",
      "type": "function"
    },
    {
      "inputs": [
        {
          "internalType": "address",
          "name": "trader",
          "type": "address"
        }
      ],
      "name": "getUserExpiredOrders",
      "outputs": [
        {
          "components": [
            {
              "internalType": "uint256",
              "name": "orderId",
              "type": "uint256"
            },
            {
              "internalType": "address",
              "name": "trader",
              "type": "address"
            },
            {
              "internalType": "string",
              "name": "metricId",
              "type": "string"
            },
            {
              "internalType": "enum IOrderRouter.OrderType",
              "name": "orderType",
              "type": "uint8"
            },
            {
              "internalType": "enum IOrderRouter.Side",
              "name": "side",
              "type": "uint8"
            },
            {
              "internalType": "uint256",
              "name": "quantity",
              "type": "uint256"
            },
            {
              "internalType": "uint256",
              "name": "price",
              "type": "uint256"
            },
            {
              "internalType": "uint256",
              "name": "filledQuantity",
              "type": "uint256"
            },
            {
              "internalType": "uint256",
              "name": "timestamp",
              "type": "uint256"
            },
            {
              "internalType": "uint256",
              "name": "expiryTime",
              "type": "uint256"
            },
            {
              "internalType": "enum IOrderRouter.OrderStatus",
              "name": "status",
              "type": "uint8"
            },
            {
              "internalType": "enum IOrderRouter.TimeInForce",
              "name": "timeInForce",
              "type": "uint8"
            },
            {
              "internalType": "uint256",
              "name": "stopPrice",
              "type": "uint256"
            },
            {
              "internalType": "uint256",
              "name": "icebergQty",
              "type": "uint256"
            },
            {
              "internalType": "bool",
              "name": "postOnly",
              "type": "bool"
            },
            {
              "internalType": "bytes32",
              "name": "metadataHash",
              "type": "bytes32"
            }
          ],
          "internalType": "struct IOrderRouter.Order[]",
          "name": "expiredOrders",
          "type": "tuple[]"
        }
      ],
      "stateMutability": "view",
      "type": "function"
    },
    {
      "inputs": [
        {
          "internalType": "address",
          "name": "trader",
          "type": "address"
        },
        {
          "internalType": "uint256",
          "name": "limit",
          "type": "uint256"
        },
        {
          "internalType": "uint256",
          "name": "offset",
          "type": "uint256"
        }
      ],
      "name": "getUserOrderHistory",
      "outputs": [
        {
          "components": [
            {
              "internalType": "uint256",
              "name": "orderId",
              "type": "uint256"
            },
            {
              "internalType": "address",
              "name": "trader",
              "type": "address"
            },
            {
              "internalType": "string",
              "name": "metricId",
              "type": "string"
            },
            {
              "internalType": "enum IOrderRouter.OrderType",
              "name": "orderType",
              "type": "uint8"
            },
            {
              "internalType": "enum IOrderRouter.Side",
              "name": "side",
              "type": "uint8"
            },
            {
              "internalType": "uint256",
              "name": "quantity",
              "type": "uint256"
            },
            {
              "internalType": "uint256",
              "name": "price",
              "type": "uint256"
            },
            {
              "internalType": "uint256",
              "name": "filledQuantity",
              "type": "uint256"
            },
            {
              "internalType": "uint256",
              "name": "timestamp",
              "type": "uint256"
            },
            {
              "internalType": "uint256",
              "name": "expiryTime",
              "type": "uint256"
            },
            {
              "internalType": "enum IOrderRouter.OrderStatus",
              "name": "status",
              "type": "uint8"
            },
            {
              "internalType": "enum IOrderRouter.TimeInForce",
              "name": "timeInForce",
              "type": "uint8"
            },
            {
              "internalType": "uint256",
              "name": "stopPrice",
              "type": "uint256"
            },
            {
              "internalType": "uint256",
              "name": "icebergQty",
              "type": "uint256"
            },
            {
              "internalType": "bool",
              "name": "postOnly",
              "type": "bool"
            },
            {
              "internalType": "bytes32",
              "name": "metadataHash",
              "type": "bytes32"
            }
          ],
          "internalType": "struct IOrderRouter.Order[]",
          "name": "historicalOrders",
          "type": "tuple[]"
        }
      ],
      "stateMutability": "view",
      "type": "function"
    },
    {
      "inputs": [
        {
          "internalType": "address",
          "name": "trader",
          "type": "address"
        },
        {
          "internalType": "string",
          "name": "metricId",
          "type": "string"
        }
      ],
      "name": "getUserPnL",
      "outputs": [
        {
          "components": [
            {
              "internalType": "int256",
              "name": "realizedPnL",
              "type": "int256"
            },
            {
              "internalType": "int256",
              "name": "unrealizedPnL",
              "type": "int256"
            },
            {
              "internalType": "uint256",
              "name": "totalVolume",
              "type": "uint256"
            },
            {
              "internalType": "uint256",
              "name": "totalFees",
              "type": "uint256"
            },
            {
              "internalType": "uint256",
              "name": "totalTrades",
              "type": "uint256"
            }
          ],
          "internalType": "struct IOrderRouter.PnLSummary",
          "name": "summary",
          "type": "tuple"
        }
      ],
      "stateMutability": "view",
      "type": "function"
    },
    {
      "inputs": [
        {
          "internalType": "address",
          "name": "user",
          "type": "address"
        }
      ],
      "name": "getUserRiskLimits",
      "outputs": [
        {
          "components": [
            {
              "internalType": "uint256",
              "name": "maxPositionSize",
              "type": "uint256"
            },
            {
              "internalType": "uint256",
              "name": "maxDailyVolume",
              "type": "uint256"
            },
            {
              "internalType": "uint256",
              "name": "maxOpenOrders",
              "type": "uint256"
            },
            {
              "internalType": "bool",
              "name": "enabled",
              "type": "bool"
            }
          ],
          "internalType": "struct OrderRouter.RiskLimits",
          "name": "",
          "type": "tuple"
        }
      ],
      "stateMutability": "view",
      "type": "function"
    },
    {
      "inputs": [
        {
          "internalType": "address",
          "name": "user",
          "type": "address"
        }
      ],
      "name": "getUserTotalOrderCount",
      "outputs": [
        {
          "internalType": "uint256",
          "name": "",
          "type": "uint256"
        }
      ],
      "stateMutability": "view",
      "type": "function"
    },
    {
      "inputs": [
        {
          "internalType": "address",
          "name": "factory",
          "type": "address"
        }
      ],
      "name": "grantFactoryRole",
      "outputs": [],
      "stateMutability": "nonpayable",
      "type": "function"
    },
    {
      "inputs": [
        {
          "internalType": "bytes32",
          "name": "role",
          "type": "bytes32"
        },
        {
          "internalType": "address",
          "name": "account",
          "type": "address"
        }
      ],
      "name": "grantRole",
      "outputs": [],
      "stateMutability": "nonpayable",
      "type": "function"
    },
    {
      "inputs": [
        {
          "internalType": "bytes32",
          "name": "role",
          "type": "bytes32"
        },
        {
          "internalType": "address",
          "name": "account",
          "type": "address"
        }
      ],
      "name": "hasRole",
      "outputs": [
        {
          "internalType": "bool",
          "name": "",
          "type": "bool"
        }
      ],
      "stateMutability": "view",
      "type": "function"
    },
    {
      "inputs": [
        {
          "internalType": "uint256",
          "name": "orderId",
          "type": "uint256"
        }
      ],
      "name": "isOrderExpired",
      "outputs": [
        {
          "internalType": "bool",
          "name": "isExpired",
          "type": "bool"
        }
      ],
      "stateMutability": "view",
      "type": "function"
    },
    {
      "inputs": [
        {
          "internalType": "string",
          "name": "",
          "type": "string"
        }
      ],
      "name": "marketOrderBooks",
      "outputs": [
        {
          "internalType": "address",
          "name": "",
          "type": "address"
        }
      ],
      "stateMutability": "view",
      "type": "function"
    },
    {
      "inputs": [
        {
          "internalType": "uint256",
          "name": "orderId",
          "type": "uint256"
        },
        {
          "internalType": "uint256",
          "name": "newQuantity",
          "type": "uint256"
        },
        {
          "internalType": "uint256",
          "name": "newPrice",
          "type": "uint256"
        }
      ],
      "name": "modifyOrder",
      "outputs": [],
      "stateMutability": "nonpayable",
      "type": "function"
    },
    {
      "inputs": [
        {
          "internalType": "uint256",
          "name": "",
          "type": "uint256"
        },
        {
          "internalType": "uint256",
          "name": "",
          "type": "uint256"
        }
      ],
      "name": "orderExecutions",
      "outputs": [
        {
          "internalType": "uint256",
          "name": "orderId",
          "type": "uint256"
        },
        {
          "internalType": "uint256",
          "name": "executedQuantity",
          "type": "uint256"
        },
        {
          "internalType": "uint256",
          "name": "executedPrice",
          "type": "uint256"
        },
        {
          "internalType": "uint256",
          "name": "timestamp",
          "type": "uint256"
        },
        {
          "internalType": "address",
          "name": "counterparty",
          "type": "address"
        },
        {
          "internalType": "uint256",
          "name": "fees",
          "type": "uint256"
        }
      ],
      "stateMutability": "view",
      "type": "function"
    },
    {
      "inputs": [
        {
          "internalType": "uint256",
          "name": "",
          "type": "uint256"
        }
      ],
      "name": "orders",
      "outputs": [
        {
          "internalType": "uint256",
          "name": "orderId",
          "type": "uint256"
        },
        {
          "internalType": "address",
          "name": "trader",
          "type": "address"
        },
        {
          "internalType": "string",
          "name": "metricId",
          "type": "string"
        },
        {
          "internalType": "enum IOrderRouter.OrderType",
          "name": "orderType",
          "type": "uint8"
        },
        {
          "internalType": "enum IOrderRouter.Side",
          "name": "side",
          "type": "uint8"
        },
        {
          "internalType": "uint256",
          "name": "quantity",
          "type": "uint256"
        },
        {
          "internalType": "uint256",
          "name": "price",
          "type": "uint256"
        },
        {
          "internalType": "uint256",
          "name": "filledQuantity",
          "type": "uint256"
        },
        {
          "internalType": "uint256",
          "name": "timestamp",
          "type": "uint256"
        },
        {
          "internalType": "uint256",
          "name": "expiryTime",
          "type": "uint256"
        },
        {
          "internalType": "enum IOrderRouter.OrderStatus",
          "name": "status",
          "type": "uint8"
        },
        {
          "internalType": "enum IOrderRouter.TimeInForce",
          "name": "timeInForce",
          "type": "uint8"
        },
        {
          "internalType": "uint256",
          "name": "stopPrice",
          "type": "uint256"
        },
        {
          "internalType": "uint256",
          "name": "icebergQty",
          "type": "uint256"
        },
        {
          "internalType": "bool",
          "name": "postOnly",
          "type": "bool"
        },
        {
          "internalType": "bytes32",
          "name": "metadataHash",
          "type": "bytes32"
        }
      ],
      "stateMutability": "view",
      "type": "function"
    },
    {
      "inputs": [],
      "name": "pause",
      "outputs": [],
      "stateMutability": "nonpayable",
      "type": "function"
    },
    {
      "inputs": [],
      "name": "paused",
      "outputs": [
        {
          "internalType": "bool",
          "name": "",
          "type": "bool"
        }
      ],
      "stateMutability": "view",
      "type": "function"
    },
    {
      "inputs": [
        {
          "components": [
            {
              "internalType": "uint256",
              "name": "orderId",
              "type": "uint256"
            },
            {
              "internalType": "address",
              "name": "trader",
              "type": "address"
            },
            {
              "internalType": "string",
              "name": "metricId",
              "type": "string"
            },
            {
              "internalType": "enum IOrderRouter.OrderType",
              "name": "orderType",
              "type": "uint8"
            },
            {
              "internalType": "enum IOrderRouter.Side",
              "name": "side",
              "type": "uint8"
            },
            {
              "internalType": "uint256",
              "name": "quantity",
              "type": "uint256"
            },
            {
              "internalType": "uint256",
              "name": "price",
              "type": "uint256"
            },
            {
              "internalType": "uint256",
              "name": "filledQuantity",
              "type": "uint256"
            },
            {
              "internalType": "uint256",
              "name": "timestamp",
              "type": "uint256"
            },
            {
              "internalType": "uint256",
              "name": "expiryTime",
              "type": "uint256"
            },
            {
              "internalType": "enum IOrderRouter.OrderStatus",
              "name": "status",
              "type": "uint8"
            },
            {
              "internalType": "enum IOrderRouter.TimeInForce",
              "name": "timeInForce",
              "type": "uint8"
            },
            {
              "internalType": "uint256",
              "name": "stopPrice",
              "type": "uint256"
            },
            {
              "internalType": "uint256",
              "name": "icebergQty",
              "type": "uint256"
            },
            {
              "internalType": "bool",
              "name": "postOnly",
              "type": "bool"
            },
            {
              "internalType": "bytes32",
              "name": "metadataHash",
              "type": "bytes32"
            }
          ],
          "internalType": "struct IOrderRouter.Order",
          "name": "order",
          "type": "tuple"
        }
      ],
      "name": "placeOrder",
      "outputs": [
        {
          "internalType": "uint256",
          "name": "orderId",
          "type": "uint256"
        }
      ],
      "stateMutability": "nonpayable",
      "type": "function"
    },
    {
      "inputs": [
        {
          "internalType": "uint256",
          "name": "orderId",
          "type": "uint256"
        },
        {
          "internalType": "uint256",
          "name": "executedQuantity",
          "type": "uint256"
        },
        {
          "internalType": "uint256",
          "name": "executedPrice",
          "type": "uint256"
        },
        {
          "internalType": "address",
          "name": "counterparty",
          "type": "address"
        },
        {
          "internalType": "uint256",
          "name": "fees",
          "type": "uint256"
        }
      ],
      "name": "recordTradeExecution",
      "outputs": [],
      "stateMutability": "nonpayable",
      "type": "function"
    },
    {
      "inputs": [
        {
          "internalType": "string",
          "name": "metricId",
          "type": "string"
        },
        {
          "internalType": "address",
          "name": "orderBook",
          "type": "address"
        }
      ],
      "name": "registerMarket",
      "outputs": [],
      "stateMutability": "nonpayable",
      "type": "function"
    },
    {
      "inputs": [
        {
          "internalType": "bytes32",
          "name": "role",
          "type": "bytes32"
        },
        {
          "internalType": "address",
          "name": "account",
          "type": "address"
        }
      ],
      "name": "renounceRole",
      "outputs": [],
      "stateMutability": "nonpayable",
      "type": "function"
    },
    {
      "inputs": [
        {
          "internalType": "address",
          "name": "factory",
          "type": "address"
        }
      ],
      "name": "revokeFactoryRole",
      "outputs": [],
      "stateMutability": "nonpayable",
      "type": "function"
    },
    {
      "inputs": [
        {
          "internalType": "bytes32",
          "name": "role",
          "type": "bytes32"
        },
        {
          "internalType": "address",
          "name": "account",
          "type": "address"
        }
      ],
      "name": "revokeRole",
      "outputs": [],
      "stateMutability": "nonpayable",
      "type": "function"
    },
    {
      "inputs": [
        {
          "internalType": "address",
          "name": "newRecipient",
          "type": "address"
        }
      ],
      "name": "setFeeRecipient",
      "outputs": [],
      "stateMutability": "nonpayable",
      "type": "function"
    },
    {
      "inputs": [
        {
          "internalType": "uint256",
          "name": "maxSlippage",
          "type": "uint256"
        }
      ],
      "name": "setSlippageProtection",
      "outputs": [],
      "stateMutability": "nonpayable",
      "type": "function"
    },
    {
      "inputs": [
        {
          "internalType": "uint256",
          "name": "newFeeRate",
          "type": "uint256"
        }
      ],
      "name": "setTradingFeeRate",
      "outputs": [],
      "stateMutability": "nonpayable",
      "type": "function"
    },
    {
      "inputs": [
        {
          "internalType": "address",
          "name": "user",
          "type": "address"
        },
        {
          "internalType": "uint256",
          "name": "maxPositionSize",
          "type": "uint256"
        },
        {
          "internalType": "uint256",
          "name": "maxDailyVolume",
          "type": "uint256"
        },
        {
          "internalType": "uint256",
          "name": "maxOpenOrders",
          "type": "uint256"
        },
        {
          "internalType": "bool",
          "name": "enabled",
          "type": "bool"
        }
      ],
      "name": "setUserRiskLimits",
      "outputs": [],
      "stateMutability": "nonpayable",
      "type": "function"
    },
    {
      "inputs": [
        {
          "internalType": "bytes4",
          "name": "interfaceId",
          "type": "bytes4"
        }
      ],
      "name": "supportsInterface",
      "outputs": [
        {
          "internalType": "bool",
          "name": "",
          "type": "bool"
        }
      ],
      "stateMutability": "view",
      "type": "function"
    },
    {
      "inputs": [],
      "name": "tradingFeeRate",
      "outputs": [
        {
          "internalType": "uint256",
          "name": "",
          "type": "uint256"
        }
      ],
      "stateMutability": "view",
      "type": "function"
    },
    {
      "inputs": [],
      "name": "umaOracleManager",
      "outputs": [
        {
          "internalType": "contract IUMAOracleIntegration",
          "name": "",
          "type": "address"
        }
      ],
      "stateMutability": "view",
      "type": "function"
    },
    {
      "inputs": [],
      "name": "unpause",
      "outputs": [],
      "stateMutability": "nonpayable",
      "type": "function"
    },
    {
      "inputs": [
        {
          "internalType": "address",
          "name": "",
          "type": "address"
        },
        {
          "internalType": "uint256",
          "name": "",
          "type": "uint256"
        }
      ],
      "name": "userOrders",
      "outputs": [
        {
          "internalType": "uint256",
          "name": "",
          "type": "uint256"
        }
      ],
      "stateMutability": "view",
      "type": "function"
    },
    {
      "inputs": [
        {
          "internalType": "address",
          "name": "",
          "type": "address"
        },
        {
          "internalType": "string",
          "name": "",
          "type": "string"
        }
      ],
      "name": "userPnL",
      "outputs": [
        {
          "internalType": "int256",
          "name": "realizedPnL",
          "type": "int256"
        },
        {
          "internalType": "int256",
          "name": "unrealizedPnL",
          "type": "int256"
        },
        {
          "internalType": "uint256",
          "name": "totalVolume",
          "type": "uint256"
        },
        {
          "internalType": "uint256",
          "name": "totalFees",
          "type": "uint256"
        },
        {
          "internalType": "uint256",
          "name": "totalTrades",
          "type": "uint256"
        }
      ],
      "stateMutability": "view",
      "type": "function"
    },
    {
      "inputs": [
        {
          "internalType": "address",
          "name": "",
          "type": "address"
        }
      ],
      "name": "userRiskLimits",
      "outputs": [
        {
          "internalType": "uint256",
          "name": "maxPositionSize",
          "type": "uint256"
        },
        {
          "internalType": "uint256",
          "name": "maxDailyVolume",
          "type": "uint256"
        },
        {
          "internalType": "uint256",
          "name": "maxOpenOrders",
          "type": "uint256"
        },
        {
          "internalType": "bool",
          "name": "enabled",
          "type": "bool"
        }
      ],
      "stateMutability": "view",
      "type": "function"
    },
    {
      "inputs": [
        {
          "internalType": "address",
          "name": "",
          "type": "address"
        }
      ],
      "name": "userSlippageSettings",
      "outputs": [
        {
          "internalType": "uint256",
          "name": "",
          "type": "uint256"
        }
      ],
      "stateMutability": "view",
      "type": "function"
    },
    {
      "inputs": [
        {
          "internalType": "address",
          "name": "",
          "type": "address"
        }
      ],
      "name": "userTotalFees",
      "outputs": [
        {
          "internalType": "uint256",
          "name": "",
          "type": "uint256"
        }
      ],
      "stateMutability": "view",
      "type": "function"
    },
    {
      "inputs": [
        {
          "internalType": "address",
          "name": "",
          "type": "address"
        }
      ],
      "name": "userTotalVolume",
      "outputs": [
        {
          "internalType": "uint256",
          "name": "",
          "type": "uint256"
        }
      ],
      "stateMutability": "view",
      "type": "function"
    }
  ],
  "bytecode": "0x60c034620002e357601f62005a2d38819003918201601f191683019291906001600160401b03841183851017620002e8578160809284926040968752833981010312620002e3576200005181620002fe565b90602062000061818301620002fe565b91606062000071868301620002fe565b910151906001805560ff1994856002541660025560018060a01b038091169485156200029f5781169182156200024f57169384156200020b576103e88311620001c75760805260a052600355600480546001600160a01b03191683179055600080805280825284812083825282528481205490939060ff161562000191575b7f56623da34b1ec5cb86498f15a28504a6323a0eedfb150423fe6f418d952826ee91828552848152858520848652815260ff86862054161562000158575b85600160055401600555516156f9908162000314823960805181612743015260a051816116ef0152f35b828552848152858520908486525260018585209182541617905560008051602062005a0d833981519152339380a438808080806200012e565b838052838252848420838552825284842060018282541617905533838560008051602062005a0d8339815191528180a4620000f0565b865162461bcd60e51b815260048101859052601960248201527f4f72646572526f757465723a2046656520746f6f2068696768000000000000006044820152606490fd5b865162461bcd60e51b815260048101859052601a60248201527f4f72646572526f757465723a20496e76616c69642061646d696e0000000000006044820152606490fd5b875162461bcd60e51b815260048101869052602360248201527f4f72646572526f757465723a20496e76616c6964206f7261636c65206d616e6160448201526233b2b960e91b6064820152608490fd5b875162461bcd60e51b815260048101869052601a60248201527f4f72646572526f757465723a20496e76616c6964207661756c740000000000006044820152606490fd5b600080fd5b634e487b7160e01b600052604160045260246000fd5b51906001600160a01b0382168203620002e35756fe608080604052600436101561001357600080fd5b60003560e01c90816301ffc9a714613e6b5750806304a0fb1714613e4257806305a70f7b14613d595780630dc35b3014613c335780631091f67c14613b90578063191e555c14613b565780631cbf81a81461288f5780631dfb86d214613b16578063248a9ca314613ae75780632d929b1814613a245780632ee15ef2146139ea5780632f2ff15d1461393757806333ef507d146138d657806336568abe14613844578063399b3b50146135ec5780633c2475c3146135445780633e27ec9b146135095780633e6968b6146134e95780633f4ba83a14613455578063434cae61146130605780634690484014613037578063514fcac714612ebf5780635485b15814612ea25780635605d264146129d457806358ba30361461295257806359c69313146129345780635ab60866146128c95780635b3fbabf1461288f5780635c975abb1461286c5780637471b1e31461282457806374c95081146128245780638456cb59146127ca578063856652e914612772578063880829611461272d5780638aef1b47146125a15780638d9a54fa1461256757806391d148541461251a57806392e48ec214611cec5780639d1da04714611bd05780639e7f895414611b75578063a217fddf14611b59578063a37bcc8114611b22578063a6ac6e7a14611aba578063a85c38ef14611993578063aaf5eb6814611970578063b5fd7d4c14611856578063c592b1ea1461171e578063cb9b939e146116d9578063d03f078b1461169e578063d09ef24114611655578063d2081ad51461141f578063d547741f146113de578063d61a27f7146113bb578063d94eb044146112fd578063dba26e251461125d578063e01df1a81461123f578063e1f1c4a714611222578063e229cd7614611205578063e74b981b14611150578063e8d4302614610fd8578063ea3af8c514610f4a578063effbcc8a14610f22578063f41e970314610521578063fc962508146104f6578063fe749155146103275763ff6445d8146102f557600080fd5b346103225760203660031901126103225760206127106103196003546004356146a9565b04604051908152f35b600080fd5b34610322576020366003190112610322576004356001600160401b038111610322576103579036906004016140ef565b90610360614998565b81156104b1576064821161045e5761037782615401565b9160009160005b828110610411575050508061039d575b60209060018055604051908152f35b6103a681615401565b60005b8281106103ed5750602092507fba60da3ef3d624e81676e416824792cbe6794773d41b121a4732529f10e8776e604051806103e5339482615433565b0390a261038e565b806103fb61040c9286614ca8565b516104068285614ca8565b52614c12565b6103a9565b61042561041f828585614c21565b3561524e565b610438575b61043390614c12565b61037e565b926104566104339161044b868686614c21565b356104068289614ca8565b93905061042a565b60405162461bcd60e51b815260206004820152602560248201527f4f72646572526f757465723a20546f6f206d616e79206f726465727320696e206044820152640c4c2e8c6d60db1b6064820152608490fd5b60405162461bcd60e51b815260206004820152601f60248201527f4f72646572526f757465723a204e6f206f72646572732070726f7669646564006044820152606490fd5b34610322576020366003190112610322576020610519610514613ebe565b615169565b604051908152f35b3461032257600319602036820112610322576001600160401b03600435116103225761020090600435360301126103225761055a614998565b610562614954565b6105a16105796044600435016004356004016147a4565b8060405192833760089082019081528190036020019020546001600160a01b031615156147d6565b6001600160a01b036105b760043560240161482d565b1615610edd576105ce60a460043501351515614841565b6105ee6105e56044600435016004356004016147a4565b9050151561488d565b61060f6105ff60246004350161482d565b6001600160a01b031633146148d9565b61061833615169565b6103e880821015610e4b5761063260043560040133614ed0565b6005546001810160055560405190610649826141a4565b600435600401358252610660602460043501613eea565b60208301526001600160401b0360446004350135116103225761068d3660048035604481013501016141e1565b60408301526009606460043501351015610322576064600435013560608301526002608460043501351015610322576004356084810135608084015260a481013560a084015260c481013560c084015260e481013560e08401526101048101356101008401526101248101356101208401526006610144909101351015610322576004803561014481013561014085015261016401351015610322576004356101648101356101608401526101848101356101808401526101a48101356101a084015261075d906101c401613efe565b6101c08301526004356101e48101356101e084015281835242610100840152600061014084015260640135610c48575b6101608201516004811015610b2157600314610bf8575b806000526006602052604060002091805183556001830160018060a01b036020830151166001600160601b0360a01b82541617905560408101519283516001600160401b038111610b0b576107fc600283015461425d565b601f8111610bb1575b506020601f8211600114610b42578192939495600092610b37575b50508160011b916000199060031b1c19161760028201555b60608201516009811015610b2157600382015460808401516002811015610b215761ff0060ff9160081b1692169061ffff19161717600382015560a0820151600482015560c0820151600582015560e08201516006820155610100820151600782015561012082015160088201556101408201516006811015610b21576108c29060098301614924565b6101608201516004811015610b215761ff0060098301549160081b169061ff001916176009820155610180820151600a8201556101a0820151600b8201556109206101c08301511515600c83019060ff801983541691151516179055565b600d6101e083015191015533600052600760205260406000208054600160401b811015610b0b5760009261095f8260209460016109c99501815561413b565b81549060031b9087821b918719901b19161790556109876044600435016004356004016147a4565b8060405192833781019060088252848160018060a01b03930301902054169060405194858094819363061fa27d60e01b83528760048401526024830190613f87565b03925af1908115610aff57600091610ad0575b5015610a7c576020906109f96044600435016004356004016147a4565b90816040519283928337810160008152039020604051610a1f8160646004350135613f53565b610a3184820160846004350135613f60565b60a46004350135604082015260c460043501356060820152827f5b954fa335c624976b5c2dba7c7a172770d02d8b36e6da6cfcc1b79baa62bfc860803393a460018055604051908152f35b60405162461bcd60e51b815260206004820152602660248201527f4f72646572526f757465723a204f7264657220626f6f6b2072656a65637465646044820152651037b93232b960d11b6064820152608490fd5b610af2915060203d602011610af8575b610aea81836141c0565b81019061493c565b826109dc565b503d610ae0565b6040513d6000823e3d90fd5b634e487b7160e01b600052604160045260246000fd5b634e487b7160e01b600052602160045260246000fd5b015190508580610820565b6002830160005260206000209060005b601f1984168110610b99575060019394959683601f19811610610b80575b505050811b016002820155610838565b015160001960f88460031b161c19169055858080610b70565b9091602060018192858b015181550193019101610b52565b600283016000526020600020601f830160051c810160208410610bf1575b601f830160051c82018110610be5575050610805565b60008155600101610bcf565b5080610bcf565b42610120830151116107a457606460405162461bcd60e51b815260206004820152602060248201527f4f72646572526f757465723a20496e76616c6964206578706972792074696d656044820152fd5b60043560640135600103610cb75760c082015115610c66575b61078d565b60405162461bcd60e51b8152602060048201526024808201527f4f72646572526f757465723a204c696d6974206f72646572206e6565647320706044820152637269636560e01b6064820152608490fd5b600260646004350135148015610e3b575b15610d2d5761018082015161078d5760405162461bcd60e51b815260206004820152602860248201527f4f72646572526f757465723a2053746f70206f72646572206e656564732073746044820152676f7020707269636560c01b6064820152608490fd5b600480356064013503610db05760c0820151151580610da2575b61078d5760405162461bcd60e51b815260206004820152602960248201527f4f72646572526f757465723a2053746f70206c696d6974206e6565647320626f60448201526874682070726963657360b81b6064820152608490fd5b506101808201511515610d47565b60056064600435013503610c61576101a46004350135151580610e25575b610c615760405162461bcd60e51b815260206004820152602560248201527f4f72646572526f757465723a20496e76616c69642069636562657267207175616044820152646e7469747960d81b6064820152608490fd5b5060a460043501356101a4600435013510610dce565b5060036064600435013514610cc8565b60405191825260208201527f4f95500f50882dd824c5ab7ae55e546891710d4849a62e3e352b4094225e331260403392a260405162461bcd60e51b815260206004820152603360248201527f4f72646572526f757465723a2045786365656473206d6178696d756d2061637460448201527234bb329037b93232b939903832b9103ab9b2b960691b6064820152608490fd5b60405162461bcd60e51b815260206004820152601b60248201527f4f72646572526f757465723a20496e76616c69642074726164657200000000006044820152606490fd5b34610322576020366003190112610322576020610f4060043561524e565b6040519015158152f35b3461032257604036600319011261032257610f63613ebe565b6024356001600160401b0381116103225760a091610f88610fa39236906004016141e1565b90600180851b03166000526009602052604060002090614237565b805490600181015490600281015460046003830154920154926040519485526020850152604084015260608301526080820152f35b3461032257602080600319360112610322576001600160a01b03610ffa613ebe565b16600052600781526040600020604051808284829454938481520190600052846000209260005b8682821061113a5784611036818603826141c0565b6000805b825181101561109b5761104d8184614ca8565b5160005260068085526101406110666040600020614b16565b015190811015610b2157600414611086575b61108190614c12565b61103a565b9061109361108191614c12565b919050611078565b506110a590614cf6565b6000805b8351811015611123576110bc8185614ca8565b5160005260068086526110d26040600020614b16565b9061014082015190811015610b21576004146110f8575b506110f390614c12565b6110a9565b8261111c9161110b6110f3949587614ca8565b526111168186614ca8565b50614c12565b91906110e9565b6040518581528061113681880186614066565b0390f35b8554845260019586019587955093019201611021565b3461032257602036600319011261032257611169613ebe565b61117161433d565b6001600160a01b039081169081156111c057600454826001600160601b0360a01b821617600455167faaebcf1bfa00580e41d966056b48521fa9f202645c86d4ddf28113e617c1b1d3600080a3005b60405162461bcd60e51b815260206004820152601e60248201527f4f72646572526f757465723a20496e76616c696420726563697069656e7400006044820152606490fd5b346103225760003660031901126103225760206040516113888152f35b346103225760003660031901126103225760206040516127108152f35b34610322576000366003190112610322576020600354604051908152f35b346103225760203660031901126103225760043561138881116112b85733600052600a602052806040600020556040519081527fff6bce470ae16d207aca7a6ba3012af1459665f3dcb56daa756f94bf960df1a360203392a2005b60405162461bcd60e51b815260206004820152601e60248201527f4f72646572526f757465723a20536c69707061676520746f6f206869676800006044820152606490fd5b346103225760208060031936011261032257611317613ebe565b61131f61433d565b6000805160206156a483398151915291826000526000815261134860016040600020015461452b565b600083815280825260408082206001600160a01b0390941680835293835290205460ff1661137257005b82600052600081526040600020908260005252604060002060ff19815416905533917ff6391f5c32d9c69d2a47ea670b442974b53935d1edc7fd64eb21e047a839171b600080a4005b346103225760203660031901126103225760206105196113d9613ebe565b615141565b346103225760403660031901126103225761141d6004356113fd613ed4565b9080600052600060205261141860016040600020015461452b565b614635565b005b34610322576040366003190112610322576004356001600160401b0381116103225761144f9036906004016140c2565b611457613ed4565b3360009081527f0bfee35f0032dacbfdd76dca49d350db3408626e01eb729b0e8c8ad79ed51b76602090815260409091205491939160ff168015611625575b156115c9576114a683151561488d565b6001600160a01b039384169384156115845760405184848237828186810160088152030190205416611531576040519083838337818481016008815203019020836001600160601b0360a01b8254161790558160405192839283378101600081520390207fed30318b46dd0419df9b2d3b59592adeea02fd27e8f1adaaa3e321790a8dfdc0600080a3005b6084906040519062461bcd60e51b82526004820152602660248201527f4f72646572526f757465723a204d61726b657420616c726561647920726567696044820152651cdd195c995960d21b6064820152fd5b60405162461bcd60e51b815260048101839052601f60248201527f4f72646572526f757465723a20496e76616c6964206f7264657220626f6f6b006044820152606490fd5b6084906040519062461bcd60e51b82526004820152602f60248201527f4f72646572526f757465723a204e6f7420617574686f72697a656420746f207260448201526e65676973746572206d61726b65747360881b6064820152fd5b506000805160206156a483398151915260005260008152604060002033600052815260ff60406000205416611496565b346103225760203660031901126103225761166e614c31565b50600435600052600660205261113661168a6040600020614b16565b604051918291602083526020830190613f87565b346103225760003660031901126103225760206040517f56623da34b1ec5cb86498f15a28504a6323a0eedfb150423fe6f418d952826ee8152f35b34610322576000366003190112610322576040517f00000000000000000000000000000000000000000000000000000000000000006001600160a01b03168152602090f35b3461032257604036600319011261032257611737613ebe565b602435906001600160401b03821161032257608061175b60a09336906004016140c2565b926040519361176985614189565b600085526020856000828098015260006040820152600060608201526000868201529382156000146117f257505050600180861b031680600052600c84526040600020546040830152600052600d835260406000205460608201525b60405192815184528082015190840152604081015160408401526060810151606084015201516080820152f35b91935091600180881b031660005260098252604060002083604051948593843782019081520301902060046040519161182a83614189565b8054835260018101548584015260028101546040840152600381015460608401520154828201526117c5565b346103225760208060031936011261032257611870613ebe565b61187861433d565b6001600160a01b0316801561191f576000805160206156a48339815191529182600052600081526118b060016040600020015461452b565b8260005260008152604060002082600052815260ff60406000205416156118d357005b826000526000815260406000209082600052526040600020600160ff1982541617905533917f2f8788117e7eff1d82e926ec794901d17c78024a50270940304540a733656f0d600080a4005b60405162461bcd60e51b8152600481018390526024808201527f4f72646572526f757465723a20496e76616c696420666163746f7279206164646044820152637265737360e01b6064820152608490fd5b34610322576000366003190112610322576020604051670de0b6b3a76400008152f35b34610322576020366003190112610322576004356000908152600660205260409020805460018201546001600160a01b0316916119d260028201614297565b6003820154916004810154600582015460068301546007840154600885015490600986015492600a87015494600b88015496600c89015460ff1698600d0154996040519d8e809e8152602001528c6102006040819201528d01611a3491613f2e565b9a611a4560608e0160ff8316613f53565b60808d019060081c60ff1690611a5a91613f60565b60a08c015260c08b015260e08a0152610100890152610120880152611a86610140880160ff8316613f6d565b61016087019060081c60ff1690611a9c91613f7a565b6101808601526101a085015215156101c08401526101e08301520390f35b34610322576020366003190112610322576004356001600160401b03811161032257611aec60209136906004016141e1565b81611b006040519283815193849201613f0b565b600890820190815281900382019020546040516001600160a01b039091168152f35b34610322576020366003190112610322576020611b4d611b40613ebe565b611b48614998565b61550f565b60018055604051908152f35b3461032257600036600319011261032257602060405160008152f35b34610322576020366003190112610322576004356001600160401b03811161032257611ba760209136906004016140c2565b80604051928337600890820190815281900382019020546040516001600160a01b039091168152f35b34610322576060366003190112610322576004356001600160401b03811161032257611c009036906004016140c2565b9060243590600282101561032257611c756044604092813595602085519282818537611c4583850160088152858460018060a01b0397889303019020541615156147d6565b82875193849283378101600881520301902054169383519485938492632f898b2f60e01b84526004840190613f60565b8660248301525afa8015610aff57600091600091611cb0575b5061113690604051938493846040919493926060820195825260208201520152565b9150506040813d604011611ce4575b81611ccc604093836141c0565b81010312610322576111366020825192015190611c8e565b3d9150611cbf565b346103225760a0366003190112610322576064356001600160a01b03811690819003610322573360009081527f9a5c44b320440ad787f4682b3f3060a6000d227ef6e02d0269bcba08b6f8fb5a60205260409020547f395f08be531c0d7403cba7c5ffd2b57329184452bcebcd6a48299ebbbf39db6f9060ff161561236f575060043560005260066020526040600020611d88815415156149ee565b6006810191602492611d9c843582546146bc565b9081905560048301541161235b5760098201805460ff191660021790555b604051611dc68161416e565b600435815260208101918435835260408201906044358252606083014281526080840191825260a08401926084358452600435600052600b60205260406000208054600160401b81101561234657611e239160018201815561411f565b96909661233157600595518755516001870155516002860155516003850155600484019060018060a01b039051166001600160601b0360a01b8254161790555191015560018060a01b0360018201541660ff600383015460081c1690611ea2611e8e60028501614297565b826000526009602052604060002090614237565b6044351561231c576000199260443584048635116122ce57670de0b6b3a7640000611ed060443588356146a9565b049360028301548519811161227f5760038401549060843519821161223b576004850154928310156121ec57611f269291611f0e88611f1c936146bc565b6002870155608435906146bc565b6003850155614c12565b60048301556000841261219457600281101561217f57612100576001810154906000821361208b575b838201916000858412911290801582169115161761207657600101555b6201518042049080600052600f602052604060002082600052602052611f9a83196040600020541115614e79565b600052600f602052604060002090600052602052611fbe60406000209182546146bc565b9055670de0b6b3a7640000611fd660443584356146a9565b0460018060a01b03600183015416600052600c602052611ffc60406000209182546146bc565b905560018060a01b03600182015416600052600d602052604060002061202560843582546146bc565b9055600101546040805192358352604435602084015242908301526001600160a01b031690600435907f1cd65e6e4f6a6bfcff65064f4e22d514f481a38dcbe4c2ad13ccde1b22e0694190606090a3005b85634e487b7160e01b60005260116004526000fd5b6001600160ff1b038481039081136001166120eb57821315611f4f5760405162461bcd60e51b8152602060048201526019818801527f4f72646572526f757465723a20506e4c206f766572666c6f77000000000000006044820152606490fd5b86634e487b7160e01b60005260116004526000fd5b60010180549060008212612122575b8382039182136001166120765755611f6c565b600160ff1b8401848112156001166120eb5782121561210f5760405162461bcd60e51b815260206004820152601a818801527f4f72646572526f757465723a20506e4c20756e646572666c6f770000000000006044820152606490fd5b85634e487b7160e01b60005260216004526000fd5b60405162461bcd60e51b815260206004820152602b818801527f4f72646572526f757465723a20496e76616c69642074726164652076616c756560448201526a1031b7b73b32b939b4b7b760a91b6064820152608490fd5b60405162461bcd60e51b8152602060048201526022818b01527f4f72646572526f757465723a20546f74616c20747261646573206f766572666c6044820152616f7760f01b6064820152608490fd5b60405162461bcd60e51b8152602060048201819052818b01527f4f72646572526f757465723a20546f74616c2066656573206f766572666c6f776044820152606490fd5b60405162461bcd60e51b8152602060048201526022818a01527f4f72646572526f757465723a20546f74616c20766f6c756d65206f766572666c6044820152616f7760f01b6064820152608490fd5b60405162461bcd60e51b8152602060048201526021818801527f4f72646572526f757465723a2054726164652076616c7565206f766572666c6f6044820152607760f81b6064820152608490fd5b84634e487b7160e01b60005260126004526000fd5b88634e487b7160e01b60005260006004526000fd5b89634e487b7160e01b60005260416004526000fd5b60098201805460ff19166001179055611dba565b612378336146da565b6040519161238583614153565b60428352602083019060603683378351156125045760308253835160019081101561250457607860218601536041905b8082116124aa57505061246657604861243392612442926124629560405195869376020b1b1b2b9b9a1b7b73a3937b61d1030b1b1b7bab73a1604d1b602086015261240a815180926020603789019101613f0b565b8401917001034b99036b4b9b9b4b733903937b6329607d1b603784015251809386840190613f0b565b010360288101845201826141c0565b60405162461bcd60e51b8152602060048201529182916024830190613f2e565b0390fd5b606460405162461bcd60e51b815260206004820152602060248201527f537472696e67733a20686578206c656e67746820696e73756666696369656e746044820152fd5b9091600f81166010811015612504576f181899199a1a9b1b9c1cb0b131b232b360811b901a6124d984886146c9565b5360041c9180156124ee5760001901906123b5565b634e487b7160e01b600052601160045260246000fd5b634e487b7160e01b600052603260045260246000fd5b3461032257604036600319011261032257612533613ed4565b600435600052600060205260406000209060018060a01b0316600052602052602060ff604060002054166040519015158152f35b34610322576020366003190112610322576001600160a01b03612588613ebe565b16600052600c6020526020604060002054604051908152f35b3461032257602080600319360112610322576001600160a01b036125c3613ebe565b16600052600781526040600020604051808284829454938481520190600052846000209260005b8682821061271757846125ff818603826141c0565b6000805b8251811015612682576126168184614ca8565b51600052600680855261014061262f6040600020614b16565b0190815181811015610b21571591821561266e575b5050612659575b61265490614c12565b612603565b9061266661265491614c12565b91905061264b565b519150811015610b21576001148580612644565b5061268c90614cf6565b6000805b8351811015611123576126a38185614ca8565b5160005260068086526126b96040600020614b16565b90610140820190815181811015610b215715918215612703575b50506126e9575b506126e490614c12565b612690565b826126fc9161110b6126e4949587614ca8565b91906126da565b519150811015610b215760011487806126d3565b85548452600195860195879550930192016125ea565b34610322576000366003190112610322576040517f00000000000000000000000000000000000000000000000000000000000000006001600160a01b03168152602090f35b346103225760403660031901126103225761278b613ebe565b6001600160a01b0316600090815260076020526040902080546024359190821015610322576020916127bc9161413b565b90546040519160031b1c8152f35b34610322576000366003190112610322576127e361433d565b6127eb614954565b600160ff1960025416176002557f62e78cea01bee320cd4e420270b5ea74000d11b0c9f74754ebdbfc544b05a2586020604051338152a1005b34610322576040366003190112610322576001600160a01b03612845613ebe565b16600052600f60205260406000206024356000526020526020604060002054604051908152f35b3461032257600036600319011261032257602060ff600254166040519015158152f35b34610322576020366003190112610322576001600160a01b036128b0613ebe565b16600052600a6020526020604060002054604051908152f35b34610322576040366003190112610322576004356001600160401b038111610322576105796128fc9136906004016140c2565b612926612907614cd3565b611136612912614cd3565b604051938493604085526040850190614066565b908382036020850152614066565b34610322576020366003190112610322576020610f406004356154e4565b3461032257604036600319011261032257602435600435600052600b602052604060002080548210156103225760c09161298b9161411f565b508054906001810154906002810154600382015490600560018060a01b0360048501541693015493604051958652602086015260408501526060840152608083015260a0820152f35b34610322576040366003190112610322576001600160401b0360043581811161032257612a059036906004016140ef565b9190602490813583811161032257612a219036906004016140ef565b612a29614998565b612a31614954565b612a3a33615169565b6103e880612a4889846146bc565b11612df457505060005b818110612c8e5750505060005b848110612a6c5760018055005b8060051b8201356101fe1983360301811215610322576020908301818101906001600160a01b03612aa83382612aa18661482d565b16146148d9565b60408201908085612ab984866147a4565b9190826040519384928337810160088152030190205416612ae8575b5050505050612ae390614c12565b612a5f565b612b0a6040519463f41e970360e01b865286600487015284358a870152613eea565b16604484015235601e19823603018112156103225781019083823592018883116103225782360381136103225761020060648501528261022485015282610244918286013760008184860101526060820135600981101561032257612b73906084860190613f53565b6080820135600281101561032257612b8f9060a4860190613f60565b60a082013560c485015260c082013560e485015260e0820135610104850152610100820135610124850152610120820135610144850152610140820135600681101561032257612be490610164860190613f6d565b6101608201359160048310156103225785936101e0869492612c0c8694610184860190613f7a565b6101808101356101a48501526101a08101356101c4850152612c316101c08201613efe565b15156101e48501520135610204830152601f01601f191681010301816000305af18015610aff57612c65575b808080612ad5565b813d8311612c87575b612c7881836141c0565b81010312610322578580612c5d565b503d612c6e565b612c99818385614c21565b35908160005260069160209083825260406000208054151580612dde575b80612d9d575b612cd4575b505050612ccf9150614c12565b612a52565b80600960009201600360ff1982541617905583604051612cf78160028501614a86565b600881528190038201902054604051634b2299bd60e11b8152600481018690529384918d9183916001600160a01b03165af1908115610aff57612ccf967fc4058ebc534b64ecb27b2d4eaa1904f98997ec18ebe6ada4117593dde89478cc93612d6e93612d80575b50600482015491015490614b09565b926040519384523393a3888080612cc2565b612d9690873d8911610af857610aea81836141c0565b508e612d5f565b5060ff60098201541685811015612dc9578015908115612dbe575b50612cbd565b60019150148c612db8565b89634e487b7160e01b60005260216004526000fd5b5060018101546001600160a01b03163314612cb7565b60a491869160405191825260208201527f4f95500f50882dd824c5ab7ae55e546891710d4849a62e3e352b4094225e331260403392a260486040519162461bcd60e51b8352602060048401528201527f4f72646572526f757465723a204261746368206f7065726174696f6e20776f7560448201527f6c6420657863656564206d6178696d756d20616374697665206f7264657273206064820152673832b9103ab9b2b960c11b6084820152fd5b346103225760003660031901126103225760206040516103e88152f35b346103225760208060031936011261032257600435612edc614998565b80600052600682526040600020612ef5815415156149ee565b60018101546001600160a01b0390612f109082163314614a3a565b60098201805460ff81166006811015610b2157801590811561302c575b5015612fe95760ff191660031790556040516000929185918281612f548160028801614a86565b60088152030190205416602460405180958193634b2299bd60e11b83528860048401525af1908115610aff577fc4058ebc534b64ecb27b2d4eaa1904f98997ec18ebe6ada4117593dde89478cc92612fbc92612fcc575b506006600482015491015490614b09565b926040519384523393a360018055005b612fe290863d8811610af857610aea81836141c0565b5085612fab565b6064866040519062461bcd60e51b825280600483015260248201527f4f72646572526f757465723a2043616e6e6f742063616e63656c206f726465726044820152fd5b600191501487612f2d565b34610322576000366003190112610322576004546040516001600160a01b039091168152602090f35b346103225760603660031901126103225760043560243561307f614998565b81600052600660205260406000209161309a835415156149ee565b60018301546001600160a01b0391906130b69083163314614a3a565b60098401805460ff81166006811015610b2157613411576003906130db861515614841565b60ff1916179055816040516020816130f68160028a01614a86565b600881520301902054604051634b2299bd60e11b81526004810184905291169460208260248160008a5af1918215610aff57613137926133f2575b50614b16565b9260a084015260443560c084015260006101408401524261010084015260005260066020526040600020908251825560018201906020840151166001600160601b0360a01b82541617905560408201519283516001600160401b038111610b0b576131a5600284015461425d565b601f81116133ab575b506020601f821160011461333c578192939495600092613331575b50508160011b916000199060031b1c19161760028301555b606083015190600383016009831015610b21578054926080860151936002851015610b215760ff61ff00809660081b1692169061ffff19161717905560a0840151600484015560c0840151600584015560e084015160068401556101008401516007840155610120840151600884015560098301936101408101516006811015610b215761326f9086614924565b610160810151936004851015610b2157856020956132fd95600098549160081b169061ff001916179055610180820151600a8201556101a0820151600b8201556132cf6101c08301511515600c83019060ff801983541691151516179055565b600d6101e083015191015560405194858094819363061fa27d60e01b83528760048401526024830190613f87565b03925af18015610aff57613312575b60018055005b61332a9060203d602011610af857610aea81836141c0565b508061330c565b0151905085806131c9565b6002840160005260206000209060005b601f1984168110613393575060019394959683601f1981161061337a575b505050811b0160028301556131e1565b015160001960f88460031b161c1916905585808061336a565b9091602060018192858b01518155019301910161334c565b600284016000526020600020601f830160051c8101602084106133eb575b601f830160051c820181106133df5750506131ae565b600081556001016133c9565b50806133c9565b61340a9060203d602011610af857610aea81836141c0565b5086613131565b606460405162461bcd60e51b815260206004820152602060248201527f4f72646572526f757465723a2043616e6e6f74206d6f64696679206f726465726044820152fd5b346103225760003660031901126103225761346e61433d565b60025460ff8116156134ad5760ff19166002557f5db9ee0a495bf2e6ff9c91a7834c1ba4fdd244a5e8aa4e537bd38aeae4b073aa6020604051338152a1005b60405162461bcd60e51b815260206004820152601460248201527314185d5cd8589b194e881b9bdd081c185d5cd95960621b6044820152606490fd5b346103225760003660031901126103225760206040516201518042048152f35b346103225760003660031901126103225760206040517f395f08be531c0d7403cba7c5ffd2b57329184452bcebcd6a48299ebbbf39db6f8152f35b346103225760203660031901126103225761355d613ebe565b6000606060405161356d81614153565b828152826020820152826040820152015260018060a01b0316600052600e602052608060406000206040516135a181614153565b815491828252600181015460208301908152606060ff600360028501549460408701958652015416930192151583526040519384525160208401525160408301525115156060820152f35b3461032257604036600319011261032257613605613ebe565b60243580151580613838575b156137f35761361f81614cf6565b6000926001600160a01b0316801561375257600052602092600784526040600020604051808287829454938481520190600052876000209260005b8982821061373c57505050613671925003826141c0565b60005b8151811080613733575b156136e45761368d8183614ca8565b51600052600686526136a26040600020614b16565b6136ab8161546e565b6136bf575b506136ba90614c12565b613674565b836136dd916136d26136ba949688614ca8565b526111168187614ca8565b92906136b0565b5050915091505b6136f481614cf6565b9160005b828110613715576040516020808252819061113690820187614066565b8061372361372e9284614ca8565b5161110b8287614ca8565b6136f8565b5084831061367e565b855484526001958601958795509301920161365a565b50916001918280600554915b61376d575b50505090506136eb565b81811115806137ea575b156137e5578060005260066020526137926040600020614b16565b80511515806137d6575b6137b1575b506137ab90614c12565b8461375e565b846137cf916137c46137ab94978a614ca8565b526111168189614ca8565b93906137a1565b506137e08161546e565b61379c565b613763565b50828410613777565b60405162461bcd60e51b815260206004820152601a60248201527f4f72646572526f757465723a20496e76616c6964206c696d69740000000000006044820152606490fd5b506103e8811115613611565b346103225760403660031901126103225761385d613ed4565b336001600160a01b038216036138795761141d90600435614635565b60405162461bcd60e51b815260206004820152602f60248201527f416363657373436f6e74726f6c3a2063616e206f6e6c792072656e6f756e636560448201526e103937b632b9903337b91039b2b63360891b6064820152608490fd5b34610322576020366003190112610322576001600160a01b036138f7613ebe565b16600052600e6020526080604060002080549060018101549060ff6003600283015492015416916040519384526020840152604083015215156060820152f35b3461032257604036600319011261032257600435613953613ed4565b81600052600060205261396d60016040600020015461452b565b81600052600060205260406000209060018060a01b0316908160005260205260ff604060002054161561399c57005b8160005260006020526040600020816000526020526040600020600160ff1982541617905533917f2f8788117e7eff1d82e926ec794901d17c78024a50270940304540a733656f0d600080a4005b34610322576020366003190112610322576001600160a01b03613a0b613ebe565b16600052600d6020526020604060002054604051908152f35b34610322576020366003190112610322576004356001600160401b03811161032257613a549036906004016140c2565b613a5c61433d565b6040518183823760088183019081528190036020019020546001600160a01b031691613a898315156147d6565b6040518282823760208184810160088152030190206001600160601b0360a01b81541690558160405192839283378101600081520390207f0c913c3236b1d3c6cb1cacab4eec35114e80810981de8a5e28c38c1f6098e4b2600080a3005b346103225760203660031901126103225760043560005260006020526020600160406000200154604051908152f35b3461032257606036600319011261032257611136613b42613b35613ebe565b6044359060243590614d46565b604051918291602083526020830190614066565b34610322576020366003190112610322576001600160a01b03613b77613ebe565b1660005260076020526020604060002054604051908152f35b3461032257602036600319011261032257600435613bac61433d565b6103e88111613bee5760407f048ced0cbfd080780177282231c1bcf4b2e117ba3c76f5081b3dbab6dc6e1e1b91600354908060035582519182526020820152a1005b60405162461bcd60e51b815260206004820152601960248201527f4f72646572526f757465723a2046656520746f6f2068696768000000000000006044820152606490fd5b346103225760208060031936011261032257600435600052600b81526040600020908154613c6081614cbc565b90613c6e60405192836141c0565b8082528282018094600052836000206000915b838310613cfe5760408051878152865181890181905289928201908960005b828110613cad5784840385f35b855180518552808301518584015260408082015190860152606080820151908601526080808201516001600160a01b03169086015260a090810151908501529481019460c090930192600101613ca0565b600686600192604051613d108161416e565b8554815284860154838201526002860154604082015260038601546060820152848060a01b036004870154166080820152600586015460a0820152815201920192019190613c81565b346103225760a036600319011261032257613d72613ebe565b60243560443560643591608435801515809103610322577f4e397c6dbba8a64054292ad15595241bdb38c8205c62e798cfe592573bc16a5c93613e20613e3d92613dba61433d565b600360405191613dc983614153565b8683526020830199888b5260408401908682526060850192835260018060a01b03169a8b600052600e60205260406000209451855551600185015551600284015551151591019060ff801983541691151516179055565b604051938493846040919493926060820195825260208201520152565b0390a2005b346103225760003660031901126103225760206040516000805160206156a48339815191528152f35b34610322576020366003190112610322576004359063ffffffff60e01b821680920361032257602091637965db0b60e01b8114908115613ead575b5015158152f35b6301ffc9a760e01b14905083613ea6565b600435906001600160a01b038216820361032257565b602435906001600160a01b038216820361032257565b35906001600160a01b038216820361032257565b3590811515820361032257565b60005b838110613f1e5750506000910152565b8181015183820152602001613f0e565b90602091613f4781518092818552858086019101613f0b565b601f01601f1916010190565b906009821015610b215752565b906002821015610b215752565b906006821015610b215752565b906004821015610b215752565b908151815260018060a01b036020830151166020820152613fb76040830151610200806040850152830190613f2e565b91613fca60608201516060840190613f53565b613fdc60808201516080840190613f60565b60a081015160a083015260c081015160c083015260e081015160e0830152610100808201519083015261012080820151908301526140236101408083015190840190613f6d565b6140366101608083015190840190613f7a565b61018080820151908301526101a080820151908301526101c0808201511515908301526101e08091015191015290565b908082519081815260208091019281808460051b8301019501936000915b8483106140945750505050505090565b90919293949584806140b2600193601f198682030187528a51613f87565b9801930193019194939290614084565b9181601f84011215610322578235916001600160401b038311610322576020838186019501011161032257565b9181601f84011215610322578235916001600160401b038311610322576020808501948460051b01011161032257565b8054821015612504576000526006602060002091020190600090565b80548210156125045760005260206000200190600090565b608081019081106001600160401b03821117610b0b57604052565b60c081019081106001600160401b03821117610b0b57604052565b60a081019081106001600160401b03821117610b0b57604052565b61020081019081106001600160401b03821117610b0b57604052565b90601f801991011681019081106001600160401b03821117610b0b57604052565b81601f82011215610322578035906001600160401b038211610b0b5760405192614215601f8401601f1916602001856141c0565b8284526020838301011161032257816000926020809301838601378301015290565b602090614251928260405194838680955193849201613f0b565b82019081520301902090565b90600182811c9216801561428d575b602083101461427757565b634e487b7160e01b600052602260045260246000fd5b91607f169161426c565b90604051918260008254926142ab8461425d565b90818452600194858116908160001461431a57506001146142d7575b50506142d5925003836141c0565b565b9093915060005260209081600020936000915b8183106143025750506142d5935082010138806142c7565b855488840185015294850194879450918301916142ea565b9150506142d594506020925060ff191682840152151560051b82010138806142c7565b3360009081527f0bfee35f0032dacbfdd76dca49d350db3408626e01eb729b0e8c8ad79ed51b76602090815260408083205490927f56623da34b1ec5cb86498f15a28504a6323a0eedfb150423fe6f418d952826ee9160ff16156143a15750505050565b6143aa336146da565b918451906143b782614153565b6042825284820192606036853782511561451757603084538251906001918210156145175790607860218501536041915b8183116144a95750505061446757604861246293869361444b9361443c985198899376020b1b1b2b9b9a1b7b73a3937b61d1030b1b1b7bab73a1604d1b8a86015261240a815180928c603789019101613f0b565b010360288101875201856141c0565b5192839262461bcd60e51b845260048401526024830190613f2e565b60648486519062461bcd60e51b825280600483015260248201527f537472696e67733a20686578206c656e67746820696e73756666696369656e746044820152fd5b909192600f81166010811015614503576f181899199a1a9b1b9c1cb0b131b232b360811b901a6144d985876146c9565b5360041c9280156144ef576000190191906143e8565b634e487b7160e01b82526011600452602482fd5b634e487b7160e01b83526032600452602483fd5b634e487b7160e01b81526032600452602490fd5b600090808252602090828252604092838120338252835260ff8482205416156145545750505050565b61455d336146da565b9184519061456a82614153565b6042825284820192606036853782511561451757603084538251906001918210156145175790607860218501536041915b8183116145ef5750505061446757604861246293869361444b9361443c985198899376020b1b1b2b9b9a1b7b73a3937b61d1030b1b1b7bab73a1604d1b8a86015261240a815180928c603789019101613f0b565b909192600f81166010811015614503576f181899199a1a9b1b9c1cb0b131b232b360811b901a61461f85876146c9565b5360041c9280156144ef5760001901919061459b565b9060009180835282602052604083209160018060a01b03169182845260205260ff60408420541661466557505050565b80835282602052604083208284526020526040832060ff1981541690557ff6391f5c32d9c69d2a47ea670b442974b53935d1edc7fd64eb21e047a839171b339380a4565b818102929181159184041417156124ee57565b919082018092116124ee57565b908151811015612504570160200190565b60405190606082018281106001600160401b03821117610b0b57604052602a82526020820160403682378251156125045760309053815160019081101561250457607860218401536029905b8082116147365750506124665790565b9091600f8116601081101561478f576f181899199a1a9b1b9c1cb0b131b232b360811b901a61476584866146c9565b5360041c91801561477a576000190190614726565b60246000634e487b7160e01b81526011600452fd5b60246000634e487b7160e01b81526032600452fd5b903590601e198136030182121561032257018035906001600160401b0382116103225760200191813603831361032257565b156147dd57565b60405162461bcd60e51b815260206004820152602260248201527f4f72646572526f757465723a204d61726b6574206e6f74207265676973746572604482015261195960f21b6064820152608490fd5b356001600160a01b03811681036103225790565b1561484857565b60405162461bcd60e51b815260206004820152601d60248201527f4f72646572526f757465723a20496e76616c6964207175616e746974790000006044820152606490fd5b1561489457565b60405162461bcd60e51b815260206004820152601c60248201527f4f72646572526f757465723a20456d707479206d6574726963204944000000006044820152606490fd5b156148e057565b606460405162461bcd60e51b815260206004820152602060248201527f4f72646572526f757465723a20556e617574686f72697a6564207472616465726044820152fd5b906006811015610b215760ff80198354169116179055565b90816020910312610322575180151581036103225790565b60ff6002541661496057565b60405162461bcd60e51b815260206004820152601060248201526f14185d5cd8589b194e881c185d5cd95960821b6044820152606490fd5b6002600154146149a9576002600155565b60405162461bcd60e51b815260206004820152601f60248201527f5265656e7472616e637947756172643a207265656e7472616e742063616c6c006044820152606490fd5b156149f557565b60405162461bcd60e51b815260206004820152601c60248201527f4f72646572526f757465723a204f72646572206e6f7420666f756e64000000006044820152606490fd5b15614a4157565b60405162461bcd60e51b815260206004820152601960248201527f4f72646572526f757465723a20556e617574686f72697a6564000000000000006044820152606490fd5b600092918154614a958161425d565b92600191808316908115614aee5750600114614ab2575b50505050565b90919293945060005260209081600020906000915b858310614add5750505050019038808080614aac565b805485840152918301918101614ac7565b60ff1916845250505081151590910201915038808080614aac565b919082039182116124ee57565b90604051614b23816141a4565b8254815260018301546001600160a01b03166020820152918290614b4960028201614297565b6040830152600381015460ff8116906009821015610b215760ff91606085015260081c166002811015610b21576080830152600481015460a0830152600581015460c0830152600681015460e083015260078101546101008301526008810154610120830152600981015460ff8116906006821015610b215760ff9161014085015260081c166004811015610b21576101e091600d91610160850152600a810154610180850152600b8101546101a085015260ff600c8201541615156101c08501520154910152565b60001981146124ee5760010190565b91908110156125045760051b0190565b60405190614c3e826141a4565b816101e0600091828152826020820152606060408201528260608201528260808201528260a08201528260c08201528260e08201528261010082015282610120820152826101408201528261016082015282610180820152826101a0820152826101c08201520152565b80518210156125045760209160051b010190565b6001600160401b038111610b0b5760051b60200190565b604051602081018181106001600160401b03821117610b0b576040526000815290565b90614d0082614cbc565b614d0d60405191826141c0565b8281528092614d1e601f1991614cbc565b019060005b828110614d2f57505050565b602090614d3a614c31565b82828501015201614d23565b6001600160a01b0316600090815260076020908152604080832081518154808252918552838520909796949593949391889182870191885b88828210614e625750505050614da09291614d9a9103896141c0565b836146bc565b928651808511614e5a575b831015614e4857614dc4614dbf8486614b09565b614cf6565b96835b858110614dd75750505050505050565b81516000198101908111614e345790614dfc614df682614e2f94614b09565b84614ca8565b51885260068452611116614e228b614e28888c20614e1a8b87614b09565b938491614b16565b92614ca8565b528b614ca8565b614dc7565b634e487b7160e01b88526011600452602488fd5b50505050509050614e57614cd3565b90565b935083614dab565b835485528c95509093019260019283019201614d7e565b15614e8057565b60405162461bcd60e51b815260206004820152602260248201527f4f72646572526f757465723a204461696c7920766f6c756d65206f766572666c6044820152616f7760f01b6064820152608490fd5b60018060a01b03811690600090828252602093600e855260409384842093855192614efa84614153565b855480855260018701549489810195865260ff600360028a0154998b84019a8b5201541615906060821591015261513657806150d1575b508351614fae575b505050508151614f495750505050565b614f5290615169565b90511115614f61578080614aac565b60849250519062461bcd60e51b82526004820152602160248201527f4f72646572526f757465723a20546f6f206d616e79206f70656e206f726465726044820152607360f81b6064820152fd5b60c08101359060a0013581156150bd578160001904811161506f5791670de0b6b3a7640000614fe2899361500b96956146a9565b04928152600f89528181206201518042048252895220546150068219821115614e79565b6146bc565b90511061501b5738808080614f39565b825162461bcd60e51b815260048101859052602760248201527f4f72646572526f757465723a2045786365656473206461696c7920766f6c756d60448201526619481b1a5b5a5d60ca1b6064820152608490fd5b875162461bcd60e51b8152600481018a9052602160248201527f4f72646572526f757465723a204f726465722076616c7565206f766572666c6f6044820152607760f81b6064820152608490fd5b634e487b7160e01b83526012600452602483fd5b60a0820135116150e15738614f31565b865162461bcd60e51b815260048101899052602860248201527f4f72646572526f757465723a204578636565647320706f736974696f6e2073696044820152671e99481b1a5b5a5d60c21b6064820152608490fd5b505050505050505050565b61514a90615169565b6103e890818110156151625781039081116124ee5790565b5050600090565b9060009160018060a01b031682526020916007835260408082208151808287829454938481520190865287862092865b89828210615238575050506151b0925003826141c0565b825b8151811015615230576151c58183614ca8565b5160005260068087526101406151dd85600020614b16565b0190815181811015610b21571591821561521c575b5050615207575b61520290614c12565b6151b2565b9261521461520291614c12565b9390506151f9565b519150811015610b215760011438806151f2565b509193505050565b8554845260019586019587955093019201615199565b6000908082526006602052604082209061526a825415156149ee565b60098201805460ff8160081c1660048110156153d257600314806153f4575b806153e6575b806153a9575b6152a0575050505090565b60ff191660041790556040516002830192846152bc8386614a86565b60088152839003602001909220546001600160a01b039290831680615321575b50507ff92ae6fba462f697bc4c0f07330419920454a9dfa314d50004546efdd1a0c080916001615316920154169360405191828092614a86565b0390209380a4600190565b602090602460405180948193634b2299bd60e11b83528960048401525af1801561539e57615316927ff92ae6fba462f697bc4c0f07330419920454a9dfa314d50004546efdd1a0c0809492600192615380575b509250869193506152dc565b6153979060203d8111610af857610aea81836141c0565b5038615374565b6040513d88823e3d90fd5b5060ff811660068110156153d25780159081156153c7575b50615295565b6001915014386153c1565b634e487b7160e01b86526021600452602486fd5b50600884015442101561528f565b5060088401541515615289565b9061540b82614cbc565b61541860405191826141c0565b8281528092615429601f1991614cbc565b0190602036910137565b6020908160408183019282815285518094520193019160005b82811061545a575050505090565b83518552938101939281019260010161544c565b6101608101516004811015610b215760031490816154d5575b816154c5575b81615496575090565b61014091500180516006811015610b2157159081156154b3575090565b9050516006811015610b215760011490565b610120810151421015915061548d565b61012081015115159150615487565b60005260066020526154f96040600020614b16565b80511561550957614e579061546e565b50600090565b9060009160018060a01b031682526020600781526040808420908051808385829554938481520190885285882092885b8782821061568d57505050615556925003836141c0565b6155608251615401565b948093815b84518110156155ca576155788186614ca8565b5183526006825261559261558d858520614b16565b61546e565b6155a5575b6155a090614c12565b615565565b946155c26155a0916155b78888614ca8565b51610406828c614ca8565b959050615597565b5092509294909394806155df57505050905090565b6155e881615401565b91845b82811061566f575050509080615615939285518095819263fe74915560e01b835260048301615433565b038185305af193841561566457508193615630575b50505090565b9091809350813d831161565d575b61564881836141c0565b8101031261565a57505138808061562a565b80fd5b503d61563e565b51913d9150823e3d90fd5b8061567d6156889284614ca8565b516104068287614ca8565b6155eb565b855484526001958601958895509301920161553f56fedfbefbf47cfe66b701d8cfdbce1de81c821590819cb07e71cb01b6602fb0ee27a2646970667358221220390c69fb13088ae19dbb0d9b2c2e9ee35b17b3617afbd7dc19cfe8d9d640658e64736f6c634300081300332f8788117e7eff1d82e926ec794901d17c78024a50270940304540a733656f0d",
  "linkReferences": {},
  "deployedLinkReferences": {}
}