{
  "_format": "hh-sol-artifact-1",
  "contractName": "UMAOracleManager",
  "sourceName": "contracts/core/UMAOracleManager.sol",
  "abi": [
    {
      "inputs": [
        {
          "internalType": "address",
          "name": "_finder",
          "type": "address"
        },
        {
          "internalType": "address",
          "name": "_bondCurrency",
          "type": "address"
        },
        {
          "internalType": "address",
          "name": "_admin",
          "type": "address"
        }
      ],
      "stateMutability": "nonpayable",
      "type": "constructor"
    },
    {
      "anonymous": false,
      "inputs": [
        {
          "indexed": true,
          "internalType": "bytes32",
          "name": "identifier",
          "type": "bytes32"
        },
        {
          "indexed": true,
          "internalType": "uint256",
          "name": "timestamp",
          "type": "uint256"
        },
        {
          "indexed": true,
          "internalType": "address",
          "name": "disputer",
          "type": "address"
        },
        {
          "indexed": false,
          "internalType": "uint256",
          "name": "disputeTime",
          "type": "uint256"
        }
      ],
      "name": "DataDisputed",
      "type": "event"
    },
    {
      "anonymous": false,
      "inputs": [
        {
          "indexed": true,
          "internalType": "bytes32",
          "name": "identifier",
          "type": "bytes32"
        },
        {
          "indexed": true,
          "internalType": "uint256",
          "name": "timestamp",
          "type": "uint256"
        },
        {
          "indexed": true,
          "internalType": "address",
          "name": "requester",
          "type": "address"
        },
        {
          "indexed": false,
          "internalType": "bytes",
          "name": "ancillaryData",
          "type": "bytes"
        },
        {
          "indexed": false,
          "internalType": "uint256",
          "name": "reward",
          "type": "uint256"
        },
        {
          "indexed": false,
          "internalType": "uint256",
          "name": "bond",
          "type": "uint256"
        }
      ],
      "name": "DataRequested",
      "type": "event"
    },
    {
      "anonymous": false,
      "inputs": [
        {
          "indexed": true,
          "internalType": "bytes32",
          "name": "identifier",
          "type": "bytes32"
        },
        {
          "indexed": true,
          "internalType": "uint256",
          "name": "timestamp",
          "type": "uint256"
        },
        {
          "indexed": true,
          "internalType": "address",
          "name": "requester",
          "type": "address"
        },
        {
          "indexed": false,
          "internalType": "int256",
          "name": "resolvedValue",
          "type": "int256"
        },
        {
          "indexed": false,
          "internalType": "uint256",
          "name": "resolutionTime",
          "type": "uint256"
        }
      ],
      "name": "DataResolved",
      "type": "event"
    },
    {
      "anonymous": false,
      "inputs": [
        {
          "indexed": true,
          "internalType": "bytes32",
          "name": "identifier",
          "type": "bytes32"
        },
        {
          "indexed": false,
          "internalType": "string",
          "name": "description",
          "type": "string"
        },
        {
          "indexed": false,
          "internalType": "uint256",
          "name": "minBond",
          "type": "uint256"
        },
        {
          "indexed": false,
          "internalType": "uint256",
          "name": "defaultReward",
          "type": "uint256"
        },
        {
          "indexed": false,
          "internalType": "bool",
          "name": "isActive",
          "type": "bool"
        }
      ],
      "name": "MetricConfigUpdated",
      "type": "event"
    },
    {
      "anonymous": false,
      "inputs": [
        {
          "indexed": true,
          "internalType": "address",
          "name": "oldOracle",
          "type": "address"
        },
        {
          "indexed": true,
          "internalType": "address",
          "name": "newOracle",
          "type": "address"
        }
      ],
      "name": "OracleAddressUpdated",
      "type": "event"
    },
    {
      "anonymous": false,
      "inputs": [
        {
          "indexed": false,
          "internalType": "address",
          "name": "account",
          "type": "address"
        }
      ],
      "name": "Paused",
      "type": "event"
    },
    {
      "anonymous": false,
      "inputs": [
        {
          "indexed": true,
          "internalType": "bytes32",
          "name": "requestId",
          "type": "bytes32"
        },
        {
          "indexed": false,
          "internalType": "int256",
          "name": "resolvedValue",
          "type": "int256"
        }
      ],
      "name": "RequestSettled",
      "type": "event"
    },
    {
      "anonymous": false,
      "inputs": [
        {
          "indexed": true,
          "internalType": "bytes32",
          "name": "role",
          "type": "bytes32"
        },
        {
          "indexed": true,
          "internalType": "bytes32",
          "name": "previousAdminRole",
          "type": "bytes32"
        },
        {
          "indexed": true,
          "internalType": "bytes32",
          "name": "newAdminRole",
          "type": "bytes32"
        }
      ],
      "name": "RoleAdminChanged",
      "type": "event"
    },
    {
      "anonymous": false,
      "inputs": [
        {
          "indexed": true,
          "internalType": "bytes32",
          "name": "role",
          "type": "bytes32"
        },
        {
          "indexed": true,
          "internalType": "address",
          "name": "account",
          "type": "address"
        },
        {
          "indexed": true,
          "internalType": "address",
          "name": "sender",
          "type": "address"
        }
      ],
      "name": "RoleGranted",
      "type": "event"
    },
    {
      "anonymous": false,
      "inputs": [
        {
          "indexed": true,
          "internalType": "bytes32",
          "name": "role",
          "type": "bytes32"
        },
        {
          "indexed": true,
          "internalType": "address",
          "name": "account",
          "type": "address"
        },
        {
          "indexed": true,
          "internalType": "address",
          "name": "sender",
          "type": "address"
        }
      ],
      "name": "RoleRevoked",
      "type": "event"
    },
    {
      "anonymous": false,
      "inputs": [
        {
          "indexed": false,
          "internalType": "address",
          "name": "account",
          "type": "address"
        }
      ],
      "name": "Unpaused",
      "type": "event"
    },
    {
      "inputs": [],
      "name": "DEFAULT_ADMIN_ROLE",
      "outputs": [
        {
          "internalType": "bytes32",
          "name": "",
          "type": "bytes32"
        }
      ],
      "stateMutability": "view",
      "type": "function"
    },
    {
      "inputs": [],
      "name": "DEFAULT_LIVENESS",
      "outputs": [
        {
          "internalType": "uint256",
          "name": "",
          "type": "uint256"
        }
      ],
      "stateMutability": "view",
      "type": "function"
    },
    {
      "inputs": [],
      "name": "FACTORY_ROLE",
      "outputs": [
        {
          "internalType": "bytes32",
          "name": "",
          "type": "bytes32"
        }
      ],
      "stateMutability": "view",
      "type": "function"
    },
    {
      "inputs": [],
      "name": "METRIC_MANAGER_ROLE",
      "outputs": [
        {
          "internalType": "bytes32",
          "name": "",
          "type": "bytes32"
        }
      ],
      "stateMutability": "view",
      "type": "function"
    },
    {
      "inputs": [],
      "name": "MIN_BOND",
      "outputs": [
        {
          "internalType": "uint256",
          "name": "",
          "type": "uint256"
        }
      ],
      "stateMutability": "view",
      "type": "function"
    },
    {
      "inputs": [],
      "name": "ORACLE_ADMIN_ROLE",
      "outputs": [
        {
          "internalType": "bytes32",
          "name": "",
          "type": "bytes32"
        }
      ],
      "stateMutability": "view",
      "type": "function"
    },
    {
      "inputs": [],
      "name": "REQUESTER_ROLE",
      "outputs": [
        {
          "internalType": "bytes32",
          "name": "",
          "type": "bytes32"
        }
      ],
      "stateMutability": "view",
      "type": "function"
    },
    {
      "inputs": [
        {
          "internalType": "uint256",
          "name": "",
          "type": "uint256"
        }
      ],
      "name": "activeMetrics",
      "outputs": [
        {
          "internalType": "bytes32",
          "name": "",
          "type": "bytes32"
        }
      ],
      "stateMutability": "view",
      "type": "function"
    },
    {
      "inputs": [
        {
          "internalType": "bytes32",
          "name": "identifier",
          "type": "bytes32"
        },
        {
          "internalType": "address",
          "name": "requester",
          "type": "address"
        }
      ],
      "name": "addAuthorizedRequester",
      "outputs": [],
      "stateMutability": "nonpayable",
      "type": "function"
    },
    {
      "inputs": [],
      "name": "bondCurrency",
      "outputs": [
        {
          "internalType": "contract IERC20",
          "name": "",
          "type": "address"
        }
      ],
      "stateMutability": "view",
      "type": "function"
    },
    {
      "inputs": [
        {
          "components": [
            {
              "internalType": "bytes32",
              "name": "identifier",
              "type": "bytes32"
            },
            {
              "internalType": "string",
              "name": "description",
              "type": "string"
            },
            {
              "internalType": "uint8",
              "name": "decimals",
              "type": "uint8"
            },
            {
              "internalType": "uint256",
              "name": "minBond",
              "type": "uint256"
            },
            {
              "internalType": "uint256",
              "name": "defaultReward",
              "type": "uint256"
            },
            {
              "internalType": "uint256",
              "name": "livenessPeriod",
              "type": "uint256"
            },
            {
              "internalType": "bool",
              "name": "isActive",
              "type": "bool"
            },
            {
              "internalType": "address[]",
              "name": "authorizedRequesters",
              "type": "address[]"
            }
          ],
          "internalType": "struct IUMAOracleIntegration.MetricConfig",
          "name": "config",
          "type": "tuple"
        }
      ],
      "name": "configureMetric",
      "outputs": [],
      "stateMutability": "nonpayable",
      "type": "function"
    },
    {
      "inputs": [
        {
          "internalType": "bytes32",
          "name": "",
          "type": "bytes32"
        }
      ],
      "name": "dataRequests",
      "outputs": [
        {
          "internalType": "bytes32",
          "name": "identifier",
          "type": "bytes32"
        },
        {
          "internalType": "uint256",
          "name": "timestamp",
          "type": "uint256"
        },
        {
          "internalType": "bytes",
          "name": "ancillaryData",
          "type": "bytes"
        },
        {
          "internalType": "contract IERC20",
          "name": "currency",
          "type": "address"
        },
        {
          "internalType": "uint256",
          "name": "reward",
          "type": "uint256"
        },
        {
          "internalType": "uint256",
          "name": "bond",
          "type": "uint256"
        },
        {
          "internalType": "uint256",
          "name": "customLiveness",
          "type": "uint256"
        },
        {
          "internalType": "address",
          "name": "requester",
          "type": "address"
        },
        {
          "internalType": "bool",
          "name": "isResolved",
          "type": "bool"
        },
        {
          "internalType": "int256",
          "name": "resolvedValue",
          "type": "int256"
        },
        {
          "internalType": "uint256",
          "name": "requestTime",
          "type": "uint256"
        }
      ],
      "stateMutability": "view",
      "type": "function"
    },
    {
      "inputs": [],
      "name": "finder",
      "outputs": [
        {
          "internalType": "contract IFinder",
          "name": "",
          "type": "address"
        }
      ],
      "stateMutability": "view",
      "type": "function"
    },
    {
      "inputs": [],
      "name": "getActiveMetrics",
      "outputs": [
        {
          "internalType": "bytes32[]",
          "name": "identifiers",
          "type": "bytes32[]"
        }
      ],
      "stateMutability": "view",
      "type": "function"
    },
    {
      "inputs": [
        {
          "internalType": "bytes32",
          "name": "identifier",
          "type": "bytes32"
        },
        {
          "internalType": "uint256",
          "name": "fromTimestamp",
          "type": "uint256"
        },
        {
          "internalType": "uint256",
          "name": "toTimestamp",
          "type": "uint256"
        }
      ],
      "name": "getHistoricalValues",
      "outputs": [
        {
          "internalType": "uint256[]",
          "name": "timestamps",
          "type": "uint256[]"
        },
        {
          "internalType": "int256[]",
          "name": "values",
          "type": "int256[]"
        }
      ],
      "stateMutability": "view",
      "type": "function"
    },
    {
      "inputs": [
        {
          "internalType": "bytes32",
          "name": "identifier",
          "type": "bytes32"
        }
      ],
      "name": "getLatestMetricValue",
      "outputs": [
        {
          "internalType": "int256",
          "name": "value",
          "type": "int256"
        },
        {
          "internalType": "uint256",
          "name": "timestamp",
          "type": "uint256"
        }
      ],
      "stateMutability": "view",
      "type": "function"
    },
    {
      "inputs": [
        {
          "internalType": "bytes32",
          "name": "identifier",
          "type": "bytes32"
        }
      ],
      "name": "getMetricConfig",
      "outputs": [
        {
          "components": [
            {
              "internalType": "bytes32",
              "name": "identifier",
              "type": "bytes32"
            },
            {
              "internalType": "string",
              "name": "description",
              "type": "string"
            },
            {
              "internalType": "uint8",
              "name": "decimals",
              "type": "uint8"
            },
            {
              "internalType": "uint256",
              "name": "minBond",
              "type": "uint256"
            },
            {
              "internalType": "uint256",
              "name": "defaultReward",
              "type": "uint256"
            },
            {
              "internalType": "uint256",
              "name": "livenessPeriod",
              "type": "uint256"
            },
            {
              "internalType": "bool",
              "name": "isActive",
              "type": "bool"
            },
            {
              "internalType": "address[]",
              "name": "authorizedRequesters",
              "type": "address[]"
            }
          ],
          "internalType": "struct IUMAOracleIntegration.MetricConfig",
          "name": "config",
          "type": "tuple"
        }
      ],
      "stateMutability": "view",
      "type": "function"
    },
    {
      "inputs": [],
      "name": "getOptimisticOracle",
      "outputs": [
        {
          "internalType": "address",
          "name": "oracleAddress",
          "type": "address"
        }
      ],
      "stateMutability": "view",
      "type": "function"
    },
    {
      "inputs": [
        {
          "internalType": "bytes32",
          "name": "identifier",
          "type": "bytes32"
        }
      ],
      "name": "getPendingRequests",
      "outputs": [
        {
          "internalType": "bytes32[]",
          "name": "requestIds",
          "type": "bytes32[]"
        }
      ],
      "stateMutability": "view",
      "type": "function"
    },
    {
      "inputs": [
        {
          "internalType": "bytes32",
          "name": "requestId",
          "type": "bytes32"
        }
      ],
      "name": "getRequestStatus",
      "outputs": [
        {
          "internalType": "bool",
          "name": "isResolved",
          "type": "bool"
        },
        {
          "internalType": "int256",
          "name": "resolvedValue",
          "type": "int256"
        }
      ],
      "stateMutability": "view",
      "type": "function"
    },
    {
      "inputs": [
        {
          "internalType": "bytes32",
          "name": "role",
          "type": "bytes32"
        }
      ],
      "name": "getRoleAdmin",
      "outputs": [
        {
          "internalType": "bytes32",
          "name": "",
          "type": "bytes32"
        }
      ],
      "stateMutability": "view",
      "type": "function"
    },
    {
      "inputs": [
        {
          "internalType": "address",
          "name": "factory",
          "type": "address"
        }
      ],
      "name": "grantFactoryRole",
      "outputs": [],
      "stateMutability": "nonpayable",
      "type": "function"
    },
    {
      "inputs": [
        {
          "internalType": "bytes32",
          "name": "role",
          "type": "bytes32"
        },
        {
          "internalType": "address",
          "name": "account",
          "type": "address"
        }
      ],
      "name": "grantRole",
      "outputs": [],
      "stateMutability": "nonpayable",
      "type": "function"
    },
    {
      "inputs": [
        {
          "internalType": "bytes32",
          "name": "role",
          "type": "bytes32"
        },
        {
          "internalType": "address",
          "name": "account",
          "type": "address"
        }
      ],
      "name": "hasRole",
      "outputs": [
        {
          "internalType": "bool",
          "name": "",
          "type": "bool"
        }
      ],
      "stateMutability": "view",
      "type": "function"
    },
    {
      "inputs": [
        {
          "internalType": "bytes32",
          "name": "",
          "type": "bytes32"
        },
        {
          "internalType": "uint256",
          "name": "",
          "type": "uint256"
        }
      ],
      "name": "historicalValues",
      "outputs": [
        {
          "internalType": "int256",
          "name": "",
          "type": "int256"
        }
      ],
      "stateMutability": "view",
      "type": "function"
    },
    {
      "inputs": [
        {
          "internalType": "bytes32",
          "name": "identifier",
          "type": "bytes32"
        },
        {
          "internalType": "address",
          "name": "requester",
          "type": "address"
        }
      ],
      "name": "isAuthorizedRequester",
      "outputs": [
        {
          "internalType": "bool",
          "name": "isAuthorized",
          "type": "bool"
        }
      ],
      "stateMutability": "view",
      "type": "function"
    },
    {
      "inputs": [
        {
          "internalType": "bytes32",
          "name": "",
          "type": "bytes32"
        }
      ],
      "name": "metricConfigs",
      "outputs": [
        {
          "internalType": "bytes32",
          "name": "identifier",
          "type": "bytes32"
        },
        {
          "internalType": "string",
          "name": "description",
          "type": "string"
        },
        {
          "internalType": "uint8",
          "name": "decimals",
          "type": "uint8"
        },
        {
          "internalType": "uint256",
          "name": "minBond",
          "type": "uint256"
        },
        {
          "internalType": "uint256",
          "name": "defaultReward",
          "type": "uint256"
        },
        {
          "internalType": "uint256",
          "name": "livenessPeriod",
          "type": "uint256"
        },
        {
          "internalType": "bool",
          "name": "isActive",
          "type": "bool"
        }
      ],
      "stateMutability": "view",
      "type": "function"
    },
    {
      "inputs": [
        {
          "internalType": "bytes32",
          "name": "",
          "type": "bytes32"
        },
        {
          "internalType": "uint256",
          "name": "",
          "type": "uint256"
        }
      ],
      "name": "metricTimestamps",
      "outputs": [
        {
          "internalType": "uint256",
          "name": "",
          "type": "uint256"
        }
      ],
      "stateMutability": "view",
      "type": "function"
    },
    {
      "inputs": [],
      "name": "optimisticOracle",
      "outputs": [
        {
          "internalType": "contract IOptimisticOracleV3",
          "name": "",
          "type": "address"
        }
      ],
      "stateMutability": "view",
      "type": "function"
    },
    {
      "inputs": [],
      "name": "pause",
      "outputs": [],
      "stateMutability": "nonpayable",
      "type": "function"
    },
    {
      "inputs": [
        {
          "internalType": "bytes32",
          "name": "identifier",
          "type": "bytes32"
        }
      ],
      "name": "pauseMetric",
      "outputs": [],
      "stateMutability": "nonpayable",
      "type": "function"
    },
    {
      "inputs": [],
      "name": "paused",
      "outputs": [
        {
          "internalType": "bool",
          "name": "",
          "type": "bool"
        }
      ],
      "stateMutability": "view",
      "type": "function"
    },
    {
      "inputs": [
        {
          "internalType": "bytes32",
          "name": "",
          "type": "bytes32"
        },
        {
          "internalType": "uint256",
          "name": "",
          "type": "uint256"
        }
      ],
      "name": "pendingRequests",
      "outputs": [
        {
          "internalType": "bytes32",
          "name": "",
          "type": "bytes32"
        }
      ],
      "stateMutability": "view",
      "type": "function"
    },
    {
      "inputs": [
        {
          "internalType": "bytes32",
          "name": "identifier",
          "type": "bytes32"
        },
        {
          "internalType": "address",
          "name": "requester",
          "type": "address"
        }
      ],
      "name": "removeAuthorizedRequester",
      "outputs": [],
      "stateMutability": "nonpayable",
      "type": "function"
    },
    {
      "inputs": [
        {
          "internalType": "bytes32",
          "name": "role",
          "type": "bytes32"
        },
        {
          "internalType": "address",
          "name": "account",
          "type": "address"
        }
      ],
      "name": "renounceRole",
      "outputs": [],
      "stateMutability": "nonpayable",
      "type": "function"
    },
    {
      "inputs": [
        {
          "internalType": "bytes32",
          "name": "identifier",
          "type": "bytes32"
        },
        {
          "internalType": "uint256",
          "name": "timestamp",
          "type": "uint256"
        },
        {
          "internalType": "bytes",
          "name": "ancillaryData",
          "type": "bytes"
        },
        {
          "internalType": "uint256",
          "name": "reward",
          "type": "uint256"
        },
        {
          "internalType": "uint256",
          "name": "customLiveness",
          "type": "uint256"
        }
      ],
      "name": "requestMetricData",
      "outputs": [
        {
          "internalType": "bytes32",
          "name": "requestId",
          "type": "bytes32"
        }
      ],
      "stateMutability": "nonpayable",
      "type": "function"
    },
    {
      "inputs": [
        {
          "internalType": "address",
          "name": "factory",
          "type": "address"
        }
      ],
      "name": "revokeFactoryRole",
      "outputs": [],
      "stateMutability": "nonpayable",
      "type": "function"
    },
    {
      "inputs": [
        {
          "internalType": "bytes32",
          "name": "role",
          "type": "bytes32"
        },
        {
          "internalType": "address",
          "name": "account",
          "type": "address"
        }
      ],
      "name": "revokeRole",
      "outputs": [],
      "stateMutability": "nonpayable",
      "type": "function"
    },
    {
      "inputs": [
        {
          "internalType": "address",
          "name": "oracleAddress",
          "type": "address"
        }
      ],
      "name": "setOptimisticOracle",
      "outputs": [],
      "stateMutability": "nonpayable",
      "type": "function"
    },
    {
      "inputs": [
        {
          "internalType": "bytes32",
          "name": "requestId",
          "type": "bytes32"
        }
      ],
      "name": "settleRequest",
      "outputs": [],
      "stateMutability": "nonpayable",
      "type": "function"
    },
    {
      "inputs": [
        {
          "internalType": "bytes4",
          "name": "interfaceId",
          "type": "bytes4"
        }
      ],
      "name": "supportsInterface",
      "outputs": [
        {
          "internalType": "bool",
          "name": "",
          "type": "bool"
        }
      ],
      "stateMutability": "view",
      "type": "function"
    },
    {
      "inputs": [],
      "name": "unpause",
      "outputs": [],
      "stateMutability": "nonpayable",
      "type": "function"
    },
    {
      "inputs": [
        {
          "internalType": "bytes32",
          "name": "identifier",
          "type": "bytes32"
        }
      ],
      "name": "unpauseMetric",
      "outputs": [],
      "stateMutability": "nonpayable",
      "type": "function"
    },
    {
      "inputs": [
        {
          "internalType": "bytes32",
          "name": "identifier",
          "type": "bytes32"
        },
        {
          "internalType": "uint256",
          "name": "minBond",
          "type": "uint256"
        },
        {
          "internalType": "uint256",
          "name": "defaultReward",
          "type": "uint256"
        },
        {
          "internalType": "uint256",
          "name": "livenessPeriod",
          "type": "uint256"
        },
        {
          "internalType": "bool",
          "name": "isActive",
          "type": "bool"
        }
      ],
      "name": "updateMetricConfig",
      "outputs": [],
      "stateMutability": "nonpayable",
      "type": "function"
    }
  ],
  "bytecode": "0x60c060409080825234620003d45760608162003d928038038091620000258285620003d9565b833981010312620003d4576200003b8162000413565b9060209162000059846200005185850162000413565b930162000413565b600180556002805460ff19808216909255919390926001600160a01b03908116918215620003925781169485156200033e5716938415620002fa57608082905260a05285516302abf57960e61b8152714f7074696d69737469634f7261636c65563360701b6004820152908590829060249082905afa908115620002ef57600091620002af575b506001600160a81b031990911660089190911b610100600160a81b031617600255600080805280845284812083825284528490205460ff161562000273575b7fc307c44629779eb8fc0b85f224c3d22f5876a6c84de0ee42d481eb7814f0d3a880600052600084528460002083600052845260ff8560002054161562000236575b507fc09f87af02d8dac06f1e1105f8b6abfdb48fc2c111e95d7fe1a6261778fda7bb9283600052600081528460002083600052815260ff85600020541615620001f7575b845161394990816200042982396080518161075a015260a05181818161177d015281816117e60152818161189e01528181611aa001528181611b2601528181611b9f01528181611d0f0152612a1a0152f35b83600052600081528460002090836000525260018460002091825416179055339160008051602062003d72833981519152600080a438808080620001a5565b8060005260008452846000208360005284528460002060018382541617905582339160008051602062003d72833981519152600080a43862000161565b600080526000835283600020826000528352836000206001828254161790553382600060008051602062003d728339815191528180a46200011f565b908582813d8311620002e7575b620002c88183620003d9565b81010312620002e45750620002dd9062000413565b38620000e0565b80fd5b503d620002bc565b86513d6000823e3d90fd5b865162461bcd60e51b815260048101879052601f60248201527f554d414f7261636c654d616e616765723a20496e76616c69642061646d696e006044820152606490fd5b875162461bcd60e51b815260048101889052602760248201527f554d414f7261636c654d616e616765723a20496e76616c696420626f6e642063604482015266757272656e637960c81b6064820152608490fd5b60648789519062461bcd60e51b825280600483015260248201527f554d414f7261636c654d616e616765723a20496e76616c69642066696e6465726044820152fd5b600080fd5b601f909101601f19168101906001600160401b03821190821017620003fd57604052565b634e487b7160e01b600052604160045260246000fd5b51906001600160a01b0382168203620003d45756fe608080604052600436101561001357600080fd5b60003560e01c90816301ffc9a714612a49575080630484d54214612a04578063049d070b146129d457806304a0fb17146129ab5780630ad2b5831461291d57806322302922146108e0578063243881be14612512578063248a9ca3146124e357806328e7d709146124105780632f2ff15d1461235d57806336568abe146122cb57806337d7b4b01461229a5780633f4ba83a146122065780634430db7e146121cb57806345d076641461218b5780634c451fb5146115e65780635c975abb146115c35780637684398b146115a65780638003a94f1461156b5780638069e40d146115345780638456cb59146114da5780638cc432a7146114645780638dc6e7ea1461134d5780638f739cc7146111d057806391d148541461118357806394c5d4fe14610d545780639706fc3114610b0b57806397ecb9b8146109c7578063a217fddf146109ab578063a225890314610971578063a5b0a7af1461093e578063a7f0cd421461090d578063af0bb058146108e0578063b020a57a146108a9578063b5fd7d4c14610789578063b9a3c84c14610744578063ba2260701461057c578063bf5c3252146104a6578063c10a46c61461046b578063d547741f1461042c578063d94eb0441461036e578063e0de0fee1461034a578063e0f2f231146103205763f833a3901461020357600080fd5b3461031b57604036600319011261031b5761021c612a9c565b610224612faf565b60043560005260039081602052600760406000200160009160018060a01b03809116925b82548082101561031957848361025e8487612d41565b905490891b1c161461027957506102749061372e565b610248565b929350909160001991828201918211610303576102ab8461029d6102ca9488612d41565b905490891b1c169186612d41565b90919082549060031b9160018060a01b03809116831b921b1916179055565b825480156102ed5701926102de8484612d41565b8154921b9290921b1916905555005b634e487b7160e01b600052603160045260246000fd5b634e487b7160e01b600052601160045260246000fd5b005b600080fd5b3461031b57602036600319011261031b57604061033e6004356136c2565b82519182526020820152f35b3461031b57600036600319011261031b576020604051683635c9adc5dea000008152f35b3461031b5760208060031936011261031b57610388612ab2565b610390612d94565b6000805160206138f48339815191529182600052600081526103b96001604060002001546130f4565b600083815280825260408082206001600160a01b0390941680835293835290205460ff166103e357005b82600052600081526040600020908260005252604060002060ff19815416905533917ff6391f5c32d9c69d2a47ea670b442974b53935d1edc7fd64eb21e047a839171b600080a4005b3461031b57604036600319011261031b5761031960043561044b612a9c565b908060005260006020526104666001604060002001546130f4565b6131fe565b3461031b57600036600319011261031b5760206040517fc09f87af02d8dac06f1e1105f8b6abfdb48fc2c111e95d7fe1a6261778fda7bb8152f35b3461031b57602036600319011261031b576104bf612ab2565b6104c7612d94565b6001600160a01b038181169182156105265760028054610100600160a81b03198116600893841b610100600160a81b031617909155901c167fd3afd1676752459d3aa8b6f73633fac8efd724610da9c4cd8d8e4fa1631841fb600080a3005b60405162461bcd60e51b815260206004820152602860248201527f554d414f7261636c654d616e616765723a20496e76616c6964206f7261636c65604482015267206164647265737360c01b6064820152608490fd5b3461031b57602036600319011261031b57606060e060405161059d81612b02565b600081528260208201526000604082015260008382015260006080820152600060a0820152600060c08201520152600435600052600360205260406000206007604051916105ea83612b02565b805483526105fa60018201612b5a565b602084015260ff60028201541660408401526003810154606084015260048101546080840152600581015460a084015260ff600682015416151560c0840152019060405191826020825491828152019160005260206000209060005b818110610725575050508261066c910383612b39565b60e08101918252604051918291602083528051602084015260208101519160c06106a461010094856040880152610120870190612c23565b9260ff604082015116606087015260608101516080870152608081015160a087015260a0810151828701520151151560e08501525191601f1984830301908401526020808351928381520192019060005b818110610703575050500390f35b82516001600160a01b03168452859450602093840193909201916001016106f5565b82546001600160a01b0316845260209093019260019283019201610656565b3461031b57600036600319011261031b576040517f00000000000000000000000000000000000000000000000000000000000000006001600160a01b03168152602090f35b3461031b5760208060031936011261031b576107a3612ab2565b6107ab612d94565b6001600160a01b03168015610852576000805160206138f48339815191529182600052600081526107e36001604060002001546130f4565b8260005260008152604060002082600052815260ff604060002054161561080657005b826000526000815260406000209082600052526040600020600160ff1982541617905533917f2f8788117e7eff1d82e926ec794901d17c78024a50270940304540a733656f0d600080a4005b60405162461bcd60e51b815260048101839052602960248201527f554d414f7261636c654d616e616765723a20496e76616c696420666163746f7260448201526879206164647265737360b81b6064820152608490fd5b3461031b57602036600319011261031b5760043560085481101561031b576108d2602091612cf4565b90546040519160031b1c8152f35b3461031b57600036600319011261031b5760025460405160089190911c6001600160a01b03168152602090f35b3461031b5761091b36612cde565b9060005260076020526040600020805482101561031b576020916108d291612d41565b3461031b5761094c36612cde565b9060005260056020526040600020906000526020526020604060002054604051908152f35b3461031b57602036600319011261031b5761098a612d94565b6004356000908152600360205260409020600601805460ff19166001179055005b3461031b57600036600319011261031b57602060405160008152f35b3461031b5760a036600319011261031b5760043560443560843560643560243582151580840361031b576109f9612faf565b8560005260036020528560406000205403610abb577fef0b4d0776c73911272a4f1b5ede8a29679c2116829574fd8f3a4824b69efdac94610a8f610aa695610a4c683635c9adc5dea00000861015613768565b610a5a610e108710156137b4565b8860005260036020526040600020958560038801558360048801556005870155600686019060ff801983541691151516179055565b604051948594608086526001608087019101612c48565b926020850152604084015260608301520390a2005b60405162461bcd60e51b815260206004820152602260248201527f554d414f7261636c654d616e616765723a204d6574726963206e6f7420666f756044820152611b9960f21b6064820152608490fd5b3461031b57606036600319011261031b576004356024359060443591816000526020600681526040600020926000946000908554915b828110610ce85750610b528761373d565b95610b606040519788612b39565b878752610b6c8861373d565b9585880194601f19809801368737610b9c610b868b61373d565b9a610b946040519c8d612b39565b808c5261373d565b8a8801980136893760009360005b868110610c2e57505050505050506040519485946040860190604087525180915260608601929060005b818110610c17575050508482038584015251808252908201929160005b828110610c0057505050500390f35b835185528695509381019392810192600101610bf1565b825185528897509385019391850191600101610bd4565b838b610c3f839d9e9a9c9d88612d41565b929054600393841b1c101580610ccf575b610c6a575b5050610c609061372e565b9a9998969a610baa565b96610cc7918398610c8e83610c82610c60978c612d41565b905490851b1c92613754565b528560005260058c52604060002090610ca78a8a612d41565b9054911b1c6000528b52604060002054610cc1828c613754565b5261372e565b95908c610c55565b5083610cdb8489612d41565b905490841b1c1115610c50565b8582610cf8838a9b97999a612d41565b929054600393841b1c10159182610d39575b5050610d24575b610d1a9061372e565b9695949296610b41565b92610d31610d1a9161372e565b939050610d11565b909150610d46838b612d41565b9054911b1c1115828a610d0a565b3461031b5760208060031936011261031b57600435610d7161346d565b600081815260048352604090206007810180546001600160a01b03949293929190858116156111325760a01c60ff166110e2578460025460081c1690845495600196878701938454600289019260405163a9904f9b60e01b815260e08180610ddf8887873060048601613694565b0381875afa9081156110335760009161108f575b501561103f5791610e24969594939160008994604051998a9586948593635e9a79a960e01b85523060048601613694565b03925af193841561103357600094611004575b50600160a01b60ff60a01b198354161782558360088801558654600052600585526040600020835460005285528360406000205586546000526006855260406000209683548854600160401b811015610fee57610e9d818c9b8c610eb494018155612d41565b819391549060031b91821b91600019901b19161790565b90558054600052600786526040600020886000905b610f34575b50507fa5ef228e500a680efdf34e85a47d4d022a8674da082948a2d8cdbe01177becff969750549254915416917f95608fa0278bcfb146ac7abb53cf205b6e4be696b456459d85dce74299ede2dc604080518681524288820152a4604051908152a28055005b815480821015610fe85789610f498385612d41565b919054600392831b1c14610f68575050610f629061372e565b89610ec9565b999a50600019999291908a810190811161030357610e9d610f8c610f999285612d41565b905490861b1c9284612d41565b905580549889156102ed57807fa5ef228e500a680efdf34e85a47d4d022a8674da082948a2d8cdbe01177becff9a0192610fd38484612d41565b81939154921b1b19169055558897968a610ece565b50610ece565b634e487b7160e01b600052604160045260246000fd5b9093508481813d831161102c575b61101c8183612b39565b8101031261031b57519288610e37565b503d611012565b6040513d6000823e3d90fd5b60405162461bcd60e51b815260048101899052602260248201527f554d414f7261636c654d616e616765723a204e6f7420796574207265736f6c76604482015261195960f21b6064820152608490fd5b905060e0813d60e0116110da575b816110aa60e09383612b39565b8101031261031b576110bb816134c3565b506110d360406110cc8b84016134c3565b92016134c3565b508c610df3565b3d915061109d565b60405162461bcd60e51b815260048101839052602260248201527f554d414f7261636c654d616e616765723a20416c7265616479207265736f6c76604482015261195960f21b6064820152608490fd5b60405162461bcd60e51b815260048101849052602360248201527f554d414f7261636c654d616e616765723a2052657175657374206e6f7420666f6044820152621d5b9960ea1b6064820152608490fd5b3461031b57604036600319011261031b5761119c612a9c565b600435600052600060205260406000209060018060a01b0316600052602052602060ff604060002054166040519015158152f35b3461031b57604036600319011261031b576111e9612a9c565b3360009081527fa357627b50d8777f7b460d64207bc2f998db83fe29db7081e5fc6bec310a64cb602090815260409091205460ff16801561131d575b156112be576001600160a01b0382161561126e5760039060043560005252600760406000200190815491600160401b831015610fee57826102ab91600161031995018155612d41565b6084906040519062461bcd60e51b82526004820152602360248201527f554d414f7261636c654d616e616765723a20496e76616c6964207265717565736044820152623a32b960e91b6064820152fd5b6084906040519062461bcd60e51b82526004820152603260248201527f554d414f7261636c654d616e616765723a204e6f7420617574686f72697a656460448201527120746f20616464207265717565737465727360701b6064820152fd5b506000805160206138f483398151915260005260008152604060002033600052815260ff60406000205416611225565b3461031b57600036600319011261031b57600080600854905b81811061141957506113778261373d565b916113856040519384612b39565b808352611394601f199161373d565b0160209036828501376000805b8381106113ba57604051806113b68782612d59565b0390f35b6113c381612cf4565b9054600391821b1c60005280845260ff600660406000200154166113f1575b506113ec9061372e565b6113a1565b8192611412916114036113ec94612cf4565b9054911b1c610cc18289613754565b91906113e2565b61142281612cf4565b9054600391821b1c60005260205260ff6006604060002001541661144f575b61144a9061372e565b611366565b9161145c61144a9161372e565b929050611441565b3461031b5760208060031936011261031b5760043560005260078152604060002090604051908181845491828152019360005281600020916000905b8282106114c3576113b6856114b781890382612b39565b60405191829182612d59565b8354865294850194600193840193909101906114a0565b3461031b57600036600319011261031b576114f3612d94565b6114fb613429565b600160ff1960025416176002557f62e78cea01bee320cd4e420270b5ea74000d11b0c9f74754ebdbfc544b05a2586020604051338152a1005b3461031b57602036600319011261031b5761154d612d94565b6004356000908152600360205260409020600601805460ff19169055005b3461031b57600036600319011261031b5760206040517fc307c44629779eb8fc0b85f224c3d22f5876a6c84de0ee42d481eb7814f0d3a88152f35b3461031b57600036600319011261031b576020604051611c208152f35b3461031b57600036600319011261031b57602060ff600254166040519015158152f35b3461031b5760a036600319011261031b576001600160401b036044351161031b5736602360443501121561031b576001600160401b03604435600401351161031b573660246044356004013560443501011161031b5760843561164761346d565b61164f613429565b600435600052600360205260406000209060ff6006830154161561213a573360009081527f3d345f69ce4cd4ee7817c30d36840ea4a12745339502018b706b68a4dd792961602052604090205460ff168015612128575b156120e457426024351161209457602435156120435760643515612039576064355b600383015490818110156120315750915b811561202657505b6001600160ff1b038211611fd15760405190600435602083015260243560408301523360601b6060830152426074830152446094830152609482528160c08101106001600160401b0360c084011117610fee5760c08201604052815160208301209182600052600460205260018060a01b0360076040600020015416611f7957506040516370a0823160e01b81523360048201526020816024817f00000000000000000000000000000000000000000000000000000000000000006001600160a01b03165afa8015611033578491600091611f44575b5010611eeb57604051636eb1769f60e11b81523360048201523060248201526020816044816001600160a01b037f0000000000000000000000000000000000000000000000000000000000000000165afa8015611033578491600091611eb6575b5010611e5b5760405190816101608101106001600160401b0361016084011117610fee5761016082016040526004358252602435602083015261186060443560040135613272565b61186d6040519182612b39565b6044356004810135808352906024016020830137600060206044356004013583010152604083015260018060a01b037f000000000000000000000000000000000000000000000000000000000000000016606083015260643560808301528360a083015260c08201523360e08201526000610100820152600061012082015242610140820152816000526004602052604060002090805182556020810151600183015560408101518051906001600160401b038211610fee57611940826119376002870154612ac8565b600287016133c3565b602090601f8311600114611de55791806009949261014094600092611dda575b50508160011b916000199060031b1c19161760028501555b6003840160018060a01b036060830151166bffffffffffffffffffffffff60a01b8254161790556080810151600485015560a0810151600585015560c081015160068501556007840160018060a01b0360e08301511681549060ff60a01b610100850151151560a01b16916affffffffffffffffffffff60a81b16171790556101208101516008850155015191015560043560005260076020526103e86040600020541015611d8157600435600052600760205260406000208054600160401b811015610fee57610e9d8184936001611a5394018155612d41565b90556040516323b872dd60e01b6020820152336024820152306044820152826064820152606481528060a08101106001600160401b0360a083011117610fee578060a0611ac492016040527f00000000000000000000000000000000000000000000000000000000000000006134d0565b60025460081c6001600160a01b031682158015611ce0575b15611c7c576040519063095ea7b360e01b60208301526024820152826044820152604481528060808101106001600160401b03608083011117610fee57806080611b4a92016040527f00000000000000000000000000000000000000000000000000000000000000006134d0565b60018060a01b0360025460081c16602060405180926311df92f160e01b82526004356004830152602435602483015260a0604483015281600081611b9d60a4820160443560040135602460443501613408565b7f00000000000000000000000000000000000000000000000000000000000000006001600160a01b031660648381019190915235608483015203925af1801561103357611c51575b5060209160405160608152611c096060820160443560040135602460443501613408565b9160643585830152604082015233917f9e17d5f3b9361604733b3622d8972f8d42b0927d15947a2e2c9b949cf2da10266024359280600435930390a460018055604051908152f35b602090813d8311611c75575b611c678183612b39565b8101031261031b5782611be5565b503d611c5d565b60405162461bcd60e51b815260206004820152603660248201527f5361666545524332303a20617070726f76652066726f6d206e6f6e2d7a65726f60448201527520746f206e6f6e2d7a65726f20616c6c6f77616e636560501b6064820152608490fd5b50604051636eb1769f60e11b81523060048201526001600160a01b0382166024820152602081806044810103817f00000000000000000000000000000000000000000000000000000000000000006001600160a01b03165afa90811561103357600091611d4f575b5015611adc565b90506020813d602011611d79575b81611d6a60209383612b39565b8101031261031b575184611d48565b3d9150611d5d565b60405162461bcd60e51b815260206004820152602b60248201527f554d414f7261636c654d616e616765723a20546f6f206d616e792070656e646960448201526a6e6720726571756573747360a81b6064820152608490fd5b015190508880611960565b906002850160005260206000209160005b601f1985168110611e43575092600994926001926101409583601f19811610611e2a575b505050811b016002850155611978565b015160001960f88460031b161c19169055888080611e1a565b91926020600181928685015181550194019201611df6565b60405162461bcd60e51b815260206004820152602d60248201527f554d414f7261636c654d616e616765723a20496e73756666696369656e74206260448201526c6f6e6420616c6c6f77616e636560981b6064820152608490fd5b9150506020813d602011611ee3575b81611ed260209383612b39565b8101031261031b5783905185611818565b3d9150611ec5565b60405162461bcd60e51b815260206004820152602b60248201527f554d414f7261636c654d616e616765723a20496e73756666696369656e74206260448201526a6f6e642062616c616e636560a81b6064820152608490fd5b9150506020813d602011611f71575b81611f6060209383612b39565b8101031261031b57839051856117b7565b3d9150611f53565b60c060849162461bcd60e51b82820152602060c4820152602660e48201527f554d414f7261636c654d616e616765723a205265717565737420494420636f6c610104820152653634b9b4b7b760d11b61012482015201fd5b60405162461bcd60e51b815260206004820152602760248201527f554d414f7261636c654d616e616765723a20426f6e6420616d6f756e7420746f6044820152666f206c6172676560c81b6064820152608490fd5b6005915001546116e1565b9050916116d9565b60048201546116c8565b60405162461bcd60e51b815260206004820152602360248201527f554d414f7261636c654d616e616765723a20496e76616c69642074696d6573746044820152620616d760ec1b6064820152608490fd5b60405162461bcd60e51b815260206004820152602260248201527f554d414f7261636c654d616e616765723a204675747572652074696d6573746160448201526106d760f41b6064820152608490fd5b606460405162461bcd60e51b815260206004820152602060248201527f554d414f7261636c654d616e616765723a204e6f7420617574686f72697a65646044820152fd5b506121353360043561384b565b6116a6565b60405162461bcd60e51b815260206004820152602360248201527f554d414f7261636c654d616e616765723a204d6574726963206e6f742061637460448201526269766560e81b6064820152608490fd5b3461031b57602036600319011261031b576004356000526004602052604080600020600860ff600783015460a01c16910154825191151582526020820152f35b3461031b57600036600319011261031b5760206040517f61a3517f153a09154844ed8be639dabc6e78dc22315c2d9a91f7eddf9398c0028152f35b3461031b57600036600319011261031b5761221f612d94565b60025460ff81161561225e5760ff19166002557f5db9ee0a495bf2e6ff9c91a7834c1ba4fdd244a5e8aa4e537bd38aeae4b073aa6020604051338152a1005b60405162461bcd60e51b815260206004820152601460248201527314185d5cd8589b194e881b9bdd081c185d5cd95960621b6044820152606490fd5b3461031b576122a836612cde565b9060005260066020526040600020805482101561031b576020916108d291612d41565b3461031b57604036600319011261031b576122e4612a9c565b336001600160a01b0382160361230057610319906004356131fe565b60405162461bcd60e51b815260206004820152602f60248201527f416363657373436f6e74726f6c3a2063616e206f6e6c792072656e6f756e636560448201526e103937b632b9903337b91039b2b63360891b6064820152608490fd5b3461031b57604036600319011261031b57600435612379612a9c565b8160005260006020526123936001604060002001546130f4565b81600052600060205260406000209060018060a01b0316908160005260205260ff60406000205416156123c257005b8160005260006020526040600020816000526020526040600020600160ff1982541617905533917f2f8788117e7eff1d82e926ec794901d17c78024a50270940304540a733656f0d600080a4005b3461031b57602036600319011261031b576004356000526004602052604060002080546001820154916040516124548161244d8160028601612c48565b0382612b39565b60018060a01b039160ff836003830154169360048301549060058401546006850154906007860154936124ab60096008890154980154986040519c8d9c8d5260208d015260408c61016091829101528c0190612c23565b9860608b015260808a015260a089015260c0880152811660e087015260a01c1615156101008501526101208401526101408301520390f35b3461031b57602036600319011261031b5760043560005260006020526020600160406000200154604051908152f35b3461031b576003196020368201811361031b576004356001600160401b039182821161031b576101008260040194833603011261031b577fc09f87af02d8dac06f1e1105f8b6abfdb48fc2c111e95d7fe1a6261778fda7bb60005260008152604060002033600052815260ff6040600020541680156128ed575b1561288b5760648201356125ab683635c9adc5dea00000821015613768565b60a48301356125be610e108210156137b4565b8535958660005260038452604060002094878655600186019660248201976125e6898561380c565b90838211610fee578190612604826125fe8654612ac8565b866133c3565b600090601f831160011461282157600092612816575b50508160011b916000199060031b1c19161790555b60028701604483013560ff811680910361031b5760ff198254161790558460038801556084820135938460048901556005880155600760c483019761268b6126768a61383e565b600683019060ff801983541691151516179055565b019160e4810135906022198136030182121561031b5701600481013591821161031b57602401918160051b3603831361031b57600160401b92838311610fee5781548383558084106127f9575b50906000528660002060005b8381106127d557505050506126f88661383e565b806127c5575b61276a575b50906127357fef0b4d0776c73911272a4f1b5ede8a29679c2116829574fd8f3a4824b69efdac9661273d95949361380c565b94909561383e565b91612755604051968796608088526080880191613408565b938501526040840152151560608301520390a2005b600894939291945490811015610fee577fef0b4d0776c73911272a4f1b5ede8a29679c2116829574fd8f3a4824b69efdac9661273d95896127b7610e9d8560016127359701600855612cf4565b905592939495509650612703565b506127cf886138b1565b156126fe565b8235906001600160a01b038216820361031b578960019294019381840155016126e4565b6128109083600052848a60002091820191016133ac565b8b6126d8565b013590508c8061261a565b909150601f19831691846000528a6000209260005b8c82821061287557505090846001959493921061285b575b505050811b01905561262f565b0135600019600384901b60f8161c191690558c808061284e565b6001849682939587013581550195019201612836565b6084906040519062461bcd60e51b82526004820152603560248201527f554d414f7261636c654d616e616765723a204e6f7420617574686f72697a656460448201527420746f20636f6e666967757265206d65747269637360581b6064820152fd5b506000805160206138f483398151915260005260008152604060002033600052815260ff6040600020541661258c565b3461031b57602036600319011261031b5760043560005260036020526040600020805461294c60018301612b5a565b9160ff60028201541690600381015490600481015460ff60066005840154930154169261298b604051978897885260e0602089015260e0880190612c23565b9460408701526060860152608085015260a0840152151560c08301520390f35b3461031b57600036600319011261031b5760206040516000805160206138f48339815191528152f35b3461031b57604036600319011261031b5760206129fa6129f2612a9c565b60043561384b565b6040519015158152f35b3461031b57600036600319011261031b576040517f00000000000000000000000000000000000000000000000000000000000000006001600160a01b03168152602090f35b3461031b57602036600319011261031b576004359063ffffffff60e01b821680920361031b57602091637965db0b60e01b8114908115612a8b575b5015158152f35b6301ffc9a760e01b14905083612a84565b602435906001600160a01b038216820361031b57565b600435906001600160a01b038216820361031b57565b90600182811c92168015612af8575b6020831014612ae257565b634e487b7160e01b600052602260045260246000fd5b91607f1691612ad7565b61010081019081106001600160401b03821117610fee57604052565b608081019081106001600160401b03821117610fee57604052565b90601f801991011681019081106001600160401b03821117610fee57604052565b9060405191826000825492612b6e84612ac8565b908184526001948581169081600014612bdd5750600114612b9a575b5050612b9892500383612b39565b565b9093915060005260209081600020936000915b818310612bc5575050612b9893508201013880612b8a565b85548884018501529485019487945091830191612bad565b915050612b9894506020925060ff191682840152151560051b8201013880612b8a565b60005b838110612c135750506000910152565b8181015183820152602001612c03565b90602091612c3c81518092818552858086019101612c00565b601f01601f1916010190565b9060009291805491612c5983612ac8565b918282526001938481169081600014612cbb5750600114612c7b575b50505050565b90919394506000526020928360002092846000945b838610612ca7575050505001019038808080612c75565b805485870183015294019385908201612c90565b9294505050602093945060ff191683830152151560051b01019038808080612c75565b604090600319011261031b576004359060243590565b600854811015612d2b5760086000527ff3f7a9fe364faab93b216da50a3214154f22a0a2b415b23a84c8169e8b636ee30190600090565b634e487b7160e01b600052603260045260246000fd5b8054821015612d2b5760005260206000200190600090565b6020908160408183019282815285518094520193019160005b828110612d80575050505090565b835185529381019392810192600101612d72565b3360009081527f0182b0b5e08b141e693502edc4d7bcb5b504fb073ca0e6ed532a1d3ae8b27faa602090815260408083205490927fc307c44629779eb8fc0b85f224c3d22f5876a6c84de0ee42d481eb7814f0d3a89160ff1615612df85750505050565b612e013361329e565b91845190612e0e82612b1e565b60428252848201926060368537825115612f9b5760308453825190600191821015612f9b5790607860218501536041915b818311612f2d57505050612eeb576048612ee7938693612ecb93612ebc985198899376020b1b1b2b9b9a1b7b73a3937b61d1030b1b1b7bab73a1604d1b8a860152612e93815180928c603789019101612c00565b8401917001034b99036b4b9b9b4b733903937b6329607d1b603784015251809386840190612c00565b01036028810187520185612b39565b5192839262461bcd60e51b845260048401526024830190612c23565b0390fd5b60648486519062461bcd60e51b825280600483015260248201527f537472696e67733a20686578206c656e67746820696e73756666696369656e746044820152fd5b909192600f81166010811015612f87576f181899199a1a9b1b9c1cb0b131b232b360811b901a612f5d858761328d565b5360041c928015612f7357600019019190612e3f565b634e487b7160e01b82526011600452602482fd5b634e487b7160e01b83526032600452602483fd5b634e487b7160e01b81526032600452602490fd5b3360009081527fa357627b50d8777f7b460d64207bc2f998db83fe29db7081e5fc6bec310a64cb602090815260408083205490927fc09f87af02d8dac06f1e1105f8b6abfdb48fc2c111e95d7fe1a6261778fda7bb9160ff16156130135750505050565b61301c3361329e565b9184519061302982612b1e565b60428252848201926060368537825115612f9b5760308453825190600191821015612f9b5790607860218501536041915b8183116130ae57505050612eeb576048612ee7938693612ecb93612ebc985198899376020b1b1b2b9b9a1b7b73a3937b61d1030b1b1b7bab73a1604d1b8a860152612e93815180928c603789019101612c00565b909192600f81166010811015612f87576f181899199a1a9b1b9c1cb0b131b232b360811b901a6130de858761328d565b5360041c928015612f735760001901919061305a565b600090808252602090828252604092838120338252835260ff84822054161561311d5750505050565b6131263361329e565b9184519061313382612b1e565b60428252848201926060368537825115612f9b5760308453825190600191821015612f9b5790607860218501536041915b8183116131b857505050612eeb576048612ee7938693612ecb93612ebc985198899376020b1b1b2b9b9a1b7b73a3937b61d1030b1b1b7bab73a1604d1b8a860152612e93815180928c603789019101612c00565b909192600f81166010811015612f87576f181899199a1a9b1b9c1cb0b131b232b360811b901a6131e8858761328d565b5360041c928015612f7357600019019190613164565b9060009180835282602052604083209160018060a01b03169182845260205260ff60408420541661322e57505050565b80835282602052604083208284526020526040832060ff1981541690557ff6391f5c32d9c69d2a47ea670b442974b53935d1edc7fd64eb21e047a839171b339380a4565b6001600160401b038111610fee57601f01601f191660200190565b908151811015612d2b570160200190565b60405190606082018281106001600160401b03821117610fee57604052602a8252602082016040368237825115612d2b57603090538151600190811015612d2b57607860218401536029905b80821161333e5750506132fa5790565b606460405162461bcd60e51b815260206004820152602060248201527f537472696e67733a20686578206c656e67746820696e73756666696369656e746044820152fd5b9091600f81166010811015613397576f181899199a1a9b1b9c1cb0b131b232b360811b901a61336d848661328d565b5360041c9180156133825760001901906132ea565b60246000634e487b7160e01b81526011600452fd5b60246000634e487b7160e01b81526032600452fd5b8181106133b7575050565b600081556001016133ac565b9190601f81116133d257505050565b612b98926000526020600020906020601f840160051c830193106133fe575b601f0160051c01906133ac565b90915081906133f1565b908060209392818452848401376000828201840152601f01601f1916010190565b60ff6002541661343557565b60405162461bcd60e51b815260206004820152601060248201526f14185d5cd8589b194e881c185d5cd95960821b6044820152606490fd5b60026001541461347e576002600155565b60405162461bcd60e51b815260206004820152601f60248201527f5265656e7472616e637947756172643a207265656e7472616e742063616c6c006044820152606490fd5b5190811515820361031b57565b60018060a01b03169060405160408101908082106001600160401b03831117610fee5761355f916040526020938482527f5361666545524332303a206c6f772d6c6576656c2063616c6c206661696c6564858301526000808587829751910182855af13d156135f7573d9161354483613272565b926135526040519485612b39565b83523d868885013e6135fb565b908151908382159283156135d2575b50505090501561357b5750565b6084906040519062461bcd60e51b82526004820152602a60248201527f5361666545524332303a204552433230206f7065726174696f6e20646964206e6044820152691bdd081cdd58d8d9595960b21b6064820152fd5b8480929394500103126135f45750816135eb91016134c3565b8038838161356e565b80fd5b6060915b9192901561365d575081511561360f575090565b3b156136185790565b60405162461bcd60e51b815260206004820152601d60248201527f416464726573733a2063616c6c20746f206e6f6e2d636f6e74726163740000006044820152606490fd5b8251909150156136705750805190602001fd5b60405162461bcd60e51b815260206004820152908190612ee7906024830190612c23565b90926080926136bf959460018060a01b03168352602083015260408201528160608201520190612c48565b90565b906000828152600660205260408120805490811561372557600019820191821161371157604092916136f391612d41565b90549060031b1c938152600560205281812084825260205220549190565b634e487b7160e01b83526011600452602483fd5b50508092509190565b60001981146103035760010190565b6001600160401b038111610fee5760051b60200190565b8051821015612d2b5760209160051b010190565b1561376f57565b60405162461bcd60e51b815260206004820152601e60248201527f554d414f7261636c654d616e616765723a20426f6e6420746f6f206c6f7700006044820152606490fd5b156137bb57565b60405162461bcd60e51b8152602060048201526024808201527f554d414f7261636c654d616e616765723a204c6976656e65737320746f6f20736044820152631a1bdc9d60e21b6064820152608490fd5b903590601e198136030182121561031b57018035906001600160401b03821161031b5760200191813603831361031b57565b35801515810361031b5790565b600052600390816020526007604060002001916000928054935b848110613876575050505050600090565b6138808183612d41565b905490841b1c6001600160a01b03908116908516146138a7576138a29061372e565b613865565b5050505050600190565b6008549060005b8281106138c757505050600090565b816138d182612cf4565b90549060031b1c146138eb576138e69061372e565b6138b8565b50505060019056fedfbefbf47cfe66b701d8cfdbce1de81c821590819cb07e71cb01b6602fb0ee27a26469706673582212209c8fa088f7bd9ba16407ad3f9eaf6b8b6a3aee7b20c79a8285455ecaabb684b764736f6c634300081300332f8788117e7eff1d82e926ec794901d17c78024a50270940304540a733656f0d",
  "linkReferences": {},
  "deployedLinkReferences": {}
}