{
  "_format": "hh-sol-artifact-1",
  "contractName": "UpgradeManager",
  "sourceName": "contracts/UpgradeManager.sol",
  "abi": [
    {
      "inputs": [
        {
          "internalType": "address",
          "name": "_vaultRouter",
          "type": "address"
        },
        {
          "internalType": "address",
          "name": "_factory",
          "type": "address"
        },
        {
          "internalType": "address",
          "name": "_tradingRouter",
          "type": "address"
        },
        {
          "internalType": "address",
          "name": "_collateralToken",
          "type": "address"
        },
        {
          "internalType": "address",
          "name": "_admin",
          "type": "address"
        }
      ],
      "stateMutability": "nonpayable",
      "type": "constructor"
    },
    {
      "inputs": [],
      "name": "AccessControlBadConfirmation",
      "type": "error"
    },
    {
      "inputs": [
        {
          "internalType": "address",
          "name": "account",
          "type": "address"
        },
        {
          "internalType": "bytes32",
          "name": "neededRole",
          "type": "bytes32"
        }
      ],
      "name": "AccessControlUnauthorizedAccount",
      "type": "error"
    },
    {
      "inputs": [],
      "name": "ReentrancyGuardReentrantCall",
      "type": "error"
    },
    {
      "anonymous": false,
      "inputs": [
        {
          "indexed": false,
          "internalType": "uint256",
          "name": "upgradeCount",
          "type": "uint256"
        },
        {
          "indexed": false,
          "internalType": "uint256",
          "name": "timestamp",
          "type": "uint256"
        }
      ],
      "name": "BatchUpgradeExecuted",
      "type": "event"
    },
    {
      "anonymous": false,
      "inputs": [
        {
          "indexed": true,
          "internalType": "string",
          "name": "contractType",
          "type": "string"
        },
        {
          "indexed": true,
          "internalType": "address",
          "name": "oldContract",
          "type": "address"
        },
        {
          "indexed": true,
          "internalType": "address",
          "name": "newContract",
          "type": "address"
        },
        {
          "indexed": false,
          "internalType": "address",
          "name": "upgrader",
          "type": "address"
        },
        {
          "indexed": false,
          "internalType": "string",
          "name": "reason",
          "type": "string"
        },
        {
          "indexed": false,
          "internalType": "uint256",
          "name": "timestamp",
          "type": "uint256"
        }
      ],
      "name": "ContractUpgraded",
      "type": "event"
    },
    {
      "anonymous": false,
      "inputs": [
        {
          "indexed": true,
          "internalType": "bytes32",
          "name": "role",
          "type": "bytes32"
        },
        {
          "indexed": true,
          "internalType": "bytes32",
          "name": "previousAdminRole",
          "type": "bytes32"
        },
        {
          "indexed": true,
          "internalType": "bytes32",
          "name": "newAdminRole",
          "type": "bytes32"
        }
      ],
      "name": "RoleAdminChanged",
      "type": "event"
    },
    {
      "anonymous": false,
      "inputs": [
        {
          "indexed": true,
          "internalType": "bytes32",
          "name": "role",
          "type": "bytes32"
        },
        {
          "indexed": true,
          "internalType": "address",
          "name": "account",
          "type": "address"
        },
        {
          "indexed": true,
          "internalType": "address",
          "name": "sender",
          "type": "address"
        }
      ],
      "name": "RoleGranted",
      "type": "event"
    },
    {
      "anonymous": false,
      "inputs": [
        {
          "indexed": true,
          "internalType": "bytes32",
          "name": "role",
          "type": "bytes32"
        },
        {
          "indexed": true,
          "internalType": "address",
          "name": "account",
          "type": "address"
        },
        {
          "indexed": true,
          "internalType": "address",
          "name": "sender",
          "type": "address"
        }
      ],
      "name": "RoleRevoked",
      "type": "event"
    },
    {
      "anonymous": false,
      "inputs": [
        {
          "indexed": false,
          "internalType": "uint256",
          "name": "oldDelay",
          "type": "uint256"
        },
        {
          "indexed": false,
          "internalType": "uint256",
          "name": "newDelay",
          "type": "uint256"
        }
      ],
      "name": "UpgradeDelayChanged",
      "type": "event"
    },
    {
      "anonymous": false,
      "inputs": [
        {
          "indexed": false,
          "internalType": "bool",
          "name": "enabled",
          "type": "bool"
        }
      ],
      "name": "UpgradesToggled",
      "type": "event"
    },
    {
      "inputs": [],
      "name": "DEFAULT_ADMIN_ROLE",
      "outputs": [
        {
          "internalType": "bytes32",
          "name": "",
          "type": "bytes32"
        }
      ],
      "stateMutability": "view",
      "type": "function"
    },
    {
      "inputs": [],
      "name": "UPGRADER_ROLE",
      "outputs": [
        {
          "internalType": "bytes32",
          "name": "",
          "type": "bytes32"
        }
      ],
      "stateMutability": "view",
      "type": "function"
    },
    {
      "inputs": [
        {
          "internalType": "address",
          "name": "",
          "type": "address"
        }
      ],
      "name": "authorizedContracts",
      "outputs": [
        {
          "internalType": "bool",
          "name": "",
          "type": "bool"
        }
      ],
      "stateMutability": "view",
      "type": "function"
    },
    {
      "inputs": [
        {
          "components": [
            {
              "internalType": "string",
              "name": "contractType",
              "type": "string"
            },
            {
              "internalType": "address",
              "name": "newAddress",
              "type": "address"
            },
            {
              "internalType": "string",
              "name": "reason",
              "type": "string"
            }
          ],
          "internalType": "struct UpgradeManager.BatchUpgrade[]",
          "name": "upgrades",
          "type": "tuple[]"
        }
      ],
      "name": "batchUpgrade",
      "outputs": [],
      "stateMutability": "nonpayable",
      "type": "function"
    },
    {
      "inputs": [],
      "name": "collateralToken",
      "outputs": [
        {
          "internalType": "address",
          "name": "",
          "type": "address"
        }
      ],
      "stateMutability": "view",
      "type": "function"
    },
    {
      "inputs": [],
      "name": "emergencyPauseAll",
      "outputs": [],
      "stateMutability": "nonpayable",
      "type": "function"
    },
    {
      "inputs": [],
      "name": "factory",
      "outputs": [
        {
          "internalType": "contract OrderBookFactoryMinimal",
          "name": "",
          "type": "address"
        }
      ],
      "stateMutability": "view",
      "type": "function"
    },
    {
      "inputs": [],
      "name": "getAllContracts",
      "outputs": [
        {
          "internalType": "address",
          "name": "vaultRouterAddr",
          "type": "address"
        },
        {
          "internalType": "address",
          "name": "factoryAddr",
          "type": "address"
        },
        {
          "internalType": "address",
          "name": "tradingRouterAddr",
          "type": "address"
        },
        {
          "internalType": "address",
          "name": "collateralTokenAddr",
          "type": "address"
        }
      ],
      "stateMutability": "view",
      "type": "function"
    },
    {
      "inputs": [
        {
          "internalType": "bytes32",
          "name": "role",
          "type": "bytes32"
        }
      ],
      "name": "getRoleAdmin",
      "outputs": [
        {
          "internalType": "bytes32",
          "name": "",
          "type": "bytes32"
        }
      ],
      "stateMutability": "view",
      "type": "function"
    },
    {
      "inputs": [],
      "name": "getUpgradeCount",
      "outputs": [
        {
          "internalType": "uint256",
          "name": "",
          "type": "uint256"
        }
      ],
      "stateMutability": "view",
      "type": "function"
    },
    {
      "inputs": [
        {
          "internalType": "uint256",
          "name": "start",
          "type": "uint256"
        },
        {
          "internalType": "uint256",
          "name": "limit",
          "type": "uint256"
        }
      ],
      "name": "getUpgradeHistory",
      "outputs": [
        {
          "components": [
            {
              "internalType": "address",
              "name": "oldContract",
              "type": "address"
            },
            {
              "internalType": "address",
              "name": "newContract",
              "type": "address"
            },
            {
              "internalType": "string",
              "name": "contractType",
              "type": "string"
            },
            {
              "internalType": "uint256",
              "name": "timestamp",
              "type": "uint256"
            },
            {
              "internalType": "address",
              "name": "upgrader",
              "type": "address"
            },
            {
              "internalType": "string",
              "name": "reason",
              "type": "string"
            }
          ],
          "internalType": "struct UpgradeManager.UpgradeRecord[]",
          "name": "",
          "type": "tuple[]"
        }
      ],
      "stateMutability": "view",
      "type": "function"
    },
    {
      "inputs": [
        {
          "internalType": "bytes32",
          "name": "role",
          "type": "bytes32"
        },
        {
          "internalType": "address",
          "name": "account",
          "type": "address"
        }
      ],
      "name": "grantRole",
      "outputs": [],
      "stateMutability": "nonpayable",
      "type": "function"
    },
    {
      "inputs": [
        {
          "internalType": "bytes32",
          "name": "role",
          "type": "bytes32"
        },
        {
          "internalType": "address",
          "name": "account",
          "type": "address"
        }
      ],
      "name": "hasRole",
      "outputs": [
        {
          "internalType": "bool",
          "name": "",
          "type": "bool"
        }
      ],
      "stateMutability": "view",
      "type": "function"
    },
    {
      "inputs": [
        {
          "internalType": "bytes32",
          "name": "role",
          "type": "bytes32"
        },
        {
          "internalType": "address",
          "name": "callerConfirmation",
          "type": "address"
        }
      ],
      "name": "renounceRole",
      "outputs": [],
      "stateMutability": "nonpayable",
      "type": "function"
    },
    {
      "inputs": [],
      "name": "resumeAll",
      "outputs": [],
      "stateMutability": "nonpayable",
      "type": "function"
    },
    {
      "inputs": [
        {
          "internalType": "bytes32",
          "name": "role",
          "type": "bytes32"
        },
        {
          "internalType": "address",
          "name": "account",
          "type": "address"
        }
      ],
      "name": "revokeRole",
      "outputs": [],
      "stateMutability": "nonpayable",
      "type": "function"
    },
    {
      "inputs": [
        {
          "internalType": "uint256",
          "name": "delay",
          "type": "uint256"
        }
      ],
      "name": "setUpgradeDelay",
      "outputs": [],
      "stateMutability": "nonpayable",
      "type": "function"
    },
    {
      "inputs": [
        {
          "internalType": "bool",
          "name": "enabled",
          "type": "bool"
        }
      ],
      "name": "setUpgradesEnabled",
      "outputs": [],
      "stateMutability": "nonpayable",
      "type": "function"
    },
    {
      "inputs": [
        {
          "internalType": "bytes4",
          "name": "interfaceId",
          "type": "bytes4"
        }
      ],
      "name": "supportsInterface",
      "outputs": [
        {
          "internalType": "bool",
          "name": "",
          "type": "bool"
        }
      ],
      "stateMutability": "view",
      "type": "function"
    },
    {
      "inputs": [],
      "name": "systemHealthCheck",
      "outputs": [
        {
          "internalType": "bool",
          "name": "vaultRouterHealthy",
          "type": "bool"
        },
        {
          "internalType": "bool",
          "name": "factoryHealthy",
          "type": "bool"
        },
        {
          "internalType": "bool",
          "name": "tradingRouterHealthy",
          "type": "bool"
        },
        {
          "internalType": "bool",
          "name": "systemHealthy",
          "type": "bool"
        }
      ],
      "stateMutability": "view",
      "type": "function"
    },
    {
      "inputs": [],
      "name": "tradingRouter",
      "outputs": [
        {
          "internalType": "contract TradingRouter",
          "name": "",
          "type": "address"
        }
      ],
      "stateMutability": "view",
      "type": "function"
    },
    {
      "inputs": [
        {
          "internalType": "address",
          "name": "newCollateralToken",
          "type": "address"
        },
        {
          "internalType": "string",
          "name": "reason",
          "type": "string"
        }
      ],
      "name": "upgradeCollateralToken",
      "outputs": [],
      "stateMutability": "nonpayable",
      "type": "function"
    },
    {
      "inputs": [],
      "name": "upgradeDelay",
      "outputs": [
        {
          "internalType": "uint256",
          "name": "",
          "type": "uint256"
        }
      ],
      "stateMutability": "view",
      "type": "function"
    },
    {
      "inputs": [
        {
          "internalType": "address",
          "name": "newFactory",
          "type": "address"
        },
        {
          "internalType": "string",
          "name": "reason",
          "type": "string"
        }
      ],
      "name": "upgradeFactory",
      "outputs": [],
      "stateMutability": "nonpayable",
      "type": "function"
    },
    {
      "inputs": [
        {
          "internalType": "uint256",
          "name": "",
          "type": "uint256"
        }
      ],
      "name": "upgradeHistory",
      "outputs": [
        {
          "internalType": "address",
          "name": "oldContract",
          "type": "address"
        },
        {
          "internalType": "address",
          "name": "newContract",
          "type": "address"
        },
        {
          "internalType": "string",
          "name": "contractType",
          "type": "string"
        },
        {
          "internalType": "uint256",
          "name": "timestamp",
          "type": "uint256"
        },
        {
          "internalType": "address",
          "name": "upgrader",
          "type": "address"
        },
        {
          "internalType": "string",
          "name": "reason",
          "type": "string"
        }
      ],
      "stateMutability": "view",
      "type": "function"
    },
    {
      "inputs": [
        {
          "internalType": "address",
          "name": "newTradingRouter",
          "type": "address"
        },
        {
          "internalType": "string",
          "name": "reason",
          "type": "string"
        }
      ],
      "name": "upgradeTradingRouter",
      "outputs": [],
      "stateMutability": "nonpayable",
      "type": "function"
    },
    {
      "inputs": [
        {
          "internalType": "address",
          "name": "newVaultRouter",
          "type": "address"
        },
        {
          "internalType": "string",
          "name": "reason",
          "type": "string"
        }
      ],
      "name": "upgradeVaultRouter",
      "outputs": [],
      "stateMutability": "nonpayable",
      "type": "function"
    },
    {
      "inputs": [],
      "name": "upgradesEnabled",
      "outputs": [
        {
          "internalType": "bool",
          "name": "",
          "type": "bool"
        }
      ],
      "stateMutability": "view",
      "type": "function"
    },
    {
      "inputs": [],
      "name": "vaultRouter",
      "outputs": [
        {
          "internalType": "contract VaultRouter",
          "name": "",
          "type": "address"
        }
      ],
      "stateMutability": "view",
      "type": "function"
    }
  ],
  "bytecode": "0x6080346200014657601f620020c838819003918201601f191683019291906001600160401b038411838510176200014b578160a092849260409687528339810103126200014657620000518162000161565b9082620000616020830162000161565b916200006f82820162000161565b926200008c6080620000846060850162000161565b930162000161565b9160019485805560ff199686886008541617600855620001016000958660095560018060a01b0380931692808060018060a01b031998868a60025416176002551695868960035416176003551695868860045416176004551680966005541617600555620000fa8162000176565b50620001f6565b5084526007602052848420868882541617905583528383208587825416179055825282822084868254161790558152209182541617905551611e0f9081620002998239f35b600080fd5b634e487b7160e01b600052604160045260246000fd5b51906001600160a01b03821682036200014657565b6001600160a01b031660008181527fad3228b676f7d3cd4284a5443f17f1962b36e491b30a40b2405849e597ba5fb5602052604081205490919060ff16620001f257818052816020526040822081835260205260408220600160ff198254161790553391600080516020620020a88339815191528180a4600190565b5090565b6001600160a01b031660008181527fcc1f69e0eef30e6cab9eba078dfde64e8255bf01f21b8122b031b67f051e229260205260408120549091907f189ab7a9244df0848122154315af71fe140f3db0fe014031783b0946b8c9d2e39060ff166200029357808352826020526040832082845260205260408320600160ff19825416179055600080516020620020a8833981519152339380a4600190565b50509056fe608080604052600436101561001357600080fd5b600090813560e01c90816301ffc9a714611361575080630775ef0f146112b457806315f1924914610e7a57806318d3ce9614610e32578063248a9ca314610e065780632f2ff15d14610dc957806336568abe14610d815780635457b51d14610b1757806368af73e014610a1a5780636fa2fd59146109fc578063795db538146109985780637e48d4ea1461097a5780637f6196a51461083457806391d14854146107e95780639606d201146107435780639f5045e514610720578063a08c40731461067b578063a217fddf1461065f578063a6c5297814610543578063af3d104f14610481578063b2016bd414610458578063c0e8b80214610336578063c45a01551461030d578063d37c441c146102e4578063d547741f146102a3578063d5b9221b1461025b578063e130cb7614610232578063f171d3971461018b5763f72c0d8b1461016057600080fd5b346101885780600319360112610188576020604051600080516020611d9a8339815191528152f35b80fd5b50346101885760203660031901126101885760043560065481101561022e576101b390611510565b5060018060a01b0361022a818354169180600185015416936101d760028201611598565b906102126101f360056003840154956004850154169301611598565b926040519788978852602088015260c0604088015260c08701906113cc565b926060860152608085015283820360a08501526113cc565b0390f35b5080fd5b50346101885780600319360112610188576004546040516001600160a01b039091168152602090f35b5034610188576020366003190112610188576004356001600160a01b038116919082900361029e5760408160209360ff9352600784522054166040519015158152f35b600080fd5b5034610188576040366003190112610188576102e06004356102c36113b6565b90808452836020526102db60016040862001546116e0565b611784565b5080f35b50346101885780600319360112610188576002546040516001600160a01b039091168152602090f35b50346101885780600319360112610188576003546040516001600160a01b039091168152602090f35b50346101885780600319360112610188576002546040516358c3de9360e11b8082526001600160a01b03926020929083908290600490829088165afa801561044d5783918691610430575b501593600454169160046040518094819382525afa9081156104255790839291608095916103f8575b501590826103ef575b826103e6575b826103d9575b600190604051948552840152604083015215156060820152f35b60085460ff1692506103bf565b915080916103b9565b600192506103b3565b6104189150823d841161041e575b6104108183611455565b810190611a36565b386103aa565b503d610406565b6040513d86823e3d90fd5b6104479150823d841161041e576104108183611455565b38610381565b6040513d87823e3d90fd5b50346101885780600319360112610188576005546040516001600160a01b039091168152602090f35b503461018857806003193601126101885761049a61163e565b60025481906001600160a01b0390811690813b1561052b576040518381602481836305b0e2cf60e21b978883528160048401525af190811561042557849161052f575b50506004541690813b1561052b57829160248392604051948593849283528160048401525af18015610520576105105750f35b6105199061140c565b6101885780f35b6040513d84823e3d90fd5b5050fd5b6105389061140c565b61052b5782386104dd565b503461018857610552366114ce565b61055a611696565b61056860ff600854166117f9565b6001600160a01b038281169290919061058284151561184f565b848360035416936105958587141561189b565b60045416803b1561022e57818091602460405180958193630b768f0160e31b83528b60048401525af1918215610652578492610637575b5050600380546001600160a01b031916861790556105f3916105ec611962565b9085611a4e565b600080516020611dba83398151915261063160106040516f4f72646572426f6f6b466163746f727960801b8152209260405191829142903384611911565b0390a480f35b61064291925061140c565b61064e578185386105cc565b8480fd5b50604051903d90823e3d90fd5b5034610188578060031936011261018857602090604051908152f35b50346101885761068a366114ce565b610692611696565b6106a060ff600854166117f9565b60018060a01b03906106e581838516946106bb86151561184f565b85600454958616956106cf8783141561189b565b6001600160a01b031916176004556105ec61198e565b600080516020611dba833981519152610631600d6040516c2a3930b234b733a937baba32b960991b8152209260405191829142903384611911565b5034610188578060031936011261018857602060ff600854166040519015158152f35b50346101885760203660031901126101885760043561076061163e565b62093a8081116107a45760407f14cde1f31e7fbf6aa92251130e46199810a9e7ed92e83c081a8b4c2e28fbb0f391600954908060095582519182526020820152a180f35b60405162461bcd60e51b815260206004820152601e60248201527f557067726164654d616e616765723a2064656c617920746f6f206c6f6e6700006044820152606490fd5b50346101885760403660031901126101885760406108056113b6565b91600435815280602052209060018060a01b0316600052602052602060ff604060002054166040519015158152f35b503461018857610843366114ce565b61084b611696565b61085960ff600854166117f9565b6001600160a01b038281169290919061087384151561184f565b848360025416936108868587141561189b565b806003541690813b156109625760405183816024818363780e72ff60e01b978883528d60048401525af1908115610425578491610966575b50506004541690813b1561096257829160248392604051958693849283528b60048401525af191821561065257849261094b575b5050600280546001600160a01b03191686179055610912916105ec61193b565b600080516020611dba833981519152610631600b6040516a2b30bab63a2937baba32b960a91b8152209260405191829142903384611911565b61095691925061140c565b61064e578185386108f2565b8280fd5b61096f9061140c565b6109625782386108be565b50346101885780600319360112610188576020600954604051908152f35b50346101885760203660031901126101885760043580151580910361022e5760207f974b325b08d0619fad0b1bb63fb5119f8ad4ff3e671d0f8c174a646f9ca119f4916109e361163e565b60ff196008541660ff821617600855604051908152a180f35b50346101885780600319360112610188576020600654604051908152f35b503461018857610a29366114ce565b610a31611696565b610a3f60ff600854166117f9565b6001600160a01b0382811692909190610a5984151561184f565b84836005541693610a6c8587141561189b565b60025416803b1561022e5781809160246040518095819363666181a960e01b83528b60048401525af1918215610652578492610b00575b5050600580546001600160a01b03191686179055610ac3916105ec6118e6565b600080516020611dba833981519152610631600f6040516e21b7b63630ba32b930b62a37b5b2b760891b8152209260405191829142903384611911565b610b0b91925061140c565b61064e57818538610aa3565b50346101885760403660031901126101885760043560065480821015610d3057610b43602435836119fe565b90808211610d28575b50818103908111610d1457610b6081611a0b565b91610b6e6040519384611455565b818352601f19610b7d83611a0b565b01845b818110610cd9575050835b828110610c4457505060408051602080825284518183018190529194600583901b86018401945081019285015b828710610bc55785850386f35b909192938280610c34600193603f198a82030186528851858060a01b039182825116815282858301511685820152610c0b604083015160c08060408501528301906113cc565b926060808401519083015260809081840151169082015260a080920151918184039101526113cc565b9601920196019592919092610bb8565b80610c5a610c55610cd493856119fe565b611510565b50610cb4600560405192610c6d8461141f565b80546001600160a01b039081168552600182015481166020860152610c9460028301611598565b604086015260038201546060860152600482015416608085015201611598565b60a0820152610cc38287611a22565b52610cce8186611a22565b506119b7565b610b8b565b602090604051610ce88161141f565b8781528288818301526060806040840152898184015289608084015260a0830152828801015201610b80565b634e487b7160e01b83526011600452602483fd5b905038610b4c565b60405162461bcd60e51b815260206004820152602360248201527f557067726164654d616e616765723a207374617274206f7574206f6620626f756044820152626e647360e81b6064820152608490fd5b503461018857604036600319011261018857610d9b6113b6565b336001600160a01b03821603610db7576102e090600435611784565b60405163334bd91960e11b8152600490fd5b5034610188576040366003190112610188576102e0600435610de96113b6565b9080845283602052610e0160016040862001546116e0565b611706565b503461018857602036600319011261018857600160406020926004358152808452200154604051908152f35b5034610188578060031936011261018857608060018060a01b038060025416908060035416908060045416906005541691604051938452602084015260408301526060820152f35b5034610188576020366003190112610188576001600160401b036004351161018857366023600435011215610188576001600160401b036004803501351161018857600536602460043560040135831b60043501011161022e57610edc611696565b610eea60ff600854166117f9565b6002600154146112a257600260015560043560040135151580611291575b1561123e57815b600435600401358110610f5957827f87c2deaf15bb27cde3253b75bc2fa593f6ffe946b7f8bf7a144e0b8f4d82e13560408051600435600401358152426020820152a16001805580f35b60043581831b810160240135903603608219018112156112205760608060231983600435013603011261064e576040519081016001600160401b03811182821017611228576040526004358201602401356001600160401b03811161122457610fcc906024369185600435010101611478565b815260446004358301810135929091906001600160a01b038416840361029e57602082019390935285926001600160401b03600435820160640135116112205761102490369060043501606481013501602401611478565b916040820192835281516020815191012061103d6118e6565b60208151910120146000146110bb5750602001519051906001600160a01b0316303b15610962576040516303457b9f60e51b8152918391839182916110869190600484016119dc565b038183305af18015610520576110a7575b50506110a2906119b7565b610f0f565b6110b09061140c565b610962578238611097565b8151602081519101206110cc61193b565b60208151910120146000146111155750602001519051906001600160a01b0316303b1561096257604051637f6196a560e01b8152918391839182916110869190600484016119dc565b815160208151910120611126611962565b602081519101201460001461116f5750602001519051906001600160a01b0316303b15610962576040516314d8a52f60e31b8152918391839182916110869190600484016119dc565b9080929350516020815191012061118461198e565b60208151910120146000146111ce575060200151905184916001600160a01b0316303b156109625760405163a08c407360e01b8152918391839182916110869190600484016119dc565b6084907f557067726164654d616e616765723a20756e6b6e6f776e20636f6e74726163746040519162461bcd60e51b8352602060048401526025602484015282015264207479706560d81b6064820152fd5b8380fd5b8580fd5b634e487b7160e01b600052604160045260246000fd5b60405162461bcd60e51b815260206004820152602560248201527f557067726164654d616e616765723a20696e76616c696420757067726164652060448201526418dbdd5b9d60da1b6064820152608490fd5b50600a600435600401351115610f08565b604051633ee5aeb560e01b8152600490fd5b50346101885780600319360112610188576112cd61163e565b6002546001600160a01b0391908216803b1561022e57604051928284602481836305b0e2cf60e21b96878352600160048401525af1801561135657611342575b8293506004541690813b1561052b5782916024839260405194859384928352600160048401525af18015610520576105105750f35b91909261134e9061140c565b90829061130d565b6040513d85823e3d90fd5b90503461022e57602036600319011261022e5760043563ffffffff60e01b81168091036109625760209250637965db0b60e01b81149081156113a5575b5015158152f35b6301ffc9a760e01b1490503861139e565b602435906001600160a01b038216820361029e57565b919082519283825260005b8481106113f8575050826000602080949584010152601f8019910116010190565b6020818301810151848301820152016113d7565b6001600160401b03811161122857604052565b60c081019081106001600160401b0382111761122857604052565b604081019081106001600160401b0382111761122857604052565b601f909101601f19168101906001600160401b0382119082101761122857604052565b81601f8201121561029e578035906001600160401b03821161122857604051926114ac601f8401601f191660200185611455565b8284526020838301011161029e57816000926020809301838601378301015290565b90604060031983011261029e576004356001600160a01b038116810361029e5791602435906001600160401b03821161029e5761150d91600401611478565b90565b600654811015611548576006600081815291027ff652222313e28459528d920b65115c16c04f3efc82aaedc97be59f3f377c0d3f0191565b634e487b7160e01b600052603260045260246000fd5b90600182811c9216801561158e575b602083101461157857565b634e487b7160e01b600052602260045260246000fd5b91607f169161156d565b90604051918260008254926115ac8461155e565b90818452600194858116908160001461161b57506001146115d8575b50506115d692500383611455565b565b9093915060005260209081600020936000915b8183106116035750506115d6935082010138806115c8565b855488840185015294850194879450918301916115eb565b9150506115d694506020925060ff191682840152151560051b82010138806115c8565b3360009081527fad3228b676f7d3cd4284a5443f17f1962b36e491b30a40b2405849e597ba5fb5602052604081205460ff16156116785750565b6044906040519063e2517d3f60e01b82523360048301526024820152fd5b3360009081527fcc1f69e0eef30e6cab9eba078dfde64e8255bf01f21b8122b031b67f051e22926020526040902054600080516020611d9a8339815191529060ff16156116785750565b80600052600060205260406000203360005260205260ff60406000205416156116785750565b9060009180835282602052604083209160018060a01b03169182845260205260ff6040842054161560001461177f57808352826020526040832082845260205260408320600160ff198254161790557f2f8788117e7eff1d82e926ec794901d17c78024a50270940304540a733656f0d339380a4600190565b505090565b9060009180835282602052604083209160018060a01b03169182845260205260ff60408420541660001461177f5780835282602052604083208284526020526040832060ff1981541690557ff6391f5c32d9c69d2a47ea670b442974b53935d1edc7fd64eb21e047a839171b339380a4600190565b1561180057565b60405162461bcd60e51b815260206004820152602160248201527f557067726164654d616e616765723a2075706772616465732064697361626c656044820152601960fa1b6064820152608490fd5b1561185657565b60405162461bcd60e51b815260206004820152601f60248201527f557067726164654d616e616765723a20696e76616c69642061646472657373006044820152606490fd5b156118a257565b60405162461bcd60e51b815260206004820152601c60248201527b557067726164654d616e616765723a2073616d65206164647265737360201b6044820152606490fd5b604051906118f38261143a565b600f82526e21b7b63630ba32b930b62a37b5b2b760891b6020830152565b9392916119369060409260018060a01b031686526060602087015260608601906113cc565b930152565b604051906119488261143a565b600b82526a2b30bab63a2937baba32b960a91b6020830152565b6040519061196f8261143a565b601082526f4f72646572426f6f6b466163746f727960801b6020830152565b6040519061199b8261143a565b600d82526c2a3930b234b733a937baba32b960991b6020830152565b60001981146119c65760010190565b634e487b7160e01b600052601160045260246000fd5b6001600160a01b03909116815260406020820181905261150d929101906113cc565b919082018092116119c657565b6001600160401b0381116112285760051b60200190565b80518210156115485760209160051b010190565b9081602091031261029e5751801515810361029e5790565b919060405191611a5d8361141f565b6001600160a01b03848116845291909116602083018181526040840192835242606085015233608085015260a084019590955260065490949190600160401b81101561122857806001611ab39201600655611510565b929092611d8357835183546001600160a01b03199081166001600160a01b0392831617855591516001850180549093169116179055518051906001600160401b03821161122857611b07600284015461155e565b601f8111611d3c575b50602090601f8311600114611cc757918060a09492600594600092611cbc575b50508160011b916000199060031b1c19161760028201555b6060840151600382015560048101600180851b03608086015116600180861b03198254161790550191015180519060018060401b038211611228578190611b8f845461155e565b601f8111611c69575b50602090601f8311600114611c0357600092611bf8575b50508160011b916000199060031b1c19161790555b6001600160a01b0316600090815260076020526040808220805460ff19908116909155928252902080549091166001179055565b015190503880611baf565b6000858152602081209350601f198516905b818110611c515750908460019594939210611c38575b505050811b019055611bc4565b015160001960f88460031b161c19169055388080611c2b565b92936020600181928786015181550195019301611c15565b909150836000526020600020601f840160051c81019160208510611cb2575b90601f859493920160051c01905b818110611ca35750611b98565b60008155849350600101611c96565b9091508190611c88565b015190503880611b30565b906002840160005260206000209160005b601f1985168110611d2457509260a0949260019260059583601f19811610611d0b575b505050811b016002820155611b48565b015160001960f88460031b161c19169055388080611cfb565b91926020600181928685015181550194019201611cd8565b600284016000526020600020601f840160051c810160208510611d7c575b601f830160051c82018110611d70575050611b10565b60008155600101611d5a565b5080611d5a565b634e487b7160e01b600052600060045260246000fdfe189ab7a9244df0848122154315af71fe140f3db0fe014031783b0946b8c9d2e30e6db9c313a0fb45052e2003a328a211044b0de4e4181c35b26027b1fd249119a2646970667358221220f45ed223df4abeec0e6473600c92f1fe1dc22586b49aa0567dc250909ac591d564736f6c634300081400332f8788117e7eff1d82e926ec794901d17c78024a50270940304540a733656f0d",
  "linkReferences": {},
  "deployedLinkReferences": {}
}