{
  "_format": "hh-sol-artifact-1",
  "contractName": "SimpleUSDC",
  "sourceName": "contracts/SimpleUSDC.sol",
  "abi": [
    {
      "inputs": [
        {
          "internalType": "uint256",
          "name": "_initialSupply",
          "type": "uint256"
        }
      ],
      "stateMutability": "nonpayable",
      "type": "constructor"
    },
    {
      "anonymous": false,
      "inputs": [
        {
          "indexed": true,
          "internalType": "address",
          "name": "owner",
          "type": "address"
        },
        {
          "indexed": true,
          "internalType": "address",
          "name": "spender",
          "type": "address"
        },
        {
          "indexed": false,
          "internalType": "uint256",
          "name": "value",
          "type": "uint256"
        }
      ],
      "name": "Approval",
      "type": "event"
    },
    {
      "anonymous": false,
      "inputs": [
        {
          "indexed": true,
          "internalType": "address",
          "name": "to",
          "type": "address"
        },
        {
          "indexed": false,
          "internalType": "uint256",
          "name": "value",
          "type": "uint256"
        }
      ],
      "name": "Mint",
      "type": "event"
    },
    {
      "anonymous": false,
      "inputs": [
        {
          "indexed": true,
          "internalType": "address",
          "name": "from",
          "type": "address"
        },
        {
          "indexed": true,
          "internalType": "address",
          "name": "to",
          "type": "address"
        },
        {
          "indexed": false,
          "internalType": "uint256",
          "name": "value",
          "type": "uint256"
        }
      ],
      "name": "Transfer",
      "type": "event"
    },
    {
      "inputs": [
        {
          "internalType": "address",
          "name": "",
          "type": "address"
        },
        {
          "internalType": "address",
          "name": "",
          "type": "address"
        }
      ],
      "name": "allowance",
      "outputs": [
        {
          "internalType": "uint256",
          "name": "",
          "type": "uint256"
        }
      ],
      "stateMutability": "view",
      "type": "function"
    },
    {
      "inputs": [
        {
          "internalType": "address",
          "name": "spender",
          "type": "address"
        },
        {
          "internalType": "uint256",
          "name": "value",
          "type": "uint256"
        }
      ],
      "name": "approve",
      "outputs": [
        {
          "internalType": "bool",
          "name": "",
          "type": "bool"
        }
      ],
      "stateMutability": "nonpayable",
      "type": "function"
    },
    {
      "inputs": [
        {
          "internalType": "address",
          "name": "",
          "type": "address"
        }
      ],
      "name": "balanceOf",
      "outputs": [
        {
          "internalType": "uint256",
          "name": "",
          "type": "uint256"
        }
      ],
      "stateMutability": "view",
      "type": "function"
    },
    {
      "inputs": [],
      "name": "decimals",
      "outputs": [
        {
          "internalType": "uint8",
          "name": "",
          "type": "uint8"
        }
      ],
      "stateMutability": "view",
      "type": "function"
    },
    {
      "inputs": [
        {
          "internalType": "uint256",
          "name": "amount",
          "type": "uint256"
        }
      ],
      "name": "faucet",
      "outputs": [],
      "stateMutability": "nonpayable",
      "type": "function"
    },
    {
      "inputs": [
        {
          "internalType": "address",
          "name": "to",
          "type": "address"
        },
        {
          "internalType": "uint256",
          "name": "value",
          "type": "uint256"
        }
      ],
      "name": "mint",
      "outputs": [],
      "stateMutability": "nonpayable",
      "type": "function"
    },
    {
      "inputs": [],
      "name": "name",
      "outputs": [
        {
          "internalType": "string",
          "name": "",
          "type": "string"
        }
      ],
      "stateMutability": "view",
      "type": "function"
    },
    {
      "inputs": [],
      "name": "symbol",
      "outputs": [
        {
          "internalType": "string",
          "name": "",
          "type": "string"
        }
      ],
      "stateMutability": "view",
      "type": "function"
    },
    {
      "inputs": [],
      "name": "totalSupply",
      "outputs": [
        {
          "internalType": "uint256",
          "name": "",
          "type": "uint256"
        }
      ],
      "stateMutability": "view",
      "type": "function"
    },
    {
      "inputs": [
        {
          "internalType": "address",
          "name": "to",
          "type": "address"
        },
        {
          "internalType": "uint256",
          "name": "value",
          "type": "uint256"
        }
      ],
      "name": "transfer",
      "outputs": [
        {
          "internalType": "bool",
          "name": "",
          "type": "bool"
        }
      ],
      "stateMutability": "nonpayable",
      "type": "function"
    },
    {
      "inputs": [
        {
          "internalType": "address",
          "name": "from",
          "type": "address"
        },
        {
          "internalType": "address",
          "name": "to",
          "type": "address"
        },
        {
          "internalType": "uint256",
          "name": "value",
          "type": "uint256"
        }
      ],
      "name": "transferFrom",
      "outputs": [
        {
          "internalType": "bool",
          "name": "",
          "type": "bool"
        }
      ],
      "stateMutability": "nonpayable",
      "type": "function"
    }
  ],
  "bytecode": "0x60803461017657601f6109e738819003918201601f19168301916001600160401b0383118484101761017b578084926020946040528339810103126101765751600061004b8154610191565b601f811161014c575b507f53696d706c65205553444300000000000000000000000000000000000000001681556001805461008590610191565b601f8111610120575b506008635553444360e01b0190556002805460ff19166006179055620f4240828102928015908404909114171561010c578160035533815260046020528160408220556040519182527fddf252ad1be2c89b69c2b068fc378daa952ba7f163c4a11628f55a4df523b3ef60203393a360405161081b90816101cc8239f35b634e487b7160e01b81526011600452602490fd5b81835281601f60208520920160051c8201915b82811061014157505061008e565b848155018290610133565b818052601f60208320910160051c8101905b81811061016b5750610054565b82815560010161015e565b600080fd5b634e487b7160e01b600052604160045260246000fd5b90600182811c921680156101c1575b60208310146101ab57565b634e487b7160e01b600052602260045260246000fd5b91607f16916101a056fe608060408181526004918236101561001657600080fd5b600092833560e01c91826306fdde03146105c257508163095ea7b31461055157816318160ddd1461053257816323b872dd1461048f578163313ce5671461046d5783826340c10f19146103d15750816357915897146102da57816370a08231146102a457816395d89b4114610184578163a9059cbb146100eb575063dd62ed3e146100a057600080fd5b346100e757806003193601126100e757806020926100bc6106e1565b6100c46106fc565b6001600160a01b0391821683526005865283832091168252845220549051908152f35b5080fd5b905034610180578160031936011261018057602092826101096106e1565b6001600160a01b0316926024359290610123851515610712565b33825280875261013884848420541015610752565b33825280875282822061014c858254610795565b905584825286522061015f8282546107b8565b905582519081526000805160206107c6833981519152843392a35160018152f35b8280fd5b8383346100e757816003193601126100e75780519082600180549081811c9080831692831561029a575b60209384841081146102875783885290811561026b5750600114610216575b505050829003601f01601f191682019267ffffffffffffffff84118385101761020357508291826101ff925282610698565b0390f35b634e487b7160e01b815260418552602490fd5b8087529192508591837fb10e2d527612073b26eecdfd717e6a320cf44b4afac2b0732d9fcbe2b7fa0cf65b83851061025757505050508301018580806101cd565b805488860183015293019284908201610241565b60ff1916878501525050151560051b84010190508580806101cd565b634e487b7160e01b895260228a52602489fd5b91607f16916101ae565b9050346101805760203660031901126101805760209282916001600160a01b036102cc6106e1565b168252845220549051908152f35b919050346101805760203660031901126101805781359160ff60025416604d81116103be57600a0a620186a090808202918204036103be57831161038457610324836003546107b8565b60035533845260205280832061033b8382546107b8565b905580518281527f0f6798a560793a54c3bcfe86a93cde1e73087d944c0ea20544137d412139688560203392a251908152816000805160206107c683398151915260203393a380f35b6020606492519162461bcd60e51b8352820152601560248201527411985d58d95d081b1a5b5a5d08195e18d959591959605a1b6044820152fd5b634e487b7160e01b855260118252602485fd5b915091346100e757806003193601126100e75760206000805160206107c6833981519152916103fe6106e1565b6001600160a01b0316946024359190610418871515610712565b610424836003546107b8565b600355868652835280852061043a8382546107b8565b9055857f0f6798a560793a54c3bcfe86a93cde1e73087d944c0ea20544137d4121396885848351858152a251908152a380f35b5050346100e757816003193601126100e75760209060ff600254169051908152f35b90503461018057606036600319011261018057916020926000805160206107c6833981519152846104be6106e1565b93856104c86106fc565b6001600160a01b03908116966044359391906104e5891515610712565b16958682528085526104fc84848420541015610752565b868252808552828220610510858254610795565b90558782528452206105238282546107b8565b90558551908152a35160018152f35b5050346100e757816003193601126100e7576020906003549051908152f35b5050346100e757806003193601126100e7576020918161056f6106e1565b91602435918291338152600587528181209460018060a01b0316948582528752205582519081527f8c5be1e5ebec7d5bd14f71427d1e84f3dd0314c0f7b2291e5b200ac8c7c3b925843392a35160018152f35b84908434610180578260031936011261018057828354600181811c9080831692831561068e575b60209384841081146102875783885290811561026b575060011461063957505050829003601f01601f191682019267ffffffffffffffff84118385101761020357508291826101ff925282610698565b8680529192508591837f290decd9548b62a8d60345a988386fc84ba6bc95484008f6362f93160ef3e5635b83851061067a57505050508301018580806101cd565b805488860183015293019284908201610664565b91607f16916105e9565b6020808252825181830181905290939260005b8281106106cd57505060409293506000838284010152601f8019910116010190565b8181018601518482016040015285016106ab565b600435906001600160a01b03821682036106f757565b600080fd5b602435906001600160a01b03821682036106f757565b1561071957565b60405162461bcd60e51b8152602060048201526011602482015270125b9d985b1a59081c9958da5c1a595b9d607a1b6044820152606490fd5b1561075957565b60405162461bcd60e51b8152602060048201526014602482015273496e73756666696369656e742062616c616e636560601b6044820152606490fd5b919082039182116107a257565b634e487b7160e01b600052601160045260246000fd5b919082018092116107a25756feddf252ad1be2c89b69c2b068fc378daa952ba7f163c4a11628f55a4df523b3efa264697066735822122083f3ec525fea72354efde574e472a5fe132e5099d0df9abb34f6500e4660651d64736f6c63430008140033",
  "linkReferences": {},
  "deployedLinkReferences": {}
}