{
  "_format": "hh-sol-artifact-1",
  "contractName": "MockUSDC",
  "sourceName": "contracts/MockUSDC.sol",
  "abi": [
    {
      "inputs": [
        {
          "internalType": "address",
          "name": "initialOwner",
          "type": "address"
        }
      ],
      "stateMutability": "nonpayable",
      "type": "constructor"
    },
    {
      "inputs": [
        {
          "internalType": "address",
          "name": "spender",
          "type": "address"
        },
        {
          "internalType": "uint256",
          "name": "allowance",
          "type": "uint256"
        },
        {
          "internalType": "uint256",
          "name": "needed",
          "type": "uint256"
        }
      ],
      "name": "ERC20InsufficientAllowance",
      "type": "error"
    },
    {
      "inputs": [
        {
          "internalType": "address",
          "name": "sender",
          "type": "address"
        },
        {
          "internalType": "uint256",
          "name": "balance",
          "type": "uint256"
        },
        {
          "internalType": "uint256",
          "name": "needed",
          "type": "uint256"
        }
      ],
      "name": "ERC20InsufficientBalance",
      "type": "error"
    },
    {
      "inputs": [
        {
          "internalType": "address",
          "name": "approver",
          "type": "address"
        }
      ],
      "name": "ERC20InvalidApprover",
      "type": "error"
    },
    {
      "inputs": [
        {
          "internalType": "address",
          "name": "receiver",
          "type": "address"
        }
      ],
      "name": "ERC20InvalidReceiver",
      "type": "error"
    },
    {
      "inputs": [
        {
          "internalType": "address",
          "name": "sender",
          "type": "address"
        }
      ],
      "name": "ERC20InvalidSender",
      "type": "error"
    },
    {
      "inputs": [
        {
          "internalType": "address",
          "name": "spender",
          "type": "address"
        }
      ],
      "name": "ERC20InvalidSpender",
      "type": "error"
    },
    {
      "inputs": [
        {
          "internalType": "address",
          "name": "owner",
          "type": "address"
        }
      ],
      "name": "OwnableInvalidOwner",
      "type": "error"
    },
    {
      "inputs": [
        {
          "internalType": "address",
          "name": "account",
          "type": "address"
        }
      ],
      "name": "OwnableUnauthorizedAccount",
      "type": "error"
    },
    {
      "anonymous": false,
      "inputs": [
        {
          "indexed": true,
          "internalType": "address",
          "name": "owner",
          "type": "address"
        },
        {
          "indexed": true,
          "internalType": "address",
          "name": "spender",
          "type": "address"
        },
        {
          "indexed": false,
          "internalType": "uint256",
          "name": "value",
          "type": "uint256"
        }
      ],
      "name": "Approval",
      "type": "event"
    },
    {
      "anonymous": false,
      "inputs": [
        {
          "indexed": true,
          "internalType": "address",
          "name": "previousOwner",
          "type": "address"
        },
        {
          "indexed": true,
          "internalType": "address",
          "name": "newOwner",
          "type": "address"
        }
      ],
      "name": "OwnershipTransferred",
      "type": "event"
    },
    {
      "anonymous": false,
      "inputs": [
        {
          "indexed": true,
          "internalType": "address",
          "name": "from",
          "type": "address"
        },
        {
          "indexed": true,
          "internalType": "address",
          "name": "to",
          "type": "address"
        },
        {
          "indexed": false,
          "internalType": "uint256",
          "name": "value",
          "type": "uint256"
        }
      ],
      "name": "Transfer",
      "type": "event"
    },
    {
      "inputs": [
        {
          "internalType": "address",
          "name": "owner",
          "type": "address"
        },
        {
          "internalType": "address",
          "name": "spender",
          "type": "address"
        }
      ],
      "name": "allowance",
      "outputs": [
        {
          "internalType": "uint256",
          "name": "",
          "type": "uint256"
        }
      ],
      "stateMutability": "view",
      "type": "function"
    },
    {
      "inputs": [
        {
          "internalType": "address",
          "name": "spender",
          "type": "address"
        },
        {
          "internalType": "uint256",
          "name": "value",
          "type": "uint256"
        }
      ],
      "name": "approve",
      "outputs": [
        {
          "internalType": "bool",
          "name": "",
          "type": "bool"
        }
      ],
      "stateMutability": "nonpayable",
      "type": "function"
    },
    {
      "inputs": [
        {
          "internalType": "address",
          "name": "account",
          "type": "address"
        }
      ],
      "name": "balanceOf",
      "outputs": [
        {
          "internalType": "uint256",
          "name": "",
          "type": "uint256"
        }
      ],
      "stateMutability": "view",
      "type": "function"
    },
    {
      "inputs": [
        {
          "internalType": "uint256",
          "name": "amount",
          "type": "uint256"
        }
      ],
      "name": "burn",
      "outputs": [],
      "stateMutability": "nonpayable",
      "type": "function"
    },
    {
      "inputs": [
        {
          "internalType": "address",
          "name": "from",
          "type": "address"
        },
        {
          "internalType": "uint256",
          "name": "amount",
          "type": "uint256"
        }
      ],
      "name": "burnFrom",
      "outputs": [],
      "stateMutability": "nonpayable",
      "type": "function"
    },
    {
      "inputs": [],
      "name": "decimals",
      "outputs": [
        {
          "internalType": "uint8",
          "name": "",
          "type": "uint8"
        }
      ],
      "stateMutability": "view",
      "type": "function"
    },
    {
      "inputs": [
        {
          "internalType": "uint256",
          "name": "amount",
          "type": "uint256"
        }
      ],
      "name": "faucet",
      "outputs": [],
      "stateMutability": "nonpayable",
      "type": "function"
    },
    {
      "inputs": [
        {
          "internalType": "address",
          "name": "to",
          "type": "address"
        },
        {
          "internalType": "uint256",
          "name": "amount",
          "type": "uint256"
        }
      ],
      "name": "mint",
      "outputs": [],
      "stateMutability": "nonpayable",
      "type": "function"
    },
    {
      "inputs": [
        {
          "internalType": "address[]",
          "name": "recipients",
          "type": "address[]"
        },
        {
          "internalType": "uint256[]",
          "name": "amounts",
          "type": "uint256[]"
        }
      ],
      "name": "mintBatch",
      "outputs": [],
      "stateMutability": "nonpayable",
      "type": "function"
    },
    {
      "inputs": [],
      "name": "name",
      "outputs": [
        {
          "internalType": "string",
          "name": "",
          "type": "string"
        }
      ],
      "stateMutability": "view",
      "type": "function"
    },
    {
      "inputs": [],
      "name": "owner",
      "outputs": [
        {
          "internalType": "address",
          "name": "",
          "type": "address"
        }
      ],
      "stateMutability": "view",
      "type": "function"
    },
    {
      "inputs": [],
      "name": "paused",
      "outputs": [
        {
          "internalType": "bool",
          "name": "",
          "type": "bool"
        }
      ],
      "stateMutability": "view",
      "type": "function"
    },
    {
      "inputs": [],
      "name": "renounceOwnership",
      "outputs": [],
      "stateMutability": "nonpayable",
      "type": "function"
    },
    {
      "inputs": [
        {
          "internalType": "bool",
          "name": "pausedState",
          "type": "bool"
        }
      ],
      "name": "setPaused",
      "outputs": [],
      "stateMutability": "nonpayable",
      "type": "function"
    },
    {
      "inputs": [],
      "name": "symbol",
      "outputs": [
        {
          "internalType": "string",
          "name": "",
          "type": "string"
        }
      ],
      "stateMutability": "view",
      "type": "function"
    },
    {
      "inputs": [],
      "name": "totalSupply",
      "outputs": [
        {
          "internalType": "uint256",
          "name": "",
          "type": "uint256"
        }
      ],
      "stateMutability": "view",
      "type": "function"
    },
    {
      "inputs": [
        {
          "internalType": "address",
          "name": "to",
          "type": "address"
        },
        {
          "internalType": "uint256",
          "name": "value",
          "type": "uint256"
        }
      ],
      "name": "transfer",
      "outputs": [
        {
          "internalType": "bool",
          "name": "",
          "type": "bool"
        }
      ],
      "stateMutability": "nonpayable",
      "type": "function"
    },
    {
      "inputs": [
        {
          "internalType": "address",
          "name": "from",
          "type": "address"
        },
        {
          "internalType": "address",
          "name": "to",
          "type": "address"
        },
        {
          "internalType": "uint256",
          "name": "value",
          "type": "uint256"
        }
      ],
      "name": "transferFrom",
      "outputs": [
        {
          "internalType": "bool",
          "name": "",
          "type": "bool"
        }
      ],
      "stateMutability": "nonpayable",
      "type": "function"
    },
    {
      "inputs": [
        {
          "internalType": "address",
          "name": "newOwner",
          "type": "address"
        }
      ],
      "name": "transferOwnership",
      "outputs": [],
      "stateMutability": "nonpayable",
      "type": "function"
    }
  ],
  "bytecode": "0x608034620003a6576001600160401b0390601f90601f1990620010b5388190038481018416830186811184821017620002aa57839282916040528339602092839181010312620003a657516001600160a01b03948582169391849003620003a6576200006a620003ab565b60098152684d6f636b205553444360b81b8482015262000089620003ab565b90600596878352646d5553444360d81b86840152815192848411620002aa5760039384546001948582811c921680156200039b575b8a831014620003855781858493116200032f575b508990858311600114620002cc57600092620002c0575b505060001982871b1c191690841b1784555b8051948511620002aa5760049687548481811c911680156200029f575b828210146200028a5783811162000241575b5080928611600114620001d5575084955090849291600095620001c9575b50501b92600019911b1c19161781555b8115620001b15750815490806040519483167f8be0079c531659141344cd1fd0a4f28419497f9722a3daafe3b4186f6b6457e0600080a36001600160a81b031990911617600360a11b179055610ce99081620003cc8239f35b602490600060405191631e4fbdf760e01b8352820152fd5b01519350388062000148565b939295859081168860005285600020956000905b898383106200022657505050106200020b575b50505050811b01815562000158565b01519060f884600019921b161c1916905538808080620001fc565b858701518955909701969485019488935090810190620001e9565b8860005281600020848089018d1c820192848a1062000280575b018c1c019085905b828110620002735750506200012a565b6000815501859062000263565b925081926200025b565b602289634e487b7160e01b6000525260246000fd5b90607f169062000118565b634e487b7160e01b600052604160045260246000fd5b015190503880620000e9565b908987941691886000528b6000209260005b8d828210620003185750508411620002ff575b505050811b018455620000fb565b015160001983891b60f8161c19169055388080620002f1565b8385015186558a97909501949384019301620002de565b9091508660005289600020858d818601901c8201928c86106200037b575b918e89928796959401901c01915b8281106200036b575050620000d2565b600081558594508891016200035b565b925081926200034d565b634e487b7160e01b600052602260045260246000fd5b91607f1691620000be565b600080fd5b60408051919082016001600160401b03811183821017620002aa5760405256fe6080604081815260048036101561001557600080fd5b600092833560e01c90816306fdde031461076057508063095ea7b3146106b757806316c38b3c1461067157806318160ddd1461065257806323b872dd14610615578063313ce567146105f057806340c10f19146105c357806342966c68146105a557806357915897146105055780635c975abb146104de57806370a08231146104a7578063715018a61461045c57806379cc6790146104265780637c88e3d9146103175780638da5cb5b146102ee57806395d89b41146101ec578063a9059cbb146101bb578063dd62ed3e1461016e5763f2fde38b146100f457600080fd5b3461016a57602036600319011261016a5761010d610880565b906101166108e1565b6001600160a01b03918216928315610154575050600580546001600160a01b03198116841790915516600080516020610c748339815191528380a380f35b51631e4fbdf760e01b8152908101849052602490fd5b8280fd5b5050346101b757806003193601126101b7578060209261018c610880565b61019461089b565b6001600160a01b0391821683526001865283832091168252845220549051908152f35b5080fd5b5050346101b757806003193601126101b7576020906101e56101db610880565b602435903361090d565b5160018152f35b509190346101b757816003193601126101b757805190828454600181811c908083169283156102e4575b60209384841081146102d1578388529081156102b5575060011461027d575b505050829003601f01601f19168201926001600160401b0384118385101761026a5750829182610266925282610837565b0390f35b634e487b7160e01b815260418552602490fd5b919250868652828620918387935b8385106102a15750505050830101388080610235565b80548886018301529301928490820161028b565b60ff1916878501525050151560051b8401019050388080610235565b634e487b7160e01b895260228a52602489fd5b91607f1691610216565b5050346101b757816003193601126101b75760055490516001600160a01b039091168152602090f35b50903461016a578060031936011261016a576001600160401b039180358381116104225761034890369083016108b1565b602493919394853590811161041e5761036490369085016108b1565b91909261036f6108e1565b8282036103dd5750865b818110610384578780f35b61038f818388610ba8565b356001600160a01b03811681036103d9576103b6906103af838688610ba8565b3590610b16565b60001981146103c757600101610379565b634e487b7160e01b8852601185528688fd5b8880fd5b5162461bcd60e51b81526020818601819052818801527f4d6f636b555344433a20617272617973206c656e677468206d69736d617463686044820152606490fd5b8680fd5b8480fd5b5050346101b75736600319011261045957610456610442610880565b60243590610451823383610a55565b610bce565b80f35b80fd5b83346104595780600319360112610459576104756108e1565b600580546001600160a01b0319811690915581906001600160a01b0316600080516020610c748339815191528280a380f35b5050346101b75760203660031901126101b75760209181906001600160a01b036104cf610880565b16815280845220549051908152f35b5050346101b757816003193601126101b75760209060ff60055460a81c1690519015158152f35b503461016a57602036600319011261016a5780359160ff60055460a01c16604d811161059257600a0a620f4240908082029182040361059257831161054f57836104568433610b16565b906020606492519162461bcd60e51b8352820152601f60248201527f4d6f636b555344433a20666175636574206c696d6974206578636565646564006044820152fd5b634e487b7160e01b855260118352602485fd5b8382346101b75760203660031901126101b757610456903533610bce565b5050346101b757366003190112610459576104566105df610880565b6105e76108e1565b60243590610b16565b5050346101b757816003193601126101b75760209060ff60055460a01c169051908152f35b5050346101b75760603660031901126101b7576020906101e5610636610880565b61063e61089b565b6044359161064d833383610a55565b61090d565b5050346101b757816003193601126101b7576020906002549051908152f35b8382346101b75760203660031901126101b757358015158091036101b7576106976108e1565b6005805460ff60a81b191660a89290921b60ff60a81b1691909117905580f35b503461016a578160031936011261016a576106d0610880565b602435903315610749576001600160a01b031691821561073257508083602095338152600187528181208582528752205582519081527f8c5be1e5ebec7d5bd14f71427d1e84f3dd0314c0f7b2291e5b200ac8c7c3b925843392a35160018152f35b8351634a1406b160e11b8152908101859052602490fd5b835163e602df0560e01b8152808401869052602490fd5b849150833461016a578260031936011261016a5782600354600181811c9080831692831561082d575b60209384841081146102d15783885290811561081157506001146107d857505050829003601f01601f19168201926001600160401b0384118385101761026a5750829182610266925282610837565b91925060038652828620918387935b8385106107fd5750505050830101858080610235565b8054888601830152930192849082016107e7565b60ff1916878501525050151560051b8401019050858080610235565b91607f1691610789565b6020808252825181830181905290939260005b82811061086c57505060409293506000838284010152601f8019910116010190565b81810186015184820160400152850161084a565b600435906001600160a01b038216820361089657565b600080fd5b602435906001600160a01b038216820361089657565b9181601f84011215610896578235916001600160401b038311610896576020808501948460051b01011161089657565b6005546001600160a01b031633036108f557565b60405163118cdaa760e01b8152336004820152602490fd5b916001600160a01b03808416928315610a1e5716928315610a055760ff60055460a81c161580156109fd575b80156109f5575b156109b3576000908382528160205260408220549083821061099257509160408282600080516020610c94833981519152958760209652828652038282205586815220818154019055604051908152a3565b6109af8460405193849363391434e360e21b855260048501610a37565b0390fd5b60405162461bcd60e51b815260206004820152601a602482015279135bd8dad554d110ce881d1c985b9cd9995c9cc81c185d5cd95960321b6044820152606490fd5b506000610940565b506000610939565b60405163ec442f0560e01b815260006004820152602490fd5b604051634b637e8f60e11b815260006004820152602490fd5b604091949392606082019560018060a01b0316825260208201520152565b9160018060a01b038093169160009383855260016020526040938486209183169182875260205284862054926000198410610a94575b50505050505050565b848410610af857508015610ae0578115610ac857855260016020528385209085526020520391205538808080808080610a8b565b8451634a1406b160e11b815260048101879052602490fd5b845163e602df0560e01b815260048101879052602490fd5b83906109af868851938493637dc7a0d960e11b855260048501610a37565b6001600160a01b0316908115610a055760ff60055460a81c16158015610ba0575b8015610b98575b156109b35760025490808201809211610b82576020600080516020610c948339815191529160009360025584845283825260408420818154019055604051908152a3565b634e487b7160e01b600052601160045260246000fd5b506000610b3e565b506001610b37565b9190811015610bb85760051b0190565b634e487b7160e01b600052603260045260246000fd5b906001600160a01b038216908115610a1e5760ff60055460a81c16158015610c6b575b8015610c63575b156109b35760009282845283602052604084205490828210610c46575081600080516020610c94833981519152926020928587528684520360408620558060025403600255604051908152a3565b6109af8360405193849363391434e360e21b855260048501610a37565b506001610bf8565b506000610bf156fe8be0079c531659141344cd1fd0a4f28419497f9722a3daafe3b4186f6b6457e0ddf252ad1be2c89b69c2b068fc378daa952ba7f163c4a11628f55a4df523b3efa26469706673582212200963bfc51a6f1e5264179d95e32205cdcbd21387d417b989759decad5ddf92d064736f6c63430008140033",
  "linkReferences": {},
  "deployedLinkReferences": {}
}